{
	"Member.sol": {
		"MemberContract": {
			"abi": [
				{
					"inputs": [
						{
							"internalType": "address",
							"name": "",
							"type": "address"
						}
					],
					"name": "memberExist",
					"outputs": [
						{
							"internalType": "bool",
							"name": "",
							"type": "bool"
						}
					],
					"stateMutability": "view",
					"type": "function"
				},
				{
					"inputs": [
						{
							"internalType": "uint256",
							"name": "",
							"type": "uint256"
						}
					],
					"name": "members",
					"outputs": [
						{
							"internalType": "uint256",
							"name": "ID",
							"type": "uint256"
						},
						{
							"internalType": "string",
							"name": "name",
							"type": "string"
						},
						{
							"internalType": "uint256",
							"name": "age",
							"type": "uint256"
						},
						{
							"internalType": "address",
							"name": "wallet",
							"type": "address"
						}
					],
					"stateMutability": "view",
					"type": "function"
				},
				{
					"inputs": [
						{
							"internalType": "string",
							"name": "_name",
							"type": "string"
						},
						{
							"internalType": "uint256",
							"name": "_age",
							"type": "uint256"
						},
						{
							"internalType": "address",
							"name": "_wallet",
							"type": "address"
						}
					],
					"name": "registerMember",
					"outputs": [],
					"stateMutability": "nonpayable",
					"type": "function"
				}
			],
			"devdoc": {
				"kind": "dev",
				"methods": {},
				"version": 1
			},
			"evm": {
				"assembly": "    /* \"Member.sol\":59:834  contract MemberContract {... */\n  mstore(0x40, 0x80)\n  callvalue\n  dup1\n  iszero\n  tag_1\n  jumpi\n  revert(0x00, 0x00)\ntag_1:\n  pop\n  dataSize(sub_0)\n  dup1\n  dataOffset(sub_0)\n  0x00\n  codecopy\n  0x00\n  return\nstop\n\nsub_0: assembly {\n        /* \"Member.sol\":59:834  contract MemberContract {... */\n      mstore(0x40, 0x80)\n      callvalue\n      dup1\n      iszero\n      tag_1\n      jumpi\n      revert(0x00, 0x00)\n    tag_1:\n      pop\n      jumpi(tag_2, lt(calldatasize, 0x04))\n      shr(0xe0, calldataload(0x00))\n      dup1\n      0x506b27f0\n      eq\n      tag_3\n      jumpi\n      dup1\n      0x5daf08ca\n      eq\n      tag_4\n      jumpi\n      dup1\n      0xb184c11e\n      eq\n      tag_5\n      jumpi\n    tag_2:\n      revert(0x00, 0x00)\n        /* \"Member.sol\":231:274  mapping(address => bool) public memberExist */\n    tag_3:\n      tag_6\n      0x04\n      dup1\n      calldatasize\n      sub\n      dup2\n      add\n      swap1\n      tag_7\n      swap2\n      swap1\n      tag_8\n      jump\t// in\n    tag_7:\n      tag_9\n      jump\t// in\n    tag_6:\n      mload(0x40)\n      tag_10\n      swap2\n      swap1\n      tag_11\n      jump\t// in\n    tag_10:\n      mload(0x40)\n      dup1\n      swap2\n      sub\n      swap1\n      return\n        /* \"Member.sol\":202:225  Member[] public members */\n    tag_4:\n      tag_12\n      0x04\n      dup1\n      calldatasize\n      sub\n      dup2\n      add\n      swap1\n      tag_13\n      swap2\n      swap1\n      tag_14\n      jump\t// in\n    tag_13:\n      tag_15\n      jump\t// in\n    tag_12:\n      mload(0x40)\n      tag_16\n      swap5\n      swap4\n      swap3\n      swap2\n      swap1\n      tag_17\n      jump\t// in\n    tag_16:\n      mload(0x40)\n      dup1\n      swap2\n      sub\n      swap1\n      return\n        /* \"Member.sol\":281:832  function registerMember(... */\n    tag_5:\n      tag_18\n      0x04\n      dup1\n      calldatasize\n      sub\n      dup2\n      add\n      swap1\n      tag_19\n      swap2\n      swap1\n      tag_20\n      jump\t// in\n    tag_19:\n      tag_21\n      jump\t// in\n    tag_18:\n      stop\n        /* \"Member.sol\":231:274  mapping(address => bool) public memberExist */\n    tag_9:\n      mstore(0x20, 0x01)\n      dup1\n      0x00\n      mstore\n      keccak256(0x00, 0x40)\n      0x00\n      swap2\n      pop\n      sload\n      swap1\n      0x0100\n      exp\n      swap1\n      div\n      0xff\n      and\n      dup2\n      jump\t// out\n        /* \"Member.sol\":202:225  Member[] public members */\n    tag_15:\n      0x00\n      dup2\n      dup2\n      sload\n      dup2\n      lt\n      tag_22\n      jumpi\n      0x00\n      dup1\n      revert\n    tag_22:\n      swap1\n      0x00\n      mstore\n      keccak256(0x00, 0x20)\n      swap1\n      0x04\n      mul\n      add\n      0x00\n      swap2\n      pop\n      swap1\n      pop\n      dup1\n      0x00\n      add\n      sload\n      swap1\n      dup1\n      0x01\n      add\n      dup1\n      sload\n      tag_24\n      swap1\n      tag_25\n      jump\t// in\n    tag_24:\n      dup1\n      0x1f\n      add\n      0x20\n      dup1\n      swap2\n      div\n      mul\n      0x20\n      add\n      mload(0x40)\n      swap1\n      dup2\n      add\n      0x40\n      mstore\n      dup1\n      swap3\n      swap2\n      swap1\n      dup2\n      dup2\n      mstore\n      0x20\n      add\n      dup3\n      dup1\n      sload\n      tag_26\n      swap1\n      tag_25\n      jump\t// in\n    tag_26:\n      dup1\n      iszero\n      tag_27\n      jumpi\n      dup1\n      0x1f\n      lt\n      tag_28\n      jumpi\n      0x0100\n      dup1\n      dup4\n      sload\n      div\n      mul\n      dup4\n      mstore\n      swap2\n      0x20\n      add\n      swap2\n      jump(tag_27)\n    tag_28:\n      dup3\n      add\n      swap2\n      swap1\n      0x00\n      mstore\n      keccak256(0x00, 0x20)\n      swap1\n    tag_29:\n      dup2\n      sload\n      dup2\n      mstore\n      swap1\n      0x01\n      add\n      swap1\n      0x20\n      add\n      dup1\n      dup4\n      gt\n      tag_29\n      jumpi\n      dup3\n      swap1\n      sub\n      0x1f\n      and\n      dup3\n      add\n      swap2\n    tag_27:\n      pop\n      pop\n      pop\n      pop\n      pop\n      swap1\n      dup1\n      0x02\n      add\n      sload\n      swap1\n      dup1\n      0x03\n      add\n      0x00\n      swap1\n      sload\n      swap1\n      0x0100\n      exp\n      swap1\n      div\n      0xffffffffffffffffffffffffffffffffffffffff\n      and\n      swap1\n      pop\n      dup5\n      jump\t// out\n        /* \"Member.sol\":281:832  function registerMember(... */\n    tag_21:\n        /* \"Member.sol\":434:435  0 */\n      0x00\n        /* \"Member.sol\":418:423  _name */\n      dup4\n        /* \"Member.sol\":412:431  bytes(_name).length */\n      mload\n        /* \"Member.sol\":412:435  bytes(_name).length > 0 */\n      gt\n        /* \"Member.sol\":404:466  require(bytes(_name).length > 0, \"User name cannot be empty!\") */\n      tag_31\n      jumpi\n      mload(0x40)\n      0x08c379a000000000000000000000000000000000000000000000000000000000\n      dup2\n      mstore\n      0x04\n      add\n      tag_32\n      swap1\n      tag_33\n      jump\t// in\n    tag_32:\n      mload(0x40)\n      dup1\n      swap2\n      sub\n      swap1\n      revert\n    tag_31:\n        /* \"Member.sol\":491:493  15 */\n      0x0f\n        /* \"Member.sol\":484:488  _age */\n      dup3\n        /* \"Member.sol\":484:493  _age > 15 */\n      gt\n        /* \"Member.sol\":476:524  require(_age > 15, \"User must be older than 15\") */\n      tag_34\n      jumpi\n      mload(0x40)\n      0x08c379a000000000000000000000000000000000000000000000000000000000\n      dup2\n      mstore\n      0x04\n      add\n      tag_35\n      swap1\n      tag_36\n      jump\t// in\n    tag_35:\n      mload(0x40)\n      dup1\n      swap2\n      sub\n      swap1\n      revert\n    tag_34:\n        /* \"Member.sol\":543:554  memberExist */\n      0x01\n        /* \"Member.sol\":543:563  memberExist[_wallet] */\n      0x00\n        /* \"Member.sol\":555:562  _wallet */\n      dup3\n        /* \"Member.sol\":543:563  memberExist[_wallet] */\n      0xffffffffffffffffffffffffffffffffffffffff\n      and\n      0xffffffffffffffffffffffffffffffffffffffff\n      and\n      dup2\n      mstore\n      0x20\n      add\n      swap1\n      dup2\n      mstore\n      0x20\n      add\n      0x00\n      keccak256\n      0x00\n      swap1\n      sload\n      swap1\n      0x0100\n      exp\n      swap1\n      div\n      0xff\n      and\n        /* \"Member.sol\":542:563  !memberExist[_wallet] */\n      iszero\n        /* \"Member.sol\":534:584  require(!memberExist[_wallet], \"User registered!\") */\n      tag_37\n      jumpi\n      mload(0x40)\n      0x08c379a000000000000000000000000000000000000000000000000000000000\n      dup2\n      mstore\n      0x04\n      add\n      tag_38\n      swap1\n      tag_39\n      jump\t// in\n    tag_38:\n      mload(0x40)\n      dup1\n      swap2\n      sub\n      swap1\n      revert\n    tag_37:\n        /* \"Member.sol\":617:621  true */\n      0x01\n        /* \"Member.sol\":594:605  memberExist */\n      dup1\n        /* \"Member.sol\":594:614  memberExist[_wallet] */\n      0x00\n        /* \"Member.sol\":606:613  _wallet */\n      dup4\n        /* \"Member.sol\":594:614  memberExist[_wallet] */\n      0xffffffffffffffffffffffffffffffffffffffff\n      and\n      0xffffffffffffffffffffffffffffffffffffffff\n      and\n      dup2\n      mstore\n      0x20\n      add\n      swap1\n      dup2\n      mstore\n      0x20\n      add\n      0x00\n      keccak256\n      0x00\n        /* \"Member.sol\":594:621  memberExist[_wallet] = true */\n      0x0100\n      exp\n      dup2\n      sload\n      dup2\n      0xff\n      mul\n      not\n      and\n      swap1\n      dup4\n      iszero\n      iszero\n      mul\n      or\n      swap1\n      sstore\n      pop\n        /* \"Member.sol\":632:643  uint256 _ID */\n      0x00\n        /* \"Member.sol\":663:664  1 */\n      0x01\n        /* \"Member.sol\":646:653  members */\n      0x00\n        /* \"Member.sol\":646:660  members.length */\n      dup1\n      sload\n      swap1\n      pop\n        /* \"Member.sol\":646:664  members.length + 1 */\n      tag_40\n      swap2\n      swap1\n      tag_41\n      jump\t// in\n    tag_40:\n        /* \"Member.sol\":632:664  uint256 _ID = members.length + 1 */\n      swap1\n      pop\n        /* \"Member.sol\":674:697  Member memory newMember */\n      0x00\n        /* \"Member.sol\":700:791  Member(... */\n      mload(0x40)\n      dup1\n      0x80\n      add\n      0x40\n      mstore\n      dup1\n        /* \"Member.sol\":720:723  _ID */\n      dup4\n        /* \"Member.sol\":700:791  Member(... */\n      dup2\n      mstore\n      0x20\n      add\n        /* \"Member.sol\":737:742  _name */\n      dup7\n        /* \"Member.sol\":700:791  Member(... */\n      dup2\n      mstore\n      0x20\n      add\n        /* \"Member.sol\":756:760  _age */\n      dup6\n        /* \"Member.sol\":700:791  Member(... */\n      dup2\n      mstore\n      0x20\n      add\n        /* \"Member.sol\":774:781  _wallet */\n      dup5\n        /* \"Member.sol\":700:791  Member(... */\n      0xffffffffffffffffffffffffffffffffffffffff\n      and\n      dup2\n      mstore\n      pop\n        /* \"Member.sol\":674:791  Member memory newMember = Member(... */\n      swap1\n      pop\n        /* \"Member.sol\":802:809  members */\n      0x00\n        /* \"Member.sol\":815:824  newMember */\n      dup2\n        /* \"Member.sol\":802:825  members.push(newMember) */\n      swap1\n      dup1\n      0x01\n      dup2\n      sload\n      add\n      dup1\n      dup3\n      sstore\n      dup1\n      swap2\n      pop\n      pop\n      0x01\n      swap1\n      sub\n      swap1\n      0x00\n      mstore\n      keccak256(0x00, 0x20)\n      swap1\n      0x04\n      mul\n      add\n      0x00\n      swap1\n      swap2\n      swap1\n      swap2\n      swap1\n      swap2\n      pop\n      0x00\n      dup3\n      add\n      mload\n      dup2\n      0x00\n      add\n      sstore\n      0x20\n      dup3\n      add\n      mload\n      dup2\n      0x01\n      add\n      swap1\n      dup2\n      tag_43\n      swap2\n      swap1\n      tag_44\n      jump\t// in\n    tag_43:\n      pop\n      0x40\n      dup3\n      add\n      mload\n      dup2\n      0x02\n      add\n      sstore\n      0x60\n      dup3\n      add\n      mload\n      dup2\n      0x03\n      add\n      exp(0x0100, 0x00)\n      dup2\n      sload\n      dup2\n      0xffffffffffffffffffffffffffffffffffffffff\n      mul\n      not\n      and\n      swap1\n      dup4\n      0xffffffffffffffffffffffffffffffffffffffff\n      and\n      mul\n      or\n      swap1\n      sstore\n      pop\n      pop\n      pop\n        /* \"Member.sol\":394:832  {... */\n      pop\n      pop\n        /* \"Member.sol\":281:832  function registerMember(... */\n      pop\n      pop\n      pop\n      jump\t// out\n        /* \"#utility.yul\":7:82   */\n    tag_45:\n        /* \"#utility.yul\":40:46   */\n      0x00\n        /* \"#utility.yul\":73:75   */\n      0x40\n        /* \"#utility.yul\":67:76   */\n      mload\n        /* \"#utility.yul\":57:76   */\n      swap1\n      pop\n        /* \"#utility.yul\":7:82   */\n      swap1\n      jump\t// out\n        /* \"#utility.yul\":88:205   */\n    tag_46:\n        /* \"#utility.yul\":197:198   */\n      0x00\n        /* \"#utility.yul\":194:195   */\n      0x00\n        /* \"#utility.yul\":187:199   */\n      revert\n        /* \"#utility.yul\":211:328   */\n    tag_47:\n        /* \"#utility.yul\":320:321   */\n      0x00\n        /* \"#utility.yul\":317:318   */\n      0x00\n        /* \"#utility.yul\":310:322   */\n      revert\n        /* \"#utility.yul\":334:460   */\n    tag_48:\n        /* \"#utility.yul\":371:378   */\n      0x00\n        /* \"#utility.yul\":411:453   */\n      0xffffffffffffffffffffffffffffffffffffffff\n        /* \"#utility.yul\":404:409   */\n      dup3\n        /* \"#utility.yul\":400:454   */\n      and\n        /* \"#utility.yul\":389:454   */\n      swap1\n      pop\n        /* \"#utility.yul\":334:460   */\n      swap2\n      swap1\n      pop\n      jump\t// out\n        /* \"#utility.yul\":466:562   */\n    tag_49:\n        /* \"#utility.yul\":503:510   */\n      0x00\n        /* \"#utility.yul\":532:556   */\n      tag_102\n        /* \"#utility.yul\":550:555   */\n      dup3\n        /* \"#utility.yul\":532:556   */\n      tag_48\n      jump\t// in\n    tag_102:\n        /* \"#utility.yul\":521:556   */\n      swap1\n      pop\n        /* \"#utility.yul\":466:562   */\n      swap2\n      swap1\n      pop\n      jump\t// out\n        /* \"#utility.yul\":568:690   */\n    tag_50:\n        /* \"#utility.yul\":641:665   */\n      tag_104\n        /* \"#utility.yul\":659:664   */\n      dup2\n        /* \"#utility.yul\":641:665   */\n      tag_49\n      jump\t// in\n    tag_104:\n        /* \"#utility.yul\":634:639   */\n      dup2\n        /* \"#utility.yul\":631:666   */\n      eq\n        /* \"#utility.yul\":621:684   */\n      tag_105\n      jumpi\n        /* \"#utility.yul\":680:681   */\n      0x00\n        /* \"#utility.yul\":677:678   */\n      0x00\n        /* \"#utility.yul\":670:682   */\n      revert\n        /* \"#utility.yul\":621:684   */\n    tag_105:\n        /* \"#utility.yul\":568:690   */\n      pop\n      jump\t// out\n        /* \"#utility.yul\":696:835   */\n    tag_51:\n        /* \"#utility.yul\":742:747   */\n      0x00\n        /* \"#utility.yul\":780:786   */\n      dup2\n        /* \"#utility.yul\":767:787   */\n      calldataload\n        /* \"#utility.yul\":758:787   */\n      swap1\n      pop\n        /* \"#utility.yul\":796:829   */\n      tag_107\n        /* \"#utility.yul\":823:828   */\n      dup2\n        /* \"#utility.yul\":796:829   */\n      tag_50\n      jump\t// in\n    tag_107:\n        /* \"#utility.yul\":696:835   */\n      swap3\n      swap2\n      pop\n      pop\n      jump\t// out\n        /* \"#utility.yul\":841:1170   */\n    tag_8:\n        /* \"#utility.yul\":900:906   */\n      0x00\n        /* \"#utility.yul\":949:951   */\n      0x20\n        /* \"#utility.yul\":937:946   */\n      dup3\n        /* \"#utility.yul\":928:935   */\n      dup5\n        /* \"#utility.yul\":924:947   */\n      sub\n        /* \"#utility.yul\":920:952   */\n      slt\n        /* \"#utility.yul\":917:1036   */\n      iszero\n      tag_109\n      jumpi\n        /* \"#utility.yul\":955:1034   */\n      tag_110\n      tag_46\n      jump\t// in\n    tag_110:\n        /* \"#utility.yul\":917:1036   */\n    tag_109:\n        /* \"#utility.yul\":1075:1076   */\n      0x00\n        /* \"#utility.yul\":1100:1153   */\n      tag_111\n        /* \"#utility.yul\":1145:1152   */\n      dup5\n        /* \"#utility.yul\":1136:1142   */\n      dup3\n        /* \"#utility.yul\":1125:1134   */\n      dup6\n        /* \"#utility.yul\":1121:1143   */\n      add\n        /* \"#utility.yul\":1100:1153   */\n      tag_51\n      jump\t// in\n    tag_111:\n        /* \"#utility.yul\":1090:1153   */\n      swap2\n      pop\n        /* \"#utility.yul\":1046:1163   */\n      pop\n        /* \"#utility.yul\":841:1170   */\n      swap3\n      swap2\n      pop\n      pop\n      jump\t// out\n        /* \"#utility.yul\":1176:1266   */\n    tag_52:\n        /* \"#utility.yul\":1210:1217   */\n      0x00\n        /* \"#utility.yul\":1253:1258   */\n      dup2\n        /* \"#utility.yul\":1246:1259   */\n      iszero\n        /* \"#utility.yul\":1239:1260   */\n      iszero\n        /* \"#utility.yul\":1228:1260   */\n      swap1\n      pop\n        /* \"#utility.yul\":1176:1266   */\n      swap2\n      swap1\n      pop\n      jump\t// out\n        /* \"#utility.yul\":1272:1381   */\n    tag_53:\n        /* \"#utility.yul\":1353:1374   */\n      tag_114\n        /* \"#utility.yul\":1368:1373   */\n      dup2\n        /* \"#utility.yul\":1353:1374   */\n      tag_52\n      jump\t// in\n    tag_114:\n        /* \"#utility.yul\":1348:1351   */\n      dup3\n        /* \"#utility.yul\":1341:1375   */\n      mstore\n        /* \"#utility.yul\":1272:1381   */\n      pop\n      pop\n      jump\t// out\n        /* \"#utility.yul\":1387:1597   */\n    tag_11:\n        /* \"#utility.yul\":1474:1478   */\n      0x00\n        /* \"#utility.yul\":1512:1514   */\n      0x20\n        /* \"#utility.yul\":1501:1510   */\n      dup3\n        /* \"#utility.yul\":1497:1515   */\n      add\n        /* \"#utility.yul\":1489:1515   */\n      swap1\n      pop\n        /* \"#utility.yul\":1525:1590   */\n      tag_116\n        /* \"#utility.yul\":1587:1588   */\n      0x00\n        /* \"#utility.yul\":1576:1585   */\n      dup4\n        /* \"#utility.yul\":1572:1589   */\n      add\n        /* \"#utility.yul\":1563:1569   */\n      dup5\n        /* \"#utility.yul\":1525:1590   */\n      tag_53\n      jump\t// in\n    tag_116:\n        /* \"#utility.yul\":1387:1597   */\n      swap3\n      swap2\n      pop\n      pop\n      jump\t// out\n        /* \"#utility.yul\":1603:1680   */\n    tag_54:\n        /* \"#utility.yul\":1640:1647   */\n      0x00\n        /* \"#utility.yul\":1669:1674   */\n      dup2\n        /* \"#utility.yul\":1658:1674   */\n      swap1\n      pop\n        /* \"#utility.yul\":1603:1680   */\n      swap2\n      swap1\n      pop\n      jump\t// out\n        /* \"#utility.yul\":1686:1808   */\n    tag_55:\n        /* \"#utility.yul\":1759:1783   */\n      tag_119\n        /* \"#utility.yul\":1777:1782   */\n      dup2\n        /* \"#utility.yul\":1759:1783   */\n      tag_54\n      jump\t// in\n    tag_119:\n        /* \"#utility.yul\":1752:1757   */\n      dup2\n        /* \"#utility.yul\":1749:1784   */\n      eq\n        /* \"#utility.yul\":1739:1802   */\n      tag_120\n      jumpi\n        /* \"#utility.yul\":1798:1799   */\n      0x00\n        /* \"#utility.yul\":1795:1796   */\n      0x00\n        /* \"#utility.yul\":1788:1800   */\n      revert\n        /* \"#utility.yul\":1739:1802   */\n    tag_120:\n        /* \"#utility.yul\":1686:1808   */\n      pop\n      jump\t// out\n        /* \"#utility.yul\":1814:1953   */\n    tag_56:\n        /* \"#utility.yul\":1860:1865   */\n      0x00\n        /* \"#utility.yul\":1898:1904   */\n      dup2\n        /* \"#utility.yul\":1885:1905   */\n      calldataload\n        /* \"#utility.yul\":1876:1905   */\n      swap1\n      pop\n        /* \"#utility.yul\":1914:1947   */\n      tag_122\n        /* \"#utility.yul\":1941:1946   */\n      dup2\n        /* \"#utility.yul\":1914:1947   */\n      tag_55\n      jump\t// in\n    tag_122:\n        /* \"#utility.yul\":1814:1953   */\n      swap3\n      swap2\n      pop\n      pop\n      jump\t// out\n        /* \"#utility.yul\":1959:2288   */\n    tag_14:\n        /* \"#utility.yul\":2018:2024   */\n      0x00\n        /* \"#utility.yul\":2067:2069   */\n      0x20\n        /* \"#utility.yul\":2055:2064   */\n      dup3\n        /* \"#utility.yul\":2046:2053   */\n      dup5\n        /* \"#utility.yul\":2042:2065   */\n      sub\n        /* \"#utility.yul\":2038:2070   */\n      slt\n        /* \"#utility.yul\":2035:2154   */\n      iszero\n      tag_124\n      jumpi\n        /* \"#utility.yul\":2073:2152   */\n      tag_125\n      tag_46\n      jump\t// in\n    tag_125:\n        /* \"#utility.yul\":2035:2154   */\n    tag_124:\n        /* \"#utility.yul\":2193:2194   */\n      0x00\n        /* \"#utility.yul\":2218:2271   */\n      tag_126\n        /* \"#utility.yul\":2263:2270   */\n      dup5\n        /* \"#utility.yul\":2254:2260   */\n      dup3\n        /* \"#utility.yul\":2243:2252   */\n      dup6\n        /* \"#utility.yul\":2239:2261   */\n      add\n        /* \"#utility.yul\":2218:2271   */\n      tag_56\n      jump\t// in\n    tag_126:\n        /* \"#utility.yul\":2208:2271   */\n      swap2\n      pop\n        /* \"#utility.yul\":2164:2281   */\n      pop\n        /* \"#utility.yul\":1959:2288   */\n      swap3\n      swap2\n      pop\n      pop\n      jump\t// out\n        /* \"#utility.yul\":2294:2412   */\n    tag_57:\n        /* \"#utility.yul\":2381:2405   */\n      tag_128\n        /* \"#utility.yul\":2399:2404   */\n      dup2\n        /* \"#utility.yul\":2381:2405   */\n      tag_54\n      jump\t// in\n    tag_128:\n        /* \"#utility.yul\":2376:2379   */\n      dup3\n        /* \"#utility.yul\":2369:2406   */\n      mstore\n        /* \"#utility.yul\":2294:2412   */\n      pop\n      pop\n      jump\t// out\n        /* \"#utility.yul\":2418:2517   */\n    tag_58:\n        /* \"#utility.yul\":2470:2476   */\n      0x00\n        /* \"#utility.yul\":2504:2509   */\n      dup2\n        /* \"#utility.yul\":2498:2510   */\n      mload\n        /* \"#utility.yul\":2488:2510   */\n      swap1\n      pop\n        /* \"#utility.yul\":2418:2517   */\n      swap2\n      swap1\n      pop\n      jump\t// out\n        /* \"#utility.yul\":2523:2692   */\n    tag_59:\n        /* \"#utility.yul\":2607:2618   */\n      0x00\n        /* \"#utility.yul\":2641:2647   */\n      dup3\n        /* \"#utility.yul\":2636:2639   */\n      dup3\n        /* \"#utility.yul\":2629:2648   */\n      mstore\n        /* \"#utility.yul\":2681:2685   */\n      0x20\n        /* \"#utility.yul\":2676:2679   */\n      dup3\n        /* \"#utility.yul\":2672:2686   */\n      add\n        /* \"#utility.yul\":2657:2686   */\n      swap1\n      pop\n        /* \"#utility.yul\":2523:2692   */\n      swap3\n      swap2\n      pop\n      pop\n      jump\t// out\n        /* \"#utility.yul\":2698:2837   */\n    tag_60:\n        /* \"#utility.yul\":2787:2793   */\n      dup3\n        /* \"#utility.yul\":2782:2785   */\n      dup2\n        /* \"#utility.yul\":2777:2780   */\n      dup4\n        /* \"#utility.yul\":2771:2794   */\n      mcopy\n        /* \"#utility.yul\":2828:2829   */\n      0x00\n        /* \"#utility.yul\":2819:2825   */\n      dup4\n        /* \"#utility.yul\":2814:2817   */\n      dup4\n        /* \"#utility.yul\":2810:2826   */\n      add\n        /* \"#utility.yul\":2803:2830   */\n      mstore\n        /* \"#utility.yul\":2698:2837   */\n      pop\n      pop\n      pop\n      jump\t// out\n        /* \"#utility.yul\":2843:2945   */\n    tag_61:\n        /* \"#utility.yul\":2884:2890   */\n      0x00\n        /* \"#utility.yul\":2935:2937   */\n      0x1f\n        /* \"#utility.yul\":2931:2938   */\n      not\n        /* \"#utility.yul\":2926:2928   */\n      0x1f\n        /* \"#utility.yul\":2919:2924   */\n      dup4\n        /* \"#utility.yul\":2915:2929   */\n      add\n        /* \"#utility.yul\":2911:2939   */\n      and\n        /* \"#utility.yul\":2901:2939   */\n      swap1\n      pop\n        /* \"#utility.yul\":2843:2945   */\n      swap2\n      swap1\n      pop\n      jump\t// out\n        /* \"#utility.yul\":2951:3328   */\n    tag_62:\n        /* \"#utility.yul\":3039:3042   */\n      0x00\n        /* \"#utility.yul\":3067:3106   */\n      tag_134\n        /* \"#utility.yul\":3100:3105   */\n      dup3\n        /* \"#utility.yul\":3067:3106   */\n      tag_58\n      jump\t// in\n    tag_134:\n        /* \"#utility.yul\":3122:3193   */\n      tag_135\n        /* \"#utility.yul\":3186:3192   */\n      dup2\n        /* \"#utility.yul\":3181:3184   */\n      dup6\n        /* \"#utility.yul\":3122:3193   */\n      tag_59\n      jump\t// in\n    tag_135:\n        /* \"#utility.yul\":3115:3193   */\n      swap4\n      pop\n        /* \"#utility.yul\":3202:3267   */\n      tag_136\n        /* \"#utility.yul\":3260:3266   */\n      dup2\n        /* \"#utility.yul\":3255:3258   */\n      dup6\n        /* \"#utility.yul\":3248:3252   */\n      0x20\n        /* \"#utility.yul\":3241:3246   */\n      dup7\n        /* \"#utility.yul\":3237:3253   */\n      add\n        /* \"#utility.yul\":3202:3267   */\n      tag_60\n      jump\t// in\n    tag_136:\n        /* \"#utility.yul\":3292:3321   */\n      tag_137\n        /* \"#utility.yul\":3314:3320   */\n      dup2\n        /* \"#utility.yul\":3292:3321   */\n      tag_61\n      jump\t// in\n    tag_137:\n        /* \"#utility.yul\":3287:3290   */\n      dup5\n        /* \"#utility.yul\":3283:3322   */\n      add\n        /* \"#utility.yul\":3276:3322   */\n      swap2\n      pop\n        /* \"#utility.yul\":3043:3328   */\n      pop\n        /* \"#utility.yul\":2951:3328   */\n      swap3\n      swap2\n      pop\n      pop\n      jump\t// out\n        /* \"#utility.yul\":3334:3452   */\n    tag_63:\n        /* \"#utility.yul\":3421:3445   */\n      tag_139\n        /* \"#utility.yul\":3439:3444   */\n      dup2\n        /* \"#utility.yul\":3421:3445   */\n      tag_49\n      jump\t// in\n    tag_139:\n        /* \"#utility.yul\":3416:3419   */\n      dup3\n        /* \"#utility.yul\":3409:3446   */\n      mstore\n        /* \"#utility.yul\":3334:3452   */\n      pop\n      pop\n      jump\t// out\n        /* \"#utility.yul\":3458:4102   */\n    tag_17:\n        /* \"#utility.yul\":3655:3659   */\n      0x00\n        /* \"#utility.yul\":3693:3696   */\n      0x80\n        /* \"#utility.yul\":3682:3691   */\n      dup3\n        /* \"#utility.yul\":3678:3697   */\n      add\n        /* \"#utility.yul\":3670:3697   */\n      swap1\n      pop\n        /* \"#utility.yul\":3707:3778   */\n      tag_141\n        /* \"#utility.yul\":3775:3776   */\n      0x00\n        /* \"#utility.yul\":3764:3773   */\n      dup4\n        /* \"#utility.yul\":3760:3777   */\n      add\n        /* \"#utility.yul\":3751:3757   */\n      dup8\n        /* \"#utility.yul\":3707:3778   */\n      tag_57\n      jump\t// in\n    tag_141:\n        /* \"#utility.yul\":3825:3834   */\n      dup2\n        /* \"#utility.yul\":3819:3823   */\n      dup2\n        /* \"#utility.yul\":3815:3835   */\n      sub\n        /* \"#utility.yul\":3810:3812   */\n      0x20\n        /* \"#utility.yul\":3799:3808   */\n      dup4\n        /* \"#utility.yul\":3795:3813   */\n      add\n        /* \"#utility.yul\":3788:3836   */\n      mstore\n        /* \"#utility.yul\":3853:3931   */\n      tag_142\n        /* \"#utility.yul\":3926:3930   */\n      dup2\n        /* \"#utility.yul\":3917:3923   */\n      dup7\n        /* \"#utility.yul\":3853:3931   */\n      tag_62\n      jump\t// in\n    tag_142:\n        /* \"#utility.yul\":3845:3931   */\n      swap1\n      pop\n        /* \"#utility.yul\":3941:4013   */\n      tag_143\n        /* \"#utility.yul\":4009:4011   */\n      0x40\n        /* \"#utility.yul\":3998:4007   */\n      dup4\n        /* \"#utility.yul\":3994:4012   */\n      add\n        /* \"#utility.yul\":3985:3991   */\n      dup6\n        /* \"#utility.yul\":3941:4013   */\n      tag_57\n      jump\t// in\n    tag_143:\n        /* \"#utility.yul\":4023:4095   */\n      tag_144\n        /* \"#utility.yul\":4091:4093   */\n      0x60\n        /* \"#utility.yul\":4080:4089   */\n      dup4\n        /* \"#utility.yul\":4076:4094   */\n      add\n        /* \"#utility.yul\":4067:4073   */\n      dup5\n        /* \"#utility.yul\":4023:4095   */\n      tag_63\n      jump\t// in\n    tag_144:\n        /* \"#utility.yul\":3458:4102   */\n      swap6\n      swap5\n      pop\n      pop\n      pop\n      pop\n      pop\n      jump\t// out\n        /* \"#utility.yul\":4108:4225   */\n    tag_64:\n        /* \"#utility.yul\":4217:4218   */\n      0x00\n        /* \"#utility.yul\":4214:4215   */\n      0x00\n        /* \"#utility.yul\":4207:4219   */\n      revert\n        /* \"#utility.yul\":4231:4348   */\n    tag_65:\n        /* \"#utility.yul\":4340:4341   */\n      0x00\n        /* \"#utility.yul\":4337:4338   */\n      0x00\n        /* \"#utility.yul\":4330:4342   */\n      revert\n        /* \"#utility.yul\":4354:4534   */\n    tag_66:\n        /* \"#utility.yul\":4402:4479   */\n      0x4e487b7100000000000000000000000000000000000000000000000000000000\n        /* \"#utility.yul\":4399:4400   */\n      0x00\n        /* \"#utility.yul\":4392:4480   */\n      mstore\n        /* \"#utility.yul\":4499:4503   */\n      0x41\n        /* \"#utility.yul\":4496:4497   */\n      0x04\n        /* \"#utility.yul\":4489:4504   */\n      mstore\n        /* \"#utility.yul\":4523:4527   */\n      0x24\n        /* \"#utility.yul\":4520:4521   */\n      0x00\n        /* \"#utility.yul\":4513:4528   */\n      revert\n        /* \"#utility.yul\":4540:4821   */\n    tag_67:\n        /* \"#utility.yul\":4623:4650   */\n      tag_149\n        /* \"#utility.yul\":4645:4649   */\n      dup3\n        /* \"#utility.yul\":4623:4650   */\n      tag_61\n      jump\t// in\n    tag_149:\n        /* \"#utility.yul\":4615:4621   */\n      dup2\n        /* \"#utility.yul\":4611:4651   */\n      add\n        /* \"#utility.yul\":4753:4759   */\n      dup2\n        /* \"#utility.yul\":4741:4751   */\n      dup2\n        /* \"#utility.yul\":4738:4760   */\n      lt\n        /* \"#utility.yul\":4717:4735   */\n      0xffffffffffffffff\n        /* \"#utility.yul\":4705:4715   */\n      dup3\n        /* \"#utility.yul\":4702:4736   */\n      gt\n        /* \"#utility.yul\":4699:4761   */\n      or\n        /* \"#utility.yul\":4696:4784   */\n      iszero\n      tag_150\n      jumpi\n        /* \"#utility.yul\":4764:4782   */\n      tag_151\n      tag_66\n      jump\t// in\n    tag_151:\n        /* \"#utility.yul\":4696:4784   */\n    tag_150:\n        /* \"#utility.yul\":4804:4814   */\n      dup1\n        /* \"#utility.yul\":4800:4802   */\n      0x40\n        /* \"#utility.yul\":4793:4815   */\n      mstore\n        /* \"#utility.yul\":4583:4821   */\n      pop\n        /* \"#utility.yul\":4540:4821   */\n      pop\n      pop\n      jump\t// out\n        /* \"#utility.yul\":4827:4956   */\n    tag_68:\n        /* \"#utility.yul\":4861:4867   */\n      0x00\n        /* \"#utility.yul\":4888:4908   */\n      tag_153\n      tag_45\n      jump\t// in\n    tag_153:\n        /* \"#utility.yul\":4878:4908   */\n      swap1\n      pop\n        /* \"#utility.yul\":4917:4950   */\n      tag_154\n        /* \"#utility.yul\":4945:4949   */\n      dup3\n        /* \"#utility.yul\":4937:4943   */\n      dup3\n        /* \"#utility.yul\":4917:4950   */\n      tag_67\n      jump\t// in\n    tag_154:\n        /* \"#utility.yul\":4827:4956   */\n      swap2\n      swap1\n      pop\n      jump\t// out\n        /* \"#utility.yul\":4962:5270   */\n    tag_69:\n        /* \"#utility.yul\":5024:5028   */\n      0x00\n        /* \"#utility.yul\":5114:5132   */\n      0xffffffffffffffff\n        /* \"#utility.yul\":5106:5112   */\n      dup3\n        /* \"#utility.yul\":5103:5133   */\n      gt\n        /* \"#utility.yul\":5100:5156   */\n      iszero\n      tag_156\n      jumpi\n        /* \"#utility.yul\":5136:5154   */\n      tag_157\n      tag_66\n      jump\t// in\n    tag_157:\n        /* \"#utility.yul\":5100:5156   */\n    tag_156:\n        /* \"#utility.yul\":5174:5203   */\n      tag_158\n        /* \"#utility.yul\":5196:5202   */\n      dup3\n        /* \"#utility.yul\":5174:5203   */\n      tag_61\n      jump\t// in\n    tag_158:\n        /* \"#utility.yul\":5166:5203   */\n      swap1\n      pop\n        /* \"#utility.yul\":5258:5262   */\n      0x20\n        /* \"#utility.yul\":5252:5256   */\n      dup2\n        /* \"#utility.yul\":5248:5263   */\n      add\n        /* \"#utility.yul\":5240:5263   */\n      swap1\n      pop\n        /* \"#utility.yul\":4962:5270   */\n      swap2\n      swap1\n      pop\n      jump\t// out\n        /* \"#utility.yul\":5276:5424   */\n    tag_70:\n        /* \"#utility.yul\":5374:5380   */\n      dup3\n        /* \"#utility.yul\":5369:5372   */\n      dup2\n        /* \"#utility.yul\":5364:5367   */\n      dup4\n        /* \"#utility.yul\":5351:5381   */\n      calldatacopy\n        /* \"#utility.yul\":5415:5416   */\n      0x00\n        /* \"#utility.yul\":5406:5412   */\n      dup4\n        /* \"#utility.yul\":5401:5404   */\n      dup4\n        /* \"#utility.yul\":5397:5413   */\n      add\n        /* \"#utility.yul\":5390:5417   */\n      mstore\n        /* \"#utility.yul\":5276:5424   */\n      pop\n      pop\n      pop\n      jump\t// out\n        /* \"#utility.yul\":5430:5855   */\n    tag_71:\n        /* \"#utility.yul\":5508:5513   */\n      0x00\n        /* \"#utility.yul\":5533:5599   */\n      tag_161\n        /* \"#utility.yul\":5549:5598   */\n      tag_162\n        /* \"#utility.yul\":5591:5597   */\n      dup5\n        /* \"#utility.yul\":5549:5598   */\n      tag_69\n      jump\t// in\n    tag_162:\n        /* \"#utility.yul\":5533:5599   */\n      tag_68\n      jump\t// in\n    tag_161:\n        /* \"#utility.yul\":5524:5599   */\n      swap1\n      pop\n        /* \"#utility.yul\":5622:5628   */\n      dup3\n        /* \"#utility.yul\":5615:5620   */\n      dup2\n        /* \"#utility.yul\":5608:5629   */\n      mstore\n        /* \"#utility.yul\":5660:5664   */\n      0x20\n        /* \"#utility.yul\":5653:5658   */\n      dup2\n        /* \"#utility.yul\":5649:5665   */\n      add\n        /* \"#utility.yul\":5698:5701   */\n      dup5\n        /* \"#utility.yul\":5689:5695   */\n      dup5\n        /* \"#utility.yul\":5684:5687   */\n      dup5\n        /* \"#utility.yul\":5680:5696   */\n      add\n        /* \"#utility.yul\":5677:5702   */\n      gt\n        /* \"#utility.yul\":5674:5786   */\n      iszero\n      tag_163\n      jumpi\n        /* \"#utility.yul\":5705:5784   */\n      tag_164\n      tag_65\n      jump\t// in\n    tag_164:\n        /* \"#utility.yul\":5674:5786   */\n    tag_163:\n        /* \"#utility.yul\":5795:5849   */\n      tag_165\n        /* \"#utility.yul\":5842:5848   */\n      dup5\n        /* \"#utility.yul\":5837:5840   */\n      dup3\n        /* \"#utility.yul\":5832:5835   */\n      dup6\n        /* \"#utility.yul\":5795:5849   */\n      tag_70\n      jump\t// in\n    tag_165:\n        /* \"#utility.yul\":5514:5855   */\n      pop\n        /* \"#utility.yul\":5430:5855   */\n      swap4\n      swap3\n      pop\n      pop\n      pop\n      jump\t// out\n        /* \"#utility.yul\":5875:6215   */\n    tag_72:\n        /* \"#utility.yul\":5931:5936   */\n      0x00\n        /* \"#utility.yul\":5980:5983   */\n      dup3\n        /* \"#utility.yul\":5973:5977   */\n      0x1f\n        /* \"#utility.yul\":5965:5971   */\n      dup4\n        /* \"#utility.yul\":5961:5978   */\n      add\n        /* \"#utility.yul\":5957:5984   */\n      slt\n        /* \"#utility.yul\":5947:6069   */\n      tag_167\n      jumpi\n        /* \"#utility.yul\":5988:6067   */\n      tag_168\n      tag_64\n      jump\t// in\n    tag_168:\n        /* \"#utility.yul\":5947:6069   */\n    tag_167:\n        /* \"#utility.yul\":6105:6111   */\n      dup2\n        /* \"#utility.yul\":6092:6112   */\n      calldataload\n        /* \"#utility.yul\":6130:6209   */\n      tag_169\n        /* \"#utility.yul\":6205:6208   */\n      dup5\n        /* \"#utility.yul\":6197:6203   */\n      dup3\n        /* \"#utility.yul\":6190:6194   */\n      0x20\n        /* \"#utility.yul\":6182:6188   */\n      dup7\n        /* \"#utility.yul\":6178:6195   */\n      add\n        /* \"#utility.yul\":6130:6209   */\n      tag_71\n      jump\t// in\n    tag_169:\n        /* \"#utility.yul\":6121:6209   */\n      swap2\n      pop\n        /* \"#utility.yul\":5937:6215   */\n      pop\n        /* \"#utility.yul\":5875:6215   */\n      swap3\n      swap2\n      pop\n      pop\n      jump\t// out\n        /* \"#utility.yul\":6221:7020   */\n    tag_20:\n        /* \"#utility.yul\":6308:6314   */\n      0x00\n        /* \"#utility.yul\":6316:6322   */\n      0x00\n        /* \"#utility.yul\":6324:6330   */\n      0x00\n        /* \"#utility.yul\":6373:6375   */\n      0x60\n        /* \"#utility.yul\":6361:6370   */\n      dup5\n        /* \"#utility.yul\":6352:6359   */\n      dup7\n        /* \"#utility.yul\":6348:6371   */\n      sub\n        /* \"#utility.yul\":6344:6376   */\n      slt\n        /* \"#utility.yul\":6341:6460   */\n      iszero\n      tag_171\n      jumpi\n        /* \"#utility.yul\":6379:6458   */\n      tag_172\n      tag_46\n      jump\t// in\n    tag_172:\n        /* \"#utility.yul\":6341:6460   */\n    tag_171:\n        /* \"#utility.yul\":6527:6528   */\n      0x00\n        /* \"#utility.yul\":6516:6525   */\n      dup5\n        /* \"#utility.yul\":6512:6529   */\n      add\n        /* \"#utility.yul\":6499:6530   */\n      calldataload\n        /* \"#utility.yul\":6557:6575   */\n      0xffffffffffffffff\n        /* \"#utility.yul\":6549:6555   */\n      dup2\n        /* \"#utility.yul\":6546:6576   */\n      gt\n        /* \"#utility.yul\":6543:6660   */\n      iszero\n      tag_173\n      jumpi\n        /* \"#utility.yul\":6579:6658   */\n      tag_174\n      tag_47\n      jump\t// in\n    tag_174:\n        /* \"#utility.yul\":6543:6660   */\n    tag_173:\n        /* \"#utility.yul\":6684:6747   */\n      tag_175\n        /* \"#utility.yul\":6739:6746   */\n      dup7\n        /* \"#utility.yul\":6730:6736   */\n      dup3\n        /* \"#utility.yul\":6719:6728   */\n      dup8\n        /* \"#utility.yul\":6715:6737   */\n      add\n        /* \"#utility.yul\":6684:6747   */\n      tag_72\n      jump\t// in\n    tag_175:\n        /* \"#utility.yul\":6674:6747   */\n      swap4\n      pop\n        /* \"#utility.yul\":6470:6757   */\n      pop\n        /* \"#utility.yul\":6796:6798   */\n      0x20\n        /* \"#utility.yul\":6822:6875   */\n      tag_176\n        /* \"#utility.yul\":6867:6874   */\n      dup7\n        /* \"#utility.yul\":6858:6864   */\n      dup3\n        /* \"#utility.yul\":6847:6856   */\n      dup8\n        /* \"#utility.yul\":6843:6865   */\n      add\n        /* \"#utility.yul\":6822:6875   */\n      tag_56\n      jump\t// in\n    tag_176:\n        /* \"#utility.yul\":6812:6875   */\n      swap3\n      pop\n        /* \"#utility.yul\":6767:6885   */\n      pop\n        /* \"#utility.yul\":6924:6926   */\n      0x40\n        /* \"#utility.yul\":6950:7003   */\n      tag_177\n        /* \"#utility.yul\":6995:7002   */\n      dup7\n        /* \"#utility.yul\":6986:6992   */\n      dup3\n        /* \"#utility.yul\":6975:6984   */\n      dup8\n        /* \"#utility.yul\":6971:6993   */\n      add\n        /* \"#utility.yul\":6950:7003   */\n      tag_51\n      jump\t// in\n    tag_177:\n        /* \"#utility.yul\":6940:7003   */\n      swap2\n      pop\n        /* \"#utility.yul\":6895:7013   */\n      pop\n        /* \"#utility.yul\":6221:7020   */\n      swap3\n      pop\n      swap3\n      pop\n      swap3\n      jump\t// out\n        /* \"#utility.yul\":7026:7206   */\n    tag_73:\n        /* \"#utility.yul\":7074:7151   */\n      0x4e487b7100000000000000000000000000000000000000000000000000000000\n        /* \"#utility.yul\":7071:7072   */\n      0x00\n        /* \"#utility.yul\":7064:7152   */\n      mstore\n        /* \"#utility.yul\":7171:7175   */\n      0x22\n        /* \"#utility.yul\":7168:7169   */\n      0x04\n        /* \"#utility.yul\":7161:7176   */\n      mstore\n        /* \"#utility.yul\":7195:7199   */\n      0x24\n        /* \"#utility.yul\":7192:7193   */\n      0x00\n        /* \"#utility.yul\":7185:7200   */\n      revert\n        /* \"#utility.yul\":7212:7532   */\n    tag_25:\n        /* \"#utility.yul\":7256:7262   */\n      0x00\n        /* \"#utility.yul\":7293:7294   */\n      0x02\n        /* \"#utility.yul\":7287:7291   */\n      dup3\n        /* \"#utility.yul\":7283:7295   */\n      div\n        /* \"#utility.yul\":7273:7295   */\n      swap1\n      pop\n        /* \"#utility.yul\":7340:7341   */\n      0x01\n        /* \"#utility.yul\":7334:7338   */\n      dup3\n        /* \"#utility.yul\":7330:7342   */\n      and\n        /* \"#utility.yul\":7361:7379   */\n      dup1\n        /* \"#utility.yul\":7351:7432   */\n      tag_180\n      jumpi\n        /* \"#utility.yul\":7417:7421   */\n      0x7f\n        /* \"#utility.yul\":7409:7415   */\n      dup3\n        /* \"#utility.yul\":7405:7422   */\n      and\n        /* \"#utility.yul\":7395:7422   */\n      swap2\n      pop\n        /* \"#utility.yul\":7351:7432   */\n    tag_180:\n        /* \"#utility.yul\":7479:7481   */\n      0x20\n        /* \"#utility.yul\":7471:7477   */\n      dup3\n        /* \"#utility.yul\":7468:7482   */\n      lt\n        /* \"#utility.yul\":7448:7466   */\n      dup2\n        /* \"#utility.yul\":7445:7483   */\n      sub\n        /* \"#utility.yul\":7442:7526   */\n      tag_181\n      jumpi\n        /* \"#utility.yul\":7498:7516   */\n      tag_182\n      tag_73\n      jump\t// in\n    tag_182:\n        /* \"#utility.yul\":7442:7526   */\n    tag_181:\n        /* \"#utility.yul\":7263:7532   */\n      pop\n        /* \"#utility.yul\":7212:7532   */\n      swap2\n      swap1\n      pop\n      jump\t// out\n        /* \"#utility.yul\":7538:7714   */\n    tag_74:\n        /* \"#utility.yul\":7678:7706   */\n      0x55736572206e616d652063616e6e6f7420626520656d70747921000000000000\n        /* \"#utility.yul\":7674:7675   */\n      0x00\n        /* \"#utility.yul\":7666:7672   */\n      dup3\n        /* \"#utility.yul\":7662:7676   */\n      add\n        /* \"#utility.yul\":7655:7707   */\n      mstore\n        /* \"#utility.yul\":7538:7714   */\n      pop\n      jump\t// out\n        /* \"#utility.yul\":7720:8086   */\n    tag_75:\n        /* \"#utility.yul\":7862:7865   */\n      0x00\n        /* \"#utility.yul\":7883:7950   */\n      tag_185\n        /* \"#utility.yul\":7947:7949   */\n      0x1a\n        /* \"#utility.yul\":7942:7945   */\n      dup4\n        /* \"#utility.yul\":7883:7950   */\n      tag_59\n      jump\t// in\n    tag_185:\n        /* \"#utility.yul\":7876:7950   */\n      swap2\n      pop\n        /* \"#utility.yul\":7959:8052   */\n      tag_186\n        /* \"#utility.yul\":8048:8051   */\n      dup3\n        /* \"#utility.yul\":7959:8052   */\n      tag_74\n      jump\t// in\n    tag_186:\n        /* \"#utility.yul\":8077:8079   */\n      0x20\n        /* \"#utility.yul\":8072:8075   */\n      dup3\n        /* \"#utility.yul\":8068:8080   */\n      add\n        /* \"#utility.yul\":8061:8080   */\n      swap1\n      pop\n        /* \"#utility.yul\":7720:8086   */\n      swap2\n      swap1\n      pop\n      jump\t// out\n        /* \"#utility.yul\":8092:8511   */\n    tag_33:\n        /* \"#utility.yul\":8258:8262   */\n      0x00\n        /* \"#utility.yul\":8296:8298   */\n      0x20\n        /* \"#utility.yul\":8285:8294   */\n      dup3\n        /* \"#utility.yul\":8281:8299   */\n      add\n        /* \"#utility.yul\":8273:8299   */\n      swap1\n      pop\n        /* \"#utility.yul\":8345:8354   */\n      dup2\n        /* \"#utility.yul\":8339:8343   */\n      dup2\n        /* \"#utility.yul\":8335:8355   */\n      sub\n        /* \"#utility.yul\":8331:8332   */\n      0x00\n        /* \"#utility.yul\":8320:8329   */\n      dup4\n        /* \"#utility.yul\":8316:8333   */\n      add\n        /* \"#utility.yul\":8309:8356   */\n      mstore\n        /* \"#utility.yul\":8373:8504   */\n      tag_188\n        /* \"#utility.yul\":8499:8503   */\n      dup2\n        /* \"#utility.yul\":8373:8504   */\n      tag_75\n      jump\t// in\n    tag_188:\n        /* \"#utility.yul\":8365:8504   */\n      swap1\n      pop\n        /* \"#utility.yul\":8092:8511   */\n      swap2\n      swap1\n      pop\n      jump\t// out\n        /* \"#utility.yul\":8517:8693   */\n    tag_76:\n        /* \"#utility.yul\":8657:8685   */\n      0x55736572206d757374206265206f6c646572207468616e203135000000000000\n        /* \"#utility.yul\":8653:8654   */\n      0x00\n        /* \"#utility.yul\":8645:8651   */\n      dup3\n        /* \"#utility.yul\":8641:8655   */\n      add\n        /* \"#utility.yul\":8634:8686   */\n      mstore\n        /* \"#utility.yul\":8517:8693   */\n      pop\n      jump\t// out\n        /* \"#utility.yul\":8699:9065   */\n    tag_77:\n        /* \"#utility.yul\":8841:8844   */\n      0x00\n        /* \"#utility.yul\":8862:8929   */\n      tag_191\n        /* \"#utility.yul\":8926:8928   */\n      0x1a\n        /* \"#utility.yul\":8921:8924   */\n      dup4\n        /* \"#utility.yul\":8862:8929   */\n      tag_59\n      jump\t// in\n    tag_191:\n        /* \"#utility.yul\":8855:8929   */\n      swap2\n      pop\n        /* \"#utility.yul\":8938:9031   */\n      tag_192\n        /* \"#utility.yul\":9027:9030   */\n      dup3\n        /* \"#utility.yul\":8938:9031   */\n      tag_76\n      jump\t// in\n    tag_192:\n        /* \"#utility.yul\":9056:9058   */\n      0x20\n        /* \"#utility.yul\":9051:9054   */\n      dup3\n        /* \"#utility.yul\":9047:9059   */\n      add\n        /* \"#utility.yul\":9040:9059   */\n      swap1\n      pop\n        /* \"#utility.yul\":8699:9065   */\n      swap2\n      swap1\n      pop\n      jump\t// out\n        /* \"#utility.yul\":9071:9490   */\n    tag_36:\n        /* \"#utility.yul\":9237:9241   */\n      0x00\n        /* \"#utility.yul\":9275:9277   */\n      0x20\n        /* \"#utility.yul\":9264:9273   */\n      dup3\n        /* \"#utility.yul\":9260:9278   */\n      add\n        /* \"#utility.yul\":9252:9278   */\n      swap1\n      pop\n        /* \"#utility.yul\":9324:9333   */\n      dup2\n        /* \"#utility.yul\":9318:9322   */\n      dup2\n        /* \"#utility.yul\":9314:9334   */\n      sub\n        /* \"#utility.yul\":9310:9311   */\n      0x00\n        /* \"#utility.yul\":9299:9308   */\n      dup4\n        /* \"#utility.yul\":9295:9312   */\n      add\n        /* \"#utility.yul\":9288:9335   */\n      mstore\n        /* \"#utility.yul\":9352:9483   */\n      tag_194\n        /* \"#utility.yul\":9478:9482   */\n      dup2\n        /* \"#utility.yul\":9352:9483   */\n      tag_77\n      jump\t// in\n    tag_194:\n        /* \"#utility.yul\":9344:9483   */\n      swap1\n      pop\n        /* \"#utility.yul\":9071:9490   */\n      swap2\n      swap1\n      pop\n      jump\t// out\n        /* \"#utility.yul\":9496:9662   */\n    tag_78:\n        /* \"#utility.yul\":9636:9654   */\n      0x5573657220726567697374657265642100000000000000000000000000000000\n        /* \"#utility.yul\":9632:9633   */\n      0x00\n        /* \"#utility.yul\":9624:9630   */\n      dup3\n        /* \"#utility.yul\":9620:9634   */\n      add\n        /* \"#utility.yul\":9613:9655   */\n      mstore\n        /* \"#utility.yul\":9496:9662   */\n      pop\n      jump\t// out\n        /* \"#utility.yul\":9668:10034   */\n    tag_79:\n        /* \"#utility.yul\":9810:9813   */\n      0x00\n        /* \"#utility.yul\":9831:9898   */\n      tag_197\n        /* \"#utility.yul\":9895:9897   */\n      0x10\n        /* \"#utility.yul\":9890:9893   */\n      dup4\n        /* \"#utility.yul\":9831:9898   */\n      tag_59\n      jump\t// in\n    tag_197:\n        /* \"#utility.yul\":9824:9898   */\n      swap2\n      pop\n        /* \"#utility.yul\":9907:10000   */\n      tag_198\n        /* \"#utility.yul\":9996:9999   */\n      dup3\n        /* \"#utility.yul\":9907:10000   */\n      tag_78\n      jump\t// in\n    tag_198:\n        /* \"#utility.yul\":10025:10027   */\n      0x20\n        /* \"#utility.yul\":10020:10023   */\n      dup3\n        /* \"#utility.yul\":10016:10028   */\n      add\n        /* \"#utility.yul\":10009:10028   */\n      swap1\n      pop\n        /* \"#utility.yul\":9668:10034   */\n      swap2\n      swap1\n      pop\n      jump\t// out\n        /* \"#utility.yul\":10040:10459   */\n    tag_39:\n        /* \"#utility.yul\":10206:10210   */\n      0x00\n        /* \"#utility.yul\":10244:10246   */\n      0x20\n        /* \"#utility.yul\":10233:10242   */\n      dup3\n        /* \"#utility.yul\":10229:10247   */\n      add\n        /* \"#utility.yul\":10221:10247   */\n      swap1\n      pop\n        /* \"#utility.yul\":10293:10302   */\n      dup2\n        /* \"#utility.yul\":10287:10291   */\n      dup2\n        /* \"#utility.yul\":10283:10303   */\n      sub\n        /* \"#utility.yul\":10279:10280   */\n      0x00\n        /* \"#utility.yul\":10268:10277   */\n      dup4\n        /* \"#utility.yul\":10264:10281   */\n      add\n        /* \"#utility.yul\":10257:10304   */\n      mstore\n        /* \"#utility.yul\":10321:10452   */\n      tag_200\n        /* \"#utility.yul\":10447:10451   */\n      dup2\n        /* \"#utility.yul\":10321:10452   */\n      tag_79\n      jump\t// in\n    tag_200:\n        /* \"#utility.yul\":10313:10452   */\n      swap1\n      pop\n        /* \"#utility.yul\":10040:10459   */\n      swap2\n      swap1\n      pop\n      jump\t// out\n        /* \"#utility.yul\":10465:10645   */\n    tag_80:\n        /* \"#utility.yul\":10513:10590   */\n      0x4e487b7100000000000000000000000000000000000000000000000000000000\n        /* \"#utility.yul\":10510:10511   */\n      0x00\n        /* \"#utility.yul\":10503:10591   */\n      mstore\n        /* \"#utility.yul\":10610:10614   */\n      0x11\n        /* \"#utility.yul\":10607:10608   */\n      0x04\n        /* \"#utility.yul\":10600:10615   */\n      mstore\n        /* \"#utility.yul\":10634:10638   */\n      0x24\n        /* \"#utility.yul\":10631:10632   */\n      0x00\n        /* \"#utility.yul\":10624:10639   */\n      revert\n        /* \"#utility.yul\":10651:10842   */\n    tag_41:\n        /* \"#utility.yul\":10691:10694   */\n      0x00\n        /* \"#utility.yul\":10710:10730   */\n      tag_203\n        /* \"#utility.yul\":10728:10729   */\n      dup3\n        /* \"#utility.yul\":10710:10730   */\n      tag_54\n      jump\t// in\n    tag_203:\n        /* \"#utility.yul\":10705:10730   */\n      swap2\n      pop\n        /* \"#utility.yul\":10744:10764   */\n      tag_204\n        /* \"#utility.yul\":10762:10763   */\n      dup4\n        /* \"#utility.yul\":10744:10764   */\n      tag_54\n      jump\t// in\n    tag_204:\n        /* \"#utility.yul\":10739:10764   */\n      swap3\n      pop\n        /* \"#utility.yul\":10787:10788   */\n      dup3\n        /* \"#utility.yul\":10784:10785   */\n      dup3\n        /* \"#utility.yul\":10780:10789   */\n      add\n        /* \"#utility.yul\":10773:10789   */\n      swap1\n      pop\n        /* \"#utility.yul\":10808:10811   */\n      dup1\n        /* \"#utility.yul\":10805:10806   */\n      dup3\n        /* \"#utility.yul\":10802:10812   */\n      gt\n        /* \"#utility.yul\":10799:10835   */\n      iszero\n      tag_205\n      jumpi\n        /* \"#utility.yul\":10815:10833   */\n      tag_206\n      tag_80\n      jump\t// in\n    tag_206:\n        /* \"#utility.yul\":10799:10835   */\n    tag_205:\n        /* \"#utility.yul\":10651:10842   */\n      swap3\n      swap2\n      pop\n      pop\n      jump\t// out\n        /* \"#utility.yul\":10848:10989   */\n    tag_81:\n        /* \"#utility.yul\":10897:10901   */\n      0x00\n        /* \"#utility.yul\":10920:10923   */\n      dup2\n        /* \"#utility.yul\":10912:10923   */\n      swap1\n      pop\n        /* \"#utility.yul\":10943:10946   */\n      dup2\n        /* \"#utility.yul\":10940:10941   */\n      0x00\n        /* \"#utility.yul\":10933:10947   */\n      mstore\n        /* \"#utility.yul\":10977:10981   */\n      0x20\n        /* \"#utility.yul\":10974:10975   */\n      0x00\n        /* \"#utility.yul\":10964:10982   */\n      keccak256\n        /* \"#utility.yul\":10956:10982   */\n      swap1\n      pop\n        /* \"#utility.yul\":10848:10989   */\n      swap2\n      swap1\n      pop\n      jump\t// out\n        /* \"#utility.yul\":10995:11088   */\n    tag_82:\n        /* \"#utility.yul\":11032:11038   */\n      0x00\n        /* \"#utility.yul\":11079:11081   */\n      0x20\n        /* \"#utility.yul\":11074:11076   */\n      0x1f\n        /* \"#utility.yul\":11067:11072   */\n      dup4\n        /* \"#utility.yul\":11063:11077   */\n      add\n        /* \"#utility.yul\":11059:11082   */\n      div\n        /* \"#utility.yul\":11049:11082   */\n      swap1\n      pop\n        /* \"#utility.yul\":10995:11088   */\n      swap2\n      swap1\n      pop\n      jump\t// out\n        /* \"#utility.yul\":11094:11201   */\n    tag_83:\n        /* \"#utility.yul\":11138:11146   */\n      0x00\n        /* \"#utility.yul\":11188:11193   */\n      dup3\n        /* \"#utility.yul\":11182:11186   */\n      dup3\n        /* \"#utility.yul\":11178:11194   */\n      shl\n        /* \"#utility.yul\":11157:11194   */\n      swap1\n      pop\n        /* \"#utility.yul\":11094:11201   */\n      swap3\n      swap2\n      pop\n      pop\n      jump\t// out\n        /* \"#utility.yul\":11207:11600   */\n    tag_84:\n        /* \"#utility.yul\":11276:11282   */\n      0x00\n        /* \"#utility.yul\":11326:11327   */\n      0x08\n        /* \"#utility.yul\":11314:11324   */\n      dup4\n        /* \"#utility.yul\":11310:11328   */\n      mul\n        /* \"#utility.yul\":11349:11446   */\n      tag_211\n        /* \"#utility.yul\":11379:11445   */\n      0xffffffffffffffffffffffffffffffffffffffffffffffffffffffffffffffff\n        /* \"#utility.yul\":11368:11377   */\n      dup3\n        /* \"#utility.yul\":11349:11446   */\n      tag_83\n      jump\t// in\n    tag_211:\n        /* \"#utility.yul\":11467:11506   */\n      tag_212\n        /* \"#utility.yul\":11497:11505   */\n      dup7\n        /* \"#utility.yul\":11486:11495   */\n      dup4\n        /* \"#utility.yul\":11467:11506   */\n      tag_83\n      jump\t// in\n    tag_212:\n        /* \"#utility.yul\":11455:11506   */\n      swap6\n      pop\n        /* \"#utility.yul\":11539:11543   */\n      dup1\n        /* \"#utility.yul\":11535:11544   */\n      not\n        /* \"#utility.yul\":11528:11533   */\n      dup5\n        /* \"#utility.yul\":11524:11545   */\n      and\n        /* \"#utility.yul\":11515:11545   */\n      swap4\n      pop\n        /* \"#utility.yul\":11588:11592   */\n      dup1\n        /* \"#utility.yul\":11578:11586   */\n      dup7\n        /* \"#utility.yul\":11574:11593   */\n      and\n        /* \"#utility.yul\":11567:11572   */\n      dup5\n        /* \"#utility.yul\":11564:11594   */\n      or\n        /* \"#utility.yul\":11554:11594   */\n      swap3\n      pop\n        /* \"#utility.yul\":11283:11600   */\n      pop\n      pop\n        /* \"#utility.yul\":11207:11600   */\n      swap4\n      swap3\n      pop\n      pop\n      pop\n      jump\t// out\n        /* \"#utility.yul\":11606:11666   */\n    tag_85:\n        /* \"#utility.yul\":11634:11637   */\n      0x00\n        /* \"#utility.yul\":11655:11660   */\n      dup2\n        /* \"#utility.yul\":11648:11660   */\n      swap1\n      pop\n        /* \"#utility.yul\":11606:11666   */\n      swap2\n      swap1\n      pop\n      jump\t// out\n        /* \"#utility.yul\":11672:11814   */\n    tag_86:\n        /* \"#utility.yul\":11722:11731   */\n      0x00\n        /* \"#utility.yul\":11755:11808   */\n      tag_215\n        /* \"#utility.yul\":11773:11807   */\n      tag_216\n        /* \"#utility.yul\":11782:11806   */\n      tag_217\n        /* \"#utility.yul\":11800:11805   */\n      dup5\n        /* \"#utility.yul\":11782:11806   */\n      tag_54\n      jump\t// in\n    tag_217:\n        /* \"#utility.yul\":11773:11807   */\n      tag_85\n      jump\t// in\n    tag_216:\n        /* \"#utility.yul\":11755:11808   */\n      tag_54\n      jump\t// in\n    tag_215:\n        /* \"#utility.yul\":11742:11808   */\n      swap1\n      pop\n        /* \"#utility.yul\":11672:11814   */\n      swap2\n      swap1\n      pop\n      jump\t// out\n        /* \"#utility.yul\":11820:11895   */\n    tag_87:\n        /* \"#utility.yul\":11863:11866   */\n      0x00\n        /* \"#utility.yul\":11884:11889   */\n      dup2\n        /* \"#utility.yul\":11877:11889   */\n      swap1\n      pop\n        /* \"#utility.yul\":11820:11895   */\n      swap2\n      swap1\n      pop\n      jump\t// out\n        /* \"#utility.yul\":11901:12170   */\n    tag_88:\n        /* \"#utility.yul\":12011:12050   */\n      tag_220\n        /* \"#utility.yul\":12042:12049   */\n      dup4\n        /* \"#utility.yul\":12011:12050   */\n      tag_86\n      jump\t// in\n    tag_220:\n        /* \"#utility.yul\":12072:12163   */\n      tag_221\n        /* \"#utility.yul\":12121:12162   */\n      tag_222\n        /* \"#utility.yul\":12145:12161   */\n      dup3\n        /* \"#utility.yul\":12121:12162   */\n      tag_87\n      jump\t// in\n    tag_222:\n        /* \"#utility.yul\":12113:12119   */\n      dup5\n        /* \"#utility.yul\":12106:12110   */\n      dup5\n        /* \"#utility.yul\":12100:12111   */\n      sload\n        /* \"#utility.yul\":12072:12163   */\n      tag_84\n      jump\t// in\n    tag_221:\n        /* \"#utility.yul\":12066:12070   */\n      dup3\n        /* \"#utility.yul\":12059:12164   */\n      sstore\n        /* \"#utility.yul\":11977:12170   */\n      pop\n        /* \"#utility.yul\":11901:12170   */\n      pop\n      pop\n      pop\n      jump\t// out\n        /* \"#utility.yul\":12176:12249   */\n    tag_89:\n        /* \"#utility.yul\":12221:12224   */\n      0x00\n        /* \"#utility.yul\":12242:12243   */\n      0x00\n        /* \"#utility.yul\":12235:12243   */\n      swap1\n      pop\n        /* \"#utility.yul\":12176:12249   */\n      swap1\n      jump\t// out\n        /* \"#utility.yul\":12255:12444   */\n    tag_90:\n        /* \"#utility.yul\":12332:12364   */\n      tag_225\n      tag_89\n      jump\t// in\n    tag_225:\n        /* \"#utility.yul\":12373:12438   */\n      tag_226\n        /* \"#utility.yul\":12431:12437   */\n      dup2\n        /* \"#utility.yul\":12423:12429   */\n      dup5\n        /* \"#utility.yul\":12417:12421   */\n      dup5\n        /* \"#utility.yul\":12373:12438   */\n      tag_88\n      jump\t// in\n    tag_226:\n        /* \"#utility.yul\":12308:12444   */\n      pop\n        /* \"#utility.yul\":12255:12444   */\n      pop\n      pop\n      jump\t// out\n        /* \"#utility.yul\":12450:12636   */\n    tag_91:\n        /* \"#utility.yul\":12510:12630   */\n    tag_228:\n        /* \"#utility.yul\":12527:12530   */\n      dup2\n        /* \"#utility.yul\":12520:12525   */\n      dup2\n        /* \"#utility.yul\":12517:12531   */\n      lt\n        /* \"#utility.yul\":12510:12630   */\n      iszero\n      tag_230\n      jumpi\n        /* \"#utility.yul\":12581:12620   */\n      tag_231\n        /* \"#utility.yul\":12618:12619   */\n      0x00\n        /* \"#utility.yul\":12611:12616   */\n      dup3\n        /* \"#utility.yul\":12581:12620   */\n      tag_90\n      jump\t// in\n    tag_231:\n        /* \"#utility.yul\":12554:12555   */\n      0x01\n        /* \"#utility.yul\":12547:12552   */\n      dup2\n        /* \"#utility.yul\":12543:12556   */\n      add\n        /* \"#utility.yul\":12534:12556   */\n      swap1\n      pop\n        /* \"#utility.yul\":12510:12630   */\n      jump(tag_228)\n    tag_230:\n        /* \"#utility.yul\":12450:12636   */\n      pop\n      pop\n      jump\t// out\n        /* \"#utility.yul\":12642:13185   */\n    tag_92:\n        /* \"#utility.yul\":12743:12745   */\n      0x1f\n        /* \"#utility.yul\":12738:12741   */\n      dup3\n        /* \"#utility.yul\":12735:12746   */\n      gt\n        /* \"#utility.yul\":12732:13178   */\n      iszero\n      tag_233\n      jumpi\n        /* \"#utility.yul\":12777:12815   */\n      tag_234\n        /* \"#utility.yul\":12809:12814   */\n      dup2\n        /* \"#utility.yul\":12777:12815   */\n      tag_81\n      jump\t// in\n    tag_234:\n        /* \"#utility.yul\":12861:12890   */\n      tag_235\n        /* \"#utility.yul\":12879:12889   */\n      dup5\n        /* \"#utility.yul\":12861:12890   */\n      tag_82\n      jump\t// in\n    tag_235:\n        /* \"#utility.yul\":12851:12859   */\n      dup2\n        /* \"#utility.yul\":12847:12891   */\n      add\n        /* \"#utility.yul\":13044:13046   */\n      0x20\n        /* \"#utility.yul\":13032:13042   */\n      dup6\n        /* \"#utility.yul\":13029:13047   */\n      lt\n        /* \"#utility.yul\":13026:13075   */\n      iszero\n      tag_236\n      jumpi\n        /* \"#utility.yul\":13065:13073   */\n      dup2\n        /* \"#utility.yul\":13050:13073   */\n      swap1\n      pop\n        /* \"#utility.yul\":13026:13075   */\n    tag_236:\n        /* \"#utility.yul\":13088:13168   */\n      tag_237\n        /* \"#utility.yul\":13144:13166   */\n      tag_238\n        /* \"#utility.yul\":13162:13165   */\n      dup6\n        /* \"#utility.yul\":13144:13166   */\n      tag_82\n      jump\t// in\n    tag_238:\n        /* \"#utility.yul\":13134:13142   */\n      dup4\n        /* \"#utility.yul\":13130:13167   */\n      add\n        /* \"#utility.yul\":13117:13128   */\n      dup3\n        /* \"#utility.yul\":13088:13168   */\n      tag_91\n      jump\t// in\n    tag_237:\n        /* \"#utility.yul\":12747:13178   */\n      pop\n      pop\n        /* \"#utility.yul\":12732:13178   */\n    tag_233:\n        /* \"#utility.yul\":12642:13185   */\n      pop\n      pop\n      pop\n      jump\t// out\n        /* \"#utility.yul\":13191:13308   */\n    tag_93:\n        /* \"#utility.yul\":13245:13253   */\n      0x00\n        /* \"#utility.yul\":13295:13300   */\n      dup3\n        /* \"#utility.yul\":13289:13293   */\n      dup3\n        /* \"#utility.yul\":13285:13301   */\n      shr\n        /* \"#utility.yul\":13264:13301   */\n      swap1\n      pop\n        /* \"#utility.yul\":13191:13308   */\n      swap3\n      swap2\n      pop\n      pop\n      jump\t// out\n        /* \"#utility.yul\":13314:13483   */\n    tag_94:\n        /* \"#utility.yul\":13358:13364   */\n      0x00\n        /* \"#utility.yul\":13391:13442   */\n      tag_241\n        /* \"#utility.yul\":13439:13440   */\n      0x00\n        /* \"#utility.yul\":13435:13441   */\n      not\n        /* \"#utility.yul\":13427:13432   */\n      dup5\n        /* \"#utility.yul\":13424:13425   */\n      0x08\n        /* \"#utility.yul\":13420:13433   */\n      mul\n        /* \"#utility.yul\":13391:13442   */\n      tag_93\n      jump\t// in\n    tag_241:\n        /* \"#utility.yul\":13387:13443   */\n      not\n        /* \"#utility.yul\":13472:13476   */\n      dup1\n        /* \"#utility.yul\":13466:13470   */\n      dup4\n        /* \"#utility.yul\":13462:13477   */\n      and\n        /* \"#utility.yul\":13452:13477   */\n      swap2\n      pop\n        /* \"#utility.yul\":13365:13483   */\n      pop\n        /* \"#utility.yul\":13314:13483   */\n      swap3\n      swap2\n      pop\n      pop\n      jump\t// out\n        /* \"#utility.yul\":13488:13783   */\n    tag_95:\n        /* \"#utility.yul\":13564:13568   */\n      0x00\n        /* \"#utility.yul\":13710:13739   */\n      tag_243\n        /* \"#utility.yul\":13735:13738   */\n      dup4\n        /* \"#utility.yul\":13729:13733   */\n      dup4\n        /* \"#utility.yul\":13710:13739   */\n      tag_94\n      jump\t// in\n    tag_243:\n        /* \"#utility.yul\":13702:13739   */\n      swap2\n      pop\n        /* \"#utility.yul\":13772:13775   */\n      dup3\n        /* \"#utility.yul\":13769:13770   */\n      0x02\n        /* \"#utility.yul\":13765:13776   */\n      mul\n        /* \"#utility.yul\":13759:13763   */\n      dup3\n        /* \"#utility.yul\":13756:13777   */\n      or\n        /* \"#utility.yul\":13748:13777   */\n      swap1\n      pop\n        /* \"#utility.yul\":13488:13783   */\n      swap3\n      swap2\n      pop\n      pop\n      jump\t// out\n        /* \"#utility.yul\":13788:15183   */\n    tag_44:\n        /* \"#utility.yul\":13905:13942   */\n      tag_245\n        /* \"#utility.yul\":13938:13941   */\n      dup3\n        /* \"#utility.yul\":13905:13942   */\n      tag_58\n      jump\t// in\n    tag_245:\n        /* \"#utility.yul\":14007:14025   */\n      0xffffffffffffffff\n        /* \"#utility.yul\":13999:14005   */\n      dup2\n        /* \"#utility.yul\":13996:14026   */\n      gt\n        /* \"#utility.yul\":13993:14049   */\n      iszero\n      tag_246\n      jumpi\n        /* \"#utility.yul\":14029:14047   */\n      tag_247\n      tag_66\n      jump\t// in\n    tag_247:\n        /* \"#utility.yul\":13993:14049   */\n    tag_246:\n        /* \"#utility.yul\":14073:14111   */\n      tag_248\n        /* \"#utility.yul\":14105:14109   */\n      dup3\n        /* \"#utility.yul\":14099:14110   */\n      sload\n        /* \"#utility.yul\":14073:14111   */\n      tag_25\n      jump\t// in\n    tag_248:\n        /* \"#utility.yul\":14158:14225   */\n      tag_249\n        /* \"#utility.yul\":14218:14224   */\n      dup3\n        /* \"#utility.yul\":14210:14216   */\n      dup3\n        /* \"#utility.yul\":14204:14208   */\n      dup6\n        /* \"#utility.yul\":14158:14225   */\n      tag_92\n      jump\t// in\n    tag_249:\n        /* \"#utility.yul\":14252:14253   */\n      0x00\n        /* \"#utility.yul\":14276:14280   */\n      0x20\n        /* \"#utility.yul\":14263:14280   */\n      swap1\n      pop\n        /* \"#utility.yul\":14308:14310   */\n      0x1f\n        /* \"#utility.yul\":14300:14306   */\n      dup4\n        /* \"#utility.yul\":14297:14311   */\n      gt\n        /* \"#utility.yul\":14325:14326   */\n      0x01\n        /* \"#utility.yul\":14320:14938   */\n      dup2\n      eq\n      tag_251\n      jumpi\n        /* \"#utility.yul\":14982:14983   */\n      0x00\n        /* \"#utility.yul\":14999:15005   */\n      dup5\n        /* \"#utility.yul\":14996:15073   */\n      iszero\n      tag_252\n      jumpi\n        /* \"#utility.yul\":15048:15057   */\n      dup3\n        /* \"#utility.yul\":15043:15046   */\n      dup8\n        /* \"#utility.yul\":15039:15058   */\n      add\n        /* \"#utility.yul\":15033:15059   */\n      mload\n        /* \"#utility.yul\":15024:15059   */\n      swap1\n      pop\n        /* \"#utility.yul\":14996:15073   */\n    tag_252:\n        /* \"#utility.yul\":15099:15166   */\n      tag_253\n        /* \"#utility.yul\":15159:15165   */\n      dup6\n        /* \"#utility.yul\":15152:15157   */\n      dup3\n        /* \"#utility.yul\":15099:15166   */\n      tag_95\n      jump\t// in\n    tag_253:\n        /* \"#utility.yul\":15093:15097   */\n      dup7\n        /* \"#utility.yul\":15086:15167   */\n      sstore\n        /* \"#utility.yul\":14955:15177   */\n      pop\n        /* \"#utility.yul\":14290:15177   */\n      jump(tag_250)\n        /* \"#utility.yul\":14320:14938   */\n    tag_251:\n        /* \"#utility.yul\":14372:14376   */\n      0x1f\n        /* \"#utility.yul\":14368:14377   */\n      not\n        /* \"#utility.yul\":14360:14366   */\n      dup5\n        /* \"#utility.yul\":14356:14378   */\n      and\n        /* \"#utility.yul\":14406:14443   */\n      tag_254\n        /* \"#utility.yul\":14438:14442   */\n      dup7\n        /* \"#utility.yul\":14406:14443   */\n      tag_81\n      jump\t// in\n    tag_254:\n        /* \"#utility.yul\":14465:14466   */\n      0x00\n        /* \"#utility.yul\":14479:14687   */\n    tag_255:\n        /* \"#utility.yul\":14493:14500   */\n      dup3\n        /* \"#utility.yul\":14490:14491   */\n      dup2\n        /* \"#utility.yul\":14487:14501   */\n      lt\n        /* \"#utility.yul\":14479:14687   */\n      iszero\n      tag_257\n      jumpi\n        /* \"#utility.yul\":14572:14581   */\n      dup5\n        /* \"#utility.yul\":14567:14570   */\n      dup10\n        /* \"#utility.yul\":14563:14582   */\n      add\n        /* \"#utility.yul\":14557:14583   */\n      mload\n        /* \"#utility.yul\":14549:14555   */\n      dup3\n        /* \"#utility.yul\":14542:14584   */\n      sstore\n        /* \"#utility.yul\":14623:14624   */\n      0x01\n        /* \"#utility.yul\":14615:14621   */\n      dup3\n        /* \"#utility.yul\":14611:14625   */\n      add\n        /* \"#utility.yul\":14601:14625   */\n      swap2\n      pop\n        /* \"#utility.yul\":14670:14672   */\n      0x20\n        /* \"#utility.yul\":14659:14668   */\n      dup6\n        /* \"#utility.yul\":14655:14673   */\n      add\n        /* \"#utility.yul\":14642:14673   */\n      swap5\n      pop\n        /* \"#utility.yul\":14516:14520   */\n      0x20\n        /* \"#utility.yul\":14513:14514   */\n      dup2\n        /* \"#utility.yul\":14509:14521   */\n      add\n        /* \"#utility.yul\":14504:14521   */\n      swap1\n      pop\n        /* \"#utility.yul\":14479:14687   */\n      jump(tag_255)\n    tag_257:\n        /* \"#utility.yul\":14715:14721   */\n      dup7\n        /* \"#utility.yul\":14706:14713   */\n      dup4\n        /* \"#utility.yul\":14703:14722   */\n      lt\n        /* \"#utility.yul\":14700:14879   */\n      iszero\n      tag_258\n      jumpi\n        /* \"#utility.yul\":14773:14782   */\n      dup5\n        /* \"#utility.yul\":14768:14771   */\n      dup10\n        /* \"#utility.yul\":14764:14783   */\n      add\n        /* \"#utility.yul\":14758:14784   */\n      mload\n        /* \"#utility.yul\":14816:14864   */\n      tag_259\n        /* \"#utility.yul\":14858:14862   */\n      0x1f\n        /* \"#utility.yul\":14850:14856   */\n      dup10\n        /* \"#utility.yul\":14846:14863   */\n      and\n        /* \"#utility.yul\":14835:14844   */\n      dup3\n        /* \"#utility.yul\":14816:14864   */\n      tag_94\n      jump\t// in\n    tag_259:\n        /* \"#utility.yul\":14808:14814   */\n      dup4\n        /* \"#utility.yul\":14801:14865   */\n      sstore\n        /* \"#utility.yul\":14723:14879   */\n      pop\n        /* \"#utility.yul\":14700:14879   */\n    tag_258:\n        /* \"#utility.yul\":14925:14926   */\n      0x01\n        /* \"#utility.yul\":14921:14922   */\n      0x02\n        /* \"#utility.yul\":14913:14919   */\n      dup9\n        /* \"#utility.yul\":14909:14923   */\n      mul\n        /* \"#utility.yul\":14905:14927   */\n      add\n        /* \"#utility.yul\":14899:14903   */\n      dup9\n        /* \"#utility.yul\":14892:14928   */\n      sstore\n        /* \"#utility.yul\":14327:14938   */\n      pop\n      pop\n      pop\n        /* \"#utility.yul\":14290:15177   */\n    tag_250:\n      pop\n        /* \"#utility.yul\":13880:15183   */\n      pop\n      pop\n      pop\n        /* \"#utility.yul\":13788:15183   */\n      pop\n      pop\n      jump\t// out\n\n    auxdata: 0xa2646970667358221220fed6c55b53eb712c3756024813c0727d8d45cd3bc88291463d3ab7f14e5444e964736f6c634300081f0033\n}\n",
				"bytecode": {
					"linkReferences": {},
					"object": "6080604052348015600e575f5ffd5b50610c408061001c5f395ff3fe608060405234801561000f575f5ffd5b506004361061003f575f3560e01c8063506b27f0146100435780635daf08ca14610073578063b184c11e146100a6575b5f5ffd5b61005d6004803603810190610058919061047a565b6100c2565b60405161006a91906104bf565b60405180910390f35b61008d6004803603810190610088919061050b565b6100df565b60405161009d94939291906105c4565b60405180910390f35b6100c060048036038101906100bb919061073a565b6101be565b005b6001602052805f5260405f205f915054906101000a900460ff1681565b5f81815481106100ed575f80fd5b905f5260205f2090600402015f91509050805f015490806001018054610112906107d3565b80601f016020809104026020016040519081016040528092919081815260200182805461013e906107d3565b80156101895780601f1061016057610100808354040283529160200191610189565b820191905f5260205f20905b81548152906001019060200180831161016c57829003601f168201915b505050505090806002015490806003015f9054906101000a900473ffffffffffffffffffffffffffffffffffffffff16905084565b5f835111610201576040517f08c379a00000000000000000000000000000000000000000000000000000000081526004016101f89061084d565b60405180910390fd5b600f8211610244576040517f08c379a000000000000000000000000000000000000000000000000000000000815260040161023b906108b5565b60405180910390fd5b60015f8273ffffffffffffffffffffffffffffffffffffffff1673ffffffffffffffffffffffffffffffffffffffff1681526020019081526020015f205f9054906101000a900460ff16156102ce576040517f08c379a00000000000000000000000000000000000000000000000000000000081526004016102c59061091d565b60405180910390fd5b6001805f8373ffffffffffffffffffffffffffffffffffffffff1673ffffffffffffffffffffffffffffffffffffffff1681526020019081526020015f205f6101000a81548160ff0219169083151502179055505f60015f805490506103349190610968565b90505f60405180608001604052808381526020018681526020018581526020018473ffffffffffffffffffffffffffffffffffffffff1681525090505f81908060018154018082558091505060019003905f5260205f2090600402015f909190919091505f820151815f015560208201518160010190816103b59190610b3b565b50604082015181600201556060820151816003015f6101000a81548173ffffffffffffffffffffffffffffffffffffffff021916908373ffffffffffffffffffffffffffffffffffffffff16021790555050505050505050565b5f604051905090565b5f5ffd5b5f5ffd5b5f73ffffffffffffffffffffffffffffffffffffffff82169050919050565b5f61044982610420565b9050919050565b6104598161043f565b8114610463575f5ffd5b50565b5f8135905061047481610450565b92915050565b5f6020828403121561048f5761048e610418565b5b5f61049c84828501610466565b91505092915050565b5f8115159050919050565b6104b9816104a5565b82525050565b5f6020820190506104d25f8301846104b0565b92915050565b5f819050919050565b6104ea816104d8565b81146104f4575f5ffd5b50565b5f81359050610505816104e1565b92915050565b5f602082840312156105205761051f610418565b5b5f61052d848285016104f7565b91505092915050565b61053f816104d8565b82525050565b5f81519050919050565b5f82825260208201905092915050565b8281835e5f83830152505050565b5f601f19601f8301169050919050565b5f61058782610545565b610591818561054f565b93506105a181856020860161055f565b6105aa8161056d565b840191505092915050565b6105be8161043f565b82525050565b5f6080820190506105d75f830187610536565b81810360208301526105e9818661057d565b90506105f86040830185610536565b61060560608301846105b5565b95945050505050565b5f5ffd5b5f5ffd5b7f4e487b71000000000000000000000000000000000000000000000000000000005f52604160045260245ffd5b61064c8261056d565b810181811067ffffffffffffffff8211171561066b5761066a610616565b5b80604052505050565b5f61067d61040f565b90506106898282610643565b919050565b5f67ffffffffffffffff8211156106a8576106a7610616565b5b6106b18261056d565b9050602081019050919050565b828183375f83830152505050565b5f6106de6106d98461068e565b610674565b9050828152602081018484840111156106fa576106f9610612565b5b6107058482856106be565b509392505050565b5f82601f8301126107215761072061060e565b5b81356107318482602086016106cc565b91505092915050565b5f5f5f6060848603121561075157610750610418565b5b5f84013567ffffffffffffffff81111561076e5761076d61041c565b5b61077a8682870161070d565b935050602061078b868287016104f7565b925050604061079c86828701610466565b9150509250925092565b7f4e487b71000000000000000000000000000000000000000000000000000000005f52602260045260245ffd5b5f60028204905060018216806107ea57607f821691505b6020821081036107fd576107fc6107a6565b5b50919050565b7f55736572206e616d652063616e6e6f7420626520656d707479210000000000005f82015250565b5f610837601a8361054f565b915061084282610803565b602082019050919050565b5f6020820190508181035f8301526108648161082b565b9050919050565b7f55736572206d757374206265206f6c646572207468616e2031350000000000005f82015250565b5f61089f601a8361054f565b91506108aa8261086b565b602082019050919050565b5f6020820190508181035f8301526108cc81610893565b9050919050565b7f55736572207265676973746572656421000000000000000000000000000000005f82015250565b5f61090760108361054f565b9150610912826108d3565b602082019050919050565b5f6020820190508181035f830152610934816108fb565b9050919050565b7f4e487b71000000000000000000000000000000000000000000000000000000005f52601160045260245ffd5b5f610972826104d8565b915061097d836104d8565b92508282019050808211156109955761099461093b565b5b92915050565b5f819050815f5260205f209050919050565b5f6020601f8301049050919050565b5f82821b905092915050565b5f600883026109f77fffffffffffffffffffffffffffffffffffffffffffffffffffffffffffffffff826109bc565b610a0186836109bc565b95508019841693508086168417925050509392505050565b5f819050919050565b5f610a3c610a37610a32846104d8565b610a19565b6104d8565b9050919050565b5f819050919050565b610a5583610a22565b610a69610a6182610a43565b8484546109c8565b825550505050565b5f5f905090565b610a80610a71565b610a8b818484610a4c565b505050565b5b81811015610aae57610aa35f82610a78565b600181019050610a91565b5050565b601f821115610af357610ac48161099b565b610acd846109ad565b81016020851015610adc578190505b610af0610ae8856109ad565b830182610a90565b50505b505050565b5f82821c905092915050565b5f610b135f1984600802610af8565b1980831691505092915050565b5f610b2b8383610b04565b9150826002028217905092915050565b610b4482610545565b67ffffffffffffffff811115610b5d57610b5c610616565b5b610b6782546107d3565b610b72828285610ab2565b5f60209050601f831160018114610ba3575f8415610b91578287015190505b610b9b8582610b20565b865550610c02565b601f198416610bb18661099b565b5f5b82811015610bd857848901518255600182019150602085019450602081019050610bb3565b86831015610bf55784890151610bf1601f891682610b04565b8355505b6001600288020188555050505b50505050505056fea2646970667358221220fed6c55b53eb712c3756024813c0727d8d45cd3bc88291463d3ab7f14e5444e964736f6c634300081f0033",
					"opcodes": "PUSH1 0x80 PUSH1 0x40 MSTORE CALLVALUE DUP1 ISZERO PUSH1 0xE JUMPI PUSH0 PUSH0 REVERT JUMPDEST POP PUSH2 0xC40 DUP1 PUSH2 0x1C PUSH0 CODECOPY PUSH0 RETURN INVALID PUSH1 0x80 PUSH1 0x40 MSTORE CALLVALUE DUP1 ISZERO PUSH2 0xF JUMPI PUSH0 PUSH0 REVERT JUMPDEST POP PUSH1 0x4 CALLDATASIZE LT PUSH2 0x3F JUMPI PUSH0 CALLDATALOAD PUSH1 0xE0 SHR DUP1 PUSH4 0x506B27F0 EQ PUSH2 0x43 JUMPI DUP1 PUSH4 0x5DAF08CA EQ PUSH2 0x73 JUMPI DUP1 PUSH4 0xB184C11E EQ PUSH2 0xA6 JUMPI JUMPDEST PUSH0 PUSH0 REVERT JUMPDEST PUSH2 0x5D PUSH1 0x4 DUP1 CALLDATASIZE SUB DUP2 ADD SWAP1 PUSH2 0x58 SWAP2 SWAP1 PUSH2 0x47A JUMP JUMPDEST PUSH2 0xC2 JUMP JUMPDEST PUSH1 0x40 MLOAD PUSH2 0x6A SWAP2 SWAP1 PUSH2 0x4BF JUMP JUMPDEST PUSH1 0x40 MLOAD DUP1 SWAP2 SUB SWAP1 RETURN JUMPDEST PUSH2 0x8D PUSH1 0x4 DUP1 CALLDATASIZE SUB DUP2 ADD SWAP1 PUSH2 0x88 SWAP2 SWAP1 PUSH2 0x50B JUMP JUMPDEST PUSH2 0xDF JUMP JUMPDEST PUSH1 0x40 MLOAD PUSH2 0x9D SWAP5 SWAP4 SWAP3 SWAP2 SWAP1 PUSH2 0x5C4 JUMP JUMPDEST PUSH1 0x40 MLOAD DUP1 SWAP2 SUB SWAP1 RETURN JUMPDEST PUSH2 0xC0 PUSH1 0x4 DUP1 CALLDATASIZE SUB DUP2 ADD SWAP1 PUSH2 0xBB SWAP2 SWAP1 PUSH2 0x73A JUMP JUMPDEST PUSH2 0x1BE JUMP JUMPDEST STOP JUMPDEST PUSH1 0x1 PUSH1 0x20 MSTORE DUP1 PUSH0 MSTORE PUSH1 0x40 PUSH0 KECCAK256 PUSH0 SWAP2 POP SLOAD SWAP1 PUSH2 0x100 EXP SWAP1 DIV PUSH1 0xFF AND DUP2 JUMP JUMPDEST PUSH0 DUP2 DUP2 SLOAD DUP2 LT PUSH2 0xED JUMPI PUSH0 DUP1 REVERT JUMPDEST SWAP1 PUSH0 MSTORE PUSH1 0x20 PUSH0 KECCAK256 SWAP1 PUSH1 0x4 MUL ADD PUSH0 SWAP2 POP SWAP1 POP DUP1 PUSH0 ADD SLOAD SWAP1 DUP1 PUSH1 0x1 ADD DUP1 SLOAD PUSH2 0x112 SWAP1 PUSH2 0x7D3 JUMP JUMPDEST DUP1 PUSH1 0x1F ADD PUSH1 0x20 DUP1 SWAP2 DIV MUL PUSH1 0x20 ADD PUSH1 0x40 MLOAD SWAP1 DUP2 ADD PUSH1 0x40 MSTORE DUP1 SWAP3 SWAP2 SWAP1 DUP2 DUP2 MSTORE PUSH1 0x20 ADD DUP3 DUP1 SLOAD PUSH2 0x13E SWAP1 PUSH2 0x7D3 JUMP JUMPDEST DUP1 ISZERO PUSH2 0x189 JUMPI DUP1 PUSH1 0x1F LT PUSH2 0x160 JUMPI PUSH2 0x100 DUP1 DUP4 SLOAD DIV MUL DUP4 MSTORE SWAP2 PUSH1 0x20 ADD SWAP2 PUSH2 0x189 JUMP JUMPDEST DUP3 ADD SWAP2 SWAP1 PUSH0 MSTORE PUSH1 0x20 PUSH0 KECCAK256 SWAP1 JUMPDEST DUP2 SLOAD DUP2 MSTORE SWAP1 PUSH1 0x1 ADD SWAP1 PUSH1 0x20 ADD DUP1 DUP4 GT PUSH2 0x16C JUMPI DUP3 SWAP1 SUB PUSH1 0x1F AND DUP3 ADD SWAP2 JUMPDEST POP POP POP POP POP SWAP1 DUP1 PUSH1 0x2 ADD SLOAD SWAP1 DUP1 PUSH1 0x3 ADD PUSH0 SWAP1 SLOAD SWAP1 PUSH2 0x100 EXP SWAP1 DIV PUSH20 0xFFFFFFFFFFFFFFFFFFFFFFFFFFFFFFFFFFFFFFFF AND SWAP1 POP DUP5 JUMP JUMPDEST PUSH0 DUP4 MLOAD GT PUSH2 0x201 JUMPI PUSH1 0x40 MLOAD PUSH32 0x8C379A000000000000000000000000000000000000000000000000000000000 DUP2 MSTORE PUSH1 0x4 ADD PUSH2 0x1F8 SWAP1 PUSH2 0x84D JUMP JUMPDEST PUSH1 0x40 MLOAD DUP1 SWAP2 SUB SWAP1 REVERT JUMPDEST PUSH1 0xF DUP3 GT PUSH2 0x244 JUMPI PUSH1 0x40 MLOAD PUSH32 0x8C379A000000000000000000000000000000000000000000000000000000000 DUP2 MSTORE PUSH1 0x4 ADD PUSH2 0x23B SWAP1 PUSH2 0x8B5 JUMP JUMPDEST PUSH1 0x40 MLOAD DUP1 SWAP2 SUB SWAP1 REVERT JUMPDEST PUSH1 0x1 PUSH0 DUP3 PUSH20 0xFFFFFFFFFFFFFFFFFFFFFFFFFFFFFFFFFFFFFFFF AND PUSH20 0xFFFFFFFFFFFFFFFFFFFFFFFFFFFFFFFFFFFFFFFF AND DUP2 MSTORE PUSH1 0x20 ADD SWAP1 DUP2 MSTORE PUSH1 0x20 ADD PUSH0 KECCAK256 PUSH0 SWAP1 SLOAD SWAP1 PUSH2 0x100 EXP SWAP1 DIV PUSH1 0xFF AND ISZERO PUSH2 0x2CE JUMPI PUSH1 0x40 MLOAD PUSH32 0x8C379A000000000000000000000000000000000000000000000000000000000 DUP2 MSTORE PUSH1 0x4 ADD PUSH2 0x2C5 SWAP1 PUSH2 0x91D JUMP JUMPDEST PUSH1 0x40 MLOAD DUP1 SWAP2 SUB SWAP1 REVERT JUMPDEST PUSH1 0x1 DUP1 PUSH0 DUP4 PUSH20 0xFFFFFFFFFFFFFFFFFFFFFFFFFFFFFFFFFFFFFFFF AND PUSH20 0xFFFFFFFFFFFFFFFFFFFFFFFFFFFFFFFFFFFFFFFF AND DUP2 MSTORE PUSH1 0x20 ADD SWAP1 DUP2 MSTORE PUSH1 0x20 ADD PUSH0 KECCAK256 PUSH0 PUSH2 0x100 EXP DUP2 SLOAD DUP2 PUSH1 0xFF MUL NOT AND SWAP1 DUP4 ISZERO ISZERO MUL OR SWAP1 SSTORE POP PUSH0 PUSH1 0x1 PUSH0 DUP1 SLOAD SWAP1 POP PUSH2 0x334 SWAP2 SWAP1 PUSH2 0x968 JUMP JUMPDEST SWAP1 POP PUSH0 PUSH1 0x40 MLOAD DUP1 PUSH1 0x80 ADD PUSH1 0x40 MSTORE DUP1 DUP4 DUP2 MSTORE PUSH1 0x20 ADD DUP7 DUP2 MSTORE PUSH1 0x20 ADD DUP6 DUP2 MSTORE PUSH1 0x20 ADD DUP5 PUSH20 0xFFFFFFFFFFFFFFFFFFFFFFFFFFFFFFFFFFFFFFFF AND DUP2 MSTORE POP SWAP1 POP PUSH0 DUP2 SWAP1 DUP1 PUSH1 0x1 DUP2 SLOAD ADD DUP1 DUP3 SSTORE DUP1 SWAP2 POP POP PUSH1 0x1 SWAP1 SUB SWAP1 PUSH0 MSTORE PUSH1 0x20 PUSH0 KECCAK256 SWAP1 PUSH1 0x4 MUL ADD PUSH0 SWAP1 SWAP2 SWAP1 SWAP2 SWAP1 SWAP2 POP PUSH0 DUP3 ADD MLOAD DUP2 PUSH0 ADD SSTORE PUSH1 0x20 DUP3 ADD MLOAD DUP2 PUSH1 0x1 ADD SWAP1 DUP2 PUSH2 0x3B5 SWAP2 SWAP1 PUSH2 0xB3B JUMP JUMPDEST POP PUSH1 0x40 DUP3 ADD MLOAD DUP2 PUSH1 0x2 ADD SSTORE PUSH1 0x60 DUP3 ADD MLOAD DUP2 PUSH1 0x3 ADD PUSH0 PUSH2 0x100 EXP DUP2 SLOAD DUP2 PUSH20 0xFFFFFFFFFFFFFFFFFFFFFFFFFFFFFFFFFFFFFFFF MUL NOT AND SWAP1 DUP4 PUSH20 0xFFFFFFFFFFFFFFFFFFFFFFFFFFFFFFFFFFFFFFFF AND MUL OR SWAP1 SSTORE POP POP POP POP POP POP POP POP JUMP JUMPDEST PUSH0 PUSH1 0x40 MLOAD SWAP1 POP SWAP1 JUMP JUMPDEST PUSH0 PUSH0 REVERT JUMPDEST PUSH0 PUSH0 REVERT JUMPDEST PUSH0 PUSH20 0xFFFFFFFFFFFFFFFFFFFFFFFFFFFFFFFFFFFFFFFF DUP3 AND SWAP1 POP SWAP2 SWAP1 POP JUMP JUMPDEST PUSH0 PUSH2 0x449 DUP3 PUSH2 0x420 JUMP JUMPDEST SWAP1 POP SWAP2 SWAP1 POP JUMP JUMPDEST PUSH2 0x459 DUP2 PUSH2 0x43F JUMP JUMPDEST DUP2 EQ PUSH2 0x463 JUMPI PUSH0 PUSH0 REVERT JUMPDEST POP JUMP JUMPDEST PUSH0 DUP2 CALLDATALOAD SWAP1 POP PUSH2 0x474 DUP2 PUSH2 0x450 JUMP JUMPDEST SWAP3 SWAP2 POP POP JUMP JUMPDEST PUSH0 PUSH1 0x20 DUP3 DUP5 SUB SLT ISZERO PUSH2 0x48F JUMPI PUSH2 0x48E PUSH2 0x418 JUMP JUMPDEST JUMPDEST PUSH0 PUSH2 0x49C DUP5 DUP3 DUP6 ADD PUSH2 0x466 JUMP JUMPDEST SWAP2 POP POP SWAP3 SWAP2 POP POP JUMP JUMPDEST PUSH0 DUP2 ISZERO ISZERO SWAP1 POP SWAP2 SWAP1 POP JUMP JUMPDEST PUSH2 0x4B9 DUP2 PUSH2 0x4A5 JUMP JUMPDEST DUP3 MSTORE POP POP JUMP JUMPDEST PUSH0 PUSH1 0x20 DUP3 ADD SWAP1 POP PUSH2 0x4D2 PUSH0 DUP4 ADD DUP5 PUSH2 0x4B0 JUMP JUMPDEST SWAP3 SWAP2 POP POP JUMP JUMPDEST PUSH0 DUP2 SWAP1 POP SWAP2 SWAP1 POP JUMP JUMPDEST PUSH2 0x4EA DUP2 PUSH2 0x4D8 JUMP JUMPDEST DUP2 EQ PUSH2 0x4F4 JUMPI PUSH0 PUSH0 REVERT JUMPDEST POP JUMP JUMPDEST PUSH0 DUP2 CALLDATALOAD SWAP1 POP PUSH2 0x505 DUP2 PUSH2 0x4E1 JUMP JUMPDEST SWAP3 SWAP2 POP POP JUMP JUMPDEST PUSH0 PUSH1 0x20 DUP3 DUP5 SUB SLT ISZERO PUSH2 0x520 JUMPI PUSH2 0x51F PUSH2 0x418 JUMP JUMPDEST JUMPDEST PUSH0 PUSH2 0x52D DUP5 DUP3 DUP6 ADD PUSH2 0x4F7 JUMP JUMPDEST SWAP2 POP POP SWAP3 SWAP2 POP POP JUMP JUMPDEST PUSH2 0x53F DUP2 PUSH2 0x4D8 JUMP JUMPDEST DUP3 MSTORE POP POP JUMP JUMPDEST PUSH0 DUP2 MLOAD SWAP1 POP SWAP2 SWAP1 POP JUMP JUMPDEST PUSH0 DUP3 DUP3 MSTORE PUSH1 0x20 DUP3 ADD SWAP1 POP SWAP3 SWAP2 POP POP JUMP JUMPDEST DUP3 DUP2 DUP4 MCOPY PUSH0 DUP4 DUP4 ADD MSTORE POP POP POP JUMP JUMPDEST PUSH0 PUSH1 0x1F NOT PUSH1 0x1F DUP4 ADD AND SWAP1 POP SWAP2 SWAP1 POP JUMP JUMPDEST PUSH0 PUSH2 0x587 DUP3 PUSH2 0x545 JUMP JUMPDEST PUSH2 0x591 DUP2 DUP6 PUSH2 0x54F JUMP JUMPDEST SWAP4 POP PUSH2 0x5A1 DUP2 DUP6 PUSH1 0x20 DUP7 ADD PUSH2 0x55F JUMP JUMPDEST PUSH2 0x5AA DUP2 PUSH2 0x56D JUMP JUMPDEST DUP5 ADD SWAP2 POP POP SWAP3 SWAP2 POP POP JUMP JUMPDEST PUSH2 0x5BE DUP2 PUSH2 0x43F JUMP JUMPDEST DUP3 MSTORE POP POP JUMP JUMPDEST PUSH0 PUSH1 0x80 DUP3 ADD SWAP1 POP PUSH2 0x5D7 PUSH0 DUP4 ADD DUP8 PUSH2 0x536 JUMP JUMPDEST DUP2 DUP2 SUB PUSH1 0x20 DUP4 ADD MSTORE PUSH2 0x5E9 DUP2 DUP7 PUSH2 0x57D JUMP JUMPDEST SWAP1 POP PUSH2 0x5F8 PUSH1 0x40 DUP4 ADD DUP6 PUSH2 0x536 JUMP JUMPDEST PUSH2 0x605 PUSH1 0x60 DUP4 ADD DUP5 PUSH2 0x5B5 JUMP JUMPDEST SWAP6 SWAP5 POP POP POP POP POP JUMP JUMPDEST PUSH0 PUSH0 REVERT JUMPDEST PUSH0 PUSH0 REVERT JUMPDEST PUSH32 0x4E487B7100000000000000000000000000000000000000000000000000000000 PUSH0 MSTORE PUSH1 0x41 PUSH1 0x4 MSTORE PUSH1 0x24 PUSH0 REVERT JUMPDEST PUSH2 0x64C DUP3 PUSH2 0x56D JUMP JUMPDEST DUP2 ADD DUP2 DUP2 LT PUSH8 0xFFFFFFFFFFFFFFFF DUP3 GT OR ISZERO PUSH2 0x66B JUMPI PUSH2 0x66A PUSH2 0x616 JUMP JUMPDEST JUMPDEST DUP1 PUSH1 0x40 MSTORE POP POP POP JUMP JUMPDEST PUSH0 PUSH2 0x67D PUSH2 0x40F JUMP JUMPDEST SWAP1 POP PUSH2 0x689 DUP3 DUP3 PUSH2 0x643 JUMP JUMPDEST SWAP2 SWAP1 POP JUMP JUMPDEST PUSH0 PUSH8 0xFFFFFFFFFFFFFFFF DUP3 GT ISZERO PUSH2 0x6A8 JUMPI PUSH2 0x6A7 PUSH2 0x616 JUMP JUMPDEST JUMPDEST PUSH2 0x6B1 DUP3 PUSH2 0x56D JUMP JUMPDEST SWAP1 POP PUSH1 0x20 DUP2 ADD SWAP1 POP SWAP2 SWAP1 POP JUMP JUMPDEST DUP3 DUP2 DUP4 CALLDATACOPY PUSH0 DUP4 DUP4 ADD MSTORE POP POP POP JUMP JUMPDEST PUSH0 PUSH2 0x6DE PUSH2 0x6D9 DUP5 PUSH2 0x68E JUMP JUMPDEST PUSH2 0x674 JUMP JUMPDEST SWAP1 POP DUP3 DUP2 MSTORE PUSH1 0x20 DUP2 ADD DUP5 DUP5 DUP5 ADD GT ISZERO PUSH2 0x6FA JUMPI PUSH2 0x6F9 PUSH2 0x612 JUMP JUMPDEST JUMPDEST PUSH2 0x705 DUP5 DUP3 DUP6 PUSH2 0x6BE JUMP JUMPDEST POP SWAP4 SWAP3 POP POP POP JUMP JUMPDEST PUSH0 DUP3 PUSH1 0x1F DUP4 ADD SLT PUSH2 0x721 JUMPI PUSH2 0x720 PUSH2 0x60E JUMP JUMPDEST JUMPDEST DUP2 CALLDATALOAD PUSH2 0x731 DUP5 DUP3 PUSH1 0x20 DUP7 ADD PUSH2 0x6CC JUMP JUMPDEST SWAP2 POP POP SWAP3 SWAP2 POP POP JUMP JUMPDEST PUSH0 PUSH0 PUSH0 PUSH1 0x60 DUP5 DUP7 SUB SLT ISZERO PUSH2 0x751 JUMPI PUSH2 0x750 PUSH2 0x418 JUMP JUMPDEST JUMPDEST PUSH0 DUP5 ADD CALLDATALOAD PUSH8 0xFFFFFFFFFFFFFFFF DUP2 GT ISZERO PUSH2 0x76E JUMPI PUSH2 0x76D PUSH2 0x41C JUMP JUMPDEST JUMPDEST PUSH2 0x77A DUP7 DUP3 DUP8 ADD PUSH2 0x70D JUMP JUMPDEST SWAP4 POP POP PUSH1 0x20 PUSH2 0x78B DUP7 DUP3 DUP8 ADD PUSH2 0x4F7 JUMP JUMPDEST SWAP3 POP POP PUSH1 0x40 PUSH2 0x79C DUP7 DUP3 DUP8 ADD PUSH2 0x466 JUMP JUMPDEST SWAP2 POP POP SWAP3 POP SWAP3 POP SWAP3 JUMP JUMPDEST PUSH32 0x4E487B7100000000000000000000000000000000000000000000000000000000 PUSH0 MSTORE PUSH1 0x22 PUSH1 0x4 MSTORE PUSH1 0x24 PUSH0 REVERT JUMPDEST PUSH0 PUSH1 0x2 DUP3 DIV SWAP1 POP PUSH1 0x1 DUP3 AND DUP1 PUSH2 0x7EA JUMPI PUSH1 0x7F DUP3 AND SWAP2 POP JUMPDEST PUSH1 0x20 DUP3 LT DUP2 SUB PUSH2 0x7FD JUMPI PUSH2 0x7FC PUSH2 0x7A6 JUMP JUMPDEST JUMPDEST POP SWAP2 SWAP1 POP JUMP JUMPDEST PUSH32 0x55736572206E616D652063616E6E6F7420626520656D70747921000000000000 PUSH0 DUP3 ADD MSTORE POP JUMP JUMPDEST PUSH0 PUSH2 0x837 PUSH1 0x1A DUP4 PUSH2 0x54F JUMP JUMPDEST SWAP2 POP PUSH2 0x842 DUP3 PUSH2 0x803 JUMP JUMPDEST PUSH1 0x20 DUP3 ADD SWAP1 POP SWAP2 SWAP1 POP JUMP JUMPDEST PUSH0 PUSH1 0x20 DUP3 ADD SWAP1 POP DUP2 DUP2 SUB PUSH0 DUP4 ADD MSTORE PUSH2 0x864 DUP2 PUSH2 0x82B JUMP JUMPDEST SWAP1 POP SWAP2 SWAP1 POP JUMP JUMPDEST PUSH32 0x55736572206D757374206265206F6C646572207468616E203135000000000000 PUSH0 DUP3 ADD MSTORE POP JUMP JUMPDEST PUSH0 PUSH2 0x89F PUSH1 0x1A DUP4 PUSH2 0x54F JUMP JUMPDEST SWAP2 POP PUSH2 0x8AA DUP3 PUSH2 0x86B JUMP JUMPDEST PUSH1 0x20 DUP3 ADD SWAP1 POP SWAP2 SWAP1 POP JUMP JUMPDEST PUSH0 PUSH1 0x20 DUP3 ADD SWAP1 POP DUP2 DUP2 SUB PUSH0 DUP4 ADD MSTORE PUSH2 0x8CC DUP2 PUSH2 0x893 JUMP JUMPDEST SWAP1 POP SWAP2 SWAP1 POP JUMP JUMPDEST PUSH32 0x5573657220726567697374657265642100000000000000000000000000000000 PUSH0 DUP3 ADD MSTORE POP JUMP JUMPDEST PUSH0 PUSH2 0x907 PUSH1 0x10 DUP4 PUSH2 0x54F JUMP JUMPDEST SWAP2 POP PUSH2 0x912 DUP3 PUSH2 0x8D3 JUMP JUMPDEST PUSH1 0x20 DUP3 ADD SWAP1 POP SWAP2 SWAP1 POP JUMP JUMPDEST PUSH0 PUSH1 0x20 DUP3 ADD SWAP1 POP DUP2 DUP2 SUB PUSH0 DUP4 ADD MSTORE PUSH2 0x934 DUP2 PUSH2 0x8FB JUMP JUMPDEST SWAP1 POP SWAP2 SWAP1 POP JUMP JUMPDEST PUSH32 0x4E487B7100000000000000000000000000000000000000000000000000000000 PUSH0 MSTORE PUSH1 0x11 PUSH1 0x4 MSTORE PUSH1 0x24 PUSH0 REVERT JUMPDEST PUSH0 PUSH2 0x972 DUP3 PUSH2 0x4D8 JUMP JUMPDEST SWAP2 POP PUSH2 0x97D DUP4 PUSH2 0x4D8 JUMP JUMPDEST SWAP3 POP DUP3 DUP3 ADD SWAP1 POP DUP1 DUP3 GT ISZERO PUSH2 0x995 JUMPI PUSH2 0x994 PUSH2 0x93B JUMP JUMPDEST JUMPDEST SWAP3 SWAP2 POP POP JUMP JUMPDEST PUSH0 DUP2 SWAP1 POP DUP2 PUSH0 MSTORE PUSH1 0x20 PUSH0 KECCAK256 SWAP1 POP SWAP2 SWAP1 POP JUMP JUMPDEST PUSH0 PUSH1 0x20 PUSH1 0x1F DUP4 ADD DIV SWAP1 POP SWAP2 SWAP1 POP JUMP JUMPDEST PUSH0 DUP3 DUP3 SHL SWAP1 POP SWAP3 SWAP2 POP POP JUMP JUMPDEST PUSH0 PUSH1 0x8 DUP4 MUL PUSH2 0x9F7 PUSH32 0xFFFFFFFFFFFFFFFFFFFFFFFFFFFFFFFFFFFFFFFFFFFFFFFFFFFFFFFFFFFFFFFF DUP3 PUSH2 0x9BC JUMP JUMPDEST PUSH2 0xA01 DUP7 DUP4 PUSH2 0x9BC JUMP JUMPDEST SWAP6 POP DUP1 NOT DUP5 AND SWAP4 POP DUP1 DUP7 AND DUP5 OR SWAP3 POP POP POP SWAP4 SWAP3 POP POP POP JUMP JUMPDEST PUSH0 DUP2 SWAP1 POP SWAP2 SWAP1 POP JUMP JUMPDEST PUSH0 PUSH2 0xA3C PUSH2 0xA37 PUSH2 0xA32 DUP5 PUSH2 0x4D8 JUMP JUMPDEST PUSH2 0xA19 JUMP JUMPDEST PUSH2 0x4D8 JUMP JUMPDEST SWAP1 POP SWAP2 SWAP1 POP JUMP JUMPDEST PUSH0 DUP2 SWAP1 POP SWAP2 SWAP1 POP JUMP JUMPDEST PUSH2 0xA55 DUP4 PUSH2 0xA22 JUMP JUMPDEST PUSH2 0xA69 PUSH2 0xA61 DUP3 PUSH2 0xA43 JUMP JUMPDEST DUP5 DUP5 SLOAD PUSH2 0x9C8 JUMP JUMPDEST DUP3 SSTORE POP POP POP POP JUMP JUMPDEST PUSH0 PUSH0 SWAP1 POP SWAP1 JUMP JUMPDEST PUSH2 0xA80 PUSH2 0xA71 JUMP JUMPDEST PUSH2 0xA8B DUP2 DUP5 DUP5 PUSH2 0xA4C JUMP JUMPDEST POP POP POP JUMP JUMPDEST JUMPDEST DUP2 DUP2 LT ISZERO PUSH2 0xAAE JUMPI PUSH2 0xAA3 PUSH0 DUP3 PUSH2 0xA78 JUMP JUMPDEST PUSH1 0x1 DUP2 ADD SWAP1 POP PUSH2 0xA91 JUMP JUMPDEST POP POP JUMP JUMPDEST PUSH1 0x1F DUP3 GT ISZERO PUSH2 0xAF3 JUMPI PUSH2 0xAC4 DUP2 PUSH2 0x99B JUMP JUMPDEST PUSH2 0xACD DUP5 PUSH2 0x9AD JUMP JUMPDEST DUP2 ADD PUSH1 0x20 DUP6 LT ISZERO PUSH2 0xADC JUMPI DUP2 SWAP1 POP JUMPDEST PUSH2 0xAF0 PUSH2 0xAE8 DUP6 PUSH2 0x9AD JUMP JUMPDEST DUP4 ADD DUP3 PUSH2 0xA90 JUMP JUMPDEST POP POP JUMPDEST POP POP POP JUMP JUMPDEST PUSH0 DUP3 DUP3 SHR SWAP1 POP SWAP3 SWAP2 POP POP JUMP JUMPDEST PUSH0 PUSH2 0xB13 PUSH0 NOT DUP5 PUSH1 0x8 MUL PUSH2 0xAF8 JUMP JUMPDEST NOT DUP1 DUP4 AND SWAP2 POP POP SWAP3 SWAP2 POP POP JUMP JUMPDEST PUSH0 PUSH2 0xB2B DUP4 DUP4 PUSH2 0xB04 JUMP JUMPDEST SWAP2 POP DUP3 PUSH1 0x2 MUL DUP3 OR SWAP1 POP SWAP3 SWAP2 POP POP JUMP JUMPDEST PUSH2 0xB44 DUP3 PUSH2 0x545 JUMP JUMPDEST PUSH8 0xFFFFFFFFFFFFFFFF DUP2 GT ISZERO PUSH2 0xB5D JUMPI PUSH2 0xB5C PUSH2 0x616 JUMP JUMPDEST JUMPDEST PUSH2 0xB67 DUP3 SLOAD PUSH2 0x7D3 JUMP JUMPDEST PUSH2 0xB72 DUP3 DUP3 DUP6 PUSH2 0xAB2 JUMP JUMPDEST PUSH0 PUSH1 0x20 SWAP1 POP PUSH1 0x1F DUP4 GT PUSH1 0x1 DUP2 EQ PUSH2 0xBA3 JUMPI PUSH0 DUP5 ISZERO PUSH2 0xB91 JUMPI DUP3 DUP8 ADD MLOAD SWAP1 POP JUMPDEST PUSH2 0xB9B DUP6 DUP3 PUSH2 0xB20 JUMP JUMPDEST DUP7 SSTORE POP PUSH2 0xC02 JUMP JUMPDEST PUSH1 0x1F NOT DUP5 AND PUSH2 0xBB1 DUP7 PUSH2 0x99B JUMP JUMPDEST PUSH0 JUMPDEST DUP3 DUP2 LT ISZERO PUSH2 0xBD8 JUMPI DUP5 DUP10 ADD MLOAD DUP3 SSTORE PUSH1 0x1 DUP3 ADD SWAP2 POP PUSH1 0x20 DUP6 ADD SWAP5 POP PUSH1 0x20 DUP2 ADD SWAP1 POP PUSH2 0xBB3 JUMP JUMPDEST DUP7 DUP4 LT ISZERO PUSH2 0xBF5 JUMPI DUP5 DUP10 ADD MLOAD PUSH2 0xBF1 PUSH1 0x1F DUP10 AND DUP3 PUSH2 0xB04 JUMP JUMPDEST DUP4 SSTORE POP JUMPDEST PUSH1 0x1 PUSH1 0x2 DUP9 MUL ADD DUP9 SSTORE POP POP POP JUMPDEST POP POP POP POP POP POP JUMP INVALID LOG2 PUSH5 0x6970667358 0x22 SLT KECCAK256 INVALID 0xD6 0xC5 JUMPDEST MSTORE8 0xEB PUSH18 0x2C3756024813C0727D8D45CD3BC88291463D GASPRICE 0xB7 CALL 0x4E SLOAD PREVRANDAO 0xE9 PUSH5 0x736F6C6343 STOP ADDMOD 0x1F STOP CALLER "
				},
				"gasEstimates": {
					"creation": {
						"codeDepositCost": "627200",
						"executionCost": "655",
						"totalCost": "627855"
					},
					"external": {
						"memberExist(address)": "2811",
						"members(uint256)": "infinite",
						"registerMember(string,uint256,address)": "infinite"
					}
				},
				"methodIdentifiers": {
					"memberExist(address)": "506b27f0",
					"members(uint256)": "5daf08ca",
					"registerMember(string,uint256,address)": "b184c11e"
				}
			},
			"storageLayout": {
				"storage": [
					{
						"astId": 14,
						"contract": "Member.sol:MemberContract",
						"label": "members",
						"offset": 0,
						"slot": "0",
						"type": "t_array(t_struct(Member)10_storage)dyn_storage"
					},
					{
						"astId": 18,
						"contract": "Member.sol:MemberContract",
						"label": "memberExist",
						"offset": 0,
						"slot": "1",
						"type": "t_mapping(t_address,t_bool)"
					}
				],
				"types": {
					"t_address": {
						"encoding": "inplace",
						"label": "address",
						"numberOfBytes": "20"
					},
					"t_array(t_struct(Member)10_storage)dyn_storage": {
						"base": "t_struct(Member)10_storage",
						"encoding": "dynamic_array",
						"label": "struct MemberContract.Member[]",
						"numberOfBytes": "32"
					},
					"t_bool": {
						"encoding": "inplace",
						"label": "bool",
						"numberOfBytes": "1"
					},
					"t_mapping(t_address,t_bool)": {
						"encoding": "mapping",
						"key": "t_address",
						"label": "mapping(address => bool)",
						"numberOfBytes": "32",
						"value": "t_bool"
					},
					"t_string_storage": {
						"encoding": "bytes",
						"label": "string",
						"numberOfBytes": "32"
					},
					"t_struct(Member)10_storage": {
						"encoding": "inplace",
						"label": "struct MemberContract.Member",
						"members": [
							{
								"astId": 3,
								"contract": "Member.sol:MemberContract",
								"label": "ID",
								"offset": 0,
								"slot": "0",
								"type": "t_uint256"
							},
							{
								"astId": 5,
								"contract": "Member.sol:MemberContract",
								"label": "name",
								"offset": 0,
								"slot": "1",
								"type": "t_string_storage"
							},
							{
								"astId": 7,
								"contract": "Member.sol:MemberContract",
								"label": "age",
								"offset": 0,
								"slot": "2",
								"type": "t_uint256"
							},
							{
								"astId": 9,
								"contract": "Member.sol:MemberContract",
								"label": "wallet",
								"offset": 0,
								"slot": "3",
								"type": "t_address"
							}
						],
						"numberOfBytes": "128"
					},
					"t_uint256": {
						"encoding": "inplace",
						"label": "uint256",
						"numberOfBytes": "32"
					}
				}
			},
			"userdoc": {
				"kind": "user",
				"methods": {},
				"version": 1
			}
		}
	}
}