{
	"Book.sol": {
		"BookContract": {
			"abi": [
				{
					"inputs": [
						{
							"internalType": "address",
							"name": "_memberContract",
							"type": "address"
						},
						{
							"internalType": "address payable",
							"name": "_libraryAdmin",
							"type": "address"
						},
						{
							"internalType": "uint256",
							"name": "_nonMemberBorrowFee",
							"type": "uint256"
						}
					],
					"stateMutability": "nonpayable",
					"type": "constructor"
				},
				{
					"inputs": [
						{
							"internalType": "string",
							"name": "_title",
							"type": "string"
						},
						{
							"internalType": "string",
							"name": "_author",
							"type": "string"
						},
						{
							"internalType": "string",
							"name": "_genre",
							"type": "string"
						},
						{
							"internalType": "uint256",
							"name": "_quantity",
							"type": "uint256"
						},
						{
							"internalType": "uint256",
							"name": "_price",
							"type": "uint256"
						},
						{
							"internalType": "uint256",
							"name": "_borrowFee",
							"type": "uint256"
						}
					],
					"name": "addBook",
					"outputs": [],
					"stateMutability": "nonpayable",
					"type": "function"
				},
				{
					"inputs": [
						{
							"internalType": "uint256",
							"name": "",
							"type": "uint256"
						}
					],
					"name": "bookIds",
					"outputs": [
						{
							"internalType": "uint256",
							"name": "",
							"type": "uint256"
						}
					],
					"stateMutability": "view",
					"type": "function"
				},
				{
					"inputs": [
						{
							"internalType": "uint256",
							"name": "",
							"type": "uint256"
						}
					],
					"name": "books",
					"outputs": [
						{
							"internalType": "uint256",
							"name": "ID",
							"type": "uint256"
						},
						{
							"internalType": "string",
							"name": "title",
							"type": "string"
						},
						{
							"internalType": "string",
							"name": "author",
							"type": "string"
						},
						{
							"internalType": "string",
							"name": "genre",
							"type": "string"
						},
						{
							"internalType": "uint256",
							"name": "quantity",
							"type": "uint256"
						},
						{
							"internalType": "uint256",
							"name": "price",
							"type": "uint256"
						},
						{
							"internalType": "uint256",
							"name": "borrowFee",
							"type": "uint256"
						},
						{
							"internalType": "bool",
							"name": "exists",
							"type": "bool"
						},
						{
							"internalType": "uint256",
							"name": "date",
							"type": "uint256"
						}
					],
					"stateMutability": "view",
					"type": "function"
				},
				{
					"inputs": [
						{
							"internalType": "uint256",
							"name": "_ID",
							"type": "uint256"
						}
					],
					"name": "borrowBook",
					"outputs": [],
					"stateMutability": "payable",
					"type": "function"
				},
				{
					"inputs": [
						{
							"internalType": "uint256",
							"name": "",
							"type": "uint256"
						},
						{
							"internalType": "uint256",
							"name": "",
							"type": "uint256"
						}
					],
					"name": "borrowedHistory",
					"outputs": [
						{
							"internalType": "address",
							"name": "user",
							"type": "address"
						},
						{
							"internalType": "uint256",
							"name": "timestamp",
							"type": "uint256"
						}
					],
					"stateMutability": "view",
					"type": "function"
				},
				{
					"inputs": [
						{
							"internalType": "uint256",
							"name": "_ID",
							"type": "uint256"
						}
					],
					"name": "buyBook",
					"outputs": [],
					"stateMutability": "payable",
					"type": "function"
				},
				{
					"inputs": [
						{
							"internalType": "uint256",
							"name": "_ID",
							"type": "uint256"
						}
					],
					"name": "getBookById",
					"outputs": [
						{
							"components": [
								{
									"internalType": "uint256",
									"name": "ID",
									"type": "uint256"
								},
								{
									"internalType": "string",
									"name": "title",
									"type": "string"
								},
								{
									"internalType": "string",
									"name": "author",
									"type": "string"
								},
								{
									"internalType": "string",
									"name": "genre",
									"type": "string"
								},
								{
									"internalType": "uint256",
									"name": "quantity",
									"type": "uint256"
								},
								{
									"internalType": "uint256",
									"name": "price",
									"type": "uint256"
								},
								{
									"internalType": "uint256",
									"name": "borrowFee",
									"type": "uint256"
								},
								{
									"internalType": "bool",
									"name": "exists",
									"type": "bool"
								},
								{
									"internalType": "uint256",
									"name": "date",
									"type": "uint256"
								}
							],
							"internalType": "struct BookContract.Book",
							"name": "",
							"type": "tuple"
						}
					],
					"stateMutability": "view",
					"type": "function"
				},
				{
					"inputs": [],
					"name": "getBooks",
					"outputs": [
						{
							"components": [
								{
									"internalType": "uint256",
									"name": "ID",
									"type": "uint256"
								},
								{
									"internalType": "string",
									"name": "title",
									"type": "string"
								},
								{
									"internalType": "string",
									"name": "author",
									"type": "string"
								},
								{
									"internalType": "string",
									"name": "genre",
									"type": "string"
								},
								{
									"internalType": "uint256",
									"name": "quantity",
									"type": "uint256"
								},
								{
									"internalType": "uint256",
									"name": "price",
									"type": "uint256"
								},
								{
									"internalType": "uint256",
									"name": "borrowFee",
									"type": "uint256"
								},
								{
									"internalType": "bool",
									"name": "exists",
									"type": "bool"
								},
								{
									"internalType": "uint256",
									"name": "date",
									"type": "uint256"
								}
							],
							"internalType": "struct BookContract.Book[]",
							"name": "",
							"type": "tuple[]"
						}
					],
					"stateMutability": "view",
					"type": "function"
				},
				{
					"inputs": [
						{
							"internalType": "uint256",
							"name": "",
							"type": "uint256"
						},
						{
							"internalType": "address",
							"name": "",
							"type": "address"
						}
					],
					"name": "isBorrowing",
					"outputs": [
						{
							"internalType": "bool",
							"name": "",
							"type": "bool"
						}
					],
					"stateMutability": "view",
					"type": "function"
				},
				{
					"inputs": [],
					"name": "libraryAdmin",
					"outputs": [
						{
							"internalType": "address payable",
							"name": "",
							"type": "address"
						}
					],
					"stateMutability": "view",
					"type": "function"
				},
				{
					"inputs": [],
					"name": "memberContract",
					"outputs": [
						{
							"internalType": "contract MemberContract",
							"name": "",
							"type": "address"
						}
					],
					"stateMutability": "view",
					"type": "function"
				},
				{
					"inputs": [],
					"name": "nonMemberBorrowFee",
					"outputs": [
						{
							"internalType": "uint256",
							"name": "",
							"type": "uint256"
						}
					],
					"stateMutability": "view",
					"type": "function"
				},
				{
					"inputs": [
						{
							"internalType": "uint256",
							"name": "",
							"type": "uint256"
						},
						{
							"internalType": "uint256",
							"name": "",
							"type": "uint256"
						}
					],
					"name": "purchaseHistory",
					"outputs": [
						{
							"internalType": "address",
							"name": "user",
							"type": "address"
						},
						{
							"internalType": "uint256",
							"name": "timestamp",
							"type": "uint256"
						}
					],
					"stateMutability": "view",
					"type": "function"
				},
				{
					"inputs": [
						{
							"internalType": "uint256",
							"name": "_ID",
							"type": "uint256"
						},
						{
							"internalType": "uint256",
							"name": "_quantity",
							"type": "uint256"
						}
					],
					"name": "restock",
					"outputs": [],
					"stateMutability": "nonpayable",
					"type": "function"
				},
				{
					"inputs": [
						{
							"internalType": "uint256",
							"name": "_ID",
							"type": "uint256"
						}
					],
					"name": "returnBook",
					"outputs": [],
					"stateMutability": "nonpayable",
					"type": "function"
				}
			],
			"devdoc": {
				"kind": "dev",
				"methods": {},
				"version": 1
			},
			"evm": {
				"assembly": "    /* \"Book.sol\":105:6297  contract BookContract {... */\n  mstore(0x40, 0x80)\n    /* \"Book.sol\":469:749  constructor(... */\n  callvalue\n  dup1\n  iszero\n  tag_1\n  jumpi\n  revert(0x00, 0x00)\ntag_1:\n  pop\n  mload(0x40)\n  sub(codesize, bytecodeSize)\n  dup1\n  bytecodeSize\n  dup4\n  codecopy\n  dup2\n  dup2\n  add\n  0x40\n  mstore\n  dup2\n  add\n  swap1\n  tag_2\n  swap2\n  swap1\n  tag_3\n  jump\t// in\ntag_2:\n    /* \"Book.sol\":638:653  _memberContract */\n  dup3\n    /* \"Book.sol\":606:620  memberContract */\n  0x02\n  0x00\n    /* \"Book.sol\":606:654  memberContract = MemberContract(_memberContract) */\n  0x0100\n  exp\n  dup2\n  sload\n  dup2\n  0xffffffffffffffffffffffffffffffffffffffff\n  mul\n  not\n  and\n  swap1\n  dup4\n  0xffffffffffffffffffffffffffffffffffffffff\n  and\n  mul\n  or\n  swap1\n  sstore\n  pop\n    /* \"Book.sol\":679:692  _libraryAdmin */\n  dup2\n    /* \"Book.sol\":664:676  libraryAdmin */\n  0x03\n  0x00\n    /* \"Book.sol\":664:692  libraryAdmin = _libraryAdmin */\n  0x0100\n  exp\n  dup2\n  sload\n  dup2\n  0xffffffffffffffffffffffffffffffffffffffff\n  mul\n  not\n  and\n  swap1\n  dup4\n  0xffffffffffffffffffffffffffffffffffffffff\n  and\n  mul\n  or\n  swap1\n  sstore\n  pop\n    /* \"Book.sol\":723:742  _nonMemberBorrowFee */\n  dup1\n    /* \"Book.sol\":702:720  nonMemberBorrowFee */\n  0x04\n    /* \"Book.sol\":702:742  nonMemberBorrowFee = _nonMemberBorrowFee */\n  dup2\n  swap1\n  sstore\n  pop\n    /* \"Book.sol\":469:749  constructor(... */\n  pop\n  pop\n  pop\n    /* \"Book.sol\":105:6297  contract BookContract {... */\n  jump(tag_6)\n    /* \"#utility.yul\":88:205   */\ntag_8:\n    /* \"#utility.yul\":197:198   */\n  0x00\n    /* \"#utility.yul\":194:195   */\n  0x00\n    /* \"#utility.yul\":187:199   */\n  revert\n    /* \"#utility.yul\":334:460   */\ntag_10:\n    /* \"#utility.yul\":371:378   */\n  0x00\n    /* \"#utility.yul\":411:453   */\n  0xffffffffffffffffffffffffffffffffffffffff\n    /* \"#utility.yul\":404:409   */\n  dup3\n    /* \"#utility.yul\":400:454   */\n  and\n    /* \"#utility.yul\":389:454   */\n  swap1\n  pop\n    /* \"#utility.yul\":334:460   */\n  swap2\n  swap1\n  pop\n  jump\t// out\n    /* \"#utility.yul\":466:562   */\ntag_11:\n    /* \"#utility.yul\":503:510   */\n  0x00\n    /* \"#utility.yul\":532:556   */\n  tag_26\n    /* \"#utility.yul\":550:555   */\n  dup3\n    /* \"#utility.yul\":532:556   */\n  tag_10\n  jump\t// in\ntag_26:\n    /* \"#utility.yul\":521:556   */\n  swap1\n  pop\n    /* \"#utility.yul\":466:562   */\n  swap2\n  swap1\n  pop\n  jump\t// out\n    /* \"#utility.yul\":568:690   */\ntag_12:\n    /* \"#utility.yul\":641:665   */\n  tag_28\n    /* \"#utility.yul\":659:664   */\n  dup2\n    /* \"#utility.yul\":641:665   */\n  tag_11\n  jump\t// in\ntag_28:\n    /* \"#utility.yul\":634:639   */\n  dup2\n    /* \"#utility.yul\":631:666   */\n  eq\n    /* \"#utility.yul\":621:684   */\n  tag_29\n  jumpi\n    /* \"#utility.yul\":680:681   */\n  0x00\n    /* \"#utility.yul\":677:678   */\n  0x00\n    /* \"#utility.yul\":670:682   */\n  revert\n    /* \"#utility.yul\":621:684   */\ntag_29:\n    /* \"#utility.yul\":568:690   */\n  pop\n  jump\t// out\n    /* \"#utility.yul\":696:839   */\ntag_13:\n    /* \"#utility.yul\":753:758   */\n  0x00\n    /* \"#utility.yul\":784:790   */\n  dup2\n    /* \"#utility.yul\":778:791   */\n  mload\n    /* \"#utility.yul\":769:791   */\n  swap1\n  pop\n    /* \"#utility.yul\":800:833   */\n  tag_31\n    /* \"#utility.yul\":827:832   */\n  dup2\n    /* \"#utility.yul\":800:833   */\n  tag_12\n  jump\t// in\ntag_31:\n    /* \"#utility.yul\":696:839   */\n  swap3\n  swap2\n  pop\n  pop\n  jump\t// out\n    /* \"#utility.yul\":845:949   */\ntag_14:\n    /* \"#utility.yul\":890:897   */\n  0x00\n    /* \"#utility.yul\":919:943   */\n  tag_33\n    /* \"#utility.yul\":937:942   */\n  dup3\n    /* \"#utility.yul\":919:943   */\n  tag_10\n  jump\t// in\ntag_33:\n    /* \"#utility.yul\":908:943   */\n  swap1\n  pop\n    /* \"#utility.yul\":845:949   */\n  swap2\n  swap1\n  pop\n  jump\t// out\n    /* \"#utility.yul\":955:1093   */\ntag_15:\n    /* \"#utility.yul\":1036:1068   */\n  tag_35\n    /* \"#utility.yul\":1062:1067   */\n  dup2\n    /* \"#utility.yul\":1036:1068   */\n  tag_14\n  jump\t// in\ntag_35:\n    /* \"#utility.yul\":1029:1034   */\n  dup2\n    /* \"#utility.yul\":1026:1069   */\n  eq\n    /* \"#utility.yul\":1016:1087   */\n  tag_36\n  jumpi\n    /* \"#utility.yul\":1083:1084   */\n  0x00\n    /* \"#utility.yul\":1080:1081   */\n  0x00\n    /* \"#utility.yul\":1073:1085   */\n  revert\n    /* \"#utility.yul\":1016:1087   */\ntag_36:\n    /* \"#utility.yul\":955:1093   */\n  pop\n  jump\t// out\n    /* \"#utility.yul\":1099:1258   */\ntag_16:\n    /* \"#utility.yul\":1164:1169   */\n  0x00\n    /* \"#utility.yul\":1195:1201   */\n  dup2\n    /* \"#utility.yul\":1189:1202   */\n  mload\n    /* \"#utility.yul\":1180:1202   */\n  swap1\n  pop\n    /* \"#utility.yul\":1211:1252   */\n  tag_38\n    /* \"#utility.yul\":1246:1251   */\n  dup2\n    /* \"#utility.yul\":1211:1252   */\n  tag_15\n  jump\t// in\ntag_38:\n    /* \"#utility.yul\":1099:1258   */\n  swap3\n  swap2\n  pop\n  pop\n  jump\t// out\n    /* \"#utility.yul\":1264:1341   */\ntag_17:\n    /* \"#utility.yul\":1301:1308   */\n  0x00\n    /* \"#utility.yul\":1330:1335   */\n  dup2\n    /* \"#utility.yul\":1319:1335   */\n  swap1\n  pop\n    /* \"#utility.yul\":1264:1341   */\n  swap2\n  swap1\n  pop\n  jump\t// out\n    /* \"#utility.yul\":1347:1469   */\ntag_18:\n    /* \"#utility.yul\":1420:1444   */\n  tag_41\n    /* \"#utility.yul\":1438:1443   */\n  dup2\n    /* \"#utility.yul\":1420:1444   */\n  tag_17\n  jump\t// in\ntag_41:\n    /* \"#utility.yul\":1413:1418   */\n  dup2\n    /* \"#utility.yul\":1410:1445   */\n  eq\n    /* \"#utility.yul\":1400:1463   */\n  tag_42\n  jumpi\n    /* \"#utility.yul\":1459:1460   */\n  0x00\n    /* \"#utility.yul\":1456:1457   */\n  0x00\n    /* \"#utility.yul\":1449:1461   */\n  revert\n    /* \"#utility.yul\":1400:1463   */\ntag_42:\n    /* \"#utility.yul\":1347:1469   */\n  pop\n  jump\t// out\n    /* \"#utility.yul\":1475:1618   */\ntag_19:\n    /* \"#utility.yul\":1532:1537   */\n  0x00\n    /* \"#utility.yul\":1563:1569   */\n  dup2\n    /* \"#utility.yul\":1557:1570   */\n  mload\n    /* \"#utility.yul\":1548:1570   */\n  swap1\n  pop\n    /* \"#utility.yul\":1579:1612   */\n  tag_44\n    /* \"#utility.yul\":1606:1611   */\n  dup2\n    /* \"#utility.yul\":1579:1612   */\n  tag_18\n  jump\t// in\ntag_44:\n    /* \"#utility.yul\":1475:1618   */\n  swap3\n  swap2\n  pop\n  pop\n  jump\t// out\n    /* \"#utility.yul\":1624:2303   */\ntag_3:\n    /* \"#utility.yul\":1720:1726   */\n  0x00\n    /* \"#utility.yul\":1728:1734   */\n  0x00\n    /* \"#utility.yul\":1736:1742   */\n  0x00\n    /* \"#utility.yul\":1785:1787   */\n  0x60\n    /* \"#utility.yul\":1773:1782   */\n  dup5\n    /* \"#utility.yul\":1764:1771   */\n  dup7\n    /* \"#utility.yul\":1760:1783   */\n  sub\n    /* \"#utility.yul\":1756:1788   */\n  slt\n    /* \"#utility.yul\":1753:1872   */\n  iszero\n  tag_46\n  jumpi\n    /* \"#utility.yul\":1791:1870   */\n  tag_47\n  tag_8\n  jump\t// in\ntag_47:\n    /* \"#utility.yul\":1753:1872   */\ntag_46:\n    /* \"#utility.yul\":1911:1912   */\n  0x00\n    /* \"#utility.yul\":1936:2000   */\n  tag_48\n    /* \"#utility.yul\":1992:1999   */\n  dup7\n    /* \"#utility.yul\":1983:1989   */\n  dup3\n    /* \"#utility.yul\":1972:1981   */\n  dup8\n    /* \"#utility.yul\":1968:1990   */\n  add\n    /* \"#utility.yul\":1936:2000   */\n  tag_13\n  jump\t// in\ntag_48:\n    /* \"#utility.yul\":1926:2000   */\n  swap4\n  pop\n    /* \"#utility.yul\":1882:2010   */\n  pop\n    /* \"#utility.yul\":2049:2051   */\n  0x20\n    /* \"#utility.yul\":2075:2147   */\n  tag_49\n    /* \"#utility.yul\":2139:2146   */\n  dup7\n    /* \"#utility.yul\":2130:2136   */\n  dup3\n    /* \"#utility.yul\":2119:2128   */\n  dup8\n    /* \"#utility.yul\":2115:2137   */\n  add\n    /* \"#utility.yul\":2075:2147   */\n  tag_16\n  jump\t// in\ntag_49:\n    /* \"#utility.yul\":2065:2147   */\n  swap3\n  pop\n    /* \"#utility.yul\":2020:2157   */\n  pop\n    /* \"#utility.yul\":2196:2198   */\n  0x40\n    /* \"#utility.yul\":2222:2286   */\n  tag_50\n    /* \"#utility.yul\":2278:2285   */\n  dup7\n    /* \"#utility.yul\":2269:2275   */\n  dup3\n    /* \"#utility.yul\":2258:2267   */\n  dup8\n    /* \"#utility.yul\":2254:2276   */\n  add\n    /* \"#utility.yul\":2222:2286   */\n  tag_19\n  jump\t// in\ntag_50:\n    /* \"#utility.yul\":2212:2286   */\n  swap2\n  pop\n    /* \"#utility.yul\":2167:2296   */\n  pop\n    /* \"#utility.yul\":1624:2303   */\n  swap3\n  pop\n  swap3\n  pop\n  swap3\n  jump\t// out\n    /* \"Book.sol\":105:6297  contract BookContract {... */\ntag_6:\n  dataSize(sub_0)\n  dup1\n  dataOffset(sub_0)\n  0x00\n  codecopy\n  0x00\n  return\nstop\n\nsub_0: assembly {\n        /* \"Book.sol\":105:6297  contract BookContract {... */\n      mstore(0x40, 0x80)\n      jumpi(tag_1, lt(calldatasize, 0x04))\n      shr(0xe0, calldataload(0x00))\n      dup1\n      0x95f58ab8\n      gt\n      tag_17\n      jumpi\n      dup1\n      0xc40cf4eb\n      gt\n      tag_18\n      jumpi\n      dup1\n      0xc40cf4eb\n      eq\n      tag_13\n      jumpi\n      dup1\n      0xca5140c9\n      eq\n      tag_14\n      jumpi\n      dup1\n      0xddd5987f\n      eq\n      tag_15\n      jumpi\n      dup1\n      0xff418352\n      eq\n      tag_16\n      jumpi\n      jump(tag_1)\n    tag_18:\n      dup1\n      0x95f58ab8\n      eq\n      tag_9\n      jumpi\n      dup1\n      0x9f349789\n      eq\n      tag_10\n      jumpi\n      dup1\n      0xa1ef3577\n      eq\n      tag_11\n      jumpi\n      dup1\n      0xa9d00e66\n      eq\n      tag_12\n      jumpi\n      jump(tag_1)\n    tag_17:\n      dup1\n      0x68744046\n      gt\n      tag_19\n      jumpi\n      dup1\n      0x68744046\n      eq\n      tag_5\n      jumpi\n      dup1\n      0x6ee26566\n      eq\n      tag_6\n      jumpi\n      dup1\n      0x7e490a9e\n      eq\n      tag_7\n      jumpi\n      dup1\n      0x85d04bae\n      eq\n      tag_8\n      jumpi\n      jump(tag_1)\n    tag_19:\n      dup1\n      0x1792a6da\n      eq\n      tag_2\n      jumpi\n      dup1\n      0x418b79ab\n      eq\n      tag_3\n      jumpi\n      dup1\n      0x513073b8\n      eq\n      tag_4\n      jumpi\n    tag_1:\n      revert(0x00, 0x00)\n        /* \"Book.sol\":266:301  address payable public libraryAdmin */\n    tag_2:\n      callvalue\n      dup1\n      iszero\n      tag_20\n      jumpi\n      revert(0x00, 0x00)\n    tag_20:\n      pop\n      tag_21\n      tag_22\n      jump\t// in\n    tag_21:\n      mload(0x40)\n      tag_23\n      swap2\n      swap1\n      tag_24\n      jump\t// in\n    tag_23:\n      mload(0x40)\n      dup1\n      swap2\n      sub\n      swap1\n      return\n        /* \"Book.sol\":3372:3529  function getBookById(uint256 _ID)  public view returns (Book memory) {... */\n    tag_3:\n      callvalue\n      dup1\n      iszero\n      tag_25\n      jumpi\n      revert(0x00, 0x00)\n    tag_25:\n      pop\n      tag_26\n      0x04\n      dup1\n      calldatasize\n      sub\n      dup2\n      add\n      swap1\n      tag_27\n      swap2\n      swap1\n      tag_28\n      jump\t// in\n    tag_27:\n      tag_29\n      jump\t// in\n    tag_26:\n      mload(0x40)\n      tag_30\n      swap2\n      swap1\n      tag_31\n      jump\t// in\n    tag_30:\n      mload(0x40)\n      dup1\n      swap2\n      sub\n      swap1\n      return\n        /* \"Book.sol\":1101:1125  uint256[] public bookIds */\n    tag_4:\n      callvalue\n      dup1\n      iszero\n      tag_32\n      jumpi\n      revert(0x00, 0x00)\n    tag_32:\n      pop\n      tag_33\n      0x04\n      dup1\n      calldatasize\n      sub\n      dup2\n      add\n      swap1\n      tag_34\n      swap2\n      swap1\n      tag_28\n      jump\t// in\n    tag_34:\n      tag_35\n      jump\t// in\n    tag_33:\n      mload(0x40)\n      tag_36\n      swap2\n      swap1\n      tag_37\n      jump\t// in\n    tag_36:\n      mload(0x40)\n      dup1\n      swap2\n      sub\n      swap1\n      return\n        /* \"Book.sol\":1131:1168  mapping(uint256 => Book) public books */\n    tag_5:\n      callvalue\n      dup1\n      iszero\n      tag_38\n      jumpi\n      revert(0x00, 0x00)\n    tag_38:\n      pop\n      tag_39\n      0x04\n      dup1\n      calldatasize\n      sub\n      dup2\n      add\n      swap1\n      tag_40\n      swap2\n      swap1\n      tag_28\n      jump\t// in\n    tag_40:\n      tag_41\n      jump\t// in\n    tag_39:\n      mload(0x40)\n      tag_42\n      swap10\n      swap9\n      swap8\n      swap7\n      swap6\n      swap5\n      swap4\n      swap3\n      swap2\n      swap1\n      tag_43\n      jump\t// in\n    tag_42:\n      mload(0x40)\n      dup1\n      swap2\n      sub\n      swap1\n      return\n        /* \"Book.sol\":5043:5997  function buyBook(uint256 _ID) public payable nonReentract {... */\n    tag_6:\n      tag_44\n      0x04\n      dup1\n      calldatasize\n      sub\n      dup2\n      add\n      swap1\n      tag_45\n      swap2\n      swap1\n      tag_28\n      jump\t// in\n    tag_45:\n      tag_46\n      jump\t// in\n    tag_44:\n      stop\n        /* \"Book.sol\":3535:4770  function borrowBook(uint256 _ID) public payable nonReentract {... */\n    tag_7:\n      tag_47\n      0x04\n      dup1\n      calldatasize\n      sub\n      dup2\n      add\n      swap1\n      tag_48\n      swap2\n      swap1\n      tag_28\n      jump\t// in\n    tag_48:\n      tag_49\n      jump\t// in\n    tag_47:\n      stop\n        /* \"Book.sol\":385:418  uint256 public nonMemberBorrowFee */\n    tag_8:\n      callvalue\n      dup1\n      iszero\n      tag_50\n      jumpi\n      revert(0x00, 0x00)\n    tag_50:\n      pop\n      tag_51\n      tag_52\n      jump\t// in\n    tag_51:\n      mload(0x40)\n      tag_53\n      swap2\n      swap1\n      tag_37\n      jump\t// in\n    tag_53:\n      mload(0x40)\n      dup1\n      swap2\n      sub\n      swap1\n      return\n        /* \"Book.sol\":1386:1442  mapping(uint256 => Transaction[]) public purchaseHistory */\n    tag_9:\n      callvalue\n      dup1\n      iszero\n      tag_54\n      jumpi\n      revert(0x00, 0x00)\n    tag_54:\n      pop\n      tag_55\n      0x04\n      dup1\n      calldatasize\n      sub\n      dup2\n      add\n      swap1\n      tag_56\n      swap2\n      swap1\n      tag_57\n      jump\t// in\n    tag_56:\n      tag_58\n      jump\t// in\n    tag_55:\n      mload(0x40)\n      tag_59\n      swap3\n      swap2\n      swap1\n      tag_60\n      jump\t// in\n    tag_59:\n      mload(0x40)\n      dup1\n      swap2\n      sub\n      swap1\n      return\n        /* \"Book.sol\":3107:3366  function getBooks() public view returns (Book[] memory) {... */\n    tag_10:\n      callvalue\n      dup1\n      iszero\n      tag_61\n      jumpi\n      revert(0x00, 0x00)\n    tag_61:\n      pop\n      tag_62\n      tag_63\n      jump\t// in\n    tag_62:\n      mload(0x40)\n      tag_64\n      swap2\n      swap1\n      tag_65\n      jump\t// in\n    tag_64:\n      mload(0x40)\n      dup1\n      swap2\n      sub\n      swap1\n      return\n        /* \"Book.sol\":1284:1340  mapping(uint256 => Transaction[]) public borrowedHistory */\n    tag_11:\n      callvalue\n      dup1\n      iszero\n      tag_66\n      jumpi\n      revert(0x00, 0x00)\n    tag_66:\n      pop\n      tag_67\n      0x04\n      dup1\n      calldatasize\n      sub\n      dup2\n      add\n      swap1\n      tag_68\n      swap2\n      swap1\n      tag_57\n      jump\t// in\n    tag_68:\n      tag_69\n      jump\t// in\n    tag_67:\n      mload(0x40)\n      tag_70\n      swap3\n      swap2\n      swap1\n      tag_60\n      jump\t// in\n    tag_70:\n      mload(0x40)\n      dup1\n      swap2\n      sub\n      swap1\n      return\n        /* \"Book.sol\":1699:2822  function addBook(... */\n    tag_12:\n      callvalue\n      dup1\n      iszero\n      tag_71\n      jumpi\n      revert(0x00, 0x00)\n    tag_71:\n      pop\n      tag_72\n      0x04\n      dup1\n      calldatasize\n      sub\n      dup2\n      add\n      swap1\n      tag_73\n      swap2\n      swap1\n      tag_74\n      jump\t// in\n    tag_73:\n      tag_75\n      jump\t// in\n    tag_72:\n      stop\n        /* \"Book.sol\":192:228  MemberContract public memberContract */\n    tag_13:\n      callvalue\n      dup1\n      iszero\n      tag_76\n      jumpi\n      revert(0x00, 0x00)\n    tag_76:\n      pop\n      tag_77\n      tag_78\n      jump\t// in\n    tag_77:\n      mload(0x40)\n      tag_79\n      swap2\n      swap1\n      tag_80\n      jump\t// in\n    tag_79:\n      mload(0x40)\n      dup1\n      swap2\n      sub\n      swap1\n      return\n        /* \"Book.sol\":4776:5037  function returnBook(uint256 _ID) public {... */\n    tag_14:\n      callvalue\n      dup1\n      iszero\n      tag_81\n      jumpi\n      revert(0x00, 0x00)\n    tag_81:\n      pop\n      tag_82\n      0x04\n      dup1\n      calldatasize\n      sub\n      dup2\n      add\n      swap1\n      tag_83\n      swap2\n      swap1\n      tag_28\n      jump\t// in\n    tag_83:\n      tag_84\n      jump\t// in\n    tag_82:\n      stop\n        /* \"Book.sol\":2828:3100  function restock(uint256 _ID, uint256 _quantity) public onlyLibraryAdmin {... */\n    tag_15:\n      callvalue\n      dup1\n      iszero\n      tag_85\n      jumpi\n      revert(0x00, 0x00)\n    tag_85:\n      pop\n      tag_86\n      0x04\n      dup1\n      calldatasize\n      sub\n      dup2\n      add\n      swap1\n      tag_87\n      swap2\n      swap1\n      tag_57\n      jump\t// in\n    tag_87:\n      tag_88\n      jump\t// in\n    tag_86:\n      stop\n        /* \"Book.sol\":1628:1691  mapping(uint256 => mapping(address => bool)) public isBorrowing */\n    tag_16:\n      callvalue\n      dup1\n      iszero\n      tag_89\n      jumpi\n      revert(0x00, 0x00)\n    tag_89:\n      pop\n      tag_90\n      0x04\n      dup1\n      calldatasize\n      sub\n      dup2\n      add\n      swap1\n      tag_91\n      swap2\n      swap1\n      tag_92\n      jump\t// in\n    tag_91:\n      tag_93\n      jump\t// in\n    tag_90:\n      mload(0x40)\n      tag_94\n      swap2\n      swap1\n      tag_95\n      jump\t// in\n    tag_94:\n      mload(0x40)\n      dup1\n      swap2\n      sub\n      swap1\n      return\n        /* \"Book.sol\":266:301  address payable public libraryAdmin */\n    tag_22:\n      0x03\n      0x00\n      swap1\n      sload\n      swap1\n      0x0100\n      exp\n      swap1\n      div\n      0xffffffffffffffffffffffffffffffffffffffff\n      and\n      dup2\n      jump\t// out\n        /* \"Book.sol\":3372:3529  function getBookById(uint256 _ID)  public view returns (Book memory) {... */\n    tag_29:\n        /* \"Book.sol\":3428:3439  Book memory */\n      tag_96\n      tag_97\n      jump\t// in\n    tag_96:\n        /* \"Book.sol\":3459:3464  books */\n      0x06\n        /* \"Book.sol\":3459:3469  books[_ID] */\n      0x00\n        /* \"Book.sol\":3465:3468  _ID */\n      dup4\n        /* \"Book.sol\":3459:3469  books[_ID] */\n      dup2\n      mstore\n      0x20\n      add\n      swap1\n      dup2\n      mstore\n      0x20\n      add\n      0x00\n      keccak256\n        /* \"Book.sol\":3459:3476  books[_ID].exists */\n      0x07\n      add\n      0x00\n      swap1\n      sload\n      swap1\n      0x0100\n      exp\n      swap1\n      div\n      0xff\n      and\n        /* \"Book.sol\":3451:3495  require(books[_ID].exists, \"Book not found\") */\n      tag_99\n      jumpi\n      mload(0x40)\n      0x08c379a000000000000000000000000000000000000000000000000000000000\n      dup2\n      mstore\n      0x04\n      add\n      tag_100\n      swap1\n      tag_101\n      jump\t// in\n    tag_100:\n      mload(0x40)\n      dup1\n      swap2\n      sub\n      swap1\n      revert\n    tag_99:\n        /* \"Book.sol\":3512:3517  books */\n      0x06\n        /* \"Book.sol\":3512:3522  books[_ID] */\n      0x00\n        /* \"Book.sol\":3518:3521  _ID */\n      dup4\n        /* \"Book.sol\":3512:3522  books[_ID] */\n      dup2\n      mstore\n      0x20\n      add\n      swap1\n      dup2\n      mstore\n      0x20\n      add\n      0x00\n      keccak256\n        /* \"Book.sol\":3505:3522  return books[_ID] */\n      mload(0x40)\n      dup1\n      0x0120\n      add\n      0x40\n      mstore\n      swap1\n      dup2\n      0x00\n      dup3\n      add\n      sload\n      dup2\n      mstore\n      0x20\n      add\n      0x01\n      dup3\n      add\n      dup1\n      sload\n      tag_102\n      swap1\n      tag_103\n      jump\t// in\n    tag_102:\n      dup1\n      0x1f\n      add\n      0x20\n      dup1\n      swap2\n      div\n      mul\n      0x20\n      add\n      mload(0x40)\n      swap1\n      dup2\n      add\n      0x40\n      mstore\n      dup1\n      swap3\n      swap2\n      swap1\n      dup2\n      dup2\n      mstore\n      0x20\n      add\n      dup3\n      dup1\n      sload\n      tag_104\n      swap1\n      tag_103\n      jump\t// in\n    tag_104:\n      dup1\n      iszero\n      tag_105\n      jumpi\n      dup1\n      0x1f\n      lt\n      tag_106\n      jumpi\n      0x0100\n      dup1\n      dup4\n      sload\n      div\n      mul\n      dup4\n      mstore\n      swap2\n      0x20\n      add\n      swap2\n      jump(tag_105)\n    tag_106:\n      dup3\n      add\n      swap2\n      swap1\n      0x00\n      mstore\n      keccak256(0x00, 0x20)\n      swap1\n    tag_107:\n      dup2\n      sload\n      dup2\n      mstore\n      swap1\n      0x01\n      add\n      swap1\n      0x20\n      add\n      dup1\n      dup4\n      gt\n      tag_107\n      jumpi\n      dup3\n      swap1\n      sub\n      0x1f\n      and\n      dup3\n      add\n      swap2\n    tag_105:\n      pop\n      pop\n      pop\n      pop\n      pop\n      dup2\n      mstore\n      0x20\n      add\n      0x02\n      dup3\n      add\n      dup1\n      sload\n      tag_108\n      swap1\n      tag_103\n      jump\t// in\n    tag_108:\n      dup1\n      0x1f\n      add\n      0x20\n      dup1\n      swap2\n      div\n      mul\n      0x20\n      add\n      mload(0x40)\n      swap1\n      dup2\n      add\n      0x40\n      mstore\n      dup1\n      swap3\n      swap2\n      swap1\n      dup2\n      dup2\n      mstore\n      0x20\n      add\n      dup3\n      dup1\n      sload\n      tag_109\n      swap1\n      tag_103\n      jump\t// in\n    tag_109:\n      dup1\n      iszero\n      tag_110\n      jumpi\n      dup1\n      0x1f\n      lt\n      tag_111\n      jumpi\n      0x0100\n      dup1\n      dup4\n      sload\n      div\n      mul\n      dup4\n      mstore\n      swap2\n      0x20\n      add\n      swap2\n      jump(tag_110)\n    tag_111:\n      dup3\n      add\n      swap2\n      swap1\n      0x00\n      mstore\n      keccak256(0x00, 0x20)\n      swap1\n    tag_112:\n      dup2\n      sload\n      dup2\n      mstore\n      swap1\n      0x01\n      add\n      swap1\n      0x20\n      add\n      dup1\n      dup4\n      gt\n      tag_112\n      jumpi\n      dup3\n      swap1\n      sub\n      0x1f\n      and\n      dup3\n      add\n      swap2\n    tag_110:\n      pop\n      pop\n      pop\n      pop\n      pop\n      dup2\n      mstore\n      0x20\n      add\n      0x03\n      dup3\n      add\n      dup1\n      sload\n      tag_113\n      swap1\n      tag_103\n      jump\t// in\n    tag_113:\n      dup1\n      0x1f\n      add\n      0x20\n      dup1\n      swap2\n      div\n      mul\n      0x20\n      add\n      mload(0x40)\n      swap1\n      dup2\n      add\n      0x40\n      mstore\n      dup1\n      swap3\n      swap2\n      swap1\n      dup2\n      dup2\n      mstore\n      0x20\n      add\n      dup3\n      dup1\n      sload\n      tag_114\n      swap1\n      tag_103\n      jump\t// in\n    tag_114:\n      dup1\n      iszero\n      tag_115\n      jumpi\n      dup1\n      0x1f\n      lt\n      tag_116\n      jumpi\n      0x0100\n      dup1\n      dup4\n      sload\n      div\n      mul\n      dup4\n      mstore\n      swap2\n      0x20\n      add\n      swap2\n      jump(tag_115)\n    tag_116:\n      dup3\n      add\n      swap2\n      swap1\n      0x00\n      mstore\n      keccak256(0x00, 0x20)\n      swap1\n    tag_117:\n      dup2\n      sload\n      dup2\n      mstore\n      swap1\n      0x01\n      add\n      swap1\n      0x20\n      add\n      dup1\n      dup4\n      gt\n      tag_117\n      jumpi\n      dup3\n      swap1\n      sub\n      0x1f\n      and\n      dup3\n      add\n      swap2\n    tag_115:\n      pop\n      pop\n      pop\n      pop\n      pop\n      dup2\n      mstore\n      0x20\n      add\n      0x04\n      dup3\n      add\n      sload\n      dup2\n      mstore\n      0x20\n      add\n      0x05\n      dup3\n      add\n      sload\n      dup2\n      mstore\n      0x20\n      add\n      0x06\n      dup3\n      add\n      sload\n      dup2\n      mstore\n      0x20\n      add\n      0x07\n      dup3\n      add\n      0x00\n      swap1\n      sload\n      swap1\n      0x0100\n      exp\n      swap1\n      div\n      0xff\n      and\n      iszero\n      iszero\n      iszero\n      iszero\n      dup2\n      mstore\n      0x20\n      add\n      0x08\n      dup3\n      add\n      sload\n      dup2\n      mstore\n      pop\n      pop\n      swap1\n      pop\n        /* \"Book.sol\":3372:3529  function getBookById(uint256 _ID)  public view returns (Book memory) {... */\n      swap2\n      swap1\n      pop\n      jump\t// out\n        /* \"Book.sol\":1101:1125  uint256[] public bookIds */\n    tag_35:\n      0x05\n      dup2\n      dup2\n      sload\n      dup2\n      lt\n      tag_118\n      jumpi\n      0x00\n      dup1\n      revert\n    tag_118:\n      swap1\n      0x00\n      mstore\n      keccak256(0x00, 0x20)\n      add\n      0x00\n      swap2\n      pop\n      swap1\n      pop\n      sload\n      dup2\n      jump\t// out\n        /* \"Book.sol\":1131:1168  mapping(uint256 => Book) public books */\n    tag_41:\n      mstore(0x20, 0x06)\n      dup1\n      0x00\n      mstore\n      keccak256(0x00, 0x40)\n      0x00\n      swap2\n      pop\n      swap1\n      pop\n      dup1\n      0x00\n      add\n      sload\n      swap1\n      dup1\n      0x01\n      add\n      dup1\n      sload\n      tag_120\n      swap1\n      tag_103\n      jump\t// in\n    tag_120:\n      dup1\n      0x1f\n      add\n      0x20\n      dup1\n      swap2\n      div\n      mul\n      0x20\n      add\n      mload(0x40)\n      swap1\n      dup2\n      add\n      0x40\n      mstore\n      dup1\n      swap3\n      swap2\n      swap1\n      dup2\n      dup2\n      mstore\n      0x20\n      add\n      dup3\n      dup1\n      sload\n      tag_121\n      swap1\n      tag_103\n      jump\t// in\n    tag_121:\n      dup1\n      iszero\n      tag_122\n      jumpi\n      dup1\n      0x1f\n      lt\n      tag_123\n      jumpi\n      0x0100\n      dup1\n      dup4\n      sload\n      div\n      mul\n      dup4\n      mstore\n      swap2\n      0x20\n      add\n      swap2\n      jump(tag_122)\n    tag_123:\n      dup3\n      add\n      swap2\n      swap1\n      0x00\n      mstore\n      keccak256(0x00, 0x20)\n      swap1\n    tag_124:\n      dup2\n      sload\n      dup2\n      mstore\n      swap1\n      0x01\n      add\n      swap1\n      0x20\n      add\n      dup1\n      dup4\n      gt\n      tag_124\n      jumpi\n      dup3\n      swap1\n      sub\n      0x1f\n      and\n      dup3\n      add\n      swap2\n    tag_122:\n      pop\n      pop\n      pop\n      pop\n      pop\n      swap1\n      dup1\n      0x02\n      add\n      dup1\n      sload\n      tag_125\n      swap1\n      tag_103\n      jump\t// in\n    tag_125:\n      dup1\n      0x1f\n      add\n      0x20\n      dup1\n      swap2\n      div\n      mul\n      0x20\n      add\n      mload(0x40)\n      swap1\n      dup2\n      add\n      0x40\n      mstore\n      dup1\n      swap3\n      swap2\n      swap1\n      dup2\n      dup2\n      mstore\n      0x20\n      add\n      dup3\n      dup1\n      sload\n      tag_126\n      swap1\n      tag_103\n      jump\t// in\n    tag_126:\n      dup1\n      iszero\n      tag_127\n      jumpi\n      dup1\n      0x1f\n      lt\n      tag_128\n      jumpi\n      0x0100\n      dup1\n      dup4\n      sload\n      div\n      mul\n      dup4\n      mstore\n      swap2\n      0x20\n      add\n      swap2\n      jump(tag_127)\n    tag_128:\n      dup3\n      add\n      swap2\n      swap1\n      0x00\n      mstore\n      keccak256(0x00, 0x20)\n      swap1\n    tag_129:\n      dup2\n      sload\n      dup2\n      mstore\n      swap1\n      0x01\n      add\n      swap1\n      0x20\n      add\n      dup1\n      dup4\n      gt\n      tag_129\n      jumpi\n      dup3\n      swap1\n      sub\n      0x1f\n      and\n      dup3\n      add\n      swap2\n    tag_127:\n      pop\n      pop\n      pop\n      pop\n      pop\n      swap1\n      dup1\n      0x03\n      add\n      dup1\n      sload\n      tag_130\n      swap1\n      tag_103\n      jump\t// in\n    tag_130:\n      dup1\n      0x1f\n      add\n      0x20\n      dup1\n      swap2\n      div\n      mul\n      0x20\n      add\n      mload(0x40)\n      swap1\n      dup2\n      add\n      0x40\n      mstore\n      dup1\n      swap3\n      swap2\n      swap1\n      dup2\n      dup2\n      mstore\n      0x20\n      add\n      dup3\n      dup1\n      sload\n      tag_131\n      swap1\n      tag_103\n      jump\t// in\n    tag_131:\n      dup1\n      iszero\n      tag_132\n      jumpi\n      dup1\n      0x1f\n      lt\n      tag_133\n      jumpi\n      0x0100\n      dup1\n      dup4\n      sload\n      div\n      mul\n      dup4\n      mstore\n      swap2\n      0x20\n      add\n      swap2\n      jump(tag_132)\n    tag_133:\n      dup3\n      add\n      swap2\n      swap1\n      0x00\n      mstore\n      keccak256(0x00, 0x20)\n      swap1\n    tag_134:\n      dup2\n      sload\n      dup2\n      mstore\n      swap1\n      0x01\n      add\n      swap1\n      0x20\n      add\n      dup1\n      dup4\n      gt\n      tag_134\n      jumpi\n      dup3\n      swap1\n      sub\n      0x1f\n      and\n      dup3\n      add\n      swap2\n    tag_132:\n      pop\n      pop\n      pop\n      pop\n      pop\n      swap1\n      dup1\n      0x04\n      add\n      sload\n      swap1\n      dup1\n      0x05\n      add\n      sload\n      swap1\n      dup1\n      0x06\n      add\n      sload\n      swap1\n      dup1\n      0x07\n      add\n      0x00\n      swap1\n      sload\n      swap1\n      0x0100\n      exp\n      swap1\n      div\n      0xff\n      and\n      swap1\n      dup1\n      0x08\n      add\n      sload\n      swap1\n      pop\n      dup10\n      jump\t// out\n        /* \"Book.sol\":5043:5997  function buyBook(uint256 _ID) public payable nonReentract {... */\n    tag_46:\n        /* \"Book.sol\":6200:6206  locked */\n      0x00\n      0x00\n      swap1\n      sload\n      swap1\n      0x0100\n      exp\n      swap1\n      div\n      0xff\n      and\n        /* \"Book.sol\":6199:6206  !locked */\n      iszero\n        /* \"Book.sol\":6191:6230  require(!locked, \"Reentrancy detected\") */\n      tag_136\n      jumpi\n      mload(0x40)\n      0x08c379a000000000000000000000000000000000000000000000000000000000\n      dup2\n      mstore\n      0x04\n      add\n      tag_137\n      swap1\n      tag_138\n      jump\t// in\n    tag_137:\n      mload(0x40)\n      dup1\n      swap2\n      sub\n      swap1\n      revert\n    tag_136:\n        /* \"Book.sol\":6249:6253  true */\n      0x01\n        /* \"Book.sol\":6240:6246  locked */\n      0x00\n      0x00\n        /* \"Book.sol\":6240:6253  locked = true */\n      0x0100\n      exp\n      dup2\n      sload\n      dup2\n      0xff\n      mul\n      not\n      and\n      swap1\n      dup4\n      iszero\n      iszero\n      mul\n      or\n      swap1\n      sstore\n      pop\n        /* \"Book.sol\":5111:5130  Book storage myBook */\n      0x00\n        /* \"Book.sol\":5133:5138  books */\n      0x06\n        /* \"Book.sol\":5133:5143  books[_ID] */\n      0x00\n        /* \"Book.sol\":5139:5142  _ID */\n      dup4\n        /* \"Book.sol\":5133:5143  books[_ID] */\n      dup2\n      mstore\n      0x20\n      add\n      swap1\n      dup2\n      mstore\n      0x20\n      add\n      0x00\n      keccak256\n        /* \"Book.sol\":5111:5143  Book storage myBook = books[_ID] */\n      swap1\n      pop\n        /* \"Book.sol\":5161:5167  myBook */\n      dup1\n        /* \"Book.sol\":5161:5174  myBook.exists */\n      0x07\n      add\n      0x00\n      swap1\n      sload\n      swap1\n      0x0100\n      exp\n      swap1\n      div\n      0xff\n      and\n        /* \"Book.sol\":5153:5193  require(myBook.exists, \"Book not found\") */\n      tag_140\n      jumpi\n      mload(0x40)\n      0x08c379a000000000000000000000000000000000000000000000000000000000\n      dup2\n      mstore\n      0x04\n      add\n      tag_141\n      swap1\n      tag_101\n      jump\t// in\n    tag_141:\n      mload(0x40)\n      dup1\n      swap2\n      sub\n      swap1\n      revert\n    tag_140:\n        /* \"Book.sol\":5229:5230  0 */\n      0x00\n        /* \"Book.sol\":5211:5217  myBook */\n      dup2\n        /* \"Book.sol\":5211:5226  myBook.quantity */\n      0x04\n      add\n      sload\n        /* \"Book.sol\":5211:5230  myBook.quantity > 0 */\n      gt\n        /* \"Book.sol\":5203:5252  require(myBook.quantity > 0, \"Book out of stock\") */\n      tag_142\n      jumpi\n      mload(0x40)\n      0x08c379a000000000000000000000000000000000000000000000000000000000\n      dup2\n      mstore\n      0x04\n      add\n      tag_143\n      swap1\n      tag_144\n      jump\t// in\n    tag_143:\n      mload(0x40)\n      dup1\n      swap2\n      sub\n      swap1\n      revert\n    tag_142:\n        /* \"Book.sol\":5283:5289  myBook */\n      dup1\n        /* \"Book.sol\":5283:5295  myBook.price */\n      0x05\n      add\n      sload\n        /* \"Book.sol\":5270:5279  msg.value */\n      callvalue\n        /* \"Book.sol\":5270:5295  msg.value >= myBook.price */\n      lt\n      iszero\n        /* \"Book.sol\":5262:5320  require(msg.value >= myBook.price, \"Insufficient payment\") */\n      tag_145\n      jumpi\n      mload(0x40)\n      0x08c379a000000000000000000000000000000000000000000000000000000000\n      dup2\n      mstore\n      0x04\n      add\n      tag_146\n      swap1\n      tag_147\n      jump\t// in\n    tag_146:\n      mload(0x40)\n      dup1\n      swap2\n      sub\n      swap1\n      revert\n    tag_145:\n        /* \"Book.sol\":5373:5374  1 */\n      0x01\n        /* \"Book.sol\":5354:5360  myBook */\n      dup2\n        /* \"Book.sol\":5354:5369  myBook.quantity */\n      0x04\n      add\n      0x00\n        /* \"Book.sol\":5354:5374  myBook.quantity -= 1 */\n      dup3\n      dup3\n      sload\n      tag_148\n      swap2\n      swap1\n      tag_149\n      jump\t// in\n    tag_148:\n      swap3\n      pop\n      pop\n      dup2\n      swap1\n      sstore\n      pop\n        /* \"Book.sol\":5384:5399  purchaseHistory */\n      0x09\n        /* \"Book.sol\":5384:5404  purchaseHistory[_ID] */\n      0x00\n        /* \"Book.sol\":5400:5403  _ID */\n      dup4\n        /* \"Book.sol\":5384:5404  purchaseHistory[_ID] */\n      dup2\n      mstore\n      0x20\n      add\n      swap1\n      dup2\n      mstore\n      0x20\n      add\n      0x00\n      keccak256\n        /* \"Book.sol\":5423:5528  Transaction({... */\n      mload(0x40)\n      dup1\n      0x40\n      add\n      0x40\n      mstore\n      dup1\n        /* \"Book.sol\":5459:5469  msg.sender */\n      caller\n        /* \"Book.sol\":5423:5528  Transaction({... */\n      0xffffffffffffffffffffffffffffffffffffffff\n      and\n      dup2\n      mstore\n      0x20\n      add\n        /* \"Book.sol\":5498:5513  block.timestamp */\n      timestamp\n        /* \"Book.sol\":5423:5528  Transaction({... */\n      dup2\n      mstore\n      pop\n        /* \"Book.sol\":5384:5538  purchaseHistory[_ID].push(... */\n      swap1\n      dup1\n      0x01\n      dup2\n      sload\n      add\n      dup1\n      dup3\n      sstore\n      dup1\n      swap2\n      pop\n      pop\n      0x01\n      swap1\n      sub\n      swap1\n      0x00\n      mstore\n      keccak256(0x00, 0x20)\n      swap1\n      0x02\n      mul\n      add\n      0x00\n      swap1\n      swap2\n      swap1\n      swap2\n      swap1\n      swap2\n      pop\n      0x00\n      dup3\n      add\n      mload\n      dup2\n      0x00\n      add\n      exp(0x0100, 0x00)\n      dup2\n      sload\n      dup2\n      0xffffffffffffffffffffffffffffffffffffffff\n      mul\n      not\n      and\n      swap1\n      dup4\n      0xffffffffffffffffffffffffffffffffffffffff\n      and\n      mul\n      or\n      swap1\n      sstore\n      pop\n      0x20\n      dup3\n      add\n      mload\n      dup2\n      0x01\n      add\n      sstore\n      pop\n      pop\n        /* \"Book.sol\":5615:5624  bool sent */\n      0x00\n        /* \"Book.sol\":5630:5642  libraryAdmin */\n      0x03\n      0x00\n      swap1\n      sload\n      swap1\n      0x0100\n      exp\n      swap1\n      div\n      0xffffffffffffffffffffffffffffffffffffffff\n      and\n        /* \"Book.sol\":5630:5647  libraryAdmin.call */\n      0xffffffffffffffffffffffffffffffffffffffff\n      and\n        /* \"Book.sol\":5655:5664  msg.value */\n      callvalue\n        /* \"Book.sol\":5630:5669  libraryAdmin.call{value: msg.value}(\"\") */\n      mload(0x40)\n      tag_151\n      swap1\n      tag_152\n      jump\t// in\n    tag_151:\n      0x00\n      mload(0x40)\n      dup1\n      dup4\n      sub\n      dup2\n      dup6\n      dup8\n      gas\n      call\n      swap3\n      pop\n      pop\n      pop\n      returndatasize\n      dup1\n      0x00\n      dup2\n      eq\n      tag_155\n      jumpi\n      mload(0x40)\n      swap2\n      pop\n      and(add(returndatasize, 0x3f), not(0x1f))\n      dup3\n      add\n      0x40\n      mstore\n      returndatasize\n      dup3\n      mstore\n      returndatasize\n      0x00\n      0x20\n      dup5\n      add\n      returndatacopy\n      jump(tag_154)\n    tag_155:\n      0x60\n      swap2\n      pop\n    tag_154:\n      pop\n        /* \"Book.sol\":5614:5669  (bool sent, ) = libraryAdmin.call{value: msg.value}(\"\") */\n      pop\n      swap1\n      pop\n        /* \"Book.sol\":5687:5691  sent */\n      dup1\n        /* \"Book.sol\":5679:5725  require(sent, \"Failed to send ETH to library\") */\n      tag_156\n      jumpi\n      mload(0x40)\n      0x08c379a000000000000000000000000000000000000000000000000000000000\n      dup2\n      mstore\n      0x04\n      add\n      tag_157\n      swap1\n      tag_158\n      jump\t// in\n    tag_157:\n      mload(0x40)\n      dup1\n      swap2\n      sub\n      swap1\n      revert\n    tag_156:\n        /* \"Book.sol\":5765:5779  uint256 excess */\n      0x00\n        /* \"Book.sol\":5794:5800  myBook */\n      dup3\n        /* \"Book.sol\":5794:5806  myBook.price */\n      0x05\n      add\n      sload\n        /* \"Book.sol\":5782:5791  msg.value */\n      callvalue\n        /* \"Book.sol\":5782:5806  msg.value - myBook.price */\n      tag_159\n      swap2\n      swap1\n      tag_149\n      jump\t// in\n    tag_159:\n        /* \"Book.sol\":5765:5806  uint256 excess = msg.value - myBook.price */\n      swap1\n      pop\n        /* \"Book.sol\":5829:5830  0 */\n      0x00\n        /* \"Book.sol\":5820:5826  excess */\n      dup2\n        /* \"Book.sol\":5820:5830  excess > 0 */\n      gt\n        /* \"Book.sol\":5816:5982  if (excess > 0) {... */\n      iszero\n      tag_160\n      jumpi\n        /* \"Book.sol\":5847:5860  bool refunded */\n      0x00\n        /* \"Book.sol\":5874:5884  msg.sender */\n      caller\n        /* \"Book.sol\":5866:5890  payable(msg.sender).call */\n      0xffffffffffffffffffffffffffffffffffffffff\n      and\n        /* \"Book.sol\":5898:5904  excess */\n      dup3\n        /* \"Book.sol\":5866:5909  payable(msg.sender).call{value: excess}(\"\") */\n      mload(0x40)\n      tag_161\n      swap1\n      tag_152\n      jump\t// in\n    tag_161:\n      0x00\n      mload(0x40)\n      dup1\n      dup4\n      sub\n      dup2\n      dup6\n      dup8\n      gas\n      call\n      swap3\n      pop\n      pop\n      pop\n      returndatasize\n      dup1\n      0x00\n      dup2\n      eq\n      tag_164\n      jumpi\n      mload(0x40)\n      swap2\n      pop\n      and(add(returndatasize, 0x3f), not(0x1f))\n      dup3\n      add\n      0x40\n      mstore\n      returndatasize\n      dup3\n      mstore\n      returndatasize\n      0x00\n      0x20\n      dup5\n      add\n      returndatacopy\n      jump(tag_163)\n    tag_164:\n      0x60\n      swap2\n      pop\n    tag_163:\n      pop\n        /* \"Book.sol\":5846:5909  (bool refunded, ) = payable(msg.sender).call{value: excess}(\"\") */\n      pop\n      swap1\n      pop\n        /* \"Book.sol\":5931:5939  refunded */\n      dup1\n        /* \"Book.sol\":5923:5971  require(refunded, \"Failed to refund excess ETH\") */\n      tag_165\n      jumpi\n      mload(0x40)\n      0x08c379a000000000000000000000000000000000000000000000000000000000\n      dup2\n      mstore\n      0x04\n      add\n      tag_166\n      swap1\n      tag_167\n      jump\t// in\n    tag_166:\n      mload(0x40)\n      dup1\n      swap2\n      sub\n      swap1\n      revert\n    tag_165:\n        /* \"Book.sol\":5832:5982  {... */\n      pop\n        /* \"Book.sol\":5816:5982  if (excess > 0) {... */\n    tag_160:\n        /* \"Book.sol\":5101:5997  {... */\n      pop\n      pop\n      pop\n        /* \"Book.sol\":6283:6288  false */\n      0x00\n        /* \"Book.sol\":6274:6280  locked */\n      0x00\n      0x00\n        /* \"Book.sol\":6274:6288  locked = false */\n      0x0100\n      exp\n      dup2\n      sload\n      dup2\n      0xff\n      mul\n      not\n      and\n      swap1\n      dup4\n      iszero\n      iszero\n      mul\n      or\n      swap1\n      sstore\n      pop\n        /* \"Book.sol\":5043:5997  function buyBook(uint256 _ID) public payable nonReentract {... */\n      pop\n      jump\t// out\n        /* \"Book.sol\":3535:4770  function borrowBook(uint256 _ID) public payable nonReentract {... */\n    tag_49:\n        /* \"Book.sol\":6200:6206  locked */\n      0x00\n      0x00\n      swap1\n      sload\n      swap1\n      0x0100\n      exp\n      swap1\n      div\n      0xff\n      and\n        /* \"Book.sol\":6199:6206  !locked */\n      iszero\n        /* \"Book.sol\":6191:6230  require(!locked, \"Reentrancy detected\") */\n      tag_169\n      jumpi\n      mload(0x40)\n      0x08c379a000000000000000000000000000000000000000000000000000000000\n      dup2\n      mstore\n      0x04\n      add\n      tag_170\n      swap1\n      tag_138\n      jump\t// in\n    tag_170:\n      mload(0x40)\n      dup1\n      swap2\n      sub\n      swap1\n      revert\n    tag_169:\n        /* \"Book.sol\":6249:6253  true */\n      0x01\n        /* \"Book.sol\":6240:6246  locked */\n      0x00\n      0x00\n        /* \"Book.sol\":6240:6253  locked = true */\n      0x0100\n      exp\n      dup2\n      sload\n      dup2\n      0xff\n      mul\n      not\n      and\n      swap1\n      dup4\n      iszero\n      iszero\n      mul\n      or\n      swap1\n      sstore\n      pop\n        /* \"Book.sol\":3614:3619  books */\n      0x06\n        /* \"Book.sol\":3614:3624  books[_ID] */\n      0x00\n        /* \"Book.sol\":3620:3623  _ID */\n      dup3\n        /* \"Book.sol\":3614:3624  books[_ID] */\n      dup2\n      mstore\n      0x20\n      add\n      swap1\n      dup2\n      mstore\n      0x20\n      add\n      0x00\n      keccak256\n        /* \"Book.sol\":3614:3631  books[_ID].exists */\n      0x07\n      add\n      0x00\n      swap1\n      sload\n      swap1\n      0x0100\n      exp\n      swap1\n      div\n      0xff\n      and\n        /* \"Book.sol\":3606:3651  require(books[_ID].exists, \"Book not found!\") */\n      tag_172\n      jumpi\n      mload(0x40)\n      0x08c379a000000000000000000000000000000000000000000000000000000000\n      dup2\n      mstore\n      0x04\n      add\n      tag_173\n      swap1\n      tag_174\n      jump\t// in\n    tag_173:\n      mload(0x40)\n      dup1\n      swap2\n      sub\n      swap1\n      revert\n    tag_172:\n        /* \"Book.sol\":3691:3692  0 */\n      0x00\n        /* \"Book.sol\":3669:3674  books */\n      0x06\n        /* \"Book.sol\":3669:3679  books[_ID] */\n      0x00\n        /* \"Book.sol\":3675:3678  _ID */\n      dup4\n        /* \"Book.sol\":3669:3679  books[_ID] */\n      dup2\n      mstore\n      0x20\n      add\n      swap1\n      dup2\n      mstore\n      0x20\n      add\n      0x00\n      keccak256\n        /* \"Book.sol\":3669:3688  books[_ID].quantity */\n      0x04\n      add\n      sload\n        /* \"Book.sol\":3669:3692  books[_ID].quantity > 0 */\n      gt\n        /* \"Book.sol\":3661:3716  require(books[_ID].quantity > 0, \"Book not available!\") */\n      tag_175\n      jumpi\n      mload(0x40)\n      0x08c379a000000000000000000000000000000000000000000000000000000000\n      dup2\n      mstore\n      0x04\n      add\n      tag_176\n      swap1\n      tag_177\n      jump\t// in\n    tag_176:\n      mload(0x40)\n      dup1\n      swap2\n      sub\n      swap1\n      revert\n    tag_175:\n        /* \"Book.sol\":3734:3745  isBorrowing */\n      0x0a\n        /* \"Book.sol\":3734:3750  isBorrowing[_ID] */\n      0x00\n        /* \"Book.sol\":3746:3749  _ID */\n      dup3\n        /* \"Book.sol\":3734:3750  isBorrowing[_ID] */\n      dup2\n      mstore\n      0x20\n      add\n      swap1\n      dup2\n      mstore\n      0x20\n      add\n      0x00\n      keccak256\n        /* \"Book.sol\":3734:3762  isBorrowing[_ID][msg.sender] */\n      0x00\n        /* \"Book.sol\":3751:3761  msg.sender */\n      caller\n        /* \"Book.sol\":3734:3762  isBorrowing[_ID][msg.sender] */\n      0xffffffffffffffffffffffffffffffffffffffff\n      and\n      0xffffffffffffffffffffffffffffffffffffffff\n      and\n      dup2\n      mstore\n      0x20\n      add\n      swap1\n      dup2\n      mstore\n      0x20\n      add\n      0x00\n      keccak256\n      0x00\n      swap1\n      sload\n      swap1\n      0x0100\n      exp\n      swap1\n      div\n      0xff\n      and\n        /* \"Book.sol\":3726:3784  require(isBorrowing[_ID][msg.sender], \"Already borrowed!\") */\n      tag_178\n      jumpi\n      mload(0x40)\n      0x08c379a000000000000000000000000000000000000000000000000000000000\n      dup2\n      mstore\n      0x04\n      add\n      tag_179\n      swap1\n      tag_180\n      jump\t// in\n    tag_179:\n      mload(0x40)\n      dup1\n      swap2\n      sub\n      swap1\n      revert\n    tag_178:\n        /* \"Book.sol\":3795:3814  Book storage myBook */\n      0x00\n        /* \"Book.sol\":3817:3822  books */\n      0x06\n        /* \"Book.sol\":3817:3827  books[_ID] */\n      0x00\n        /* \"Book.sol\":3823:3826  _ID */\n      dup4\n        /* \"Book.sol\":3817:3827  books[_ID] */\n      dup2\n      mstore\n      0x20\n      add\n      swap1\n      dup2\n      mstore\n      0x20\n      add\n      0x00\n      keccak256\n        /* \"Book.sol\":3795:3827  Book storage myBook = books[_ID] */\n      swap1\n      pop\n        /* \"Book.sol\":3838:3851  bool isMember */\n      0x00\n        /* \"Book.sol\":3854:3868  memberContract */\n      0x02\n      0x00\n      swap1\n      sload\n      swap1\n      0x0100\n      exp\n      swap1\n      div\n      0xffffffffffffffffffffffffffffffffffffffff\n      and\n        /* \"Book.sol\":3854:3880  memberContract.memberExist */\n      0xffffffffffffffffffffffffffffffffffffffff\n      and\n      0x506b27f0\n        /* \"Book.sol\":3881:3891  msg.sender */\n      caller\n        /* \"Book.sol\":3854:3892  memberContract.memberExist(msg.sender) */\n      mload(0x40)\n      dup3\n      0xffffffff\n      and\n      0xe0\n      shl\n      dup2\n      mstore\n      0x04\n      add\n      tag_181\n      swap2\n      swap1\n      tag_182\n      jump\t// in\n    tag_181:\n      0x20\n      mload(0x40)\n      dup1\n      dup4\n      sub\n      dup2\n      dup7\n      gas\n      staticcall\n      iszero\n      dup1\n      iszero\n      tag_184\n      jumpi\n      returndatacopy(0x00, 0x00, returndatasize)\n      revert(0x00, returndatasize)\n    tag_184:\n      pop\n      pop\n      pop\n      pop\n      mload(0x40)\n      returndatasize\n      not(0x1f)\n      0x1f\n      dup3\n      add\n      and\n      dup3\n      add\n      dup1\n      0x40\n      mstore\n      pop\n      dup2\n      add\n      swap1\n      tag_185\n      swap2\n      swap1\n      tag_186\n      jump\t// in\n    tag_185:\n        /* \"Book.sol\":3838:3892  bool isMember = memberContract.memberExist(msg.sender) */\n      swap1\n      pop\n        /* \"Book.sol\":3902:3925  uint256 requiredPayment */\n      0x00\n        /* \"Book.sol\":3928:3936  isMember */\n      dup2\n        /* \"Book.sol\":3928:4001  isMember... */\n      tag_187\n      jumpi\n        /* \"Book.sol\":3983:4001  nonMemberBorrowFee */\n      sload(0x04)\n        /* \"Book.sol\":3928:4001  isMember... */\n      jump(tag_188)\n    tag_187:\n        /* \"Book.sol\":3951:3957  myBook */\n      dup3\n        /* \"Book.sol\":3951:3967  myBook.borrowFee */\n      0x06\n      add\n      sload\n        /* \"Book.sol\":3928:4001  isMember... */\n    tag_188:\n        /* \"Book.sol\":3902:4001  uint256 requiredPayment = isMember... */\n      swap1\n      pop\n        /* \"Book.sol\":4032:4047  requiredPayment */\n      dup1\n        /* \"Book.sol\":4019:4028  msg.value */\n      callvalue\n        /* \"Book.sol\":4019:4047  msg.value >= requiredPayment */\n      lt\n      iszero\n        /* \"Book.sol\":4011:4071  require(msg.value >= requiredPayment, \"Not enough ETH sent\") */\n      tag_189\n      jumpi\n      mload(0x40)\n      0x08c379a000000000000000000000000000000000000000000000000000000000\n      dup2\n      mstore\n      0x04\n      add\n      tag_190\n      swap1\n      tag_191\n      jump\t// in\n    tag_190:\n      mload(0x40)\n      dup1\n      swap2\n      sub\n      swap1\n      revert\n    tag_189:\n        /* \"Book.sol\":4113:4117  true */\n      0x01\n        /* \"Book.sol\":4082:4093  isBorrowing */\n      0x0a\n        /* \"Book.sol\":4082:4098  isBorrowing[_ID] */\n      0x00\n        /* \"Book.sol\":4094:4097  _ID */\n      dup7\n        /* \"Book.sol\":4082:4098  isBorrowing[_ID] */\n      dup2\n      mstore\n      0x20\n      add\n      swap1\n      dup2\n      mstore\n      0x20\n      add\n      0x00\n      keccak256\n        /* \"Book.sol\":4082:4110  isBorrowing[_ID][msg.sender] */\n      0x00\n        /* \"Book.sol\":4099:4109  msg.sender */\n      caller\n        /* \"Book.sol\":4082:4110  isBorrowing[_ID][msg.sender] */\n      0xffffffffffffffffffffffffffffffffffffffff\n      and\n      0xffffffffffffffffffffffffffffffffffffffff\n      and\n      dup2\n      mstore\n      0x20\n      add\n      swap1\n      dup2\n      mstore\n      0x20\n      add\n      0x00\n      keccak256\n      0x00\n        /* \"Book.sol\":4082:4117  isBorrowing[_ID][msg.sender] = true */\n      0x0100\n      exp\n      dup2\n      sload\n      dup2\n      0xff\n      mul\n      not\n      and\n      swap1\n      dup4\n      iszero\n      iszero\n      mul\n      or\n      swap1\n      sstore\n      pop\n        /* \"Book.sol\":4127:4142  borrowedHistory */\n      0x08\n        /* \"Book.sol\":4127:4147  borrowedHistory[_ID] */\n      0x00\n        /* \"Book.sol\":4143:4146  _ID */\n      dup6\n        /* \"Book.sol\":4127:4147  borrowedHistory[_ID] */\n      dup2\n      mstore\n      0x20\n      add\n      swap1\n      dup2\n      mstore\n      0x20\n      add\n      0x00\n      keccak256\n        /* \"Book.sol\":4166:4271  Transaction({... */\n      mload(0x40)\n      dup1\n      0x40\n      add\n      0x40\n      mstore\n      dup1\n        /* \"Book.sol\":4202:4212  msg.sender */\n      caller\n        /* \"Book.sol\":4166:4271  Transaction({... */\n      0xffffffffffffffffffffffffffffffffffffffff\n      and\n      dup2\n      mstore\n      0x20\n      add\n        /* \"Book.sol\":4241:4256  block.timestamp */\n      timestamp\n        /* \"Book.sol\":4166:4271  Transaction({... */\n      dup2\n      mstore\n      pop\n        /* \"Book.sol\":4127:4281  borrowedHistory[_ID].push(... */\n      swap1\n      dup1\n      0x01\n      dup2\n      sload\n      add\n      dup1\n      dup3\n      sstore\n      dup1\n      swap2\n      pop\n      pop\n      0x01\n      swap1\n      sub\n      swap1\n      0x00\n      mstore\n      keccak256(0x00, 0x20)\n      swap1\n      0x02\n      mul\n      add\n      0x00\n      swap1\n      swap2\n      swap1\n      swap2\n      swap1\n      swap2\n      pop\n      0x00\n      dup3\n      add\n      mload\n      dup2\n      0x00\n      add\n      exp(0x0100, 0x00)\n      dup2\n      sload\n      dup2\n      0xffffffffffffffffffffffffffffffffffffffff\n      mul\n      not\n      and\n      swap1\n      dup4\n      0xffffffffffffffffffffffffffffffffffffffff\n      and\n      mul\n      or\n      swap1\n      sstore\n      pop\n      0x20\n      dup3\n      add\n      mload\n      dup2\n      0x01\n      add\n      sstore\n      pop\n      pop\n        /* \"Book.sol\":4310:4311  1 */\n      0x01\n        /* \"Book.sol\":4291:4297  myBook */\n      dup4\n        /* \"Book.sol\":4291:4306  myBook.quantity */\n      0x04\n      add\n      0x00\n        /* \"Book.sol\":4291:4311  myBook.quantity -= 1 */\n      dup3\n      dup3\n      sload\n      tag_193\n      swap2\n      swap1\n      tag_149\n      jump\t// in\n    tag_193:\n      swap3\n      pop\n      pop\n      dup2\n      swap1\n      sstore\n      pop\n        /* \"Book.sol\":4388:4397  bool sent */\n      0x00\n        /* \"Book.sol\":4403:4415  libraryAdmin */\n      0x03\n      0x00\n      swap1\n      sload\n      swap1\n      0x0100\n      exp\n      swap1\n      div\n      0xffffffffffffffffffffffffffffffffffffffff\n      and\n        /* \"Book.sol\":4403:4420  libraryAdmin.call */\n      0xffffffffffffffffffffffffffffffffffffffff\n      and\n        /* \"Book.sol\":4428:4443  requiredPayment */\n      dup3\n        /* \"Book.sol\":4403:4448  libraryAdmin.call{value: requiredPayment}(\"\") */\n      mload(0x40)\n      tag_194\n      swap1\n      tag_152\n      jump\t// in\n    tag_194:\n      0x00\n      mload(0x40)\n      dup1\n      dup4\n      sub\n      dup2\n      dup6\n      dup8\n      gas\n      call\n      swap3\n      pop\n      pop\n      pop\n      returndatasize\n      dup1\n      0x00\n      dup2\n      eq\n      tag_197\n      jumpi\n      mload(0x40)\n      swap2\n      pop\n      and(add(returndatasize, 0x3f), not(0x1f))\n      dup3\n      add\n      0x40\n      mstore\n      returndatasize\n      dup3\n      mstore\n      returndatasize\n      0x00\n      0x20\n      dup5\n      add\n      returndatacopy\n      jump(tag_196)\n    tag_197:\n      0x60\n      swap2\n      pop\n    tag_196:\n      pop\n        /* \"Book.sol\":4387:4448  (bool sent, ) = libraryAdmin.call{value: requiredPayment}(\"\") */\n      pop\n      swap1\n      pop\n        /* \"Book.sol\":4466:4470  sent */\n      dup1\n        /* \"Book.sol\":4458:4504  require(sent, \"Failed to send ETH to library\") */\n      tag_198\n      jumpi\n      mload(0x40)\n      0x08c379a000000000000000000000000000000000000000000000000000000000\n      dup2\n      mstore\n      0x04\n      add\n      tag_199\n      swap1\n      tag_158\n      jump\t// in\n    tag_199:\n      mload(0x40)\n      dup1\n      swap2\n      sub\n      swap1\n      revert\n    tag_198:\n        /* \"Book.sol\":4544:4558  uint256 excess */\n      0x00\n        /* \"Book.sol\":4573:4588  requiredPayment */\n      dup3\n        /* \"Book.sol\":4561:4570  msg.value */\n      callvalue\n        /* \"Book.sol\":4561:4588  msg.value - requiredPayment */\n      tag_200\n      swap2\n      swap1\n      tag_149\n      jump\t// in\n    tag_200:\n        /* \"Book.sol\":4544:4588  uint256 excess = msg.value - requiredPayment */\n      swap1\n      pop\n        /* \"Book.sol\":4611:4612  0 */\n      0x00\n        /* \"Book.sol\":4602:4608  excess */\n      dup2\n        /* \"Book.sol\":4602:4612  excess > 0 */\n      gt\n        /* \"Book.sol\":4598:4764  if (excess > 0) {... */\n      iszero\n      tag_201\n      jumpi\n        /* \"Book.sol\":4629:4642  bool refunded */\n      0x00\n        /* \"Book.sol\":4656:4666  msg.sender */\n      caller\n        /* \"Book.sol\":4648:4672  payable(msg.sender).call */\n      0xffffffffffffffffffffffffffffffffffffffff\n      and\n        /* \"Book.sol\":4680:4686  excess */\n      dup3\n        /* \"Book.sol\":4648:4691  payable(msg.sender).call{value: excess}(\"\") */\n      mload(0x40)\n      tag_202\n      swap1\n      tag_152\n      jump\t// in\n    tag_202:\n      0x00\n      mload(0x40)\n      dup1\n      dup4\n      sub\n      dup2\n      dup6\n      dup8\n      gas\n      call\n      swap3\n      pop\n      pop\n      pop\n      returndatasize\n      dup1\n      0x00\n      dup2\n      eq\n      tag_205\n      jumpi\n      mload(0x40)\n      swap2\n      pop\n      and(add(returndatasize, 0x3f), not(0x1f))\n      dup3\n      add\n      0x40\n      mstore\n      returndatasize\n      dup3\n      mstore\n      returndatasize\n      0x00\n      0x20\n      dup5\n      add\n      returndatacopy\n      jump(tag_204)\n    tag_205:\n      0x60\n      swap2\n      pop\n    tag_204:\n      pop\n        /* \"Book.sol\":4628:4691  (bool refunded, ) = payable(msg.sender).call{value: excess}(\"\") */\n      pop\n      swap1\n      pop\n        /* \"Book.sol\":4713:4721  refunded */\n      dup1\n        /* \"Book.sol\":4705:4753  require(refunded, \"Failed to refund excess ETH\") */\n      tag_206\n      jumpi\n      mload(0x40)\n      0x08c379a000000000000000000000000000000000000000000000000000000000\n      dup2\n      mstore\n      0x04\n      add\n      tag_207\n      swap1\n      tag_167\n      jump\t// in\n    tag_207:\n      mload(0x40)\n      dup1\n      swap2\n      sub\n      swap1\n      revert\n    tag_206:\n        /* \"Book.sol\":4614:4764  {... */\n      pop\n        /* \"Book.sol\":4598:4764  if (excess > 0) {... */\n    tag_201:\n        /* \"Book.sol\":3596:4770  {... */\n      pop\n      pop\n      pop\n      pop\n      pop\n        /* \"Book.sol\":6283:6288  false */\n      0x00\n        /* \"Book.sol\":6274:6280  locked */\n      0x00\n      0x00\n        /* \"Book.sol\":6274:6288  locked = false */\n      0x0100\n      exp\n      dup2\n      sload\n      dup2\n      0xff\n      mul\n      not\n      and\n      swap1\n      dup4\n      iszero\n      iszero\n      mul\n      or\n      swap1\n      sstore\n      pop\n        /* \"Book.sol\":3535:4770  function borrowBook(uint256 _ID) public payable nonReentract {... */\n      pop\n      jump\t// out\n        /* \"Book.sol\":385:418  uint256 public nonMemberBorrowFee */\n    tag_52:\n      sload(0x04)\n      dup2\n      jump\t// out\n        /* \"Book.sol\":1386:1442  mapping(uint256 => Transaction[]) public purchaseHistory */\n    tag_58:\n      mstore(0x20, 0x09)\n      dup2\n      0x00\n      mstore\n      keccak256(0x00, 0x40)\n      dup2\n      dup2\n      sload\n      dup2\n      lt\n      tag_208\n      jumpi\n      0x00\n      dup1\n      revert\n    tag_208:\n      swap1\n      0x00\n      mstore\n      keccak256(0x00, 0x20)\n      swap1\n      0x02\n      mul\n      add\n      0x00\n      swap2\n      pop\n      swap2\n      pop\n      pop\n      dup1\n      0x00\n      add\n      0x00\n      swap1\n      sload\n      swap1\n      0x0100\n      exp\n      swap1\n      div\n      0xffffffffffffffffffffffffffffffffffffffff\n      and\n      swap1\n      dup1\n      0x01\n      add\n      sload\n      swap1\n      pop\n      dup3\n      jump\t// out\n        /* \"Book.sol\":3107:3366  function getBooks() public view returns (Book[] memory) {... */\n    tag_63:\n        /* \"Book.sol\":3148:3161  Book[] memory */\n      0x60\n        /* \"Book.sol\":3173:3195  Book[] memory allBooks */\n      0x00\n        /* \"Book.sol\":3209:3216  bookIds */\n      0x05\n        /* \"Book.sol\":3209:3223  bookIds.length */\n      dup1\n      sload\n      swap1\n      pop\n        /* \"Book.sol\":3198:3224  new Book[](bookIds.length) */\n      0xffffffffffffffff\n      dup2\n      gt\n      iszero\n      tag_211\n      jumpi\n      tag_212\n      tag_213\n      jump\t// in\n    tag_212:\n    tag_211:\n      mload(0x40)\n      swap1\n      dup1\n      dup3\n      mstore\n      dup1\n      0x20\n      mul\n      0x20\n      add\n      dup3\n      add\n      0x40\n      mstore\n      dup1\n      iszero\n      tag_214\n      jumpi\n      dup2\n      0x20\n      add\n    tag_215:\n      tag_216\n      tag_97\n      jump\t// in\n    tag_216:\n      dup2\n      mstore\n      0x20\n      add\n      swap1\n      0x01\n      swap1\n      sub\n      swap1\n      dup2\n      tag_215\n      jumpi\n      swap1\n      pop\n    tag_214:\n      pop\n        /* \"Book.sol\":3173:3224  Book[] memory allBooks = new Book[](bookIds.length) */\n      swap1\n      pop\n        /* \"Book.sol\":3239:3248  uint256 i */\n      0x00\n        /* \"Book.sol\":3251:3252  0 */\n      0x00\n        /* \"Book.sol\":3239:3252  uint256 i = 0 */\n      swap1\n      pop\n        /* \"Book.sol\":3234:3335  for (uint256 i = 0; i < bookIds.length; i++) {... */\n    tag_217:\n        /* \"Book.sol\":3258:3265  bookIds */\n      0x05\n        /* \"Book.sol\":3258:3272  bookIds.length */\n      dup1\n      sload\n      swap1\n      pop\n        /* \"Book.sol\":3254:3255  i */\n      dup2\n        /* \"Book.sol\":3254:3272  i < bookIds.length */\n      lt\n        /* \"Book.sol\":3234:3335  for (uint256 i = 0; i < bookIds.length; i++) {... */\n      iszero\n      tag_218\n      jumpi\n        /* \"Book.sol\":3307:3312  books */\n      0x06\n        /* \"Book.sol\":3307:3324  books[bookIds[i]] */\n      0x00\n        /* \"Book.sol\":3313:3320  bookIds */\n      0x05\n        /* \"Book.sol\":3321:3322  i */\n      dup4\n        /* \"Book.sol\":3313:3323  bookIds[i] */\n      dup2\n      sload\n      dup2\n      lt\n      tag_220\n      jumpi\n      tag_221\n      tag_222\n      jump\t// in\n    tag_221:\n    tag_220:\n      swap1\n      0x00\n      mstore\n      keccak256(0x00, 0x20)\n      add\n      sload\n        /* \"Book.sol\":3307:3324  books[bookIds[i]] */\n      dup2\n      mstore\n      0x20\n      add\n      swap1\n      dup2\n      mstore\n      0x20\n      add\n      0x00\n      keccak256\n        /* \"Book.sol\":3293:3324  allBooks[i] = books[bookIds[i]] */\n      mload(0x40)\n      dup1\n      0x0120\n      add\n      0x40\n      mstore\n      swap1\n      dup2\n      0x00\n      dup3\n      add\n      sload\n      dup2\n      mstore\n      0x20\n      add\n      0x01\n      dup3\n      add\n      dup1\n      sload\n      tag_224\n      swap1\n      tag_103\n      jump\t// in\n    tag_224:\n      dup1\n      0x1f\n      add\n      0x20\n      dup1\n      swap2\n      div\n      mul\n      0x20\n      add\n      mload(0x40)\n      swap1\n      dup2\n      add\n      0x40\n      mstore\n      dup1\n      swap3\n      swap2\n      swap1\n      dup2\n      dup2\n      mstore\n      0x20\n      add\n      dup3\n      dup1\n      sload\n      tag_225\n      swap1\n      tag_103\n      jump\t// in\n    tag_225:\n      dup1\n      iszero\n      tag_226\n      jumpi\n      dup1\n      0x1f\n      lt\n      tag_227\n      jumpi\n      0x0100\n      dup1\n      dup4\n      sload\n      div\n      mul\n      dup4\n      mstore\n      swap2\n      0x20\n      add\n      swap2\n      jump(tag_226)\n    tag_227:\n      dup3\n      add\n      swap2\n      swap1\n      0x00\n      mstore\n      keccak256(0x00, 0x20)\n      swap1\n    tag_228:\n      dup2\n      sload\n      dup2\n      mstore\n      swap1\n      0x01\n      add\n      swap1\n      0x20\n      add\n      dup1\n      dup4\n      gt\n      tag_228\n      jumpi\n      dup3\n      swap1\n      sub\n      0x1f\n      and\n      dup3\n      add\n      swap2\n    tag_226:\n      pop\n      pop\n      pop\n      pop\n      pop\n      dup2\n      mstore\n      0x20\n      add\n      0x02\n      dup3\n      add\n      dup1\n      sload\n      tag_229\n      swap1\n      tag_103\n      jump\t// in\n    tag_229:\n      dup1\n      0x1f\n      add\n      0x20\n      dup1\n      swap2\n      div\n      mul\n      0x20\n      add\n      mload(0x40)\n      swap1\n      dup2\n      add\n      0x40\n      mstore\n      dup1\n      swap3\n      swap2\n      swap1\n      dup2\n      dup2\n      mstore\n      0x20\n      add\n      dup3\n      dup1\n      sload\n      tag_230\n      swap1\n      tag_103\n      jump\t// in\n    tag_230:\n      dup1\n      iszero\n      tag_231\n      jumpi\n      dup1\n      0x1f\n      lt\n      tag_232\n      jumpi\n      0x0100\n      dup1\n      dup4\n      sload\n      div\n      mul\n      dup4\n      mstore\n      swap2\n      0x20\n      add\n      swap2\n      jump(tag_231)\n    tag_232:\n      dup3\n      add\n      swap2\n      swap1\n      0x00\n      mstore\n      keccak256(0x00, 0x20)\n      swap1\n    tag_233:\n      dup2\n      sload\n      dup2\n      mstore\n      swap1\n      0x01\n      add\n      swap1\n      0x20\n      add\n      dup1\n      dup4\n      gt\n      tag_233\n      jumpi\n      dup3\n      swap1\n      sub\n      0x1f\n      and\n      dup3\n      add\n      swap2\n    tag_231:\n      pop\n      pop\n      pop\n      pop\n      pop\n      dup2\n      mstore\n      0x20\n      add\n      0x03\n      dup3\n      add\n      dup1\n      sload\n      tag_234\n      swap1\n      tag_103\n      jump\t// in\n    tag_234:\n      dup1\n      0x1f\n      add\n      0x20\n      dup1\n      swap2\n      div\n      mul\n      0x20\n      add\n      mload(0x40)\n      swap1\n      dup2\n      add\n      0x40\n      mstore\n      dup1\n      swap3\n      swap2\n      swap1\n      dup2\n      dup2\n      mstore\n      0x20\n      add\n      dup3\n      dup1\n      sload\n      tag_235\n      swap1\n      tag_103\n      jump\t// in\n    tag_235:\n      dup1\n      iszero\n      tag_236\n      jumpi\n      dup1\n      0x1f\n      lt\n      tag_237\n      jumpi\n      0x0100\n      dup1\n      dup4\n      sload\n      div\n      mul\n      dup4\n      mstore\n      swap2\n      0x20\n      add\n      swap2\n      jump(tag_236)\n    tag_237:\n      dup3\n      add\n      swap2\n      swap1\n      0x00\n      mstore\n      keccak256(0x00, 0x20)\n      swap1\n    tag_238:\n      dup2\n      sload\n      dup2\n      mstore\n      swap1\n      0x01\n      add\n      swap1\n      0x20\n      add\n      dup1\n      dup4\n      gt\n      tag_238\n      jumpi\n      dup3\n      swap1\n      sub\n      0x1f\n      and\n      dup3\n      add\n      swap2\n    tag_236:\n      pop\n      pop\n      pop\n      pop\n      pop\n      dup2\n      mstore\n      0x20\n      add\n      0x04\n      dup3\n      add\n      sload\n      dup2\n      mstore\n      0x20\n      add\n      0x05\n      dup3\n      add\n      sload\n      dup2\n      mstore\n      0x20\n      add\n      0x06\n      dup3\n      add\n      sload\n      dup2\n      mstore\n      0x20\n      add\n      0x07\n      dup3\n      add\n      0x00\n      swap1\n      sload\n      swap1\n      0x0100\n      exp\n      swap1\n      div\n      0xff\n      and\n      iszero\n      iszero\n      iszero\n      iszero\n      dup2\n      mstore\n      0x20\n      add\n      0x08\n      dup3\n      add\n      sload\n      dup2\n      mstore\n      pop\n      pop\n        /* \"Book.sol\":3293:3301  allBooks */\n      dup3\n        /* \"Book.sol\":3302:3303  i */\n      dup3\n        /* \"Book.sol\":3293:3304  allBooks[i] */\n      dup2\n      mload\n      dup2\n      lt\n      tag_239\n      jumpi\n      tag_240\n      tag_222\n      jump\t// in\n    tag_240:\n    tag_239:\n      0x20\n      mul\n      0x20\n      add\n      add\n        /* \"Book.sol\":3293:3324  allBooks[i] = books[bookIds[i]] */\n      dup2\n      swap1\n      mstore\n      pop\n        /* \"Book.sol\":3274:3277  i++ */\n      dup1\n      dup1\n      0x01\n      add\n      swap2\n      pop\n      pop\n        /* \"Book.sol\":3234:3335  for (uint256 i = 0; i < bookIds.length; i++) {... */\n      jump(tag_217)\n    tag_218:\n      pop\n        /* \"Book.sol\":3351:3359  allBooks */\n      dup1\n        /* \"Book.sol\":3344:3359  return allBooks */\n      swap2\n      pop\n      pop\n        /* \"Book.sol\":3107:3366  function getBooks() public view returns (Book[] memory) {... */\n      swap1\n      jump\t// out\n        /* \"Book.sol\":1284:1340  mapping(uint256 => Transaction[]) public borrowedHistory */\n    tag_69:\n      mstore(0x20, 0x08)\n      dup2\n      0x00\n      mstore\n      keccak256(0x00, 0x40)\n      dup2\n      dup2\n      sload\n      dup2\n      lt\n      tag_241\n      jumpi\n      0x00\n      dup1\n      revert\n    tag_241:\n      swap1\n      0x00\n      mstore\n      keccak256(0x00, 0x20)\n      swap1\n      0x02\n      mul\n      add\n      0x00\n      swap2\n      pop\n      swap2\n      pop\n      pop\n      dup1\n      0x00\n      add\n      0x00\n      swap1\n      sload\n      swap1\n      0x0100\n      exp\n      swap1\n      div\n      0xffffffffffffffffffffffffffffffffffffffff\n      and\n      swap1\n      dup1\n      0x01\n      add\n      sload\n      swap1\n      pop\n      dup3\n      jump\t// out\n        /* \"Book.sol\":1699:2822  function addBook(... */\n    tag_75:\n        /* \"Book.sol\":6064:6076  libraryAdmin */\n      0x03\n      0x00\n      swap1\n      sload\n      swap1\n      0x0100\n      exp\n      swap1\n      div\n      0xffffffffffffffffffffffffffffffffffffffff\n      and\n        /* \"Book.sol\":6050:6076  msg.sender == libraryAdmin */\n      0xffffffffffffffffffffffffffffffffffffffff\n      and\n        /* \"Book.sol\":6050:6060  msg.sender */\n      caller\n        /* \"Book.sol\":6050:6076  msg.sender == libraryAdmin */\n      0xffffffffffffffffffffffffffffffffffffffff\n      and\n      eq\n        /* \"Book.sol\":6042:6098  require(msg.sender == libraryAdmin, \"Not library admin\") */\n      tag_244\n      jumpi\n      mload(0x40)\n      0x08c379a000000000000000000000000000000000000000000000000000000000\n      dup2\n      mstore\n      0x04\n      add\n      tag_245\n      swap1\n      tag_246\n      jump\t// in\n    tag_245:\n      mload(0x40)\n      dup1\n      swap2\n      sub\n      swap1\n      revert\n    tag_244:\n        /* \"Book.sol\":1956:1957  0 */\n      0x00\n        /* \"Book.sol\":1939:1945  _title */\n      dup7\n        /* \"Book.sol\":1933:1953  bytes(_title).length */\n      mload\n        /* \"Book.sol\":1933:1957  bytes(_title).length > 0 */\n      gt\n        /* \"Book.sol\":1925:1984  require(bytes(_title).length > 0, \"Title cannot be empty!\") */\n      tag_248\n      jumpi\n      mload(0x40)\n      0x08c379a000000000000000000000000000000000000000000000000000000000\n      dup2\n      mstore\n      0x04\n      add\n      tag_249\n      swap1\n      tag_250\n      jump\t// in\n    tag_249:\n      mload(0x40)\n      dup1\n      swap2\n      sub\n      swap1\n      revert\n    tag_248:\n        /* \"Book.sol\":2026:2027  0 */\n      0x00\n        /* \"Book.sol\":2008:2015  _author */\n      dup6\n        /* \"Book.sol\":2002:2023  bytes(_author).length */\n      mload\n        /* \"Book.sol\":2002:2027  bytes(_author).length > 0 */\n      gt\n        /* \"Book.sol\":1994:2055  require(bytes(_author).length > 0, \"Author cannot be empty!\") */\n      tag_251\n      jumpi\n      mload(0x40)\n      0x08c379a000000000000000000000000000000000000000000000000000000000\n      dup2\n      mstore\n      0x04\n      add\n      tag_252\n      swap1\n      tag_253\n      jump\t// in\n    tag_252:\n      mload(0x40)\n      dup1\n      swap2\n      sub\n      swap1\n      revert\n    tag_251:\n        /* \"Book.sol\":2096:2097  0 */\n      0x00\n        /* \"Book.sol\":2079:2085  _genre */\n      dup5\n        /* \"Book.sol\":2073:2093  bytes(_genre).length */\n      mload\n        /* \"Book.sol\":2073:2097  bytes(_genre).length > 0 */\n      gt\n        /* \"Book.sol\":2065:2124  require(bytes(_genre).length > 0, \"Genre cannot be empty!\") */\n      tag_254\n      jumpi\n      mload(0x40)\n      0x08c379a000000000000000000000000000000000000000000000000000000000\n      dup2\n      mstore\n      0x04\n      add\n      tag_255\n      swap1\n      tag_256\n      jump\t// in\n    tag_255:\n      mload(0x40)\n      dup1\n      swap2\n      sub\n      swap1\n      revert\n    tag_254:\n        /* \"Book.sol\":2154:2155  0 */\n      0x00\n        /* \"Book.sol\":2142:2151  _quantity */\n      dup4\n        /* \"Book.sol\":2142:2155  _quantity > 0 */\n      gt\n        /* \"Book.sol\":2134:2191  require(_quantity > 0, \"Quantity must be greater than 0\") */\n      tag_257\n      jumpi\n      mload(0x40)\n      0x08c379a000000000000000000000000000000000000000000000000000000000\n      dup2\n      mstore\n      0x04\n      add\n      tag_258\n      swap1\n      tag_259\n      jump\t// in\n    tag_258:\n      mload(0x40)\n      dup1\n      swap2\n      sub\n      swap1\n      revert\n    tag_257:\n        /* \"Book.sol\":2218:2219  0 */\n      0x00\n        /* \"Book.sol\":2209:2215  _price */\n      dup3\n        /* \"Book.sol\":2209:2219  _price > 0 */\n      gt\n        /* \"Book.sol\":2201:2252  require(_price > 0, \"Price must be greater than 0\") */\n      tag_260\n      jumpi\n      mload(0x40)\n      0x08c379a000000000000000000000000000000000000000000000000000000000\n      dup2\n      mstore\n      0x04\n      add\n      tag_261\n      swap1\n      tag_262\n      jump\t// in\n    tag_261:\n      mload(0x40)\n      dup1\n      swap2\n      sub\n      swap1\n      revert\n    tag_260:\n        /* \"Book.sol\":2283:2284  0 */\n      0x00\n        /* \"Book.sol\":2270:2280  _borrowFee */\n      dup2\n        /* \"Book.sol\":2270:2284  _borrowFee > 0 */\n      gt\n        /* \"Book.sol\":2262:2317  require(_borrowFee > 0, \"Price must be greater than 0\") */\n      tag_263\n      jumpi\n      mload(0x40)\n      0x08c379a000000000000000000000000000000000000000000000000000000000\n      dup2\n      mstore\n      0x04\n      add\n      tag_264\n      swap1\n      tag_262\n      jump\t// in\n    tag_264:\n      mload(0x40)\n      dup1\n      swap2\n      sub\n      swap1\n      revert\n    tag_263:\n        /* \"Book.sol\":2328:2339  bytes32 key */\n      0x00\n        /* \"Book.sol\":2369:2375  _title */\n      dup7\n        /* \"Book.sol\":2377:2384  _author */\n      dup7\n        /* \"Book.sol\":2352:2385  abi.encodePacked(_title, _author) */\n      add(0x20, mload(0x40))\n      tag_265\n      swap3\n      swap2\n      swap1\n      tag_266\n      jump\t// in\n    tag_265:\n      mload(0x40)\n      0x20\n      dup2\n      dup4\n      sub\n      sub\n      dup2\n      mstore\n      swap1\n      0x40\n      mstore\n        /* \"Book.sol\":2342:2386  keccak256(abi.encodePacked(_title, _author)) */\n      dup1\n      mload\n      swap1\n      0x20\n      add\n      keccak256\n        /* \"Book.sol\":2328:2386  bytes32 key = keccak256(abi.encodePacked(_title, _author)) */\n      swap1\n      pop\n        /* \"Book.sol\":2405:2414  bookExist */\n      0x07\n        /* \"Book.sol\":2405:2419  bookExist[key] */\n      0x00\n        /* \"Book.sol\":2415:2418  key */\n      dup3\n        /* \"Book.sol\":2405:2419  bookExist[key] */\n      dup2\n      mstore\n      0x20\n      add\n      swap1\n      dup2\n      mstore\n      0x20\n      add\n      0x00\n      keccak256\n      0x00\n      swap1\n      sload\n      swap1\n      0x0100\n      exp\n      swap1\n      div\n      0xff\n      and\n        /* \"Book.sol\":2404:2419  !bookExist[key] */\n      iszero\n        /* \"Book.sol\":2396:2464  require(!bookExist[key], \"This book by this author already exists!\") */\n      tag_267\n      jumpi\n      mload(0x40)\n      0x08c379a000000000000000000000000000000000000000000000000000000000\n      dup2\n      mstore\n      0x04\n      add\n      tag_268\n      swap1\n      tag_269\n      jump\t// in\n    tag_268:\n      mload(0x40)\n      dup1\n      swap2\n      sub\n      swap1\n      revert\n    tag_267:\n        /* \"Book.sol\":2491:2495  true */\n      0x01\n        /* \"Book.sol\":2474:2483  bookExist */\n      0x07\n        /* \"Book.sol\":2474:2488  bookExist[key] */\n      0x00\n        /* \"Book.sol\":2484:2487  key */\n      dup4\n        /* \"Book.sol\":2474:2488  bookExist[key] */\n      dup2\n      mstore\n      0x20\n      add\n      swap1\n      dup2\n      mstore\n      0x20\n      add\n      0x00\n      keccak256\n      0x00\n        /* \"Book.sol\":2474:2495  bookExist[key] = true */\n      0x0100\n      exp\n      dup2\n      sload\n      dup2\n      0xff\n      mul\n      not\n      and\n      swap1\n      dup4\n      iszero\n      iszero\n      mul\n      or\n      swap1\n      sstore\n      pop\n        /* \"Book.sol\":2521:2522  1 */\n      0x01\n        /* \"Book.sol\":2506:2517  bookCounter */\n      dup1\n      0x00\n        /* \"Book.sol\":2506:2522  bookCounter += 1 */\n      dup3\n      dup3\n      sload\n      tag_270\n      swap2\n      swap1\n      tag_271\n      jump\t// in\n    tag_270:\n      swap3\n      pop\n      pop\n      dup2\n      swap1\n      sstore\n      pop\n        /* \"Book.sol\":2532:2543  uint256 _ID */\n      0x00\n        /* \"Book.sol\":2546:2557  bookCounter */\n      sload(0x01)\n        /* \"Book.sol\":2532:2557  uint256 _ID = bookCounter */\n      swap1\n      pop\n        /* \"Book.sol\":2581:2787  Book(... */\n      mload(0x40)\n      dup1\n      0x0120\n      add\n      0x40\n      mstore\n      dup1\n        /* \"Book.sol\":2599:2602  _ID */\n      dup3\n        /* \"Book.sol\":2581:2787  Book(... */\n      dup2\n      mstore\n      0x20\n      add\n        /* \"Book.sol\":2616:2622  _title */\n      dup10\n        /* \"Book.sol\":2581:2787  Book(... */\n      dup2\n      mstore\n      0x20\n      add\n        /* \"Book.sol\":2636:2643  _author */\n      dup9\n        /* \"Book.sol\":2581:2787  Book(... */\n      dup2\n      mstore\n      0x20\n      add\n        /* \"Book.sol\":2657:2663  _genre */\n      dup8\n        /* \"Book.sol\":2581:2787  Book(... */\n      dup2\n      mstore\n      0x20\n      add\n        /* \"Book.sol\":2677:2686  _quantity */\n      dup7\n        /* \"Book.sol\":2581:2787  Book(... */\n      dup2\n      mstore\n      0x20\n      add\n        /* \"Book.sol\":2700:2706  _price */\n      dup6\n        /* \"Book.sol\":2581:2787  Book(... */\n      dup2\n      mstore\n      0x20\n      add\n        /* \"Book.sol\":2720:2730  _borrowFee */\n      dup5\n        /* \"Book.sol\":2581:2787  Book(... */\n      dup2\n      mstore\n      0x20\n      add\n        /* \"Book.sol\":2744:2748  true */\n      0x01\n        /* \"Book.sol\":2581:2787  Book(... */\n      iszero\n      iszero\n      dup2\n      mstore\n      0x20\n      add\n        /* \"Book.sol\":2762:2777  block.timestamp */\n      timestamp\n        /* \"Book.sol\":2581:2787  Book(... */\n      dup2\n      mstore\n      pop\n        /* \"Book.sol\":2568:2573  books */\n      0x06\n        /* \"Book.sol\":2568:2578  books[_ID] */\n      0x00\n        /* \"Book.sol\":2574:2577  _ID */\n      dup4\n        /* \"Book.sol\":2568:2578  books[_ID] */\n      dup2\n      mstore\n      0x20\n      add\n      swap1\n      dup2\n      mstore\n      0x20\n      add\n      0x00\n      keccak256\n        /* \"Book.sol\":2568:2787  books[_ID] = Book(... */\n      0x00\n      dup3\n      add\n      mload\n      dup2\n      0x00\n      add\n      sstore\n      0x20\n      dup3\n      add\n      mload\n      dup2\n      0x01\n      add\n      swap1\n      dup2\n      tag_272\n      swap2\n      swap1\n      tag_273\n      jump\t// in\n    tag_272:\n      pop\n      0x40\n      dup3\n      add\n      mload\n      dup2\n      0x02\n      add\n      swap1\n      dup2\n      tag_274\n      swap2\n      swap1\n      tag_273\n      jump\t// in\n    tag_274:\n      pop\n      0x60\n      dup3\n      add\n      mload\n      dup2\n      0x03\n      add\n      swap1\n      dup2\n      tag_275\n      swap2\n      swap1\n      tag_273\n      jump\t// in\n    tag_275:\n      pop\n      0x80\n      dup3\n      add\n      mload\n      dup2\n      0x04\n      add\n      sstore\n      0xa0\n      dup3\n      add\n      mload\n      dup2\n      0x05\n      add\n      sstore\n      0xc0\n      dup3\n      add\n      mload\n      dup2\n      0x06\n      add\n      sstore\n      0xe0\n      dup3\n      add\n      mload\n      dup2\n      0x07\n      add\n      exp(0x0100, 0x00)\n      dup2\n      sload\n      dup2\n      0xff\n      mul\n      not\n      and\n      swap1\n      dup4\n      iszero\n      iszero\n      mul\n      or\n      swap1\n      sstore\n      pop\n      0x0100\n      dup3\n      add\n      mload\n      dup2\n      0x08\n      add\n      sstore\n      swap1\n      pop\n      pop\n        /* \"Book.sol\":2798:2805  bookIds */\n      0x05\n        /* \"Book.sol\":2811:2814  _ID */\n      dup2\n        /* \"Book.sol\":2798:2815  bookIds.push(_ID) */\n      swap1\n      dup1\n      0x01\n      dup2\n      sload\n      add\n      dup1\n      dup3\n      sstore\n      dup1\n      swap2\n      pop\n      pop\n      0x01\n      swap1\n      sub\n      swap1\n      0x00\n      mstore\n      keccak256(0x00, 0x20)\n      add\n      0x00\n      swap1\n      swap2\n      swap1\n      swap2\n      swap1\n      swap2\n      pop\n      sstore\n        /* \"Book.sol\":1915:2822  {... */\n      pop\n      pop\n        /* \"Book.sol\":1699:2822  function addBook(... */\n      pop\n      pop\n      pop\n      pop\n      pop\n      pop\n      jump\t// out\n        /* \"Book.sol\":192:228  MemberContract public memberContract */\n    tag_78:\n      0x02\n      0x00\n      swap1\n      sload\n      swap1\n      0x0100\n      exp\n      swap1\n      div\n      0xffffffffffffffffffffffffffffffffffffffff\n      and\n      dup2\n      jump\t// out\n        /* \"Book.sol\":4776:5037  function returnBook(uint256 _ID) public {... */\n    tag_84:\n        /* \"Book.sol\":4834:4839  books */\n      0x06\n        /* \"Book.sol\":4834:4844  books[_ID] */\n      0x00\n        /* \"Book.sol\":4840:4843  _ID */\n      dup3\n        /* \"Book.sol\":4834:4844  books[_ID] */\n      dup2\n      mstore\n      0x20\n      add\n      swap1\n      dup2\n      mstore\n      0x20\n      add\n      0x00\n      keccak256\n        /* \"Book.sol\":4834:4851  books[_ID].exists */\n      0x07\n      add\n      0x00\n      swap1\n      sload\n      swap1\n      0x0100\n      exp\n      swap1\n      div\n      0xff\n      and\n        /* \"Book.sol\":4826:4870  require(books[_ID].exists, \"Book not found\") */\n      tag_278\n      jumpi\n      mload(0x40)\n      0x08c379a000000000000000000000000000000000000000000000000000000000\n      dup2\n      mstore\n      0x04\n      add\n      tag_279\n      swap1\n      tag_101\n      jump\t// in\n    tag_279:\n      mload(0x40)\n      dup1\n      swap2\n      sub\n      swap1\n      revert\n    tag_278:\n        /* \"Book.sol\":4888:4899  isBorrowing */\n      0x0a\n        /* \"Book.sol\":4888:4904  isBorrowing[_ID] */\n      0x00\n        /* \"Book.sol\":4900:4903  _ID */\n      dup3\n        /* \"Book.sol\":4888:4904  isBorrowing[_ID] */\n      dup2\n      mstore\n      0x20\n      add\n      swap1\n      dup2\n      mstore\n      0x20\n      add\n      0x00\n      keccak256\n        /* \"Book.sol\":4888:4916  isBorrowing[_ID][msg.sender] */\n      0x00\n        /* \"Book.sol\":4905:4915  msg.sender */\n      caller\n        /* \"Book.sol\":4888:4916  isBorrowing[_ID][msg.sender] */\n      0xffffffffffffffffffffffffffffffffffffffff\n      and\n      0xffffffffffffffffffffffffffffffffffffffff\n      and\n      dup2\n      mstore\n      0x20\n      add\n      swap1\n      dup2\n      mstore\n      0x20\n      add\n      0x00\n      keccak256\n      0x00\n      swap1\n      sload\n      swap1\n      0x0100\n      exp\n      swap1\n      div\n      0xff\n      and\n        /* \"Book.sol\":4880:4949  require(isBorrowing[_ID][msg.sender], \"You did not borrow this book\") */\n      tag_280\n      jumpi\n      mload(0x40)\n      0x08c379a000000000000000000000000000000000000000000000000000000000\n      dup2\n      mstore\n      0x04\n      add\n      tag_281\n      swap1\n      tag_282\n      jump\t// in\n    tag_281:\n      mload(0x40)\n      dup1\n      swap2\n      sub\n      swap1\n      revert\n    tag_280:\n        /* \"Book.sol\":4991:4996  false */\n      0x00\n        /* \"Book.sol\":4960:4971  isBorrowing */\n      0x0a\n        /* \"Book.sol\":4960:4976  isBorrowing[_ID] */\n      0x00\n        /* \"Book.sol\":4972:4975  _ID */\n      dup4\n        /* \"Book.sol\":4960:4976  isBorrowing[_ID] */\n      dup2\n      mstore\n      0x20\n      add\n      swap1\n      dup2\n      mstore\n      0x20\n      add\n      0x00\n      keccak256\n        /* \"Book.sol\":4960:4988  isBorrowing[_ID][msg.sender] */\n      0x00\n        /* \"Book.sol\":4977:4987  msg.sender */\n      caller\n        /* \"Book.sol\":4960:4988  isBorrowing[_ID][msg.sender] */\n      0xffffffffffffffffffffffffffffffffffffffff\n      and\n      0xffffffffffffffffffffffffffffffffffffffff\n      and\n      dup2\n      mstore\n      0x20\n      add\n      swap1\n      dup2\n      mstore\n      0x20\n      add\n      0x00\n      keccak256\n      0x00\n        /* \"Book.sol\":4960:4996  isBorrowing[_ID][msg.sender] = false */\n      0x0100\n      exp\n      dup2\n      sload\n      dup2\n      0xff\n      mul\n      not\n      and\n      swap1\n      dup4\n      iszero\n      iszero\n      mul\n      or\n      swap1\n      sstore\n      pop\n        /* \"Book.sol\":5029:5030  1 */\n      0x01\n        /* \"Book.sol\":5006:5011  books */\n      0x06\n        /* \"Book.sol\":5006:5016  books[_ID] */\n      0x00\n        /* \"Book.sol\":5012:5015  _ID */\n      dup4\n        /* \"Book.sol\":5006:5016  books[_ID] */\n      dup2\n      mstore\n      0x20\n      add\n      swap1\n      dup2\n      mstore\n      0x20\n      add\n      0x00\n      keccak256\n        /* \"Book.sol\":5006:5025  books[_ID].quantity */\n      0x04\n      add\n      0x00\n        /* \"Book.sol\":5006:5030  books[_ID].quantity += 1 */\n      dup3\n      dup3\n      sload\n      tag_283\n      swap2\n      swap1\n      tag_271\n      jump\t// in\n    tag_283:\n      swap3\n      pop\n      pop\n      dup2\n      swap1\n      sstore\n      pop\n        /* \"Book.sol\":4776:5037  function returnBook(uint256 _ID) public {... */\n      pop\n      jump\t// out\n        /* \"Book.sol\":2828:3100  function restock(uint256 _ID, uint256 _quantity) public onlyLibraryAdmin {... */\n    tag_88:\n        /* \"Book.sol\":6064:6076  libraryAdmin */\n      0x03\n      0x00\n      swap1\n      sload\n      swap1\n      0x0100\n      exp\n      swap1\n      div\n      0xffffffffffffffffffffffffffffffffffffffff\n      and\n        /* \"Book.sol\":6050:6076  msg.sender == libraryAdmin */\n      0xffffffffffffffffffffffffffffffffffffffff\n      and\n        /* \"Book.sol\":6050:6060  msg.sender */\n      caller\n        /* \"Book.sol\":6050:6076  msg.sender == libraryAdmin */\n      0xffffffffffffffffffffffffffffffffffffffff\n      and\n      eq\n        /* \"Book.sol\":6042:6098  require(msg.sender == libraryAdmin, \"Not library admin\") */\n      tag_285\n      jumpi\n      mload(0x40)\n      0x08c379a000000000000000000000000000000000000000000000000000000000\n      dup2\n      mstore\n      0x04\n      add\n      tag_286\n      swap1\n      tag_246\n      jump\t// in\n    tag_286:\n      mload(0x40)\n      dup1\n      swap2\n      sub\n      swap1\n      revert\n    tag_285:\n        /* \"Book.sol\":2931:2932  0 */\n      0x00\n        /* \"Book.sol\":2919:2928  _quantity */\n      dup2\n        /* \"Book.sol\":2919:2932  _quantity > 0 */\n      gt\n        /* \"Book.sol\":2911:2968  require(_quantity > 0, \"Quantity must be greater than 0\") */\n      tag_288\n      jumpi\n      mload(0x40)\n      0x08c379a000000000000000000000000000000000000000000000000000000000\n      dup2\n      mstore\n      0x04\n      add\n      tag_289\n      swap1\n      tag_259\n      jump\t// in\n    tag_289:\n      mload(0x40)\n      dup1\n      swap2\n      sub\n      swap1\n      revert\n    tag_288:\n        /* \"Book.sol\":2979:2996  Book storage book */\n      0x00\n        /* \"Book.sol\":2999:3004  books */\n      0x06\n        /* \"Book.sol\":2999:3009  books[_ID] */\n      0x00\n        /* \"Book.sol\":3005:3008  _ID */\n      dup5\n        /* \"Book.sol\":2999:3009  books[_ID] */\n      dup2\n      mstore\n      0x20\n      add\n      swap1\n      dup2\n      mstore\n      0x20\n      add\n      0x00\n      keccak256\n        /* \"Book.sol\":2979:3009  Book storage book = books[_ID] */\n      swap1\n      pop\n        /* \"Book.sol\":3027:3031  book */\n      dup1\n        /* \"Book.sol\":3027:3038  book.exists */\n      0x07\n      add\n      0x00\n      swap1\n      sload\n      swap1\n      0x0100\n      exp\n      swap1\n      div\n      0xff\n      and\n        /* \"Book.sol\":3019:3057  require(book.exists, \"Book not found\") */\n      tag_290\n      jumpi\n      mload(0x40)\n      0x08c379a000000000000000000000000000000000000000000000000000000000\n      dup2\n      mstore\n      0x04\n      add\n      tag_291\n      swap1\n      tag_101\n      jump\t// in\n    tag_291:\n      mload(0x40)\n      dup1\n      swap2\n      sub\n      swap1\n      revert\n    tag_290:\n        /* \"Book.sol\":3084:3093  _quantity */\n      dup2\n        /* \"Book.sol\":3067:3071  book */\n      dup2\n        /* \"Book.sol\":3067:3080  book.quantity */\n      0x04\n      add\n      0x00\n        /* \"Book.sol\":3067:3093  book.quantity += _quantity */\n      dup3\n      dup3\n      sload\n      tag_292\n      swap2\n      swap1\n      tag_271\n      jump\t// in\n    tag_292:\n      swap3\n      pop\n      pop\n      dup2\n      swap1\n      sstore\n      pop\n        /* \"Book.sol\":2901:3100  {... */\n      pop\n        /* \"Book.sol\":2828:3100  function restock(uint256 _ID, uint256 _quantity) public onlyLibraryAdmin {... */\n      pop\n      pop\n      jump\t// out\n        /* \"Book.sol\":1628:1691  mapping(uint256 => mapping(address => bool)) public isBorrowing */\n    tag_93:\n      mstore(0x20, 0x0a)\n      dup2\n      0x00\n      mstore\n      mstore(0x20, keccak256(0x00, 0x40))\n      dup1\n      0x00\n      mstore\n      keccak256(0x00, 0x40)\n      0x00\n      swap2\n      pop\n      swap2\n      pop\n      swap1\n      sload\n      swap1\n      0x0100\n      exp\n      swap1\n      div\n      0xff\n      and\n      dup2\n      jump\t// out\n    tag_97:\n      mload(0x40)\n      dup1\n      0x0120\n      add\n      0x40\n      mstore\n      dup1\n      0x00\n      dup2\n      mstore\n      0x20\n      add\n      0x60\n      dup2\n      mstore\n      0x20\n      add\n      0x60\n      dup2\n      mstore\n      0x20\n      add\n      0x60\n      dup2\n      mstore\n      0x20\n      add\n      0x00\n      dup2\n      mstore\n      0x20\n      add\n      0x00\n      dup2\n      mstore\n      0x20\n      add\n      0x00\n      dup2\n      mstore\n      0x20\n      add\n      iszero(iszero(0x00))\n      dup2\n      mstore\n      0x20\n      add\n      0x00\n      dup2\n      mstore\n      pop\n      swap1\n      jump\t// out\n        /* \"#utility.yul\":7:133   */\n    tag_293:\n        /* \"#utility.yul\":44:51   */\n      0x00\n        /* \"#utility.yul\":84:126   */\n      0xffffffffffffffffffffffffffffffffffffffff\n        /* \"#utility.yul\":77:82   */\n      dup3\n        /* \"#utility.yul\":73:127   */\n      and\n        /* \"#utility.yul\":62:127   */\n      swap1\n      pop\n        /* \"#utility.yul\":7:133   */\n      swap2\n      swap1\n      pop\n      jump\t// out\n        /* \"#utility.yul\":139:243   */\n    tag_294:\n        /* \"#utility.yul\":184:191   */\n      0x00\n        /* \"#utility.yul\":213:237   */\n      tag_401\n        /* \"#utility.yul\":231:236   */\n      dup3\n        /* \"#utility.yul\":213:237   */\n      tag_293\n      jump\t// in\n    tag_401:\n        /* \"#utility.yul\":202:237   */\n      swap1\n      pop\n        /* \"#utility.yul\":139:243   */\n      swap2\n      swap1\n      pop\n      jump\t// out\n        /* \"#utility.yul\":249:391   */\n    tag_295:\n        /* \"#utility.yul\":352:384   */\n      tag_403\n        /* \"#utility.yul\":378:383   */\n      dup2\n        /* \"#utility.yul\":352:384   */\n      tag_294\n      jump\t// in\n    tag_403:\n        /* \"#utility.yul\":347:350   */\n      dup3\n        /* \"#utility.yul\":340:385   */\n      mstore\n        /* \"#utility.yul\":249:391   */\n      pop\n      pop\n      jump\t// out\n        /* \"#utility.yul\":397:651   */\n    tag_24:\n        /* \"#utility.yul\":506:510   */\n      0x00\n        /* \"#utility.yul\":544:546   */\n      0x20\n        /* \"#utility.yul\":533:542   */\n      dup3\n        /* \"#utility.yul\":529:547   */\n      add\n        /* \"#utility.yul\":521:547   */\n      swap1\n      pop\n        /* \"#utility.yul\":557:644   */\n      tag_405\n        /* \"#utility.yul\":641:642   */\n      0x00\n        /* \"#utility.yul\":630:639   */\n      dup4\n        /* \"#utility.yul\":626:643   */\n      add\n        /* \"#utility.yul\":617:623   */\n      dup5\n        /* \"#utility.yul\":557:644   */\n      tag_295\n      jump\t// in\n    tag_405:\n        /* \"#utility.yul\":397:651   */\n      swap3\n      swap2\n      pop\n      pop\n      jump\t// out\n        /* \"#utility.yul\":657:732   */\n    tag_296:\n        /* \"#utility.yul\":690:696   */\n      0x00\n        /* \"#utility.yul\":723:725   */\n      0x40\n        /* \"#utility.yul\":717:726   */\n      mload\n        /* \"#utility.yul\":707:726   */\n      swap1\n      pop\n        /* \"#utility.yul\":657:732   */\n      swap1\n      jump\t// out\n        /* \"#utility.yul\":738:855   */\n    tag_297:\n        /* \"#utility.yul\":847:848   */\n      0x00\n        /* \"#utility.yul\":844:845   */\n      0x00\n        /* \"#utility.yul\":837:849   */\n      revert\n        /* \"#utility.yul\":861:978   */\n    tag_298:\n        /* \"#utility.yul\":970:971   */\n      0x00\n        /* \"#utility.yul\":967:968   */\n      0x00\n        /* \"#utility.yul\":960:972   */\n      revert\n        /* \"#utility.yul\":984:1061   */\n    tag_299:\n        /* \"#utility.yul\":1021:1028   */\n      0x00\n        /* \"#utility.yul\":1050:1055   */\n      dup2\n        /* \"#utility.yul\":1039:1055   */\n      swap1\n      pop\n        /* \"#utility.yul\":984:1061   */\n      swap2\n      swap1\n      pop\n      jump\t// out\n        /* \"#utility.yul\":1067:1189   */\n    tag_300:\n        /* \"#utility.yul\":1140:1164   */\n      tag_411\n        /* \"#utility.yul\":1158:1163   */\n      dup2\n        /* \"#utility.yul\":1140:1164   */\n      tag_299\n      jump\t// in\n    tag_411:\n        /* \"#utility.yul\":1133:1138   */\n      dup2\n        /* \"#utility.yul\":1130:1165   */\n      eq\n        /* \"#utility.yul\":1120:1183   */\n      tag_412\n      jumpi\n        /* \"#utility.yul\":1179:1180   */\n      0x00\n        /* \"#utility.yul\":1176:1177   */\n      0x00\n        /* \"#utility.yul\":1169:1181   */\n      revert\n        /* \"#utility.yul\":1120:1183   */\n    tag_412:\n        /* \"#utility.yul\":1067:1189   */\n      pop\n      jump\t// out\n        /* \"#utility.yul\":1195:1334   */\n    tag_301:\n        /* \"#utility.yul\":1241:1246   */\n      0x00\n        /* \"#utility.yul\":1279:1285   */\n      dup2\n        /* \"#utility.yul\":1266:1286   */\n      calldataload\n        /* \"#utility.yul\":1257:1286   */\n      swap1\n      pop\n        /* \"#utility.yul\":1295:1328   */\n      tag_414\n        /* \"#utility.yul\":1322:1327   */\n      dup2\n        /* \"#utility.yul\":1295:1328   */\n      tag_300\n      jump\t// in\n    tag_414:\n        /* \"#utility.yul\":1195:1334   */\n      swap3\n      swap2\n      pop\n      pop\n      jump\t// out\n        /* \"#utility.yul\":1340:1669   */\n    tag_28:\n        /* \"#utility.yul\":1399:1405   */\n      0x00\n        /* \"#utility.yul\":1448:1450   */\n      0x20\n        /* \"#utility.yul\":1436:1445   */\n      dup3\n        /* \"#utility.yul\":1427:1434   */\n      dup5\n        /* \"#utility.yul\":1423:1446   */\n      sub\n        /* \"#utility.yul\":1419:1451   */\n      slt\n        /* \"#utility.yul\":1416:1535   */\n      iszero\n      tag_416\n      jumpi\n        /* \"#utility.yul\":1454:1533   */\n      tag_417\n      tag_297\n      jump\t// in\n    tag_417:\n        /* \"#utility.yul\":1416:1535   */\n    tag_416:\n        /* \"#utility.yul\":1574:1575   */\n      0x00\n        /* \"#utility.yul\":1599:1652   */\n      tag_418\n        /* \"#utility.yul\":1644:1651   */\n      dup5\n        /* \"#utility.yul\":1635:1641   */\n      dup3\n        /* \"#utility.yul\":1624:1633   */\n      dup6\n        /* \"#utility.yul\":1620:1642   */\n      add\n        /* \"#utility.yul\":1599:1652   */\n      tag_301\n      jump\t// in\n    tag_418:\n        /* \"#utility.yul\":1589:1652   */\n      swap2\n      pop\n        /* \"#utility.yul\":1545:1662   */\n      pop\n        /* \"#utility.yul\":1340:1669   */\n      swap3\n      swap2\n      pop\n      pop\n      jump\t// out\n        /* \"#utility.yul\":1675:1783   */\n    tag_302:\n        /* \"#utility.yul\":1752:1776   */\n      tag_420\n        /* \"#utility.yul\":1770:1775   */\n      dup2\n        /* \"#utility.yul\":1752:1776   */\n      tag_299\n      jump\t// in\n    tag_420:\n        /* \"#utility.yul\":1747:1750   */\n      dup3\n        /* \"#utility.yul\":1740:1777   */\n      mstore\n        /* \"#utility.yul\":1675:1783   */\n      pop\n      pop\n      jump\t// out\n        /* \"#utility.yul\":1789:1888   */\n    tag_303:\n        /* \"#utility.yul\":1841:1847   */\n      0x00\n        /* \"#utility.yul\":1875:1880   */\n      dup2\n        /* \"#utility.yul\":1869:1881   */\n      mload\n        /* \"#utility.yul\":1859:1881   */\n      swap1\n      pop\n        /* \"#utility.yul\":1789:1888   */\n      swap2\n      swap1\n      pop\n      jump\t// out\n        /* \"#utility.yul\":1894:2053   */\n    tag_304:\n        /* \"#utility.yul\":1968:1979   */\n      0x00\n        /* \"#utility.yul\":2002:2008   */\n      dup3\n        /* \"#utility.yul\":1997:2000   */\n      dup3\n        /* \"#utility.yul\":1990:2009   */\n      mstore\n        /* \"#utility.yul\":2042:2046   */\n      0x20\n        /* \"#utility.yul\":2037:2040   */\n      dup3\n        /* \"#utility.yul\":2033:2047   */\n      add\n        /* \"#utility.yul\":2018:2047   */\n      swap1\n      pop\n        /* \"#utility.yul\":1894:2053   */\n      swap3\n      swap2\n      pop\n      pop\n      jump\t// out\n        /* \"#utility.yul\":2059:2198   */\n    tag_305:\n        /* \"#utility.yul\":2148:2154   */\n      dup3\n        /* \"#utility.yul\":2143:2146   */\n      dup2\n        /* \"#utility.yul\":2138:2141   */\n      dup4\n        /* \"#utility.yul\":2132:2155   */\n      mcopy\n        /* \"#utility.yul\":2189:2190   */\n      0x00\n        /* \"#utility.yul\":2180:2186   */\n      dup4\n        /* \"#utility.yul\":2175:2178   */\n      dup4\n        /* \"#utility.yul\":2171:2187   */\n      add\n        /* \"#utility.yul\":2164:2191   */\n      mstore\n        /* \"#utility.yul\":2059:2198   */\n      pop\n      pop\n      pop\n      jump\t// out\n        /* \"#utility.yul\":2204:2306   */\n    tag_306:\n        /* \"#utility.yul\":2245:2251   */\n      0x00\n        /* \"#utility.yul\":2296:2298   */\n      0x1f\n        /* \"#utility.yul\":2292:2299   */\n      not\n        /* \"#utility.yul\":2287:2289   */\n      0x1f\n        /* \"#utility.yul\":2280:2285   */\n      dup4\n        /* \"#utility.yul\":2276:2290   */\n      add\n        /* \"#utility.yul\":2272:2300   */\n      and\n        /* \"#utility.yul\":2262:2300   */\n      swap1\n      pop\n        /* \"#utility.yul\":2204:2306   */\n      swap2\n      swap1\n      pop\n      jump\t// out\n        /* \"#utility.yul\":2312:2669   */\n    tag_307:\n        /* \"#utility.yul\":2390:2393   */\n      0x00\n        /* \"#utility.yul\":2418:2457   */\n      tag_426\n        /* \"#utility.yul\":2451:2456   */\n      dup3\n        /* \"#utility.yul\":2418:2457   */\n      tag_303\n      jump\t// in\n    tag_426:\n        /* \"#utility.yul\":2473:2534   */\n      tag_427\n        /* \"#utility.yul\":2527:2533   */\n      dup2\n        /* \"#utility.yul\":2522:2525   */\n      dup6\n        /* \"#utility.yul\":2473:2534   */\n      tag_304\n      jump\t// in\n    tag_427:\n        /* \"#utility.yul\":2466:2534   */\n      swap4\n      pop\n        /* \"#utility.yul\":2543:2608   */\n      tag_428\n        /* \"#utility.yul\":2601:2607   */\n      dup2\n        /* \"#utility.yul\":2596:2599   */\n      dup6\n        /* \"#utility.yul\":2589:2593   */\n      0x20\n        /* \"#utility.yul\":2582:2587   */\n      dup7\n        /* \"#utility.yul\":2578:2594   */\n      add\n        /* \"#utility.yul\":2543:2608   */\n      tag_305\n      jump\t// in\n    tag_428:\n        /* \"#utility.yul\":2633:2662   */\n      tag_429\n        /* \"#utility.yul\":2655:2661   */\n      dup2\n        /* \"#utility.yul\":2633:2662   */\n      tag_306\n      jump\t// in\n    tag_429:\n        /* \"#utility.yul\":2628:2631   */\n      dup5\n        /* \"#utility.yul\":2624:2663   */\n      add\n        /* \"#utility.yul\":2617:2663   */\n      swap2\n      pop\n        /* \"#utility.yul\":2394:2669   */\n      pop\n        /* \"#utility.yul\":2312:2669   */\n      swap3\n      swap2\n      pop\n      pop\n      jump\t// out\n        /* \"#utility.yul\":2675:2765   */\n    tag_308:\n        /* \"#utility.yul\":2709:2716   */\n      0x00\n        /* \"#utility.yul\":2752:2757   */\n      dup2\n        /* \"#utility.yul\":2745:2758   */\n      iszero\n        /* \"#utility.yul\":2738:2759   */\n      iszero\n        /* \"#utility.yul\":2727:2759   */\n      swap1\n      pop\n        /* \"#utility.yul\":2675:2765   */\n      swap2\n      swap1\n      pop\n      jump\t// out\n        /* \"#utility.yul\":2771:2870   */\n    tag_309:\n        /* \"#utility.yul\":2842:2863   */\n      tag_432\n        /* \"#utility.yul\":2857:2862   */\n      dup2\n        /* \"#utility.yul\":2842:2863   */\n      tag_308\n      jump\t// in\n    tag_432:\n        /* \"#utility.yul\":2837:2840   */\n      dup3\n        /* \"#utility.yul\":2830:2864   */\n      mstore\n        /* \"#utility.yul\":2771:2870   */\n      pop\n      pop\n      jump\t// out\n        /* \"#utility.yul\":2936:4906   */\n    tag_310:\n        /* \"#utility.yul\":3045:3048   */\n      0x00\n        /* \"#utility.yul\":3081:3087   */\n      0x0120\n        /* \"#utility.yul\":3076:3079   */\n      dup4\n        /* \"#utility.yul\":3072:3088   */\n      add\n        /* \"#utility.yul\":3168:3172   */\n      0x00\n        /* \"#utility.yul\":3161:3166   */\n      dup4\n        /* \"#utility.yul\":3157:3173   */\n      add\n        /* \"#utility.yul\":3151:3174   */\n      mload\n        /* \"#utility.yul\":3187:3250   */\n      tag_434\n        /* \"#utility.yul\":3244:3248   */\n      0x00\n        /* \"#utility.yul\":3239:3242   */\n      dup7\n        /* \"#utility.yul\":3235:3249   */\n      add\n        /* \"#utility.yul\":3221:3233   */\n      dup3\n        /* \"#utility.yul\":3187:3250   */\n      tag_302\n      jump\t// in\n    tag_434:\n        /* \"#utility.yul\":3098:3260   */\n      pop\n        /* \"#utility.yul\":3343:3347   */\n      0x20\n        /* \"#utility.yul\":3336:3341   */\n      dup4\n        /* \"#utility.yul\":3332:3348   */\n      add\n        /* \"#utility.yul\":3326:3349   */\n      mload\n        /* \"#utility.yul\":3396:3399   */\n      dup5\n        /* \"#utility.yul\":3390:3394   */\n      dup3\n        /* \"#utility.yul\":3386:3400   */\n      sub\n        /* \"#utility.yul\":3379:3383   */\n      0x20\n        /* \"#utility.yul\":3374:3377   */\n      dup7\n        /* \"#utility.yul\":3370:3384   */\n      add\n        /* \"#utility.yul\":3363:3401   */\n      mstore\n        /* \"#utility.yul\":3422:3495   */\n      tag_435\n        /* \"#utility.yul\":3490:3494   */\n      dup3\n        /* \"#utility.yul\":3476:3488   */\n      dup3\n        /* \"#utility.yul\":3422:3495   */\n      tag_307\n      jump\t// in\n    tag_435:\n        /* \"#utility.yul\":3414:3495   */\n      swap2\n      pop\n        /* \"#utility.yul\":3270:3506   */\n      pop\n        /* \"#utility.yul\":3590:3594   */\n      0x40\n        /* \"#utility.yul\":3583:3588   */\n      dup4\n        /* \"#utility.yul\":3579:3595   */\n      add\n        /* \"#utility.yul\":3573:3596   */\n      mload\n        /* \"#utility.yul\":3643:3646   */\n      dup5\n        /* \"#utility.yul\":3637:3641   */\n      dup3\n        /* \"#utility.yul\":3633:3647   */\n      sub\n        /* \"#utility.yul\":3626:3630   */\n      0x40\n        /* \"#utility.yul\":3621:3624   */\n      dup7\n        /* \"#utility.yul\":3617:3631   */\n      add\n        /* \"#utility.yul\":3610:3648   */\n      mstore\n        /* \"#utility.yul\":3669:3742   */\n      tag_436\n        /* \"#utility.yul\":3737:3741   */\n      dup3\n        /* \"#utility.yul\":3723:3735   */\n      dup3\n        /* \"#utility.yul\":3669:3742   */\n      tag_307\n      jump\t// in\n    tag_436:\n        /* \"#utility.yul\":3661:3742   */\n      swap2\n      pop\n        /* \"#utility.yul\":3516:3753   */\n      pop\n        /* \"#utility.yul\":3836:3840   */\n      0x60\n        /* \"#utility.yul\":3829:3834   */\n      dup4\n        /* \"#utility.yul\":3825:3841   */\n      add\n        /* \"#utility.yul\":3819:3842   */\n      mload\n        /* \"#utility.yul\":3889:3892   */\n      dup5\n        /* \"#utility.yul\":3883:3887   */\n      dup3\n        /* \"#utility.yul\":3879:3893   */\n      sub\n        /* \"#utility.yul\":3872:3876   */\n      0x60\n        /* \"#utility.yul\":3867:3870   */\n      dup7\n        /* \"#utility.yul\":3863:3877   */\n      add\n        /* \"#utility.yul\":3856:3894   */\n      mstore\n        /* \"#utility.yul\":3915:3988   */\n      tag_437\n        /* \"#utility.yul\":3983:3987   */\n      dup3\n        /* \"#utility.yul\":3969:3981   */\n      dup3\n        /* \"#utility.yul\":3915:3988   */\n      tag_307\n      jump\t// in\n    tag_437:\n        /* \"#utility.yul\":3907:3988   */\n      swap2\n      pop\n        /* \"#utility.yul\":3763:3999   */\n      pop\n        /* \"#utility.yul\":4085:4089   */\n      0x80\n        /* \"#utility.yul\":4078:4083   */\n      dup4\n        /* \"#utility.yul\":4074:4090   */\n      add\n        /* \"#utility.yul\":4068:4091   */\n      mload\n        /* \"#utility.yul\":4104:4167   */\n      tag_438\n        /* \"#utility.yul\":4161:4165   */\n      0x80\n        /* \"#utility.yul\":4156:4159   */\n      dup7\n        /* \"#utility.yul\":4152:4166   */\n      add\n        /* \"#utility.yul\":4138:4150   */\n      dup3\n        /* \"#utility.yul\":4104:4167   */\n      tag_302\n      jump\t// in\n    tag_438:\n        /* \"#utility.yul\":4009:4177   */\n      pop\n        /* \"#utility.yul\":4260:4264   */\n      0xa0\n        /* \"#utility.yul\":4253:4258   */\n      dup4\n        /* \"#utility.yul\":4249:4265   */\n      add\n        /* \"#utility.yul\":4243:4266   */\n      mload\n        /* \"#utility.yul\":4279:4342   */\n      tag_439\n        /* \"#utility.yul\":4336:4340   */\n      0xa0\n        /* \"#utility.yul\":4331:4334   */\n      dup7\n        /* \"#utility.yul\":4327:4341   */\n      add\n        /* \"#utility.yul\":4313:4325   */\n      dup3\n        /* \"#utility.yul\":4279:4342   */\n      tag_302\n      jump\t// in\n    tag_439:\n        /* \"#utility.yul\":4187:4352   */\n      pop\n        /* \"#utility.yul\":4439:4443   */\n      0xc0\n        /* \"#utility.yul\":4432:4437   */\n      dup4\n        /* \"#utility.yul\":4428:4444   */\n      add\n        /* \"#utility.yul\":4422:4445   */\n      mload\n        /* \"#utility.yul\":4458:4521   */\n      tag_440\n        /* \"#utility.yul\":4515:4519   */\n      0xc0\n        /* \"#utility.yul\":4510:4513   */\n      dup7\n        /* \"#utility.yul\":4506:4520   */\n      add\n        /* \"#utility.yul\":4492:4504   */\n      dup3\n        /* \"#utility.yul\":4458:4521   */\n      tag_302\n      jump\t// in\n    tag_440:\n        /* \"#utility.yul\":4362:4531   */\n      pop\n        /* \"#utility.yul\":4615:4619   */\n      0xe0\n        /* \"#utility.yul\":4608:4613   */\n      dup4\n        /* \"#utility.yul\":4604:4620   */\n      add\n        /* \"#utility.yul\":4598:4621   */\n      mload\n        /* \"#utility.yul\":4634:4691   */\n      tag_441\n        /* \"#utility.yul\":4685:4689   */\n      0xe0\n        /* \"#utility.yul\":4680:4683   */\n      dup7\n        /* \"#utility.yul\":4676:4690   */\n      add\n        /* \"#utility.yul\":4662:4674   */\n      dup3\n        /* \"#utility.yul\":4634:4691   */\n      tag_309\n      jump\t// in\n    tag_441:\n        /* \"#utility.yul\":4541:4701   */\n      pop\n        /* \"#utility.yul\":4783:4789   */\n      0x0100\n        /* \"#utility.yul\":4776:4781   */\n      dup4\n        /* \"#utility.yul\":4772:4790   */\n      add\n        /* \"#utility.yul\":4766:4791   */\n      mload\n        /* \"#utility.yul\":4804:4869   */\n      tag_442\n        /* \"#utility.yul\":4861:4867   */\n      0x0100\n        /* \"#utility.yul\":4856:4859   */\n      dup7\n        /* \"#utility.yul\":4852:4868   */\n      add\n        /* \"#utility.yul\":4838:4850   */\n      dup3\n        /* \"#utility.yul\":4804:4869   */\n      tag_302\n      jump\t// in\n    tag_442:\n        /* \"#utility.yul\":4711:4879   */\n      pop\n        /* \"#utility.yul\":4896:4900   */\n      dup1\n        /* \"#utility.yul\":4889:4900   */\n      swap2\n      pop\n        /* \"#utility.yul\":3050:4906   */\n      pop\n        /* \"#utility.yul\":2936:4906   */\n      swap3\n      swap2\n      pop\n      pop\n      jump\t// out\n        /* \"#utility.yul\":4912:5265   */\n    tag_31:\n        /* \"#utility.yul\":5045:5049   */\n      0x00\n        /* \"#utility.yul\":5083:5085   */\n      0x20\n        /* \"#utility.yul\":5072:5081   */\n      dup3\n        /* \"#utility.yul\":5068:5086   */\n      add\n        /* \"#utility.yul\":5060:5086   */\n      swap1\n      pop\n        /* \"#utility.yul\":5132:5141   */\n      dup2\n        /* \"#utility.yul\":5126:5130   */\n      dup2\n        /* \"#utility.yul\":5122:5142   */\n      sub\n        /* \"#utility.yul\":5118:5119   */\n      0x00\n        /* \"#utility.yul\":5107:5116   */\n      dup4\n        /* \"#utility.yul\":5103:5120   */\n      add\n        /* \"#utility.yul\":5096:5143   */\n      mstore\n        /* \"#utility.yul\":5160:5258   */\n      tag_444\n        /* \"#utility.yul\":5253:5257   */\n      dup2\n        /* \"#utility.yul\":5244:5250   */\n      dup5\n        /* \"#utility.yul\":5160:5258   */\n      tag_310\n      jump\t// in\n    tag_444:\n        /* \"#utility.yul\":5152:5258   */\n      swap1\n      pop\n        /* \"#utility.yul\":4912:5265   */\n      swap3\n      swap2\n      pop\n      pop\n      jump\t// out\n        /* \"#utility.yul\":5271:5389   */\n    tag_311:\n        /* \"#utility.yul\":5358:5382   */\n      tag_446\n        /* \"#utility.yul\":5376:5381   */\n      dup2\n        /* \"#utility.yul\":5358:5382   */\n      tag_299\n      jump\t// in\n    tag_446:\n        /* \"#utility.yul\":5353:5356   */\n      dup3\n        /* \"#utility.yul\":5346:5383   */\n      mstore\n        /* \"#utility.yul\":5271:5389   */\n      pop\n      pop\n      jump\t// out\n        /* \"#utility.yul\":5395:5617   */\n    tag_37:\n        /* \"#utility.yul\":5488:5492   */\n      0x00\n        /* \"#utility.yul\":5526:5528   */\n      0x20\n        /* \"#utility.yul\":5515:5524   */\n      dup3\n        /* \"#utility.yul\":5511:5529   */\n      add\n        /* \"#utility.yul\":5503:5529   */\n      swap1\n      pop\n        /* \"#utility.yul\":5539:5610   */\n      tag_448\n        /* \"#utility.yul\":5607:5608   */\n      0x00\n        /* \"#utility.yul\":5596:5605   */\n      dup4\n        /* \"#utility.yul\":5592:5609   */\n      add\n        /* \"#utility.yul\":5583:5589   */\n      dup5\n        /* \"#utility.yul\":5539:5610   */\n      tag_311\n      jump\t// in\n    tag_448:\n        /* \"#utility.yul\":5395:5617   */\n      swap3\n      swap2\n      pop\n      pop\n      jump\t// out\n        /* \"#utility.yul\":5623:5792   */\n    tag_312:\n        /* \"#utility.yul\":5707:5718   */\n      0x00\n        /* \"#utility.yul\":5741:5747   */\n      dup3\n        /* \"#utility.yul\":5736:5739   */\n      dup3\n        /* \"#utility.yul\":5729:5748   */\n      mstore\n        /* \"#utility.yul\":5781:5785   */\n      0x20\n        /* \"#utility.yul\":5776:5779   */\n      dup3\n        /* \"#utility.yul\":5772:5786   */\n      add\n        /* \"#utility.yul\":5757:5786   */\n      swap1\n      pop\n        /* \"#utility.yul\":5623:5792   */\n      swap3\n      swap2\n      pop\n      pop\n      jump\t// out\n        /* \"#utility.yul\":5798:6175   */\n    tag_313:\n        /* \"#utility.yul\":5886:5889   */\n      0x00\n        /* \"#utility.yul\":5914:5953   */\n      tag_451\n        /* \"#utility.yul\":5947:5952   */\n      dup3\n        /* \"#utility.yul\":5914:5953   */\n      tag_303\n      jump\t// in\n    tag_451:\n        /* \"#utility.yul\":5969:6040   */\n      tag_452\n        /* \"#utility.yul\":6033:6039   */\n      dup2\n        /* \"#utility.yul\":6028:6031   */\n      dup6\n        /* \"#utility.yul\":5969:6040   */\n      tag_312\n      jump\t// in\n    tag_452:\n        /* \"#utility.yul\":5962:6040   */\n      swap4\n      pop\n        /* \"#utility.yul\":6049:6114   */\n      tag_453\n        /* \"#utility.yul\":6107:6113   */\n      dup2\n        /* \"#utility.yul\":6102:6105   */\n      dup6\n        /* \"#utility.yul\":6095:6099   */\n      0x20\n        /* \"#utility.yul\":6088:6093   */\n      dup7\n        /* \"#utility.yul\":6084:6100   */\n      add\n        /* \"#utility.yul\":6049:6114   */\n      tag_305\n      jump\t// in\n    tag_453:\n        /* \"#utility.yul\":6139:6168   */\n      tag_454\n        /* \"#utility.yul\":6161:6167   */\n      dup2\n        /* \"#utility.yul\":6139:6168   */\n      tag_306\n      jump\t// in\n    tag_454:\n        /* \"#utility.yul\":6134:6137   */\n      dup5\n        /* \"#utility.yul\":6130:6169   */\n      add\n        /* \"#utility.yul\":6123:6169   */\n      swap2\n      pop\n        /* \"#utility.yul\":5890:6175   */\n      pop\n        /* \"#utility.yul\":5798:6175   */\n      swap3\n      swap2\n      pop\n      pop\n      jump\t// out\n        /* \"#utility.yul\":6181:6290   */\n    tag_314:\n        /* \"#utility.yul\":6262:6283   */\n      tag_456\n        /* \"#utility.yul\":6277:6282   */\n      dup2\n        /* \"#utility.yul\":6262:6283   */\n      tag_308\n      jump\t// in\n    tag_456:\n        /* \"#utility.yul\":6257:6260   */\n      dup3\n        /* \"#utility.yul\":6250:6284   */\n      mstore\n        /* \"#utility.yul\":6181:6290   */\n      pop\n      pop\n      jump\t// out\n        /* \"#utility.yul\":6296:7665   */\n    tag_43:\n        /* \"#utility.yul\":6667:6671   */\n      0x00\n        /* \"#utility.yul\":6705:6708   */\n      0x0120\n        /* \"#utility.yul\":6694:6703   */\n      dup3\n        /* \"#utility.yul\":6690:6709   */\n      add\n        /* \"#utility.yul\":6682:6709   */\n      swap1\n      pop\n        /* \"#utility.yul\":6719:6790   */\n      tag_458\n        /* \"#utility.yul\":6787:6788   */\n      0x00\n        /* \"#utility.yul\":6776:6785   */\n      dup4\n        /* \"#utility.yul\":6772:6789   */\n      add\n        /* \"#utility.yul\":6763:6769   */\n      dup13\n        /* \"#utility.yul\":6719:6790   */\n      tag_311\n      jump\t// in\n    tag_458:\n        /* \"#utility.yul\":6837:6846   */\n      dup2\n        /* \"#utility.yul\":6831:6835   */\n      dup2\n        /* \"#utility.yul\":6827:6847   */\n      sub\n        /* \"#utility.yul\":6822:6824   */\n      0x20\n        /* \"#utility.yul\":6811:6820   */\n      dup4\n        /* \"#utility.yul\":6807:6825   */\n      add\n        /* \"#utility.yul\":6800:6848   */\n      mstore\n        /* \"#utility.yul\":6865:6943   */\n      tag_459\n        /* \"#utility.yul\":6938:6942   */\n      dup2\n        /* \"#utility.yul\":6929:6935   */\n      dup12\n        /* \"#utility.yul\":6865:6943   */\n      tag_313\n      jump\t// in\n    tag_459:\n        /* \"#utility.yul\":6857:6943   */\n      swap1\n      pop\n        /* \"#utility.yul\":6990:6999   */\n      dup2\n        /* \"#utility.yul\":6984:6988   */\n      dup2\n        /* \"#utility.yul\":6980:7000   */\n      sub\n        /* \"#utility.yul\":6975:6977   */\n      0x40\n        /* \"#utility.yul\":6964:6973   */\n      dup4\n        /* \"#utility.yul\":6960:6978   */\n      add\n        /* \"#utility.yul\":6953:7001   */\n      mstore\n        /* \"#utility.yul\":7018:7096   */\n      tag_460\n        /* \"#utility.yul\":7091:7095   */\n      dup2\n        /* \"#utility.yul\":7082:7088   */\n      dup11\n        /* \"#utility.yul\":7018:7096   */\n      tag_313\n      jump\t// in\n    tag_460:\n        /* \"#utility.yul\":7010:7096   */\n      swap1\n      pop\n        /* \"#utility.yul\":7143:7152   */\n      dup2\n        /* \"#utility.yul\":7137:7141   */\n      dup2\n        /* \"#utility.yul\":7133:7153   */\n      sub\n        /* \"#utility.yul\":7128:7130   */\n      0x60\n        /* \"#utility.yul\":7117:7126   */\n      dup4\n        /* \"#utility.yul\":7113:7131   */\n      add\n        /* \"#utility.yul\":7106:7154   */\n      mstore\n        /* \"#utility.yul\":7171:7249   */\n      tag_461\n        /* \"#utility.yul\":7244:7248   */\n      dup2\n        /* \"#utility.yul\":7235:7241   */\n      dup10\n        /* \"#utility.yul\":7171:7249   */\n      tag_313\n      jump\t// in\n    tag_461:\n        /* \"#utility.yul\":7163:7249   */\n      swap1\n      pop\n        /* \"#utility.yul\":7259:7332   */\n      tag_462\n        /* \"#utility.yul\":7327:7330   */\n      0x80\n        /* \"#utility.yul\":7316:7325   */\n      dup4\n        /* \"#utility.yul\":7312:7331   */\n      add\n        /* \"#utility.yul\":7303:7309   */\n      dup9\n        /* \"#utility.yul\":7259:7332   */\n      tag_311\n      jump\t// in\n    tag_462:\n        /* \"#utility.yul\":7342:7415   */\n      tag_463\n        /* \"#utility.yul\":7410:7413   */\n      0xa0\n        /* \"#utility.yul\":7399:7408   */\n      dup4\n        /* \"#utility.yul\":7395:7414   */\n      add\n        /* \"#utility.yul\":7386:7392   */\n      dup8\n        /* \"#utility.yul\":7342:7415   */\n      tag_311\n      jump\t// in\n    tag_463:\n        /* \"#utility.yul\":7425:7498   */\n      tag_464\n        /* \"#utility.yul\":7493:7496   */\n      0xc0\n        /* \"#utility.yul\":7482:7491   */\n      dup4\n        /* \"#utility.yul\":7478:7497   */\n      add\n        /* \"#utility.yul\":7469:7475   */\n      dup7\n        /* \"#utility.yul\":7425:7498   */\n      tag_311\n      jump\t// in\n    tag_464:\n        /* \"#utility.yul\":7508:7575   */\n      tag_465\n        /* \"#utility.yul\":7570:7573   */\n      0xe0\n        /* \"#utility.yul\":7559:7568   */\n      dup4\n        /* \"#utility.yul\":7555:7574   */\n      add\n        /* \"#utility.yul\":7546:7552   */\n      dup6\n        /* \"#utility.yul\":7508:7575   */\n      tag_314\n      jump\t// in\n    tag_465:\n        /* \"#utility.yul\":7585:7658   */\n      tag_466\n        /* \"#utility.yul\":7653:7656   */\n      0x0100\n        /* \"#utility.yul\":7642:7651   */\n      dup4\n        /* \"#utility.yul\":7638:7657   */\n      add\n        /* \"#utility.yul\":7629:7635   */\n      dup5\n        /* \"#utility.yul\":7585:7658   */\n      tag_311\n      jump\t// in\n    tag_466:\n        /* \"#utility.yul\":6296:7665   */\n      swap11\n      swap10\n      pop\n      pop\n      pop\n      pop\n      pop\n      pop\n      pop\n      pop\n      pop\n      pop\n      jump\t// out\n        /* \"#utility.yul\":7671:8145   */\n    tag_57:\n        /* \"#utility.yul\":7739:7745   */\n      0x00\n        /* \"#utility.yul\":7747:7753   */\n      0x00\n        /* \"#utility.yul\":7796:7798   */\n      0x40\n        /* \"#utility.yul\":7784:7793   */\n      dup4\n        /* \"#utility.yul\":7775:7782   */\n      dup6\n        /* \"#utility.yul\":7771:7794   */\n      sub\n        /* \"#utility.yul\":7767:7799   */\n      slt\n        /* \"#utility.yul\":7764:7883   */\n      iszero\n      tag_468\n      jumpi\n        /* \"#utility.yul\":7802:7881   */\n      tag_469\n      tag_297\n      jump\t// in\n    tag_469:\n        /* \"#utility.yul\":7764:7883   */\n    tag_468:\n        /* \"#utility.yul\":7922:7923   */\n      0x00\n        /* \"#utility.yul\":7947:8000   */\n      tag_470\n        /* \"#utility.yul\":7992:7999   */\n      dup6\n        /* \"#utility.yul\":7983:7989   */\n      dup3\n        /* \"#utility.yul\":7972:7981   */\n      dup7\n        /* \"#utility.yul\":7968:7990   */\n      add\n        /* \"#utility.yul\":7947:8000   */\n      tag_301\n      jump\t// in\n    tag_470:\n        /* \"#utility.yul\":7937:8000   */\n      swap3\n      pop\n        /* \"#utility.yul\":7893:8010   */\n      pop\n        /* \"#utility.yul\":8049:8051   */\n      0x20\n        /* \"#utility.yul\":8075:8128   */\n      tag_471\n        /* \"#utility.yul\":8120:8127   */\n      dup6\n        /* \"#utility.yul\":8111:8117   */\n      dup3\n        /* \"#utility.yul\":8100:8109   */\n      dup7\n        /* \"#utility.yul\":8096:8118   */\n      add\n        /* \"#utility.yul\":8075:8128   */\n      tag_301\n      jump\t// in\n    tag_471:\n        /* \"#utility.yul\":8065:8128   */\n      swap2\n      pop\n        /* \"#utility.yul\":8020:8138   */\n      pop\n        /* \"#utility.yul\":7671:8145   */\n      swap3\n      pop\n      swap3\n      swap1\n      pop\n      jump\t// out\n        /* \"#utility.yul\":8151:8247   */\n    tag_315:\n        /* \"#utility.yul\":8188:8195   */\n      0x00\n        /* \"#utility.yul\":8217:8241   */\n      tag_473\n        /* \"#utility.yul\":8235:8240   */\n      dup3\n        /* \"#utility.yul\":8217:8241   */\n      tag_293\n      jump\t// in\n    tag_473:\n        /* \"#utility.yul\":8206:8241   */\n      swap1\n      pop\n        /* \"#utility.yul\":8151:8247   */\n      swap2\n      swap1\n      pop\n      jump\t// out\n        /* \"#utility.yul\":8253:8371   */\n    tag_316:\n        /* \"#utility.yul\":8340:8364   */\n      tag_475\n        /* \"#utility.yul\":8358:8363   */\n      dup2\n        /* \"#utility.yul\":8340:8364   */\n      tag_315\n      jump\t// in\n    tag_475:\n        /* \"#utility.yul\":8335:8338   */\n      dup3\n        /* \"#utility.yul\":8328:8365   */\n      mstore\n        /* \"#utility.yul\":8253:8371   */\n      pop\n      pop\n      jump\t// out\n        /* \"#utility.yul\":8377:8709   */\n    tag_60:\n        /* \"#utility.yul\":8498:8502   */\n      0x00\n        /* \"#utility.yul\":8536:8538   */\n      0x40\n        /* \"#utility.yul\":8525:8534   */\n      dup3\n        /* \"#utility.yul\":8521:8539   */\n      add\n        /* \"#utility.yul\":8513:8539   */\n      swap1\n      pop\n        /* \"#utility.yul\":8549:8620   */\n      tag_477\n        /* \"#utility.yul\":8617:8618   */\n      0x00\n        /* \"#utility.yul\":8606:8615   */\n      dup4\n        /* \"#utility.yul\":8602:8619   */\n      add\n        /* \"#utility.yul\":8593:8599   */\n      dup6\n        /* \"#utility.yul\":8549:8620   */\n      tag_316\n      jump\t// in\n    tag_477:\n        /* \"#utility.yul\":8630:8702   */\n      tag_478\n        /* \"#utility.yul\":8698:8700   */\n      0x20\n        /* \"#utility.yul\":8687:8696   */\n      dup4\n        /* \"#utility.yul\":8683:8701   */\n      add\n        /* \"#utility.yul\":8674:8680   */\n      dup5\n        /* \"#utility.yul\":8630:8702   */\n      tag_311\n      jump\t// in\n    tag_478:\n        /* \"#utility.yul\":8377:8709   */\n      swap4\n      swap3\n      pop\n      pop\n      pop\n      jump\t// out\n        /* \"#utility.yul\":8715:8849   */\n    tag_317:\n        /* \"#utility.yul\":8802:8808   */\n      0x00\n        /* \"#utility.yul\":8836:8841   */\n      dup2\n        /* \"#utility.yul\":8830:8842   */\n      mload\n        /* \"#utility.yul\":8820:8842   */\n      swap1\n      pop\n        /* \"#utility.yul\":8715:8849   */\n      swap2\n      swap1\n      pop\n      jump\t// out\n        /* \"#utility.yul\":8855:9059   */\n    tag_318:\n        /* \"#utility.yul\":8974:8985   */\n      0x00\n        /* \"#utility.yul\":9008:9014   */\n      dup3\n        /* \"#utility.yul\":9003:9006   */\n      dup3\n        /* \"#utility.yul\":8996:9015   */\n      mstore\n        /* \"#utility.yul\":9048:9052   */\n      0x20\n        /* \"#utility.yul\":9043:9046   */\n      dup3\n        /* \"#utility.yul\":9039:9053   */\n      add\n        /* \"#utility.yul\":9024:9053   */\n      swap1\n      pop\n        /* \"#utility.yul\":8855:9059   */\n      swap3\n      swap2\n      pop\n      pop\n      jump\t// out\n        /* \"#utility.yul\":9065:9217   */\n    tag_319:\n        /* \"#utility.yul\":9152:9156   */\n      0x00\n        /* \"#utility.yul\":9175:9178   */\n      dup2\n        /* \"#utility.yul\":9167:9178   */\n      swap1\n      pop\n        /* \"#utility.yul\":9205:9209   */\n      0x20\n        /* \"#utility.yul\":9200:9203   */\n      dup3\n        /* \"#utility.yul\":9196:9210   */\n      add\n        /* \"#utility.yul\":9188:9210   */\n      swap1\n      pop\n        /* \"#utility.yul\":9065:9217   */\n      swap2\n      swap1\n      pop\n      jump\t// out\n        /* \"#utility.yul\":9283:11243   */\n    tag_320:\n        /* \"#utility.yul\":9382:9385   */\n      0x00\n        /* \"#utility.yul\":9418:9424   */\n      0x0120\n        /* \"#utility.yul\":9413:9416   */\n      dup4\n        /* \"#utility.yul\":9409:9425   */\n      add\n        /* \"#utility.yul\":9505:9509   */\n      0x00\n        /* \"#utility.yul\":9498:9503   */\n      dup4\n        /* \"#utility.yul\":9494:9510   */\n      add\n        /* \"#utility.yul\":9488:9511   */\n      mload\n        /* \"#utility.yul\":9524:9587   */\n      tag_483\n        /* \"#utility.yul\":9581:9585   */\n      0x00\n        /* \"#utility.yul\":9576:9579   */\n      dup7\n        /* \"#utility.yul\":9572:9586   */\n      add\n        /* \"#utility.yul\":9558:9570   */\n      dup3\n        /* \"#utility.yul\":9524:9587   */\n      tag_302\n      jump\t// in\n    tag_483:\n        /* \"#utility.yul\":9435:9597   */\n      pop\n        /* \"#utility.yul\":9680:9684   */\n      0x20\n        /* \"#utility.yul\":9673:9678   */\n      dup4\n        /* \"#utility.yul\":9669:9685   */\n      add\n        /* \"#utility.yul\":9663:9686   */\n      mload\n        /* \"#utility.yul\":9733:9736   */\n      dup5\n        /* \"#utility.yul\":9727:9731   */\n      dup3\n        /* \"#utility.yul\":9723:9737   */\n      sub\n        /* \"#utility.yul\":9716:9720   */\n      0x20\n        /* \"#utility.yul\":9711:9714   */\n      dup7\n        /* \"#utility.yul\":9707:9721   */\n      add\n        /* \"#utility.yul\":9700:9738   */\n      mstore\n        /* \"#utility.yul\":9759:9832   */\n      tag_484\n        /* \"#utility.yul\":9827:9831   */\n      dup3\n        /* \"#utility.yul\":9813:9825   */\n      dup3\n        /* \"#utility.yul\":9759:9832   */\n      tag_307\n      jump\t// in\n    tag_484:\n        /* \"#utility.yul\":9751:9832   */\n      swap2\n      pop\n        /* \"#utility.yul\":9607:9843   */\n      pop\n        /* \"#utility.yul\":9927:9931   */\n      0x40\n        /* \"#utility.yul\":9920:9925   */\n      dup4\n        /* \"#utility.yul\":9916:9932   */\n      add\n        /* \"#utility.yul\":9910:9933   */\n      mload\n        /* \"#utility.yul\":9980:9983   */\n      dup5\n        /* \"#utility.yul\":9974:9978   */\n      dup3\n        /* \"#utility.yul\":9970:9984   */\n      sub\n        /* \"#utility.yul\":9963:9967   */\n      0x40\n        /* \"#utility.yul\":9958:9961   */\n      dup7\n        /* \"#utility.yul\":9954:9968   */\n      add\n        /* \"#utility.yul\":9947:9985   */\n      mstore\n        /* \"#utility.yul\":10006:10079   */\n      tag_485\n        /* \"#utility.yul\":10074:10078   */\n      dup3\n        /* \"#utility.yul\":10060:10072   */\n      dup3\n        /* \"#utility.yul\":10006:10079   */\n      tag_307\n      jump\t// in\n    tag_485:\n        /* \"#utility.yul\":9998:10079   */\n      swap2\n      pop\n        /* \"#utility.yul\":9853:10090   */\n      pop\n        /* \"#utility.yul\":10173:10177   */\n      0x60\n        /* \"#utility.yul\":10166:10171   */\n      dup4\n        /* \"#utility.yul\":10162:10178   */\n      add\n        /* \"#utility.yul\":10156:10179   */\n      mload\n        /* \"#utility.yul\":10226:10229   */\n      dup5\n        /* \"#utility.yul\":10220:10224   */\n      dup3\n        /* \"#utility.yul\":10216:10230   */\n      sub\n        /* \"#utility.yul\":10209:10213   */\n      0x60\n        /* \"#utility.yul\":10204:10207   */\n      dup7\n        /* \"#utility.yul\":10200:10214   */\n      add\n        /* \"#utility.yul\":10193:10231   */\n      mstore\n        /* \"#utility.yul\":10252:10325   */\n      tag_486\n        /* \"#utility.yul\":10320:10324   */\n      dup3\n        /* \"#utility.yul\":10306:10318   */\n      dup3\n        /* \"#utility.yul\":10252:10325   */\n      tag_307\n      jump\t// in\n    tag_486:\n        /* \"#utility.yul\":10244:10325   */\n      swap2\n      pop\n        /* \"#utility.yul\":10100:10336   */\n      pop\n        /* \"#utility.yul\":10422:10426   */\n      0x80\n        /* \"#utility.yul\":10415:10420   */\n      dup4\n        /* \"#utility.yul\":10411:10427   */\n      add\n        /* \"#utility.yul\":10405:10428   */\n      mload\n        /* \"#utility.yul\":10441:10504   */\n      tag_487\n        /* \"#utility.yul\":10498:10502   */\n      0x80\n        /* \"#utility.yul\":10493:10496   */\n      dup7\n        /* \"#utility.yul\":10489:10503   */\n      add\n        /* \"#utility.yul\":10475:10487   */\n      dup3\n        /* \"#utility.yul\":10441:10504   */\n      tag_302\n      jump\t// in\n    tag_487:\n        /* \"#utility.yul\":10346:10514   */\n      pop\n        /* \"#utility.yul\":10597:10601   */\n      0xa0\n        /* \"#utility.yul\":10590:10595   */\n      dup4\n        /* \"#utility.yul\":10586:10602   */\n      add\n        /* \"#utility.yul\":10580:10603   */\n      mload\n        /* \"#utility.yul\":10616:10679   */\n      tag_488\n        /* \"#utility.yul\":10673:10677   */\n      0xa0\n        /* \"#utility.yul\":10668:10671   */\n      dup7\n        /* \"#utility.yul\":10664:10678   */\n      add\n        /* \"#utility.yul\":10650:10662   */\n      dup3\n        /* \"#utility.yul\":10616:10679   */\n      tag_302\n      jump\t// in\n    tag_488:\n        /* \"#utility.yul\":10524:10689   */\n      pop\n        /* \"#utility.yul\":10776:10780   */\n      0xc0\n        /* \"#utility.yul\":10769:10774   */\n      dup4\n        /* \"#utility.yul\":10765:10781   */\n      add\n        /* \"#utility.yul\":10759:10782   */\n      mload\n        /* \"#utility.yul\":10795:10858   */\n      tag_489\n        /* \"#utility.yul\":10852:10856   */\n      0xc0\n        /* \"#utility.yul\":10847:10850   */\n      dup7\n        /* \"#utility.yul\":10843:10857   */\n      add\n        /* \"#utility.yul\":10829:10841   */\n      dup3\n        /* \"#utility.yul\":10795:10858   */\n      tag_302\n      jump\t// in\n    tag_489:\n        /* \"#utility.yul\":10699:10868   */\n      pop\n        /* \"#utility.yul\":10952:10956   */\n      0xe0\n        /* \"#utility.yul\":10945:10950   */\n      dup4\n        /* \"#utility.yul\":10941:10957   */\n      add\n        /* \"#utility.yul\":10935:10958   */\n      mload\n        /* \"#utility.yul\":10971:11028   */\n      tag_490\n        /* \"#utility.yul\":11022:11026   */\n      0xe0\n        /* \"#utility.yul\":11017:11020   */\n      dup7\n        /* \"#utility.yul\":11013:11027   */\n      add\n        /* \"#utility.yul\":10999:11011   */\n      dup3\n        /* \"#utility.yul\":10971:11028   */\n      tag_309\n      jump\t// in\n    tag_490:\n        /* \"#utility.yul\":10878:11038   */\n      pop\n        /* \"#utility.yul\":11120:11126   */\n      0x0100\n        /* \"#utility.yul\":11113:11118   */\n      dup4\n        /* \"#utility.yul\":11109:11127   */\n      add\n        /* \"#utility.yul\":11103:11128   */\n      mload\n        /* \"#utility.yul\":11141:11206   */\n      tag_491\n        /* \"#utility.yul\":11198:11204   */\n      0x0100\n        /* \"#utility.yul\":11193:11196   */\n      dup7\n        /* \"#utility.yul\":11189:11205   */\n      add\n        /* \"#utility.yul\":11175:11187   */\n      dup3\n        /* \"#utility.yul\":11141:11206   */\n      tag_302\n      jump\t// in\n    tag_491:\n        /* \"#utility.yul\":11048:11216   */\n      pop\n        /* \"#utility.yul\":11233:11237   */\n      dup1\n        /* \"#utility.yul\":11226:11237   */\n      swap2\n      pop\n        /* \"#utility.yul\":9387:11243   */\n      pop\n        /* \"#utility.yul\":9283:11243   */\n      swap3\n      swap2\n      pop\n      pop\n      jump\t// out\n        /* \"#utility.yul\":11249:11485   */\n    tag_321:\n        /* \"#utility.yul\":11358:11368   */\n      0x00\n        /* \"#utility.yul\":11393:11479   */\n      tag_493\n        /* \"#utility.yul\":11475:11478   */\n      dup4\n        /* \"#utility.yul\":11467:11473   */\n      dup4\n        /* \"#utility.yul\":11393:11479   */\n      tag_320\n      jump\t// in\n    tag_493:\n        /* \"#utility.yul\":11379:11479   */\n      swap1\n      pop\n        /* \"#utility.yul\":11249:11485   */\n      swap3\n      swap2\n      pop\n      pop\n      jump\t// out\n        /* \"#utility.yul\":11491:11624   */\n    tag_322:\n        /* \"#utility.yul\":11581:11585   */\n      0x00\n        /* \"#utility.yul\":11613:11617   */\n      0x20\n        /* \"#utility.yul\":11608:11611   */\n      dup3\n        /* \"#utility.yul\":11604:11618   */\n      add\n        /* \"#utility.yul\":11596:11618   */\n      swap1\n      pop\n        /* \"#utility.yul\":11491:11624   */\n      swap2\n      swap1\n      pop\n      jump\t// out\n        /* \"#utility.yul\":11694:12765   */\n    tag_323:\n        /* \"#utility.yul\":11853:11856   */\n      0x00\n        /* \"#utility.yul\":11882:11956   */\n      tag_496\n        /* \"#utility.yul\":11950:11955   */\n      dup3\n        /* \"#utility.yul\":11882:11956   */\n      tag_317\n      jump\t// in\n    tag_496:\n        /* \"#utility.yul\":11972:12078   */\n      tag_497\n        /* \"#utility.yul\":12071:12077   */\n      dup2\n        /* \"#utility.yul\":12066:12069   */\n      dup6\n        /* \"#utility.yul\":11972:12078   */\n      tag_318\n      jump\t// in\n    tag_497:\n        /* \"#utility.yul\":11965:12078   */\n      swap4\n      pop\n        /* \"#utility.yul\":12104:12107   */\n      dup4\n        /* \"#utility.yul\":12149:12153   */\n      0x20\n        /* \"#utility.yul\":12141:12147   */\n      dup3\n        /* \"#utility.yul\":12137:12154   */\n      mul\n        /* \"#utility.yul\":12132:12135   */\n      dup6\n        /* \"#utility.yul\":12128:12155   */\n      add\n        /* \"#utility.yul\":12179:12255   */\n      tag_498\n        /* \"#utility.yul\":12249:12254   */\n      dup6\n        /* \"#utility.yul\":12179:12255   */\n      tag_319\n      jump\t// in\n    tag_498:\n        /* \"#utility.yul\":12278:12285   */\n      dup1\n        /* \"#utility.yul\":12309:12310   */\n      0x00\n        /* \"#utility.yul\":12294:12720   */\n    tag_499:\n        /* \"#utility.yul\":12319:12325   */\n      dup6\n        /* \"#utility.yul\":12316:12317   */\n      dup2\n        /* \"#utility.yul\":12313:12326   */\n      lt\n        /* \"#utility.yul\":12294:12720   */\n      iszero\n      tag_501\n      jumpi\n        /* \"#utility.yul\":12390:12399   */\n      dup5\n        /* \"#utility.yul\":12384:12388   */\n      dup5\n        /* \"#utility.yul\":12380:12400   */\n      sub\n        /* \"#utility.yul\":12375:12378   */\n      dup10\n        /* \"#utility.yul\":12368:12401   */\n      mstore\n        /* \"#utility.yul\":12441:12447   */\n      dup2\n        /* \"#utility.yul\":12435:12448   */\n      mload\n        /* \"#utility.yul\":12469:12573   */\n      tag_502\n        /* \"#utility.yul\":12568:12572   */\n      dup6\n        /* \"#utility.yul\":12553:12566   */\n      dup3\n        /* \"#utility.yul\":12469:12573   */\n      tag_321\n      jump\t// in\n    tag_502:\n        /* \"#utility.yul\":12461:12573   */\n      swap5\n      pop\n        /* \"#utility.yul\":12596:12676   */\n      tag_503\n        /* \"#utility.yul\":12669:12675   */\n      dup4\n        /* \"#utility.yul\":12596:12676   */\n      tag_322\n      jump\t// in\n    tag_503:\n        /* \"#utility.yul\":12586:12676   */\n      swap3\n      pop\n        /* \"#utility.yul\":12705:12709   */\n      0x20\n        /* \"#utility.yul\":12700:12703   */\n      dup11\n        /* \"#utility.yul\":12696:12710   */\n      add\n        /* \"#utility.yul\":12689:12710   */\n      swap10\n      pop\n        /* \"#utility.yul\":12354:12720   */\n      pop\n        /* \"#utility.yul\":12341:12342   */\n      0x01\n        /* \"#utility.yul\":12338:12339   */\n      dup2\n        /* \"#utility.yul\":12334:12343   */\n      add\n        /* \"#utility.yul\":12329:12343   */\n      swap1\n      pop\n        /* \"#utility.yul\":12294:12720   */\n      jump(tag_499)\n    tag_501:\n        /* \"#utility.yul\":12298:12312   */\n      pop\n        /* \"#utility.yul\":12736:12740   */\n      dup3\n        /* \"#utility.yul\":12729:12740   */\n      swap8\n      pop\n        /* \"#utility.yul\":12756:12759   */\n      dup8\n        /* \"#utility.yul\":12749:12759   */\n      swap6\n      pop\n        /* \"#utility.yul\":11858:12765   */\n      pop\n      pop\n      pop\n      pop\n      pop\n        /* \"#utility.yul\":11694:12765   */\n      swap3\n      swap2\n      pop\n      pop\n      jump\t// out\n        /* \"#utility.yul\":12771:13224   */\n    tag_65:\n        /* \"#utility.yul\":12954:12958   */\n      0x00\n        /* \"#utility.yul\":12992:12994   */\n      0x20\n        /* \"#utility.yul\":12981:12990   */\n      dup3\n        /* \"#utility.yul\":12977:12995   */\n      add\n        /* \"#utility.yul\":12969:12995   */\n      swap1\n      pop\n        /* \"#utility.yul\":13041:13050   */\n      dup2\n        /* \"#utility.yul\":13035:13039   */\n      dup2\n        /* \"#utility.yul\":13031:13051   */\n      sub\n        /* \"#utility.yul\":13027:13028   */\n      0x00\n        /* \"#utility.yul\":13016:13025   */\n      dup4\n        /* \"#utility.yul\":13012:13029   */\n      add\n        /* \"#utility.yul\":13005:13052   */\n      mstore\n        /* \"#utility.yul\":13069:13217   */\n      tag_505\n        /* \"#utility.yul\":13212:13216   */\n      dup2\n        /* \"#utility.yul\":13203:13209   */\n      dup5\n        /* \"#utility.yul\":13069:13217   */\n      tag_323\n      jump\t// in\n    tag_505:\n        /* \"#utility.yul\":13061:13217   */\n      swap1\n      pop\n        /* \"#utility.yul\":12771:13224   */\n      swap3\n      swap2\n      pop\n      pop\n      jump\t// out\n        /* \"#utility.yul\":13230:13347   */\n    tag_324:\n        /* \"#utility.yul\":13339:13340   */\n      0x00\n        /* \"#utility.yul\":13336:13337   */\n      0x00\n        /* \"#utility.yul\":13329:13341   */\n      revert\n        /* \"#utility.yul\":13353:13470   */\n    tag_325:\n        /* \"#utility.yul\":13462:13463   */\n      0x00\n        /* \"#utility.yul\":13459:13460   */\n      0x00\n        /* \"#utility.yul\":13452:13464   */\n      revert\n        /* \"#utility.yul\":13476:13656   */\n    tag_213:\n        /* \"#utility.yul\":13524:13601   */\n      0x4e487b7100000000000000000000000000000000000000000000000000000000\n        /* \"#utility.yul\":13521:13522   */\n      0x00\n        /* \"#utility.yul\":13514:13602   */\n      mstore\n        /* \"#utility.yul\":13621:13625   */\n      0x41\n        /* \"#utility.yul\":13618:13619   */\n      0x04\n        /* \"#utility.yul\":13611:13626   */\n      mstore\n        /* \"#utility.yul\":13645:13649   */\n      0x24\n        /* \"#utility.yul\":13642:13643   */\n      0x00\n        /* \"#utility.yul\":13635:13650   */\n      revert\n        /* \"#utility.yul\":13662:13943   */\n    tag_326:\n        /* \"#utility.yul\":13745:13772   */\n      tag_510\n        /* \"#utility.yul\":13767:13771   */\n      dup3\n        /* \"#utility.yul\":13745:13772   */\n      tag_306\n      jump\t// in\n    tag_510:\n        /* \"#utility.yul\":13737:13743   */\n      dup2\n        /* \"#utility.yul\":13733:13773   */\n      add\n        /* \"#utility.yul\":13875:13881   */\n      dup2\n        /* \"#utility.yul\":13863:13873   */\n      dup2\n        /* \"#utility.yul\":13860:13882   */\n      lt\n        /* \"#utility.yul\":13839:13857   */\n      0xffffffffffffffff\n        /* \"#utility.yul\":13827:13837   */\n      dup3\n        /* \"#utility.yul\":13824:13858   */\n      gt\n        /* \"#utility.yul\":13821:13883   */\n      or\n        /* \"#utility.yul\":13818:13906   */\n      iszero\n      tag_511\n      jumpi\n        /* \"#utility.yul\":13886:13904   */\n      tag_512\n      tag_213\n      jump\t// in\n    tag_512:\n        /* \"#utility.yul\":13818:13906   */\n    tag_511:\n        /* \"#utility.yul\":13926:13936   */\n      dup1\n        /* \"#utility.yul\":13922:13924   */\n      0x40\n        /* \"#utility.yul\":13915:13937   */\n      mstore\n        /* \"#utility.yul\":13705:13943   */\n      pop\n        /* \"#utility.yul\":13662:13943   */\n      pop\n      pop\n      jump\t// out\n        /* \"#utility.yul\":13949:14078   */\n    tag_327:\n        /* \"#utility.yul\":13983:13989   */\n      0x00\n        /* \"#utility.yul\":14010:14030   */\n      tag_514\n      tag_296\n      jump\t// in\n    tag_514:\n        /* \"#utility.yul\":14000:14030   */\n      swap1\n      pop\n        /* \"#utility.yul\":14039:14072   */\n      tag_515\n        /* \"#utility.yul\":14067:14071   */\n      dup3\n        /* \"#utility.yul\":14059:14065   */\n      dup3\n        /* \"#utility.yul\":14039:14072   */\n      tag_326\n      jump\t// in\n    tag_515:\n        /* \"#utility.yul\":13949:14078   */\n      swap2\n      swap1\n      pop\n      jump\t// out\n        /* \"#utility.yul\":14084:14392   */\n    tag_328:\n        /* \"#utility.yul\":14146:14150   */\n      0x00\n        /* \"#utility.yul\":14236:14254   */\n      0xffffffffffffffff\n        /* \"#utility.yul\":14228:14234   */\n      dup3\n        /* \"#utility.yul\":14225:14255   */\n      gt\n        /* \"#utility.yul\":14222:14278   */\n      iszero\n      tag_517\n      jumpi\n        /* \"#utility.yul\":14258:14276   */\n      tag_518\n      tag_213\n      jump\t// in\n    tag_518:\n        /* \"#utility.yul\":14222:14278   */\n    tag_517:\n        /* \"#utility.yul\":14296:14325   */\n      tag_519\n        /* \"#utility.yul\":14318:14324   */\n      dup3\n        /* \"#utility.yul\":14296:14325   */\n      tag_306\n      jump\t// in\n    tag_519:\n        /* \"#utility.yul\":14288:14325   */\n      swap1\n      pop\n        /* \"#utility.yul\":14380:14384   */\n      0x20\n        /* \"#utility.yul\":14374:14378   */\n      dup2\n        /* \"#utility.yul\":14370:14385   */\n      add\n        /* \"#utility.yul\":14362:14385   */\n      swap1\n      pop\n        /* \"#utility.yul\":14084:14392   */\n      swap2\n      swap1\n      pop\n      jump\t// out\n        /* \"#utility.yul\":14398:14546   */\n    tag_329:\n        /* \"#utility.yul\":14496:14502   */\n      dup3\n        /* \"#utility.yul\":14491:14494   */\n      dup2\n        /* \"#utility.yul\":14486:14489   */\n      dup4\n        /* \"#utility.yul\":14473:14503   */\n      calldatacopy\n        /* \"#utility.yul\":14537:14538   */\n      0x00\n        /* \"#utility.yul\":14528:14534   */\n      dup4\n        /* \"#utility.yul\":14523:14526   */\n      dup4\n        /* \"#utility.yul\":14519:14535   */\n      add\n        /* \"#utility.yul\":14512:14539   */\n      mstore\n        /* \"#utility.yul\":14398:14546   */\n      pop\n      pop\n      pop\n      jump\t// out\n        /* \"#utility.yul\":14552:14977   */\n    tag_330:\n        /* \"#utility.yul\":14630:14635   */\n      0x00\n        /* \"#utility.yul\":14655:14721   */\n      tag_522\n        /* \"#utility.yul\":14671:14720   */\n      tag_523\n        /* \"#utility.yul\":14713:14719   */\n      dup5\n        /* \"#utility.yul\":14671:14720   */\n      tag_328\n      jump\t// in\n    tag_523:\n        /* \"#utility.yul\":14655:14721   */\n      tag_327\n      jump\t// in\n    tag_522:\n        /* \"#utility.yul\":14646:14721   */\n      swap1\n      pop\n        /* \"#utility.yul\":14744:14750   */\n      dup3\n        /* \"#utility.yul\":14737:14742   */\n      dup2\n        /* \"#utility.yul\":14730:14751   */\n      mstore\n        /* \"#utility.yul\":14782:14786   */\n      0x20\n        /* \"#utility.yul\":14775:14780   */\n      dup2\n        /* \"#utility.yul\":14771:14787   */\n      add\n        /* \"#utility.yul\":14820:14823   */\n      dup5\n        /* \"#utility.yul\":14811:14817   */\n      dup5\n        /* \"#utility.yul\":14806:14809   */\n      dup5\n        /* \"#utility.yul\":14802:14818   */\n      add\n        /* \"#utility.yul\":14799:14824   */\n      gt\n        /* \"#utility.yul\":14796:14908   */\n      iszero\n      tag_524\n      jumpi\n        /* \"#utility.yul\":14827:14906   */\n      tag_525\n      tag_325\n      jump\t// in\n    tag_525:\n        /* \"#utility.yul\":14796:14908   */\n    tag_524:\n        /* \"#utility.yul\":14917:14971   */\n      tag_526\n        /* \"#utility.yul\":14964:14970   */\n      dup5\n        /* \"#utility.yul\":14959:14962   */\n      dup3\n        /* \"#utility.yul\":14954:14957   */\n      dup6\n        /* \"#utility.yul\":14917:14971   */\n      tag_329\n      jump\t// in\n    tag_526:\n        /* \"#utility.yul\":14636:14977   */\n      pop\n        /* \"#utility.yul\":14552:14977   */\n      swap4\n      swap3\n      pop\n      pop\n      pop\n      jump\t// out\n        /* \"#utility.yul\":14997:15337   */\n    tag_331:\n        /* \"#utility.yul\":15053:15058   */\n      0x00\n        /* \"#utility.yul\":15102:15105   */\n      dup3\n        /* \"#utility.yul\":15095:15099   */\n      0x1f\n        /* \"#utility.yul\":15087:15093   */\n      dup4\n        /* \"#utility.yul\":15083:15100   */\n      add\n        /* \"#utility.yul\":15079:15106   */\n      slt\n        /* \"#utility.yul\":15069:15191   */\n      tag_528\n      jumpi\n        /* \"#utility.yul\":15110:15189   */\n      tag_529\n      tag_324\n      jump\t// in\n    tag_529:\n        /* \"#utility.yul\":15069:15191   */\n    tag_528:\n        /* \"#utility.yul\":15227:15233   */\n      dup2\n        /* \"#utility.yul\":15214:15234   */\n      calldataload\n        /* \"#utility.yul\":15252:15331   */\n      tag_530\n        /* \"#utility.yul\":15327:15330   */\n      dup5\n        /* \"#utility.yul\":15319:15325   */\n      dup3\n        /* \"#utility.yul\":15312:15316   */\n      0x20\n        /* \"#utility.yul\":15304:15310   */\n      dup7\n        /* \"#utility.yul\":15300:15317   */\n      add\n        /* \"#utility.yul\":15252:15331   */\n      tag_330\n      jump\t// in\n    tag_530:\n        /* \"#utility.yul\":15243:15331   */\n      swap2\n      pop\n        /* \"#utility.yul\":15059:15337   */\n      pop\n        /* \"#utility.yul\":14997:15337   */\n      swap3\n      swap2\n      pop\n      pop\n      jump\t// out\n        /* \"#utility.yul\":15343:16940   */\n    tag_74:\n        /* \"#utility.yul\":15477:15483   */\n      0x00\n        /* \"#utility.yul\":15485:15491   */\n      0x00\n        /* \"#utility.yul\":15493:15499   */\n      0x00\n        /* \"#utility.yul\":15501:15507   */\n      0x00\n        /* \"#utility.yul\":15509:15515   */\n      0x00\n        /* \"#utility.yul\":15517:15523   */\n      0x00\n        /* \"#utility.yul\":15566:15569   */\n      0xc0\n        /* \"#utility.yul\":15554:15563   */\n      dup8\n        /* \"#utility.yul\":15545:15552   */\n      dup10\n        /* \"#utility.yul\":15541:15564   */\n      sub\n        /* \"#utility.yul\":15537:15570   */\n      slt\n        /* \"#utility.yul\":15534:15654   */\n      iszero\n      tag_532\n      jumpi\n        /* \"#utility.yul\":15573:15652   */\n      tag_533\n      tag_297\n      jump\t// in\n    tag_533:\n        /* \"#utility.yul\":15534:15654   */\n    tag_532:\n        /* \"#utility.yul\":15721:15722   */\n      0x00\n        /* \"#utility.yul\":15710:15719   */\n      dup8\n        /* \"#utility.yul\":15706:15723   */\n      add\n        /* \"#utility.yul\":15693:15724   */\n      calldataload\n        /* \"#utility.yul\":15751:15769   */\n      0xffffffffffffffff\n        /* \"#utility.yul\":15743:15749   */\n      dup2\n        /* \"#utility.yul\":15740:15770   */\n      gt\n        /* \"#utility.yul\":15737:15854   */\n      iszero\n      tag_534\n      jumpi\n        /* \"#utility.yul\":15773:15852   */\n      tag_535\n      tag_298\n      jump\t// in\n    tag_535:\n        /* \"#utility.yul\":15737:15854   */\n    tag_534:\n        /* \"#utility.yul\":15878:15941   */\n      tag_536\n        /* \"#utility.yul\":15933:15940   */\n      dup10\n        /* \"#utility.yul\":15924:15930   */\n      dup3\n        /* \"#utility.yul\":15913:15922   */\n      dup11\n        /* \"#utility.yul\":15909:15931   */\n      add\n        /* \"#utility.yul\":15878:15941   */\n      tag_331\n      jump\t// in\n    tag_536:\n        /* \"#utility.yul\":15868:15941   */\n      swap7\n      pop\n        /* \"#utility.yul\":15664:15951   */\n      pop\n        /* \"#utility.yul\":16018:16020   */\n      0x20\n        /* \"#utility.yul\":16007:16016   */\n      dup8\n        /* \"#utility.yul\":16003:16021   */\n      add\n        /* \"#utility.yul\":15990:16022   */\n      calldataload\n        /* \"#utility.yul\":16049:16067   */\n      0xffffffffffffffff\n        /* \"#utility.yul\":16041:16047   */\n      dup2\n        /* \"#utility.yul\":16038:16068   */\n      gt\n        /* \"#utility.yul\":16035:16152   */\n      iszero\n      tag_537\n      jumpi\n        /* \"#utility.yul\":16071:16150   */\n      tag_538\n      tag_298\n      jump\t// in\n    tag_538:\n        /* \"#utility.yul\":16035:16152   */\n    tag_537:\n        /* \"#utility.yul\":16176:16239   */\n      tag_539\n        /* \"#utility.yul\":16231:16238   */\n      dup10\n        /* \"#utility.yul\":16222:16228   */\n      dup3\n        /* \"#utility.yul\":16211:16220   */\n      dup11\n        /* \"#utility.yul\":16207:16229   */\n      add\n        /* \"#utility.yul\":16176:16239   */\n      tag_331\n      jump\t// in\n    tag_539:\n        /* \"#utility.yul\":16166:16239   */\n      swap6\n      pop\n        /* \"#utility.yul\":15961:16249   */\n      pop\n        /* \"#utility.yul\":16316:16318   */\n      0x40\n        /* \"#utility.yul\":16305:16314   */\n      dup8\n        /* \"#utility.yul\":16301:16319   */\n      add\n        /* \"#utility.yul\":16288:16320   */\n      calldataload\n        /* \"#utility.yul\":16347:16365   */\n      0xffffffffffffffff\n        /* \"#utility.yul\":16339:16345   */\n      dup2\n        /* \"#utility.yul\":16336:16366   */\n      gt\n        /* \"#utility.yul\":16333:16450   */\n      iszero\n      tag_540\n      jumpi\n        /* \"#utility.yul\":16369:16448   */\n      tag_541\n      tag_298\n      jump\t// in\n    tag_541:\n        /* \"#utility.yul\":16333:16450   */\n    tag_540:\n        /* \"#utility.yul\":16474:16537   */\n      tag_542\n        /* \"#utility.yul\":16529:16536   */\n      dup10\n        /* \"#utility.yul\":16520:16526   */\n      dup3\n        /* \"#utility.yul\":16509:16518   */\n      dup11\n        /* \"#utility.yul\":16505:16527   */\n      add\n        /* \"#utility.yul\":16474:16537   */\n      tag_331\n      jump\t// in\n    tag_542:\n        /* \"#utility.yul\":16464:16537   */\n      swap5\n      pop\n        /* \"#utility.yul\":16259:16547   */\n      pop\n        /* \"#utility.yul\":16586:16588   */\n      0x60\n        /* \"#utility.yul\":16612:16665   */\n      tag_543\n        /* \"#utility.yul\":16657:16664   */\n      dup10\n        /* \"#utility.yul\":16648:16654   */\n      dup3\n        /* \"#utility.yul\":16637:16646   */\n      dup11\n        /* \"#utility.yul\":16633:16655   */\n      add\n        /* \"#utility.yul\":16612:16665   */\n      tag_301\n      jump\t// in\n    tag_543:\n        /* \"#utility.yul\":16602:16665   */\n      swap4\n      pop\n        /* \"#utility.yul\":16557:16675   */\n      pop\n        /* \"#utility.yul\":16714:16717   */\n      0x80\n        /* \"#utility.yul\":16741:16794   */\n      tag_544\n        /* \"#utility.yul\":16786:16793   */\n      dup10\n        /* \"#utility.yul\":16777:16783   */\n      dup3\n        /* \"#utility.yul\":16766:16775   */\n      dup11\n        /* \"#utility.yul\":16762:16784   */\n      add\n        /* \"#utility.yul\":16741:16794   */\n      tag_301\n      jump\t// in\n    tag_544:\n        /* \"#utility.yul\":16731:16794   */\n      swap3\n      pop\n        /* \"#utility.yul\":16685:16804   */\n      pop\n        /* \"#utility.yul\":16843:16846   */\n      0xa0\n        /* \"#utility.yul\":16870:16923   */\n      tag_545\n        /* \"#utility.yul\":16915:16922   */\n      dup10\n        /* \"#utility.yul\":16906:16912   */\n      dup3\n        /* \"#utility.yul\":16895:16904   */\n      dup11\n        /* \"#utility.yul\":16891:16913   */\n      add\n        /* \"#utility.yul\":16870:16923   */\n      tag_301\n      jump\t// in\n    tag_545:\n        /* \"#utility.yul\":16860:16923   */\n      swap2\n      pop\n        /* \"#utility.yul\":16814:16933   */\n      pop\n        /* \"#utility.yul\":15343:16940   */\n      swap3\n      swap6\n      pop\n      swap3\n      swap6\n      pop\n      swap3\n      swap6\n      jump\t// out\n        /* \"#utility.yul\":16946:17006   */\n    tag_332:\n        /* \"#utility.yul\":16974:16977   */\n      0x00\n        /* \"#utility.yul\":16995:17000   */\n      dup2\n        /* \"#utility.yul\":16988:17000   */\n      swap1\n      pop\n        /* \"#utility.yul\":16946:17006   */\n      swap2\n      swap1\n      pop\n      jump\t// out\n        /* \"#utility.yul\":17012:17154   */\n    tag_333:\n        /* \"#utility.yul\":17062:17071   */\n      0x00\n        /* \"#utility.yul\":17095:17148   */\n      tag_548\n        /* \"#utility.yul\":17113:17147   */\n      tag_549\n        /* \"#utility.yul\":17122:17146   */\n      tag_550\n        /* \"#utility.yul\":17140:17145   */\n      dup5\n        /* \"#utility.yul\":17122:17146   */\n      tag_293\n      jump\t// in\n    tag_550:\n        /* \"#utility.yul\":17113:17147   */\n      tag_332\n      jump\t// in\n    tag_549:\n        /* \"#utility.yul\":17095:17148   */\n      tag_293\n      jump\t// in\n    tag_548:\n        /* \"#utility.yul\":17082:17148   */\n      swap1\n      pop\n        /* \"#utility.yul\":17012:17154   */\n      swap2\n      swap1\n      pop\n      jump\t// out\n        /* \"#utility.yul\":17160:17286   */\n    tag_334:\n        /* \"#utility.yul\":17210:17219   */\n      0x00\n        /* \"#utility.yul\":17243:17280   */\n      tag_552\n        /* \"#utility.yul\":17274:17279   */\n      dup3\n        /* \"#utility.yul\":17243:17280   */\n      tag_333\n      jump\t// in\n    tag_552:\n        /* \"#utility.yul\":17230:17280   */\n      swap1\n      pop\n        /* \"#utility.yul\":17160:17286   */\n      swap2\n      swap1\n      pop\n      jump\t// out\n        /* \"#utility.yul\":17292:17440   */\n    tag_335:\n        /* \"#utility.yul\":17364:17373   */\n      0x00\n        /* \"#utility.yul\":17397:17434   */\n      tag_554\n        /* \"#utility.yul\":17428:17433   */\n      dup3\n        /* \"#utility.yul\":17397:17434   */\n      tag_334\n      jump\t// in\n    tag_554:\n        /* \"#utility.yul\":17384:17434   */\n      swap1\n      pop\n        /* \"#utility.yul\":17292:17440   */\n      swap2\n      swap1\n      pop\n      jump\t// out\n        /* \"#utility.yul\":17446:17621   */\n    tag_336:\n        /* \"#utility.yul\":17555:17614   */\n      tag_556\n        /* \"#utility.yul\":17608:17613   */\n      dup2\n        /* \"#utility.yul\":17555:17614   */\n      tag_335\n      jump\t// in\n    tag_556:\n        /* \"#utility.yul\":17550:17553   */\n      dup3\n        /* \"#utility.yul\":17543:17615   */\n      mstore\n        /* \"#utility.yul\":17446:17621   */\n      pop\n      pop\n      jump\t// out\n        /* \"#utility.yul\":17627:17893   */\n    tag_80:\n        /* \"#utility.yul\":17742:17746   */\n      0x00\n        /* \"#utility.yul\":17780:17782   */\n      0x20\n        /* \"#utility.yul\":17769:17778   */\n      dup3\n        /* \"#utility.yul\":17765:17783   */\n      add\n        /* \"#utility.yul\":17757:17783   */\n      swap1\n      pop\n        /* \"#utility.yul\":17793:17886   */\n      tag_558\n        /* \"#utility.yul\":17883:17884   */\n      0x00\n        /* \"#utility.yul\":17872:17881   */\n      dup4\n        /* \"#utility.yul\":17868:17885   */\n      add\n        /* \"#utility.yul\":17859:17865   */\n      dup5\n        /* \"#utility.yul\":17793:17886   */\n      tag_336\n      jump\t// in\n    tag_558:\n        /* \"#utility.yul\":17627:17893   */\n      swap3\n      swap2\n      pop\n      pop\n      jump\t// out\n        /* \"#utility.yul\":17899:18021   */\n    tag_337:\n        /* \"#utility.yul\":17972:17996   */\n      tag_560\n        /* \"#utility.yul\":17990:17995   */\n      dup2\n        /* \"#utility.yul\":17972:17996   */\n      tag_315\n      jump\t// in\n    tag_560:\n        /* \"#utility.yul\":17965:17970   */\n      dup2\n        /* \"#utility.yul\":17962:17997   */\n      eq\n        /* \"#utility.yul\":17952:18015   */\n      tag_561\n      jumpi\n        /* \"#utility.yul\":18011:18012   */\n      0x00\n        /* \"#utility.yul\":18008:18009   */\n      0x00\n        /* \"#utility.yul\":18001:18013   */\n      revert\n        /* \"#utility.yul\":17952:18015   */\n    tag_561:\n        /* \"#utility.yul\":17899:18021   */\n      pop\n      jump\t// out\n        /* \"#utility.yul\":18027:18166   */\n    tag_338:\n        /* \"#utility.yul\":18073:18078   */\n      0x00\n        /* \"#utility.yul\":18111:18117   */\n      dup2\n        /* \"#utility.yul\":18098:18118   */\n      calldataload\n        /* \"#utility.yul\":18089:18118   */\n      swap1\n      pop\n        /* \"#utility.yul\":18127:18160   */\n      tag_563\n        /* \"#utility.yul\":18154:18159   */\n      dup2\n        /* \"#utility.yul\":18127:18160   */\n      tag_337\n      jump\t// in\n    tag_563:\n        /* \"#utility.yul\":18027:18166   */\n      swap3\n      swap2\n      pop\n      pop\n      jump\t// out\n        /* \"#utility.yul\":18172:18646   */\n    tag_92:\n        /* \"#utility.yul\":18240:18246   */\n      0x00\n        /* \"#utility.yul\":18248:18254   */\n      0x00\n        /* \"#utility.yul\":18297:18299   */\n      0x40\n        /* \"#utility.yul\":18285:18294   */\n      dup4\n        /* \"#utility.yul\":18276:18283   */\n      dup6\n        /* \"#utility.yul\":18272:18295   */\n      sub\n        /* \"#utility.yul\":18268:18300   */\n      slt\n        /* \"#utility.yul\":18265:18384   */\n      iszero\n      tag_565\n      jumpi\n        /* \"#utility.yul\":18303:18382   */\n      tag_566\n      tag_297\n      jump\t// in\n    tag_566:\n        /* \"#utility.yul\":18265:18384   */\n    tag_565:\n        /* \"#utility.yul\":18423:18424   */\n      0x00\n        /* \"#utility.yul\":18448:18501   */\n      tag_567\n        /* \"#utility.yul\":18493:18500   */\n      dup6\n        /* \"#utility.yul\":18484:18490   */\n      dup3\n        /* \"#utility.yul\":18473:18482   */\n      dup7\n        /* \"#utility.yul\":18469:18491   */\n      add\n        /* \"#utility.yul\":18448:18501   */\n      tag_301\n      jump\t// in\n    tag_567:\n        /* \"#utility.yul\":18438:18501   */\n      swap3\n      pop\n        /* \"#utility.yul\":18394:18511   */\n      pop\n        /* \"#utility.yul\":18550:18552   */\n      0x20\n        /* \"#utility.yul\":18576:18629   */\n      tag_568\n        /* \"#utility.yul\":18621:18628   */\n      dup6\n        /* \"#utility.yul\":18612:18618   */\n      dup3\n        /* \"#utility.yul\":18601:18610   */\n      dup7\n        /* \"#utility.yul\":18597:18619   */\n      add\n        /* \"#utility.yul\":18576:18629   */\n      tag_338\n      jump\t// in\n    tag_568:\n        /* \"#utility.yul\":18566:18629   */\n      swap2\n      pop\n        /* \"#utility.yul\":18521:18639   */\n      pop\n        /* \"#utility.yul\":18172:18646   */\n      swap3\n      pop\n      swap3\n      swap1\n      pop\n      jump\t// out\n        /* \"#utility.yul\":18652:18862   */\n    tag_95:\n        /* \"#utility.yul\":18739:18743   */\n      0x00\n        /* \"#utility.yul\":18777:18779   */\n      0x20\n        /* \"#utility.yul\":18766:18775   */\n      dup3\n        /* \"#utility.yul\":18762:18780   */\n      add\n        /* \"#utility.yul\":18754:18780   */\n      swap1\n      pop\n        /* \"#utility.yul\":18790:18855   */\n      tag_570\n        /* \"#utility.yul\":18852:18853   */\n      0x00\n        /* \"#utility.yul\":18841:18850   */\n      dup4\n        /* \"#utility.yul\":18837:18854   */\n      add\n        /* \"#utility.yul\":18828:18834   */\n      dup5\n        /* \"#utility.yul\":18790:18855   */\n      tag_314\n      jump\t// in\n    tag_570:\n        /* \"#utility.yul\":18652:18862   */\n      swap3\n      swap2\n      pop\n      pop\n      jump\t// out\n        /* \"#utility.yul\":18868:19032   */\n    tag_339:\n        /* \"#utility.yul\":19008:19024   */\n      0x426f6f6b206e6f7420666f756e64000000000000000000000000000000000000\n        /* \"#utility.yul\":19004:19005   */\n      0x00\n        /* \"#utility.yul\":18996:19002   */\n      dup3\n        /* \"#utility.yul\":18992:19006   */\n      add\n        /* \"#utility.yul\":18985:19025   */\n      mstore\n        /* \"#utility.yul\":18868:19032   */\n      pop\n      jump\t// out\n        /* \"#utility.yul\":19038:19404   */\n    tag_340:\n        /* \"#utility.yul\":19180:19183   */\n      0x00\n        /* \"#utility.yul\":19201:19268   */\n      tag_573\n        /* \"#utility.yul\":19265:19267   */\n      0x0e\n        /* \"#utility.yul\":19260:19263   */\n      dup4\n        /* \"#utility.yul\":19201:19268   */\n      tag_312\n      jump\t// in\n    tag_573:\n        /* \"#utility.yul\":19194:19268   */\n      swap2\n      pop\n        /* \"#utility.yul\":19277:19370   */\n      tag_574\n        /* \"#utility.yul\":19366:19369   */\n      dup3\n        /* \"#utility.yul\":19277:19370   */\n      tag_339\n      jump\t// in\n    tag_574:\n        /* \"#utility.yul\":19395:19397   */\n      0x20\n        /* \"#utility.yul\":19390:19393   */\n      dup3\n        /* \"#utility.yul\":19386:19398   */\n      add\n        /* \"#utility.yul\":19379:19398   */\n      swap1\n      pop\n        /* \"#utility.yul\":19038:19404   */\n      swap2\n      swap1\n      pop\n      jump\t// out\n        /* \"#utility.yul\":19410:19829   */\n    tag_101:\n        /* \"#utility.yul\":19576:19580   */\n      0x00\n        /* \"#utility.yul\":19614:19616   */\n      0x20\n        /* \"#utility.yul\":19603:19612   */\n      dup3\n        /* \"#utility.yul\":19599:19617   */\n      add\n        /* \"#utility.yul\":19591:19617   */\n      swap1\n      pop\n        /* \"#utility.yul\":19663:19672   */\n      dup2\n        /* \"#utility.yul\":19657:19661   */\n      dup2\n        /* \"#utility.yul\":19653:19673   */\n      sub\n        /* \"#utility.yul\":19649:19650   */\n      0x00\n        /* \"#utility.yul\":19638:19647   */\n      dup4\n        /* \"#utility.yul\":19634:19651   */\n      add\n        /* \"#utility.yul\":19627:19674   */\n      mstore\n        /* \"#utility.yul\":19691:19822   */\n      tag_576\n        /* \"#utility.yul\":19817:19821   */\n      dup2\n        /* \"#utility.yul\":19691:19822   */\n      tag_340\n      jump\t// in\n    tag_576:\n        /* \"#utility.yul\":19683:19822   */\n      swap1\n      pop\n        /* \"#utility.yul\":19410:19829   */\n      swap2\n      swap1\n      pop\n      jump\t// out\n        /* \"#utility.yul\":19835:20015   */\n    tag_341:\n        /* \"#utility.yul\":19883:19960   */\n      0x4e487b7100000000000000000000000000000000000000000000000000000000\n        /* \"#utility.yul\":19880:19881   */\n      0x00\n        /* \"#utility.yul\":19873:19961   */\n      mstore\n        /* \"#utility.yul\":19980:19984   */\n      0x22\n        /* \"#utility.yul\":19977:19978   */\n      0x04\n        /* \"#utility.yul\":19970:19985   */\n      mstore\n        /* \"#utility.yul\":20004:20008   */\n      0x24\n        /* \"#utility.yul\":20001:20002   */\n      0x00\n        /* \"#utility.yul\":19994:20009   */\n      revert\n        /* \"#utility.yul\":20021:20341   */\n    tag_103:\n        /* \"#utility.yul\":20065:20071   */\n      0x00\n        /* \"#utility.yul\":20102:20103   */\n      0x02\n        /* \"#utility.yul\":20096:20100   */\n      dup3\n        /* \"#utility.yul\":20092:20104   */\n      div\n        /* \"#utility.yul\":20082:20104   */\n      swap1\n      pop\n        /* \"#utility.yul\":20149:20150   */\n      0x01\n        /* \"#utility.yul\":20143:20147   */\n      dup3\n        /* \"#utility.yul\":20139:20151   */\n      and\n        /* \"#utility.yul\":20170:20188   */\n      dup1\n        /* \"#utility.yul\":20160:20241   */\n      tag_579\n      jumpi\n        /* \"#utility.yul\":20226:20230   */\n      0x7f\n        /* \"#utility.yul\":20218:20224   */\n      dup3\n        /* \"#utility.yul\":20214:20231   */\n      and\n        /* \"#utility.yul\":20204:20231   */\n      swap2\n      pop\n        /* \"#utility.yul\":20160:20241   */\n    tag_579:\n        /* \"#utility.yul\":20288:20290   */\n      0x20\n        /* \"#utility.yul\":20280:20286   */\n      dup3\n        /* \"#utility.yul\":20277:20291   */\n      lt\n        /* \"#utility.yul\":20257:20275   */\n      dup2\n        /* \"#utility.yul\":20254:20292   */\n      sub\n        /* \"#utility.yul\":20251:20335   */\n      tag_580\n      jumpi\n        /* \"#utility.yul\":20307:20325   */\n      tag_581\n      tag_341\n      jump\t// in\n    tag_581:\n        /* \"#utility.yul\":20251:20335   */\n    tag_580:\n        /* \"#utility.yul\":20072:20341   */\n      pop\n        /* \"#utility.yul\":20021:20341   */\n      swap2\n      swap1\n      pop\n      jump\t// out\n        /* \"#utility.yul\":20347:20516   */\n    tag_342:\n        /* \"#utility.yul\":20487:20508   */\n      0x5265656e7472616e637920646574656374656400000000000000000000000000\n        /* \"#utility.yul\":20483:20484   */\n      0x00\n        /* \"#utility.yul\":20475:20481   */\n      dup3\n        /* \"#utility.yul\":20471:20485   */\n      add\n        /* \"#utility.yul\":20464:20509   */\n      mstore\n        /* \"#utility.yul\":20347:20516   */\n      pop\n      jump\t// out\n        /* \"#utility.yul\":20522:20888   */\n    tag_343:\n        /* \"#utility.yul\":20664:20667   */\n      0x00\n        /* \"#utility.yul\":20685:20752   */\n      tag_584\n        /* \"#utility.yul\":20749:20751   */\n      0x13\n        /* \"#utility.yul\":20744:20747   */\n      dup4\n        /* \"#utility.yul\":20685:20752   */\n      tag_312\n      jump\t// in\n    tag_584:\n        /* \"#utility.yul\":20678:20752   */\n      swap2\n      pop\n        /* \"#utility.yul\":20761:20854   */\n      tag_585\n        /* \"#utility.yul\":20850:20853   */\n      dup3\n        /* \"#utility.yul\":20761:20854   */\n      tag_342\n      jump\t// in\n    tag_585:\n        /* \"#utility.yul\":20879:20881   */\n      0x20\n        /* \"#utility.yul\":20874:20877   */\n      dup3\n        /* \"#utility.yul\":20870:20882   */\n      add\n        /* \"#utility.yul\":20863:20882   */\n      swap1\n      pop\n        /* \"#utility.yul\":20522:20888   */\n      swap2\n      swap1\n      pop\n      jump\t// out\n        /* \"#utility.yul\":20894:21313   */\n    tag_138:\n        /* \"#utility.yul\":21060:21064   */\n      0x00\n        /* \"#utility.yul\":21098:21100   */\n      0x20\n        /* \"#utility.yul\":21087:21096   */\n      dup3\n        /* \"#utility.yul\":21083:21101   */\n      add\n        /* \"#utility.yul\":21075:21101   */\n      swap1\n      pop\n        /* \"#utility.yul\":21147:21156   */\n      dup2\n        /* \"#utility.yul\":21141:21145   */\n      dup2\n        /* \"#utility.yul\":21137:21157   */\n      sub\n        /* \"#utility.yul\":21133:21134   */\n      0x00\n        /* \"#utility.yul\":21122:21131   */\n      dup4\n        /* \"#utility.yul\":21118:21135   */\n      add\n        /* \"#utility.yul\":21111:21158   */\n      mstore\n        /* \"#utility.yul\":21175:21306   */\n      tag_587\n        /* \"#utility.yul\":21301:21305   */\n      dup2\n        /* \"#utility.yul\":21175:21306   */\n      tag_343\n      jump\t// in\n    tag_587:\n        /* \"#utility.yul\":21167:21306   */\n      swap1\n      pop\n        /* \"#utility.yul\":20894:21313   */\n      swap2\n      swap1\n      pop\n      jump\t// out\n        /* \"#utility.yul\":21319:21486   */\n    tag_344:\n        /* \"#utility.yul\":21459:21478   */\n      0x426f6f6b206f7574206f662073746f636b000000000000000000000000000000\n        /* \"#utility.yul\":21455:21456   */\n      0x00\n        /* \"#utility.yul\":21447:21453   */\n      dup3\n        /* \"#utility.yul\":21443:21457   */\n      add\n        /* \"#utility.yul\":21436:21479   */\n      mstore\n        /* \"#utility.yul\":21319:21486   */\n      pop\n      jump\t// out\n        /* \"#utility.yul\":21492:21858   */\n    tag_345:\n        /* \"#utility.yul\":21634:21637   */\n      0x00\n        /* \"#utility.yul\":21655:21722   */\n      tag_590\n        /* \"#utility.yul\":21719:21721   */\n      0x11\n        /* \"#utility.yul\":21714:21717   */\n      dup4\n        /* \"#utility.yul\":21655:21722   */\n      tag_312\n      jump\t// in\n    tag_590:\n        /* \"#utility.yul\":21648:21722   */\n      swap2\n      pop\n        /* \"#utility.yul\":21731:21824   */\n      tag_591\n        /* \"#utility.yul\":21820:21823   */\n      dup3\n        /* \"#utility.yul\":21731:21824   */\n      tag_344\n      jump\t// in\n    tag_591:\n        /* \"#utility.yul\":21849:21851   */\n      0x20\n        /* \"#utility.yul\":21844:21847   */\n      dup3\n        /* \"#utility.yul\":21840:21852   */\n      add\n        /* \"#utility.yul\":21833:21852   */\n      swap1\n      pop\n        /* \"#utility.yul\":21492:21858   */\n      swap2\n      swap1\n      pop\n      jump\t// out\n        /* \"#utility.yul\":21864:22283   */\n    tag_144:\n        /* \"#utility.yul\":22030:22034   */\n      0x00\n        /* \"#utility.yul\":22068:22070   */\n      0x20\n        /* \"#utility.yul\":22057:22066   */\n      dup3\n        /* \"#utility.yul\":22053:22071   */\n      add\n        /* \"#utility.yul\":22045:22071   */\n      swap1\n      pop\n        /* \"#utility.yul\":22117:22126   */\n      dup2\n        /* \"#utility.yul\":22111:22115   */\n      dup2\n        /* \"#utility.yul\":22107:22127   */\n      sub\n        /* \"#utility.yul\":22103:22104   */\n      0x00\n        /* \"#utility.yul\":22092:22101   */\n      dup4\n        /* \"#utility.yul\":22088:22105   */\n      add\n        /* \"#utility.yul\":22081:22128   */\n      mstore\n        /* \"#utility.yul\":22145:22276   */\n      tag_593\n        /* \"#utility.yul\":22271:22275   */\n      dup2\n        /* \"#utility.yul\":22145:22276   */\n      tag_345\n      jump\t// in\n    tag_593:\n        /* \"#utility.yul\":22137:22276   */\n      swap1\n      pop\n        /* \"#utility.yul\":21864:22283   */\n      swap2\n      swap1\n      pop\n      jump\t// out\n        /* \"#utility.yul\":22289:22459   */\n    tag_346:\n        /* \"#utility.yul\":22429:22451   */\n      0x496e73756666696369656e74207061796d656e74000000000000000000000000\n        /* \"#utility.yul\":22425:22426   */\n      0x00\n        /* \"#utility.yul\":22417:22423   */\n      dup3\n        /* \"#utility.yul\":22413:22427   */\n      add\n        /* \"#utility.yul\":22406:22452   */\n      mstore\n        /* \"#utility.yul\":22289:22459   */\n      pop\n      jump\t// out\n        /* \"#utility.yul\":22465:22831   */\n    tag_347:\n        /* \"#utility.yul\":22607:22610   */\n      0x00\n        /* \"#utility.yul\":22628:22695   */\n      tag_596\n        /* \"#utility.yul\":22692:22694   */\n      0x14\n        /* \"#utility.yul\":22687:22690   */\n      dup4\n        /* \"#utility.yul\":22628:22695   */\n      tag_312\n      jump\t// in\n    tag_596:\n        /* \"#utility.yul\":22621:22695   */\n      swap2\n      pop\n        /* \"#utility.yul\":22704:22797   */\n      tag_597\n        /* \"#utility.yul\":22793:22796   */\n      dup3\n        /* \"#utility.yul\":22704:22797   */\n      tag_346\n      jump\t// in\n    tag_597:\n        /* \"#utility.yul\":22822:22824   */\n      0x20\n        /* \"#utility.yul\":22817:22820   */\n      dup3\n        /* \"#utility.yul\":22813:22825   */\n      add\n        /* \"#utility.yul\":22806:22825   */\n      swap1\n      pop\n        /* \"#utility.yul\":22465:22831   */\n      swap2\n      swap1\n      pop\n      jump\t// out\n        /* \"#utility.yul\":22837:23256   */\n    tag_147:\n        /* \"#utility.yul\":23003:23007   */\n      0x00\n        /* \"#utility.yul\":23041:23043   */\n      0x20\n        /* \"#utility.yul\":23030:23039   */\n      dup3\n        /* \"#utility.yul\":23026:23044   */\n      add\n        /* \"#utility.yul\":23018:23044   */\n      swap1\n      pop\n        /* \"#utility.yul\":23090:23099   */\n      dup2\n        /* \"#utility.yul\":23084:23088   */\n      dup2\n        /* \"#utility.yul\":23080:23100   */\n      sub\n        /* \"#utility.yul\":23076:23077   */\n      0x00\n        /* \"#utility.yul\":23065:23074   */\n      dup4\n        /* \"#utility.yul\":23061:23078   */\n      add\n        /* \"#utility.yul\":23054:23101   */\n      mstore\n        /* \"#utility.yul\":23118:23249   */\n      tag_599\n        /* \"#utility.yul\":23244:23248   */\n      dup2\n        /* \"#utility.yul\":23118:23249   */\n      tag_347\n      jump\t// in\n    tag_599:\n        /* \"#utility.yul\":23110:23249   */\n      swap1\n      pop\n        /* \"#utility.yul\":22837:23256   */\n      swap2\n      swap1\n      pop\n      jump\t// out\n        /* \"#utility.yul\":23262:23442   */\n    tag_348:\n        /* \"#utility.yul\":23310:23387   */\n      0x4e487b7100000000000000000000000000000000000000000000000000000000\n        /* \"#utility.yul\":23307:23308   */\n      0x00\n        /* \"#utility.yul\":23300:23388   */\n      mstore\n        /* \"#utility.yul\":23407:23411   */\n      0x11\n        /* \"#utility.yul\":23404:23405   */\n      0x04\n        /* \"#utility.yul\":23397:23412   */\n      mstore\n        /* \"#utility.yul\":23431:23435   */\n      0x24\n        /* \"#utility.yul\":23428:23429   */\n      0x00\n        /* \"#utility.yul\":23421:23436   */\n      revert\n        /* \"#utility.yul\":23448:23642   */\n    tag_149:\n        /* \"#utility.yul\":23488:23492   */\n      0x00\n        /* \"#utility.yul\":23508:23528   */\n      tag_602\n        /* \"#utility.yul\":23526:23527   */\n      dup3\n        /* \"#utility.yul\":23508:23528   */\n      tag_299\n      jump\t// in\n    tag_602:\n        /* \"#utility.yul\":23503:23528   */\n      swap2\n      pop\n        /* \"#utility.yul\":23542:23562   */\n      tag_603\n        /* \"#utility.yul\":23560:23561   */\n      dup4\n        /* \"#utility.yul\":23542:23562   */\n      tag_299\n      jump\t// in\n    tag_603:\n        /* \"#utility.yul\":23537:23562   */\n      swap3\n      pop\n        /* \"#utility.yul\":23586:23587   */\n      dup3\n        /* \"#utility.yul\":23583:23584   */\n      dup3\n        /* \"#utility.yul\":23579:23588   */\n      sub\n        /* \"#utility.yul\":23571:23588   */\n      swap1\n      pop\n        /* \"#utility.yul\":23610:23611   */\n      dup2\n        /* \"#utility.yul\":23604:23608   */\n      dup2\n        /* \"#utility.yul\":23601:23612   */\n      gt\n        /* \"#utility.yul\":23598:23635   */\n      iszero\n      tag_604\n      jumpi\n        /* \"#utility.yul\":23615:23633   */\n      tag_605\n      tag_348\n      jump\t// in\n    tag_605:\n        /* \"#utility.yul\":23598:23635   */\n    tag_604:\n        /* \"#utility.yul\":23448:23642   */\n      swap3\n      swap2\n      pop\n      pop\n      jump\t// out\n        /* \"#utility.yul\":23648:23795   */\n    tag_349:\n        /* \"#utility.yul\":23749:23760   */\n      0x00\n        /* \"#utility.yul\":23786:23789   */\n      dup2\n        /* \"#utility.yul\":23771:23789   */\n      swap1\n      pop\n        /* \"#utility.yul\":23648:23795   */\n      swap3\n      swap2\n      pop\n      pop\n      jump\t// out\n        /* \"#utility.yul\":23801:23915   */\n    tag_350:\n      pop\n      jump\t// out\n        /* \"#utility.yul\":23921:24319   */\n    tag_351:\n        /* \"#utility.yul\":24080:24083   */\n      0x00\n        /* \"#utility.yul\":24101:24184   */\n      tag_609\n        /* \"#utility.yul\":24182:24183   */\n      0x00\n        /* \"#utility.yul\":24177:24180   */\n      dup4\n        /* \"#utility.yul\":24101:24184   */\n      tag_349\n      jump\t// in\n    tag_609:\n        /* \"#utility.yul\":24094:24184   */\n      swap2\n      pop\n        /* \"#utility.yul\":24193:24286   */\n      tag_610\n        /* \"#utility.yul\":24282:24285   */\n      dup3\n        /* \"#utility.yul\":24193:24286   */\n      tag_350\n      jump\t// in\n    tag_610:\n        /* \"#utility.yul\":24311:24312   */\n      0x00\n        /* \"#utility.yul\":24306:24309   */\n      dup3\n        /* \"#utility.yul\":24302:24313   */\n      add\n        /* \"#utility.yul\":24295:24313   */\n      swap1\n      pop\n        /* \"#utility.yul\":23921:24319   */\n      swap2\n      swap1\n      pop\n      jump\t// out\n        /* \"#utility.yul\":24325:24704   */\n    tag_152:\n        /* \"#utility.yul\":24509:24512   */\n      0x00\n        /* \"#utility.yul\":24531:24678   */\n      tag_612\n        /* \"#utility.yul\":24674:24677   */\n      dup3\n        /* \"#utility.yul\":24531:24678   */\n      tag_351\n      jump\t// in\n    tag_612:\n        /* \"#utility.yul\":24524:24678   */\n      swap2\n      pop\n        /* \"#utility.yul\":24695:24698   */\n      dup2\n        /* \"#utility.yul\":24688:24698   */\n      swap1\n      pop\n        /* \"#utility.yul\":24325:24704   */\n      swap2\n      swap1\n      pop\n      jump\t// out\n        /* \"#utility.yul\":24710:24889   */\n    tag_352:\n        /* \"#utility.yul\":24850:24881   */\n      0x4661696c656420746f2073656e642045544820746f206c696272617279000000\n        /* \"#utility.yul\":24846:24847   */\n      0x00\n        /* \"#utility.yul\":24838:24844   */\n      dup3\n        /* \"#utility.yul\":24834:24848   */\n      add\n        /* \"#utility.yul\":24827:24882   */\n      mstore\n        /* \"#utility.yul\":24710:24889   */\n      pop\n      jump\t// out\n        /* \"#utility.yul\":24895:25261   */\n    tag_353:\n        /* \"#utility.yul\":25037:25040   */\n      0x00\n        /* \"#utility.yul\":25058:25125   */\n      tag_615\n        /* \"#utility.yul\":25122:25124   */\n      0x1d\n        /* \"#utility.yul\":25117:25120   */\n      dup4\n        /* \"#utility.yul\":25058:25125   */\n      tag_312\n      jump\t// in\n    tag_615:\n        /* \"#utility.yul\":25051:25125   */\n      swap2\n      pop\n        /* \"#utility.yul\":25134:25227   */\n      tag_616\n        /* \"#utility.yul\":25223:25226   */\n      dup3\n        /* \"#utility.yul\":25134:25227   */\n      tag_352\n      jump\t// in\n    tag_616:\n        /* \"#utility.yul\":25252:25254   */\n      0x20\n        /* \"#utility.yul\":25247:25250   */\n      dup3\n        /* \"#utility.yul\":25243:25255   */\n      add\n        /* \"#utility.yul\":25236:25255   */\n      swap1\n      pop\n        /* \"#utility.yul\":24895:25261   */\n      swap2\n      swap1\n      pop\n      jump\t// out\n        /* \"#utility.yul\":25267:25686   */\n    tag_158:\n        /* \"#utility.yul\":25433:25437   */\n      0x00\n        /* \"#utility.yul\":25471:25473   */\n      0x20\n        /* \"#utility.yul\":25460:25469   */\n      dup3\n        /* \"#utility.yul\":25456:25474   */\n      add\n        /* \"#utility.yul\":25448:25474   */\n      swap1\n      pop\n        /* \"#utility.yul\":25520:25529   */\n      dup2\n        /* \"#utility.yul\":25514:25518   */\n      dup2\n        /* \"#utility.yul\":25510:25530   */\n      sub\n        /* \"#utility.yul\":25506:25507   */\n      0x00\n        /* \"#utility.yul\":25495:25504   */\n      dup4\n        /* \"#utility.yul\":25491:25508   */\n      add\n        /* \"#utility.yul\":25484:25531   */\n      mstore\n        /* \"#utility.yul\":25548:25679   */\n      tag_618\n        /* \"#utility.yul\":25674:25678   */\n      dup2\n        /* \"#utility.yul\":25548:25679   */\n      tag_353\n      jump\t// in\n    tag_618:\n        /* \"#utility.yul\":25540:25679   */\n      swap1\n      pop\n        /* \"#utility.yul\":25267:25686   */\n      swap2\n      swap1\n      pop\n      jump\t// out\n        /* \"#utility.yul\":25692:25869   */\n    tag_354:\n        /* \"#utility.yul\":25832:25861   */\n      0x4661696c656420746f20726566756e6420657863657373204554480000000000\n        /* \"#utility.yul\":25828:25829   */\n      0x00\n        /* \"#utility.yul\":25820:25826   */\n      dup3\n        /* \"#utility.yul\":25816:25830   */\n      add\n        /* \"#utility.yul\":25809:25862   */\n      mstore\n        /* \"#utility.yul\":25692:25869   */\n      pop\n      jump\t// out\n        /* \"#utility.yul\":25875:26241   */\n    tag_355:\n        /* \"#utility.yul\":26017:26020   */\n      0x00\n        /* \"#utility.yul\":26038:26105   */\n      tag_621\n        /* \"#utility.yul\":26102:26104   */\n      0x1b\n        /* \"#utility.yul\":26097:26100   */\n      dup4\n        /* \"#utility.yul\":26038:26105   */\n      tag_312\n      jump\t// in\n    tag_621:\n        /* \"#utility.yul\":26031:26105   */\n      swap2\n      pop\n        /* \"#utility.yul\":26114:26207   */\n      tag_622\n        /* \"#utility.yul\":26203:26206   */\n      dup3\n        /* \"#utility.yul\":26114:26207   */\n      tag_354\n      jump\t// in\n    tag_622:\n        /* \"#utility.yul\":26232:26234   */\n      0x20\n        /* \"#utility.yul\":26227:26230   */\n      dup3\n        /* \"#utility.yul\":26223:26235   */\n      add\n        /* \"#utility.yul\":26216:26235   */\n      swap1\n      pop\n        /* \"#utility.yul\":25875:26241   */\n      swap2\n      swap1\n      pop\n      jump\t// out\n        /* \"#utility.yul\":26247:26666   */\n    tag_167:\n        /* \"#utility.yul\":26413:26417   */\n      0x00\n        /* \"#utility.yul\":26451:26453   */\n      0x20\n        /* \"#utility.yul\":26440:26449   */\n      dup3\n        /* \"#utility.yul\":26436:26454   */\n      add\n        /* \"#utility.yul\":26428:26454   */\n      swap1\n      pop\n        /* \"#utility.yul\":26500:26509   */\n      dup2\n        /* \"#utility.yul\":26494:26498   */\n      dup2\n        /* \"#utility.yul\":26490:26510   */\n      sub\n        /* \"#utility.yul\":26486:26487   */\n      0x00\n        /* \"#utility.yul\":26475:26484   */\n      dup4\n        /* \"#utility.yul\":26471:26488   */\n      add\n        /* \"#utility.yul\":26464:26511   */\n      mstore\n        /* \"#utility.yul\":26528:26659   */\n      tag_624\n        /* \"#utility.yul\":26654:26658   */\n      dup2\n        /* \"#utility.yul\":26528:26659   */\n      tag_355\n      jump\t// in\n    tag_624:\n        /* \"#utility.yul\":26520:26659   */\n      swap1\n      pop\n        /* \"#utility.yul\":26247:26666   */\n      swap2\n      swap1\n      pop\n      jump\t// out\n        /* \"#utility.yul\":26672:26837   */\n    tag_356:\n        /* \"#utility.yul\":26812:26829   */\n      0x426f6f6b206e6f7420666f756e64210000000000000000000000000000000000\n        /* \"#utility.yul\":26808:26809   */\n      0x00\n        /* \"#utility.yul\":26800:26806   */\n      dup3\n        /* \"#utility.yul\":26796:26810   */\n      add\n        /* \"#utility.yul\":26789:26830   */\n      mstore\n        /* \"#utility.yul\":26672:26837   */\n      pop\n      jump\t// out\n        /* \"#utility.yul\":26843:27209   */\n    tag_357:\n        /* \"#utility.yul\":26985:26988   */\n      0x00\n        /* \"#utility.yul\":27006:27073   */\n      tag_627\n        /* \"#utility.yul\":27070:27072   */\n      0x0f\n        /* \"#utility.yul\":27065:27068   */\n      dup4\n        /* \"#utility.yul\":27006:27073   */\n      tag_312\n      jump\t// in\n    tag_627:\n        /* \"#utility.yul\":26999:27073   */\n      swap2\n      pop\n        /* \"#utility.yul\":27082:27175   */\n      tag_628\n        /* \"#utility.yul\":27171:27174   */\n      dup3\n        /* \"#utility.yul\":27082:27175   */\n      tag_356\n      jump\t// in\n    tag_628:\n        /* \"#utility.yul\":27200:27202   */\n      0x20\n        /* \"#utility.yul\":27195:27198   */\n      dup3\n        /* \"#utility.yul\":27191:27203   */\n      add\n        /* \"#utility.yul\":27184:27203   */\n      swap1\n      pop\n        /* \"#utility.yul\":26843:27209   */\n      swap2\n      swap1\n      pop\n      jump\t// out\n        /* \"#utility.yul\":27215:27634   */\n    tag_174:\n        /* \"#utility.yul\":27381:27385   */\n      0x00\n        /* \"#utility.yul\":27419:27421   */\n      0x20\n        /* \"#utility.yul\":27408:27417   */\n      dup3\n        /* \"#utility.yul\":27404:27422   */\n      add\n        /* \"#utility.yul\":27396:27422   */\n      swap1\n      pop\n        /* \"#utility.yul\":27468:27477   */\n      dup2\n        /* \"#utility.yul\":27462:27466   */\n      dup2\n        /* \"#utility.yul\":27458:27478   */\n      sub\n        /* \"#utility.yul\":27454:27455   */\n      0x00\n        /* \"#utility.yul\":27443:27452   */\n      dup4\n        /* \"#utility.yul\":27439:27456   */\n      add\n        /* \"#utility.yul\":27432:27479   */\n      mstore\n        /* \"#utility.yul\":27496:27627   */\n      tag_630\n        /* \"#utility.yul\":27622:27626   */\n      dup2\n        /* \"#utility.yul\":27496:27627   */\n      tag_357\n      jump\t// in\n    tag_630:\n        /* \"#utility.yul\":27488:27627   */\n      swap1\n      pop\n        /* \"#utility.yul\":27215:27634   */\n      swap2\n      swap1\n      pop\n      jump\t// out\n        /* \"#utility.yul\":27640:27809   */\n    tag_358:\n        /* \"#utility.yul\":27780:27801   */\n      0x426f6f6b206e6f7420617661696c61626c652100000000000000000000000000\n        /* \"#utility.yul\":27776:27777   */\n      0x00\n        /* \"#utility.yul\":27768:27774   */\n      dup3\n        /* \"#utility.yul\":27764:27778   */\n      add\n        /* \"#utility.yul\":27757:27802   */\n      mstore\n        /* \"#utility.yul\":27640:27809   */\n      pop\n      jump\t// out\n        /* \"#utility.yul\":27815:28181   */\n    tag_359:\n        /* \"#utility.yul\":27957:27960   */\n      0x00\n        /* \"#utility.yul\":27978:28045   */\n      tag_633\n        /* \"#utility.yul\":28042:28044   */\n      0x13\n        /* \"#utility.yul\":28037:28040   */\n      dup4\n        /* \"#utility.yul\":27978:28045   */\n      tag_312\n      jump\t// in\n    tag_633:\n        /* \"#utility.yul\":27971:28045   */\n      swap2\n      pop\n        /* \"#utility.yul\":28054:28147   */\n      tag_634\n        /* \"#utility.yul\":28143:28146   */\n      dup3\n        /* \"#utility.yul\":28054:28147   */\n      tag_358\n      jump\t// in\n    tag_634:\n        /* \"#utility.yul\":28172:28174   */\n      0x20\n        /* \"#utility.yul\":28167:28170   */\n      dup3\n        /* \"#utility.yul\":28163:28175   */\n      add\n        /* \"#utility.yul\":28156:28175   */\n      swap1\n      pop\n        /* \"#utility.yul\":27815:28181   */\n      swap2\n      swap1\n      pop\n      jump\t// out\n        /* \"#utility.yul\":28187:28606   */\n    tag_177:\n        /* \"#utility.yul\":28353:28357   */\n      0x00\n        /* \"#utility.yul\":28391:28393   */\n      0x20\n        /* \"#utility.yul\":28380:28389   */\n      dup3\n        /* \"#utility.yul\":28376:28394   */\n      add\n        /* \"#utility.yul\":28368:28394   */\n      swap1\n      pop\n        /* \"#utility.yul\":28440:28449   */\n      dup2\n        /* \"#utility.yul\":28434:28438   */\n      dup2\n        /* \"#utility.yul\":28430:28450   */\n      sub\n        /* \"#utility.yul\":28426:28427   */\n      0x00\n        /* \"#utility.yul\":28415:28424   */\n      dup4\n        /* \"#utility.yul\":28411:28428   */\n      add\n        /* \"#utility.yul\":28404:28451   */\n      mstore\n        /* \"#utility.yul\":28468:28599   */\n      tag_636\n        /* \"#utility.yul\":28594:28598   */\n      dup2\n        /* \"#utility.yul\":28468:28599   */\n      tag_359\n      jump\t// in\n    tag_636:\n        /* \"#utility.yul\":28460:28599   */\n      swap1\n      pop\n        /* \"#utility.yul\":28187:28606   */\n      swap2\n      swap1\n      pop\n      jump\t// out\n        /* \"#utility.yul\":28612:28779   */\n    tag_360:\n        /* \"#utility.yul\":28752:28771   */\n      0x416c726561647920626f72726f77656421000000000000000000000000000000\n        /* \"#utility.yul\":28748:28749   */\n      0x00\n        /* \"#utility.yul\":28740:28746   */\n      dup3\n        /* \"#utility.yul\":28736:28750   */\n      add\n        /* \"#utility.yul\":28729:28772   */\n      mstore\n        /* \"#utility.yul\":28612:28779   */\n      pop\n      jump\t// out\n        /* \"#utility.yul\":28785:29151   */\n    tag_361:\n        /* \"#utility.yul\":28927:28930   */\n      0x00\n        /* \"#utility.yul\":28948:29015   */\n      tag_639\n        /* \"#utility.yul\":29012:29014   */\n      0x11\n        /* \"#utility.yul\":29007:29010   */\n      dup4\n        /* \"#utility.yul\":28948:29015   */\n      tag_312\n      jump\t// in\n    tag_639:\n        /* \"#utility.yul\":28941:29015   */\n      swap2\n      pop\n        /* \"#utility.yul\":29024:29117   */\n      tag_640\n        /* \"#utility.yul\":29113:29116   */\n      dup3\n        /* \"#utility.yul\":29024:29117   */\n      tag_360\n      jump\t// in\n    tag_640:\n        /* \"#utility.yul\":29142:29144   */\n      0x20\n        /* \"#utility.yul\":29137:29140   */\n      dup3\n        /* \"#utility.yul\":29133:29145   */\n      add\n        /* \"#utility.yul\":29126:29145   */\n      swap1\n      pop\n        /* \"#utility.yul\":28785:29151   */\n      swap2\n      swap1\n      pop\n      jump\t// out\n        /* \"#utility.yul\":29157:29576   */\n    tag_180:\n        /* \"#utility.yul\":29323:29327   */\n      0x00\n        /* \"#utility.yul\":29361:29363   */\n      0x20\n        /* \"#utility.yul\":29350:29359   */\n      dup3\n        /* \"#utility.yul\":29346:29364   */\n      add\n        /* \"#utility.yul\":29338:29364   */\n      swap1\n      pop\n        /* \"#utility.yul\":29410:29419   */\n      dup2\n        /* \"#utility.yul\":29404:29408   */\n      dup2\n        /* \"#utility.yul\":29400:29420   */\n      sub\n        /* \"#utility.yul\":29396:29397   */\n      0x00\n        /* \"#utility.yul\":29385:29394   */\n      dup4\n        /* \"#utility.yul\":29381:29398   */\n      add\n        /* \"#utility.yul\":29374:29421   */\n      mstore\n        /* \"#utility.yul\":29438:29569   */\n      tag_642\n        /* \"#utility.yul\":29564:29568   */\n      dup2\n        /* \"#utility.yul\":29438:29569   */\n      tag_361\n      jump\t// in\n    tag_642:\n        /* \"#utility.yul\":29430:29569   */\n      swap1\n      pop\n        /* \"#utility.yul\":29157:29576   */\n      swap2\n      swap1\n      pop\n      jump\t// out\n        /* \"#utility.yul\":29582:29804   */\n    tag_182:\n        /* \"#utility.yul\":29675:29679   */\n      0x00\n        /* \"#utility.yul\":29713:29715   */\n      0x20\n        /* \"#utility.yul\":29702:29711   */\n      dup3\n        /* \"#utility.yul\":29698:29716   */\n      add\n        /* \"#utility.yul\":29690:29716   */\n      swap1\n      pop\n        /* \"#utility.yul\":29726:29797   */\n      tag_644\n        /* \"#utility.yul\":29794:29795   */\n      0x00\n        /* \"#utility.yul\":29783:29792   */\n      dup4\n        /* \"#utility.yul\":29779:29796   */\n      add\n        /* \"#utility.yul\":29770:29776   */\n      dup5\n        /* \"#utility.yul\":29726:29797   */\n      tag_316\n      jump\t// in\n    tag_644:\n        /* \"#utility.yul\":29582:29804   */\n      swap3\n      swap2\n      pop\n      pop\n      jump\t// out\n        /* \"#utility.yul\":29810:29926   */\n    tag_362:\n        /* \"#utility.yul\":29880:29901   */\n      tag_646\n        /* \"#utility.yul\":29895:29900   */\n      dup2\n        /* \"#utility.yul\":29880:29901   */\n      tag_308\n      jump\t// in\n    tag_646:\n        /* \"#utility.yul\":29873:29878   */\n      dup2\n        /* \"#utility.yul\":29870:29902   */\n      eq\n        /* \"#utility.yul\":29860:29920   */\n      tag_647\n      jumpi\n        /* \"#utility.yul\":29916:29917   */\n      0x00\n        /* \"#utility.yul\":29913:29914   */\n      0x00\n        /* \"#utility.yul\":29906:29918   */\n      revert\n        /* \"#utility.yul\":29860:29920   */\n    tag_647:\n        /* \"#utility.yul\":29810:29926   */\n      pop\n      jump\t// out\n        /* \"#utility.yul\":29932:30069   */\n    tag_363:\n        /* \"#utility.yul\":29986:29991   */\n      0x00\n        /* \"#utility.yul\":30017:30023   */\n      dup2\n        /* \"#utility.yul\":30011:30024   */\n      mload\n        /* \"#utility.yul\":30002:30024   */\n      swap1\n      pop\n        /* \"#utility.yul\":30033:30063   */\n      tag_649\n        /* \"#utility.yul\":30057:30062   */\n      dup2\n        /* \"#utility.yul\":30033:30063   */\n      tag_362\n      jump\t// in\n    tag_649:\n        /* \"#utility.yul\":29932:30069   */\n      swap3\n      swap2\n      pop\n      pop\n      jump\t// out\n        /* \"#utility.yul\":30075:30420   */\n    tag_186:\n        /* \"#utility.yul\":30142:30148   */\n      0x00\n        /* \"#utility.yul\":30191:30193   */\n      0x20\n        /* \"#utility.yul\":30179:30188   */\n      dup3\n        /* \"#utility.yul\":30170:30177   */\n      dup5\n        /* \"#utility.yul\":30166:30189   */\n      sub\n        /* \"#utility.yul\":30162:30194   */\n      slt\n        /* \"#utility.yul\":30159:30278   */\n      iszero\n      tag_651\n      jumpi\n        /* \"#utility.yul\":30197:30276   */\n      tag_652\n      tag_297\n      jump\t// in\n    tag_652:\n        /* \"#utility.yul\":30159:30278   */\n    tag_651:\n        /* \"#utility.yul\":30317:30318   */\n      0x00\n        /* \"#utility.yul\":30342:30403   */\n      tag_653\n        /* \"#utility.yul\":30395:30402   */\n      dup5\n        /* \"#utility.yul\":30386:30392   */\n      dup3\n        /* \"#utility.yul\":30375:30384   */\n      dup6\n        /* \"#utility.yul\":30371:30393   */\n      add\n        /* \"#utility.yul\":30342:30403   */\n      tag_363\n      jump\t// in\n    tag_653:\n        /* \"#utility.yul\":30332:30403   */\n      swap2\n      pop\n        /* \"#utility.yul\":30288:30413   */\n      pop\n        /* \"#utility.yul\":30075:30420   */\n      swap3\n      swap2\n      pop\n      pop\n      jump\t// out\n        /* \"#utility.yul\":30426:30595   */\n    tag_364:\n        /* \"#utility.yul\":30566:30587   */\n      0x4e6f7420656e6f756768204554482073656e7400000000000000000000000000\n        /* \"#utility.yul\":30562:30563   */\n      0x00\n        /* \"#utility.yul\":30554:30560   */\n      dup3\n        /* \"#utility.yul\":30550:30564   */\n      add\n        /* \"#utility.yul\":30543:30588   */\n      mstore\n        /* \"#utility.yul\":30426:30595   */\n      pop\n      jump\t// out\n        /* \"#utility.yul\":30601:30967   */\n    tag_365:\n        /* \"#utility.yul\":30743:30746   */\n      0x00\n        /* \"#utility.yul\":30764:30831   */\n      tag_656\n        /* \"#utility.yul\":30828:30830   */\n      0x13\n        /* \"#utility.yul\":30823:30826   */\n      dup4\n        /* \"#utility.yul\":30764:30831   */\n      tag_312\n      jump\t// in\n    tag_656:\n        /* \"#utility.yul\":30757:30831   */\n      swap2\n      pop\n        /* \"#utility.yul\":30840:30933   */\n      tag_657\n        /* \"#utility.yul\":30929:30932   */\n      dup3\n        /* \"#utility.yul\":30840:30933   */\n      tag_364\n      jump\t// in\n    tag_657:\n        /* \"#utility.yul\":30958:30960   */\n      0x20\n        /* \"#utility.yul\":30953:30956   */\n      dup3\n        /* \"#utility.yul\":30949:30961   */\n      add\n        /* \"#utility.yul\":30942:30961   */\n      swap1\n      pop\n        /* \"#utility.yul\":30601:30967   */\n      swap2\n      swap1\n      pop\n      jump\t// out\n        /* \"#utility.yul\":30973:31392   */\n    tag_191:\n        /* \"#utility.yul\":31139:31143   */\n      0x00\n        /* \"#utility.yul\":31177:31179   */\n      0x20\n        /* \"#utility.yul\":31166:31175   */\n      dup3\n        /* \"#utility.yul\":31162:31180   */\n      add\n        /* \"#utility.yul\":31154:31180   */\n      swap1\n      pop\n        /* \"#utility.yul\":31226:31235   */\n      dup2\n        /* \"#utility.yul\":31220:31224   */\n      dup2\n        /* \"#utility.yul\":31216:31236   */\n      sub\n        /* \"#utility.yul\":31212:31213   */\n      0x00\n        /* \"#utility.yul\":31201:31210   */\n      dup4\n        /* \"#utility.yul\":31197:31214   */\n      add\n        /* \"#utility.yul\":31190:31237   */\n      mstore\n        /* \"#utility.yul\":31254:31385   */\n      tag_659\n        /* \"#utility.yul\":31380:31384   */\n      dup2\n        /* \"#utility.yul\":31254:31385   */\n      tag_365\n      jump\t// in\n    tag_659:\n        /* \"#utility.yul\":31246:31385   */\n      swap1\n      pop\n        /* \"#utility.yul\":30973:31392   */\n      swap2\n      swap1\n      pop\n      jump\t// out\n        /* \"#utility.yul\":31398:31578   */\n    tag_222:\n        /* \"#utility.yul\":31446:31523   */\n      0x4e487b7100000000000000000000000000000000000000000000000000000000\n        /* \"#utility.yul\":31443:31444   */\n      0x00\n        /* \"#utility.yul\":31436:31524   */\n      mstore\n        /* \"#utility.yul\":31543:31547   */\n      0x32\n        /* \"#utility.yul\":31540:31541   */\n      0x04\n        /* \"#utility.yul\":31533:31548   */\n      mstore\n        /* \"#utility.yul\":31567:31571   */\n      0x24\n        /* \"#utility.yul\":31564:31565   */\n      0x00\n        /* \"#utility.yul\":31557:31572   */\n      revert\n        /* \"#utility.yul\":31584:31751   */\n    tag_366:\n        /* \"#utility.yul\":31724:31743   */\n      0x4e6f74206c6962726172792061646d696e000000000000000000000000000000\n        /* \"#utility.yul\":31720:31721   */\n      0x00\n        /* \"#utility.yul\":31712:31718   */\n      dup3\n        /* \"#utility.yul\":31708:31722   */\n      add\n        /* \"#utility.yul\":31701:31744   */\n      mstore\n        /* \"#utility.yul\":31584:31751   */\n      pop\n      jump\t// out\n        /* \"#utility.yul\":31757:32123   */\n    tag_367:\n        /* \"#utility.yul\":31899:31902   */\n      0x00\n        /* \"#utility.yul\":31920:31987   */\n      tag_663\n        /* \"#utility.yul\":31984:31986   */\n      0x11\n        /* \"#utility.yul\":31979:31982   */\n      dup4\n        /* \"#utility.yul\":31920:31987   */\n      tag_312\n      jump\t// in\n    tag_663:\n        /* \"#utility.yul\":31913:31987   */\n      swap2\n      pop\n        /* \"#utility.yul\":31996:32089   */\n      tag_664\n        /* \"#utility.yul\":32085:32088   */\n      dup3\n        /* \"#utility.yul\":31996:32089   */\n      tag_366\n      jump\t// in\n    tag_664:\n        /* \"#utility.yul\":32114:32116   */\n      0x20\n        /* \"#utility.yul\":32109:32112   */\n      dup3\n        /* \"#utility.yul\":32105:32117   */\n      add\n        /* \"#utility.yul\":32098:32117   */\n      swap1\n      pop\n        /* \"#utility.yul\":31757:32123   */\n      swap2\n      swap1\n      pop\n      jump\t// out\n        /* \"#utility.yul\":32129:32548   */\n    tag_246:\n        /* \"#utility.yul\":32295:32299   */\n      0x00\n        /* \"#utility.yul\":32333:32335   */\n      0x20\n        /* \"#utility.yul\":32322:32331   */\n      dup3\n        /* \"#utility.yul\":32318:32336   */\n      add\n        /* \"#utility.yul\":32310:32336   */\n      swap1\n      pop\n        /* \"#utility.yul\":32382:32391   */\n      dup2\n        /* \"#utility.yul\":32376:32380   */\n      dup2\n        /* \"#utility.yul\":32372:32392   */\n      sub\n        /* \"#utility.yul\":32368:32369   */\n      0x00\n        /* \"#utility.yul\":32357:32366   */\n      dup4\n        /* \"#utility.yul\":32353:32370   */\n      add\n        /* \"#utility.yul\":32346:32393   */\n      mstore\n        /* \"#utility.yul\":32410:32541   */\n      tag_666\n        /* \"#utility.yul\":32536:32540   */\n      dup2\n        /* \"#utility.yul\":32410:32541   */\n      tag_367\n      jump\t// in\n    tag_666:\n        /* \"#utility.yul\":32402:32541   */\n      swap1\n      pop\n        /* \"#utility.yul\":32129:32548   */\n      swap2\n      swap1\n      pop\n      jump\t// out\n        /* \"#utility.yul\":32554:32726   */\n    tag_368:\n        /* \"#utility.yul\":32694:32718   */\n      0x5469746c652063616e6e6f7420626520656d7074792100000000000000000000\n        /* \"#utility.yul\":32690:32691   */\n      0x00\n        /* \"#utility.yul\":32682:32688   */\n      dup3\n        /* \"#utility.yul\":32678:32692   */\n      add\n        /* \"#utility.yul\":32671:32719   */\n      mstore\n        /* \"#utility.yul\":32554:32726   */\n      pop\n      jump\t// out\n        /* \"#utility.yul\":32732:33098   */\n    tag_369:\n        /* \"#utility.yul\":32874:32877   */\n      0x00\n        /* \"#utility.yul\":32895:32962   */\n      tag_669\n        /* \"#utility.yul\":32959:32961   */\n      0x16\n        /* \"#utility.yul\":32954:32957   */\n      dup4\n        /* \"#utility.yul\":32895:32962   */\n      tag_312\n      jump\t// in\n    tag_669:\n        /* \"#utility.yul\":32888:32962   */\n      swap2\n      pop\n        /* \"#utility.yul\":32971:33064   */\n      tag_670\n        /* \"#utility.yul\":33060:33063   */\n      dup3\n        /* \"#utility.yul\":32971:33064   */\n      tag_368\n      jump\t// in\n    tag_670:\n        /* \"#utility.yul\":33089:33091   */\n      0x20\n        /* \"#utility.yul\":33084:33087   */\n      dup3\n        /* \"#utility.yul\":33080:33092   */\n      add\n        /* \"#utility.yul\":33073:33092   */\n      swap1\n      pop\n        /* \"#utility.yul\":32732:33098   */\n      swap2\n      swap1\n      pop\n      jump\t// out\n        /* \"#utility.yul\":33104:33523   */\n    tag_250:\n        /* \"#utility.yul\":33270:33274   */\n      0x00\n        /* \"#utility.yul\":33308:33310   */\n      0x20\n        /* \"#utility.yul\":33297:33306   */\n      dup3\n        /* \"#utility.yul\":33293:33311   */\n      add\n        /* \"#utility.yul\":33285:33311   */\n      swap1\n      pop\n        /* \"#utility.yul\":33357:33366   */\n      dup2\n        /* \"#utility.yul\":33351:33355   */\n      dup2\n        /* \"#utility.yul\":33347:33367   */\n      sub\n        /* \"#utility.yul\":33343:33344   */\n      0x00\n        /* \"#utility.yul\":33332:33341   */\n      dup4\n        /* \"#utility.yul\":33328:33345   */\n      add\n        /* \"#utility.yul\":33321:33368   */\n      mstore\n        /* \"#utility.yul\":33385:33516   */\n      tag_672\n        /* \"#utility.yul\":33511:33515   */\n      dup2\n        /* \"#utility.yul\":33385:33516   */\n      tag_369\n      jump\t// in\n    tag_672:\n        /* \"#utility.yul\":33377:33516   */\n      swap1\n      pop\n        /* \"#utility.yul\":33104:33523   */\n      swap2\n      swap1\n      pop\n      jump\t// out\n        /* \"#utility.yul\":33529:33702   */\n    tag_370:\n        /* \"#utility.yul\":33669:33694   */\n      0x417574686f722063616e6e6f7420626520656d70747921000000000000000000\n        /* \"#utility.yul\":33665:33666   */\n      0x00\n        /* \"#utility.yul\":33657:33663   */\n      dup3\n        /* \"#utility.yul\":33653:33667   */\n      add\n        /* \"#utility.yul\":33646:33695   */\n      mstore\n        /* \"#utility.yul\":33529:33702   */\n      pop\n      jump\t// out\n        /* \"#utility.yul\":33708:34074   */\n    tag_371:\n        /* \"#utility.yul\":33850:33853   */\n      0x00\n        /* \"#utility.yul\":33871:33938   */\n      tag_675\n        /* \"#utility.yul\":33935:33937   */\n      0x17\n        /* \"#utility.yul\":33930:33933   */\n      dup4\n        /* \"#utility.yul\":33871:33938   */\n      tag_312\n      jump\t// in\n    tag_675:\n        /* \"#utility.yul\":33864:33938   */\n      swap2\n      pop\n        /* \"#utility.yul\":33947:34040   */\n      tag_676\n        /* \"#utility.yul\":34036:34039   */\n      dup3\n        /* \"#utility.yul\":33947:34040   */\n      tag_370\n      jump\t// in\n    tag_676:\n        /* \"#utility.yul\":34065:34067   */\n      0x20\n        /* \"#utility.yul\":34060:34063   */\n      dup3\n        /* \"#utility.yul\":34056:34068   */\n      add\n        /* \"#utility.yul\":34049:34068   */\n      swap1\n      pop\n        /* \"#utility.yul\":33708:34074   */\n      swap2\n      swap1\n      pop\n      jump\t// out\n        /* \"#utility.yul\":34080:34499   */\n    tag_253:\n        /* \"#utility.yul\":34246:34250   */\n      0x00\n        /* \"#utility.yul\":34284:34286   */\n      0x20\n        /* \"#utility.yul\":34273:34282   */\n      dup3\n        /* \"#utility.yul\":34269:34287   */\n      add\n        /* \"#utility.yul\":34261:34287   */\n      swap1\n      pop\n        /* \"#utility.yul\":34333:34342   */\n      dup2\n        /* \"#utility.yul\":34327:34331   */\n      dup2\n        /* \"#utility.yul\":34323:34343   */\n      sub\n        /* \"#utility.yul\":34319:34320   */\n      0x00\n        /* \"#utility.yul\":34308:34317   */\n      dup4\n        /* \"#utility.yul\":34304:34321   */\n      add\n        /* \"#utility.yul\":34297:34344   */\n      mstore\n        /* \"#utility.yul\":34361:34492   */\n      tag_678\n        /* \"#utility.yul\":34487:34491   */\n      dup2\n        /* \"#utility.yul\":34361:34492   */\n      tag_371\n      jump\t// in\n    tag_678:\n        /* \"#utility.yul\":34353:34492   */\n      swap1\n      pop\n        /* \"#utility.yul\":34080:34499   */\n      swap2\n      swap1\n      pop\n      jump\t// out\n        /* \"#utility.yul\":34505:34677   */\n    tag_372:\n        /* \"#utility.yul\":34645:34669   */\n      0x47656e72652063616e6e6f7420626520656d7074792100000000000000000000\n        /* \"#utility.yul\":34641:34642   */\n      0x00\n        /* \"#utility.yul\":34633:34639   */\n      dup3\n        /* \"#utility.yul\":34629:34643   */\n      add\n        /* \"#utility.yul\":34622:34670   */\n      mstore\n        /* \"#utility.yul\":34505:34677   */\n      pop\n      jump\t// out\n        /* \"#utility.yul\":34683:35049   */\n    tag_373:\n        /* \"#utility.yul\":34825:34828   */\n      0x00\n        /* \"#utility.yul\":34846:34913   */\n      tag_681\n        /* \"#utility.yul\":34910:34912   */\n      0x16\n        /* \"#utility.yul\":34905:34908   */\n      dup4\n        /* \"#utility.yul\":34846:34913   */\n      tag_312\n      jump\t// in\n    tag_681:\n        /* \"#utility.yul\":34839:34913   */\n      swap2\n      pop\n        /* \"#utility.yul\":34922:35015   */\n      tag_682\n        /* \"#utility.yul\":35011:35014   */\n      dup3\n        /* \"#utility.yul\":34922:35015   */\n      tag_372\n      jump\t// in\n    tag_682:\n        /* \"#utility.yul\":35040:35042   */\n      0x20\n        /* \"#utility.yul\":35035:35038   */\n      dup3\n        /* \"#utility.yul\":35031:35043   */\n      add\n        /* \"#utility.yul\":35024:35043   */\n      swap1\n      pop\n        /* \"#utility.yul\":34683:35049   */\n      swap2\n      swap1\n      pop\n      jump\t// out\n        /* \"#utility.yul\":35055:35474   */\n    tag_256:\n        /* \"#utility.yul\":35221:35225   */\n      0x00\n        /* \"#utility.yul\":35259:35261   */\n      0x20\n        /* \"#utility.yul\":35248:35257   */\n      dup3\n        /* \"#utility.yul\":35244:35262   */\n      add\n        /* \"#utility.yul\":35236:35262   */\n      swap1\n      pop\n        /* \"#utility.yul\":35308:35317   */\n      dup2\n        /* \"#utility.yul\":35302:35306   */\n      dup2\n        /* \"#utility.yul\":35298:35318   */\n      sub\n        /* \"#utility.yul\":35294:35295   */\n      0x00\n        /* \"#utility.yul\":35283:35292   */\n      dup4\n        /* \"#utility.yul\":35279:35296   */\n      add\n        /* \"#utility.yul\":35272:35319   */\n      mstore\n        /* \"#utility.yul\":35336:35467   */\n      tag_684\n        /* \"#utility.yul\":35462:35466   */\n      dup2\n        /* \"#utility.yul\":35336:35467   */\n      tag_373\n      jump\t// in\n    tag_684:\n        /* \"#utility.yul\":35328:35467   */\n      swap1\n      pop\n        /* \"#utility.yul\":35055:35474   */\n      swap2\n      swap1\n      pop\n      jump\t// out\n        /* \"#utility.yul\":35480:35661   */\n    tag_374:\n        /* \"#utility.yul\":35620:35653   */\n      0x5175616e74697479206d7573742062652067726561746572207468616e203000\n        /* \"#utility.yul\":35616:35617   */\n      0x00\n        /* \"#utility.yul\":35608:35614   */\n      dup3\n        /* \"#utility.yul\":35604:35618   */\n      add\n        /* \"#utility.yul\":35597:35654   */\n      mstore\n        /* \"#utility.yul\":35480:35661   */\n      pop\n      jump\t// out\n        /* \"#utility.yul\":35667:36033   */\n    tag_375:\n        /* \"#utility.yul\":35809:35812   */\n      0x00\n        /* \"#utility.yul\":35830:35897   */\n      tag_687\n        /* \"#utility.yul\":35894:35896   */\n      0x1f\n        /* \"#utility.yul\":35889:35892   */\n      dup4\n        /* \"#utility.yul\":35830:35897   */\n      tag_312\n      jump\t// in\n    tag_687:\n        /* \"#utility.yul\":35823:35897   */\n      swap2\n      pop\n        /* \"#utility.yul\":35906:35999   */\n      tag_688\n        /* \"#utility.yul\":35995:35998   */\n      dup3\n        /* \"#utility.yul\":35906:35999   */\n      tag_374\n      jump\t// in\n    tag_688:\n        /* \"#utility.yul\":36024:36026   */\n      0x20\n        /* \"#utility.yul\":36019:36022   */\n      dup3\n        /* \"#utility.yul\":36015:36027   */\n      add\n        /* \"#utility.yul\":36008:36027   */\n      swap1\n      pop\n        /* \"#utility.yul\":35667:36033   */\n      swap2\n      swap1\n      pop\n      jump\t// out\n        /* \"#utility.yul\":36039:36458   */\n    tag_259:\n        /* \"#utility.yul\":36205:36209   */\n      0x00\n        /* \"#utility.yul\":36243:36245   */\n      0x20\n        /* \"#utility.yul\":36232:36241   */\n      dup3\n        /* \"#utility.yul\":36228:36246   */\n      add\n        /* \"#utility.yul\":36220:36246   */\n      swap1\n      pop\n        /* \"#utility.yul\":36292:36301   */\n      dup2\n        /* \"#utility.yul\":36286:36290   */\n      dup2\n        /* \"#utility.yul\":36282:36302   */\n      sub\n        /* \"#utility.yul\":36278:36279   */\n      0x00\n        /* \"#utility.yul\":36267:36276   */\n      dup4\n        /* \"#utility.yul\":36263:36280   */\n      add\n        /* \"#utility.yul\":36256:36303   */\n      mstore\n        /* \"#utility.yul\":36320:36451   */\n      tag_690\n        /* \"#utility.yul\":36446:36450   */\n      dup2\n        /* \"#utility.yul\":36320:36451   */\n      tag_375\n      jump\t// in\n    tag_690:\n        /* \"#utility.yul\":36312:36451   */\n      swap1\n      pop\n        /* \"#utility.yul\":36039:36458   */\n      swap2\n      swap1\n      pop\n      jump\t// out\n        /* \"#utility.yul\":36464:36642   */\n    tag_376:\n        /* \"#utility.yul\":36604:36634   */\n      0x5072696365206d7573742062652067726561746572207468616e203000000000\n        /* \"#utility.yul\":36600:36601   */\n      0x00\n        /* \"#utility.yul\":36592:36598   */\n      dup3\n        /* \"#utility.yul\":36588:36602   */\n      add\n        /* \"#utility.yul\":36581:36635   */\n      mstore\n        /* \"#utility.yul\":36464:36642   */\n      pop\n      jump\t// out\n        /* \"#utility.yul\":36648:37014   */\n    tag_377:\n        /* \"#utility.yul\":36790:36793   */\n      0x00\n        /* \"#utility.yul\":36811:36878   */\n      tag_693\n        /* \"#utility.yul\":36875:36877   */\n      0x1c\n        /* \"#utility.yul\":36870:36873   */\n      dup4\n        /* \"#utility.yul\":36811:36878   */\n      tag_312\n      jump\t// in\n    tag_693:\n        /* \"#utility.yul\":36804:36878   */\n      swap2\n      pop\n        /* \"#utility.yul\":36887:36980   */\n      tag_694\n        /* \"#utility.yul\":36976:36979   */\n      dup3\n        /* \"#utility.yul\":36887:36980   */\n      tag_376\n      jump\t// in\n    tag_694:\n        /* \"#utility.yul\":37005:37007   */\n      0x20\n        /* \"#utility.yul\":37000:37003   */\n      dup3\n        /* \"#utility.yul\":36996:37008   */\n      add\n        /* \"#utility.yul\":36989:37008   */\n      swap1\n      pop\n        /* \"#utility.yul\":36648:37014   */\n      swap2\n      swap1\n      pop\n      jump\t// out\n        /* \"#utility.yul\":37020:37439   */\n    tag_262:\n        /* \"#utility.yul\":37186:37190   */\n      0x00\n        /* \"#utility.yul\":37224:37226   */\n      0x20\n        /* \"#utility.yul\":37213:37222   */\n      dup3\n        /* \"#utility.yul\":37209:37227   */\n      add\n        /* \"#utility.yul\":37201:37227   */\n      swap1\n      pop\n        /* \"#utility.yul\":37273:37282   */\n      dup2\n        /* \"#utility.yul\":37267:37271   */\n      dup2\n        /* \"#utility.yul\":37263:37283   */\n      sub\n        /* \"#utility.yul\":37259:37260   */\n      0x00\n        /* \"#utility.yul\":37248:37257   */\n      dup4\n        /* \"#utility.yul\":37244:37261   */\n      add\n        /* \"#utility.yul\":37237:37284   */\n      mstore\n        /* \"#utility.yul\":37301:37432   */\n      tag_696\n        /* \"#utility.yul\":37427:37431   */\n      dup2\n        /* \"#utility.yul\":37301:37432   */\n      tag_377\n      jump\t// in\n    tag_696:\n        /* \"#utility.yul\":37293:37432   */\n      swap1\n      pop\n        /* \"#utility.yul\":37020:37439   */\n      swap2\n      swap1\n      pop\n      jump\t// out\n        /* \"#utility.yul\":37445:37593   */\n    tag_378:\n        /* \"#utility.yul\":37547:37558   */\n      0x00\n        /* \"#utility.yul\":37584:37587   */\n      dup2\n        /* \"#utility.yul\":37569:37587   */\n      swap1\n      pop\n        /* \"#utility.yul\":37445:37593   */\n      swap3\n      swap2\n      pop\n      pop\n      jump\t// out\n        /* \"#utility.yul\":37599:37989   */\n    tag_379:\n        /* \"#utility.yul\":37705:37708   */\n      0x00\n        /* \"#utility.yul\":37733:37772   */\n      tag_699\n        /* \"#utility.yul\":37766:37771   */\n      dup3\n        /* \"#utility.yul\":37733:37772   */\n      tag_303\n      jump\t// in\n    tag_699:\n        /* \"#utility.yul\":37788:37877   */\n      tag_700\n        /* \"#utility.yul\":37870:37876   */\n      dup2\n        /* \"#utility.yul\":37865:37868   */\n      dup6\n        /* \"#utility.yul\":37788:37877   */\n      tag_378\n      jump\t// in\n    tag_700:\n        /* \"#utility.yul\":37781:37877   */\n      swap4\n      pop\n        /* \"#utility.yul\":37886:37951   */\n      tag_701\n        /* \"#utility.yul\":37944:37950   */\n      dup2\n        /* \"#utility.yul\":37939:37942   */\n      dup6\n        /* \"#utility.yul\":37932:37936   */\n      0x20\n        /* \"#utility.yul\":37925:37930   */\n      dup7\n        /* \"#utility.yul\":37921:37937   */\n      add\n        /* \"#utility.yul\":37886:37951   */\n      tag_305\n      jump\t// in\n    tag_701:\n        /* \"#utility.yul\":37976:37982   */\n      dup1\n        /* \"#utility.yul\":37971:37974   */\n      dup5\n        /* \"#utility.yul\":37967:37983   */\n      add\n        /* \"#utility.yul\":37960:37983   */\n      swap2\n      pop\n        /* \"#utility.yul\":37709:37989   */\n      pop\n        /* \"#utility.yul\":37599:37989   */\n      swap3\n      swap2\n      pop\n      pop\n      jump\t// out\n        /* \"#utility.yul\":37995:38430   */\n    tag_266:\n        /* \"#utility.yul\":38175:38178   */\n      0x00\n        /* \"#utility.yul\":38197:38292   */\n      tag_703\n        /* \"#utility.yul\":38288:38291   */\n      dup3\n        /* \"#utility.yul\":38279:38285   */\n      dup6\n        /* \"#utility.yul\":38197:38292   */\n      tag_379\n      jump\t// in\n    tag_703:\n        /* \"#utility.yul\":38190:38292   */\n      swap2\n      pop\n        /* \"#utility.yul\":38309:38404   */\n      tag_704\n        /* \"#utility.yul\":38400:38403   */\n      dup3\n        /* \"#utility.yul\":38391:38397   */\n      dup5\n        /* \"#utility.yul\":38309:38404   */\n      tag_379\n      jump\t// in\n    tag_704:\n        /* \"#utility.yul\":38302:38404   */\n      swap2\n      pop\n        /* \"#utility.yul\":38421:38424   */\n      dup2\n        /* \"#utility.yul\":38414:38424   */\n      swap1\n      pop\n        /* \"#utility.yul\":37995:38430   */\n      swap4\n      swap3\n      pop\n      pop\n      pop\n      jump\t// out\n        /* \"#utility.yul\":38436:38663   */\n    tag_380:\n        /* \"#utility.yul\":38576:38610   */\n      0x5468697320626f6f6b206279207468697320617574686f7220616c7265616479\n        /* \"#utility.yul\":38572:38573   */\n      0x00\n        /* \"#utility.yul\":38564:38570   */\n      dup3\n        /* \"#utility.yul\":38560:38574   */\n      add\n        /* \"#utility.yul\":38553:38611   */\n      mstore\n        /* \"#utility.yul\":38645:38655   */\n      0x2065786973747321000000000000000000000000000000000000000000000000\n        /* \"#utility.yul\":38640:38642   */\n      0x20\n        /* \"#utility.yul\":38632:38638   */\n      dup3\n        /* \"#utility.yul\":38628:38643   */\n      add\n        /* \"#utility.yul\":38621:38656   */\n      mstore\n        /* \"#utility.yul\":38436:38663   */\n      pop\n      jump\t// out\n        /* \"#utility.yul\":38669:39035   */\n    tag_381:\n        /* \"#utility.yul\":38811:38814   */\n      0x00\n        /* \"#utility.yul\":38832:38899   */\n      tag_707\n        /* \"#utility.yul\":38896:38898   */\n      0x28\n        /* \"#utility.yul\":38891:38894   */\n      dup4\n        /* \"#utility.yul\":38832:38899   */\n      tag_312\n      jump\t// in\n    tag_707:\n        /* \"#utility.yul\":38825:38899   */\n      swap2\n      pop\n        /* \"#utility.yul\":38908:39001   */\n      tag_708\n        /* \"#utility.yul\":38997:39000   */\n      dup3\n        /* \"#utility.yul\":38908:39001   */\n      tag_380\n      jump\t// in\n    tag_708:\n        /* \"#utility.yul\":39026:39028   */\n      0x40\n        /* \"#utility.yul\":39021:39024   */\n      dup3\n        /* \"#utility.yul\":39017:39029   */\n      add\n        /* \"#utility.yul\":39010:39029   */\n      swap1\n      pop\n        /* \"#utility.yul\":38669:39035   */\n      swap2\n      swap1\n      pop\n      jump\t// out\n        /* \"#utility.yul\":39041:39460   */\n    tag_269:\n        /* \"#utility.yul\":39207:39211   */\n      0x00\n        /* \"#utility.yul\":39245:39247   */\n      0x20\n        /* \"#utility.yul\":39234:39243   */\n      dup3\n        /* \"#utility.yul\":39230:39248   */\n      add\n        /* \"#utility.yul\":39222:39248   */\n      swap1\n      pop\n        /* \"#utility.yul\":39294:39303   */\n      dup2\n        /* \"#utility.yul\":39288:39292   */\n      dup2\n        /* \"#utility.yul\":39284:39304   */\n      sub\n        /* \"#utility.yul\":39280:39281   */\n      0x00\n        /* \"#utility.yul\":39269:39278   */\n      dup4\n        /* \"#utility.yul\":39265:39282   */\n      add\n        /* \"#utility.yul\":39258:39305   */\n      mstore\n        /* \"#utility.yul\":39322:39453   */\n      tag_710\n        /* \"#utility.yul\":39448:39452   */\n      dup2\n        /* \"#utility.yul\":39322:39453   */\n      tag_381\n      jump\t// in\n    tag_710:\n        /* \"#utility.yul\":39314:39453   */\n      swap1\n      pop\n        /* \"#utility.yul\":39041:39460   */\n      swap2\n      swap1\n      pop\n      jump\t// out\n        /* \"#utility.yul\":39466:39657   */\n    tag_271:\n        /* \"#utility.yul\":39506:39509   */\n      0x00\n        /* \"#utility.yul\":39525:39545   */\n      tag_712\n        /* \"#utility.yul\":39543:39544   */\n      dup3\n        /* \"#utility.yul\":39525:39545   */\n      tag_299\n      jump\t// in\n    tag_712:\n        /* \"#utility.yul\":39520:39545   */\n      swap2\n      pop\n        /* \"#utility.yul\":39559:39579   */\n      tag_713\n        /* \"#utility.yul\":39577:39578   */\n      dup4\n        /* \"#utility.yul\":39559:39579   */\n      tag_299\n      jump\t// in\n    tag_713:\n        /* \"#utility.yul\":39554:39579   */\n      swap3\n      pop\n        /* \"#utility.yul\":39602:39603   */\n      dup3\n        /* \"#utility.yul\":39599:39600   */\n      dup3\n        /* \"#utility.yul\":39595:39604   */\n      add\n        /* \"#utility.yul\":39588:39604   */\n      swap1\n      pop\n        /* \"#utility.yul\":39623:39626   */\n      dup1\n        /* \"#utility.yul\":39620:39621   */\n      dup3\n        /* \"#utility.yul\":39617:39627   */\n      gt\n        /* \"#utility.yul\":39614:39650   */\n      iszero\n      tag_714\n      jumpi\n        /* \"#utility.yul\":39630:39648   */\n      tag_715\n      tag_348\n      jump\t// in\n    tag_715:\n        /* \"#utility.yul\":39614:39650   */\n    tag_714:\n        /* \"#utility.yul\":39466:39657   */\n      swap3\n      swap2\n      pop\n      pop\n      jump\t// out\n        /* \"#utility.yul\":39663:39804   */\n    tag_382:\n        /* \"#utility.yul\":39712:39716   */\n      0x00\n        /* \"#utility.yul\":39735:39738   */\n      dup2\n        /* \"#utility.yul\":39727:39738   */\n      swap1\n      pop\n        /* \"#utility.yul\":39758:39761   */\n      dup2\n        /* \"#utility.yul\":39755:39756   */\n      0x00\n        /* \"#utility.yul\":39748:39762   */\n      mstore\n        /* \"#utility.yul\":39792:39796   */\n      0x20\n        /* \"#utility.yul\":39789:39790   */\n      0x00\n        /* \"#utility.yul\":39779:39797   */\n      keccak256\n        /* \"#utility.yul\":39771:39797   */\n      swap1\n      pop\n        /* \"#utility.yul\":39663:39804   */\n      swap2\n      swap1\n      pop\n      jump\t// out\n        /* \"#utility.yul\":39810:39903   */\n    tag_383:\n        /* \"#utility.yul\":39847:39853   */\n      0x00\n        /* \"#utility.yul\":39894:39896   */\n      0x20\n        /* \"#utility.yul\":39889:39891   */\n      0x1f\n        /* \"#utility.yul\":39882:39887   */\n      dup4\n        /* \"#utility.yul\":39878:39892   */\n      add\n        /* \"#utility.yul\":39874:39897   */\n      div\n        /* \"#utility.yul\":39864:39897   */\n      swap1\n      pop\n        /* \"#utility.yul\":39810:39903   */\n      swap2\n      swap1\n      pop\n      jump\t// out\n        /* \"#utility.yul\":39909:40016   */\n    tag_384:\n        /* \"#utility.yul\":39953:39961   */\n      0x00\n        /* \"#utility.yul\":40003:40008   */\n      dup3\n        /* \"#utility.yul\":39997:40001   */\n      dup3\n        /* \"#utility.yul\":39993:40009   */\n      shl\n        /* \"#utility.yul\":39972:40009   */\n      swap1\n      pop\n        /* \"#utility.yul\":39909:40016   */\n      swap3\n      swap2\n      pop\n      pop\n      jump\t// out\n        /* \"#utility.yul\":40022:40415   */\n    tag_385:\n        /* \"#utility.yul\":40091:40097   */\n      0x00\n        /* \"#utility.yul\":40141:40142   */\n      0x08\n        /* \"#utility.yul\":40129:40139   */\n      dup4\n        /* \"#utility.yul\":40125:40143   */\n      mul\n        /* \"#utility.yul\":40164:40261   */\n      tag_720\n        /* \"#utility.yul\":40194:40260   */\n      0xffffffffffffffffffffffffffffffffffffffffffffffffffffffffffffffff\n        /* \"#utility.yul\":40183:40192   */\n      dup3\n        /* \"#utility.yul\":40164:40261   */\n      tag_384\n      jump\t// in\n    tag_720:\n        /* \"#utility.yul\":40282:40321   */\n      tag_721\n        /* \"#utility.yul\":40312:40320   */\n      dup7\n        /* \"#utility.yul\":40301:40310   */\n      dup4\n        /* \"#utility.yul\":40282:40321   */\n      tag_384\n      jump\t// in\n    tag_721:\n        /* \"#utility.yul\":40270:40321   */\n      swap6\n      pop\n        /* \"#utility.yul\":40354:40358   */\n      dup1\n        /* \"#utility.yul\":40350:40359   */\n      not\n        /* \"#utility.yul\":40343:40348   */\n      dup5\n        /* \"#utility.yul\":40339:40360   */\n      and\n        /* \"#utility.yul\":40330:40360   */\n      swap4\n      pop\n        /* \"#utility.yul\":40403:40407   */\n      dup1\n        /* \"#utility.yul\":40393:40401   */\n      dup7\n        /* \"#utility.yul\":40389:40408   */\n      and\n        /* \"#utility.yul\":40382:40387   */\n      dup5\n        /* \"#utility.yul\":40379:40409   */\n      or\n        /* \"#utility.yul\":40369:40409   */\n      swap3\n      pop\n        /* \"#utility.yul\":40098:40415   */\n      pop\n      pop\n        /* \"#utility.yul\":40022:40415   */\n      swap4\n      swap3\n      pop\n      pop\n      pop\n      jump\t// out\n        /* \"#utility.yul\":40421:40563   */\n    tag_386:\n        /* \"#utility.yul\":40471:40480   */\n      0x00\n        /* \"#utility.yul\":40504:40557   */\n      tag_723\n        /* \"#utility.yul\":40522:40556   */\n      tag_724\n        /* \"#utility.yul\":40531:40555   */\n      tag_725\n        /* \"#utility.yul\":40549:40554   */\n      dup5\n        /* \"#utility.yul\":40531:40555   */\n      tag_299\n      jump\t// in\n    tag_725:\n        /* \"#utility.yul\":40522:40556   */\n      tag_332\n      jump\t// in\n    tag_724:\n        /* \"#utility.yul\":40504:40557   */\n      tag_299\n      jump\t// in\n    tag_723:\n        /* \"#utility.yul\":40491:40557   */\n      swap1\n      pop\n        /* \"#utility.yul\":40421:40563   */\n      swap2\n      swap1\n      pop\n      jump\t// out\n        /* \"#utility.yul\":40569:40644   */\n    tag_387:\n        /* \"#utility.yul\":40612:40615   */\n      0x00\n        /* \"#utility.yul\":40633:40638   */\n      dup2\n        /* \"#utility.yul\":40626:40638   */\n      swap1\n      pop\n        /* \"#utility.yul\":40569:40644   */\n      swap2\n      swap1\n      pop\n      jump\t// out\n        /* \"#utility.yul\":40650:40919   */\n    tag_388:\n        /* \"#utility.yul\":40760:40799   */\n      tag_728\n        /* \"#utility.yul\":40791:40798   */\n      dup4\n        /* \"#utility.yul\":40760:40799   */\n      tag_386\n      jump\t// in\n    tag_728:\n        /* \"#utility.yul\":40821:40912   */\n      tag_729\n        /* \"#utility.yul\":40870:40911   */\n      tag_730\n        /* \"#utility.yul\":40894:40910   */\n      dup3\n        /* \"#utility.yul\":40870:40911   */\n      tag_387\n      jump\t// in\n    tag_730:\n        /* \"#utility.yul\":40862:40868   */\n      dup5\n        /* \"#utility.yul\":40855:40859   */\n      dup5\n        /* \"#utility.yul\":40849:40860   */\n      sload\n        /* \"#utility.yul\":40821:40912   */\n      tag_385\n      jump\t// in\n    tag_729:\n        /* \"#utility.yul\":40815:40819   */\n      dup3\n        /* \"#utility.yul\":40808:40913   */\n      sstore\n        /* \"#utility.yul\":40726:40919   */\n      pop\n        /* \"#utility.yul\":40650:40919   */\n      pop\n      pop\n      pop\n      jump\t// out\n        /* \"#utility.yul\":40925:40998   */\n    tag_389:\n        /* \"#utility.yul\":40970:40973   */\n      0x00\n        /* \"#utility.yul\":40991:40992   */\n      0x00\n        /* \"#utility.yul\":40984:40992   */\n      swap1\n      pop\n        /* \"#utility.yul\":40925:40998   */\n      swap1\n      jump\t// out\n        /* \"#utility.yul\":41004:41193   */\n    tag_390:\n        /* \"#utility.yul\":41081:41113   */\n      tag_733\n      tag_389\n      jump\t// in\n    tag_733:\n        /* \"#utility.yul\":41122:41187   */\n      tag_734\n        /* \"#utility.yul\":41180:41186   */\n      dup2\n        /* \"#utility.yul\":41172:41178   */\n      dup5\n        /* \"#utility.yul\":41166:41170   */\n      dup5\n        /* \"#utility.yul\":41122:41187   */\n      tag_388\n      jump\t// in\n    tag_734:\n        /* \"#utility.yul\":41057:41193   */\n      pop\n        /* \"#utility.yul\":41004:41193   */\n      pop\n      pop\n      jump\t// out\n        /* \"#utility.yul\":41199:41385   */\n    tag_391:\n        /* \"#utility.yul\":41259:41379   */\n    tag_736:\n        /* \"#utility.yul\":41276:41279   */\n      dup2\n        /* \"#utility.yul\":41269:41274   */\n      dup2\n        /* \"#utility.yul\":41266:41280   */\n      lt\n        /* \"#utility.yul\":41259:41379   */\n      iszero\n      tag_738\n      jumpi\n        /* \"#utility.yul\":41330:41369   */\n      tag_739\n        /* \"#utility.yul\":41367:41368   */\n      0x00\n        /* \"#utility.yul\":41360:41365   */\n      dup3\n        /* \"#utility.yul\":41330:41369   */\n      tag_390\n      jump\t// in\n    tag_739:\n        /* \"#utility.yul\":41303:41304   */\n      0x01\n        /* \"#utility.yul\":41296:41301   */\n      dup2\n        /* \"#utility.yul\":41292:41305   */\n      add\n        /* \"#utility.yul\":41283:41305   */\n      swap1\n      pop\n        /* \"#utility.yul\":41259:41379   */\n      jump(tag_736)\n    tag_738:\n        /* \"#utility.yul\":41199:41385   */\n      pop\n      pop\n      jump\t// out\n        /* \"#utility.yul\":41391:41934   */\n    tag_392:\n        /* \"#utility.yul\":41492:41494   */\n      0x1f\n        /* \"#utility.yul\":41487:41490   */\n      dup3\n        /* \"#utility.yul\":41484:41495   */\n      gt\n        /* \"#utility.yul\":41481:41927   */\n      iszero\n      tag_741\n      jumpi\n        /* \"#utility.yul\":41526:41564   */\n      tag_742\n        /* \"#utility.yul\":41558:41563   */\n      dup2\n        /* \"#utility.yul\":41526:41564   */\n      tag_382\n      jump\t// in\n    tag_742:\n        /* \"#utility.yul\":41610:41639   */\n      tag_743\n        /* \"#utility.yul\":41628:41638   */\n      dup5\n        /* \"#utility.yul\":41610:41639   */\n      tag_383\n      jump\t// in\n    tag_743:\n        /* \"#utility.yul\":41600:41608   */\n      dup2\n        /* \"#utility.yul\":41596:41640   */\n      add\n        /* \"#utility.yul\":41793:41795   */\n      0x20\n        /* \"#utility.yul\":41781:41791   */\n      dup6\n        /* \"#utility.yul\":41778:41796   */\n      lt\n        /* \"#utility.yul\":41775:41824   */\n      iszero\n      tag_744\n      jumpi\n        /* \"#utility.yul\":41814:41822   */\n      dup2\n        /* \"#utility.yul\":41799:41822   */\n      swap1\n      pop\n        /* \"#utility.yul\":41775:41824   */\n    tag_744:\n        /* \"#utility.yul\":41837:41917   */\n      tag_745\n        /* \"#utility.yul\":41893:41915   */\n      tag_746\n        /* \"#utility.yul\":41911:41914   */\n      dup6\n        /* \"#utility.yul\":41893:41915   */\n      tag_383\n      jump\t// in\n    tag_746:\n        /* \"#utility.yul\":41883:41891   */\n      dup4\n        /* \"#utility.yul\":41879:41916   */\n      add\n        /* \"#utility.yul\":41866:41877   */\n      dup3\n        /* \"#utility.yul\":41837:41917   */\n      tag_391\n      jump\t// in\n    tag_745:\n        /* \"#utility.yul\":41496:41927   */\n      pop\n      pop\n        /* \"#utility.yul\":41481:41927   */\n    tag_741:\n        /* \"#utility.yul\":41391:41934   */\n      pop\n      pop\n      pop\n      jump\t// out\n        /* \"#utility.yul\":41940:42057   */\n    tag_393:\n        /* \"#utility.yul\":41994:42002   */\n      0x00\n        /* \"#utility.yul\":42044:42049   */\n      dup3\n        /* \"#utility.yul\":42038:42042   */\n      dup3\n        /* \"#utility.yul\":42034:42050   */\n      shr\n        /* \"#utility.yul\":42013:42050   */\n      swap1\n      pop\n        /* \"#utility.yul\":41940:42057   */\n      swap3\n      swap2\n      pop\n      pop\n      jump\t// out\n        /* \"#utility.yul\":42063:42232   */\n    tag_394:\n        /* \"#utility.yul\":42107:42113   */\n      0x00\n        /* \"#utility.yul\":42140:42191   */\n      tag_749\n        /* \"#utility.yul\":42188:42189   */\n      0x00\n        /* \"#utility.yul\":42184:42190   */\n      not\n        /* \"#utility.yul\":42176:42181   */\n      dup5\n        /* \"#utility.yul\":42173:42174   */\n      0x08\n        /* \"#utility.yul\":42169:42182   */\n      mul\n        /* \"#utility.yul\":42140:42191   */\n      tag_393\n      jump\t// in\n    tag_749:\n        /* \"#utility.yul\":42136:42192   */\n      not\n        /* \"#utility.yul\":42221:42225   */\n      dup1\n        /* \"#utility.yul\":42215:42219   */\n      dup4\n        /* \"#utility.yul\":42211:42226   */\n      and\n        /* \"#utility.yul\":42201:42226   */\n      swap2\n      pop\n        /* \"#utility.yul\":42114:42232   */\n      pop\n        /* \"#utility.yul\":42063:42232   */\n      swap3\n      swap2\n      pop\n      pop\n      jump\t// out\n        /* \"#utility.yul\":42237:42532   */\n    tag_395:\n        /* \"#utility.yul\":42313:42317   */\n      0x00\n        /* \"#utility.yul\":42459:42488   */\n      tag_751\n        /* \"#utility.yul\":42484:42487   */\n      dup4\n        /* \"#utility.yul\":42478:42482   */\n      dup4\n        /* \"#utility.yul\":42459:42488   */\n      tag_394\n      jump\t// in\n    tag_751:\n        /* \"#utility.yul\":42451:42488   */\n      swap2\n      pop\n        /* \"#utility.yul\":42521:42524   */\n      dup3\n        /* \"#utility.yul\":42518:42519   */\n      0x02\n        /* \"#utility.yul\":42514:42525   */\n      mul\n        /* \"#utility.yul\":42508:42512   */\n      dup3\n        /* \"#utility.yul\":42505:42526   */\n      or\n        /* \"#utility.yul\":42497:42526   */\n      swap1\n      pop\n        /* \"#utility.yul\":42237:42532   */\n      swap3\n      swap2\n      pop\n      pop\n      jump\t// out\n        /* \"#utility.yul\":42537:43932   */\n    tag_273:\n        /* \"#utility.yul\":42654:42691   */\n      tag_753\n        /* \"#utility.yul\":42687:42690   */\n      dup3\n        /* \"#utility.yul\":42654:42691   */\n      tag_303\n      jump\t// in\n    tag_753:\n        /* \"#utility.yul\":42756:42774   */\n      0xffffffffffffffff\n        /* \"#utility.yul\":42748:42754   */\n      dup2\n        /* \"#utility.yul\":42745:42775   */\n      gt\n        /* \"#utility.yul\":42742:42798   */\n      iszero\n      tag_754\n      jumpi\n        /* \"#utility.yul\":42778:42796   */\n      tag_755\n      tag_213\n      jump\t// in\n    tag_755:\n        /* \"#utility.yul\":42742:42798   */\n    tag_754:\n        /* \"#utility.yul\":42822:42860   */\n      tag_756\n        /* \"#utility.yul\":42854:42858   */\n      dup3\n        /* \"#utility.yul\":42848:42859   */\n      sload\n        /* \"#utility.yul\":42822:42860   */\n      tag_103\n      jump\t// in\n    tag_756:\n        /* \"#utility.yul\":42907:42974   */\n      tag_757\n        /* \"#utility.yul\":42967:42973   */\n      dup3\n        /* \"#utility.yul\":42959:42965   */\n      dup3\n        /* \"#utility.yul\":42953:42957   */\n      dup6\n        /* \"#utility.yul\":42907:42974   */\n      tag_392\n      jump\t// in\n    tag_757:\n        /* \"#utility.yul\":43001:43002   */\n      0x00\n        /* \"#utility.yul\":43025:43029   */\n      0x20\n        /* \"#utility.yul\":43012:43029   */\n      swap1\n      pop\n        /* \"#utility.yul\":43057:43059   */\n      0x1f\n        /* \"#utility.yul\":43049:43055   */\n      dup4\n        /* \"#utility.yul\":43046:43060   */\n      gt\n        /* \"#utility.yul\":43074:43075   */\n      0x01\n        /* \"#utility.yul\":43069:43687   */\n      dup2\n      eq\n      tag_759\n      jumpi\n        /* \"#utility.yul\":43731:43732   */\n      0x00\n        /* \"#utility.yul\":43748:43754   */\n      dup5\n        /* \"#utility.yul\":43745:43822   */\n      iszero\n      tag_760\n      jumpi\n        /* \"#utility.yul\":43797:43806   */\n      dup3\n        /* \"#utility.yul\":43792:43795   */\n      dup8\n        /* \"#utility.yul\":43788:43807   */\n      add\n        /* \"#utility.yul\":43782:43808   */\n      mload\n        /* \"#utility.yul\":43773:43808   */\n      swap1\n      pop\n        /* \"#utility.yul\":43745:43822   */\n    tag_760:\n        /* \"#utility.yul\":43848:43915   */\n      tag_761\n        /* \"#utility.yul\":43908:43914   */\n      dup6\n        /* \"#utility.yul\":43901:43906   */\n      dup3\n        /* \"#utility.yul\":43848:43915   */\n      tag_395\n      jump\t// in\n    tag_761:\n        /* \"#utility.yul\":43842:43846   */\n      dup7\n        /* \"#utility.yul\":43835:43916   */\n      sstore\n        /* \"#utility.yul\":43704:43926   */\n      pop\n        /* \"#utility.yul\":43039:43926   */\n      jump(tag_758)\n        /* \"#utility.yul\":43069:43687   */\n    tag_759:\n        /* \"#utility.yul\":43121:43125   */\n      0x1f\n        /* \"#utility.yul\":43117:43126   */\n      not\n        /* \"#utility.yul\":43109:43115   */\n      dup5\n        /* \"#utility.yul\":43105:43127   */\n      and\n        /* \"#utility.yul\":43155:43192   */\n      tag_762\n        /* \"#utility.yul\":43187:43191   */\n      dup7\n        /* \"#utility.yul\":43155:43192   */\n      tag_382\n      jump\t// in\n    tag_762:\n        /* \"#utility.yul\":43214:43215   */\n      0x00\n        /* \"#utility.yul\":43228:43436   */\n    tag_763:\n        /* \"#utility.yul\":43242:43249   */\n      dup3\n        /* \"#utility.yul\":43239:43240   */\n      dup2\n        /* \"#utility.yul\":43236:43250   */\n      lt\n        /* \"#utility.yul\":43228:43436   */\n      iszero\n      tag_765\n      jumpi\n        /* \"#utility.yul\":43321:43330   */\n      dup5\n        /* \"#utility.yul\":43316:43319   */\n      dup10\n        /* \"#utility.yul\":43312:43331   */\n      add\n        /* \"#utility.yul\":43306:43332   */\n      mload\n        /* \"#utility.yul\":43298:43304   */\n      dup3\n        /* \"#utility.yul\":43291:43333   */\n      sstore\n        /* \"#utility.yul\":43372:43373   */\n      0x01\n        /* \"#utility.yul\":43364:43370   */\n      dup3\n        /* \"#utility.yul\":43360:43374   */\n      add\n        /* \"#utility.yul\":43350:43374   */\n      swap2\n      pop\n        /* \"#utility.yul\":43419:43421   */\n      0x20\n        /* \"#utility.yul\":43408:43417   */\n      dup6\n        /* \"#utility.yul\":43404:43422   */\n      add\n        /* \"#utility.yul\":43391:43422   */\n      swap5\n      pop\n        /* \"#utility.yul\":43265:43269   */\n      0x20\n        /* \"#utility.yul\":43262:43263   */\n      dup2\n        /* \"#utility.yul\":43258:43270   */\n      add\n        /* \"#utility.yul\":43253:43270   */\n      swap1\n      pop\n        /* \"#utility.yul\":43228:43436   */\n      jump(tag_763)\n    tag_765:\n        /* \"#utility.yul\":43464:43470   */\n      dup7\n        /* \"#utility.yul\":43455:43462   */\n      dup4\n        /* \"#utility.yul\":43452:43471   */\n      lt\n        /* \"#utility.yul\":43449:43628   */\n      iszero\n      tag_766\n      jumpi\n        /* \"#utility.yul\":43522:43531   */\n      dup5\n        /* \"#utility.yul\":43517:43520   */\n      dup10\n        /* \"#utility.yul\":43513:43532   */\n      add\n        /* \"#utility.yul\":43507:43533   */\n      mload\n        /* \"#utility.yul\":43565:43613   */\n      tag_767\n        /* \"#utility.yul\":43607:43611   */\n      0x1f\n        /* \"#utility.yul\":43599:43605   */\n      dup10\n        /* \"#utility.yul\":43595:43612   */\n      and\n        /* \"#utility.yul\":43584:43593   */\n      dup3\n        /* \"#utility.yul\":43565:43613   */\n      tag_394\n      jump\t// in\n    tag_767:\n        /* \"#utility.yul\":43557:43563   */\n      dup4\n        /* \"#utility.yul\":43550:43614   */\n      sstore\n        /* \"#utility.yul\":43472:43628   */\n      pop\n        /* \"#utility.yul\":43449:43628   */\n    tag_766:\n        /* \"#utility.yul\":43674:43675   */\n      0x01\n        /* \"#utility.yul\":43670:43671   */\n      0x02\n        /* \"#utility.yul\":43662:43668   */\n      dup9\n        /* \"#utility.yul\":43658:43672   */\n      mul\n        /* \"#utility.yul\":43654:43676   */\n      add\n        /* \"#utility.yul\":43648:43652   */\n      dup9\n        /* \"#utility.yul\":43641:43677   */\n      sstore\n        /* \"#utility.yul\":43076:43687   */\n      pop\n      pop\n      pop\n        /* \"#utility.yul\":43039:43926   */\n    tag_758:\n      pop\n        /* \"#utility.yul\":42629:43932   */\n      pop\n      pop\n      pop\n        /* \"#utility.yul\":42537:43932   */\n      pop\n      pop\n      jump\t// out\n        /* \"#utility.yul\":43938:44116   */\n    tag_396:\n        /* \"#utility.yul\":44078:44108   */\n      0x596f7520646964206e6f7420626f72726f77207468697320626f6f6b00000000\n        /* \"#utility.yul\":44074:44075   */\n      0x00\n        /* \"#utility.yul\":44066:44072   */\n      dup3\n        /* \"#utility.yul\":44062:44076   */\n      add\n        /* \"#utility.yul\":44055:44109   */\n      mstore\n        /* \"#utility.yul\":43938:44116   */\n      pop\n      jump\t// out\n        /* \"#utility.yul\":44122:44488   */\n    tag_397:\n        /* \"#utility.yul\":44264:44267   */\n      0x00\n        /* \"#utility.yul\":44285:44352   */\n      tag_770\n        /* \"#utility.yul\":44349:44351   */\n      0x1c\n        /* \"#utility.yul\":44344:44347   */\n      dup4\n        /* \"#utility.yul\":44285:44352   */\n      tag_312\n      jump\t// in\n    tag_770:\n        /* \"#utility.yul\":44278:44352   */\n      swap2\n      pop\n        /* \"#utility.yul\":44361:44454   */\n      tag_771\n        /* \"#utility.yul\":44450:44453   */\n      dup3\n        /* \"#utility.yul\":44361:44454   */\n      tag_396\n      jump\t// in\n    tag_771:\n        /* \"#utility.yul\":44479:44481   */\n      0x20\n        /* \"#utility.yul\":44474:44477   */\n      dup3\n        /* \"#utility.yul\":44470:44482   */\n      add\n        /* \"#utility.yul\":44463:44482   */\n      swap1\n      pop\n        /* \"#utility.yul\":44122:44488   */\n      swap2\n      swap1\n      pop\n      jump\t// out\n        /* \"#utility.yul\":44494:44913   */\n    tag_282:\n        /* \"#utility.yul\":44660:44664   */\n      0x00\n        /* \"#utility.yul\":44698:44700   */\n      0x20\n        /* \"#utility.yul\":44687:44696   */\n      dup3\n        /* \"#utility.yul\":44683:44701   */\n      add\n        /* \"#utility.yul\":44675:44701   */\n      swap1\n      pop\n        /* \"#utility.yul\":44747:44756   */\n      dup2\n        /* \"#utility.yul\":44741:44745   */\n      dup2\n        /* \"#utility.yul\":44737:44757   */\n      sub\n        /* \"#utility.yul\":44733:44734   */\n      0x00\n        /* \"#utility.yul\":44722:44731   */\n      dup4\n        /* \"#utility.yul\":44718:44735   */\n      add\n        /* \"#utility.yul\":44711:44758   */\n      mstore\n        /* \"#utility.yul\":44775:44906   */\n      tag_773\n        /* \"#utility.yul\":44901:44905   */\n      dup2\n        /* \"#utility.yul\":44775:44906   */\n      tag_397\n      jump\t// in\n    tag_773:\n        /* \"#utility.yul\":44767:44906   */\n      swap1\n      pop\n        /* \"#utility.yul\":44494:44913   */\n      swap2\n      swap1\n      pop\n      jump\t// out\n\n    auxdata: 0xa2646970667358221220d0065e63f778642147916b60c409ea93fa65d3b77ec2ec98dbd9e9fe7d46201864736f6c634300081f0033\n}\n",
				"bytecode": {
					"linkReferences": {},
					"object": "608060405234801561000f575f5ffd5b5060405161339f38038061339f8339818101604052810190610031919061018c565b8260025f6101000a81548173ffffffffffffffffffffffffffffffffffffffff021916908373ffffffffffffffffffffffffffffffffffffffff1602179055508160035f6101000a81548173ffffffffffffffffffffffffffffffffffffffff021916908373ffffffffffffffffffffffffffffffffffffffff160217905550806004819055505050506101dc565b5f5ffd5b5f73ffffffffffffffffffffffffffffffffffffffff82169050919050565b5f6100ed826100c4565b9050919050565b6100fd816100e3565b8114610107575f5ffd5b50565b5f81519050610118816100f4565b92915050565b5f610128826100c4565b9050919050565b6101388161011e565b8114610142575f5ffd5b50565b5f815190506101538161012f565b92915050565b5f819050919050565b61016b81610159565b8114610175575f5ffd5b50565b5f8151905061018681610162565b92915050565b5f5f5f606084860312156101a3576101a26100c0565b5b5f6101b08682870161010a565b93505060206101c186828701610145565b92505060406101d286828701610178565b9150509250925092565b6131b6806101e95f395ff3fe6080604052600436106100e7575f3560e01c806395f58ab811610089578063c40cf4eb11610058578063c40cf4eb146102ff578063ca5140c914610329578063ddd5987f14610351578063ff41835214610379576100e7565b806395f58ab8146102335780639f34978914610270578063a1ef35771461029a578063a9d00e66146102d7576100e7565b806368744046116100c5578063687440461461018d5780636ee26566146101d15780637e490a9e146101ed57806385d04bae14610209576100e7565b80631792a6da146100eb578063418b79ab14610115578063513073b814610151575b5f5ffd5b3480156100f6575f5ffd5b506100ff6103b5565b60405161010c9190611d1d565b60405180910390f35b348015610120575f5ffd5b5061013b60048036038101906101369190611d7a565b6103da565b6040516101489190611f0e565b60405180910390f35b34801561015c575f5ffd5b5061017760048036038101906101729190611d7a565b610661565b6040516101849190611f3d565b60405180910390f35b348015610198575f5ffd5b506101b360048036038101906101ae9190611d7a565b610681565b6040516101c899989796959493929190611fad565b60405180910390f35b6101eb60048036038101906101e69190611d7a565b610869565b005b61020760048036038101906102029190611d7a565b610c3a565b005b348015610214575f5ffd5b5061021d6111d3565b60405161022a9190611f3d565b60405180910390f35b34801561023e575f5ffd5b506102596004803603810190610254919061204d565b6111d9565b6040516102679291906120ab565b60405180910390f35b34801561027b575f5ffd5b50610284611232565b604051610291919061225d565b60405180910390f35b3480156102a5575f5ffd5b506102c060048036038101906102bb919061204d565b611509565b6040516102ce9291906120ab565b60405180910390f35b3480156102e2575f5ffd5b506102fd60048036038101906102f891906123a9565b611562565b005b34801561030a575f5ffd5b5061031361196a565b60405161032091906124e1565b60405180910390f35b348015610334575f5ffd5b5061034f600480360381019061034a9190611d7a565b61198f565b005b34801561035c575f5ffd5b506103776004803603810190610372919061204d565b611b18565b005b348015610384575f5ffd5b5061039f600480360381019061039a9190612524565b611c6c565b6040516103ac9190612562565b60405180910390f35b60035f9054906101000a900473ffffffffffffffffffffffffffffffffffffffff1681565b6103e2611c96565b60065f8381526020019081526020015f206007015f9054906101000a900460ff16610442576040517f08c379a0000000000000000000000000000000000000000000000000000000008152600401610439906125c5565b60405180910390fd5b60065f8381526020019081526020015f20604051806101200160405290815f820154815260200160018201805461047890612610565b80601f01602080910402602001604051908101604052809291908181526020018280546104a490612610565b80156104ef5780601f106104c6576101008083540402835291602001916104ef565b820191905f5260205f20905b8154815290600101906020018083116104d257829003601f168201915b5050505050815260200160028201805461050890612610565b80601f016020809104026020016040519081016040528092919081815260200182805461053490612610565b801561057f5780601f106105565761010080835404028352916020019161057f565b820191905f5260205f20905b81548152906001019060200180831161056257829003601f168201915b5050505050815260200160038201805461059890612610565b80601f01602080910402602001604051908101604052809291908181526020018280546105c490612610565b801561060f5780601f106105e65761010080835404028352916020019161060f565b820191905f5260205f20905b8154815290600101906020018083116105f257829003601f168201915b50505050508152602001600482015481526020016005820154815260200160068201548152602001600782015f9054906101000a900460ff161515151581526020016008820154815250509050919050565b60058181548110610670575f80fd5b905f5260205f20015f915090505481565b6006602052805f5260405f205f91509050805f0154908060010180546106a690612610565b80601f01602080910402602001604051908101604052809291908181526020018280546106d290612610565b801561071d5780601f106106f45761010080835404028352916020019161071d565b820191905f5260205f20905b81548152906001019060200180831161070057829003601f168201915b50505050509080600201805461073290612610565b80601f016020809104026020016040519081016040528092919081815260200182805461075e90612610565b80156107a95780601f10610780576101008083540402835291602001916107a9565b820191905f5260205f20905b81548152906001019060200180831161078c57829003601f168201915b5050505050908060030180546107be90612610565b80601f01602080910402602001604051908101604052809291908181526020018280546107ea90612610565b80156108355780601f1061080c57610100808354040283529160200191610835565b820191905f5260205f20905b81548152906001019060200180831161081857829003601f168201915b505050505090806004015490806005015490806006015490806007015f9054906101000a900460ff16908060080154905089565b5f5f9054906101000a900460ff16156108b7576040517f08c379a00000000000000000000000000000000000000000000000000000000081526004016108ae9061268a565b60405180910390fd5b60015f5f6101000a81548160ff0219169083151502179055505f60065f8381526020019081526020015f209050806007015f9054906101000a900460ff16610934576040517f08c379a000000000000000000000000000000000000000000000000000000000815260040161092b906125c5565b60405180910390fd5b5f81600401541161097a576040517f08c379a0000000000000000000000000000000000000000000000000000000008152600401610971906126f2565b60405180910390fd5b80600501543410156109c1576040517f08c379a00000000000000000000000000000000000000000000000000000000081526004016109b89061275a565b60405180910390fd5b6001816004015f8282546109d591906127a5565b9250508190555060095f8381526020019081526020015f2060405180604001604052803373ffffffffffffffffffffffffffffffffffffffff16815260200142815250908060018154018082558091505060019003905f5260205f2090600202015f909190919091505f820151815f015f6101000a81548173ffffffffffffffffffffffffffffffffffffffff021916908373ffffffffffffffffffffffffffffffffffffffff1602179055506020820151816001015550505f60035f9054906101000a900473ffffffffffffffffffffffffffffffffffffffff1673ffffffffffffffffffffffffffffffffffffffff1634604051610ad490612805565b5f6040518083038185875af1925050503d805f8114610b0e576040519150601f19603f3d011682016040523d82523d5f602084013e610b13565b606091505b5050905080610b57576040517f08c379a0000000000000000000000000000000000000000000000000000000008152600401610b4e90612863565b60405180910390fd5b5f826005015434610b6891906127a5565b90505f811115610c1c575f3373ffffffffffffffffffffffffffffffffffffffff1682604051610b9790612805565b5f6040518083038185875af1925050503d805f8114610bd1576040519150601f19603f3d011682016040523d82523d5f602084013e610bd6565b606091505b5050905080610c1a576040517f08c379a0000000000000000000000000000000000000000000000000000000008152600401610c11906128cb565b60405180910390fd5b505b5050505f5f5f6101000a81548160ff02191690831515021790555050565b5f5f9054906101000a900460ff1615610c88576040517f08c379a0000000000000000000000000000000000000000000000000000000008152600401610c7f9061268a565b60405180910390fd5b60015f5f6101000a81548160ff02191690831515021790555060065f8281526020019081526020015f206007015f9054906101000a900460ff16610d01576040517f08c379a0000000000000000000000000000000000000000000000000000000008152600401610cf890612933565b60405180910390fd5b5f60065f8381526020019081526020015f206004015411610d57576040517f08c379a0000000000000000000000000000000000000000000000000000000008152600401610d4e9061299b565b60405180910390fd5b600a5f8281526020019081526020015f205f3373ffffffffffffffffffffffffffffffffffffffff1673ffffffffffffffffffffffffffffffffffffffff1681526020019081526020015f205f9054906101000a900460ff16610def576040517f08c379a0000000000000000000000000000000000000000000000000000000008152600401610de690612a03565b60405180910390fd5b5f60065f8381526020019081526020015f2090505f60025f9054906101000a900473ffffffffffffffffffffffffffffffffffffffff1673ffffffffffffffffffffffffffffffffffffffff1663506b27f0336040518263ffffffff1660e01b8152600401610e5e9190612a21565b602060405180830381865afa158015610e79573d5f5f3e3d5ffd5b505050506040513d601f19601f82011682018060405250810190610e9d9190612a64565b90505f81610ead57600454610eb3565b82600601545b905080341015610ef8576040517f08c379a0000000000000000000000000000000000000000000000000000000008152600401610eef90612ad9565b60405180910390fd5b6001600a5f8681526020019081526020015f205f3373ffffffffffffffffffffffffffffffffffffffff1673ffffffffffffffffffffffffffffffffffffffff1681526020019081526020015f205f6101000a81548160ff02191690831515021790555060085f8581526020019081526020015f2060405180604001604052803373ffffffffffffffffffffffffffffffffffffffff16815260200142815250908060018154018082558091505060019003905f5260205f2090600202015f909190919091505f820151815f015f6101000a81548173ffffffffffffffffffffffffffffffffffffffff021916908373ffffffffffffffffffffffffffffffffffffffff1602179055506020820151816001015550506001836004015f82825461102291906127a5565b925050819055505f60035f9054906101000a900473ffffffffffffffffffffffffffffffffffffffff1673ffffffffffffffffffffffffffffffffffffffff168260405161106f90612805565b5f6040518083038185875af1925050503d805f81146110a9576040519150601f19603f3d011682016040523d82523d5f602084013e6110ae565b606091505b50509050806110f2576040517f08c379a00000000000000000000000000000000000000000000000000000000081526004016110e990612863565b60405180910390fd5b5f82346110ff91906127a5565b90505f8111156111b3575f3373ffffffffffffffffffffffffffffffffffffffff168260405161112e90612805565b5f6040518083038185875af1925050503d805f8114611168576040519150601f19603f3d011682016040523d82523d5f602084013e61116d565b606091505b50509050806111b1576040517f08c379a00000000000000000000000000000000000000000000000000000000081526004016111a8906128cb565b60405180910390fd5b505b50505050505f5f5f6101000a81548160ff02191690831515021790555050565b60045481565b6009602052815f5260405f2081815481106111f2575f80fd5b905f5260205f2090600202015f9150915050805f015f9054906101000a900473ffffffffffffffffffffffffffffffffffffffff16908060010154905082565b60605f60058054905067ffffffffffffffff81111561125457611253612285565b5b60405190808252806020026020018201604052801561128d57816020015b61127a611c96565b8152602001906001900390816112725790505b5090505f5f90505b6005805490508110156115015760065f600583815481106112b9576112b8612af7565b5b905f5260205f20015481526020019081526020015f20604051806101200160405290815f82015481526020016001820180546112f490612610565b80601f016020809104026020016040519081016040528092919081815260200182805461132090612610565b801561136b5780601f106113425761010080835404028352916020019161136b565b820191905f5260205f20905b81548152906001019060200180831161134e57829003601f168201915b5050505050815260200160028201805461138490612610565b80601f01602080910402602001604051908101604052809291908181526020018280546113b090612610565b80156113fb5780601f106113d2576101008083540402835291602001916113fb565b820191905f5260205f20905b8154815290600101906020018083116113de57829003601f168201915b5050505050815260200160038201805461141490612610565b80601f016020809104026020016040519081016040528092919081815260200182805461144090612610565b801561148b5780601f106114625761010080835404028352916020019161148b565b820191905f5260205f20905b81548152906001019060200180831161146e57829003601f168201915b50505050508152602001600482015481526020016005820154815260200160068201548152602001600782015f9054906101000a900460ff161515151581526020016008820154815250508282815181106114e9576114e8612af7565b5b60200260200101819052508080600101915050611295565b508091505090565b6008602052815f5260405f208181548110611522575f80fd5b905f5260205f2090600202015f9150915050805f015f9054906101000a900473ffffffffffffffffffffffffffffffffffffffff16908060010154905082565b60035f9054906101000a900473ffffffffffffffffffffffffffffffffffffffff1673ffffffffffffffffffffffffffffffffffffffff163373ffffffffffffffffffffffffffffffffffffffff16146115f1576040517f08c379a00000000000000000000000000000000000000000000000000000000081526004016115e890612b6e565b60405180910390fd5b5f865111611634576040517f08c379a000000000000000000000000000000000000000000000000000000000815260040161162b90612bd6565b60405180910390fd5b5f855111611677576040517f08c379a000000000000000000000000000000000000000000000000000000000815260040161166e90612c3e565b60405180910390fd5b5f8451116116ba576040517f08c379a00000000000000000000000000000000000000000000000000000000081526004016116b190612ca6565b60405180910390fd5b5f83116116fc576040517f08c379a00000000000000000000000000000000000000000000000000000000081526004016116f390612d0e565b60405180910390fd5b5f821161173e576040517f08c379a000000000000000000000000000000000000000000000000000000000815260040161173590612d76565b60405180910390fd5b5f8111611780576040517f08c379a000000000000000000000000000000000000000000000000000000000815260040161177790612d76565b60405180910390fd5b5f8686604051602001611794929190612dce565b60405160208183030381529060405280519060200120905060075f8281526020019081526020015f205f9054906101000a900460ff161561180a576040517f08c379a000000000000000000000000000000000000000000000000000000000815260040161180190612e61565b60405180910390fd5b600160075f8381526020019081526020015f205f6101000a81548160ff0219169083151502179055506001805f8282546118449190612e7f565b925050819055505f60015490506040518061012001604052808281526020018981526020018881526020018781526020018681526020018581526020018481526020016001151581526020014281525060065f8381526020019081526020015f205f820151815f015560208201518160010190816118c29190613049565b5060408201518160020190816118d89190613049565b5060608201518160030190816118ee9190613049565b506080820151816004015560a0820151816005015560c0820151816006015560e0820151816007015f6101000a81548160ff0219169083151502179055506101008201518160080155905050600581908060018154018082558091505060019003905f5260205f20015f90919091909150555050505050505050565b60025f9054906101000a900473ffffffffffffffffffffffffffffffffffffffff1681565b60065f8281526020019081526020015f206007015f9054906101000a900460ff166119ef576040517f08c379a00000000000000000000000000000000000000000000000000000000081526004016119e6906125c5565b60405180910390fd5b600a5f8281526020019081526020015f205f3373ffffffffffffffffffffffffffffffffffffffff1673ffffffffffffffffffffffffffffffffffffffff1681526020019081526020015f205f9054906101000a900460ff16611a87576040517f08c379a0000000000000000000000000000000000000000000000000000000008152600401611a7e90613162565b60405180910390fd5b5f600a5f8381526020019081526020015f205f3373ffffffffffffffffffffffffffffffffffffffff1673ffffffffffffffffffffffffffffffffffffffff1681526020019081526020015f205f6101000a81548160ff021916908315150217905550600160065f8381526020019081526020015f206004015f828254611b0e9190612e7f565b9250508190555050565b60035f9054906101000a900473ffffffffffffffffffffffffffffffffffffffff1673ffffffffffffffffffffffffffffffffffffffff163373ffffffffffffffffffffffffffffffffffffffff1614611ba7576040517f08c379a0000000000000000000000000000000000000000000000000000000008152600401611b9e90612b6e565b60405180910390fd5b5f8111611be9576040517f08c379a0000000000000000000000000000000000000000000000000000000008152600401611be090612d0e565b60405180910390fd5b5f60065f8481526020019081526020015f209050806007015f9054906101000a900460ff16611c4d576040517f08c379a0000000000000000000000000000000000000000000000000000000008152600401611c44906125c5565b60405180910390fd5b81816004015f828254611c609190612e7f565b92505081905550505050565b600a602052815f5260405f20602052805f5260405f205f915091509054906101000a900460ff1681565b6040518061012001604052805f81526020016060815260200160608152602001606081526020015f81526020015f81526020015f81526020015f151581526020015f81525090565b5f73ffffffffffffffffffffffffffffffffffffffff82169050919050565b5f611d0782611cde565b9050919050565b611d1781611cfd565b82525050565b5f602082019050611d305f830184611d0e565b92915050565b5f604051905090565b5f5ffd5b5f5ffd5b5f819050919050565b611d5981611d47565b8114611d63575f5ffd5b50565b5f81359050611d7481611d50565b92915050565b5f60208284031215611d8f57611d8e611d3f565b5b5f611d9c84828501611d66565b91505092915050565b611dae81611d47565b82525050565b5f81519050919050565b5f82825260208201905092915050565b8281835e5f83830152505050565b5f601f19601f8301169050919050565b5f611df682611db4565b611e008185611dbe565b9350611e10818560208601611dce565b611e1981611ddc565b840191505092915050565b5f8115159050919050565b611e3881611e24565b82525050565b5f61012083015f830151611e545f860182611da5565b5060208301518482036020860152611e6c8282611dec565b91505060408301518482036040860152611e868282611dec565b91505060608301518482036060860152611ea08282611dec565b9150506080830151611eb56080860182611da5565b5060a0830151611ec860a0860182611da5565b5060c0830151611edb60c0860182611da5565b5060e0830151611eee60e0860182611e2f565b50610100830151611f03610100860182611da5565b508091505092915050565b5f6020820190508181035f830152611f268184611e3e565b905092915050565b611f3781611d47565b82525050565b5f602082019050611f505f830184611f2e565b92915050565b5f82825260208201905092915050565b5f611f7082611db4565b611f7a8185611f56565b9350611f8a818560208601611dce565b611f9381611ddc565b840191505092915050565b611fa781611e24565b82525050565b5f61012082019050611fc15f83018c611f2e565b8181036020830152611fd3818b611f66565b90508181036040830152611fe7818a611f66565b90508181036060830152611ffb8189611f66565b905061200a6080830188611f2e565b61201760a0830187611f2e565b61202460c0830186611f2e565b61203160e0830185611f9e565b61203f610100830184611f2e565b9a9950505050505050505050565b5f5f6040838503121561206357612062611d3f565b5b5f61207085828601611d66565b925050602061208185828601611d66565b9150509250929050565b5f61209582611cde565b9050919050565b6120a58161208b565b82525050565b5f6040820190506120be5f83018561209c565b6120cb6020830184611f2e565b9392505050565b5f81519050919050565b5f82825260208201905092915050565b5f819050602082019050919050565b5f61012083015f8301516121115f860182611da5565b50602083015184820360208601526121298282611dec565b915050604083015184820360408601526121438282611dec565b9150506060830151848203606086015261215d8282611dec565b91505060808301516121726080860182611da5565b5060a083015161218560a0860182611da5565b5060c083015161219860c0860182611da5565b5060e08301516121ab60e0860182611e2f565b506101008301516121c0610100860182611da5565b508091505092915050565b5f6121d683836120fb565b905092915050565b5f602082019050919050565b5f6121f4826120d2565b6121fe81856120dc565b935083602082028501612210856120ec565b805f5b8581101561224b578484038952815161222c85826121cb565b9450612237836121de565b925060208a01995050600181019050612213565b50829750879550505050505092915050565b5f6020820190508181035f83015261227581846121ea565b905092915050565b5f5ffd5b5f5ffd5b7f4e487b71000000000000000000000000000000000000000000000000000000005f52604160045260245ffd5b6122bb82611ddc565b810181811067ffffffffffffffff821117156122da576122d9612285565b5b80604052505050565b5f6122ec611d36565b90506122f882826122b2565b919050565b5f67ffffffffffffffff82111561231757612316612285565b5b61232082611ddc565b9050602081019050919050565b828183375f83830152505050565b5f61234d612348846122fd565b6122e3565b90508281526020810184848401111561236957612368612281565b5b61237484828561232d565b509392505050565b5f82601f8301126123905761238f61227d565b5b81356123a084826020860161233b565b91505092915050565b5f5f5f5f5f5f60c087890312156123c3576123c2611d3f565b5b5f87013567ffffffffffffffff8111156123e0576123df611d43565b5b6123ec89828a0161237c565b965050602087013567ffffffffffffffff81111561240d5761240c611d43565b5b61241989828a0161237c565b955050604087013567ffffffffffffffff81111561243a57612439611d43565b5b61244689828a0161237c565b945050606061245789828a01611d66565b935050608061246889828a01611d66565b92505060a061247989828a01611d66565b9150509295509295509295565b5f819050919050565b5f6124a96124a461249f84611cde565b612486565b611cde565b9050919050565b5f6124ba8261248f565b9050919050565b5f6124cb826124b0565b9050919050565b6124db816124c1565b82525050565b5f6020820190506124f45f8301846124d2565b92915050565b6125038161208b565b811461250d575f5ffd5b50565b5f8135905061251e816124fa565b92915050565b5f5f6040838503121561253a57612539611d3f565b5b5f61254785828601611d66565b925050602061255885828601612510565b9150509250929050565b5f6020820190506125755f830184611f9e565b92915050565b7f426f6f6b206e6f7420666f756e640000000000000000000000000000000000005f82015250565b5f6125af600e83611f56565b91506125ba8261257b565b602082019050919050565b5f6020820190508181035f8301526125dc816125a3565b9050919050565b7f4e487b71000000000000000000000000000000000000000000000000000000005f52602260045260245ffd5b5f600282049050600182168061262757607f821691505b60208210810361263a576126396125e3565b5b50919050565b7f5265656e7472616e6379206465746563746564000000000000000000000000005f82015250565b5f612674601383611f56565b915061267f82612640565b602082019050919050565b5f6020820190508181035f8301526126a181612668565b9050919050565b7f426f6f6b206f7574206f662073746f636b0000000000000000000000000000005f82015250565b5f6126dc601183611f56565b91506126e7826126a8565b602082019050919050565b5f6020820190508181035f830152612709816126d0565b9050919050565b7f496e73756666696369656e74207061796d656e740000000000000000000000005f82015250565b5f612744601483611f56565b915061274f82612710565b602082019050919050565b5f6020820190508181035f83015261277181612738565b9050919050565b7f4e487b71000000000000000000000000000000000000000000000000000000005f52601160045260245ffd5b5f6127af82611d47565b91506127ba83611d47565b92508282039050818111156127d2576127d1612778565b5b92915050565b5f81905092915050565b50565b5f6127f05f836127d8565b91506127fb826127e2565b5f82019050919050565b5f61280f826127e5565b9150819050919050565b7f4661696c656420746f2073656e642045544820746f206c6962726172790000005f82015250565b5f61284d601d83611f56565b915061285882612819565b602082019050919050565b5f6020820190508181035f83015261287a81612841565b9050919050565b7f4661696c656420746f20726566756e64206578636573732045544800000000005f82015250565b5f6128b5601b83611f56565b91506128c082612881565b602082019050919050565b5f6020820190508181035f8301526128e2816128a9565b9050919050565b7f426f6f6b206e6f7420666f756e642100000000000000000000000000000000005f82015250565b5f61291d600f83611f56565b9150612928826128e9565b602082019050919050565b5f6020820190508181035f83015261294a81612911565b9050919050565b7f426f6f6b206e6f7420617661696c61626c6521000000000000000000000000005f82015250565b5f612985601383611f56565b915061299082612951565b602082019050919050565b5f6020820190508181035f8301526129b281612979565b9050919050565b7f416c726561647920626f72726f776564210000000000000000000000000000005f82015250565b5f6129ed601183611f56565b91506129f8826129b9565b602082019050919050565b5f6020820190508181035f830152612a1a816129e1565b9050919050565b5f602082019050612a345f83018461209c565b92915050565b612a4381611e24565b8114612a4d575f5ffd5b50565b5f81519050612a5e81612a3a565b92915050565b5f60208284031215612a7957612a78611d3f565b5b5f612a8684828501612a50565b91505092915050565b7f4e6f7420656e6f756768204554482073656e74000000000000000000000000005f82015250565b5f612ac3601383611f56565b9150612ace82612a8f565b602082019050919050565b5f6020820190508181035f830152612af081612ab7565b9050919050565b7f4e487b71000000000000000000000000000000000000000000000000000000005f52603260045260245ffd5b7f4e6f74206c6962726172792061646d696e0000000000000000000000000000005f82015250565b5f612b58601183611f56565b9150612b6382612b24565b602082019050919050565b5f6020820190508181035f830152612b8581612b4c565b9050919050565b7f5469746c652063616e6e6f7420626520656d70747921000000000000000000005f82015250565b5f612bc0601683611f56565b9150612bcb82612b8c565b602082019050919050565b5f6020820190508181035f830152612bed81612bb4565b9050919050565b7f417574686f722063616e6e6f7420626520656d707479210000000000000000005f82015250565b5f612c28601783611f56565b9150612c3382612bf4565b602082019050919050565b5f6020820190508181035f830152612c5581612c1c565b9050919050565b7f47656e72652063616e6e6f7420626520656d70747921000000000000000000005f82015250565b5f612c90601683611f56565b9150612c9b82612c5c565b602082019050919050565b5f6020820190508181035f830152612cbd81612c84565b9050919050565b7f5175616e74697479206d7573742062652067726561746572207468616e2030005f82015250565b5f612cf8601f83611f56565b9150612d0382612cc4565b602082019050919050565b5f6020820190508181035f830152612d2581612cec565b9050919050565b7f5072696365206d7573742062652067726561746572207468616e2030000000005f82015250565b5f612d60601c83611f56565b9150612d6b82612d2c565b602082019050919050565b5f6020820190508181035f830152612d8d81612d54565b9050919050565b5f81905092915050565b5f612da882611db4565b612db28185612d94565b9350612dc2818560208601611dce565b80840191505092915050565b5f612dd98285612d9e565b9150612de58284612d9e565b91508190509392505050565b7f5468697320626f6f6b206279207468697320617574686f7220616c72656164795f8201527f2065786973747321000000000000000000000000000000000000000000000000602082015250565b5f612e4b602883611f56565b9150612e5682612df1565b604082019050919050565b5f6020820190508181035f830152612e7881612e3f565b9050919050565b5f612e8982611d47565b9150612e9483611d47565b9250828201905080821115612eac57612eab612778565b5b92915050565b5f819050815f5260205f209050919050565b5f6020601f8301049050919050565b5f82821b905092915050565b5f60088302612f0e7fffffffffffffffffffffffffffffffffffffffffffffffffffffffffffffffff82612ed3565b612f188683612ed3565b95508019841693508086168417925050509392505050565b5f612f4a612f45612f4084611d47565b612486565b611d47565b9050919050565b5f819050919050565b612f6383612f30565b612f77612f6f82612f51565b848454612edf565b825550505050565b5f5f905090565b612f8e612f7f565b612f99818484612f5a565b505050565b5b81811015612fbc57612fb15f82612f86565b600181019050612f9f565b5050565b601f82111561300157612fd281612eb2565b612fdb84612ec4565b81016020851015612fea578190505b612ffe612ff685612ec4565b830182612f9e565b50505b505050565b5f82821c905092915050565b5f6130215f1984600802613006565b1980831691505092915050565b5f6130398383613012565b9150826002028217905092915050565b61305282611db4565b67ffffffffffffffff81111561306b5761306a612285565b5b6130758254612610565b613080828285612fc0565b5f60209050601f8311600181146130b1575f841561309f578287015190505b6130a9858261302e565b865550613110565b601f1984166130bf86612eb2565b5f5b828110156130e6578489015182556001820191506020850194506020810190506130c1565b8683101561310357848901516130ff601f891682613012565b8355505b6001600288020188555050505b505050505050565b7f596f7520646964206e6f7420626f72726f77207468697320626f6f6b000000005f82015250565b5f61314c601c83611f56565b915061315782613118565b602082019050919050565b5f6020820190508181035f83015261317981613140565b905091905056fea2646970667358221220d0065e63f778642147916b60c409ea93fa65d3b77ec2ec98dbd9e9fe7d46201864736f6c634300081f0033",
					"opcodes": "PUSH1 0x80 PUSH1 0x40 MSTORE CALLVALUE DUP1 ISZERO PUSH2 0xF JUMPI PUSH0 PUSH0 REVERT JUMPDEST POP PUSH1 0x40 MLOAD PUSH2 0x339F CODESIZE SUB DUP1 PUSH2 0x339F DUP4 CODECOPY DUP2 DUP2 ADD PUSH1 0x40 MSTORE DUP2 ADD SWAP1 PUSH2 0x31 SWAP2 SWAP1 PUSH2 0x18C JUMP JUMPDEST DUP3 PUSH1 0x2 PUSH0 PUSH2 0x100 EXP DUP2 SLOAD DUP2 PUSH20 0xFFFFFFFFFFFFFFFFFFFFFFFFFFFFFFFFFFFFFFFF MUL NOT AND SWAP1 DUP4 PUSH20 0xFFFFFFFFFFFFFFFFFFFFFFFFFFFFFFFFFFFFFFFF AND MUL OR SWAP1 SSTORE POP DUP2 PUSH1 0x3 PUSH0 PUSH2 0x100 EXP DUP2 SLOAD DUP2 PUSH20 0xFFFFFFFFFFFFFFFFFFFFFFFFFFFFFFFFFFFFFFFF MUL NOT AND SWAP1 DUP4 PUSH20 0xFFFFFFFFFFFFFFFFFFFFFFFFFFFFFFFFFFFFFFFF AND MUL OR SWAP1 SSTORE POP DUP1 PUSH1 0x4 DUP2 SWAP1 SSTORE POP POP POP POP PUSH2 0x1DC JUMP JUMPDEST PUSH0 PUSH0 REVERT JUMPDEST PUSH0 PUSH20 0xFFFFFFFFFFFFFFFFFFFFFFFFFFFFFFFFFFFFFFFF DUP3 AND SWAP1 POP SWAP2 SWAP1 POP JUMP JUMPDEST PUSH0 PUSH2 0xED DUP3 PUSH2 0xC4 JUMP JUMPDEST SWAP1 POP SWAP2 SWAP1 POP JUMP JUMPDEST PUSH2 0xFD DUP2 PUSH2 0xE3 JUMP JUMPDEST DUP2 EQ PUSH2 0x107 JUMPI PUSH0 PUSH0 REVERT JUMPDEST POP JUMP JUMPDEST PUSH0 DUP2 MLOAD SWAP1 POP PUSH2 0x118 DUP2 PUSH2 0xF4 JUMP JUMPDEST SWAP3 SWAP2 POP POP JUMP JUMPDEST PUSH0 PUSH2 0x128 DUP3 PUSH2 0xC4 JUMP JUMPDEST SWAP1 POP SWAP2 SWAP1 POP JUMP JUMPDEST PUSH2 0x138 DUP2 PUSH2 0x11E JUMP JUMPDEST DUP2 EQ PUSH2 0x142 JUMPI PUSH0 PUSH0 REVERT JUMPDEST POP JUMP JUMPDEST PUSH0 DUP2 MLOAD SWAP1 POP PUSH2 0x153 DUP2 PUSH2 0x12F JUMP JUMPDEST SWAP3 SWAP2 POP POP JUMP JUMPDEST PUSH0 DUP2 SWAP1 POP SWAP2 SWAP1 POP JUMP JUMPDEST PUSH2 0x16B DUP2 PUSH2 0x159 JUMP JUMPDEST DUP2 EQ PUSH2 0x175 JUMPI PUSH0 PUSH0 REVERT JUMPDEST POP JUMP JUMPDEST PUSH0 DUP2 MLOAD SWAP1 POP PUSH2 0x186 DUP2 PUSH2 0x162 JUMP JUMPDEST SWAP3 SWAP2 POP POP JUMP JUMPDEST PUSH0 PUSH0 PUSH0 PUSH1 0x60 DUP5 DUP7 SUB SLT ISZERO PUSH2 0x1A3 JUMPI PUSH2 0x1A2 PUSH2 0xC0 JUMP JUMPDEST JUMPDEST PUSH0 PUSH2 0x1B0 DUP7 DUP3 DUP8 ADD PUSH2 0x10A JUMP JUMPDEST SWAP4 POP POP PUSH1 0x20 PUSH2 0x1C1 DUP7 DUP3 DUP8 ADD PUSH2 0x145 JUMP JUMPDEST SWAP3 POP POP PUSH1 0x40 PUSH2 0x1D2 DUP7 DUP3 DUP8 ADD PUSH2 0x178 JUMP JUMPDEST SWAP2 POP POP SWAP3 POP SWAP3 POP SWAP3 JUMP JUMPDEST PUSH2 0x31B6 DUP1 PUSH2 0x1E9 PUSH0 CODECOPY PUSH0 RETURN INVALID PUSH1 0x80 PUSH1 0x40 MSTORE PUSH1 0x4 CALLDATASIZE LT PUSH2 0xE7 JUMPI PUSH0 CALLDATALOAD PUSH1 0xE0 SHR DUP1 PUSH4 0x95F58AB8 GT PUSH2 0x89 JUMPI DUP1 PUSH4 0xC40CF4EB GT PUSH2 0x58 JUMPI DUP1 PUSH4 0xC40CF4EB EQ PUSH2 0x2FF JUMPI DUP1 PUSH4 0xCA5140C9 EQ PUSH2 0x329 JUMPI DUP1 PUSH4 0xDDD5987F EQ PUSH2 0x351 JUMPI DUP1 PUSH4 0xFF418352 EQ PUSH2 0x379 JUMPI PUSH2 0xE7 JUMP JUMPDEST DUP1 PUSH4 0x95F58AB8 EQ PUSH2 0x233 JUMPI DUP1 PUSH4 0x9F349789 EQ PUSH2 0x270 JUMPI DUP1 PUSH4 0xA1EF3577 EQ PUSH2 0x29A JUMPI DUP1 PUSH4 0xA9D00E66 EQ PUSH2 0x2D7 JUMPI PUSH2 0xE7 JUMP JUMPDEST DUP1 PUSH4 0x68744046 GT PUSH2 0xC5 JUMPI DUP1 PUSH4 0x68744046 EQ PUSH2 0x18D JUMPI DUP1 PUSH4 0x6EE26566 EQ PUSH2 0x1D1 JUMPI DUP1 PUSH4 0x7E490A9E EQ PUSH2 0x1ED JUMPI DUP1 PUSH4 0x85D04BAE EQ PUSH2 0x209 JUMPI PUSH2 0xE7 JUMP JUMPDEST DUP1 PUSH4 0x1792A6DA EQ PUSH2 0xEB JUMPI DUP1 PUSH4 0x418B79AB EQ PUSH2 0x115 JUMPI DUP1 PUSH4 0x513073B8 EQ PUSH2 0x151 JUMPI JUMPDEST PUSH0 PUSH0 REVERT JUMPDEST CALLVALUE DUP1 ISZERO PUSH2 0xF6 JUMPI PUSH0 PUSH0 REVERT JUMPDEST POP PUSH2 0xFF PUSH2 0x3B5 JUMP JUMPDEST PUSH1 0x40 MLOAD PUSH2 0x10C SWAP2 SWAP1 PUSH2 0x1D1D JUMP JUMPDEST PUSH1 0x40 MLOAD DUP1 SWAP2 SUB SWAP1 RETURN JUMPDEST CALLVALUE DUP1 ISZERO PUSH2 0x120 JUMPI PUSH0 PUSH0 REVERT JUMPDEST POP PUSH2 0x13B PUSH1 0x4 DUP1 CALLDATASIZE SUB DUP2 ADD SWAP1 PUSH2 0x136 SWAP2 SWAP1 PUSH2 0x1D7A JUMP JUMPDEST PUSH2 0x3DA JUMP JUMPDEST PUSH1 0x40 MLOAD PUSH2 0x148 SWAP2 SWAP1 PUSH2 0x1F0E JUMP JUMPDEST PUSH1 0x40 MLOAD DUP1 SWAP2 SUB SWAP1 RETURN JUMPDEST CALLVALUE DUP1 ISZERO PUSH2 0x15C JUMPI PUSH0 PUSH0 REVERT JUMPDEST POP PUSH2 0x177 PUSH1 0x4 DUP1 CALLDATASIZE SUB DUP2 ADD SWAP1 PUSH2 0x172 SWAP2 SWAP1 PUSH2 0x1D7A JUMP JUMPDEST PUSH2 0x661 JUMP JUMPDEST PUSH1 0x40 MLOAD PUSH2 0x184 SWAP2 SWAP1 PUSH2 0x1F3D JUMP JUMPDEST PUSH1 0x40 MLOAD DUP1 SWAP2 SUB SWAP1 RETURN JUMPDEST CALLVALUE DUP1 ISZERO PUSH2 0x198 JUMPI PUSH0 PUSH0 REVERT JUMPDEST POP PUSH2 0x1B3 PUSH1 0x4 DUP1 CALLDATASIZE SUB DUP2 ADD SWAP1 PUSH2 0x1AE SWAP2 SWAP1 PUSH2 0x1D7A JUMP JUMPDEST PUSH2 0x681 JUMP JUMPDEST PUSH1 0x40 MLOAD PUSH2 0x1C8 SWAP10 SWAP9 SWAP8 SWAP7 SWAP6 SWAP5 SWAP4 SWAP3 SWAP2 SWAP1 PUSH2 0x1FAD JUMP JUMPDEST PUSH1 0x40 MLOAD DUP1 SWAP2 SUB SWAP1 RETURN JUMPDEST PUSH2 0x1EB PUSH1 0x4 DUP1 CALLDATASIZE SUB DUP2 ADD SWAP1 PUSH2 0x1E6 SWAP2 SWAP1 PUSH2 0x1D7A JUMP JUMPDEST PUSH2 0x869 JUMP JUMPDEST STOP JUMPDEST PUSH2 0x207 PUSH1 0x4 DUP1 CALLDATASIZE SUB DUP2 ADD SWAP1 PUSH2 0x202 SWAP2 SWAP1 PUSH2 0x1D7A JUMP JUMPDEST PUSH2 0xC3A JUMP JUMPDEST STOP JUMPDEST CALLVALUE DUP1 ISZERO PUSH2 0x214 JUMPI PUSH0 PUSH0 REVERT JUMPDEST POP PUSH2 0x21D PUSH2 0x11D3 JUMP JUMPDEST PUSH1 0x40 MLOAD PUSH2 0x22A SWAP2 SWAP1 PUSH2 0x1F3D JUMP JUMPDEST PUSH1 0x40 MLOAD DUP1 SWAP2 SUB SWAP1 RETURN JUMPDEST CALLVALUE DUP1 ISZERO PUSH2 0x23E JUMPI PUSH0 PUSH0 REVERT JUMPDEST POP PUSH2 0x259 PUSH1 0x4 DUP1 CALLDATASIZE SUB DUP2 ADD SWAP1 PUSH2 0x254 SWAP2 SWAP1 PUSH2 0x204D JUMP JUMPDEST PUSH2 0x11D9 JUMP JUMPDEST PUSH1 0x40 MLOAD PUSH2 0x267 SWAP3 SWAP2 SWAP1 PUSH2 0x20AB JUMP JUMPDEST PUSH1 0x40 MLOAD DUP1 SWAP2 SUB SWAP1 RETURN JUMPDEST CALLVALUE DUP1 ISZERO PUSH2 0x27B JUMPI PUSH0 PUSH0 REVERT JUMPDEST POP PUSH2 0x284 PUSH2 0x1232 JUMP JUMPDEST PUSH1 0x40 MLOAD PUSH2 0x291 SWAP2 SWAP1 PUSH2 0x225D JUMP JUMPDEST PUSH1 0x40 MLOAD DUP1 SWAP2 SUB SWAP1 RETURN JUMPDEST CALLVALUE DUP1 ISZERO PUSH2 0x2A5 JUMPI PUSH0 PUSH0 REVERT JUMPDEST POP PUSH2 0x2C0 PUSH1 0x4 DUP1 CALLDATASIZE SUB DUP2 ADD SWAP1 PUSH2 0x2BB SWAP2 SWAP1 PUSH2 0x204D JUMP JUMPDEST PUSH2 0x1509 JUMP JUMPDEST PUSH1 0x40 MLOAD PUSH2 0x2CE SWAP3 SWAP2 SWAP1 PUSH2 0x20AB JUMP JUMPDEST PUSH1 0x40 MLOAD DUP1 SWAP2 SUB SWAP1 RETURN JUMPDEST CALLVALUE DUP1 ISZERO PUSH2 0x2E2 JUMPI PUSH0 PUSH0 REVERT JUMPDEST POP PUSH2 0x2FD PUSH1 0x4 DUP1 CALLDATASIZE SUB DUP2 ADD SWAP1 PUSH2 0x2F8 SWAP2 SWAP1 PUSH2 0x23A9 JUMP JUMPDEST PUSH2 0x1562 JUMP JUMPDEST STOP JUMPDEST CALLVALUE DUP1 ISZERO PUSH2 0x30A JUMPI PUSH0 PUSH0 REVERT JUMPDEST POP PUSH2 0x313 PUSH2 0x196A JUMP JUMPDEST PUSH1 0x40 MLOAD PUSH2 0x320 SWAP2 SWAP1 PUSH2 0x24E1 JUMP JUMPDEST PUSH1 0x40 MLOAD DUP1 SWAP2 SUB SWAP1 RETURN JUMPDEST CALLVALUE DUP1 ISZERO PUSH2 0x334 JUMPI PUSH0 PUSH0 REVERT JUMPDEST POP PUSH2 0x34F PUSH1 0x4 DUP1 CALLDATASIZE SUB DUP2 ADD SWAP1 PUSH2 0x34A SWAP2 SWAP1 PUSH2 0x1D7A JUMP JUMPDEST PUSH2 0x198F JUMP JUMPDEST STOP JUMPDEST CALLVALUE DUP1 ISZERO PUSH2 0x35C JUMPI PUSH0 PUSH0 REVERT JUMPDEST POP PUSH2 0x377 PUSH1 0x4 DUP1 CALLDATASIZE SUB DUP2 ADD SWAP1 PUSH2 0x372 SWAP2 SWAP1 PUSH2 0x204D JUMP JUMPDEST PUSH2 0x1B18 JUMP JUMPDEST STOP JUMPDEST CALLVALUE DUP1 ISZERO PUSH2 0x384 JUMPI PUSH0 PUSH0 REVERT JUMPDEST POP PUSH2 0x39F PUSH1 0x4 DUP1 CALLDATASIZE SUB DUP2 ADD SWAP1 PUSH2 0x39A SWAP2 SWAP1 PUSH2 0x2524 JUMP JUMPDEST PUSH2 0x1C6C JUMP JUMPDEST PUSH1 0x40 MLOAD PUSH2 0x3AC SWAP2 SWAP1 PUSH2 0x2562 JUMP JUMPDEST PUSH1 0x40 MLOAD DUP1 SWAP2 SUB SWAP1 RETURN JUMPDEST PUSH1 0x3 PUSH0 SWAP1 SLOAD SWAP1 PUSH2 0x100 EXP SWAP1 DIV PUSH20 0xFFFFFFFFFFFFFFFFFFFFFFFFFFFFFFFFFFFFFFFF AND DUP2 JUMP JUMPDEST PUSH2 0x3E2 PUSH2 0x1C96 JUMP JUMPDEST PUSH1 0x6 PUSH0 DUP4 DUP2 MSTORE PUSH1 0x20 ADD SWAP1 DUP2 MSTORE PUSH1 0x20 ADD PUSH0 KECCAK256 PUSH1 0x7 ADD PUSH0 SWAP1 SLOAD SWAP1 PUSH2 0x100 EXP SWAP1 DIV PUSH1 0xFF AND PUSH2 0x442 JUMPI PUSH1 0x40 MLOAD PUSH32 0x8C379A000000000000000000000000000000000000000000000000000000000 DUP2 MSTORE PUSH1 0x4 ADD PUSH2 0x439 SWAP1 PUSH2 0x25C5 JUMP JUMPDEST PUSH1 0x40 MLOAD DUP1 SWAP2 SUB SWAP1 REVERT JUMPDEST PUSH1 0x6 PUSH0 DUP4 DUP2 MSTORE PUSH1 0x20 ADD SWAP1 DUP2 MSTORE PUSH1 0x20 ADD PUSH0 KECCAK256 PUSH1 0x40 MLOAD DUP1 PUSH2 0x120 ADD PUSH1 0x40 MSTORE SWAP1 DUP2 PUSH0 DUP3 ADD SLOAD DUP2 MSTORE PUSH1 0x20 ADD PUSH1 0x1 DUP3 ADD DUP1 SLOAD PUSH2 0x478 SWAP1 PUSH2 0x2610 JUMP JUMPDEST DUP1 PUSH1 0x1F ADD PUSH1 0x20 DUP1 SWAP2 DIV MUL PUSH1 0x20 ADD PUSH1 0x40 MLOAD SWAP1 DUP2 ADD PUSH1 0x40 MSTORE DUP1 SWAP3 SWAP2 SWAP1 DUP2 DUP2 MSTORE PUSH1 0x20 ADD DUP3 DUP1 SLOAD PUSH2 0x4A4 SWAP1 PUSH2 0x2610 JUMP JUMPDEST DUP1 ISZERO PUSH2 0x4EF JUMPI DUP1 PUSH1 0x1F LT PUSH2 0x4C6 JUMPI PUSH2 0x100 DUP1 DUP4 SLOAD DIV MUL DUP4 MSTORE SWAP2 PUSH1 0x20 ADD SWAP2 PUSH2 0x4EF JUMP JUMPDEST DUP3 ADD SWAP2 SWAP1 PUSH0 MSTORE PUSH1 0x20 PUSH0 KECCAK256 SWAP1 JUMPDEST DUP2 SLOAD DUP2 MSTORE SWAP1 PUSH1 0x1 ADD SWAP1 PUSH1 0x20 ADD DUP1 DUP4 GT PUSH2 0x4D2 JUMPI DUP3 SWAP1 SUB PUSH1 0x1F AND DUP3 ADD SWAP2 JUMPDEST POP POP POP POP POP DUP2 MSTORE PUSH1 0x20 ADD PUSH1 0x2 DUP3 ADD DUP1 SLOAD PUSH2 0x508 SWAP1 PUSH2 0x2610 JUMP JUMPDEST DUP1 PUSH1 0x1F ADD PUSH1 0x20 DUP1 SWAP2 DIV MUL PUSH1 0x20 ADD PUSH1 0x40 MLOAD SWAP1 DUP2 ADD PUSH1 0x40 MSTORE DUP1 SWAP3 SWAP2 SWAP1 DUP2 DUP2 MSTORE PUSH1 0x20 ADD DUP3 DUP1 SLOAD PUSH2 0x534 SWAP1 PUSH2 0x2610 JUMP JUMPDEST DUP1 ISZERO PUSH2 0x57F JUMPI DUP1 PUSH1 0x1F LT PUSH2 0x556 JUMPI PUSH2 0x100 DUP1 DUP4 SLOAD DIV MUL DUP4 MSTORE SWAP2 PUSH1 0x20 ADD SWAP2 PUSH2 0x57F JUMP JUMPDEST DUP3 ADD SWAP2 SWAP1 PUSH0 MSTORE PUSH1 0x20 PUSH0 KECCAK256 SWAP1 JUMPDEST DUP2 SLOAD DUP2 MSTORE SWAP1 PUSH1 0x1 ADD SWAP1 PUSH1 0x20 ADD DUP1 DUP4 GT PUSH2 0x562 JUMPI DUP3 SWAP1 SUB PUSH1 0x1F AND DUP3 ADD SWAP2 JUMPDEST POP POP POP POP POP DUP2 MSTORE PUSH1 0x20 ADD PUSH1 0x3 DUP3 ADD DUP1 SLOAD PUSH2 0x598 SWAP1 PUSH2 0x2610 JUMP JUMPDEST DUP1 PUSH1 0x1F ADD PUSH1 0x20 DUP1 SWAP2 DIV MUL PUSH1 0x20 ADD PUSH1 0x40 MLOAD SWAP1 DUP2 ADD PUSH1 0x40 MSTORE DUP1 SWAP3 SWAP2 SWAP1 DUP2 DUP2 MSTORE PUSH1 0x20 ADD DUP3 DUP1 SLOAD PUSH2 0x5C4 SWAP1 PUSH2 0x2610 JUMP JUMPDEST DUP1 ISZERO PUSH2 0x60F JUMPI DUP1 PUSH1 0x1F LT PUSH2 0x5E6 JUMPI PUSH2 0x100 DUP1 DUP4 SLOAD DIV MUL DUP4 MSTORE SWAP2 PUSH1 0x20 ADD SWAP2 PUSH2 0x60F JUMP JUMPDEST DUP3 ADD SWAP2 SWAP1 PUSH0 MSTORE PUSH1 0x20 PUSH0 KECCAK256 SWAP1 JUMPDEST DUP2 SLOAD DUP2 MSTORE SWAP1 PUSH1 0x1 ADD SWAP1 PUSH1 0x20 ADD DUP1 DUP4 GT PUSH2 0x5F2 JUMPI DUP3 SWAP1 SUB PUSH1 0x1F AND DUP3 ADD SWAP2 JUMPDEST POP POP POP POP POP DUP2 MSTORE PUSH1 0x20 ADD PUSH1 0x4 DUP3 ADD SLOAD DUP2 MSTORE PUSH1 0x20 ADD PUSH1 0x5 DUP3 ADD SLOAD DUP2 MSTORE PUSH1 0x20 ADD PUSH1 0x6 DUP3 ADD SLOAD DUP2 MSTORE PUSH1 0x20 ADD PUSH1 0x7 DUP3 ADD PUSH0 SWAP1 SLOAD SWAP1 PUSH2 0x100 EXP SWAP1 DIV PUSH1 0xFF AND ISZERO ISZERO ISZERO ISZERO DUP2 MSTORE PUSH1 0x20 ADD PUSH1 0x8 DUP3 ADD SLOAD DUP2 MSTORE POP POP SWAP1 POP SWAP2 SWAP1 POP JUMP JUMPDEST PUSH1 0x5 DUP2 DUP2 SLOAD DUP2 LT PUSH2 0x670 JUMPI PUSH0 DUP1 REVERT JUMPDEST SWAP1 PUSH0 MSTORE PUSH1 0x20 PUSH0 KECCAK256 ADD PUSH0 SWAP2 POP SWAP1 POP SLOAD DUP2 JUMP JUMPDEST PUSH1 0x6 PUSH1 0x20 MSTORE DUP1 PUSH0 MSTORE PUSH1 0x40 PUSH0 KECCAK256 PUSH0 SWAP2 POP SWAP1 POP DUP1 PUSH0 ADD SLOAD SWAP1 DUP1 PUSH1 0x1 ADD DUP1 SLOAD PUSH2 0x6A6 SWAP1 PUSH2 0x2610 JUMP JUMPDEST DUP1 PUSH1 0x1F ADD PUSH1 0x20 DUP1 SWAP2 DIV MUL PUSH1 0x20 ADD PUSH1 0x40 MLOAD SWAP1 DUP2 ADD PUSH1 0x40 MSTORE DUP1 SWAP3 SWAP2 SWAP1 DUP2 DUP2 MSTORE PUSH1 0x20 ADD DUP3 DUP1 SLOAD PUSH2 0x6D2 SWAP1 PUSH2 0x2610 JUMP JUMPDEST DUP1 ISZERO PUSH2 0x71D JUMPI DUP1 PUSH1 0x1F LT PUSH2 0x6F4 JUMPI PUSH2 0x100 DUP1 DUP4 SLOAD DIV MUL DUP4 MSTORE SWAP2 PUSH1 0x20 ADD SWAP2 PUSH2 0x71D JUMP JUMPDEST DUP3 ADD SWAP2 SWAP1 PUSH0 MSTORE PUSH1 0x20 PUSH0 KECCAK256 SWAP1 JUMPDEST DUP2 SLOAD DUP2 MSTORE SWAP1 PUSH1 0x1 ADD SWAP1 PUSH1 0x20 ADD DUP1 DUP4 GT PUSH2 0x700 JUMPI DUP3 SWAP1 SUB PUSH1 0x1F AND DUP3 ADD SWAP2 JUMPDEST POP POP POP POP POP SWAP1 DUP1 PUSH1 0x2 ADD DUP1 SLOAD PUSH2 0x732 SWAP1 PUSH2 0x2610 JUMP JUMPDEST DUP1 PUSH1 0x1F ADD PUSH1 0x20 DUP1 SWAP2 DIV MUL PUSH1 0x20 ADD PUSH1 0x40 MLOAD SWAP1 DUP2 ADD PUSH1 0x40 MSTORE DUP1 SWAP3 SWAP2 SWAP1 DUP2 DUP2 MSTORE PUSH1 0x20 ADD DUP3 DUP1 SLOAD PUSH2 0x75E SWAP1 PUSH2 0x2610 JUMP JUMPDEST DUP1 ISZERO PUSH2 0x7A9 JUMPI DUP1 PUSH1 0x1F LT PUSH2 0x780 JUMPI PUSH2 0x100 DUP1 DUP4 SLOAD DIV MUL DUP4 MSTORE SWAP2 PUSH1 0x20 ADD SWAP2 PUSH2 0x7A9 JUMP JUMPDEST DUP3 ADD SWAP2 SWAP1 PUSH0 MSTORE PUSH1 0x20 PUSH0 KECCAK256 SWAP1 JUMPDEST DUP2 SLOAD DUP2 MSTORE SWAP1 PUSH1 0x1 ADD SWAP1 PUSH1 0x20 ADD DUP1 DUP4 GT PUSH2 0x78C JUMPI DUP3 SWAP1 SUB PUSH1 0x1F AND DUP3 ADD SWAP2 JUMPDEST POP POP POP POP POP SWAP1 DUP1 PUSH1 0x3 ADD DUP1 SLOAD PUSH2 0x7BE SWAP1 PUSH2 0x2610 JUMP JUMPDEST DUP1 PUSH1 0x1F ADD PUSH1 0x20 DUP1 SWAP2 DIV MUL PUSH1 0x20 ADD PUSH1 0x40 MLOAD SWAP1 DUP2 ADD PUSH1 0x40 MSTORE DUP1 SWAP3 SWAP2 SWAP1 DUP2 DUP2 MSTORE PUSH1 0x20 ADD DUP3 DUP1 SLOAD PUSH2 0x7EA SWAP1 PUSH2 0x2610 JUMP JUMPDEST DUP1 ISZERO PUSH2 0x835 JUMPI DUP1 PUSH1 0x1F LT PUSH2 0x80C JUMPI PUSH2 0x100 DUP1 DUP4 SLOAD DIV MUL DUP4 MSTORE SWAP2 PUSH1 0x20 ADD SWAP2 PUSH2 0x835 JUMP JUMPDEST DUP3 ADD SWAP2 SWAP1 PUSH0 MSTORE PUSH1 0x20 PUSH0 KECCAK256 SWAP1 JUMPDEST DUP2 SLOAD DUP2 MSTORE SWAP1 PUSH1 0x1 ADD SWAP1 PUSH1 0x20 ADD DUP1 DUP4 GT PUSH2 0x818 JUMPI DUP3 SWAP1 SUB PUSH1 0x1F AND DUP3 ADD SWAP2 JUMPDEST POP POP POP POP POP SWAP1 DUP1 PUSH1 0x4 ADD SLOAD SWAP1 DUP1 PUSH1 0x5 ADD SLOAD SWAP1 DUP1 PUSH1 0x6 ADD SLOAD SWAP1 DUP1 PUSH1 0x7 ADD PUSH0 SWAP1 SLOAD SWAP1 PUSH2 0x100 EXP SWAP1 DIV PUSH1 0xFF AND SWAP1 DUP1 PUSH1 0x8 ADD SLOAD SWAP1 POP DUP10 JUMP JUMPDEST PUSH0 PUSH0 SWAP1 SLOAD SWAP1 PUSH2 0x100 EXP SWAP1 DIV PUSH1 0xFF AND ISZERO PUSH2 0x8B7 JUMPI PUSH1 0x40 MLOAD PUSH32 0x8C379A000000000000000000000000000000000000000000000000000000000 DUP2 MSTORE PUSH1 0x4 ADD PUSH2 0x8AE SWAP1 PUSH2 0x268A JUMP JUMPDEST PUSH1 0x40 MLOAD DUP1 SWAP2 SUB SWAP1 REVERT JUMPDEST PUSH1 0x1 PUSH0 PUSH0 PUSH2 0x100 EXP DUP2 SLOAD DUP2 PUSH1 0xFF MUL NOT AND SWAP1 DUP4 ISZERO ISZERO MUL OR SWAP1 SSTORE POP PUSH0 PUSH1 0x6 PUSH0 DUP4 DUP2 MSTORE PUSH1 0x20 ADD SWAP1 DUP2 MSTORE PUSH1 0x20 ADD PUSH0 KECCAK256 SWAP1 POP DUP1 PUSH1 0x7 ADD PUSH0 SWAP1 SLOAD SWAP1 PUSH2 0x100 EXP SWAP1 DIV PUSH1 0xFF AND PUSH2 0x934 JUMPI PUSH1 0x40 MLOAD PUSH32 0x8C379A000000000000000000000000000000000000000000000000000000000 DUP2 MSTORE PUSH1 0x4 ADD PUSH2 0x92B SWAP1 PUSH2 0x25C5 JUMP JUMPDEST PUSH1 0x40 MLOAD DUP1 SWAP2 SUB SWAP1 REVERT JUMPDEST PUSH0 DUP2 PUSH1 0x4 ADD SLOAD GT PUSH2 0x97A JUMPI PUSH1 0x40 MLOAD PUSH32 0x8C379A000000000000000000000000000000000000000000000000000000000 DUP2 MSTORE PUSH1 0x4 ADD PUSH2 0x971 SWAP1 PUSH2 0x26F2 JUMP JUMPDEST PUSH1 0x40 MLOAD DUP1 SWAP2 SUB SWAP1 REVERT JUMPDEST DUP1 PUSH1 0x5 ADD SLOAD CALLVALUE LT ISZERO PUSH2 0x9C1 JUMPI PUSH1 0x40 MLOAD PUSH32 0x8C379A000000000000000000000000000000000000000000000000000000000 DUP2 MSTORE PUSH1 0x4 ADD PUSH2 0x9B8 SWAP1 PUSH2 0x275A JUMP JUMPDEST PUSH1 0x40 MLOAD DUP1 SWAP2 SUB SWAP1 REVERT JUMPDEST PUSH1 0x1 DUP2 PUSH1 0x4 ADD PUSH0 DUP3 DUP3 SLOAD PUSH2 0x9D5 SWAP2 SWAP1 PUSH2 0x27A5 JUMP JUMPDEST SWAP3 POP POP DUP2 SWAP1 SSTORE POP PUSH1 0x9 PUSH0 DUP4 DUP2 MSTORE PUSH1 0x20 ADD SWAP1 DUP2 MSTORE PUSH1 0x20 ADD PUSH0 KECCAK256 PUSH1 0x40 MLOAD DUP1 PUSH1 0x40 ADD PUSH1 0x40 MSTORE DUP1 CALLER PUSH20 0xFFFFFFFFFFFFFFFFFFFFFFFFFFFFFFFFFFFFFFFF AND DUP2 MSTORE PUSH1 0x20 ADD TIMESTAMP DUP2 MSTORE POP SWAP1 DUP1 PUSH1 0x1 DUP2 SLOAD ADD DUP1 DUP3 SSTORE DUP1 SWAP2 POP POP PUSH1 0x1 SWAP1 SUB SWAP1 PUSH0 MSTORE PUSH1 0x20 PUSH0 KECCAK256 SWAP1 PUSH1 0x2 MUL ADD PUSH0 SWAP1 SWAP2 SWAP1 SWAP2 SWAP1 SWAP2 POP PUSH0 DUP3 ADD MLOAD DUP2 PUSH0 ADD PUSH0 PUSH2 0x100 EXP DUP2 SLOAD DUP2 PUSH20 0xFFFFFFFFFFFFFFFFFFFFFFFFFFFFFFFFFFFFFFFF MUL NOT AND SWAP1 DUP4 PUSH20 0xFFFFFFFFFFFFFFFFFFFFFFFFFFFFFFFFFFFFFFFF AND MUL OR SWAP1 SSTORE POP PUSH1 0x20 DUP3 ADD MLOAD DUP2 PUSH1 0x1 ADD SSTORE POP POP PUSH0 PUSH1 0x3 PUSH0 SWAP1 SLOAD SWAP1 PUSH2 0x100 EXP SWAP1 DIV PUSH20 0xFFFFFFFFFFFFFFFFFFFFFFFFFFFFFFFFFFFFFFFF AND PUSH20 0xFFFFFFFFFFFFFFFFFFFFFFFFFFFFFFFFFFFFFFFF AND CALLVALUE PUSH1 0x40 MLOAD PUSH2 0xAD4 SWAP1 PUSH2 0x2805 JUMP JUMPDEST PUSH0 PUSH1 0x40 MLOAD DUP1 DUP4 SUB DUP2 DUP6 DUP8 GAS CALL SWAP3 POP POP POP RETURNDATASIZE DUP1 PUSH0 DUP2 EQ PUSH2 0xB0E JUMPI PUSH1 0x40 MLOAD SWAP2 POP PUSH1 0x1F NOT PUSH1 0x3F RETURNDATASIZE ADD AND DUP3 ADD PUSH1 0x40 MSTORE RETURNDATASIZE DUP3 MSTORE RETURNDATASIZE PUSH0 PUSH1 0x20 DUP5 ADD RETURNDATACOPY PUSH2 0xB13 JUMP JUMPDEST PUSH1 0x60 SWAP2 POP JUMPDEST POP POP SWAP1 POP DUP1 PUSH2 0xB57 JUMPI PUSH1 0x40 MLOAD PUSH32 0x8C379A000000000000000000000000000000000000000000000000000000000 DUP2 MSTORE PUSH1 0x4 ADD PUSH2 0xB4E SWAP1 PUSH2 0x2863 JUMP JUMPDEST PUSH1 0x40 MLOAD DUP1 SWAP2 SUB SWAP1 REVERT JUMPDEST PUSH0 DUP3 PUSH1 0x5 ADD SLOAD CALLVALUE PUSH2 0xB68 SWAP2 SWAP1 PUSH2 0x27A5 JUMP JUMPDEST SWAP1 POP PUSH0 DUP2 GT ISZERO PUSH2 0xC1C JUMPI PUSH0 CALLER PUSH20 0xFFFFFFFFFFFFFFFFFFFFFFFFFFFFFFFFFFFFFFFF AND DUP3 PUSH1 0x40 MLOAD PUSH2 0xB97 SWAP1 PUSH2 0x2805 JUMP JUMPDEST PUSH0 PUSH1 0x40 MLOAD DUP1 DUP4 SUB DUP2 DUP6 DUP8 GAS CALL SWAP3 POP POP POP RETURNDATASIZE DUP1 PUSH0 DUP2 EQ PUSH2 0xBD1 JUMPI PUSH1 0x40 MLOAD SWAP2 POP PUSH1 0x1F NOT PUSH1 0x3F RETURNDATASIZE ADD AND DUP3 ADD PUSH1 0x40 MSTORE RETURNDATASIZE DUP3 MSTORE RETURNDATASIZE PUSH0 PUSH1 0x20 DUP5 ADD RETURNDATACOPY PUSH2 0xBD6 JUMP JUMPDEST PUSH1 0x60 SWAP2 POP JUMPDEST POP POP SWAP1 POP DUP1 PUSH2 0xC1A JUMPI PUSH1 0x40 MLOAD PUSH32 0x8C379A000000000000000000000000000000000000000000000000000000000 DUP2 MSTORE PUSH1 0x4 ADD PUSH2 0xC11 SWAP1 PUSH2 0x28CB JUMP JUMPDEST PUSH1 0x40 MLOAD DUP1 SWAP2 SUB SWAP1 REVERT JUMPDEST POP JUMPDEST POP POP POP PUSH0 PUSH0 PUSH0 PUSH2 0x100 EXP DUP2 SLOAD DUP2 PUSH1 0xFF MUL NOT AND SWAP1 DUP4 ISZERO ISZERO MUL OR SWAP1 SSTORE POP POP JUMP JUMPDEST PUSH0 PUSH0 SWAP1 SLOAD SWAP1 PUSH2 0x100 EXP SWAP1 DIV PUSH1 0xFF AND ISZERO PUSH2 0xC88 JUMPI PUSH1 0x40 MLOAD PUSH32 0x8C379A000000000000000000000000000000000000000000000000000000000 DUP2 MSTORE PUSH1 0x4 ADD PUSH2 0xC7F SWAP1 PUSH2 0x268A JUMP JUMPDEST PUSH1 0x40 MLOAD DUP1 SWAP2 SUB SWAP1 REVERT JUMPDEST PUSH1 0x1 PUSH0 PUSH0 PUSH2 0x100 EXP DUP2 SLOAD DUP2 PUSH1 0xFF MUL NOT AND SWAP1 DUP4 ISZERO ISZERO MUL OR SWAP1 SSTORE POP PUSH1 0x6 PUSH0 DUP3 DUP2 MSTORE PUSH1 0x20 ADD SWAP1 DUP2 MSTORE PUSH1 0x20 ADD PUSH0 KECCAK256 PUSH1 0x7 ADD PUSH0 SWAP1 SLOAD SWAP1 PUSH2 0x100 EXP SWAP1 DIV PUSH1 0xFF AND PUSH2 0xD01 JUMPI PUSH1 0x40 MLOAD PUSH32 0x8C379A000000000000000000000000000000000000000000000000000000000 DUP2 MSTORE PUSH1 0x4 ADD PUSH2 0xCF8 SWAP1 PUSH2 0x2933 JUMP JUMPDEST PUSH1 0x40 MLOAD DUP1 SWAP2 SUB SWAP1 REVERT JUMPDEST PUSH0 PUSH1 0x6 PUSH0 DUP4 DUP2 MSTORE PUSH1 0x20 ADD SWAP1 DUP2 MSTORE PUSH1 0x20 ADD PUSH0 KECCAK256 PUSH1 0x4 ADD SLOAD GT PUSH2 0xD57 JUMPI PUSH1 0x40 MLOAD PUSH32 0x8C379A000000000000000000000000000000000000000000000000000000000 DUP2 MSTORE PUSH1 0x4 ADD PUSH2 0xD4E SWAP1 PUSH2 0x299B JUMP JUMPDEST PUSH1 0x40 MLOAD DUP1 SWAP2 SUB SWAP1 REVERT JUMPDEST PUSH1 0xA PUSH0 DUP3 DUP2 MSTORE PUSH1 0x20 ADD SWAP1 DUP2 MSTORE PUSH1 0x20 ADD PUSH0 KECCAK256 PUSH0 CALLER PUSH20 0xFFFFFFFFFFFFFFFFFFFFFFFFFFFFFFFFFFFFFFFF AND PUSH20 0xFFFFFFFFFFFFFFFFFFFFFFFFFFFFFFFFFFFFFFFF AND DUP2 MSTORE PUSH1 0x20 ADD SWAP1 DUP2 MSTORE PUSH1 0x20 ADD PUSH0 KECCAK256 PUSH0 SWAP1 SLOAD SWAP1 PUSH2 0x100 EXP SWAP1 DIV PUSH1 0xFF AND PUSH2 0xDEF JUMPI PUSH1 0x40 MLOAD PUSH32 0x8C379A000000000000000000000000000000000000000000000000000000000 DUP2 MSTORE PUSH1 0x4 ADD PUSH2 0xDE6 SWAP1 PUSH2 0x2A03 JUMP JUMPDEST PUSH1 0x40 MLOAD DUP1 SWAP2 SUB SWAP1 REVERT JUMPDEST PUSH0 PUSH1 0x6 PUSH0 DUP4 DUP2 MSTORE PUSH1 0x20 ADD SWAP1 DUP2 MSTORE PUSH1 0x20 ADD PUSH0 KECCAK256 SWAP1 POP PUSH0 PUSH1 0x2 PUSH0 SWAP1 SLOAD SWAP1 PUSH2 0x100 EXP SWAP1 DIV PUSH20 0xFFFFFFFFFFFFFFFFFFFFFFFFFFFFFFFFFFFFFFFF AND PUSH20 0xFFFFFFFFFFFFFFFFFFFFFFFFFFFFFFFFFFFFFFFF AND PUSH4 0x506B27F0 CALLER PUSH1 0x40 MLOAD DUP3 PUSH4 0xFFFFFFFF AND PUSH1 0xE0 SHL DUP2 MSTORE PUSH1 0x4 ADD PUSH2 0xE5E SWAP2 SWAP1 PUSH2 0x2A21 JUMP JUMPDEST PUSH1 0x20 PUSH1 0x40 MLOAD DUP1 DUP4 SUB DUP2 DUP7 GAS STATICCALL ISZERO DUP1 ISZERO PUSH2 0xE79 JUMPI RETURNDATASIZE PUSH0 PUSH0 RETURNDATACOPY RETURNDATASIZE PUSH0 REVERT JUMPDEST POP POP POP POP PUSH1 0x40 MLOAD RETURNDATASIZE PUSH1 0x1F NOT PUSH1 0x1F DUP3 ADD AND DUP3 ADD DUP1 PUSH1 0x40 MSTORE POP DUP2 ADD SWAP1 PUSH2 0xE9D SWAP2 SWAP1 PUSH2 0x2A64 JUMP JUMPDEST SWAP1 POP PUSH0 DUP2 PUSH2 0xEAD JUMPI PUSH1 0x4 SLOAD PUSH2 0xEB3 JUMP JUMPDEST DUP3 PUSH1 0x6 ADD SLOAD JUMPDEST SWAP1 POP DUP1 CALLVALUE LT ISZERO PUSH2 0xEF8 JUMPI PUSH1 0x40 MLOAD PUSH32 0x8C379A000000000000000000000000000000000000000000000000000000000 DUP2 MSTORE PUSH1 0x4 ADD PUSH2 0xEEF SWAP1 PUSH2 0x2AD9 JUMP JUMPDEST PUSH1 0x40 MLOAD DUP1 SWAP2 SUB SWAP1 REVERT JUMPDEST PUSH1 0x1 PUSH1 0xA PUSH0 DUP7 DUP2 MSTORE PUSH1 0x20 ADD SWAP1 DUP2 MSTORE PUSH1 0x20 ADD PUSH0 KECCAK256 PUSH0 CALLER PUSH20 0xFFFFFFFFFFFFFFFFFFFFFFFFFFFFFFFFFFFFFFFF AND PUSH20 0xFFFFFFFFFFFFFFFFFFFFFFFFFFFFFFFFFFFFFFFF AND DUP2 MSTORE PUSH1 0x20 ADD SWAP1 DUP2 MSTORE PUSH1 0x20 ADD PUSH0 KECCAK256 PUSH0 PUSH2 0x100 EXP DUP2 SLOAD DUP2 PUSH1 0xFF MUL NOT AND SWAP1 DUP4 ISZERO ISZERO MUL OR SWAP1 SSTORE POP PUSH1 0x8 PUSH0 DUP6 DUP2 MSTORE PUSH1 0x20 ADD SWAP1 DUP2 MSTORE PUSH1 0x20 ADD PUSH0 KECCAK256 PUSH1 0x40 MLOAD DUP1 PUSH1 0x40 ADD PUSH1 0x40 MSTORE DUP1 CALLER PUSH20 0xFFFFFFFFFFFFFFFFFFFFFFFFFFFFFFFFFFFFFFFF AND DUP2 MSTORE PUSH1 0x20 ADD TIMESTAMP DUP2 MSTORE POP SWAP1 DUP1 PUSH1 0x1 DUP2 SLOAD ADD DUP1 DUP3 SSTORE DUP1 SWAP2 POP POP PUSH1 0x1 SWAP1 SUB SWAP1 PUSH0 MSTORE PUSH1 0x20 PUSH0 KECCAK256 SWAP1 PUSH1 0x2 MUL ADD PUSH0 SWAP1 SWAP2 SWAP1 SWAP2 SWAP1 SWAP2 POP PUSH0 DUP3 ADD MLOAD DUP2 PUSH0 ADD PUSH0 PUSH2 0x100 EXP DUP2 SLOAD DUP2 PUSH20 0xFFFFFFFFFFFFFFFFFFFFFFFFFFFFFFFFFFFFFFFF MUL NOT AND SWAP1 DUP4 PUSH20 0xFFFFFFFFFFFFFFFFFFFFFFFFFFFFFFFFFFFFFFFF AND MUL OR SWAP1 SSTORE POP PUSH1 0x20 DUP3 ADD MLOAD DUP2 PUSH1 0x1 ADD SSTORE POP POP PUSH1 0x1 DUP4 PUSH1 0x4 ADD PUSH0 DUP3 DUP3 SLOAD PUSH2 0x1022 SWAP2 SWAP1 PUSH2 0x27A5 JUMP JUMPDEST SWAP3 POP POP DUP2 SWAP1 SSTORE POP PUSH0 PUSH1 0x3 PUSH0 SWAP1 SLOAD SWAP1 PUSH2 0x100 EXP SWAP1 DIV PUSH20 0xFFFFFFFFFFFFFFFFFFFFFFFFFFFFFFFFFFFFFFFF AND PUSH20 0xFFFFFFFFFFFFFFFFFFFFFFFFFFFFFFFFFFFFFFFF AND DUP3 PUSH1 0x40 MLOAD PUSH2 0x106F SWAP1 PUSH2 0x2805 JUMP JUMPDEST PUSH0 PUSH1 0x40 MLOAD DUP1 DUP4 SUB DUP2 DUP6 DUP8 GAS CALL SWAP3 POP POP POP RETURNDATASIZE DUP1 PUSH0 DUP2 EQ PUSH2 0x10A9 JUMPI PUSH1 0x40 MLOAD SWAP2 POP PUSH1 0x1F NOT PUSH1 0x3F RETURNDATASIZE ADD AND DUP3 ADD PUSH1 0x40 MSTORE RETURNDATASIZE DUP3 MSTORE RETURNDATASIZE PUSH0 PUSH1 0x20 DUP5 ADD RETURNDATACOPY PUSH2 0x10AE JUMP JUMPDEST PUSH1 0x60 SWAP2 POP JUMPDEST POP POP SWAP1 POP DUP1 PUSH2 0x10F2 JUMPI PUSH1 0x40 MLOAD PUSH32 0x8C379A000000000000000000000000000000000000000000000000000000000 DUP2 MSTORE PUSH1 0x4 ADD PUSH2 0x10E9 SWAP1 PUSH2 0x2863 JUMP JUMPDEST PUSH1 0x40 MLOAD DUP1 SWAP2 SUB SWAP1 REVERT JUMPDEST PUSH0 DUP3 CALLVALUE PUSH2 0x10FF SWAP2 SWAP1 PUSH2 0x27A5 JUMP JUMPDEST SWAP1 POP PUSH0 DUP2 GT ISZERO PUSH2 0x11B3 JUMPI PUSH0 CALLER PUSH20 0xFFFFFFFFFFFFFFFFFFFFFFFFFFFFFFFFFFFFFFFF AND DUP3 PUSH1 0x40 MLOAD PUSH2 0x112E SWAP1 PUSH2 0x2805 JUMP JUMPDEST PUSH0 PUSH1 0x40 MLOAD DUP1 DUP4 SUB DUP2 DUP6 DUP8 GAS CALL SWAP3 POP POP POP RETURNDATASIZE DUP1 PUSH0 DUP2 EQ PUSH2 0x1168 JUMPI PUSH1 0x40 MLOAD SWAP2 POP PUSH1 0x1F NOT PUSH1 0x3F RETURNDATASIZE ADD AND DUP3 ADD PUSH1 0x40 MSTORE RETURNDATASIZE DUP3 MSTORE RETURNDATASIZE PUSH0 PUSH1 0x20 DUP5 ADD RETURNDATACOPY PUSH2 0x116D JUMP JUMPDEST PUSH1 0x60 SWAP2 POP JUMPDEST POP POP SWAP1 POP DUP1 PUSH2 0x11B1 JUMPI PUSH1 0x40 MLOAD PUSH32 0x8C379A000000000000000000000000000000000000000000000000000000000 DUP2 MSTORE PUSH1 0x4 ADD PUSH2 0x11A8 SWAP1 PUSH2 0x28CB JUMP JUMPDEST PUSH1 0x40 MLOAD DUP1 SWAP2 SUB SWAP1 REVERT JUMPDEST POP JUMPDEST POP POP POP POP POP PUSH0 PUSH0 PUSH0 PUSH2 0x100 EXP DUP2 SLOAD DUP2 PUSH1 0xFF MUL NOT AND SWAP1 DUP4 ISZERO ISZERO MUL OR SWAP1 SSTORE POP POP JUMP JUMPDEST PUSH1 0x4 SLOAD DUP2 JUMP JUMPDEST PUSH1 0x9 PUSH1 0x20 MSTORE DUP2 PUSH0 MSTORE PUSH1 0x40 PUSH0 KECCAK256 DUP2 DUP2 SLOAD DUP2 LT PUSH2 0x11F2 JUMPI PUSH0 DUP1 REVERT JUMPDEST SWAP1 PUSH0 MSTORE PUSH1 0x20 PUSH0 KECCAK256 SWAP1 PUSH1 0x2 MUL ADD PUSH0 SWAP2 POP SWAP2 POP POP DUP1 PUSH0 ADD PUSH0 SWAP1 SLOAD SWAP1 PUSH2 0x100 EXP SWAP1 DIV PUSH20 0xFFFFFFFFFFFFFFFFFFFFFFFFFFFFFFFFFFFFFFFF AND SWAP1 DUP1 PUSH1 0x1 ADD SLOAD SWAP1 POP DUP3 JUMP JUMPDEST PUSH1 0x60 PUSH0 PUSH1 0x5 DUP1 SLOAD SWAP1 POP PUSH8 0xFFFFFFFFFFFFFFFF DUP2 GT ISZERO PUSH2 0x1254 JUMPI PUSH2 0x1253 PUSH2 0x2285 JUMP JUMPDEST JUMPDEST PUSH1 0x40 MLOAD SWAP1 DUP1 DUP3 MSTORE DUP1 PUSH1 0x20 MUL PUSH1 0x20 ADD DUP3 ADD PUSH1 0x40 MSTORE DUP1 ISZERO PUSH2 0x128D JUMPI DUP2 PUSH1 0x20 ADD JUMPDEST PUSH2 0x127A PUSH2 0x1C96 JUMP JUMPDEST DUP2 MSTORE PUSH1 0x20 ADD SWAP1 PUSH1 0x1 SWAP1 SUB SWAP1 DUP2 PUSH2 0x1272 JUMPI SWAP1 POP JUMPDEST POP SWAP1 POP PUSH0 PUSH0 SWAP1 POP JUMPDEST PUSH1 0x5 DUP1 SLOAD SWAP1 POP DUP2 LT ISZERO PUSH2 0x1501 JUMPI PUSH1 0x6 PUSH0 PUSH1 0x5 DUP4 DUP2 SLOAD DUP2 LT PUSH2 0x12B9 JUMPI PUSH2 0x12B8 PUSH2 0x2AF7 JUMP JUMPDEST JUMPDEST SWAP1 PUSH0 MSTORE PUSH1 0x20 PUSH0 KECCAK256 ADD SLOAD DUP2 MSTORE PUSH1 0x20 ADD SWAP1 DUP2 MSTORE PUSH1 0x20 ADD PUSH0 KECCAK256 PUSH1 0x40 MLOAD DUP1 PUSH2 0x120 ADD PUSH1 0x40 MSTORE SWAP1 DUP2 PUSH0 DUP3 ADD SLOAD DUP2 MSTORE PUSH1 0x20 ADD PUSH1 0x1 DUP3 ADD DUP1 SLOAD PUSH2 0x12F4 SWAP1 PUSH2 0x2610 JUMP JUMPDEST DUP1 PUSH1 0x1F ADD PUSH1 0x20 DUP1 SWAP2 DIV MUL PUSH1 0x20 ADD PUSH1 0x40 MLOAD SWAP1 DUP2 ADD PUSH1 0x40 MSTORE DUP1 SWAP3 SWAP2 SWAP1 DUP2 DUP2 MSTORE PUSH1 0x20 ADD DUP3 DUP1 SLOAD PUSH2 0x1320 SWAP1 PUSH2 0x2610 JUMP JUMPDEST DUP1 ISZERO PUSH2 0x136B JUMPI DUP1 PUSH1 0x1F LT PUSH2 0x1342 JUMPI PUSH2 0x100 DUP1 DUP4 SLOAD DIV MUL DUP4 MSTORE SWAP2 PUSH1 0x20 ADD SWAP2 PUSH2 0x136B JUMP JUMPDEST DUP3 ADD SWAP2 SWAP1 PUSH0 MSTORE PUSH1 0x20 PUSH0 KECCAK256 SWAP1 JUMPDEST DUP2 SLOAD DUP2 MSTORE SWAP1 PUSH1 0x1 ADD SWAP1 PUSH1 0x20 ADD DUP1 DUP4 GT PUSH2 0x134E JUMPI DUP3 SWAP1 SUB PUSH1 0x1F AND DUP3 ADD SWAP2 JUMPDEST POP POP POP POP POP DUP2 MSTORE PUSH1 0x20 ADD PUSH1 0x2 DUP3 ADD DUP1 SLOAD PUSH2 0x1384 SWAP1 PUSH2 0x2610 JUMP JUMPDEST DUP1 PUSH1 0x1F ADD PUSH1 0x20 DUP1 SWAP2 DIV MUL PUSH1 0x20 ADD PUSH1 0x40 MLOAD SWAP1 DUP2 ADD PUSH1 0x40 MSTORE DUP1 SWAP3 SWAP2 SWAP1 DUP2 DUP2 MSTORE PUSH1 0x20 ADD DUP3 DUP1 SLOAD PUSH2 0x13B0 SWAP1 PUSH2 0x2610 JUMP JUMPDEST DUP1 ISZERO PUSH2 0x13FB JUMPI DUP1 PUSH1 0x1F LT PUSH2 0x13D2 JUMPI PUSH2 0x100 DUP1 DUP4 SLOAD DIV MUL DUP4 MSTORE SWAP2 PUSH1 0x20 ADD SWAP2 PUSH2 0x13FB JUMP JUMPDEST DUP3 ADD SWAP2 SWAP1 PUSH0 MSTORE PUSH1 0x20 PUSH0 KECCAK256 SWAP1 JUMPDEST DUP2 SLOAD DUP2 MSTORE SWAP1 PUSH1 0x1 ADD SWAP1 PUSH1 0x20 ADD DUP1 DUP4 GT PUSH2 0x13DE JUMPI DUP3 SWAP1 SUB PUSH1 0x1F AND DUP3 ADD SWAP2 JUMPDEST POP POP POP POP POP DUP2 MSTORE PUSH1 0x20 ADD PUSH1 0x3 DUP3 ADD DUP1 SLOAD PUSH2 0x1414 SWAP1 PUSH2 0x2610 JUMP JUMPDEST DUP1 PUSH1 0x1F ADD PUSH1 0x20 DUP1 SWAP2 DIV MUL PUSH1 0x20 ADD PUSH1 0x40 MLOAD SWAP1 DUP2 ADD PUSH1 0x40 MSTORE DUP1 SWAP3 SWAP2 SWAP1 DUP2 DUP2 MSTORE PUSH1 0x20 ADD DUP3 DUP1 SLOAD PUSH2 0x1440 SWAP1 PUSH2 0x2610 JUMP JUMPDEST DUP1 ISZERO PUSH2 0x148B JUMPI DUP1 PUSH1 0x1F LT PUSH2 0x1462 JUMPI PUSH2 0x100 DUP1 DUP4 SLOAD DIV MUL DUP4 MSTORE SWAP2 PUSH1 0x20 ADD SWAP2 PUSH2 0x148B JUMP JUMPDEST DUP3 ADD SWAP2 SWAP1 PUSH0 MSTORE PUSH1 0x20 PUSH0 KECCAK256 SWAP1 JUMPDEST DUP2 SLOAD DUP2 MSTORE SWAP1 PUSH1 0x1 ADD SWAP1 PUSH1 0x20 ADD DUP1 DUP4 GT PUSH2 0x146E JUMPI DUP3 SWAP1 SUB PUSH1 0x1F AND DUP3 ADD SWAP2 JUMPDEST POP POP POP POP POP DUP2 MSTORE PUSH1 0x20 ADD PUSH1 0x4 DUP3 ADD SLOAD DUP2 MSTORE PUSH1 0x20 ADD PUSH1 0x5 DUP3 ADD SLOAD DUP2 MSTORE PUSH1 0x20 ADD PUSH1 0x6 DUP3 ADD SLOAD DUP2 MSTORE PUSH1 0x20 ADD PUSH1 0x7 DUP3 ADD PUSH0 SWAP1 SLOAD SWAP1 PUSH2 0x100 EXP SWAP1 DIV PUSH1 0xFF AND ISZERO ISZERO ISZERO ISZERO DUP2 MSTORE PUSH1 0x20 ADD PUSH1 0x8 DUP3 ADD SLOAD DUP2 MSTORE POP POP DUP3 DUP3 DUP2 MLOAD DUP2 LT PUSH2 0x14E9 JUMPI PUSH2 0x14E8 PUSH2 0x2AF7 JUMP JUMPDEST JUMPDEST PUSH1 0x20 MUL PUSH1 0x20 ADD ADD DUP2 SWAP1 MSTORE POP DUP1 DUP1 PUSH1 0x1 ADD SWAP2 POP POP PUSH2 0x1295 JUMP JUMPDEST POP DUP1 SWAP2 POP POP SWAP1 JUMP JUMPDEST PUSH1 0x8 PUSH1 0x20 MSTORE DUP2 PUSH0 MSTORE PUSH1 0x40 PUSH0 KECCAK256 DUP2 DUP2 SLOAD DUP2 LT PUSH2 0x1522 JUMPI PUSH0 DUP1 REVERT JUMPDEST SWAP1 PUSH0 MSTORE PUSH1 0x20 PUSH0 KECCAK256 SWAP1 PUSH1 0x2 MUL ADD PUSH0 SWAP2 POP SWAP2 POP POP DUP1 PUSH0 ADD PUSH0 SWAP1 SLOAD SWAP1 PUSH2 0x100 EXP SWAP1 DIV PUSH20 0xFFFFFFFFFFFFFFFFFFFFFFFFFFFFFFFFFFFFFFFF AND SWAP1 DUP1 PUSH1 0x1 ADD SLOAD SWAP1 POP DUP3 JUMP JUMPDEST PUSH1 0x3 PUSH0 SWAP1 SLOAD SWAP1 PUSH2 0x100 EXP SWAP1 DIV PUSH20 0xFFFFFFFFFFFFFFFFFFFFFFFFFFFFFFFFFFFFFFFF AND PUSH20 0xFFFFFFFFFFFFFFFFFFFFFFFFFFFFFFFFFFFFFFFF AND CALLER PUSH20 0xFFFFFFFFFFFFFFFFFFFFFFFFFFFFFFFFFFFFFFFF AND EQ PUSH2 0x15F1 JUMPI PUSH1 0x40 MLOAD PUSH32 0x8C379A000000000000000000000000000000000000000000000000000000000 DUP2 MSTORE PUSH1 0x4 ADD PUSH2 0x15E8 SWAP1 PUSH2 0x2B6E JUMP JUMPDEST PUSH1 0x40 MLOAD DUP1 SWAP2 SUB SWAP1 REVERT JUMPDEST PUSH0 DUP7 MLOAD GT PUSH2 0x1634 JUMPI PUSH1 0x40 MLOAD PUSH32 0x8C379A000000000000000000000000000000000000000000000000000000000 DUP2 MSTORE PUSH1 0x4 ADD PUSH2 0x162B SWAP1 PUSH2 0x2BD6 JUMP JUMPDEST PUSH1 0x40 MLOAD DUP1 SWAP2 SUB SWAP1 REVERT JUMPDEST PUSH0 DUP6 MLOAD GT PUSH2 0x1677 JUMPI PUSH1 0x40 MLOAD PUSH32 0x8C379A000000000000000000000000000000000000000000000000000000000 DUP2 MSTORE PUSH1 0x4 ADD PUSH2 0x166E SWAP1 PUSH2 0x2C3E JUMP JUMPDEST PUSH1 0x40 MLOAD DUP1 SWAP2 SUB SWAP1 REVERT JUMPDEST PUSH0 DUP5 MLOAD GT PUSH2 0x16BA JUMPI PUSH1 0x40 MLOAD PUSH32 0x8C379A000000000000000000000000000000000000000000000000000000000 DUP2 MSTORE PUSH1 0x4 ADD PUSH2 0x16B1 SWAP1 PUSH2 0x2CA6 JUMP JUMPDEST PUSH1 0x40 MLOAD DUP1 SWAP2 SUB SWAP1 REVERT JUMPDEST PUSH0 DUP4 GT PUSH2 0x16FC JUMPI PUSH1 0x40 MLOAD PUSH32 0x8C379A000000000000000000000000000000000000000000000000000000000 DUP2 MSTORE PUSH1 0x4 ADD PUSH2 0x16F3 SWAP1 PUSH2 0x2D0E JUMP JUMPDEST PUSH1 0x40 MLOAD DUP1 SWAP2 SUB SWAP1 REVERT JUMPDEST PUSH0 DUP3 GT PUSH2 0x173E JUMPI PUSH1 0x40 MLOAD PUSH32 0x8C379A000000000000000000000000000000000000000000000000000000000 DUP2 MSTORE PUSH1 0x4 ADD PUSH2 0x1735 SWAP1 PUSH2 0x2D76 JUMP JUMPDEST PUSH1 0x40 MLOAD DUP1 SWAP2 SUB SWAP1 REVERT JUMPDEST PUSH0 DUP2 GT PUSH2 0x1780 JUMPI PUSH1 0x40 MLOAD PUSH32 0x8C379A000000000000000000000000000000000000000000000000000000000 DUP2 MSTORE PUSH1 0x4 ADD PUSH2 0x1777 SWAP1 PUSH2 0x2D76 JUMP JUMPDEST PUSH1 0x40 MLOAD DUP1 SWAP2 SUB SWAP1 REVERT JUMPDEST PUSH0 DUP7 DUP7 PUSH1 0x40 MLOAD PUSH1 0x20 ADD PUSH2 0x1794 SWAP3 SWAP2 SWAP1 PUSH2 0x2DCE JUMP JUMPDEST PUSH1 0x40 MLOAD PUSH1 0x20 DUP2 DUP4 SUB SUB DUP2 MSTORE SWAP1 PUSH1 0x40 MSTORE DUP1 MLOAD SWAP1 PUSH1 0x20 ADD KECCAK256 SWAP1 POP PUSH1 0x7 PUSH0 DUP3 DUP2 MSTORE PUSH1 0x20 ADD SWAP1 DUP2 MSTORE PUSH1 0x20 ADD PUSH0 KECCAK256 PUSH0 SWAP1 SLOAD SWAP1 PUSH2 0x100 EXP SWAP1 DIV PUSH1 0xFF AND ISZERO PUSH2 0x180A JUMPI PUSH1 0x40 MLOAD PUSH32 0x8C379A000000000000000000000000000000000000000000000000000000000 DUP2 MSTORE PUSH1 0x4 ADD PUSH2 0x1801 SWAP1 PUSH2 0x2E61 JUMP JUMPDEST PUSH1 0x40 MLOAD DUP1 SWAP2 SUB SWAP1 REVERT JUMPDEST PUSH1 0x1 PUSH1 0x7 PUSH0 DUP4 DUP2 MSTORE PUSH1 0x20 ADD SWAP1 DUP2 MSTORE PUSH1 0x20 ADD PUSH0 KECCAK256 PUSH0 PUSH2 0x100 EXP DUP2 SLOAD DUP2 PUSH1 0xFF MUL NOT AND SWAP1 DUP4 ISZERO ISZERO MUL OR SWAP1 SSTORE POP PUSH1 0x1 DUP1 PUSH0 DUP3 DUP3 SLOAD PUSH2 0x1844 SWAP2 SWAP1 PUSH2 0x2E7F JUMP JUMPDEST SWAP3 POP POP DUP2 SWAP1 SSTORE POP PUSH0 PUSH1 0x1 SLOAD SWAP1 POP PUSH1 0x40 MLOAD DUP1 PUSH2 0x120 ADD PUSH1 0x40 MSTORE DUP1 DUP3 DUP2 MSTORE PUSH1 0x20 ADD DUP10 DUP2 MSTORE PUSH1 0x20 ADD DUP9 DUP2 MSTORE PUSH1 0x20 ADD DUP8 DUP2 MSTORE PUSH1 0x20 ADD DUP7 DUP2 MSTORE PUSH1 0x20 ADD DUP6 DUP2 MSTORE PUSH1 0x20 ADD DUP5 DUP2 MSTORE PUSH1 0x20 ADD PUSH1 0x1 ISZERO ISZERO DUP2 MSTORE PUSH1 0x20 ADD TIMESTAMP DUP2 MSTORE POP PUSH1 0x6 PUSH0 DUP4 DUP2 MSTORE PUSH1 0x20 ADD SWAP1 DUP2 MSTORE PUSH1 0x20 ADD PUSH0 KECCAK256 PUSH0 DUP3 ADD MLOAD DUP2 PUSH0 ADD SSTORE PUSH1 0x20 DUP3 ADD MLOAD DUP2 PUSH1 0x1 ADD SWAP1 DUP2 PUSH2 0x18C2 SWAP2 SWAP1 PUSH2 0x3049 JUMP JUMPDEST POP PUSH1 0x40 DUP3 ADD MLOAD DUP2 PUSH1 0x2 ADD SWAP1 DUP2 PUSH2 0x18D8 SWAP2 SWAP1 PUSH2 0x3049 JUMP JUMPDEST POP PUSH1 0x60 DUP3 ADD MLOAD DUP2 PUSH1 0x3 ADD SWAP1 DUP2 PUSH2 0x18EE SWAP2 SWAP1 PUSH2 0x3049 JUMP JUMPDEST POP PUSH1 0x80 DUP3 ADD MLOAD DUP2 PUSH1 0x4 ADD SSTORE PUSH1 0xA0 DUP3 ADD MLOAD DUP2 PUSH1 0x5 ADD SSTORE PUSH1 0xC0 DUP3 ADD MLOAD DUP2 PUSH1 0x6 ADD SSTORE PUSH1 0xE0 DUP3 ADD MLOAD DUP2 PUSH1 0x7 ADD PUSH0 PUSH2 0x100 EXP DUP2 SLOAD DUP2 PUSH1 0xFF MUL NOT AND SWAP1 DUP4 ISZERO ISZERO MUL OR SWAP1 SSTORE POP PUSH2 0x100 DUP3 ADD MLOAD DUP2 PUSH1 0x8 ADD SSTORE SWAP1 POP POP PUSH1 0x5 DUP2 SWAP1 DUP1 PUSH1 0x1 DUP2 SLOAD ADD DUP1 DUP3 SSTORE DUP1 SWAP2 POP POP PUSH1 0x1 SWAP1 SUB SWAP1 PUSH0 MSTORE PUSH1 0x20 PUSH0 KECCAK256 ADD PUSH0 SWAP1 SWAP2 SWAP1 SWAP2 SWAP1 SWAP2 POP SSTORE POP POP POP POP POP POP POP POP JUMP JUMPDEST PUSH1 0x2 PUSH0 SWAP1 SLOAD SWAP1 PUSH2 0x100 EXP SWAP1 DIV PUSH20 0xFFFFFFFFFFFFFFFFFFFFFFFFFFFFFFFFFFFFFFFF AND DUP2 JUMP JUMPDEST PUSH1 0x6 PUSH0 DUP3 DUP2 MSTORE PUSH1 0x20 ADD SWAP1 DUP2 MSTORE PUSH1 0x20 ADD PUSH0 KECCAK256 PUSH1 0x7 ADD PUSH0 SWAP1 SLOAD SWAP1 PUSH2 0x100 EXP SWAP1 DIV PUSH1 0xFF AND PUSH2 0x19EF JUMPI PUSH1 0x40 MLOAD PUSH32 0x8C379A000000000000000000000000000000000000000000000000000000000 DUP2 MSTORE PUSH1 0x4 ADD PUSH2 0x19E6 SWAP1 PUSH2 0x25C5 JUMP JUMPDEST PUSH1 0x40 MLOAD DUP1 SWAP2 SUB SWAP1 REVERT JUMPDEST PUSH1 0xA PUSH0 DUP3 DUP2 MSTORE PUSH1 0x20 ADD SWAP1 DUP2 MSTORE PUSH1 0x20 ADD PUSH0 KECCAK256 PUSH0 CALLER PUSH20 0xFFFFFFFFFFFFFFFFFFFFFFFFFFFFFFFFFFFFFFFF AND PUSH20 0xFFFFFFFFFFFFFFFFFFFFFFFFFFFFFFFFFFFFFFFF AND DUP2 MSTORE PUSH1 0x20 ADD SWAP1 DUP2 MSTORE PUSH1 0x20 ADD PUSH0 KECCAK256 PUSH0 SWAP1 SLOAD SWAP1 PUSH2 0x100 EXP SWAP1 DIV PUSH1 0xFF AND PUSH2 0x1A87 JUMPI PUSH1 0x40 MLOAD PUSH32 0x8C379A000000000000000000000000000000000000000000000000000000000 DUP2 MSTORE PUSH1 0x4 ADD PUSH2 0x1A7E SWAP1 PUSH2 0x3162 JUMP JUMPDEST PUSH1 0x40 MLOAD DUP1 SWAP2 SUB SWAP1 REVERT JUMPDEST PUSH0 PUSH1 0xA PUSH0 DUP4 DUP2 MSTORE PUSH1 0x20 ADD SWAP1 DUP2 MSTORE PUSH1 0x20 ADD PUSH0 KECCAK256 PUSH0 CALLER PUSH20 0xFFFFFFFFFFFFFFFFFFFFFFFFFFFFFFFFFFFFFFFF AND PUSH20 0xFFFFFFFFFFFFFFFFFFFFFFFFFFFFFFFFFFFFFFFF AND DUP2 MSTORE PUSH1 0x20 ADD SWAP1 DUP2 MSTORE PUSH1 0x20 ADD PUSH0 KECCAK256 PUSH0 PUSH2 0x100 EXP DUP2 SLOAD DUP2 PUSH1 0xFF MUL NOT AND SWAP1 DUP4 ISZERO ISZERO MUL OR SWAP1 SSTORE POP PUSH1 0x1 PUSH1 0x6 PUSH0 DUP4 DUP2 MSTORE PUSH1 0x20 ADD SWAP1 DUP2 MSTORE PUSH1 0x20 ADD PUSH0 KECCAK256 PUSH1 0x4 ADD PUSH0 DUP3 DUP3 SLOAD PUSH2 0x1B0E SWAP2 SWAP1 PUSH2 0x2E7F JUMP JUMPDEST SWAP3 POP POP DUP2 SWAP1 SSTORE POP POP JUMP JUMPDEST PUSH1 0x3 PUSH0 SWAP1 SLOAD SWAP1 PUSH2 0x100 EXP SWAP1 DIV PUSH20 0xFFFFFFFFFFFFFFFFFFFFFFFFFFFFFFFFFFFFFFFF AND PUSH20 0xFFFFFFFFFFFFFFFFFFFFFFFFFFFFFFFFFFFFFFFF AND CALLER PUSH20 0xFFFFFFFFFFFFFFFFFFFFFFFFFFFFFFFFFFFFFFFF AND EQ PUSH2 0x1BA7 JUMPI PUSH1 0x40 MLOAD PUSH32 0x8C379A000000000000000000000000000000000000000000000000000000000 DUP2 MSTORE PUSH1 0x4 ADD PUSH2 0x1B9E SWAP1 PUSH2 0x2B6E JUMP JUMPDEST PUSH1 0x40 MLOAD DUP1 SWAP2 SUB SWAP1 REVERT JUMPDEST PUSH0 DUP2 GT PUSH2 0x1BE9 JUMPI PUSH1 0x40 MLOAD PUSH32 0x8C379A000000000000000000000000000000000000000000000000000000000 DUP2 MSTORE PUSH1 0x4 ADD PUSH2 0x1BE0 SWAP1 PUSH2 0x2D0E JUMP JUMPDEST PUSH1 0x40 MLOAD DUP1 SWAP2 SUB SWAP1 REVERT JUMPDEST PUSH0 PUSH1 0x6 PUSH0 DUP5 DUP2 MSTORE PUSH1 0x20 ADD SWAP1 DUP2 MSTORE PUSH1 0x20 ADD PUSH0 KECCAK256 SWAP1 POP DUP1 PUSH1 0x7 ADD PUSH0 SWAP1 SLOAD SWAP1 PUSH2 0x100 EXP SWAP1 DIV PUSH1 0xFF AND PUSH2 0x1C4D JUMPI PUSH1 0x40 MLOAD PUSH32 0x8C379A000000000000000000000000000000000000000000000000000000000 DUP2 MSTORE PUSH1 0x4 ADD PUSH2 0x1C44 SWAP1 PUSH2 0x25C5 JUMP JUMPDEST PUSH1 0x40 MLOAD DUP1 SWAP2 SUB SWAP1 REVERT JUMPDEST DUP2 DUP2 PUSH1 0x4 ADD PUSH0 DUP3 DUP3 SLOAD PUSH2 0x1C60 SWAP2 SWAP1 PUSH2 0x2E7F JUMP JUMPDEST SWAP3 POP POP DUP2 SWAP1 SSTORE POP POP POP POP JUMP JUMPDEST PUSH1 0xA PUSH1 0x20 MSTORE DUP2 PUSH0 MSTORE PUSH1 0x40 PUSH0 KECCAK256 PUSH1 0x20 MSTORE DUP1 PUSH0 MSTORE PUSH1 0x40 PUSH0 KECCAK256 PUSH0 SWAP2 POP SWAP2 POP SWAP1 SLOAD SWAP1 PUSH2 0x100 EXP SWAP1 DIV PUSH1 0xFF AND DUP2 JUMP JUMPDEST PUSH1 0x40 MLOAD DUP1 PUSH2 0x120 ADD PUSH1 0x40 MSTORE DUP1 PUSH0 DUP2 MSTORE PUSH1 0x20 ADD PUSH1 0x60 DUP2 MSTORE PUSH1 0x20 ADD PUSH1 0x60 DUP2 MSTORE PUSH1 0x20 ADD PUSH1 0x60 DUP2 MSTORE PUSH1 0x20 ADD PUSH0 DUP2 MSTORE PUSH1 0x20 ADD PUSH0 DUP2 MSTORE PUSH1 0x20 ADD PUSH0 DUP2 MSTORE PUSH1 0x20 ADD PUSH0 ISZERO ISZERO DUP2 MSTORE PUSH1 0x20 ADD PUSH0 DUP2 MSTORE POP SWAP1 JUMP JUMPDEST PUSH0 PUSH20 0xFFFFFFFFFFFFFFFFFFFFFFFFFFFFFFFFFFFFFFFF DUP3 AND SWAP1 POP SWAP2 SWAP1 POP JUMP JUMPDEST PUSH0 PUSH2 0x1D07 DUP3 PUSH2 0x1CDE JUMP JUMPDEST SWAP1 POP SWAP2 SWAP1 POP JUMP JUMPDEST PUSH2 0x1D17 DUP2 PUSH2 0x1CFD JUMP JUMPDEST DUP3 MSTORE POP POP JUMP JUMPDEST PUSH0 PUSH1 0x20 DUP3 ADD SWAP1 POP PUSH2 0x1D30 PUSH0 DUP4 ADD DUP5 PUSH2 0x1D0E JUMP JUMPDEST SWAP3 SWAP2 POP POP JUMP JUMPDEST PUSH0 PUSH1 0x40 MLOAD SWAP1 POP SWAP1 JUMP JUMPDEST PUSH0 PUSH0 REVERT JUMPDEST PUSH0 PUSH0 REVERT JUMPDEST PUSH0 DUP2 SWAP1 POP SWAP2 SWAP1 POP JUMP JUMPDEST PUSH2 0x1D59 DUP2 PUSH2 0x1D47 JUMP JUMPDEST DUP2 EQ PUSH2 0x1D63 JUMPI PUSH0 PUSH0 REVERT JUMPDEST POP JUMP JUMPDEST PUSH0 DUP2 CALLDATALOAD SWAP1 POP PUSH2 0x1D74 DUP2 PUSH2 0x1D50 JUMP JUMPDEST SWAP3 SWAP2 POP POP JUMP JUMPDEST PUSH0 PUSH1 0x20 DUP3 DUP5 SUB SLT ISZERO PUSH2 0x1D8F JUMPI PUSH2 0x1D8E PUSH2 0x1D3F JUMP JUMPDEST JUMPDEST PUSH0 PUSH2 0x1D9C DUP5 DUP3 DUP6 ADD PUSH2 0x1D66 JUMP JUMPDEST SWAP2 POP POP SWAP3 SWAP2 POP POP JUMP JUMPDEST PUSH2 0x1DAE DUP2 PUSH2 0x1D47 JUMP JUMPDEST DUP3 MSTORE POP POP JUMP JUMPDEST PUSH0 DUP2 MLOAD SWAP1 POP SWAP2 SWAP1 POP JUMP JUMPDEST PUSH0 DUP3 DUP3 MSTORE PUSH1 0x20 DUP3 ADD SWAP1 POP SWAP3 SWAP2 POP POP JUMP JUMPDEST DUP3 DUP2 DUP4 MCOPY PUSH0 DUP4 DUP4 ADD MSTORE POP POP POP JUMP JUMPDEST PUSH0 PUSH1 0x1F NOT PUSH1 0x1F DUP4 ADD AND SWAP1 POP SWAP2 SWAP1 POP JUMP JUMPDEST PUSH0 PUSH2 0x1DF6 DUP3 PUSH2 0x1DB4 JUMP JUMPDEST PUSH2 0x1E00 DUP2 DUP6 PUSH2 0x1DBE JUMP JUMPDEST SWAP4 POP PUSH2 0x1E10 DUP2 DUP6 PUSH1 0x20 DUP7 ADD PUSH2 0x1DCE JUMP JUMPDEST PUSH2 0x1E19 DUP2 PUSH2 0x1DDC JUMP JUMPDEST DUP5 ADD SWAP2 POP POP SWAP3 SWAP2 POP POP JUMP JUMPDEST PUSH0 DUP2 ISZERO ISZERO SWAP1 POP SWAP2 SWAP1 POP JUMP JUMPDEST PUSH2 0x1E38 DUP2 PUSH2 0x1E24 JUMP JUMPDEST DUP3 MSTORE POP POP JUMP JUMPDEST PUSH0 PUSH2 0x120 DUP4 ADD PUSH0 DUP4 ADD MLOAD PUSH2 0x1E54 PUSH0 DUP7 ADD DUP3 PUSH2 0x1DA5 JUMP JUMPDEST POP PUSH1 0x20 DUP4 ADD MLOAD DUP5 DUP3 SUB PUSH1 0x20 DUP7 ADD MSTORE PUSH2 0x1E6C DUP3 DUP3 PUSH2 0x1DEC JUMP JUMPDEST SWAP2 POP POP PUSH1 0x40 DUP4 ADD MLOAD DUP5 DUP3 SUB PUSH1 0x40 DUP7 ADD MSTORE PUSH2 0x1E86 DUP3 DUP3 PUSH2 0x1DEC JUMP JUMPDEST SWAP2 POP POP PUSH1 0x60 DUP4 ADD MLOAD DUP5 DUP3 SUB PUSH1 0x60 DUP7 ADD MSTORE PUSH2 0x1EA0 DUP3 DUP3 PUSH2 0x1DEC JUMP JUMPDEST SWAP2 POP POP PUSH1 0x80 DUP4 ADD MLOAD PUSH2 0x1EB5 PUSH1 0x80 DUP7 ADD DUP3 PUSH2 0x1DA5 JUMP JUMPDEST POP PUSH1 0xA0 DUP4 ADD MLOAD PUSH2 0x1EC8 PUSH1 0xA0 DUP7 ADD DUP3 PUSH2 0x1DA5 JUMP JUMPDEST POP PUSH1 0xC0 DUP4 ADD MLOAD PUSH2 0x1EDB PUSH1 0xC0 DUP7 ADD DUP3 PUSH2 0x1DA5 JUMP JUMPDEST POP PUSH1 0xE0 DUP4 ADD MLOAD PUSH2 0x1EEE PUSH1 0xE0 DUP7 ADD DUP3 PUSH2 0x1E2F JUMP JUMPDEST POP PUSH2 0x100 DUP4 ADD MLOAD PUSH2 0x1F03 PUSH2 0x100 DUP7 ADD DUP3 PUSH2 0x1DA5 JUMP JUMPDEST POP DUP1 SWAP2 POP POP SWAP3 SWAP2 POP POP JUMP JUMPDEST PUSH0 PUSH1 0x20 DUP3 ADD SWAP1 POP DUP2 DUP2 SUB PUSH0 DUP4 ADD MSTORE PUSH2 0x1F26 DUP2 DUP5 PUSH2 0x1E3E JUMP JUMPDEST SWAP1 POP SWAP3 SWAP2 POP POP JUMP JUMPDEST PUSH2 0x1F37 DUP2 PUSH2 0x1D47 JUMP JUMPDEST DUP3 MSTORE POP POP JUMP JUMPDEST PUSH0 PUSH1 0x20 DUP3 ADD SWAP1 POP PUSH2 0x1F50 PUSH0 DUP4 ADD DUP5 PUSH2 0x1F2E JUMP JUMPDEST SWAP3 SWAP2 POP POP JUMP JUMPDEST PUSH0 DUP3 DUP3 MSTORE PUSH1 0x20 DUP3 ADD SWAP1 POP SWAP3 SWAP2 POP POP JUMP JUMPDEST PUSH0 PUSH2 0x1F70 DUP3 PUSH2 0x1DB4 JUMP JUMPDEST PUSH2 0x1F7A DUP2 DUP6 PUSH2 0x1F56 JUMP JUMPDEST SWAP4 POP PUSH2 0x1F8A DUP2 DUP6 PUSH1 0x20 DUP7 ADD PUSH2 0x1DCE JUMP JUMPDEST PUSH2 0x1F93 DUP2 PUSH2 0x1DDC JUMP JUMPDEST DUP5 ADD SWAP2 POP POP SWAP3 SWAP2 POP POP JUMP JUMPDEST PUSH2 0x1FA7 DUP2 PUSH2 0x1E24 JUMP JUMPDEST DUP3 MSTORE POP POP JUMP JUMPDEST PUSH0 PUSH2 0x120 DUP3 ADD SWAP1 POP PUSH2 0x1FC1 PUSH0 DUP4 ADD DUP13 PUSH2 0x1F2E JUMP JUMPDEST DUP2 DUP2 SUB PUSH1 0x20 DUP4 ADD MSTORE PUSH2 0x1FD3 DUP2 DUP12 PUSH2 0x1F66 JUMP JUMPDEST SWAP1 POP DUP2 DUP2 SUB PUSH1 0x40 DUP4 ADD MSTORE PUSH2 0x1FE7 DUP2 DUP11 PUSH2 0x1F66 JUMP JUMPDEST SWAP1 POP DUP2 DUP2 SUB PUSH1 0x60 DUP4 ADD MSTORE PUSH2 0x1FFB DUP2 DUP10 PUSH2 0x1F66 JUMP JUMPDEST SWAP1 POP PUSH2 0x200A PUSH1 0x80 DUP4 ADD DUP9 PUSH2 0x1F2E JUMP JUMPDEST PUSH2 0x2017 PUSH1 0xA0 DUP4 ADD DUP8 PUSH2 0x1F2E JUMP JUMPDEST PUSH2 0x2024 PUSH1 0xC0 DUP4 ADD DUP7 PUSH2 0x1F2E JUMP JUMPDEST PUSH2 0x2031 PUSH1 0xE0 DUP4 ADD DUP6 PUSH2 0x1F9E JUMP JUMPDEST PUSH2 0x203F PUSH2 0x100 DUP4 ADD DUP5 PUSH2 0x1F2E JUMP JUMPDEST SWAP11 SWAP10 POP POP POP POP POP POP POP POP POP POP JUMP JUMPDEST PUSH0 PUSH0 PUSH1 0x40 DUP4 DUP6 SUB SLT ISZERO PUSH2 0x2063 JUMPI PUSH2 0x2062 PUSH2 0x1D3F JUMP JUMPDEST JUMPDEST PUSH0 PUSH2 0x2070 DUP6 DUP3 DUP7 ADD PUSH2 0x1D66 JUMP JUMPDEST SWAP3 POP POP PUSH1 0x20 PUSH2 0x2081 DUP6 DUP3 DUP7 ADD PUSH2 0x1D66 JUMP JUMPDEST SWAP2 POP POP SWAP3 POP SWAP3 SWAP1 POP JUMP JUMPDEST PUSH0 PUSH2 0x2095 DUP3 PUSH2 0x1CDE JUMP JUMPDEST SWAP1 POP SWAP2 SWAP1 POP JUMP JUMPDEST PUSH2 0x20A5 DUP2 PUSH2 0x208B JUMP JUMPDEST DUP3 MSTORE POP POP JUMP JUMPDEST PUSH0 PUSH1 0x40 DUP3 ADD SWAP1 POP PUSH2 0x20BE PUSH0 DUP4 ADD DUP6 PUSH2 0x209C JUMP JUMPDEST PUSH2 0x20CB PUSH1 0x20 DUP4 ADD DUP5 PUSH2 0x1F2E JUMP JUMPDEST SWAP4 SWAP3 POP POP POP JUMP JUMPDEST PUSH0 DUP2 MLOAD SWAP1 POP SWAP2 SWAP1 POP JUMP JUMPDEST PUSH0 DUP3 DUP3 MSTORE PUSH1 0x20 DUP3 ADD SWAP1 POP SWAP3 SWAP2 POP POP JUMP JUMPDEST PUSH0 DUP2 SWAP1 POP PUSH1 0x20 DUP3 ADD SWAP1 POP SWAP2 SWAP1 POP JUMP JUMPDEST PUSH0 PUSH2 0x120 DUP4 ADD PUSH0 DUP4 ADD MLOAD PUSH2 0x2111 PUSH0 DUP7 ADD DUP3 PUSH2 0x1DA5 JUMP JUMPDEST POP PUSH1 0x20 DUP4 ADD MLOAD DUP5 DUP3 SUB PUSH1 0x20 DUP7 ADD MSTORE PUSH2 0x2129 DUP3 DUP3 PUSH2 0x1DEC JUMP JUMPDEST SWAP2 POP POP PUSH1 0x40 DUP4 ADD MLOAD DUP5 DUP3 SUB PUSH1 0x40 DUP7 ADD MSTORE PUSH2 0x2143 DUP3 DUP3 PUSH2 0x1DEC JUMP JUMPDEST SWAP2 POP POP PUSH1 0x60 DUP4 ADD MLOAD DUP5 DUP3 SUB PUSH1 0x60 DUP7 ADD MSTORE PUSH2 0x215D DUP3 DUP3 PUSH2 0x1DEC JUMP JUMPDEST SWAP2 POP POP PUSH1 0x80 DUP4 ADD MLOAD PUSH2 0x2172 PUSH1 0x80 DUP7 ADD DUP3 PUSH2 0x1DA5 JUMP JUMPDEST POP PUSH1 0xA0 DUP4 ADD MLOAD PUSH2 0x2185 PUSH1 0xA0 DUP7 ADD DUP3 PUSH2 0x1DA5 JUMP JUMPDEST POP PUSH1 0xC0 DUP4 ADD MLOAD PUSH2 0x2198 PUSH1 0xC0 DUP7 ADD DUP3 PUSH2 0x1DA5 JUMP JUMPDEST POP PUSH1 0xE0 DUP4 ADD MLOAD PUSH2 0x21AB PUSH1 0xE0 DUP7 ADD DUP3 PUSH2 0x1E2F JUMP JUMPDEST POP PUSH2 0x100 DUP4 ADD MLOAD PUSH2 0x21C0 PUSH2 0x100 DUP7 ADD DUP3 PUSH2 0x1DA5 JUMP JUMPDEST POP DUP1 SWAP2 POP POP SWAP3 SWAP2 POP POP JUMP JUMPDEST PUSH0 PUSH2 0x21D6 DUP4 DUP4 PUSH2 0x20FB JUMP JUMPDEST SWAP1 POP SWAP3 SWAP2 POP POP JUMP JUMPDEST PUSH0 PUSH1 0x20 DUP3 ADD SWAP1 POP SWAP2 SWAP1 POP JUMP JUMPDEST PUSH0 PUSH2 0x21F4 DUP3 PUSH2 0x20D2 JUMP JUMPDEST PUSH2 0x21FE DUP2 DUP6 PUSH2 0x20DC JUMP JUMPDEST SWAP4 POP DUP4 PUSH1 0x20 DUP3 MUL DUP6 ADD PUSH2 0x2210 DUP6 PUSH2 0x20EC JUMP JUMPDEST DUP1 PUSH0 JUMPDEST DUP6 DUP2 LT ISZERO PUSH2 0x224B JUMPI DUP5 DUP5 SUB DUP10 MSTORE DUP2 MLOAD PUSH2 0x222C DUP6 DUP3 PUSH2 0x21CB JUMP JUMPDEST SWAP5 POP PUSH2 0x2237 DUP4 PUSH2 0x21DE JUMP JUMPDEST SWAP3 POP PUSH1 0x20 DUP11 ADD SWAP10 POP POP PUSH1 0x1 DUP2 ADD SWAP1 POP PUSH2 0x2213 JUMP JUMPDEST POP DUP3 SWAP8 POP DUP8 SWAP6 POP POP POP POP POP POP SWAP3 SWAP2 POP POP JUMP JUMPDEST PUSH0 PUSH1 0x20 DUP3 ADD SWAP1 POP DUP2 DUP2 SUB PUSH0 DUP4 ADD MSTORE PUSH2 0x2275 DUP2 DUP5 PUSH2 0x21EA JUMP JUMPDEST SWAP1 POP SWAP3 SWAP2 POP POP JUMP JUMPDEST PUSH0 PUSH0 REVERT JUMPDEST PUSH0 PUSH0 REVERT JUMPDEST PUSH32 0x4E487B7100000000000000000000000000000000000000000000000000000000 PUSH0 MSTORE PUSH1 0x41 PUSH1 0x4 MSTORE PUSH1 0x24 PUSH0 REVERT JUMPDEST PUSH2 0x22BB DUP3 PUSH2 0x1DDC JUMP JUMPDEST DUP2 ADD DUP2 DUP2 LT PUSH8 0xFFFFFFFFFFFFFFFF DUP3 GT OR ISZERO PUSH2 0x22DA JUMPI PUSH2 0x22D9 PUSH2 0x2285 JUMP JUMPDEST JUMPDEST DUP1 PUSH1 0x40 MSTORE POP POP POP JUMP JUMPDEST PUSH0 PUSH2 0x22EC PUSH2 0x1D36 JUMP JUMPDEST SWAP1 POP PUSH2 0x22F8 DUP3 DUP3 PUSH2 0x22B2 JUMP JUMPDEST SWAP2 SWAP1 POP JUMP JUMPDEST PUSH0 PUSH8 0xFFFFFFFFFFFFFFFF DUP3 GT ISZERO PUSH2 0x2317 JUMPI PUSH2 0x2316 PUSH2 0x2285 JUMP JUMPDEST JUMPDEST PUSH2 0x2320 DUP3 PUSH2 0x1DDC JUMP JUMPDEST SWAP1 POP PUSH1 0x20 DUP2 ADD SWAP1 POP SWAP2 SWAP1 POP JUMP JUMPDEST DUP3 DUP2 DUP4 CALLDATACOPY PUSH0 DUP4 DUP4 ADD MSTORE POP POP POP JUMP JUMPDEST PUSH0 PUSH2 0x234D PUSH2 0x2348 DUP5 PUSH2 0x22FD JUMP JUMPDEST PUSH2 0x22E3 JUMP JUMPDEST SWAP1 POP DUP3 DUP2 MSTORE PUSH1 0x20 DUP2 ADD DUP5 DUP5 DUP5 ADD GT ISZERO PUSH2 0x2369 JUMPI PUSH2 0x2368 PUSH2 0x2281 JUMP JUMPDEST JUMPDEST PUSH2 0x2374 DUP5 DUP3 DUP6 PUSH2 0x232D JUMP JUMPDEST POP SWAP4 SWAP3 POP POP POP JUMP JUMPDEST PUSH0 DUP3 PUSH1 0x1F DUP4 ADD SLT PUSH2 0x2390 JUMPI PUSH2 0x238F PUSH2 0x227D JUMP JUMPDEST JUMPDEST DUP2 CALLDATALOAD PUSH2 0x23A0 DUP5 DUP3 PUSH1 0x20 DUP7 ADD PUSH2 0x233B JUMP JUMPDEST SWAP2 POP POP SWAP3 SWAP2 POP POP JUMP JUMPDEST PUSH0 PUSH0 PUSH0 PUSH0 PUSH0 PUSH0 PUSH1 0xC0 DUP8 DUP10 SUB SLT ISZERO PUSH2 0x23C3 JUMPI PUSH2 0x23C2 PUSH2 0x1D3F JUMP JUMPDEST JUMPDEST PUSH0 DUP8 ADD CALLDATALOAD PUSH8 0xFFFFFFFFFFFFFFFF DUP2 GT ISZERO PUSH2 0x23E0 JUMPI PUSH2 0x23DF PUSH2 0x1D43 JUMP JUMPDEST JUMPDEST PUSH2 0x23EC DUP10 DUP3 DUP11 ADD PUSH2 0x237C JUMP JUMPDEST SWAP7 POP POP PUSH1 0x20 DUP8 ADD CALLDATALOAD PUSH8 0xFFFFFFFFFFFFFFFF DUP2 GT ISZERO PUSH2 0x240D JUMPI PUSH2 0x240C PUSH2 0x1D43 JUMP JUMPDEST JUMPDEST PUSH2 0x2419 DUP10 DUP3 DUP11 ADD PUSH2 0x237C JUMP JUMPDEST SWAP6 POP POP PUSH1 0x40 DUP8 ADD CALLDATALOAD PUSH8 0xFFFFFFFFFFFFFFFF DUP2 GT ISZERO PUSH2 0x243A JUMPI PUSH2 0x2439 PUSH2 0x1D43 JUMP JUMPDEST JUMPDEST PUSH2 0x2446 DUP10 DUP3 DUP11 ADD PUSH2 0x237C JUMP JUMPDEST SWAP5 POP POP PUSH1 0x60 PUSH2 0x2457 DUP10 DUP3 DUP11 ADD PUSH2 0x1D66 JUMP JUMPDEST SWAP4 POP POP PUSH1 0x80 PUSH2 0x2468 DUP10 DUP3 DUP11 ADD PUSH2 0x1D66 JUMP JUMPDEST SWAP3 POP POP PUSH1 0xA0 PUSH2 0x2479 DUP10 DUP3 DUP11 ADD PUSH2 0x1D66 JUMP JUMPDEST SWAP2 POP POP SWAP3 SWAP6 POP SWAP3 SWAP6 POP SWAP3 SWAP6 JUMP JUMPDEST PUSH0 DUP2 SWAP1 POP SWAP2 SWAP1 POP JUMP JUMPDEST PUSH0 PUSH2 0x24A9 PUSH2 0x24A4 PUSH2 0x249F DUP5 PUSH2 0x1CDE JUMP JUMPDEST PUSH2 0x2486 JUMP JUMPDEST PUSH2 0x1CDE JUMP JUMPDEST SWAP1 POP SWAP2 SWAP1 POP JUMP JUMPDEST PUSH0 PUSH2 0x24BA DUP3 PUSH2 0x248F JUMP JUMPDEST SWAP1 POP SWAP2 SWAP1 POP JUMP JUMPDEST PUSH0 PUSH2 0x24CB DUP3 PUSH2 0x24B0 JUMP JUMPDEST SWAP1 POP SWAP2 SWAP1 POP JUMP JUMPDEST PUSH2 0x24DB DUP2 PUSH2 0x24C1 JUMP JUMPDEST DUP3 MSTORE POP POP JUMP JUMPDEST PUSH0 PUSH1 0x20 DUP3 ADD SWAP1 POP PUSH2 0x24F4 PUSH0 DUP4 ADD DUP5 PUSH2 0x24D2 JUMP JUMPDEST SWAP3 SWAP2 POP POP JUMP JUMPDEST PUSH2 0x2503 DUP2 PUSH2 0x208B JUMP JUMPDEST DUP2 EQ PUSH2 0x250D JUMPI PUSH0 PUSH0 REVERT JUMPDEST POP JUMP JUMPDEST PUSH0 DUP2 CALLDATALOAD SWAP1 POP PUSH2 0x251E DUP2 PUSH2 0x24FA JUMP JUMPDEST SWAP3 SWAP2 POP POP JUMP JUMPDEST PUSH0 PUSH0 PUSH1 0x40 DUP4 DUP6 SUB SLT ISZERO PUSH2 0x253A JUMPI PUSH2 0x2539 PUSH2 0x1D3F JUMP JUMPDEST JUMPDEST PUSH0 PUSH2 0x2547 DUP6 DUP3 DUP7 ADD PUSH2 0x1D66 JUMP JUMPDEST SWAP3 POP POP PUSH1 0x20 PUSH2 0x2558 DUP6 DUP3 DUP7 ADD PUSH2 0x2510 JUMP JUMPDEST SWAP2 POP POP SWAP3 POP SWAP3 SWAP1 POP JUMP JUMPDEST PUSH0 PUSH1 0x20 DUP3 ADD SWAP1 POP PUSH2 0x2575 PUSH0 DUP4 ADD DUP5 PUSH2 0x1F9E JUMP JUMPDEST SWAP3 SWAP2 POP POP JUMP JUMPDEST PUSH32 0x426F6F6B206E6F7420666F756E64000000000000000000000000000000000000 PUSH0 DUP3 ADD MSTORE POP JUMP JUMPDEST PUSH0 PUSH2 0x25AF PUSH1 0xE DUP4 PUSH2 0x1F56 JUMP JUMPDEST SWAP2 POP PUSH2 0x25BA DUP3 PUSH2 0x257B JUMP JUMPDEST PUSH1 0x20 DUP3 ADD SWAP1 POP SWAP2 SWAP1 POP JUMP JUMPDEST PUSH0 PUSH1 0x20 DUP3 ADD SWAP1 POP DUP2 DUP2 SUB PUSH0 DUP4 ADD MSTORE PUSH2 0x25DC DUP2 PUSH2 0x25A3 JUMP JUMPDEST SWAP1 POP SWAP2 SWAP1 POP JUMP JUMPDEST PUSH32 0x4E487B7100000000000000000000000000000000000000000000000000000000 PUSH0 MSTORE PUSH1 0x22 PUSH1 0x4 MSTORE PUSH1 0x24 PUSH0 REVERT JUMPDEST PUSH0 PUSH1 0x2 DUP3 DIV SWAP1 POP PUSH1 0x1 DUP3 AND DUP1 PUSH2 0x2627 JUMPI PUSH1 0x7F DUP3 AND SWAP2 POP JUMPDEST PUSH1 0x20 DUP3 LT DUP2 SUB PUSH2 0x263A JUMPI PUSH2 0x2639 PUSH2 0x25E3 JUMP JUMPDEST JUMPDEST POP SWAP2 SWAP1 POP JUMP JUMPDEST PUSH32 0x5265656E7472616E637920646574656374656400000000000000000000000000 PUSH0 DUP3 ADD MSTORE POP JUMP JUMPDEST PUSH0 PUSH2 0x2674 PUSH1 0x13 DUP4 PUSH2 0x1F56 JUMP JUMPDEST SWAP2 POP PUSH2 0x267F DUP3 PUSH2 0x2640 JUMP JUMPDEST PUSH1 0x20 DUP3 ADD SWAP1 POP SWAP2 SWAP1 POP JUMP JUMPDEST PUSH0 PUSH1 0x20 DUP3 ADD SWAP1 POP DUP2 DUP2 SUB PUSH0 DUP4 ADD MSTORE PUSH2 0x26A1 DUP2 PUSH2 0x2668 JUMP JUMPDEST SWAP1 POP SWAP2 SWAP1 POP JUMP JUMPDEST PUSH32 0x426F6F6B206F7574206F662073746F636B000000000000000000000000000000 PUSH0 DUP3 ADD MSTORE POP JUMP JUMPDEST PUSH0 PUSH2 0x26DC PUSH1 0x11 DUP4 PUSH2 0x1F56 JUMP JUMPDEST SWAP2 POP PUSH2 0x26E7 DUP3 PUSH2 0x26A8 JUMP JUMPDEST PUSH1 0x20 DUP3 ADD SWAP1 POP SWAP2 SWAP1 POP JUMP JUMPDEST PUSH0 PUSH1 0x20 DUP3 ADD SWAP1 POP DUP2 DUP2 SUB PUSH0 DUP4 ADD MSTORE PUSH2 0x2709 DUP2 PUSH2 0x26D0 JUMP JUMPDEST SWAP1 POP SWAP2 SWAP1 POP JUMP JUMPDEST PUSH32 0x496E73756666696369656E74207061796D656E74000000000000000000000000 PUSH0 DUP3 ADD MSTORE POP JUMP JUMPDEST PUSH0 PUSH2 0x2744 PUSH1 0x14 DUP4 PUSH2 0x1F56 JUMP JUMPDEST SWAP2 POP PUSH2 0x274F DUP3 PUSH2 0x2710 JUMP JUMPDEST PUSH1 0x20 DUP3 ADD SWAP1 POP SWAP2 SWAP1 POP JUMP JUMPDEST PUSH0 PUSH1 0x20 DUP3 ADD SWAP1 POP DUP2 DUP2 SUB PUSH0 DUP4 ADD MSTORE PUSH2 0x2771 DUP2 PUSH2 0x2738 JUMP JUMPDEST SWAP1 POP SWAP2 SWAP1 POP JUMP JUMPDEST PUSH32 0x4E487B7100000000000000000000000000000000000000000000000000000000 PUSH0 MSTORE PUSH1 0x11 PUSH1 0x4 MSTORE PUSH1 0x24 PUSH0 REVERT JUMPDEST PUSH0 PUSH2 0x27AF DUP3 PUSH2 0x1D47 JUMP JUMPDEST SWAP2 POP PUSH2 0x27BA DUP4 PUSH2 0x1D47 JUMP JUMPDEST SWAP3 POP DUP3 DUP3 SUB SWAP1 POP DUP2 DUP2 GT ISZERO PUSH2 0x27D2 JUMPI PUSH2 0x27D1 PUSH2 0x2778 JUMP JUMPDEST JUMPDEST SWAP3 SWAP2 POP POP JUMP JUMPDEST PUSH0 DUP2 SWAP1 POP SWAP3 SWAP2 POP POP JUMP JUMPDEST POP JUMP JUMPDEST PUSH0 PUSH2 0x27F0 PUSH0 DUP4 PUSH2 0x27D8 JUMP JUMPDEST SWAP2 POP PUSH2 0x27FB DUP3 PUSH2 0x27E2 JUMP JUMPDEST PUSH0 DUP3 ADD SWAP1 POP SWAP2 SWAP1 POP JUMP JUMPDEST PUSH0 PUSH2 0x280F DUP3 PUSH2 0x27E5 JUMP JUMPDEST SWAP2 POP DUP2 SWAP1 POP SWAP2 SWAP1 POP JUMP JUMPDEST PUSH32 0x4661696C656420746F2073656E642045544820746F206C696272617279000000 PUSH0 DUP3 ADD MSTORE POP JUMP JUMPDEST PUSH0 PUSH2 0x284D PUSH1 0x1D DUP4 PUSH2 0x1F56 JUMP JUMPDEST SWAP2 POP PUSH2 0x2858 DUP3 PUSH2 0x2819 JUMP JUMPDEST PUSH1 0x20 DUP3 ADD SWAP1 POP SWAP2 SWAP1 POP JUMP JUMPDEST PUSH0 PUSH1 0x20 DUP3 ADD SWAP1 POP DUP2 DUP2 SUB PUSH0 DUP4 ADD MSTORE PUSH2 0x287A DUP2 PUSH2 0x2841 JUMP JUMPDEST SWAP1 POP SWAP2 SWAP1 POP JUMP JUMPDEST PUSH32 0x4661696C656420746F20726566756E6420657863657373204554480000000000 PUSH0 DUP3 ADD MSTORE POP JUMP JUMPDEST PUSH0 PUSH2 0x28B5 PUSH1 0x1B DUP4 PUSH2 0x1F56 JUMP JUMPDEST SWAP2 POP PUSH2 0x28C0 DUP3 PUSH2 0x2881 JUMP JUMPDEST PUSH1 0x20 DUP3 ADD SWAP1 POP SWAP2 SWAP1 POP JUMP JUMPDEST PUSH0 PUSH1 0x20 DUP3 ADD SWAP1 POP DUP2 DUP2 SUB PUSH0 DUP4 ADD MSTORE PUSH2 0x28E2 DUP2 PUSH2 0x28A9 JUMP JUMPDEST SWAP1 POP SWAP2 SWAP1 POP JUMP JUMPDEST PUSH32 0x426F6F6B206E6F7420666F756E64210000000000000000000000000000000000 PUSH0 DUP3 ADD MSTORE POP JUMP JUMPDEST PUSH0 PUSH2 0x291D PUSH1 0xF DUP4 PUSH2 0x1F56 JUMP JUMPDEST SWAP2 POP PUSH2 0x2928 DUP3 PUSH2 0x28E9 JUMP JUMPDEST PUSH1 0x20 DUP3 ADD SWAP1 POP SWAP2 SWAP1 POP JUMP JUMPDEST PUSH0 PUSH1 0x20 DUP3 ADD SWAP1 POP DUP2 DUP2 SUB PUSH0 DUP4 ADD MSTORE PUSH2 0x294A DUP2 PUSH2 0x2911 JUMP JUMPDEST SWAP1 POP SWAP2 SWAP1 POP JUMP JUMPDEST PUSH32 0x426F6F6B206E6F7420617661696C61626C652100000000000000000000000000 PUSH0 DUP3 ADD MSTORE POP JUMP JUMPDEST PUSH0 PUSH2 0x2985 PUSH1 0x13 DUP4 PUSH2 0x1F56 JUMP JUMPDEST SWAP2 POP PUSH2 0x2990 DUP3 PUSH2 0x2951 JUMP JUMPDEST PUSH1 0x20 DUP3 ADD SWAP1 POP SWAP2 SWAP1 POP JUMP JUMPDEST PUSH0 PUSH1 0x20 DUP3 ADD SWAP1 POP DUP2 DUP2 SUB PUSH0 DUP4 ADD MSTORE PUSH2 0x29B2 DUP2 PUSH2 0x2979 JUMP JUMPDEST SWAP1 POP SWAP2 SWAP1 POP JUMP JUMPDEST PUSH32 0x416C726561647920626F72726F77656421000000000000000000000000000000 PUSH0 DUP3 ADD MSTORE POP JUMP JUMPDEST PUSH0 PUSH2 0x29ED PUSH1 0x11 DUP4 PUSH2 0x1F56 JUMP JUMPDEST SWAP2 POP PUSH2 0x29F8 DUP3 PUSH2 0x29B9 JUMP JUMPDEST PUSH1 0x20 DUP3 ADD SWAP1 POP SWAP2 SWAP1 POP JUMP JUMPDEST PUSH0 PUSH1 0x20 DUP3 ADD SWAP1 POP DUP2 DUP2 SUB PUSH0 DUP4 ADD MSTORE PUSH2 0x2A1A DUP2 PUSH2 0x29E1 JUMP JUMPDEST SWAP1 POP SWAP2 SWAP1 POP JUMP JUMPDEST PUSH0 PUSH1 0x20 DUP3 ADD SWAP1 POP PUSH2 0x2A34 PUSH0 DUP4 ADD DUP5 PUSH2 0x209C JUMP JUMPDEST SWAP3 SWAP2 POP POP JUMP JUMPDEST PUSH2 0x2A43 DUP2 PUSH2 0x1E24 JUMP JUMPDEST DUP2 EQ PUSH2 0x2A4D JUMPI PUSH0 PUSH0 REVERT JUMPDEST POP JUMP JUMPDEST PUSH0 DUP2 MLOAD SWAP1 POP PUSH2 0x2A5E DUP2 PUSH2 0x2A3A JUMP JUMPDEST SWAP3 SWAP2 POP POP JUMP JUMPDEST PUSH0 PUSH1 0x20 DUP3 DUP5 SUB SLT ISZERO PUSH2 0x2A79 JUMPI PUSH2 0x2A78 PUSH2 0x1D3F JUMP JUMPDEST JUMPDEST PUSH0 PUSH2 0x2A86 DUP5 DUP3 DUP6 ADD PUSH2 0x2A50 JUMP JUMPDEST SWAP2 POP POP SWAP3 SWAP2 POP POP JUMP JUMPDEST PUSH32 0x4E6F7420656E6F756768204554482073656E7400000000000000000000000000 PUSH0 DUP3 ADD MSTORE POP JUMP JUMPDEST PUSH0 PUSH2 0x2AC3 PUSH1 0x13 DUP4 PUSH2 0x1F56 JUMP JUMPDEST SWAP2 POP PUSH2 0x2ACE DUP3 PUSH2 0x2A8F JUMP JUMPDEST PUSH1 0x20 DUP3 ADD SWAP1 POP SWAP2 SWAP1 POP JUMP JUMPDEST PUSH0 PUSH1 0x20 DUP3 ADD SWAP1 POP DUP2 DUP2 SUB PUSH0 DUP4 ADD MSTORE PUSH2 0x2AF0 DUP2 PUSH2 0x2AB7 JUMP JUMPDEST SWAP1 POP SWAP2 SWAP1 POP JUMP JUMPDEST PUSH32 0x4E487B7100000000000000000000000000000000000000000000000000000000 PUSH0 MSTORE PUSH1 0x32 PUSH1 0x4 MSTORE PUSH1 0x24 PUSH0 REVERT JUMPDEST PUSH32 0x4E6F74206C6962726172792061646D696E000000000000000000000000000000 PUSH0 DUP3 ADD MSTORE POP JUMP JUMPDEST PUSH0 PUSH2 0x2B58 PUSH1 0x11 DUP4 PUSH2 0x1F56 JUMP JUMPDEST SWAP2 POP PUSH2 0x2B63 DUP3 PUSH2 0x2B24 JUMP JUMPDEST PUSH1 0x20 DUP3 ADD SWAP1 POP SWAP2 SWAP1 POP JUMP JUMPDEST PUSH0 PUSH1 0x20 DUP3 ADD SWAP1 POP DUP2 DUP2 SUB PUSH0 DUP4 ADD MSTORE PUSH2 0x2B85 DUP2 PUSH2 0x2B4C JUMP JUMPDEST SWAP1 POP SWAP2 SWAP1 POP JUMP JUMPDEST PUSH32 0x5469746C652063616E6E6F7420626520656D7074792100000000000000000000 PUSH0 DUP3 ADD MSTORE POP JUMP JUMPDEST PUSH0 PUSH2 0x2BC0 PUSH1 0x16 DUP4 PUSH2 0x1F56 JUMP JUMPDEST SWAP2 POP PUSH2 0x2BCB DUP3 PUSH2 0x2B8C JUMP JUMPDEST PUSH1 0x20 DUP3 ADD SWAP1 POP SWAP2 SWAP1 POP JUMP JUMPDEST PUSH0 PUSH1 0x20 DUP3 ADD SWAP1 POP DUP2 DUP2 SUB PUSH0 DUP4 ADD MSTORE PUSH2 0x2BED DUP2 PUSH2 0x2BB4 JUMP JUMPDEST SWAP1 POP SWAP2 SWAP1 POP JUMP JUMPDEST PUSH32 0x417574686F722063616E6E6F7420626520656D70747921000000000000000000 PUSH0 DUP3 ADD MSTORE POP JUMP JUMPDEST PUSH0 PUSH2 0x2C28 PUSH1 0x17 DUP4 PUSH2 0x1F56 JUMP JUMPDEST SWAP2 POP PUSH2 0x2C33 DUP3 PUSH2 0x2BF4 JUMP JUMPDEST PUSH1 0x20 DUP3 ADD SWAP1 POP SWAP2 SWAP1 POP JUMP JUMPDEST PUSH0 PUSH1 0x20 DUP3 ADD SWAP1 POP DUP2 DUP2 SUB PUSH0 DUP4 ADD MSTORE PUSH2 0x2C55 DUP2 PUSH2 0x2C1C JUMP JUMPDEST SWAP1 POP SWAP2 SWAP1 POP JUMP JUMPDEST PUSH32 0x47656E72652063616E6E6F7420626520656D7074792100000000000000000000 PUSH0 DUP3 ADD MSTORE POP JUMP JUMPDEST PUSH0 PUSH2 0x2C90 PUSH1 0x16 DUP4 PUSH2 0x1F56 JUMP JUMPDEST SWAP2 POP PUSH2 0x2C9B DUP3 PUSH2 0x2C5C JUMP JUMPDEST PUSH1 0x20 DUP3 ADD SWAP1 POP SWAP2 SWAP1 POP JUMP JUMPDEST PUSH0 PUSH1 0x20 DUP3 ADD SWAP1 POP DUP2 DUP2 SUB PUSH0 DUP4 ADD MSTORE PUSH2 0x2CBD DUP2 PUSH2 0x2C84 JUMP JUMPDEST SWAP1 POP SWAP2 SWAP1 POP JUMP JUMPDEST PUSH32 0x5175616E74697479206D7573742062652067726561746572207468616E203000 PUSH0 DUP3 ADD MSTORE POP JUMP JUMPDEST PUSH0 PUSH2 0x2CF8 PUSH1 0x1F DUP4 PUSH2 0x1F56 JUMP JUMPDEST SWAP2 POP PUSH2 0x2D03 DUP3 PUSH2 0x2CC4 JUMP JUMPDEST PUSH1 0x20 DUP3 ADD SWAP1 POP SWAP2 SWAP1 POP JUMP JUMPDEST PUSH0 PUSH1 0x20 DUP3 ADD SWAP1 POP DUP2 DUP2 SUB PUSH0 DUP4 ADD MSTORE PUSH2 0x2D25 DUP2 PUSH2 0x2CEC JUMP JUMPDEST SWAP1 POP SWAP2 SWAP1 POP JUMP JUMPDEST PUSH32 0x5072696365206D7573742062652067726561746572207468616E203000000000 PUSH0 DUP3 ADD MSTORE POP JUMP JUMPDEST PUSH0 PUSH2 0x2D60 PUSH1 0x1C DUP4 PUSH2 0x1F56 JUMP JUMPDEST SWAP2 POP PUSH2 0x2D6B DUP3 PUSH2 0x2D2C JUMP JUMPDEST PUSH1 0x20 DUP3 ADD SWAP1 POP SWAP2 SWAP1 POP JUMP JUMPDEST PUSH0 PUSH1 0x20 DUP3 ADD SWAP1 POP DUP2 DUP2 SUB PUSH0 DUP4 ADD MSTORE PUSH2 0x2D8D DUP2 PUSH2 0x2D54 JUMP JUMPDEST SWAP1 POP SWAP2 SWAP1 POP JUMP JUMPDEST PUSH0 DUP2 SWAP1 POP SWAP3 SWAP2 POP POP JUMP JUMPDEST PUSH0 PUSH2 0x2DA8 DUP3 PUSH2 0x1DB4 JUMP JUMPDEST PUSH2 0x2DB2 DUP2 DUP6 PUSH2 0x2D94 JUMP JUMPDEST SWAP4 POP PUSH2 0x2DC2 DUP2 DUP6 PUSH1 0x20 DUP7 ADD PUSH2 0x1DCE JUMP JUMPDEST DUP1 DUP5 ADD SWAP2 POP POP SWAP3 SWAP2 POP POP JUMP JUMPDEST PUSH0 PUSH2 0x2DD9 DUP3 DUP6 PUSH2 0x2D9E JUMP JUMPDEST SWAP2 POP PUSH2 0x2DE5 DUP3 DUP5 PUSH2 0x2D9E JUMP JUMPDEST SWAP2 POP DUP2 SWAP1 POP SWAP4 SWAP3 POP POP POP JUMP JUMPDEST PUSH32 0x5468697320626F6F6B206279207468697320617574686F7220616C7265616479 PUSH0 DUP3 ADD MSTORE PUSH32 0x2065786973747321000000000000000000000000000000000000000000000000 PUSH1 0x20 DUP3 ADD MSTORE POP JUMP JUMPDEST PUSH0 PUSH2 0x2E4B PUSH1 0x28 DUP4 PUSH2 0x1F56 JUMP JUMPDEST SWAP2 POP PUSH2 0x2E56 DUP3 PUSH2 0x2DF1 JUMP JUMPDEST PUSH1 0x40 DUP3 ADD SWAP1 POP SWAP2 SWAP1 POP JUMP JUMPDEST PUSH0 PUSH1 0x20 DUP3 ADD SWAP1 POP DUP2 DUP2 SUB PUSH0 DUP4 ADD MSTORE PUSH2 0x2E78 DUP2 PUSH2 0x2E3F JUMP JUMPDEST SWAP1 POP SWAP2 SWAP1 POP JUMP JUMPDEST PUSH0 PUSH2 0x2E89 DUP3 PUSH2 0x1D47 JUMP JUMPDEST SWAP2 POP PUSH2 0x2E94 DUP4 PUSH2 0x1D47 JUMP JUMPDEST SWAP3 POP DUP3 DUP3 ADD SWAP1 POP DUP1 DUP3 GT ISZERO PUSH2 0x2EAC JUMPI PUSH2 0x2EAB PUSH2 0x2778 JUMP JUMPDEST JUMPDEST SWAP3 SWAP2 POP POP JUMP JUMPDEST PUSH0 DUP2 SWAP1 POP DUP2 PUSH0 MSTORE PUSH1 0x20 PUSH0 KECCAK256 SWAP1 POP SWAP2 SWAP1 POP JUMP JUMPDEST PUSH0 PUSH1 0x20 PUSH1 0x1F DUP4 ADD DIV SWAP1 POP SWAP2 SWAP1 POP JUMP JUMPDEST PUSH0 DUP3 DUP3 SHL SWAP1 POP SWAP3 SWAP2 POP POP JUMP JUMPDEST PUSH0 PUSH1 0x8 DUP4 MUL PUSH2 0x2F0E PUSH32 0xFFFFFFFFFFFFFFFFFFFFFFFFFFFFFFFFFFFFFFFFFFFFFFFFFFFFFFFFFFFFFFFF DUP3 PUSH2 0x2ED3 JUMP JUMPDEST PUSH2 0x2F18 DUP7 DUP4 PUSH2 0x2ED3 JUMP JUMPDEST SWAP6 POP DUP1 NOT DUP5 AND SWAP4 POP DUP1 DUP7 AND DUP5 OR SWAP3 POP POP POP SWAP4 SWAP3 POP POP POP JUMP JUMPDEST PUSH0 PUSH2 0x2F4A PUSH2 0x2F45 PUSH2 0x2F40 DUP5 PUSH2 0x1D47 JUMP JUMPDEST PUSH2 0x2486 JUMP JUMPDEST PUSH2 0x1D47 JUMP JUMPDEST SWAP1 POP SWAP2 SWAP1 POP JUMP JUMPDEST PUSH0 DUP2 SWAP1 POP SWAP2 SWAP1 POP JUMP JUMPDEST PUSH2 0x2F63 DUP4 PUSH2 0x2F30 JUMP JUMPDEST PUSH2 0x2F77 PUSH2 0x2F6F DUP3 PUSH2 0x2F51 JUMP JUMPDEST DUP5 DUP5 SLOAD PUSH2 0x2EDF JUMP JUMPDEST DUP3 SSTORE POP POP POP POP JUMP JUMPDEST PUSH0 PUSH0 SWAP1 POP SWAP1 JUMP JUMPDEST PUSH2 0x2F8E PUSH2 0x2F7F JUMP JUMPDEST PUSH2 0x2F99 DUP2 DUP5 DUP5 PUSH2 0x2F5A JUMP JUMPDEST POP POP POP JUMP JUMPDEST JUMPDEST DUP2 DUP2 LT ISZERO PUSH2 0x2FBC JUMPI PUSH2 0x2FB1 PUSH0 DUP3 PUSH2 0x2F86 JUMP JUMPDEST PUSH1 0x1 DUP2 ADD SWAP1 POP PUSH2 0x2F9F JUMP JUMPDEST POP POP JUMP JUMPDEST PUSH1 0x1F DUP3 GT ISZERO PUSH2 0x3001 JUMPI PUSH2 0x2FD2 DUP2 PUSH2 0x2EB2 JUMP JUMPDEST PUSH2 0x2FDB DUP5 PUSH2 0x2EC4 JUMP JUMPDEST DUP2 ADD PUSH1 0x20 DUP6 LT ISZERO PUSH2 0x2FEA JUMPI DUP2 SWAP1 POP JUMPDEST PUSH2 0x2FFE PUSH2 0x2FF6 DUP6 PUSH2 0x2EC4 JUMP JUMPDEST DUP4 ADD DUP3 PUSH2 0x2F9E JUMP JUMPDEST POP POP JUMPDEST POP POP POP JUMP JUMPDEST PUSH0 DUP3 DUP3 SHR SWAP1 POP SWAP3 SWAP2 POP POP JUMP JUMPDEST PUSH0 PUSH2 0x3021 PUSH0 NOT DUP5 PUSH1 0x8 MUL PUSH2 0x3006 JUMP JUMPDEST NOT DUP1 DUP4 AND SWAP2 POP POP SWAP3 SWAP2 POP POP JUMP JUMPDEST PUSH0 PUSH2 0x3039 DUP4 DUP4 PUSH2 0x3012 JUMP JUMPDEST SWAP2 POP DUP3 PUSH1 0x2 MUL DUP3 OR SWAP1 POP SWAP3 SWAP2 POP POP JUMP JUMPDEST PUSH2 0x3052 DUP3 PUSH2 0x1DB4 JUMP JUMPDEST PUSH8 0xFFFFFFFFFFFFFFFF DUP2 GT ISZERO PUSH2 0x306B JUMPI PUSH2 0x306A PUSH2 0x2285 JUMP JUMPDEST JUMPDEST PUSH2 0x3075 DUP3 SLOAD PUSH2 0x2610 JUMP JUMPDEST PUSH2 0x3080 DUP3 DUP3 DUP6 PUSH2 0x2FC0 JUMP JUMPDEST PUSH0 PUSH1 0x20 SWAP1 POP PUSH1 0x1F DUP4 GT PUSH1 0x1 DUP2 EQ PUSH2 0x30B1 JUMPI PUSH0 DUP5 ISZERO PUSH2 0x309F JUMPI DUP3 DUP8 ADD MLOAD SWAP1 POP JUMPDEST PUSH2 0x30A9 DUP6 DUP3 PUSH2 0x302E JUMP JUMPDEST DUP7 SSTORE POP PUSH2 0x3110 JUMP JUMPDEST PUSH1 0x1F NOT DUP5 AND PUSH2 0x30BF DUP7 PUSH2 0x2EB2 JUMP JUMPDEST PUSH0 JUMPDEST DUP3 DUP2 LT ISZERO PUSH2 0x30E6 JUMPI DUP5 DUP10 ADD MLOAD DUP3 SSTORE PUSH1 0x1 DUP3 ADD SWAP2 POP PUSH1 0x20 DUP6 ADD SWAP5 POP PUSH1 0x20 DUP2 ADD SWAP1 POP PUSH2 0x30C1 JUMP JUMPDEST DUP7 DUP4 LT ISZERO PUSH2 0x3103 JUMPI DUP5 DUP10 ADD MLOAD PUSH2 0x30FF PUSH1 0x1F DUP10 AND DUP3 PUSH2 0x3012 JUMP JUMPDEST DUP4 SSTORE POP JUMPDEST PUSH1 0x1 PUSH1 0x2 DUP9 MUL ADD DUP9 SSTORE POP POP POP JUMPDEST POP POP POP POP POP POP JUMP JUMPDEST PUSH32 0x596F7520646964206E6F7420626F72726F77207468697320626F6F6B00000000 PUSH0 DUP3 ADD MSTORE POP JUMP JUMPDEST PUSH0 PUSH2 0x314C PUSH1 0x1C DUP4 PUSH2 0x1F56 JUMP JUMPDEST SWAP2 POP PUSH2 0x3157 DUP3 PUSH2 0x3118 JUMP JUMPDEST PUSH1 0x20 DUP3 ADD SWAP1 POP SWAP2 SWAP1 POP JUMP JUMPDEST PUSH0 PUSH1 0x20 DUP3 ADD SWAP1 POP DUP2 DUP2 SUB PUSH0 DUP4 ADD MSTORE PUSH2 0x3179 DUP2 PUSH2 0x3140 JUMP JUMPDEST SWAP1 POP SWAP2 SWAP1 POP JUMP INVALID LOG2 PUSH5 0x6970667358 0x22 SLT KECCAK256 0xD0 MOD MCOPY PUSH4 0xF7786421 SELFBALANCE SWAP2 PUSH12 0x60C409EA93FA65D3B77EC2EC SWAP9 0xDB 0xD9 0xE9 INVALID PUSH30 0x46201864736F6C634300081F003300000000000000000000000000000000 "
				},
				"gasEstimates": {
					"creation": {
						"codeDepositCost": "2545200",
						"executionCost": "infinite",
						"totalCost": "infinite"
					},
					"external": {
						"addBook(string,string,string,uint256,uint256,uint256)": "infinite",
						"bookIds(uint256)": "infinite",
						"books(uint256)": "infinite",
						"borrowBook(uint256)": "infinite",
						"borrowedHistory(uint256,uint256)": "infinite",
						"buyBook(uint256)": "infinite",
						"getBookById(uint256)": "infinite",
						"getBooks()": "infinite",
						"isBorrowing(uint256,address)": "3158",
						"libraryAdmin()": "2532",
						"memberContract()": "infinite",
						"nonMemberBorrowFee()": "2514",
						"purchaseHistory(uint256,uint256)": "infinite",
						"restock(uint256,uint256)": "infinite",
						"returnBook(uint256)": "infinite"
					}
				},
				"methodIdentifiers": {
					"addBook(string,string,string,uint256,uint256,uint256)": "a9d00e66",
					"bookIds(uint256)": "513073b8",
					"books(uint256)": "68744046",
					"borrowBook(uint256)": "7e490a9e",
					"borrowedHistory(uint256,uint256)": "a1ef3577",
					"buyBook(uint256)": "6ee26566",
					"getBookById(uint256)": "418b79ab",
					"getBooks()": "9f349789",
					"isBorrowing(uint256,address)": "ff418352",
					"libraryAdmin()": "1792a6da",
					"memberContract()": "c40cf4eb",
					"nonMemberBorrowFee()": "85d04bae",
					"purchaseHistory(uint256,uint256)": "95f58ab8",
					"restock(uint256,uint256)": "ddd5987f",
					"returnBook(uint256)": "ca5140c9"
				}
			},
			"storageLayout": {
				"storage": [
					{
						"astId": 5,
						"contract": "Book.sol:BookContract",
						"label": "locked",
						"offset": 0,
						"slot": "0",
						"type": "t_bool"
					},
					{
						"astId": 7,
						"contract": "Book.sol:BookContract",
						"label": "bookCounter",
						"offset": 0,
						"slot": "1",
						"type": "t_uint256"
					},
					{
						"astId": 10,
						"contract": "Book.sol:BookContract",
						"label": "memberContract",
						"offset": 0,
						"slot": "2",
						"type": "t_contract(MemberContract)718"
					},
					{
						"astId": 12,
						"contract": "Book.sol:BookContract",
						"label": "libraryAdmin",
						"offset": 0,
						"slot": "3",
						"type": "t_address_payable"
					},
					{
						"astId": 14,
						"contract": "Book.sol:BookContract",
						"label": "nonMemberBorrowFee",
						"offset": 0,
						"slot": "4",
						"type": "t_uint256"
					},
					{
						"astId": 65,
						"contract": "Book.sol:BookContract",
						"label": "bookIds",
						"offset": 0,
						"slot": "5",
						"type": "t_array(t_uint256)dyn_storage"
					},
					{
						"astId": 70,
						"contract": "Book.sol:BookContract",
						"label": "books",
						"offset": 0,
						"slot": "6",
						"type": "t_mapping(t_uint256,t_struct(Book)57_storage)"
					},
					{
						"astId": 74,
						"contract": "Book.sol:BookContract",
						"label": "bookExist",
						"offset": 0,
						"slot": "7",
						"type": "t_mapping(t_bytes32,t_bool)"
					},
					{
						"astId": 80,
						"contract": "Book.sol:BookContract",
						"label": "borrowedHistory",
						"offset": 0,
						"slot": "8",
						"type": "t_mapping(t_uint256,t_array(t_struct(Transaction)62_storage)dyn_storage)"
					},
					{
						"astId": 86,
						"contract": "Book.sol:BookContract",
						"label": "purchaseHistory",
						"offset": 0,
						"slot": "9",
						"type": "t_mapping(t_uint256,t_array(t_struct(Transaction)62_storage)dyn_storage)"
					},
					{
						"astId": 92,
						"contract": "Book.sol:BookContract",
						"label": "isBorrowing",
						"offset": 0,
						"slot": "10",
						"type": "t_mapping(t_uint256,t_mapping(t_address,t_bool))"
					}
				],
				"types": {
					"t_address": {
						"encoding": "inplace",
						"label": "address",
						"numberOfBytes": "20"
					},
					"t_address_payable": {
						"encoding": "inplace",
						"label": "address payable",
						"numberOfBytes": "20"
					},
					"t_array(t_struct(Transaction)62_storage)dyn_storage": {
						"base": "t_struct(Transaction)62_storage",
						"encoding": "dynamic_array",
						"label": "struct BookContract.Transaction[]",
						"numberOfBytes": "32"
					},
					"t_array(t_uint256)dyn_storage": {
						"base": "t_uint256",
						"encoding": "dynamic_array",
						"label": "uint256[]",
						"numberOfBytes": "32"
					},
					"t_bool": {
						"encoding": "inplace",
						"label": "bool",
						"numberOfBytes": "1"
					},
					"t_bytes32": {
						"encoding": "inplace",
						"label": "bytes32",
						"numberOfBytes": "32"
					},
					"t_contract(MemberContract)718": {
						"encoding": "inplace",
						"label": "contract MemberContract",
						"numberOfBytes": "20"
					},
					"t_mapping(t_address,t_bool)": {
						"encoding": "mapping",
						"key": "t_address",
						"label": "mapping(address => bool)",
						"numberOfBytes": "32",
						"value": "t_bool"
					},
					"t_mapping(t_bytes32,t_bool)": {
						"encoding": "mapping",
						"key": "t_bytes32",
						"label": "mapping(bytes32 => bool)",
						"numberOfBytes": "32",
						"value": "t_bool"
					},
					"t_mapping(t_uint256,t_array(t_struct(Transaction)62_storage)dyn_storage)": {
						"encoding": "mapping",
						"key": "t_uint256",
						"label": "mapping(uint256 => struct BookContract.Transaction[])",
						"numberOfBytes": "32",
						"value": "t_array(t_struct(Transaction)62_storage)dyn_storage"
					},
					"t_mapping(t_uint256,t_mapping(t_address,t_bool))": {
						"encoding": "mapping",
						"key": "t_uint256",
						"label": "mapping(uint256 => mapping(address => bool))",
						"numberOfBytes": "32",
						"value": "t_mapping(t_address,t_bool)"
					},
					"t_mapping(t_uint256,t_struct(Book)57_storage)": {
						"encoding": "mapping",
						"key": "t_uint256",
						"label": "mapping(uint256 => struct BookContract.Book)",
						"numberOfBytes": "32",
						"value": "t_struct(Book)57_storage"
					},
					"t_string_storage": {
						"encoding": "bytes",
						"label": "string",
						"numberOfBytes": "32"
					},
					"t_struct(Book)57_storage": {
						"encoding": "inplace",
						"label": "struct BookContract.Book",
						"members": [
							{
								"astId": 40,
								"contract": "Book.sol:BookContract",
								"label": "ID",
								"offset": 0,
								"slot": "0",
								"type": "t_uint256"
							},
							{
								"astId": 42,
								"contract": "Book.sol:BookContract",
								"label": "title",
								"offset": 0,
								"slot": "1",
								"type": "t_string_storage"
							},
							{
								"astId": 44,
								"contract": "Book.sol:BookContract",
								"label": "author",
								"offset": 0,
								"slot": "2",
								"type": "t_string_storage"
							},
							{
								"astId": 46,
								"contract": "Book.sol:BookContract",
								"label": "genre",
								"offset": 0,
								"slot": "3",
								"type": "t_string_storage"
							},
							{
								"astId": 48,
								"contract": "Book.sol:BookContract",
								"label": "quantity",
								"offset": 0,
								"slot": "4",
								"type": "t_uint256"
							},
							{
								"astId": 50,
								"contract": "Book.sol:BookContract",
								"label": "price",
								"offset": 0,
								"slot": "5",
								"type": "t_uint256"
							},
							{
								"astId": 52,
								"contract": "Book.sol:BookContract",
								"label": "borrowFee",
								"offset": 0,
								"slot": "6",
								"type": "t_uint256"
							},
							{
								"astId": 54,
								"contract": "Book.sol:BookContract",
								"label": "exists",
								"offset": 0,
								"slot": "7",
								"type": "t_bool"
							},
							{
								"astId": 56,
								"contract": "Book.sol:BookContract",
								"label": "date",
								"offset": 0,
								"slot": "8",
								"type": "t_uint256"
							}
						],
						"numberOfBytes": "288"
					},
					"t_struct(Transaction)62_storage": {
						"encoding": "inplace",
						"label": "struct BookContract.Transaction",
						"members": [
							{
								"astId": 59,
								"contract": "Book.sol:BookContract",
								"label": "user",
								"offset": 0,
								"slot": "0",
								"type": "t_address"
							},
							{
								"astId": 61,
								"contract": "Book.sol:BookContract",
								"label": "timestamp",
								"offset": 0,
								"slot": "1",
								"type": "t_uint256"
							}
						],
						"numberOfBytes": "64"
					},
					"t_uint256": {
						"encoding": "inplace",
						"label": "uint256",
						"numberOfBytes": "32"
					}
				}
			},
			"userdoc": {
				"kind": "user",
				"methods": {},
				"version": 1
			}
		}
	}
}