{
	"Member.sol": {
		"MemberContract": {
			"abi": [
				{
					"inputs": [
						{
							"internalType": "address",
							"name": "",
							"type": "address"
						}
					],
					"name": "memberExist",
					"outputs": [
						{
							"internalType": "bool",
							"name": "",
							"type": "bool"
						}
					],
					"stateMutability": "view",
					"type": "function"
				},
				{
					"inputs": [
						{
							"internalType": "uint256",
							"name": "",
							"type": "uint256"
						}
					],
					"name": "members",
					"outputs": [
						{
							"internalType": "uint256",
							"name": "ID",
							"type": "uint256"
						},
						{
							"internalType": "string",
							"name": "name",
							"type": "string"
						},
						{
							"internalType": "uint256",
							"name": "age",
							"type": "uint256"
						},
						{
							"internalType": "address",
							"name": "wallet",
							"type": "address"
						}
					],
					"stateMutability": "view",
					"type": "function"
				},
				{
					"inputs": [
						{
							"internalType": "string",
							"name": "_name",
							"type": "string"
						},
						{
							"internalType": "uint256",
							"name": "_age",
							"type": "uint256"
						},
						{
							"internalType": "address",
							"name": "_wallet",
							"type": "address"
						}
					],
					"name": "registerMember",
					"outputs": [],
					"stateMutability": "nonpayable",
					"type": "function"
				}
			],
			"devdoc": {
				"kind": "dev",
				"methods": {},
				"version": 1
			},
			"evm": {
				"assembly": "    /* \"Member.sol\":59:834  contract MemberContract {... */\n  mstore(0x40, 0x80)\n  callvalue\n  dup1\n  iszero\n  tag_1\n  jumpi\n  revert(0x00, 0x00)\ntag_1:\n  pop\n  dataSize(sub_0)\n  dup1\n  dataOffset(sub_0)\n  0x00\n  codecopy\n  0x00\n  return\nstop\n\nsub_0: assembly {\n        /* \"Member.sol\":59:834  contract MemberContract {... */\n      mstore(0x40, 0x80)\n      callvalue\n      dup1\n      iszero\n      tag_1\n      jumpi\n      revert(0x00, 0x00)\n    tag_1:\n      pop\n      jumpi(tag_2, lt(calldatasize, 0x04))\n      shr(0xe0, calldataload(0x00))\n      dup1\n      0x506b27f0\n      eq\n      tag_3\n      jumpi\n      dup1\n      0x5daf08ca\n      eq\n      tag_4\n      jumpi\n      dup1\n      0xb184c11e\n      eq\n      tag_5\n      jumpi\n    tag_2:\n      revert(0x00, 0x00)\n        /* \"Member.sol\":231:274  mapping(address => bool) public memberExist */\n    tag_3:\n      tag_6\n      tag_7\n      calldatasize\n      0x04\n      tag_8\n      jump\t// in\n    tag_7:\n      mstore(0x20, 0x01)\n      0x00\n      swap1\n      dup2\n      mstore\n      0x40\n      swap1\n      keccak256\n      sload\n      0xff\n      and\n      dup2\n      jump\n    tag_6:\n      mload(0x40)\n        /* \"#utility.yul\":548:562   */\n      swap1\n      iszero\n        /* \"#utility.yul\":541:563   */\n      iszero\n        /* \"#utility.yul\":523:564   */\n      dup2\n      mstore\n        /* \"#utility.yul\":511:513   */\n      0x20\n        /* \"#utility.yul\":496:514   */\n      add\n        /* \"Member.sol\":231:274  mapping(address => bool) public memberExist */\n    tag_10:\n      mload(0x40)\n      dup1\n      swap2\n      sub\n      swap1\n      return\n        /* \"Member.sol\":202:225  Member[] public members */\n    tag_4:\n      tag_12\n      tag_13\n      calldatasize\n      0x04\n      tag_14\n      jump\t// in\n    tag_13:\n      tag_15\n      jump\t// in\n    tag_12:\n      mload(0x40)\n      tag_10\n      swap5\n      swap4\n      swap3\n      swap2\n      swap1\n      tag_17\n      jump\t// in\n        /* \"Member.sol\":281:832  function registerMember(... */\n    tag_5:\n      tag_18\n      tag_19\n      calldatasize\n      0x04\n      tag_20\n      jump\t// in\n    tag_19:\n      tag_21\n      jump\t// in\n    tag_18:\n      stop\n        /* \"Member.sol\":202:225  Member[] public members */\n    tag_15:\n      0x00\n      dup2\n      dup2\n      sload\n      dup2\n      lt\n      tag_22\n      jumpi\n      0x00\n      dup1\n      revert\n    tag_22:\n      0x00\n      swap2\n      dup3\n      mstore\n      0x20\n      swap1\n      swap2\n      keccak256\n      0x04\n      swap1\n      swap2\n      mul\n      add\n      dup1\n      sload\n      0x01\n      dup3\n      add\n      dup1\n      sload\n      swap2\n      swap4\n      pop\n      swap1\n      tag_24\n      swap1\n      tag_25\n      jump\t// in\n    tag_24:\n      dup1\n      0x1f\n      add\n      0x20\n      dup1\n      swap2\n      div\n      mul\n      0x20\n      add\n      mload(0x40)\n      swap1\n      dup2\n      add\n      0x40\n      mstore\n      dup1\n      swap3\n      swap2\n      swap1\n      dup2\n      dup2\n      mstore\n      0x20\n      add\n      dup3\n      dup1\n      sload\n      tag_26\n      swap1\n      tag_25\n      jump\t// in\n    tag_26:\n      dup1\n      iszero\n      tag_27\n      jumpi\n      dup1\n      0x1f\n      lt\n      tag_28\n      jumpi\n      0x0100\n      dup1\n      dup4\n      sload\n      div\n      mul\n      dup4\n      mstore\n      swap2\n      0x20\n      add\n      swap2\n      jump(tag_27)\n    tag_28:\n      dup3\n      add\n      swap2\n      swap1\n      0x00\n      mstore\n      keccak256(0x00, 0x20)\n      swap1\n    tag_29:\n      dup2\n      sload\n      dup2\n      mstore\n      swap1\n      0x01\n      add\n      swap1\n      0x20\n      add\n      dup1\n      dup4\n      gt\n      tag_29\n      jumpi\n      dup3\n      swap1\n      sub\n      0x1f\n      and\n      dup3\n      add\n      swap2\n    tag_27:\n      pop\n      pop\n      pop\n      pop\n      0x02\n      dup4\n      add\n      sload\n      0x03\n      swap1\n      swap4\n      add\n      sload\n      swap2\n      swap3\n      swap2\n      sub(shl(0xa0, 0x01), 0x01)\n      and\n      swap1\n      pop\n      dup5\n      jump\t// out\n        /* \"Member.sol\":281:832  function registerMember(... */\n    tag_21:\n        /* \"Member.sol\":434:435  0 */\n      0x00\n        /* \"Member.sol\":418:423  _name */\n      dup4\n        /* \"Member.sol\":412:431  bytes(_name).length */\n      mload\n        /* \"Member.sol\":412:435  bytes(_name).length > 0 */\n      gt\n        /* \"Member.sol\":404:466  require(bytes(_name).length > 0, \"User name cannot be empty!\") */\n      tag_31\n      jumpi\n      mload(0x40)\n      shl(0xe5, 0x461bcd)\n      dup2\n      mstore\n        /* \"#utility.yul\":3340:3342   */\n      0x20\n        /* \"Member.sol\":404:466  require(bytes(_name).length > 0, \"User name cannot be empty!\") */\n      0x04\n      dup3\n      add\n        /* \"#utility.yul\":3322:3343   */\n      mstore\n        /* \"#utility.yul\":3379:3381   */\n      0x1a\n        /* \"#utility.yul\":3359:3377   */\n      0x24\n      dup3\n      add\n        /* \"#utility.yul\":3352:3382   */\n      mstore\n        /* \"#utility.yul\":3418:3446   */\n      0x55736572206e616d652063616e6e6f7420626520656d70747921000000000000\n        /* \"#utility.yul\":3398:3416   */\n      0x44\n      dup3\n      add\n        /* \"#utility.yul\":3391:3447   */\n      mstore\n        /* \"#utility.yul\":3464:3482   */\n      0x64\n      add\n        /* \"Member.sol\":404:466  require(bytes(_name).length > 0, \"User name cannot be empty!\") */\n    tag_32:\n      mload(0x40)\n      dup1\n      swap2\n      sub\n      swap1\n      revert\n    tag_31:\n        /* \"Member.sol\":491:493  15 */\n      0x0f\n        /* \"Member.sol\":484:488  _age */\n      dup3\n        /* \"Member.sol\":484:493  _age > 15 */\n      gt\n        /* \"Member.sol\":476:524  require(_age > 15, \"User must be older than 15\") */\n      tag_34\n      jumpi\n      mload(0x40)\n      shl(0xe5, 0x461bcd)\n      dup2\n      mstore\n        /* \"#utility.yul\":3695:3697   */\n      0x20\n        /* \"Member.sol\":476:524  require(_age > 15, \"User must be older than 15\") */\n      0x04\n      dup3\n      add\n        /* \"#utility.yul\":3677:3698   */\n      mstore\n        /* \"#utility.yul\":3734:3736   */\n      0x1a\n        /* \"#utility.yul\":3714:3732   */\n      0x24\n      dup3\n      add\n        /* \"#utility.yul\":3707:3737   */\n      mstore\n        /* \"#utility.yul\":3773:3801   */\n      0x55736572206d757374206265206f6c646572207468616e203135000000000000\n        /* \"#utility.yul\":3753:3771   */\n      0x44\n      dup3\n      add\n        /* \"#utility.yul\":3746:3802   */\n      mstore\n        /* \"#utility.yul\":3819:3837   */\n      0x64\n      add\n        /* \"Member.sol\":476:524  require(_age > 15, \"User must be older than 15\") */\n      tag_32\n        /* \"#utility.yul\":3493:3843   */\n      jump\n        /* \"Member.sol\":476:524  require(_age > 15, \"User must be older than 15\") */\n    tag_34:\n      sub(shl(0xa0, 0x01), 0x01)\n        /* \"Member.sol\":543:563  memberExist[_wallet] */\n      dup2\n      and\n      0x00\n      swap1\n      dup2\n      mstore\n        /* \"Member.sol\":543:554  memberExist */\n      0x01\n        /* \"Member.sol\":543:563  memberExist[_wallet] */\n      0x20\n      mstore\n      0x40\n      swap1\n      keccak256\n      sload\n      0xff\n      and\n        /* \"Member.sol\":542:563  !memberExist[_wallet] */\n      iszero\n        /* \"Member.sol\":534:584  require(!memberExist[_wallet], \"User registered!\") */\n      tag_37\n      jumpi\n      mload(0x40)\n      shl(0xe5, 0x461bcd)\n      dup2\n      mstore\n        /* \"#utility.yul\":4050:4052   */\n      0x20\n        /* \"Member.sol\":534:584  require(!memberExist[_wallet], \"User registered!\") */\n      0x04\n      dup3\n      add\n        /* \"#utility.yul\":4032:4053   */\n      mstore\n        /* \"#utility.yul\":4089:4091   */\n      0x10\n        /* \"#utility.yul\":4069:4087   */\n      0x24\n      dup3\n      add\n        /* \"#utility.yul\":4062:4092   */\n      mstore\n      shl(0x80, 0x55736572207265676973746572656421)\n        /* \"#utility.yul\":4108:4126   */\n      0x44\n      dup3\n      add\n        /* \"#utility.yul\":4101:4147   */\n      mstore\n        /* \"#utility.yul\":4164:4182   */\n      0x64\n      add\n        /* \"Member.sol\":534:584  require(!memberExist[_wallet], \"User registered!\") */\n      tag_32\n        /* \"#utility.yul\":3848:4188   */\n      jump\n        /* \"Member.sol\":534:584  require(!memberExist[_wallet], \"User registered!\") */\n    tag_37:\n      sub(shl(0xa0, 0x01), 0x01)\n        /* \"Member.sol\":594:614  memberExist[_wallet] */\n      dup2\n      and\n      0x00\n      swap1\n      dup2\n      mstore\n        /* \"Member.sol\":617:621  true */\n      0x01\n        /* \"Member.sol\":594:614  memberExist[_wallet] */\n      0x20\n      dup2\n      swap1\n      mstore\n      0x40\n      dup3\n      keccak256\n        /* \"Member.sol\":594:621  memberExist[_wallet] = true */\n      dup1\n      sload\n      not(0xff)\n      and\n      dup3\n      or\n      swap1\n      sstore\n        /* \"Member.sol\":646:660  members.length */\n      dup2\n      sload\n        /* \"Member.sol\":646:664  members.length + 1 */\n      tag_40\n      swap2\n      tag_41\n      jump\t// in\n    tag_40:\n        /* \"Member.sol\":700:791  Member(... */\n      0x40\n      dup1\n      mload\n      0x80\n      dup2\n      add\n      dup3\n      mstore\n      dup3\n      dup2\n      mstore\n      0x20\n      dup2\n      add\n      dup8\n      dup2\n      mstore\n      swap2\n      dup2\n      add\n      dup7\n      swap1\n      mstore\n      sub(shl(0xa0, 0x01), 0x01)\n      dup6\n      and\n      0x60\n      dup3\n      add\n      mstore\n        /* \"Member.sol\":674:697  Member memory newMember */\n      0x00\n        /* \"Member.sol\":802:825  members.push(newMember) */\n      dup1\n      sload\n      0x01\n      dup2\n      add\n      dup3\n      sstore\n      swap1\n      dup1\n      mstore\n      dup2\n      mload\n      0x04\n      swap1\n      swap2\n      mul\n      0x290decd9548b62a8d60345a988386fc84ba6bc95484008f6362f93160ef3e563\n      dup2\n      add\n      swap2\n      dup3\n      sstore\n      swap3\n      mload\n        /* \"Member.sol\":632:664  uint256 _ID = members.length + 1 */\n      swap4\n      swap5\n      pop\n        /* \"Member.sol\":700:791  Member(... */\n      swap1\n      swap3\n      dup4\n      swap3\n        /* \"Member.sol\":802:825  members.push(newMember) */\n      0x290decd9548b62a8d60345a988386fc84ba6bc95484008f6362f93160ef3e564\n      add\n      swap1\n      tag_43\n      swap1\n      dup3\n      tag_44\n      jump\t// in\n    tag_43:\n      pop\n      0x40\n      dup3\n      add\n      mload\n      0x02\n      dup3\n      add\n      sstore\n      0x60\n      swap1\n      swap2\n      add\n      mload\n      0x03\n      swap1\n      swap2\n      add\n      dup1\n      sload\n      not(sub(shl(0xa0, 0x01), 0x01))\n      and\n      sub(shl(0xa0, 0x01), 0x01)\n      swap1\n      swap3\n      and\n      swap2\n      swap1\n      swap2\n      or\n      swap1\n      sstore\n      pop\n      pop\n      pop\n      pop\n      pop\n        /* \"Member.sol\":281:832  function registerMember(... */\n      jump\t// out\n        /* \"#utility.yul\":14:187   */\n    tag_45:\n        /* \"#utility.yul\":82:102   */\n      dup1\n      calldataload\n      sub(shl(0xa0, 0x01), 0x01)\n        /* \"#utility.yul\":131:162   */\n      dup2\n      and\n        /* \"#utility.yul\":121:163   */\n      dup2\n      eq\n        /* \"#utility.yul\":111:181   */\n      tag_52\n      jumpi\n        /* \"#utility.yul\":177:178   */\n      0x00\n        /* \"#utility.yul\":174:175   */\n      0x00\n        /* \"#utility.yul\":167:179   */\n      revert\n        /* \"#utility.yul\":111:181   */\n    tag_52:\n        /* \"#utility.yul\":14:187   */\n      swap2\n      swap1\n      pop\n      jump\t// out\n        /* \"#utility.yul\":192:378   */\n    tag_8:\n        /* \"#utility.yul\":251:257   */\n      0x00\n        /* \"#utility.yul\":304:306   */\n      0x20\n        /* \"#utility.yul\":292:301   */\n      dup3\n        /* \"#utility.yul\":283:290   */\n      dup5\n        /* \"#utility.yul\":279:302   */\n      sub\n        /* \"#utility.yul\":275:307   */\n      slt\n        /* \"#utility.yul\":272:324   */\n      iszero\n      tag_54\n      jumpi\n        /* \"#utility.yul\":320:321   */\n      0x00\n        /* \"#utility.yul\":317:318   */\n      0x00\n        /* \"#utility.yul\":310:322   */\n      revert\n        /* \"#utility.yul\":272:324   */\n    tag_54:\n        /* \"#utility.yul\":343:372   */\n      tag_55\n        /* \"#utility.yul\":362:371   */\n      dup3\n        /* \"#utility.yul\":343:372   */\n      tag_45\n      jump\t// in\n    tag_55:\n        /* \"#utility.yul\":333:372   */\n      swap4\n        /* \"#utility.yul\":192:378   */\n      swap3\n      pop\n      pop\n      pop\n      jump\t// out\n        /* \"#utility.yul\":575:801   */\n    tag_14:\n        /* \"#utility.yul\":634:640   */\n      0x00\n        /* \"#utility.yul\":687:689   */\n      0x20\n        /* \"#utility.yul\":675:684   */\n      dup3\n        /* \"#utility.yul\":666:673   */\n      dup5\n        /* \"#utility.yul\":662:685   */\n      sub\n        /* \"#utility.yul\":658:690   */\n      slt\n        /* \"#utility.yul\":655:707   */\n      iszero\n      tag_58\n      jumpi\n        /* \"#utility.yul\":703:704   */\n      0x00\n        /* \"#utility.yul\":700:701   */\n      0x00\n        /* \"#utility.yul\":693:705   */\n      revert\n        /* \"#utility.yul\":655:707   */\n    tag_58:\n      pop\n        /* \"#utility.yul\":748:771   */\n      calldataload\n      swap2\n        /* \"#utility.yul\":575:801   */\n      swap1\n      pop\n      jump\t// out\n        /* \"#utility.yul\":806:1468   */\n    tag_17:\n        /* \"#utility.yul\":1039:1045   */\n      dup5\n        /* \"#utility.yul\":1028:1037   */\n      dup2\n        /* \"#utility.yul\":1021:1046   */\n      mstore\n        /* \"#utility.yul\":1082:1085   */\n      0x80\n        /* \"#utility.yul\":1077:1079   */\n      0x20\n        /* \"#utility.yul\":1066:1075   */\n      dup3\n        /* \"#utility.yul\":1062:1080   */\n      add\n        /* \"#utility.yul\":1055:1086   */\n      mstore\n        /* \"#utility.yul\":1002:1006   */\n      0x00\n        /* \"#utility.yul\":1115:1121   */\n      dup5\n        /* \"#utility.yul\":1109:1122   */\n      mload\n        /* \"#utility.yul\":1159:1165   */\n      dup1\n        /* \"#utility.yul\":1153:1156   */\n      0x80\n        /* \"#utility.yul\":1142:1151   */\n      dup5\n        /* \"#utility.yul\":1138:1157   */\n      add\n        /* \"#utility.yul\":1131:1166   */\n      mstore\n        /* \"#utility.yul\":1219:1225   */\n      dup1\n        /* \"#utility.yul\":1214:1216   */\n      0x20\n        /* \"#utility.yul\":1206:1212   */\n      dup8\n        /* \"#utility.yul\":1202:1217   */\n      add\n        /* \"#utility.yul\":1196:1199   */\n      0xa0\n        /* \"#utility.yul\":1185:1194   */\n      dup6\n        /* \"#utility.yul\":1181:1200   */\n      add\n        /* \"#utility.yul\":1175:1226   */\n      mcopy\n        /* \"#utility.yul\":1276:1277   */\n      0x00\n        /* \"#utility.yul\":1270:1273   */\n      0xa0\n        /* \"#utility.yul\":1246:1268   */\n      dup3\n      dup6\n      add\n        /* \"#utility.yul\":1242:1274   */\n      dup2\n      add\n        /* \"#utility.yul\":1235:1278   */\n      swap2\n      swap1\n      swap2\n      mstore\n        /* \"#utility.yul\":1381:1383   */\n      0x40\n        /* \"#utility.yul\":1366:1384   */\n      dup5\n      add\n        /* \"#utility.yul\":1359:1393   */\n      swap6\n      swap1\n      swap6\n      mstore\n      sub(shl(0xa0, 0x01), 0x01)\n        /* \"#utility.yul\":1429:1461   */\n      swap4\n      swap1\n      swap4\n      and\n      0x60\n        /* \"#utility.yul\":1409:1427   */\n      dup4\n      add\n        /* \"#utility.yul\":1402:1462   */\n      mstore\n      pop\n        /* \"#utility.yul\":1339:1341   */\n      0x1f\n        /* \"#utility.yul\":1318:1333   */\n      swap1\n      swap2\n      add\n      not(0x1f)\n        /* \"#utility.yul\":1314:1343   */\n      and\n        /* \"#utility.yul\":1299:1344   */\n      add\n        /* \"#utility.yul\":1295:1350   */\n      add\n      swap3\n      swap2\n      pop\n      pop\n        /* \"#utility.yul\":806:1468   */\n      jump\t// out\n        /* \"#utility.yul\":1473:1600   */\n    tag_46:\n        /* \"#utility.yul\":1534:1544   */\n      0x4e487b71\n        /* \"#utility.yul\":1529:1532   */\n      0xe0\n        /* \"#utility.yul\":1525:1545   */\n      shl\n        /* \"#utility.yul\":1522:1523   */\n      0x00\n        /* \"#utility.yul\":1515:1546   */\n      mstore\n        /* \"#utility.yul\":1565:1569   */\n      0x41\n        /* \"#utility.yul\":1562:1563   */\n      0x04\n        /* \"#utility.yul\":1555:1570   */\n      mstore\n        /* \"#utility.yul\":1589:1593   */\n      0x24\n        /* \"#utility.yul\":1586:1587   */\n      0x00\n        /* \"#utility.yul\":1579:1594   */\n      revert\n        /* \"#utility.yul\":1605:2748   */\n    tag_20:\n        /* \"#utility.yul\":1692:1698   */\n      0x00\n        /* \"#utility.yul\":1700:1706   */\n      0x00\n        /* \"#utility.yul\":1708:1714   */\n      0x00\n        /* \"#utility.yul\":1761:1763   */\n      0x60\n        /* \"#utility.yul\":1749:1758   */\n      dup5\n        /* \"#utility.yul\":1740:1747   */\n      dup7\n        /* \"#utility.yul\":1736:1759   */\n      sub\n        /* \"#utility.yul\":1732:1764   */\n      slt\n        /* \"#utility.yul\":1729:1781   */\n      iszero\n      tag_62\n      jumpi\n        /* \"#utility.yul\":1777:1778   */\n      0x00\n        /* \"#utility.yul\":1774:1775   */\n      0x00\n        /* \"#utility.yul\":1767:1779   */\n      revert\n        /* \"#utility.yul\":1729:1781   */\n    tag_62:\n        /* \"#utility.yul\":1817:1826   */\n      dup4\n        /* \"#utility.yul\":1804:1827   */\n      calldataload\n        /* \"#utility.yul\":1850:1868   */\n      0xffffffffffffffff\n        /* \"#utility.yul\":1842:1848   */\n      dup2\n        /* \"#utility.yul\":1839:1869   */\n      gt\n        /* \"#utility.yul\":1836:1886   */\n      iszero\n      tag_63\n      jumpi\n        /* \"#utility.yul\":1882:1883   */\n      0x00\n        /* \"#utility.yul\":1879:1880   */\n      0x00\n        /* \"#utility.yul\":1872:1884   */\n      revert\n        /* \"#utility.yul\":1836:1886   */\n    tag_63:\n        /* \"#utility.yul\":1905:1927   */\n      dup5\n      add\n        /* \"#utility.yul\":1958:1962   */\n      0x1f\n        /* \"#utility.yul\":1950:1963   */\n      dup2\n      add\n        /* \"#utility.yul\":1946:1973   */\n      dup7\n      sgt\n        /* \"#utility.yul\":1936:1991   */\n      tag_64\n      jumpi\n        /* \"#utility.yul\":1987:1988   */\n      0x00\n        /* \"#utility.yul\":1984:1985   */\n      0x00\n        /* \"#utility.yul\":1977:1989   */\n      revert\n        /* \"#utility.yul\":1936:1991   */\n    tag_64:\n        /* \"#utility.yul\":2027:2029   */\n      dup1\n        /* \"#utility.yul\":2014:2030   */\n      calldataload\n        /* \"#utility.yul\":2053:2071   */\n      0xffffffffffffffff\n        /* \"#utility.yul\":2045:2051   */\n      dup2\n        /* \"#utility.yul\":2042:2072   */\n      gt\n        /* \"#utility.yul\":2039:2095   */\n      iszero\n      tag_66\n      jumpi\n        /* \"#utility.yul\":2075:2093   */\n      tag_66\n      tag_46\n      jump\t// in\n    tag_66:\n        /* \"#utility.yul\":2124:2126   */\n      0x40\n        /* \"#utility.yul\":2118:2127   */\n      mload\n        /* \"#utility.yul\":2216:2218   */\n      0x1f\n        /* \"#utility.yul\":2178:2195   */\n      dup3\n      add\n      not(0x1f)\n        /* \"#utility.yul\":2174:2205   */\n      swap1\n      dup2\n      and\n        /* \"#utility.yul\":2207:2209   */\n      0x3f\n        /* \"#utility.yul\":2170:2210   */\n      add\n        /* \"#utility.yul\":2166:2220   */\n      and\n        /* \"#utility.yul\":2154:2221   */\n      dup2\n      add\n        /* \"#utility.yul\":2251:2269   */\n      0xffffffffffffffff\n        /* \"#utility.yul\":2236:2270   */\n      dup2\n      gt\n        /* \"#utility.yul\":2272:2294   */\n      dup3\n      dup3\n      lt\n        /* \"#utility.yul\":2233:2295   */\n      or\n        /* \"#utility.yul\":2230:2318   */\n      iszero\n      tag_68\n      jumpi\n        /* \"#utility.yul\":2298:2316   */\n      tag_68\n      tag_46\n      jump\t// in\n    tag_68:\n        /* \"#utility.yul\":2334:2336   */\n      0x40\n        /* \"#utility.yul\":2327:2349   */\n      mstore\n        /* \"#utility.yul\":2358:2380   */\n      dup2\n      dup2\n      mstore\n        /* \"#utility.yul\":2399:2414   */\n      dup3\n      dup3\n      add\n        /* \"#utility.yul\":2416:2420   */\n      0x20\n        /* \"#utility.yul\":2395:2421   */\n      add\n        /* \"#utility.yul\":2392:2431   */\n      dup9\n      lt\n        /* \"#utility.yul\":2389:2448   */\n      iszero\n      tag_69\n      jumpi\n        /* \"#utility.yul\":2444:2445   */\n      0x00\n        /* \"#utility.yul\":2441:2442   */\n      0x00\n        /* \"#utility.yul\":2434:2446   */\n      revert\n        /* \"#utility.yul\":2389:2448   */\n    tag_69:\n        /* \"#utility.yul\":2504:2510   */\n      dup2\n        /* \"#utility.yul\":2497:2501   */\n      0x20\n        /* \"#utility.yul\":2493:2495   */\n      dup5\n        /* \"#utility.yul\":2489:2502   */\n      add\n        /* \"#utility.yul\":2482:2486   */\n      0x20\n        /* \"#utility.yul\":2474:2480   */\n      dup4\n        /* \"#utility.yul\":2470:2487   */\n      add\n        /* \"#utility.yul\":2457:2511   */\n      calldatacopy\n        /* \"#utility.yul\":2559:2560   */\n      0x00\n        /* \"#utility.yul\":2552:2556   */\n      0x20\n        /* \"#utility.yul\":2531:2550   */\n      swap3\n      dup3\n      add\n        /* \"#utility.yul\":2527:2557   */\n      dup4\n      add\n        /* \"#utility.yul\":2520:2561   */\n      mstore\n        /* \"#utility.yul\":2531:2550   */\n      swap5\n      pop\n        /* \"#utility.yul\":2640:2660   */\n      dup6\n      add\n        /* \"#utility.yul\":2627:2661   */\n      calldataload\n      swap3\n      pop\n        /* \"#utility.yul\":2704:2742   */\n      tag_70\n      swap1\n      pop\n        /* \"#utility.yul\":2738:2740   */\n      0x40\n        /* \"#utility.yul\":2723:2741   */\n      dup6\n      add\n        /* \"#utility.yul\":2704:2742   */\n      tag_45\n      jump\t// in\n    tag_70:\n        /* \"#utility.yul\":2694:2742   */\n      swap1\n      pop\n        /* \"#utility.yul\":1605:2748   */\n      swap3\n      pop\n      swap3\n      pop\n      swap3\n      jump\t// out\n        /* \"#utility.yul\":2753:3133   */\n    tag_25:\n        /* \"#utility.yul\":2832:2833   */\n      0x01\n        /* \"#utility.yul\":2828:2840   */\n      dup2\n      dup2\n      shr\n      swap1\n        /* \"#utility.yul\":2875:2887   */\n      dup3\n      and\n      dup1\n        /* \"#utility.yul\":2896:2957   */\n      tag_72\n      jumpi\n        /* \"#utility.yul\":2950:2954   */\n      0x7f\n        /* \"#utility.yul\":2942:2948   */\n      dup3\n        /* \"#utility.yul\":2938:2955   */\n      and\n        /* \"#utility.yul\":2928:2955   */\n      swap2\n      pop\n        /* \"#utility.yul\":2896:2957   */\n    tag_72:\n        /* \"#utility.yul\":3003:3005   */\n      0x20\n        /* \"#utility.yul\":2995:3001   */\n      dup3\n        /* \"#utility.yul\":2992:3006   */\n      lt\n        /* \"#utility.yul\":2972:2990   */\n      dup2\n        /* \"#utility.yul\":2969:3007   */\n      sub\n        /* \"#utility.yul\":2966:3127   */\n      tag_73\n      jumpi\n        /* \"#utility.yul\":3049:3059   */\n      0x4e487b71\n        /* \"#utility.yul\":3044:3047   */\n      0xe0\n        /* \"#utility.yul\":3040:3060   */\n      shl\n        /* \"#utility.yul\":3037:3038   */\n      0x00\n        /* \"#utility.yul\":3030:3061   */\n      mstore\n        /* \"#utility.yul\":3084:3088   */\n      0x22\n        /* \"#utility.yul\":3081:3082   */\n      0x04\n        /* \"#utility.yul\":3074:3089   */\n      mstore\n        /* \"#utility.yul\":3112:3116   */\n      0x24\n        /* \"#utility.yul\":3109:3110   */\n      0x00\n        /* \"#utility.yul\":3102:3117   */\n      revert\n        /* \"#utility.yul\":2966:3127   */\n    tag_73:\n      pop\n        /* \"#utility.yul\":2753:3133   */\n      swap2\n      swap1\n      pop\n      jump\t// out\n        /* \"#utility.yul\":4193:4415   */\n    tag_41:\n        /* \"#utility.yul\":4258:4267   */\n      dup1\n      dup3\n      add\n        /* \"#utility.yul\":4279:4289   */\n      dup1\n      dup3\n      gt\n        /* \"#utility.yul\":4276:4409   */\n      iszero\n      tag_78\n      jumpi\n        /* \"#utility.yul\":4331:4341   */\n      0x4e487b71\n        /* \"#utility.yul\":4326:4329   */\n      0xe0\n        /* \"#utility.yul\":4322:4342   */\n      shl\n        /* \"#utility.yul\":4319:4320   */\n      0x00\n        /* \"#utility.yul\":4312:4343   */\n      mstore\n        /* \"#utility.yul\":4366:4370   */\n      0x11\n        /* \"#utility.yul\":4363:4364   */\n      0x04\n        /* \"#utility.yul\":4356:4371   */\n      mstore\n        /* \"#utility.yul\":4394:4398   */\n      0x24\n        /* \"#utility.yul\":4391:4392   */\n      0x00\n        /* \"#utility.yul\":4384:4399   */\n      revert\n        /* \"#utility.yul\":4276:4409   */\n    tag_78:\n        /* \"#utility.yul\":4193:4415   */\n      swap3\n      swap2\n      pop\n      pop\n      jump\t// out\n        /* \"#utility.yul\":4546:5064   */\n    tag_48:\n        /* \"#utility.yul\":4648:4650   */\n      0x1f\n        /* \"#utility.yul\":4643:4646   */\n      dup3\n        /* \"#utility.yul\":4640:4651   */\n      gt\n        /* \"#utility.yul\":4637:5058   */\n      iszero\n      tag_81\n      jumpi\n        /* \"#utility.yul\":4684:4689   */\n      dup1\n        /* \"#utility.yul\":4681:4682   */\n      0x00\n        /* \"#utility.yul\":4674:4690   */\n      mstore\n        /* \"#utility.yul\":4728:4732   */\n      0x20\n        /* \"#utility.yul\":4725:4726   */\n      0x00\n        /* \"#utility.yul\":4715:4733   */\n      keccak256\n        /* \"#utility.yul\":4798:4800   */\n      0x1f\n        /* \"#utility.yul\":4786:4796   */\n      dup5\n        /* \"#utility.yul\":4782:4801   */\n      add\n        /* \"#utility.yul\":4779:4780   */\n      0x05\n        /* \"#utility.yul\":4775:4802   */\n      shr\n        /* \"#utility.yul\":4769:4773   */\n      dup2\n        /* \"#utility.yul\":4765:4803   */\n      add\n        /* \"#utility.yul\":4834:4838   */\n      0x20\n        /* \"#utility.yul\":4822:4832   */\n      dup6\n        /* \"#utility.yul\":4819:4839   */\n      lt\n        /* \"#utility.yul\":4816:4863   */\n      iszero\n      tag_82\n      jumpi\n      pop\n        /* \"#utility.yul\":4857:4861   */\n      dup1\n        /* \"#utility.yul\":4816:4863   */\n    tag_82:\n        /* \"#utility.yul\":4912:4914   */\n      0x1f\n        /* \"#utility.yul\":4907:4910   */\n      dup5\n        /* \"#utility.yul\":4903:4915   */\n      add\n        /* \"#utility.yul\":4900:4901   */\n      0x05\n        /* \"#utility.yul\":4896:4916   */\n      shr\n        /* \"#utility.yul\":4890:4894   */\n      dup3\n        /* \"#utility.yul\":4886:4917   */\n      add\n        /* \"#utility.yul\":4876:4917   */\n      swap2\n      pop\n        /* \"#utility.yul\":4967:5048   */\n    tag_83:\n        /* \"#utility.yul\":4985:4987   */\n      dup2\n        /* \"#utility.yul\":4978:4983   */\n      dup2\n        /* \"#utility.yul\":4975:4988   */\n      lt\n        /* \"#utility.yul\":4967:5048   */\n      iszero\n      tag_85\n      jumpi\n        /* \"#utility.yul\":5044:5045   */\n      0x00\n        /* \"#utility.yul\":5030:5046   */\n      dup2\n      sstore\n        /* \"#utility.yul\":5011:5012   */\n      0x01\n        /* \"#utility.yul\":5000:5013   */\n      add\n        /* \"#utility.yul\":4967:5048   */\n      jump(tag_83)\n    tag_85:\n        /* \"#utility.yul\":4971:4974   */\n      pop\n      pop\n        /* \"#utility.yul\":4637:5058   */\n    tag_81:\n        /* \"#utility.yul\":4546:5064   */\n      pop\n      pop\n      pop\n      jump\t// out\n        /* \"#utility.yul\":5240:6539   */\n    tag_44:\n        /* \"#utility.yul\":5366:5369   */\n      dup2\n        /* \"#utility.yul\":5360:5370   */\n      mload\n        /* \"#utility.yul\":5393:5411   */\n      0xffffffffffffffff\n        /* \"#utility.yul\":5385:5391   */\n      dup2\n        /* \"#utility.yul\":5382:5412   */\n      gt\n        /* \"#utility.yul\":5379:5435   */\n      iszero\n      tag_89\n      jumpi\n        /* \"#utility.yul\":5415:5433   */\n      tag_89\n      tag_46\n      jump\t// in\n    tag_89:\n        /* \"#utility.yul\":5444:5541   */\n      tag_90\n        /* \"#utility.yul\":5534:5540   */\n      dup2\n        /* \"#utility.yul\":5494:5532   */\n      tag_91\n        /* \"#utility.yul\":5526:5530   */\n      dup5\n        /* \"#utility.yul\":5520:5531   */\n      sload\n        /* \"#utility.yul\":5494:5532   */\n      tag_25\n      jump\t// in\n    tag_91:\n        /* \"#utility.yul\":5488:5492   */\n      dup5\n        /* \"#utility.yul\":5444:5541   */\n      tag_48\n      jump\t// in\n    tag_90:\n        /* \"#utility.yul\":5590:5594   */\n      0x20\n        /* \"#utility.yul\":5621:5623   */\n      0x1f\n        /* \"#utility.yul\":5610:5624   */\n      dup3\n      gt\n        /* \"#utility.yul\":5638:5639   */\n      0x01\n        /* \"#utility.yul\":5633:6282   */\n      dup2\n      eq\n      tag_93\n      jumpi\n        /* \"#utility.yul\":6326:6327   */\n      0x00\n        /* \"#utility.yul\":6343:6349   */\n      dup4\n        /* \"#utility.yul\":6340:6429   */\n      iszero\n      tag_94\n      jumpi\n      pop\n        /* \"#utility.yul\":6395:6414   */\n      dup5\n      dup3\n      add\n        /* \"#utility.yul\":6389:6415   */\n      mload\n        /* \"#utility.yul\":6340:6429   */\n    tag_94:\n      not(0x00)\n        /* \"#utility.yul\":5197:5198   */\n      0x03\n        /* \"#utility.yul\":5193:5204   */\n      dup6\n      swap1\n      shl\n        /* \"#utility.yul\":5189:5213   */\n      shr\n        /* \"#utility.yul\":5185:5214   */\n      not\n        /* \"#utility.yul\":5175:5215   */\n      and\n        /* \"#utility.yul\":5221:5222   */\n      0x01\n        /* \"#utility.yul\":5217:5228   */\n      dup5\n      swap1\n      shl\n        /* \"#utility.yul\":5172:5229   */\n      or\n        /* \"#utility.yul\":6442:6523   */\n      dup5\n      sstore\n        /* \"#utility.yul\":5603:6533   */\n      jump(tag_85)\n        /* \"#utility.yul\":5633:6282   */\n    tag_93:\n        /* \"#utility.yul\":4493:4494   */\n      0x00\n        /* \"#utility.yul\":4486:4500   */\n      dup5\n      dup2\n      mstore\n        /* \"#utility.yul\":4530:4534   */\n      0x20\n        /* \"#utility.yul\":4517:4535   */\n      dup2\n      keccak256\n      not(0x1f)\n        /* \"#utility.yul\":5669:5689   */\n      dup6\n      and\n      swap2\n        /* \"#utility.yul\":5787:6009   */\n    tag_97:\n        /* \"#utility.yul\":5801:5808   */\n      dup3\n        /* \"#utility.yul\":5798:5799   */\n      dup2\n        /* \"#utility.yul\":5795:5809   */\n      lt\n        /* \"#utility.yul\":5787:6009   */\n      iszero\n      tag_99\n      jumpi\n        /* \"#utility.yul\":5883:5902   */\n      dup8\n      dup6\n      add\n        /* \"#utility.yul\":5877:5903   */\n      mload\n        /* \"#utility.yul\":5862:5904   */\n      dup3\n      sstore\n        /* \"#utility.yul\":5990:5994   */\n      0x20\n        /* \"#utility.yul\":5975:5995   */\n      swap5\n      dup6\n      add\n      swap5\n        /* \"#utility.yul\":5943:5944   */\n      0x01\n        /* \"#utility.yul\":5931:5945   */\n      swap1\n      swap3\n      add\n      swap2\n        /* \"#utility.yul\":5817:5829   */\n      add\n        /* \"#utility.yul\":5787:6009   */\n      jump(tag_97)\n    tag_99:\n        /* \"#utility.yul\":5791:5794   */\n      pop\n        /* \"#utility.yul\":6037:6043   */\n      dup5\n        /* \"#utility.yul\":6028:6035   */\n      dup3\n        /* \"#utility.yul\":6025:6044   */\n      lt\n        /* \"#utility.yul\":6022:6223   */\n      iszero\n      tag_100\n      jumpi\n        /* \"#utility.yul\":6098:6117   */\n      dup7\n      dup5\n      add\n        /* \"#utility.yul\":6092:6118   */\n      mload\n      not(0x00)\n        /* \"#utility.yul\":6181:6182   */\n      0x03\n        /* \"#utility.yul\":6177:6191   */\n      dup8\n      swap1\n      shl\n        /* \"#utility.yul\":6193:6196   */\n      0xf8\n        /* \"#utility.yul\":6173:6197   */\n      and\n        /* \"#utility.yul\":6169:6206   */\n      shr\n        /* \"#utility.yul\":6165:6207   */\n      not\n        /* \"#utility.yul\":6150:6208   */\n      and\n        /* \"#utility.yul\":6135:6209   */\n      dup2\n      sstore\n        /* \"#utility.yul\":6022:6223   */\n    tag_100:\n      pop\n      pop\n      pop\n      pop\n        /* \"#utility.yul\":6269:6270   */\n      0x01\n        /* \"#utility.yul\":6253:6267   */\n      swap1\n      dup2\n      shl\n        /* \"#utility.yul\":6249:6271   */\n      add\n        /* \"#utility.yul\":6236:6272   */\n      swap1\n      sstore\n      pop\n        /* \"#utility.yul\":5240:6539   */\n      jump\t// out\n\n    auxdata: 0xa26469706673582212200c2420b82c0fd295d78853f77f56a3976ea6768c5eca7a3df60ea8df9361f2e664736f6c634300081f0033\n}\n",
				"bytecode": {
					"linkReferences": {},
					"object": "6080604052348015600e575f5ffd5b506106988061001c5f395ff3fe608060405234801561000f575f5ffd5b506004361061003f575f3560e01c8063506b27f0146100435780635daf08ca1461007a578063b184c11e1461009d575b5f5ffd5b610065610051366004610396565b60016020525f908152604090205460ff1681565b60405190151581526020015b60405180910390f35b61008d6100883660046103b6565b6100b2565b60405161007194939291906103cd565b6100b06100ab366004610435565b61017b565b005b5f81815481106100c0575f80fd5b5f91825260209091206004909102018054600182018054919350906100e4906104fe565b80601f0160208091040260200160405190810160405280929190818152602001828054610110906104fe565b801561015b5780601f106101325761010080835404028352916020019161015b565b820191905f5260205f20905b81548152906001019060200180831161013e57829003601f168201915b5050505060028301546003909301549192916001600160a01b0316905084565b5f8351116101d05760405162461bcd60e51b815260206004820152601a60248201527f55736572206e616d652063616e6e6f7420626520656d7074792100000000000060448201526064015b60405180910390fd5b600f82116102205760405162461bcd60e51b815260206004820152601a60248201527f55736572206d757374206265206f6c646572207468616e20313500000000000060448201526064016101c7565b6001600160a01b0381165f9081526001602052604090205460ff161561027b5760405162461bcd60e51b815260206004820152601060248201526f5573657220726567697374657265642160801b60448201526064016101c7565b6001600160a01b0381165f9081526001602081905260408220805460ff19168217905581546102a991610536565b60408051608081018252828152602081018781529181018690526001600160a01b03851660608201525f8054600181018255908052815160049091027f290decd9548b62a8d60345a988386fc84ba6bc95484008f6362f93160ef3e56381019182559251939450909283927f290decd9548b62a8d60345a988386fc84ba6bc95484008f6362f93160ef3e564019061034190826105a7565b5060408201516002820155606090910151600390910180546001600160a01b0319166001600160a01b039092169190911790555050505050565b80356001600160a01b0381168114610391575f5ffd5b919050565b5f602082840312156103a6575f5ffd5b6103af8261037b565b9392505050565b5f602082840312156103c6575f5ffd5b5035919050565b848152608060208201525f8451806080840152806020870160a085015e5f60a082850181019190915260408401959095526001600160a01b0393909316606083015250601f909101601f1916010192915050565b634e487b7160e01b5f52604160045260245ffd5b5f5f5f60608486031215610447575f5ffd5b833567ffffffffffffffff81111561045d575f5ffd5b8401601f8101861361046d575f5ffd5b803567ffffffffffffffff81111561048757610487610421565b604051601f8201601f19908116603f0116810167ffffffffffffffff811182821017156104b6576104b6610421565b6040528181528282016020018810156104cd575f5ffd5b816020840160208301375f6020928201830152945085013592506104f590506040850161037b565b90509250925092565b600181811c9082168061051257607f821691505b60208210810361053057634e487b7160e01b5f52602260045260245ffd5b50919050565b8082018082111561055557634e487b7160e01b5f52601160045260245ffd5b92915050565b601f8211156105a257805f5260205f20601f840160051c810160208510156105805750805b601f840160051c820191505b8181101561059f575f815560010161058c565b50505b505050565b815167ffffffffffffffff8111156105c1576105c1610421565b6105d5816105cf84546104fe565b8461055b565b6020601f821160018114610607575f83156105f05750848201515b5f19600385901b1c1916600184901b17845561059f565b5f84815260208120601f198516915b828110156106365787850151825560209485019460019092019101610616565b508482101561065357868401515f19600387901b60f8161c191681555b50505050600190811b0190555056fea26469706673582212200c2420b82c0fd295d78853f77f56a3976ea6768c5eca7a3df60ea8df9361f2e664736f6c634300081f0033",
					"opcodes": "PUSH1 0x80 PUSH1 0x40 MSTORE CALLVALUE DUP1 ISZERO PUSH1 0xE JUMPI PUSH0 PUSH0 REVERT JUMPDEST POP PUSH2 0x698 DUP1 PUSH2 0x1C PUSH0 CODECOPY PUSH0 RETURN INVALID PUSH1 0x80 PUSH1 0x40 MSTORE CALLVALUE DUP1 ISZERO PUSH2 0xF JUMPI PUSH0 PUSH0 REVERT JUMPDEST POP PUSH1 0x4 CALLDATASIZE LT PUSH2 0x3F JUMPI PUSH0 CALLDATALOAD PUSH1 0xE0 SHR DUP1 PUSH4 0x506B27F0 EQ PUSH2 0x43 JUMPI DUP1 PUSH4 0x5DAF08CA EQ PUSH2 0x7A JUMPI DUP1 PUSH4 0xB184C11E EQ PUSH2 0x9D JUMPI JUMPDEST PUSH0 PUSH0 REVERT JUMPDEST PUSH2 0x65 PUSH2 0x51 CALLDATASIZE PUSH1 0x4 PUSH2 0x396 JUMP JUMPDEST PUSH1 0x1 PUSH1 0x20 MSTORE PUSH0 SWAP1 DUP2 MSTORE PUSH1 0x40 SWAP1 KECCAK256 SLOAD PUSH1 0xFF AND DUP2 JUMP JUMPDEST PUSH1 0x40 MLOAD SWAP1 ISZERO ISZERO DUP2 MSTORE PUSH1 0x20 ADD JUMPDEST PUSH1 0x40 MLOAD DUP1 SWAP2 SUB SWAP1 RETURN JUMPDEST PUSH2 0x8D PUSH2 0x88 CALLDATASIZE PUSH1 0x4 PUSH2 0x3B6 JUMP JUMPDEST PUSH2 0xB2 JUMP JUMPDEST PUSH1 0x40 MLOAD PUSH2 0x71 SWAP5 SWAP4 SWAP3 SWAP2 SWAP1 PUSH2 0x3CD JUMP JUMPDEST PUSH2 0xB0 PUSH2 0xAB CALLDATASIZE PUSH1 0x4 PUSH2 0x435 JUMP JUMPDEST PUSH2 0x17B JUMP JUMPDEST STOP JUMPDEST PUSH0 DUP2 DUP2 SLOAD DUP2 LT PUSH2 0xC0 JUMPI PUSH0 DUP1 REVERT JUMPDEST PUSH0 SWAP2 DUP3 MSTORE PUSH1 0x20 SWAP1 SWAP2 KECCAK256 PUSH1 0x4 SWAP1 SWAP2 MUL ADD DUP1 SLOAD PUSH1 0x1 DUP3 ADD DUP1 SLOAD SWAP2 SWAP4 POP SWAP1 PUSH2 0xE4 SWAP1 PUSH2 0x4FE JUMP JUMPDEST DUP1 PUSH1 0x1F ADD PUSH1 0x20 DUP1 SWAP2 DIV MUL PUSH1 0x20 ADD PUSH1 0x40 MLOAD SWAP1 DUP2 ADD PUSH1 0x40 MSTORE DUP1 SWAP3 SWAP2 SWAP1 DUP2 DUP2 MSTORE PUSH1 0x20 ADD DUP3 DUP1 SLOAD PUSH2 0x110 SWAP1 PUSH2 0x4FE JUMP JUMPDEST DUP1 ISZERO PUSH2 0x15B JUMPI DUP1 PUSH1 0x1F LT PUSH2 0x132 JUMPI PUSH2 0x100 DUP1 DUP4 SLOAD DIV MUL DUP4 MSTORE SWAP2 PUSH1 0x20 ADD SWAP2 PUSH2 0x15B JUMP JUMPDEST DUP3 ADD SWAP2 SWAP1 PUSH0 MSTORE PUSH1 0x20 PUSH0 KECCAK256 SWAP1 JUMPDEST DUP2 SLOAD DUP2 MSTORE SWAP1 PUSH1 0x1 ADD SWAP1 PUSH1 0x20 ADD DUP1 DUP4 GT PUSH2 0x13E JUMPI DUP3 SWAP1 SUB PUSH1 0x1F AND DUP3 ADD SWAP2 JUMPDEST POP POP POP POP PUSH1 0x2 DUP4 ADD SLOAD PUSH1 0x3 SWAP1 SWAP4 ADD SLOAD SWAP2 SWAP3 SWAP2 PUSH1 0x1 PUSH1 0x1 PUSH1 0xA0 SHL SUB AND SWAP1 POP DUP5 JUMP JUMPDEST PUSH0 DUP4 MLOAD GT PUSH2 0x1D0 JUMPI PUSH1 0x40 MLOAD PUSH3 0x461BCD PUSH1 0xE5 SHL DUP2 MSTORE PUSH1 0x20 PUSH1 0x4 DUP3 ADD MSTORE PUSH1 0x1A PUSH1 0x24 DUP3 ADD MSTORE PUSH32 0x55736572206E616D652063616E6E6F7420626520656D70747921000000000000 PUSH1 0x44 DUP3 ADD MSTORE PUSH1 0x64 ADD JUMPDEST PUSH1 0x40 MLOAD DUP1 SWAP2 SUB SWAP1 REVERT JUMPDEST PUSH1 0xF DUP3 GT PUSH2 0x220 JUMPI PUSH1 0x40 MLOAD PUSH3 0x461BCD PUSH1 0xE5 SHL DUP2 MSTORE PUSH1 0x20 PUSH1 0x4 DUP3 ADD MSTORE PUSH1 0x1A PUSH1 0x24 DUP3 ADD MSTORE PUSH32 0x55736572206D757374206265206F6C646572207468616E203135000000000000 PUSH1 0x44 DUP3 ADD MSTORE PUSH1 0x64 ADD PUSH2 0x1C7 JUMP JUMPDEST PUSH1 0x1 PUSH1 0x1 PUSH1 0xA0 SHL SUB DUP2 AND PUSH0 SWAP1 DUP2 MSTORE PUSH1 0x1 PUSH1 0x20 MSTORE PUSH1 0x40 SWAP1 KECCAK256 SLOAD PUSH1 0xFF AND ISZERO PUSH2 0x27B JUMPI PUSH1 0x40 MLOAD PUSH3 0x461BCD PUSH1 0xE5 SHL DUP2 MSTORE PUSH1 0x20 PUSH1 0x4 DUP3 ADD MSTORE PUSH1 0x10 PUSH1 0x24 DUP3 ADD MSTORE PUSH16 0x55736572207265676973746572656421 PUSH1 0x80 SHL PUSH1 0x44 DUP3 ADD MSTORE PUSH1 0x64 ADD PUSH2 0x1C7 JUMP JUMPDEST PUSH1 0x1 PUSH1 0x1 PUSH1 0xA0 SHL SUB DUP2 AND PUSH0 SWAP1 DUP2 MSTORE PUSH1 0x1 PUSH1 0x20 DUP2 SWAP1 MSTORE PUSH1 0x40 DUP3 KECCAK256 DUP1 SLOAD PUSH1 0xFF NOT AND DUP3 OR SWAP1 SSTORE DUP2 SLOAD PUSH2 0x2A9 SWAP2 PUSH2 0x536 JUMP JUMPDEST PUSH1 0x40 DUP1 MLOAD PUSH1 0x80 DUP2 ADD DUP3 MSTORE DUP3 DUP2 MSTORE PUSH1 0x20 DUP2 ADD DUP8 DUP2 MSTORE SWAP2 DUP2 ADD DUP7 SWAP1 MSTORE PUSH1 0x1 PUSH1 0x1 PUSH1 0xA0 SHL SUB DUP6 AND PUSH1 0x60 DUP3 ADD MSTORE PUSH0 DUP1 SLOAD PUSH1 0x1 DUP2 ADD DUP3 SSTORE SWAP1 DUP1 MSTORE DUP2 MLOAD PUSH1 0x4 SWAP1 SWAP2 MUL PUSH32 0x290DECD9548B62A8D60345A988386FC84BA6BC95484008F6362F93160EF3E563 DUP2 ADD SWAP2 DUP3 SSTORE SWAP3 MLOAD SWAP4 SWAP5 POP SWAP1 SWAP3 DUP4 SWAP3 PUSH32 0x290DECD9548B62A8D60345A988386FC84BA6BC95484008F6362F93160EF3E564 ADD SWAP1 PUSH2 0x341 SWAP1 DUP3 PUSH2 0x5A7 JUMP JUMPDEST POP PUSH1 0x40 DUP3 ADD MLOAD PUSH1 0x2 DUP3 ADD SSTORE PUSH1 0x60 SWAP1 SWAP2 ADD MLOAD PUSH1 0x3 SWAP1 SWAP2 ADD DUP1 SLOAD PUSH1 0x1 PUSH1 0x1 PUSH1 0xA0 SHL SUB NOT AND PUSH1 0x1 PUSH1 0x1 PUSH1 0xA0 SHL SUB SWAP1 SWAP3 AND SWAP2 SWAP1 SWAP2 OR SWAP1 SSTORE POP POP POP POP POP JUMP JUMPDEST DUP1 CALLDATALOAD PUSH1 0x1 PUSH1 0x1 PUSH1 0xA0 SHL SUB DUP2 AND DUP2 EQ PUSH2 0x391 JUMPI PUSH0 PUSH0 REVERT JUMPDEST SWAP2 SWAP1 POP JUMP JUMPDEST PUSH0 PUSH1 0x20 DUP3 DUP5 SUB SLT ISZERO PUSH2 0x3A6 JUMPI PUSH0 PUSH0 REVERT JUMPDEST PUSH2 0x3AF DUP3 PUSH2 0x37B JUMP JUMPDEST SWAP4 SWAP3 POP POP POP JUMP JUMPDEST PUSH0 PUSH1 0x20 DUP3 DUP5 SUB SLT ISZERO PUSH2 0x3C6 JUMPI PUSH0 PUSH0 REVERT JUMPDEST POP CALLDATALOAD SWAP2 SWAP1 POP JUMP JUMPDEST DUP5 DUP2 MSTORE PUSH1 0x80 PUSH1 0x20 DUP3 ADD MSTORE PUSH0 DUP5 MLOAD DUP1 PUSH1 0x80 DUP5 ADD MSTORE DUP1 PUSH1 0x20 DUP8 ADD PUSH1 0xA0 DUP6 ADD MCOPY PUSH0 PUSH1 0xA0 DUP3 DUP6 ADD DUP2 ADD SWAP2 SWAP1 SWAP2 MSTORE PUSH1 0x40 DUP5 ADD SWAP6 SWAP1 SWAP6 MSTORE PUSH1 0x1 PUSH1 0x1 PUSH1 0xA0 SHL SUB SWAP4 SWAP1 SWAP4 AND PUSH1 0x60 DUP4 ADD MSTORE POP PUSH1 0x1F SWAP1 SWAP2 ADD PUSH1 0x1F NOT AND ADD ADD SWAP3 SWAP2 POP POP JUMP JUMPDEST PUSH4 0x4E487B71 PUSH1 0xE0 SHL PUSH0 MSTORE PUSH1 0x41 PUSH1 0x4 MSTORE PUSH1 0x24 PUSH0 REVERT JUMPDEST PUSH0 PUSH0 PUSH0 PUSH1 0x60 DUP5 DUP7 SUB SLT ISZERO PUSH2 0x447 JUMPI PUSH0 PUSH0 REVERT JUMPDEST DUP4 CALLDATALOAD PUSH8 0xFFFFFFFFFFFFFFFF DUP2 GT ISZERO PUSH2 0x45D JUMPI PUSH0 PUSH0 REVERT JUMPDEST DUP5 ADD PUSH1 0x1F DUP2 ADD DUP7 SGT PUSH2 0x46D JUMPI PUSH0 PUSH0 REVERT JUMPDEST DUP1 CALLDATALOAD PUSH8 0xFFFFFFFFFFFFFFFF DUP2 GT ISZERO PUSH2 0x487 JUMPI PUSH2 0x487 PUSH2 0x421 JUMP JUMPDEST PUSH1 0x40 MLOAD PUSH1 0x1F DUP3 ADD PUSH1 0x1F NOT SWAP1 DUP2 AND PUSH1 0x3F ADD AND DUP2 ADD PUSH8 0xFFFFFFFFFFFFFFFF DUP2 GT DUP3 DUP3 LT OR ISZERO PUSH2 0x4B6 JUMPI PUSH2 0x4B6 PUSH2 0x421 JUMP JUMPDEST PUSH1 0x40 MSTORE DUP2 DUP2 MSTORE DUP3 DUP3 ADD PUSH1 0x20 ADD DUP9 LT ISZERO PUSH2 0x4CD JUMPI PUSH0 PUSH0 REVERT JUMPDEST DUP2 PUSH1 0x20 DUP5 ADD PUSH1 0x20 DUP4 ADD CALLDATACOPY PUSH0 PUSH1 0x20 SWAP3 DUP3 ADD DUP4 ADD MSTORE SWAP5 POP DUP6 ADD CALLDATALOAD SWAP3 POP PUSH2 0x4F5 SWAP1 POP PUSH1 0x40 DUP6 ADD PUSH2 0x37B JUMP JUMPDEST SWAP1 POP SWAP3 POP SWAP3 POP SWAP3 JUMP JUMPDEST PUSH1 0x1 DUP2 DUP2 SHR SWAP1 DUP3 AND DUP1 PUSH2 0x512 JUMPI PUSH1 0x7F DUP3 AND SWAP2 POP JUMPDEST PUSH1 0x20 DUP3 LT DUP2 SUB PUSH2 0x530 JUMPI PUSH4 0x4E487B71 PUSH1 0xE0 SHL PUSH0 MSTORE PUSH1 0x22 PUSH1 0x4 MSTORE PUSH1 0x24 PUSH0 REVERT JUMPDEST POP SWAP2 SWAP1 POP JUMP JUMPDEST DUP1 DUP3 ADD DUP1 DUP3 GT ISZERO PUSH2 0x555 JUMPI PUSH4 0x4E487B71 PUSH1 0xE0 SHL PUSH0 MSTORE PUSH1 0x11 PUSH1 0x4 MSTORE PUSH1 0x24 PUSH0 REVERT JUMPDEST SWAP3 SWAP2 POP POP JUMP JUMPDEST PUSH1 0x1F DUP3 GT ISZERO PUSH2 0x5A2 JUMPI DUP1 PUSH0 MSTORE PUSH1 0x20 PUSH0 KECCAK256 PUSH1 0x1F DUP5 ADD PUSH1 0x5 SHR DUP2 ADD PUSH1 0x20 DUP6 LT ISZERO PUSH2 0x580 JUMPI POP DUP1 JUMPDEST PUSH1 0x1F DUP5 ADD PUSH1 0x5 SHR DUP3 ADD SWAP2 POP JUMPDEST DUP2 DUP2 LT ISZERO PUSH2 0x59F JUMPI PUSH0 DUP2 SSTORE PUSH1 0x1 ADD PUSH2 0x58C JUMP JUMPDEST POP POP JUMPDEST POP POP POP JUMP JUMPDEST DUP2 MLOAD PUSH8 0xFFFFFFFFFFFFFFFF DUP2 GT ISZERO PUSH2 0x5C1 JUMPI PUSH2 0x5C1 PUSH2 0x421 JUMP JUMPDEST PUSH2 0x5D5 DUP2 PUSH2 0x5CF DUP5 SLOAD PUSH2 0x4FE JUMP JUMPDEST DUP5 PUSH2 0x55B JUMP JUMPDEST PUSH1 0x20 PUSH1 0x1F DUP3 GT PUSH1 0x1 DUP2 EQ PUSH2 0x607 JUMPI PUSH0 DUP4 ISZERO PUSH2 0x5F0 JUMPI POP DUP5 DUP3 ADD MLOAD JUMPDEST PUSH0 NOT PUSH1 0x3 DUP6 SWAP1 SHL SHR NOT AND PUSH1 0x1 DUP5 SWAP1 SHL OR DUP5 SSTORE PUSH2 0x59F JUMP JUMPDEST PUSH0 DUP5 DUP2 MSTORE PUSH1 0x20 DUP2 KECCAK256 PUSH1 0x1F NOT DUP6 AND SWAP2 JUMPDEST DUP3 DUP2 LT ISZERO PUSH2 0x636 JUMPI DUP8 DUP6 ADD MLOAD DUP3 SSTORE PUSH1 0x20 SWAP5 DUP6 ADD SWAP5 PUSH1 0x1 SWAP1 SWAP3 ADD SWAP2 ADD PUSH2 0x616 JUMP JUMPDEST POP DUP5 DUP3 LT ISZERO PUSH2 0x653 JUMPI DUP7 DUP5 ADD MLOAD PUSH0 NOT PUSH1 0x3 DUP8 SWAP1 SHL PUSH1 0xF8 AND SHR NOT AND DUP2 SSTORE JUMPDEST POP POP POP POP PUSH1 0x1 SWAP1 DUP2 SHL ADD SWAP1 SSTORE POP JUMP INVALID LOG2 PUSH5 0x6970667358 0x22 SLT KECCAK256 0xC 0x24 KECCAK256 0xB8 0x2C 0xF 0xD2 SWAP6 0xD7 DUP9 MSTORE8 0xF7 PUSH32 0x56A3976EA6768C5ECA7A3DF60EA8DF9361F2E664736F6C634300081F00330000 "
				},
				"gasEstimates": {
					"creation": {
						"codeDepositCost": "337600",
						"executionCost": "372",
						"totalCost": "337972"
					},
					"external": {
						"memberExist(address)": "2495",
						"members(uint256)": "infinite",
						"registerMember(string,uint256,address)": "infinite"
					}
				},
				"methodIdentifiers": {
					"memberExist(address)": "506b27f0",
					"members(uint256)": "5daf08ca",
					"registerMember(string,uint256,address)": "b184c11e"
				}
			},
			"storageLayout": {
				"storage": [
					{
						"astId": 714,
						"contract": "Member.sol:MemberContract",
						"label": "members",
						"offset": 0,
						"slot": "0",
						"type": "t_array(t_struct(Member)710_storage)dyn_storage"
					},
					{
						"astId": 718,
						"contract": "Member.sol:MemberContract",
						"label": "memberExist",
						"offset": 0,
						"slot": "1",
						"type": "t_mapping(t_address,t_bool)"
					}
				],
				"types": {
					"t_address": {
						"encoding": "inplace",
						"label": "address",
						"numberOfBytes": "20"
					},
					"t_array(t_struct(Member)710_storage)dyn_storage": {
						"base": "t_struct(Member)710_storage",
						"encoding": "dynamic_array",
						"label": "struct MemberContract.Member[]",
						"numberOfBytes": "32"
					},
					"t_bool": {
						"encoding": "inplace",
						"label": "bool",
						"numberOfBytes": "1"
					},
					"t_mapping(t_address,t_bool)": {
						"encoding": "mapping",
						"key": "t_address",
						"label": "mapping(address => bool)",
						"numberOfBytes": "32",
						"value": "t_bool"
					},
					"t_string_storage": {
						"encoding": "bytes",
						"label": "string",
						"numberOfBytes": "32"
					},
					"t_struct(Member)710_storage": {
						"encoding": "inplace",
						"label": "struct MemberContract.Member",
						"members": [
							{
								"astId": 703,
								"contract": "Member.sol:MemberContract",
								"label": "ID",
								"offset": 0,
								"slot": "0",
								"type": "t_uint256"
							},
							{
								"astId": 705,
								"contract": "Member.sol:MemberContract",
								"label": "name",
								"offset": 0,
								"slot": "1",
								"type": "t_string_storage"
							},
							{
								"astId": 707,
								"contract": "Member.sol:MemberContract",
								"label": "age",
								"offset": 0,
								"slot": "2",
								"type": "t_uint256"
							},
							{
								"astId": 709,
								"contract": "Member.sol:MemberContract",
								"label": "wallet",
								"offset": 0,
								"slot": "3",
								"type": "t_address"
							}
						],
						"numberOfBytes": "128"
					},
					"t_uint256": {
						"encoding": "inplace",
						"label": "uint256",
						"numberOfBytes": "32"
					}
				}
			},
			"userdoc": {
				"kind": "user",
				"methods": {},
				"version": 1
			}
		}
	}
}