{
	"Book.sol": {
		"BookContract": {
			"abi": [
				{
					"inputs": [
						{
							"internalType": "address",
							"name": "_memberContract",
							"type": "address"
						},
						{
							"internalType": "address payable",
							"name": "_libraryAdmin",
							"type": "address"
						}
					],
					"stateMutability": "nonpayable",
					"type": "constructor"
				},
				{
					"inputs": [
						{
							"internalType": "string",
							"name": "_title",
							"type": "string"
						},
						{
							"internalType": "string",
							"name": "_author",
							"type": "string"
						},
						{
							"internalType": "string",
							"name": "_genre",
							"type": "string"
						},
						{
							"internalType": "uint256",
							"name": "_quantity",
							"type": "uint256"
						},
						{
							"internalType": "uint256",
							"name": "_price",
							"type": "uint256"
						},
						{
							"internalType": "uint256",
							"name": "_borrowFee",
							"type": "uint256"
						}
					],
					"name": "addBook",
					"outputs": [],
					"stateMutability": "nonpayable",
					"type": "function"
				},
				{
					"inputs": [
						{
							"internalType": "uint256",
							"name": "",
							"type": "uint256"
						}
					],
					"name": "bookIds",
					"outputs": [
						{
							"internalType": "uint256",
							"name": "",
							"type": "uint256"
						}
					],
					"stateMutability": "view",
					"type": "function"
				},
				{
					"inputs": [
						{
							"internalType": "uint256",
							"name": "",
							"type": "uint256"
						}
					],
					"name": "books",
					"outputs": [
						{
							"internalType": "uint256",
							"name": "ID",
							"type": "uint256"
						},
						{
							"internalType": "string",
							"name": "title",
							"type": "string"
						},
						{
							"internalType": "string",
							"name": "author",
							"type": "string"
						},
						{
							"internalType": "string",
							"name": "genre",
							"type": "string"
						},
						{
							"internalType": "uint256",
							"name": "quantity",
							"type": "uint256"
						},
						{
							"internalType": "uint256",
							"name": "price",
							"type": "uint256"
						},
						{
							"internalType": "uint256",
							"name": "borrowFee",
							"type": "uint256"
						},
						{
							"internalType": "bool",
							"name": "exists",
							"type": "bool"
						},
						{
							"internalType": "uint256",
							"name": "date",
							"type": "uint256"
						}
					],
					"stateMutability": "view",
					"type": "function"
				},
				{
					"inputs": [
						{
							"internalType": "uint256",
							"name": "_ID",
							"type": "uint256"
						}
					],
					"name": "borrowBook",
					"outputs": [],
					"stateMutability": "payable",
					"type": "function"
				},
				{
					"inputs": [
						{
							"internalType": "uint256",
							"name": "",
							"type": "uint256"
						},
						{
							"internalType": "uint256",
							"name": "",
							"type": "uint256"
						}
					],
					"name": "borrowedHistory",
					"outputs": [
						{
							"internalType": "address",
							"name": "",
							"type": "address"
						}
					],
					"stateMutability": "view",
					"type": "function"
				},
				{
					"inputs": [],
					"name": "buyBook",
					"outputs": [],
					"stateMutability": "payable",
					"type": "function"
				},
				{
					"inputs": [
						{
							"internalType": "uint256",
							"name": "_ID",
							"type": "uint256"
						}
					],
					"name": "getBookById",
					"outputs": [
						{
							"components": [
								{
									"internalType": "uint256",
									"name": "ID",
									"type": "uint256"
								},
								{
									"internalType": "string",
									"name": "title",
									"type": "string"
								},
								{
									"internalType": "string",
									"name": "author",
									"type": "string"
								},
								{
									"internalType": "string",
									"name": "genre",
									"type": "string"
								},
								{
									"internalType": "uint256",
									"name": "quantity",
									"type": "uint256"
								},
								{
									"internalType": "uint256",
									"name": "price",
									"type": "uint256"
								},
								{
									"internalType": "uint256",
									"name": "borrowFee",
									"type": "uint256"
								},
								{
									"internalType": "bool",
									"name": "exists",
									"type": "bool"
								},
								{
									"internalType": "uint256",
									"name": "date",
									"type": "uint256"
								}
							],
							"internalType": "struct BookContract.Book",
							"name": "",
							"type": "tuple"
						}
					],
					"stateMutability": "view",
					"type": "function"
				},
				{
					"inputs": [],
					"name": "getBooks",
					"outputs": [
						{
							"components": [
								{
									"internalType": "uint256",
									"name": "ID",
									"type": "uint256"
								},
								{
									"internalType": "string",
									"name": "title",
									"type": "string"
								},
								{
									"internalType": "string",
									"name": "author",
									"type": "string"
								},
								{
									"internalType": "string",
									"name": "genre",
									"type": "string"
								},
								{
									"internalType": "uint256",
									"name": "quantity",
									"type": "uint256"
								},
								{
									"internalType": "uint256",
									"name": "price",
									"type": "uint256"
								},
								{
									"internalType": "uint256",
									"name": "borrowFee",
									"type": "uint256"
								},
								{
									"internalType": "bool",
									"name": "exists",
									"type": "bool"
								},
								{
									"internalType": "uint256",
									"name": "date",
									"type": "uint256"
								}
							],
							"internalType": "struct BookContract.Book[]",
							"name": "",
							"type": "tuple[]"
						}
					],
					"stateMutability": "view",
					"type": "function"
				},
				{
					"inputs": [],
					"name": "libraryAdmin",
					"outputs": [
						{
							"internalType": "address payable",
							"name": "",
							"type": "address"
						}
					],
					"stateMutability": "view",
					"type": "function"
				},
				{
					"inputs": [
						{
							"internalType": "uint256",
							"name": "",
							"type": "uint256"
						}
					],
					"name": "listOfBooks",
					"outputs": [
						{
							"internalType": "uint256",
							"name": "ID",
							"type": "uint256"
						},
						{
							"internalType": "string",
							"name": "title",
							"type": "string"
						},
						{
							"internalType": "string",
							"name": "author",
							"type": "string"
						},
						{
							"internalType": "string",
							"name": "genre",
							"type": "string"
						},
						{
							"internalType": "uint256",
							"name": "quantity",
							"type": "uint256"
						},
						{
							"internalType": "uint256",
							"name": "price",
							"type": "uint256"
						},
						{
							"internalType": "uint256",
							"name": "borrowFee",
							"type": "uint256"
						},
						{
							"internalType": "bool",
							"name": "exists",
							"type": "bool"
						},
						{
							"internalType": "uint256",
							"name": "date",
							"type": "uint256"
						}
					],
					"stateMutability": "view",
					"type": "function"
				},
				{
					"inputs": [],
					"name": "memberContract",
					"outputs": [
						{
							"internalType": "contract MemberContract",
							"name": "",
							"type": "address"
						}
					],
					"stateMutability": "view",
					"type": "function"
				},
				{
					"inputs": [
						{
							"internalType": "uint256",
							"name": "_ID",
							"type": "uint256"
						},
						{
							"internalType": "uint256",
							"name": "_quantity",
							"type": "uint256"
						}
					],
					"name": "restock",
					"outputs": [],
					"stateMutability": "nonpayable",
					"type": "function"
				}
			],
			"devdoc": {
				"kind": "dev",
				"methods": {},
				"version": 1
			},
			"evm": {
				"assembly": "    /* \"Book.sol\":105:3640  contract BookContract {... */\n  mstore(0x40, 0x80)\n    /* \"Book.sol\":857:1028  constructor(address _memberContract, address payable _libraryAdmin) {... */\n  callvalue\n  dup1\n  iszero\n  tag_1\n  jumpi\n  revert(0x00, 0x00)\ntag_1:\n  pop\n  mload(0x40)\n  sub(codesize, bytecodeSize)\n  dup1\n  bytecodeSize\n  dup4\n  codecopy\n  dup2\n  dup2\n  add\n  0x40\n  mstore\n  dup2\n  add\n  swap1\n  tag_2\n  swap2\n  swap1\n  tag_3\n  jump\t// in\ntag_2:\n    /* \"Book.sol\":967:982  _memberContract */\n  dup2\n    /* \"Book.sol\":935:949  memberContract */\n  0x00\n  0x00\n    /* \"Book.sol\":935:983  memberContract = MemberContract(_memberContract) */\n  0x0100\n  exp\n  dup2\n  sload\n  dup2\n  0xffffffffffffffffffffffffffffffffffffffff\n  mul\n  not\n  and\n  swap1\n  dup4\n  0xffffffffffffffffffffffffffffffffffffffff\n  and\n  mul\n  or\n  swap1\n  sstore\n  pop\n    /* \"Book.sol\":1008:1021  _libraryAdmin */\n  dup1\n    /* \"Book.sol\":993:1005  libraryAdmin */\n  0x01\n  0x00\n    /* \"Book.sol\":993:1021  libraryAdmin = _libraryAdmin */\n  0x0100\n  exp\n  dup2\n  sload\n  dup2\n  0xffffffffffffffffffffffffffffffffffffffff\n  mul\n  not\n  and\n  swap1\n  dup4\n  0xffffffffffffffffffffffffffffffffffffffff\n  and\n  mul\n  or\n  swap1\n  sstore\n  pop\n    /* \"Book.sol\":857:1028  constructor(address _memberContract, address payable _libraryAdmin) {... */\n  pop\n  pop\n    /* \"Book.sol\":105:3640  contract BookContract {... */\n  jump(tag_6)\n    /* \"#utility.yul\":88:205   */\ntag_8:\n    /* \"#utility.yul\":197:198   */\n  0x00\n    /* \"#utility.yul\":194:195   */\n  0x00\n    /* \"#utility.yul\":187:199   */\n  revert\n    /* \"#utility.yul\":334:460   */\ntag_10:\n    /* \"#utility.yul\":371:378   */\n  0x00\n    /* \"#utility.yul\":411:453   */\n  0xffffffffffffffffffffffffffffffffffffffff\n    /* \"#utility.yul\":404:409   */\n  dup3\n    /* \"#utility.yul\":400:454   */\n  and\n    /* \"#utility.yul\":389:454   */\n  swap1\n  pop\n    /* \"#utility.yul\":334:460   */\n  swap2\n  swap1\n  pop\n  jump\t// out\n    /* \"#utility.yul\":466:562   */\ntag_11:\n    /* \"#utility.yul\":503:510   */\n  0x00\n    /* \"#utility.yul\":532:556   */\n  tag_23\n    /* \"#utility.yul\":550:555   */\n  dup3\n    /* \"#utility.yul\":532:556   */\n  tag_10\n  jump\t// in\ntag_23:\n    /* \"#utility.yul\":521:556   */\n  swap1\n  pop\n    /* \"#utility.yul\":466:562   */\n  swap2\n  swap1\n  pop\n  jump\t// out\n    /* \"#utility.yul\":568:690   */\ntag_12:\n    /* \"#utility.yul\":641:665   */\n  tag_25\n    /* \"#utility.yul\":659:664   */\n  dup2\n    /* \"#utility.yul\":641:665   */\n  tag_11\n  jump\t// in\ntag_25:\n    /* \"#utility.yul\":634:639   */\n  dup2\n    /* \"#utility.yul\":631:666   */\n  eq\n    /* \"#utility.yul\":621:684   */\n  tag_26\n  jumpi\n    /* \"#utility.yul\":680:681   */\n  0x00\n    /* \"#utility.yul\":677:678   */\n  0x00\n    /* \"#utility.yul\":670:682   */\n  revert\n    /* \"#utility.yul\":621:684   */\ntag_26:\n    /* \"#utility.yul\":568:690   */\n  pop\n  jump\t// out\n    /* \"#utility.yul\":696:839   */\ntag_13:\n    /* \"#utility.yul\":753:758   */\n  0x00\n    /* \"#utility.yul\":784:790   */\n  dup2\n    /* \"#utility.yul\":778:791   */\n  mload\n    /* \"#utility.yul\":769:791   */\n  swap1\n  pop\n    /* \"#utility.yul\":800:833   */\n  tag_28\n    /* \"#utility.yul\":827:832   */\n  dup2\n    /* \"#utility.yul\":800:833   */\n  tag_12\n  jump\t// in\ntag_28:\n    /* \"#utility.yul\":696:839   */\n  swap3\n  swap2\n  pop\n  pop\n  jump\t// out\n    /* \"#utility.yul\":845:949   */\ntag_14:\n    /* \"#utility.yul\":890:897   */\n  0x00\n    /* \"#utility.yul\":919:943   */\n  tag_30\n    /* \"#utility.yul\":937:942   */\n  dup3\n    /* \"#utility.yul\":919:943   */\n  tag_10\n  jump\t// in\ntag_30:\n    /* \"#utility.yul\":908:943   */\n  swap1\n  pop\n    /* \"#utility.yul\":845:949   */\n  swap2\n  swap1\n  pop\n  jump\t// out\n    /* \"#utility.yul\":955:1093   */\ntag_15:\n    /* \"#utility.yul\":1036:1068   */\n  tag_32\n    /* \"#utility.yul\":1062:1067   */\n  dup2\n    /* \"#utility.yul\":1036:1068   */\n  tag_14\n  jump\t// in\ntag_32:\n    /* \"#utility.yul\":1029:1034   */\n  dup2\n    /* \"#utility.yul\":1026:1069   */\n  eq\n    /* \"#utility.yul\":1016:1087   */\n  tag_33\n  jumpi\n    /* \"#utility.yul\":1083:1084   */\n  0x00\n    /* \"#utility.yul\":1080:1081   */\n  0x00\n    /* \"#utility.yul\":1073:1085   */\n  revert\n    /* \"#utility.yul\":1016:1087   */\ntag_33:\n    /* \"#utility.yul\":955:1093   */\n  pop\n  jump\t// out\n    /* \"#utility.yul\":1099:1258   */\ntag_16:\n    /* \"#utility.yul\":1164:1169   */\n  0x00\n    /* \"#utility.yul\":1195:1201   */\n  dup2\n    /* \"#utility.yul\":1189:1202   */\n  mload\n    /* \"#utility.yul\":1180:1202   */\n  swap1\n  pop\n    /* \"#utility.yul\":1211:1252   */\n  tag_35\n    /* \"#utility.yul\":1246:1251   */\n  dup2\n    /* \"#utility.yul\":1211:1252   */\n  tag_15\n  jump\t// in\ntag_35:\n    /* \"#utility.yul\":1099:1258   */\n  swap3\n  swap2\n  pop\n  pop\n  jump\t// out\n    /* \"#utility.yul\":1264:1787   */\ntag_3:\n    /* \"#utility.yul\":1351:1357   */\n  0x00\n    /* \"#utility.yul\":1359:1365   */\n  0x00\n    /* \"#utility.yul\":1408:1410   */\n  0x40\n    /* \"#utility.yul\":1396:1405   */\n  dup4\n    /* \"#utility.yul\":1387:1394   */\n  dup6\n    /* \"#utility.yul\":1383:1406   */\n  sub\n    /* \"#utility.yul\":1379:1411   */\n  slt\n    /* \"#utility.yul\":1376:1495   */\n  iszero\n  tag_37\n  jumpi\n    /* \"#utility.yul\":1414:1493   */\n  tag_38\n  tag_8\n  jump\t// in\ntag_38:\n    /* \"#utility.yul\":1376:1495   */\ntag_37:\n    /* \"#utility.yul\":1534:1535   */\n  0x00\n    /* \"#utility.yul\":1559:1623   */\n  tag_39\n    /* \"#utility.yul\":1615:1622   */\n  dup6\n    /* \"#utility.yul\":1606:1612   */\n  dup3\n    /* \"#utility.yul\":1595:1604   */\n  dup7\n    /* \"#utility.yul\":1591:1613   */\n  add\n    /* \"#utility.yul\":1559:1623   */\n  tag_13\n  jump\t// in\ntag_39:\n    /* \"#utility.yul\":1549:1623   */\n  swap3\n  pop\n    /* \"#utility.yul\":1505:1633   */\n  pop\n    /* \"#utility.yul\":1672:1674   */\n  0x20\n    /* \"#utility.yul\":1698:1770   */\n  tag_40\n    /* \"#utility.yul\":1762:1769   */\n  dup6\n    /* \"#utility.yul\":1753:1759   */\n  dup3\n    /* \"#utility.yul\":1742:1751   */\n  dup7\n    /* \"#utility.yul\":1738:1760   */\n  add\n    /* \"#utility.yul\":1698:1770   */\n  tag_16\n  jump\t// in\ntag_40:\n    /* \"#utility.yul\":1688:1770   */\n  swap2\n  pop\n    /* \"#utility.yul\":1643:1780   */\n  pop\n    /* \"#utility.yul\":1264:1787   */\n  swap3\n  pop\n  swap3\n  swap1\n  pop\n  jump\t// out\n    /* \"Book.sol\":105:3640  contract BookContract {... */\ntag_6:\n  dataSize(sub_0)\n  dup1\n  dataOffset(sub_0)\n  0x00\n  codecopy\n  0x00\n  return\nstop\n\nsub_0: assembly {\n        /* \"Book.sol\":105:3640  contract BookContract {... */\n      mstore(0x40, 0x80)\n      jumpi(tag_1, lt(calldatasize, 0x04))\n      shr(0xe0, calldataload(0x00))\n      dup1\n      0x7e490a9e\n      gt\n      tag_14\n      jumpi\n      dup1\n      0x7e490a9e\n      eq\n      tag_8\n      jumpi\n      dup1\n      0x9f349789\n      eq\n      tag_9\n      jumpi\n      dup1\n      0xa1ef3577\n      eq\n      tag_10\n      jumpi\n      dup1\n      0xa9d00e66\n      eq\n      tag_11\n      jumpi\n      dup1\n      0xc40cf4eb\n      eq\n      tag_12\n      jumpi\n      dup1\n      0xddd5987f\n      eq\n      tag_13\n      jumpi\n      jump(tag_1)\n    tag_14:\n      dup1\n      0x1792a6da\n      eq\n      tag_2\n      jumpi\n      dup1\n      0x189a55e7\n      eq\n      tag_3\n      jumpi\n      dup1\n      0x3088c00f\n      eq\n      tag_4\n      jumpi\n      dup1\n      0x418b79ab\n      eq\n      tag_5\n      jumpi\n      dup1\n      0x513073b8\n      eq\n      tag_6\n      jumpi\n      dup1\n      0x68744046\n      eq\n      tag_7\n      jumpi\n    tag_1:\n      revert(0x00, 0x00)\n        /* \"Book.sol\":472:507  address payable public libraryAdmin */\n    tag_2:\n      callvalue\n      dup1\n      iszero\n      tag_15\n      jumpi\n      revert(0x00, 0x00)\n    tag_15:\n      pop\n      tag_16\n      tag_17\n      jump\t// in\n    tag_16:\n      mload(0x40)\n      tag_18\n      swap2\n      swap1\n      tag_19\n      jump\t// in\n    tag_18:\n      mload(0x40)\n      dup1\n      swap2\n      sub\n      swap1\n      return\n        /* \"Book.sol\":3602:3638  function buyBook() public payable {} */\n    tag_3:\n      tag_20\n      tag_21\n      jump\t// in\n    tag_20:\n      stop\n        /* \"Book.sol\":544:569  Book[] public listOfBooks */\n    tag_4:\n      callvalue\n      dup1\n      iszero\n      tag_22\n      jumpi\n      revert(0x00, 0x00)\n    tag_22:\n      pop\n      tag_23\n      0x04\n      dup1\n      calldatasize\n      sub\n      dup2\n      add\n      swap1\n      tag_24\n      swap2\n      swap1\n      tag_25\n      jump\t// in\n    tag_24:\n      tag_26\n      jump\t// in\n    tag_23:\n      mload(0x40)\n      tag_27\n      swap10\n      swap9\n      swap8\n      swap7\n      swap6\n      swap5\n      swap4\n      swap3\n      swap2\n      swap1\n      tag_28\n      jump\t// in\n    tag_27:\n      mload(0x40)\n      dup1\n      swap2\n      sub\n      swap1\n      return\n        /* \"Book.sol\":2529:2686  function getBookById(uint256 _ID)  public view returns (Book memory) {... */\n    tag_5:\n      callvalue\n      dup1\n      iszero\n      tag_29\n      jumpi\n      revert(0x00, 0x00)\n    tag_29:\n      pop\n      tag_30\n      0x04\n      dup1\n      calldatasize\n      sub\n      dup2\n      add\n      swap1\n      tag_31\n      swap2\n      swap1\n      tag_25\n      jump\t// in\n    tag_31:\n      tag_32\n      jump\t// in\n    tag_30:\n      mload(0x40)\n      tag_33\n      swap2\n      swap1\n      tag_34\n      jump\t// in\n    tag_33:\n      mload(0x40)\n      dup1\n      swap2\n      sub\n      swap1\n      return\n        /* \"Book.sol\":575:599  uint256[] public bookIds */\n    tag_6:\n      callvalue\n      dup1\n      iszero\n      tag_35\n      jumpi\n      revert(0x00, 0x00)\n    tag_35:\n      pop\n      tag_36\n      0x04\n      dup1\n      calldatasize\n      sub\n      dup2\n      add\n      swap1\n      tag_37\n      swap2\n      swap1\n      tag_25\n      jump\t// in\n    tag_37:\n      tag_38\n      jump\t// in\n    tag_36:\n      mload(0x40)\n      tag_39\n      swap2\n      swap1\n      tag_40\n      jump\t// in\n    tag_39:\n      mload(0x40)\n      dup1\n      swap2\n      sub\n      swap1\n      return\n        /* \"Book.sol\":605:642  mapping(uint256 => Book) public books */\n    tag_7:\n      callvalue\n      dup1\n      iszero\n      tag_41\n      jumpi\n      revert(0x00, 0x00)\n    tag_41:\n      pop\n      tag_42\n      0x04\n      dup1\n      calldatasize\n      sub\n      dup2\n      add\n      swap1\n      tag_43\n      swap2\n      swap1\n      tag_25\n      jump\t// in\n    tag_43:\n      tag_44\n      jump\t// in\n    tag_42:\n      mload(0x40)\n      tag_45\n      swap10\n      swap9\n      swap8\n      swap7\n      swap6\n      swap5\n      swap4\n      swap3\n      swap2\n      swap1\n      tag_28\n      jump\t// in\n    tag_45:\n      mload(0x40)\n      dup1\n      swap2\n      sub\n      swap1\n      return\n        /* \"Book.sol\":2692:3596  function borrowBook(uint256 _ID) public payable {... */\n    tag_8:\n      tag_46\n      0x04\n      dup1\n      calldatasize\n      sub\n      dup2\n      add\n      swap1\n      tag_47\n      swap2\n      swap1\n      tag_25\n      jump\t// in\n    tag_47:\n      tag_48\n      jump\t// in\n    tag_46:\n      stop\n        /* \"Book.sol\":2432:2523  function getBooks() public view returns (Book[] memory) {... */\n    tag_9:\n      callvalue\n      dup1\n      iszero\n      tag_49\n      jumpi\n      revert(0x00, 0x00)\n    tag_49:\n      pop\n      tag_50\n      tag_51\n      jump\t// in\n    tag_50:\n      mload(0x40)\n      tag_52\n      swap2\n      swap1\n      tag_53\n      jump\t// in\n    tag_52:\n      mload(0x40)\n      dup1\n      swap2\n      sub\n      swap1\n      return\n        /* \"Book.sol\":758:810  mapping(uint256 => address[]) public borrowedHistory */\n    tag_10:\n      callvalue\n      dup1\n      iszero\n      tag_54\n      jumpi\n      revert(0x00, 0x00)\n    tag_54:\n      pop\n      tag_55\n      0x04\n      dup1\n      calldatasize\n      sub\n      dup2\n      add\n      swap1\n      tag_56\n      swap2\n      swap1\n      tag_57\n      jump\t// in\n    tag_56:\n      tag_58\n      jump\t// in\n    tag_55:\n      mload(0x40)\n      tag_59\n      swap2\n      swap1\n      tag_60\n      jump\t// in\n    tag_59:\n      mload(0x40)\n      dup1\n      swap2\n      sub\n      swap1\n      return\n        /* \"Book.sol\":1035:2164  function addBook(... */\n    tag_11:\n      callvalue\n      dup1\n      iszero\n      tag_61\n      jumpi\n      revert(0x00, 0x00)\n    tag_61:\n      pop\n      tag_62\n      0x04\n      dup1\n      calldatasize\n      sub\n      dup2\n      add\n      swap1\n      tag_63\n      swap2\n      swap1\n      tag_64\n      jump\t// in\n    tag_63:\n      tag_65\n      jump\t// in\n    tag_62:\n      stop\n        /* \"Book.sol\":398:434  MemberContract public memberContract */\n    tag_12:\n      callvalue\n      dup1\n      iszero\n      tag_66\n      jumpi\n      revert(0x00, 0x00)\n    tag_66:\n      pop\n      tag_67\n      tag_68\n      jump\t// in\n    tag_67:\n      mload(0x40)\n      tag_69\n      swap2\n      swap1\n      tag_70\n      jump\t// in\n    tag_69:\n      mload(0x40)\n      dup1\n      swap2\n      sub\n      swap1\n      return\n        /* \"Book.sol\":2170:2425  function restock(uint256 _ID, uint256 _quantity) public {... */\n    tag_13:\n      callvalue\n      dup1\n      iszero\n      tag_71\n      jumpi\n      revert(0x00, 0x00)\n    tag_71:\n      pop\n      tag_72\n      0x04\n      dup1\n      calldatasize\n      sub\n      dup2\n      add\n      swap1\n      tag_73\n      swap2\n      swap1\n      tag_57\n      jump\t// in\n    tag_73:\n      tag_74\n      jump\t// in\n    tag_72:\n      stop\n        /* \"Book.sol\":472:507  address payable public libraryAdmin */\n    tag_17:\n      0x01\n      0x00\n      swap1\n      sload\n      swap1\n      0x0100\n      exp\n      swap1\n      div\n      0xffffffffffffffffffffffffffffffffffffffff\n      and\n      dup2\n      jump\t// out\n        /* \"Book.sol\":3602:3638  function buyBook() public payable {} */\n    tag_21:\n      jump\t// out\n        /* \"Book.sol\":544:569  Book[] public listOfBooks */\n    tag_26:\n      0x02\n      dup2\n      dup2\n      sload\n      dup2\n      lt\n      tag_76\n      jumpi\n      0x00\n      dup1\n      revert\n    tag_76:\n      swap1\n      0x00\n      mstore\n      keccak256(0x00, 0x20)\n      swap1\n      0x09\n      mul\n      add\n      0x00\n      swap2\n      pop\n      swap1\n      pop\n      dup1\n      0x00\n      add\n      sload\n      swap1\n      dup1\n      0x01\n      add\n      dup1\n      sload\n      tag_78\n      swap1\n      tag_79\n      jump\t// in\n    tag_78:\n      dup1\n      0x1f\n      add\n      0x20\n      dup1\n      swap2\n      div\n      mul\n      0x20\n      add\n      mload(0x40)\n      swap1\n      dup2\n      add\n      0x40\n      mstore\n      dup1\n      swap3\n      swap2\n      swap1\n      dup2\n      dup2\n      mstore\n      0x20\n      add\n      dup3\n      dup1\n      sload\n      tag_80\n      swap1\n      tag_79\n      jump\t// in\n    tag_80:\n      dup1\n      iszero\n      tag_81\n      jumpi\n      dup1\n      0x1f\n      lt\n      tag_82\n      jumpi\n      0x0100\n      dup1\n      dup4\n      sload\n      div\n      mul\n      dup4\n      mstore\n      swap2\n      0x20\n      add\n      swap2\n      jump(tag_81)\n    tag_82:\n      dup3\n      add\n      swap2\n      swap1\n      0x00\n      mstore\n      keccak256(0x00, 0x20)\n      swap1\n    tag_83:\n      dup2\n      sload\n      dup2\n      mstore\n      swap1\n      0x01\n      add\n      swap1\n      0x20\n      add\n      dup1\n      dup4\n      gt\n      tag_83\n      jumpi\n      dup3\n      swap1\n      sub\n      0x1f\n      and\n      dup3\n      add\n      swap2\n    tag_81:\n      pop\n      pop\n      pop\n      pop\n      pop\n      swap1\n      dup1\n      0x02\n      add\n      dup1\n      sload\n      tag_84\n      swap1\n      tag_79\n      jump\t// in\n    tag_84:\n      dup1\n      0x1f\n      add\n      0x20\n      dup1\n      swap2\n      div\n      mul\n      0x20\n      add\n      mload(0x40)\n      swap1\n      dup2\n      add\n      0x40\n      mstore\n      dup1\n      swap3\n      swap2\n      swap1\n      dup2\n      dup2\n      mstore\n      0x20\n      add\n      dup3\n      dup1\n      sload\n      tag_85\n      swap1\n      tag_79\n      jump\t// in\n    tag_85:\n      dup1\n      iszero\n      tag_86\n      jumpi\n      dup1\n      0x1f\n      lt\n      tag_87\n      jumpi\n      0x0100\n      dup1\n      dup4\n      sload\n      div\n      mul\n      dup4\n      mstore\n      swap2\n      0x20\n      add\n      swap2\n      jump(tag_86)\n    tag_87:\n      dup3\n      add\n      swap2\n      swap1\n      0x00\n      mstore\n      keccak256(0x00, 0x20)\n      swap1\n    tag_88:\n      dup2\n      sload\n      dup2\n      mstore\n      swap1\n      0x01\n      add\n      swap1\n      0x20\n      add\n      dup1\n      dup4\n      gt\n      tag_88\n      jumpi\n      dup3\n      swap1\n      sub\n      0x1f\n      and\n      dup3\n      add\n      swap2\n    tag_86:\n      pop\n      pop\n      pop\n      pop\n      pop\n      swap1\n      dup1\n      0x03\n      add\n      dup1\n      sload\n      tag_89\n      swap1\n      tag_79\n      jump\t// in\n    tag_89:\n      dup1\n      0x1f\n      add\n      0x20\n      dup1\n      swap2\n      div\n      mul\n      0x20\n      add\n      mload(0x40)\n      swap1\n      dup2\n      add\n      0x40\n      mstore\n      dup1\n      swap3\n      swap2\n      swap1\n      dup2\n      dup2\n      mstore\n      0x20\n      add\n      dup3\n      dup1\n      sload\n      tag_90\n      swap1\n      tag_79\n      jump\t// in\n    tag_90:\n      dup1\n      iszero\n      tag_91\n      jumpi\n      dup1\n      0x1f\n      lt\n      tag_92\n      jumpi\n      0x0100\n      dup1\n      dup4\n      sload\n      div\n      mul\n      dup4\n      mstore\n      swap2\n      0x20\n      add\n      swap2\n      jump(tag_91)\n    tag_92:\n      dup3\n      add\n      swap2\n      swap1\n      0x00\n      mstore\n      keccak256(0x00, 0x20)\n      swap1\n    tag_93:\n      dup2\n      sload\n      dup2\n      mstore\n      swap1\n      0x01\n      add\n      swap1\n      0x20\n      add\n      dup1\n      dup4\n      gt\n      tag_93\n      jumpi\n      dup3\n      swap1\n      sub\n      0x1f\n      and\n      dup3\n      add\n      swap2\n    tag_91:\n      pop\n      pop\n      pop\n      pop\n      pop\n      swap1\n      dup1\n      0x04\n      add\n      sload\n      swap1\n      dup1\n      0x05\n      add\n      sload\n      swap1\n      dup1\n      0x06\n      add\n      sload\n      swap1\n      dup1\n      0x07\n      add\n      0x00\n      swap1\n      sload\n      swap1\n      0x0100\n      exp\n      swap1\n      div\n      0xff\n      and\n      swap1\n      dup1\n      0x08\n      add\n      sload\n      swap1\n      pop\n      dup10\n      jump\t// out\n        /* \"Book.sol\":2529:2686  function getBookById(uint256 _ID)  public view returns (Book memory) {... */\n    tag_32:\n        /* \"Book.sol\":2585:2596  Book memory */\n      tag_94\n      tag_95\n      jump\t// in\n    tag_94:\n        /* \"Book.sol\":2616:2621  books */\n      0x04\n        /* \"Book.sol\":2616:2626  books[_ID] */\n      0x00\n        /* \"Book.sol\":2622:2625  _ID */\n      dup4\n        /* \"Book.sol\":2616:2626  books[_ID] */\n      dup2\n      mstore\n      0x20\n      add\n      swap1\n      dup2\n      mstore\n      0x20\n      add\n      0x00\n      keccak256\n        /* \"Book.sol\":2616:2633  books[_ID].exists */\n      0x07\n      add\n      0x00\n      swap1\n      sload\n      swap1\n      0x0100\n      exp\n      swap1\n      div\n      0xff\n      and\n        /* \"Book.sol\":2608:2652  require(books[_ID].exists, \"Book not found\") */\n      tag_97\n      jumpi\n      mload(0x40)\n      0x08c379a000000000000000000000000000000000000000000000000000000000\n      dup2\n      mstore\n      0x04\n      add\n      tag_98\n      swap1\n      tag_99\n      jump\t// in\n    tag_98:\n      mload(0x40)\n      dup1\n      swap2\n      sub\n      swap1\n      revert\n    tag_97:\n        /* \"Book.sol\":2669:2674  books */\n      0x04\n        /* \"Book.sol\":2669:2679  books[_ID] */\n      0x00\n        /* \"Book.sol\":2675:2678  _ID */\n      dup4\n        /* \"Book.sol\":2669:2679  books[_ID] */\n      dup2\n      mstore\n      0x20\n      add\n      swap1\n      dup2\n      mstore\n      0x20\n      add\n      0x00\n      keccak256\n        /* \"Book.sol\":2662:2679  return books[_ID] */\n      mload(0x40)\n      dup1\n      0x0120\n      add\n      0x40\n      mstore\n      swap1\n      dup2\n      0x00\n      dup3\n      add\n      sload\n      dup2\n      mstore\n      0x20\n      add\n      0x01\n      dup3\n      add\n      dup1\n      sload\n      tag_100\n      swap1\n      tag_79\n      jump\t// in\n    tag_100:\n      dup1\n      0x1f\n      add\n      0x20\n      dup1\n      swap2\n      div\n      mul\n      0x20\n      add\n      mload(0x40)\n      swap1\n      dup2\n      add\n      0x40\n      mstore\n      dup1\n      swap3\n      swap2\n      swap1\n      dup2\n      dup2\n      mstore\n      0x20\n      add\n      dup3\n      dup1\n      sload\n      tag_101\n      swap1\n      tag_79\n      jump\t// in\n    tag_101:\n      dup1\n      iszero\n      tag_102\n      jumpi\n      dup1\n      0x1f\n      lt\n      tag_103\n      jumpi\n      0x0100\n      dup1\n      dup4\n      sload\n      div\n      mul\n      dup4\n      mstore\n      swap2\n      0x20\n      add\n      swap2\n      jump(tag_102)\n    tag_103:\n      dup3\n      add\n      swap2\n      swap1\n      0x00\n      mstore\n      keccak256(0x00, 0x20)\n      swap1\n    tag_104:\n      dup2\n      sload\n      dup2\n      mstore\n      swap1\n      0x01\n      add\n      swap1\n      0x20\n      add\n      dup1\n      dup4\n      gt\n      tag_104\n      jumpi\n      dup3\n      swap1\n      sub\n      0x1f\n      and\n      dup3\n      add\n      swap2\n    tag_102:\n      pop\n      pop\n      pop\n      pop\n      pop\n      dup2\n      mstore\n      0x20\n      add\n      0x02\n      dup3\n      add\n      dup1\n      sload\n      tag_105\n      swap1\n      tag_79\n      jump\t// in\n    tag_105:\n      dup1\n      0x1f\n      add\n      0x20\n      dup1\n      swap2\n      div\n      mul\n      0x20\n      add\n      mload(0x40)\n      swap1\n      dup2\n      add\n      0x40\n      mstore\n      dup1\n      swap3\n      swap2\n      swap1\n      dup2\n      dup2\n      mstore\n      0x20\n      add\n      dup3\n      dup1\n      sload\n      tag_106\n      swap1\n      tag_79\n      jump\t// in\n    tag_106:\n      dup1\n      iszero\n      tag_107\n      jumpi\n      dup1\n      0x1f\n      lt\n      tag_108\n      jumpi\n      0x0100\n      dup1\n      dup4\n      sload\n      div\n      mul\n      dup4\n      mstore\n      swap2\n      0x20\n      add\n      swap2\n      jump(tag_107)\n    tag_108:\n      dup3\n      add\n      swap2\n      swap1\n      0x00\n      mstore\n      keccak256(0x00, 0x20)\n      swap1\n    tag_109:\n      dup2\n      sload\n      dup2\n      mstore\n      swap1\n      0x01\n      add\n      swap1\n      0x20\n      add\n      dup1\n      dup4\n      gt\n      tag_109\n      jumpi\n      dup3\n      swap1\n      sub\n      0x1f\n      and\n      dup3\n      add\n      swap2\n    tag_107:\n      pop\n      pop\n      pop\n      pop\n      pop\n      dup2\n      mstore\n      0x20\n      add\n      0x03\n      dup3\n      add\n      dup1\n      sload\n      tag_110\n      swap1\n      tag_79\n      jump\t// in\n    tag_110:\n      dup1\n      0x1f\n      add\n      0x20\n      dup1\n      swap2\n      div\n      mul\n      0x20\n      add\n      mload(0x40)\n      swap1\n      dup2\n      add\n      0x40\n      mstore\n      dup1\n      swap3\n      swap2\n      swap1\n      dup2\n      dup2\n      mstore\n      0x20\n      add\n      dup3\n      dup1\n      sload\n      tag_111\n      swap1\n      tag_79\n      jump\t// in\n    tag_111:\n      dup1\n      iszero\n      tag_112\n      jumpi\n      dup1\n      0x1f\n      lt\n      tag_113\n      jumpi\n      0x0100\n      dup1\n      dup4\n      sload\n      div\n      mul\n      dup4\n      mstore\n      swap2\n      0x20\n      add\n      swap2\n      jump(tag_112)\n    tag_113:\n      dup3\n      add\n      swap2\n      swap1\n      0x00\n      mstore\n      keccak256(0x00, 0x20)\n      swap1\n    tag_114:\n      dup2\n      sload\n      dup2\n      mstore\n      swap1\n      0x01\n      add\n      swap1\n      0x20\n      add\n      dup1\n      dup4\n      gt\n      tag_114\n      jumpi\n      dup3\n      swap1\n      sub\n      0x1f\n      and\n      dup3\n      add\n      swap2\n    tag_112:\n      pop\n      pop\n      pop\n      pop\n      pop\n      dup2\n      mstore\n      0x20\n      add\n      0x04\n      dup3\n      add\n      sload\n      dup2\n      mstore\n      0x20\n      add\n      0x05\n      dup3\n      add\n      sload\n      dup2\n      mstore\n      0x20\n      add\n      0x06\n      dup3\n      add\n      sload\n      dup2\n      mstore\n      0x20\n      add\n      0x07\n      dup3\n      add\n      0x00\n      swap1\n      sload\n      swap1\n      0x0100\n      exp\n      swap1\n      div\n      0xff\n      and\n      iszero\n      iszero\n      iszero\n      iszero\n      dup2\n      mstore\n      0x20\n      add\n      0x08\n      dup3\n      add\n      sload\n      dup2\n      mstore\n      pop\n      pop\n      swap1\n      pop\n        /* \"Book.sol\":2529:2686  function getBookById(uint256 _ID)  public view returns (Book memory) {... */\n      swap2\n      swap1\n      pop\n      jump\t// out\n        /* \"Book.sol\":575:599  uint256[] public bookIds */\n    tag_38:\n      0x03\n      dup2\n      dup2\n      sload\n      dup2\n      lt\n      tag_115\n      jumpi\n      0x00\n      dup1\n      revert\n    tag_115:\n      swap1\n      0x00\n      mstore\n      keccak256(0x00, 0x20)\n      add\n      0x00\n      swap2\n      pop\n      swap1\n      pop\n      sload\n      dup2\n      jump\t// out\n        /* \"Book.sol\":605:642  mapping(uint256 => Book) public books */\n    tag_44:\n      mstore(0x20, 0x04)\n      dup1\n      0x00\n      mstore\n      keccak256(0x00, 0x40)\n      0x00\n      swap2\n      pop\n      swap1\n      pop\n      dup1\n      0x00\n      add\n      sload\n      swap1\n      dup1\n      0x01\n      add\n      dup1\n      sload\n      tag_117\n      swap1\n      tag_79\n      jump\t// in\n    tag_117:\n      dup1\n      0x1f\n      add\n      0x20\n      dup1\n      swap2\n      div\n      mul\n      0x20\n      add\n      mload(0x40)\n      swap1\n      dup2\n      add\n      0x40\n      mstore\n      dup1\n      swap3\n      swap2\n      swap1\n      dup2\n      dup2\n      mstore\n      0x20\n      add\n      dup3\n      dup1\n      sload\n      tag_118\n      swap1\n      tag_79\n      jump\t// in\n    tag_118:\n      dup1\n      iszero\n      tag_119\n      jumpi\n      dup1\n      0x1f\n      lt\n      tag_120\n      jumpi\n      0x0100\n      dup1\n      dup4\n      sload\n      div\n      mul\n      dup4\n      mstore\n      swap2\n      0x20\n      add\n      swap2\n      jump(tag_119)\n    tag_120:\n      dup3\n      add\n      swap2\n      swap1\n      0x00\n      mstore\n      keccak256(0x00, 0x20)\n      swap1\n    tag_121:\n      dup2\n      sload\n      dup2\n      mstore\n      swap1\n      0x01\n      add\n      swap1\n      0x20\n      add\n      dup1\n      dup4\n      gt\n      tag_121\n      jumpi\n      dup3\n      swap1\n      sub\n      0x1f\n      and\n      dup3\n      add\n      swap2\n    tag_119:\n      pop\n      pop\n      pop\n      pop\n      pop\n      swap1\n      dup1\n      0x02\n      add\n      dup1\n      sload\n      tag_122\n      swap1\n      tag_79\n      jump\t// in\n    tag_122:\n      dup1\n      0x1f\n      add\n      0x20\n      dup1\n      swap2\n      div\n      mul\n      0x20\n      add\n      mload(0x40)\n      swap1\n      dup2\n      add\n      0x40\n      mstore\n      dup1\n      swap3\n      swap2\n      swap1\n      dup2\n      dup2\n      mstore\n      0x20\n      add\n      dup3\n      dup1\n      sload\n      tag_123\n      swap1\n      tag_79\n      jump\t// in\n    tag_123:\n      dup1\n      iszero\n      tag_124\n      jumpi\n      dup1\n      0x1f\n      lt\n      tag_125\n      jumpi\n      0x0100\n      dup1\n      dup4\n      sload\n      div\n      mul\n      dup4\n      mstore\n      swap2\n      0x20\n      add\n      swap2\n      jump(tag_124)\n    tag_125:\n      dup3\n      add\n      swap2\n      swap1\n      0x00\n      mstore\n      keccak256(0x00, 0x20)\n      swap1\n    tag_126:\n      dup2\n      sload\n      dup2\n      mstore\n      swap1\n      0x01\n      add\n      swap1\n      0x20\n      add\n      dup1\n      dup4\n      gt\n      tag_126\n      jumpi\n      dup3\n      swap1\n      sub\n      0x1f\n      and\n      dup3\n      add\n      swap2\n    tag_124:\n      pop\n      pop\n      pop\n      pop\n      pop\n      swap1\n      dup1\n      0x03\n      add\n      dup1\n      sload\n      tag_127\n      swap1\n      tag_79\n      jump\t// in\n    tag_127:\n      dup1\n      0x1f\n      add\n      0x20\n      dup1\n      swap2\n      div\n      mul\n      0x20\n      add\n      mload(0x40)\n      swap1\n      dup2\n      add\n      0x40\n      mstore\n      dup1\n      swap3\n      swap2\n      swap1\n      dup2\n      dup2\n      mstore\n      0x20\n      add\n      dup3\n      dup1\n      sload\n      tag_128\n      swap1\n      tag_79\n      jump\t// in\n    tag_128:\n      dup1\n      iszero\n      tag_129\n      jumpi\n      dup1\n      0x1f\n      lt\n      tag_130\n      jumpi\n      0x0100\n      dup1\n      dup4\n      sload\n      div\n      mul\n      dup4\n      mstore\n      swap2\n      0x20\n      add\n      swap2\n      jump(tag_129)\n    tag_130:\n      dup3\n      add\n      swap2\n      swap1\n      0x00\n      mstore\n      keccak256(0x00, 0x20)\n      swap1\n    tag_131:\n      dup2\n      sload\n      dup2\n      mstore\n      swap1\n      0x01\n      add\n      swap1\n      0x20\n      add\n      dup1\n      dup4\n      gt\n      tag_131\n      jumpi\n      dup3\n      swap1\n      sub\n      0x1f\n      and\n      dup3\n      add\n      swap2\n    tag_129:\n      pop\n      pop\n      pop\n      pop\n      pop\n      swap1\n      dup1\n      0x04\n      add\n      sload\n      swap1\n      dup1\n      0x05\n      add\n      sload\n      swap1\n      dup1\n      0x06\n      add\n      sload\n      swap1\n      dup1\n      0x07\n      add\n      0x00\n      swap1\n      sload\n      swap1\n      0x0100\n      exp\n      swap1\n      div\n      0xff\n      and\n      swap1\n      dup1\n      0x08\n      add\n      sload\n      swap1\n      pop\n      dup10\n      jump\t// out\n        /* \"Book.sol\":2692:3596  function borrowBook(uint256 _ID) public payable {... */\n    tag_48:\n        /* \"Book.sol\":2780:2781  0 */\n      0x00\n        /* \"Book.sol\":2758:2763  books */\n      0x04\n        /* \"Book.sol\":2758:2768  books[_ID] */\n      0x00\n        /* \"Book.sol\":2764:2767  _ID */\n      dup4\n        /* \"Book.sol\":2758:2768  books[_ID] */\n      dup2\n      mstore\n      0x20\n      add\n      swap1\n      dup2\n      mstore\n      0x20\n      add\n      0x00\n      keccak256\n        /* \"Book.sol\":2758:2777  books[_ID].quantity */\n      0x04\n      add\n      sload\n        /* \"Book.sol\":2758:2781  books[_ID].quantity > 0 */\n      gt\n        /* \"Book.sol\":2750:2805  require(books[_ID].quantity > 0, \"Book not available!\") */\n      tag_133\n      jumpi\n      mload(0x40)\n      0x08c379a000000000000000000000000000000000000000000000000000000000\n      dup2\n      mstore\n      0x04\n      add\n      tag_134\n      swap1\n      tag_135\n      jump\t// in\n    tag_134:\n      mload(0x40)\n      dup1\n      swap2\n      sub\n      swap1\n      revert\n    tag_133:\n        /* \"Book.sol\":2816:2835  Book storage myBook */\n      0x00\n        /* \"Book.sol\":2838:2843  books */\n      0x04\n        /* \"Book.sol\":2838:2848  books[_ID] */\n      0x00\n        /* \"Book.sol\":2844:2847  _ID */\n      dup4\n        /* \"Book.sol\":2838:2848  books[_ID] */\n      dup2\n      mstore\n      0x20\n      add\n      swap1\n      dup2\n      mstore\n      0x20\n      add\n      0x00\n      keccak256\n        /* \"Book.sol\":2816:2848  Book storage myBook = books[_ID] */\n      swap1\n      pop\n        /* \"Book.sol\":2859:2872  bool isMember */\n      0x00\n        /* \"Book.sol\":2875:2889  memberContract */\n      0x00\n      0x00\n      swap1\n      sload\n      swap1\n      0x0100\n      exp\n      swap1\n      div\n      0xffffffffffffffffffffffffffffffffffffffff\n      and\n        /* \"Book.sol\":2875:2901  memberContract.memberExist */\n      0xffffffffffffffffffffffffffffffffffffffff\n      and\n      0x506b27f0\n        /* \"Book.sol\":2902:2912  msg.sender */\n      caller\n        /* \"Book.sol\":2875:2913  memberContract.memberExist(msg.sender) */\n      mload(0x40)\n      dup3\n      0xffffffff\n      and\n      0xe0\n      shl\n      dup2\n      mstore\n      0x04\n      add\n      tag_136\n      swap2\n      swap1\n      tag_60\n      jump\t// in\n    tag_136:\n      0x20\n      mload(0x40)\n      dup1\n      dup4\n      sub\n      dup2\n      dup7\n      gas\n      staticcall\n      iszero\n      dup1\n      iszero\n      tag_138\n      jumpi\n      returndatacopy(0x00, 0x00, returndatasize)\n      revert(0x00, returndatasize)\n    tag_138:\n      pop\n      pop\n      pop\n      pop\n      mload(0x40)\n      returndatasize\n      not(0x1f)\n      0x1f\n      dup3\n      add\n      and\n      dup3\n      add\n      dup1\n      0x40\n      mstore\n      pop\n      dup2\n      add\n      swap1\n      tag_139\n      swap2\n      swap1\n      tag_140\n      jump\t// in\n    tag_139:\n        /* \"Book.sol\":2859:2913  bool isMember = memberContract.memberExist(msg.sender) */\n      swap1\n      pop\n        /* \"Book.sol\":2923:2946  uint256 requiredPayment */\n      0x00\n        /* \"Book.sol\":2949:2957  isMember */\n      dup2\n        /* \"Book.sol\":2949:2989  isMember ?  myBook.borrowFee :  2000 wei */\n      tag_141\n      jumpi\n        /* \"Book.sol\":2981:2989  2000 wei */\n      0x07d0\n        /* \"Book.sol\":2949:2989  isMember ?  myBook.borrowFee :  2000 wei */\n      jump(tag_142)\n    tag_141:\n        /* \"Book.sol\":2961:2967  myBook */\n      dup3\n        /* \"Book.sol\":2961:2977  myBook.borrowFee */\n      0x06\n      add\n      sload\n        /* \"Book.sol\":2949:2989  isMember ?  myBook.borrowFee :  2000 wei */\n    tag_142:\n        /* \"Book.sol\":2923:2989  uint256 requiredPayment = isMember ?  myBook.borrowFee :  2000 wei */\n      swap1\n      pop\n        /* \"Book.sol\":3020:3035  requiredPayment */\n      dup1\n        /* \"Book.sol\":3007:3016  msg.value */\n      callvalue\n        /* \"Book.sol\":3007:3035  msg.value >= requiredPayment */\n      lt\n      iszero\n        /* \"Book.sol\":2999:3059  require(msg.value >= requiredPayment, \"Not enough ETH sent\") */\n      tag_143\n      jumpi\n      mload(0x40)\n      0x08c379a000000000000000000000000000000000000000000000000000000000\n      dup2\n      mstore\n      0x04\n      add\n      tag_144\n      swap1\n      tag_145\n      jump\t// in\n    tag_144:\n      mload(0x40)\n      dup1\n      swap2\n      sub\n      swap1\n      revert\n    tag_143:\n        /* \"Book.sol\":3070:3085  borrowedHistory */\n      0x06\n        /* \"Book.sol\":3070:3090  borrowedHistory[_ID] */\n      0x00\n        /* \"Book.sol\":3086:3089  _ID */\n      dup6\n        /* \"Book.sol\":3070:3090  borrowedHistory[_ID] */\n      dup2\n      mstore\n      0x20\n      add\n      swap1\n      dup2\n      mstore\n      0x20\n      add\n      0x00\n      keccak256\n        /* \"Book.sol\":3096:3106  msg.sender */\n      caller\n        /* \"Book.sol\":3070:3107  borrowedHistory[_ID].push(msg.sender) */\n      swap1\n      dup1\n      0x01\n      dup2\n      sload\n      add\n      dup1\n      dup3\n      sstore\n      dup1\n      swap2\n      pop\n      pop\n      0x01\n      swap1\n      sub\n      swap1\n      0x00\n      mstore\n      keccak256(0x00, 0x20)\n      add\n      0x00\n      swap1\n      swap2\n      swap1\n      swap2\n      swap1\n      swap2\n      0x0100\n      exp\n      dup2\n      sload\n      dup2\n      0xffffffffffffffffffffffffffffffffffffffff\n      mul\n      not\n      and\n      swap1\n      dup4\n      0xffffffffffffffffffffffffffffffffffffffff\n      and\n      mul\n      or\n      swap1\n      sstore\n      pop\n        /* \"Book.sol\":3136:3137  1 */\n      0x01\n        /* \"Book.sol\":3117:3123  myBook */\n      dup4\n        /* \"Book.sol\":3117:3132  myBook.quantity */\n      0x04\n      add\n      0x00\n        /* \"Book.sol\":3117:3137  myBook.quantity -= 1 */\n      dup3\n      dup3\n      sload\n      tag_147\n      swap2\n      swap1\n      tag_148\n      jump\t// in\n    tag_147:\n      swap3\n      pop\n      pop\n      dup2\n      swap1\n      sstore\n      pop\n        /* \"Book.sol\":3214:3223  bool sent */\n      0x00\n        /* \"Book.sol\":3229:3241  libraryAdmin */\n      0x01\n      0x00\n      swap1\n      sload\n      swap1\n      0x0100\n      exp\n      swap1\n      div\n      0xffffffffffffffffffffffffffffffffffffffff\n      and\n        /* \"Book.sol\":3229:3246  libraryAdmin.call */\n      0xffffffffffffffffffffffffffffffffffffffff\n      and\n        /* \"Book.sol\":3254:3269  requiredPayment */\n      dup3\n        /* \"Book.sol\":3229:3274  libraryAdmin.call{value: requiredPayment}(\"\") */\n      mload(0x40)\n      tag_149\n      swap1\n      tag_150\n      jump\t// in\n    tag_149:\n      0x00\n      mload(0x40)\n      dup1\n      dup4\n      sub\n      dup2\n      dup6\n      dup8\n      gas\n      call\n      swap3\n      pop\n      pop\n      pop\n      returndatasize\n      dup1\n      0x00\n      dup2\n      eq\n      tag_153\n      jumpi\n      mload(0x40)\n      swap2\n      pop\n      and(add(returndatasize, 0x3f), not(0x1f))\n      dup3\n      add\n      0x40\n      mstore\n      returndatasize\n      dup3\n      mstore\n      returndatasize\n      0x00\n      0x20\n      dup5\n      add\n      returndatacopy\n      jump(tag_152)\n    tag_153:\n      0x60\n      swap2\n      pop\n    tag_152:\n      pop\n        /* \"Book.sol\":3213:3274  (bool sent, ) = libraryAdmin.call{value: requiredPayment}(\"\") */\n      pop\n      swap1\n      pop\n        /* \"Book.sol\":3292:3296  sent */\n      dup1\n        /* \"Book.sol\":3284:3330  require(sent, \"Failed to send ETH to library\") */\n      tag_154\n      jumpi\n      mload(0x40)\n      0x08c379a000000000000000000000000000000000000000000000000000000000\n      dup2\n      mstore\n      0x04\n      add\n      tag_155\n      swap1\n      tag_156\n      jump\t// in\n    tag_155:\n      mload(0x40)\n      dup1\n      swap2\n      sub\n      swap1\n      revert\n    tag_154:\n        /* \"Book.sol\":3370:3384  uint256 excess */\n      0x00\n        /* \"Book.sol\":3399:3414  requiredPayment */\n      dup3\n        /* \"Book.sol\":3387:3396  msg.value */\n      callvalue\n        /* \"Book.sol\":3387:3414  msg.value - requiredPayment */\n      tag_157\n      swap2\n      swap1\n      tag_148\n      jump\t// in\n    tag_157:\n        /* \"Book.sol\":3370:3414  uint256 excess = msg.value - requiredPayment */\n      swap1\n      pop\n        /* \"Book.sol\":3437:3438  0 */\n      0x00\n        /* \"Book.sol\":3428:3434  excess */\n      dup2\n        /* \"Book.sol\":3428:3438  excess > 0 */\n      gt\n        /* \"Book.sol\":3424:3590  if (excess > 0) {... */\n      iszero\n      tag_158\n      jumpi\n        /* \"Book.sol\":3455:3468  bool refunded */\n      0x00\n        /* \"Book.sol\":3482:3492  msg.sender */\n      caller\n        /* \"Book.sol\":3474:3498  payable(msg.sender).call */\n      0xffffffffffffffffffffffffffffffffffffffff\n      and\n        /* \"Book.sol\":3506:3512  excess */\n      dup3\n        /* \"Book.sol\":3474:3517  payable(msg.sender).call{value: excess}(\"\") */\n      mload(0x40)\n      tag_159\n      swap1\n      tag_150\n      jump\t// in\n    tag_159:\n      0x00\n      mload(0x40)\n      dup1\n      dup4\n      sub\n      dup2\n      dup6\n      dup8\n      gas\n      call\n      swap3\n      pop\n      pop\n      pop\n      returndatasize\n      dup1\n      0x00\n      dup2\n      eq\n      tag_162\n      jumpi\n      mload(0x40)\n      swap2\n      pop\n      and(add(returndatasize, 0x3f), not(0x1f))\n      dup3\n      add\n      0x40\n      mstore\n      returndatasize\n      dup3\n      mstore\n      returndatasize\n      0x00\n      0x20\n      dup5\n      add\n      returndatacopy\n      jump(tag_161)\n    tag_162:\n      0x60\n      swap2\n      pop\n    tag_161:\n      pop\n        /* \"Book.sol\":3454:3517  (bool refunded, ) = payable(msg.sender).call{value: excess}(\"\") */\n      pop\n      swap1\n      pop\n        /* \"Book.sol\":3539:3547  refunded */\n      dup1\n        /* \"Book.sol\":3531:3579  require(refunded, \"Failed to refund excess ETH\") */\n      tag_163\n      jumpi\n      mload(0x40)\n      0x08c379a000000000000000000000000000000000000000000000000000000000\n      dup2\n      mstore\n      0x04\n      add\n      tag_164\n      swap1\n      tag_165\n      jump\t// in\n    tag_164:\n      mload(0x40)\n      dup1\n      swap2\n      sub\n      swap1\n      revert\n    tag_163:\n        /* \"Book.sol\":3440:3590  {... */\n      pop\n        /* \"Book.sol\":3424:3590  if (excess > 0) {... */\n    tag_158:\n        /* \"Book.sol\":2740:3596  {... */\n      pop\n      pop\n      pop\n      pop\n      pop\n        /* \"Book.sol\":2692:3596  function borrowBook(uint256 _ID) public payable {... */\n      pop\n      jump\t// out\n        /* \"Book.sol\":2432:2523  function getBooks() public view returns (Book[] memory) {... */\n    tag_51:\n        /* \"Book.sol\":2473:2486  Book[] memory */\n      0x60\n        /* \"Book.sol\":2505:2516  listOfBooks */\n      0x02\n        /* \"Book.sol\":2498:2516  return listOfBooks */\n      dup1\n      sload\n      dup1\n      0x20\n      mul\n      0x20\n      add\n      mload(0x40)\n      swap1\n      dup2\n      add\n      0x40\n      mstore\n      dup1\n      swap3\n      swap2\n      swap1\n      dup2\n      dup2\n      mstore\n      0x20\n      add\n      0x00\n      swap1\n    tag_167:\n      dup3\n      dup3\n      lt\n      iszero\n      tag_168\n      jumpi\n      dup4\n      dup3\n      swap1\n      0x00\n      mstore\n      keccak256(0x00, 0x20)\n      swap1\n      0x09\n      mul\n      add\n      mload(0x40)\n      dup1\n      0x0120\n      add\n      0x40\n      mstore\n      swap1\n      dup2\n      0x00\n      dup3\n      add\n      sload\n      dup2\n      mstore\n      0x20\n      add\n      0x01\n      dup3\n      add\n      dup1\n      sload\n      tag_170\n      swap1\n      tag_79\n      jump\t// in\n    tag_170:\n      dup1\n      0x1f\n      add\n      0x20\n      dup1\n      swap2\n      div\n      mul\n      0x20\n      add\n      mload(0x40)\n      swap1\n      dup2\n      add\n      0x40\n      mstore\n      dup1\n      swap3\n      swap2\n      swap1\n      dup2\n      dup2\n      mstore\n      0x20\n      add\n      dup3\n      dup1\n      sload\n      tag_171\n      swap1\n      tag_79\n      jump\t// in\n    tag_171:\n      dup1\n      iszero\n      tag_172\n      jumpi\n      dup1\n      0x1f\n      lt\n      tag_173\n      jumpi\n      0x0100\n      dup1\n      dup4\n      sload\n      div\n      mul\n      dup4\n      mstore\n      swap2\n      0x20\n      add\n      swap2\n      jump(tag_172)\n    tag_173:\n      dup3\n      add\n      swap2\n      swap1\n      0x00\n      mstore\n      keccak256(0x00, 0x20)\n      swap1\n    tag_174:\n      dup2\n      sload\n      dup2\n      mstore\n      swap1\n      0x01\n      add\n      swap1\n      0x20\n      add\n      dup1\n      dup4\n      gt\n      tag_174\n      jumpi\n      dup3\n      swap1\n      sub\n      0x1f\n      and\n      dup3\n      add\n      swap2\n    tag_172:\n      pop\n      pop\n      pop\n      pop\n      pop\n      dup2\n      mstore\n      0x20\n      add\n      0x02\n      dup3\n      add\n      dup1\n      sload\n      tag_175\n      swap1\n      tag_79\n      jump\t// in\n    tag_175:\n      dup1\n      0x1f\n      add\n      0x20\n      dup1\n      swap2\n      div\n      mul\n      0x20\n      add\n      mload(0x40)\n      swap1\n      dup2\n      add\n      0x40\n      mstore\n      dup1\n      swap3\n      swap2\n      swap1\n      dup2\n      dup2\n      mstore\n      0x20\n      add\n      dup3\n      dup1\n      sload\n      tag_176\n      swap1\n      tag_79\n      jump\t// in\n    tag_176:\n      dup1\n      iszero\n      tag_177\n      jumpi\n      dup1\n      0x1f\n      lt\n      tag_178\n      jumpi\n      0x0100\n      dup1\n      dup4\n      sload\n      div\n      mul\n      dup4\n      mstore\n      swap2\n      0x20\n      add\n      swap2\n      jump(tag_177)\n    tag_178:\n      dup3\n      add\n      swap2\n      swap1\n      0x00\n      mstore\n      keccak256(0x00, 0x20)\n      swap1\n    tag_179:\n      dup2\n      sload\n      dup2\n      mstore\n      swap1\n      0x01\n      add\n      swap1\n      0x20\n      add\n      dup1\n      dup4\n      gt\n      tag_179\n      jumpi\n      dup3\n      swap1\n      sub\n      0x1f\n      and\n      dup3\n      add\n      swap2\n    tag_177:\n      pop\n      pop\n      pop\n      pop\n      pop\n      dup2\n      mstore\n      0x20\n      add\n      0x03\n      dup3\n      add\n      dup1\n      sload\n      tag_180\n      swap1\n      tag_79\n      jump\t// in\n    tag_180:\n      dup1\n      0x1f\n      add\n      0x20\n      dup1\n      swap2\n      div\n      mul\n      0x20\n      add\n      mload(0x40)\n      swap1\n      dup2\n      add\n      0x40\n      mstore\n      dup1\n      swap3\n      swap2\n      swap1\n      dup2\n      dup2\n      mstore\n      0x20\n      add\n      dup3\n      dup1\n      sload\n      tag_181\n      swap1\n      tag_79\n      jump\t// in\n    tag_181:\n      dup1\n      iszero\n      tag_182\n      jumpi\n      dup1\n      0x1f\n      lt\n      tag_183\n      jumpi\n      0x0100\n      dup1\n      dup4\n      sload\n      div\n      mul\n      dup4\n      mstore\n      swap2\n      0x20\n      add\n      swap2\n      jump(tag_182)\n    tag_183:\n      dup3\n      add\n      swap2\n      swap1\n      0x00\n      mstore\n      keccak256(0x00, 0x20)\n      swap1\n    tag_184:\n      dup2\n      sload\n      dup2\n      mstore\n      swap1\n      0x01\n      add\n      swap1\n      0x20\n      add\n      dup1\n      dup4\n      gt\n      tag_184\n      jumpi\n      dup3\n      swap1\n      sub\n      0x1f\n      and\n      dup3\n      add\n      swap2\n    tag_182:\n      pop\n      pop\n      pop\n      pop\n      pop\n      dup2\n      mstore\n      0x20\n      add\n      0x04\n      dup3\n      add\n      sload\n      dup2\n      mstore\n      0x20\n      add\n      0x05\n      dup3\n      add\n      sload\n      dup2\n      mstore\n      0x20\n      add\n      0x06\n      dup3\n      add\n      sload\n      dup2\n      mstore\n      0x20\n      add\n      0x07\n      dup3\n      add\n      0x00\n      swap1\n      sload\n      swap1\n      0x0100\n      exp\n      swap1\n      div\n      0xff\n      and\n      iszero\n      iszero\n      iszero\n      iszero\n      dup2\n      mstore\n      0x20\n      add\n      0x08\n      dup3\n      add\n      sload\n      dup2\n      mstore\n      pop\n      pop\n      dup2\n      mstore\n      0x20\n      add\n      swap1\n      0x01\n      add\n      swap1\n      jump(tag_167)\n    tag_168:\n      pop\n      pop\n      pop\n      pop\n      swap1\n      pop\n        /* \"Book.sol\":2432:2523  function getBooks() public view returns (Book[] memory) {... */\n      swap1\n      jump\t// out\n        /* \"Book.sol\":758:810  mapping(uint256 => address[]) public borrowedHistory */\n    tag_58:\n      mstore(0x20, 0x06)\n      dup2\n      0x00\n      mstore\n      keccak256(0x00, 0x40)\n      dup2\n      dup2\n      sload\n      dup2\n      lt\n      tag_185\n      jumpi\n      0x00\n      dup1\n      revert\n    tag_185:\n      swap1\n      0x00\n      mstore\n      keccak256(0x00, 0x20)\n      add\n      0x00\n      swap2\n      pop\n      swap2\n      pop\n      swap1\n      sload\n      swap1\n      0x0100\n      exp\n      swap1\n      div\n      0xffffffffffffffffffffffffffffffffffffffff\n      and\n      dup2\n      jump\t// out\n        /* \"Book.sol\":1035:2164  function addBook(... */\n    tag_65:\n        /* \"Book.sol\":1276:1277  0 */\n      0x00\n        /* \"Book.sol\":1259:1265  _title */\n      dup7\n        /* \"Book.sol\":1253:1273  bytes(_title).length */\n      mload\n        /* \"Book.sol\":1253:1277  bytes(_title).length > 0 */\n      gt\n        /* \"Book.sol\":1245:1304  require(bytes(_title).length > 0, \"Title cannot be empty!\") */\n      tag_188\n      jumpi\n      mload(0x40)\n      0x08c379a000000000000000000000000000000000000000000000000000000000\n      dup2\n      mstore\n      0x04\n      add\n      tag_189\n      swap1\n      tag_190\n      jump\t// in\n    tag_189:\n      mload(0x40)\n      dup1\n      swap2\n      sub\n      swap1\n      revert\n    tag_188:\n        /* \"Book.sol\":1346:1347  0 */\n      0x00\n        /* \"Book.sol\":1328:1335  _author */\n      dup6\n        /* \"Book.sol\":1322:1343  bytes(_author).length */\n      mload\n        /* \"Book.sol\":1322:1347  bytes(_author).length > 0 */\n      gt\n        /* \"Book.sol\":1314:1375  require(bytes(_author).length > 0, \"Author cannot be empty!\") */\n      tag_191\n      jumpi\n      mload(0x40)\n      0x08c379a000000000000000000000000000000000000000000000000000000000\n      dup2\n      mstore\n      0x04\n      add\n      tag_192\n      swap1\n      tag_193\n      jump\t// in\n    tag_192:\n      mload(0x40)\n      dup1\n      swap2\n      sub\n      swap1\n      revert\n    tag_191:\n        /* \"Book.sol\":1416:1417  0 */\n      0x00\n        /* \"Book.sol\":1399:1405  _genre */\n      dup5\n        /* \"Book.sol\":1393:1413  bytes(_genre).length */\n      mload\n        /* \"Book.sol\":1393:1417  bytes(_genre).length > 0 */\n      gt\n        /* \"Book.sol\":1385:1444  require(bytes(_genre).length > 0, \"Genre cannot be empty!\") */\n      tag_194\n      jumpi\n      mload(0x40)\n      0x08c379a000000000000000000000000000000000000000000000000000000000\n      dup2\n      mstore\n      0x04\n      add\n      tag_195\n      swap1\n      tag_196\n      jump\t// in\n    tag_195:\n      mload(0x40)\n      dup1\n      swap2\n      sub\n      swap1\n      revert\n    tag_194:\n        /* \"Book.sol\":1474:1475  0 */\n      0x00\n        /* \"Book.sol\":1462:1471  _quantity */\n      dup4\n        /* \"Book.sol\":1462:1475  _quantity > 0 */\n      gt\n        /* \"Book.sol\":1454:1511  require(_quantity > 0, \"Quantity must be greater than 0\") */\n      tag_197\n      jumpi\n      mload(0x40)\n      0x08c379a000000000000000000000000000000000000000000000000000000000\n      dup2\n      mstore\n      0x04\n      add\n      tag_198\n      swap1\n      tag_199\n      jump\t// in\n    tag_198:\n      mload(0x40)\n      dup1\n      swap2\n      sub\n      swap1\n      revert\n    tag_197:\n        /* \"Book.sol\":1538:1539  0 */\n      0x00\n        /* \"Book.sol\":1529:1535  _price */\n      dup3\n        /* \"Book.sol\":1529:1539  _price > 0 */\n      gt\n        /* \"Book.sol\":1521:1572  require(_price > 0, \"Price must be greater than 0\") */\n      tag_200\n      jumpi\n      mload(0x40)\n      0x08c379a000000000000000000000000000000000000000000000000000000000\n      dup2\n      mstore\n      0x04\n      add\n      tag_201\n      swap1\n      tag_202\n      jump\t// in\n    tag_201:\n      mload(0x40)\n      dup1\n      swap2\n      sub\n      swap1\n      revert\n    tag_200:\n        /* \"Book.sol\":1603:1604  0 */\n      0x00\n        /* \"Book.sol\":1590:1600  _borrowFee */\n      dup2\n        /* \"Book.sol\":1590:1604  _borrowFee > 0 */\n      gt\n        /* \"Book.sol\":1582:1637  require(_borrowFee > 0, \"Price must be greater than 0\") */\n      tag_203\n      jumpi\n      mload(0x40)\n      0x08c379a000000000000000000000000000000000000000000000000000000000\n      dup2\n      mstore\n      0x04\n      add\n      tag_204\n      swap1\n      tag_202\n      jump\t// in\n    tag_204:\n      mload(0x40)\n      dup1\n      swap2\n      sub\n      swap1\n      revert\n    tag_203:\n        /* \"Book.sol\":1648:1659  bytes32 key */\n      0x00\n        /* \"Book.sol\":1689:1695  _title */\n      dup7\n        /* \"Book.sol\":1697:1704  _author */\n      dup7\n        /* \"Book.sol\":1672:1705  abi.encodePacked(_title, _author) */\n      add(0x20, mload(0x40))\n      tag_205\n      swap3\n      swap2\n      swap1\n      tag_206\n      jump\t// in\n    tag_205:\n      mload(0x40)\n      0x20\n      dup2\n      dup4\n      sub\n      sub\n      dup2\n      mstore\n      swap1\n      0x40\n      mstore\n        /* \"Book.sol\":1662:1706  keccak256(abi.encodePacked(_title, _author)) */\n      dup1\n      mload\n      swap1\n      0x20\n      add\n      keccak256\n        /* \"Book.sol\":1648:1706  bytes32 key = keccak256(abi.encodePacked(_title, _author)) */\n      swap1\n      pop\n        /* \"Book.sol\":1725:1734  bookExist */\n      0x05\n        /* \"Book.sol\":1725:1739  bookExist[key] */\n      0x00\n        /* \"Book.sol\":1735:1738  key */\n      dup3\n        /* \"Book.sol\":1725:1739  bookExist[key] */\n      dup2\n      mstore\n      0x20\n      add\n      swap1\n      dup2\n      mstore\n      0x20\n      add\n      0x00\n      keccak256\n      0x00\n      swap1\n      sload\n      swap1\n      0x0100\n      exp\n      swap1\n      div\n      0xff\n      and\n        /* \"Book.sol\":1724:1739  !bookExist[key] */\n      iszero\n        /* \"Book.sol\":1716:1784  require(!bookExist[key], \"This book by this author already exists!\") */\n      tag_207\n      jumpi\n      mload(0x40)\n      0x08c379a000000000000000000000000000000000000000000000000000000000\n      dup2\n      mstore\n      0x04\n      add\n      tag_208\n      swap1\n      tag_209\n      jump\t// in\n    tag_208:\n      mload(0x40)\n      dup1\n      swap2\n      sub\n      swap1\n      revert\n    tag_207:\n        /* \"Book.sol\":1811:1815  true */\n      0x01\n        /* \"Book.sol\":1794:1803  bookExist */\n      0x05\n        /* \"Book.sol\":1794:1808  bookExist[key] */\n      0x00\n        /* \"Book.sol\":1804:1807  key */\n      dup4\n        /* \"Book.sol\":1794:1808  bookExist[key] */\n      dup2\n      mstore\n      0x20\n      add\n      swap1\n      dup2\n      mstore\n      0x20\n      add\n      0x00\n      keccak256\n      0x00\n        /* \"Book.sol\":1794:1815  bookExist[key] = true */\n      0x0100\n      exp\n      dup2\n      sload\n      dup2\n      0xff\n      mul\n      not\n      and\n      swap1\n      dup4\n      iszero\n      iszero\n      mul\n      or\n      swap1\n      sstore\n      pop\n        /* \"Book.sol\":1826:1837  uint256 _ID */\n      0x00\n        /* \"Book.sol\":1861:1862  1 */\n      0x01\n        /* \"Book.sol\":1840:1851  listOfBooks */\n      0x02\n        /* \"Book.sol\":1840:1858  listOfBooks.length */\n      dup1\n      sload\n      swap1\n      pop\n        /* \"Book.sol\":1840:1862  listOfBooks.length + 1 */\n      tag_210\n      swap2\n      swap1\n      tag_211\n      jump\t// in\n    tag_210:\n        /* \"Book.sol\":1826:1862  uint256 _ID = listOfBooks.length + 1 */\n      swap1\n      pop\n        /* \"Book.sol\":1885:2091  Book(... */\n      mload(0x40)\n      dup1\n      0x0120\n      add\n      0x40\n      mstore\n      dup1\n        /* \"Book.sol\":1903:1906  _ID */\n      dup3\n        /* \"Book.sol\":1885:2091  Book(... */\n      dup2\n      mstore\n      0x20\n      add\n        /* \"Book.sol\":1920:1926  _title */\n      dup10\n        /* \"Book.sol\":1885:2091  Book(... */\n      dup2\n      mstore\n      0x20\n      add\n        /* \"Book.sol\":1940:1947  _author */\n      dup9\n        /* \"Book.sol\":1885:2091  Book(... */\n      dup2\n      mstore\n      0x20\n      add\n        /* \"Book.sol\":1961:1967  _genre */\n      dup8\n        /* \"Book.sol\":1885:2091  Book(... */\n      dup2\n      mstore\n      0x20\n      add\n        /* \"Book.sol\":1981:1990  _quantity */\n      dup7\n        /* \"Book.sol\":1885:2091  Book(... */\n      dup2\n      mstore\n      0x20\n      add\n        /* \"Book.sol\":2004:2010  _price */\n      dup6\n        /* \"Book.sol\":1885:2091  Book(... */\n      dup2\n      mstore\n      0x20\n      add\n        /* \"Book.sol\":2024:2034  _borrowFee */\n      dup5\n        /* \"Book.sol\":1885:2091  Book(... */\n      dup2\n      mstore\n      0x20\n      add\n        /* \"Book.sol\":2048:2052  true */\n      0x01\n        /* \"Book.sol\":1885:2091  Book(... */\n      iszero\n      iszero\n      dup2\n      mstore\n      0x20\n      add\n        /* \"Book.sol\":2066:2081  block.timestamp */\n      timestamp\n        /* \"Book.sol\":1885:2091  Book(... */\n      dup2\n      mstore\n      pop\n        /* \"Book.sol\":1872:1877  books */\n      0x04\n        /* \"Book.sol\":1872:1882  books[_ID] */\n      0x00\n        /* \"Book.sol\":1878:1881  _ID */\n      dup4\n        /* \"Book.sol\":1872:1882  books[_ID] */\n      dup2\n      mstore\n      0x20\n      add\n      swap1\n      dup2\n      mstore\n      0x20\n      add\n      0x00\n      keccak256\n        /* \"Book.sol\":1872:2091  books[_ID] = Book(... */\n      0x00\n      dup3\n      add\n      mload\n      dup2\n      0x00\n      add\n      sstore\n      0x20\n      dup3\n      add\n      mload\n      dup2\n      0x01\n      add\n      swap1\n      dup2\n      tag_212\n      swap2\n      swap1\n      tag_213\n      jump\t// in\n    tag_212:\n      pop\n      0x40\n      dup3\n      add\n      mload\n      dup2\n      0x02\n      add\n      swap1\n      dup2\n      tag_214\n      swap2\n      swap1\n      tag_213\n      jump\t// in\n    tag_214:\n      pop\n      0x60\n      dup3\n      add\n      mload\n      dup2\n      0x03\n      add\n      swap1\n      dup2\n      tag_215\n      swap2\n      swap1\n      tag_213\n      jump\t// in\n    tag_215:\n      pop\n      0x80\n      dup3\n      add\n      mload\n      dup2\n      0x04\n      add\n      sstore\n      0xa0\n      dup3\n      add\n      mload\n      dup2\n      0x05\n      add\n      sstore\n      0xc0\n      dup3\n      add\n      mload\n      dup2\n      0x06\n      add\n      sstore\n      0xe0\n      dup3\n      add\n      mload\n      dup2\n      0x07\n      add\n      exp(0x0100, 0x00)\n      dup2\n      sload\n      dup2\n      0xff\n      mul\n      not\n      and\n      swap1\n      dup4\n      iszero\n      iszero\n      mul\n      or\n      swap1\n      sstore\n      pop\n      0x0100\n      dup3\n      add\n      mload\n      dup2\n      0x08\n      add\n      sstore\n      swap1\n      pop\n      pop\n        /* \"Book.sol\":2102:2113  listOfBooks */\n      0x02\n        /* \"Book.sol\":2119:2124  books */\n      0x04\n        /* \"Book.sol\":2119:2129  books[_ID] */\n      0x00\n        /* \"Book.sol\":2125:2128  _ID */\n      dup4\n        /* \"Book.sol\":2119:2129  books[_ID] */\n      dup2\n      mstore\n      0x20\n      add\n      swap1\n      dup2\n      mstore\n      0x20\n      add\n      0x00\n      keccak256\n        /* \"Book.sol\":2102:2130  listOfBooks.push(books[_ID]) */\n      swap1\n      dup1\n      0x01\n      dup2\n      sload\n      add\n      dup1\n      dup3\n      sstore\n      dup1\n      swap2\n      pop\n      pop\n      0x01\n      swap1\n      sub\n      swap1\n      0x00\n      mstore\n      keccak256(0x00, 0x20)\n      swap1\n      0x09\n      mul\n      add\n      0x00\n      swap1\n      swap2\n      swap1\n      swap2\n      swap1\n      swap2\n      pop\n      0x00\n      dup3\n      add\n      sload\n      dup2\n      0x00\n      add\n      sstore\n      0x01\n      dup3\n      add\n      dup2\n      0x01\n      add\n      swap1\n      dup2\n      tag_217\n      swap2\n      swap1\n      tag_218\n      jump\t// in\n    tag_217:\n      pop\n      0x02\n      dup3\n      add\n      dup2\n      0x02\n      add\n      swap1\n      dup2\n      tag_219\n      swap2\n      swap1\n      tag_218\n      jump\t// in\n    tag_219:\n      pop\n      0x03\n      dup3\n      add\n      dup2\n      0x03\n      add\n      swap1\n      dup2\n      tag_220\n      swap2\n      swap1\n      tag_218\n      jump\t// in\n    tag_220:\n      pop\n      0x04\n      dup3\n      add\n      sload\n      dup2\n      0x04\n      add\n      sstore\n      0x05\n      dup3\n      add\n      sload\n      dup2\n      0x05\n      add\n      sstore\n      0x06\n      dup3\n      add\n      sload\n      dup2\n      0x06\n      add\n      sstore\n      0x07\n      dup3\n      add\n      0x00\n      swap1\n      sload\n      swap1\n      0x0100\n      exp\n      swap1\n      div\n      0xff\n      and\n      dup2\n      0x07\n      add\n      exp(0x0100, 0x00)\n      dup2\n      sload\n      dup2\n      0xff\n      mul\n      not\n      and\n      swap1\n      dup4\n      iszero\n      iszero\n      mul\n      or\n      swap1\n      sstore\n      pop\n      0x08\n      dup3\n      add\n      sload\n      dup2\n      0x08\n      add\n      sstore\n      pop\n      pop\n        /* \"Book.sol\":2140:2147  bookIds */\n      0x03\n        /* \"Book.sol\":2153:2156  _ID */\n      dup2\n        /* \"Book.sol\":2140:2157  bookIds.push(_ID) */\n      swap1\n      dup1\n      0x01\n      dup2\n      sload\n      add\n      dup1\n      dup3\n      sstore\n      dup1\n      swap2\n      pop\n      pop\n      0x01\n      swap1\n      sub\n      swap1\n      0x00\n      mstore\n      keccak256(0x00, 0x20)\n      add\n      0x00\n      swap1\n      swap2\n      swap1\n      swap2\n      swap1\n      swap2\n      pop\n      sstore\n        /* \"Book.sol\":1235:2164  {... */\n      pop\n      pop\n        /* \"Book.sol\":1035:2164  function addBook(... */\n      pop\n      pop\n      pop\n      pop\n      pop\n      pop\n      jump\t// out\n        /* \"Book.sol\":398:434  MemberContract public memberContract */\n    tag_68:\n      0x00\n      0x00\n      swap1\n      sload\n      swap1\n      0x0100\n      exp\n      swap1\n      div\n      0xffffffffffffffffffffffffffffffffffffffff\n      and\n      dup2\n      jump\t// out\n        /* \"Book.sol\":2170:2425  function restock(uint256 _ID, uint256 _quantity) public {... */\n    tag_74:\n        /* \"Book.sol\":2256:2257  0 */\n      0x00\n        /* \"Book.sol\":2244:2253  _quantity */\n      dup2\n        /* \"Book.sol\":2244:2257  _quantity > 0 */\n      gt\n        /* \"Book.sol\":2236:2293  require(_quantity > 0, \"Quantity must be greater than 0\") */\n      tag_223\n      jumpi\n      mload(0x40)\n      0x08c379a000000000000000000000000000000000000000000000000000000000\n      dup2\n      mstore\n      0x04\n      add\n      tag_224\n      swap1\n      tag_199\n      jump\t// in\n    tag_224:\n      mload(0x40)\n      dup1\n      swap2\n      sub\n      swap1\n      revert\n    tag_223:\n        /* \"Book.sol\":2304:2321  Book storage book */\n      0x00\n        /* \"Book.sol\":2324:2329  books */\n      0x04\n        /* \"Book.sol\":2324:2334  books[_ID] */\n      0x00\n        /* \"Book.sol\":2330:2333  _ID */\n      dup5\n        /* \"Book.sol\":2324:2334  books[_ID] */\n      dup2\n      mstore\n      0x20\n      add\n      swap1\n      dup2\n      mstore\n      0x20\n      add\n      0x00\n      keccak256\n        /* \"Book.sol\":2304:2334  Book storage book = books[_ID] */\n      swap1\n      pop\n        /* \"Book.sol\":2352:2356  book */\n      dup1\n        /* \"Book.sol\":2352:2363  book.exists */\n      0x07\n      add\n      0x00\n      swap1\n      sload\n      swap1\n      0x0100\n      exp\n      swap1\n      div\n      0xff\n      and\n        /* \"Book.sol\":2344:2382  require(book.exists, \"Book not found\") */\n      tag_225\n      jumpi\n      mload(0x40)\n      0x08c379a000000000000000000000000000000000000000000000000000000000\n      dup2\n      mstore\n      0x04\n      add\n      tag_226\n      swap1\n      tag_99\n      jump\t// in\n    tag_226:\n      mload(0x40)\n      dup1\n      swap2\n      sub\n      swap1\n      revert\n    tag_225:\n        /* \"Book.sol\":2409:2418  _quantity */\n      dup2\n        /* \"Book.sol\":2392:2396  book */\n      dup2\n        /* \"Book.sol\":2392:2405  book.quantity */\n      0x04\n      add\n      0x00\n        /* \"Book.sol\":2392:2418  book.quantity += _quantity */\n      dup3\n      dup3\n      sload\n      tag_227\n      swap2\n      swap1\n      tag_211\n      jump\t// in\n    tag_227:\n      swap3\n      pop\n      pop\n      dup2\n      swap1\n      sstore\n      pop\n        /* \"Book.sol\":2226:2425  {... */\n      pop\n        /* \"Book.sol\":2170:2425  function restock(uint256 _ID, uint256 _quantity) public {... */\n      pop\n      pop\n      jump\t// out\n    tag_95:\n      mload(0x40)\n      dup1\n      0x0120\n      add\n      0x40\n      mstore\n      dup1\n      0x00\n      dup2\n      mstore\n      0x20\n      add\n      0x60\n      dup2\n      mstore\n      0x20\n      add\n      0x60\n      dup2\n      mstore\n      0x20\n      add\n      0x60\n      dup2\n      mstore\n      0x20\n      add\n      0x00\n      dup2\n      mstore\n      0x20\n      add\n      0x00\n      dup2\n      mstore\n      0x20\n      add\n      0x00\n      dup2\n      mstore\n      0x20\n      add\n      iszero(iszero(0x00))\n      dup2\n      mstore\n      0x20\n      add\n      0x00\n      dup2\n      mstore\n      pop\n      swap1\n      jump\t// out\n        /* \"#utility.yul\":7:133   */\n    tag_228:\n        /* \"#utility.yul\":44:51   */\n      0x00\n        /* \"#utility.yul\":84:126   */\n      0xffffffffffffffffffffffffffffffffffffffff\n        /* \"#utility.yul\":77:82   */\n      dup3\n        /* \"#utility.yul\":73:127   */\n      and\n        /* \"#utility.yul\":62:127   */\n      swap1\n      pop\n        /* \"#utility.yul\":7:133   */\n      swap2\n      swap1\n      pop\n      jump\t// out\n        /* \"#utility.yul\":139:243   */\n    tag_229:\n        /* \"#utility.yul\":184:191   */\n      0x00\n        /* \"#utility.yul\":213:237   */\n      tag_322\n        /* \"#utility.yul\":231:236   */\n      dup3\n        /* \"#utility.yul\":213:237   */\n      tag_228\n      jump\t// in\n    tag_322:\n        /* \"#utility.yul\":202:237   */\n      swap1\n      pop\n        /* \"#utility.yul\":139:243   */\n      swap2\n      swap1\n      pop\n      jump\t// out\n        /* \"#utility.yul\":249:391   */\n    tag_230:\n        /* \"#utility.yul\":352:384   */\n      tag_324\n        /* \"#utility.yul\":378:383   */\n      dup2\n        /* \"#utility.yul\":352:384   */\n      tag_229\n      jump\t// in\n    tag_324:\n        /* \"#utility.yul\":347:350   */\n      dup3\n        /* \"#utility.yul\":340:385   */\n      mstore\n        /* \"#utility.yul\":249:391   */\n      pop\n      pop\n      jump\t// out\n        /* \"#utility.yul\":397:651   */\n    tag_19:\n        /* \"#utility.yul\":506:510   */\n      0x00\n        /* \"#utility.yul\":544:546   */\n      0x20\n        /* \"#utility.yul\":533:542   */\n      dup3\n        /* \"#utility.yul\":529:547   */\n      add\n        /* \"#utility.yul\":521:547   */\n      swap1\n      pop\n        /* \"#utility.yul\":557:644   */\n      tag_326\n        /* \"#utility.yul\":641:642   */\n      0x00\n        /* \"#utility.yul\":630:639   */\n      dup4\n        /* \"#utility.yul\":626:643   */\n      add\n        /* \"#utility.yul\":617:623   */\n      dup5\n        /* \"#utility.yul\":557:644   */\n      tag_230\n      jump\t// in\n    tag_326:\n        /* \"#utility.yul\":397:651   */\n      swap3\n      swap2\n      pop\n      pop\n      jump\t// out\n        /* \"#utility.yul\":657:732   */\n    tag_231:\n        /* \"#utility.yul\":690:696   */\n      0x00\n        /* \"#utility.yul\":723:725   */\n      0x40\n        /* \"#utility.yul\":717:726   */\n      mload\n        /* \"#utility.yul\":707:726   */\n      swap1\n      pop\n        /* \"#utility.yul\":657:732   */\n      swap1\n      jump\t// out\n        /* \"#utility.yul\":738:855   */\n    tag_232:\n        /* \"#utility.yul\":847:848   */\n      0x00\n        /* \"#utility.yul\":844:845   */\n      0x00\n        /* \"#utility.yul\":837:849   */\n      revert\n        /* \"#utility.yul\":861:978   */\n    tag_233:\n        /* \"#utility.yul\":970:971   */\n      0x00\n        /* \"#utility.yul\":967:968   */\n      0x00\n        /* \"#utility.yul\":960:972   */\n      revert\n        /* \"#utility.yul\":984:1061   */\n    tag_234:\n        /* \"#utility.yul\":1021:1028   */\n      0x00\n        /* \"#utility.yul\":1050:1055   */\n      dup2\n        /* \"#utility.yul\":1039:1055   */\n      swap1\n      pop\n        /* \"#utility.yul\":984:1061   */\n      swap2\n      swap1\n      pop\n      jump\t// out\n        /* \"#utility.yul\":1067:1189   */\n    tag_235:\n        /* \"#utility.yul\":1140:1164   */\n      tag_332\n        /* \"#utility.yul\":1158:1163   */\n      dup2\n        /* \"#utility.yul\":1140:1164   */\n      tag_234\n      jump\t// in\n    tag_332:\n        /* \"#utility.yul\":1133:1138   */\n      dup2\n        /* \"#utility.yul\":1130:1165   */\n      eq\n        /* \"#utility.yul\":1120:1183   */\n      tag_333\n      jumpi\n        /* \"#utility.yul\":1179:1180   */\n      0x00\n        /* \"#utility.yul\":1176:1177   */\n      0x00\n        /* \"#utility.yul\":1169:1181   */\n      revert\n        /* \"#utility.yul\":1120:1183   */\n    tag_333:\n        /* \"#utility.yul\":1067:1189   */\n      pop\n      jump\t// out\n        /* \"#utility.yul\":1195:1334   */\n    tag_236:\n        /* \"#utility.yul\":1241:1246   */\n      0x00\n        /* \"#utility.yul\":1279:1285   */\n      dup2\n        /* \"#utility.yul\":1266:1286   */\n      calldataload\n        /* \"#utility.yul\":1257:1286   */\n      swap1\n      pop\n        /* \"#utility.yul\":1295:1328   */\n      tag_335\n        /* \"#utility.yul\":1322:1327   */\n      dup2\n        /* \"#utility.yul\":1295:1328   */\n      tag_235\n      jump\t// in\n    tag_335:\n        /* \"#utility.yul\":1195:1334   */\n      swap3\n      swap2\n      pop\n      pop\n      jump\t// out\n        /* \"#utility.yul\":1340:1669   */\n    tag_25:\n        /* \"#utility.yul\":1399:1405   */\n      0x00\n        /* \"#utility.yul\":1448:1450   */\n      0x20\n        /* \"#utility.yul\":1436:1445   */\n      dup3\n        /* \"#utility.yul\":1427:1434   */\n      dup5\n        /* \"#utility.yul\":1423:1446   */\n      sub\n        /* \"#utility.yul\":1419:1451   */\n      slt\n        /* \"#utility.yul\":1416:1535   */\n      iszero\n      tag_337\n      jumpi\n        /* \"#utility.yul\":1454:1533   */\n      tag_338\n      tag_232\n      jump\t// in\n    tag_338:\n        /* \"#utility.yul\":1416:1535   */\n    tag_337:\n        /* \"#utility.yul\":1574:1575   */\n      0x00\n        /* \"#utility.yul\":1599:1652   */\n      tag_339\n        /* \"#utility.yul\":1644:1651   */\n      dup5\n        /* \"#utility.yul\":1635:1641   */\n      dup3\n        /* \"#utility.yul\":1624:1633   */\n      dup6\n        /* \"#utility.yul\":1620:1642   */\n      add\n        /* \"#utility.yul\":1599:1652   */\n      tag_236\n      jump\t// in\n    tag_339:\n        /* \"#utility.yul\":1589:1652   */\n      swap2\n      pop\n        /* \"#utility.yul\":1545:1662   */\n      pop\n        /* \"#utility.yul\":1340:1669   */\n      swap3\n      swap2\n      pop\n      pop\n      jump\t// out\n        /* \"#utility.yul\":1675:1793   */\n    tag_237:\n        /* \"#utility.yul\":1762:1786   */\n      tag_341\n        /* \"#utility.yul\":1780:1785   */\n      dup2\n        /* \"#utility.yul\":1762:1786   */\n      tag_234\n      jump\t// in\n    tag_341:\n        /* \"#utility.yul\":1757:1760   */\n      dup3\n        /* \"#utility.yul\":1750:1787   */\n      mstore\n        /* \"#utility.yul\":1675:1793   */\n      pop\n      pop\n      jump\t// out\n        /* \"#utility.yul\":1799:1898   */\n    tag_238:\n        /* \"#utility.yul\":1851:1857   */\n      0x00\n        /* \"#utility.yul\":1885:1890   */\n      dup2\n        /* \"#utility.yul\":1879:1891   */\n      mload\n        /* \"#utility.yul\":1869:1891   */\n      swap1\n      pop\n        /* \"#utility.yul\":1799:1898   */\n      swap2\n      swap1\n      pop\n      jump\t// out\n        /* \"#utility.yul\":1904:2073   */\n    tag_239:\n        /* \"#utility.yul\":1988:1999   */\n      0x00\n        /* \"#utility.yul\":2022:2028   */\n      dup3\n        /* \"#utility.yul\":2017:2020   */\n      dup3\n        /* \"#utility.yul\":2010:2029   */\n      mstore\n        /* \"#utility.yul\":2062:2066   */\n      0x20\n        /* \"#utility.yul\":2057:2060   */\n      dup3\n        /* \"#utility.yul\":2053:2067   */\n      add\n        /* \"#utility.yul\":2038:2067   */\n      swap1\n      pop\n        /* \"#utility.yul\":1904:2073   */\n      swap3\n      swap2\n      pop\n      pop\n      jump\t// out\n        /* \"#utility.yul\":2079:2218   */\n    tag_240:\n        /* \"#utility.yul\":2168:2174   */\n      dup3\n        /* \"#utility.yul\":2163:2166   */\n      dup2\n        /* \"#utility.yul\":2158:2161   */\n      dup4\n        /* \"#utility.yul\":2152:2175   */\n      mcopy\n        /* \"#utility.yul\":2209:2210   */\n      0x00\n        /* \"#utility.yul\":2200:2206   */\n      dup4\n        /* \"#utility.yul\":2195:2198   */\n      dup4\n        /* \"#utility.yul\":2191:2207   */\n      add\n        /* \"#utility.yul\":2184:2211   */\n      mstore\n        /* \"#utility.yul\":2079:2218   */\n      pop\n      pop\n      pop\n      jump\t// out\n        /* \"#utility.yul\":2224:2326   */\n    tag_241:\n        /* \"#utility.yul\":2265:2271   */\n      0x00\n        /* \"#utility.yul\":2316:2318   */\n      0x1f\n        /* \"#utility.yul\":2312:2319   */\n      not\n        /* \"#utility.yul\":2307:2309   */\n      0x1f\n        /* \"#utility.yul\":2300:2305   */\n      dup4\n        /* \"#utility.yul\":2296:2310   */\n      add\n        /* \"#utility.yul\":2292:2320   */\n      and\n        /* \"#utility.yul\":2282:2320   */\n      swap1\n      pop\n        /* \"#utility.yul\":2224:2326   */\n      swap2\n      swap1\n      pop\n      jump\t// out\n        /* \"#utility.yul\":2332:2709   */\n    tag_242:\n        /* \"#utility.yul\":2420:2423   */\n      0x00\n        /* \"#utility.yul\":2448:2487   */\n      tag_347\n        /* \"#utility.yul\":2481:2486   */\n      dup3\n        /* \"#utility.yul\":2448:2487   */\n      tag_238\n      jump\t// in\n    tag_347:\n        /* \"#utility.yul\":2503:2574   */\n      tag_348\n        /* \"#utility.yul\":2567:2573   */\n      dup2\n        /* \"#utility.yul\":2562:2565   */\n      dup6\n        /* \"#utility.yul\":2503:2574   */\n      tag_239\n      jump\t// in\n    tag_348:\n        /* \"#utility.yul\":2496:2574   */\n      swap4\n      pop\n        /* \"#utility.yul\":2583:2648   */\n      tag_349\n        /* \"#utility.yul\":2641:2647   */\n      dup2\n        /* \"#utility.yul\":2636:2639   */\n      dup6\n        /* \"#utility.yul\":2629:2633   */\n      0x20\n        /* \"#utility.yul\":2622:2627   */\n      dup7\n        /* \"#utility.yul\":2618:2634   */\n      add\n        /* \"#utility.yul\":2583:2648   */\n      tag_240\n      jump\t// in\n    tag_349:\n        /* \"#utility.yul\":2673:2702   */\n      tag_350\n        /* \"#utility.yul\":2695:2701   */\n      dup2\n        /* \"#utility.yul\":2673:2702   */\n      tag_241\n      jump\t// in\n    tag_350:\n        /* \"#utility.yul\":2668:2671   */\n      dup5\n        /* \"#utility.yul\":2664:2703   */\n      add\n        /* \"#utility.yul\":2657:2703   */\n      swap2\n      pop\n        /* \"#utility.yul\":2424:2709   */\n      pop\n        /* \"#utility.yul\":2332:2709   */\n      swap3\n      swap2\n      pop\n      pop\n      jump\t// out\n        /* \"#utility.yul\":2715:2805   */\n    tag_243:\n        /* \"#utility.yul\":2749:2756   */\n      0x00\n        /* \"#utility.yul\":2792:2797   */\n      dup2\n        /* \"#utility.yul\":2785:2798   */\n      iszero\n        /* \"#utility.yul\":2778:2799   */\n      iszero\n        /* \"#utility.yul\":2767:2799   */\n      swap1\n      pop\n        /* \"#utility.yul\":2715:2805   */\n      swap2\n      swap1\n      pop\n      jump\t// out\n        /* \"#utility.yul\":2811:2920   */\n    tag_244:\n        /* \"#utility.yul\":2892:2913   */\n      tag_353\n        /* \"#utility.yul\":2907:2912   */\n      dup2\n        /* \"#utility.yul\":2892:2913   */\n      tag_243\n      jump\t// in\n    tag_353:\n        /* \"#utility.yul\":2887:2890   */\n      dup3\n        /* \"#utility.yul\":2880:2914   */\n      mstore\n        /* \"#utility.yul\":2811:2920   */\n      pop\n      pop\n      jump\t// out\n        /* \"#utility.yul\":2926:4295   */\n    tag_28:\n        /* \"#utility.yul\":3297:3301   */\n      0x00\n        /* \"#utility.yul\":3335:3338   */\n      0x0120\n        /* \"#utility.yul\":3324:3333   */\n      dup3\n        /* \"#utility.yul\":3320:3339   */\n      add\n        /* \"#utility.yul\":3312:3339   */\n      swap1\n      pop\n        /* \"#utility.yul\":3349:3420   */\n      tag_355\n        /* \"#utility.yul\":3417:3418   */\n      0x00\n        /* \"#utility.yul\":3406:3415   */\n      dup4\n        /* \"#utility.yul\":3402:3419   */\n      add\n        /* \"#utility.yul\":3393:3399   */\n      dup13\n        /* \"#utility.yul\":3349:3420   */\n      tag_237\n      jump\t// in\n    tag_355:\n        /* \"#utility.yul\":3467:3476   */\n      dup2\n        /* \"#utility.yul\":3461:3465   */\n      dup2\n        /* \"#utility.yul\":3457:3477   */\n      sub\n        /* \"#utility.yul\":3452:3454   */\n      0x20\n        /* \"#utility.yul\":3441:3450   */\n      dup4\n        /* \"#utility.yul\":3437:3455   */\n      add\n        /* \"#utility.yul\":3430:3478   */\n      mstore\n        /* \"#utility.yul\":3495:3573   */\n      tag_356\n        /* \"#utility.yul\":3568:3572   */\n      dup2\n        /* \"#utility.yul\":3559:3565   */\n      dup12\n        /* \"#utility.yul\":3495:3573   */\n      tag_242\n      jump\t// in\n    tag_356:\n        /* \"#utility.yul\":3487:3573   */\n      swap1\n      pop\n        /* \"#utility.yul\":3620:3629   */\n      dup2\n        /* \"#utility.yul\":3614:3618   */\n      dup2\n        /* \"#utility.yul\":3610:3630   */\n      sub\n        /* \"#utility.yul\":3605:3607   */\n      0x40\n        /* \"#utility.yul\":3594:3603   */\n      dup4\n        /* \"#utility.yul\":3590:3608   */\n      add\n        /* \"#utility.yul\":3583:3631   */\n      mstore\n        /* \"#utility.yul\":3648:3726   */\n      tag_357\n        /* \"#utility.yul\":3721:3725   */\n      dup2\n        /* \"#utility.yul\":3712:3718   */\n      dup11\n        /* \"#utility.yul\":3648:3726   */\n      tag_242\n      jump\t// in\n    tag_357:\n        /* \"#utility.yul\":3640:3726   */\n      swap1\n      pop\n        /* \"#utility.yul\":3773:3782   */\n      dup2\n        /* \"#utility.yul\":3767:3771   */\n      dup2\n        /* \"#utility.yul\":3763:3783   */\n      sub\n        /* \"#utility.yul\":3758:3760   */\n      0x60\n        /* \"#utility.yul\":3747:3756   */\n      dup4\n        /* \"#utility.yul\":3743:3761   */\n      add\n        /* \"#utility.yul\":3736:3784   */\n      mstore\n        /* \"#utility.yul\":3801:3879   */\n      tag_358\n        /* \"#utility.yul\":3874:3878   */\n      dup2\n        /* \"#utility.yul\":3865:3871   */\n      dup10\n        /* \"#utility.yul\":3801:3879   */\n      tag_242\n      jump\t// in\n    tag_358:\n        /* \"#utility.yul\":3793:3879   */\n      swap1\n      pop\n        /* \"#utility.yul\":3889:3962   */\n      tag_359\n        /* \"#utility.yul\":3957:3960   */\n      0x80\n        /* \"#utility.yul\":3946:3955   */\n      dup4\n        /* \"#utility.yul\":3942:3961   */\n      add\n        /* \"#utility.yul\":3933:3939   */\n      dup9\n        /* \"#utility.yul\":3889:3962   */\n      tag_237\n      jump\t// in\n    tag_359:\n        /* \"#utility.yul\":3972:4045   */\n      tag_360\n        /* \"#utility.yul\":4040:4043   */\n      0xa0\n        /* \"#utility.yul\":4029:4038   */\n      dup4\n        /* \"#utility.yul\":4025:4044   */\n      add\n        /* \"#utility.yul\":4016:4022   */\n      dup8\n        /* \"#utility.yul\":3972:4045   */\n      tag_237\n      jump\t// in\n    tag_360:\n        /* \"#utility.yul\":4055:4128   */\n      tag_361\n        /* \"#utility.yul\":4123:4126   */\n      0xc0\n        /* \"#utility.yul\":4112:4121   */\n      dup4\n        /* \"#utility.yul\":4108:4127   */\n      add\n        /* \"#utility.yul\":4099:4105   */\n      dup7\n        /* \"#utility.yul\":4055:4128   */\n      tag_237\n      jump\t// in\n    tag_361:\n        /* \"#utility.yul\":4138:4205   */\n      tag_362\n        /* \"#utility.yul\":4200:4203   */\n      0xe0\n        /* \"#utility.yul\":4189:4198   */\n      dup4\n        /* \"#utility.yul\":4185:4204   */\n      add\n        /* \"#utility.yul\":4176:4182   */\n      dup6\n        /* \"#utility.yul\":4138:4205   */\n      tag_244\n      jump\t// in\n    tag_362:\n        /* \"#utility.yul\":4215:4288   */\n      tag_363\n        /* \"#utility.yul\":4283:4286   */\n      0x0100\n        /* \"#utility.yul\":4272:4281   */\n      dup4\n        /* \"#utility.yul\":4268:4287   */\n      add\n        /* \"#utility.yul\":4259:4265   */\n      dup5\n        /* \"#utility.yul\":4215:4288   */\n      tag_237\n      jump\t// in\n    tag_363:\n        /* \"#utility.yul\":2926:4295   */\n      swap11\n      swap10\n      pop\n      pop\n      pop\n      pop\n      pop\n      pop\n      pop\n      pop\n      pop\n      pop\n      jump\t// out\n        /* \"#utility.yul\":4301:4409   */\n    tag_245:\n        /* \"#utility.yul\":4378:4402   */\n      tag_365\n        /* \"#utility.yul\":4396:4401   */\n      dup2\n        /* \"#utility.yul\":4378:4402   */\n      tag_234\n      jump\t// in\n    tag_365:\n        /* \"#utility.yul\":4373:4376   */\n      dup3\n        /* \"#utility.yul\":4366:4403   */\n      mstore\n        /* \"#utility.yul\":4301:4409   */\n      pop\n      pop\n      jump\t// out\n        /* \"#utility.yul\":4415:4574   */\n    tag_246:\n        /* \"#utility.yul\":4489:4500   */\n      0x00\n        /* \"#utility.yul\":4523:4529   */\n      dup3\n        /* \"#utility.yul\":4518:4521   */\n      dup3\n        /* \"#utility.yul\":4511:4530   */\n      mstore\n        /* \"#utility.yul\":4563:4567   */\n      0x20\n        /* \"#utility.yul\":4558:4561   */\n      dup3\n        /* \"#utility.yul\":4554:4568   */\n      add\n        /* \"#utility.yul\":4539:4568   */\n      swap1\n      pop\n        /* \"#utility.yul\":4415:4574   */\n      swap3\n      swap2\n      pop\n      pop\n      jump\t// out\n        /* \"#utility.yul\":4580:4937   */\n    tag_247:\n        /* \"#utility.yul\":4658:4661   */\n      0x00\n        /* \"#utility.yul\":4686:4725   */\n      tag_368\n        /* \"#utility.yul\":4719:4724   */\n      dup3\n        /* \"#utility.yul\":4686:4725   */\n      tag_238\n      jump\t// in\n    tag_368:\n        /* \"#utility.yul\":4741:4802   */\n      tag_369\n        /* \"#utility.yul\":4795:4801   */\n      dup2\n        /* \"#utility.yul\":4790:4793   */\n      dup6\n        /* \"#utility.yul\":4741:4802   */\n      tag_246\n      jump\t// in\n    tag_369:\n        /* \"#utility.yul\":4734:4802   */\n      swap4\n      pop\n        /* \"#utility.yul\":4811:4876   */\n      tag_370\n        /* \"#utility.yul\":4869:4875   */\n      dup2\n        /* \"#utility.yul\":4864:4867   */\n      dup6\n        /* \"#utility.yul\":4857:4861   */\n      0x20\n        /* \"#utility.yul\":4850:4855   */\n      dup7\n        /* \"#utility.yul\":4846:4862   */\n      add\n        /* \"#utility.yul\":4811:4876   */\n      tag_240\n      jump\t// in\n    tag_370:\n        /* \"#utility.yul\":4901:4930   */\n      tag_371\n        /* \"#utility.yul\":4923:4929   */\n      dup2\n        /* \"#utility.yul\":4901:4930   */\n      tag_241\n      jump\t// in\n    tag_371:\n        /* \"#utility.yul\":4896:4899   */\n      dup5\n        /* \"#utility.yul\":4892:4931   */\n      add\n        /* \"#utility.yul\":4885:4931   */\n      swap2\n      pop\n        /* \"#utility.yul\":4662:4937   */\n      pop\n        /* \"#utility.yul\":4580:4937   */\n      swap3\n      swap2\n      pop\n      pop\n      jump\t// out\n        /* \"#utility.yul\":4943:5042   */\n    tag_248:\n        /* \"#utility.yul\":5014:5035   */\n      tag_373\n        /* \"#utility.yul\":5029:5034   */\n      dup2\n        /* \"#utility.yul\":5014:5035   */\n      tag_243\n      jump\t// in\n    tag_373:\n        /* \"#utility.yul\":5009:5012   */\n      dup3\n        /* \"#utility.yul\":5002:5036   */\n      mstore\n        /* \"#utility.yul\":4943:5042   */\n      pop\n      pop\n      jump\t// out\n        /* \"#utility.yul\":5108:7078   */\n    tag_249:\n        /* \"#utility.yul\":5217:5220   */\n      0x00\n        /* \"#utility.yul\":5253:5259   */\n      0x0120\n        /* \"#utility.yul\":5248:5251   */\n      dup4\n        /* \"#utility.yul\":5244:5260   */\n      add\n        /* \"#utility.yul\":5340:5344   */\n      0x00\n        /* \"#utility.yul\":5333:5338   */\n      dup4\n        /* \"#utility.yul\":5329:5345   */\n      add\n        /* \"#utility.yul\":5323:5346   */\n      mload\n        /* \"#utility.yul\":5359:5422   */\n      tag_375\n        /* \"#utility.yul\":5416:5420   */\n      0x00\n        /* \"#utility.yul\":5411:5414   */\n      dup7\n        /* \"#utility.yul\":5407:5421   */\n      add\n        /* \"#utility.yul\":5393:5405   */\n      dup3\n        /* \"#utility.yul\":5359:5422   */\n      tag_245\n      jump\t// in\n    tag_375:\n        /* \"#utility.yul\":5270:5432   */\n      pop\n        /* \"#utility.yul\":5515:5519   */\n      0x20\n        /* \"#utility.yul\":5508:5513   */\n      dup4\n        /* \"#utility.yul\":5504:5520   */\n      add\n        /* \"#utility.yul\":5498:5521   */\n      mload\n        /* \"#utility.yul\":5568:5571   */\n      dup5\n        /* \"#utility.yul\":5562:5566   */\n      dup3\n        /* \"#utility.yul\":5558:5572   */\n      sub\n        /* \"#utility.yul\":5551:5555   */\n      0x20\n        /* \"#utility.yul\":5546:5549   */\n      dup7\n        /* \"#utility.yul\":5542:5556   */\n      add\n        /* \"#utility.yul\":5535:5573   */\n      mstore\n        /* \"#utility.yul\":5594:5667   */\n      tag_376\n        /* \"#utility.yul\":5662:5666   */\n      dup3\n        /* \"#utility.yul\":5648:5660   */\n      dup3\n        /* \"#utility.yul\":5594:5667   */\n      tag_247\n      jump\t// in\n    tag_376:\n        /* \"#utility.yul\":5586:5667   */\n      swap2\n      pop\n        /* \"#utility.yul\":5442:5678   */\n      pop\n        /* \"#utility.yul\":5762:5766   */\n      0x40\n        /* \"#utility.yul\":5755:5760   */\n      dup4\n        /* \"#utility.yul\":5751:5767   */\n      add\n        /* \"#utility.yul\":5745:5768   */\n      mload\n        /* \"#utility.yul\":5815:5818   */\n      dup5\n        /* \"#utility.yul\":5809:5813   */\n      dup3\n        /* \"#utility.yul\":5805:5819   */\n      sub\n        /* \"#utility.yul\":5798:5802   */\n      0x40\n        /* \"#utility.yul\":5793:5796   */\n      dup7\n        /* \"#utility.yul\":5789:5803   */\n      add\n        /* \"#utility.yul\":5782:5820   */\n      mstore\n        /* \"#utility.yul\":5841:5914   */\n      tag_377\n        /* \"#utility.yul\":5909:5913   */\n      dup3\n        /* \"#utility.yul\":5895:5907   */\n      dup3\n        /* \"#utility.yul\":5841:5914   */\n      tag_247\n      jump\t// in\n    tag_377:\n        /* \"#utility.yul\":5833:5914   */\n      swap2\n      pop\n        /* \"#utility.yul\":5688:5925   */\n      pop\n        /* \"#utility.yul\":6008:6012   */\n      0x60\n        /* \"#utility.yul\":6001:6006   */\n      dup4\n        /* \"#utility.yul\":5997:6013   */\n      add\n        /* \"#utility.yul\":5991:6014   */\n      mload\n        /* \"#utility.yul\":6061:6064   */\n      dup5\n        /* \"#utility.yul\":6055:6059   */\n      dup3\n        /* \"#utility.yul\":6051:6065   */\n      sub\n        /* \"#utility.yul\":6044:6048   */\n      0x60\n        /* \"#utility.yul\":6039:6042   */\n      dup7\n        /* \"#utility.yul\":6035:6049   */\n      add\n        /* \"#utility.yul\":6028:6066   */\n      mstore\n        /* \"#utility.yul\":6087:6160   */\n      tag_378\n        /* \"#utility.yul\":6155:6159   */\n      dup3\n        /* \"#utility.yul\":6141:6153   */\n      dup3\n        /* \"#utility.yul\":6087:6160   */\n      tag_247\n      jump\t// in\n    tag_378:\n        /* \"#utility.yul\":6079:6160   */\n      swap2\n      pop\n        /* \"#utility.yul\":5935:6171   */\n      pop\n        /* \"#utility.yul\":6257:6261   */\n      0x80\n        /* \"#utility.yul\":6250:6255   */\n      dup4\n        /* \"#utility.yul\":6246:6262   */\n      add\n        /* \"#utility.yul\":6240:6263   */\n      mload\n        /* \"#utility.yul\":6276:6339   */\n      tag_379\n        /* \"#utility.yul\":6333:6337   */\n      0x80\n        /* \"#utility.yul\":6328:6331   */\n      dup7\n        /* \"#utility.yul\":6324:6338   */\n      add\n        /* \"#utility.yul\":6310:6322   */\n      dup3\n        /* \"#utility.yul\":6276:6339   */\n      tag_245\n      jump\t// in\n    tag_379:\n        /* \"#utility.yul\":6181:6349   */\n      pop\n        /* \"#utility.yul\":6432:6436   */\n      0xa0\n        /* \"#utility.yul\":6425:6430   */\n      dup4\n        /* \"#utility.yul\":6421:6437   */\n      add\n        /* \"#utility.yul\":6415:6438   */\n      mload\n        /* \"#utility.yul\":6451:6514   */\n      tag_380\n        /* \"#utility.yul\":6508:6512   */\n      0xa0\n        /* \"#utility.yul\":6503:6506   */\n      dup7\n        /* \"#utility.yul\":6499:6513   */\n      add\n        /* \"#utility.yul\":6485:6497   */\n      dup3\n        /* \"#utility.yul\":6451:6514   */\n      tag_245\n      jump\t// in\n    tag_380:\n        /* \"#utility.yul\":6359:6524   */\n      pop\n        /* \"#utility.yul\":6611:6615   */\n      0xc0\n        /* \"#utility.yul\":6604:6609   */\n      dup4\n        /* \"#utility.yul\":6600:6616   */\n      add\n        /* \"#utility.yul\":6594:6617   */\n      mload\n        /* \"#utility.yul\":6630:6693   */\n      tag_381\n        /* \"#utility.yul\":6687:6691   */\n      0xc0\n        /* \"#utility.yul\":6682:6685   */\n      dup7\n        /* \"#utility.yul\":6678:6692   */\n      add\n        /* \"#utility.yul\":6664:6676   */\n      dup3\n        /* \"#utility.yul\":6630:6693   */\n      tag_245\n      jump\t// in\n    tag_381:\n        /* \"#utility.yul\":6534:6703   */\n      pop\n        /* \"#utility.yul\":6787:6791   */\n      0xe0\n        /* \"#utility.yul\":6780:6785   */\n      dup4\n        /* \"#utility.yul\":6776:6792   */\n      add\n        /* \"#utility.yul\":6770:6793   */\n      mload\n        /* \"#utility.yul\":6806:6863   */\n      tag_382\n        /* \"#utility.yul\":6857:6861   */\n      0xe0\n        /* \"#utility.yul\":6852:6855   */\n      dup7\n        /* \"#utility.yul\":6848:6862   */\n      add\n        /* \"#utility.yul\":6834:6846   */\n      dup3\n        /* \"#utility.yul\":6806:6863   */\n      tag_248\n      jump\t// in\n    tag_382:\n        /* \"#utility.yul\":6713:6873   */\n      pop\n        /* \"#utility.yul\":6955:6961   */\n      0x0100\n        /* \"#utility.yul\":6948:6953   */\n      dup4\n        /* \"#utility.yul\":6944:6962   */\n      add\n        /* \"#utility.yul\":6938:6963   */\n      mload\n        /* \"#utility.yul\":6976:7041   */\n      tag_383\n        /* \"#utility.yul\":7033:7039   */\n      0x0100\n        /* \"#utility.yul\":7028:7031   */\n      dup7\n        /* \"#utility.yul\":7024:7040   */\n      add\n        /* \"#utility.yul\":7010:7022   */\n      dup3\n        /* \"#utility.yul\":6976:7041   */\n      tag_245\n      jump\t// in\n    tag_383:\n        /* \"#utility.yul\":6883:7051   */\n      pop\n        /* \"#utility.yul\":7068:7072   */\n      dup1\n        /* \"#utility.yul\":7061:7072   */\n      swap2\n      pop\n        /* \"#utility.yul\":5222:7078   */\n      pop\n        /* \"#utility.yul\":5108:7078   */\n      swap3\n      swap2\n      pop\n      pop\n      jump\t// out\n        /* \"#utility.yul\":7084:7437   */\n    tag_34:\n        /* \"#utility.yul\":7217:7221   */\n      0x00\n        /* \"#utility.yul\":7255:7257   */\n      0x20\n        /* \"#utility.yul\":7244:7253   */\n      dup3\n        /* \"#utility.yul\":7240:7258   */\n      add\n        /* \"#utility.yul\":7232:7258   */\n      swap1\n      pop\n        /* \"#utility.yul\":7304:7313   */\n      dup2\n        /* \"#utility.yul\":7298:7302   */\n      dup2\n        /* \"#utility.yul\":7294:7314   */\n      sub\n        /* \"#utility.yul\":7290:7291   */\n      0x00\n        /* \"#utility.yul\":7279:7288   */\n      dup4\n        /* \"#utility.yul\":7275:7292   */\n      add\n        /* \"#utility.yul\":7268:7315   */\n      mstore\n        /* \"#utility.yul\":7332:7430   */\n      tag_385\n        /* \"#utility.yul\":7425:7429   */\n      dup2\n        /* \"#utility.yul\":7416:7422   */\n      dup5\n        /* \"#utility.yul\":7332:7430   */\n      tag_249\n      jump\t// in\n    tag_385:\n        /* \"#utility.yul\":7324:7430   */\n      swap1\n      pop\n        /* \"#utility.yul\":7084:7437   */\n      swap3\n      swap2\n      pop\n      pop\n      jump\t// out\n        /* \"#utility.yul\":7443:7665   */\n    tag_40:\n        /* \"#utility.yul\":7536:7540   */\n      0x00\n        /* \"#utility.yul\":7574:7576   */\n      0x20\n        /* \"#utility.yul\":7563:7572   */\n      dup3\n        /* \"#utility.yul\":7559:7577   */\n      add\n        /* \"#utility.yul\":7551:7577   */\n      swap1\n      pop\n        /* \"#utility.yul\":7587:7658   */\n      tag_387\n        /* \"#utility.yul\":7655:7656   */\n      0x00\n        /* \"#utility.yul\":7644:7653   */\n      dup4\n        /* \"#utility.yul\":7640:7657   */\n      add\n        /* \"#utility.yul\":7631:7637   */\n      dup5\n        /* \"#utility.yul\":7587:7658   */\n      tag_237\n      jump\t// in\n    tag_387:\n        /* \"#utility.yul\":7443:7665   */\n      swap3\n      swap2\n      pop\n      pop\n      jump\t// out\n        /* \"#utility.yul\":7671:7805   */\n    tag_250:\n        /* \"#utility.yul\":7758:7764   */\n      0x00\n        /* \"#utility.yul\":7792:7797   */\n      dup2\n        /* \"#utility.yul\":7786:7798   */\n      mload\n        /* \"#utility.yul\":7776:7798   */\n      swap1\n      pop\n        /* \"#utility.yul\":7671:7805   */\n      swap2\n      swap1\n      pop\n      jump\t// out\n        /* \"#utility.yul\":7811:8015   */\n    tag_251:\n        /* \"#utility.yul\":7930:7941   */\n      0x00\n        /* \"#utility.yul\":7964:7970   */\n      dup3\n        /* \"#utility.yul\":7959:7962   */\n      dup3\n        /* \"#utility.yul\":7952:7971   */\n      mstore\n        /* \"#utility.yul\":8004:8008   */\n      0x20\n        /* \"#utility.yul\":7999:8002   */\n      dup3\n        /* \"#utility.yul\":7995:8009   */\n      add\n        /* \"#utility.yul\":7980:8009   */\n      swap1\n      pop\n        /* \"#utility.yul\":7811:8015   */\n      swap3\n      swap2\n      pop\n      pop\n      jump\t// out\n        /* \"#utility.yul\":8021:8173   */\n    tag_252:\n        /* \"#utility.yul\":8108:8112   */\n      0x00\n        /* \"#utility.yul\":8131:8134   */\n      dup2\n        /* \"#utility.yul\":8123:8134   */\n      swap1\n      pop\n        /* \"#utility.yul\":8161:8165   */\n      0x20\n        /* \"#utility.yul\":8156:8159   */\n      dup3\n        /* \"#utility.yul\":8152:8166   */\n      add\n        /* \"#utility.yul\":8144:8166   */\n      swap1\n      pop\n        /* \"#utility.yul\":8021:8173   */\n      swap2\n      swap1\n      pop\n      jump\t// out\n        /* \"#utility.yul\":8239:10199   */\n    tag_253:\n        /* \"#utility.yul\":8338:8341   */\n      0x00\n        /* \"#utility.yul\":8374:8380   */\n      0x0120\n        /* \"#utility.yul\":8369:8372   */\n      dup4\n        /* \"#utility.yul\":8365:8381   */\n      add\n        /* \"#utility.yul\":8461:8465   */\n      0x00\n        /* \"#utility.yul\":8454:8459   */\n      dup4\n        /* \"#utility.yul\":8450:8466   */\n      add\n        /* \"#utility.yul\":8444:8467   */\n      mload\n        /* \"#utility.yul\":8480:8543   */\n      tag_392\n        /* \"#utility.yul\":8537:8541   */\n      0x00\n        /* \"#utility.yul\":8532:8535   */\n      dup7\n        /* \"#utility.yul\":8528:8542   */\n      add\n        /* \"#utility.yul\":8514:8526   */\n      dup3\n        /* \"#utility.yul\":8480:8543   */\n      tag_245\n      jump\t// in\n    tag_392:\n        /* \"#utility.yul\":8391:8553   */\n      pop\n        /* \"#utility.yul\":8636:8640   */\n      0x20\n        /* \"#utility.yul\":8629:8634   */\n      dup4\n        /* \"#utility.yul\":8625:8641   */\n      add\n        /* \"#utility.yul\":8619:8642   */\n      mload\n        /* \"#utility.yul\":8689:8692   */\n      dup5\n        /* \"#utility.yul\":8683:8687   */\n      dup3\n        /* \"#utility.yul\":8679:8693   */\n      sub\n        /* \"#utility.yul\":8672:8676   */\n      0x20\n        /* \"#utility.yul\":8667:8670   */\n      dup7\n        /* \"#utility.yul\":8663:8677   */\n      add\n        /* \"#utility.yul\":8656:8694   */\n      mstore\n        /* \"#utility.yul\":8715:8788   */\n      tag_393\n        /* \"#utility.yul\":8783:8787   */\n      dup3\n        /* \"#utility.yul\":8769:8781   */\n      dup3\n        /* \"#utility.yul\":8715:8788   */\n      tag_247\n      jump\t// in\n    tag_393:\n        /* \"#utility.yul\":8707:8788   */\n      swap2\n      pop\n        /* \"#utility.yul\":8563:8799   */\n      pop\n        /* \"#utility.yul\":8883:8887   */\n      0x40\n        /* \"#utility.yul\":8876:8881   */\n      dup4\n        /* \"#utility.yul\":8872:8888   */\n      add\n        /* \"#utility.yul\":8866:8889   */\n      mload\n        /* \"#utility.yul\":8936:8939   */\n      dup5\n        /* \"#utility.yul\":8930:8934   */\n      dup3\n        /* \"#utility.yul\":8926:8940   */\n      sub\n        /* \"#utility.yul\":8919:8923   */\n      0x40\n        /* \"#utility.yul\":8914:8917   */\n      dup7\n        /* \"#utility.yul\":8910:8924   */\n      add\n        /* \"#utility.yul\":8903:8941   */\n      mstore\n        /* \"#utility.yul\":8962:9035   */\n      tag_394\n        /* \"#utility.yul\":9030:9034   */\n      dup3\n        /* \"#utility.yul\":9016:9028   */\n      dup3\n        /* \"#utility.yul\":8962:9035   */\n      tag_247\n      jump\t// in\n    tag_394:\n        /* \"#utility.yul\":8954:9035   */\n      swap2\n      pop\n        /* \"#utility.yul\":8809:9046   */\n      pop\n        /* \"#utility.yul\":9129:9133   */\n      0x60\n        /* \"#utility.yul\":9122:9127   */\n      dup4\n        /* \"#utility.yul\":9118:9134   */\n      add\n        /* \"#utility.yul\":9112:9135   */\n      mload\n        /* \"#utility.yul\":9182:9185   */\n      dup5\n        /* \"#utility.yul\":9176:9180   */\n      dup3\n        /* \"#utility.yul\":9172:9186   */\n      sub\n        /* \"#utility.yul\":9165:9169   */\n      0x60\n        /* \"#utility.yul\":9160:9163   */\n      dup7\n        /* \"#utility.yul\":9156:9170   */\n      add\n        /* \"#utility.yul\":9149:9187   */\n      mstore\n        /* \"#utility.yul\":9208:9281   */\n      tag_395\n        /* \"#utility.yul\":9276:9280   */\n      dup3\n        /* \"#utility.yul\":9262:9274   */\n      dup3\n        /* \"#utility.yul\":9208:9281   */\n      tag_247\n      jump\t// in\n    tag_395:\n        /* \"#utility.yul\":9200:9281   */\n      swap2\n      pop\n        /* \"#utility.yul\":9056:9292   */\n      pop\n        /* \"#utility.yul\":9378:9382   */\n      0x80\n        /* \"#utility.yul\":9371:9376   */\n      dup4\n        /* \"#utility.yul\":9367:9383   */\n      add\n        /* \"#utility.yul\":9361:9384   */\n      mload\n        /* \"#utility.yul\":9397:9460   */\n      tag_396\n        /* \"#utility.yul\":9454:9458   */\n      0x80\n        /* \"#utility.yul\":9449:9452   */\n      dup7\n        /* \"#utility.yul\":9445:9459   */\n      add\n        /* \"#utility.yul\":9431:9443   */\n      dup3\n        /* \"#utility.yul\":9397:9460   */\n      tag_245\n      jump\t// in\n    tag_396:\n        /* \"#utility.yul\":9302:9470   */\n      pop\n        /* \"#utility.yul\":9553:9557   */\n      0xa0\n        /* \"#utility.yul\":9546:9551   */\n      dup4\n        /* \"#utility.yul\":9542:9558   */\n      add\n        /* \"#utility.yul\":9536:9559   */\n      mload\n        /* \"#utility.yul\":9572:9635   */\n      tag_397\n        /* \"#utility.yul\":9629:9633   */\n      0xa0\n        /* \"#utility.yul\":9624:9627   */\n      dup7\n        /* \"#utility.yul\":9620:9634   */\n      add\n        /* \"#utility.yul\":9606:9618   */\n      dup3\n        /* \"#utility.yul\":9572:9635   */\n      tag_245\n      jump\t// in\n    tag_397:\n        /* \"#utility.yul\":9480:9645   */\n      pop\n        /* \"#utility.yul\":9732:9736   */\n      0xc0\n        /* \"#utility.yul\":9725:9730   */\n      dup4\n        /* \"#utility.yul\":9721:9737   */\n      add\n        /* \"#utility.yul\":9715:9738   */\n      mload\n        /* \"#utility.yul\":9751:9814   */\n      tag_398\n        /* \"#utility.yul\":9808:9812   */\n      0xc0\n        /* \"#utility.yul\":9803:9806   */\n      dup7\n        /* \"#utility.yul\":9799:9813   */\n      add\n        /* \"#utility.yul\":9785:9797   */\n      dup3\n        /* \"#utility.yul\":9751:9814   */\n      tag_245\n      jump\t// in\n    tag_398:\n        /* \"#utility.yul\":9655:9824   */\n      pop\n        /* \"#utility.yul\":9908:9912   */\n      0xe0\n        /* \"#utility.yul\":9901:9906   */\n      dup4\n        /* \"#utility.yul\":9897:9913   */\n      add\n        /* \"#utility.yul\":9891:9914   */\n      mload\n        /* \"#utility.yul\":9927:9984   */\n      tag_399\n        /* \"#utility.yul\":9978:9982   */\n      0xe0\n        /* \"#utility.yul\":9973:9976   */\n      dup7\n        /* \"#utility.yul\":9969:9983   */\n      add\n        /* \"#utility.yul\":9955:9967   */\n      dup3\n        /* \"#utility.yul\":9927:9984   */\n      tag_248\n      jump\t// in\n    tag_399:\n        /* \"#utility.yul\":9834:9994   */\n      pop\n        /* \"#utility.yul\":10076:10082   */\n      0x0100\n        /* \"#utility.yul\":10069:10074   */\n      dup4\n        /* \"#utility.yul\":10065:10083   */\n      add\n        /* \"#utility.yul\":10059:10084   */\n      mload\n        /* \"#utility.yul\":10097:10162   */\n      tag_400\n        /* \"#utility.yul\":10154:10160   */\n      0x0100\n        /* \"#utility.yul\":10149:10152   */\n      dup7\n        /* \"#utility.yul\":10145:10161   */\n      add\n        /* \"#utility.yul\":10131:10143   */\n      dup3\n        /* \"#utility.yul\":10097:10162   */\n      tag_245\n      jump\t// in\n    tag_400:\n        /* \"#utility.yul\":10004:10172   */\n      pop\n        /* \"#utility.yul\":10189:10193   */\n      dup1\n        /* \"#utility.yul\":10182:10193   */\n      swap2\n      pop\n        /* \"#utility.yul\":8343:10199   */\n      pop\n        /* \"#utility.yul\":8239:10199   */\n      swap3\n      swap2\n      pop\n      pop\n      jump\t// out\n        /* \"#utility.yul\":10205:10441   */\n    tag_254:\n        /* \"#utility.yul\":10314:10324   */\n      0x00\n        /* \"#utility.yul\":10349:10435   */\n      tag_402\n        /* \"#utility.yul\":10431:10434   */\n      dup4\n        /* \"#utility.yul\":10423:10429   */\n      dup4\n        /* \"#utility.yul\":10349:10435   */\n      tag_253\n      jump\t// in\n    tag_402:\n        /* \"#utility.yul\":10335:10435   */\n      swap1\n      pop\n        /* \"#utility.yul\":10205:10441   */\n      swap3\n      swap2\n      pop\n      pop\n      jump\t// out\n        /* \"#utility.yul\":10447:10580   */\n    tag_255:\n        /* \"#utility.yul\":10537:10541   */\n      0x00\n        /* \"#utility.yul\":10569:10573   */\n      0x20\n        /* \"#utility.yul\":10564:10567   */\n      dup3\n        /* \"#utility.yul\":10560:10574   */\n      add\n        /* \"#utility.yul\":10552:10574   */\n      swap1\n      pop\n        /* \"#utility.yul\":10447:10580   */\n      swap2\n      swap1\n      pop\n      jump\t// out\n        /* \"#utility.yul\":10650:11721   */\n    tag_256:\n        /* \"#utility.yul\":10809:10812   */\n      0x00\n        /* \"#utility.yul\":10838:10912   */\n      tag_405\n        /* \"#utility.yul\":10906:10911   */\n      dup3\n        /* \"#utility.yul\":10838:10912   */\n      tag_250\n      jump\t// in\n    tag_405:\n        /* \"#utility.yul\":10928:11034   */\n      tag_406\n        /* \"#utility.yul\":11027:11033   */\n      dup2\n        /* \"#utility.yul\":11022:11025   */\n      dup6\n        /* \"#utility.yul\":10928:11034   */\n      tag_251\n      jump\t// in\n    tag_406:\n        /* \"#utility.yul\":10921:11034   */\n      swap4\n      pop\n        /* \"#utility.yul\":11060:11063   */\n      dup4\n        /* \"#utility.yul\":11105:11109   */\n      0x20\n        /* \"#utility.yul\":11097:11103   */\n      dup3\n        /* \"#utility.yul\":11093:11110   */\n      mul\n        /* \"#utility.yul\":11088:11091   */\n      dup6\n        /* \"#utility.yul\":11084:11111   */\n      add\n        /* \"#utility.yul\":11135:11211   */\n      tag_407\n        /* \"#utility.yul\":11205:11210   */\n      dup6\n        /* \"#utility.yul\":11135:11211   */\n      tag_252\n      jump\t// in\n    tag_407:\n        /* \"#utility.yul\":11234:11241   */\n      dup1\n        /* \"#utility.yul\":11265:11266   */\n      0x00\n        /* \"#utility.yul\":11250:11676   */\n    tag_408:\n        /* \"#utility.yul\":11275:11281   */\n      dup6\n        /* \"#utility.yul\":11272:11273   */\n      dup2\n        /* \"#utility.yul\":11269:11282   */\n      lt\n        /* \"#utility.yul\":11250:11676   */\n      iszero\n      tag_410\n      jumpi\n        /* \"#utility.yul\":11346:11355   */\n      dup5\n        /* \"#utility.yul\":11340:11344   */\n      dup5\n        /* \"#utility.yul\":11336:11356   */\n      sub\n        /* \"#utility.yul\":11331:11334   */\n      dup10\n        /* \"#utility.yul\":11324:11357   */\n      mstore\n        /* \"#utility.yul\":11397:11403   */\n      dup2\n        /* \"#utility.yul\":11391:11404   */\n      mload\n        /* \"#utility.yul\":11425:11529   */\n      tag_411\n        /* \"#utility.yul\":11524:11528   */\n      dup6\n        /* \"#utility.yul\":11509:11522   */\n      dup3\n        /* \"#utility.yul\":11425:11529   */\n      tag_254\n      jump\t// in\n    tag_411:\n        /* \"#utility.yul\":11417:11529   */\n      swap5\n      pop\n        /* \"#utility.yul\":11552:11632   */\n      tag_412\n        /* \"#utility.yul\":11625:11631   */\n      dup4\n        /* \"#utility.yul\":11552:11632   */\n      tag_255\n      jump\t// in\n    tag_412:\n        /* \"#utility.yul\":11542:11632   */\n      swap3\n      pop\n        /* \"#utility.yul\":11661:11665   */\n      0x20\n        /* \"#utility.yul\":11656:11659   */\n      dup11\n        /* \"#utility.yul\":11652:11666   */\n      add\n        /* \"#utility.yul\":11645:11666   */\n      swap10\n      pop\n        /* \"#utility.yul\":11310:11676   */\n      pop\n        /* \"#utility.yul\":11297:11298   */\n      0x01\n        /* \"#utility.yul\":11294:11295   */\n      dup2\n        /* \"#utility.yul\":11290:11299   */\n      add\n        /* \"#utility.yul\":11285:11299   */\n      swap1\n      pop\n        /* \"#utility.yul\":11250:11676   */\n      jump(tag_408)\n    tag_410:\n        /* \"#utility.yul\":11254:11268   */\n      pop\n        /* \"#utility.yul\":11692:11696   */\n      dup3\n        /* \"#utility.yul\":11685:11696   */\n      swap8\n      pop\n        /* \"#utility.yul\":11712:11715   */\n      dup8\n        /* \"#utility.yul\":11705:11715   */\n      swap6\n      pop\n        /* \"#utility.yul\":10814:11721   */\n      pop\n      pop\n      pop\n      pop\n      pop\n        /* \"#utility.yul\":10650:11721   */\n      swap3\n      swap2\n      pop\n      pop\n      jump\t// out\n        /* \"#utility.yul\":11727:12180   */\n    tag_53:\n        /* \"#utility.yul\":11910:11914   */\n      0x00\n        /* \"#utility.yul\":11948:11950   */\n      0x20\n        /* \"#utility.yul\":11937:11946   */\n      dup3\n        /* \"#utility.yul\":11933:11951   */\n      add\n        /* \"#utility.yul\":11925:11951   */\n      swap1\n      pop\n        /* \"#utility.yul\":11997:12006   */\n      dup2\n        /* \"#utility.yul\":11991:11995   */\n      dup2\n        /* \"#utility.yul\":11987:12007   */\n      sub\n        /* \"#utility.yul\":11983:11984   */\n      0x00\n        /* \"#utility.yul\":11972:11981   */\n      dup4\n        /* \"#utility.yul\":11968:11985   */\n      add\n        /* \"#utility.yul\":11961:12008   */\n      mstore\n        /* \"#utility.yul\":12025:12173   */\n      tag_414\n        /* \"#utility.yul\":12168:12172   */\n      dup2\n        /* \"#utility.yul\":12159:12165   */\n      dup5\n        /* \"#utility.yul\":12025:12173   */\n      tag_256\n      jump\t// in\n    tag_414:\n        /* \"#utility.yul\":12017:12173   */\n      swap1\n      pop\n        /* \"#utility.yul\":11727:12180   */\n      swap3\n      swap2\n      pop\n      pop\n      jump\t// out\n        /* \"#utility.yul\":12186:12660   */\n    tag_57:\n        /* \"#utility.yul\":12254:12260   */\n      0x00\n        /* \"#utility.yul\":12262:12268   */\n      0x00\n        /* \"#utility.yul\":12311:12313   */\n      0x40\n        /* \"#utility.yul\":12299:12308   */\n      dup4\n        /* \"#utility.yul\":12290:12297   */\n      dup6\n        /* \"#utility.yul\":12286:12309   */\n      sub\n        /* \"#utility.yul\":12282:12314   */\n      slt\n        /* \"#utility.yul\":12279:12398   */\n      iszero\n      tag_416\n      jumpi\n        /* \"#utility.yul\":12317:12396   */\n      tag_417\n      tag_232\n      jump\t// in\n    tag_417:\n        /* \"#utility.yul\":12279:12398   */\n    tag_416:\n        /* \"#utility.yul\":12437:12438   */\n      0x00\n        /* \"#utility.yul\":12462:12515   */\n      tag_418\n        /* \"#utility.yul\":12507:12514   */\n      dup6\n        /* \"#utility.yul\":12498:12504   */\n      dup3\n        /* \"#utility.yul\":12487:12496   */\n      dup7\n        /* \"#utility.yul\":12483:12505   */\n      add\n        /* \"#utility.yul\":12462:12515   */\n      tag_236\n      jump\t// in\n    tag_418:\n        /* \"#utility.yul\":12452:12515   */\n      swap3\n      pop\n        /* \"#utility.yul\":12408:12525   */\n      pop\n        /* \"#utility.yul\":12564:12566   */\n      0x20\n        /* \"#utility.yul\":12590:12643   */\n      tag_419\n        /* \"#utility.yul\":12635:12642   */\n      dup6\n        /* \"#utility.yul\":12626:12632   */\n      dup3\n        /* \"#utility.yul\":12615:12624   */\n      dup7\n        /* \"#utility.yul\":12611:12633   */\n      add\n        /* \"#utility.yul\":12590:12643   */\n      tag_236\n      jump\t// in\n    tag_419:\n        /* \"#utility.yul\":12580:12643   */\n      swap2\n      pop\n        /* \"#utility.yul\":12535:12653   */\n      pop\n        /* \"#utility.yul\":12186:12660   */\n      swap3\n      pop\n      swap3\n      swap1\n      pop\n      jump\t// out\n        /* \"#utility.yul\":12666:12762   */\n    tag_257:\n        /* \"#utility.yul\":12703:12710   */\n      0x00\n        /* \"#utility.yul\":12732:12756   */\n      tag_421\n        /* \"#utility.yul\":12750:12755   */\n      dup3\n        /* \"#utility.yul\":12732:12756   */\n      tag_228\n      jump\t// in\n    tag_421:\n        /* \"#utility.yul\":12721:12756   */\n      swap1\n      pop\n        /* \"#utility.yul\":12666:12762   */\n      swap2\n      swap1\n      pop\n      jump\t// out\n        /* \"#utility.yul\":12768:12886   */\n    tag_258:\n        /* \"#utility.yul\":12855:12879   */\n      tag_423\n        /* \"#utility.yul\":12873:12878   */\n      dup2\n        /* \"#utility.yul\":12855:12879   */\n      tag_257\n      jump\t// in\n    tag_423:\n        /* \"#utility.yul\":12850:12853   */\n      dup3\n        /* \"#utility.yul\":12843:12880   */\n      mstore\n        /* \"#utility.yul\":12768:12886   */\n      pop\n      pop\n      jump\t// out\n        /* \"#utility.yul\":12892:13114   */\n    tag_60:\n        /* \"#utility.yul\":12985:12989   */\n      0x00\n        /* \"#utility.yul\":13023:13025   */\n      0x20\n        /* \"#utility.yul\":13012:13021   */\n      dup3\n        /* \"#utility.yul\":13008:13026   */\n      add\n        /* \"#utility.yul\":13000:13026   */\n      swap1\n      pop\n        /* \"#utility.yul\":13036:13107   */\n      tag_425\n        /* \"#utility.yul\":13104:13105   */\n      0x00\n        /* \"#utility.yul\":13093:13102   */\n      dup4\n        /* \"#utility.yul\":13089:13106   */\n      add\n        /* \"#utility.yul\":13080:13086   */\n      dup5\n        /* \"#utility.yul\":13036:13107   */\n      tag_258\n      jump\t// in\n    tag_425:\n        /* \"#utility.yul\":12892:13114   */\n      swap3\n      swap2\n      pop\n      pop\n      jump\t// out\n        /* \"#utility.yul\":13120:13237   */\n    tag_259:\n        /* \"#utility.yul\":13229:13230   */\n      0x00\n        /* \"#utility.yul\":13226:13227   */\n      0x00\n        /* \"#utility.yul\":13219:13231   */\n      revert\n        /* \"#utility.yul\":13243:13360   */\n    tag_260:\n        /* \"#utility.yul\":13352:13353   */\n      0x00\n        /* \"#utility.yul\":13349:13350   */\n      0x00\n        /* \"#utility.yul\":13342:13354   */\n      revert\n        /* \"#utility.yul\":13366:13546   */\n    tag_261:\n        /* \"#utility.yul\":13414:13491   */\n      0x4e487b7100000000000000000000000000000000000000000000000000000000\n        /* \"#utility.yul\":13411:13412   */\n      0x00\n        /* \"#utility.yul\":13404:13492   */\n      mstore\n        /* \"#utility.yul\":13511:13515   */\n      0x41\n        /* \"#utility.yul\":13508:13509   */\n      0x04\n        /* \"#utility.yul\":13501:13516   */\n      mstore\n        /* \"#utility.yul\":13535:13539   */\n      0x24\n        /* \"#utility.yul\":13532:13533   */\n      0x00\n        /* \"#utility.yul\":13525:13540   */\n      revert\n        /* \"#utility.yul\":13552:13833   */\n    tag_262:\n        /* \"#utility.yul\":13635:13662   */\n      tag_430\n        /* \"#utility.yul\":13657:13661   */\n      dup3\n        /* \"#utility.yul\":13635:13662   */\n      tag_241\n      jump\t// in\n    tag_430:\n        /* \"#utility.yul\":13627:13633   */\n      dup2\n        /* \"#utility.yul\":13623:13663   */\n      add\n        /* \"#utility.yul\":13765:13771   */\n      dup2\n        /* \"#utility.yul\":13753:13763   */\n      dup2\n        /* \"#utility.yul\":13750:13772   */\n      lt\n        /* \"#utility.yul\":13729:13747   */\n      0xffffffffffffffff\n        /* \"#utility.yul\":13717:13727   */\n      dup3\n        /* \"#utility.yul\":13714:13748   */\n      gt\n        /* \"#utility.yul\":13711:13773   */\n      or\n        /* \"#utility.yul\":13708:13796   */\n      iszero\n      tag_431\n      jumpi\n        /* \"#utility.yul\":13776:13794   */\n      tag_432\n      tag_261\n      jump\t// in\n    tag_432:\n        /* \"#utility.yul\":13708:13796   */\n    tag_431:\n        /* \"#utility.yul\":13816:13826   */\n      dup1\n        /* \"#utility.yul\":13812:13814   */\n      0x40\n        /* \"#utility.yul\":13805:13827   */\n      mstore\n        /* \"#utility.yul\":13595:13833   */\n      pop\n        /* \"#utility.yul\":13552:13833   */\n      pop\n      pop\n      jump\t// out\n        /* \"#utility.yul\":13839:13968   */\n    tag_263:\n        /* \"#utility.yul\":13873:13879   */\n      0x00\n        /* \"#utility.yul\":13900:13920   */\n      tag_434\n      tag_231\n      jump\t// in\n    tag_434:\n        /* \"#utility.yul\":13890:13920   */\n      swap1\n      pop\n        /* \"#utility.yul\":13929:13962   */\n      tag_435\n        /* \"#utility.yul\":13957:13961   */\n      dup3\n        /* \"#utility.yul\":13949:13955   */\n      dup3\n        /* \"#utility.yul\":13929:13962   */\n      tag_262\n      jump\t// in\n    tag_435:\n        /* \"#utility.yul\":13839:13968   */\n      swap2\n      swap1\n      pop\n      jump\t// out\n        /* \"#utility.yul\":13974:14282   */\n    tag_264:\n        /* \"#utility.yul\":14036:14040   */\n      0x00\n        /* \"#utility.yul\":14126:14144   */\n      0xffffffffffffffff\n        /* \"#utility.yul\":14118:14124   */\n      dup3\n        /* \"#utility.yul\":14115:14145   */\n      gt\n        /* \"#utility.yul\":14112:14168   */\n      iszero\n      tag_437\n      jumpi\n        /* \"#utility.yul\":14148:14166   */\n      tag_438\n      tag_261\n      jump\t// in\n    tag_438:\n        /* \"#utility.yul\":14112:14168   */\n    tag_437:\n        /* \"#utility.yul\":14186:14215   */\n      tag_439\n        /* \"#utility.yul\":14208:14214   */\n      dup3\n        /* \"#utility.yul\":14186:14215   */\n      tag_241\n      jump\t// in\n    tag_439:\n        /* \"#utility.yul\":14178:14215   */\n      swap1\n      pop\n        /* \"#utility.yul\":14270:14274   */\n      0x20\n        /* \"#utility.yul\":14264:14268   */\n      dup2\n        /* \"#utility.yul\":14260:14275   */\n      add\n        /* \"#utility.yul\":14252:14275   */\n      swap1\n      pop\n        /* \"#utility.yul\":13974:14282   */\n      swap2\n      swap1\n      pop\n      jump\t// out\n        /* \"#utility.yul\":14288:14436   */\n    tag_265:\n        /* \"#utility.yul\":14386:14392   */\n      dup3\n        /* \"#utility.yul\":14381:14384   */\n      dup2\n        /* \"#utility.yul\":14376:14379   */\n      dup4\n        /* \"#utility.yul\":14363:14393   */\n      calldatacopy\n        /* \"#utility.yul\":14427:14428   */\n      0x00\n        /* \"#utility.yul\":14418:14424   */\n      dup4\n        /* \"#utility.yul\":14413:14416   */\n      dup4\n        /* \"#utility.yul\":14409:14425   */\n      add\n        /* \"#utility.yul\":14402:14429   */\n      mstore\n        /* \"#utility.yul\":14288:14436   */\n      pop\n      pop\n      pop\n      jump\t// out\n        /* \"#utility.yul\":14442:14867   */\n    tag_266:\n        /* \"#utility.yul\":14520:14525   */\n      0x00\n        /* \"#utility.yul\":14545:14611   */\n      tag_442\n        /* \"#utility.yul\":14561:14610   */\n      tag_443\n        /* \"#utility.yul\":14603:14609   */\n      dup5\n        /* \"#utility.yul\":14561:14610   */\n      tag_264\n      jump\t// in\n    tag_443:\n        /* \"#utility.yul\":14545:14611   */\n      tag_263\n      jump\t// in\n    tag_442:\n        /* \"#utility.yul\":14536:14611   */\n      swap1\n      pop\n        /* \"#utility.yul\":14634:14640   */\n      dup3\n        /* \"#utility.yul\":14627:14632   */\n      dup2\n        /* \"#utility.yul\":14620:14641   */\n      mstore\n        /* \"#utility.yul\":14672:14676   */\n      0x20\n        /* \"#utility.yul\":14665:14670   */\n      dup2\n        /* \"#utility.yul\":14661:14677   */\n      add\n        /* \"#utility.yul\":14710:14713   */\n      dup5\n        /* \"#utility.yul\":14701:14707   */\n      dup5\n        /* \"#utility.yul\":14696:14699   */\n      dup5\n        /* \"#utility.yul\":14692:14708   */\n      add\n        /* \"#utility.yul\":14689:14714   */\n      gt\n        /* \"#utility.yul\":14686:14798   */\n      iszero\n      tag_444\n      jumpi\n        /* \"#utility.yul\":14717:14796   */\n      tag_445\n      tag_260\n      jump\t// in\n    tag_445:\n        /* \"#utility.yul\":14686:14798   */\n    tag_444:\n        /* \"#utility.yul\":14807:14861   */\n      tag_446\n        /* \"#utility.yul\":14854:14860   */\n      dup5\n        /* \"#utility.yul\":14849:14852   */\n      dup3\n        /* \"#utility.yul\":14844:14847   */\n      dup6\n        /* \"#utility.yul\":14807:14861   */\n      tag_265\n      jump\t// in\n    tag_446:\n        /* \"#utility.yul\":14526:14867   */\n      pop\n        /* \"#utility.yul\":14442:14867   */\n      swap4\n      swap3\n      pop\n      pop\n      pop\n      jump\t// out\n        /* \"#utility.yul\":14887:15227   */\n    tag_267:\n        /* \"#utility.yul\":14943:14948   */\n      0x00\n        /* \"#utility.yul\":14992:14995   */\n      dup3\n        /* \"#utility.yul\":14985:14989   */\n      0x1f\n        /* \"#utility.yul\":14977:14983   */\n      dup4\n        /* \"#utility.yul\":14973:14990   */\n      add\n        /* \"#utility.yul\":14969:14996   */\n      slt\n        /* \"#utility.yul\":14959:15081   */\n      tag_448\n      jumpi\n        /* \"#utility.yul\":15000:15079   */\n      tag_449\n      tag_259\n      jump\t// in\n    tag_449:\n        /* \"#utility.yul\":14959:15081   */\n    tag_448:\n        /* \"#utility.yul\":15117:15123   */\n      dup2\n        /* \"#utility.yul\":15104:15124   */\n      calldataload\n        /* \"#utility.yul\":15142:15221   */\n      tag_450\n        /* \"#utility.yul\":15217:15220   */\n      dup5\n        /* \"#utility.yul\":15209:15215   */\n      dup3\n        /* \"#utility.yul\":15202:15206   */\n      0x20\n        /* \"#utility.yul\":15194:15200   */\n      dup7\n        /* \"#utility.yul\":15190:15207   */\n      add\n        /* \"#utility.yul\":15142:15221   */\n      tag_266\n      jump\t// in\n    tag_450:\n        /* \"#utility.yul\":15133:15221   */\n      swap2\n      pop\n        /* \"#utility.yul\":14949:15227   */\n      pop\n        /* \"#utility.yul\":14887:15227   */\n      swap3\n      swap2\n      pop\n      pop\n      jump\t// out\n        /* \"#utility.yul\":15233:16830   */\n    tag_64:\n        /* \"#utility.yul\":15367:15373   */\n      0x00\n        /* \"#utility.yul\":15375:15381   */\n      0x00\n        /* \"#utility.yul\":15383:15389   */\n      0x00\n        /* \"#utility.yul\":15391:15397   */\n      0x00\n        /* \"#utility.yul\":15399:15405   */\n      0x00\n        /* \"#utility.yul\":15407:15413   */\n      0x00\n        /* \"#utility.yul\":15456:15459   */\n      0xc0\n        /* \"#utility.yul\":15444:15453   */\n      dup8\n        /* \"#utility.yul\":15435:15442   */\n      dup10\n        /* \"#utility.yul\":15431:15454   */\n      sub\n        /* \"#utility.yul\":15427:15460   */\n      slt\n        /* \"#utility.yul\":15424:15544   */\n      iszero\n      tag_452\n      jumpi\n        /* \"#utility.yul\":15463:15542   */\n      tag_453\n      tag_232\n      jump\t// in\n    tag_453:\n        /* \"#utility.yul\":15424:15544   */\n    tag_452:\n        /* \"#utility.yul\":15611:15612   */\n      0x00\n        /* \"#utility.yul\":15600:15609   */\n      dup8\n        /* \"#utility.yul\":15596:15613   */\n      add\n        /* \"#utility.yul\":15583:15614   */\n      calldataload\n        /* \"#utility.yul\":15641:15659   */\n      0xffffffffffffffff\n        /* \"#utility.yul\":15633:15639   */\n      dup2\n        /* \"#utility.yul\":15630:15660   */\n      gt\n        /* \"#utility.yul\":15627:15744   */\n      iszero\n      tag_454\n      jumpi\n        /* \"#utility.yul\":15663:15742   */\n      tag_455\n      tag_233\n      jump\t// in\n    tag_455:\n        /* \"#utility.yul\":15627:15744   */\n    tag_454:\n        /* \"#utility.yul\":15768:15831   */\n      tag_456\n        /* \"#utility.yul\":15823:15830   */\n      dup10\n        /* \"#utility.yul\":15814:15820   */\n      dup3\n        /* \"#utility.yul\":15803:15812   */\n      dup11\n        /* \"#utility.yul\":15799:15821   */\n      add\n        /* \"#utility.yul\":15768:15831   */\n      tag_267\n      jump\t// in\n    tag_456:\n        /* \"#utility.yul\":15758:15831   */\n      swap7\n      pop\n        /* \"#utility.yul\":15554:15841   */\n      pop\n        /* \"#utility.yul\":15908:15910   */\n      0x20\n        /* \"#utility.yul\":15897:15906   */\n      dup8\n        /* \"#utility.yul\":15893:15911   */\n      add\n        /* \"#utility.yul\":15880:15912   */\n      calldataload\n        /* \"#utility.yul\":15939:15957   */\n      0xffffffffffffffff\n        /* \"#utility.yul\":15931:15937   */\n      dup2\n        /* \"#utility.yul\":15928:15958   */\n      gt\n        /* \"#utility.yul\":15925:16042   */\n      iszero\n      tag_457\n      jumpi\n        /* \"#utility.yul\":15961:16040   */\n      tag_458\n      tag_233\n      jump\t// in\n    tag_458:\n        /* \"#utility.yul\":15925:16042   */\n    tag_457:\n        /* \"#utility.yul\":16066:16129   */\n      tag_459\n        /* \"#utility.yul\":16121:16128   */\n      dup10\n        /* \"#utility.yul\":16112:16118   */\n      dup3\n        /* \"#utility.yul\":16101:16110   */\n      dup11\n        /* \"#utility.yul\":16097:16119   */\n      add\n        /* \"#utility.yul\":16066:16129   */\n      tag_267\n      jump\t// in\n    tag_459:\n        /* \"#utility.yul\":16056:16129   */\n      swap6\n      pop\n        /* \"#utility.yul\":15851:16139   */\n      pop\n        /* \"#utility.yul\":16206:16208   */\n      0x40\n        /* \"#utility.yul\":16195:16204   */\n      dup8\n        /* \"#utility.yul\":16191:16209   */\n      add\n        /* \"#utility.yul\":16178:16210   */\n      calldataload\n        /* \"#utility.yul\":16237:16255   */\n      0xffffffffffffffff\n        /* \"#utility.yul\":16229:16235   */\n      dup2\n        /* \"#utility.yul\":16226:16256   */\n      gt\n        /* \"#utility.yul\":16223:16340   */\n      iszero\n      tag_460\n      jumpi\n        /* \"#utility.yul\":16259:16338   */\n      tag_461\n      tag_233\n      jump\t// in\n    tag_461:\n        /* \"#utility.yul\":16223:16340   */\n    tag_460:\n        /* \"#utility.yul\":16364:16427   */\n      tag_462\n        /* \"#utility.yul\":16419:16426   */\n      dup10\n        /* \"#utility.yul\":16410:16416   */\n      dup3\n        /* \"#utility.yul\":16399:16408   */\n      dup11\n        /* \"#utility.yul\":16395:16417   */\n      add\n        /* \"#utility.yul\":16364:16427   */\n      tag_267\n      jump\t// in\n    tag_462:\n        /* \"#utility.yul\":16354:16427   */\n      swap5\n      pop\n        /* \"#utility.yul\":16149:16437   */\n      pop\n        /* \"#utility.yul\":16476:16478   */\n      0x60\n        /* \"#utility.yul\":16502:16555   */\n      tag_463\n        /* \"#utility.yul\":16547:16554   */\n      dup10\n        /* \"#utility.yul\":16538:16544   */\n      dup3\n        /* \"#utility.yul\":16527:16536   */\n      dup11\n        /* \"#utility.yul\":16523:16545   */\n      add\n        /* \"#utility.yul\":16502:16555   */\n      tag_236\n      jump\t// in\n    tag_463:\n        /* \"#utility.yul\":16492:16555   */\n      swap4\n      pop\n        /* \"#utility.yul\":16447:16565   */\n      pop\n        /* \"#utility.yul\":16604:16607   */\n      0x80\n        /* \"#utility.yul\":16631:16684   */\n      tag_464\n        /* \"#utility.yul\":16676:16683   */\n      dup10\n        /* \"#utility.yul\":16667:16673   */\n      dup3\n        /* \"#utility.yul\":16656:16665   */\n      dup11\n        /* \"#utility.yul\":16652:16674   */\n      add\n        /* \"#utility.yul\":16631:16684   */\n      tag_236\n      jump\t// in\n    tag_464:\n        /* \"#utility.yul\":16621:16684   */\n      swap3\n      pop\n        /* \"#utility.yul\":16575:16694   */\n      pop\n        /* \"#utility.yul\":16733:16736   */\n      0xa0\n        /* \"#utility.yul\":16760:16813   */\n      tag_465\n        /* \"#utility.yul\":16805:16812   */\n      dup10\n        /* \"#utility.yul\":16796:16802   */\n      dup3\n        /* \"#utility.yul\":16785:16794   */\n      dup11\n        /* \"#utility.yul\":16781:16803   */\n      add\n        /* \"#utility.yul\":16760:16813   */\n      tag_236\n      jump\t// in\n    tag_465:\n        /* \"#utility.yul\":16750:16813   */\n      swap2\n      pop\n        /* \"#utility.yul\":16704:16823   */\n      pop\n        /* \"#utility.yul\":15233:16830   */\n      swap3\n      swap6\n      pop\n      swap3\n      swap6\n      pop\n      swap3\n      swap6\n      jump\t// out\n        /* \"#utility.yul\":16836:16896   */\n    tag_268:\n        /* \"#utility.yul\":16864:16867   */\n      0x00\n        /* \"#utility.yul\":16885:16890   */\n      dup2\n        /* \"#utility.yul\":16878:16890   */\n      swap1\n      pop\n        /* \"#utility.yul\":16836:16896   */\n      swap2\n      swap1\n      pop\n      jump\t// out\n        /* \"#utility.yul\":16902:17044   */\n    tag_269:\n        /* \"#utility.yul\":16952:16961   */\n      0x00\n        /* \"#utility.yul\":16985:17038   */\n      tag_468\n        /* \"#utility.yul\":17003:17037   */\n      tag_469\n        /* \"#utility.yul\":17012:17036   */\n      tag_470\n        /* \"#utility.yul\":17030:17035   */\n      dup5\n        /* \"#utility.yul\":17012:17036   */\n      tag_228\n      jump\t// in\n    tag_470:\n        /* \"#utility.yul\":17003:17037   */\n      tag_268\n      jump\t// in\n    tag_469:\n        /* \"#utility.yul\":16985:17038   */\n      tag_228\n      jump\t// in\n    tag_468:\n        /* \"#utility.yul\":16972:17038   */\n      swap1\n      pop\n        /* \"#utility.yul\":16902:17044   */\n      swap2\n      swap1\n      pop\n      jump\t// out\n        /* \"#utility.yul\":17050:17176   */\n    tag_270:\n        /* \"#utility.yul\":17100:17109   */\n      0x00\n        /* \"#utility.yul\":17133:17170   */\n      tag_472\n        /* \"#utility.yul\":17164:17169   */\n      dup3\n        /* \"#utility.yul\":17133:17170   */\n      tag_269\n      jump\t// in\n    tag_472:\n        /* \"#utility.yul\":17120:17170   */\n      swap1\n      pop\n        /* \"#utility.yul\":17050:17176   */\n      swap2\n      swap1\n      pop\n      jump\t// out\n        /* \"#utility.yul\":17182:17330   */\n    tag_271:\n        /* \"#utility.yul\":17254:17263   */\n      0x00\n        /* \"#utility.yul\":17287:17324   */\n      tag_474\n        /* \"#utility.yul\":17318:17323   */\n      dup3\n        /* \"#utility.yul\":17287:17324   */\n      tag_270\n      jump\t// in\n    tag_474:\n        /* \"#utility.yul\":17274:17324   */\n      swap1\n      pop\n        /* \"#utility.yul\":17182:17330   */\n      swap2\n      swap1\n      pop\n      jump\t// out\n        /* \"#utility.yul\":17336:17511   */\n    tag_272:\n        /* \"#utility.yul\":17445:17504   */\n      tag_476\n        /* \"#utility.yul\":17498:17503   */\n      dup2\n        /* \"#utility.yul\":17445:17504   */\n      tag_271\n      jump\t// in\n    tag_476:\n        /* \"#utility.yul\":17440:17443   */\n      dup3\n        /* \"#utility.yul\":17433:17505   */\n      mstore\n        /* \"#utility.yul\":17336:17511   */\n      pop\n      pop\n      jump\t// out\n        /* \"#utility.yul\":17517:17783   */\n    tag_70:\n        /* \"#utility.yul\":17632:17636   */\n      0x00\n        /* \"#utility.yul\":17670:17672   */\n      0x20\n        /* \"#utility.yul\":17659:17668   */\n      dup3\n        /* \"#utility.yul\":17655:17673   */\n      add\n        /* \"#utility.yul\":17647:17673   */\n      swap1\n      pop\n        /* \"#utility.yul\":17683:17776   */\n      tag_478\n        /* \"#utility.yul\":17773:17774   */\n      0x00\n        /* \"#utility.yul\":17762:17771   */\n      dup4\n        /* \"#utility.yul\":17758:17775   */\n      add\n        /* \"#utility.yul\":17749:17755   */\n      dup5\n        /* \"#utility.yul\":17683:17776   */\n      tag_272\n      jump\t// in\n    tag_478:\n        /* \"#utility.yul\":17517:17783   */\n      swap3\n      swap2\n      pop\n      pop\n      jump\t// out\n        /* \"#utility.yul\":17789:17969   */\n    tag_273:\n        /* \"#utility.yul\":17837:17914   */\n      0x4e487b7100000000000000000000000000000000000000000000000000000000\n        /* \"#utility.yul\":17834:17835   */\n      0x00\n        /* \"#utility.yul\":17827:17915   */\n      mstore\n        /* \"#utility.yul\":17934:17938   */\n      0x22\n        /* \"#utility.yul\":17931:17932   */\n      0x04\n        /* \"#utility.yul\":17924:17939   */\n      mstore\n        /* \"#utility.yul\":17958:17962   */\n      0x24\n        /* \"#utility.yul\":17955:17956   */\n      0x00\n        /* \"#utility.yul\":17948:17963   */\n      revert\n        /* \"#utility.yul\":17975:18295   */\n    tag_79:\n        /* \"#utility.yul\":18019:18025   */\n      0x00\n        /* \"#utility.yul\":18056:18057   */\n      0x02\n        /* \"#utility.yul\":18050:18054   */\n      dup3\n        /* \"#utility.yul\":18046:18058   */\n      div\n        /* \"#utility.yul\":18036:18058   */\n      swap1\n      pop\n        /* \"#utility.yul\":18103:18104   */\n      0x01\n        /* \"#utility.yul\":18097:18101   */\n      dup3\n        /* \"#utility.yul\":18093:18105   */\n      and\n        /* \"#utility.yul\":18124:18142   */\n      dup1\n        /* \"#utility.yul\":18114:18195   */\n      tag_481\n      jumpi\n        /* \"#utility.yul\":18180:18184   */\n      0x7f\n        /* \"#utility.yul\":18172:18178   */\n      dup3\n        /* \"#utility.yul\":18168:18185   */\n      and\n        /* \"#utility.yul\":18158:18185   */\n      swap2\n      pop\n        /* \"#utility.yul\":18114:18195   */\n    tag_481:\n        /* \"#utility.yul\":18242:18244   */\n      0x20\n        /* \"#utility.yul\":18234:18240   */\n      dup3\n        /* \"#utility.yul\":18231:18245   */\n      lt\n        /* \"#utility.yul\":18211:18229   */\n      dup2\n        /* \"#utility.yul\":18208:18246   */\n      sub\n        /* \"#utility.yul\":18205:18289   */\n      tag_482\n      jumpi\n        /* \"#utility.yul\":18261:18279   */\n      tag_483\n      tag_273\n      jump\t// in\n    tag_483:\n        /* \"#utility.yul\":18205:18289   */\n    tag_482:\n        /* \"#utility.yul\":18026:18295   */\n      pop\n        /* \"#utility.yul\":17975:18295   */\n      swap2\n      swap1\n      pop\n      jump\t// out\n        /* \"#utility.yul\":18301:18465   */\n    tag_274:\n        /* \"#utility.yul\":18441:18457   */\n      0x426f6f6b206e6f7420666f756e64000000000000000000000000000000000000\n        /* \"#utility.yul\":18437:18438   */\n      0x00\n        /* \"#utility.yul\":18429:18435   */\n      dup3\n        /* \"#utility.yul\":18425:18439   */\n      add\n        /* \"#utility.yul\":18418:18458   */\n      mstore\n        /* \"#utility.yul\":18301:18465   */\n      pop\n      jump\t// out\n        /* \"#utility.yul\":18471:18837   */\n    tag_275:\n        /* \"#utility.yul\":18613:18616   */\n      0x00\n        /* \"#utility.yul\":18634:18701   */\n      tag_486\n        /* \"#utility.yul\":18698:18700   */\n      0x0e\n        /* \"#utility.yul\":18693:18696   */\n      dup4\n        /* \"#utility.yul\":18634:18701   */\n      tag_239\n      jump\t// in\n    tag_486:\n        /* \"#utility.yul\":18627:18701   */\n      swap2\n      pop\n        /* \"#utility.yul\":18710:18803   */\n      tag_487\n        /* \"#utility.yul\":18799:18802   */\n      dup3\n        /* \"#utility.yul\":18710:18803   */\n      tag_274\n      jump\t// in\n    tag_487:\n        /* \"#utility.yul\":18828:18830   */\n      0x20\n        /* \"#utility.yul\":18823:18826   */\n      dup3\n        /* \"#utility.yul\":18819:18831   */\n      add\n        /* \"#utility.yul\":18812:18831   */\n      swap1\n      pop\n        /* \"#utility.yul\":18471:18837   */\n      swap2\n      swap1\n      pop\n      jump\t// out\n        /* \"#utility.yul\":18843:19262   */\n    tag_99:\n        /* \"#utility.yul\":19009:19013   */\n      0x00\n        /* \"#utility.yul\":19047:19049   */\n      0x20\n        /* \"#utility.yul\":19036:19045   */\n      dup3\n        /* \"#utility.yul\":19032:19050   */\n      add\n        /* \"#utility.yul\":19024:19050   */\n      swap1\n      pop\n        /* \"#utility.yul\":19096:19105   */\n      dup2\n        /* \"#utility.yul\":19090:19094   */\n      dup2\n        /* \"#utility.yul\":19086:19106   */\n      sub\n        /* \"#utility.yul\":19082:19083   */\n      0x00\n        /* \"#utility.yul\":19071:19080   */\n      dup4\n        /* \"#utility.yul\":19067:19084   */\n      add\n        /* \"#utility.yul\":19060:19107   */\n      mstore\n        /* \"#utility.yul\":19124:19255   */\n      tag_489\n        /* \"#utility.yul\":19250:19254   */\n      dup2\n        /* \"#utility.yul\":19124:19255   */\n      tag_275\n      jump\t// in\n    tag_489:\n        /* \"#utility.yul\":19116:19255   */\n      swap1\n      pop\n        /* \"#utility.yul\":18843:19262   */\n      swap2\n      swap1\n      pop\n      jump\t// out\n        /* \"#utility.yul\":19268:19437   */\n    tag_276:\n        /* \"#utility.yul\":19408:19429   */\n      0x426f6f6b206e6f7420617661696c61626c652100000000000000000000000000\n        /* \"#utility.yul\":19404:19405   */\n      0x00\n        /* \"#utility.yul\":19396:19402   */\n      dup3\n        /* \"#utility.yul\":19392:19406   */\n      add\n        /* \"#utility.yul\":19385:19430   */\n      mstore\n        /* \"#utility.yul\":19268:19437   */\n      pop\n      jump\t// out\n        /* \"#utility.yul\":19443:19809   */\n    tag_277:\n        /* \"#utility.yul\":19585:19588   */\n      0x00\n        /* \"#utility.yul\":19606:19673   */\n      tag_492\n        /* \"#utility.yul\":19670:19672   */\n      0x13\n        /* \"#utility.yul\":19665:19668   */\n      dup4\n        /* \"#utility.yul\":19606:19673   */\n      tag_239\n      jump\t// in\n    tag_492:\n        /* \"#utility.yul\":19599:19673   */\n      swap2\n      pop\n        /* \"#utility.yul\":19682:19775   */\n      tag_493\n        /* \"#utility.yul\":19771:19774   */\n      dup3\n        /* \"#utility.yul\":19682:19775   */\n      tag_276\n      jump\t// in\n    tag_493:\n        /* \"#utility.yul\":19800:19802   */\n      0x20\n        /* \"#utility.yul\":19795:19798   */\n      dup3\n        /* \"#utility.yul\":19791:19803   */\n      add\n        /* \"#utility.yul\":19784:19803   */\n      swap1\n      pop\n        /* \"#utility.yul\":19443:19809   */\n      swap2\n      swap1\n      pop\n      jump\t// out\n        /* \"#utility.yul\":19815:20234   */\n    tag_135:\n        /* \"#utility.yul\":19981:19985   */\n      0x00\n        /* \"#utility.yul\":20019:20021   */\n      0x20\n        /* \"#utility.yul\":20008:20017   */\n      dup3\n        /* \"#utility.yul\":20004:20022   */\n      add\n        /* \"#utility.yul\":19996:20022   */\n      swap1\n      pop\n        /* \"#utility.yul\":20068:20077   */\n      dup2\n        /* \"#utility.yul\":20062:20066   */\n      dup2\n        /* \"#utility.yul\":20058:20078   */\n      sub\n        /* \"#utility.yul\":20054:20055   */\n      0x00\n        /* \"#utility.yul\":20043:20052   */\n      dup4\n        /* \"#utility.yul\":20039:20056   */\n      add\n        /* \"#utility.yul\":20032:20079   */\n      mstore\n        /* \"#utility.yul\":20096:20227   */\n      tag_495\n        /* \"#utility.yul\":20222:20226   */\n      dup2\n        /* \"#utility.yul\":20096:20227   */\n      tag_277\n      jump\t// in\n    tag_495:\n        /* \"#utility.yul\":20088:20227   */\n      swap1\n      pop\n        /* \"#utility.yul\":19815:20234   */\n      swap2\n      swap1\n      pop\n      jump\t// out\n        /* \"#utility.yul\":20240:20356   */\n    tag_278:\n        /* \"#utility.yul\":20310:20331   */\n      tag_497\n        /* \"#utility.yul\":20325:20330   */\n      dup2\n        /* \"#utility.yul\":20310:20331   */\n      tag_243\n      jump\t// in\n    tag_497:\n        /* \"#utility.yul\":20303:20308   */\n      dup2\n        /* \"#utility.yul\":20300:20332   */\n      eq\n        /* \"#utility.yul\":20290:20350   */\n      tag_498\n      jumpi\n        /* \"#utility.yul\":20346:20347   */\n      0x00\n        /* \"#utility.yul\":20343:20344   */\n      0x00\n        /* \"#utility.yul\":20336:20348   */\n      revert\n        /* \"#utility.yul\":20290:20350   */\n    tag_498:\n        /* \"#utility.yul\":20240:20356   */\n      pop\n      jump\t// out\n        /* \"#utility.yul\":20362:20499   */\n    tag_279:\n        /* \"#utility.yul\":20416:20421   */\n      0x00\n        /* \"#utility.yul\":20447:20453   */\n      dup2\n        /* \"#utility.yul\":20441:20454   */\n      mload\n        /* \"#utility.yul\":20432:20454   */\n      swap1\n      pop\n        /* \"#utility.yul\":20463:20493   */\n      tag_500\n        /* \"#utility.yul\":20487:20492   */\n      dup2\n        /* \"#utility.yul\":20463:20493   */\n      tag_278\n      jump\t// in\n    tag_500:\n        /* \"#utility.yul\":20362:20499   */\n      swap3\n      swap2\n      pop\n      pop\n      jump\t// out\n        /* \"#utility.yul\":20505:20850   */\n    tag_140:\n        /* \"#utility.yul\":20572:20578   */\n      0x00\n        /* \"#utility.yul\":20621:20623   */\n      0x20\n        /* \"#utility.yul\":20609:20618   */\n      dup3\n        /* \"#utility.yul\":20600:20607   */\n      dup5\n        /* \"#utility.yul\":20596:20619   */\n      sub\n        /* \"#utility.yul\":20592:20624   */\n      slt\n        /* \"#utility.yul\":20589:20708   */\n      iszero\n      tag_502\n      jumpi\n        /* \"#utility.yul\":20627:20706   */\n      tag_503\n      tag_232\n      jump\t// in\n    tag_503:\n        /* \"#utility.yul\":20589:20708   */\n    tag_502:\n        /* \"#utility.yul\":20747:20748   */\n      0x00\n        /* \"#utility.yul\":20772:20833   */\n      tag_504\n        /* \"#utility.yul\":20825:20832   */\n      dup5\n        /* \"#utility.yul\":20816:20822   */\n      dup3\n        /* \"#utility.yul\":20805:20814   */\n      dup6\n        /* \"#utility.yul\":20801:20823   */\n      add\n        /* \"#utility.yul\":20772:20833   */\n      tag_279\n      jump\t// in\n    tag_504:\n        /* \"#utility.yul\":20762:20833   */\n      swap2\n      pop\n        /* \"#utility.yul\":20718:20843   */\n      pop\n        /* \"#utility.yul\":20505:20850   */\n      swap3\n      swap2\n      pop\n      pop\n      jump\t// out\n        /* \"#utility.yul\":20856:21025   */\n    tag_280:\n        /* \"#utility.yul\":20996:21017   */\n      0x4e6f7420656e6f756768204554482073656e7400000000000000000000000000\n        /* \"#utility.yul\":20992:20993   */\n      0x00\n        /* \"#utility.yul\":20984:20990   */\n      dup3\n        /* \"#utility.yul\":20980:20994   */\n      add\n        /* \"#utility.yul\":20973:21018   */\n      mstore\n        /* \"#utility.yul\":20856:21025   */\n      pop\n      jump\t// out\n        /* \"#utility.yul\":21031:21397   */\n    tag_281:\n        /* \"#utility.yul\":21173:21176   */\n      0x00\n        /* \"#utility.yul\":21194:21261   */\n      tag_507\n        /* \"#utility.yul\":21258:21260   */\n      0x13\n        /* \"#utility.yul\":21253:21256   */\n      dup4\n        /* \"#utility.yul\":21194:21261   */\n      tag_239\n      jump\t// in\n    tag_507:\n        /* \"#utility.yul\":21187:21261   */\n      swap2\n      pop\n        /* \"#utility.yul\":21270:21363   */\n      tag_508\n        /* \"#utility.yul\":21359:21362   */\n      dup3\n        /* \"#utility.yul\":21270:21363   */\n      tag_280\n      jump\t// in\n    tag_508:\n        /* \"#utility.yul\":21388:21390   */\n      0x20\n        /* \"#utility.yul\":21383:21386   */\n      dup3\n        /* \"#utility.yul\":21379:21391   */\n      add\n        /* \"#utility.yul\":21372:21391   */\n      swap1\n      pop\n        /* \"#utility.yul\":21031:21397   */\n      swap2\n      swap1\n      pop\n      jump\t// out\n        /* \"#utility.yul\":21403:21822   */\n    tag_145:\n        /* \"#utility.yul\":21569:21573   */\n      0x00\n        /* \"#utility.yul\":21607:21609   */\n      0x20\n        /* \"#utility.yul\":21596:21605   */\n      dup3\n        /* \"#utility.yul\":21592:21610   */\n      add\n        /* \"#utility.yul\":21584:21610   */\n      swap1\n      pop\n        /* \"#utility.yul\":21656:21665   */\n      dup2\n        /* \"#utility.yul\":21650:21654   */\n      dup2\n        /* \"#utility.yul\":21646:21666   */\n      sub\n        /* \"#utility.yul\":21642:21643   */\n      0x00\n        /* \"#utility.yul\":21631:21640   */\n      dup4\n        /* \"#utility.yul\":21627:21644   */\n      add\n        /* \"#utility.yul\":21620:21667   */\n      mstore\n        /* \"#utility.yul\":21684:21815   */\n      tag_510\n        /* \"#utility.yul\":21810:21814   */\n      dup2\n        /* \"#utility.yul\":21684:21815   */\n      tag_281\n      jump\t// in\n    tag_510:\n        /* \"#utility.yul\":21676:21815   */\n      swap1\n      pop\n        /* \"#utility.yul\":21403:21822   */\n      swap2\n      swap1\n      pop\n      jump\t// out\n        /* \"#utility.yul\":21828:22008   */\n    tag_282:\n        /* \"#utility.yul\":21876:21953   */\n      0x4e487b7100000000000000000000000000000000000000000000000000000000\n        /* \"#utility.yul\":21873:21874   */\n      0x00\n        /* \"#utility.yul\":21866:21954   */\n      mstore\n        /* \"#utility.yul\":21973:21977   */\n      0x11\n        /* \"#utility.yul\":21970:21971   */\n      0x04\n        /* \"#utility.yul\":21963:21978   */\n      mstore\n        /* \"#utility.yul\":21997:22001   */\n      0x24\n        /* \"#utility.yul\":21994:21995   */\n      0x00\n        /* \"#utility.yul\":21987:22002   */\n      revert\n        /* \"#utility.yul\":22014:22208   */\n    tag_148:\n        /* \"#utility.yul\":22054:22058   */\n      0x00\n        /* \"#utility.yul\":22074:22094   */\n      tag_513\n        /* \"#utility.yul\":22092:22093   */\n      dup3\n        /* \"#utility.yul\":22074:22094   */\n      tag_234\n      jump\t// in\n    tag_513:\n        /* \"#utility.yul\":22069:22094   */\n      swap2\n      pop\n        /* \"#utility.yul\":22108:22128   */\n      tag_514\n        /* \"#utility.yul\":22126:22127   */\n      dup4\n        /* \"#utility.yul\":22108:22128   */\n      tag_234\n      jump\t// in\n    tag_514:\n        /* \"#utility.yul\":22103:22128   */\n      swap3\n      pop\n        /* \"#utility.yul\":22152:22153   */\n      dup3\n        /* \"#utility.yul\":22149:22150   */\n      dup3\n        /* \"#utility.yul\":22145:22154   */\n      sub\n        /* \"#utility.yul\":22137:22154   */\n      swap1\n      pop\n        /* \"#utility.yul\":22176:22177   */\n      dup2\n        /* \"#utility.yul\":22170:22174   */\n      dup2\n        /* \"#utility.yul\":22167:22178   */\n      gt\n        /* \"#utility.yul\":22164:22201   */\n      iszero\n      tag_515\n      jumpi\n        /* \"#utility.yul\":22181:22199   */\n      tag_516\n      tag_282\n      jump\t// in\n    tag_516:\n        /* \"#utility.yul\":22164:22201   */\n    tag_515:\n        /* \"#utility.yul\":22014:22208   */\n      swap3\n      swap2\n      pop\n      pop\n      jump\t// out\n        /* \"#utility.yul\":22214:22361   */\n    tag_283:\n        /* \"#utility.yul\":22315:22326   */\n      0x00\n        /* \"#utility.yul\":22352:22355   */\n      dup2\n        /* \"#utility.yul\":22337:22355   */\n      swap1\n      pop\n        /* \"#utility.yul\":22214:22361   */\n      swap3\n      swap2\n      pop\n      pop\n      jump\t// out\n        /* \"#utility.yul\":22367:22481   */\n    tag_284:\n      pop\n      jump\t// out\n        /* \"#utility.yul\":22487:22885   */\n    tag_285:\n        /* \"#utility.yul\":22646:22649   */\n      0x00\n        /* \"#utility.yul\":22667:22750   */\n      tag_520\n        /* \"#utility.yul\":22748:22749   */\n      0x00\n        /* \"#utility.yul\":22743:22746   */\n      dup4\n        /* \"#utility.yul\":22667:22750   */\n      tag_283\n      jump\t// in\n    tag_520:\n        /* \"#utility.yul\":22660:22750   */\n      swap2\n      pop\n        /* \"#utility.yul\":22759:22852   */\n      tag_521\n        /* \"#utility.yul\":22848:22851   */\n      dup3\n        /* \"#utility.yul\":22759:22852   */\n      tag_284\n      jump\t// in\n    tag_521:\n        /* \"#utility.yul\":22877:22878   */\n      0x00\n        /* \"#utility.yul\":22872:22875   */\n      dup3\n        /* \"#utility.yul\":22868:22879   */\n      add\n        /* \"#utility.yul\":22861:22879   */\n      swap1\n      pop\n        /* \"#utility.yul\":22487:22885   */\n      swap2\n      swap1\n      pop\n      jump\t// out\n        /* \"#utility.yul\":22891:23270   */\n    tag_150:\n        /* \"#utility.yul\":23075:23078   */\n      0x00\n        /* \"#utility.yul\":23097:23244   */\n      tag_523\n        /* \"#utility.yul\":23240:23243   */\n      dup3\n        /* \"#utility.yul\":23097:23244   */\n      tag_285\n      jump\t// in\n    tag_523:\n        /* \"#utility.yul\":23090:23244   */\n      swap2\n      pop\n        /* \"#utility.yul\":23261:23264   */\n      dup2\n        /* \"#utility.yul\":23254:23264   */\n      swap1\n      pop\n        /* \"#utility.yul\":22891:23270   */\n      swap2\n      swap1\n      pop\n      jump\t// out\n        /* \"#utility.yul\":23276:23455   */\n    tag_286:\n        /* \"#utility.yul\":23416:23447   */\n      0x4661696c656420746f2073656e642045544820746f206c696272617279000000\n        /* \"#utility.yul\":23412:23413   */\n      0x00\n        /* \"#utility.yul\":23404:23410   */\n      dup3\n        /* \"#utility.yul\":23400:23414   */\n      add\n        /* \"#utility.yul\":23393:23448   */\n      mstore\n        /* \"#utility.yul\":23276:23455   */\n      pop\n      jump\t// out\n        /* \"#utility.yul\":23461:23827   */\n    tag_287:\n        /* \"#utility.yul\":23603:23606   */\n      0x00\n        /* \"#utility.yul\":23624:23691   */\n      tag_526\n        /* \"#utility.yul\":23688:23690   */\n      0x1d\n        /* \"#utility.yul\":23683:23686   */\n      dup4\n        /* \"#utility.yul\":23624:23691   */\n      tag_239\n      jump\t// in\n    tag_526:\n        /* \"#utility.yul\":23617:23691   */\n      swap2\n      pop\n        /* \"#utility.yul\":23700:23793   */\n      tag_527\n        /* \"#utility.yul\":23789:23792   */\n      dup3\n        /* \"#utility.yul\":23700:23793   */\n      tag_286\n      jump\t// in\n    tag_527:\n        /* \"#utility.yul\":23818:23820   */\n      0x20\n        /* \"#utility.yul\":23813:23816   */\n      dup3\n        /* \"#utility.yul\":23809:23821   */\n      add\n        /* \"#utility.yul\":23802:23821   */\n      swap1\n      pop\n        /* \"#utility.yul\":23461:23827   */\n      swap2\n      swap1\n      pop\n      jump\t// out\n        /* \"#utility.yul\":23833:24252   */\n    tag_156:\n        /* \"#utility.yul\":23999:24003   */\n      0x00\n        /* \"#utility.yul\":24037:24039   */\n      0x20\n        /* \"#utility.yul\":24026:24035   */\n      dup3\n        /* \"#utility.yul\":24022:24040   */\n      add\n        /* \"#utility.yul\":24014:24040   */\n      swap1\n      pop\n        /* \"#utility.yul\":24086:24095   */\n      dup2\n        /* \"#utility.yul\":24080:24084   */\n      dup2\n        /* \"#utility.yul\":24076:24096   */\n      sub\n        /* \"#utility.yul\":24072:24073   */\n      0x00\n        /* \"#utility.yul\":24061:24070   */\n      dup4\n        /* \"#utility.yul\":24057:24074   */\n      add\n        /* \"#utility.yul\":24050:24097   */\n      mstore\n        /* \"#utility.yul\":24114:24245   */\n      tag_529\n        /* \"#utility.yul\":24240:24244   */\n      dup2\n        /* \"#utility.yul\":24114:24245   */\n      tag_287\n      jump\t// in\n    tag_529:\n        /* \"#utility.yul\":24106:24245   */\n      swap1\n      pop\n        /* \"#utility.yul\":23833:24252   */\n      swap2\n      swap1\n      pop\n      jump\t// out\n        /* \"#utility.yul\":24258:24435   */\n    tag_288:\n        /* \"#utility.yul\":24398:24427   */\n      0x4661696c656420746f20726566756e6420657863657373204554480000000000\n        /* \"#utility.yul\":24394:24395   */\n      0x00\n        /* \"#utility.yul\":24386:24392   */\n      dup3\n        /* \"#utility.yul\":24382:24396   */\n      add\n        /* \"#utility.yul\":24375:24428   */\n      mstore\n        /* \"#utility.yul\":24258:24435   */\n      pop\n      jump\t// out\n        /* \"#utility.yul\":24441:24807   */\n    tag_289:\n        /* \"#utility.yul\":24583:24586   */\n      0x00\n        /* \"#utility.yul\":24604:24671   */\n      tag_532\n        /* \"#utility.yul\":24668:24670   */\n      0x1b\n        /* \"#utility.yul\":24663:24666   */\n      dup4\n        /* \"#utility.yul\":24604:24671   */\n      tag_239\n      jump\t// in\n    tag_532:\n        /* \"#utility.yul\":24597:24671   */\n      swap2\n      pop\n        /* \"#utility.yul\":24680:24773   */\n      tag_533\n        /* \"#utility.yul\":24769:24772   */\n      dup3\n        /* \"#utility.yul\":24680:24773   */\n      tag_288\n      jump\t// in\n    tag_533:\n        /* \"#utility.yul\":24798:24800   */\n      0x20\n        /* \"#utility.yul\":24793:24796   */\n      dup3\n        /* \"#utility.yul\":24789:24801   */\n      add\n        /* \"#utility.yul\":24782:24801   */\n      swap1\n      pop\n        /* \"#utility.yul\":24441:24807   */\n      swap2\n      swap1\n      pop\n      jump\t// out\n        /* \"#utility.yul\":24813:25232   */\n    tag_165:\n        /* \"#utility.yul\":24979:24983   */\n      0x00\n        /* \"#utility.yul\":25017:25019   */\n      0x20\n        /* \"#utility.yul\":25006:25015   */\n      dup3\n        /* \"#utility.yul\":25002:25020   */\n      add\n        /* \"#utility.yul\":24994:25020   */\n      swap1\n      pop\n        /* \"#utility.yul\":25066:25075   */\n      dup2\n        /* \"#utility.yul\":25060:25064   */\n      dup2\n        /* \"#utility.yul\":25056:25076   */\n      sub\n        /* \"#utility.yul\":25052:25053   */\n      0x00\n        /* \"#utility.yul\":25041:25050   */\n      dup4\n        /* \"#utility.yul\":25037:25054   */\n      add\n        /* \"#utility.yul\":25030:25077   */\n      mstore\n        /* \"#utility.yul\":25094:25225   */\n      tag_535\n        /* \"#utility.yul\":25220:25224   */\n      dup2\n        /* \"#utility.yul\":25094:25225   */\n      tag_289\n      jump\t// in\n    tag_535:\n        /* \"#utility.yul\":25086:25225   */\n      swap1\n      pop\n        /* \"#utility.yul\":24813:25232   */\n      swap2\n      swap1\n      pop\n      jump\t// out\n        /* \"#utility.yul\":25238:25410   */\n    tag_290:\n        /* \"#utility.yul\":25378:25402   */\n      0x5469746c652063616e6e6f7420626520656d7074792100000000000000000000\n        /* \"#utility.yul\":25374:25375   */\n      0x00\n        /* \"#utility.yul\":25366:25372   */\n      dup3\n        /* \"#utility.yul\":25362:25376   */\n      add\n        /* \"#utility.yul\":25355:25403   */\n      mstore\n        /* \"#utility.yul\":25238:25410   */\n      pop\n      jump\t// out\n        /* \"#utility.yul\":25416:25782   */\n    tag_291:\n        /* \"#utility.yul\":25558:25561   */\n      0x00\n        /* \"#utility.yul\":25579:25646   */\n      tag_538\n        /* \"#utility.yul\":25643:25645   */\n      0x16\n        /* \"#utility.yul\":25638:25641   */\n      dup4\n        /* \"#utility.yul\":25579:25646   */\n      tag_239\n      jump\t// in\n    tag_538:\n        /* \"#utility.yul\":25572:25646   */\n      swap2\n      pop\n        /* \"#utility.yul\":25655:25748   */\n      tag_539\n        /* \"#utility.yul\":25744:25747   */\n      dup3\n        /* \"#utility.yul\":25655:25748   */\n      tag_290\n      jump\t// in\n    tag_539:\n        /* \"#utility.yul\":25773:25775   */\n      0x20\n        /* \"#utility.yul\":25768:25771   */\n      dup3\n        /* \"#utility.yul\":25764:25776   */\n      add\n        /* \"#utility.yul\":25757:25776   */\n      swap1\n      pop\n        /* \"#utility.yul\":25416:25782   */\n      swap2\n      swap1\n      pop\n      jump\t// out\n        /* \"#utility.yul\":25788:26207   */\n    tag_190:\n        /* \"#utility.yul\":25954:25958   */\n      0x00\n        /* \"#utility.yul\":25992:25994   */\n      0x20\n        /* \"#utility.yul\":25981:25990   */\n      dup3\n        /* \"#utility.yul\":25977:25995   */\n      add\n        /* \"#utility.yul\":25969:25995   */\n      swap1\n      pop\n        /* \"#utility.yul\":26041:26050   */\n      dup2\n        /* \"#utility.yul\":26035:26039   */\n      dup2\n        /* \"#utility.yul\":26031:26051   */\n      sub\n        /* \"#utility.yul\":26027:26028   */\n      0x00\n        /* \"#utility.yul\":26016:26025   */\n      dup4\n        /* \"#utility.yul\":26012:26029   */\n      add\n        /* \"#utility.yul\":26005:26052   */\n      mstore\n        /* \"#utility.yul\":26069:26200   */\n      tag_541\n        /* \"#utility.yul\":26195:26199   */\n      dup2\n        /* \"#utility.yul\":26069:26200   */\n      tag_291\n      jump\t// in\n    tag_541:\n        /* \"#utility.yul\":26061:26200   */\n      swap1\n      pop\n        /* \"#utility.yul\":25788:26207   */\n      swap2\n      swap1\n      pop\n      jump\t// out\n        /* \"#utility.yul\":26213:26386   */\n    tag_292:\n        /* \"#utility.yul\":26353:26378   */\n      0x417574686f722063616e6e6f7420626520656d70747921000000000000000000\n        /* \"#utility.yul\":26349:26350   */\n      0x00\n        /* \"#utility.yul\":26341:26347   */\n      dup3\n        /* \"#utility.yul\":26337:26351   */\n      add\n        /* \"#utility.yul\":26330:26379   */\n      mstore\n        /* \"#utility.yul\":26213:26386   */\n      pop\n      jump\t// out\n        /* \"#utility.yul\":26392:26758   */\n    tag_293:\n        /* \"#utility.yul\":26534:26537   */\n      0x00\n        /* \"#utility.yul\":26555:26622   */\n      tag_544\n        /* \"#utility.yul\":26619:26621   */\n      0x17\n        /* \"#utility.yul\":26614:26617   */\n      dup4\n        /* \"#utility.yul\":26555:26622   */\n      tag_239\n      jump\t// in\n    tag_544:\n        /* \"#utility.yul\":26548:26622   */\n      swap2\n      pop\n        /* \"#utility.yul\":26631:26724   */\n      tag_545\n        /* \"#utility.yul\":26720:26723   */\n      dup3\n        /* \"#utility.yul\":26631:26724   */\n      tag_292\n      jump\t// in\n    tag_545:\n        /* \"#utility.yul\":26749:26751   */\n      0x20\n        /* \"#utility.yul\":26744:26747   */\n      dup3\n        /* \"#utility.yul\":26740:26752   */\n      add\n        /* \"#utility.yul\":26733:26752   */\n      swap1\n      pop\n        /* \"#utility.yul\":26392:26758   */\n      swap2\n      swap1\n      pop\n      jump\t// out\n        /* \"#utility.yul\":26764:27183   */\n    tag_193:\n        /* \"#utility.yul\":26930:26934   */\n      0x00\n        /* \"#utility.yul\":26968:26970   */\n      0x20\n        /* \"#utility.yul\":26957:26966   */\n      dup3\n        /* \"#utility.yul\":26953:26971   */\n      add\n        /* \"#utility.yul\":26945:26971   */\n      swap1\n      pop\n        /* \"#utility.yul\":27017:27026   */\n      dup2\n        /* \"#utility.yul\":27011:27015   */\n      dup2\n        /* \"#utility.yul\":27007:27027   */\n      sub\n        /* \"#utility.yul\":27003:27004   */\n      0x00\n        /* \"#utility.yul\":26992:27001   */\n      dup4\n        /* \"#utility.yul\":26988:27005   */\n      add\n        /* \"#utility.yul\":26981:27028   */\n      mstore\n        /* \"#utility.yul\":27045:27176   */\n      tag_547\n        /* \"#utility.yul\":27171:27175   */\n      dup2\n        /* \"#utility.yul\":27045:27176   */\n      tag_293\n      jump\t// in\n    tag_547:\n        /* \"#utility.yul\":27037:27176   */\n      swap1\n      pop\n        /* \"#utility.yul\":26764:27183   */\n      swap2\n      swap1\n      pop\n      jump\t// out\n        /* \"#utility.yul\":27189:27361   */\n    tag_294:\n        /* \"#utility.yul\":27329:27353   */\n      0x47656e72652063616e6e6f7420626520656d7074792100000000000000000000\n        /* \"#utility.yul\":27325:27326   */\n      0x00\n        /* \"#utility.yul\":27317:27323   */\n      dup3\n        /* \"#utility.yul\":27313:27327   */\n      add\n        /* \"#utility.yul\":27306:27354   */\n      mstore\n        /* \"#utility.yul\":27189:27361   */\n      pop\n      jump\t// out\n        /* \"#utility.yul\":27367:27733   */\n    tag_295:\n        /* \"#utility.yul\":27509:27512   */\n      0x00\n        /* \"#utility.yul\":27530:27597   */\n      tag_550\n        /* \"#utility.yul\":27594:27596   */\n      0x16\n        /* \"#utility.yul\":27589:27592   */\n      dup4\n        /* \"#utility.yul\":27530:27597   */\n      tag_239\n      jump\t// in\n    tag_550:\n        /* \"#utility.yul\":27523:27597   */\n      swap2\n      pop\n        /* \"#utility.yul\":27606:27699   */\n      tag_551\n        /* \"#utility.yul\":27695:27698   */\n      dup3\n        /* \"#utility.yul\":27606:27699   */\n      tag_294\n      jump\t// in\n    tag_551:\n        /* \"#utility.yul\":27724:27726   */\n      0x20\n        /* \"#utility.yul\":27719:27722   */\n      dup3\n        /* \"#utility.yul\":27715:27727   */\n      add\n        /* \"#utility.yul\":27708:27727   */\n      swap1\n      pop\n        /* \"#utility.yul\":27367:27733   */\n      swap2\n      swap1\n      pop\n      jump\t// out\n        /* \"#utility.yul\":27739:28158   */\n    tag_196:\n        /* \"#utility.yul\":27905:27909   */\n      0x00\n        /* \"#utility.yul\":27943:27945   */\n      0x20\n        /* \"#utility.yul\":27932:27941   */\n      dup3\n        /* \"#utility.yul\":27928:27946   */\n      add\n        /* \"#utility.yul\":27920:27946   */\n      swap1\n      pop\n        /* \"#utility.yul\":27992:28001   */\n      dup2\n        /* \"#utility.yul\":27986:27990   */\n      dup2\n        /* \"#utility.yul\":27982:28002   */\n      sub\n        /* \"#utility.yul\":27978:27979   */\n      0x00\n        /* \"#utility.yul\":27967:27976   */\n      dup4\n        /* \"#utility.yul\":27963:27980   */\n      add\n        /* \"#utility.yul\":27956:28003   */\n      mstore\n        /* \"#utility.yul\":28020:28151   */\n      tag_553\n        /* \"#utility.yul\":28146:28150   */\n      dup2\n        /* \"#utility.yul\":28020:28151   */\n      tag_295\n      jump\t// in\n    tag_553:\n        /* \"#utility.yul\":28012:28151   */\n      swap1\n      pop\n        /* \"#utility.yul\":27739:28158   */\n      swap2\n      swap1\n      pop\n      jump\t// out\n        /* \"#utility.yul\":28164:28345   */\n    tag_296:\n        /* \"#utility.yul\":28304:28337   */\n      0x5175616e74697479206d7573742062652067726561746572207468616e203000\n        /* \"#utility.yul\":28300:28301   */\n      0x00\n        /* \"#utility.yul\":28292:28298   */\n      dup3\n        /* \"#utility.yul\":28288:28302   */\n      add\n        /* \"#utility.yul\":28281:28338   */\n      mstore\n        /* \"#utility.yul\":28164:28345   */\n      pop\n      jump\t// out\n        /* \"#utility.yul\":28351:28717   */\n    tag_297:\n        /* \"#utility.yul\":28493:28496   */\n      0x00\n        /* \"#utility.yul\":28514:28581   */\n      tag_556\n        /* \"#utility.yul\":28578:28580   */\n      0x1f\n        /* \"#utility.yul\":28573:28576   */\n      dup4\n        /* \"#utility.yul\":28514:28581   */\n      tag_239\n      jump\t// in\n    tag_556:\n        /* \"#utility.yul\":28507:28581   */\n      swap2\n      pop\n        /* \"#utility.yul\":28590:28683   */\n      tag_557\n        /* \"#utility.yul\":28679:28682   */\n      dup3\n        /* \"#utility.yul\":28590:28683   */\n      tag_296\n      jump\t// in\n    tag_557:\n        /* \"#utility.yul\":28708:28710   */\n      0x20\n        /* \"#utility.yul\":28703:28706   */\n      dup3\n        /* \"#utility.yul\":28699:28711   */\n      add\n        /* \"#utility.yul\":28692:28711   */\n      swap1\n      pop\n        /* \"#utility.yul\":28351:28717   */\n      swap2\n      swap1\n      pop\n      jump\t// out\n        /* \"#utility.yul\":28723:29142   */\n    tag_199:\n        /* \"#utility.yul\":28889:28893   */\n      0x00\n        /* \"#utility.yul\":28927:28929   */\n      0x20\n        /* \"#utility.yul\":28916:28925   */\n      dup3\n        /* \"#utility.yul\":28912:28930   */\n      add\n        /* \"#utility.yul\":28904:28930   */\n      swap1\n      pop\n        /* \"#utility.yul\":28976:28985   */\n      dup2\n        /* \"#utility.yul\":28970:28974   */\n      dup2\n        /* \"#utility.yul\":28966:28986   */\n      sub\n        /* \"#utility.yul\":28962:28963   */\n      0x00\n        /* \"#utility.yul\":28951:28960   */\n      dup4\n        /* \"#utility.yul\":28947:28964   */\n      add\n        /* \"#utility.yul\":28940:28987   */\n      mstore\n        /* \"#utility.yul\":29004:29135   */\n      tag_559\n        /* \"#utility.yul\":29130:29134   */\n      dup2\n        /* \"#utility.yul\":29004:29135   */\n      tag_297\n      jump\t// in\n    tag_559:\n        /* \"#utility.yul\":28996:29135   */\n      swap1\n      pop\n        /* \"#utility.yul\":28723:29142   */\n      swap2\n      swap1\n      pop\n      jump\t// out\n        /* \"#utility.yul\":29148:29326   */\n    tag_298:\n        /* \"#utility.yul\":29288:29318   */\n      0x5072696365206d7573742062652067726561746572207468616e203000000000\n        /* \"#utility.yul\":29284:29285   */\n      0x00\n        /* \"#utility.yul\":29276:29282   */\n      dup3\n        /* \"#utility.yul\":29272:29286   */\n      add\n        /* \"#utility.yul\":29265:29319   */\n      mstore\n        /* \"#utility.yul\":29148:29326   */\n      pop\n      jump\t// out\n        /* \"#utility.yul\":29332:29698   */\n    tag_299:\n        /* \"#utility.yul\":29474:29477   */\n      0x00\n        /* \"#utility.yul\":29495:29562   */\n      tag_562\n        /* \"#utility.yul\":29559:29561   */\n      0x1c\n        /* \"#utility.yul\":29554:29557   */\n      dup4\n        /* \"#utility.yul\":29495:29562   */\n      tag_239\n      jump\t// in\n    tag_562:\n        /* \"#utility.yul\":29488:29562   */\n      swap2\n      pop\n        /* \"#utility.yul\":29571:29664   */\n      tag_563\n        /* \"#utility.yul\":29660:29663   */\n      dup3\n        /* \"#utility.yul\":29571:29664   */\n      tag_298\n      jump\t// in\n    tag_563:\n        /* \"#utility.yul\":29689:29691   */\n      0x20\n        /* \"#utility.yul\":29684:29687   */\n      dup3\n        /* \"#utility.yul\":29680:29692   */\n      add\n        /* \"#utility.yul\":29673:29692   */\n      swap1\n      pop\n        /* \"#utility.yul\":29332:29698   */\n      swap2\n      swap1\n      pop\n      jump\t// out\n        /* \"#utility.yul\":29704:30123   */\n    tag_202:\n        /* \"#utility.yul\":29870:29874   */\n      0x00\n        /* \"#utility.yul\":29908:29910   */\n      0x20\n        /* \"#utility.yul\":29897:29906   */\n      dup3\n        /* \"#utility.yul\":29893:29911   */\n      add\n        /* \"#utility.yul\":29885:29911   */\n      swap1\n      pop\n        /* \"#utility.yul\":29957:29966   */\n      dup2\n        /* \"#utility.yul\":29951:29955   */\n      dup2\n        /* \"#utility.yul\":29947:29967   */\n      sub\n        /* \"#utility.yul\":29943:29944   */\n      0x00\n        /* \"#utility.yul\":29932:29941   */\n      dup4\n        /* \"#utility.yul\":29928:29945   */\n      add\n        /* \"#utility.yul\":29921:29968   */\n      mstore\n        /* \"#utility.yul\":29985:30116   */\n      tag_565\n        /* \"#utility.yul\":30111:30115   */\n      dup2\n        /* \"#utility.yul\":29985:30116   */\n      tag_299\n      jump\t// in\n    tag_565:\n        /* \"#utility.yul\":29977:30116   */\n      swap1\n      pop\n        /* \"#utility.yul\":29704:30123   */\n      swap2\n      swap1\n      pop\n      jump\t// out\n        /* \"#utility.yul\":30129:30277   */\n    tag_300:\n        /* \"#utility.yul\":30231:30242   */\n      0x00\n        /* \"#utility.yul\":30268:30271   */\n      dup2\n        /* \"#utility.yul\":30253:30271   */\n      swap1\n      pop\n        /* \"#utility.yul\":30129:30277   */\n      swap3\n      swap2\n      pop\n      pop\n      jump\t// out\n        /* \"#utility.yul\":30283:30673   */\n    tag_301:\n        /* \"#utility.yul\":30389:30392   */\n      0x00\n        /* \"#utility.yul\":30417:30456   */\n      tag_568\n        /* \"#utility.yul\":30450:30455   */\n      dup3\n        /* \"#utility.yul\":30417:30456   */\n      tag_238\n      jump\t// in\n    tag_568:\n        /* \"#utility.yul\":30472:30561   */\n      tag_569\n        /* \"#utility.yul\":30554:30560   */\n      dup2\n        /* \"#utility.yul\":30549:30552   */\n      dup6\n        /* \"#utility.yul\":30472:30561   */\n      tag_300\n      jump\t// in\n    tag_569:\n        /* \"#utility.yul\":30465:30561   */\n      swap4\n      pop\n        /* \"#utility.yul\":30570:30635   */\n      tag_570\n        /* \"#utility.yul\":30628:30634   */\n      dup2\n        /* \"#utility.yul\":30623:30626   */\n      dup6\n        /* \"#utility.yul\":30616:30620   */\n      0x20\n        /* \"#utility.yul\":30609:30614   */\n      dup7\n        /* \"#utility.yul\":30605:30621   */\n      add\n        /* \"#utility.yul\":30570:30635   */\n      tag_240\n      jump\t// in\n    tag_570:\n        /* \"#utility.yul\":30660:30666   */\n      dup1\n        /* \"#utility.yul\":30655:30658   */\n      dup5\n        /* \"#utility.yul\":30651:30667   */\n      add\n        /* \"#utility.yul\":30644:30667   */\n      swap2\n      pop\n        /* \"#utility.yul\":30393:30673   */\n      pop\n        /* \"#utility.yul\":30283:30673   */\n      swap3\n      swap2\n      pop\n      pop\n      jump\t// out\n        /* \"#utility.yul\":30679:31114   */\n    tag_206:\n        /* \"#utility.yul\":30859:30862   */\n      0x00\n        /* \"#utility.yul\":30881:30976   */\n      tag_572\n        /* \"#utility.yul\":30972:30975   */\n      dup3\n        /* \"#utility.yul\":30963:30969   */\n      dup6\n        /* \"#utility.yul\":30881:30976   */\n      tag_301\n      jump\t// in\n    tag_572:\n        /* \"#utility.yul\":30874:30976   */\n      swap2\n      pop\n        /* \"#utility.yul\":30993:31088   */\n      tag_573\n        /* \"#utility.yul\":31084:31087   */\n      dup3\n        /* \"#utility.yul\":31075:31081   */\n      dup5\n        /* \"#utility.yul\":30993:31088   */\n      tag_301\n      jump\t// in\n    tag_573:\n        /* \"#utility.yul\":30986:31088   */\n      swap2\n      pop\n        /* \"#utility.yul\":31105:31108   */\n      dup2\n        /* \"#utility.yul\":31098:31108   */\n      swap1\n      pop\n        /* \"#utility.yul\":30679:31114   */\n      swap4\n      swap3\n      pop\n      pop\n      pop\n      jump\t// out\n        /* \"#utility.yul\":31120:31347   */\n    tag_302:\n        /* \"#utility.yul\":31260:31294   */\n      0x5468697320626f6f6b206279207468697320617574686f7220616c7265616479\n        /* \"#utility.yul\":31256:31257   */\n      0x00\n        /* \"#utility.yul\":31248:31254   */\n      dup3\n        /* \"#utility.yul\":31244:31258   */\n      add\n        /* \"#utility.yul\":31237:31295   */\n      mstore\n        /* \"#utility.yul\":31329:31339   */\n      0x2065786973747321000000000000000000000000000000000000000000000000\n        /* \"#utility.yul\":31324:31326   */\n      0x20\n        /* \"#utility.yul\":31316:31322   */\n      dup3\n        /* \"#utility.yul\":31312:31327   */\n      add\n        /* \"#utility.yul\":31305:31340   */\n      mstore\n        /* \"#utility.yul\":31120:31347   */\n      pop\n      jump\t// out\n        /* \"#utility.yul\":31353:31719   */\n    tag_303:\n        /* \"#utility.yul\":31495:31498   */\n      0x00\n        /* \"#utility.yul\":31516:31583   */\n      tag_576\n        /* \"#utility.yul\":31580:31582   */\n      0x28\n        /* \"#utility.yul\":31575:31578   */\n      dup4\n        /* \"#utility.yul\":31516:31583   */\n      tag_239\n      jump\t// in\n    tag_576:\n        /* \"#utility.yul\":31509:31583   */\n      swap2\n      pop\n        /* \"#utility.yul\":31592:31685   */\n      tag_577\n        /* \"#utility.yul\":31681:31684   */\n      dup3\n        /* \"#utility.yul\":31592:31685   */\n      tag_302\n      jump\t// in\n    tag_577:\n        /* \"#utility.yul\":31710:31712   */\n      0x40\n        /* \"#utility.yul\":31705:31708   */\n      dup3\n        /* \"#utility.yul\":31701:31713   */\n      add\n        /* \"#utility.yul\":31694:31713   */\n      swap1\n      pop\n        /* \"#utility.yul\":31353:31719   */\n      swap2\n      swap1\n      pop\n      jump\t// out\n        /* \"#utility.yul\":31725:32144   */\n    tag_209:\n        /* \"#utility.yul\":31891:31895   */\n      0x00\n        /* \"#utility.yul\":31929:31931   */\n      0x20\n        /* \"#utility.yul\":31918:31927   */\n      dup3\n        /* \"#utility.yul\":31914:31932   */\n      add\n        /* \"#utility.yul\":31906:31932   */\n      swap1\n      pop\n        /* \"#utility.yul\":31978:31987   */\n      dup2\n        /* \"#utility.yul\":31972:31976   */\n      dup2\n        /* \"#utility.yul\":31968:31988   */\n      sub\n        /* \"#utility.yul\":31964:31965   */\n      0x00\n        /* \"#utility.yul\":31953:31962   */\n      dup4\n        /* \"#utility.yul\":31949:31966   */\n      add\n        /* \"#utility.yul\":31942:31989   */\n      mstore\n        /* \"#utility.yul\":32006:32137   */\n      tag_579\n        /* \"#utility.yul\":32132:32136   */\n      dup2\n        /* \"#utility.yul\":32006:32137   */\n      tag_303\n      jump\t// in\n    tag_579:\n        /* \"#utility.yul\":31998:32137   */\n      swap1\n      pop\n        /* \"#utility.yul\":31725:32144   */\n      swap2\n      swap1\n      pop\n      jump\t// out\n        /* \"#utility.yul\":32150:32341   */\n    tag_211:\n        /* \"#utility.yul\":32190:32193   */\n      0x00\n        /* \"#utility.yul\":32209:32229   */\n      tag_581\n        /* \"#utility.yul\":32227:32228   */\n      dup3\n        /* \"#utility.yul\":32209:32229   */\n      tag_234\n      jump\t// in\n    tag_581:\n        /* \"#utility.yul\":32204:32229   */\n      swap2\n      pop\n        /* \"#utility.yul\":32243:32263   */\n      tag_582\n        /* \"#utility.yul\":32261:32262   */\n      dup4\n        /* \"#utility.yul\":32243:32263   */\n      tag_234\n      jump\t// in\n    tag_582:\n        /* \"#utility.yul\":32238:32263   */\n      swap3\n      pop\n        /* \"#utility.yul\":32286:32287   */\n      dup3\n        /* \"#utility.yul\":32283:32284   */\n      dup3\n        /* \"#utility.yul\":32279:32288   */\n      add\n        /* \"#utility.yul\":32272:32288   */\n      swap1\n      pop\n        /* \"#utility.yul\":32307:32310   */\n      dup1\n        /* \"#utility.yul\":32304:32305   */\n      dup3\n        /* \"#utility.yul\":32301:32311   */\n      gt\n        /* \"#utility.yul\":32298:32334   */\n      iszero\n      tag_583\n      jumpi\n        /* \"#utility.yul\":32314:32332   */\n      tag_584\n      tag_282\n      jump\t// in\n    tag_584:\n        /* \"#utility.yul\":32298:32334   */\n    tag_583:\n        /* \"#utility.yul\":32150:32341   */\n      swap3\n      swap2\n      pop\n      pop\n      jump\t// out\n        /* \"#utility.yul\":32347:32488   */\n    tag_304:\n        /* \"#utility.yul\":32396:32400   */\n      0x00\n        /* \"#utility.yul\":32419:32422   */\n      dup2\n        /* \"#utility.yul\":32411:32422   */\n      swap1\n      pop\n        /* \"#utility.yul\":32442:32445   */\n      dup2\n        /* \"#utility.yul\":32439:32440   */\n      0x00\n        /* \"#utility.yul\":32432:32446   */\n      mstore\n        /* \"#utility.yul\":32476:32480   */\n      0x20\n        /* \"#utility.yul\":32473:32474   */\n      0x00\n        /* \"#utility.yul\":32463:32481   */\n      keccak256\n        /* \"#utility.yul\":32455:32481   */\n      swap1\n      pop\n        /* \"#utility.yul\":32347:32488   */\n      swap2\n      swap1\n      pop\n      jump\t// out\n        /* \"#utility.yul\":32494:32587   */\n    tag_305:\n        /* \"#utility.yul\":32531:32537   */\n      0x00\n        /* \"#utility.yul\":32578:32580   */\n      0x20\n        /* \"#utility.yul\":32573:32575   */\n      0x1f\n        /* \"#utility.yul\":32566:32571   */\n      dup4\n        /* \"#utility.yul\":32562:32576   */\n      add\n        /* \"#utility.yul\":32558:32581   */\n      div\n        /* \"#utility.yul\":32548:32581   */\n      swap1\n      pop\n        /* \"#utility.yul\":32494:32587   */\n      swap2\n      swap1\n      pop\n      jump\t// out\n        /* \"#utility.yul\":32593:32700   */\n    tag_306:\n        /* \"#utility.yul\":32637:32645   */\n      0x00\n        /* \"#utility.yul\":32687:32692   */\n      dup3\n        /* \"#utility.yul\":32681:32685   */\n      dup3\n        /* \"#utility.yul\":32677:32693   */\n      shl\n        /* \"#utility.yul\":32656:32693   */\n      swap1\n      pop\n        /* \"#utility.yul\":32593:32700   */\n      swap3\n      swap2\n      pop\n      pop\n      jump\t// out\n        /* \"#utility.yul\":32706:33099   */\n    tag_307:\n        /* \"#utility.yul\":32775:32781   */\n      0x00\n        /* \"#utility.yul\":32825:32826   */\n      0x08\n        /* \"#utility.yul\":32813:32823   */\n      dup4\n        /* \"#utility.yul\":32809:32827   */\n      mul\n        /* \"#utility.yul\":32848:32945   */\n      tag_589\n        /* \"#utility.yul\":32878:32944   */\n      0xffffffffffffffffffffffffffffffffffffffffffffffffffffffffffffffff\n        /* \"#utility.yul\":32867:32876   */\n      dup3\n        /* \"#utility.yul\":32848:32945   */\n      tag_306\n      jump\t// in\n    tag_589:\n        /* \"#utility.yul\":32966:33005   */\n      tag_590\n        /* \"#utility.yul\":32996:33004   */\n      dup7\n        /* \"#utility.yul\":32985:32994   */\n      dup4\n        /* \"#utility.yul\":32966:33005   */\n      tag_306\n      jump\t// in\n    tag_590:\n        /* \"#utility.yul\":32954:33005   */\n      swap6\n      pop\n        /* \"#utility.yul\":33038:33042   */\n      dup1\n        /* \"#utility.yul\":33034:33043   */\n      not\n        /* \"#utility.yul\":33027:33032   */\n      dup5\n        /* \"#utility.yul\":33023:33044   */\n      and\n        /* \"#utility.yul\":33014:33044   */\n      swap4\n      pop\n        /* \"#utility.yul\":33087:33091   */\n      dup1\n        /* \"#utility.yul\":33077:33085   */\n      dup7\n        /* \"#utility.yul\":33073:33092   */\n      and\n        /* \"#utility.yul\":33066:33071   */\n      dup5\n        /* \"#utility.yul\":33063:33093   */\n      or\n        /* \"#utility.yul\":33053:33093   */\n      swap3\n      pop\n        /* \"#utility.yul\":32782:33099   */\n      pop\n      pop\n        /* \"#utility.yul\":32706:33099   */\n      swap4\n      swap3\n      pop\n      pop\n      pop\n      jump\t// out\n        /* \"#utility.yul\":33105:33247   */\n    tag_308:\n        /* \"#utility.yul\":33155:33164   */\n      0x00\n        /* \"#utility.yul\":33188:33241   */\n      tag_592\n        /* \"#utility.yul\":33206:33240   */\n      tag_593\n        /* \"#utility.yul\":33215:33239   */\n      tag_594\n        /* \"#utility.yul\":33233:33238   */\n      dup5\n        /* \"#utility.yul\":33215:33239   */\n      tag_234\n      jump\t// in\n    tag_594:\n        /* \"#utility.yul\":33206:33240   */\n      tag_268\n      jump\t// in\n    tag_593:\n        /* \"#utility.yul\":33188:33241   */\n      tag_234\n      jump\t// in\n    tag_592:\n        /* \"#utility.yul\":33175:33241   */\n      swap1\n      pop\n        /* \"#utility.yul\":33105:33247   */\n      swap2\n      swap1\n      pop\n      jump\t// out\n        /* \"#utility.yul\":33253:33328   */\n    tag_309:\n        /* \"#utility.yul\":33296:33299   */\n      0x00\n        /* \"#utility.yul\":33317:33322   */\n      dup2\n        /* \"#utility.yul\":33310:33322   */\n      swap1\n      pop\n        /* \"#utility.yul\":33253:33328   */\n      swap2\n      swap1\n      pop\n      jump\t// out\n        /* \"#utility.yul\":33334:33603   */\n    tag_310:\n        /* \"#utility.yul\":33444:33483   */\n      tag_597\n        /* \"#utility.yul\":33475:33482   */\n      dup4\n        /* \"#utility.yul\":33444:33483   */\n      tag_308\n      jump\t// in\n    tag_597:\n        /* \"#utility.yul\":33505:33596   */\n      tag_598\n        /* \"#utility.yul\":33554:33595   */\n      tag_599\n        /* \"#utility.yul\":33578:33594   */\n      dup3\n        /* \"#utility.yul\":33554:33595   */\n      tag_309\n      jump\t// in\n    tag_599:\n        /* \"#utility.yul\":33546:33552   */\n      dup5\n        /* \"#utility.yul\":33539:33543   */\n      dup5\n        /* \"#utility.yul\":33533:33544   */\n      sload\n        /* \"#utility.yul\":33505:33596   */\n      tag_307\n      jump\t// in\n    tag_598:\n        /* \"#utility.yul\":33499:33503   */\n      dup3\n        /* \"#utility.yul\":33492:33597   */\n      sstore\n        /* \"#utility.yul\":33410:33603   */\n      pop\n        /* \"#utility.yul\":33334:33603   */\n      pop\n      pop\n      pop\n      jump\t// out\n        /* \"#utility.yul\":33609:33682   */\n    tag_311:\n        /* \"#utility.yul\":33654:33657   */\n      0x00\n        /* \"#utility.yul\":33675:33676   */\n      0x00\n        /* \"#utility.yul\":33668:33676   */\n      swap1\n      pop\n        /* \"#utility.yul\":33609:33682   */\n      swap1\n      jump\t// out\n        /* \"#utility.yul\":33688:33877   */\n    tag_312:\n        /* \"#utility.yul\":33765:33797   */\n      tag_602\n      tag_311\n      jump\t// in\n    tag_602:\n        /* \"#utility.yul\":33806:33871   */\n      tag_603\n        /* \"#utility.yul\":33864:33870   */\n      dup2\n        /* \"#utility.yul\":33856:33862   */\n      dup5\n        /* \"#utility.yul\":33850:33854   */\n      dup5\n        /* \"#utility.yul\":33806:33871   */\n      tag_310\n      jump\t// in\n    tag_603:\n        /* \"#utility.yul\":33741:33877   */\n      pop\n        /* \"#utility.yul\":33688:33877   */\n      pop\n      pop\n      jump\t// out\n        /* \"#utility.yul\":33883:34069   */\n    tag_313:\n        /* \"#utility.yul\":33943:34063   */\n    tag_605:\n        /* \"#utility.yul\":33960:33963   */\n      dup2\n        /* \"#utility.yul\":33953:33958   */\n      dup2\n        /* \"#utility.yul\":33950:33964   */\n      lt\n        /* \"#utility.yul\":33943:34063   */\n      iszero\n      tag_607\n      jumpi\n        /* \"#utility.yul\":34014:34053   */\n      tag_608\n        /* \"#utility.yul\":34051:34052   */\n      0x00\n        /* \"#utility.yul\":34044:34049   */\n      dup3\n        /* \"#utility.yul\":34014:34053   */\n      tag_312\n      jump\t// in\n    tag_608:\n        /* \"#utility.yul\":33987:33988   */\n      0x01\n        /* \"#utility.yul\":33980:33985   */\n      dup2\n        /* \"#utility.yul\":33976:33989   */\n      add\n        /* \"#utility.yul\":33967:33989   */\n      swap1\n      pop\n        /* \"#utility.yul\":33943:34063   */\n      jump(tag_605)\n    tag_607:\n        /* \"#utility.yul\":33883:34069   */\n      pop\n      pop\n      jump\t// out\n        /* \"#utility.yul\":34075:34618   */\n    tag_314:\n        /* \"#utility.yul\":34176:34178   */\n      0x1f\n        /* \"#utility.yul\":34171:34174   */\n      dup3\n        /* \"#utility.yul\":34168:34179   */\n      gt\n        /* \"#utility.yul\":34165:34611   */\n      iszero\n      tag_610\n      jumpi\n        /* \"#utility.yul\":34210:34248   */\n      tag_611\n        /* \"#utility.yul\":34242:34247   */\n      dup2\n        /* \"#utility.yul\":34210:34248   */\n      tag_304\n      jump\t// in\n    tag_611:\n        /* \"#utility.yul\":34294:34323   */\n      tag_612\n        /* \"#utility.yul\":34312:34322   */\n      dup5\n        /* \"#utility.yul\":34294:34323   */\n      tag_305\n      jump\t// in\n    tag_612:\n        /* \"#utility.yul\":34284:34292   */\n      dup2\n        /* \"#utility.yul\":34280:34324   */\n      add\n        /* \"#utility.yul\":34477:34479   */\n      0x20\n        /* \"#utility.yul\":34465:34475   */\n      dup6\n        /* \"#utility.yul\":34462:34480   */\n      lt\n        /* \"#utility.yul\":34459:34508   */\n      iszero\n      tag_613\n      jumpi\n        /* \"#utility.yul\":34498:34506   */\n      dup2\n        /* \"#utility.yul\":34483:34506   */\n      swap1\n      pop\n        /* \"#utility.yul\":34459:34508   */\n    tag_613:\n        /* \"#utility.yul\":34521:34601   */\n      tag_614\n        /* \"#utility.yul\":34577:34599   */\n      tag_615\n        /* \"#utility.yul\":34595:34598   */\n      dup6\n        /* \"#utility.yul\":34577:34599   */\n      tag_305\n      jump\t// in\n    tag_615:\n        /* \"#utility.yul\":34567:34575   */\n      dup4\n        /* \"#utility.yul\":34563:34600   */\n      add\n        /* \"#utility.yul\":34550:34561   */\n      dup3\n        /* \"#utility.yul\":34521:34601   */\n      tag_313\n      jump\t// in\n    tag_614:\n        /* \"#utility.yul\":34180:34611   */\n      pop\n      pop\n        /* \"#utility.yul\":34165:34611   */\n    tag_610:\n        /* \"#utility.yul\":34075:34618   */\n      pop\n      pop\n      pop\n      jump\t// out\n        /* \"#utility.yul\":34624:34741   */\n    tag_315:\n        /* \"#utility.yul\":34678:34686   */\n      0x00\n        /* \"#utility.yul\":34728:34733   */\n      dup3\n        /* \"#utility.yul\":34722:34726   */\n      dup3\n        /* \"#utility.yul\":34718:34734   */\n      shr\n        /* \"#utility.yul\":34697:34734   */\n      swap1\n      pop\n        /* \"#utility.yul\":34624:34741   */\n      swap3\n      swap2\n      pop\n      pop\n      jump\t// out\n        /* \"#utility.yul\":34747:34916   */\n    tag_316:\n        /* \"#utility.yul\":34791:34797   */\n      0x00\n        /* \"#utility.yul\":34824:34875   */\n      tag_618\n        /* \"#utility.yul\":34872:34873   */\n      0x00\n        /* \"#utility.yul\":34868:34874   */\n      not\n        /* \"#utility.yul\":34860:34865   */\n      dup5\n        /* \"#utility.yul\":34857:34858   */\n      0x08\n        /* \"#utility.yul\":34853:34866   */\n      mul\n        /* \"#utility.yul\":34824:34875   */\n      tag_315\n      jump\t// in\n    tag_618:\n        /* \"#utility.yul\":34820:34876   */\n      not\n        /* \"#utility.yul\":34905:34909   */\n      dup1\n        /* \"#utility.yul\":34899:34903   */\n      dup4\n        /* \"#utility.yul\":34895:34910   */\n      and\n        /* \"#utility.yul\":34885:34910   */\n      swap2\n      pop\n        /* \"#utility.yul\":34798:34916   */\n      pop\n        /* \"#utility.yul\":34747:34916   */\n      swap3\n      swap2\n      pop\n      pop\n      jump\t// out\n        /* \"#utility.yul\":34921:35216   */\n    tag_317:\n        /* \"#utility.yul\":34997:35001   */\n      0x00\n        /* \"#utility.yul\":35143:35172   */\n      tag_620\n        /* \"#utility.yul\":35168:35171   */\n      dup4\n        /* \"#utility.yul\":35162:35166   */\n      dup4\n        /* \"#utility.yul\":35143:35172   */\n      tag_316\n      jump\t// in\n    tag_620:\n        /* \"#utility.yul\":35135:35172   */\n      swap2\n      pop\n        /* \"#utility.yul\":35205:35208   */\n      dup3\n        /* \"#utility.yul\":35202:35203   */\n      0x02\n        /* \"#utility.yul\":35198:35209   */\n      mul\n        /* \"#utility.yul\":35192:35196   */\n      dup3\n        /* \"#utility.yul\":35189:35210   */\n      or\n        /* \"#utility.yul\":35181:35210   */\n      swap1\n      pop\n        /* \"#utility.yul\":34921:35216   */\n      swap3\n      swap2\n      pop\n      pop\n      jump\t// out\n        /* \"#utility.yul\":35221:36616   */\n    tag_213:\n        /* \"#utility.yul\":35338:35375   */\n      tag_622\n        /* \"#utility.yul\":35371:35374   */\n      dup3\n        /* \"#utility.yul\":35338:35375   */\n      tag_238\n      jump\t// in\n    tag_622:\n        /* \"#utility.yul\":35440:35458   */\n      0xffffffffffffffff\n        /* \"#utility.yul\":35432:35438   */\n      dup2\n        /* \"#utility.yul\":35429:35459   */\n      gt\n        /* \"#utility.yul\":35426:35482   */\n      iszero\n      tag_623\n      jumpi\n        /* \"#utility.yul\":35462:35480   */\n      tag_624\n      tag_261\n      jump\t// in\n    tag_624:\n        /* \"#utility.yul\":35426:35482   */\n    tag_623:\n        /* \"#utility.yul\":35506:35544   */\n      tag_625\n        /* \"#utility.yul\":35538:35542   */\n      dup3\n        /* \"#utility.yul\":35532:35543   */\n      sload\n        /* \"#utility.yul\":35506:35544   */\n      tag_79\n      jump\t// in\n    tag_625:\n        /* \"#utility.yul\":35591:35658   */\n      tag_626\n        /* \"#utility.yul\":35651:35657   */\n      dup3\n        /* \"#utility.yul\":35643:35649   */\n      dup3\n        /* \"#utility.yul\":35637:35641   */\n      dup6\n        /* \"#utility.yul\":35591:35658   */\n      tag_314\n      jump\t// in\n    tag_626:\n        /* \"#utility.yul\":35685:35686   */\n      0x00\n        /* \"#utility.yul\":35709:35713   */\n      0x20\n        /* \"#utility.yul\":35696:35713   */\n      swap1\n      pop\n        /* \"#utility.yul\":35741:35743   */\n      0x1f\n        /* \"#utility.yul\":35733:35739   */\n      dup4\n        /* \"#utility.yul\":35730:35744   */\n      gt\n        /* \"#utility.yul\":35758:35759   */\n      0x01\n        /* \"#utility.yul\":35753:36371   */\n      dup2\n      eq\n      tag_628\n      jumpi\n        /* \"#utility.yul\":36415:36416   */\n      0x00\n        /* \"#utility.yul\":36432:36438   */\n      dup5\n        /* \"#utility.yul\":36429:36506   */\n      iszero\n      tag_629\n      jumpi\n        /* \"#utility.yul\":36481:36490   */\n      dup3\n        /* \"#utility.yul\":36476:36479   */\n      dup8\n        /* \"#utility.yul\":36472:36491   */\n      add\n        /* \"#utility.yul\":36466:36492   */\n      mload\n        /* \"#utility.yul\":36457:36492   */\n      swap1\n      pop\n        /* \"#utility.yul\":36429:36506   */\n    tag_629:\n        /* \"#utility.yul\":36532:36599   */\n      tag_630\n        /* \"#utility.yul\":36592:36598   */\n      dup6\n        /* \"#utility.yul\":36585:36590   */\n      dup3\n        /* \"#utility.yul\":36532:36599   */\n      tag_317\n      jump\t// in\n    tag_630:\n        /* \"#utility.yul\":36526:36530   */\n      dup7\n        /* \"#utility.yul\":36519:36600   */\n      sstore\n        /* \"#utility.yul\":36388:36610   */\n      pop\n        /* \"#utility.yul\":35723:36610   */\n      jump(tag_627)\n        /* \"#utility.yul\":35753:36371   */\n    tag_628:\n        /* \"#utility.yul\":35805:35809   */\n      0x1f\n        /* \"#utility.yul\":35801:35810   */\n      not\n        /* \"#utility.yul\":35793:35799   */\n      dup5\n        /* \"#utility.yul\":35789:35811   */\n      and\n        /* \"#utility.yul\":35839:35876   */\n      tag_631\n        /* \"#utility.yul\":35871:35875   */\n      dup7\n        /* \"#utility.yul\":35839:35876   */\n      tag_304\n      jump\t// in\n    tag_631:\n        /* \"#utility.yul\":35898:35899   */\n      0x00\n        /* \"#utility.yul\":35912:36120   */\n    tag_632:\n        /* \"#utility.yul\":35926:35933   */\n      dup3\n        /* \"#utility.yul\":35923:35924   */\n      dup2\n        /* \"#utility.yul\":35920:35934   */\n      lt\n        /* \"#utility.yul\":35912:36120   */\n      iszero\n      tag_634\n      jumpi\n        /* \"#utility.yul\":36005:36014   */\n      dup5\n        /* \"#utility.yul\":36000:36003   */\n      dup10\n        /* \"#utility.yul\":35996:36015   */\n      add\n        /* \"#utility.yul\":35990:36016   */\n      mload\n        /* \"#utility.yul\":35982:35988   */\n      dup3\n        /* \"#utility.yul\":35975:36017   */\n      sstore\n        /* \"#utility.yul\":36056:36057   */\n      0x01\n        /* \"#utility.yul\":36048:36054   */\n      dup3\n        /* \"#utility.yul\":36044:36058   */\n      add\n        /* \"#utility.yul\":36034:36058   */\n      swap2\n      pop\n        /* \"#utility.yul\":36103:36105   */\n      0x20\n        /* \"#utility.yul\":36092:36101   */\n      dup6\n        /* \"#utility.yul\":36088:36106   */\n      add\n        /* \"#utility.yul\":36075:36106   */\n      swap5\n      pop\n        /* \"#utility.yul\":35949:35953   */\n      0x20\n        /* \"#utility.yul\":35946:35947   */\n      dup2\n        /* \"#utility.yul\":35942:35954   */\n      add\n        /* \"#utility.yul\":35937:35954   */\n      swap1\n      pop\n        /* \"#utility.yul\":35912:36120   */\n      jump(tag_632)\n    tag_634:\n        /* \"#utility.yul\":36148:36154   */\n      dup7\n        /* \"#utility.yul\":36139:36146   */\n      dup4\n        /* \"#utility.yul\":36136:36155   */\n      lt\n        /* \"#utility.yul\":36133:36312   */\n      iszero\n      tag_635\n      jumpi\n        /* \"#utility.yul\":36206:36215   */\n      dup5\n        /* \"#utility.yul\":36201:36204   */\n      dup10\n        /* \"#utility.yul\":36197:36216   */\n      add\n        /* \"#utility.yul\":36191:36217   */\n      mload\n        /* \"#utility.yul\":36249:36297   */\n      tag_636\n        /* \"#utility.yul\":36291:36295   */\n      0x1f\n        /* \"#utility.yul\":36283:36289   */\n      dup10\n        /* \"#utility.yul\":36279:36296   */\n      and\n        /* \"#utility.yul\":36268:36277   */\n      dup3\n        /* \"#utility.yul\":36249:36297   */\n      tag_316\n      jump\t// in\n    tag_636:\n        /* \"#utility.yul\":36241:36247   */\n      dup4\n        /* \"#utility.yul\":36234:36298   */\n      sstore\n        /* \"#utility.yul\":36156:36312   */\n      pop\n        /* \"#utility.yul\":36133:36312   */\n    tag_635:\n        /* \"#utility.yul\":36358:36359   */\n      0x01\n        /* \"#utility.yul\":36354:36355   */\n      0x02\n        /* \"#utility.yul\":36346:36352   */\n      dup9\n        /* \"#utility.yul\":36342:36356   */\n      mul\n        /* \"#utility.yul\":36338:36360   */\n      add\n        /* \"#utility.yul\":36332:36336   */\n      dup9\n        /* \"#utility.yul\":36325:36361   */\n      sstore\n        /* \"#utility.yul\":35760:36371   */\n      pop\n      pop\n      pop\n        /* \"#utility.yul\":35723:36610   */\n    tag_627:\n      pop\n        /* \"#utility.yul\":35313:36616   */\n      pop\n      pop\n      pop\n        /* \"#utility.yul\":35221:36616   */\n      pop\n      pop\n      jump\t// out\n        /* \"#utility.yul\":36622:36771   */\n    tag_318:\n        /* \"#utility.yul\":36671:36677   */\n      0x00\n        /* \"#utility.yul\":36705:36710   */\n      dup2\n        /* \"#utility.yul\":36699:36711   */\n      sload\n        /* \"#utility.yul\":36689:36711   */\n      swap1\n      pop\n        /* \"#utility.yul\":36731:36764   */\n      tag_638\n        /* \"#utility.yul\":36757:36763   */\n      dup2\n        /* \"#utility.yul\":36731:36764   */\n      tag_79\n      jump\t// in\n    tag_638:\n        /* \"#utility.yul\":36721:36764   */\n      swap1\n      pop\n        /* \"#utility.yul\":36622:36771   */\n      swap2\n      swap1\n      pop\n      jump\t// out\n        /* \"#utility.yul\":36777:38228   */\n    tag_218:\n        /* \"#utility.yul\":36888:36891   */\n      dup2\n        /* \"#utility.yul\":36882:36886   */\n      dup2\n        /* \"#utility.yul\":36879:36892   */\n      sub\n        /* \"#utility.yul\":36876:36902   */\n      tag_640\n      jumpi\n        /* \"#utility.yul\":36895:36900   */\n      pop\n      pop\n      jump(tag_639)\n        /* \"#utility.yul\":36876:36902   */\n    tag_640:\n        /* \"#utility.yul\":36926:36960   */\n      tag_641\n        /* \"#utility.yul\":36956:36959   */\n      dup3\n        /* \"#utility.yul\":36926:36960   */\n      tag_318\n      jump\t// in\n    tag_641:\n        /* \"#utility.yul\":37025:37043   */\n      0xffffffffffffffff\n        /* \"#utility.yul\":37017:37023   */\n      dup2\n        /* \"#utility.yul\":37014:37044   */\n      gt\n        /* \"#utility.yul\":37011:37067   */\n      iszero\n      tag_642\n      jumpi\n        /* \"#utility.yul\":37047:37065   */\n      tag_643\n      tag_261\n      jump\t// in\n    tag_643:\n        /* \"#utility.yul\":37011:37067   */\n    tag_642:\n        /* \"#utility.yul\":37091:37129   */\n      tag_644\n        /* \"#utility.yul\":37123:37127   */\n      dup3\n        /* \"#utility.yul\":37117:37128   */\n      sload\n        /* \"#utility.yul\":37091:37129   */\n      tag_79\n      jump\t// in\n    tag_644:\n        /* \"#utility.yul\":37176:37243   */\n      tag_645\n        /* \"#utility.yul\":37236:37242   */\n      dup3\n        /* \"#utility.yul\":37228:37234   */\n      dup3\n        /* \"#utility.yul\":37222:37226   */\n      dup6\n        /* \"#utility.yul\":37176:37243   */\n      tag_314\n      jump\t// in\n    tag_645:\n        /* \"#utility.yul\":37270:37271   */\n      0x00\n        /* \"#utility.yul\":37299:37301   */\n      0x1f\n        /* \"#utility.yul\":37291:37297   */\n      dup4\n        /* \"#utility.yul\":37288:37302   */\n      gt\n        /* \"#utility.yul\":37316:37317   */\n      0x01\n        /* \"#utility.yul\":37311:37983   */\n      dup2\n      eq\n      tag_647\n      jumpi\n        /* \"#utility.yul\":38027:38028   */\n      0x00\n        /* \"#utility.yul\":38044:38050   */\n      dup5\n        /* \"#utility.yul\":38041:38118   */\n      iszero\n      tag_648\n      jumpi\n        /* \"#utility.yul\":38093:38102   */\n      dup3\n        /* \"#utility.yul\":38088:38091   */\n      dup8\n        /* \"#utility.yul\":38084:38103   */\n      add\n        /* \"#utility.yul\":38078:38104   */\n      sload\n        /* \"#utility.yul\":38069:38104   */\n      swap1\n      pop\n        /* \"#utility.yul\":38041:38118   */\n    tag_648:\n        /* \"#utility.yul\":38144:38211   */\n      tag_649\n        /* \"#utility.yul\":38204:38210   */\n      dup6\n        /* \"#utility.yul\":38197:38202   */\n      dup3\n        /* \"#utility.yul\":38144:38211   */\n      tag_317\n      jump\t// in\n    tag_649:\n        /* \"#utility.yul\":38138:38142   */\n      dup7\n        /* \"#utility.yul\":38131:38212   */\n      sstore\n        /* \"#utility.yul\":38000:38222   */\n      pop\n        /* \"#utility.yul\":37281:38222   */\n      jump(tag_646)\n        /* \"#utility.yul\":37311:37983   */\n    tag_647:\n        /* \"#utility.yul\":37363:37367   */\n      0x1f\n        /* \"#utility.yul\":37359:37368   */\n      not\n        /* \"#utility.yul\":37351:37357   */\n      dup5\n        /* \"#utility.yul\":37347:37369   */\n      and\n        /* \"#utility.yul\":37389:37425   */\n      tag_650\n        /* \"#utility.yul\":37421:37424   */\n      dup8\n        /* \"#utility.yul\":37389:37425   */\n      tag_304\n      jump\t// in\n    tag_650:\n        /* \"#utility.yul\":37382:37425   */\n      swap7\n      pop\n        /* \"#utility.yul\":37452:37489   */\n      tag_651\n        /* \"#utility.yul\":37484:37488   */\n      dup7\n        /* \"#utility.yul\":37452:37489   */\n      tag_304\n      jump\t// in\n    tag_651:\n        /* \"#utility.yul\":37511:37512   */\n      0x00\n        /* \"#utility.yul\":37525:37732   */\n    tag_652:\n        /* \"#utility.yul\":37539:37546   */\n      dup3\n        /* \"#utility.yul\":37536:37537   */\n      dup2\n        /* \"#utility.yul\":37533:37547   */\n      lt\n        /* \"#utility.yul\":37525:37732   */\n      iszero\n      tag_654\n      jumpi\n        /* \"#utility.yul\":37618:37627   */\n      dup5\n        /* \"#utility.yul\":37613:37616   */\n      dup10\n        /* \"#utility.yul\":37609:37628   */\n      add\n        /* \"#utility.yul\":37603:37629   */\n      sload\n        /* \"#utility.yul\":37595:37601   */\n      dup3\n        /* \"#utility.yul\":37588:37630   */\n      sstore\n        /* \"#utility.yul\":37669:37670   */\n      0x01\n        /* \"#utility.yul\":37661:37667   */\n      dup3\n        /* \"#utility.yul\":37657:37671   */\n      add\n        /* \"#utility.yul\":37647:37671   */\n      swap2\n      pop\n        /* \"#utility.yul\":37716:37717   */\n      0x01\n        /* \"#utility.yul\":37705:37714   */\n      dup6\n        /* \"#utility.yul\":37701:37718   */\n      add\n        /* \"#utility.yul\":37688:37718   */\n      swap5\n      pop\n        /* \"#utility.yul\":37562:37566   */\n      0x20\n        /* \"#utility.yul\":37559:37560   */\n      dup2\n        /* \"#utility.yul\":37555:37567   */\n      add\n        /* \"#utility.yul\":37550:37567   */\n      swap1\n      pop\n        /* \"#utility.yul\":37525:37732   */\n      jump(tag_652)\n    tag_654:\n        /* \"#utility.yul\":37760:37766   */\n      dup7\n        /* \"#utility.yul\":37751:37758   */\n      dup4\n        /* \"#utility.yul\":37748:37767   */\n      lt\n        /* \"#utility.yul\":37745:37924   */\n      iszero\n      tag_655\n      jumpi\n        /* \"#utility.yul\":37818:37827   */\n      dup5\n        /* \"#utility.yul\":37813:37816   */\n      dup10\n        /* \"#utility.yul\":37809:37828   */\n      add\n        /* \"#utility.yul\":37803:37829   */\n      sload\n        /* \"#utility.yul\":37861:37909   */\n      tag_656\n        /* \"#utility.yul\":37903:37907   */\n      0x1f\n        /* \"#utility.yul\":37895:37901   */\n      dup10\n        /* \"#utility.yul\":37891:37908   */\n      and\n        /* \"#utility.yul\":37880:37889   */\n      dup3\n        /* \"#utility.yul\":37861:37909   */\n      tag_316\n      jump\t// in\n    tag_656:\n        /* \"#utility.yul\":37853:37859   */\n      dup4\n        /* \"#utility.yul\":37846:37910   */\n      sstore\n        /* \"#utility.yul\":37768:37924   */\n      pop\n        /* \"#utility.yul\":37745:37924   */\n    tag_655:\n        /* \"#utility.yul\":37970:37971   */\n      0x01\n        /* \"#utility.yul\":37966:37967   */\n      0x02\n        /* \"#utility.yul\":37958:37964   */\n      dup9\n        /* \"#utility.yul\":37954:37968   */\n      mul\n        /* \"#utility.yul\":37950:37972   */\n      add\n        /* \"#utility.yul\":37944:37948   */\n      dup9\n        /* \"#utility.yul\":37937:37973   */\n      sstore\n        /* \"#utility.yul\":37318:37983   */\n      pop\n      pop\n      pop\n        /* \"#utility.yul\":37281:38222   */\n    tag_646:\n      pop\n        /* \"#utility.yul\":36866:38228   */\n      pop\n      pop\n      pop\n        /* \"#utility.yul\":36777:38228   */\n      pop\n      pop\n    tag_639:\n      jump\t// out\n\n    auxdata: 0xa26469706673582212206fbe0e81b1ab49db93cfd9981330ae46817aa5c343fa58967e15fc82df4caf3964736f6c634300081f0033\n}\n",
				"bytecode": {
					"linkReferences": {},
					"object": "608060405234801561000f575f5ffd5b506040516128d73803806128d783398181016040528101906100319190610150565b815f5f6101000a81548173ffffffffffffffffffffffffffffffffffffffff021916908373ffffffffffffffffffffffffffffffffffffffff1602179055508060015f6101000a81548173ffffffffffffffffffffffffffffffffffffffff021916908373ffffffffffffffffffffffffffffffffffffffff160217905550505061018e565b5f5ffd5b5f73ffffffffffffffffffffffffffffffffffffffff82169050919050565b5f6100e4826100bb565b9050919050565b6100f4816100da565b81146100fe575f5ffd5b50565b5f8151905061010f816100eb565b92915050565b5f61011f826100bb565b9050919050565b61012f81610115565b8114610139575f5ffd5b50565b5f8151905061014a81610126565b92915050565b5f5f60408385031215610166576101656100b7565b5b5f61017385828601610101565b92505060206101848582860161013c565b9150509250929050565b61273c8061019b5f395ff3fe6080604052600436106100a6575f3560e01c80637e490a9e116100635780637e490a9e146101de5780639f349789146101fa578063a1ef357714610224578063a9d00e6614610260578063c40cf4eb14610288578063ddd5987f146102b2576100a6565b80631792a6da146100aa578063189a55e7146100d45780633088c00f146100de578063418b79ab14610122578063513073b81461015e578063687440461461019a575b5f5ffd5b3480156100b5575f5ffd5b506100be6102da565b6040516100cb9190611556565b60405180910390f35b6100dc6102ff565b005b3480156100e9575f5ffd5b5061010460048036038101906100ff91906115b3565b610301565b60405161011999989796959493929190611677565b60405180910390f35b34801561012d575f5ffd5b50610148600480360381019061014391906115b3565b6104f8565b604051610155919061184d565b60405180910390f35b348015610169575f5ffd5b50610184600480360381019061017f91906115b3565b61077f565b604051610191919061186d565b60405180910390f35b3480156101a5575f5ffd5b506101c060048036038101906101bb91906115b3565b61079f565b6040516101d599989796959493929190611677565b60405180910390f35b6101f860048036038101906101f391906115b3565b610987565b005b348015610205575f5ffd5b5061020e610d01565b60405161021b9190611a11565b60405180910390f35b34801561022f575f5ffd5b5061024a60048036038101906102459190611a31565b610f59565b6040516102579190611a8f565b60405180910390f35b34801561026b575f5ffd5b5061028660048036038101906102819190611bd4565b610fa1565b005b348015610293575f5ffd5b5061029c6113e6565b6040516102a99190611d0c565b60405180910390f35b3480156102bd575f5ffd5b506102d860048036038101906102d39190611a31565b61140a565b005b60015f9054906101000a900473ffffffffffffffffffffffffffffffffffffffff1681565b565b60028181548110610310575f80fd5b905f5260205f2090600902015f91509050805f01549080600101805461033590611d52565b80601f016020809104026020016040519081016040528092919081815260200182805461036190611d52565b80156103ac5780601f10610383576101008083540402835291602001916103ac565b820191905f5260205f20905b81548152906001019060200180831161038f57829003601f168201915b5050505050908060020180546103c190611d52565b80601f01602080910402602001604051908101604052809291908181526020018280546103ed90611d52565b80156104385780601f1061040f57610100808354040283529160200191610438565b820191905f5260205f20905b81548152906001019060200180831161041b57829003601f168201915b50505050509080600301805461044d90611d52565b80601f016020809104026020016040519081016040528092919081815260200182805461047990611d52565b80156104c45780601f1061049b576101008083540402835291602001916104c4565b820191905f5260205f20905b8154815290600101906020018083116104a757829003601f168201915b505050505090806004015490806005015490806006015490806007015f9054906101000a900460ff16908060080154905089565b6105006114cf565b60045f8381526020019081526020015f206007015f9054906101000a900460ff16610560576040517f08c379a000000000000000000000000000000000000000000000000000000000815260040161055790611dcc565b60405180910390fd5b60045f8381526020019081526020015f20604051806101200160405290815f820154815260200160018201805461059690611d52565b80601f01602080910402602001604051908101604052809291908181526020018280546105c290611d52565b801561060d5780601f106105e45761010080835404028352916020019161060d565b820191905f5260205f20905b8154815290600101906020018083116105f057829003601f168201915b5050505050815260200160028201805461062690611d52565b80601f016020809104026020016040519081016040528092919081815260200182805461065290611d52565b801561069d5780601f106106745761010080835404028352916020019161069d565b820191905f5260205f20905b81548152906001019060200180831161068057829003601f168201915b505050505081526020016003820180546106b690611d52565b80601f01602080910402602001604051908101604052809291908181526020018280546106e290611d52565b801561072d5780601f106107045761010080835404028352916020019161072d565b820191905f5260205f20905b81548152906001019060200180831161071057829003601f168201915b50505050508152602001600482015481526020016005820154815260200160068201548152602001600782015f9054906101000a900460ff161515151581526020016008820154815250509050919050565b6003818154811061078e575f80fd5b905f5260205f20015f915090505481565b6004602052805f5260405f205f91509050805f0154908060010180546107c490611d52565b80601f01602080910402602001604051908101604052809291908181526020018280546107f090611d52565b801561083b5780601f106108125761010080835404028352916020019161083b565b820191905f5260205f20905b81548152906001019060200180831161081e57829003601f168201915b50505050509080600201805461085090611d52565b80601f016020809104026020016040519081016040528092919081815260200182805461087c90611d52565b80156108c75780601f1061089e576101008083540402835291602001916108c7565b820191905f5260205f20905b8154815290600101906020018083116108aa57829003601f168201915b5050505050908060030180546108dc90611d52565b80601f016020809104026020016040519081016040528092919081815260200182805461090890611d52565b80156109535780601f1061092a57610100808354040283529160200191610953565b820191905f5260205f20905b81548152906001019060200180831161093657829003601f168201915b505050505090806004015490806005015490806006015490806007015f9054906101000a900460ff16908060080154905089565b5f60045f8381526020019081526020015f2060040154116109dd576040517f08c379a00000000000000000000000000000000000000000000000000000000081526004016109d490611e34565b60405180910390fd5b5f60045f8381526020019081526020015f2090505f5f5f9054906101000a900473ffffffffffffffffffffffffffffffffffffffff1673ffffffffffffffffffffffffffffffffffffffff1663506b27f0336040518263ffffffff1660e01b8152600401610a4b9190611a8f565b602060405180830381865afa158015610a66573d5f5f3e3d5ffd5b505050506040513d601f19601f82011682018060405250810190610a8a9190611e7c565b90505f81610a9a576107d0610aa0565b82600601545b905080341015610ae5576040517f08c379a0000000000000000000000000000000000000000000000000000000008152600401610adc90611ef1565b60405180910390fd5b60065f8581526020019081526020015f2033908060018154018082558091505060019003905f5260205f20015f9091909190916101000a81548173ffffffffffffffffffffffffffffffffffffffff021916908373ffffffffffffffffffffffffffffffffffffffff1602179055506001836004015f828254610b689190611f3c565b925050819055505f60015f9054906101000a900473ffffffffffffffffffffffffffffffffffffffff1673ffffffffffffffffffffffffffffffffffffffff1682604051610bb590611f9c565b5f6040518083038185875af1925050503d805f8114610bef576040519150601f19603f3d011682016040523d82523d5f602084013e610bf4565b606091505b5050905080610c38576040517f08c379a0000000000000000000000000000000000000000000000000000000008152600401610c2f90611ffa565b60405180910390fd5b5f8234610c459190611f3c565b90505f811115610cf9575f3373ffffffffffffffffffffffffffffffffffffffff1682604051610c7490611f9c565b5f6040518083038185875af1925050503d805f8114610cae576040519150601f19603f3d011682016040523d82523d5f602084013e610cb3565b606091505b5050905080610cf7576040517f08c379a0000000000000000000000000000000000000000000000000000000008152600401610cee90612062565b60405180910390fd5b505b505050505050565b60606002805480602002602001604051908101604052809291908181526020015f905b82821015610f50578382905f5260205f209060090201604051806101200160405290815f8201548152602001600182018054610d5f90611d52565b80601f0160208091040260200160405190810160405280929190818152602001828054610d8b90611d52565b8015610dd65780601f10610dad57610100808354040283529160200191610dd6565b820191905f5260205f20905b815481529060010190602001808311610db957829003601f168201915b50505050508152602001600282018054610def90611d52565b80601f0160208091040260200160405190810160405280929190818152602001828054610e1b90611d52565b8015610e665780601f10610e3d57610100808354040283529160200191610e66565b820191905f5260205f20905b815481529060010190602001808311610e4957829003601f168201915b50505050508152602001600382018054610e7f90611d52565b80601f0160208091040260200160405190810160405280929190818152602001828054610eab90611d52565b8015610ef65780601f10610ecd57610100808354040283529160200191610ef6565b820191905f5260205f20905b815481529060010190602001808311610ed957829003601f168201915b50505050508152602001600482015481526020016005820154815260200160068201548152602001600782015f9054906101000a900460ff1615151515815260200160088201548152505081526020019060010190610d24565b50505050905090565b6006602052815f5260405f208181548110610f72575f80fd5b905f5260205f20015f915091509054906101000a900473ffffffffffffffffffffffffffffffffffffffff1681565b5f865111610fe4576040517f08c379a0000000000000000000000000000000000000000000000000000000008152600401610fdb906120ca565b60405180910390fd5b5f855111611027576040517f08c379a000000000000000000000000000000000000000000000000000000000815260040161101e90612132565b60405180910390fd5b5f84511161106a576040517f08c379a00000000000000000000000000000000000000000000000000000000081526004016110619061219a565b60405180910390fd5b5f83116110ac576040517f08c379a00000000000000000000000000000000000000000000000000000000081526004016110a390612202565b60405180910390fd5b5f82116110ee576040517f08c379a00000000000000000000000000000000000000000000000000000000081526004016110e59061226a565b60405180910390fd5b5f8111611130576040517f08c379a00000000000000000000000000000000000000000000000000000000081526004016111279061226a565b60405180910390fd5b5f86866040516020016111449291906122c2565b60405160208183030381529060405280519060200120905060055f8281526020019081526020015f205f9054906101000a900460ff16156111ba576040517f08c379a00000000000000000000000000000000000000000000000000000000081526004016111b190612355565b60405180910390fd5b600160055f8381526020019081526020015f205f6101000a81548160ff0219169083151502179055505f60016002805490506111f69190612373565b90506040518061012001604052808281526020018981526020018881526020018781526020018681526020018581526020018481526020016001151581526020014281525060045f8381526020019081526020015f205f820151815f01556020820151816001019081611269919061253d565b50604082015181600201908161127f919061253d565b506060820151816003019081611295919061253d565b506080820151816004015560a0820151816005015560c0820151816006015560e0820151816007015f6101000a81548160ff0219169083151502179055506101008201518160080155905050600260045f8381526020019081526020015f20908060018154018082558091505060019003905f5260205f2090600902015f909190919091505f820154815f0155600182018160010190816113369190612621565b506002820181600201908161134b9190612621565b50600382018160030190816113609190612621565b50600482015481600401556005820154816005015560068201548160060155600782015f9054906101000a900460ff16816007015f6101000a81548160ff021916908315150217905550600882015481600801555050600381908060018154018082558091505060019003905f5260205f20015f90919091909150555050505050505050565b5f5f9054906101000a900473ffffffffffffffffffffffffffffffffffffffff1681565b5f811161144c576040517f08c379a000000000000000000000000000000000000000000000000000000000815260040161144390612202565b60405180910390fd5b5f60045f8481526020019081526020015f209050806007015f9054906101000a900460ff166114b0576040517f08c379a00000000000000000000000000000000000000000000000000000000081526004016114a790611dcc565b60405180910390fd5b81816004015f8282546114c39190612373565b92505081905550505050565b6040518061012001604052805f81526020016060815260200160608152602001606081526020015f81526020015f81526020015f81526020015f151581526020015f81525090565b5f73ffffffffffffffffffffffffffffffffffffffff82169050919050565b5f61154082611517565b9050919050565b61155081611536565b82525050565b5f6020820190506115695f830184611547565b92915050565b5f604051905090565b5f5ffd5b5f5ffd5b5f819050919050565b61159281611580565b811461159c575f5ffd5b50565b5f813590506115ad81611589565b92915050565b5f602082840312156115c8576115c7611578565b5b5f6115d58482850161159f565b91505092915050565b6115e781611580565b82525050565b5f81519050919050565b5f82825260208201905092915050565b8281835e5f83830152505050565b5f601f19601f8301169050919050565b5f61162f826115ed565b61163981856115f7565b9350611649818560208601611607565b61165281611615565b840191505092915050565b5f8115159050919050565b6116718161165d565b82525050565b5f6101208201905061168b5f83018c6115de565b818103602083015261169d818b611625565b905081810360408301526116b1818a611625565b905081810360608301526116c58189611625565b90506116d460808301886115de565b6116e160a08301876115de565b6116ee60c08301866115de565b6116fb60e0830185611668565b6117096101008301846115de565b9a9950505050505050505050565b61172081611580565b82525050565b5f82825260208201905092915050565b5f611740826115ed565b61174a8185611726565b935061175a818560208601611607565b61176381611615565b840191505092915050565b6117778161165d565b82525050565b5f61012083015f8301516117935f860182611717565b50602083015184820360208601526117ab8282611736565b915050604083015184820360408601526117c58282611736565b915050606083015184820360608601526117df8282611736565b91505060808301516117f46080860182611717565b5060a083015161180760a0860182611717565b5060c083015161181a60c0860182611717565b5060e083015161182d60e086018261176e565b50610100830151611842610100860182611717565b508091505092915050565b5f6020820190508181035f830152611865818461177d565b905092915050565b5f6020820190506118805f8301846115de565b92915050565b5f81519050919050565b5f82825260208201905092915050565b5f819050602082019050919050565b5f61012083015f8301516118c55f860182611717565b50602083015184820360208601526118dd8282611736565b915050604083015184820360408601526118f78282611736565b915050606083015184820360608601526119118282611736565b91505060808301516119266080860182611717565b5060a083015161193960a0860182611717565b5060c083015161194c60c0860182611717565b5060e083015161195f60e086018261176e565b50610100830151611974610100860182611717565b508091505092915050565b5f61198a83836118af565b905092915050565b5f602082019050919050565b5f6119a882611886565b6119b28185611890565b9350836020820285016119c4856118a0565b805f5b858110156119ff57848403895281516119e0858261197f565b94506119eb83611992565b925060208a019950506001810190506119c7565b50829750879550505050505092915050565b5f6020820190508181035f830152611a29818461199e565b905092915050565b5f5f60408385031215611a4757611a46611578565b5b5f611a548582860161159f565b9250506020611a658582860161159f565b9150509250929050565b5f611a7982611517565b9050919050565b611a8981611a6f565b82525050565b5f602082019050611aa25f830184611a80565b92915050565b5f5ffd5b5f5ffd5b7f4e487b71000000000000000000000000000000000000000000000000000000005f52604160045260245ffd5b611ae682611615565b810181811067ffffffffffffffff82111715611b0557611b04611ab0565b5b80604052505050565b5f611b1761156f565b9050611b238282611add565b919050565b5f67ffffffffffffffff821115611b4257611b41611ab0565b5b611b4b82611615565b9050602081019050919050565b828183375f83830152505050565b5f611b78611b7384611b28565b611b0e565b905082815260208101848484011115611b9457611b93611aac565b5b611b9f848285611b58565b509392505050565b5f82601f830112611bbb57611bba611aa8565b5b8135611bcb848260208601611b66565b91505092915050565b5f5f5f5f5f5f60c08789031215611bee57611bed611578565b5b5f87013567ffffffffffffffff811115611c0b57611c0a61157c565b5b611c1789828a01611ba7565b965050602087013567ffffffffffffffff811115611c3857611c3761157c565b5b611c4489828a01611ba7565b955050604087013567ffffffffffffffff811115611c6557611c6461157c565b5b611c7189828a01611ba7565b9450506060611c8289828a0161159f565b9350506080611c9389828a0161159f565b92505060a0611ca489828a0161159f565b9150509295509295509295565b5f819050919050565b5f611cd4611ccf611cca84611517565b611cb1565b611517565b9050919050565b5f611ce582611cba565b9050919050565b5f611cf682611cdb565b9050919050565b611d0681611cec565b82525050565b5f602082019050611d1f5f830184611cfd565b92915050565b7f4e487b71000000000000000000000000000000000000000000000000000000005f52602260045260245ffd5b5f6002820490506001821680611d6957607f821691505b602082108103611d7c57611d7b611d25565b5b50919050565b7f426f6f6b206e6f7420666f756e640000000000000000000000000000000000005f82015250565b5f611db6600e836115f7565b9150611dc182611d82565b602082019050919050565b5f6020820190508181035f830152611de381611daa565b9050919050565b7f426f6f6b206e6f7420617661696c61626c6521000000000000000000000000005f82015250565b5f611e1e6013836115f7565b9150611e2982611dea565b602082019050919050565b5f6020820190508181035f830152611e4b81611e12565b9050919050565b611e5b8161165d565b8114611e65575f5ffd5b50565b5f81519050611e7681611e52565b92915050565b5f60208284031215611e9157611e90611578565b5b5f611e9e84828501611e68565b91505092915050565b7f4e6f7420656e6f756768204554482073656e74000000000000000000000000005f82015250565b5f611edb6013836115f7565b9150611ee682611ea7565b602082019050919050565b5f6020820190508181035f830152611f0881611ecf565b9050919050565b7f4e487b71000000000000000000000000000000000000000000000000000000005f52601160045260245ffd5b5f611f4682611580565b9150611f5183611580565b9250828203905081811115611f6957611f68611f0f565b5b92915050565b5f81905092915050565b50565b5f611f875f83611f6f565b9150611f9282611f79565b5f82019050919050565b5f611fa682611f7c565b9150819050919050565b7f4661696c656420746f2073656e642045544820746f206c6962726172790000005f82015250565b5f611fe4601d836115f7565b9150611fef82611fb0565b602082019050919050565b5f6020820190508181035f83015261201181611fd8565b9050919050565b7f4661696c656420746f20726566756e64206578636573732045544800000000005f82015250565b5f61204c601b836115f7565b915061205782612018565b602082019050919050565b5f6020820190508181035f83015261207981612040565b9050919050565b7f5469746c652063616e6e6f7420626520656d70747921000000000000000000005f82015250565b5f6120b46016836115f7565b91506120bf82612080565b602082019050919050565b5f6020820190508181035f8301526120e1816120a8565b9050919050565b7f417574686f722063616e6e6f7420626520656d707479210000000000000000005f82015250565b5f61211c6017836115f7565b9150612127826120e8565b602082019050919050565b5f6020820190508181035f83015261214981612110565b9050919050565b7f47656e72652063616e6e6f7420626520656d70747921000000000000000000005f82015250565b5f6121846016836115f7565b915061218f82612150565b602082019050919050565b5f6020820190508181035f8301526121b181612178565b9050919050565b7f5175616e74697479206d7573742062652067726561746572207468616e2030005f82015250565b5f6121ec601f836115f7565b91506121f7826121b8565b602082019050919050565b5f6020820190508181035f830152612219816121e0565b9050919050565b7f5072696365206d7573742062652067726561746572207468616e2030000000005f82015250565b5f612254601c836115f7565b915061225f82612220565b602082019050919050565b5f6020820190508181035f83015261228181612248565b9050919050565b5f81905092915050565b5f61229c826115ed565b6122a68185612288565b93506122b6818560208601611607565b80840191505092915050565b5f6122cd8285612292565b91506122d98284612292565b91508190509392505050565b7f5468697320626f6f6b206279207468697320617574686f7220616c72656164795f8201527f2065786973747321000000000000000000000000000000000000000000000000602082015250565b5f61233f6028836115f7565b915061234a826122e5565b604082019050919050565b5f6020820190508181035f83015261236c81612333565b9050919050565b5f61237d82611580565b915061238883611580565b92508282019050808211156123a05761239f611f0f565b5b92915050565b5f819050815f5260205f209050919050565b5f6020601f8301049050919050565b5f82821b905092915050565b5f600883026124027fffffffffffffffffffffffffffffffffffffffffffffffffffffffffffffffff826123c7565b61240c86836123c7565b95508019841693508086168417925050509392505050565b5f61243e61243961243484611580565b611cb1565b611580565b9050919050565b5f819050919050565b61245783612424565b61246b61246382612445565b8484546123d3565b825550505050565b5f5f905090565b612482612473565b61248d81848461244e565b505050565b5b818110156124b0576124a55f8261247a565b600181019050612493565b5050565b601f8211156124f5576124c6816123a6565b6124cf846123b8565b810160208510156124de578190505b6124f26124ea856123b8565b830182612492565b50505b505050565b5f82821c905092915050565b5f6125155f19846008026124fa565b1980831691505092915050565b5f61252d8383612506565b9150826002028217905092915050565b612546826115ed565b67ffffffffffffffff81111561255f5761255e611ab0565b5b6125698254611d52565b6125748282856124b4565b5f60209050601f8311600181146125a5575f8415612593578287015190505b61259d8582612522565b865550612604565b601f1984166125b3866123a6565b5f5b828110156125da578489015182556001820191506020850194506020810190506125b5565b868310156125f757848901516125f3601f891682612506565b8355505b6001600288020188555050505b505050505050565b5f8154905061261a81611d52565b9050919050565b81810361262f575050612704565b6126388261260c565b67ffffffffffffffff81111561265157612650611ab0565b5b61265b8254611d52565b6126668282856124b4565b5f601f831160018114612693575f8415612681578287015490505b61268b8582612522565b8655506126fd565b601f1984166126a1876123a6565b96506126ac866123a6565b5f5b828110156126d3578489015482556001820191506001850194506020810190506126ae565b868310156126f057848901546126ec601f891682612506565b8355505b6001600288020188555050505b5050505050505b56fea26469706673582212206fbe0e81b1ab49db93cfd9981330ae46817aa5c343fa58967e15fc82df4caf3964736f6c634300081f0033",
					"opcodes": "PUSH1 0x80 PUSH1 0x40 MSTORE CALLVALUE DUP1 ISZERO PUSH2 0xF JUMPI PUSH0 PUSH0 REVERT JUMPDEST POP PUSH1 0x40 MLOAD PUSH2 0x28D7 CODESIZE SUB DUP1 PUSH2 0x28D7 DUP4 CODECOPY DUP2 DUP2 ADD PUSH1 0x40 MSTORE DUP2 ADD SWAP1 PUSH2 0x31 SWAP2 SWAP1 PUSH2 0x150 JUMP JUMPDEST DUP2 PUSH0 PUSH0 PUSH2 0x100 EXP DUP2 SLOAD DUP2 PUSH20 0xFFFFFFFFFFFFFFFFFFFFFFFFFFFFFFFFFFFFFFFF MUL NOT AND SWAP1 DUP4 PUSH20 0xFFFFFFFFFFFFFFFFFFFFFFFFFFFFFFFFFFFFFFFF AND MUL OR SWAP1 SSTORE POP DUP1 PUSH1 0x1 PUSH0 PUSH2 0x100 EXP DUP2 SLOAD DUP2 PUSH20 0xFFFFFFFFFFFFFFFFFFFFFFFFFFFFFFFFFFFFFFFF MUL NOT AND SWAP1 DUP4 PUSH20 0xFFFFFFFFFFFFFFFFFFFFFFFFFFFFFFFFFFFFFFFF AND MUL OR SWAP1 SSTORE POP POP POP PUSH2 0x18E JUMP JUMPDEST PUSH0 PUSH0 REVERT JUMPDEST PUSH0 PUSH20 0xFFFFFFFFFFFFFFFFFFFFFFFFFFFFFFFFFFFFFFFF DUP3 AND SWAP1 POP SWAP2 SWAP1 POP JUMP JUMPDEST PUSH0 PUSH2 0xE4 DUP3 PUSH2 0xBB JUMP JUMPDEST SWAP1 POP SWAP2 SWAP1 POP JUMP JUMPDEST PUSH2 0xF4 DUP2 PUSH2 0xDA JUMP JUMPDEST DUP2 EQ PUSH2 0xFE JUMPI PUSH0 PUSH0 REVERT JUMPDEST POP JUMP JUMPDEST PUSH0 DUP2 MLOAD SWAP1 POP PUSH2 0x10F DUP2 PUSH2 0xEB JUMP JUMPDEST SWAP3 SWAP2 POP POP JUMP JUMPDEST PUSH0 PUSH2 0x11F DUP3 PUSH2 0xBB JUMP JUMPDEST SWAP1 POP SWAP2 SWAP1 POP JUMP JUMPDEST PUSH2 0x12F DUP2 PUSH2 0x115 JUMP JUMPDEST DUP2 EQ PUSH2 0x139 JUMPI PUSH0 PUSH0 REVERT JUMPDEST POP JUMP JUMPDEST PUSH0 DUP2 MLOAD SWAP1 POP PUSH2 0x14A DUP2 PUSH2 0x126 JUMP JUMPDEST SWAP3 SWAP2 POP POP JUMP JUMPDEST PUSH0 PUSH0 PUSH1 0x40 DUP4 DUP6 SUB SLT ISZERO PUSH2 0x166 JUMPI PUSH2 0x165 PUSH2 0xB7 JUMP JUMPDEST JUMPDEST PUSH0 PUSH2 0x173 DUP6 DUP3 DUP7 ADD PUSH2 0x101 JUMP JUMPDEST SWAP3 POP POP PUSH1 0x20 PUSH2 0x184 DUP6 DUP3 DUP7 ADD PUSH2 0x13C JUMP JUMPDEST SWAP2 POP POP SWAP3 POP SWAP3 SWAP1 POP JUMP JUMPDEST PUSH2 0x273C DUP1 PUSH2 0x19B PUSH0 CODECOPY PUSH0 RETURN INVALID PUSH1 0x80 PUSH1 0x40 MSTORE PUSH1 0x4 CALLDATASIZE LT PUSH2 0xA6 JUMPI PUSH0 CALLDATALOAD PUSH1 0xE0 SHR DUP1 PUSH4 0x7E490A9E GT PUSH2 0x63 JUMPI DUP1 PUSH4 0x7E490A9E EQ PUSH2 0x1DE JUMPI DUP1 PUSH4 0x9F349789 EQ PUSH2 0x1FA JUMPI DUP1 PUSH4 0xA1EF3577 EQ PUSH2 0x224 JUMPI DUP1 PUSH4 0xA9D00E66 EQ PUSH2 0x260 JUMPI DUP1 PUSH4 0xC40CF4EB EQ PUSH2 0x288 JUMPI DUP1 PUSH4 0xDDD5987F EQ PUSH2 0x2B2 JUMPI PUSH2 0xA6 JUMP JUMPDEST DUP1 PUSH4 0x1792A6DA EQ PUSH2 0xAA JUMPI DUP1 PUSH4 0x189A55E7 EQ PUSH2 0xD4 JUMPI DUP1 PUSH4 0x3088C00F EQ PUSH2 0xDE JUMPI DUP1 PUSH4 0x418B79AB EQ PUSH2 0x122 JUMPI DUP1 PUSH4 0x513073B8 EQ PUSH2 0x15E JUMPI DUP1 PUSH4 0x68744046 EQ PUSH2 0x19A JUMPI JUMPDEST PUSH0 PUSH0 REVERT JUMPDEST CALLVALUE DUP1 ISZERO PUSH2 0xB5 JUMPI PUSH0 PUSH0 REVERT JUMPDEST POP PUSH2 0xBE PUSH2 0x2DA JUMP JUMPDEST PUSH1 0x40 MLOAD PUSH2 0xCB SWAP2 SWAP1 PUSH2 0x1556 JUMP JUMPDEST PUSH1 0x40 MLOAD DUP1 SWAP2 SUB SWAP1 RETURN JUMPDEST PUSH2 0xDC PUSH2 0x2FF JUMP JUMPDEST STOP JUMPDEST CALLVALUE DUP1 ISZERO PUSH2 0xE9 JUMPI PUSH0 PUSH0 REVERT JUMPDEST POP PUSH2 0x104 PUSH1 0x4 DUP1 CALLDATASIZE SUB DUP2 ADD SWAP1 PUSH2 0xFF SWAP2 SWAP1 PUSH2 0x15B3 JUMP JUMPDEST PUSH2 0x301 JUMP JUMPDEST PUSH1 0x40 MLOAD PUSH2 0x119 SWAP10 SWAP9 SWAP8 SWAP7 SWAP6 SWAP5 SWAP4 SWAP3 SWAP2 SWAP1 PUSH2 0x1677 JUMP JUMPDEST PUSH1 0x40 MLOAD DUP1 SWAP2 SUB SWAP1 RETURN JUMPDEST CALLVALUE DUP1 ISZERO PUSH2 0x12D JUMPI PUSH0 PUSH0 REVERT JUMPDEST POP PUSH2 0x148 PUSH1 0x4 DUP1 CALLDATASIZE SUB DUP2 ADD SWAP1 PUSH2 0x143 SWAP2 SWAP1 PUSH2 0x15B3 JUMP JUMPDEST PUSH2 0x4F8 JUMP JUMPDEST PUSH1 0x40 MLOAD PUSH2 0x155 SWAP2 SWAP1 PUSH2 0x184D JUMP JUMPDEST PUSH1 0x40 MLOAD DUP1 SWAP2 SUB SWAP1 RETURN JUMPDEST CALLVALUE DUP1 ISZERO PUSH2 0x169 JUMPI PUSH0 PUSH0 REVERT JUMPDEST POP PUSH2 0x184 PUSH1 0x4 DUP1 CALLDATASIZE SUB DUP2 ADD SWAP1 PUSH2 0x17F SWAP2 SWAP1 PUSH2 0x15B3 JUMP JUMPDEST PUSH2 0x77F JUMP JUMPDEST PUSH1 0x40 MLOAD PUSH2 0x191 SWAP2 SWAP1 PUSH2 0x186D JUMP JUMPDEST PUSH1 0x40 MLOAD DUP1 SWAP2 SUB SWAP1 RETURN JUMPDEST CALLVALUE DUP1 ISZERO PUSH2 0x1A5 JUMPI PUSH0 PUSH0 REVERT JUMPDEST POP PUSH2 0x1C0 PUSH1 0x4 DUP1 CALLDATASIZE SUB DUP2 ADD SWAP1 PUSH2 0x1BB SWAP2 SWAP1 PUSH2 0x15B3 JUMP JUMPDEST PUSH2 0x79F JUMP JUMPDEST PUSH1 0x40 MLOAD PUSH2 0x1D5 SWAP10 SWAP9 SWAP8 SWAP7 SWAP6 SWAP5 SWAP4 SWAP3 SWAP2 SWAP1 PUSH2 0x1677 JUMP JUMPDEST PUSH1 0x40 MLOAD DUP1 SWAP2 SUB SWAP1 RETURN JUMPDEST PUSH2 0x1F8 PUSH1 0x4 DUP1 CALLDATASIZE SUB DUP2 ADD SWAP1 PUSH2 0x1F3 SWAP2 SWAP1 PUSH2 0x15B3 JUMP JUMPDEST PUSH2 0x987 JUMP JUMPDEST STOP JUMPDEST CALLVALUE DUP1 ISZERO PUSH2 0x205 JUMPI PUSH0 PUSH0 REVERT JUMPDEST POP PUSH2 0x20E PUSH2 0xD01 JUMP JUMPDEST PUSH1 0x40 MLOAD PUSH2 0x21B SWAP2 SWAP1 PUSH2 0x1A11 JUMP JUMPDEST PUSH1 0x40 MLOAD DUP1 SWAP2 SUB SWAP1 RETURN JUMPDEST CALLVALUE DUP1 ISZERO PUSH2 0x22F JUMPI PUSH0 PUSH0 REVERT JUMPDEST POP PUSH2 0x24A PUSH1 0x4 DUP1 CALLDATASIZE SUB DUP2 ADD SWAP1 PUSH2 0x245 SWAP2 SWAP1 PUSH2 0x1A31 JUMP JUMPDEST PUSH2 0xF59 JUMP JUMPDEST PUSH1 0x40 MLOAD PUSH2 0x257 SWAP2 SWAP1 PUSH2 0x1A8F JUMP JUMPDEST PUSH1 0x40 MLOAD DUP1 SWAP2 SUB SWAP1 RETURN JUMPDEST CALLVALUE DUP1 ISZERO PUSH2 0x26B JUMPI PUSH0 PUSH0 REVERT JUMPDEST POP PUSH2 0x286 PUSH1 0x4 DUP1 CALLDATASIZE SUB DUP2 ADD SWAP1 PUSH2 0x281 SWAP2 SWAP1 PUSH2 0x1BD4 JUMP JUMPDEST PUSH2 0xFA1 JUMP JUMPDEST STOP JUMPDEST CALLVALUE DUP1 ISZERO PUSH2 0x293 JUMPI PUSH0 PUSH0 REVERT JUMPDEST POP PUSH2 0x29C PUSH2 0x13E6 JUMP JUMPDEST PUSH1 0x40 MLOAD PUSH2 0x2A9 SWAP2 SWAP1 PUSH2 0x1D0C JUMP JUMPDEST PUSH1 0x40 MLOAD DUP1 SWAP2 SUB SWAP1 RETURN JUMPDEST CALLVALUE DUP1 ISZERO PUSH2 0x2BD JUMPI PUSH0 PUSH0 REVERT JUMPDEST POP PUSH2 0x2D8 PUSH1 0x4 DUP1 CALLDATASIZE SUB DUP2 ADD SWAP1 PUSH2 0x2D3 SWAP2 SWAP1 PUSH2 0x1A31 JUMP JUMPDEST PUSH2 0x140A JUMP JUMPDEST STOP JUMPDEST PUSH1 0x1 PUSH0 SWAP1 SLOAD SWAP1 PUSH2 0x100 EXP SWAP1 DIV PUSH20 0xFFFFFFFFFFFFFFFFFFFFFFFFFFFFFFFFFFFFFFFF AND DUP2 JUMP JUMPDEST JUMP JUMPDEST PUSH1 0x2 DUP2 DUP2 SLOAD DUP2 LT PUSH2 0x310 JUMPI PUSH0 DUP1 REVERT JUMPDEST SWAP1 PUSH0 MSTORE PUSH1 0x20 PUSH0 KECCAK256 SWAP1 PUSH1 0x9 MUL ADD PUSH0 SWAP2 POP SWAP1 POP DUP1 PUSH0 ADD SLOAD SWAP1 DUP1 PUSH1 0x1 ADD DUP1 SLOAD PUSH2 0x335 SWAP1 PUSH2 0x1D52 JUMP JUMPDEST DUP1 PUSH1 0x1F ADD PUSH1 0x20 DUP1 SWAP2 DIV MUL PUSH1 0x20 ADD PUSH1 0x40 MLOAD SWAP1 DUP2 ADD PUSH1 0x40 MSTORE DUP1 SWAP3 SWAP2 SWAP1 DUP2 DUP2 MSTORE PUSH1 0x20 ADD DUP3 DUP1 SLOAD PUSH2 0x361 SWAP1 PUSH2 0x1D52 JUMP JUMPDEST DUP1 ISZERO PUSH2 0x3AC JUMPI DUP1 PUSH1 0x1F LT PUSH2 0x383 JUMPI PUSH2 0x100 DUP1 DUP4 SLOAD DIV MUL DUP4 MSTORE SWAP2 PUSH1 0x20 ADD SWAP2 PUSH2 0x3AC JUMP JUMPDEST DUP3 ADD SWAP2 SWAP1 PUSH0 MSTORE PUSH1 0x20 PUSH0 KECCAK256 SWAP1 JUMPDEST DUP2 SLOAD DUP2 MSTORE SWAP1 PUSH1 0x1 ADD SWAP1 PUSH1 0x20 ADD DUP1 DUP4 GT PUSH2 0x38F JUMPI DUP3 SWAP1 SUB PUSH1 0x1F AND DUP3 ADD SWAP2 JUMPDEST POP POP POP POP POP SWAP1 DUP1 PUSH1 0x2 ADD DUP1 SLOAD PUSH2 0x3C1 SWAP1 PUSH2 0x1D52 JUMP JUMPDEST DUP1 PUSH1 0x1F ADD PUSH1 0x20 DUP1 SWAP2 DIV MUL PUSH1 0x20 ADD PUSH1 0x40 MLOAD SWAP1 DUP2 ADD PUSH1 0x40 MSTORE DUP1 SWAP3 SWAP2 SWAP1 DUP2 DUP2 MSTORE PUSH1 0x20 ADD DUP3 DUP1 SLOAD PUSH2 0x3ED SWAP1 PUSH2 0x1D52 JUMP JUMPDEST DUP1 ISZERO PUSH2 0x438 JUMPI DUP1 PUSH1 0x1F LT PUSH2 0x40F JUMPI PUSH2 0x100 DUP1 DUP4 SLOAD DIV MUL DUP4 MSTORE SWAP2 PUSH1 0x20 ADD SWAP2 PUSH2 0x438 JUMP JUMPDEST DUP3 ADD SWAP2 SWAP1 PUSH0 MSTORE PUSH1 0x20 PUSH0 KECCAK256 SWAP1 JUMPDEST DUP2 SLOAD DUP2 MSTORE SWAP1 PUSH1 0x1 ADD SWAP1 PUSH1 0x20 ADD DUP1 DUP4 GT PUSH2 0x41B JUMPI DUP3 SWAP1 SUB PUSH1 0x1F AND DUP3 ADD SWAP2 JUMPDEST POP POP POP POP POP SWAP1 DUP1 PUSH1 0x3 ADD DUP1 SLOAD PUSH2 0x44D SWAP1 PUSH2 0x1D52 JUMP JUMPDEST DUP1 PUSH1 0x1F ADD PUSH1 0x20 DUP1 SWAP2 DIV MUL PUSH1 0x20 ADD PUSH1 0x40 MLOAD SWAP1 DUP2 ADD PUSH1 0x40 MSTORE DUP1 SWAP3 SWAP2 SWAP1 DUP2 DUP2 MSTORE PUSH1 0x20 ADD DUP3 DUP1 SLOAD PUSH2 0x479 SWAP1 PUSH2 0x1D52 JUMP JUMPDEST DUP1 ISZERO PUSH2 0x4C4 JUMPI DUP1 PUSH1 0x1F LT PUSH2 0x49B JUMPI PUSH2 0x100 DUP1 DUP4 SLOAD DIV MUL DUP4 MSTORE SWAP2 PUSH1 0x20 ADD SWAP2 PUSH2 0x4C4 JUMP JUMPDEST DUP3 ADD SWAP2 SWAP1 PUSH0 MSTORE PUSH1 0x20 PUSH0 KECCAK256 SWAP1 JUMPDEST DUP2 SLOAD DUP2 MSTORE SWAP1 PUSH1 0x1 ADD SWAP1 PUSH1 0x20 ADD DUP1 DUP4 GT PUSH2 0x4A7 JUMPI DUP3 SWAP1 SUB PUSH1 0x1F AND DUP3 ADD SWAP2 JUMPDEST POP POP POP POP POP SWAP1 DUP1 PUSH1 0x4 ADD SLOAD SWAP1 DUP1 PUSH1 0x5 ADD SLOAD SWAP1 DUP1 PUSH1 0x6 ADD SLOAD SWAP1 DUP1 PUSH1 0x7 ADD PUSH0 SWAP1 SLOAD SWAP1 PUSH2 0x100 EXP SWAP1 DIV PUSH1 0xFF AND SWAP1 DUP1 PUSH1 0x8 ADD SLOAD SWAP1 POP DUP10 JUMP JUMPDEST PUSH2 0x500 PUSH2 0x14CF JUMP JUMPDEST PUSH1 0x4 PUSH0 DUP4 DUP2 MSTORE PUSH1 0x20 ADD SWAP1 DUP2 MSTORE PUSH1 0x20 ADD PUSH0 KECCAK256 PUSH1 0x7 ADD PUSH0 SWAP1 SLOAD SWAP1 PUSH2 0x100 EXP SWAP1 DIV PUSH1 0xFF AND PUSH2 0x560 JUMPI PUSH1 0x40 MLOAD PUSH32 0x8C379A000000000000000000000000000000000000000000000000000000000 DUP2 MSTORE PUSH1 0x4 ADD PUSH2 0x557 SWAP1 PUSH2 0x1DCC JUMP JUMPDEST PUSH1 0x40 MLOAD DUP1 SWAP2 SUB SWAP1 REVERT JUMPDEST PUSH1 0x4 PUSH0 DUP4 DUP2 MSTORE PUSH1 0x20 ADD SWAP1 DUP2 MSTORE PUSH1 0x20 ADD PUSH0 KECCAK256 PUSH1 0x40 MLOAD DUP1 PUSH2 0x120 ADD PUSH1 0x40 MSTORE SWAP1 DUP2 PUSH0 DUP3 ADD SLOAD DUP2 MSTORE PUSH1 0x20 ADD PUSH1 0x1 DUP3 ADD DUP1 SLOAD PUSH2 0x596 SWAP1 PUSH2 0x1D52 JUMP JUMPDEST DUP1 PUSH1 0x1F ADD PUSH1 0x20 DUP1 SWAP2 DIV MUL PUSH1 0x20 ADD PUSH1 0x40 MLOAD SWAP1 DUP2 ADD PUSH1 0x40 MSTORE DUP1 SWAP3 SWAP2 SWAP1 DUP2 DUP2 MSTORE PUSH1 0x20 ADD DUP3 DUP1 SLOAD PUSH2 0x5C2 SWAP1 PUSH2 0x1D52 JUMP JUMPDEST DUP1 ISZERO PUSH2 0x60D JUMPI DUP1 PUSH1 0x1F LT PUSH2 0x5E4 JUMPI PUSH2 0x100 DUP1 DUP4 SLOAD DIV MUL DUP4 MSTORE SWAP2 PUSH1 0x20 ADD SWAP2 PUSH2 0x60D JUMP JUMPDEST DUP3 ADD SWAP2 SWAP1 PUSH0 MSTORE PUSH1 0x20 PUSH0 KECCAK256 SWAP1 JUMPDEST DUP2 SLOAD DUP2 MSTORE SWAP1 PUSH1 0x1 ADD SWAP1 PUSH1 0x20 ADD DUP1 DUP4 GT PUSH2 0x5F0 JUMPI DUP3 SWAP1 SUB PUSH1 0x1F AND DUP3 ADD SWAP2 JUMPDEST POP POP POP POP POP DUP2 MSTORE PUSH1 0x20 ADD PUSH1 0x2 DUP3 ADD DUP1 SLOAD PUSH2 0x626 SWAP1 PUSH2 0x1D52 JUMP JUMPDEST DUP1 PUSH1 0x1F ADD PUSH1 0x20 DUP1 SWAP2 DIV MUL PUSH1 0x20 ADD PUSH1 0x40 MLOAD SWAP1 DUP2 ADD PUSH1 0x40 MSTORE DUP1 SWAP3 SWAP2 SWAP1 DUP2 DUP2 MSTORE PUSH1 0x20 ADD DUP3 DUP1 SLOAD PUSH2 0x652 SWAP1 PUSH2 0x1D52 JUMP JUMPDEST DUP1 ISZERO PUSH2 0x69D JUMPI DUP1 PUSH1 0x1F LT PUSH2 0x674 JUMPI PUSH2 0x100 DUP1 DUP4 SLOAD DIV MUL DUP4 MSTORE SWAP2 PUSH1 0x20 ADD SWAP2 PUSH2 0x69D JUMP JUMPDEST DUP3 ADD SWAP2 SWAP1 PUSH0 MSTORE PUSH1 0x20 PUSH0 KECCAK256 SWAP1 JUMPDEST DUP2 SLOAD DUP2 MSTORE SWAP1 PUSH1 0x1 ADD SWAP1 PUSH1 0x20 ADD DUP1 DUP4 GT PUSH2 0x680 JUMPI DUP3 SWAP1 SUB PUSH1 0x1F AND DUP3 ADD SWAP2 JUMPDEST POP POP POP POP POP DUP2 MSTORE PUSH1 0x20 ADD PUSH1 0x3 DUP3 ADD DUP1 SLOAD PUSH2 0x6B6 SWAP1 PUSH2 0x1D52 JUMP JUMPDEST DUP1 PUSH1 0x1F ADD PUSH1 0x20 DUP1 SWAP2 DIV MUL PUSH1 0x20 ADD PUSH1 0x40 MLOAD SWAP1 DUP2 ADD PUSH1 0x40 MSTORE DUP1 SWAP3 SWAP2 SWAP1 DUP2 DUP2 MSTORE PUSH1 0x20 ADD DUP3 DUP1 SLOAD PUSH2 0x6E2 SWAP1 PUSH2 0x1D52 JUMP JUMPDEST DUP1 ISZERO PUSH2 0x72D JUMPI DUP1 PUSH1 0x1F LT PUSH2 0x704 JUMPI PUSH2 0x100 DUP1 DUP4 SLOAD DIV MUL DUP4 MSTORE SWAP2 PUSH1 0x20 ADD SWAP2 PUSH2 0x72D JUMP JUMPDEST DUP3 ADD SWAP2 SWAP1 PUSH0 MSTORE PUSH1 0x20 PUSH0 KECCAK256 SWAP1 JUMPDEST DUP2 SLOAD DUP2 MSTORE SWAP1 PUSH1 0x1 ADD SWAP1 PUSH1 0x20 ADD DUP1 DUP4 GT PUSH2 0x710 JUMPI DUP3 SWAP1 SUB PUSH1 0x1F AND DUP3 ADD SWAP2 JUMPDEST POP POP POP POP POP DUP2 MSTORE PUSH1 0x20 ADD PUSH1 0x4 DUP3 ADD SLOAD DUP2 MSTORE PUSH1 0x20 ADD PUSH1 0x5 DUP3 ADD SLOAD DUP2 MSTORE PUSH1 0x20 ADD PUSH1 0x6 DUP3 ADD SLOAD DUP2 MSTORE PUSH1 0x20 ADD PUSH1 0x7 DUP3 ADD PUSH0 SWAP1 SLOAD SWAP1 PUSH2 0x100 EXP SWAP1 DIV PUSH1 0xFF AND ISZERO ISZERO ISZERO ISZERO DUP2 MSTORE PUSH1 0x20 ADD PUSH1 0x8 DUP3 ADD SLOAD DUP2 MSTORE POP POP SWAP1 POP SWAP2 SWAP1 POP JUMP JUMPDEST PUSH1 0x3 DUP2 DUP2 SLOAD DUP2 LT PUSH2 0x78E JUMPI PUSH0 DUP1 REVERT JUMPDEST SWAP1 PUSH0 MSTORE PUSH1 0x20 PUSH0 KECCAK256 ADD PUSH0 SWAP2 POP SWAP1 POP SLOAD DUP2 JUMP JUMPDEST PUSH1 0x4 PUSH1 0x20 MSTORE DUP1 PUSH0 MSTORE PUSH1 0x40 PUSH0 KECCAK256 PUSH0 SWAP2 POP SWAP1 POP DUP1 PUSH0 ADD SLOAD SWAP1 DUP1 PUSH1 0x1 ADD DUP1 SLOAD PUSH2 0x7C4 SWAP1 PUSH2 0x1D52 JUMP JUMPDEST DUP1 PUSH1 0x1F ADD PUSH1 0x20 DUP1 SWAP2 DIV MUL PUSH1 0x20 ADD PUSH1 0x40 MLOAD SWAP1 DUP2 ADD PUSH1 0x40 MSTORE DUP1 SWAP3 SWAP2 SWAP1 DUP2 DUP2 MSTORE PUSH1 0x20 ADD DUP3 DUP1 SLOAD PUSH2 0x7F0 SWAP1 PUSH2 0x1D52 JUMP JUMPDEST DUP1 ISZERO PUSH2 0x83B JUMPI DUP1 PUSH1 0x1F LT PUSH2 0x812 JUMPI PUSH2 0x100 DUP1 DUP4 SLOAD DIV MUL DUP4 MSTORE SWAP2 PUSH1 0x20 ADD SWAP2 PUSH2 0x83B JUMP JUMPDEST DUP3 ADD SWAP2 SWAP1 PUSH0 MSTORE PUSH1 0x20 PUSH0 KECCAK256 SWAP1 JUMPDEST DUP2 SLOAD DUP2 MSTORE SWAP1 PUSH1 0x1 ADD SWAP1 PUSH1 0x20 ADD DUP1 DUP4 GT PUSH2 0x81E JUMPI DUP3 SWAP1 SUB PUSH1 0x1F AND DUP3 ADD SWAP2 JUMPDEST POP POP POP POP POP SWAP1 DUP1 PUSH1 0x2 ADD DUP1 SLOAD PUSH2 0x850 SWAP1 PUSH2 0x1D52 JUMP JUMPDEST DUP1 PUSH1 0x1F ADD PUSH1 0x20 DUP1 SWAP2 DIV MUL PUSH1 0x20 ADD PUSH1 0x40 MLOAD SWAP1 DUP2 ADD PUSH1 0x40 MSTORE DUP1 SWAP3 SWAP2 SWAP1 DUP2 DUP2 MSTORE PUSH1 0x20 ADD DUP3 DUP1 SLOAD PUSH2 0x87C SWAP1 PUSH2 0x1D52 JUMP JUMPDEST DUP1 ISZERO PUSH2 0x8C7 JUMPI DUP1 PUSH1 0x1F LT PUSH2 0x89E JUMPI PUSH2 0x100 DUP1 DUP4 SLOAD DIV MUL DUP4 MSTORE SWAP2 PUSH1 0x20 ADD SWAP2 PUSH2 0x8C7 JUMP JUMPDEST DUP3 ADD SWAP2 SWAP1 PUSH0 MSTORE PUSH1 0x20 PUSH0 KECCAK256 SWAP1 JUMPDEST DUP2 SLOAD DUP2 MSTORE SWAP1 PUSH1 0x1 ADD SWAP1 PUSH1 0x20 ADD DUP1 DUP4 GT PUSH2 0x8AA JUMPI DUP3 SWAP1 SUB PUSH1 0x1F AND DUP3 ADD SWAP2 JUMPDEST POP POP POP POP POP SWAP1 DUP1 PUSH1 0x3 ADD DUP1 SLOAD PUSH2 0x8DC SWAP1 PUSH2 0x1D52 JUMP JUMPDEST DUP1 PUSH1 0x1F ADD PUSH1 0x20 DUP1 SWAP2 DIV MUL PUSH1 0x20 ADD PUSH1 0x40 MLOAD SWAP1 DUP2 ADD PUSH1 0x40 MSTORE DUP1 SWAP3 SWAP2 SWAP1 DUP2 DUP2 MSTORE PUSH1 0x20 ADD DUP3 DUP1 SLOAD PUSH2 0x908 SWAP1 PUSH2 0x1D52 JUMP JUMPDEST DUP1 ISZERO PUSH2 0x953 JUMPI DUP1 PUSH1 0x1F LT PUSH2 0x92A JUMPI PUSH2 0x100 DUP1 DUP4 SLOAD DIV MUL DUP4 MSTORE SWAP2 PUSH1 0x20 ADD SWAP2 PUSH2 0x953 JUMP JUMPDEST DUP3 ADD SWAP2 SWAP1 PUSH0 MSTORE PUSH1 0x20 PUSH0 KECCAK256 SWAP1 JUMPDEST DUP2 SLOAD DUP2 MSTORE SWAP1 PUSH1 0x1 ADD SWAP1 PUSH1 0x20 ADD DUP1 DUP4 GT PUSH2 0x936 JUMPI DUP3 SWAP1 SUB PUSH1 0x1F AND DUP3 ADD SWAP2 JUMPDEST POP POP POP POP POP SWAP1 DUP1 PUSH1 0x4 ADD SLOAD SWAP1 DUP1 PUSH1 0x5 ADD SLOAD SWAP1 DUP1 PUSH1 0x6 ADD SLOAD SWAP1 DUP1 PUSH1 0x7 ADD PUSH0 SWAP1 SLOAD SWAP1 PUSH2 0x100 EXP SWAP1 DIV PUSH1 0xFF AND SWAP1 DUP1 PUSH1 0x8 ADD SLOAD SWAP1 POP DUP10 JUMP JUMPDEST PUSH0 PUSH1 0x4 PUSH0 DUP4 DUP2 MSTORE PUSH1 0x20 ADD SWAP1 DUP2 MSTORE PUSH1 0x20 ADD PUSH0 KECCAK256 PUSH1 0x4 ADD SLOAD GT PUSH2 0x9DD JUMPI PUSH1 0x40 MLOAD PUSH32 0x8C379A000000000000000000000000000000000000000000000000000000000 DUP2 MSTORE PUSH1 0x4 ADD PUSH2 0x9D4 SWAP1 PUSH2 0x1E34 JUMP JUMPDEST PUSH1 0x40 MLOAD DUP1 SWAP2 SUB SWAP1 REVERT JUMPDEST PUSH0 PUSH1 0x4 PUSH0 DUP4 DUP2 MSTORE PUSH1 0x20 ADD SWAP1 DUP2 MSTORE PUSH1 0x20 ADD PUSH0 KECCAK256 SWAP1 POP PUSH0 PUSH0 PUSH0 SWAP1 SLOAD SWAP1 PUSH2 0x100 EXP SWAP1 DIV PUSH20 0xFFFFFFFFFFFFFFFFFFFFFFFFFFFFFFFFFFFFFFFF AND PUSH20 0xFFFFFFFFFFFFFFFFFFFFFFFFFFFFFFFFFFFFFFFF AND PUSH4 0x506B27F0 CALLER PUSH1 0x40 MLOAD DUP3 PUSH4 0xFFFFFFFF AND PUSH1 0xE0 SHL DUP2 MSTORE PUSH1 0x4 ADD PUSH2 0xA4B SWAP2 SWAP1 PUSH2 0x1A8F JUMP JUMPDEST PUSH1 0x20 PUSH1 0x40 MLOAD DUP1 DUP4 SUB DUP2 DUP7 GAS STATICCALL ISZERO DUP1 ISZERO PUSH2 0xA66 JUMPI RETURNDATASIZE PUSH0 PUSH0 RETURNDATACOPY RETURNDATASIZE PUSH0 REVERT JUMPDEST POP POP POP POP PUSH1 0x40 MLOAD RETURNDATASIZE PUSH1 0x1F NOT PUSH1 0x1F DUP3 ADD AND DUP3 ADD DUP1 PUSH1 0x40 MSTORE POP DUP2 ADD SWAP1 PUSH2 0xA8A SWAP2 SWAP1 PUSH2 0x1E7C JUMP JUMPDEST SWAP1 POP PUSH0 DUP2 PUSH2 0xA9A JUMPI PUSH2 0x7D0 PUSH2 0xAA0 JUMP JUMPDEST DUP3 PUSH1 0x6 ADD SLOAD JUMPDEST SWAP1 POP DUP1 CALLVALUE LT ISZERO PUSH2 0xAE5 JUMPI PUSH1 0x40 MLOAD PUSH32 0x8C379A000000000000000000000000000000000000000000000000000000000 DUP2 MSTORE PUSH1 0x4 ADD PUSH2 0xADC SWAP1 PUSH2 0x1EF1 JUMP JUMPDEST PUSH1 0x40 MLOAD DUP1 SWAP2 SUB SWAP1 REVERT JUMPDEST PUSH1 0x6 PUSH0 DUP6 DUP2 MSTORE PUSH1 0x20 ADD SWAP1 DUP2 MSTORE PUSH1 0x20 ADD PUSH0 KECCAK256 CALLER SWAP1 DUP1 PUSH1 0x1 DUP2 SLOAD ADD DUP1 DUP3 SSTORE DUP1 SWAP2 POP POP PUSH1 0x1 SWAP1 SUB SWAP1 PUSH0 MSTORE PUSH1 0x20 PUSH0 KECCAK256 ADD PUSH0 SWAP1 SWAP2 SWAP1 SWAP2 SWAP1 SWAP2 PUSH2 0x100 EXP DUP2 SLOAD DUP2 PUSH20 0xFFFFFFFFFFFFFFFFFFFFFFFFFFFFFFFFFFFFFFFF MUL NOT AND SWAP1 DUP4 PUSH20 0xFFFFFFFFFFFFFFFFFFFFFFFFFFFFFFFFFFFFFFFF AND MUL OR SWAP1 SSTORE POP PUSH1 0x1 DUP4 PUSH1 0x4 ADD PUSH0 DUP3 DUP3 SLOAD PUSH2 0xB68 SWAP2 SWAP1 PUSH2 0x1F3C JUMP JUMPDEST SWAP3 POP POP DUP2 SWAP1 SSTORE POP PUSH0 PUSH1 0x1 PUSH0 SWAP1 SLOAD SWAP1 PUSH2 0x100 EXP SWAP1 DIV PUSH20 0xFFFFFFFFFFFFFFFFFFFFFFFFFFFFFFFFFFFFFFFF AND PUSH20 0xFFFFFFFFFFFFFFFFFFFFFFFFFFFFFFFFFFFFFFFF AND DUP3 PUSH1 0x40 MLOAD PUSH2 0xBB5 SWAP1 PUSH2 0x1F9C JUMP JUMPDEST PUSH0 PUSH1 0x40 MLOAD DUP1 DUP4 SUB DUP2 DUP6 DUP8 GAS CALL SWAP3 POP POP POP RETURNDATASIZE DUP1 PUSH0 DUP2 EQ PUSH2 0xBEF JUMPI PUSH1 0x40 MLOAD SWAP2 POP PUSH1 0x1F NOT PUSH1 0x3F RETURNDATASIZE ADD AND DUP3 ADD PUSH1 0x40 MSTORE RETURNDATASIZE DUP3 MSTORE RETURNDATASIZE PUSH0 PUSH1 0x20 DUP5 ADD RETURNDATACOPY PUSH2 0xBF4 JUMP JUMPDEST PUSH1 0x60 SWAP2 POP JUMPDEST POP POP SWAP1 POP DUP1 PUSH2 0xC38 JUMPI PUSH1 0x40 MLOAD PUSH32 0x8C379A000000000000000000000000000000000000000000000000000000000 DUP2 MSTORE PUSH1 0x4 ADD PUSH2 0xC2F SWAP1 PUSH2 0x1FFA JUMP JUMPDEST PUSH1 0x40 MLOAD DUP1 SWAP2 SUB SWAP1 REVERT JUMPDEST PUSH0 DUP3 CALLVALUE PUSH2 0xC45 SWAP2 SWAP1 PUSH2 0x1F3C JUMP JUMPDEST SWAP1 POP PUSH0 DUP2 GT ISZERO PUSH2 0xCF9 JUMPI PUSH0 CALLER PUSH20 0xFFFFFFFFFFFFFFFFFFFFFFFFFFFFFFFFFFFFFFFF AND DUP3 PUSH1 0x40 MLOAD PUSH2 0xC74 SWAP1 PUSH2 0x1F9C JUMP JUMPDEST PUSH0 PUSH1 0x40 MLOAD DUP1 DUP4 SUB DUP2 DUP6 DUP8 GAS CALL SWAP3 POP POP POP RETURNDATASIZE DUP1 PUSH0 DUP2 EQ PUSH2 0xCAE JUMPI PUSH1 0x40 MLOAD SWAP2 POP PUSH1 0x1F NOT PUSH1 0x3F RETURNDATASIZE ADD AND DUP3 ADD PUSH1 0x40 MSTORE RETURNDATASIZE DUP3 MSTORE RETURNDATASIZE PUSH0 PUSH1 0x20 DUP5 ADD RETURNDATACOPY PUSH2 0xCB3 JUMP JUMPDEST PUSH1 0x60 SWAP2 POP JUMPDEST POP POP SWAP1 POP DUP1 PUSH2 0xCF7 JUMPI PUSH1 0x40 MLOAD PUSH32 0x8C379A000000000000000000000000000000000000000000000000000000000 DUP2 MSTORE PUSH1 0x4 ADD PUSH2 0xCEE SWAP1 PUSH2 0x2062 JUMP JUMPDEST PUSH1 0x40 MLOAD DUP1 SWAP2 SUB SWAP1 REVERT JUMPDEST POP JUMPDEST POP POP POP POP POP POP JUMP JUMPDEST PUSH1 0x60 PUSH1 0x2 DUP1 SLOAD DUP1 PUSH1 0x20 MUL PUSH1 0x20 ADD PUSH1 0x40 MLOAD SWAP1 DUP2 ADD PUSH1 0x40 MSTORE DUP1 SWAP3 SWAP2 SWAP1 DUP2 DUP2 MSTORE PUSH1 0x20 ADD PUSH0 SWAP1 JUMPDEST DUP3 DUP3 LT ISZERO PUSH2 0xF50 JUMPI DUP4 DUP3 SWAP1 PUSH0 MSTORE PUSH1 0x20 PUSH0 KECCAK256 SWAP1 PUSH1 0x9 MUL ADD PUSH1 0x40 MLOAD DUP1 PUSH2 0x120 ADD PUSH1 0x40 MSTORE SWAP1 DUP2 PUSH0 DUP3 ADD SLOAD DUP2 MSTORE PUSH1 0x20 ADD PUSH1 0x1 DUP3 ADD DUP1 SLOAD PUSH2 0xD5F SWAP1 PUSH2 0x1D52 JUMP JUMPDEST DUP1 PUSH1 0x1F ADD PUSH1 0x20 DUP1 SWAP2 DIV MUL PUSH1 0x20 ADD PUSH1 0x40 MLOAD SWAP1 DUP2 ADD PUSH1 0x40 MSTORE DUP1 SWAP3 SWAP2 SWAP1 DUP2 DUP2 MSTORE PUSH1 0x20 ADD DUP3 DUP1 SLOAD PUSH2 0xD8B SWAP1 PUSH2 0x1D52 JUMP JUMPDEST DUP1 ISZERO PUSH2 0xDD6 JUMPI DUP1 PUSH1 0x1F LT PUSH2 0xDAD JUMPI PUSH2 0x100 DUP1 DUP4 SLOAD DIV MUL DUP4 MSTORE SWAP2 PUSH1 0x20 ADD SWAP2 PUSH2 0xDD6 JUMP JUMPDEST DUP3 ADD SWAP2 SWAP1 PUSH0 MSTORE PUSH1 0x20 PUSH0 KECCAK256 SWAP1 JUMPDEST DUP2 SLOAD DUP2 MSTORE SWAP1 PUSH1 0x1 ADD SWAP1 PUSH1 0x20 ADD DUP1 DUP4 GT PUSH2 0xDB9 JUMPI DUP3 SWAP1 SUB PUSH1 0x1F AND DUP3 ADD SWAP2 JUMPDEST POP POP POP POP POP DUP2 MSTORE PUSH1 0x20 ADD PUSH1 0x2 DUP3 ADD DUP1 SLOAD PUSH2 0xDEF SWAP1 PUSH2 0x1D52 JUMP JUMPDEST DUP1 PUSH1 0x1F ADD PUSH1 0x20 DUP1 SWAP2 DIV MUL PUSH1 0x20 ADD PUSH1 0x40 MLOAD SWAP1 DUP2 ADD PUSH1 0x40 MSTORE DUP1 SWAP3 SWAP2 SWAP1 DUP2 DUP2 MSTORE PUSH1 0x20 ADD DUP3 DUP1 SLOAD PUSH2 0xE1B SWAP1 PUSH2 0x1D52 JUMP JUMPDEST DUP1 ISZERO PUSH2 0xE66 JUMPI DUP1 PUSH1 0x1F LT PUSH2 0xE3D JUMPI PUSH2 0x100 DUP1 DUP4 SLOAD DIV MUL DUP4 MSTORE SWAP2 PUSH1 0x20 ADD SWAP2 PUSH2 0xE66 JUMP JUMPDEST DUP3 ADD SWAP2 SWAP1 PUSH0 MSTORE PUSH1 0x20 PUSH0 KECCAK256 SWAP1 JUMPDEST DUP2 SLOAD DUP2 MSTORE SWAP1 PUSH1 0x1 ADD SWAP1 PUSH1 0x20 ADD DUP1 DUP4 GT PUSH2 0xE49 JUMPI DUP3 SWAP1 SUB PUSH1 0x1F AND DUP3 ADD SWAP2 JUMPDEST POP POP POP POP POP DUP2 MSTORE PUSH1 0x20 ADD PUSH1 0x3 DUP3 ADD DUP1 SLOAD PUSH2 0xE7F SWAP1 PUSH2 0x1D52 JUMP JUMPDEST DUP1 PUSH1 0x1F ADD PUSH1 0x20 DUP1 SWAP2 DIV MUL PUSH1 0x20 ADD PUSH1 0x40 MLOAD SWAP1 DUP2 ADD PUSH1 0x40 MSTORE DUP1 SWAP3 SWAP2 SWAP1 DUP2 DUP2 MSTORE PUSH1 0x20 ADD DUP3 DUP1 SLOAD PUSH2 0xEAB SWAP1 PUSH2 0x1D52 JUMP JUMPDEST DUP1 ISZERO PUSH2 0xEF6 JUMPI DUP1 PUSH1 0x1F LT PUSH2 0xECD JUMPI PUSH2 0x100 DUP1 DUP4 SLOAD DIV MUL DUP4 MSTORE SWAP2 PUSH1 0x20 ADD SWAP2 PUSH2 0xEF6 JUMP JUMPDEST DUP3 ADD SWAP2 SWAP1 PUSH0 MSTORE PUSH1 0x20 PUSH0 KECCAK256 SWAP1 JUMPDEST DUP2 SLOAD DUP2 MSTORE SWAP1 PUSH1 0x1 ADD SWAP1 PUSH1 0x20 ADD DUP1 DUP4 GT PUSH2 0xED9 JUMPI DUP3 SWAP1 SUB PUSH1 0x1F AND DUP3 ADD SWAP2 JUMPDEST POP POP POP POP POP DUP2 MSTORE PUSH1 0x20 ADD PUSH1 0x4 DUP3 ADD SLOAD DUP2 MSTORE PUSH1 0x20 ADD PUSH1 0x5 DUP3 ADD SLOAD DUP2 MSTORE PUSH1 0x20 ADD PUSH1 0x6 DUP3 ADD SLOAD DUP2 MSTORE PUSH1 0x20 ADD PUSH1 0x7 DUP3 ADD PUSH0 SWAP1 SLOAD SWAP1 PUSH2 0x100 EXP SWAP1 DIV PUSH1 0xFF AND ISZERO ISZERO ISZERO ISZERO DUP2 MSTORE PUSH1 0x20 ADD PUSH1 0x8 DUP3 ADD SLOAD DUP2 MSTORE POP POP DUP2 MSTORE PUSH1 0x20 ADD SWAP1 PUSH1 0x1 ADD SWAP1 PUSH2 0xD24 JUMP JUMPDEST POP POP POP POP SWAP1 POP SWAP1 JUMP JUMPDEST PUSH1 0x6 PUSH1 0x20 MSTORE DUP2 PUSH0 MSTORE PUSH1 0x40 PUSH0 KECCAK256 DUP2 DUP2 SLOAD DUP2 LT PUSH2 0xF72 JUMPI PUSH0 DUP1 REVERT JUMPDEST SWAP1 PUSH0 MSTORE PUSH1 0x20 PUSH0 KECCAK256 ADD PUSH0 SWAP2 POP SWAP2 POP SWAP1 SLOAD SWAP1 PUSH2 0x100 EXP SWAP1 DIV PUSH20 0xFFFFFFFFFFFFFFFFFFFFFFFFFFFFFFFFFFFFFFFF AND DUP2 JUMP JUMPDEST PUSH0 DUP7 MLOAD GT PUSH2 0xFE4 JUMPI PUSH1 0x40 MLOAD PUSH32 0x8C379A000000000000000000000000000000000000000000000000000000000 DUP2 MSTORE PUSH1 0x4 ADD PUSH2 0xFDB SWAP1 PUSH2 0x20CA JUMP JUMPDEST PUSH1 0x40 MLOAD DUP1 SWAP2 SUB SWAP1 REVERT JUMPDEST PUSH0 DUP6 MLOAD GT PUSH2 0x1027 JUMPI PUSH1 0x40 MLOAD PUSH32 0x8C379A000000000000000000000000000000000000000000000000000000000 DUP2 MSTORE PUSH1 0x4 ADD PUSH2 0x101E SWAP1 PUSH2 0x2132 JUMP JUMPDEST PUSH1 0x40 MLOAD DUP1 SWAP2 SUB SWAP1 REVERT JUMPDEST PUSH0 DUP5 MLOAD GT PUSH2 0x106A JUMPI PUSH1 0x40 MLOAD PUSH32 0x8C379A000000000000000000000000000000000000000000000000000000000 DUP2 MSTORE PUSH1 0x4 ADD PUSH2 0x1061 SWAP1 PUSH2 0x219A JUMP JUMPDEST PUSH1 0x40 MLOAD DUP1 SWAP2 SUB SWAP1 REVERT JUMPDEST PUSH0 DUP4 GT PUSH2 0x10AC JUMPI PUSH1 0x40 MLOAD PUSH32 0x8C379A000000000000000000000000000000000000000000000000000000000 DUP2 MSTORE PUSH1 0x4 ADD PUSH2 0x10A3 SWAP1 PUSH2 0x2202 JUMP JUMPDEST PUSH1 0x40 MLOAD DUP1 SWAP2 SUB SWAP1 REVERT JUMPDEST PUSH0 DUP3 GT PUSH2 0x10EE JUMPI PUSH1 0x40 MLOAD PUSH32 0x8C379A000000000000000000000000000000000000000000000000000000000 DUP2 MSTORE PUSH1 0x4 ADD PUSH2 0x10E5 SWAP1 PUSH2 0x226A JUMP JUMPDEST PUSH1 0x40 MLOAD DUP1 SWAP2 SUB SWAP1 REVERT JUMPDEST PUSH0 DUP2 GT PUSH2 0x1130 JUMPI PUSH1 0x40 MLOAD PUSH32 0x8C379A000000000000000000000000000000000000000000000000000000000 DUP2 MSTORE PUSH1 0x4 ADD PUSH2 0x1127 SWAP1 PUSH2 0x226A JUMP JUMPDEST PUSH1 0x40 MLOAD DUP1 SWAP2 SUB SWAP1 REVERT JUMPDEST PUSH0 DUP7 DUP7 PUSH1 0x40 MLOAD PUSH1 0x20 ADD PUSH2 0x1144 SWAP3 SWAP2 SWAP1 PUSH2 0x22C2 JUMP JUMPDEST PUSH1 0x40 MLOAD PUSH1 0x20 DUP2 DUP4 SUB SUB DUP2 MSTORE SWAP1 PUSH1 0x40 MSTORE DUP1 MLOAD SWAP1 PUSH1 0x20 ADD KECCAK256 SWAP1 POP PUSH1 0x5 PUSH0 DUP3 DUP2 MSTORE PUSH1 0x20 ADD SWAP1 DUP2 MSTORE PUSH1 0x20 ADD PUSH0 KECCAK256 PUSH0 SWAP1 SLOAD SWAP1 PUSH2 0x100 EXP SWAP1 DIV PUSH1 0xFF AND ISZERO PUSH2 0x11BA JUMPI PUSH1 0x40 MLOAD PUSH32 0x8C379A000000000000000000000000000000000000000000000000000000000 DUP2 MSTORE PUSH1 0x4 ADD PUSH2 0x11B1 SWAP1 PUSH2 0x2355 JUMP JUMPDEST PUSH1 0x40 MLOAD DUP1 SWAP2 SUB SWAP1 REVERT JUMPDEST PUSH1 0x1 PUSH1 0x5 PUSH0 DUP4 DUP2 MSTORE PUSH1 0x20 ADD SWAP1 DUP2 MSTORE PUSH1 0x20 ADD PUSH0 KECCAK256 PUSH0 PUSH2 0x100 EXP DUP2 SLOAD DUP2 PUSH1 0xFF MUL NOT AND SWAP1 DUP4 ISZERO ISZERO MUL OR SWAP1 SSTORE POP PUSH0 PUSH1 0x1 PUSH1 0x2 DUP1 SLOAD SWAP1 POP PUSH2 0x11F6 SWAP2 SWAP1 PUSH2 0x2373 JUMP JUMPDEST SWAP1 POP PUSH1 0x40 MLOAD DUP1 PUSH2 0x120 ADD PUSH1 0x40 MSTORE DUP1 DUP3 DUP2 MSTORE PUSH1 0x20 ADD DUP10 DUP2 MSTORE PUSH1 0x20 ADD DUP9 DUP2 MSTORE PUSH1 0x20 ADD DUP8 DUP2 MSTORE PUSH1 0x20 ADD DUP7 DUP2 MSTORE PUSH1 0x20 ADD DUP6 DUP2 MSTORE PUSH1 0x20 ADD DUP5 DUP2 MSTORE PUSH1 0x20 ADD PUSH1 0x1 ISZERO ISZERO DUP2 MSTORE PUSH1 0x20 ADD TIMESTAMP DUP2 MSTORE POP PUSH1 0x4 PUSH0 DUP4 DUP2 MSTORE PUSH1 0x20 ADD SWAP1 DUP2 MSTORE PUSH1 0x20 ADD PUSH0 KECCAK256 PUSH0 DUP3 ADD MLOAD DUP2 PUSH0 ADD SSTORE PUSH1 0x20 DUP3 ADD MLOAD DUP2 PUSH1 0x1 ADD SWAP1 DUP2 PUSH2 0x1269 SWAP2 SWAP1 PUSH2 0x253D JUMP JUMPDEST POP PUSH1 0x40 DUP3 ADD MLOAD DUP2 PUSH1 0x2 ADD SWAP1 DUP2 PUSH2 0x127F SWAP2 SWAP1 PUSH2 0x253D JUMP JUMPDEST POP PUSH1 0x60 DUP3 ADD MLOAD DUP2 PUSH1 0x3 ADD SWAP1 DUP2 PUSH2 0x1295 SWAP2 SWAP1 PUSH2 0x253D JUMP JUMPDEST POP PUSH1 0x80 DUP3 ADD MLOAD DUP2 PUSH1 0x4 ADD SSTORE PUSH1 0xA0 DUP3 ADD MLOAD DUP2 PUSH1 0x5 ADD SSTORE PUSH1 0xC0 DUP3 ADD MLOAD DUP2 PUSH1 0x6 ADD SSTORE PUSH1 0xE0 DUP3 ADD MLOAD DUP2 PUSH1 0x7 ADD PUSH0 PUSH2 0x100 EXP DUP2 SLOAD DUP2 PUSH1 0xFF MUL NOT AND SWAP1 DUP4 ISZERO ISZERO MUL OR SWAP1 SSTORE POP PUSH2 0x100 DUP3 ADD MLOAD DUP2 PUSH1 0x8 ADD SSTORE SWAP1 POP POP PUSH1 0x2 PUSH1 0x4 PUSH0 DUP4 DUP2 MSTORE PUSH1 0x20 ADD SWAP1 DUP2 MSTORE PUSH1 0x20 ADD PUSH0 KECCAK256 SWAP1 DUP1 PUSH1 0x1 DUP2 SLOAD ADD DUP1 DUP3 SSTORE DUP1 SWAP2 POP POP PUSH1 0x1 SWAP1 SUB SWAP1 PUSH0 MSTORE PUSH1 0x20 PUSH0 KECCAK256 SWAP1 PUSH1 0x9 MUL ADD PUSH0 SWAP1 SWAP2 SWAP1 SWAP2 SWAP1 SWAP2 POP PUSH0 DUP3 ADD SLOAD DUP2 PUSH0 ADD SSTORE PUSH1 0x1 DUP3 ADD DUP2 PUSH1 0x1 ADD SWAP1 DUP2 PUSH2 0x1336 SWAP2 SWAP1 PUSH2 0x2621 JUMP JUMPDEST POP PUSH1 0x2 DUP3 ADD DUP2 PUSH1 0x2 ADD SWAP1 DUP2 PUSH2 0x134B SWAP2 SWAP1 PUSH2 0x2621 JUMP JUMPDEST POP PUSH1 0x3 DUP3 ADD DUP2 PUSH1 0x3 ADD SWAP1 DUP2 PUSH2 0x1360 SWAP2 SWAP1 PUSH2 0x2621 JUMP JUMPDEST POP PUSH1 0x4 DUP3 ADD SLOAD DUP2 PUSH1 0x4 ADD SSTORE PUSH1 0x5 DUP3 ADD SLOAD DUP2 PUSH1 0x5 ADD SSTORE PUSH1 0x6 DUP3 ADD SLOAD DUP2 PUSH1 0x6 ADD SSTORE PUSH1 0x7 DUP3 ADD PUSH0 SWAP1 SLOAD SWAP1 PUSH2 0x100 EXP SWAP1 DIV PUSH1 0xFF AND DUP2 PUSH1 0x7 ADD PUSH0 PUSH2 0x100 EXP DUP2 SLOAD DUP2 PUSH1 0xFF MUL NOT AND SWAP1 DUP4 ISZERO ISZERO MUL OR SWAP1 SSTORE POP PUSH1 0x8 DUP3 ADD SLOAD DUP2 PUSH1 0x8 ADD SSTORE POP POP PUSH1 0x3 DUP2 SWAP1 DUP1 PUSH1 0x1 DUP2 SLOAD ADD DUP1 DUP3 SSTORE DUP1 SWAP2 POP POP PUSH1 0x1 SWAP1 SUB SWAP1 PUSH0 MSTORE PUSH1 0x20 PUSH0 KECCAK256 ADD PUSH0 SWAP1 SWAP2 SWAP1 SWAP2 SWAP1 SWAP2 POP SSTORE POP POP POP POP POP POP POP POP JUMP JUMPDEST PUSH0 PUSH0 SWAP1 SLOAD SWAP1 PUSH2 0x100 EXP SWAP1 DIV PUSH20 0xFFFFFFFFFFFFFFFFFFFFFFFFFFFFFFFFFFFFFFFF AND DUP2 JUMP JUMPDEST PUSH0 DUP2 GT PUSH2 0x144C JUMPI PUSH1 0x40 MLOAD PUSH32 0x8C379A000000000000000000000000000000000000000000000000000000000 DUP2 MSTORE PUSH1 0x4 ADD PUSH2 0x1443 SWAP1 PUSH2 0x2202 JUMP JUMPDEST PUSH1 0x40 MLOAD DUP1 SWAP2 SUB SWAP1 REVERT JUMPDEST PUSH0 PUSH1 0x4 PUSH0 DUP5 DUP2 MSTORE PUSH1 0x20 ADD SWAP1 DUP2 MSTORE PUSH1 0x20 ADD PUSH0 KECCAK256 SWAP1 POP DUP1 PUSH1 0x7 ADD PUSH0 SWAP1 SLOAD SWAP1 PUSH2 0x100 EXP SWAP1 DIV PUSH1 0xFF AND PUSH2 0x14B0 JUMPI PUSH1 0x40 MLOAD PUSH32 0x8C379A000000000000000000000000000000000000000000000000000000000 DUP2 MSTORE PUSH1 0x4 ADD PUSH2 0x14A7 SWAP1 PUSH2 0x1DCC JUMP JUMPDEST PUSH1 0x40 MLOAD DUP1 SWAP2 SUB SWAP1 REVERT JUMPDEST DUP2 DUP2 PUSH1 0x4 ADD PUSH0 DUP3 DUP3 SLOAD PUSH2 0x14C3 SWAP2 SWAP1 PUSH2 0x2373 JUMP JUMPDEST SWAP3 POP POP DUP2 SWAP1 SSTORE POP POP POP POP JUMP JUMPDEST PUSH1 0x40 MLOAD DUP1 PUSH2 0x120 ADD PUSH1 0x40 MSTORE DUP1 PUSH0 DUP2 MSTORE PUSH1 0x20 ADD PUSH1 0x60 DUP2 MSTORE PUSH1 0x20 ADD PUSH1 0x60 DUP2 MSTORE PUSH1 0x20 ADD PUSH1 0x60 DUP2 MSTORE PUSH1 0x20 ADD PUSH0 DUP2 MSTORE PUSH1 0x20 ADD PUSH0 DUP2 MSTORE PUSH1 0x20 ADD PUSH0 DUP2 MSTORE PUSH1 0x20 ADD PUSH0 ISZERO ISZERO DUP2 MSTORE PUSH1 0x20 ADD PUSH0 DUP2 MSTORE POP SWAP1 JUMP JUMPDEST PUSH0 PUSH20 0xFFFFFFFFFFFFFFFFFFFFFFFFFFFFFFFFFFFFFFFF DUP3 AND SWAP1 POP SWAP2 SWAP1 POP JUMP JUMPDEST PUSH0 PUSH2 0x1540 DUP3 PUSH2 0x1517 JUMP JUMPDEST SWAP1 POP SWAP2 SWAP1 POP JUMP JUMPDEST PUSH2 0x1550 DUP2 PUSH2 0x1536 JUMP JUMPDEST DUP3 MSTORE POP POP JUMP JUMPDEST PUSH0 PUSH1 0x20 DUP3 ADD SWAP1 POP PUSH2 0x1569 PUSH0 DUP4 ADD DUP5 PUSH2 0x1547 JUMP JUMPDEST SWAP3 SWAP2 POP POP JUMP JUMPDEST PUSH0 PUSH1 0x40 MLOAD SWAP1 POP SWAP1 JUMP JUMPDEST PUSH0 PUSH0 REVERT JUMPDEST PUSH0 PUSH0 REVERT JUMPDEST PUSH0 DUP2 SWAP1 POP SWAP2 SWAP1 POP JUMP JUMPDEST PUSH2 0x1592 DUP2 PUSH2 0x1580 JUMP JUMPDEST DUP2 EQ PUSH2 0x159C JUMPI PUSH0 PUSH0 REVERT JUMPDEST POP JUMP JUMPDEST PUSH0 DUP2 CALLDATALOAD SWAP1 POP PUSH2 0x15AD DUP2 PUSH2 0x1589 JUMP JUMPDEST SWAP3 SWAP2 POP POP JUMP JUMPDEST PUSH0 PUSH1 0x20 DUP3 DUP5 SUB SLT ISZERO PUSH2 0x15C8 JUMPI PUSH2 0x15C7 PUSH2 0x1578 JUMP JUMPDEST JUMPDEST PUSH0 PUSH2 0x15D5 DUP5 DUP3 DUP6 ADD PUSH2 0x159F JUMP JUMPDEST SWAP2 POP POP SWAP3 SWAP2 POP POP JUMP JUMPDEST PUSH2 0x15E7 DUP2 PUSH2 0x1580 JUMP JUMPDEST DUP3 MSTORE POP POP JUMP JUMPDEST PUSH0 DUP2 MLOAD SWAP1 POP SWAP2 SWAP1 POP JUMP JUMPDEST PUSH0 DUP3 DUP3 MSTORE PUSH1 0x20 DUP3 ADD SWAP1 POP SWAP3 SWAP2 POP POP JUMP JUMPDEST DUP3 DUP2 DUP4 MCOPY PUSH0 DUP4 DUP4 ADD MSTORE POP POP POP JUMP JUMPDEST PUSH0 PUSH1 0x1F NOT PUSH1 0x1F DUP4 ADD AND SWAP1 POP SWAP2 SWAP1 POP JUMP JUMPDEST PUSH0 PUSH2 0x162F DUP3 PUSH2 0x15ED JUMP JUMPDEST PUSH2 0x1639 DUP2 DUP6 PUSH2 0x15F7 JUMP JUMPDEST SWAP4 POP PUSH2 0x1649 DUP2 DUP6 PUSH1 0x20 DUP7 ADD PUSH2 0x1607 JUMP JUMPDEST PUSH2 0x1652 DUP2 PUSH2 0x1615 JUMP JUMPDEST DUP5 ADD SWAP2 POP POP SWAP3 SWAP2 POP POP JUMP JUMPDEST PUSH0 DUP2 ISZERO ISZERO SWAP1 POP SWAP2 SWAP1 POP JUMP JUMPDEST PUSH2 0x1671 DUP2 PUSH2 0x165D JUMP JUMPDEST DUP3 MSTORE POP POP JUMP JUMPDEST PUSH0 PUSH2 0x120 DUP3 ADD SWAP1 POP PUSH2 0x168B PUSH0 DUP4 ADD DUP13 PUSH2 0x15DE JUMP JUMPDEST DUP2 DUP2 SUB PUSH1 0x20 DUP4 ADD MSTORE PUSH2 0x169D DUP2 DUP12 PUSH2 0x1625 JUMP JUMPDEST SWAP1 POP DUP2 DUP2 SUB PUSH1 0x40 DUP4 ADD MSTORE PUSH2 0x16B1 DUP2 DUP11 PUSH2 0x1625 JUMP JUMPDEST SWAP1 POP DUP2 DUP2 SUB PUSH1 0x60 DUP4 ADD MSTORE PUSH2 0x16C5 DUP2 DUP10 PUSH2 0x1625 JUMP JUMPDEST SWAP1 POP PUSH2 0x16D4 PUSH1 0x80 DUP4 ADD DUP9 PUSH2 0x15DE JUMP JUMPDEST PUSH2 0x16E1 PUSH1 0xA0 DUP4 ADD DUP8 PUSH2 0x15DE JUMP JUMPDEST PUSH2 0x16EE PUSH1 0xC0 DUP4 ADD DUP7 PUSH2 0x15DE JUMP JUMPDEST PUSH2 0x16FB PUSH1 0xE0 DUP4 ADD DUP6 PUSH2 0x1668 JUMP JUMPDEST PUSH2 0x1709 PUSH2 0x100 DUP4 ADD DUP5 PUSH2 0x15DE JUMP JUMPDEST SWAP11 SWAP10 POP POP POP POP POP POP POP POP POP POP JUMP JUMPDEST PUSH2 0x1720 DUP2 PUSH2 0x1580 JUMP JUMPDEST DUP3 MSTORE POP POP JUMP JUMPDEST PUSH0 DUP3 DUP3 MSTORE PUSH1 0x20 DUP3 ADD SWAP1 POP SWAP3 SWAP2 POP POP JUMP JUMPDEST PUSH0 PUSH2 0x1740 DUP3 PUSH2 0x15ED JUMP JUMPDEST PUSH2 0x174A DUP2 DUP6 PUSH2 0x1726 JUMP JUMPDEST SWAP4 POP PUSH2 0x175A DUP2 DUP6 PUSH1 0x20 DUP7 ADD PUSH2 0x1607 JUMP JUMPDEST PUSH2 0x1763 DUP2 PUSH2 0x1615 JUMP JUMPDEST DUP5 ADD SWAP2 POP POP SWAP3 SWAP2 POP POP JUMP JUMPDEST PUSH2 0x1777 DUP2 PUSH2 0x165D JUMP JUMPDEST DUP3 MSTORE POP POP JUMP JUMPDEST PUSH0 PUSH2 0x120 DUP4 ADD PUSH0 DUP4 ADD MLOAD PUSH2 0x1793 PUSH0 DUP7 ADD DUP3 PUSH2 0x1717 JUMP JUMPDEST POP PUSH1 0x20 DUP4 ADD MLOAD DUP5 DUP3 SUB PUSH1 0x20 DUP7 ADD MSTORE PUSH2 0x17AB DUP3 DUP3 PUSH2 0x1736 JUMP JUMPDEST SWAP2 POP POP PUSH1 0x40 DUP4 ADD MLOAD DUP5 DUP3 SUB PUSH1 0x40 DUP7 ADD MSTORE PUSH2 0x17C5 DUP3 DUP3 PUSH2 0x1736 JUMP JUMPDEST SWAP2 POP POP PUSH1 0x60 DUP4 ADD MLOAD DUP5 DUP3 SUB PUSH1 0x60 DUP7 ADD MSTORE PUSH2 0x17DF DUP3 DUP3 PUSH2 0x1736 JUMP JUMPDEST SWAP2 POP POP PUSH1 0x80 DUP4 ADD MLOAD PUSH2 0x17F4 PUSH1 0x80 DUP7 ADD DUP3 PUSH2 0x1717 JUMP JUMPDEST POP PUSH1 0xA0 DUP4 ADD MLOAD PUSH2 0x1807 PUSH1 0xA0 DUP7 ADD DUP3 PUSH2 0x1717 JUMP JUMPDEST POP PUSH1 0xC0 DUP4 ADD MLOAD PUSH2 0x181A PUSH1 0xC0 DUP7 ADD DUP3 PUSH2 0x1717 JUMP JUMPDEST POP PUSH1 0xE0 DUP4 ADD MLOAD PUSH2 0x182D PUSH1 0xE0 DUP7 ADD DUP3 PUSH2 0x176E JUMP JUMPDEST POP PUSH2 0x100 DUP4 ADD MLOAD PUSH2 0x1842 PUSH2 0x100 DUP7 ADD DUP3 PUSH2 0x1717 JUMP JUMPDEST POP DUP1 SWAP2 POP POP SWAP3 SWAP2 POP POP JUMP JUMPDEST PUSH0 PUSH1 0x20 DUP3 ADD SWAP1 POP DUP2 DUP2 SUB PUSH0 DUP4 ADD MSTORE PUSH2 0x1865 DUP2 DUP5 PUSH2 0x177D JUMP JUMPDEST SWAP1 POP SWAP3 SWAP2 POP POP JUMP JUMPDEST PUSH0 PUSH1 0x20 DUP3 ADD SWAP1 POP PUSH2 0x1880 PUSH0 DUP4 ADD DUP5 PUSH2 0x15DE JUMP JUMPDEST SWAP3 SWAP2 POP POP JUMP JUMPDEST PUSH0 DUP2 MLOAD SWAP1 POP SWAP2 SWAP1 POP JUMP JUMPDEST PUSH0 DUP3 DUP3 MSTORE PUSH1 0x20 DUP3 ADD SWAP1 POP SWAP3 SWAP2 POP POP JUMP JUMPDEST PUSH0 DUP2 SWAP1 POP PUSH1 0x20 DUP3 ADD SWAP1 POP SWAP2 SWAP1 POP JUMP JUMPDEST PUSH0 PUSH2 0x120 DUP4 ADD PUSH0 DUP4 ADD MLOAD PUSH2 0x18C5 PUSH0 DUP7 ADD DUP3 PUSH2 0x1717 JUMP JUMPDEST POP PUSH1 0x20 DUP4 ADD MLOAD DUP5 DUP3 SUB PUSH1 0x20 DUP7 ADD MSTORE PUSH2 0x18DD DUP3 DUP3 PUSH2 0x1736 JUMP JUMPDEST SWAP2 POP POP PUSH1 0x40 DUP4 ADD MLOAD DUP5 DUP3 SUB PUSH1 0x40 DUP7 ADD MSTORE PUSH2 0x18F7 DUP3 DUP3 PUSH2 0x1736 JUMP JUMPDEST SWAP2 POP POP PUSH1 0x60 DUP4 ADD MLOAD DUP5 DUP3 SUB PUSH1 0x60 DUP7 ADD MSTORE PUSH2 0x1911 DUP3 DUP3 PUSH2 0x1736 JUMP JUMPDEST SWAP2 POP POP PUSH1 0x80 DUP4 ADD MLOAD PUSH2 0x1926 PUSH1 0x80 DUP7 ADD DUP3 PUSH2 0x1717 JUMP JUMPDEST POP PUSH1 0xA0 DUP4 ADD MLOAD PUSH2 0x1939 PUSH1 0xA0 DUP7 ADD DUP3 PUSH2 0x1717 JUMP JUMPDEST POP PUSH1 0xC0 DUP4 ADD MLOAD PUSH2 0x194C PUSH1 0xC0 DUP7 ADD DUP3 PUSH2 0x1717 JUMP JUMPDEST POP PUSH1 0xE0 DUP4 ADD MLOAD PUSH2 0x195F PUSH1 0xE0 DUP7 ADD DUP3 PUSH2 0x176E JUMP JUMPDEST POP PUSH2 0x100 DUP4 ADD MLOAD PUSH2 0x1974 PUSH2 0x100 DUP7 ADD DUP3 PUSH2 0x1717 JUMP JUMPDEST POP DUP1 SWAP2 POP POP SWAP3 SWAP2 POP POP JUMP JUMPDEST PUSH0 PUSH2 0x198A DUP4 DUP4 PUSH2 0x18AF JUMP JUMPDEST SWAP1 POP SWAP3 SWAP2 POP POP JUMP JUMPDEST PUSH0 PUSH1 0x20 DUP3 ADD SWAP1 POP SWAP2 SWAP1 POP JUMP JUMPDEST PUSH0 PUSH2 0x19A8 DUP3 PUSH2 0x1886 JUMP JUMPDEST PUSH2 0x19B2 DUP2 DUP6 PUSH2 0x1890 JUMP JUMPDEST SWAP4 POP DUP4 PUSH1 0x20 DUP3 MUL DUP6 ADD PUSH2 0x19C4 DUP6 PUSH2 0x18A0 JUMP JUMPDEST DUP1 PUSH0 JUMPDEST DUP6 DUP2 LT ISZERO PUSH2 0x19FF JUMPI DUP5 DUP5 SUB DUP10 MSTORE DUP2 MLOAD PUSH2 0x19E0 DUP6 DUP3 PUSH2 0x197F JUMP JUMPDEST SWAP5 POP PUSH2 0x19EB DUP4 PUSH2 0x1992 JUMP JUMPDEST SWAP3 POP PUSH1 0x20 DUP11 ADD SWAP10 POP POP PUSH1 0x1 DUP2 ADD SWAP1 POP PUSH2 0x19C7 JUMP JUMPDEST POP DUP3 SWAP8 POP DUP8 SWAP6 POP POP POP POP POP POP SWAP3 SWAP2 POP POP JUMP JUMPDEST PUSH0 PUSH1 0x20 DUP3 ADD SWAP1 POP DUP2 DUP2 SUB PUSH0 DUP4 ADD MSTORE PUSH2 0x1A29 DUP2 DUP5 PUSH2 0x199E JUMP JUMPDEST SWAP1 POP SWAP3 SWAP2 POP POP JUMP JUMPDEST PUSH0 PUSH0 PUSH1 0x40 DUP4 DUP6 SUB SLT ISZERO PUSH2 0x1A47 JUMPI PUSH2 0x1A46 PUSH2 0x1578 JUMP JUMPDEST JUMPDEST PUSH0 PUSH2 0x1A54 DUP6 DUP3 DUP7 ADD PUSH2 0x159F JUMP JUMPDEST SWAP3 POP POP PUSH1 0x20 PUSH2 0x1A65 DUP6 DUP3 DUP7 ADD PUSH2 0x159F JUMP JUMPDEST SWAP2 POP POP SWAP3 POP SWAP3 SWAP1 POP JUMP JUMPDEST PUSH0 PUSH2 0x1A79 DUP3 PUSH2 0x1517 JUMP JUMPDEST SWAP1 POP SWAP2 SWAP1 POP JUMP JUMPDEST PUSH2 0x1A89 DUP2 PUSH2 0x1A6F JUMP JUMPDEST DUP3 MSTORE POP POP JUMP JUMPDEST PUSH0 PUSH1 0x20 DUP3 ADD SWAP1 POP PUSH2 0x1AA2 PUSH0 DUP4 ADD DUP5 PUSH2 0x1A80 JUMP JUMPDEST SWAP3 SWAP2 POP POP JUMP JUMPDEST PUSH0 PUSH0 REVERT JUMPDEST PUSH0 PUSH0 REVERT JUMPDEST PUSH32 0x4E487B7100000000000000000000000000000000000000000000000000000000 PUSH0 MSTORE PUSH1 0x41 PUSH1 0x4 MSTORE PUSH1 0x24 PUSH0 REVERT JUMPDEST PUSH2 0x1AE6 DUP3 PUSH2 0x1615 JUMP JUMPDEST DUP2 ADD DUP2 DUP2 LT PUSH8 0xFFFFFFFFFFFFFFFF DUP3 GT OR ISZERO PUSH2 0x1B05 JUMPI PUSH2 0x1B04 PUSH2 0x1AB0 JUMP JUMPDEST JUMPDEST DUP1 PUSH1 0x40 MSTORE POP POP POP JUMP JUMPDEST PUSH0 PUSH2 0x1B17 PUSH2 0x156F JUMP JUMPDEST SWAP1 POP PUSH2 0x1B23 DUP3 DUP3 PUSH2 0x1ADD JUMP JUMPDEST SWAP2 SWAP1 POP JUMP JUMPDEST PUSH0 PUSH8 0xFFFFFFFFFFFFFFFF DUP3 GT ISZERO PUSH2 0x1B42 JUMPI PUSH2 0x1B41 PUSH2 0x1AB0 JUMP JUMPDEST JUMPDEST PUSH2 0x1B4B DUP3 PUSH2 0x1615 JUMP JUMPDEST SWAP1 POP PUSH1 0x20 DUP2 ADD SWAP1 POP SWAP2 SWAP1 POP JUMP JUMPDEST DUP3 DUP2 DUP4 CALLDATACOPY PUSH0 DUP4 DUP4 ADD MSTORE POP POP POP JUMP JUMPDEST PUSH0 PUSH2 0x1B78 PUSH2 0x1B73 DUP5 PUSH2 0x1B28 JUMP JUMPDEST PUSH2 0x1B0E JUMP JUMPDEST SWAP1 POP DUP3 DUP2 MSTORE PUSH1 0x20 DUP2 ADD DUP5 DUP5 DUP5 ADD GT ISZERO PUSH2 0x1B94 JUMPI PUSH2 0x1B93 PUSH2 0x1AAC JUMP JUMPDEST JUMPDEST PUSH2 0x1B9F DUP5 DUP3 DUP6 PUSH2 0x1B58 JUMP JUMPDEST POP SWAP4 SWAP3 POP POP POP JUMP JUMPDEST PUSH0 DUP3 PUSH1 0x1F DUP4 ADD SLT PUSH2 0x1BBB JUMPI PUSH2 0x1BBA PUSH2 0x1AA8 JUMP JUMPDEST JUMPDEST DUP2 CALLDATALOAD PUSH2 0x1BCB DUP5 DUP3 PUSH1 0x20 DUP7 ADD PUSH2 0x1B66 JUMP JUMPDEST SWAP2 POP POP SWAP3 SWAP2 POP POP JUMP JUMPDEST PUSH0 PUSH0 PUSH0 PUSH0 PUSH0 PUSH0 PUSH1 0xC0 DUP8 DUP10 SUB SLT ISZERO PUSH2 0x1BEE JUMPI PUSH2 0x1BED PUSH2 0x1578 JUMP JUMPDEST JUMPDEST PUSH0 DUP8 ADD CALLDATALOAD PUSH8 0xFFFFFFFFFFFFFFFF DUP2 GT ISZERO PUSH2 0x1C0B JUMPI PUSH2 0x1C0A PUSH2 0x157C JUMP JUMPDEST JUMPDEST PUSH2 0x1C17 DUP10 DUP3 DUP11 ADD PUSH2 0x1BA7 JUMP JUMPDEST SWAP7 POP POP PUSH1 0x20 DUP8 ADD CALLDATALOAD PUSH8 0xFFFFFFFFFFFFFFFF DUP2 GT ISZERO PUSH2 0x1C38 JUMPI PUSH2 0x1C37 PUSH2 0x157C JUMP JUMPDEST JUMPDEST PUSH2 0x1C44 DUP10 DUP3 DUP11 ADD PUSH2 0x1BA7 JUMP JUMPDEST SWAP6 POP POP PUSH1 0x40 DUP8 ADD CALLDATALOAD PUSH8 0xFFFFFFFFFFFFFFFF DUP2 GT ISZERO PUSH2 0x1C65 JUMPI PUSH2 0x1C64 PUSH2 0x157C JUMP JUMPDEST JUMPDEST PUSH2 0x1C71 DUP10 DUP3 DUP11 ADD PUSH2 0x1BA7 JUMP JUMPDEST SWAP5 POP POP PUSH1 0x60 PUSH2 0x1C82 DUP10 DUP3 DUP11 ADD PUSH2 0x159F JUMP JUMPDEST SWAP4 POP POP PUSH1 0x80 PUSH2 0x1C93 DUP10 DUP3 DUP11 ADD PUSH2 0x159F JUMP JUMPDEST SWAP3 POP POP PUSH1 0xA0 PUSH2 0x1CA4 DUP10 DUP3 DUP11 ADD PUSH2 0x159F JUMP JUMPDEST SWAP2 POP POP SWAP3 SWAP6 POP SWAP3 SWAP6 POP SWAP3 SWAP6 JUMP JUMPDEST PUSH0 DUP2 SWAP1 POP SWAP2 SWAP1 POP JUMP JUMPDEST PUSH0 PUSH2 0x1CD4 PUSH2 0x1CCF PUSH2 0x1CCA DUP5 PUSH2 0x1517 JUMP JUMPDEST PUSH2 0x1CB1 JUMP JUMPDEST PUSH2 0x1517 JUMP JUMPDEST SWAP1 POP SWAP2 SWAP1 POP JUMP JUMPDEST PUSH0 PUSH2 0x1CE5 DUP3 PUSH2 0x1CBA JUMP JUMPDEST SWAP1 POP SWAP2 SWAP1 POP JUMP JUMPDEST PUSH0 PUSH2 0x1CF6 DUP3 PUSH2 0x1CDB JUMP JUMPDEST SWAP1 POP SWAP2 SWAP1 POP JUMP JUMPDEST PUSH2 0x1D06 DUP2 PUSH2 0x1CEC JUMP JUMPDEST DUP3 MSTORE POP POP JUMP JUMPDEST PUSH0 PUSH1 0x20 DUP3 ADD SWAP1 POP PUSH2 0x1D1F PUSH0 DUP4 ADD DUP5 PUSH2 0x1CFD JUMP JUMPDEST SWAP3 SWAP2 POP POP JUMP JUMPDEST PUSH32 0x4E487B7100000000000000000000000000000000000000000000000000000000 PUSH0 MSTORE PUSH1 0x22 PUSH1 0x4 MSTORE PUSH1 0x24 PUSH0 REVERT JUMPDEST PUSH0 PUSH1 0x2 DUP3 DIV SWAP1 POP PUSH1 0x1 DUP3 AND DUP1 PUSH2 0x1D69 JUMPI PUSH1 0x7F DUP3 AND SWAP2 POP JUMPDEST PUSH1 0x20 DUP3 LT DUP2 SUB PUSH2 0x1D7C JUMPI PUSH2 0x1D7B PUSH2 0x1D25 JUMP JUMPDEST JUMPDEST POP SWAP2 SWAP1 POP JUMP JUMPDEST PUSH32 0x426F6F6B206E6F7420666F756E64000000000000000000000000000000000000 PUSH0 DUP3 ADD MSTORE POP JUMP JUMPDEST PUSH0 PUSH2 0x1DB6 PUSH1 0xE DUP4 PUSH2 0x15F7 JUMP JUMPDEST SWAP2 POP PUSH2 0x1DC1 DUP3 PUSH2 0x1D82 JUMP JUMPDEST PUSH1 0x20 DUP3 ADD SWAP1 POP SWAP2 SWAP1 POP JUMP JUMPDEST PUSH0 PUSH1 0x20 DUP3 ADD SWAP1 POP DUP2 DUP2 SUB PUSH0 DUP4 ADD MSTORE PUSH2 0x1DE3 DUP2 PUSH2 0x1DAA JUMP JUMPDEST SWAP1 POP SWAP2 SWAP1 POP JUMP JUMPDEST PUSH32 0x426F6F6B206E6F7420617661696C61626C652100000000000000000000000000 PUSH0 DUP3 ADD MSTORE POP JUMP JUMPDEST PUSH0 PUSH2 0x1E1E PUSH1 0x13 DUP4 PUSH2 0x15F7 JUMP JUMPDEST SWAP2 POP PUSH2 0x1E29 DUP3 PUSH2 0x1DEA JUMP JUMPDEST PUSH1 0x20 DUP3 ADD SWAP1 POP SWAP2 SWAP1 POP JUMP JUMPDEST PUSH0 PUSH1 0x20 DUP3 ADD SWAP1 POP DUP2 DUP2 SUB PUSH0 DUP4 ADD MSTORE PUSH2 0x1E4B DUP2 PUSH2 0x1E12 JUMP JUMPDEST SWAP1 POP SWAP2 SWAP1 POP JUMP JUMPDEST PUSH2 0x1E5B DUP2 PUSH2 0x165D JUMP JUMPDEST DUP2 EQ PUSH2 0x1E65 JUMPI PUSH0 PUSH0 REVERT JUMPDEST POP JUMP JUMPDEST PUSH0 DUP2 MLOAD SWAP1 POP PUSH2 0x1E76 DUP2 PUSH2 0x1E52 JUMP JUMPDEST SWAP3 SWAP2 POP POP JUMP JUMPDEST PUSH0 PUSH1 0x20 DUP3 DUP5 SUB SLT ISZERO PUSH2 0x1E91 JUMPI PUSH2 0x1E90 PUSH2 0x1578 JUMP JUMPDEST JUMPDEST PUSH0 PUSH2 0x1E9E DUP5 DUP3 DUP6 ADD PUSH2 0x1E68 JUMP JUMPDEST SWAP2 POP POP SWAP3 SWAP2 POP POP JUMP JUMPDEST PUSH32 0x4E6F7420656E6F756768204554482073656E7400000000000000000000000000 PUSH0 DUP3 ADD MSTORE POP JUMP JUMPDEST PUSH0 PUSH2 0x1EDB PUSH1 0x13 DUP4 PUSH2 0x15F7 JUMP JUMPDEST SWAP2 POP PUSH2 0x1EE6 DUP3 PUSH2 0x1EA7 JUMP JUMPDEST PUSH1 0x20 DUP3 ADD SWAP1 POP SWAP2 SWAP1 POP JUMP JUMPDEST PUSH0 PUSH1 0x20 DUP3 ADD SWAP1 POP DUP2 DUP2 SUB PUSH0 DUP4 ADD MSTORE PUSH2 0x1F08 DUP2 PUSH2 0x1ECF JUMP JUMPDEST SWAP1 POP SWAP2 SWAP1 POP JUMP JUMPDEST PUSH32 0x4E487B7100000000000000000000000000000000000000000000000000000000 PUSH0 MSTORE PUSH1 0x11 PUSH1 0x4 MSTORE PUSH1 0x24 PUSH0 REVERT JUMPDEST PUSH0 PUSH2 0x1F46 DUP3 PUSH2 0x1580 JUMP JUMPDEST SWAP2 POP PUSH2 0x1F51 DUP4 PUSH2 0x1580 JUMP JUMPDEST SWAP3 POP DUP3 DUP3 SUB SWAP1 POP DUP2 DUP2 GT ISZERO PUSH2 0x1F69 JUMPI PUSH2 0x1F68 PUSH2 0x1F0F JUMP JUMPDEST JUMPDEST SWAP3 SWAP2 POP POP JUMP JUMPDEST PUSH0 DUP2 SWAP1 POP SWAP3 SWAP2 POP POP JUMP JUMPDEST POP JUMP JUMPDEST PUSH0 PUSH2 0x1F87 PUSH0 DUP4 PUSH2 0x1F6F JUMP JUMPDEST SWAP2 POP PUSH2 0x1F92 DUP3 PUSH2 0x1F79 JUMP JUMPDEST PUSH0 DUP3 ADD SWAP1 POP SWAP2 SWAP1 POP JUMP JUMPDEST PUSH0 PUSH2 0x1FA6 DUP3 PUSH2 0x1F7C JUMP JUMPDEST SWAP2 POP DUP2 SWAP1 POP SWAP2 SWAP1 POP JUMP JUMPDEST PUSH32 0x4661696C656420746F2073656E642045544820746F206C696272617279000000 PUSH0 DUP3 ADD MSTORE POP JUMP JUMPDEST PUSH0 PUSH2 0x1FE4 PUSH1 0x1D DUP4 PUSH2 0x15F7 JUMP JUMPDEST SWAP2 POP PUSH2 0x1FEF DUP3 PUSH2 0x1FB0 JUMP JUMPDEST PUSH1 0x20 DUP3 ADD SWAP1 POP SWAP2 SWAP1 POP JUMP JUMPDEST PUSH0 PUSH1 0x20 DUP3 ADD SWAP1 POP DUP2 DUP2 SUB PUSH0 DUP4 ADD MSTORE PUSH2 0x2011 DUP2 PUSH2 0x1FD8 JUMP JUMPDEST SWAP1 POP SWAP2 SWAP1 POP JUMP JUMPDEST PUSH32 0x4661696C656420746F20726566756E6420657863657373204554480000000000 PUSH0 DUP3 ADD MSTORE POP JUMP JUMPDEST PUSH0 PUSH2 0x204C PUSH1 0x1B DUP4 PUSH2 0x15F7 JUMP JUMPDEST SWAP2 POP PUSH2 0x2057 DUP3 PUSH2 0x2018 JUMP JUMPDEST PUSH1 0x20 DUP3 ADD SWAP1 POP SWAP2 SWAP1 POP JUMP JUMPDEST PUSH0 PUSH1 0x20 DUP3 ADD SWAP1 POP DUP2 DUP2 SUB PUSH0 DUP4 ADD MSTORE PUSH2 0x2079 DUP2 PUSH2 0x2040 JUMP JUMPDEST SWAP1 POP SWAP2 SWAP1 POP JUMP JUMPDEST PUSH32 0x5469746C652063616E6E6F7420626520656D7074792100000000000000000000 PUSH0 DUP3 ADD MSTORE POP JUMP JUMPDEST PUSH0 PUSH2 0x20B4 PUSH1 0x16 DUP4 PUSH2 0x15F7 JUMP JUMPDEST SWAP2 POP PUSH2 0x20BF DUP3 PUSH2 0x2080 JUMP JUMPDEST PUSH1 0x20 DUP3 ADD SWAP1 POP SWAP2 SWAP1 POP JUMP JUMPDEST PUSH0 PUSH1 0x20 DUP3 ADD SWAP1 POP DUP2 DUP2 SUB PUSH0 DUP4 ADD MSTORE PUSH2 0x20E1 DUP2 PUSH2 0x20A8 JUMP JUMPDEST SWAP1 POP SWAP2 SWAP1 POP JUMP JUMPDEST PUSH32 0x417574686F722063616E6E6F7420626520656D70747921000000000000000000 PUSH0 DUP3 ADD MSTORE POP JUMP JUMPDEST PUSH0 PUSH2 0x211C PUSH1 0x17 DUP4 PUSH2 0x15F7 JUMP JUMPDEST SWAP2 POP PUSH2 0x2127 DUP3 PUSH2 0x20E8 JUMP JUMPDEST PUSH1 0x20 DUP3 ADD SWAP1 POP SWAP2 SWAP1 POP JUMP JUMPDEST PUSH0 PUSH1 0x20 DUP3 ADD SWAP1 POP DUP2 DUP2 SUB PUSH0 DUP4 ADD MSTORE PUSH2 0x2149 DUP2 PUSH2 0x2110 JUMP JUMPDEST SWAP1 POP SWAP2 SWAP1 POP JUMP JUMPDEST PUSH32 0x47656E72652063616E6E6F7420626520656D7074792100000000000000000000 PUSH0 DUP3 ADD MSTORE POP JUMP JUMPDEST PUSH0 PUSH2 0x2184 PUSH1 0x16 DUP4 PUSH2 0x15F7 JUMP JUMPDEST SWAP2 POP PUSH2 0x218F DUP3 PUSH2 0x2150 JUMP JUMPDEST PUSH1 0x20 DUP3 ADD SWAP1 POP SWAP2 SWAP1 POP JUMP JUMPDEST PUSH0 PUSH1 0x20 DUP3 ADD SWAP1 POP DUP2 DUP2 SUB PUSH0 DUP4 ADD MSTORE PUSH2 0x21B1 DUP2 PUSH2 0x2178 JUMP JUMPDEST SWAP1 POP SWAP2 SWAP1 POP JUMP JUMPDEST PUSH32 0x5175616E74697479206D7573742062652067726561746572207468616E203000 PUSH0 DUP3 ADD MSTORE POP JUMP JUMPDEST PUSH0 PUSH2 0x21EC PUSH1 0x1F DUP4 PUSH2 0x15F7 JUMP JUMPDEST SWAP2 POP PUSH2 0x21F7 DUP3 PUSH2 0x21B8 JUMP JUMPDEST PUSH1 0x20 DUP3 ADD SWAP1 POP SWAP2 SWAP1 POP JUMP JUMPDEST PUSH0 PUSH1 0x20 DUP3 ADD SWAP1 POP DUP2 DUP2 SUB PUSH0 DUP4 ADD MSTORE PUSH2 0x2219 DUP2 PUSH2 0x21E0 JUMP JUMPDEST SWAP1 POP SWAP2 SWAP1 POP JUMP JUMPDEST PUSH32 0x5072696365206D7573742062652067726561746572207468616E203000000000 PUSH0 DUP3 ADD MSTORE POP JUMP JUMPDEST PUSH0 PUSH2 0x2254 PUSH1 0x1C DUP4 PUSH2 0x15F7 JUMP JUMPDEST SWAP2 POP PUSH2 0x225F DUP3 PUSH2 0x2220 JUMP JUMPDEST PUSH1 0x20 DUP3 ADD SWAP1 POP SWAP2 SWAP1 POP JUMP JUMPDEST PUSH0 PUSH1 0x20 DUP3 ADD SWAP1 POP DUP2 DUP2 SUB PUSH0 DUP4 ADD MSTORE PUSH2 0x2281 DUP2 PUSH2 0x2248 JUMP JUMPDEST SWAP1 POP SWAP2 SWAP1 POP JUMP JUMPDEST PUSH0 DUP2 SWAP1 POP SWAP3 SWAP2 POP POP JUMP JUMPDEST PUSH0 PUSH2 0x229C DUP3 PUSH2 0x15ED JUMP JUMPDEST PUSH2 0x22A6 DUP2 DUP6 PUSH2 0x2288 JUMP JUMPDEST SWAP4 POP PUSH2 0x22B6 DUP2 DUP6 PUSH1 0x20 DUP7 ADD PUSH2 0x1607 JUMP JUMPDEST DUP1 DUP5 ADD SWAP2 POP POP SWAP3 SWAP2 POP POP JUMP JUMPDEST PUSH0 PUSH2 0x22CD DUP3 DUP6 PUSH2 0x2292 JUMP JUMPDEST SWAP2 POP PUSH2 0x22D9 DUP3 DUP5 PUSH2 0x2292 JUMP JUMPDEST SWAP2 POP DUP2 SWAP1 POP SWAP4 SWAP3 POP POP POP JUMP JUMPDEST PUSH32 0x5468697320626F6F6B206279207468697320617574686F7220616C7265616479 PUSH0 DUP3 ADD MSTORE PUSH32 0x2065786973747321000000000000000000000000000000000000000000000000 PUSH1 0x20 DUP3 ADD MSTORE POP JUMP JUMPDEST PUSH0 PUSH2 0x233F PUSH1 0x28 DUP4 PUSH2 0x15F7 JUMP JUMPDEST SWAP2 POP PUSH2 0x234A DUP3 PUSH2 0x22E5 JUMP JUMPDEST PUSH1 0x40 DUP3 ADD SWAP1 POP SWAP2 SWAP1 POP JUMP JUMPDEST PUSH0 PUSH1 0x20 DUP3 ADD SWAP1 POP DUP2 DUP2 SUB PUSH0 DUP4 ADD MSTORE PUSH2 0x236C DUP2 PUSH2 0x2333 JUMP JUMPDEST SWAP1 POP SWAP2 SWAP1 POP JUMP JUMPDEST PUSH0 PUSH2 0x237D DUP3 PUSH2 0x1580 JUMP JUMPDEST SWAP2 POP PUSH2 0x2388 DUP4 PUSH2 0x1580 JUMP JUMPDEST SWAP3 POP DUP3 DUP3 ADD SWAP1 POP DUP1 DUP3 GT ISZERO PUSH2 0x23A0 JUMPI PUSH2 0x239F PUSH2 0x1F0F JUMP JUMPDEST JUMPDEST SWAP3 SWAP2 POP POP JUMP JUMPDEST PUSH0 DUP2 SWAP1 POP DUP2 PUSH0 MSTORE PUSH1 0x20 PUSH0 KECCAK256 SWAP1 POP SWAP2 SWAP1 POP JUMP JUMPDEST PUSH0 PUSH1 0x20 PUSH1 0x1F DUP4 ADD DIV SWAP1 POP SWAP2 SWAP1 POP JUMP JUMPDEST PUSH0 DUP3 DUP3 SHL SWAP1 POP SWAP3 SWAP2 POP POP JUMP JUMPDEST PUSH0 PUSH1 0x8 DUP4 MUL PUSH2 0x2402 PUSH32 0xFFFFFFFFFFFFFFFFFFFFFFFFFFFFFFFFFFFFFFFFFFFFFFFFFFFFFFFFFFFFFFFF DUP3 PUSH2 0x23C7 JUMP JUMPDEST PUSH2 0x240C DUP7 DUP4 PUSH2 0x23C7 JUMP JUMPDEST SWAP6 POP DUP1 NOT DUP5 AND SWAP4 POP DUP1 DUP7 AND DUP5 OR SWAP3 POP POP POP SWAP4 SWAP3 POP POP POP JUMP JUMPDEST PUSH0 PUSH2 0x243E PUSH2 0x2439 PUSH2 0x2434 DUP5 PUSH2 0x1580 JUMP JUMPDEST PUSH2 0x1CB1 JUMP JUMPDEST PUSH2 0x1580 JUMP JUMPDEST SWAP1 POP SWAP2 SWAP1 POP JUMP JUMPDEST PUSH0 DUP2 SWAP1 POP SWAP2 SWAP1 POP JUMP JUMPDEST PUSH2 0x2457 DUP4 PUSH2 0x2424 JUMP JUMPDEST PUSH2 0x246B PUSH2 0x2463 DUP3 PUSH2 0x2445 JUMP JUMPDEST DUP5 DUP5 SLOAD PUSH2 0x23D3 JUMP JUMPDEST DUP3 SSTORE POP POP POP POP JUMP JUMPDEST PUSH0 PUSH0 SWAP1 POP SWAP1 JUMP JUMPDEST PUSH2 0x2482 PUSH2 0x2473 JUMP JUMPDEST PUSH2 0x248D DUP2 DUP5 DUP5 PUSH2 0x244E JUMP JUMPDEST POP POP POP JUMP JUMPDEST JUMPDEST DUP2 DUP2 LT ISZERO PUSH2 0x24B0 JUMPI PUSH2 0x24A5 PUSH0 DUP3 PUSH2 0x247A JUMP JUMPDEST PUSH1 0x1 DUP2 ADD SWAP1 POP PUSH2 0x2493 JUMP JUMPDEST POP POP JUMP JUMPDEST PUSH1 0x1F DUP3 GT ISZERO PUSH2 0x24F5 JUMPI PUSH2 0x24C6 DUP2 PUSH2 0x23A6 JUMP JUMPDEST PUSH2 0x24CF DUP5 PUSH2 0x23B8 JUMP JUMPDEST DUP2 ADD PUSH1 0x20 DUP6 LT ISZERO PUSH2 0x24DE JUMPI DUP2 SWAP1 POP JUMPDEST PUSH2 0x24F2 PUSH2 0x24EA DUP6 PUSH2 0x23B8 JUMP JUMPDEST DUP4 ADD DUP3 PUSH2 0x2492 JUMP JUMPDEST POP POP JUMPDEST POP POP POP JUMP JUMPDEST PUSH0 DUP3 DUP3 SHR SWAP1 POP SWAP3 SWAP2 POP POP JUMP JUMPDEST PUSH0 PUSH2 0x2515 PUSH0 NOT DUP5 PUSH1 0x8 MUL PUSH2 0x24FA JUMP JUMPDEST NOT DUP1 DUP4 AND SWAP2 POP POP SWAP3 SWAP2 POP POP JUMP JUMPDEST PUSH0 PUSH2 0x252D DUP4 DUP4 PUSH2 0x2506 JUMP JUMPDEST SWAP2 POP DUP3 PUSH1 0x2 MUL DUP3 OR SWAP1 POP SWAP3 SWAP2 POP POP JUMP JUMPDEST PUSH2 0x2546 DUP3 PUSH2 0x15ED JUMP JUMPDEST PUSH8 0xFFFFFFFFFFFFFFFF DUP2 GT ISZERO PUSH2 0x255F JUMPI PUSH2 0x255E PUSH2 0x1AB0 JUMP JUMPDEST JUMPDEST PUSH2 0x2569 DUP3 SLOAD PUSH2 0x1D52 JUMP JUMPDEST PUSH2 0x2574 DUP3 DUP3 DUP6 PUSH2 0x24B4 JUMP JUMPDEST PUSH0 PUSH1 0x20 SWAP1 POP PUSH1 0x1F DUP4 GT PUSH1 0x1 DUP2 EQ PUSH2 0x25A5 JUMPI PUSH0 DUP5 ISZERO PUSH2 0x2593 JUMPI DUP3 DUP8 ADD MLOAD SWAP1 POP JUMPDEST PUSH2 0x259D DUP6 DUP3 PUSH2 0x2522 JUMP JUMPDEST DUP7 SSTORE POP PUSH2 0x2604 JUMP JUMPDEST PUSH1 0x1F NOT DUP5 AND PUSH2 0x25B3 DUP7 PUSH2 0x23A6 JUMP JUMPDEST PUSH0 JUMPDEST DUP3 DUP2 LT ISZERO PUSH2 0x25DA JUMPI DUP5 DUP10 ADD MLOAD DUP3 SSTORE PUSH1 0x1 DUP3 ADD SWAP2 POP PUSH1 0x20 DUP6 ADD SWAP5 POP PUSH1 0x20 DUP2 ADD SWAP1 POP PUSH2 0x25B5 JUMP JUMPDEST DUP7 DUP4 LT ISZERO PUSH2 0x25F7 JUMPI DUP5 DUP10 ADD MLOAD PUSH2 0x25F3 PUSH1 0x1F DUP10 AND DUP3 PUSH2 0x2506 JUMP JUMPDEST DUP4 SSTORE POP JUMPDEST PUSH1 0x1 PUSH1 0x2 DUP9 MUL ADD DUP9 SSTORE POP POP POP JUMPDEST POP POP POP POP POP POP JUMP JUMPDEST PUSH0 DUP2 SLOAD SWAP1 POP PUSH2 0x261A DUP2 PUSH2 0x1D52 JUMP JUMPDEST SWAP1 POP SWAP2 SWAP1 POP JUMP JUMPDEST DUP2 DUP2 SUB PUSH2 0x262F JUMPI POP POP PUSH2 0x2704 JUMP JUMPDEST PUSH2 0x2638 DUP3 PUSH2 0x260C JUMP JUMPDEST PUSH8 0xFFFFFFFFFFFFFFFF DUP2 GT ISZERO PUSH2 0x2651 JUMPI PUSH2 0x2650 PUSH2 0x1AB0 JUMP JUMPDEST JUMPDEST PUSH2 0x265B DUP3 SLOAD PUSH2 0x1D52 JUMP JUMPDEST PUSH2 0x2666 DUP3 DUP3 DUP6 PUSH2 0x24B4 JUMP JUMPDEST PUSH0 PUSH1 0x1F DUP4 GT PUSH1 0x1 DUP2 EQ PUSH2 0x2693 JUMPI PUSH0 DUP5 ISZERO PUSH2 0x2681 JUMPI DUP3 DUP8 ADD SLOAD SWAP1 POP JUMPDEST PUSH2 0x268B DUP6 DUP3 PUSH2 0x2522 JUMP JUMPDEST DUP7 SSTORE POP PUSH2 0x26FD JUMP JUMPDEST PUSH1 0x1F NOT DUP5 AND PUSH2 0x26A1 DUP8 PUSH2 0x23A6 JUMP JUMPDEST SWAP7 POP PUSH2 0x26AC DUP7 PUSH2 0x23A6 JUMP JUMPDEST PUSH0 JUMPDEST DUP3 DUP2 LT ISZERO PUSH2 0x26D3 JUMPI DUP5 DUP10 ADD SLOAD DUP3 SSTORE PUSH1 0x1 DUP3 ADD SWAP2 POP PUSH1 0x1 DUP6 ADD SWAP5 POP PUSH1 0x20 DUP2 ADD SWAP1 POP PUSH2 0x26AE JUMP JUMPDEST DUP7 DUP4 LT ISZERO PUSH2 0x26F0 JUMPI DUP5 DUP10 ADD SLOAD PUSH2 0x26EC PUSH1 0x1F DUP10 AND DUP3 PUSH2 0x2506 JUMP JUMPDEST DUP4 SSTORE POP JUMPDEST PUSH1 0x1 PUSH1 0x2 DUP9 MUL ADD DUP9 SSTORE POP POP POP JUMPDEST POP POP POP POP POP POP JUMPDEST JUMP INVALID LOG2 PUSH5 0x6970667358 0x22 SLT KECCAK256 PUSH16 0xBE0E81B1AB49DB93CFD9981330AE4681 PUSH27 0xA5C343FA58967E15FC82DF4CAF3964736F6C634300081F00330000 "
				},
				"gasEstimates": {
					"creation": {
						"codeDepositCost": "2008800",
						"executionCost": "infinite",
						"totalCost": "infinite"
					},
					"external": {
						"addBook(string,string,string,uint256,uint256,uint256)": "infinite",
						"bookIds(uint256)": "infinite",
						"books(uint256)": "infinite",
						"borrowBook(uint256)": "infinite",
						"borrowedHistory(uint256,uint256)": "infinite",
						"buyBook()": "142",
						"getBookById(uint256)": "infinite",
						"getBooks()": "infinite",
						"libraryAdmin()": "2509",
						"listOfBooks(uint256)": "infinite",
						"memberContract()": "infinite",
						"restock(uint256,uint256)": "infinite"
					}
				},
				"methodIdentifiers": {
					"addBook(string,string,string,uint256,uint256,uint256)": "a9d00e66",
					"bookIds(uint256)": "513073b8",
					"books(uint256)": "68744046",
					"borrowBook(uint256)": "7e490a9e",
					"borrowedHistory(uint256,uint256)": "a1ef3577",
					"buyBook()": "189a55e7",
					"getBookById(uint256)": "418b79ab",
					"getBooks()": "9f349789",
					"libraryAdmin()": "1792a6da",
					"listOfBooks(uint256)": "3088c00f",
					"memberContract()": "c40cf4eb",
					"restock(uint256,uint256)": "ddd5987f"
				}
			},
			"storageLayout": {
				"storage": [
					{
						"astId": 25,
						"contract": "Book.sol:BookContract",
						"label": "memberContract",
						"offset": 0,
						"slot": "0",
						"type": "t_contract(MemberContract)458"
					},
					{
						"astId": 27,
						"contract": "Book.sol:BookContract",
						"label": "libraryAdmin",
						"offset": 0,
						"slot": "1",
						"type": "t_address_payable"
					},
					{
						"astId": 31,
						"contract": "Book.sol:BookContract",
						"label": "listOfBooks",
						"offset": 0,
						"slot": "2",
						"type": "t_array(t_struct(Book)22_storage)dyn_storage"
					},
					{
						"astId": 34,
						"contract": "Book.sol:BookContract",
						"label": "bookIds",
						"offset": 0,
						"slot": "3",
						"type": "t_array(t_uint256)dyn_storage"
					},
					{
						"astId": 39,
						"contract": "Book.sol:BookContract",
						"label": "books",
						"offset": 0,
						"slot": "4",
						"type": "t_mapping(t_uint256,t_struct(Book)22_storage)"
					},
					{
						"astId": 43,
						"contract": "Book.sol:BookContract",
						"label": "bookExist",
						"offset": 0,
						"slot": "5",
						"type": "t_mapping(t_bytes32,t_bool)"
					},
					{
						"astId": 48,
						"contract": "Book.sol:BookContract",
						"label": "borrowedHistory",
						"offset": 0,
						"slot": "6",
						"type": "t_mapping(t_uint256,t_array(t_address)dyn_storage)"
					}
				],
				"types": {
					"t_address": {
						"encoding": "inplace",
						"label": "address",
						"numberOfBytes": "20"
					},
					"t_address_payable": {
						"encoding": "inplace",
						"label": "address payable",
						"numberOfBytes": "20"
					},
					"t_array(t_address)dyn_storage": {
						"base": "t_address",
						"encoding": "dynamic_array",
						"label": "address[]",
						"numberOfBytes": "32"
					},
					"t_array(t_struct(Book)22_storage)dyn_storage": {
						"base": "t_struct(Book)22_storage",
						"encoding": "dynamic_array",
						"label": "struct BookContract.Book[]",
						"numberOfBytes": "32"
					},
					"t_array(t_uint256)dyn_storage": {
						"base": "t_uint256",
						"encoding": "dynamic_array",
						"label": "uint256[]",
						"numberOfBytes": "32"
					},
					"t_bool": {
						"encoding": "inplace",
						"label": "bool",
						"numberOfBytes": "1"
					},
					"t_bytes32": {
						"encoding": "inplace",
						"label": "bytes32",
						"numberOfBytes": "32"
					},
					"t_contract(MemberContract)458": {
						"encoding": "inplace",
						"label": "contract MemberContract",
						"numberOfBytes": "20"
					},
					"t_mapping(t_bytes32,t_bool)": {
						"encoding": "mapping",
						"key": "t_bytes32",
						"label": "mapping(bytes32 => bool)",
						"numberOfBytes": "32",
						"value": "t_bool"
					},
					"t_mapping(t_uint256,t_array(t_address)dyn_storage)": {
						"encoding": "mapping",
						"key": "t_uint256",
						"label": "mapping(uint256 => address[])",
						"numberOfBytes": "32",
						"value": "t_array(t_address)dyn_storage"
					},
					"t_mapping(t_uint256,t_struct(Book)22_storage)": {
						"encoding": "mapping",
						"key": "t_uint256",
						"label": "mapping(uint256 => struct BookContract.Book)",
						"numberOfBytes": "32",
						"value": "t_struct(Book)22_storage"
					},
					"t_string_storage": {
						"encoding": "bytes",
						"label": "string",
						"numberOfBytes": "32"
					},
					"t_struct(Book)22_storage": {
						"encoding": "inplace",
						"label": "struct BookContract.Book",
						"members": [
							{
								"astId": 5,
								"contract": "Book.sol:BookContract",
								"label": "ID",
								"offset": 0,
								"slot": "0",
								"type": "t_uint256"
							},
							{
								"astId": 7,
								"contract": "Book.sol:BookContract",
								"label": "title",
								"offset": 0,
								"slot": "1",
								"type": "t_string_storage"
							},
							{
								"astId": 9,
								"contract": "Book.sol:BookContract",
								"label": "author",
								"offset": 0,
								"slot": "2",
								"type": "t_string_storage"
							},
							{
								"astId": 11,
								"contract": "Book.sol:BookContract",
								"label": "genre",
								"offset": 0,
								"slot": "3",
								"type": "t_string_storage"
							},
							{
								"astId": 13,
								"contract": "Book.sol:BookContract",
								"label": "quantity",
								"offset": 0,
								"slot": "4",
								"type": "t_uint256"
							},
							{
								"astId": 15,
								"contract": "Book.sol:BookContract",
								"label": "price",
								"offset": 0,
								"slot": "5",
								"type": "t_uint256"
							},
							{
								"astId": 17,
								"contract": "Book.sol:BookContract",
								"label": "borrowFee",
								"offset": 0,
								"slot": "6",
								"type": "t_uint256"
							},
							{
								"astId": 19,
								"contract": "Book.sol:BookContract",
								"label": "exists",
								"offset": 0,
								"slot": "7",
								"type": "t_bool"
							},
							{
								"astId": 21,
								"contract": "Book.sol:BookContract",
								"label": "date",
								"offset": 0,
								"slot": "8",
								"type": "t_uint256"
							}
						],
						"numberOfBytes": "288"
					},
					"t_uint256": {
						"encoding": "inplace",
						"label": "uint256",
						"numberOfBytes": "32"
					}
				}
			},
			"userdoc": {
				"kind": "user",
				"methods": {},
				"version": 1
			}
		}
	}
}