{
	"Book.sol": {
		"BookContract": {
			"abi": [
				{
					"inputs": [
						{
							"internalType": "string",
							"name": "_title",
							"type": "string"
						},
						{
							"internalType": "string",
							"name": "_author",
							"type": "string"
						},
						{
							"internalType": "string",
							"name": "_genre",
							"type": "string"
						}
					],
					"name": "addBook",
					"outputs": [],
					"stateMutability": "nonpayable",
					"type": "function"
				},
				{
					"inputs": [
						{
							"internalType": "uint256",
							"name": "",
							"type": "uint256"
						}
					],
					"name": "bookIds",
					"outputs": [
						{
							"internalType": "uint256",
							"name": "",
							"type": "uint256"
						}
					],
					"stateMutability": "view",
					"type": "function"
				},
				{
					"inputs": [
						{
							"internalType": "uint256",
							"name": "",
							"type": "uint256"
						}
					],
					"name": "books",
					"outputs": [
						{
							"internalType": "uint256",
							"name": "ID",
							"type": "uint256"
						},
						{
							"internalType": "string",
							"name": "title",
							"type": "string"
						},
						{
							"internalType": "string",
							"name": "author",
							"type": "string"
						},
						{
							"internalType": "string",
							"name": "genre",
							"type": "string"
						},
						{
							"internalType": "bool",
							"name": "available",
							"type": "bool"
						},
						{
							"internalType": "bool",
							"name": "exists",
							"type": "bool"
						},
						{
							"internalType": "uint256",
							"name": "date",
							"type": "uint256"
						}
					],
					"stateMutability": "view",
					"type": "function"
				},
				{
					"inputs": [
						{
							"internalType": "uint256",
							"name": "_ID",
							"type": "uint256"
						}
					],
					"name": "getBookById",
					"outputs": [
						{
							"components": [
								{
									"internalType": "uint256",
									"name": "ID",
									"type": "uint256"
								},
								{
									"internalType": "string",
									"name": "title",
									"type": "string"
								},
								{
									"internalType": "string",
									"name": "author",
									"type": "string"
								},
								{
									"internalType": "string",
									"name": "genre",
									"type": "string"
								},
								{
									"internalType": "bool",
									"name": "available",
									"type": "bool"
								},
								{
									"internalType": "bool",
									"name": "exists",
									"type": "bool"
								},
								{
									"internalType": "uint256",
									"name": "date",
									"type": "uint256"
								}
							],
							"internalType": "struct BookContract.Book",
							"name": "",
							"type": "tuple"
						}
					],
					"stateMutability": "view",
					"type": "function"
				},
				{
					"inputs": [
						{
							"internalType": "uint256",
							"name": "",
							"type": "uint256"
						}
					],
					"name": "listOfBooks",
					"outputs": [
						{
							"internalType": "uint256",
							"name": "ID",
							"type": "uint256"
						},
						{
							"internalType": "string",
							"name": "title",
							"type": "string"
						},
						{
							"internalType": "string",
							"name": "author",
							"type": "string"
						},
						{
							"internalType": "string",
							"name": "genre",
							"type": "string"
						},
						{
							"internalType": "bool",
							"name": "available",
							"type": "bool"
						},
						{
							"internalType": "bool",
							"name": "exists",
							"type": "bool"
						},
						{
							"internalType": "uint256",
							"name": "date",
							"type": "uint256"
						}
					],
					"stateMutability": "view",
					"type": "function"
				}
			],
			"devdoc": {
				"kind": "dev",
				"methods": {},
				"version": 1
			},
			"evm": {
				"assembly": "    /* \"Book.sol\":59:1454  contract BookContract {... */\n  mstore(0x40, 0x80)\n  callvalue\n  dup1\n  iszero\n  tag_1\n  jumpi\n  revert(0x00, 0x00)\ntag_1:\n  pop\n  dataSize(sub_0)\n  dup1\n  dataOffset(sub_0)\n  0x00\n  codecopy\n  0x00\n  return\nstop\n\nsub_0: assembly {\n        /* \"Book.sol\":59:1454  contract BookContract {... */\n      mstore(0x40, 0x80)\n      callvalue\n      dup1\n      iszero\n      tag_1\n      jumpi\n      revert(0x00, 0x00)\n    tag_1:\n      pop\n      jumpi(tag_2, lt(calldatasize, 0x04))\n      shr(0xe0, calldataload(0x00))\n      dup1\n      0x3088c00f\n      eq\n      tag_3\n      jumpi\n      dup1\n      0x418b79ab\n      eq\n      tag_4\n      jumpi\n      dup1\n      0x513073b8\n      eq\n      tag_5\n      jumpi\n      dup1\n      0x68744046\n      eq\n      tag_6\n      jumpi\n      dup1\n      0x69c46826\n      eq\n      tag_7\n      jumpi\n    tag_2:\n      revert(0x00, 0x00)\n        /* \"Book.sol\":266:291  Book[] public listOfBooks */\n    tag_3:\n      tag_8\n      0x04\n      dup1\n      calldatasize\n      sub\n      dup2\n      add\n      swap1\n      tag_9\n      swap2\n      swap1\n      tag_10\n      jump\t// in\n    tag_9:\n      tag_11\n      jump\t// in\n    tag_8:\n      mload(0x40)\n      tag_12\n      swap8\n      swap7\n      swap6\n      swap5\n      swap4\n      swap3\n      swap2\n      swap1\n      tag_13\n      jump\t// in\n    tag_12:\n      mload(0x40)\n      dup1\n      swap2\n      sub\n      swap1\n      return\n        /* \"Book.sol\":1295:1452  function getBookById(uint256 _ID)  public view returns (Book memory) {... */\n    tag_4:\n      tag_14\n      0x04\n      dup1\n      calldatasize\n      sub\n      dup2\n      add\n      swap1\n      tag_15\n      swap2\n      swap1\n      tag_10\n      jump\t// in\n    tag_15:\n      tag_16\n      jump\t// in\n    tag_14:\n      mload(0x40)\n      tag_17\n      swap2\n      swap1\n      tag_18\n      jump\t// in\n    tag_17:\n      mload(0x40)\n      dup1\n      swap2\n      sub\n      swap1\n      return\n        /* \"Book.sol\":297:321  uint256[] public bookIds */\n    tag_5:\n      tag_19\n      0x04\n      dup1\n      calldatasize\n      sub\n      dup2\n      add\n      swap1\n      tag_20\n      swap2\n      swap1\n      tag_10\n      jump\t// in\n    tag_20:\n      tag_21\n      jump\t// in\n    tag_19:\n      mload(0x40)\n      tag_22\n      swap2\n      swap1\n      tag_23\n      jump\t// in\n    tag_22:\n      mload(0x40)\n      dup1\n      swap2\n      sub\n      swap1\n      return\n        /* \"Book.sol\":327:364  mapping(uint256 => Book) public books */\n    tag_6:\n      tag_24\n      0x04\n      dup1\n      calldatasize\n      sub\n      dup2\n      add\n      swap1\n      tag_25\n      swap2\n      swap1\n      tag_10\n      jump\t// in\n    tag_25:\n      tag_26\n      jump\t// in\n    tag_24:\n      mload(0x40)\n      tag_27\n      swap8\n      swap7\n      swap6\n      swap5\n      swap4\n      swap3\n      swap2\n      swap1\n      tag_13\n      jump\t// in\n    tag_27:\n      mload(0x40)\n      dup1\n      swap2\n      sub\n      swap1\n      return\n        /* \"Book.sol\":481:1289  function addBook(... */\n    tag_7:\n      tag_28\n      0x04\n      dup1\n      calldatasize\n      sub\n      dup2\n      add\n      swap1\n      tag_29\n      swap2\n      swap1\n      tag_30\n      jump\t// in\n    tag_29:\n      tag_31\n      jump\t// in\n    tag_28:\n      stop\n        /* \"Book.sol\":266:291  Book[] public listOfBooks */\n    tag_11:\n      0x00\n      dup2\n      dup2\n      sload\n      dup2\n      lt\n      tag_32\n      jumpi\n      0x00\n      dup1\n      revert\n    tag_32:\n      swap1\n      0x00\n      mstore\n      keccak256(0x00, 0x20)\n      swap1\n      0x06\n      mul\n      add\n      0x00\n      swap2\n      pop\n      swap1\n      pop\n      dup1\n      0x00\n      add\n      sload\n      swap1\n      dup1\n      0x01\n      add\n      dup1\n      sload\n      tag_34\n      swap1\n      tag_35\n      jump\t// in\n    tag_34:\n      dup1\n      0x1f\n      add\n      0x20\n      dup1\n      swap2\n      div\n      mul\n      0x20\n      add\n      mload(0x40)\n      swap1\n      dup2\n      add\n      0x40\n      mstore\n      dup1\n      swap3\n      swap2\n      swap1\n      dup2\n      dup2\n      mstore\n      0x20\n      add\n      dup3\n      dup1\n      sload\n      tag_36\n      swap1\n      tag_35\n      jump\t// in\n    tag_36:\n      dup1\n      iszero\n      tag_37\n      jumpi\n      dup1\n      0x1f\n      lt\n      tag_38\n      jumpi\n      0x0100\n      dup1\n      dup4\n      sload\n      div\n      mul\n      dup4\n      mstore\n      swap2\n      0x20\n      add\n      swap2\n      jump(tag_37)\n    tag_38:\n      dup3\n      add\n      swap2\n      swap1\n      0x00\n      mstore\n      keccak256(0x00, 0x20)\n      swap1\n    tag_39:\n      dup2\n      sload\n      dup2\n      mstore\n      swap1\n      0x01\n      add\n      swap1\n      0x20\n      add\n      dup1\n      dup4\n      gt\n      tag_39\n      jumpi\n      dup3\n      swap1\n      sub\n      0x1f\n      and\n      dup3\n      add\n      swap2\n    tag_37:\n      pop\n      pop\n      pop\n      pop\n      pop\n      swap1\n      dup1\n      0x02\n      add\n      dup1\n      sload\n      tag_40\n      swap1\n      tag_35\n      jump\t// in\n    tag_40:\n      dup1\n      0x1f\n      add\n      0x20\n      dup1\n      swap2\n      div\n      mul\n      0x20\n      add\n      mload(0x40)\n      swap1\n      dup2\n      add\n      0x40\n      mstore\n      dup1\n      swap3\n      swap2\n      swap1\n      dup2\n      dup2\n      mstore\n      0x20\n      add\n      dup3\n      dup1\n      sload\n      tag_41\n      swap1\n      tag_35\n      jump\t// in\n    tag_41:\n      dup1\n      iszero\n      tag_42\n      jumpi\n      dup1\n      0x1f\n      lt\n      tag_43\n      jumpi\n      0x0100\n      dup1\n      dup4\n      sload\n      div\n      mul\n      dup4\n      mstore\n      swap2\n      0x20\n      add\n      swap2\n      jump(tag_42)\n    tag_43:\n      dup3\n      add\n      swap2\n      swap1\n      0x00\n      mstore\n      keccak256(0x00, 0x20)\n      swap1\n    tag_44:\n      dup2\n      sload\n      dup2\n      mstore\n      swap1\n      0x01\n      add\n      swap1\n      0x20\n      add\n      dup1\n      dup4\n      gt\n      tag_44\n      jumpi\n      dup3\n      swap1\n      sub\n      0x1f\n      and\n      dup3\n      add\n      swap2\n    tag_42:\n      pop\n      pop\n      pop\n      pop\n      pop\n      swap1\n      dup1\n      0x03\n      add\n      dup1\n      sload\n      tag_45\n      swap1\n      tag_35\n      jump\t// in\n    tag_45:\n      dup1\n      0x1f\n      add\n      0x20\n      dup1\n      swap2\n      div\n      mul\n      0x20\n      add\n      mload(0x40)\n      swap1\n      dup2\n      add\n      0x40\n      mstore\n      dup1\n      swap3\n      swap2\n      swap1\n      dup2\n      dup2\n      mstore\n      0x20\n      add\n      dup3\n      dup1\n      sload\n      tag_46\n      swap1\n      tag_35\n      jump\t// in\n    tag_46:\n      dup1\n      iszero\n      tag_47\n      jumpi\n      dup1\n      0x1f\n      lt\n      tag_48\n      jumpi\n      0x0100\n      dup1\n      dup4\n      sload\n      div\n      mul\n      dup4\n      mstore\n      swap2\n      0x20\n      add\n      swap2\n      jump(tag_47)\n    tag_48:\n      dup3\n      add\n      swap2\n      swap1\n      0x00\n      mstore\n      keccak256(0x00, 0x20)\n      swap1\n    tag_49:\n      dup2\n      sload\n      dup2\n      mstore\n      swap1\n      0x01\n      add\n      swap1\n      0x20\n      add\n      dup1\n      dup4\n      gt\n      tag_49\n      jumpi\n      dup3\n      swap1\n      sub\n      0x1f\n      and\n      dup3\n      add\n      swap2\n    tag_47:\n      pop\n      pop\n      pop\n      pop\n      pop\n      swap1\n      dup1\n      0x04\n      add\n      0x00\n      swap1\n      sload\n      swap1\n      0x0100\n      exp\n      swap1\n      div\n      0xff\n      and\n      swap1\n      dup1\n      0x04\n      add\n      0x01\n      swap1\n      sload\n      swap1\n      0x0100\n      exp\n      swap1\n      div\n      0xff\n      and\n      swap1\n      dup1\n      0x05\n      add\n      sload\n      swap1\n      pop\n      dup8\n      jump\t// out\n        /* \"Book.sol\":1295:1452  function getBookById(uint256 _ID)  public view returns (Book memory) {... */\n    tag_16:\n        /* \"Book.sol\":1351:1362  Book memory */\n      tag_50\n      tag_51\n      jump\t// in\n    tag_50:\n        /* \"Book.sol\":1382:1387  books */\n      0x02\n        /* \"Book.sol\":1382:1392  books[_ID] */\n      0x00\n        /* \"Book.sol\":1388:1391  _ID */\n      dup4\n        /* \"Book.sol\":1382:1392  books[_ID] */\n      dup2\n      mstore\n      0x20\n      add\n      swap1\n      dup2\n      mstore\n      0x20\n      add\n      0x00\n      keccak256\n        /* \"Book.sol\":1382:1399  books[_ID].exists */\n      0x04\n      add\n      0x01\n      swap1\n      sload\n      swap1\n      0x0100\n      exp\n      swap1\n      div\n      0xff\n      and\n        /* \"Book.sol\":1374:1418  require(books[_ID].exists, \"Book not found\") */\n      tag_53\n      jumpi\n      mload(0x40)\n      0x08c379a000000000000000000000000000000000000000000000000000000000\n      dup2\n      mstore\n      0x04\n      add\n      tag_54\n      swap1\n      tag_55\n      jump\t// in\n    tag_54:\n      mload(0x40)\n      dup1\n      swap2\n      sub\n      swap1\n      revert\n    tag_53:\n        /* \"Book.sol\":1435:1440  books */\n      0x02\n        /* \"Book.sol\":1435:1445  books[_ID] */\n      0x00\n        /* \"Book.sol\":1441:1444  _ID */\n      dup4\n        /* \"Book.sol\":1435:1445  books[_ID] */\n      dup2\n      mstore\n      0x20\n      add\n      swap1\n      dup2\n      mstore\n      0x20\n      add\n      0x00\n      keccak256\n        /* \"Book.sol\":1428:1445  return books[_ID] */\n      mload(0x40)\n      dup1\n      0xe0\n      add\n      0x40\n      mstore\n      swap1\n      dup2\n      0x00\n      dup3\n      add\n      sload\n      dup2\n      mstore\n      0x20\n      add\n      0x01\n      dup3\n      add\n      dup1\n      sload\n      tag_56\n      swap1\n      tag_35\n      jump\t// in\n    tag_56:\n      dup1\n      0x1f\n      add\n      0x20\n      dup1\n      swap2\n      div\n      mul\n      0x20\n      add\n      mload(0x40)\n      swap1\n      dup2\n      add\n      0x40\n      mstore\n      dup1\n      swap3\n      swap2\n      swap1\n      dup2\n      dup2\n      mstore\n      0x20\n      add\n      dup3\n      dup1\n      sload\n      tag_57\n      swap1\n      tag_35\n      jump\t// in\n    tag_57:\n      dup1\n      iszero\n      tag_58\n      jumpi\n      dup1\n      0x1f\n      lt\n      tag_59\n      jumpi\n      0x0100\n      dup1\n      dup4\n      sload\n      div\n      mul\n      dup4\n      mstore\n      swap2\n      0x20\n      add\n      swap2\n      jump(tag_58)\n    tag_59:\n      dup3\n      add\n      swap2\n      swap1\n      0x00\n      mstore\n      keccak256(0x00, 0x20)\n      swap1\n    tag_60:\n      dup2\n      sload\n      dup2\n      mstore\n      swap1\n      0x01\n      add\n      swap1\n      0x20\n      add\n      dup1\n      dup4\n      gt\n      tag_60\n      jumpi\n      dup3\n      swap1\n      sub\n      0x1f\n      and\n      dup3\n      add\n      swap2\n    tag_58:\n      pop\n      pop\n      pop\n      pop\n      pop\n      dup2\n      mstore\n      0x20\n      add\n      0x02\n      dup3\n      add\n      dup1\n      sload\n      tag_61\n      swap1\n      tag_35\n      jump\t// in\n    tag_61:\n      dup1\n      0x1f\n      add\n      0x20\n      dup1\n      swap2\n      div\n      mul\n      0x20\n      add\n      mload(0x40)\n      swap1\n      dup2\n      add\n      0x40\n      mstore\n      dup1\n      swap3\n      swap2\n      swap1\n      dup2\n      dup2\n      mstore\n      0x20\n      add\n      dup3\n      dup1\n      sload\n      tag_62\n      swap1\n      tag_35\n      jump\t// in\n    tag_62:\n      dup1\n      iszero\n      tag_63\n      jumpi\n      dup1\n      0x1f\n      lt\n      tag_64\n      jumpi\n      0x0100\n      dup1\n      dup4\n      sload\n      div\n      mul\n      dup4\n      mstore\n      swap2\n      0x20\n      add\n      swap2\n      jump(tag_63)\n    tag_64:\n      dup3\n      add\n      swap2\n      swap1\n      0x00\n      mstore\n      keccak256(0x00, 0x20)\n      swap1\n    tag_65:\n      dup2\n      sload\n      dup2\n      mstore\n      swap1\n      0x01\n      add\n      swap1\n      0x20\n      add\n      dup1\n      dup4\n      gt\n      tag_65\n      jumpi\n      dup3\n      swap1\n      sub\n      0x1f\n      and\n      dup3\n      add\n      swap2\n    tag_63:\n      pop\n      pop\n      pop\n      pop\n      pop\n      dup2\n      mstore\n      0x20\n      add\n      0x03\n      dup3\n      add\n      dup1\n      sload\n      tag_66\n      swap1\n      tag_35\n      jump\t// in\n    tag_66:\n      dup1\n      0x1f\n      add\n      0x20\n      dup1\n      swap2\n      div\n      mul\n      0x20\n      add\n      mload(0x40)\n      swap1\n      dup2\n      add\n      0x40\n      mstore\n      dup1\n      swap3\n      swap2\n      swap1\n      dup2\n      dup2\n      mstore\n      0x20\n      add\n      dup3\n      dup1\n      sload\n      tag_67\n      swap1\n      tag_35\n      jump\t// in\n    tag_67:\n      dup1\n      iszero\n      tag_68\n      jumpi\n      dup1\n      0x1f\n      lt\n      tag_69\n      jumpi\n      0x0100\n      dup1\n      dup4\n      sload\n      div\n      mul\n      dup4\n      mstore\n      swap2\n      0x20\n      add\n      swap2\n      jump(tag_68)\n    tag_69:\n      dup3\n      add\n      swap2\n      swap1\n      0x00\n      mstore\n      keccak256(0x00, 0x20)\n      swap1\n    tag_70:\n      dup2\n      sload\n      dup2\n      mstore\n      swap1\n      0x01\n      add\n      swap1\n      0x20\n      add\n      dup1\n      dup4\n      gt\n      tag_70\n      jumpi\n      dup3\n      swap1\n      sub\n      0x1f\n      and\n      dup3\n      add\n      swap2\n    tag_68:\n      pop\n      pop\n      pop\n      pop\n      pop\n      dup2\n      mstore\n      0x20\n      add\n      0x04\n      dup3\n      add\n      0x00\n      swap1\n      sload\n      swap1\n      0x0100\n      exp\n      swap1\n      div\n      0xff\n      and\n      iszero\n      iszero\n      iszero\n      iszero\n      dup2\n      mstore\n      0x20\n      add\n      0x04\n      dup3\n      add\n      0x01\n      swap1\n      sload\n      swap1\n      0x0100\n      exp\n      swap1\n      div\n      0xff\n      and\n      iszero\n      iszero\n      iszero\n      iszero\n      dup2\n      mstore\n      0x20\n      add\n      0x05\n      dup3\n      add\n      sload\n      dup2\n      mstore\n      pop\n      pop\n      swap1\n      pop\n        /* \"Book.sol\":1295:1452  function getBookById(uint256 _ID)  public view returns (Book memory) {... */\n      swap2\n      swap1\n      pop\n      jump\t// out\n        /* \"Book.sol\":297:321  uint256[] public bookIds */\n    tag_21:\n      0x01\n      dup2\n      dup2\n      sload\n      dup2\n      lt\n      tag_71\n      jumpi\n      0x00\n      dup1\n      revert\n    tag_71:\n      swap1\n      0x00\n      mstore\n      keccak256(0x00, 0x20)\n      add\n      0x00\n      swap2\n      pop\n      swap1\n      pop\n      sload\n      dup2\n      jump\t// out\n        /* \"Book.sol\":327:364  mapping(uint256 => Book) public books */\n    tag_26:\n      mstore(0x20, 0x02)\n      dup1\n      0x00\n      mstore\n      keccak256(0x00, 0x40)\n      0x00\n      swap2\n      pop\n      swap1\n      pop\n      dup1\n      0x00\n      add\n      sload\n      swap1\n      dup1\n      0x01\n      add\n      dup1\n      sload\n      tag_73\n      swap1\n      tag_35\n      jump\t// in\n    tag_73:\n      dup1\n      0x1f\n      add\n      0x20\n      dup1\n      swap2\n      div\n      mul\n      0x20\n      add\n      mload(0x40)\n      swap1\n      dup2\n      add\n      0x40\n      mstore\n      dup1\n      swap3\n      swap2\n      swap1\n      dup2\n      dup2\n      mstore\n      0x20\n      add\n      dup3\n      dup1\n      sload\n      tag_74\n      swap1\n      tag_35\n      jump\t// in\n    tag_74:\n      dup1\n      iszero\n      tag_75\n      jumpi\n      dup1\n      0x1f\n      lt\n      tag_76\n      jumpi\n      0x0100\n      dup1\n      dup4\n      sload\n      div\n      mul\n      dup4\n      mstore\n      swap2\n      0x20\n      add\n      swap2\n      jump(tag_75)\n    tag_76:\n      dup3\n      add\n      swap2\n      swap1\n      0x00\n      mstore\n      keccak256(0x00, 0x20)\n      swap1\n    tag_77:\n      dup2\n      sload\n      dup2\n      mstore\n      swap1\n      0x01\n      add\n      swap1\n      0x20\n      add\n      dup1\n      dup4\n      gt\n      tag_77\n      jumpi\n      dup3\n      swap1\n      sub\n      0x1f\n      and\n      dup3\n      add\n      swap2\n    tag_75:\n      pop\n      pop\n      pop\n      pop\n      pop\n      swap1\n      dup1\n      0x02\n      add\n      dup1\n      sload\n      tag_78\n      swap1\n      tag_35\n      jump\t// in\n    tag_78:\n      dup1\n      0x1f\n      add\n      0x20\n      dup1\n      swap2\n      div\n      mul\n      0x20\n      add\n      mload(0x40)\n      swap1\n      dup2\n      add\n      0x40\n      mstore\n      dup1\n      swap3\n      swap2\n      swap1\n      dup2\n      dup2\n      mstore\n      0x20\n      add\n      dup3\n      dup1\n      sload\n      tag_79\n      swap1\n      tag_35\n      jump\t// in\n    tag_79:\n      dup1\n      iszero\n      tag_80\n      jumpi\n      dup1\n      0x1f\n      lt\n      tag_81\n      jumpi\n      0x0100\n      dup1\n      dup4\n      sload\n      div\n      mul\n      dup4\n      mstore\n      swap2\n      0x20\n      add\n      swap2\n      jump(tag_80)\n    tag_81:\n      dup3\n      add\n      swap2\n      swap1\n      0x00\n      mstore\n      keccak256(0x00, 0x20)\n      swap1\n    tag_82:\n      dup2\n      sload\n      dup2\n      mstore\n      swap1\n      0x01\n      add\n      swap1\n      0x20\n      add\n      dup1\n      dup4\n      gt\n      tag_82\n      jumpi\n      dup3\n      swap1\n      sub\n      0x1f\n      and\n      dup3\n      add\n      swap2\n    tag_80:\n      pop\n      pop\n      pop\n      pop\n      pop\n      swap1\n      dup1\n      0x03\n      add\n      dup1\n      sload\n      tag_83\n      swap1\n      tag_35\n      jump\t// in\n    tag_83:\n      dup1\n      0x1f\n      add\n      0x20\n      dup1\n      swap2\n      div\n      mul\n      0x20\n      add\n      mload(0x40)\n      swap1\n      dup2\n      add\n      0x40\n      mstore\n      dup1\n      swap3\n      swap2\n      swap1\n      dup2\n      dup2\n      mstore\n      0x20\n      add\n      dup3\n      dup1\n      sload\n      tag_84\n      swap1\n      tag_35\n      jump\t// in\n    tag_84:\n      dup1\n      iszero\n      tag_85\n      jumpi\n      dup1\n      0x1f\n      lt\n      tag_86\n      jumpi\n      0x0100\n      dup1\n      dup4\n      sload\n      div\n      mul\n      dup4\n      mstore\n      swap2\n      0x20\n      add\n      swap2\n      jump(tag_85)\n    tag_86:\n      dup3\n      add\n      swap2\n      swap1\n      0x00\n      mstore\n      keccak256(0x00, 0x20)\n      swap1\n    tag_87:\n      dup2\n      sload\n      dup2\n      mstore\n      swap1\n      0x01\n      add\n      swap1\n      0x20\n      add\n      dup1\n      dup4\n      gt\n      tag_87\n      jumpi\n      dup3\n      swap1\n      sub\n      0x1f\n      and\n      dup3\n      add\n      swap2\n    tag_85:\n      pop\n      pop\n      pop\n      pop\n      pop\n      swap1\n      dup1\n      0x04\n      add\n      0x00\n      swap1\n      sload\n      swap1\n      0x0100\n      exp\n      swap1\n      div\n      0xff\n      and\n      swap1\n      dup1\n      0x04\n      add\n      0x01\n      swap1\n      sload\n      swap1\n      0x0100\n      exp\n      swap1\n      div\n      0xff\n      and\n      swap1\n      dup1\n      0x05\n      add\n      sload\n      swap1\n      pop\n      dup8\n      jump\t// out\n        /* \"Book.sol\":481:1289  function addBook(... */\n    tag_31:\n        /* \"Book.sol\":643:644  0 */\n      0x00\n        /* \"Book.sol\":626:632  _title */\n      dup4\n        /* \"Book.sol\":620:640  bytes(_title).length */\n      mload\n        /* \"Book.sol\":620:644  bytes(_title).length > 0 */\n      gt\n        /* \"Book.sol\":612:671  require(bytes(_title).length > 0, \"Title cannot be empty!\") */\n      tag_89\n      jumpi\n      mload(0x40)\n      0x08c379a000000000000000000000000000000000000000000000000000000000\n      dup2\n      mstore\n      0x04\n      add\n      tag_90\n      swap1\n      tag_91\n      jump\t// in\n    tag_90:\n      mload(0x40)\n      dup1\n      swap2\n      sub\n      swap1\n      revert\n    tag_89:\n        /* \"Book.sol\":713:714  0 */\n      0x00\n        /* \"Book.sol\":695:702  _author */\n      dup3\n        /* \"Book.sol\":689:710  bytes(_author).length */\n      mload\n        /* \"Book.sol\":689:714  bytes(_author).length > 0 */\n      gt\n        /* \"Book.sol\":681:742  require(bytes(_author).length > 0, \"Author cannot be empty!\") */\n      tag_92\n      jumpi\n      mload(0x40)\n      0x08c379a000000000000000000000000000000000000000000000000000000000\n      dup2\n      mstore\n      0x04\n      add\n      tag_93\n      swap1\n      tag_94\n      jump\t// in\n    tag_93:\n      mload(0x40)\n      dup1\n      swap2\n      sub\n      swap1\n      revert\n    tag_92:\n        /* \"Book.sol\":783:784  0 */\n      0x00\n        /* \"Book.sol\":766:772  _genre */\n      dup2\n        /* \"Book.sol\":760:780  bytes(_genre).length */\n      mload\n        /* \"Book.sol\":760:784  bytes(_genre).length > 0 */\n      gt\n        /* \"Book.sol\":752:811  require(bytes(_genre).length > 0, \"Genre cannot be empty!\") */\n      tag_95\n      jumpi\n      mload(0x40)\n      0x08c379a000000000000000000000000000000000000000000000000000000000\n      dup2\n      mstore\n      0x04\n      add\n      tag_96\n      swap1\n      tag_97\n      jump\t// in\n    tag_96:\n      mload(0x40)\n      dup1\n      swap2\n      sub\n      swap1\n      revert\n    tag_95:\n        /* \"Book.sol\":822:833  bytes32 key */\n      0x00\n        /* \"Book.sol\":863:869  _title */\n      dup4\n        /* \"Book.sol\":871:878  _author */\n      dup4\n        /* \"Book.sol\":846:879  abi.encodePacked(_title, _author) */\n      add(0x20, mload(0x40))\n      tag_98\n      swap3\n      swap2\n      swap1\n      tag_99\n      jump\t// in\n    tag_98:\n      mload(0x40)\n      0x20\n      dup2\n      dup4\n      sub\n      sub\n      dup2\n      mstore\n      swap1\n      0x40\n      mstore\n        /* \"Book.sol\":836:880  keccak256(abi.encodePacked(_title, _author)) */\n      dup1\n      mload\n      swap1\n      0x20\n      add\n      keccak256\n        /* \"Book.sol\":822:880  bytes32 key = keccak256(abi.encodePacked(_title, _author)) */\n      swap1\n      pop\n        /* \"Book.sol\":899:908  bookExist */\n      0x03\n        /* \"Book.sol\":899:913  bookExist[key] */\n      0x00\n        /* \"Book.sol\":909:912  key */\n      dup3\n        /* \"Book.sol\":899:913  bookExist[key] */\n      dup2\n      mstore\n      0x20\n      add\n      swap1\n      dup2\n      mstore\n      0x20\n      add\n      0x00\n      keccak256\n      0x00\n      swap1\n      sload\n      swap1\n      0x0100\n      exp\n      swap1\n      div\n      0xff\n      and\n        /* \"Book.sol\":898:913  !bookExist[key] */\n      iszero\n        /* \"Book.sol\":890:958  require(!bookExist[key], \"This book by this author already exists!\") */\n      tag_100\n      jumpi\n      mload(0x40)\n      0x08c379a000000000000000000000000000000000000000000000000000000000\n      dup2\n      mstore\n      0x04\n      add\n      tag_101\n      swap1\n      tag_102\n      jump\t// in\n    tag_101:\n      mload(0x40)\n      dup1\n      swap2\n      sub\n      swap1\n      revert\n    tag_100:\n        /* \"Book.sol\":985:989  true */\n      0x01\n        /* \"Book.sol\":968:977  bookExist */\n      0x03\n        /* \"Book.sol\":968:982  bookExist[key] */\n      0x00\n        /* \"Book.sol\":978:981  key */\n      dup4\n        /* \"Book.sol\":968:982  bookExist[key] */\n      dup2\n      mstore\n      0x20\n      add\n      swap1\n      dup2\n      mstore\n      0x20\n      add\n      0x00\n      keccak256\n      0x00\n        /* \"Book.sol\":968:989  bookExist[key] = true */\n      0x0100\n      exp\n      dup2\n      sload\n      dup2\n      0xff\n      mul\n      not\n      and\n      swap1\n      dup4\n      iszero\n      iszero\n      mul\n      or\n      swap1\n      sstore\n      pop\n        /* \"Book.sol\":1000:1011  uint256 _ID */\n      0x00\n        /* \"Book.sol\":1035:1036  1 */\n      0x01\n        /* \"Book.sol\":1014:1025  listOfBooks */\n      0x00\n        /* \"Book.sol\":1014:1032  listOfBooks.length */\n      dup1\n      sload\n      swap1\n      pop\n        /* \"Book.sol\":1014:1036  listOfBooks.length + 1 */\n      tag_103\n      swap2\n      swap1\n      tag_104\n      jump\t// in\n    tag_103:\n        /* \"Book.sol\":1000:1036  uint256 _ID = listOfBooks.length + 1 */\n      swap1\n      pop\n        /* \"Book.sol\":1059:1216  Book(... */\n      mload(0x40)\n      dup1\n      0xe0\n      add\n      0x40\n      mstore\n      dup1\n        /* \"Book.sol\":1077:1080  _ID */\n      dup3\n        /* \"Book.sol\":1059:1216  Book(... */\n      dup2\n      mstore\n      0x20\n      add\n        /* \"Book.sol\":1094:1100  _title */\n      dup7\n        /* \"Book.sol\":1059:1216  Book(... */\n      dup2\n      mstore\n      0x20\n      add\n        /* \"Book.sol\":1114:1121  _author */\n      dup6\n        /* \"Book.sol\":1059:1216  Book(... */\n      dup2\n      mstore\n      0x20\n      add\n        /* \"Book.sol\":1135:1141  _genre */\n      dup5\n        /* \"Book.sol\":1059:1216  Book(... */\n      dup2\n      mstore\n      0x20\n      add\n        /* \"Book.sol\":1155:1159  true */\n      0x01\n        /* \"Book.sol\":1059:1216  Book(... */\n      iszero\n      iszero\n      dup2\n      mstore\n      0x20\n      add\n        /* \"Book.sol\":1173:1177  true */\n      0x01\n        /* \"Book.sol\":1059:1216  Book(... */\n      iszero\n      iszero\n      dup2\n      mstore\n      0x20\n      add\n        /* \"Book.sol\":1191:1206  block.timestamp */\n      timestamp\n        /* \"Book.sol\":1059:1216  Book(... */\n      dup2\n      mstore\n      pop\n        /* \"Book.sol\":1046:1051  books */\n      0x02\n        /* \"Book.sol\":1046:1056  books[_ID] */\n      0x00\n        /* \"Book.sol\":1052:1055  _ID */\n      dup4\n        /* \"Book.sol\":1046:1056  books[_ID] */\n      dup2\n      mstore\n      0x20\n      add\n      swap1\n      dup2\n      mstore\n      0x20\n      add\n      0x00\n      keccak256\n        /* \"Book.sol\":1046:1216  books[_ID] = Book(... */\n      0x00\n      dup3\n      add\n      mload\n      dup2\n      0x00\n      add\n      sstore\n      0x20\n      dup3\n      add\n      mload\n      dup2\n      0x01\n      add\n      swap1\n      dup2\n      tag_105\n      swap2\n      swap1\n      tag_106\n      jump\t// in\n    tag_105:\n      pop\n      0x40\n      dup3\n      add\n      mload\n      dup2\n      0x02\n      add\n      swap1\n      dup2\n      tag_107\n      swap2\n      swap1\n      tag_106\n      jump\t// in\n    tag_107:\n      pop\n      0x60\n      dup3\n      add\n      mload\n      dup2\n      0x03\n      add\n      swap1\n      dup2\n      tag_108\n      swap2\n      swap1\n      tag_106\n      jump\t// in\n    tag_108:\n      pop\n      0x80\n      dup3\n      add\n      mload\n      dup2\n      0x04\n      add\n      exp(0x0100, 0x00)\n      dup2\n      sload\n      dup2\n      0xff\n      mul\n      not\n      and\n      swap1\n      dup4\n      iszero\n      iszero\n      mul\n      or\n      swap1\n      sstore\n      pop\n      0xa0\n      dup3\n      add\n      mload\n      dup2\n      0x04\n      add\n      exp(0x0100, 0x01)\n      dup2\n      sload\n      dup2\n      0xff\n      mul\n      not\n      and\n      swap1\n      dup4\n      iszero\n      iszero\n      mul\n      or\n      swap1\n      sstore\n      pop\n      0xc0\n      dup3\n      add\n      mload\n      dup2\n      0x05\n      add\n      sstore\n      swap1\n      pop\n      pop\n        /* \"Book.sol\":1227:1238  listOfBooks */\n      0x00\n        /* \"Book.sol\":1244:1249  books */\n      0x02\n        /* \"Book.sol\":1244:1254  books[_ID] */\n      0x00\n        /* \"Book.sol\":1250:1253  _ID */\n      dup4\n        /* \"Book.sol\":1244:1254  books[_ID] */\n      dup2\n      mstore\n      0x20\n      add\n      swap1\n      dup2\n      mstore\n      0x20\n      add\n      0x00\n      keccak256\n        /* \"Book.sol\":1227:1255  listOfBooks.push(books[_ID]) */\n      swap1\n      dup1\n      0x01\n      dup2\n      sload\n      add\n      dup1\n      dup3\n      sstore\n      dup1\n      swap2\n      pop\n      pop\n      0x01\n      swap1\n      sub\n      swap1\n      0x00\n      mstore\n      keccak256(0x00, 0x20)\n      swap1\n      0x06\n      mul\n      add\n      0x00\n      swap1\n      swap2\n      swap1\n      swap2\n      swap1\n      swap2\n      pop\n      0x00\n      dup3\n      add\n      sload\n      dup2\n      0x00\n      add\n      sstore\n      0x01\n      dup3\n      add\n      dup2\n      0x01\n      add\n      swap1\n      dup2\n      tag_110\n      swap2\n      swap1\n      tag_111\n      jump\t// in\n    tag_110:\n      pop\n      0x02\n      dup3\n      add\n      dup2\n      0x02\n      add\n      swap1\n      dup2\n      tag_112\n      swap2\n      swap1\n      tag_111\n      jump\t// in\n    tag_112:\n      pop\n      0x03\n      dup3\n      add\n      dup2\n      0x03\n      add\n      swap1\n      dup2\n      tag_113\n      swap2\n      swap1\n      tag_111\n      jump\t// in\n    tag_113:\n      pop\n      0x04\n      dup3\n      add\n      0x00\n      swap1\n      sload\n      swap1\n      0x0100\n      exp\n      swap1\n      div\n      0xff\n      and\n      dup2\n      0x04\n      add\n      exp(0x0100, 0x00)\n      dup2\n      sload\n      dup2\n      0xff\n      mul\n      not\n      and\n      swap1\n      dup4\n      iszero\n      iszero\n      mul\n      or\n      swap1\n      sstore\n      pop\n      0x04\n      dup3\n      add\n      0x01\n      swap1\n      sload\n      swap1\n      0x0100\n      exp\n      swap1\n      div\n      0xff\n      and\n      dup2\n      0x04\n      add\n      exp(0x0100, 0x01)\n      dup2\n      sload\n      dup2\n      0xff\n      mul\n      not\n      and\n      swap1\n      dup4\n      iszero\n      iszero\n      mul\n      or\n      swap1\n      sstore\n      pop\n      0x05\n      dup3\n      add\n      sload\n      dup2\n      0x05\n      add\n      sstore\n      pop\n      pop\n        /* \"Book.sol\":1265:1272  bookIds */\n      0x01\n        /* \"Book.sol\":1278:1281  _ID */\n      dup2\n        /* \"Book.sol\":1265:1282  bookIds.push(_ID) */\n      swap1\n      dup1\n      0x01\n      dup2\n      sload\n      add\n      dup1\n      dup3\n      sstore\n      dup1\n      swap2\n      pop\n      pop\n      0x01\n      swap1\n      sub\n      swap1\n      0x00\n      mstore\n      keccak256(0x00, 0x20)\n      add\n      0x00\n      swap1\n      swap2\n      swap1\n      swap2\n      swap1\n      swap2\n      pop\n      sstore\n        /* \"Book.sol\":602:1289  {... */\n      pop\n      pop\n        /* \"Book.sol\":481:1289  function addBook(... */\n      pop\n      pop\n      pop\n      jump\t// out\n    tag_51:\n      mload(0x40)\n      dup1\n      0xe0\n      add\n      0x40\n      mstore\n      dup1\n      0x00\n      dup2\n      mstore\n      0x20\n      add\n      0x60\n      dup2\n      mstore\n      0x20\n      add\n      0x60\n      dup2\n      mstore\n      0x20\n      add\n      0x60\n      dup2\n      mstore\n      0x20\n      add\n      iszero(iszero(0x00))\n      dup2\n      mstore\n      0x20\n      add\n      iszero(iszero(0x00))\n      dup2\n      mstore\n      0x20\n      add\n      0x00\n      dup2\n      mstore\n      pop\n      swap1\n      jump\t// out\n        /* \"#utility.yul\":7:82   */\n    tag_115:\n        /* \"#utility.yul\":40:46   */\n      0x00\n        /* \"#utility.yul\":73:75   */\n      0x40\n        /* \"#utility.yul\":67:76   */\n      mload\n        /* \"#utility.yul\":57:76   */\n      swap1\n      pop\n        /* \"#utility.yul\":7:82   */\n      swap1\n      jump\t// out\n        /* \"#utility.yul\":88:205   */\n    tag_116:\n        /* \"#utility.yul\":197:198   */\n      0x00\n        /* \"#utility.yul\":194:195   */\n      0x00\n        /* \"#utility.yul\":187:199   */\n      revert\n        /* \"#utility.yul\":211:328   */\n    tag_117:\n        /* \"#utility.yul\":320:321   */\n      0x00\n        /* \"#utility.yul\":317:318   */\n      0x00\n        /* \"#utility.yul\":310:322   */\n      revert\n        /* \"#utility.yul\":334:411   */\n    tag_118:\n        /* \"#utility.yul\":371:378   */\n      0x00\n        /* \"#utility.yul\":400:405   */\n      dup2\n        /* \"#utility.yul\":389:405   */\n      swap1\n      pop\n        /* \"#utility.yul\":334:411   */\n      swap2\n      swap1\n      pop\n      jump\t// out\n        /* \"#utility.yul\":417:539   */\n    tag_119:\n        /* \"#utility.yul\":490:514   */\n      tag_179\n        /* \"#utility.yul\":508:513   */\n      dup2\n        /* \"#utility.yul\":490:514   */\n      tag_118\n      jump\t// in\n    tag_179:\n        /* \"#utility.yul\":483:488   */\n      dup2\n        /* \"#utility.yul\":480:515   */\n      eq\n        /* \"#utility.yul\":470:533   */\n      tag_180\n      jumpi\n        /* \"#utility.yul\":529:530   */\n      0x00\n        /* \"#utility.yul\":526:527   */\n      0x00\n        /* \"#utility.yul\":519:531   */\n      revert\n        /* \"#utility.yul\":470:533   */\n    tag_180:\n        /* \"#utility.yul\":417:539   */\n      pop\n      jump\t// out\n        /* \"#utility.yul\":545:684   */\n    tag_120:\n        /* \"#utility.yul\":591:596   */\n      0x00\n        /* \"#utility.yul\":629:635   */\n      dup2\n        /* \"#utility.yul\":616:636   */\n      calldataload\n        /* \"#utility.yul\":607:636   */\n      swap1\n      pop\n        /* \"#utility.yul\":645:678   */\n      tag_182\n        /* \"#utility.yul\":672:677   */\n      dup2\n        /* \"#utility.yul\":645:678   */\n      tag_119\n      jump\t// in\n    tag_182:\n        /* \"#utility.yul\":545:684   */\n      swap3\n      swap2\n      pop\n      pop\n      jump\t// out\n        /* \"#utility.yul\":690:1019   */\n    tag_10:\n        /* \"#utility.yul\":749:755   */\n      0x00\n        /* \"#utility.yul\":798:800   */\n      0x20\n        /* \"#utility.yul\":786:795   */\n      dup3\n        /* \"#utility.yul\":777:784   */\n      dup5\n        /* \"#utility.yul\":773:796   */\n      sub\n        /* \"#utility.yul\":769:801   */\n      slt\n        /* \"#utility.yul\":766:885   */\n      iszero\n      tag_184\n      jumpi\n        /* \"#utility.yul\":804:883   */\n      tag_185\n      tag_116\n      jump\t// in\n    tag_185:\n        /* \"#utility.yul\":766:885   */\n    tag_184:\n        /* \"#utility.yul\":924:925   */\n      0x00\n        /* \"#utility.yul\":949:1002   */\n      tag_186\n        /* \"#utility.yul\":994:1001   */\n      dup5\n        /* \"#utility.yul\":985:991   */\n      dup3\n        /* \"#utility.yul\":974:983   */\n      dup6\n        /* \"#utility.yul\":970:992   */\n      add\n        /* \"#utility.yul\":949:1002   */\n      tag_120\n      jump\t// in\n    tag_186:\n        /* \"#utility.yul\":939:1002   */\n      swap2\n      pop\n        /* \"#utility.yul\":895:1012   */\n      pop\n        /* \"#utility.yul\":690:1019   */\n      swap3\n      swap2\n      pop\n      pop\n      jump\t// out\n        /* \"#utility.yul\":1025:1143   */\n    tag_121:\n        /* \"#utility.yul\":1112:1136   */\n      tag_188\n        /* \"#utility.yul\":1130:1135   */\n      dup2\n        /* \"#utility.yul\":1112:1136   */\n      tag_118\n      jump\t// in\n    tag_188:\n        /* \"#utility.yul\":1107:1110   */\n      dup3\n        /* \"#utility.yul\":1100:1137   */\n      mstore\n        /* \"#utility.yul\":1025:1143   */\n      pop\n      pop\n      jump\t// out\n        /* \"#utility.yul\":1149:1248   */\n    tag_122:\n        /* \"#utility.yul\":1201:1207   */\n      0x00\n        /* \"#utility.yul\":1235:1240   */\n      dup2\n        /* \"#utility.yul\":1229:1241   */\n      mload\n        /* \"#utility.yul\":1219:1241   */\n      swap1\n      pop\n        /* \"#utility.yul\":1149:1248   */\n      swap2\n      swap1\n      pop\n      jump\t// out\n        /* \"#utility.yul\":1254:1423   */\n    tag_123:\n        /* \"#utility.yul\":1338:1349   */\n      0x00\n        /* \"#utility.yul\":1372:1378   */\n      dup3\n        /* \"#utility.yul\":1367:1370   */\n      dup3\n        /* \"#utility.yul\":1360:1379   */\n      mstore\n        /* \"#utility.yul\":1412:1416   */\n      0x20\n        /* \"#utility.yul\":1407:1410   */\n      dup3\n        /* \"#utility.yul\":1403:1417   */\n      add\n        /* \"#utility.yul\":1388:1417   */\n      swap1\n      pop\n        /* \"#utility.yul\":1254:1423   */\n      swap3\n      swap2\n      pop\n      pop\n      jump\t// out\n        /* \"#utility.yul\":1429:1568   */\n    tag_124:\n        /* \"#utility.yul\":1518:1524   */\n      dup3\n        /* \"#utility.yul\":1513:1516   */\n      dup2\n        /* \"#utility.yul\":1508:1511   */\n      dup4\n        /* \"#utility.yul\":1502:1525   */\n      mcopy\n        /* \"#utility.yul\":1559:1560   */\n      0x00\n        /* \"#utility.yul\":1550:1556   */\n      dup4\n        /* \"#utility.yul\":1545:1548   */\n      dup4\n        /* \"#utility.yul\":1541:1557   */\n      add\n        /* \"#utility.yul\":1534:1561   */\n      mstore\n        /* \"#utility.yul\":1429:1568   */\n      pop\n      pop\n      pop\n      jump\t// out\n        /* \"#utility.yul\":1574:1676   */\n    tag_125:\n        /* \"#utility.yul\":1615:1621   */\n      0x00\n        /* \"#utility.yul\":1666:1668   */\n      0x1f\n        /* \"#utility.yul\":1662:1669   */\n      not\n        /* \"#utility.yul\":1657:1659   */\n      0x1f\n        /* \"#utility.yul\":1650:1655   */\n      dup4\n        /* \"#utility.yul\":1646:1660   */\n      add\n        /* \"#utility.yul\":1642:1670   */\n      and\n        /* \"#utility.yul\":1632:1670   */\n      swap1\n      pop\n        /* \"#utility.yul\":1574:1676   */\n      swap2\n      swap1\n      pop\n      jump\t// out\n        /* \"#utility.yul\":1682:2059   */\n    tag_126:\n        /* \"#utility.yul\":1770:1773   */\n      0x00\n        /* \"#utility.yul\":1798:1837   */\n      tag_194\n        /* \"#utility.yul\":1831:1836   */\n      dup3\n        /* \"#utility.yul\":1798:1837   */\n      tag_122\n      jump\t// in\n    tag_194:\n        /* \"#utility.yul\":1853:1924   */\n      tag_195\n        /* \"#utility.yul\":1917:1923   */\n      dup2\n        /* \"#utility.yul\":1912:1915   */\n      dup6\n        /* \"#utility.yul\":1853:1924   */\n      tag_123\n      jump\t// in\n    tag_195:\n        /* \"#utility.yul\":1846:1924   */\n      swap4\n      pop\n        /* \"#utility.yul\":1933:1998   */\n      tag_196\n        /* \"#utility.yul\":1991:1997   */\n      dup2\n        /* \"#utility.yul\":1986:1989   */\n      dup6\n        /* \"#utility.yul\":1979:1983   */\n      0x20\n        /* \"#utility.yul\":1972:1977   */\n      dup7\n        /* \"#utility.yul\":1968:1984   */\n      add\n        /* \"#utility.yul\":1933:1998   */\n      tag_124\n      jump\t// in\n    tag_196:\n        /* \"#utility.yul\":2023:2052   */\n      tag_197\n        /* \"#utility.yul\":2045:2051   */\n      dup2\n        /* \"#utility.yul\":2023:2052   */\n      tag_125\n      jump\t// in\n    tag_197:\n        /* \"#utility.yul\":2018:2021   */\n      dup5\n        /* \"#utility.yul\":2014:2053   */\n      add\n        /* \"#utility.yul\":2007:2053   */\n      swap2\n      pop\n        /* \"#utility.yul\":1774:2059   */\n      pop\n        /* \"#utility.yul\":1682:2059   */\n      swap3\n      swap2\n      pop\n      pop\n      jump\t// out\n        /* \"#utility.yul\":2065:2155   */\n    tag_127:\n        /* \"#utility.yul\":2099:2106   */\n      0x00\n        /* \"#utility.yul\":2142:2147   */\n      dup2\n        /* \"#utility.yul\":2135:2148   */\n      iszero\n        /* \"#utility.yul\":2128:2149   */\n      iszero\n        /* \"#utility.yul\":2117:2149   */\n      swap1\n      pop\n        /* \"#utility.yul\":2065:2155   */\n      swap2\n      swap1\n      pop\n      jump\t// out\n        /* \"#utility.yul\":2161:2270   */\n    tag_128:\n        /* \"#utility.yul\":2242:2263   */\n      tag_200\n        /* \"#utility.yul\":2257:2262   */\n      dup2\n        /* \"#utility.yul\":2242:2263   */\n      tag_127\n      jump\t// in\n    tag_200:\n        /* \"#utility.yul\":2237:2240   */\n      dup3\n        /* \"#utility.yul\":2230:2264   */\n      mstore\n        /* \"#utility.yul\":2161:2270   */\n      pop\n      pop\n      jump\t// out\n        /* \"#utility.yul\":2276:3411   */\n    tag_13:\n        /* \"#utility.yul\":2585:2589   */\n      0x00\n        /* \"#utility.yul\":2623:2626   */\n      0xe0\n        /* \"#utility.yul\":2612:2621   */\n      dup3\n        /* \"#utility.yul\":2608:2627   */\n      add\n        /* \"#utility.yul\":2600:2627   */\n      swap1\n      pop\n        /* \"#utility.yul\":2637:2708   */\n      tag_202\n        /* \"#utility.yul\":2705:2706   */\n      0x00\n        /* \"#utility.yul\":2694:2703   */\n      dup4\n        /* \"#utility.yul\":2690:2707   */\n      add\n        /* \"#utility.yul\":2681:2687   */\n      dup11\n        /* \"#utility.yul\":2637:2708   */\n      tag_121\n      jump\t// in\n    tag_202:\n        /* \"#utility.yul\":2755:2764   */\n      dup2\n        /* \"#utility.yul\":2749:2753   */\n      dup2\n        /* \"#utility.yul\":2745:2765   */\n      sub\n        /* \"#utility.yul\":2740:2742   */\n      0x20\n        /* \"#utility.yul\":2729:2738   */\n      dup4\n        /* \"#utility.yul\":2725:2743   */\n      add\n        /* \"#utility.yul\":2718:2766   */\n      mstore\n        /* \"#utility.yul\":2783:2861   */\n      tag_203\n        /* \"#utility.yul\":2856:2860   */\n      dup2\n        /* \"#utility.yul\":2847:2853   */\n      dup10\n        /* \"#utility.yul\":2783:2861   */\n      tag_126\n      jump\t// in\n    tag_203:\n        /* \"#utility.yul\":2775:2861   */\n      swap1\n      pop\n        /* \"#utility.yul\":2908:2917   */\n      dup2\n        /* \"#utility.yul\":2902:2906   */\n      dup2\n        /* \"#utility.yul\":2898:2918   */\n      sub\n        /* \"#utility.yul\":2893:2895   */\n      0x40\n        /* \"#utility.yul\":2882:2891   */\n      dup4\n        /* \"#utility.yul\":2878:2896   */\n      add\n        /* \"#utility.yul\":2871:2919   */\n      mstore\n        /* \"#utility.yul\":2936:3014   */\n      tag_204\n        /* \"#utility.yul\":3009:3013   */\n      dup2\n        /* \"#utility.yul\":3000:3006   */\n      dup9\n        /* \"#utility.yul\":2936:3014   */\n      tag_126\n      jump\t// in\n    tag_204:\n        /* \"#utility.yul\":2928:3014   */\n      swap1\n      pop\n        /* \"#utility.yul\":3061:3070   */\n      dup2\n        /* \"#utility.yul\":3055:3059   */\n      dup2\n        /* \"#utility.yul\":3051:3071   */\n      sub\n        /* \"#utility.yul\":3046:3048   */\n      0x60\n        /* \"#utility.yul\":3035:3044   */\n      dup4\n        /* \"#utility.yul\":3031:3049   */\n      add\n        /* \"#utility.yul\":3024:3072   */\n      mstore\n        /* \"#utility.yul\":3089:3167   */\n      tag_205\n        /* \"#utility.yul\":3162:3166   */\n      dup2\n        /* \"#utility.yul\":3153:3159   */\n      dup8\n        /* \"#utility.yul\":3089:3167   */\n      tag_126\n      jump\t// in\n    tag_205:\n        /* \"#utility.yul\":3081:3167   */\n      swap1\n      pop\n        /* \"#utility.yul\":3177:3244   */\n      tag_206\n        /* \"#utility.yul\":3239:3242   */\n      0x80\n        /* \"#utility.yul\":3228:3237   */\n      dup4\n        /* \"#utility.yul\":3224:3243   */\n      add\n        /* \"#utility.yul\":3215:3221   */\n      dup7\n        /* \"#utility.yul\":3177:3244   */\n      tag_128\n      jump\t// in\n    tag_206:\n        /* \"#utility.yul\":3254:3321   */\n      tag_207\n        /* \"#utility.yul\":3316:3319   */\n      0xa0\n        /* \"#utility.yul\":3305:3314   */\n      dup4\n        /* \"#utility.yul\":3301:3320   */\n      add\n        /* \"#utility.yul\":3292:3298   */\n      dup6\n        /* \"#utility.yul\":3254:3321   */\n      tag_128\n      jump\t// in\n    tag_207:\n        /* \"#utility.yul\":3331:3404   */\n      tag_208\n        /* \"#utility.yul\":3399:3402   */\n      0xc0\n        /* \"#utility.yul\":3388:3397   */\n      dup4\n        /* \"#utility.yul\":3384:3403   */\n      add\n        /* \"#utility.yul\":3375:3381   */\n      dup5\n        /* \"#utility.yul\":3331:3404   */\n      tag_121\n      jump\t// in\n    tag_208:\n        /* \"#utility.yul\":2276:3411   */\n      swap9\n      swap8\n      pop\n      pop\n      pop\n      pop\n      pop\n      pop\n      pop\n      pop\n      jump\t// out\n        /* \"#utility.yul\":3417:3525   */\n    tag_129:\n        /* \"#utility.yul\":3494:3518   */\n      tag_210\n        /* \"#utility.yul\":3512:3517   */\n      dup2\n        /* \"#utility.yul\":3494:3518   */\n      tag_118\n      jump\t// in\n    tag_210:\n        /* \"#utility.yul\":3489:3492   */\n      dup3\n        /* \"#utility.yul\":3482:3519   */\n      mstore\n        /* \"#utility.yul\":3417:3525   */\n      pop\n      pop\n      jump\t// out\n        /* \"#utility.yul\":3531:3690   */\n    tag_130:\n        /* \"#utility.yul\":3605:3616   */\n      0x00\n        /* \"#utility.yul\":3639:3645   */\n      dup3\n        /* \"#utility.yul\":3634:3637   */\n      dup3\n        /* \"#utility.yul\":3627:3646   */\n      mstore\n        /* \"#utility.yul\":3679:3683   */\n      0x20\n        /* \"#utility.yul\":3674:3677   */\n      dup3\n        /* \"#utility.yul\":3670:3684   */\n      add\n        /* \"#utility.yul\":3655:3684   */\n      swap1\n      pop\n        /* \"#utility.yul\":3531:3690   */\n      swap3\n      swap2\n      pop\n      pop\n      jump\t// out\n        /* \"#utility.yul\":3696:4053   */\n    tag_131:\n        /* \"#utility.yul\":3774:3777   */\n      0x00\n        /* \"#utility.yul\":3802:3841   */\n      tag_213\n        /* \"#utility.yul\":3835:3840   */\n      dup3\n        /* \"#utility.yul\":3802:3841   */\n      tag_122\n      jump\t// in\n    tag_213:\n        /* \"#utility.yul\":3857:3918   */\n      tag_214\n        /* \"#utility.yul\":3911:3917   */\n      dup2\n        /* \"#utility.yul\":3906:3909   */\n      dup6\n        /* \"#utility.yul\":3857:3918   */\n      tag_130\n      jump\t// in\n    tag_214:\n        /* \"#utility.yul\":3850:3918   */\n      swap4\n      pop\n        /* \"#utility.yul\":3927:3992   */\n      tag_215\n        /* \"#utility.yul\":3985:3991   */\n      dup2\n        /* \"#utility.yul\":3980:3983   */\n      dup6\n        /* \"#utility.yul\":3973:3977   */\n      0x20\n        /* \"#utility.yul\":3966:3971   */\n      dup7\n        /* \"#utility.yul\":3962:3978   */\n      add\n        /* \"#utility.yul\":3927:3992   */\n      tag_124\n      jump\t// in\n    tag_215:\n        /* \"#utility.yul\":4017:4046   */\n      tag_216\n        /* \"#utility.yul\":4039:4045   */\n      dup2\n        /* \"#utility.yul\":4017:4046   */\n      tag_125\n      jump\t// in\n    tag_216:\n        /* \"#utility.yul\":4012:4015   */\n      dup5\n        /* \"#utility.yul\":4008:4047   */\n      add\n        /* \"#utility.yul\":4001:4047   */\n      swap2\n      pop\n        /* \"#utility.yul\":3778:4053   */\n      pop\n        /* \"#utility.yul\":3696:4053   */\n      swap3\n      swap2\n      pop\n      pop\n      jump\t// out\n        /* \"#utility.yul\":4059:4158   */\n    tag_132:\n        /* \"#utility.yul\":4130:4151   */\n      tag_218\n        /* \"#utility.yul\":4145:4150   */\n      dup2\n        /* \"#utility.yul\":4130:4151   */\n      tag_127\n      jump\t// in\n    tag_218:\n        /* \"#utility.yul\":4125:4128   */\n      dup3\n        /* \"#utility.yul\":4118:4152   */\n      mstore\n        /* \"#utility.yul\":4059:4158   */\n      pop\n      pop\n      jump\t// out\n        /* \"#utility.yul\":4224:5829   */\n    tag_133:\n        /* \"#utility.yul\":4333:4336   */\n      0x00\n        /* \"#utility.yul\":4369:4373   */\n      0xe0\n        /* \"#utility.yul\":4364:4367   */\n      dup4\n        /* \"#utility.yul\":4360:4374   */\n      add\n        /* \"#utility.yul\":4454:4458   */\n      0x00\n        /* \"#utility.yul\":4447:4452   */\n      dup4\n        /* \"#utility.yul\":4443:4459   */\n      add\n        /* \"#utility.yul\":4437:4460   */\n      mload\n        /* \"#utility.yul\":4473:4536   */\n      tag_220\n        /* \"#utility.yul\":4530:4534   */\n      0x00\n        /* \"#utility.yul\":4525:4528   */\n      dup7\n        /* \"#utility.yul\":4521:4535   */\n      add\n        /* \"#utility.yul\":4507:4519   */\n      dup3\n        /* \"#utility.yul\":4473:4536   */\n      tag_129\n      jump\t// in\n    tag_220:\n        /* \"#utility.yul\":4384:4546   */\n      pop\n        /* \"#utility.yul\":4629:4633   */\n      0x20\n        /* \"#utility.yul\":4622:4627   */\n      dup4\n        /* \"#utility.yul\":4618:4634   */\n      add\n        /* \"#utility.yul\":4612:4635   */\n      mload\n        /* \"#utility.yul\":4682:4685   */\n      dup5\n        /* \"#utility.yul\":4676:4680   */\n      dup3\n        /* \"#utility.yul\":4672:4686   */\n      sub\n        /* \"#utility.yul\":4665:4669   */\n      0x20\n        /* \"#utility.yul\":4660:4663   */\n      dup7\n        /* \"#utility.yul\":4656:4670   */\n      add\n        /* \"#utility.yul\":4649:4687   */\n      mstore\n        /* \"#utility.yul\":4708:4781   */\n      tag_221\n        /* \"#utility.yul\":4776:4780   */\n      dup3\n        /* \"#utility.yul\":4762:4774   */\n      dup3\n        /* \"#utility.yul\":4708:4781   */\n      tag_131\n      jump\t// in\n    tag_221:\n        /* \"#utility.yul\":4700:4781   */\n      swap2\n      pop\n        /* \"#utility.yul\":4556:4792   */\n      pop\n        /* \"#utility.yul\":4876:4880   */\n      0x40\n        /* \"#utility.yul\":4869:4874   */\n      dup4\n        /* \"#utility.yul\":4865:4881   */\n      add\n        /* \"#utility.yul\":4859:4882   */\n      mload\n        /* \"#utility.yul\":4929:4932   */\n      dup5\n        /* \"#utility.yul\":4923:4927   */\n      dup3\n        /* \"#utility.yul\":4919:4933   */\n      sub\n        /* \"#utility.yul\":4912:4916   */\n      0x40\n        /* \"#utility.yul\":4907:4910   */\n      dup7\n        /* \"#utility.yul\":4903:4917   */\n      add\n        /* \"#utility.yul\":4896:4934   */\n      mstore\n        /* \"#utility.yul\":4955:5028   */\n      tag_222\n        /* \"#utility.yul\":5023:5027   */\n      dup3\n        /* \"#utility.yul\":5009:5021   */\n      dup3\n        /* \"#utility.yul\":4955:5028   */\n      tag_131\n      jump\t// in\n    tag_222:\n        /* \"#utility.yul\":4947:5028   */\n      swap2\n      pop\n        /* \"#utility.yul\":4802:5039   */\n      pop\n        /* \"#utility.yul\":5122:5126   */\n      0x60\n        /* \"#utility.yul\":5115:5120   */\n      dup4\n        /* \"#utility.yul\":5111:5127   */\n      add\n        /* \"#utility.yul\":5105:5128   */\n      mload\n        /* \"#utility.yul\":5175:5178   */\n      dup5\n        /* \"#utility.yul\":5169:5173   */\n      dup3\n        /* \"#utility.yul\":5165:5179   */\n      sub\n        /* \"#utility.yul\":5158:5162   */\n      0x60\n        /* \"#utility.yul\":5153:5156   */\n      dup7\n        /* \"#utility.yul\":5149:5163   */\n      add\n        /* \"#utility.yul\":5142:5180   */\n      mstore\n        /* \"#utility.yul\":5201:5274   */\n      tag_223\n        /* \"#utility.yul\":5269:5273   */\n      dup3\n        /* \"#utility.yul\":5255:5267   */\n      dup3\n        /* \"#utility.yul\":5201:5274   */\n      tag_131\n      jump\t// in\n    tag_223:\n        /* \"#utility.yul\":5193:5274   */\n      swap2\n      pop\n        /* \"#utility.yul\":5049:5285   */\n      pop\n        /* \"#utility.yul\":5372:5376   */\n      0x80\n        /* \"#utility.yul\":5365:5370   */\n      dup4\n        /* \"#utility.yul\":5361:5377   */\n      add\n        /* \"#utility.yul\":5355:5378   */\n      mload\n        /* \"#utility.yul\":5391:5448   */\n      tag_224\n        /* \"#utility.yul\":5442:5446   */\n      0x80\n        /* \"#utility.yul\":5437:5440   */\n      dup7\n        /* \"#utility.yul\":5433:5447   */\n      add\n        /* \"#utility.yul\":5419:5431   */\n      dup3\n        /* \"#utility.yul\":5391:5448   */\n      tag_132\n      jump\t// in\n    tag_224:\n        /* \"#utility.yul\":5295:5458   */\n      pop\n        /* \"#utility.yul\":5542:5546   */\n      0xa0\n        /* \"#utility.yul\":5535:5540   */\n      dup4\n        /* \"#utility.yul\":5531:5547   */\n      add\n        /* \"#utility.yul\":5525:5548   */\n      mload\n        /* \"#utility.yul\":5561:5618   */\n      tag_225\n        /* \"#utility.yul\":5612:5616   */\n      0xa0\n        /* \"#utility.yul\":5607:5610   */\n      dup7\n        /* \"#utility.yul\":5603:5617   */\n      add\n        /* \"#utility.yul\":5589:5601   */\n      dup3\n        /* \"#utility.yul\":5561:5618   */\n      tag_132\n      jump\t// in\n    tag_225:\n        /* \"#utility.yul\":5468:5628   */\n      pop\n        /* \"#utility.yul\":5710:5714   */\n      0xc0\n        /* \"#utility.yul\":5703:5708   */\n      dup4\n        /* \"#utility.yul\":5699:5715   */\n      add\n        /* \"#utility.yul\":5693:5716   */\n      mload\n        /* \"#utility.yul\":5729:5792   */\n      tag_226\n        /* \"#utility.yul\":5786:5790   */\n      0xc0\n        /* \"#utility.yul\":5781:5784   */\n      dup7\n        /* \"#utility.yul\":5777:5791   */\n      add\n        /* \"#utility.yul\":5763:5775   */\n      dup3\n        /* \"#utility.yul\":5729:5792   */\n      tag_129\n      jump\t// in\n    tag_226:\n        /* \"#utility.yul\":5638:5802   */\n      pop\n        /* \"#utility.yul\":5819:5823   */\n      dup1\n        /* \"#utility.yul\":5812:5823   */\n      swap2\n      pop\n        /* \"#utility.yul\":4338:5829   */\n      pop\n        /* \"#utility.yul\":4224:5829   */\n      swap3\n      swap2\n      pop\n      pop\n      jump\t// out\n        /* \"#utility.yul\":5835:6188   */\n    tag_18:\n        /* \"#utility.yul\":5968:5972   */\n      0x00\n        /* \"#utility.yul\":6006:6008   */\n      0x20\n        /* \"#utility.yul\":5995:6004   */\n      dup3\n        /* \"#utility.yul\":5991:6009   */\n      add\n        /* \"#utility.yul\":5983:6009   */\n      swap1\n      pop\n        /* \"#utility.yul\":6055:6064   */\n      dup2\n        /* \"#utility.yul\":6049:6053   */\n      dup2\n        /* \"#utility.yul\":6045:6065   */\n      sub\n        /* \"#utility.yul\":6041:6042   */\n      0x00\n        /* \"#utility.yul\":6030:6039   */\n      dup4\n        /* \"#utility.yul\":6026:6043   */\n      add\n        /* \"#utility.yul\":6019:6066   */\n      mstore\n        /* \"#utility.yul\":6083:6181   */\n      tag_228\n        /* \"#utility.yul\":6176:6180   */\n      dup2\n        /* \"#utility.yul\":6167:6173   */\n      dup5\n        /* \"#utility.yul\":6083:6181   */\n      tag_133\n      jump\t// in\n    tag_228:\n        /* \"#utility.yul\":6075:6181   */\n      swap1\n      pop\n        /* \"#utility.yul\":5835:6188   */\n      swap3\n      swap2\n      pop\n      pop\n      jump\t// out\n        /* \"#utility.yul\":6194:6416   */\n    tag_23:\n        /* \"#utility.yul\":6287:6291   */\n      0x00\n        /* \"#utility.yul\":6325:6327   */\n      0x20\n        /* \"#utility.yul\":6314:6323   */\n      dup3\n        /* \"#utility.yul\":6310:6328   */\n      add\n        /* \"#utility.yul\":6302:6328   */\n      swap1\n      pop\n        /* \"#utility.yul\":6338:6409   */\n      tag_230\n        /* \"#utility.yul\":6406:6407   */\n      0x00\n        /* \"#utility.yul\":6395:6404   */\n      dup4\n        /* \"#utility.yul\":6391:6408   */\n      add\n        /* \"#utility.yul\":6382:6388   */\n      dup5\n        /* \"#utility.yul\":6338:6409   */\n      tag_121\n      jump\t// in\n    tag_230:\n        /* \"#utility.yul\":6194:6416   */\n      swap3\n      swap2\n      pop\n      pop\n      jump\t// out\n        /* \"#utility.yul\":6422:6539   */\n    tag_134:\n        /* \"#utility.yul\":6531:6532   */\n      0x00\n        /* \"#utility.yul\":6528:6529   */\n      0x00\n        /* \"#utility.yul\":6521:6533   */\n      revert\n        /* \"#utility.yul\":6545:6662   */\n    tag_135:\n        /* \"#utility.yul\":6654:6655   */\n      0x00\n        /* \"#utility.yul\":6651:6652   */\n      0x00\n        /* \"#utility.yul\":6644:6656   */\n      revert\n        /* \"#utility.yul\":6668:6848   */\n    tag_136:\n        /* \"#utility.yul\":6716:6793   */\n      0x4e487b7100000000000000000000000000000000000000000000000000000000\n        /* \"#utility.yul\":6713:6714   */\n      0x00\n        /* \"#utility.yul\":6706:6794   */\n      mstore\n        /* \"#utility.yul\":6813:6817   */\n      0x41\n        /* \"#utility.yul\":6810:6811   */\n      0x04\n        /* \"#utility.yul\":6803:6818   */\n      mstore\n        /* \"#utility.yul\":6837:6841   */\n      0x24\n        /* \"#utility.yul\":6834:6835   */\n      0x00\n        /* \"#utility.yul\":6827:6842   */\n      revert\n        /* \"#utility.yul\":6854:7135   */\n    tag_137:\n        /* \"#utility.yul\":6937:6964   */\n      tag_235\n        /* \"#utility.yul\":6959:6963   */\n      dup3\n        /* \"#utility.yul\":6937:6964   */\n      tag_125\n      jump\t// in\n    tag_235:\n        /* \"#utility.yul\":6929:6935   */\n      dup2\n        /* \"#utility.yul\":6925:6965   */\n      add\n        /* \"#utility.yul\":7067:7073   */\n      dup2\n        /* \"#utility.yul\":7055:7065   */\n      dup2\n        /* \"#utility.yul\":7052:7074   */\n      lt\n        /* \"#utility.yul\":7031:7049   */\n      0xffffffffffffffff\n        /* \"#utility.yul\":7019:7029   */\n      dup3\n        /* \"#utility.yul\":7016:7050   */\n      gt\n        /* \"#utility.yul\":7013:7075   */\n      or\n        /* \"#utility.yul\":7010:7098   */\n      iszero\n      tag_236\n      jumpi\n        /* \"#utility.yul\":7078:7096   */\n      tag_237\n      tag_136\n      jump\t// in\n    tag_237:\n        /* \"#utility.yul\":7010:7098   */\n    tag_236:\n        /* \"#utility.yul\":7118:7128   */\n      dup1\n        /* \"#utility.yul\":7114:7116   */\n      0x40\n        /* \"#utility.yul\":7107:7129   */\n      mstore\n        /* \"#utility.yul\":6897:7135   */\n      pop\n        /* \"#utility.yul\":6854:7135   */\n      pop\n      pop\n      jump\t// out\n        /* \"#utility.yul\":7141:7270   */\n    tag_138:\n        /* \"#utility.yul\":7175:7181   */\n      0x00\n        /* \"#utility.yul\":7202:7222   */\n      tag_239\n      tag_115\n      jump\t// in\n    tag_239:\n        /* \"#utility.yul\":7192:7222   */\n      swap1\n      pop\n        /* \"#utility.yul\":7231:7264   */\n      tag_240\n        /* \"#utility.yul\":7259:7263   */\n      dup3\n        /* \"#utility.yul\":7251:7257   */\n      dup3\n        /* \"#utility.yul\":7231:7264   */\n      tag_137\n      jump\t// in\n    tag_240:\n        /* \"#utility.yul\":7141:7270   */\n      swap2\n      swap1\n      pop\n      jump\t// out\n        /* \"#utility.yul\":7276:7584   */\n    tag_139:\n        /* \"#utility.yul\":7338:7342   */\n      0x00\n        /* \"#utility.yul\":7428:7446   */\n      0xffffffffffffffff\n        /* \"#utility.yul\":7420:7426   */\n      dup3\n        /* \"#utility.yul\":7417:7447   */\n      gt\n        /* \"#utility.yul\":7414:7470   */\n      iszero\n      tag_242\n      jumpi\n        /* \"#utility.yul\":7450:7468   */\n      tag_243\n      tag_136\n      jump\t// in\n    tag_243:\n        /* \"#utility.yul\":7414:7470   */\n    tag_242:\n        /* \"#utility.yul\":7488:7517   */\n      tag_244\n        /* \"#utility.yul\":7510:7516   */\n      dup3\n        /* \"#utility.yul\":7488:7517   */\n      tag_125\n      jump\t// in\n    tag_244:\n        /* \"#utility.yul\":7480:7517   */\n      swap1\n      pop\n        /* \"#utility.yul\":7572:7576   */\n      0x20\n        /* \"#utility.yul\":7566:7570   */\n      dup2\n        /* \"#utility.yul\":7562:7577   */\n      add\n        /* \"#utility.yul\":7554:7577   */\n      swap1\n      pop\n        /* \"#utility.yul\":7276:7584   */\n      swap2\n      swap1\n      pop\n      jump\t// out\n        /* \"#utility.yul\":7590:7738   */\n    tag_140:\n        /* \"#utility.yul\":7688:7694   */\n      dup3\n        /* \"#utility.yul\":7683:7686   */\n      dup2\n        /* \"#utility.yul\":7678:7681   */\n      dup4\n        /* \"#utility.yul\":7665:7695   */\n      calldatacopy\n        /* \"#utility.yul\":7729:7730   */\n      0x00\n        /* \"#utility.yul\":7720:7726   */\n      dup4\n        /* \"#utility.yul\":7715:7718   */\n      dup4\n        /* \"#utility.yul\":7711:7727   */\n      add\n        /* \"#utility.yul\":7704:7731   */\n      mstore\n        /* \"#utility.yul\":7590:7738   */\n      pop\n      pop\n      pop\n      jump\t// out\n        /* \"#utility.yul\":7744:8169   */\n    tag_141:\n        /* \"#utility.yul\":7822:7827   */\n      0x00\n        /* \"#utility.yul\":7847:7913   */\n      tag_247\n        /* \"#utility.yul\":7863:7912   */\n      tag_248\n        /* \"#utility.yul\":7905:7911   */\n      dup5\n        /* \"#utility.yul\":7863:7912   */\n      tag_139\n      jump\t// in\n    tag_248:\n        /* \"#utility.yul\":7847:7913   */\n      tag_138\n      jump\t// in\n    tag_247:\n        /* \"#utility.yul\":7838:7913   */\n      swap1\n      pop\n        /* \"#utility.yul\":7936:7942   */\n      dup3\n        /* \"#utility.yul\":7929:7934   */\n      dup2\n        /* \"#utility.yul\":7922:7943   */\n      mstore\n        /* \"#utility.yul\":7974:7978   */\n      0x20\n        /* \"#utility.yul\":7967:7972   */\n      dup2\n        /* \"#utility.yul\":7963:7979   */\n      add\n        /* \"#utility.yul\":8012:8015   */\n      dup5\n        /* \"#utility.yul\":8003:8009   */\n      dup5\n        /* \"#utility.yul\":7998:8001   */\n      dup5\n        /* \"#utility.yul\":7994:8010   */\n      add\n        /* \"#utility.yul\":7991:8016   */\n      gt\n        /* \"#utility.yul\":7988:8100   */\n      iszero\n      tag_249\n      jumpi\n        /* \"#utility.yul\":8019:8098   */\n      tag_250\n      tag_135\n      jump\t// in\n    tag_250:\n        /* \"#utility.yul\":7988:8100   */\n    tag_249:\n        /* \"#utility.yul\":8109:8163   */\n      tag_251\n        /* \"#utility.yul\":8156:8162   */\n      dup5\n        /* \"#utility.yul\":8151:8154   */\n      dup3\n        /* \"#utility.yul\":8146:8149   */\n      dup6\n        /* \"#utility.yul\":8109:8163   */\n      tag_140\n      jump\t// in\n    tag_251:\n        /* \"#utility.yul\":7828:8169   */\n      pop\n        /* \"#utility.yul\":7744:8169   */\n      swap4\n      swap3\n      pop\n      pop\n      pop\n      jump\t// out\n        /* \"#utility.yul\":8189:8529   */\n    tag_142:\n        /* \"#utility.yul\":8245:8250   */\n      0x00\n        /* \"#utility.yul\":8294:8297   */\n      dup3\n        /* \"#utility.yul\":8287:8291   */\n      0x1f\n        /* \"#utility.yul\":8279:8285   */\n      dup4\n        /* \"#utility.yul\":8275:8292   */\n      add\n        /* \"#utility.yul\":8271:8298   */\n      slt\n        /* \"#utility.yul\":8261:8383   */\n      tag_253\n      jumpi\n        /* \"#utility.yul\":8302:8381   */\n      tag_254\n      tag_134\n      jump\t// in\n    tag_254:\n        /* \"#utility.yul\":8261:8383   */\n    tag_253:\n        /* \"#utility.yul\":8419:8425   */\n      dup2\n        /* \"#utility.yul\":8406:8426   */\n      calldataload\n        /* \"#utility.yul\":8444:8523   */\n      tag_255\n        /* \"#utility.yul\":8519:8522   */\n      dup5\n        /* \"#utility.yul\":8511:8517   */\n      dup3\n        /* \"#utility.yul\":8504:8508   */\n      0x20\n        /* \"#utility.yul\":8496:8502   */\n      dup7\n        /* \"#utility.yul\":8492:8509   */\n      add\n        /* \"#utility.yul\":8444:8523   */\n      tag_141\n      jump\t// in\n    tag_255:\n        /* \"#utility.yul\":8435:8523   */\n      swap2\n      pop\n        /* \"#utility.yul\":8251:8529   */\n      pop\n        /* \"#utility.yul\":8189:8529   */\n      swap3\n      swap2\n      pop\n      pop\n      jump\t// out\n        /* \"#utility.yul\":8535:9694   */\n    tag_30:\n        /* \"#utility.yul\":8642:8648   */\n      0x00\n        /* \"#utility.yul\":8650:8656   */\n      0x00\n        /* \"#utility.yul\":8658:8664   */\n      0x00\n        /* \"#utility.yul\":8707:8709   */\n      0x60\n        /* \"#utility.yul\":8695:8704   */\n      dup5\n        /* \"#utility.yul\":8686:8693   */\n      dup7\n        /* \"#utility.yul\":8682:8705   */\n      sub\n        /* \"#utility.yul\":8678:8710   */\n      slt\n        /* \"#utility.yul\":8675:8794   */\n      iszero\n      tag_257\n      jumpi\n        /* \"#utility.yul\":8713:8792   */\n      tag_258\n      tag_116\n      jump\t// in\n    tag_258:\n        /* \"#utility.yul\":8675:8794   */\n    tag_257:\n        /* \"#utility.yul\":8861:8862   */\n      0x00\n        /* \"#utility.yul\":8850:8859   */\n      dup5\n        /* \"#utility.yul\":8846:8863   */\n      add\n        /* \"#utility.yul\":8833:8864   */\n      calldataload\n        /* \"#utility.yul\":8891:8909   */\n      0xffffffffffffffff\n        /* \"#utility.yul\":8883:8889   */\n      dup2\n        /* \"#utility.yul\":8880:8910   */\n      gt\n        /* \"#utility.yul\":8877:8994   */\n      iszero\n      tag_259\n      jumpi\n        /* \"#utility.yul\":8913:8992   */\n      tag_260\n      tag_117\n      jump\t// in\n    tag_260:\n        /* \"#utility.yul\":8877:8994   */\n    tag_259:\n        /* \"#utility.yul\":9018:9081   */\n      tag_261\n        /* \"#utility.yul\":9073:9080   */\n      dup7\n        /* \"#utility.yul\":9064:9070   */\n      dup3\n        /* \"#utility.yul\":9053:9062   */\n      dup8\n        /* \"#utility.yul\":9049:9071   */\n      add\n        /* \"#utility.yul\":9018:9081   */\n      tag_142\n      jump\t// in\n    tag_261:\n        /* \"#utility.yul\":9008:9081   */\n      swap4\n      pop\n        /* \"#utility.yul\":8804:9091   */\n      pop\n        /* \"#utility.yul\":9158:9160   */\n      0x20\n        /* \"#utility.yul\":9147:9156   */\n      dup5\n        /* \"#utility.yul\":9143:9161   */\n      add\n        /* \"#utility.yul\":9130:9162   */\n      calldataload\n        /* \"#utility.yul\":9189:9207   */\n      0xffffffffffffffff\n        /* \"#utility.yul\":9181:9187   */\n      dup2\n        /* \"#utility.yul\":9178:9208   */\n      gt\n        /* \"#utility.yul\":9175:9292   */\n      iszero\n      tag_262\n      jumpi\n        /* \"#utility.yul\":9211:9290   */\n      tag_263\n      tag_117\n      jump\t// in\n    tag_263:\n        /* \"#utility.yul\":9175:9292   */\n    tag_262:\n        /* \"#utility.yul\":9316:9379   */\n      tag_264\n        /* \"#utility.yul\":9371:9378   */\n      dup7\n        /* \"#utility.yul\":9362:9368   */\n      dup3\n        /* \"#utility.yul\":9351:9360   */\n      dup8\n        /* \"#utility.yul\":9347:9369   */\n      add\n        /* \"#utility.yul\":9316:9379   */\n      tag_142\n      jump\t// in\n    tag_264:\n        /* \"#utility.yul\":9306:9379   */\n      swap3\n      pop\n        /* \"#utility.yul\":9101:9389   */\n      pop\n        /* \"#utility.yul\":9456:9458   */\n      0x40\n        /* \"#utility.yul\":9445:9454   */\n      dup5\n        /* \"#utility.yul\":9441:9459   */\n      add\n        /* \"#utility.yul\":9428:9460   */\n      calldataload\n        /* \"#utility.yul\":9487:9505   */\n      0xffffffffffffffff\n        /* \"#utility.yul\":9479:9485   */\n      dup2\n        /* \"#utility.yul\":9476:9506   */\n      gt\n        /* \"#utility.yul\":9473:9590   */\n      iszero\n      tag_265\n      jumpi\n        /* \"#utility.yul\":9509:9588   */\n      tag_266\n      tag_117\n      jump\t// in\n    tag_266:\n        /* \"#utility.yul\":9473:9590   */\n    tag_265:\n        /* \"#utility.yul\":9614:9677   */\n      tag_267\n        /* \"#utility.yul\":9669:9676   */\n      dup7\n        /* \"#utility.yul\":9660:9666   */\n      dup3\n        /* \"#utility.yul\":9649:9658   */\n      dup8\n        /* \"#utility.yul\":9645:9667   */\n      add\n        /* \"#utility.yul\":9614:9677   */\n      tag_142\n      jump\t// in\n    tag_267:\n        /* \"#utility.yul\":9604:9677   */\n      swap2\n      pop\n        /* \"#utility.yul\":9399:9687   */\n      pop\n        /* \"#utility.yul\":8535:9694   */\n      swap3\n      pop\n      swap3\n      pop\n      swap3\n      jump\t// out\n        /* \"#utility.yul\":9700:9880   */\n    tag_143:\n        /* \"#utility.yul\":9748:9825   */\n      0x4e487b7100000000000000000000000000000000000000000000000000000000\n        /* \"#utility.yul\":9745:9746   */\n      0x00\n        /* \"#utility.yul\":9738:9826   */\n      mstore\n        /* \"#utility.yul\":9845:9849   */\n      0x22\n        /* \"#utility.yul\":9842:9843   */\n      0x04\n        /* \"#utility.yul\":9835:9850   */\n      mstore\n        /* \"#utility.yul\":9869:9873   */\n      0x24\n        /* \"#utility.yul\":9866:9867   */\n      0x00\n        /* \"#utility.yul\":9859:9874   */\n      revert\n        /* \"#utility.yul\":9886:10206   */\n    tag_35:\n        /* \"#utility.yul\":9930:9936   */\n      0x00\n        /* \"#utility.yul\":9967:9968   */\n      0x02\n        /* \"#utility.yul\":9961:9965   */\n      dup3\n        /* \"#utility.yul\":9957:9969   */\n      div\n        /* \"#utility.yul\":9947:9969   */\n      swap1\n      pop\n        /* \"#utility.yul\":10014:10015   */\n      0x01\n        /* \"#utility.yul\":10008:10012   */\n      dup3\n        /* \"#utility.yul\":10004:10016   */\n      and\n        /* \"#utility.yul\":10035:10053   */\n      dup1\n        /* \"#utility.yul\":10025:10106   */\n      tag_270\n      jumpi\n        /* \"#utility.yul\":10091:10095   */\n      0x7f\n        /* \"#utility.yul\":10083:10089   */\n      dup3\n        /* \"#utility.yul\":10079:10096   */\n      and\n        /* \"#utility.yul\":10069:10096   */\n      swap2\n      pop\n        /* \"#utility.yul\":10025:10106   */\n    tag_270:\n        /* \"#utility.yul\":10153:10155   */\n      0x20\n        /* \"#utility.yul\":10145:10151   */\n      dup3\n        /* \"#utility.yul\":10142:10156   */\n      lt\n        /* \"#utility.yul\":10122:10140   */\n      dup2\n        /* \"#utility.yul\":10119:10157   */\n      sub\n        /* \"#utility.yul\":10116:10200   */\n      tag_271\n      jumpi\n        /* \"#utility.yul\":10172:10190   */\n      tag_272\n      tag_143\n      jump\t// in\n    tag_272:\n        /* \"#utility.yul\":10116:10200   */\n    tag_271:\n        /* \"#utility.yul\":9937:10206   */\n      pop\n        /* \"#utility.yul\":9886:10206   */\n      swap2\n      swap1\n      pop\n      jump\t// out\n        /* \"#utility.yul\":10212:10376   */\n    tag_144:\n        /* \"#utility.yul\":10352:10368   */\n      0x426f6f6b206e6f7420666f756e64000000000000000000000000000000000000\n        /* \"#utility.yul\":10348:10349   */\n      0x00\n        /* \"#utility.yul\":10340:10346   */\n      dup3\n        /* \"#utility.yul\":10336:10350   */\n      add\n        /* \"#utility.yul\":10329:10369   */\n      mstore\n        /* \"#utility.yul\":10212:10376   */\n      pop\n      jump\t// out\n        /* \"#utility.yul\":10382:10748   */\n    tag_145:\n        /* \"#utility.yul\":10524:10527   */\n      0x00\n        /* \"#utility.yul\":10545:10612   */\n      tag_275\n        /* \"#utility.yul\":10609:10611   */\n      0x0e\n        /* \"#utility.yul\":10604:10607   */\n      dup4\n        /* \"#utility.yul\":10545:10612   */\n      tag_123\n      jump\t// in\n    tag_275:\n        /* \"#utility.yul\":10538:10612   */\n      swap2\n      pop\n        /* \"#utility.yul\":10621:10714   */\n      tag_276\n        /* \"#utility.yul\":10710:10713   */\n      dup3\n        /* \"#utility.yul\":10621:10714   */\n      tag_144\n      jump\t// in\n    tag_276:\n        /* \"#utility.yul\":10739:10741   */\n      0x20\n        /* \"#utility.yul\":10734:10737   */\n      dup3\n        /* \"#utility.yul\":10730:10742   */\n      add\n        /* \"#utility.yul\":10723:10742   */\n      swap1\n      pop\n        /* \"#utility.yul\":10382:10748   */\n      swap2\n      swap1\n      pop\n      jump\t// out\n        /* \"#utility.yul\":10754:11173   */\n    tag_55:\n        /* \"#utility.yul\":10920:10924   */\n      0x00\n        /* \"#utility.yul\":10958:10960   */\n      0x20\n        /* \"#utility.yul\":10947:10956   */\n      dup3\n        /* \"#utility.yul\":10943:10961   */\n      add\n        /* \"#utility.yul\":10935:10961   */\n      swap1\n      pop\n        /* \"#utility.yul\":11007:11016   */\n      dup2\n        /* \"#utility.yul\":11001:11005   */\n      dup2\n        /* \"#utility.yul\":10997:11017   */\n      sub\n        /* \"#utility.yul\":10993:10994   */\n      0x00\n        /* \"#utility.yul\":10982:10991   */\n      dup4\n        /* \"#utility.yul\":10978:10995   */\n      add\n        /* \"#utility.yul\":10971:11018   */\n      mstore\n        /* \"#utility.yul\":11035:11166   */\n      tag_278\n        /* \"#utility.yul\":11161:11165   */\n      dup2\n        /* \"#utility.yul\":11035:11166   */\n      tag_145\n      jump\t// in\n    tag_278:\n        /* \"#utility.yul\":11027:11166   */\n      swap1\n      pop\n        /* \"#utility.yul\":10754:11173   */\n      swap2\n      swap1\n      pop\n      jump\t// out\n        /* \"#utility.yul\":11179:11351   */\n    tag_146:\n        /* \"#utility.yul\":11319:11343   */\n      0x5469746c652063616e6e6f7420626520656d7074792100000000000000000000\n        /* \"#utility.yul\":11315:11316   */\n      0x00\n        /* \"#utility.yul\":11307:11313   */\n      dup3\n        /* \"#utility.yul\":11303:11317   */\n      add\n        /* \"#utility.yul\":11296:11344   */\n      mstore\n        /* \"#utility.yul\":11179:11351   */\n      pop\n      jump\t// out\n        /* \"#utility.yul\":11357:11723   */\n    tag_147:\n        /* \"#utility.yul\":11499:11502   */\n      0x00\n        /* \"#utility.yul\":11520:11587   */\n      tag_281\n        /* \"#utility.yul\":11584:11586   */\n      0x16\n        /* \"#utility.yul\":11579:11582   */\n      dup4\n        /* \"#utility.yul\":11520:11587   */\n      tag_123\n      jump\t// in\n    tag_281:\n        /* \"#utility.yul\":11513:11587   */\n      swap2\n      pop\n        /* \"#utility.yul\":11596:11689   */\n      tag_282\n        /* \"#utility.yul\":11685:11688   */\n      dup3\n        /* \"#utility.yul\":11596:11689   */\n      tag_146\n      jump\t// in\n    tag_282:\n        /* \"#utility.yul\":11714:11716   */\n      0x20\n        /* \"#utility.yul\":11709:11712   */\n      dup3\n        /* \"#utility.yul\":11705:11717   */\n      add\n        /* \"#utility.yul\":11698:11717   */\n      swap1\n      pop\n        /* \"#utility.yul\":11357:11723   */\n      swap2\n      swap1\n      pop\n      jump\t// out\n        /* \"#utility.yul\":11729:12148   */\n    tag_91:\n        /* \"#utility.yul\":11895:11899   */\n      0x00\n        /* \"#utility.yul\":11933:11935   */\n      0x20\n        /* \"#utility.yul\":11922:11931   */\n      dup3\n        /* \"#utility.yul\":11918:11936   */\n      add\n        /* \"#utility.yul\":11910:11936   */\n      swap1\n      pop\n        /* \"#utility.yul\":11982:11991   */\n      dup2\n        /* \"#utility.yul\":11976:11980   */\n      dup2\n        /* \"#utility.yul\":11972:11992   */\n      sub\n        /* \"#utility.yul\":11968:11969   */\n      0x00\n        /* \"#utility.yul\":11957:11966   */\n      dup4\n        /* \"#utility.yul\":11953:11970   */\n      add\n        /* \"#utility.yul\":11946:11993   */\n      mstore\n        /* \"#utility.yul\":12010:12141   */\n      tag_284\n        /* \"#utility.yul\":12136:12140   */\n      dup2\n        /* \"#utility.yul\":12010:12141   */\n      tag_147\n      jump\t// in\n    tag_284:\n        /* \"#utility.yul\":12002:12141   */\n      swap1\n      pop\n        /* \"#utility.yul\":11729:12148   */\n      swap2\n      swap1\n      pop\n      jump\t// out\n        /* \"#utility.yul\":12154:12327   */\n    tag_148:\n        /* \"#utility.yul\":12294:12319   */\n      0x417574686f722063616e6e6f7420626520656d70747921000000000000000000\n        /* \"#utility.yul\":12290:12291   */\n      0x00\n        /* \"#utility.yul\":12282:12288   */\n      dup3\n        /* \"#utility.yul\":12278:12292   */\n      add\n        /* \"#utility.yul\":12271:12320   */\n      mstore\n        /* \"#utility.yul\":12154:12327   */\n      pop\n      jump\t// out\n        /* \"#utility.yul\":12333:12699   */\n    tag_149:\n        /* \"#utility.yul\":12475:12478   */\n      0x00\n        /* \"#utility.yul\":12496:12563   */\n      tag_287\n        /* \"#utility.yul\":12560:12562   */\n      0x17\n        /* \"#utility.yul\":12555:12558   */\n      dup4\n        /* \"#utility.yul\":12496:12563   */\n      tag_123\n      jump\t// in\n    tag_287:\n        /* \"#utility.yul\":12489:12563   */\n      swap2\n      pop\n        /* \"#utility.yul\":12572:12665   */\n      tag_288\n        /* \"#utility.yul\":12661:12664   */\n      dup3\n        /* \"#utility.yul\":12572:12665   */\n      tag_148\n      jump\t// in\n    tag_288:\n        /* \"#utility.yul\":12690:12692   */\n      0x20\n        /* \"#utility.yul\":12685:12688   */\n      dup3\n        /* \"#utility.yul\":12681:12693   */\n      add\n        /* \"#utility.yul\":12674:12693   */\n      swap1\n      pop\n        /* \"#utility.yul\":12333:12699   */\n      swap2\n      swap1\n      pop\n      jump\t// out\n        /* \"#utility.yul\":12705:13124   */\n    tag_94:\n        /* \"#utility.yul\":12871:12875   */\n      0x00\n        /* \"#utility.yul\":12909:12911   */\n      0x20\n        /* \"#utility.yul\":12898:12907   */\n      dup3\n        /* \"#utility.yul\":12894:12912   */\n      add\n        /* \"#utility.yul\":12886:12912   */\n      swap1\n      pop\n        /* \"#utility.yul\":12958:12967   */\n      dup2\n        /* \"#utility.yul\":12952:12956   */\n      dup2\n        /* \"#utility.yul\":12948:12968   */\n      sub\n        /* \"#utility.yul\":12944:12945   */\n      0x00\n        /* \"#utility.yul\":12933:12942   */\n      dup4\n        /* \"#utility.yul\":12929:12946   */\n      add\n        /* \"#utility.yul\":12922:12969   */\n      mstore\n        /* \"#utility.yul\":12986:13117   */\n      tag_290\n        /* \"#utility.yul\":13112:13116   */\n      dup2\n        /* \"#utility.yul\":12986:13117   */\n      tag_149\n      jump\t// in\n    tag_290:\n        /* \"#utility.yul\":12978:13117   */\n      swap1\n      pop\n        /* \"#utility.yul\":12705:13124   */\n      swap2\n      swap1\n      pop\n      jump\t// out\n        /* \"#utility.yul\":13130:13302   */\n    tag_150:\n        /* \"#utility.yul\":13270:13294   */\n      0x47656e72652063616e6e6f7420626520656d7074792100000000000000000000\n        /* \"#utility.yul\":13266:13267   */\n      0x00\n        /* \"#utility.yul\":13258:13264   */\n      dup3\n        /* \"#utility.yul\":13254:13268   */\n      add\n        /* \"#utility.yul\":13247:13295   */\n      mstore\n        /* \"#utility.yul\":13130:13302   */\n      pop\n      jump\t// out\n        /* \"#utility.yul\":13308:13674   */\n    tag_151:\n        /* \"#utility.yul\":13450:13453   */\n      0x00\n        /* \"#utility.yul\":13471:13538   */\n      tag_293\n        /* \"#utility.yul\":13535:13537   */\n      0x16\n        /* \"#utility.yul\":13530:13533   */\n      dup4\n        /* \"#utility.yul\":13471:13538   */\n      tag_123\n      jump\t// in\n    tag_293:\n        /* \"#utility.yul\":13464:13538   */\n      swap2\n      pop\n        /* \"#utility.yul\":13547:13640   */\n      tag_294\n        /* \"#utility.yul\":13636:13639   */\n      dup3\n        /* \"#utility.yul\":13547:13640   */\n      tag_150\n      jump\t// in\n    tag_294:\n        /* \"#utility.yul\":13665:13667   */\n      0x20\n        /* \"#utility.yul\":13660:13663   */\n      dup3\n        /* \"#utility.yul\":13656:13668   */\n      add\n        /* \"#utility.yul\":13649:13668   */\n      swap1\n      pop\n        /* \"#utility.yul\":13308:13674   */\n      swap2\n      swap1\n      pop\n      jump\t// out\n        /* \"#utility.yul\":13680:14099   */\n    tag_97:\n        /* \"#utility.yul\":13846:13850   */\n      0x00\n        /* \"#utility.yul\":13884:13886   */\n      0x20\n        /* \"#utility.yul\":13873:13882   */\n      dup3\n        /* \"#utility.yul\":13869:13887   */\n      add\n        /* \"#utility.yul\":13861:13887   */\n      swap1\n      pop\n        /* \"#utility.yul\":13933:13942   */\n      dup2\n        /* \"#utility.yul\":13927:13931   */\n      dup2\n        /* \"#utility.yul\":13923:13943   */\n      sub\n        /* \"#utility.yul\":13919:13920   */\n      0x00\n        /* \"#utility.yul\":13908:13917   */\n      dup4\n        /* \"#utility.yul\":13904:13921   */\n      add\n        /* \"#utility.yul\":13897:13944   */\n      mstore\n        /* \"#utility.yul\":13961:14092   */\n      tag_296\n        /* \"#utility.yul\":14087:14091   */\n      dup2\n        /* \"#utility.yul\":13961:14092   */\n      tag_151\n      jump\t// in\n    tag_296:\n        /* \"#utility.yul\":13953:14092   */\n      swap1\n      pop\n        /* \"#utility.yul\":13680:14099   */\n      swap2\n      swap1\n      pop\n      jump\t// out\n        /* \"#utility.yul\":14105:14253   */\n    tag_152:\n        /* \"#utility.yul\":14207:14218   */\n      0x00\n        /* \"#utility.yul\":14244:14247   */\n      dup2\n        /* \"#utility.yul\":14229:14247   */\n      swap1\n      pop\n        /* \"#utility.yul\":14105:14253   */\n      swap3\n      swap2\n      pop\n      pop\n      jump\t// out\n        /* \"#utility.yul\":14259:14649   */\n    tag_153:\n        /* \"#utility.yul\":14365:14368   */\n      0x00\n        /* \"#utility.yul\":14393:14432   */\n      tag_299\n        /* \"#utility.yul\":14426:14431   */\n      dup3\n        /* \"#utility.yul\":14393:14432   */\n      tag_122\n      jump\t// in\n    tag_299:\n        /* \"#utility.yul\":14448:14537   */\n      tag_300\n        /* \"#utility.yul\":14530:14536   */\n      dup2\n        /* \"#utility.yul\":14525:14528   */\n      dup6\n        /* \"#utility.yul\":14448:14537   */\n      tag_152\n      jump\t// in\n    tag_300:\n        /* \"#utility.yul\":14441:14537   */\n      swap4\n      pop\n        /* \"#utility.yul\":14546:14611   */\n      tag_301\n        /* \"#utility.yul\":14604:14610   */\n      dup2\n        /* \"#utility.yul\":14599:14602   */\n      dup6\n        /* \"#utility.yul\":14592:14596   */\n      0x20\n        /* \"#utility.yul\":14585:14590   */\n      dup7\n        /* \"#utility.yul\":14581:14597   */\n      add\n        /* \"#utility.yul\":14546:14611   */\n      tag_124\n      jump\t// in\n    tag_301:\n        /* \"#utility.yul\":14636:14642   */\n      dup1\n        /* \"#utility.yul\":14631:14634   */\n      dup5\n        /* \"#utility.yul\":14627:14643   */\n      add\n        /* \"#utility.yul\":14620:14643   */\n      swap2\n      pop\n        /* \"#utility.yul\":14369:14649   */\n      pop\n        /* \"#utility.yul\":14259:14649   */\n      swap3\n      swap2\n      pop\n      pop\n      jump\t// out\n        /* \"#utility.yul\":14655:15090   */\n    tag_99:\n        /* \"#utility.yul\":14835:14838   */\n      0x00\n        /* \"#utility.yul\":14857:14952   */\n      tag_303\n        /* \"#utility.yul\":14948:14951   */\n      dup3\n        /* \"#utility.yul\":14939:14945   */\n      dup6\n        /* \"#utility.yul\":14857:14952   */\n      tag_153\n      jump\t// in\n    tag_303:\n        /* \"#utility.yul\":14850:14952   */\n      swap2\n      pop\n        /* \"#utility.yul\":14969:15064   */\n      tag_304\n        /* \"#utility.yul\":15060:15063   */\n      dup3\n        /* \"#utility.yul\":15051:15057   */\n      dup5\n        /* \"#utility.yul\":14969:15064   */\n      tag_153\n      jump\t// in\n    tag_304:\n        /* \"#utility.yul\":14962:15064   */\n      swap2\n      pop\n        /* \"#utility.yul\":15081:15084   */\n      dup2\n        /* \"#utility.yul\":15074:15084   */\n      swap1\n      pop\n        /* \"#utility.yul\":14655:15090   */\n      swap4\n      swap3\n      pop\n      pop\n      pop\n      jump\t// out\n        /* \"#utility.yul\":15096:15323   */\n    tag_154:\n        /* \"#utility.yul\":15236:15270   */\n      0x5468697320626f6f6b206279207468697320617574686f7220616c7265616479\n        /* \"#utility.yul\":15232:15233   */\n      0x00\n        /* \"#utility.yul\":15224:15230   */\n      dup3\n        /* \"#utility.yul\":15220:15234   */\n      add\n        /* \"#utility.yul\":15213:15271   */\n      mstore\n        /* \"#utility.yul\":15305:15315   */\n      0x2065786973747321000000000000000000000000000000000000000000000000\n        /* \"#utility.yul\":15300:15302   */\n      0x20\n        /* \"#utility.yul\":15292:15298   */\n      dup3\n        /* \"#utility.yul\":15288:15303   */\n      add\n        /* \"#utility.yul\":15281:15316   */\n      mstore\n        /* \"#utility.yul\":15096:15323   */\n      pop\n      jump\t// out\n        /* \"#utility.yul\":15329:15695   */\n    tag_155:\n        /* \"#utility.yul\":15471:15474   */\n      0x00\n        /* \"#utility.yul\":15492:15559   */\n      tag_307\n        /* \"#utility.yul\":15556:15558   */\n      0x28\n        /* \"#utility.yul\":15551:15554   */\n      dup4\n        /* \"#utility.yul\":15492:15559   */\n      tag_123\n      jump\t// in\n    tag_307:\n        /* \"#utility.yul\":15485:15559   */\n      swap2\n      pop\n        /* \"#utility.yul\":15568:15661   */\n      tag_308\n        /* \"#utility.yul\":15657:15660   */\n      dup3\n        /* \"#utility.yul\":15568:15661   */\n      tag_154\n      jump\t// in\n    tag_308:\n        /* \"#utility.yul\":15686:15688   */\n      0x40\n        /* \"#utility.yul\":15681:15684   */\n      dup3\n        /* \"#utility.yul\":15677:15689   */\n      add\n        /* \"#utility.yul\":15670:15689   */\n      swap1\n      pop\n        /* \"#utility.yul\":15329:15695   */\n      swap2\n      swap1\n      pop\n      jump\t// out\n        /* \"#utility.yul\":15701:16120   */\n    tag_102:\n        /* \"#utility.yul\":15867:15871   */\n      0x00\n        /* \"#utility.yul\":15905:15907   */\n      0x20\n        /* \"#utility.yul\":15894:15903   */\n      dup3\n        /* \"#utility.yul\":15890:15908   */\n      add\n        /* \"#utility.yul\":15882:15908   */\n      swap1\n      pop\n        /* \"#utility.yul\":15954:15963   */\n      dup2\n        /* \"#utility.yul\":15948:15952   */\n      dup2\n        /* \"#utility.yul\":15944:15964   */\n      sub\n        /* \"#utility.yul\":15940:15941   */\n      0x00\n        /* \"#utility.yul\":15929:15938   */\n      dup4\n        /* \"#utility.yul\":15925:15942   */\n      add\n        /* \"#utility.yul\":15918:15965   */\n      mstore\n        /* \"#utility.yul\":15982:16113   */\n      tag_310\n        /* \"#utility.yul\":16108:16112   */\n      dup2\n        /* \"#utility.yul\":15982:16113   */\n      tag_155\n      jump\t// in\n    tag_310:\n        /* \"#utility.yul\":15974:16113   */\n      swap1\n      pop\n        /* \"#utility.yul\":15701:16120   */\n      swap2\n      swap1\n      pop\n      jump\t// out\n        /* \"#utility.yul\":16126:16306   */\n    tag_156:\n        /* \"#utility.yul\":16174:16251   */\n      0x4e487b7100000000000000000000000000000000000000000000000000000000\n        /* \"#utility.yul\":16171:16172   */\n      0x00\n        /* \"#utility.yul\":16164:16252   */\n      mstore\n        /* \"#utility.yul\":16271:16275   */\n      0x11\n        /* \"#utility.yul\":16268:16269   */\n      0x04\n        /* \"#utility.yul\":16261:16276   */\n      mstore\n        /* \"#utility.yul\":16295:16299   */\n      0x24\n        /* \"#utility.yul\":16292:16293   */\n      0x00\n        /* \"#utility.yul\":16285:16300   */\n      revert\n        /* \"#utility.yul\":16312:16503   */\n    tag_104:\n        /* \"#utility.yul\":16352:16355   */\n      0x00\n        /* \"#utility.yul\":16371:16391   */\n      tag_313\n        /* \"#utility.yul\":16389:16390   */\n      dup3\n        /* \"#utility.yul\":16371:16391   */\n      tag_118\n      jump\t// in\n    tag_313:\n        /* \"#utility.yul\":16366:16391   */\n      swap2\n      pop\n        /* \"#utility.yul\":16405:16425   */\n      tag_314\n        /* \"#utility.yul\":16423:16424   */\n      dup4\n        /* \"#utility.yul\":16405:16425   */\n      tag_118\n      jump\t// in\n    tag_314:\n        /* \"#utility.yul\":16400:16425   */\n      swap3\n      pop\n        /* \"#utility.yul\":16448:16449   */\n      dup3\n        /* \"#utility.yul\":16445:16446   */\n      dup3\n        /* \"#utility.yul\":16441:16450   */\n      add\n        /* \"#utility.yul\":16434:16450   */\n      swap1\n      pop\n        /* \"#utility.yul\":16469:16472   */\n      dup1\n        /* \"#utility.yul\":16466:16467   */\n      dup3\n        /* \"#utility.yul\":16463:16473   */\n      gt\n        /* \"#utility.yul\":16460:16496   */\n      iszero\n      tag_315\n      jumpi\n        /* \"#utility.yul\":16476:16494   */\n      tag_316\n      tag_156\n      jump\t// in\n    tag_316:\n        /* \"#utility.yul\":16460:16496   */\n    tag_315:\n        /* \"#utility.yul\":16312:16503   */\n      swap3\n      swap2\n      pop\n      pop\n      jump\t// out\n        /* \"#utility.yul\":16509:16650   */\n    tag_157:\n        /* \"#utility.yul\":16558:16562   */\n      0x00\n        /* \"#utility.yul\":16581:16584   */\n      dup2\n        /* \"#utility.yul\":16573:16584   */\n      swap1\n      pop\n        /* \"#utility.yul\":16604:16607   */\n      dup2\n        /* \"#utility.yul\":16601:16602   */\n      0x00\n        /* \"#utility.yul\":16594:16608   */\n      mstore\n        /* \"#utility.yul\":16638:16642   */\n      0x20\n        /* \"#utility.yul\":16635:16636   */\n      0x00\n        /* \"#utility.yul\":16625:16643   */\n      keccak256\n        /* \"#utility.yul\":16617:16643   */\n      swap1\n      pop\n        /* \"#utility.yul\":16509:16650   */\n      swap2\n      swap1\n      pop\n      jump\t// out\n        /* \"#utility.yul\":16656:16749   */\n    tag_158:\n        /* \"#utility.yul\":16693:16699   */\n      0x00\n        /* \"#utility.yul\":16740:16742   */\n      0x20\n        /* \"#utility.yul\":16735:16737   */\n      0x1f\n        /* \"#utility.yul\":16728:16733   */\n      dup4\n        /* \"#utility.yul\":16724:16738   */\n      add\n        /* \"#utility.yul\":16720:16743   */\n      div\n        /* \"#utility.yul\":16710:16743   */\n      swap1\n      pop\n        /* \"#utility.yul\":16656:16749   */\n      swap2\n      swap1\n      pop\n      jump\t// out\n        /* \"#utility.yul\":16755:16862   */\n    tag_159:\n        /* \"#utility.yul\":16799:16807   */\n      0x00\n        /* \"#utility.yul\":16849:16854   */\n      dup3\n        /* \"#utility.yul\":16843:16847   */\n      dup3\n        /* \"#utility.yul\":16839:16855   */\n      shl\n        /* \"#utility.yul\":16818:16855   */\n      swap1\n      pop\n        /* \"#utility.yul\":16755:16862   */\n      swap3\n      swap2\n      pop\n      pop\n      jump\t// out\n        /* \"#utility.yul\":16868:17261   */\n    tag_160:\n        /* \"#utility.yul\":16937:16943   */\n      0x00\n        /* \"#utility.yul\":16987:16988   */\n      0x08\n        /* \"#utility.yul\":16975:16985   */\n      dup4\n        /* \"#utility.yul\":16971:16989   */\n      mul\n        /* \"#utility.yul\":17010:17107   */\n      tag_321\n        /* \"#utility.yul\":17040:17106   */\n      0xffffffffffffffffffffffffffffffffffffffffffffffffffffffffffffffff\n        /* \"#utility.yul\":17029:17038   */\n      dup3\n        /* \"#utility.yul\":17010:17107   */\n      tag_159\n      jump\t// in\n    tag_321:\n        /* \"#utility.yul\":17128:17167   */\n      tag_322\n        /* \"#utility.yul\":17158:17166   */\n      dup7\n        /* \"#utility.yul\":17147:17156   */\n      dup4\n        /* \"#utility.yul\":17128:17167   */\n      tag_159\n      jump\t// in\n    tag_322:\n        /* \"#utility.yul\":17116:17167   */\n      swap6\n      pop\n        /* \"#utility.yul\":17200:17204   */\n      dup1\n        /* \"#utility.yul\":17196:17205   */\n      not\n        /* \"#utility.yul\":17189:17194   */\n      dup5\n        /* \"#utility.yul\":17185:17206   */\n      and\n        /* \"#utility.yul\":17176:17206   */\n      swap4\n      pop\n        /* \"#utility.yul\":17249:17253   */\n      dup1\n        /* \"#utility.yul\":17239:17247   */\n      dup7\n        /* \"#utility.yul\":17235:17254   */\n      and\n        /* \"#utility.yul\":17228:17233   */\n      dup5\n        /* \"#utility.yul\":17225:17255   */\n      or\n        /* \"#utility.yul\":17215:17255   */\n      swap3\n      pop\n        /* \"#utility.yul\":16944:17261   */\n      pop\n      pop\n        /* \"#utility.yul\":16868:17261   */\n      swap4\n      swap3\n      pop\n      pop\n      pop\n      jump\t// out\n        /* \"#utility.yul\":17267:17327   */\n    tag_161:\n        /* \"#utility.yul\":17295:17298   */\n      0x00\n        /* \"#utility.yul\":17316:17321   */\n      dup2\n        /* \"#utility.yul\":17309:17321   */\n      swap1\n      pop\n        /* \"#utility.yul\":17267:17327   */\n      swap2\n      swap1\n      pop\n      jump\t// out\n        /* \"#utility.yul\":17333:17475   */\n    tag_162:\n        /* \"#utility.yul\":17383:17392   */\n      0x00\n        /* \"#utility.yul\":17416:17469   */\n      tag_325\n        /* \"#utility.yul\":17434:17468   */\n      tag_326\n        /* \"#utility.yul\":17443:17467   */\n      tag_327\n        /* \"#utility.yul\":17461:17466   */\n      dup5\n        /* \"#utility.yul\":17443:17467   */\n      tag_118\n      jump\t// in\n    tag_327:\n        /* \"#utility.yul\":17434:17468   */\n      tag_161\n      jump\t// in\n    tag_326:\n        /* \"#utility.yul\":17416:17469   */\n      tag_118\n      jump\t// in\n    tag_325:\n        /* \"#utility.yul\":17403:17469   */\n      swap1\n      pop\n        /* \"#utility.yul\":17333:17475   */\n      swap2\n      swap1\n      pop\n      jump\t// out\n        /* \"#utility.yul\":17481:17556   */\n    tag_163:\n        /* \"#utility.yul\":17524:17527   */\n      0x00\n        /* \"#utility.yul\":17545:17550   */\n      dup2\n        /* \"#utility.yul\":17538:17550   */\n      swap1\n      pop\n        /* \"#utility.yul\":17481:17556   */\n      swap2\n      swap1\n      pop\n      jump\t// out\n        /* \"#utility.yul\":17562:17831   */\n    tag_164:\n        /* \"#utility.yul\":17672:17711   */\n      tag_330\n        /* \"#utility.yul\":17703:17710   */\n      dup4\n        /* \"#utility.yul\":17672:17711   */\n      tag_162\n      jump\t// in\n    tag_330:\n        /* \"#utility.yul\":17733:17824   */\n      tag_331\n        /* \"#utility.yul\":17782:17823   */\n      tag_332\n        /* \"#utility.yul\":17806:17822   */\n      dup3\n        /* \"#utility.yul\":17782:17823   */\n      tag_163\n      jump\t// in\n    tag_332:\n        /* \"#utility.yul\":17774:17780   */\n      dup5\n        /* \"#utility.yul\":17767:17771   */\n      dup5\n        /* \"#utility.yul\":17761:17772   */\n      sload\n        /* \"#utility.yul\":17733:17824   */\n      tag_160\n      jump\t// in\n    tag_331:\n        /* \"#utility.yul\":17727:17731   */\n      dup3\n        /* \"#utility.yul\":17720:17825   */\n      sstore\n        /* \"#utility.yul\":17638:17831   */\n      pop\n        /* \"#utility.yul\":17562:17831   */\n      pop\n      pop\n      pop\n      jump\t// out\n        /* \"#utility.yul\":17837:17910   */\n    tag_165:\n        /* \"#utility.yul\":17882:17885   */\n      0x00\n        /* \"#utility.yul\":17903:17904   */\n      0x00\n        /* \"#utility.yul\":17896:17904   */\n      swap1\n      pop\n        /* \"#utility.yul\":17837:17910   */\n      swap1\n      jump\t// out\n        /* \"#utility.yul\":17916:18105   */\n    tag_166:\n        /* \"#utility.yul\":17993:18025   */\n      tag_335\n      tag_165\n      jump\t// in\n    tag_335:\n        /* \"#utility.yul\":18034:18099   */\n      tag_336\n        /* \"#utility.yul\":18092:18098   */\n      dup2\n        /* \"#utility.yul\":18084:18090   */\n      dup5\n        /* \"#utility.yul\":18078:18082   */\n      dup5\n        /* \"#utility.yul\":18034:18099   */\n      tag_164\n      jump\t// in\n    tag_336:\n        /* \"#utility.yul\":17969:18105   */\n      pop\n        /* \"#utility.yul\":17916:18105   */\n      pop\n      pop\n      jump\t// out\n        /* \"#utility.yul\":18111:18297   */\n    tag_167:\n        /* \"#utility.yul\":18171:18291   */\n    tag_338:\n        /* \"#utility.yul\":18188:18191   */\n      dup2\n        /* \"#utility.yul\":18181:18186   */\n      dup2\n        /* \"#utility.yul\":18178:18192   */\n      lt\n        /* \"#utility.yul\":18171:18291   */\n      iszero\n      tag_340\n      jumpi\n        /* \"#utility.yul\":18242:18281   */\n      tag_341\n        /* \"#utility.yul\":18279:18280   */\n      0x00\n        /* \"#utility.yul\":18272:18277   */\n      dup3\n        /* \"#utility.yul\":18242:18281   */\n      tag_166\n      jump\t// in\n    tag_341:\n        /* \"#utility.yul\":18215:18216   */\n      0x01\n        /* \"#utility.yul\":18208:18213   */\n      dup2\n        /* \"#utility.yul\":18204:18217   */\n      add\n        /* \"#utility.yul\":18195:18217   */\n      swap1\n      pop\n        /* \"#utility.yul\":18171:18291   */\n      jump(tag_338)\n    tag_340:\n        /* \"#utility.yul\":18111:18297   */\n      pop\n      pop\n      jump\t// out\n        /* \"#utility.yul\":18303:18846   */\n    tag_168:\n        /* \"#utility.yul\":18404:18406   */\n      0x1f\n        /* \"#utility.yul\":18399:18402   */\n      dup3\n        /* \"#utility.yul\":18396:18407   */\n      gt\n        /* \"#utility.yul\":18393:18839   */\n      iszero\n      tag_343\n      jumpi\n        /* \"#utility.yul\":18438:18476   */\n      tag_344\n        /* \"#utility.yul\":18470:18475   */\n      dup2\n        /* \"#utility.yul\":18438:18476   */\n      tag_157\n      jump\t// in\n    tag_344:\n        /* \"#utility.yul\":18522:18551   */\n      tag_345\n        /* \"#utility.yul\":18540:18550   */\n      dup5\n        /* \"#utility.yul\":18522:18551   */\n      tag_158\n      jump\t// in\n    tag_345:\n        /* \"#utility.yul\":18512:18520   */\n      dup2\n        /* \"#utility.yul\":18508:18552   */\n      add\n        /* \"#utility.yul\":18705:18707   */\n      0x20\n        /* \"#utility.yul\":18693:18703   */\n      dup6\n        /* \"#utility.yul\":18690:18708   */\n      lt\n        /* \"#utility.yul\":18687:18736   */\n      iszero\n      tag_346\n      jumpi\n        /* \"#utility.yul\":18726:18734   */\n      dup2\n        /* \"#utility.yul\":18711:18734   */\n      swap1\n      pop\n        /* \"#utility.yul\":18687:18736   */\n    tag_346:\n        /* \"#utility.yul\":18749:18829   */\n      tag_347\n        /* \"#utility.yul\":18805:18827   */\n      tag_348\n        /* \"#utility.yul\":18823:18826   */\n      dup6\n        /* \"#utility.yul\":18805:18827   */\n      tag_158\n      jump\t// in\n    tag_348:\n        /* \"#utility.yul\":18795:18803   */\n      dup4\n        /* \"#utility.yul\":18791:18828   */\n      add\n        /* \"#utility.yul\":18778:18789   */\n      dup3\n        /* \"#utility.yul\":18749:18829   */\n      tag_167\n      jump\t// in\n    tag_347:\n        /* \"#utility.yul\":18408:18839   */\n      pop\n      pop\n        /* \"#utility.yul\":18393:18839   */\n    tag_343:\n        /* \"#utility.yul\":18303:18846   */\n      pop\n      pop\n      pop\n      jump\t// out\n        /* \"#utility.yul\":18852:18969   */\n    tag_169:\n        /* \"#utility.yul\":18906:18914   */\n      0x00\n        /* \"#utility.yul\":18956:18961   */\n      dup3\n        /* \"#utility.yul\":18950:18954   */\n      dup3\n        /* \"#utility.yul\":18946:18962   */\n      shr\n        /* \"#utility.yul\":18925:18962   */\n      swap1\n      pop\n        /* \"#utility.yul\":18852:18969   */\n      swap3\n      swap2\n      pop\n      pop\n      jump\t// out\n        /* \"#utility.yul\":18975:19144   */\n    tag_170:\n        /* \"#utility.yul\":19019:19025   */\n      0x00\n        /* \"#utility.yul\":19052:19103   */\n      tag_351\n        /* \"#utility.yul\":19100:19101   */\n      0x00\n        /* \"#utility.yul\":19096:19102   */\n      not\n        /* \"#utility.yul\":19088:19093   */\n      dup5\n        /* \"#utility.yul\":19085:19086   */\n      0x08\n        /* \"#utility.yul\":19081:19094   */\n      mul\n        /* \"#utility.yul\":19052:19103   */\n      tag_169\n      jump\t// in\n    tag_351:\n        /* \"#utility.yul\":19048:19104   */\n      not\n        /* \"#utility.yul\":19133:19137   */\n      dup1\n        /* \"#utility.yul\":19127:19131   */\n      dup4\n        /* \"#utility.yul\":19123:19138   */\n      and\n        /* \"#utility.yul\":19113:19138   */\n      swap2\n      pop\n        /* \"#utility.yul\":19026:19144   */\n      pop\n        /* \"#utility.yul\":18975:19144   */\n      swap3\n      swap2\n      pop\n      pop\n      jump\t// out\n        /* \"#utility.yul\":19149:19444   */\n    tag_171:\n        /* \"#utility.yul\":19225:19229   */\n      0x00\n        /* \"#utility.yul\":19371:19400   */\n      tag_353\n        /* \"#utility.yul\":19396:19399   */\n      dup4\n        /* \"#utility.yul\":19390:19394   */\n      dup4\n        /* \"#utility.yul\":19371:19400   */\n      tag_170\n      jump\t// in\n    tag_353:\n        /* \"#utility.yul\":19363:19400   */\n      swap2\n      pop\n        /* \"#utility.yul\":19433:19436   */\n      dup3\n        /* \"#utility.yul\":19430:19431   */\n      0x02\n        /* \"#utility.yul\":19426:19437   */\n      mul\n        /* \"#utility.yul\":19420:19424   */\n      dup3\n        /* \"#utility.yul\":19417:19438   */\n      or\n        /* \"#utility.yul\":19409:19438   */\n      swap1\n      pop\n        /* \"#utility.yul\":19149:19444   */\n      swap3\n      swap2\n      pop\n      pop\n      jump\t// out\n        /* \"#utility.yul\":19449:20844   */\n    tag_106:\n        /* \"#utility.yul\":19566:19603   */\n      tag_355\n        /* \"#utility.yul\":19599:19602   */\n      dup3\n        /* \"#utility.yul\":19566:19603   */\n      tag_122\n      jump\t// in\n    tag_355:\n        /* \"#utility.yul\":19668:19686   */\n      0xffffffffffffffff\n        /* \"#utility.yul\":19660:19666   */\n      dup2\n        /* \"#utility.yul\":19657:19687   */\n      gt\n        /* \"#utility.yul\":19654:19710   */\n      iszero\n      tag_356\n      jumpi\n        /* \"#utility.yul\":19690:19708   */\n      tag_357\n      tag_136\n      jump\t// in\n    tag_357:\n        /* \"#utility.yul\":19654:19710   */\n    tag_356:\n        /* \"#utility.yul\":19734:19772   */\n      tag_358\n        /* \"#utility.yul\":19766:19770   */\n      dup3\n        /* \"#utility.yul\":19760:19771   */\n      sload\n        /* \"#utility.yul\":19734:19772   */\n      tag_35\n      jump\t// in\n    tag_358:\n        /* \"#utility.yul\":19819:19886   */\n      tag_359\n        /* \"#utility.yul\":19879:19885   */\n      dup3\n        /* \"#utility.yul\":19871:19877   */\n      dup3\n        /* \"#utility.yul\":19865:19869   */\n      dup6\n        /* \"#utility.yul\":19819:19886   */\n      tag_168\n      jump\t// in\n    tag_359:\n        /* \"#utility.yul\":19913:19914   */\n      0x00\n        /* \"#utility.yul\":19937:19941   */\n      0x20\n        /* \"#utility.yul\":19924:19941   */\n      swap1\n      pop\n        /* \"#utility.yul\":19969:19971   */\n      0x1f\n        /* \"#utility.yul\":19961:19967   */\n      dup4\n        /* \"#utility.yul\":19958:19972   */\n      gt\n        /* \"#utility.yul\":19986:19987   */\n      0x01\n        /* \"#utility.yul\":19981:20599   */\n      dup2\n      eq\n      tag_361\n      jumpi\n        /* \"#utility.yul\":20643:20644   */\n      0x00\n        /* \"#utility.yul\":20660:20666   */\n      dup5\n        /* \"#utility.yul\":20657:20734   */\n      iszero\n      tag_362\n      jumpi\n        /* \"#utility.yul\":20709:20718   */\n      dup3\n        /* \"#utility.yul\":20704:20707   */\n      dup8\n        /* \"#utility.yul\":20700:20719   */\n      add\n        /* \"#utility.yul\":20694:20720   */\n      mload\n        /* \"#utility.yul\":20685:20720   */\n      swap1\n      pop\n        /* \"#utility.yul\":20657:20734   */\n    tag_362:\n        /* \"#utility.yul\":20760:20827   */\n      tag_363\n        /* \"#utility.yul\":20820:20826   */\n      dup6\n        /* \"#utility.yul\":20813:20818   */\n      dup3\n        /* \"#utility.yul\":20760:20827   */\n      tag_171\n      jump\t// in\n    tag_363:\n        /* \"#utility.yul\":20754:20758   */\n      dup7\n        /* \"#utility.yul\":20747:20828   */\n      sstore\n        /* \"#utility.yul\":20616:20838   */\n      pop\n        /* \"#utility.yul\":19951:20838   */\n      jump(tag_360)\n        /* \"#utility.yul\":19981:20599   */\n    tag_361:\n        /* \"#utility.yul\":20033:20037   */\n      0x1f\n        /* \"#utility.yul\":20029:20038   */\n      not\n        /* \"#utility.yul\":20021:20027   */\n      dup5\n        /* \"#utility.yul\":20017:20039   */\n      and\n        /* \"#utility.yul\":20067:20104   */\n      tag_364\n        /* \"#utility.yul\":20099:20103   */\n      dup7\n        /* \"#utility.yul\":20067:20104   */\n      tag_157\n      jump\t// in\n    tag_364:\n        /* \"#utility.yul\":20126:20127   */\n      0x00\n        /* \"#utility.yul\":20140:20348   */\n    tag_365:\n        /* \"#utility.yul\":20154:20161   */\n      dup3\n        /* \"#utility.yul\":20151:20152   */\n      dup2\n        /* \"#utility.yul\":20148:20162   */\n      lt\n        /* \"#utility.yul\":20140:20348   */\n      iszero\n      tag_367\n      jumpi\n        /* \"#utility.yul\":20233:20242   */\n      dup5\n        /* \"#utility.yul\":20228:20231   */\n      dup10\n        /* \"#utility.yul\":20224:20243   */\n      add\n        /* \"#utility.yul\":20218:20244   */\n      mload\n        /* \"#utility.yul\":20210:20216   */\n      dup3\n        /* \"#utility.yul\":20203:20245   */\n      sstore\n        /* \"#utility.yul\":20284:20285   */\n      0x01\n        /* \"#utility.yul\":20276:20282   */\n      dup3\n        /* \"#utility.yul\":20272:20286   */\n      add\n        /* \"#utility.yul\":20262:20286   */\n      swap2\n      pop\n        /* \"#utility.yul\":20331:20333   */\n      0x20\n        /* \"#utility.yul\":20320:20329   */\n      dup6\n        /* \"#utility.yul\":20316:20334   */\n      add\n        /* \"#utility.yul\":20303:20334   */\n      swap5\n      pop\n        /* \"#utility.yul\":20177:20181   */\n      0x20\n        /* \"#utility.yul\":20174:20175   */\n      dup2\n        /* \"#utility.yul\":20170:20182   */\n      add\n        /* \"#utility.yul\":20165:20182   */\n      swap1\n      pop\n        /* \"#utility.yul\":20140:20348   */\n      jump(tag_365)\n    tag_367:\n        /* \"#utility.yul\":20376:20382   */\n      dup7\n        /* \"#utility.yul\":20367:20374   */\n      dup4\n        /* \"#utility.yul\":20364:20383   */\n      lt\n        /* \"#utility.yul\":20361:20540   */\n      iszero\n      tag_368\n      jumpi\n        /* \"#utility.yul\":20434:20443   */\n      dup5\n        /* \"#utility.yul\":20429:20432   */\n      dup10\n        /* \"#utility.yul\":20425:20444   */\n      add\n        /* \"#utility.yul\":20419:20445   */\n      mload\n        /* \"#utility.yul\":20477:20525   */\n      tag_369\n        /* \"#utility.yul\":20519:20523   */\n      0x1f\n        /* \"#utility.yul\":20511:20517   */\n      dup10\n        /* \"#utility.yul\":20507:20524   */\n      and\n        /* \"#utility.yul\":20496:20505   */\n      dup3\n        /* \"#utility.yul\":20477:20525   */\n      tag_170\n      jump\t// in\n    tag_369:\n        /* \"#utility.yul\":20469:20475   */\n      dup4\n        /* \"#utility.yul\":20462:20526   */\n      sstore\n        /* \"#utility.yul\":20384:20540   */\n      pop\n        /* \"#utility.yul\":20361:20540   */\n    tag_368:\n        /* \"#utility.yul\":20586:20587   */\n      0x01\n        /* \"#utility.yul\":20582:20583   */\n      0x02\n        /* \"#utility.yul\":20574:20580   */\n      dup9\n        /* \"#utility.yul\":20570:20584   */\n      mul\n        /* \"#utility.yul\":20566:20588   */\n      add\n        /* \"#utility.yul\":20560:20564   */\n      dup9\n        /* \"#utility.yul\":20553:20589   */\n      sstore\n        /* \"#utility.yul\":19988:20599   */\n      pop\n      pop\n      pop\n        /* \"#utility.yul\":19951:20838   */\n    tag_360:\n      pop\n        /* \"#utility.yul\":19541:20844   */\n      pop\n      pop\n      pop\n        /* \"#utility.yul\":19449:20844   */\n      pop\n      pop\n      jump\t// out\n        /* \"#utility.yul\":20850:20999   */\n    tag_172:\n        /* \"#utility.yul\":20899:20905   */\n      0x00\n        /* \"#utility.yul\":20933:20938   */\n      dup2\n        /* \"#utility.yul\":20927:20939   */\n      sload\n        /* \"#utility.yul\":20917:20939   */\n      swap1\n      pop\n        /* \"#utility.yul\":20959:20992   */\n      tag_371\n        /* \"#utility.yul\":20985:20991   */\n      dup2\n        /* \"#utility.yul\":20959:20992   */\n      tag_35\n      jump\t// in\n    tag_371:\n        /* \"#utility.yul\":20949:20992   */\n      swap1\n      pop\n        /* \"#utility.yul\":20850:20999   */\n      swap2\n      swap1\n      pop\n      jump\t// out\n        /* \"#utility.yul\":21005:22456   */\n    tag_111:\n        /* \"#utility.yul\":21116:21119   */\n      dup2\n        /* \"#utility.yul\":21110:21114   */\n      dup2\n        /* \"#utility.yul\":21107:21120   */\n      sub\n        /* \"#utility.yul\":21104:21130   */\n      tag_373\n      jumpi\n        /* \"#utility.yul\":21123:21128   */\n      pop\n      pop\n      jump(tag_372)\n        /* \"#utility.yul\":21104:21130   */\n    tag_373:\n        /* \"#utility.yul\":21154:21188   */\n      tag_374\n        /* \"#utility.yul\":21184:21187   */\n      dup3\n        /* \"#utility.yul\":21154:21188   */\n      tag_172\n      jump\t// in\n    tag_374:\n        /* \"#utility.yul\":21253:21271   */\n      0xffffffffffffffff\n        /* \"#utility.yul\":21245:21251   */\n      dup2\n        /* \"#utility.yul\":21242:21272   */\n      gt\n        /* \"#utility.yul\":21239:21295   */\n      iszero\n      tag_375\n      jumpi\n        /* \"#utility.yul\":21275:21293   */\n      tag_376\n      tag_136\n      jump\t// in\n    tag_376:\n        /* \"#utility.yul\":21239:21295   */\n    tag_375:\n        /* \"#utility.yul\":21319:21357   */\n      tag_377\n        /* \"#utility.yul\":21351:21355   */\n      dup3\n        /* \"#utility.yul\":21345:21356   */\n      sload\n        /* \"#utility.yul\":21319:21357   */\n      tag_35\n      jump\t// in\n    tag_377:\n        /* \"#utility.yul\":21404:21471   */\n      tag_378\n        /* \"#utility.yul\":21464:21470   */\n      dup3\n        /* \"#utility.yul\":21456:21462   */\n      dup3\n        /* \"#utility.yul\":21450:21454   */\n      dup6\n        /* \"#utility.yul\":21404:21471   */\n      tag_168\n      jump\t// in\n    tag_378:\n        /* \"#utility.yul\":21498:21499   */\n      0x00\n        /* \"#utility.yul\":21527:21529   */\n      0x1f\n        /* \"#utility.yul\":21519:21525   */\n      dup4\n        /* \"#utility.yul\":21516:21530   */\n      gt\n        /* \"#utility.yul\":21544:21545   */\n      0x01\n        /* \"#utility.yul\":21539:22211   */\n      dup2\n      eq\n      tag_380\n      jumpi\n        /* \"#utility.yul\":22255:22256   */\n      0x00\n        /* \"#utility.yul\":22272:22278   */\n      dup5\n        /* \"#utility.yul\":22269:22346   */\n      iszero\n      tag_381\n      jumpi\n        /* \"#utility.yul\":22321:22330   */\n      dup3\n        /* \"#utility.yul\":22316:22319   */\n      dup8\n        /* \"#utility.yul\":22312:22331   */\n      add\n        /* \"#utility.yul\":22306:22332   */\n      sload\n        /* \"#utility.yul\":22297:22332   */\n      swap1\n      pop\n        /* \"#utility.yul\":22269:22346   */\n    tag_381:\n        /* \"#utility.yul\":22372:22439   */\n      tag_382\n        /* \"#utility.yul\":22432:22438   */\n      dup6\n        /* \"#utility.yul\":22425:22430   */\n      dup3\n        /* \"#utility.yul\":22372:22439   */\n      tag_171\n      jump\t// in\n    tag_382:\n        /* \"#utility.yul\":22366:22370   */\n      dup7\n        /* \"#utility.yul\":22359:22440   */\n      sstore\n        /* \"#utility.yul\":22228:22450   */\n      pop\n        /* \"#utility.yul\":21509:22450   */\n      jump(tag_379)\n        /* \"#utility.yul\":21539:22211   */\n    tag_380:\n        /* \"#utility.yul\":21591:21595   */\n      0x1f\n        /* \"#utility.yul\":21587:21596   */\n      not\n        /* \"#utility.yul\":21579:21585   */\n      dup5\n        /* \"#utility.yul\":21575:21597   */\n      and\n        /* \"#utility.yul\":21617:21653   */\n      tag_383\n        /* \"#utility.yul\":21649:21652   */\n      dup8\n        /* \"#utility.yul\":21617:21653   */\n      tag_157\n      jump\t// in\n    tag_383:\n        /* \"#utility.yul\":21610:21653   */\n      swap7\n      pop\n        /* \"#utility.yul\":21680:21717   */\n      tag_384\n        /* \"#utility.yul\":21712:21716   */\n      dup7\n        /* \"#utility.yul\":21680:21717   */\n      tag_157\n      jump\t// in\n    tag_384:\n        /* \"#utility.yul\":21739:21740   */\n      0x00\n        /* \"#utility.yul\":21753:21960   */\n    tag_385:\n        /* \"#utility.yul\":21767:21774   */\n      dup3\n        /* \"#utility.yul\":21764:21765   */\n      dup2\n        /* \"#utility.yul\":21761:21775   */\n      lt\n        /* \"#utility.yul\":21753:21960   */\n      iszero\n      tag_387\n      jumpi\n        /* \"#utility.yul\":21846:21855   */\n      dup5\n        /* \"#utility.yul\":21841:21844   */\n      dup10\n        /* \"#utility.yul\":21837:21856   */\n      add\n        /* \"#utility.yul\":21831:21857   */\n      sload\n        /* \"#utility.yul\":21823:21829   */\n      dup3\n        /* \"#utility.yul\":21816:21858   */\n      sstore\n        /* \"#utility.yul\":21897:21898   */\n      0x01\n        /* \"#utility.yul\":21889:21895   */\n      dup3\n        /* \"#utility.yul\":21885:21899   */\n      add\n        /* \"#utility.yul\":21875:21899   */\n      swap2\n      pop\n        /* \"#utility.yul\":21944:21945   */\n      0x01\n        /* \"#utility.yul\":21933:21942   */\n      dup6\n        /* \"#utility.yul\":21929:21946   */\n      add\n        /* \"#utility.yul\":21916:21946   */\n      swap5\n      pop\n        /* \"#utility.yul\":21790:21794   */\n      0x20\n        /* \"#utility.yul\":21787:21788   */\n      dup2\n        /* \"#utility.yul\":21783:21795   */\n      add\n        /* \"#utility.yul\":21778:21795   */\n      swap1\n      pop\n        /* \"#utility.yul\":21753:21960   */\n      jump(tag_385)\n    tag_387:\n        /* \"#utility.yul\":21988:21994   */\n      dup7\n        /* \"#utility.yul\":21979:21986   */\n      dup4\n        /* \"#utility.yul\":21976:21995   */\n      lt\n        /* \"#utility.yul\":21973:22152   */\n      iszero\n      tag_388\n      jumpi\n        /* \"#utility.yul\":22046:22055   */\n      dup5\n        /* \"#utility.yul\":22041:22044   */\n      dup10\n        /* \"#utility.yul\":22037:22056   */\n      add\n        /* \"#utility.yul\":22031:22057   */\n      sload\n        /* \"#utility.yul\":22089:22137   */\n      tag_389\n        /* \"#utility.yul\":22131:22135   */\n      0x1f\n        /* \"#utility.yul\":22123:22129   */\n      dup10\n        /* \"#utility.yul\":22119:22136   */\n      and\n        /* \"#utility.yul\":22108:22117   */\n      dup3\n        /* \"#utility.yul\":22089:22137   */\n      tag_170\n      jump\t// in\n    tag_389:\n        /* \"#utility.yul\":22081:22087   */\n      dup4\n        /* \"#utility.yul\":22074:22138   */\n      sstore\n        /* \"#utility.yul\":21996:22152   */\n      pop\n        /* \"#utility.yul\":21973:22152   */\n    tag_388:\n        /* \"#utility.yul\":22198:22199   */\n      0x01\n        /* \"#utility.yul\":22194:22195   */\n      0x02\n        /* \"#utility.yul\":22186:22192   */\n      dup9\n        /* \"#utility.yul\":22182:22196   */\n      mul\n        /* \"#utility.yul\":22178:22200   */\n      add\n        /* \"#utility.yul\":22172:22176   */\n      dup9\n        /* \"#utility.yul\":22165:22201   */\n      sstore\n        /* \"#utility.yul\":21546:22211   */\n      pop\n      pop\n      pop\n        /* \"#utility.yul\":21509:22450   */\n    tag_379:\n      pop\n        /* \"#utility.yul\":21094:22456   */\n      pop\n      pop\n      pop\n        /* \"#utility.yul\":21005:22456   */\n      pop\n      pop\n    tag_372:\n      jump\t// out\n\n    auxdata: 0xa2646970667358221220af666bdd4387e92fcee2bffd6ab96fc4f7725dfb02af908c0e00cf7bb2cc425d64736f6c634300081f0033\n}\n",
				"bytecode": {
					"linkReferences": {},
					"object": "6080604052348015600e575f5ffd5b506117098061001c5f395ff3fe608060405234801561000f575f5ffd5b5060043610610055575f3560e01c80633088c00f14610059578063418b79ab1461008f578063513073b8146100bf57806368744046146100ef57806369c4682614610125575b5f5ffd5b610073600480360381019061006e9190610bc6565b610141565b6040516100869796959493929190610c8a565b60405180910390f35b6100a960048036038101906100a49190610bc6565b610338565b6040516100b69190610e19565b60405180910390f35b6100d960048036038101906100d49190610bc6565b6105bc565b6040516100e69190610e39565b60405180910390f35b61010960048036038101906101049190610bc6565b6105dc565b60405161011c9796959493929190610c8a565b60405180910390f35b61013f600480360381019061013a9190610f7e565b6107c5565b005b5f818154811061014f575f80fd5b905f5260205f2090600602015f91509050805f0154908060010180546101749061104f565b80601f01602080910402602001604051908101604052809291908181526020018280546101a09061104f565b80156101eb5780601f106101c2576101008083540402835291602001916101eb565b820191905f5260205f20905b8154815290600101906020018083116101ce57829003601f168201915b5050505050908060020180546102009061104f565b80601f016020809104026020016040519081016040528092919081815260200182805461022c9061104f565b80156102775780601f1061024e57610100808354040283529160200191610277565b820191905f5260205f20905b81548152906001019060200180831161025a57829003601f168201915b50505050509080600301805461028c9061104f565b80601f01602080910402602001604051908101604052809291908181526020018280546102b89061104f565b80156103035780601f106102da57610100808354040283529160200191610303565b820191905f5260205f20905b8154815290600101906020018083116102e657829003601f168201915b505050505090806004015f9054906101000a900460ff16908060040160019054906101000a900460ff16908060050154905087565b610340610b45565b60025f8381526020019081526020015f2060040160019054906101000a900460ff166103a1576040517f08c379a0000000000000000000000000000000000000000000000000000000008152600401610398906110c9565b60405180910390fd5b60025f8381526020019081526020015f206040518060e00160405290815f82015481526020016001820180546103d69061104f565b80601f01602080910402602001604051908101604052809291908181526020018280546104029061104f565b801561044d5780601f106104245761010080835404028352916020019161044d565b820191905f5260205f20905b81548152906001019060200180831161043057829003601f168201915b505050505081526020016002820180546104669061104f565b80601f01602080910402602001604051908101604052809291908181526020018280546104929061104f565b80156104dd5780601f106104b4576101008083540402835291602001916104dd565b820191905f5260205f20905b8154815290600101906020018083116104c057829003601f168201915b505050505081526020016003820180546104f69061104f565b80601f01602080910402602001604051908101604052809291908181526020018280546105229061104f565b801561056d5780601f106105445761010080835404028352916020019161056d565b820191905f5260205f20905b81548152906001019060200180831161055057829003601f168201915b50505050508152602001600482015f9054906101000a900460ff161515151581526020016004820160019054906101000a900460ff161515151581526020016005820154815250509050919050565b600181815481106105cb575f80fd5b905f5260205f20015f915090505481565b6002602052805f5260405f205f91509050805f0154908060010180546106019061104f565b80601f016020809104026020016040519081016040528092919081815260200182805461062d9061104f565b80156106785780601f1061064f57610100808354040283529160200191610678565b820191905f5260205f20905b81548152906001019060200180831161065b57829003601f168201915b50505050509080600201805461068d9061104f565b80601f01602080910402602001604051908101604052809291908181526020018280546106b99061104f565b80156107045780601f106106db57610100808354040283529160200191610704565b820191905f5260205f20905b8154815290600101906020018083116106e757829003601f168201915b5050505050908060030180546107199061104f565b80601f01602080910402602001604051908101604052809291908181526020018280546107459061104f565b80156107905780601f1061076757610100808354040283529160200191610790565b820191905f5260205f20905b81548152906001019060200180831161077357829003601f168201915b505050505090806004015f9054906101000a900460ff16908060040160019054906101000a900460ff16908060050154905087565b5f835111610808576040517f08c379a00000000000000000000000000000000000000000000000000000000081526004016107ff90611131565b60405180910390fd5b5f82511161084b576040517f08c379a000000000000000000000000000000000000000000000000000000000815260040161084290611199565b60405180910390fd5b5f81511161088e576040517f08c379a000000000000000000000000000000000000000000000000000000000815260040161088590611201565b60405180910390fd5b5f83836040516020016108a2929190611259565b60405160208183030381529060405280519060200120905060035f8281526020019081526020015f205f9054906101000a900460ff1615610918576040517f08c379a000000000000000000000000000000000000000000000000000000000815260040161090f906112ec565b60405180910390fd5b600160035f8381526020019081526020015f205f6101000a81548160ff0219169083151502179055505f60015f805490506109539190611337565b90506040518060e001604052808281526020018681526020018581526020018481526020016001151581526020016001151581526020014281525060025f8381526020019081526020015f205f820151815f015560208201518160010190816109bc919061150a565b5060408201518160020190816109d2919061150a565b5060608201518160030190816109e8919061150a565b506080820151816004015f6101000a81548160ff02191690831515021790555060a08201518160040160016101000a81548160ff02191690831515021790555060c082015181600501559050505f60025f8381526020019081526020015f20908060018154018082558091505060019003905f5260205f2090600602015f909190919091505f820154815f015560018201816001019081610a8991906115ee565b5060028201816002019081610a9e91906115ee565b5060038201816003019081610ab391906115ee565b50600482015f9054906101000a900460ff16816004015f6101000a81548160ff0219169083151502179055506004820160019054906101000a900460ff168160040160016101000a81548160ff021916908315150217905550600582015481600501555050600181908060018154018082558091505060019003905f5260205f20015f90919091909150555050505050565b6040518060e001604052805f81526020016060815260200160608152602001606081526020015f151581526020015f151581526020015f81525090565b5f604051905090565b5f5ffd5b5f5ffd5b5f819050919050565b610ba581610b93565b8114610baf575f5ffd5b50565b5f81359050610bc081610b9c565b92915050565b5f60208284031215610bdb57610bda610b8b565b5b5f610be884828501610bb2565b91505092915050565b610bfa81610b93565b82525050565b5f81519050919050565b5f82825260208201905092915050565b8281835e5f83830152505050565b5f601f19601f8301169050919050565b5f610c4282610c00565b610c4c8185610c0a565b9350610c5c818560208601610c1a565b610c6581610c28565b840191505092915050565b5f8115159050919050565b610c8481610c70565b82525050565b5f60e082019050610c9d5f83018a610bf1565b8181036020830152610caf8189610c38565b90508181036040830152610cc38188610c38565b90508181036060830152610cd78187610c38565b9050610ce66080830186610c7b565b610cf360a0830185610c7b565b610d0060c0830184610bf1565b98975050505050505050565b610d1581610b93565b82525050565b5f82825260208201905092915050565b5f610d3582610c00565b610d3f8185610d1b565b9350610d4f818560208601610c1a565b610d5881610c28565b840191505092915050565b610d6c81610c70565b82525050565b5f60e083015f830151610d875f860182610d0c565b5060208301518482036020860152610d9f8282610d2b565b91505060408301518482036040860152610db98282610d2b565b91505060608301518482036060860152610dd38282610d2b565b9150506080830151610de86080860182610d63565b5060a0830151610dfb60a0860182610d63565b5060c0830151610e0e60c0860182610d0c565b508091505092915050565b5f6020820190508181035f830152610e318184610d72565b905092915050565b5f602082019050610e4c5f830184610bf1565b92915050565b5f5ffd5b5f5ffd5b7f4e487b71000000000000000000000000000000000000000000000000000000005f52604160045260245ffd5b610e9082610c28565b810181811067ffffffffffffffff82111715610eaf57610eae610e5a565b5b80604052505050565b5f610ec1610b82565b9050610ecd8282610e87565b919050565b5f67ffffffffffffffff821115610eec57610eeb610e5a565b5b610ef582610c28565b9050602081019050919050565b828183375f83830152505050565b5f610f22610f1d84610ed2565b610eb8565b905082815260208101848484011115610f3e57610f3d610e56565b5b610f49848285610f02565b509392505050565b5f82601f830112610f6557610f64610e52565b5b8135610f75848260208601610f10565b91505092915050565b5f5f5f60608486031215610f9557610f94610b8b565b5b5f84013567ffffffffffffffff811115610fb257610fb1610b8f565b5b610fbe86828701610f51565b935050602084013567ffffffffffffffff811115610fdf57610fde610b8f565b5b610feb86828701610f51565b925050604084013567ffffffffffffffff81111561100c5761100b610b8f565b5b61101886828701610f51565b9150509250925092565b7f4e487b71000000000000000000000000000000000000000000000000000000005f52602260045260245ffd5b5f600282049050600182168061106657607f821691505b60208210810361107957611078611022565b5b50919050565b7f426f6f6b206e6f7420666f756e640000000000000000000000000000000000005f82015250565b5f6110b3600e83610c0a565b91506110be8261107f565b602082019050919050565b5f6020820190508181035f8301526110e0816110a7565b9050919050565b7f5469746c652063616e6e6f7420626520656d70747921000000000000000000005f82015250565b5f61111b601683610c0a565b9150611126826110e7565b602082019050919050565b5f6020820190508181035f8301526111488161110f565b9050919050565b7f417574686f722063616e6e6f7420626520656d707479210000000000000000005f82015250565b5f611183601783610c0a565b915061118e8261114f565b602082019050919050565b5f6020820190508181035f8301526111b081611177565b9050919050565b7f47656e72652063616e6e6f7420626520656d70747921000000000000000000005f82015250565b5f6111eb601683610c0a565b91506111f6826111b7565b602082019050919050565b5f6020820190508181035f830152611218816111df565b9050919050565b5f81905092915050565b5f61123382610c00565b61123d818561121f565b935061124d818560208601610c1a565b80840191505092915050565b5f6112648285611229565b91506112708284611229565b91508190509392505050565b7f5468697320626f6f6b206279207468697320617574686f7220616c72656164795f8201527f2065786973747321000000000000000000000000000000000000000000000000602082015250565b5f6112d6602883610c0a565b91506112e18261127c565b604082019050919050565b5f6020820190508181035f830152611303816112ca565b9050919050565b7f4e487b71000000000000000000000000000000000000000000000000000000005f52601160045260245ffd5b5f61134182610b93565b915061134c83610b93565b92508282019050808211156113645761136361130a565b5b92915050565b5f819050815f5260205f209050919050565b5f6020601f8301049050919050565b5f82821b905092915050565b5f600883026113c67fffffffffffffffffffffffffffffffffffffffffffffffffffffffffffffffff8261138b565b6113d0868361138b565b95508019841693508086168417925050509392505050565b5f819050919050565b5f61140b61140661140184610b93565b6113e8565b610b93565b9050919050565b5f819050919050565b611424836113f1565b61143861143082611412565b848454611397565b825550505050565b5f5f905090565b61144f611440565b61145a81848461141b565b505050565b5b8181101561147d576114725f82611447565b600181019050611460565b5050565b601f8211156114c2576114938161136a565b61149c8461137c565b810160208510156114ab578190505b6114bf6114b78561137c565b83018261145f565b50505b505050565b5f82821c905092915050565b5f6114e25f19846008026114c7565b1980831691505092915050565b5f6114fa83836114d3565b9150826002028217905092915050565b61151382610c00565b67ffffffffffffffff81111561152c5761152b610e5a565b5b611536825461104f565b611541828285611481565b5f60209050601f831160018114611572575f8415611560578287015190505b61156a85826114ef565b8655506115d1565b601f1984166115808661136a565b5f5b828110156115a757848901518255600182019150602085019450602081019050611582565b868310156115c457848901516115c0601f8916826114d3565b8355505b6001600288020188555050505b505050505050565b5f815490506115e78161104f565b9050919050565b8181036115fc5750506116d1565b611605826115d9565b67ffffffffffffffff81111561161e5761161d610e5a565b5b611628825461104f565b611633828285611481565b5f601f831160018114611660575f841561164e578287015490505b61165885826114ef565b8655506116ca565b601f19841661166e8761136a565b96506116798661136a565b5f5b828110156116a05784890154825560018201915060018501945060208101905061167b565b868310156116bd57848901546116b9601f8916826114d3565b8355505b6001600288020188555050505b5050505050505b56fea2646970667358221220af666bdd4387e92fcee2bffd6ab96fc4f7725dfb02af908c0e00cf7bb2cc425d64736f6c634300081f0033",
					"opcodes": "PUSH1 0x80 PUSH1 0x40 MSTORE CALLVALUE DUP1 ISZERO PUSH1 0xE JUMPI PUSH0 PUSH0 REVERT JUMPDEST POP PUSH2 0x1709 DUP1 PUSH2 0x1C PUSH0 CODECOPY PUSH0 RETURN INVALID PUSH1 0x80 PUSH1 0x40 MSTORE CALLVALUE DUP1 ISZERO PUSH2 0xF JUMPI PUSH0 PUSH0 REVERT JUMPDEST POP PUSH1 0x4 CALLDATASIZE LT PUSH2 0x55 JUMPI PUSH0 CALLDATALOAD PUSH1 0xE0 SHR DUP1 PUSH4 0x3088C00F EQ PUSH2 0x59 JUMPI DUP1 PUSH4 0x418B79AB EQ PUSH2 0x8F JUMPI DUP1 PUSH4 0x513073B8 EQ PUSH2 0xBF JUMPI DUP1 PUSH4 0x68744046 EQ PUSH2 0xEF JUMPI DUP1 PUSH4 0x69C46826 EQ PUSH2 0x125 JUMPI JUMPDEST PUSH0 PUSH0 REVERT JUMPDEST PUSH2 0x73 PUSH1 0x4 DUP1 CALLDATASIZE SUB DUP2 ADD SWAP1 PUSH2 0x6E SWAP2 SWAP1 PUSH2 0xBC6 JUMP JUMPDEST PUSH2 0x141 JUMP JUMPDEST PUSH1 0x40 MLOAD PUSH2 0x86 SWAP8 SWAP7 SWAP6 SWAP5 SWAP4 SWAP3 SWAP2 SWAP1 PUSH2 0xC8A JUMP JUMPDEST PUSH1 0x40 MLOAD DUP1 SWAP2 SUB SWAP1 RETURN JUMPDEST PUSH2 0xA9 PUSH1 0x4 DUP1 CALLDATASIZE SUB DUP2 ADD SWAP1 PUSH2 0xA4 SWAP2 SWAP1 PUSH2 0xBC6 JUMP JUMPDEST PUSH2 0x338 JUMP JUMPDEST PUSH1 0x40 MLOAD PUSH2 0xB6 SWAP2 SWAP1 PUSH2 0xE19 JUMP JUMPDEST PUSH1 0x40 MLOAD DUP1 SWAP2 SUB SWAP1 RETURN JUMPDEST PUSH2 0xD9 PUSH1 0x4 DUP1 CALLDATASIZE SUB DUP2 ADD SWAP1 PUSH2 0xD4 SWAP2 SWAP1 PUSH2 0xBC6 JUMP JUMPDEST PUSH2 0x5BC JUMP JUMPDEST PUSH1 0x40 MLOAD PUSH2 0xE6 SWAP2 SWAP1 PUSH2 0xE39 JUMP JUMPDEST PUSH1 0x40 MLOAD DUP1 SWAP2 SUB SWAP1 RETURN JUMPDEST PUSH2 0x109 PUSH1 0x4 DUP1 CALLDATASIZE SUB DUP2 ADD SWAP1 PUSH2 0x104 SWAP2 SWAP1 PUSH2 0xBC6 JUMP JUMPDEST PUSH2 0x5DC JUMP JUMPDEST PUSH1 0x40 MLOAD PUSH2 0x11C SWAP8 SWAP7 SWAP6 SWAP5 SWAP4 SWAP3 SWAP2 SWAP1 PUSH2 0xC8A JUMP JUMPDEST PUSH1 0x40 MLOAD DUP1 SWAP2 SUB SWAP1 RETURN JUMPDEST PUSH2 0x13F PUSH1 0x4 DUP1 CALLDATASIZE SUB DUP2 ADD SWAP1 PUSH2 0x13A SWAP2 SWAP1 PUSH2 0xF7E JUMP JUMPDEST PUSH2 0x7C5 JUMP JUMPDEST STOP JUMPDEST PUSH0 DUP2 DUP2 SLOAD DUP2 LT PUSH2 0x14F JUMPI PUSH0 DUP1 REVERT JUMPDEST SWAP1 PUSH0 MSTORE PUSH1 0x20 PUSH0 KECCAK256 SWAP1 PUSH1 0x6 MUL ADD PUSH0 SWAP2 POP SWAP1 POP DUP1 PUSH0 ADD SLOAD SWAP1 DUP1 PUSH1 0x1 ADD DUP1 SLOAD PUSH2 0x174 SWAP1 PUSH2 0x104F JUMP JUMPDEST DUP1 PUSH1 0x1F ADD PUSH1 0x20 DUP1 SWAP2 DIV MUL PUSH1 0x20 ADD PUSH1 0x40 MLOAD SWAP1 DUP2 ADD PUSH1 0x40 MSTORE DUP1 SWAP3 SWAP2 SWAP1 DUP2 DUP2 MSTORE PUSH1 0x20 ADD DUP3 DUP1 SLOAD PUSH2 0x1A0 SWAP1 PUSH2 0x104F JUMP JUMPDEST DUP1 ISZERO PUSH2 0x1EB JUMPI DUP1 PUSH1 0x1F LT PUSH2 0x1C2 JUMPI PUSH2 0x100 DUP1 DUP4 SLOAD DIV MUL DUP4 MSTORE SWAP2 PUSH1 0x20 ADD SWAP2 PUSH2 0x1EB JUMP JUMPDEST DUP3 ADD SWAP2 SWAP1 PUSH0 MSTORE PUSH1 0x20 PUSH0 KECCAK256 SWAP1 JUMPDEST DUP2 SLOAD DUP2 MSTORE SWAP1 PUSH1 0x1 ADD SWAP1 PUSH1 0x20 ADD DUP1 DUP4 GT PUSH2 0x1CE JUMPI DUP3 SWAP1 SUB PUSH1 0x1F AND DUP3 ADD SWAP2 JUMPDEST POP POP POP POP POP SWAP1 DUP1 PUSH1 0x2 ADD DUP1 SLOAD PUSH2 0x200 SWAP1 PUSH2 0x104F JUMP JUMPDEST DUP1 PUSH1 0x1F ADD PUSH1 0x20 DUP1 SWAP2 DIV MUL PUSH1 0x20 ADD PUSH1 0x40 MLOAD SWAP1 DUP2 ADD PUSH1 0x40 MSTORE DUP1 SWAP3 SWAP2 SWAP1 DUP2 DUP2 MSTORE PUSH1 0x20 ADD DUP3 DUP1 SLOAD PUSH2 0x22C SWAP1 PUSH2 0x104F JUMP JUMPDEST DUP1 ISZERO PUSH2 0x277 JUMPI DUP1 PUSH1 0x1F LT PUSH2 0x24E JUMPI PUSH2 0x100 DUP1 DUP4 SLOAD DIV MUL DUP4 MSTORE SWAP2 PUSH1 0x20 ADD SWAP2 PUSH2 0x277 JUMP JUMPDEST DUP3 ADD SWAP2 SWAP1 PUSH0 MSTORE PUSH1 0x20 PUSH0 KECCAK256 SWAP1 JUMPDEST DUP2 SLOAD DUP2 MSTORE SWAP1 PUSH1 0x1 ADD SWAP1 PUSH1 0x20 ADD DUP1 DUP4 GT PUSH2 0x25A JUMPI DUP3 SWAP1 SUB PUSH1 0x1F AND DUP3 ADD SWAP2 JUMPDEST POP POP POP POP POP SWAP1 DUP1 PUSH1 0x3 ADD DUP1 SLOAD PUSH2 0x28C SWAP1 PUSH2 0x104F JUMP JUMPDEST DUP1 PUSH1 0x1F ADD PUSH1 0x20 DUP1 SWAP2 DIV MUL PUSH1 0x20 ADD PUSH1 0x40 MLOAD SWAP1 DUP2 ADD PUSH1 0x40 MSTORE DUP1 SWAP3 SWAP2 SWAP1 DUP2 DUP2 MSTORE PUSH1 0x20 ADD DUP3 DUP1 SLOAD PUSH2 0x2B8 SWAP1 PUSH2 0x104F JUMP JUMPDEST DUP1 ISZERO PUSH2 0x303 JUMPI DUP1 PUSH1 0x1F LT PUSH2 0x2DA JUMPI PUSH2 0x100 DUP1 DUP4 SLOAD DIV MUL DUP4 MSTORE SWAP2 PUSH1 0x20 ADD SWAP2 PUSH2 0x303 JUMP JUMPDEST DUP3 ADD SWAP2 SWAP1 PUSH0 MSTORE PUSH1 0x20 PUSH0 KECCAK256 SWAP1 JUMPDEST DUP2 SLOAD DUP2 MSTORE SWAP1 PUSH1 0x1 ADD SWAP1 PUSH1 0x20 ADD DUP1 DUP4 GT PUSH2 0x2E6 JUMPI DUP3 SWAP1 SUB PUSH1 0x1F AND DUP3 ADD SWAP2 JUMPDEST POP POP POP POP POP SWAP1 DUP1 PUSH1 0x4 ADD PUSH0 SWAP1 SLOAD SWAP1 PUSH2 0x100 EXP SWAP1 DIV PUSH1 0xFF AND SWAP1 DUP1 PUSH1 0x4 ADD PUSH1 0x1 SWAP1 SLOAD SWAP1 PUSH2 0x100 EXP SWAP1 DIV PUSH1 0xFF AND SWAP1 DUP1 PUSH1 0x5 ADD SLOAD SWAP1 POP DUP8 JUMP JUMPDEST PUSH2 0x340 PUSH2 0xB45 JUMP JUMPDEST PUSH1 0x2 PUSH0 DUP4 DUP2 MSTORE PUSH1 0x20 ADD SWAP1 DUP2 MSTORE PUSH1 0x20 ADD PUSH0 KECCAK256 PUSH1 0x4 ADD PUSH1 0x1 SWAP1 SLOAD SWAP1 PUSH2 0x100 EXP SWAP1 DIV PUSH1 0xFF AND PUSH2 0x3A1 JUMPI PUSH1 0x40 MLOAD PUSH32 0x8C379A000000000000000000000000000000000000000000000000000000000 DUP2 MSTORE PUSH1 0x4 ADD PUSH2 0x398 SWAP1 PUSH2 0x10C9 JUMP JUMPDEST PUSH1 0x40 MLOAD DUP1 SWAP2 SUB SWAP1 REVERT JUMPDEST PUSH1 0x2 PUSH0 DUP4 DUP2 MSTORE PUSH1 0x20 ADD SWAP1 DUP2 MSTORE PUSH1 0x20 ADD PUSH0 KECCAK256 PUSH1 0x40 MLOAD DUP1 PUSH1 0xE0 ADD PUSH1 0x40 MSTORE SWAP1 DUP2 PUSH0 DUP3 ADD SLOAD DUP2 MSTORE PUSH1 0x20 ADD PUSH1 0x1 DUP3 ADD DUP1 SLOAD PUSH2 0x3D6 SWAP1 PUSH2 0x104F JUMP JUMPDEST DUP1 PUSH1 0x1F ADD PUSH1 0x20 DUP1 SWAP2 DIV MUL PUSH1 0x20 ADD PUSH1 0x40 MLOAD SWAP1 DUP2 ADD PUSH1 0x40 MSTORE DUP1 SWAP3 SWAP2 SWAP1 DUP2 DUP2 MSTORE PUSH1 0x20 ADD DUP3 DUP1 SLOAD PUSH2 0x402 SWAP1 PUSH2 0x104F JUMP JUMPDEST DUP1 ISZERO PUSH2 0x44D JUMPI DUP1 PUSH1 0x1F LT PUSH2 0x424 JUMPI PUSH2 0x100 DUP1 DUP4 SLOAD DIV MUL DUP4 MSTORE SWAP2 PUSH1 0x20 ADD SWAP2 PUSH2 0x44D JUMP JUMPDEST DUP3 ADD SWAP2 SWAP1 PUSH0 MSTORE PUSH1 0x20 PUSH0 KECCAK256 SWAP1 JUMPDEST DUP2 SLOAD DUP2 MSTORE SWAP1 PUSH1 0x1 ADD SWAP1 PUSH1 0x20 ADD DUP1 DUP4 GT PUSH2 0x430 JUMPI DUP3 SWAP1 SUB PUSH1 0x1F AND DUP3 ADD SWAP2 JUMPDEST POP POP POP POP POP DUP2 MSTORE PUSH1 0x20 ADD PUSH1 0x2 DUP3 ADD DUP1 SLOAD PUSH2 0x466 SWAP1 PUSH2 0x104F JUMP JUMPDEST DUP1 PUSH1 0x1F ADD PUSH1 0x20 DUP1 SWAP2 DIV MUL PUSH1 0x20 ADD PUSH1 0x40 MLOAD SWAP1 DUP2 ADD PUSH1 0x40 MSTORE DUP1 SWAP3 SWAP2 SWAP1 DUP2 DUP2 MSTORE PUSH1 0x20 ADD DUP3 DUP1 SLOAD PUSH2 0x492 SWAP1 PUSH2 0x104F JUMP JUMPDEST DUP1 ISZERO PUSH2 0x4DD JUMPI DUP1 PUSH1 0x1F LT PUSH2 0x4B4 JUMPI PUSH2 0x100 DUP1 DUP4 SLOAD DIV MUL DUP4 MSTORE SWAP2 PUSH1 0x20 ADD SWAP2 PUSH2 0x4DD JUMP JUMPDEST DUP3 ADD SWAP2 SWAP1 PUSH0 MSTORE PUSH1 0x20 PUSH0 KECCAK256 SWAP1 JUMPDEST DUP2 SLOAD DUP2 MSTORE SWAP1 PUSH1 0x1 ADD SWAP1 PUSH1 0x20 ADD DUP1 DUP4 GT PUSH2 0x4C0 JUMPI DUP3 SWAP1 SUB PUSH1 0x1F AND DUP3 ADD SWAP2 JUMPDEST POP POP POP POP POP DUP2 MSTORE PUSH1 0x20 ADD PUSH1 0x3 DUP3 ADD DUP1 SLOAD PUSH2 0x4F6 SWAP1 PUSH2 0x104F JUMP JUMPDEST DUP1 PUSH1 0x1F ADD PUSH1 0x20 DUP1 SWAP2 DIV MUL PUSH1 0x20 ADD PUSH1 0x40 MLOAD SWAP1 DUP2 ADD PUSH1 0x40 MSTORE DUP1 SWAP3 SWAP2 SWAP1 DUP2 DUP2 MSTORE PUSH1 0x20 ADD DUP3 DUP1 SLOAD PUSH2 0x522 SWAP1 PUSH2 0x104F JUMP JUMPDEST DUP1 ISZERO PUSH2 0x56D JUMPI DUP1 PUSH1 0x1F LT PUSH2 0x544 JUMPI PUSH2 0x100 DUP1 DUP4 SLOAD DIV MUL DUP4 MSTORE SWAP2 PUSH1 0x20 ADD SWAP2 PUSH2 0x56D JUMP JUMPDEST DUP3 ADD SWAP2 SWAP1 PUSH0 MSTORE PUSH1 0x20 PUSH0 KECCAK256 SWAP1 JUMPDEST DUP2 SLOAD DUP2 MSTORE SWAP1 PUSH1 0x1 ADD SWAP1 PUSH1 0x20 ADD DUP1 DUP4 GT PUSH2 0x550 JUMPI DUP3 SWAP1 SUB PUSH1 0x1F AND DUP3 ADD SWAP2 JUMPDEST POP POP POP POP POP DUP2 MSTORE PUSH1 0x20 ADD PUSH1 0x4 DUP3 ADD PUSH0 SWAP1 SLOAD SWAP1 PUSH2 0x100 EXP SWAP1 DIV PUSH1 0xFF AND ISZERO ISZERO ISZERO ISZERO DUP2 MSTORE PUSH1 0x20 ADD PUSH1 0x4 DUP3 ADD PUSH1 0x1 SWAP1 SLOAD SWAP1 PUSH2 0x100 EXP SWAP1 DIV PUSH1 0xFF AND ISZERO ISZERO ISZERO ISZERO DUP2 MSTORE PUSH1 0x20 ADD PUSH1 0x5 DUP3 ADD SLOAD DUP2 MSTORE POP POP SWAP1 POP SWAP2 SWAP1 POP JUMP JUMPDEST PUSH1 0x1 DUP2 DUP2 SLOAD DUP2 LT PUSH2 0x5CB JUMPI PUSH0 DUP1 REVERT JUMPDEST SWAP1 PUSH0 MSTORE PUSH1 0x20 PUSH0 KECCAK256 ADD PUSH0 SWAP2 POP SWAP1 POP SLOAD DUP2 JUMP JUMPDEST PUSH1 0x2 PUSH1 0x20 MSTORE DUP1 PUSH0 MSTORE PUSH1 0x40 PUSH0 KECCAK256 PUSH0 SWAP2 POP SWAP1 POP DUP1 PUSH0 ADD SLOAD SWAP1 DUP1 PUSH1 0x1 ADD DUP1 SLOAD PUSH2 0x601 SWAP1 PUSH2 0x104F JUMP JUMPDEST DUP1 PUSH1 0x1F ADD PUSH1 0x20 DUP1 SWAP2 DIV MUL PUSH1 0x20 ADD PUSH1 0x40 MLOAD SWAP1 DUP2 ADD PUSH1 0x40 MSTORE DUP1 SWAP3 SWAP2 SWAP1 DUP2 DUP2 MSTORE PUSH1 0x20 ADD DUP3 DUP1 SLOAD PUSH2 0x62D SWAP1 PUSH2 0x104F JUMP JUMPDEST DUP1 ISZERO PUSH2 0x678 JUMPI DUP1 PUSH1 0x1F LT PUSH2 0x64F JUMPI PUSH2 0x100 DUP1 DUP4 SLOAD DIV MUL DUP4 MSTORE SWAP2 PUSH1 0x20 ADD SWAP2 PUSH2 0x678 JUMP JUMPDEST DUP3 ADD SWAP2 SWAP1 PUSH0 MSTORE PUSH1 0x20 PUSH0 KECCAK256 SWAP1 JUMPDEST DUP2 SLOAD DUP2 MSTORE SWAP1 PUSH1 0x1 ADD SWAP1 PUSH1 0x20 ADD DUP1 DUP4 GT PUSH2 0x65B JUMPI DUP3 SWAP1 SUB PUSH1 0x1F AND DUP3 ADD SWAP2 JUMPDEST POP POP POP POP POP SWAP1 DUP1 PUSH1 0x2 ADD DUP1 SLOAD PUSH2 0x68D SWAP1 PUSH2 0x104F JUMP JUMPDEST DUP1 PUSH1 0x1F ADD PUSH1 0x20 DUP1 SWAP2 DIV MUL PUSH1 0x20 ADD PUSH1 0x40 MLOAD SWAP1 DUP2 ADD PUSH1 0x40 MSTORE DUP1 SWAP3 SWAP2 SWAP1 DUP2 DUP2 MSTORE PUSH1 0x20 ADD DUP3 DUP1 SLOAD PUSH2 0x6B9 SWAP1 PUSH2 0x104F JUMP JUMPDEST DUP1 ISZERO PUSH2 0x704 JUMPI DUP1 PUSH1 0x1F LT PUSH2 0x6DB JUMPI PUSH2 0x100 DUP1 DUP4 SLOAD DIV MUL DUP4 MSTORE SWAP2 PUSH1 0x20 ADD SWAP2 PUSH2 0x704 JUMP JUMPDEST DUP3 ADD SWAP2 SWAP1 PUSH0 MSTORE PUSH1 0x20 PUSH0 KECCAK256 SWAP1 JUMPDEST DUP2 SLOAD DUP2 MSTORE SWAP1 PUSH1 0x1 ADD SWAP1 PUSH1 0x20 ADD DUP1 DUP4 GT PUSH2 0x6E7 JUMPI DUP3 SWAP1 SUB PUSH1 0x1F AND DUP3 ADD SWAP2 JUMPDEST POP POP POP POP POP SWAP1 DUP1 PUSH1 0x3 ADD DUP1 SLOAD PUSH2 0x719 SWAP1 PUSH2 0x104F JUMP JUMPDEST DUP1 PUSH1 0x1F ADD PUSH1 0x20 DUP1 SWAP2 DIV MUL PUSH1 0x20 ADD PUSH1 0x40 MLOAD SWAP1 DUP2 ADD PUSH1 0x40 MSTORE DUP1 SWAP3 SWAP2 SWAP1 DUP2 DUP2 MSTORE PUSH1 0x20 ADD DUP3 DUP1 SLOAD PUSH2 0x745 SWAP1 PUSH2 0x104F JUMP JUMPDEST DUP1 ISZERO PUSH2 0x790 JUMPI DUP1 PUSH1 0x1F LT PUSH2 0x767 JUMPI PUSH2 0x100 DUP1 DUP4 SLOAD DIV MUL DUP4 MSTORE SWAP2 PUSH1 0x20 ADD SWAP2 PUSH2 0x790 JUMP JUMPDEST DUP3 ADD SWAP2 SWAP1 PUSH0 MSTORE PUSH1 0x20 PUSH0 KECCAK256 SWAP1 JUMPDEST DUP2 SLOAD DUP2 MSTORE SWAP1 PUSH1 0x1 ADD SWAP1 PUSH1 0x20 ADD DUP1 DUP4 GT PUSH2 0x773 JUMPI DUP3 SWAP1 SUB PUSH1 0x1F AND DUP3 ADD SWAP2 JUMPDEST POP POP POP POP POP SWAP1 DUP1 PUSH1 0x4 ADD PUSH0 SWAP1 SLOAD SWAP1 PUSH2 0x100 EXP SWAP1 DIV PUSH1 0xFF AND SWAP1 DUP1 PUSH1 0x4 ADD PUSH1 0x1 SWAP1 SLOAD SWAP1 PUSH2 0x100 EXP SWAP1 DIV PUSH1 0xFF AND SWAP1 DUP1 PUSH1 0x5 ADD SLOAD SWAP1 POP DUP8 JUMP JUMPDEST PUSH0 DUP4 MLOAD GT PUSH2 0x808 JUMPI PUSH1 0x40 MLOAD PUSH32 0x8C379A000000000000000000000000000000000000000000000000000000000 DUP2 MSTORE PUSH1 0x4 ADD PUSH2 0x7FF SWAP1 PUSH2 0x1131 JUMP JUMPDEST PUSH1 0x40 MLOAD DUP1 SWAP2 SUB SWAP1 REVERT JUMPDEST PUSH0 DUP3 MLOAD GT PUSH2 0x84B JUMPI PUSH1 0x40 MLOAD PUSH32 0x8C379A000000000000000000000000000000000000000000000000000000000 DUP2 MSTORE PUSH1 0x4 ADD PUSH2 0x842 SWAP1 PUSH2 0x1199 JUMP JUMPDEST PUSH1 0x40 MLOAD DUP1 SWAP2 SUB SWAP1 REVERT JUMPDEST PUSH0 DUP2 MLOAD GT PUSH2 0x88E JUMPI PUSH1 0x40 MLOAD PUSH32 0x8C379A000000000000000000000000000000000000000000000000000000000 DUP2 MSTORE PUSH1 0x4 ADD PUSH2 0x885 SWAP1 PUSH2 0x1201 JUMP JUMPDEST PUSH1 0x40 MLOAD DUP1 SWAP2 SUB SWAP1 REVERT JUMPDEST PUSH0 DUP4 DUP4 PUSH1 0x40 MLOAD PUSH1 0x20 ADD PUSH2 0x8A2 SWAP3 SWAP2 SWAP1 PUSH2 0x1259 JUMP JUMPDEST PUSH1 0x40 MLOAD PUSH1 0x20 DUP2 DUP4 SUB SUB DUP2 MSTORE SWAP1 PUSH1 0x40 MSTORE DUP1 MLOAD SWAP1 PUSH1 0x20 ADD KECCAK256 SWAP1 POP PUSH1 0x3 PUSH0 DUP3 DUP2 MSTORE PUSH1 0x20 ADD SWAP1 DUP2 MSTORE PUSH1 0x20 ADD PUSH0 KECCAK256 PUSH0 SWAP1 SLOAD SWAP1 PUSH2 0x100 EXP SWAP1 DIV PUSH1 0xFF AND ISZERO PUSH2 0x918 JUMPI PUSH1 0x40 MLOAD PUSH32 0x8C379A000000000000000000000000000000000000000000000000000000000 DUP2 MSTORE PUSH1 0x4 ADD PUSH2 0x90F SWAP1 PUSH2 0x12EC JUMP JUMPDEST PUSH1 0x40 MLOAD DUP1 SWAP2 SUB SWAP1 REVERT JUMPDEST PUSH1 0x1 PUSH1 0x3 PUSH0 DUP4 DUP2 MSTORE PUSH1 0x20 ADD SWAP1 DUP2 MSTORE PUSH1 0x20 ADD PUSH0 KECCAK256 PUSH0 PUSH2 0x100 EXP DUP2 SLOAD DUP2 PUSH1 0xFF MUL NOT AND SWAP1 DUP4 ISZERO ISZERO MUL OR SWAP1 SSTORE POP PUSH0 PUSH1 0x1 PUSH0 DUP1 SLOAD SWAP1 POP PUSH2 0x953 SWAP2 SWAP1 PUSH2 0x1337 JUMP JUMPDEST SWAP1 POP PUSH1 0x40 MLOAD DUP1 PUSH1 0xE0 ADD PUSH1 0x40 MSTORE DUP1 DUP3 DUP2 MSTORE PUSH1 0x20 ADD DUP7 DUP2 MSTORE PUSH1 0x20 ADD DUP6 DUP2 MSTORE PUSH1 0x20 ADD DUP5 DUP2 MSTORE PUSH1 0x20 ADD PUSH1 0x1 ISZERO ISZERO DUP2 MSTORE PUSH1 0x20 ADD PUSH1 0x1 ISZERO ISZERO DUP2 MSTORE PUSH1 0x20 ADD TIMESTAMP DUP2 MSTORE POP PUSH1 0x2 PUSH0 DUP4 DUP2 MSTORE PUSH1 0x20 ADD SWAP1 DUP2 MSTORE PUSH1 0x20 ADD PUSH0 KECCAK256 PUSH0 DUP3 ADD MLOAD DUP2 PUSH0 ADD SSTORE PUSH1 0x20 DUP3 ADD MLOAD DUP2 PUSH1 0x1 ADD SWAP1 DUP2 PUSH2 0x9BC SWAP2 SWAP1 PUSH2 0x150A JUMP JUMPDEST POP PUSH1 0x40 DUP3 ADD MLOAD DUP2 PUSH1 0x2 ADD SWAP1 DUP2 PUSH2 0x9D2 SWAP2 SWAP1 PUSH2 0x150A JUMP JUMPDEST POP PUSH1 0x60 DUP3 ADD MLOAD DUP2 PUSH1 0x3 ADD SWAP1 DUP2 PUSH2 0x9E8 SWAP2 SWAP1 PUSH2 0x150A JUMP JUMPDEST POP PUSH1 0x80 DUP3 ADD MLOAD DUP2 PUSH1 0x4 ADD PUSH0 PUSH2 0x100 EXP DUP2 SLOAD DUP2 PUSH1 0xFF MUL NOT AND SWAP1 DUP4 ISZERO ISZERO MUL OR SWAP1 SSTORE POP PUSH1 0xA0 DUP3 ADD MLOAD DUP2 PUSH1 0x4 ADD PUSH1 0x1 PUSH2 0x100 EXP DUP2 SLOAD DUP2 PUSH1 0xFF MUL NOT AND SWAP1 DUP4 ISZERO ISZERO MUL OR SWAP1 SSTORE POP PUSH1 0xC0 DUP3 ADD MLOAD DUP2 PUSH1 0x5 ADD SSTORE SWAP1 POP POP PUSH0 PUSH1 0x2 PUSH0 DUP4 DUP2 MSTORE PUSH1 0x20 ADD SWAP1 DUP2 MSTORE PUSH1 0x20 ADD PUSH0 KECCAK256 SWAP1 DUP1 PUSH1 0x1 DUP2 SLOAD ADD DUP1 DUP3 SSTORE DUP1 SWAP2 POP POP PUSH1 0x1 SWAP1 SUB SWAP1 PUSH0 MSTORE PUSH1 0x20 PUSH0 KECCAK256 SWAP1 PUSH1 0x6 MUL ADD PUSH0 SWAP1 SWAP2 SWAP1 SWAP2 SWAP1 SWAP2 POP PUSH0 DUP3 ADD SLOAD DUP2 PUSH0 ADD SSTORE PUSH1 0x1 DUP3 ADD DUP2 PUSH1 0x1 ADD SWAP1 DUP2 PUSH2 0xA89 SWAP2 SWAP1 PUSH2 0x15EE JUMP JUMPDEST POP PUSH1 0x2 DUP3 ADD DUP2 PUSH1 0x2 ADD SWAP1 DUP2 PUSH2 0xA9E SWAP2 SWAP1 PUSH2 0x15EE JUMP JUMPDEST POP PUSH1 0x3 DUP3 ADD DUP2 PUSH1 0x3 ADD SWAP1 DUP2 PUSH2 0xAB3 SWAP2 SWAP1 PUSH2 0x15EE JUMP JUMPDEST POP PUSH1 0x4 DUP3 ADD PUSH0 SWAP1 SLOAD SWAP1 PUSH2 0x100 EXP SWAP1 DIV PUSH1 0xFF AND DUP2 PUSH1 0x4 ADD PUSH0 PUSH2 0x100 EXP DUP2 SLOAD DUP2 PUSH1 0xFF MUL NOT AND SWAP1 DUP4 ISZERO ISZERO MUL OR SWAP1 SSTORE POP PUSH1 0x4 DUP3 ADD PUSH1 0x1 SWAP1 SLOAD SWAP1 PUSH2 0x100 EXP SWAP1 DIV PUSH1 0xFF AND DUP2 PUSH1 0x4 ADD PUSH1 0x1 PUSH2 0x100 EXP DUP2 SLOAD DUP2 PUSH1 0xFF MUL NOT AND SWAP1 DUP4 ISZERO ISZERO MUL OR SWAP1 SSTORE POP PUSH1 0x5 DUP3 ADD SLOAD DUP2 PUSH1 0x5 ADD SSTORE POP POP PUSH1 0x1 DUP2 SWAP1 DUP1 PUSH1 0x1 DUP2 SLOAD ADD DUP1 DUP3 SSTORE DUP1 SWAP2 POP POP PUSH1 0x1 SWAP1 SUB SWAP1 PUSH0 MSTORE PUSH1 0x20 PUSH0 KECCAK256 ADD PUSH0 SWAP1 SWAP2 SWAP1 SWAP2 SWAP1 SWAP2 POP SSTORE POP POP POP POP POP JUMP JUMPDEST PUSH1 0x40 MLOAD DUP1 PUSH1 0xE0 ADD PUSH1 0x40 MSTORE DUP1 PUSH0 DUP2 MSTORE PUSH1 0x20 ADD PUSH1 0x60 DUP2 MSTORE PUSH1 0x20 ADD PUSH1 0x60 DUP2 MSTORE PUSH1 0x20 ADD PUSH1 0x60 DUP2 MSTORE PUSH1 0x20 ADD PUSH0 ISZERO ISZERO DUP2 MSTORE PUSH1 0x20 ADD PUSH0 ISZERO ISZERO DUP2 MSTORE PUSH1 0x20 ADD PUSH0 DUP2 MSTORE POP SWAP1 JUMP JUMPDEST PUSH0 PUSH1 0x40 MLOAD SWAP1 POP SWAP1 JUMP JUMPDEST PUSH0 PUSH0 REVERT JUMPDEST PUSH0 PUSH0 REVERT JUMPDEST PUSH0 DUP2 SWAP1 POP SWAP2 SWAP1 POP JUMP JUMPDEST PUSH2 0xBA5 DUP2 PUSH2 0xB93 JUMP JUMPDEST DUP2 EQ PUSH2 0xBAF JUMPI PUSH0 PUSH0 REVERT JUMPDEST POP JUMP JUMPDEST PUSH0 DUP2 CALLDATALOAD SWAP1 POP PUSH2 0xBC0 DUP2 PUSH2 0xB9C JUMP JUMPDEST SWAP3 SWAP2 POP POP JUMP JUMPDEST PUSH0 PUSH1 0x20 DUP3 DUP5 SUB SLT ISZERO PUSH2 0xBDB JUMPI PUSH2 0xBDA PUSH2 0xB8B JUMP JUMPDEST JUMPDEST PUSH0 PUSH2 0xBE8 DUP5 DUP3 DUP6 ADD PUSH2 0xBB2 JUMP JUMPDEST SWAP2 POP POP SWAP3 SWAP2 POP POP JUMP JUMPDEST PUSH2 0xBFA DUP2 PUSH2 0xB93 JUMP JUMPDEST DUP3 MSTORE POP POP JUMP JUMPDEST PUSH0 DUP2 MLOAD SWAP1 POP SWAP2 SWAP1 POP JUMP JUMPDEST PUSH0 DUP3 DUP3 MSTORE PUSH1 0x20 DUP3 ADD SWAP1 POP SWAP3 SWAP2 POP POP JUMP JUMPDEST DUP3 DUP2 DUP4 MCOPY PUSH0 DUP4 DUP4 ADD MSTORE POP POP POP JUMP JUMPDEST PUSH0 PUSH1 0x1F NOT PUSH1 0x1F DUP4 ADD AND SWAP1 POP SWAP2 SWAP1 POP JUMP JUMPDEST PUSH0 PUSH2 0xC42 DUP3 PUSH2 0xC00 JUMP JUMPDEST PUSH2 0xC4C DUP2 DUP6 PUSH2 0xC0A JUMP JUMPDEST SWAP4 POP PUSH2 0xC5C DUP2 DUP6 PUSH1 0x20 DUP7 ADD PUSH2 0xC1A JUMP JUMPDEST PUSH2 0xC65 DUP2 PUSH2 0xC28 JUMP JUMPDEST DUP5 ADD SWAP2 POP POP SWAP3 SWAP2 POP POP JUMP JUMPDEST PUSH0 DUP2 ISZERO ISZERO SWAP1 POP SWAP2 SWAP1 POP JUMP JUMPDEST PUSH2 0xC84 DUP2 PUSH2 0xC70 JUMP JUMPDEST DUP3 MSTORE POP POP JUMP JUMPDEST PUSH0 PUSH1 0xE0 DUP3 ADD SWAP1 POP PUSH2 0xC9D PUSH0 DUP4 ADD DUP11 PUSH2 0xBF1 JUMP JUMPDEST DUP2 DUP2 SUB PUSH1 0x20 DUP4 ADD MSTORE PUSH2 0xCAF DUP2 DUP10 PUSH2 0xC38 JUMP JUMPDEST SWAP1 POP DUP2 DUP2 SUB PUSH1 0x40 DUP4 ADD MSTORE PUSH2 0xCC3 DUP2 DUP9 PUSH2 0xC38 JUMP JUMPDEST SWAP1 POP DUP2 DUP2 SUB PUSH1 0x60 DUP4 ADD MSTORE PUSH2 0xCD7 DUP2 DUP8 PUSH2 0xC38 JUMP JUMPDEST SWAP1 POP PUSH2 0xCE6 PUSH1 0x80 DUP4 ADD DUP7 PUSH2 0xC7B JUMP JUMPDEST PUSH2 0xCF3 PUSH1 0xA0 DUP4 ADD DUP6 PUSH2 0xC7B JUMP JUMPDEST PUSH2 0xD00 PUSH1 0xC0 DUP4 ADD DUP5 PUSH2 0xBF1 JUMP JUMPDEST SWAP9 SWAP8 POP POP POP POP POP POP POP POP JUMP JUMPDEST PUSH2 0xD15 DUP2 PUSH2 0xB93 JUMP JUMPDEST DUP3 MSTORE POP POP JUMP JUMPDEST PUSH0 DUP3 DUP3 MSTORE PUSH1 0x20 DUP3 ADD SWAP1 POP SWAP3 SWAP2 POP POP JUMP JUMPDEST PUSH0 PUSH2 0xD35 DUP3 PUSH2 0xC00 JUMP JUMPDEST PUSH2 0xD3F DUP2 DUP6 PUSH2 0xD1B JUMP JUMPDEST SWAP4 POP PUSH2 0xD4F DUP2 DUP6 PUSH1 0x20 DUP7 ADD PUSH2 0xC1A JUMP JUMPDEST PUSH2 0xD58 DUP2 PUSH2 0xC28 JUMP JUMPDEST DUP5 ADD SWAP2 POP POP SWAP3 SWAP2 POP POP JUMP JUMPDEST PUSH2 0xD6C DUP2 PUSH2 0xC70 JUMP JUMPDEST DUP3 MSTORE POP POP JUMP JUMPDEST PUSH0 PUSH1 0xE0 DUP4 ADD PUSH0 DUP4 ADD MLOAD PUSH2 0xD87 PUSH0 DUP7 ADD DUP3 PUSH2 0xD0C JUMP JUMPDEST POP PUSH1 0x20 DUP4 ADD MLOAD DUP5 DUP3 SUB PUSH1 0x20 DUP7 ADD MSTORE PUSH2 0xD9F DUP3 DUP3 PUSH2 0xD2B JUMP JUMPDEST SWAP2 POP POP PUSH1 0x40 DUP4 ADD MLOAD DUP5 DUP3 SUB PUSH1 0x40 DUP7 ADD MSTORE PUSH2 0xDB9 DUP3 DUP3 PUSH2 0xD2B JUMP JUMPDEST SWAP2 POP POP PUSH1 0x60 DUP4 ADD MLOAD DUP5 DUP3 SUB PUSH1 0x60 DUP7 ADD MSTORE PUSH2 0xDD3 DUP3 DUP3 PUSH2 0xD2B JUMP JUMPDEST SWAP2 POP POP PUSH1 0x80 DUP4 ADD MLOAD PUSH2 0xDE8 PUSH1 0x80 DUP7 ADD DUP3 PUSH2 0xD63 JUMP JUMPDEST POP PUSH1 0xA0 DUP4 ADD MLOAD PUSH2 0xDFB PUSH1 0xA0 DUP7 ADD DUP3 PUSH2 0xD63 JUMP JUMPDEST POP PUSH1 0xC0 DUP4 ADD MLOAD PUSH2 0xE0E PUSH1 0xC0 DUP7 ADD DUP3 PUSH2 0xD0C JUMP JUMPDEST POP DUP1 SWAP2 POP POP SWAP3 SWAP2 POP POP JUMP JUMPDEST PUSH0 PUSH1 0x20 DUP3 ADD SWAP1 POP DUP2 DUP2 SUB PUSH0 DUP4 ADD MSTORE PUSH2 0xE31 DUP2 DUP5 PUSH2 0xD72 JUMP JUMPDEST SWAP1 POP SWAP3 SWAP2 POP POP JUMP JUMPDEST PUSH0 PUSH1 0x20 DUP3 ADD SWAP1 POP PUSH2 0xE4C PUSH0 DUP4 ADD DUP5 PUSH2 0xBF1 JUMP JUMPDEST SWAP3 SWAP2 POP POP JUMP JUMPDEST PUSH0 PUSH0 REVERT JUMPDEST PUSH0 PUSH0 REVERT JUMPDEST PUSH32 0x4E487B7100000000000000000000000000000000000000000000000000000000 PUSH0 MSTORE PUSH1 0x41 PUSH1 0x4 MSTORE PUSH1 0x24 PUSH0 REVERT JUMPDEST PUSH2 0xE90 DUP3 PUSH2 0xC28 JUMP JUMPDEST DUP2 ADD DUP2 DUP2 LT PUSH8 0xFFFFFFFFFFFFFFFF DUP3 GT OR ISZERO PUSH2 0xEAF JUMPI PUSH2 0xEAE PUSH2 0xE5A JUMP JUMPDEST JUMPDEST DUP1 PUSH1 0x40 MSTORE POP POP POP JUMP JUMPDEST PUSH0 PUSH2 0xEC1 PUSH2 0xB82 JUMP JUMPDEST SWAP1 POP PUSH2 0xECD DUP3 DUP3 PUSH2 0xE87 JUMP JUMPDEST SWAP2 SWAP1 POP JUMP JUMPDEST PUSH0 PUSH8 0xFFFFFFFFFFFFFFFF DUP3 GT ISZERO PUSH2 0xEEC JUMPI PUSH2 0xEEB PUSH2 0xE5A JUMP JUMPDEST JUMPDEST PUSH2 0xEF5 DUP3 PUSH2 0xC28 JUMP JUMPDEST SWAP1 POP PUSH1 0x20 DUP2 ADD SWAP1 POP SWAP2 SWAP1 POP JUMP JUMPDEST DUP3 DUP2 DUP4 CALLDATACOPY PUSH0 DUP4 DUP4 ADD MSTORE POP POP POP JUMP JUMPDEST PUSH0 PUSH2 0xF22 PUSH2 0xF1D DUP5 PUSH2 0xED2 JUMP JUMPDEST PUSH2 0xEB8 JUMP JUMPDEST SWAP1 POP DUP3 DUP2 MSTORE PUSH1 0x20 DUP2 ADD DUP5 DUP5 DUP5 ADD GT ISZERO PUSH2 0xF3E JUMPI PUSH2 0xF3D PUSH2 0xE56 JUMP JUMPDEST JUMPDEST PUSH2 0xF49 DUP5 DUP3 DUP6 PUSH2 0xF02 JUMP JUMPDEST POP SWAP4 SWAP3 POP POP POP JUMP JUMPDEST PUSH0 DUP3 PUSH1 0x1F DUP4 ADD SLT PUSH2 0xF65 JUMPI PUSH2 0xF64 PUSH2 0xE52 JUMP JUMPDEST JUMPDEST DUP2 CALLDATALOAD PUSH2 0xF75 DUP5 DUP3 PUSH1 0x20 DUP7 ADD PUSH2 0xF10 JUMP JUMPDEST SWAP2 POP POP SWAP3 SWAP2 POP POP JUMP JUMPDEST PUSH0 PUSH0 PUSH0 PUSH1 0x60 DUP5 DUP7 SUB SLT ISZERO PUSH2 0xF95 JUMPI PUSH2 0xF94 PUSH2 0xB8B JUMP JUMPDEST JUMPDEST PUSH0 DUP5 ADD CALLDATALOAD PUSH8 0xFFFFFFFFFFFFFFFF DUP2 GT ISZERO PUSH2 0xFB2 JUMPI PUSH2 0xFB1 PUSH2 0xB8F JUMP JUMPDEST JUMPDEST PUSH2 0xFBE DUP7 DUP3 DUP8 ADD PUSH2 0xF51 JUMP JUMPDEST SWAP4 POP POP PUSH1 0x20 DUP5 ADD CALLDATALOAD PUSH8 0xFFFFFFFFFFFFFFFF DUP2 GT ISZERO PUSH2 0xFDF JUMPI PUSH2 0xFDE PUSH2 0xB8F JUMP JUMPDEST JUMPDEST PUSH2 0xFEB DUP7 DUP3 DUP8 ADD PUSH2 0xF51 JUMP JUMPDEST SWAP3 POP POP PUSH1 0x40 DUP5 ADD CALLDATALOAD PUSH8 0xFFFFFFFFFFFFFFFF DUP2 GT ISZERO PUSH2 0x100C JUMPI PUSH2 0x100B PUSH2 0xB8F JUMP JUMPDEST JUMPDEST PUSH2 0x1018 DUP7 DUP3 DUP8 ADD PUSH2 0xF51 JUMP JUMPDEST SWAP2 POP POP SWAP3 POP SWAP3 POP SWAP3 JUMP JUMPDEST PUSH32 0x4E487B7100000000000000000000000000000000000000000000000000000000 PUSH0 MSTORE PUSH1 0x22 PUSH1 0x4 MSTORE PUSH1 0x24 PUSH0 REVERT JUMPDEST PUSH0 PUSH1 0x2 DUP3 DIV SWAP1 POP PUSH1 0x1 DUP3 AND DUP1 PUSH2 0x1066 JUMPI PUSH1 0x7F DUP3 AND SWAP2 POP JUMPDEST PUSH1 0x20 DUP3 LT DUP2 SUB PUSH2 0x1079 JUMPI PUSH2 0x1078 PUSH2 0x1022 JUMP JUMPDEST JUMPDEST POP SWAP2 SWAP1 POP JUMP JUMPDEST PUSH32 0x426F6F6B206E6F7420666F756E64000000000000000000000000000000000000 PUSH0 DUP3 ADD MSTORE POP JUMP JUMPDEST PUSH0 PUSH2 0x10B3 PUSH1 0xE DUP4 PUSH2 0xC0A JUMP JUMPDEST SWAP2 POP PUSH2 0x10BE DUP3 PUSH2 0x107F JUMP JUMPDEST PUSH1 0x20 DUP3 ADD SWAP1 POP SWAP2 SWAP1 POP JUMP JUMPDEST PUSH0 PUSH1 0x20 DUP3 ADD SWAP1 POP DUP2 DUP2 SUB PUSH0 DUP4 ADD MSTORE PUSH2 0x10E0 DUP2 PUSH2 0x10A7 JUMP JUMPDEST SWAP1 POP SWAP2 SWAP1 POP JUMP JUMPDEST PUSH32 0x5469746C652063616E6E6F7420626520656D7074792100000000000000000000 PUSH0 DUP3 ADD MSTORE POP JUMP JUMPDEST PUSH0 PUSH2 0x111B PUSH1 0x16 DUP4 PUSH2 0xC0A JUMP JUMPDEST SWAP2 POP PUSH2 0x1126 DUP3 PUSH2 0x10E7 JUMP JUMPDEST PUSH1 0x20 DUP3 ADD SWAP1 POP SWAP2 SWAP1 POP JUMP JUMPDEST PUSH0 PUSH1 0x20 DUP3 ADD SWAP1 POP DUP2 DUP2 SUB PUSH0 DUP4 ADD MSTORE PUSH2 0x1148 DUP2 PUSH2 0x110F JUMP JUMPDEST SWAP1 POP SWAP2 SWAP1 POP JUMP JUMPDEST PUSH32 0x417574686F722063616E6E6F7420626520656D70747921000000000000000000 PUSH0 DUP3 ADD MSTORE POP JUMP JUMPDEST PUSH0 PUSH2 0x1183 PUSH1 0x17 DUP4 PUSH2 0xC0A JUMP JUMPDEST SWAP2 POP PUSH2 0x118E DUP3 PUSH2 0x114F JUMP JUMPDEST PUSH1 0x20 DUP3 ADD SWAP1 POP SWAP2 SWAP1 POP JUMP JUMPDEST PUSH0 PUSH1 0x20 DUP3 ADD SWAP1 POP DUP2 DUP2 SUB PUSH0 DUP4 ADD MSTORE PUSH2 0x11B0 DUP2 PUSH2 0x1177 JUMP JUMPDEST SWAP1 POP SWAP2 SWAP1 POP JUMP JUMPDEST PUSH32 0x47656E72652063616E6E6F7420626520656D7074792100000000000000000000 PUSH0 DUP3 ADD MSTORE POP JUMP JUMPDEST PUSH0 PUSH2 0x11EB PUSH1 0x16 DUP4 PUSH2 0xC0A JUMP JUMPDEST SWAP2 POP PUSH2 0x11F6 DUP3 PUSH2 0x11B7 JUMP JUMPDEST PUSH1 0x20 DUP3 ADD SWAP1 POP SWAP2 SWAP1 POP JUMP JUMPDEST PUSH0 PUSH1 0x20 DUP3 ADD SWAP1 POP DUP2 DUP2 SUB PUSH0 DUP4 ADD MSTORE PUSH2 0x1218 DUP2 PUSH2 0x11DF JUMP JUMPDEST SWAP1 POP SWAP2 SWAP1 POP JUMP JUMPDEST PUSH0 DUP2 SWAP1 POP SWAP3 SWAP2 POP POP JUMP JUMPDEST PUSH0 PUSH2 0x1233 DUP3 PUSH2 0xC00 JUMP JUMPDEST PUSH2 0x123D DUP2 DUP6 PUSH2 0x121F JUMP JUMPDEST SWAP4 POP PUSH2 0x124D DUP2 DUP6 PUSH1 0x20 DUP7 ADD PUSH2 0xC1A JUMP JUMPDEST DUP1 DUP5 ADD SWAP2 POP POP SWAP3 SWAP2 POP POP JUMP JUMPDEST PUSH0 PUSH2 0x1264 DUP3 DUP6 PUSH2 0x1229 JUMP JUMPDEST SWAP2 POP PUSH2 0x1270 DUP3 DUP5 PUSH2 0x1229 JUMP JUMPDEST SWAP2 POP DUP2 SWAP1 POP SWAP4 SWAP3 POP POP POP JUMP JUMPDEST PUSH32 0x5468697320626F6F6B206279207468697320617574686F7220616C7265616479 PUSH0 DUP3 ADD MSTORE PUSH32 0x2065786973747321000000000000000000000000000000000000000000000000 PUSH1 0x20 DUP3 ADD MSTORE POP JUMP JUMPDEST PUSH0 PUSH2 0x12D6 PUSH1 0x28 DUP4 PUSH2 0xC0A JUMP JUMPDEST SWAP2 POP PUSH2 0x12E1 DUP3 PUSH2 0x127C JUMP JUMPDEST PUSH1 0x40 DUP3 ADD SWAP1 POP SWAP2 SWAP1 POP JUMP JUMPDEST PUSH0 PUSH1 0x20 DUP3 ADD SWAP1 POP DUP2 DUP2 SUB PUSH0 DUP4 ADD MSTORE PUSH2 0x1303 DUP2 PUSH2 0x12CA JUMP JUMPDEST SWAP1 POP SWAP2 SWAP1 POP JUMP JUMPDEST PUSH32 0x4E487B7100000000000000000000000000000000000000000000000000000000 PUSH0 MSTORE PUSH1 0x11 PUSH1 0x4 MSTORE PUSH1 0x24 PUSH0 REVERT JUMPDEST PUSH0 PUSH2 0x1341 DUP3 PUSH2 0xB93 JUMP JUMPDEST SWAP2 POP PUSH2 0x134C DUP4 PUSH2 0xB93 JUMP JUMPDEST SWAP3 POP DUP3 DUP3 ADD SWAP1 POP DUP1 DUP3 GT ISZERO PUSH2 0x1364 JUMPI PUSH2 0x1363 PUSH2 0x130A JUMP JUMPDEST JUMPDEST SWAP3 SWAP2 POP POP JUMP JUMPDEST PUSH0 DUP2 SWAP1 POP DUP2 PUSH0 MSTORE PUSH1 0x20 PUSH0 KECCAK256 SWAP1 POP SWAP2 SWAP1 POP JUMP JUMPDEST PUSH0 PUSH1 0x20 PUSH1 0x1F DUP4 ADD DIV SWAP1 POP SWAP2 SWAP1 POP JUMP JUMPDEST PUSH0 DUP3 DUP3 SHL SWAP1 POP SWAP3 SWAP2 POP POP JUMP JUMPDEST PUSH0 PUSH1 0x8 DUP4 MUL PUSH2 0x13C6 PUSH32 0xFFFFFFFFFFFFFFFFFFFFFFFFFFFFFFFFFFFFFFFFFFFFFFFFFFFFFFFFFFFFFFFF DUP3 PUSH2 0x138B JUMP JUMPDEST PUSH2 0x13D0 DUP7 DUP4 PUSH2 0x138B JUMP JUMPDEST SWAP6 POP DUP1 NOT DUP5 AND SWAP4 POP DUP1 DUP7 AND DUP5 OR SWAP3 POP POP POP SWAP4 SWAP3 POP POP POP JUMP JUMPDEST PUSH0 DUP2 SWAP1 POP SWAP2 SWAP1 POP JUMP JUMPDEST PUSH0 PUSH2 0x140B PUSH2 0x1406 PUSH2 0x1401 DUP5 PUSH2 0xB93 JUMP JUMPDEST PUSH2 0x13E8 JUMP JUMPDEST PUSH2 0xB93 JUMP JUMPDEST SWAP1 POP SWAP2 SWAP1 POP JUMP JUMPDEST PUSH0 DUP2 SWAP1 POP SWAP2 SWAP1 POP JUMP JUMPDEST PUSH2 0x1424 DUP4 PUSH2 0x13F1 JUMP JUMPDEST PUSH2 0x1438 PUSH2 0x1430 DUP3 PUSH2 0x1412 JUMP JUMPDEST DUP5 DUP5 SLOAD PUSH2 0x1397 JUMP JUMPDEST DUP3 SSTORE POP POP POP POP JUMP JUMPDEST PUSH0 PUSH0 SWAP1 POP SWAP1 JUMP JUMPDEST PUSH2 0x144F PUSH2 0x1440 JUMP JUMPDEST PUSH2 0x145A DUP2 DUP5 DUP5 PUSH2 0x141B JUMP JUMPDEST POP POP POP JUMP JUMPDEST JUMPDEST DUP2 DUP2 LT ISZERO PUSH2 0x147D JUMPI PUSH2 0x1472 PUSH0 DUP3 PUSH2 0x1447 JUMP JUMPDEST PUSH1 0x1 DUP2 ADD SWAP1 POP PUSH2 0x1460 JUMP JUMPDEST POP POP JUMP JUMPDEST PUSH1 0x1F DUP3 GT ISZERO PUSH2 0x14C2 JUMPI PUSH2 0x1493 DUP2 PUSH2 0x136A JUMP JUMPDEST PUSH2 0x149C DUP5 PUSH2 0x137C JUMP JUMPDEST DUP2 ADD PUSH1 0x20 DUP6 LT ISZERO PUSH2 0x14AB JUMPI DUP2 SWAP1 POP JUMPDEST PUSH2 0x14BF PUSH2 0x14B7 DUP6 PUSH2 0x137C JUMP JUMPDEST DUP4 ADD DUP3 PUSH2 0x145F JUMP JUMPDEST POP POP JUMPDEST POP POP POP JUMP JUMPDEST PUSH0 DUP3 DUP3 SHR SWAP1 POP SWAP3 SWAP2 POP POP JUMP JUMPDEST PUSH0 PUSH2 0x14E2 PUSH0 NOT DUP5 PUSH1 0x8 MUL PUSH2 0x14C7 JUMP JUMPDEST NOT DUP1 DUP4 AND SWAP2 POP POP SWAP3 SWAP2 POP POP JUMP JUMPDEST PUSH0 PUSH2 0x14FA DUP4 DUP4 PUSH2 0x14D3 JUMP JUMPDEST SWAP2 POP DUP3 PUSH1 0x2 MUL DUP3 OR SWAP1 POP SWAP3 SWAP2 POP POP JUMP JUMPDEST PUSH2 0x1513 DUP3 PUSH2 0xC00 JUMP JUMPDEST PUSH8 0xFFFFFFFFFFFFFFFF DUP2 GT ISZERO PUSH2 0x152C JUMPI PUSH2 0x152B PUSH2 0xE5A JUMP JUMPDEST JUMPDEST PUSH2 0x1536 DUP3 SLOAD PUSH2 0x104F JUMP JUMPDEST PUSH2 0x1541 DUP3 DUP3 DUP6 PUSH2 0x1481 JUMP JUMPDEST PUSH0 PUSH1 0x20 SWAP1 POP PUSH1 0x1F DUP4 GT PUSH1 0x1 DUP2 EQ PUSH2 0x1572 JUMPI PUSH0 DUP5 ISZERO PUSH2 0x1560 JUMPI DUP3 DUP8 ADD MLOAD SWAP1 POP JUMPDEST PUSH2 0x156A DUP6 DUP3 PUSH2 0x14EF JUMP JUMPDEST DUP7 SSTORE POP PUSH2 0x15D1 JUMP JUMPDEST PUSH1 0x1F NOT DUP5 AND PUSH2 0x1580 DUP7 PUSH2 0x136A JUMP JUMPDEST PUSH0 JUMPDEST DUP3 DUP2 LT ISZERO PUSH2 0x15A7 JUMPI DUP5 DUP10 ADD MLOAD DUP3 SSTORE PUSH1 0x1 DUP3 ADD SWAP2 POP PUSH1 0x20 DUP6 ADD SWAP5 POP PUSH1 0x20 DUP2 ADD SWAP1 POP PUSH2 0x1582 JUMP JUMPDEST DUP7 DUP4 LT ISZERO PUSH2 0x15C4 JUMPI DUP5 DUP10 ADD MLOAD PUSH2 0x15C0 PUSH1 0x1F DUP10 AND DUP3 PUSH2 0x14D3 JUMP JUMPDEST DUP4 SSTORE POP JUMPDEST PUSH1 0x1 PUSH1 0x2 DUP9 MUL ADD DUP9 SSTORE POP POP POP JUMPDEST POP POP POP POP POP POP JUMP JUMPDEST PUSH0 DUP2 SLOAD SWAP1 POP PUSH2 0x15E7 DUP2 PUSH2 0x104F JUMP JUMPDEST SWAP1 POP SWAP2 SWAP1 POP JUMP JUMPDEST DUP2 DUP2 SUB PUSH2 0x15FC JUMPI POP POP PUSH2 0x16D1 JUMP JUMPDEST PUSH2 0x1605 DUP3 PUSH2 0x15D9 JUMP JUMPDEST PUSH8 0xFFFFFFFFFFFFFFFF DUP2 GT ISZERO PUSH2 0x161E JUMPI PUSH2 0x161D PUSH2 0xE5A JUMP JUMPDEST JUMPDEST PUSH2 0x1628 DUP3 SLOAD PUSH2 0x104F JUMP JUMPDEST PUSH2 0x1633 DUP3 DUP3 DUP6 PUSH2 0x1481 JUMP JUMPDEST PUSH0 PUSH1 0x1F DUP4 GT PUSH1 0x1 DUP2 EQ PUSH2 0x1660 JUMPI PUSH0 DUP5 ISZERO PUSH2 0x164E JUMPI DUP3 DUP8 ADD SLOAD SWAP1 POP JUMPDEST PUSH2 0x1658 DUP6 DUP3 PUSH2 0x14EF JUMP JUMPDEST DUP7 SSTORE POP PUSH2 0x16CA JUMP JUMPDEST PUSH1 0x1F NOT DUP5 AND PUSH2 0x166E DUP8 PUSH2 0x136A JUMP JUMPDEST SWAP7 POP PUSH2 0x1679 DUP7 PUSH2 0x136A JUMP JUMPDEST PUSH0 JUMPDEST DUP3 DUP2 LT ISZERO PUSH2 0x16A0 JUMPI DUP5 DUP10 ADD SLOAD DUP3 SSTORE PUSH1 0x1 DUP3 ADD SWAP2 POP PUSH1 0x1 DUP6 ADD SWAP5 POP PUSH1 0x20 DUP2 ADD SWAP1 POP PUSH2 0x167B JUMP JUMPDEST DUP7 DUP4 LT ISZERO PUSH2 0x16BD JUMPI DUP5 DUP10 ADD SLOAD PUSH2 0x16B9 PUSH1 0x1F DUP10 AND DUP3 PUSH2 0x14D3 JUMP JUMPDEST DUP4 SSTORE POP JUMPDEST PUSH1 0x1 PUSH1 0x2 DUP9 MUL ADD DUP9 SSTORE POP POP POP JUMPDEST POP POP POP POP POP POP JUMPDEST JUMP INVALID LOG2 PUSH5 0x6970667358 0x22 SLT KECCAK256 0xAF PUSH7 0x6BDD4387E92FCE 0xE2 0xBF REVERT PUSH11 0xB96FC4F7725DFB02AF908C 0xE STOP 0xCF PUSH28 0xB2CC425D64736F6C634300081F003300000000000000000000000000 "
				},
				"gasEstimates": {
					"creation": {
						"codeDepositCost": "1179400",
						"executionCost": "1225",
						"totalCost": "1180625"
					},
					"external": {
						"addBook(string,string,string)": "infinite",
						"bookIds(uint256)": "infinite",
						"books(uint256)": "infinite",
						"getBookById(uint256)": "infinite",
						"listOfBooks(uint256)": "infinite"
					}
				},
				"methodIdentifiers": {
					"addBook(string,string,string)": "69c46826",
					"bookIds(uint256)": "513073b8",
					"books(uint256)": "68744046",
					"getBookById(uint256)": "418b79ab",
					"listOfBooks(uint256)": "3088c00f"
				}
			},
			"storageLayout": {
				"storage": [
					{
						"astId": 20,
						"contract": "Book.sol:BookContract",
						"label": "listOfBooks",
						"offset": 0,
						"slot": "0",
						"type": "t_array(t_struct(Book)16_storage)dyn_storage"
					},
					{
						"astId": 23,
						"contract": "Book.sol:BookContract",
						"label": "bookIds",
						"offset": 0,
						"slot": "1",
						"type": "t_array(t_uint256)dyn_storage"
					},
					{
						"astId": 28,
						"contract": "Book.sol:BookContract",
						"label": "books",
						"offset": 0,
						"slot": "2",
						"type": "t_mapping(t_uint256,t_struct(Book)16_storage)"
					},
					{
						"astId": 32,
						"contract": "Book.sol:BookContract",
						"label": "bookExist",
						"offset": 0,
						"slot": "3",
						"type": "t_mapping(t_bytes32,t_bool)"
					}
				],
				"types": {
					"t_array(t_struct(Book)16_storage)dyn_storage": {
						"base": "t_struct(Book)16_storage",
						"encoding": "dynamic_array",
						"label": "struct BookContract.Book[]",
						"numberOfBytes": "32"
					},
					"t_array(t_uint256)dyn_storage": {
						"base": "t_uint256",
						"encoding": "dynamic_array",
						"label": "uint256[]",
						"numberOfBytes": "32"
					},
					"t_bool": {
						"encoding": "inplace",
						"label": "bool",
						"numberOfBytes": "1"
					},
					"t_bytes32": {
						"encoding": "inplace",
						"label": "bytes32",
						"numberOfBytes": "32"
					},
					"t_mapping(t_bytes32,t_bool)": {
						"encoding": "mapping",
						"key": "t_bytes32",
						"label": "mapping(bytes32 => bool)",
						"numberOfBytes": "32",
						"value": "t_bool"
					},
					"t_mapping(t_uint256,t_struct(Book)16_storage)": {
						"encoding": "mapping",
						"key": "t_uint256",
						"label": "mapping(uint256 => struct BookContract.Book)",
						"numberOfBytes": "32",
						"value": "t_struct(Book)16_storage"
					},
					"t_string_storage": {
						"encoding": "bytes",
						"label": "string",
						"numberOfBytes": "32"
					},
					"t_struct(Book)16_storage": {
						"encoding": "inplace",
						"label": "struct BookContract.Book",
						"members": [
							{
								"astId": 3,
								"contract": "Book.sol:BookContract",
								"label": "ID",
								"offset": 0,
								"slot": "0",
								"type": "t_uint256"
							},
							{
								"astId": 5,
								"contract": "Book.sol:BookContract",
								"label": "title",
								"offset": 0,
								"slot": "1",
								"type": "t_string_storage"
							},
							{
								"astId": 7,
								"contract": "Book.sol:BookContract",
								"label": "author",
								"offset": 0,
								"slot": "2",
								"type": "t_string_storage"
							},
							{
								"astId": 9,
								"contract": "Book.sol:BookContract",
								"label": "genre",
								"offset": 0,
								"slot": "3",
								"type": "t_string_storage"
							},
							{
								"astId": 11,
								"contract": "Book.sol:BookContract",
								"label": "available",
								"offset": 0,
								"slot": "4",
								"type": "t_bool"
							},
							{
								"astId": 13,
								"contract": "Book.sol:BookContract",
								"label": "exists",
								"offset": 1,
								"slot": "4",
								"type": "t_bool"
							},
							{
								"astId": 15,
								"contract": "Book.sol:BookContract",
								"label": "date",
								"offset": 0,
								"slot": "5",
								"type": "t_uint256"
							}
						],
						"numberOfBytes": "192"
					},
					"t_uint256": {
						"encoding": "inplace",
						"label": "uint256",
						"numberOfBytes": "32"
					}
				}
			},
			"userdoc": {
				"kind": "user",
				"methods": {},
				"version": 1
			}
		}
	}
}