{
	"Book.sol": {
		"BookContract": {
			"abi": [
				{
					"inputs": [
						{
							"internalType": "string",
							"name": "_title",
							"type": "string"
						},
						{
							"internalType": "string",
							"name": "_author",
							"type": "string"
						},
						{
							"internalType": "string",
							"name": "_genre",
							"type": "string"
						}
					],
					"name": "addBook",
					"outputs": [],
					"stateMutability": "nonpayable",
					"type": "function"
				},
				{
					"inputs": [
						{
							"internalType": "string",
							"name": "",
							"type": "string"
						},
						{
							"internalType": "uint256",
							"name": "",
							"type": "uint256"
						}
					],
					"name": "genreToBooks",
					"outputs": [
						{
							"internalType": "uint256",
							"name": "ID",
							"type": "uint256"
						},
						{
							"internalType": "string",
							"name": "title",
							"type": "string"
						},
						{
							"internalType": "string",
							"name": "author",
							"type": "string"
						},
						{
							"internalType": "string",
							"name": "genre",
							"type": "string"
						},
						{
							"internalType": "bool",
							"name": "available",
							"type": "bool"
						}
					],
					"stateMutability": "view",
					"type": "function"
				},
				{
					"inputs": [
						{
							"internalType": "uint256",
							"name": "",
							"type": "uint256"
						}
					],
					"name": "listOfBooks",
					"outputs": [
						{
							"internalType": "uint256",
							"name": "ID",
							"type": "uint256"
						},
						{
							"internalType": "string",
							"name": "title",
							"type": "string"
						},
						{
							"internalType": "string",
							"name": "author",
							"type": "string"
						},
						{
							"internalType": "string",
							"name": "genre",
							"type": "string"
						},
						{
							"internalType": "bool",
							"name": "available",
							"type": "bool"
						}
					],
					"stateMutability": "view",
					"type": "function"
				}
			],
			"devdoc": {
				"kind": "dev",
				"methods": {},
				"version": 1
			},
			"evm": {
				"assembly": "    /* \"Book.sol\":59:704  contract BookContract {... */\n  mstore(0x40, 0x80)\n  callvalue\n  dup1\n  iszero\n  tag_1\n  jumpi\n  revert(0x00, 0x00)\ntag_1:\n  pop\n  dataSize(sub_0)\n  dup1\n  dataOffset(sub_0)\n  0x00\n  codecopy\n  0x00\n  return\nstop\n\nsub_0: assembly {\n        /* \"Book.sol\":59:704  contract BookContract {... */\n      mstore(0x40, 0x80)\n      callvalue\n      dup1\n      iszero\n      tag_1\n      jumpi\n      revert(0x00, 0x00)\n    tag_1:\n      pop\n      jumpi(tag_2, lt(calldatasize, 0x04))\n      shr(0xe0, calldataload(0x00))\n      dup1\n      0x3088c00f\n      eq\n      tag_3\n      jumpi\n      dup1\n      0x69c46826\n      eq\n      tag_4\n      jumpi\n      dup1\n      0x93bdb2bb\n      eq\n      tag_5\n      jumpi\n    tag_2:\n      revert(0x00, 0x00)\n        /* \"Book.sol\":223:248  Book[] public listOfBooks */\n    tag_3:\n      tag_6\n      0x04\n      dup1\n      calldatasize\n      sub\n      dup2\n      add\n      swap1\n      tag_7\n      swap2\n      swap1\n      tag_8\n      jump\t// in\n    tag_7:\n      tag_9\n      jump\t// in\n    tag_6:\n      mload(0x40)\n      tag_10\n      swap6\n      swap5\n      swap4\n      swap3\n      swap2\n      swap1\n      tag_11\n      jump\t// in\n    tag_10:\n      mload(0x40)\n      dup1\n      swap2\n      sub\n      swap1\n      return\n        /* \"Book.sol\":306:702  function addBook(... */\n    tag_4:\n      tag_12\n      0x04\n      dup1\n      calldatasize\n      sub\n      dup2\n      add\n      swap1\n      tag_13\n      swap2\n      swap1\n      tag_14\n      jump\t// in\n    tag_13:\n      tag_15\n      jump\t// in\n    tag_12:\n      stop\n        /* \"Book.sol\":254:299  mapping(string => Book[]) public genreToBooks */\n    tag_5:\n      tag_16\n      0x04\n      dup1\n      calldatasize\n      sub\n      dup2\n      add\n      swap1\n      tag_17\n      swap2\n      swap1\n      tag_18\n      jump\t// in\n    tag_17:\n      tag_19\n      jump\t// in\n    tag_16:\n      mload(0x40)\n      tag_20\n      swap6\n      swap5\n      swap4\n      swap3\n      swap2\n      swap1\n      tag_11\n      jump\t// in\n    tag_20:\n      mload(0x40)\n      dup1\n      swap2\n      sub\n      swap1\n      return\n        /* \"Book.sol\":223:248  Book[] public listOfBooks */\n    tag_9:\n      0x00\n      dup2\n      dup2\n      sload\n      dup2\n      lt\n      tag_21\n      jumpi\n      0x00\n      dup1\n      revert\n    tag_21:\n      swap1\n      0x00\n      mstore\n      keccak256(0x00, 0x20)\n      swap1\n      0x05\n      mul\n      add\n      0x00\n      swap2\n      pop\n      swap1\n      pop\n      dup1\n      0x00\n      add\n      sload\n      swap1\n      dup1\n      0x01\n      add\n      dup1\n      sload\n      tag_23\n      swap1\n      tag_24\n      jump\t// in\n    tag_23:\n      dup1\n      0x1f\n      add\n      0x20\n      dup1\n      swap2\n      div\n      mul\n      0x20\n      add\n      mload(0x40)\n      swap1\n      dup2\n      add\n      0x40\n      mstore\n      dup1\n      swap3\n      swap2\n      swap1\n      dup2\n      dup2\n      mstore\n      0x20\n      add\n      dup3\n      dup1\n      sload\n      tag_25\n      swap1\n      tag_24\n      jump\t// in\n    tag_25:\n      dup1\n      iszero\n      tag_26\n      jumpi\n      dup1\n      0x1f\n      lt\n      tag_27\n      jumpi\n      0x0100\n      dup1\n      dup4\n      sload\n      div\n      mul\n      dup4\n      mstore\n      swap2\n      0x20\n      add\n      swap2\n      jump(tag_26)\n    tag_27:\n      dup3\n      add\n      swap2\n      swap1\n      0x00\n      mstore\n      keccak256(0x00, 0x20)\n      swap1\n    tag_28:\n      dup2\n      sload\n      dup2\n      mstore\n      swap1\n      0x01\n      add\n      swap1\n      0x20\n      add\n      dup1\n      dup4\n      gt\n      tag_28\n      jumpi\n      dup3\n      swap1\n      sub\n      0x1f\n      and\n      dup3\n      add\n      swap2\n    tag_26:\n      pop\n      pop\n      pop\n      pop\n      pop\n      swap1\n      dup1\n      0x02\n      add\n      dup1\n      sload\n      tag_29\n      swap1\n      tag_24\n      jump\t// in\n    tag_29:\n      dup1\n      0x1f\n      add\n      0x20\n      dup1\n      swap2\n      div\n      mul\n      0x20\n      add\n      mload(0x40)\n      swap1\n      dup2\n      add\n      0x40\n      mstore\n      dup1\n      swap3\n      swap2\n      swap1\n      dup2\n      dup2\n      mstore\n      0x20\n      add\n      dup3\n      dup1\n      sload\n      tag_30\n      swap1\n      tag_24\n      jump\t// in\n    tag_30:\n      dup1\n      iszero\n      tag_31\n      jumpi\n      dup1\n      0x1f\n      lt\n      tag_32\n      jumpi\n      0x0100\n      dup1\n      dup4\n      sload\n      div\n      mul\n      dup4\n      mstore\n      swap2\n      0x20\n      add\n      swap2\n      jump(tag_31)\n    tag_32:\n      dup3\n      add\n      swap2\n      swap1\n      0x00\n      mstore\n      keccak256(0x00, 0x20)\n      swap1\n    tag_33:\n      dup2\n      sload\n      dup2\n      mstore\n      swap1\n      0x01\n      add\n      swap1\n      0x20\n      add\n      dup1\n      dup4\n      gt\n      tag_33\n      jumpi\n      dup3\n      swap1\n      sub\n      0x1f\n      and\n      dup3\n      add\n      swap2\n    tag_31:\n      pop\n      pop\n      pop\n      pop\n      pop\n      swap1\n      dup1\n      0x03\n      add\n      dup1\n      sload\n      tag_34\n      swap1\n      tag_24\n      jump\t// in\n    tag_34:\n      dup1\n      0x1f\n      add\n      0x20\n      dup1\n      swap2\n      div\n      mul\n      0x20\n      add\n      mload(0x40)\n      swap1\n      dup2\n      add\n      0x40\n      mstore\n      dup1\n      swap3\n      swap2\n      swap1\n      dup2\n      dup2\n      mstore\n      0x20\n      add\n      dup3\n      dup1\n      sload\n      tag_35\n      swap1\n      tag_24\n      jump\t// in\n    tag_35:\n      dup1\n      iszero\n      tag_36\n      jumpi\n      dup1\n      0x1f\n      lt\n      tag_37\n      jumpi\n      0x0100\n      dup1\n      dup4\n      sload\n      div\n      mul\n      dup4\n      mstore\n      swap2\n      0x20\n      add\n      swap2\n      jump(tag_36)\n    tag_37:\n      dup3\n      add\n      swap2\n      swap1\n      0x00\n      mstore\n      keccak256(0x00, 0x20)\n      swap1\n    tag_38:\n      dup2\n      sload\n      dup2\n      mstore\n      swap1\n      0x01\n      add\n      swap1\n      0x20\n      add\n      dup1\n      dup4\n      gt\n      tag_38\n      jumpi\n      dup3\n      swap1\n      sub\n      0x1f\n      and\n      dup3\n      add\n      swap2\n    tag_36:\n      pop\n      pop\n      pop\n      pop\n      pop\n      swap1\n      dup1\n      0x04\n      add\n      0x00\n      swap1\n      sload\n      swap1\n      0x0100\n      exp\n      swap1\n      div\n      0xff\n      and\n      swap1\n      pop\n      dup6\n      jump\t// out\n        /* \"Book.sol\":306:702  function addBook(... */\n    tag_15:\n        /* \"Book.sol\":437:448  uint256 _ID */\n      0x00\n        /* \"Book.sol\":472:473  1 */\n      0x01\n        /* \"Book.sol\":451:462  listOfBooks */\n      0x00\n        /* \"Book.sol\":451:469  listOfBooks.length */\n      dup1\n      sload\n      swap1\n      pop\n        /* \"Book.sol\":451:473  listOfBooks.length + 1 */\n      tag_40\n      swap2\n      swap1\n      tag_41\n      jump\t// in\n    tag_40:\n        /* \"Book.sol\":437:473  uint256 _ID = listOfBooks.length + 1 */\n      swap1\n      pop\n        /* \"Book.sol\":483:502  Book memory newBook */\n      0x00\n        /* \"Book.sol\":505:615  Book(... */\n      mload(0x40)\n      dup1\n      0xa0\n      add\n      0x40\n      mstore\n      dup1\n        /* \"Book.sol\":523:526  _ID */\n      dup4\n        /* \"Book.sol\":505:615  Book(... */\n      dup2\n      mstore\n      0x20\n      add\n        /* \"Book.sol\":540:546  _title */\n      dup7\n        /* \"Book.sol\":505:615  Book(... */\n      dup2\n      mstore\n      0x20\n      add\n        /* \"Book.sol\":560:567  _author */\n      dup6\n        /* \"Book.sol\":505:615  Book(... */\n      dup2\n      mstore\n      0x20\n      add\n        /* \"Book.sol\":581:587  _genre */\n      dup5\n        /* \"Book.sol\":505:615  Book(... */\n      dup2\n      mstore\n      0x20\n      add\n        /* \"Book.sol\":601:605  true */\n      0x01\n        /* \"Book.sol\":505:615  Book(... */\n      iszero\n      iszero\n      dup2\n      mstore\n      pop\n        /* \"Book.sol\":483:615  Book memory newBook = Book(... */\n      swap1\n      pop\n        /* \"Book.sol\":626:637  listOfBooks */\n      0x00\n        /* \"Book.sol\":643:650  newBook */\n      dup2\n        /* \"Book.sol\":626:651  listOfBooks.push(newBook) */\n      swap1\n      dup1\n      0x01\n      dup2\n      sload\n      add\n      dup1\n      dup3\n      sstore\n      dup1\n      swap2\n      pop\n      pop\n      0x01\n      swap1\n      sub\n      swap1\n      0x00\n      mstore\n      keccak256(0x00, 0x20)\n      swap1\n      0x05\n      mul\n      add\n      0x00\n      swap1\n      swap2\n      swap1\n      swap2\n      swap1\n      swap2\n      pop\n      0x00\n      dup3\n      add\n      mload\n      dup2\n      0x00\n      add\n      sstore\n      0x20\n      dup3\n      add\n      mload\n      dup2\n      0x01\n      add\n      swap1\n      dup2\n      tag_43\n      swap2\n      swap1\n      tag_44\n      jump\t// in\n    tag_43:\n      pop\n      0x40\n      dup3\n      add\n      mload\n      dup2\n      0x02\n      add\n      swap1\n      dup2\n      tag_45\n      swap2\n      swap1\n      tag_44\n      jump\t// in\n    tag_45:\n      pop\n      0x60\n      dup3\n      add\n      mload\n      dup2\n      0x03\n      add\n      swap1\n      dup2\n      tag_46\n      swap2\n      swap1\n      tag_44\n      jump\t// in\n    tag_46:\n      pop\n      0x80\n      dup3\n      add\n      mload\n      dup2\n      0x04\n      add\n      exp(0x0100, 0x00)\n      dup2\n      sload\n      dup2\n      0xff\n      mul\n      not\n      and\n      swap1\n      dup4\n      iszero\n      iszero\n      mul\n      or\n      swap1\n      sstore\n      pop\n      pop\n      pop\n        /* \"Book.sol\":661:673  genreToBooks */\n      0x01\n        /* \"Book.sol\":674:680  _genre */\n      dup4\n        /* \"Book.sol\":661:681  genreToBooks[_genre] */\n      mload(0x40)\n      tag_47\n      swap2\n      swap1\n      tag_48\n      jump\t// in\n    tag_47:\n      swap1\n      dup2\n      mstore\n      0x20\n      add\n      mload(0x40)\n      dup1\n      swap2\n      sub\n      swap1\n      keccak256\n        /* \"Book.sol\":687:694  newBook */\n      dup2\n        /* \"Book.sol\":661:695  genreToBooks[_genre].push(newBook) */\n      swap1\n      dup1\n      0x01\n      dup2\n      sload\n      add\n      dup1\n      dup3\n      sstore\n      dup1\n      swap2\n      pop\n      pop\n      0x01\n      swap1\n      sub\n      swap1\n      0x00\n      mstore\n      keccak256(0x00, 0x20)\n      swap1\n      0x05\n      mul\n      add\n      0x00\n      swap1\n      swap2\n      swap1\n      swap2\n      swap1\n      swap2\n      pop\n      0x00\n      dup3\n      add\n      mload\n      dup2\n      0x00\n      add\n      sstore\n      0x20\n      dup3\n      add\n      mload\n      dup2\n      0x01\n      add\n      swap1\n      dup2\n      tag_50\n      swap2\n      swap1\n      tag_44\n      jump\t// in\n    tag_50:\n      pop\n      0x40\n      dup3\n      add\n      mload\n      dup2\n      0x02\n      add\n      swap1\n      dup2\n      tag_51\n      swap2\n      swap1\n      tag_44\n      jump\t// in\n    tag_51:\n      pop\n      0x60\n      dup3\n      add\n      mload\n      dup2\n      0x03\n      add\n      swap1\n      dup2\n      tag_52\n      swap2\n      swap1\n      tag_44\n      jump\t// in\n    tag_52:\n      pop\n      0x80\n      dup3\n      add\n      mload\n      dup2\n      0x04\n      add\n      exp(0x0100, 0x00)\n      dup2\n      sload\n      dup2\n      0xff\n      mul\n      not\n      and\n      swap1\n      dup4\n      iszero\n      iszero\n      mul\n      or\n      swap1\n      sstore\n      pop\n      pop\n      pop\n        /* \"Book.sol\":427:702  {... */\n      pop\n      pop\n        /* \"Book.sol\":306:702  function addBook(... */\n      pop\n      pop\n      pop\n      jump\t// out\n        /* \"Book.sol\":254:299  mapping(string => Book[]) public genreToBooks */\n    tag_19:\n      0x01\n      dup3\n      dup1\n      mload\n      0x20\n      dup2\n      add\n      dup3\n      add\n      dup1\n      mload\n      dup5\n      dup3\n      mstore\n      0x20\n      dup4\n      add\n      0x20\n      dup6\n      add\n      keccak256\n      dup2\n      dup4\n      mstore\n      dup1\n      swap6\n      pop\n      pop\n      pop\n      pop\n      pop\n      pop\n      dup2\n      dup2\n      sload\n      dup2\n      lt\n      tag_53\n      jumpi\n      0x00\n      dup1\n      revert\n    tag_53:\n      swap1\n      0x00\n      mstore\n      keccak256(0x00, 0x20)\n      swap1\n      0x05\n      mul\n      add\n      0x00\n      swap2\n      pop\n      swap2\n      pop\n      pop\n      dup1\n      0x00\n      add\n      sload\n      swap1\n      dup1\n      0x01\n      add\n      dup1\n      sload\n      tag_55\n      swap1\n      tag_24\n      jump\t// in\n    tag_55:\n      dup1\n      0x1f\n      add\n      0x20\n      dup1\n      swap2\n      div\n      mul\n      0x20\n      add\n      mload(0x40)\n      swap1\n      dup2\n      add\n      0x40\n      mstore\n      dup1\n      swap3\n      swap2\n      swap1\n      dup2\n      dup2\n      mstore\n      0x20\n      add\n      dup3\n      dup1\n      sload\n      tag_56\n      swap1\n      tag_24\n      jump\t// in\n    tag_56:\n      dup1\n      iszero\n      tag_57\n      jumpi\n      dup1\n      0x1f\n      lt\n      tag_58\n      jumpi\n      0x0100\n      dup1\n      dup4\n      sload\n      div\n      mul\n      dup4\n      mstore\n      swap2\n      0x20\n      add\n      swap2\n      jump(tag_57)\n    tag_58:\n      dup3\n      add\n      swap2\n      swap1\n      0x00\n      mstore\n      keccak256(0x00, 0x20)\n      swap1\n    tag_59:\n      dup2\n      sload\n      dup2\n      mstore\n      swap1\n      0x01\n      add\n      swap1\n      0x20\n      add\n      dup1\n      dup4\n      gt\n      tag_59\n      jumpi\n      dup3\n      swap1\n      sub\n      0x1f\n      and\n      dup3\n      add\n      swap2\n    tag_57:\n      pop\n      pop\n      pop\n      pop\n      pop\n      swap1\n      dup1\n      0x02\n      add\n      dup1\n      sload\n      tag_60\n      swap1\n      tag_24\n      jump\t// in\n    tag_60:\n      dup1\n      0x1f\n      add\n      0x20\n      dup1\n      swap2\n      div\n      mul\n      0x20\n      add\n      mload(0x40)\n      swap1\n      dup2\n      add\n      0x40\n      mstore\n      dup1\n      swap3\n      swap2\n      swap1\n      dup2\n      dup2\n      mstore\n      0x20\n      add\n      dup3\n      dup1\n      sload\n      tag_61\n      swap1\n      tag_24\n      jump\t// in\n    tag_61:\n      dup1\n      iszero\n      tag_62\n      jumpi\n      dup1\n      0x1f\n      lt\n      tag_63\n      jumpi\n      0x0100\n      dup1\n      dup4\n      sload\n      div\n      mul\n      dup4\n      mstore\n      swap2\n      0x20\n      add\n      swap2\n      jump(tag_62)\n    tag_63:\n      dup3\n      add\n      swap2\n      swap1\n      0x00\n      mstore\n      keccak256(0x00, 0x20)\n      swap1\n    tag_64:\n      dup2\n      sload\n      dup2\n      mstore\n      swap1\n      0x01\n      add\n      swap1\n      0x20\n      add\n      dup1\n      dup4\n      gt\n      tag_64\n      jumpi\n      dup3\n      swap1\n      sub\n      0x1f\n      and\n      dup3\n      add\n      swap2\n    tag_62:\n      pop\n      pop\n      pop\n      pop\n      pop\n      swap1\n      dup1\n      0x03\n      add\n      dup1\n      sload\n      tag_65\n      swap1\n      tag_24\n      jump\t// in\n    tag_65:\n      dup1\n      0x1f\n      add\n      0x20\n      dup1\n      swap2\n      div\n      mul\n      0x20\n      add\n      mload(0x40)\n      swap1\n      dup2\n      add\n      0x40\n      mstore\n      dup1\n      swap3\n      swap2\n      swap1\n      dup2\n      dup2\n      mstore\n      0x20\n      add\n      dup3\n      dup1\n      sload\n      tag_66\n      swap1\n      tag_24\n      jump\t// in\n    tag_66:\n      dup1\n      iszero\n      tag_67\n      jumpi\n      dup1\n      0x1f\n      lt\n      tag_68\n      jumpi\n      0x0100\n      dup1\n      dup4\n      sload\n      div\n      mul\n      dup4\n      mstore\n      swap2\n      0x20\n      add\n      swap2\n      jump(tag_67)\n    tag_68:\n      dup3\n      add\n      swap2\n      swap1\n      0x00\n      mstore\n      keccak256(0x00, 0x20)\n      swap1\n    tag_69:\n      dup2\n      sload\n      dup2\n      mstore\n      swap1\n      0x01\n      add\n      swap1\n      0x20\n      add\n      dup1\n      dup4\n      gt\n      tag_69\n      jumpi\n      dup3\n      swap1\n      sub\n      0x1f\n      and\n      dup3\n      add\n      swap2\n    tag_67:\n      pop\n      pop\n      pop\n      pop\n      pop\n      swap1\n      dup1\n      0x04\n      add\n      0x00\n      swap1\n      sload\n      swap1\n      0x0100\n      exp\n      swap1\n      div\n      0xff\n      and\n      swap1\n      pop\n      dup6\n      jump\t// out\n        /* \"#utility.yul\":7:82   */\n    tag_70:\n        /* \"#utility.yul\":40:46   */\n      0x00\n        /* \"#utility.yul\":73:75   */\n      0x40\n        /* \"#utility.yul\":67:76   */\n      mload\n        /* \"#utility.yul\":57:76   */\n      swap1\n      pop\n        /* \"#utility.yul\":7:82   */\n      swap1\n      jump\t// out\n        /* \"#utility.yul\":88:205   */\n    tag_71:\n        /* \"#utility.yul\":197:198   */\n      0x00\n        /* \"#utility.yul\":194:195   */\n      0x00\n        /* \"#utility.yul\":187:199   */\n      revert\n        /* \"#utility.yul\":211:328   */\n    tag_72:\n        /* \"#utility.yul\":320:321   */\n      0x00\n        /* \"#utility.yul\":317:318   */\n      0x00\n        /* \"#utility.yul\":310:322   */\n      revert\n        /* \"#utility.yul\":334:411   */\n    tag_73:\n        /* \"#utility.yul\":371:378   */\n      0x00\n        /* \"#utility.yul\":400:405   */\n      dup2\n        /* \"#utility.yul\":389:405   */\n      swap1\n      pop\n        /* \"#utility.yul\":334:411   */\n      swap2\n      swap1\n      pop\n      jump\t// out\n        /* \"#utility.yul\":417:539   */\n    tag_74:\n        /* \"#utility.yul\":490:514   */\n      tag_118\n        /* \"#utility.yul\":508:513   */\n      dup2\n        /* \"#utility.yul\":490:514   */\n      tag_73\n      jump\t// in\n    tag_118:\n        /* \"#utility.yul\":483:488   */\n      dup2\n        /* \"#utility.yul\":480:515   */\n      eq\n        /* \"#utility.yul\":470:533   */\n      tag_119\n      jumpi\n        /* \"#utility.yul\":529:530   */\n      0x00\n        /* \"#utility.yul\":526:527   */\n      0x00\n        /* \"#utility.yul\":519:531   */\n      revert\n        /* \"#utility.yul\":470:533   */\n    tag_119:\n        /* \"#utility.yul\":417:539   */\n      pop\n      jump\t// out\n        /* \"#utility.yul\":545:684   */\n    tag_75:\n        /* \"#utility.yul\":591:596   */\n      0x00\n        /* \"#utility.yul\":629:635   */\n      dup2\n        /* \"#utility.yul\":616:636   */\n      calldataload\n        /* \"#utility.yul\":607:636   */\n      swap1\n      pop\n        /* \"#utility.yul\":645:678   */\n      tag_121\n        /* \"#utility.yul\":672:677   */\n      dup2\n        /* \"#utility.yul\":645:678   */\n      tag_74\n      jump\t// in\n    tag_121:\n        /* \"#utility.yul\":545:684   */\n      swap3\n      swap2\n      pop\n      pop\n      jump\t// out\n        /* \"#utility.yul\":690:1019   */\n    tag_8:\n        /* \"#utility.yul\":749:755   */\n      0x00\n        /* \"#utility.yul\":798:800   */\n      0x20\n        /* \"#utility.yul\":786:795   */\n      dup3\n        /* \"#utility.yul\":777:784   */\n      dup5\n        /* \"#utility.yul\":773:796   */\n      sub\n        /* \"#utility.yul\":769:801   */\n      slt\n        /* \"#utility.yul\":766:885   */\n      iszero\n      tag_123\n      jumpi\n        /* \"#utility.yul\":804:883   */\n      tag_124\n      tag_71\n      jump\t// in\n    tag_124:\n        /* \"#utility.yul\":766:885   */\n    tag_123:\n        /* \"#utility.yul\":924:925   */\n      0x00\n        /* \"#utility.yul\":949:1002   */\n      tag_125\n        /* \"#utility.yul\":994:1001   */\n      dup5\n        /* \"#utility.yul\":985:991   */\n      dup3\n        /* \"#utility.yul\":974:983   */\n      dup6\n        /* \"#utility.yul\":970:992   */\n      add\n        /* \"#utility.yul\":949:1002   */\n      tag_75\n      jump\t// in\n    tag_125:\n        /* \"#utility.yul\":939:1002   */\n      swap2\n      pop\n        /* \"#utility.yul\":895:1012   */\n      pop\n        /* \"#utility.yul\":690:1019   */\n      swap3\n      swap2\n      pop\n      pop\n      jump\t// out\n        /* \"#utility.yul\":1025:1143   */\n    tag_76:\n        /* \"#utility.yul\":1112:1136   */\n      tag_127\n        /* \"#utility.yul\":1130:1135   */\n      dup2\n        /* \"#utility.yul\":1112:1136   */\n      tag_73\n      jump\t// in\n    tag_127:\n        /* \"#utility.yul\":1107:1110   */\n      dup3\n        /* \"#utility.yul\":1100:1137   */\n      mstore\n        /* \"#utility.yul\":1025:1143   */\n      pop\n      pop\n      jump\t// out\n        /* \"#utility.yul\":1149:1248   */\n    tag_77:\n        /* \"#utility.yul\":1201:1207   */\n      0x00\n        /* \"#utility.yul\":1235:1240   */\n      dup2\n        /* \"#utility.yul\":1229:1241   */\n      mload\n        /* \"#utility.yul\":1219:1241   */\n      swap1\n      pop\n        /* \"#utility.yul\":1149:1248   */\n      swap2\n      swap1\n      pop\n      jump\t// out\n        /* \"#utility.yul\":1254:1423   */\n    tag_78:\n        /* \"#utility.yul\":1338:1349   */\n      0x00\n        /* \"#utility.yul\":1372:1378   */\n      dup3\n        /* \"#utility.yul\":1367:1370   */\n      dup3\n        /* \"#utility.yul\":1360:1379   */\n      mstore\n        /* \"#utility.yul\":1412:1416   */\n      0x20\n        /* \"#utility.yul\":1407:1410   */\n      dup3\n        /* \"#utility.yul\":1403:1417   */\n      add\n        /* \"#utility.yul\":1388:1417   */\n      swap1\n      pop\n        /* \"#utility.yul\":1254:1423   */\n      swap3\n      swap2\n      pop\n      pop\n      jump\t// out\n        /* \"#utility.yul\":1429:1568   */\n    tag_79:\n        /* \"#utility.yul\":1518:1524   */\n      dup3\n        /* \"#utility.yul\":1513:1516   */\n      dup2\n        /* \"#utility.yul\":1508:1511   */\n      dup4\n        /* \"#utility.yul\":1502:1525   */\n      mcopy\n        /* \"#utility.yul\":1559:1560   */\n      0x00\n        /* \"#utility.yul\":1550:1556   */\n      dup4\n        /* \"#utility.yul\":1545:1548   */\n      dup4\n        /* \"#utility.yul\":1541:1557   */\n      add\n        /* \"#utility.yul\":1534:1561   */\n      mstore\n        /* \"#utility.yul\":1429:1568   */\n      pop\n      pop\n      pop\n      jump\t// out\n        /* \"#utility.yul\":1574:1676   */\n    tag_80:\n        /* \"#utility.yul\":1615:1621   */\n      0x00\n        /* \"#utility.yul\":1666:1668   */\n      0x1f\n        /* \"#utility.yul\":1662:1669   */\n      not\n        /* \"#utility.yul\":1657:1659   */\n      0x1f\n        /* \"#utility.yul\":1650:1655   */\n      dup4\n        /* \"#utility.yul\":1646:1660   */\n      add\n        /* \"#utility.yul\":1642:1670   */\n      and\n        /* \"#utility.yul\":1632:1670   */\n      swap1\n      pop\n        /* \"#utility.yul\":1574:1676   */\n      swap2\n      swap1\n      pop\n      jump\t// out\n        /* \"#utility.yul\":1682:2059   */\n    tag_81:\n        /* \"#utility.yul\":1770:1773   */\n      0x00\n        /* \"#utility.yul\":1798:1837   */\n      tag_133\n        /* \"#utility.yul\":1831:1836   */\n      dup3\n        /* \"#utility.yul\":1798:1837   */\n      tag_77\n      jump\t// in\n    tag_133:\n        /* \"#utility.yul\":1853:1924   */\n      tag_134\n        /* \"#utility.yul\":1917:1923   */\n      dup2\n        /* \"#utility.yul\":1912:1915   */\n      dup6\n        /* \"#utility.yul\":1853:1924   */\n      tag_78\n      jump\t// in\n    tag_134:\n        /* \"#utility.yul\":1846:1924   */\n      swap4\n      pop\n        /* \"#utility.yul\":1933:1998   */\n      tag_135\n        /* \"#utility.yul\":1991:1997   */\n      dup2\n        /* \"#utility.yul\":1986:1989   */\n      dup6\n        /* \"#utility.yul\":1979:1983   */\n      0x20\n        /* \"#utility.yul\":1972:1977   */\n      dup7\n        /* \"#utility.yul\":1968:1984   */\n      add\n        /* \"#utility.yul\":1933:1998   */\n      tag_79\n      jump\t// in\n    tag_135:\n        /* \"#utility.yul\":2023:2052   */\n      tag_136\n        /* \"#utility.yul\":2045:2051   */\n      dup2\n        /* \"#utility.yul\":2023:2052   */\n      tag_80\n      jump\t// in\n    tag_136:\n        /* \"#utility.yul\":2018:2021   */\n      dup5\n        /* \"#utility.yul\":2014:2053   */\n      add\n        /* \"#utility.yul\":2007:2053   */\n      swap2\n      pop\n        /* \"#utility.yul\":1774:2059   */\n      pop\n        /* \"#utility.yul\":1682:2059   */\n      swap3\n      swap2\n      pop\n      pop\n      jump\t// out\n        /* \"#utility.yul\":2065:2155   */\n    tag_82:\n        /* \"#utility.yul\":2099:2106   */\n      0x00\n        /* \"#utility.yul\":2142:2147   */\n      dup2\n        /* \"#utility.yul\":2135:2148   */\n      iszero\n        /* \"#utility.yul\":2128:2149   */\n      iszero\n        /* \"#utility.yul\":2117:2149   */\n      swap1\n      pop\n        /* \"#utility.yul\":2065:2155   */\n      swap2\n      swap1\n      pop\n      jump\t// out\n        /* \"#utility.yul\":2161:2270   */\n    tag_83:\n        /* \"#utility.yul\":2242:2263   */\n      tag_139\n        /* \"#utility.yul\":2257:2262   */\n      dup2\n        /* \"#utility.yul\":2242:2263   */\n      tag_82\n      jump\t// in\n    tag_139:\n        /* \"#utility.yul\":2237:2240   */\n      dup3\n        /* \"#utility.yul\":2230:2264   */\n      mstore\n        /* \"#utility.yul\":2161:2270   */\n      pop\n      pop\n      jump\t// out\n        /* \"#utility.yul\":2276:3201   */\n    tag_11:\n        /* \"#utility.yul\":2535:2539   */\n      0x00\n        /* \"#utility.yul\":2573:2576   */\n      0xa0\n        /* \"#utility.yul\":2562:2571   */\n      dup3\n        /* \"#utility.yul\":2558:2577   */\n      add\n        /* \"#utility.yul\":2550:2577   */\n      swap1\n      pop\n        /* \"#utility.yul\":2587:2658   */\n      tag_141\n        /* \"#utility.yul\":2655:2656   */\n      0x00\n        /* \"#utility.yul\":2644:2653   */\n      dup4\n        /* \"#utility.yul\":2640:2657   */\n      add\n        /* \"#utility.yul\":2631:2637   */\n      dup9\n        /* \"#utility.yul\":2587:2658   */\n      tag_76\n      jump\t// in\n    tag_141:\n        /* \"#utility.yul\":2705:2714   */\n      dup2\n        /* \"#utility.yul\":2699:2703   */\n      dup2\n        /* \"#utility.yul\":2695:2715   */\n      sub\n        /* \"#utility.yul\":2690:2692   */\n      0x20\n        /* \"#utility.yul\":2679:2688   */\n      dup4\n        /* \"#utility.yul\":2675:2693   */\n      add\n        /* \"#utility.yul\":2668:2716   */\n      mstore\n        /* \"#utility.yul\":2733:2811   */\n      tag_142\n        /* \"#utility.yul\":2806:2810   */\n      dup2\n        /* \"#utility.yul\":2797:2803   */\n      dup8\n        /* \"#utility.yul\":2733:2811   */\n      tag_81\n      jump\t// in\n    tag_142:\n        /* \"#utility.yul\":2725:2811   */\n      swap1\n      pop\n        /* \"#utility.yul\":2858:2867   */\n      dup2\n        /* \"#utility.yul\":2852:2856   */\n      dup2\n        /* \"#utility.yul\":2848:2868   */\n      sub\n        /* \"#utility.yul\":2843:2845   */\n      0x40\n        /* \"#utility.yul\":2832:2841   */\n      dup4\n        /* \"#utility.yul\":2828:2846   */\n      add\n        /* \"#utility.yul\":2821:2869   */\n      mstore\n        /* \"#utility.yul\":2886:2964   */\n      tag_143\n        /* \"#utility.yul\":2959:2963   */\n      dup2\n        /* \"#utility.yul\":2950:2956   */\n      dup7\n        /* \"#utility.yul\":2886:2964   */\n      tag_81\n      jump\t// in\n    tag_143:\n        /* \"#utility.yul\":2878:2964   */\n      swap1\n      pop\n        /* \"#utility.yul\":3011:3020   */\n      dup2\n        /* \"#utility.yul\":3005:3009   */\n      dup2\n        /* \"#utility.yul\":3001:3021   */\n      sub\n        /* \"#utility.yul\":2996:2998   */\n      0x60\n        /* \"#utility.yul\":2985:2994   */\n      dup4\n        /* \"#utility.yul\":2981:2999   */\n      add\n        /* \"#utility.yul\":2974:3022   */\n      mstore\n        /* \"#utility.yul\":3039:3117   */\n      tag_144\n        /* \"#utility.yul\":3112:3116   */\n      dup2\n        /* \"#utility.yul\":3103:3109   */\n      dup6\n        /* \"#utility.yul\":3039:3117   */\n      tag_81\n      jump\t// in\n    tag_144:\n        /* \"#utility.yul\":3031:3117   */\n      swap1\n      pop\n        /* \"#utility.yul\":3127:3194   */\n      tag_145\n        /* \"#utility.yul\":3189:3192   */\n      0x80\n        /* \"#utility.yul\":3178:3187   */\n      dup4\n        /* \"#utility.yul\":3174:3193   */\n      add\n        /* \"#utility.yul\":3165:3171   */\n      dup5\n        /* \"#utility.yul\":3127:3194   */\n      tag_83\n      jump\t// in\n    tag_145:\n        /* \"#utility.yul\":2276:3201   */\n      swap7\n      swap6\n      pop\n      pop\n      pop\n      pop\n      pop\n      pop\n      jump\t// out\n        /* \"#utility.yul\":3207:3324   */\n    tag_84:\n        /* \"#utility.yul\":3316:3317   */\n      0x00\n        /* \"#utility.yul\":3313:3314   */\n      0x00\n        /* \"#utility.yul\":3306:3318   */\n      revert\n        /* \"#utility.yul\":3330:3447   */\n    tag_85:\n        /* \"#utility.yul\":3439:3440   */\n      0x00\n        /* \"#utility.yul\":3436:3437   */\n      0x00\n        /* \"#utility.yul\":3429:3441   */\n      revert\n        /* \"#utility.yul\":3453:3633   */\n    tag_86:\n        /* \"#utility.yul\":3501:3578   */\n      0x4e487b7100000000000000000000000000000000000000000000000000000000\n        /* \"#utility.yul\":3498:3499   */\n      0x00\n        /* \"#utility.yul\":3491:3579   */\n      mstore\n        /* \"#utility.yul\":3598:3602   */\n      0x41\n        /* \"#utility.yul\":3595:3596   */\n      0x04\n        /* \"#utility.yul\":3588:3603   */\n      mstore\n        /* \"#utility.yul\":3622:3626   */\n      0x24\n        /* \"#utility.yul\":3619:3620   */\n      0x00\n        /* \"#utility.yul\":3612:3627   */\n      revert\n        /* \"#utility.yul\":3639:3920   */\n    tag_87:\n        /* \"#utility.yul\":3722:3749   */\n      tag_150\n        /* \"#utility.yul\":3744:3748   */\n      dup3\n        /* \"#utility.yul\":3722:3749   */\n      tag_80\n      jump\t// in\n    tag_150:\n        /* \"#utility.yul\":3714:3720   */\n      dup2\n        /* \"#utility.yul\":3710:3750   */\n      add\n        /* \"#utility.yul\":3852:3858   */\n      dup2\n        /* \"#utility.yul\":3840:3850   */\n      dup2\n        /* \"#utility.yul\":3837:3859   */\n      lt\n        /* \"#utility.yul\":3816:3834   */\n      0xffffffffffffffff\n        /* \"#utility.yul\":3804:3814   */\n      dup3\n        /* \"#utility.yul\":3801:3835   */\n      gt\n        /* \"#utility.yul\":3798:3860   */\n      or\n        /* \"#utility.yul\":3795:3883   */\n      iszero\n      tag_151\n      jumpi\n        /* \"#utility.yul\":3863:3881   */\n      tag_152\n      tag_86\n      jump\t// in\n    tag_152:\n        /* \"#utility.yul\":3795:3883   */\n    tag_151:\n        /* \"#utility.yul\":3903:3913   */\n      dup1\n        /* \"#utility.yul\":3899:3901   */\n      0x40\n        /* \"#utility.yul\":3892:3914   */\n      mstore\n        /* \"#utility.yul\":3682:3920   */\n      pop\n        /* \"#utility.yul\":3639:3920   */\n      pop\n      pop\n      jump\t// out\n        /* \"#utility.yul\":3926:4055   */\n    tag_88:\n        /* \"#utility.yul\":3960:3966   */\n      0x00\n        /* \"#utility.yul\":3987:4007   */\n      tag_154\n      tag_70\n      jump\t// in\n    tag_154:\n        /* \"#utility.yul\":3977:4007   */\n      swap1\n      pop\n        /* \"#utility.yul\":4016:4049   */\n      tag_155\n        /* \"#utility.yul\":4044:4048   */\n      dup3\n        /* \"#utility.yul\":4036:4042   */\n      dup3\n        /* \"#utility.yul\":4016:4049   */\n      tag_87\n      jump\t// in\n    tag_155:\n        /* \"#utility.yul\":3926:4055   */\n      swap2\n      swap1\n      pop\n      jump\t// out\n        /* \"#utility.yul\":4061:4369   */\n    tag_89:\n        /* \"#utility.yul\":4123:4127   */\n      0x00\n        /* \"#utility.yul\":4213:4231   */\n      0xffffffffffffffff\n        /* \"#utility.yul\":4205:4211   */\n      dup3\n        /* \"#utility.yul\":4202:4232   */\n      gt\n        /* \"#utility.yul\":4199:4255   */\n      iszero\n      tag_157\n      jumpi\n        /* \"#utility.yul\":4235:4253   */\n      tag_158\n      tag_86\n      jump\t// in\n    tag_158:\n        /* \"#utility.yul\":4199:4255   */\n    tag_157:\n        /* \"#utility.yul\":4273:4302   */\n      tag_159\n        /* \"#utility.yul\":4295:4301   */\n      dup3\n        /* \"#utility.yul\":4273:4302   */\n      tag_80\n      jump\t// in\n    tag_159:\n        /* \"#utility.yul\":4265:4302   */\n      swap1\n      pop\n        /* \"#utility.yul\":4357:4361   */\n      0x20\n        /* \"#utility.yul\":4351:4355   */\n      dup2\n        /* \"#utility.yul\":4347:4362   */\n      add\n        /* \"#utility.yul\":4339:4362   */\n      swap1\n      pop\n        /* \"#utility.yul\":4061:4369   */\n      swap2\n      swap1\n      pop\n      jump\t// out\n        /* \"#utility.yul\":4375:4523   */\n    tag_90:\n        /* \"#utility.yul\":4473:4479   */\n      dup3\n        /* \"#utility.yul\":4468:4471   */\n      dup2\n        /* \"#utility.yul\":4463:4466   */\n      dup4\n        /* \"#utility.yul\":4450:4480   */\n      calldatacopy\n        /* \"#utility.yul\":4514:4515   */\n      0x00\n        /* \"#utility.yul\":4505:4511   */\n      dup4\n        /* \"#utility.yul\":4500:4503   */\n      dup4\n        /* \"#utility.yul\":4496:4512   */\n      add\n        /* \"#utility.yul\":4489:4516   */\n      mstore\n        /* \"#utility.yul\":4375:4523   */\n      pop\n      pop\n      pop\n      jump\t// out\n        /* \"#utility.yul\":4529:4954   */\n    tag_91:\n        /* \"#utility.yul\":4607:4612   */\n      0x00\n        /* \"#utility.yul\":4632:4698   */\n      tag_162\n        /* \"#utility.yul\":4648:4697   */\n      tag_163\n        /* \"#utility.yul\":4690:4696   */\n      dup5\n        /* \"#utility.yul\":4648:4697   */\n      tag_89\n      jump\t// in\n    tag_163:\n        /* \"#utility.yul\":4632:4698   */\n      tag_88\n      jump\t// in\n    tag_162:\n        /* \"#utility.yul\":4623:4698   */\n      swap1\n      pop\n        /* \"#utility.yul\":4721:4727   */\n      dup3\n        /* \"#utility.yul\":4714:4719   */\n      dup2\n        /* \"#utility.yul\":4707:4728   */\n      mstore\n        /* \"#utility.yul\":4759:4763   */\n      0x20\n        /* \"#utility.yul\":4752:4757   */\n      dup2\n        /* \"#utility.yul\":4748:4764   */\n      add\n        /* \"#utility.yul\":4797:4800   */\n      dup5\n        /* \"#utility.yul\":4788:4794   */\n      dup5\n        /* \"#utility.yul\":4783:4786   */\n      dup5\n        /* \"#utility.yul\":4779:4795   */\n      add\n        /* \"#utility.yul\":4776:4801   */\n      gt\n        /* \"#utility.yul\":4773:4885   */\n      iszero\n      tag_164\n      jumpi\n        /* \"#utility.yul\":4804:4883   */\n      tag_165\n      tag_85\n      jump\t// in\n    tag_165:\n        /* \"#utility.yul\":4773:4885   */\n    tag_164:\n        /* \"#utility.yul\":4894:4948   */\n      tag_166\n        /* \"#utility.yul\":4941:4947   */\n      dup5\n        /* \"#utility.yul\":4936:4939   */\n      dup3\n        /* \"#utility.yul\":4931:4934   */\n      dup6\n        /* \"#utility.yul\":4894:4948   */\n      tag_90\n      jump\t// in\n    tag_166:\n        /* \"#utility.yul\":4613:4954   */\n      pop\n        /* \"#utility.yul\":4529:4954   */\n      swap4\n      swap3\n      pop\n      pop\n      pop\n      jump\t// out\n        /* \"#utility.yul\":4974:5314   */\n    tag_92:\n        /* \"#utility.yul\":5030:5035   */\n      0x00\n        /* \"#utility.yul\":5079:5082   */\n      dup3\n        /* \"#utility.yul\":5072:5076   */\n      0x1f\n        /* \"#utility.yul\":5064:5070   */\n      dup4\n        /* \"#utility.yul\":5060:5077   */\n      add\n        /* \"#utility.yul\":5056:5083   */\n      slt\n        /* \"#utility.yul\":5046:5168   */\n      tag_168\n      jumpi\n        /* \"#utility.yul\":5087:5166   */\n      tag_169\n      tag_84\n      jump\t// in\n    tag_169:\n        /* \"#utility.yul\":5046:5168   */\n    tag_168:\n        /* \"#utility.yul\":5204:5210   */\n      dup2\n        /* \"#utility.yul\":5191:5211   */\n      calldataload\n        /* \"#utility.yul\":5229:5308   */\n      tag_170\n        /* \"#utility.yul\":5304:5307   */\n      dup5\n        /* \"#utility.yul\":5296:5302   */\n      dup3\n        /* \"#utility.yul\":5289:5293   */\n      0x20\n        /* \"#utility.yul\":5281:5287   */\n      dup7\n        /* \"#utility.yul\":5277:5294   */\n      add\n        /* \"#utility.yul\":5229:5308   */\n      tag_91\n      jump\t// in\n    tag_170:\n        /* \"#utility.yul\":5220:5308   */\n      swap2\n      pop\n        /* \"#utility.yul\":5036:5314   */\n      pop\n        /* \"#utility.yul\":4974:5314   */\n      swap3\n      swap2\n      pop\n      pop\n      jump\t// out\n        /* \"#utility.yul\":5320:6479   */\n    tag_14:\n        /* \"#utility.yul\":5427:5433   */\n      0x00\n        /* \"#utility.yul\":5435:5441   */\n      0x00\n        /* \"#utility.yul\":5443:5449   */\n      0x00\n        /* \"#utility.yul\":5492:5494   */\n      0x60\n        /* \"#utility.yul\":5480:5489   */\n      dup5\n        /* \"#utility.yul\":5471:5478   */\n      dup7\n        /* \"#utility.yul\":5467:5490   */\n      sub\n        /* \"#utility.yul\":5463:5495   */\n      slt\n        /* \"#utility.yul\":5460:5579   */\n      iszero\n      tag_172\n      jumpi\n        /* \"#utility.yul\":5498:5577   */\n      tag_173\n      tag_71\n      jump\t// in\n    tag_173:\n        /* \"#utility.yul\":5460:5579   */\n    tag_172:\n        /* \"#utility.yul\":5646:5647   */\n      0x00\n        /* \"#utility.yul\":5635:5644   */\n      dup5\n        /* \"#utility.yul\":5631:5648   */\n      add\n        /* \"#utility.yul\":5618:5649   */\n      calldataload\n        /* \"#utility.yul\":5676:5694   */\n      0xffffffffffffffff\n        /* \"#utility.yul\":5668:5674   */\n      dup2\n        /* \"#utility.yul\":5665:5695   */\n      gt\n        /* \"#utility.yul\":5662:5779   */\n      iszero\n      tag_174\n      jumpi\n        /* \"#utility.yul\":5698:5777   */\n      tag_175\n      tag_72\n      jump\t// in\n    tag_175:\n        /* \"#utility.yul\":5662:5779   */\n    tag_174:\n        /* \"#utility.yul\":5803:5866   */\n      tag_176\n        /* \"#utility.yul\":5858:5865   */\n      dup7\n        /* \"#utility.yul\":5849:5855   */\n      dup3\n        /* \"#utility.yul\":5838:5847   */\n      dup8\n        /* \"#utility.yul\":5834:5856   */\n      add\n        /* \"#utility.yul\":5803:5866   */\n      tag_92\n      jump\t// in\n    tag_176:\n        /* \"#utility.yul\":5793:5866   */\n      swap4\n      pop\n        /* \"#utility.yul\":5589:5876   */\n      pop\n        /* \"#utility.yul\":5943:5945   */\n      0x20\n        /* \"#utility.yul\":5932:5941   */\n      dup5\n        /* \"#utility.yul\":5928:5946   */\n      add\n        /* \"#utility.yul\":5915:5947   */\n      calldataload\n        /* \"#utility.yul\":5974:5992   */\n      0xffffffffffffffff\n        /* \"#utility.yul\":5966:5972   */\n      dup2\n        /* \"#utility.yul\":5963:5993   */\n      gt\n        /* \"#utility.yul\":5960:6077   */\n      iszero\n      tag_177\n      jumpi\n        /* \"#utility.yul\":5996:6075   */\n      tag_178\n      tag_72\n      jump\t// in\n    tag_178:\n        /* \"#utility.yul\":5960:6077   */\n    tag_177:\n        /* \"#utility.yul\":6101:6164   */\n      tag_179\n        /* \"#utility.yul\":6156:6163   */\n      dup7\n        /* \"#utility.yul\":6147:6153   */\n      dup3\n        /* \"#utility.yul\":6136:6145   */\n      dup8\n        /* \"#utility.yul\":6132:6154   */\n      add\n        /* \"#utility.yul\":6101:6164   */\n      tag_92\n      jump\t// in\n    tag_179:\n        /* \"#utility.yul\":6091:6164   */\n      swap3\n      pop\n        /* \"#utility.yul\":5886:6174   */\n      pop\n        /* \"#utility.yul\":6241:6243   */\n      0x40\n        /* \"#utility.yul\":6230:6239   */\n      dup5\n        /* \"#utility.yul\":6226:6244   */\n      add\n        /* \"#utility.yul\":6213:6245   */\n      calldataload\n        /* \"#utility.yul\":6272:6290   */\n      0xffffffffffffffff\n        /* \"#utility.yul\":6264:6270   */\n      dup2\n        /* \"#utility.yul\":6261:6291   */\n      gt\n        /* \"#utility.yul\":6258:6375   */\n      iszero\n      tag_180\n      jumpi\n        /* \"#utility.yul\":6294:6373   */\n      tag_181\n      tag_72\n      jump\t// in\n    tag_181:\n        /* \"#utility.yul\":6258:6375   */\n    tag_180:\n        /* \"#utility.yul\":6399:6462   */\n      tag_182\n        /* \"#utility.yul\":6454:6461   */\n      dup7\n        /* \"#utility.yul\":6445:6451   */\n      dup3\n        /* \"#utility.yul\":6434:6443   */\n      dup8\n        /* \"#utility.yul\":6430:6452   */\n      add\n        /* \"#utility.yul\":6399:6462   */\n      tag_92\n      jump\t// in\n    tag_182:\n        /* \"#utility.yul\":6389:6462   */\n      swap2\n      pop\n        /* \"#utility.yul\":6184:6472   */\n      pop\n        /* \"#utility.yul\":5320:6479   */\n      swap3\n      pop\n      swap3\n      pop\n      swap3\n      jump\t// out\n        /* \"#utility.yul\":6485:7139   */\n    tag_18:\n        /* \"#utility.yul\":6563:6569   */\n      0x00\n        /* \"#utility.yul\":6571:6577   */\n      0x00\n        /* \"#utility.yul\":6620:6622   */\n      0x40\n        /* \"#utility.yul\":6608:6617   */\n      dup4\n        /* \"#utility.yul\":6599:6606   */\n      dup6\n        /* \"#utility.yul\":6595:6618   */\n      sub\n        /* \"#utility.yul\":6591:6623   */\n      slt\n        /* \"#utility.yul\":6588:6707   */\n      iszero\n      tag_184\n      jumpi\n        /* \"#utility.yul\":6626:6705   */\n      tag_185\n      tag_71\n      jump\t// in\n    tag_185:\n        /* \"#utility.yul\":6588:6707   */\n    tag_184:\n        /* \"#utility.yul\":6774:6775   */\n      0x00\n        /* \"#utility.yul\":6763:6772   */\n      dup4\n        /* \"#utility.yul\":6759:6776   */\n      add\n        /* \"#utility.yul\":6746:6777   */\n      calldataload\n        /* \"#utility.yul\":6804:6822   */\n      0xffffffffffffffff\n        /* \"#utility.yul\":6796:6802   */\n      dup2\n        /* \"#utility.yul\":6793:6823   */\n      gt\n        /* \"#utility.yul\":6790:6907   */\n      iszero\n      tag_186\n      jumpi\n        /* \"#utility.yul\":6826:6905   */\n      tag_187\n      tag_72\n      jump\t// in\n    tag_187:\n        /* \"#utility.yul\":6790:6907   */\n    tag_186:\n        /* \"#utility.yul\":6931:6994   */\n      tag_188\n        /* \"#utility.yul\":6986:6993   */\n      dup6\n        /* \"#utility.yul\":6977:6983   */\n      dup3\n        /* \"#utility.yul\":6966:6975   */\n      dup7\n        /* \"#utility.yul\":6962:6984   */\n      add\n        /* \"#utility.yul\":6931:6994   */\n      tag_92\n      jump\t// in\n    tag_188:\n        /* \"#utility.yul\":6921:6994   */\n      swap3\n      pop\n        /* \"#utility.yul\":6717:7004   */\n      pop\n        /* \"#utility.yul\":7043:7045   */\n      0x20\n        /* \"#utility.yul\":7069:7122   */\n      tag_189\n        /* \"#utility.yul\":7114:7121   */\n      dup6\n        /* \"#utility.yul\":7105:7111   */\n      dup3\n        /* \"#utility.yul\":7094:7103   */\n      dup7\n        /* \"#utility.yul\":7090:7112   */\n      add\n        /* \"#utility.yul\":7069:7122   */\n      tag_75\n      jump\t// in\n    tag_189:\n        /* \"#utility.yul\":7059:7122   */\n      swap2\n      pop\n        /* \"#utility.yul\":7014:7132   */\n      pop\n        /* \"#utility.yul\":6485:7139   */\n      swap3\n      pop\n      swap3\n      swap1\n      pop\n      jump\t// out\n        /* \"#utility.yul\":7145:7325   */\n    tag_93:\n        /* \"#utility.yul\":7193:7270   */\n      0x4e487b7100000000000000000000000000000000000000000000000000000000\n        /* \"#utility.yul\":7190:7191   */\n      0x00\n        /* \"#utility.yul\":7183:7271   */\n      mstore\n        /* \"#utility.yul\":7290:7294   */\n      0x22\n        /* \"#utility.yul\":7287:7288   */\n      0x04\n        /* \"#utility.yul\":7280:7295   */\n      mstore\n        /* \"#utility.yul\":7314:7318   */\n      0x24\n        /* \"#utility.yul\":7311:7312   */\n      0x00\n        /* \"#utility.yul\":7304:7319   */\n      revert\n        /* \"#utility.yul\":7331:7651   */\n    tag_24:\n        /* \"#utility.yul\":7375:7381   */\n      0x00\n        /* \"#utility.yul\":7412:7413   */\n      0x02\n        /* \"#utility.yul\":7406:7410   */\n      dup3\n        /* \"#utility.yul\":7402:7414   */\n      div\n        /* \"#utility.yul\":7392:7414   */\n      swap1\n      pop\n        /* \"#utility.yul\":7459:7460   */\n      0x01\n        /* \"#utility.yul\":7453:7457   */\n      dup3\n        /* \"#utility.yul\":7449:7461   */\n      and\n        /* \"#utility.yul\":7480:7498   */\n      dup1\n        /* \"#utility.yul\":7470:7551   */\n      tag_192\n      jumpi\n        /* \"#utility.yul\":7536:7540   */\n      0x7f\n        /* \"#utility.yul\":7528:7534   */\n      dup3\n        /* \"#utility.yul\":7524:7541   */\n      and\n        /* \"#utility.yul\":7514:7541   */\n      swap2\n      pop\n        /* \"#utility.yul\":7470:7551   */\n    tag_192:\n        /* \"#utility.yul\":7598:7600   */\n      0x20\n        /* \"#utility.yul\":7590:7596   */\n      dup3\n        /* \"#utility.yul\":7587:7601   */\n      lt\n        /* \"#utility.yul\":7567:7585   */\n      dup2\n        /* \"#utility.yul\":7564:7602   */\n      sub\n        /* \"#utility.yul\":7561:7645   */\n      tag_193\n      jumpi\n        /* \"#utility.yul\":7617:7635   */\n      tag_194\n      tag_93\n      jump\t// in\n    tag_194:\n        /* \"#utility.yul\":7561:7645   */\n    tag_193:\n        /* \"#utility.yul\":7382:7651   */\n      pop\n        /* \"#utility.yul\":7331:7651   */\n      swap2\n      swap1\n      pop\n      jump\t// out\n        /* \"#utility.yul\":7657:7837   */\n    tag_94:\n        /* \"#utility.yul\":7705:7782   */\n      0x4e487b7100000000000000000000000000000000000000000000000000000000\n        /* \"#utility.yul\":7702:7703   */\n      0x00\n        /* \"#utility.yul\":7695:7783   */\n      mstore\n        /* \"#utility.yul\":7802:7806   */\n      0x11\n        /* \"#utility.yul\":7799:7800   */\n      0x04\n        /* \"#utility.yul\":7792:7807   */\n      mstore\n        /* \"#utility.yul\":7826:7830   */\n      0x24\n        /* \"#utility.yul\":7823:7824   */\n      0x00\n        /* \"#utility.yul\":7816:7831   */\n      revert\n        /* \"#utility.yul\":7843:8034   */\n    tag_41:\n        /* \"#utility.yul\":7883:7886   */\n      0x00\n        /* \"#utility.yul\":7902:7922   */\n      tag_197\n        /* \"#utility.yul\":7920:7921   */\n      dup3\n        /* \"#utility.yul\":7902:7922   */\n      tag_73\n      jump\t// in\n    tag_197:\n        /* \"#utility.yul\":7897:7922   */\n      swap2\n      pop\n        /* \"#utility.yul\":7936:7956   */\n      tag_198\n        /* \"#utility.yul\":7954:7955   */\n      dup4\n        /* \"#utility.yul\":7936:7956   */\n      tag_73\n      jump\t// in\n    tag_198:\n        /* \"#utility.yul\":7931:7956   */\n      swap3\n      pop\n        /* \"#utility.yul\":7979:7980   */\n      dup3\n        /* \"#utility.yul\":7976:7977   */\n      dup3\n        /* \"#utility.yul\":7972:7981   */\n      add\n        /* \"#utility.yul\":7965:7981   */\n      swap1\n      pop\n        /* \"#utility.yul\":8000:8003   */\n      dup1\n        /* \"#utility.yul\":7997:7998   */\n      dup3\n        /* \"#utility.yul\":7994:8004   */\n      gt\n        /* \"#utility.yul\":7991:8027   */\n      iszero\n      tag_199\n      jumpi\n        /* \"#utility.yul\":8007:8025   */\n      tag_200\n      tag_94\n      jump\t// in\n    tag_200:\n        /* \"#utility.yul\":7991:8027   */\n    tag_199:\n        /* \"#utility.yul\":7843:8034   */\n      swap3\n      swap2\n      pop\n      pop\n      jump\t// out\n        /* \"#utility.yul\":8040:8181   */\n    tag_95:\n        /* \"#utility.yul\":8089:8093   */\n      0x00\n        /* \"#utility.yul\":8112:8115   */\n      dup2\n        /* \"#utility.yul\":8104:8115   */\n      swap1\n      pop\n        /* \"#utility.yul\":8135:8138   */\n      dup2\n        /* \"#utility.yul\":8132:8133   */\n      0x00\n        /* \"#utility.yul\":8125:8139   */\n      mstore\n        /* \"#utility.yul\":8169:8173   */\n      0x20\n        /* \"#utility.yul\":8166:8167   */\n      0x00\n        /* \"#utility.yul\":8156:8174   */\n      keccak256\n        /* \"#utility.yul\":8148:8174   */\n      swap1\n      pop\n        /* \"#utility.yul\":8040:8181   */\n      swap2\n      swap1\n      pop\n      jump\t// out\n        /* \"#utility.yul\":8187:8280   */\n    tag_96:\n        /* \"#utility.yul\":8224:8230   */\n      0x00\n        /* \"#utility.yul\":8271:8273   */\n      0x20\n        /* \"#utility.yul\":8266:8268   */\n      0x1f\n        /* \"#utility.yul\":8259:8264   */\n      dup4\n        /* \"#utility.yul\":8255:8269   */\n      add\n        /* \"#utility.yul\":8251:8274   */\n      div\n        /* \"#utility.yul\":8241:8274   */\n      swap1\n      pop\n        /* \"#utility.yul\":8187:8280   */\n      swap2\n      swap1\n      pop\n      jump\t// out\n        /* \"#utility.yul\":8286:8393   */\n    tag_97:\n        /* \"#utility.yul\":8330:8338   */\n      0x00\n        /* \"#utility.yul\":8380:8385   */\n      dup3\n        /* \"#utility.yul\":8374:8378   */\n      dup3\n        /* \"#utility.yul\":8370:8386   */\n      shl\n        /* \"#utility.yul\":8349:8386   */\n      swap1\n      pop\n        /* \"#utility.yul\":8286:8393   */\n      swap3\n      swap2\n      pop\n      pop\n      jump\t// out\n        /* \"#utility.yul\":8399:8792   */\n    tag_98:\n        /* \"#utility.yul\":8468:8474   */\n      0x00\n        /* \"#utility.yul\":8518:8519   */\n      0x08\n        /* \"#utility.yul\":8506:8516   */\n      dup4\n        /* \"#utility.yul\":8502:8520   */\n      mul\n        /* \"#utility.yul\":8541:8638   */\n      tag_205\n        /* \"#utility.yul\":8571:8637   */\n      0xffffffffffffffffffffffffffffffffffffffffffffffffffffffffffffffff\n        /* \"#utility.yul\":8560:8569   */\n      dup3\n        /* \"#utility.yul\":8541:8638   */\n      tag_97\n      jump\t// in\n    tag_205:\n        /* \"#utility.yul\":8659:8698   */\n      tag_206\n        /* \"#utility.yul\":8689:8697   */\n      dup7\n        /* \"#utility.yul\":8678:8687   */\n      dup4\n        /* \"#utility.yul\":8659:8698   */\n      tag_97\n      jump\t// in\n    tag_206:\n        /* \"#utility.yul\":8647:8698   */\n      swap6\n      pop\n        /* \"#utility.yul\":8731:8735   */\n      dup1\n        /* \"#utility.yul\":8727:8736   */\n      not\n        /* \"#utility.yul\":8720:8725   */\n      dup5\n        /* \"#utility.yul\":8716:8737   */\n      and\n        /* \"#utility.yul\":8707:8737   */\n      swap4\n      pop\n        /* \"#utility.yul\":8780:8784   */\n      dup1\n        /* \"#utility.yul\":8770:8778   */\n      dup7\n        /* \"#utility.yul\":8766:8785   */\n      and\n        /* \"#utility.yul\":8759:8764   */\n      dup5\n        /* \"#utility.yul\":8756:8786   */\n      or\n        /* \"#utility.yul\":8746:8786   */\n      swap3\n      pop\n        /* \"#utility.yul\":8475:8792   */\n      pop\n      pop\n        /* \"#utility.yul\":8399:8792   */\n      swap4\n      swap3\n      pop\n      pop\n      pop\n      jump\t// out\n        /* \"#utility.yul\":8798:8858   */\n    tag_99:\n        /* \"#utility.yul\":8826:8829   */\n      0x00\n        /* \"#utility.yul\":8847:8852   */\n      dup2\n        /* \"#utility.yul\":8840:8852   */\n      swap1\n      pop\n        /* \"#utility.yul\":8798:8858   */\n      swap2\n      swap1\n      pop\n      jump\t// out\n        /* \"#utility.yul\":8864:9006   */\n    tag_100:\n        /* \"#utility.yul\":8914:8923   */\n      0x00\n        /* \"#utility.yul\":8947:9000   */\n      tag_209\n        /* \"#utility.yul\":8965:8999   */\n      tag_210\n        /* \"#utility.yul\":8974:8998   */\n      tag_211\n        /* \"#utility.yul\":8992:8997   */\n      dup5\n        /* \"#utility.yul\":8974:8998   */\n      tag_73\n      jump\t// in\n    tag_211:\n        /* \"#utility.yul\":8965:8999   */\n      tag_99\n      jump\t// in\n    tag_210:\n        /* \"#utility.yul\":8947:9000   */\n      tag_73\n      jump\t// in\n    tag_209:\n        /* \"#utility.yul\":8934:9000   */\n      swap1\n      pop\n        /* \"#utility.yul\":8864:9006   */\n      swap2\n      swap1\n      pop\n      jump\t// out\n        /* \"#utility.yul\":9012:9087   */\n    tag_101:\n        /* \"#utility.yul\":9055:9058   */\n      0x00\n        /* \"#utility.yul\":9076:9081   */\n      dup2\n        /* \"#utility.yul\":9069:9081   */\n      swap1\n      pop\n        /* \"#utility.yul\":9012:9087   */\n      swap2\n      swap1\n      pop\n      jump\t// out\n        /* \"#utility.yul\":9093:9362   */\n    tag_102:\n        /* \"#utility.yul\":9203:9242   */\n      tag_214\n        /* \"#utility.yul\":9234:9241   */\n      dup4\n        /* \"#utility.yul\":9203:9242   */\n      tag_100\n      jump\t// in\n    tag_214:\n        /* \"#utility.yul\":9264:9355   */\n      tag_215\n        /* \"#utility.yul\":9313:9354   */\n      tag_216\n        /* \"#utility.yul\":9337:9353   */\n      dup3\n        /* \"#utility.yul\":9313:9354   */\n      tag_101\n      jump\t// in\n    tag_216:\n        /* \"#utility.yul\":9305:9311   */\n      dup5\n        /* \"#utility.yul\":9298:9302   */\n      dup5\n        /* \"#utility.yul\":9292:9303   */\n      sload\n        /* \"#utility.yul\":9264:9355   */\n      tag_98\n      jump\t// in\n    tag_215:\n        /* \"#utility.yul\":9258:9262   */\n      dup3\n        /* \"#utility.yul\":9251:9356   */\n      sstore\n        /* \"#utility.yul\":9169:9362   */\n      pop\n        /* \"#utility.yul\":9093:9362   */\n      pop\n      pop\n      pop\n      jump\t// out\n        /* \"#utility.yul\":9368:9441   */\n    tag_103:\n        /* \"#utility.yul\":9413:9416   */\n      0x00\n        /* \"#utility.yul\":9434:9435   */\n      0x00\n        /* \"#utility.yul\":9427:9435   */\n      swap1\n      pop\n        /* \"#utility.yul\":9368:9441   */\n      swap1\n      jump\t// out\n        /* \"#utility.yul\":9447:9636   */\n    tag_104:\n        /* \"#utility.yul\":9524:9556   */\n      tag_219\n      tag_103\n      jump\t// in\n    tag_219:\n        /* \"#utility.yul\":9565:9630   */\n      tag_220\n        /* \"#utility.yul\":9623:9629   */\n      dup2\n        /* \"#utility.yul\":9615:9621   */\n      dup5\n        /* \"#utility.yul\":9609:9613   */\n      dup5\n        /* \"#utility.yul\":9565:9630   */\n      tag_102\n      jump\t// in\n    tag_220:\n        /* \"#utility.yul\":9500:9636   */\n      pop\n        /* \"#utility.yul\":9447:9636   */\n      pop\n      pop\n      jump\t// out\n        /* \"#utility.yul\":9642:9828   */\n    tag_105:\n        /* \"#utility.yul\":9702:9822   */\n    tag_222:\n        /* \"#utility.yul\":9719:9722   */\n      dup2\n        /* \"#utility.yul\":9712:9717   */\n      dup2\n        /* \"#utility.yul\":9709:9723   */\n      lt\n        /* \"#utility.yul\":9702:9822   */\n      iszero\n      tag_224\n      jumpi\n        /* \"#utility.yul\":9773:9812   */\n      tag_225\n        /* \"#utility.yul\":9810:9811   */\n      0x00\n        /* \"#utility.yul\":9803:9808   */\n      dup3\n        /* \"#utility.yul\":9773:9812   */\n      tag_104\n      jump\t// in\n    tag_225:\n        /* \"#utility.yul\":9746:9747   */\n      0x01\n        /* \"#utility.yul\":9739:9744   */\n      dup2\n        /* \"#utility.yul\":9735:9748   */\n      add\n        /* \"#utility.yul\":9726:9748   */\n      swap1\n      pop\n        /* \"#utility.yul\":9702:9822   */\n      jump(tag_222)\n    tag_224:\n        /* \"#utility.yul\":9642:9828   */\n      pop\n      pop\n      jump\t// out\n        /* \"#utility.yul\":9834:10377   */\n    tag_106:\n        /* \"#utility.yul\":9935:9937   */\n      0x1f\n        /* \"#utility.yul\":9930:9933   */\n      dup3\n        /* \"#utility.yul\":9927:9938   */\n      gt\n        /* \"#utility.yul\":9924:10370   */\n      iszero\n      tag_227\n      jumpi\n        /* \"#utility.yul\":9969:10007   */\n      tag_228\n        /* \"#utility.yul\":10001:10006   */\n      dup2\n        /* \"#utility.yul\":9969:10007   */\n      tag_95\n      jump\t// in\n    tag_228:\n        /* \"#utility.yul\":10053:10082   */\n      tag_229\n        /* \"#utility.yul\":10071:10081   */\n      dup5\n        /* \"#utility.yul\":10053:10082   */\n      tag_96\n      jump\t// in\n    tag_229:\n        /* \"#utility.yul\":10043:10051   */\n      dup2\n        /* \"#utility.yul\":10039:10083   */\n      add\n        /* \"#utility.yul\":10236:10238   */\n      0x20\n        /* \"#utility.yul\":10224:10234   */\n      dup6\n        /* \"#utility.yul\":10221:10239   */\n      lt\n        /* \"#utility.yul\":10218:10267   */\n      iszero\n      tag_230\n      jumpi\n        /* \"#utility.yul\":10257:10265   */\n      dup2\n        /* \"#utility.yul\":10242:10265   */\n      swap1\n      pop\n        /* \"#utility.yul\":10218:10267   */\n    tag_230:\n        /* \"#utility.yul\":10280:10360   */\n      tag_231\n        /* \"#utility.yul\":10336:10358   */\n      tag_232\n        /* \"#utility.yul\":10354:10357   */\n      dup6\n        /* \"#utility.yul\":10336:10358   */\n      tag_96\n      jump\t// in\n    tag_232:\n        /* \"#utility.yul\":10326:10334   */\n      dup4\n        /* \"#utility.yul\":10322:10359   */\n      add\n        /* \"#utility.yul\":10309:10320   */\n      dup3\n        /* \"#utility.yul\":10280:10360   */\n      tag_105\n      jump\t// in\n    tag_231:\n        /* \"#utility.yul\":9939:10370   */\n      pop\n      pop\n        /* \"#utility.yul\":9924:10370   */\n    tag_227:\n        /* \"#utility.yul\":9834:10377   */\n      pop\n      pop\n      pop\n      jump\t// out\n        /* \"#utility.yul\":10383:10500   */\n    tag_107:\n        /* \"#utility.yul\":10437:10445   */\n      0x00\n        /* \"#utility.yul\":10487:10492   */\n      dup3\n        /* \"#utility.yul\":10481:10485   */\n      dup3\n        /* \"#utility.yul\":10477:10493   */\n      shr\n        /* \"#utility.yul\":10456:10493   */\n      swap1\n      pop\n        /* \"#utility.yul\":10383:10500   */\n      swap3\n      swap2\n      pop\n      pop\n      jump\t// out\n        /* \"#utility.yul\":10506:10675   */\n    tag_108:\n        /* \"#utility.yul\":10550:10556   */\n      0x00\n        /* \"#utility.yul\":10583:10634   */\n      tag_235\n        /* \"#utility.yul\":10631:10632   */\n      0x00\n        /* \"#utility.yul\":10627:10633   */\n      not\n        /* \"#utility.yul\":10619:10624   */\n      dup5\n        /* \"#utility.yul\":10616:10617   */\n      0x08\n        /* \"#utility.yul\":10612:10625   */\n      mul\n        /* \"#utility.yul\":10583:10634   */\n      tag_107\n      jump\t// in\n    tag_235:\n        /* \"#utility.yul\":10579:10635   */\n      not\n        /* \"#utility.yul\":10664:10668   */\n      dup1\n        /* \"#utility.yul\":10658:10662   */\n      dup4\n        /* \"#utility.yul\":10654:10669   */\n      and\n        /* \"#utility.yul\":10644:10669   */\n      swap2\n      pop\n        /* \"#utility.yul\":10557:10675   */\n      pop\n        /* \"#utility.yul\":10506:10675   */\n      swap3\n      swap2\n      pop\n      pop\n      jump\t// out\n        /* \"#utility.yul\":10680:10975   */\n    tag_109:\n        /* \"#utility.yul\":10756:10760   */\n      0x00\n        /* \"#utility.yul\":10902:10931   */\n      tag_237\n        /* \"#utility.yul\":10927:10930   */\n      dup4\n        /* \"#utility.yul\":10921:10925   */\n      dup4\n        /* \"#utility.yul\":10902:10931   */\n      tag_108\n      jump\t// in\n    tag_237:\n        /* \"#utility.yul\":10894:10931   */\n      swap2\n      pop\n        /* \"#utility.yul\":10964:10967   */\n      dup3\n        /* \"#utility.yul\":10961:10962   */\n      0x02\n        /* \"#utility.yul\":10957:10968   */\n      mul\n        /* \"#utility.yul\":10951:10955   */\n      dup3\n        /* \"#utility.yul\":10948:10969   */\n      or\n        /* \"#utility.yul\":10940:10969   */\n      swap1\n      pop\n        /* \"#utility.yul\":10680:10975   */\n      swap3\n      swap2\n      pop\n      pop\n      jump\t// out\n        /* \"#utility.yul\":10980:12375   */\n    tag_44:\n        /* \"#utility.yul\":11097:11134   */\n      tag_239\n        /* \"#utility.yul\":11130:11133   */\n      dup3\n        /* \"#utility.yul\":11097:11134   */\n      tag_77\n      jump\t// in\n    tag_239:\n        /* \"#utility.yul\":11199:11217   */\n      0xffffffffffffffff\n        /* \"#utility.yul\":11191:11197   */\n      dup2\n        /* \"#utility.yul\":11188:11218   */\n      gt\n        /* \"#utility.yul\":11185:11241   */\n      iszero\n      tag_240\n      jumpi\n        /* \"#utility.yul\":11221:11239   */\n      tag_241\n      tag_86\n      jump\t// in\n    tag_241:\n        /* \"#utility.yul\":11185:11241   */\n    tag_240:\n        /* \"#utility.yul\":11265:11303   */\n      tag_242\n        /* \"#utility.yul\":11297:11301   */\n      dup3\n        /* \"#utility.yul\":11291:11302   */\n      sload\n        /* \"#utility.yul\":11265:11303   */\n      tag_24\n      jump\t// in\n    tag_242:\n        /* \"#utility.yul\":11350:11417   */\n      tag_243\n        /* \"#utility.yul\":11410:11416   */\n      dup3\n        /* \"#utility.yul\":11402:11408   */\n      dup3\n        /* \"#utility.yul\":11396:11400   */\n      dup6\n        /* \"#utility.yul\":11350:11417   */\n      tag_106\n      jump\t// in\n    tag_243:\n        /* \"#utility.yul\":11444:11445   */\n      0x00\n        /* \"#utility.yul\":11468:11472   */\n      0x20\n        /* \"#utility.yul\":11455:11472   */\n      swap1\n      pop\n        /* \"#utility.yul\":11500:11502   */\n      0x1f\n        /* \"#utility.yul\":11492:11498   */\n      dup4\n        /* \"#utility.yul\":11489:11503   */\n      gt\n        /* \"#utility.yul\":11517:11518   */\n      0x01\n        /* \"#utility.yul\":11512:12130   */\n      dup2\n      eq\n      tag_245\n      jumpi\n        /* \"#utility.yul\":12174:12175   */\n      0x00\n        /* \"#utility.yul\":12191:12197   */\n      dup5\n        /* \"#utility.yul\":12188:12265   */\n      iszero\n      tag_246\n      jumpi\n        /* \"#utility.yul\":12240:12249   */\n      dup3\n        /* \"#utility.yul\":12235:12238   */\n      dup8\n        /* \"#utility.yul\":12231:12250   */\n      add\n        /* \"#utility.yul\":12225:12251   */\n      mload\n        /* \"#utility.yul\":12216:12251   */\n      swap1\n      pop\n        /* \"#utility.yul\":12188:12265   */\n    tag_246:\n        /* \"#utility.yul\":12291:12358   */\n      tag_247\n        /* \"#utility.yul\":12351:12357   */\n      dup6\n        /* \"#utility.yul\":12344:12349   */\n      dup3\n        /* \"#utility.yul\":12291:12358   */\n      tag_109\n      jump\t// in\n    tag_247:\n        /* \"#utility.yul\":12285:12289   */\n      dup7\n        /* \"#utility.yul\":12278:12359   */\n      sstore\n        /* \"#utility.yul\":12147:12369   */\n      pop\n        /* \"#utility.yul\":11482:12369   */\n      jump(tag_244)\n        /* \"#utility.yul\":11512:12130   */\n    tag_245:\n        /* \"#utility.yul\":11564:11568   */\n      0x1f\n        /* \"#utility.yul\":11560:11569   */\n      not\n        /* \"#utility.yul\":11552:11558   */\n      dup5\n        /* \"#utility.yul\":11548:11570   */\n      and\n        /* \"#utility.yul\":11598:11635   */\n      tag_248\n        /* \"#utility.yul\":11630:11634   */\n      dup7\n        /* \"#utility.yul\":11598:11635   */\n      tag_95\n      jump\t// in\n    tag_248:\n        /* \"#utility.yul\":11657:11658   */\n      0x00\n        /* \"#utility.yul\":11671:11879   */\n    tag_249:\n        /* \"#utility.yul\":11685:11692   */\n      dup3\n        /* \"#utility.yul\":11682:11683   */\n      dup2\n        /* \"#utility.yul\":11679:11693   */\n      lt\n        /* \"#utility.yul\":11671:11879   */\n      iszero\n      tag_251\n      jumpi\n        /* \"#utility.yul\":11764:11773   */\n      dup5\n        /* \"#utility.yul\":11759:11762   */\n      dup10\n        /* \"#utility.yul\":11755:11774   */\n      add\n        /* \"#utility.yul\":11749:11775   */\n      mload\n        /* \"#utility.yul\":11741:11747   */\n      dup3\n        /* \"#utility.yul\":11734:11776   */\n      sstore\n        /* \"#utility.yul\":11815:11816   */\n      0x01\n        /* \"#utility.yul\":11807:11813   */\n      dup3\n        /* \"#utility.yul\":11803:11817   */\n      add\n        /* \"#utility.yul\":11793:11817   */\n      swap2\n      pop\n        /* \"#utility.yul\":11862:11864   */\n      0x20\n        /* \"#utility.yul\":11851:11860   */\n      dup6\n        /* \"#utility.yul\":11847:11865   */\n      add\n        /* \"#utility.yul\":11834:11865   */\n      swap5\n      pop\n        /* \"#utility.yul\":11708:11712   */\n      0x20\n        /* \"#utility.yul\":11705:11706   */\n      dup2\n        /* \"#utility.yul\":11701:11713   */\n      add\n        /* \"#utility.yul\":11696:11713   */\n      swap1\n      pop\n        /* \"#utility.yul\":11671:11879   */\n      jump(tag_249)\n    tag_251:\n        /* \"#utility.yul\":11907:11913   */\n      dup7\n        /* \"#utility.yul\":11898:11905   */\n      dup4\n        /* \"#utility.yul\":11895:11914   */\n      lt\n        /* \"#utility.yul\":11892:12071   */\n      iszero\n      tag_252\n      jumpi\n        /* \"#utility.yul\":11965:11974   */\n      dup5\n        /* \"#utility.yul\":11960:11963   */\n      dup10\n        /* \"#utility.yul\":11956:11975   */\n      add\n        /* \"#utility.yul\":11950:11976   */\n      mload\n        /* \"#utility.yul\":12008:12056   */\n      tag_253\n        /* \"#utility.yul\":12050:12054   */\n      0x1f\n        /* \"#utility.yul\":12042:12048   */\n      dup10\n        /* \"#utility.yul\":12038:12055   */\n      and\n        /* \"#utility.yul\":12027:12036   */\n      dup3\n        /* \"#utility.yul\":12008:12056   */\n      tag_108\n      jump\t// in\n    tag_253:\n        /* \"#utility.yul\":12000:12006   */\n      dup4\n        /* \"#utility.yul\":11993:12057   */\n      sstore\n        /* \"#utility.yul\":11915:12071   */\n      pop\n        /* \"#utility.yul\":11892:12071   */\n    tag_252:\n        /* \"#utility.yul\":12117:12118   */\n      0x01\n        /* \"#utility.yul\":12113:12114   */\n      0x02\n        /* \"#utility.yul\":12105:12111   */\n      dup9\n        /* \"#utility.yul\":12101:12115   */\n      mul\n        /* \"#utility.yul\":12097:12119   */\n      add\n        /* \"#utility.yul\":12091:12095   */\n      dup9\n        /* \"#utility.yul\":12084:12120   */\n      sstore\n        /* \"#utility.yul\":11519:12130   */\n      pop\n      pop\n      pop\n        /* \"#utility.yul\":11482:12369   */\n    tag_244:\n      pop\n        /* \"#utility.yul\":11072:12375   */\n      pop\n      pop\n      pop\n        /* \"#utility.yul\":10980:12375   */\n      pop\n      pop\n      jump\t// out\n        /* \"#utility.yul\":12381:12529   */\n    tag_110:\n        /* \"#utility.yul\":12483:12494   */\n      0x00\n        /* \"#utility.yul\":12520:12523   */\n      dup2\n        /* \"#utility.yul\":12505:12523   */\n      swap1\n      pop\n        /* \"#utility.yul\":12381:12529   */\n      swap3\n      swap2\n      pop\n      pop\n      jump\t// out\n        /* \"#utility.yul\":12535:12925   */\n    tag_111:\n        /* \"#utility.yul\":12641:12644   */\n      0x00\n        /* \"#utility.yul\":12669:12708   */\n      tag_256\n        /* \"#utility.yul\":12702:12707   */\n      dup3\n        /* \"#utility.yul\":12669:12708   */\n      tag_77\n      jump\t// in\n    tag_256:\n        /* \"#utility.yul\":12724:12813   */\n      tag_257\n        /* \"#utility.yul\":12806:12812   */\n      dup2\n        /* \"#utility.yul\":12801:12804   */\n      dup6\n        /* \"#utility.yul\":12724:12813   */\n      tag_110\n      jump\t// in\n    tag_257:\n        /* \"#utility.yul\":12717:12813   */\n      swap4\n      pop\n        /* \"#utility.yul\":12822:12887   */\n      tag_258\n        /* \"#utility.yul\":12880:12886   */\n      dup2\n        /* \"#utility.yul\":12875:12878   */\n      dup6\n        /* \"#utility.yul\":12868:12872   */\n      0x20\n        /* \"#utility.yul\":12861:12866   */\n      dup7\n        /* \"#utility.yul\":12857:12873   */\n      add\n        /* \"#utility.yul\":12822:12887   */\n      tag_79\n      jump\t// in\n    tag_258:\n        /* \"#utility.yul\":12912:12918   */\n      dup1\n        /* \"#utility.yul\":12907:12910   */\n      dup5\n        /* \"#utility.yul\":12903:12919   */\n      add\n        /* \"#utility.yul\":12896:12919   */\n      swap2\n      pop\n        /* \"#utility.yul\":12645:12925   */\n      pop\n        /* \"#utility.yul\":12535:12925   */\n      swap3\n      swap2\n      pop\n      pop\n      jump\t// out\n        /* \"#utility.yul\":12931:13206   */\n    tag_48:\n        /* \"#utility.yul\":13063:13066   */\n      0x00\n        /* \"#utility.yul\":13085:13180   */\n      tag_260\n        /* \"#utility.yul\":13176:13179   */\n      dup3\n        /* \"#utility.yul\":13167:13173   */\n      dup5\n        /* \"#utility.yul\":13085:13180   */\n      tag_111\n      jump\t// in\n    tag_260:\n        /* \"#utility.yul\":13078:13180   */\n      swap2\n      pop\n        /* \"#utility.yul\":13197:13200   */\n      dup2\n        /* \"#utility.yul\":13190:13200   */\n      swap1\n      pop\n        /* \"#utility.yul\":12931:13206   */\n      swap3\n      swap2\n      pop\n      pop\n      jump\t// out\n\n    auxdata: 0xa26469706673582212209a2ae5e1a9d85cb50eca91e7b02d21deedbafb367e5f75eb4a5105bd700e748b64736f6c634300081f0033\n}\n",
				"bytecode": {
					"linkReferences": {},
					"object": "6080604052348015600e575f5ffd5b50610d7c8061001c5f395ff3fe608060405234801561000f575f5ffd5b506004361061003f575f3560e01c80633088c00f1461004357806369c468261461007757806393bdb2bb14610093575b5f5ffd5b61005d60048036038101906100589190610676565b6100c7565b60405161006e95949392919061073a565b60405180910390f35b610091600480360381019061008c91906108cc565b6102a5565b005b6100ad60048036038101906100a89190610970565b610430565b6040516100be95949392919061073a565b60405180910390f35b5f81815481106100d5575f80fd5b905f5260205f2090600502015f91509050805f0154908060010180546100fa906109f7565b80601f0160208091040260200160405190810160405280929190818152602001828054610126906109f7565b80156101715780601f1061014857610100808354040283529160200191610171565b820191905f5260205f20905b81548152906001019060200180831161015457829003601f168201915b505050505090806002018054610186906109f7565b80601f01602080910402602001604051908101604052809291908181526020018280546101b2906109f7565b80156101fd5780601f106101d4576101008083540402835291602001916101fd565b820191905f5260205f20905b8154815290600101906020018083116101e057829003601f168201915b505050505090806003018054610212906109f7565b80601f016020809104026020016040519081016040528092919081815260200182805461023e906109f7565b80156102895780601f1061026057610100808354040283529160200191610289565b820191905f5260205f20905b81548152906001019060200180831161026c57829003601f168201915b505050505090806004015f9054906101000a900460ff16905085565b5f60015f805490506102b79190610a54565b90505f6040518060a001604052808381526020018681526020018581526020018481526020016001151581525090505f81908060018154018082558091505060019003905f5260205f2090600502015f909190919091505f820151815f0155602082015181600101908161032b9190610c27565b5060408201518160020190816103419190610c27565b5060608201518160030190816103579190610c27565b506080820151816004015f6101000a81548160ff02191690831515021790555050506001836040516103899190610d30565b908152602001604051809103902081908060018154018082558091505060019003905f5260205f2090600502015f909190919091505f820151815f015560208201518160010190816103db9190610c27565b5060408201518160020190816103f19190610c27565b5060608201518160030190816104079190610c27565b506080820151816004015f6101000a81548160ff02191690831515021790555050505050505050565b6001828051602081018201805184825260208301602085012081835280955050505050508181548110610461575f80fd5b905f5260205f2090600502015f9150915050805f015490806001018054610487906109f7565b80601f01602080910402602001604051908101604052809291908181526020018280546104b3906109f7565b80156104fe5780601f106104d5576101008083540402835291602001916104fe565b820191905f5260205f20905b8154815290600101906020018083116104e157829003601f168201915b505050505090806002018054610513906109f7565b80601f016020809104026020016040519081016040528092919081815260200182805461053f906109f7565b801561058a5780601f106105615761010080835404028352916020019161058a565b820191905f5260205f20905b81548152906001019060200180831161056d57829003601f168201915b50505050509080600301805461059f906109f7565b80601f01602080910402602001604051908101604052809291908181526020018280546105cb906109f7565b80156106165780601f106105ed57610100808354040283529160200191610616565b820191905f5260205f20905b8154815290600101906020018083116105f957829003601f168201915b505050505090806004015f9054906101000a900460ff16905085565b5f604051905090565b5f5ffd5b5f5ffd5b5f819050919050565b61065581610643565b811461065f575f5ffd5b50565b5f813590506106708161064c565b92915050565b5f6020828403121561068b5761068a61063b565b5b5f61069884828501610662565b91505092915050565b6106aa81610643565b82525050565b5f81519050919050565b5f82825260208201905092915050565b8281835e5f83830152505050565b5f601f19601f8301169050919050565b5f6106f2826106b0565b6106fc81856106ba565b935061070c8185602086016106ca565b610715816106d8565b840191505092915050565b5f8115159050919050565b61073481610720565b82525050565b5f60a08201905061074d5f8301886106a1565b818103602083015261075f81876106e8565b9050818103604083015261077381866106e8565b9050818103606083015261078781856106e8565b9050610796608083018461072b565b9695505050505050565b5f5ffd5b5f5ffd5b7f4e487b71000000000000000000000000000000000000000000000000000000005f52604160045260245ffd5b6107de826106d8565b810181811067ffffffffffffffff821117156107fd576107fc6107a8565b5b80604052505050565b5f61080f610632565b905061081b82826107d5565b919050565b5f67ffffffffffffffff82111561083a576108396107a8565b5b610843826106d8565b9050602081019050919050565b828183375f83830152505050565b5f61087061086b84610820565b610806565b90508281526020810184848401111561088c5761088b6107a4565b5b610897848285610850565b509392505050565b5f82601f8301126108b3576108b26107a0565b5b81356108c384826020860161085e565b91505092915050565b5f5f5f606084860312156108e3576108e261063b565b5b5f84013567ffffffffffffffff811115610900576108ff61063f565b5b61090c8682870161089f565b935050602084013567ffffffffffffffff81111561092d5761092c61063f565b5b6109398682870161089f565b925050604084013567ffffffffffffffff81111561095a5761095961063f565b5b6109668682870161089f565b9150509250925092565b5f5f604083850312156109865761098561063b565b5b5f83013567ffffffffffffffff8111156109a3576109a261063f565b5b6109af8582860161089f565b92505060206109c085828601610662565b9150509250929050565b7f4e487b71000000000000000000000000000000000000000000000000000000005f52602260045260245ffd5b5f6002820490506001821680610a0e57607f821691505b602082108103610a2157610a206109ca565b5b50919050565b7f4e487b71000000000000000000000000000000000000000000000000000000005f52601160045260245ffd5b5f610a5e82610643565b9150610a6983610643565b9250828201905080821115610a8157610a80610a27565b5b92915050565b5f819050815f5260205f209050919050565b5f6020601f8301049050919050565b5f82821b905092915050565b5f60088302610ae37fffffffffffffffffffffffffffffffffffffffffffffffffffffffffffffffff82610aa8565b610aed8683610aa8565b95508019841693508086168417925050509392505050565b5f819050919050565b5f610b28610b23610b1e84610643565b610b05565b610643565b9050919050565b5f819050919050565b610b4183610b0e565b610b55610b4d82610b2f565b848454610ab4565b825550505050565b5f5f905090565b610b6c610b5d565b610b77818484610b38565b505050565b5b81811015610b9a57610b8f5f82610b64565b600181019050610b7d565b5050565b601f821115610bdf57610bb081610a87565b610bb984610a99565b81016020851015610bc8578190505b610bdc610bd485610a99565b830182610b7c565b50505b505050565b5f82821c905092915050565b5f610bff5f1984600802610be4565b1980831691505092915050565b5f610c178383610bf0565b9150826002028217905092915050565b610c30826106b0565b67ffffffffffffffff811115610c4957610c486107a8565b5b610c5382546109f7565b610c5e828285610b9e565b5f60209050601f831160018114610c8f575f8415610c7d578287015190505b610c878582610c0c565b865550610cee565b601f198416610c9d86610a87565b5f5b82811015610cc457848901518255600182019150602085019450602081019050610c9f565b86831015610ce15784890151610cdd601f891682610bf0565b8355505b6001600288020188555050505b505050505050565b5f81905092915050565b5f610d0a826106b0565b610d148185610cf6565b9350610d248185602086016106ca565b80840191505092915050565b5f610d3b8284610d00565b91508190509291505056fea26469706673582212209a2ae5e1a9d85cb50eca91e7b02d21deedbafb367e5f75eb4a5105bd700e748b64736f6c634300081f0033",
					"opcodes": "PUSH1 0x80 PUSH1 0x40 MSTORE CALLVALUE DUP1 ISZERO PUSH1 0xE JUMPI PUSH0 PUSH0 REVERT JUMPDEST POP PUSH2 0xD7C DUP1 PUSH2 0x1C PUSH0 CODECOPY PUSH0 RETURN INVALID PUSH1 0x80 PUSH1 0x40 MSTORE CALLVALUE DUP1 ISZERO PUSH2 0xF JUMPI PUSH0 PUSH0 REVERT JUMPDEST POP PUSH1 0x4 CALLDATASIZE LT PUSH2 0x3F JUMPI PUSH0 CALLDATALOAD PUSH1 0xE0 SHR DUP1 PUSH4 0x3088C00F EQ PUSH2 0x43 JUMPI DUP1 PUSH4 0x69C46826 EQ PUSH2 0x77 JUMPI DUP1 PUSH4 0x93BDB2BB EQ PUSH2 0x93 JUMPI JUMPDEST PUSH0 PUSH0 REVERT JUMPDEST PUSH2 0x5D PUSH1 0x4 DUP1 CALLDATASIZE SUB DUP2 ADD SWAP1 PUSH2 0x58 SWAP2 SWAP1 PUSH2 0x676 JUMP JUMPDEST PUSH2 0xC7 JUMP JUMPDEST PUSH1 0x40 MLOAD PUSH2 0x6E SWAP6 SWAP5 SWAP4 SWAP3 SWAP2 SWAP1 PUSH2 0x73A JUMP JUMPDEST PUSH1 0x40 MLOAD DUP1 SWAP2 SUB SWAP1 RETURN JUMPDEST PUSH2 0x91 PUSH1 0x4 DUP1 CALLDATASIZE SUB DUP2 ADD SWAP1 PUSH2 0x8C SWAP2 SWAP1 PUSH2 0x8CC JUMP JUMPDEST PUSH2 0x2A5 JUMP JUMPDEST STOP JUMPDEST PUSH2 0xAD PUSH1 0x4 DUP1 CALLDATASIZE SUB DUP2 ADD SWAP1 PUSH2 0xA8 SWAP2 SWAP1 PUSH2 0x970 JUMP JUMPDEST PUSH2 0x430 JUMP JUMPDEST PUSH1 0x40 MLOAD PUSH2 0xBE SWAP6 SWAP5 SWAP4 SWAP3 SWAP2 SWAP1 PUSH2 0x73A JUMP JUMPDEST PUSH1 0x40 MLOAD DUP1 SWAP2 SUB SWAP1 RETURN JUMPDEST PUSH0 DUP2 DUP2 SLOAD DUP2 LT PUSH2 0xD5 JUMPI PUSH0 DUP1 REVERT JUMPDEST SWAP1 PUSH0 MSTORE PUSH1 0x20 PUSH0 KECCAK256 SWAP1 PUSH1 0x5 MUL ADD PUSH0 SWAP2 POP SWAP1 POP DUP1 PUSH0 ADD SLOAD SWAP1 DUP1 PUSH1 0x1 ADD DUP1 SLOAD PUSH2 0xFA SWAP1 PUSH2 0x9F7 JUMP JUMPDEST DUP1 PUSH1 0x1F ADD PUSH1 0x20 DUP1 SWAP2 DIV MUL PUSH1 0x20 ADD PUSH1 0x40 MLOAD SWAP1 DUP2 ADD PUSH1 0x40 MSTORE DUP1 SWAP3 SWAP2 SWAP1 DUP2 DUP2 MSTORE PUSH1 0x20 ADD DUP3 DUP1 SLOAD PUSH2 0x126 SWAP1 PUSH2 0x9F7 JUMP JUMPDEST DUP1 ISZERO PUSH2 0x171 JUMPI DUP1 PUSH1 0x1F LT PUSH2 0x148 JUMPI PUSH2 0x100 DUP1 DUP4 SLOAD DIV MUL DUP4 MSTORE SWAP2 PUSH1 0x20 ADD SWAP2 PUSH2 0x171 JUMP JUMPDEST DUP3 ADD SWAP2 SWAP1 PUSH0 MSTORE PUSH1 0x20 PUSH0 KECCAK256 SWAP1 JUMPDEST DUP2 SLOAD DUP2 MSTORE SWAP1 PUSH1 0x1 ADD SWAP1 PUSH1 0x20 ADD DUP1 DUP4 GT PUSH2 0x154 JUMPI DUP3 SWAP1 SUB PUSH1 0x1F AND DUP3 ADD SWAP2 JUMPDEST POP POP POP POP POP SWAP1 DUP1 PUSH1 0x2 ADD DUP1 SLOAD PUSH2 0x186 SWAP1 PUSH2 0x9F7 JUMP JUMPDEST DUP1 PUSH1 0x1F ADD PUSH1 0x20 DUP1 SWAP2 DIV MUL PUSH1 0x20 ADD PUSH1 0x40 MLOAD SWAP1 DUP2 ADD PUSH1 0x40 MSTORE DUP1 SWAP3 SWAP2 SWAP1 DUP2 DUP2 MSTORE PUSH1 0x20 ADD DUP3 DUP1 SLOAD PUSH2 0x1B2 SWAP1 PUSH2 0x9F7 JUMP JUMPDEST DUP1 ISZERO PUSH2 0x1FD JUMPI DUP1 PUSH1 0x1F LT PUSH2 0x1D4 JUMPI PUSH2 0x100 DUP1 DUP4 SLOAD DIV MUL DUP4 MSTORE SWAP2 PUSH1 0x20 ADD SWAP2 PUSH2 0x1FD JUMP JUMPDEST DUP3 ADD SWAP2 SWAP1 PUSH0 MSTORE PUSH1 0x20 PUSH0 KECCAK256 SWAP1 JUMPDEST DUP2 SLOAD DUP2 MSTORE SWAP1 PUSH1 0x1 ADD SWAP1 PUSH1 0x20 ADD DUP1 DUP4 GT PUSH2 0x1E0 JUMPI DUP3 SWAP1 SUB PUSH1 0x1F AND DUP3 ADD SWAP2 JUMPDEST POP POP POP POP POP SWAP1 DUP1 PUSH1 0x3 ADD DUP1 SLOAD PUSH2 0x212 SWAP1 PUSH2 0x9F7 JUMP JUMPDEST DUP1 PUSH1 0x1F ADD PUSH1 0x20 DUP1 SWAP2 DIV MUL PUSH1 0x20 ADD PUSH1 0x40 MLOAD SWAP1 DUP2 ADD PUSH1 0x40 MSTORE DUP1 SWAP3 SWAP2 SWAP1 DUP2 DUP2 MSTORE PUSH1 0x20 ADD DUP3 DUP1 SLOAD PUSH2 0x23E SWAP1 PUSH2 0x9F7 JUMP JUMPDEST DUP1 ISZERO PUSH2 0x289 JUMPI DUP1 PUSH1 0x1F LT PUSH2 0x260 JUMPI PUSH2 0x100 DUP1 DUP4 SLOAD DIV MUL DUP4 MSTORE SWAP2 PUSH1 0x20 ADD SWAP2 PUSH2 0x289 JUMP JUMPDEST DUP3 ADD SWAP2 SWAP1 PUSH0 MSTORE PUSH1 0x20 PUSH0 KECCAK256 SWAP1 JUMPDEST DUP2 SLOAD DUP2 MSTORE SWAP1 PUSH1 0x1 ADD SWAP1 PUSH1 0x20 ADD DUP1 DUP4 GT PUSH2 0x26C JUMPI DUP3 SWAP1 SUB PUSH1 0x1F AND DUP3 ADD SWAP2 JUMPDEST POP POP POP POP POP SWAP1 DUP1 PUSH1 0x4 ADD PUSH0 SWAP1 SLOAD SWAP1 PUSH2 0x100 EXP SWAP1 DIV PUSH1 0xFF AND SWAP1 POP DUP6 JUMP JUMPDEST PUSH0 PUSH1 0x1 PUSH0 DUP1 SLOAD SWAP1 POP PUSH2 0x2B7 SWAP2 SWAP1 PUSH2 0xA54 JUMP JUMPDEST SWAP1 POP PUSH0 PUSH1 0x40 MLOAD DUP1 PUSH1 0xA0 ADD PUSH1 0x40 MSTORE DUP1 DUP4 DUP2 MSTORE PUSH1 0x20 ADD DUP7 DUP2 MSTORE PUSH1 0x20 ADD DUP6 DUP2 MSTORE PUSH1 0x20 ADD DUP5 DUP2 MSTORE PUSH1 0x20 ADD PUSH1 0x1 ISZERO ISZERO DUP2 MSTORE POP SWAP1 POP PUSH0 DUP2 SWAP1 DUP1 PUSH1 0x1 DUP2 SLOAD ADD DUP1 DUP3 SSTORE DUP1 SWAP2 POP POP PUSH1 0x1 SWAP1 SUB SWAP1 PUSH0 MSTORE PUSH1 0x20 PUSH0 KECCAK256 SWAP1 PUSH1 0x5 MUL ADD PUSH0 SWAP1 SWAP2 SWAP1 SWAP2 SWAP1 SWAP2 POP PUSH0 DUP3 ADD MLOAD DUP2 PUSH0 ADD SSTORE PUSH1 0x20 DUP3 ADD MLOAD DUP2 PUSH1 0x1 ADD SWAP1 DUP2 PUSH2 0x32B SWAP2 SWAP1 PUSH2 0xC27 JUMP JUMPDEST POP PUSH1 0x40 DUP3 ADD MLOAD DUP2 PUSH1 0x2 ADD SWAP1 DUP2 PUSH2 0x341 SWAP2 SWAP1 PUSH2 0xC27 JUMP JUMPDEST POP PUSH1 0x60 DUP3 ADD MLOAD DUP2 PUSH1 0x3 ADD SWAP1 DUP2 PUSH2 0x357 SWAP2 SWAP1 PUSH2 0xC27 JUMP JUMPDEST POP PUSH1 0x80 DUP3 ADD MLOAD DUP2 PUSH1 0x4 ADD PUSH0 PUSH2 0x100 EXP DUP2 SLOAD DUP2 PUSH1 0xFF MUL NOT AND SWAP1 DUP4 ISZERO ISZERO MUL OR SWAP1 SSTORE POP POP POP PUSH1 0x1 DUP4 PUSH1 0x40 MLOAD PUSH2 0x389 SWAP2 SWAP1 PUSH2 0xD30 JUMP JUMPDEST SWAP1 DUP2 MSTORE PUSH1 0x20 ADD PUSH1 0x40 MLOAD DUP1 SWAP2 SUB SWAP1 KECCAK256 DUP2 SWAP1 DUP1 PUSH1 0x1 DUP2 SLOAD ADD DUP1 DUP3 SSTORE DUP1 SWAP2 POP POP PUSH1 0x1 SWAP1 SUB SWAP1 PUSH0 MSTORE PUSH1 0x20 PUSH0 KECCAK256 SWAP1 PUSH1 0x5 MUL ADD PUSH0 SWAP1 SWAP2 SWAP1 SWAP2 SWAP1 SWAP2 POP PUSH0 DUP3 ADD MLOAD DUP2 PUSH0 ADD SSTORE PUSH1 0x20 DUP3 ADD MLOAD DUP2 PUSH1 0x1 ADD SWAP1 DUP2 PUSH2 0x3DB SWAP2 SWAP1 PUSH2 0xC27 JUMP JUMPDEST POP PUSH1 0x40 DUP3 ADD MLOAD DUP2 PUSH1 0x2 ADD SWAP1 DUP2 PUSH2 0x3F1 SWAP2 SWAP1 PUSH2 0xC27 JUMP JUMPDEST POP PUSH1 0x60 DUP3 ADD MLOAD DUP2 PUSH1 0x3 ADD SWAP1 DUP2 PUSH2 0x407 SWAP2 SWAP1 PUSH2 0xC27 JUMP JUMPDEST POP PUSH1 0x80 DUP3 ADD MLOAD DUP2 PUSH1 0x4 ADD PUSH0 PUSH2 0x100 EXP DUP2 SLOAD DUP2 PUSH1 0xFF MUL NOT AND SWAP1 DUP4 ISZERO ISZERO MUL OR SWAP1 SSTORE POP POP POP POP POP POP POP POP JUMP JUMPDEST PUSH1 0x1 DUP3 DUP1 MLOAD PUSH1 0x20 DUP2 ADD DUP3 ADD DUP1 MLOAD DUP5 DUP3 MSTORE PUSH1 0x20 DUP4 ADD PUSH1 0x20 DUP6 ADD KECCAK256 DUP2 DUP4 MSTORE DUP1 SWAP6 POP POP POP POP POP POP DUP2 DUP2 SLOAD DUP2 LT PUSH2 0x461 JUMPI PUSH0 DUP1 REVERT JUMPDEST SWAP1 PUSH0 MSTORE PUSH1 0x20 PUSH0 KECCAK256 SWAP1 PUSH1 0x5 MUL ADD PUSH0 SWAP2 POP SWAP2 POP POP DUP1 PUSH0 ADD SLOAD SWAP1 DUP1 PUSH1 0x1 ADD DUP1 SLOAD PUSH2 0x487 SWAP1 PUSH2 0x9F7 JUMP JUMPDEST DUP1 PUSH1 0x1F ADD PUSH1 0x20 DUP1 SWAP2 DIV MUL PUSH1 0x20 ADD PUSH1 0x40 MLOAD SWAP1 DUP2 ADD PUSH1 0x40 MSTORE DUP1 SWAP3 SWAP2 SWAP1 DUP2 DUP2 MSTORE PUSH1 0x20 ADD DUP3 DUP1 SLOAD PUSH2 0x4B3 SWAP1 PUSH2 0x9F7 JUMP JUMPDEST DUP1 ISZERO PUSH2 0x4FE JUMPI DUP1 PUSH1 0x1F LT PUSH2 0x4D5 JUMPI PUSH2 0x100 DUP1 DUP4 SLOAD DIV MUL DUP4 MSTORE SWAP2 PUSH1 0x20 ADD SWAP2 PUSH2 0x4FE JUMP JUMPDEST DUP3 ADD SWAP2 SWAP1 PUSH0 MSTORE PUSH1 0x20 PUSH0 KECCAK256 SWAP1 JUMPDEST DUP2 SLOAD DUP2 MSTORE SWAP1 PUSH1 0x1 ADD SWAP1 PUSH1 0x20 ADD DUP1 DUP4 GT PUSH2 0x4E1 JUMPI DUP3 SWAP1 SUB PUSH1 0x1F AND DUP3 ADD SWAP2 JUMPDEST POP POP POP POP POP SWAP1 DUP1 PUSH1 0x2 ADD DUP1 SLOAD PUSH2 0x513 SWAP1 PUSH2 0x9F7 JUMP JUMPDEST DUP1 PUSH1 0x1F ADD PUSH1 0x20 DUP1 SWAP2 DIV MUL PUSH1 0x20 ADD PUSH1 0x40 MLOAD SWAP1 DUP2 ADD PUSH1 0x40 MSTORE DUP1 SWAP3 SWAP2 SWAP1 DUP2 DUP2 MSTORE PUSH1 0x20 ADD DUP3 DUP1 SLOAD PUSH2 0x53F SWAP1 PUSH2 0x9F7 JUMP JUMPDEST DUP1 ISZERO PUSH2 0x58A JUMPI DUP1 PUSH1 0x1F LT PUSH2 0x561 JUMPI PUSH2 0x100 DUP1 DUP4 SLOAD DIV MUL DUP4 MSTORE SWAP2 PUSH1 0x20 ADD SWAP2 PUSH2 0x58A JUMP JUMPDEST DUP3 ADD SWAP2 SWAP1 PUSH0 MSTORE PUSH1 0x20 PUSH0 KECCAK256 SWAP1 JUMPDEST DUP2 SLOAD DUP2 MSTORE SWAP1 PUSH1 0x1 ADD SWAP1 PUSH1 0x20 ADD DUP1 DUP4 GT PUSH2 0x56D JUMPI DUP3 SWAP1 SUB PUSH1 0x1F AND DUP3 ADD SWAP2 JUMPDEST POP POP POP POP POP SWAP1 DUP1 PUSH1 0x3 ADD DUP1 SLOAD PUSH2 0x59F SWAP1 PUSH2 0x9F7 JUMP JUMPDEST DUP1 PUSH1 0x1F ADD PUSH1 0x20 DUP1 SWAP2 DIV MUL PUSH1 0x20 ADD PUSH1 0x40 MLOAD SWAP1 DUP2 ADD PUSH1 0x40 MSTORE DUP1 SWAP3 SWAP2 SWAP1 DUP2 DUP2 MSTORE PUSH1 0x20 ADD DUP3 DUP1 SLOAD PUSH2 0x5CB SWAP1 PUSH2 0x9F7 JUMP JUMPDEST DUP1 ISZERO PUSH2 0x616 JUMPI DUP1 PUSH1 0x1F LT PUSH2 0x5ED JUMPI PUSH2 0x100 DUP1 DUP4 SLOAD DIV MUL DUP4 MSTORE SWAP2 PUSH1 0x20 ADD SWAP2 PUSH2 0x616 JUMP JUMPDEST DUP3 ADD SWAP2 SWAP1 PUSH0 MSTORE PUSH1 0x20 PUSH0 KECCAK256 SWAP1 JUMPDEST DUP2 SLOAD DUP2 MSTORE SWAP1 PUSH1 0x1 ADD SWAP1 PUSH1 0x20 ADD DUP1 DUP4 GT PUSH2 0x5F9 JUMPI DUP3 SWAP1 SUB PUSH1 0x1F AND DUP3 ADD SWAP2 JUMPDEST POP POP POP POP POP SWAP1 DUP1 PUSH1 0x4 ADD PUSH0 SWAP1 SLOAD SWAP1 PUSH2 0x100 EXP SWAP1 DIV PUSH1 0xFF AND SWAP1 POP DUP6 JUMP JUMPDEST PUSH0 PUSH1 0x40 MLOAD SWAP1 POP SWAP1 JUMP JUMPDEST PUSH0 PUSH0 REVERT JUMPDEST PUSH0 PUSH0 REVERT JUMPDEST PUSH0 DUP2 SWAP1 POP SWAP2 SWAP1 POP JUMP JUMPDEST PUSH2 0x655 DUP2 PUSH2 0x643 JUMP JUMPDEST DUP2 EQ PUSH2 0x65F JUMPI PUSH0 PUSH0 REVERT JUMPDEST POP JUMP JUMPDEST PUSH0 DUP2 CALLDATALOAD SWAP1 POP PUSH2 0x670 DUP2 PUSH2 0x64C JUMP JUMPDEST SWAP3 SWAP2 POP POP JUMP JUMPDEST PUSH0 PUSH1 0x20 DUP3 DUP5 SUB SLT ISZERO PUSH2 0x68B JUMPI PUSH2 0x68A PUSH2 0x63B JUMP JUMPDEST JUMPDEST PUSH0 PUSH2 0x698 DUP5 DUP3 DUP6 ADD PUSH2 0x662 JUMP JUMPDEST SWAP2 POP POP SWAP3 SWAP2 POP POP JUMP JUMPDEST PUSH2 0x6AA DUP2 PUSH2 0x643 JUMP JUMPDEST DUP3 MSTORE POP POP JUMP JUMPDEST PUSH0 DUP2 MLOAD SWAP1 POP SWAP2 SWAP1 POP JUMP JUMPDEST PUSH0 DUP3 DUP3 MSTORE PUSH1 0x20 DUP3 ADD SWAP1 POP SWAP3 SWAP2 POP POP JUMP JUMPDEST DUP3 DUP2 DUP4 MCOPY PUSH0 DUP4 DUP4 ADD MSTORE POP POP POP JUMP JUMPDEST PUSH0 PUSH1 0x1F NOT PUSH1 0x1F DUP4 ADD AND SWAP1 POP SWAP2 SWAP1 POP JUMP JUMPDEST PUSH0 PUSH2 0x6F2 DUP3 PUSH2 0x6B0 JUMP JUMPDEST PUSH2 0x6FC DUP2 DUP6 PUSH2 0x6BA JUMP JUMPDEST SWAP4 POP PUSH2 0x70C DUP2 DUP6 PUSH1 0x20 DUP7 ADD PUSH2 0x6CA JUMP JUMPDEST PUSH2 0x715 DUP2 PUSH2 0x6D8 JUMP JUMPDEST DUP5 ADD SWAP2 POP POP SWAP3 SWAP2 POP POP JUMP JUMPDEST PUSH0 DUP2 ISZERO ISZERO SWAP1 POP SWAP2 SWAP1 POP JUMP JUMPDEST PUSH2 0x734 DUP2 PUSH2 0x720 JUMP JUMPDEST DUP3 MSTORE POP POP JUMP JUMPDEST PUSH0 PUSH1 0xA0 DUP3 ADD SWAP1 POP PUSH2 0x74D PUSH0 DUP4 ADD DUP9 PUSH2 0x6A1 JUMP JUMPDEST DUP2 DUP2 SUB PUSH1 0x20 DUP4 ADD MSTORE PUSH2 0x75F DUP2 DUP8 PUSH2 0x6E8 JUMP JUMPDEST SWAP1 POP DUP2 DUP2 SUB PUSH1 0x40 DUP4 ADD MSTORE PUSH2 0x773 DUP2 DUP7 PUSH2 0x6E8 JUMP JUMPDEST SWAP1 POP DUP2 DUP2 SUB PUSH1 0x60 DUP4 ADD MSTORE PUSH2 0x787 DUP2 DUP6 PUSH2 0x6E8 JUMP JUMPDEST SWAP1 POP PUSH2 0x796 PUSH1 0x80 DUP4 ADD DUP5 PUSH2 0x72B JUMP JUMPDEST SWAP7 SWAP6 POP POP POP POP POP POP JUMP JUMPDEST PUSH0 PUSH0 REVERT JUMPDEST PUSH0 PUSH0 REVERT JUMPDEST PUSH32 0x4E487B7100000000000000000000000000000000000000000000000000000000 PUSH0 MSTORE PUSH1 0x41 PUSH1 0x4 MSTORE PUSH1 0x24 PUSH0 REVERT JUMPDEST PUSH2 0x7DE DUP3 PUSH2 0x6D8 JUMP JUMPDEST DUP2 ADD DUP2 DUP2 LT PUSH8 0xFFFFFFFFFFFFFFFF DUP3 GT OR ISZERO PUSH2 0x7FD JUMPI PUSH2 0x7FC PUSH2 0x7A8 JUMP JUMPDEST JUMPDEST DUP1 PUSH1 0x40 MSTORE POP POP POP JUMP JUMPDEST PUSH0 PUSH2 0x80F PUSH2 0x632 JUMP JUMPDEST SWAP1 POP PUSH2 0x81B DUP3 DUP3 PUSH2 0x7D5 JUMP JUMPDEST SWAP2 SWAP1 POP JUMP JUMPDEST PUSH0 PUSH8 0xFFFFFFFFFFFFFFFF DUP3 GT ISZERO PUSH2 0x83A JUMPI PUSH2 0x839 PUSH2 0x7A8 JUMP JUMPDEST JUMPDEST PUSH2 0x843 DUP3 PUSH2 0x6D8 JUMP JUMPDEST SWAP1 POP PUSH1 0x20 DUP2 ADD SWAP1 POP SWAP2 SWAP1 POP JUMP JUMPDEST DUP3 DUP2 DUP4 CALLDATACOPY PUSH0 DUP4 DUP4 ADD MSTORE POP POP POP JUMP JUMPDEST PUSH0 PUSH2 0x870 PUSH2 0x86B DUP5 PUSH2 0x820 JUMP JUMPDEST PUSH2 0x806 JUMP JUMPDEST SWAP1 POP DUP3 DUP2 MSTORE PUSH1 0x20 DUP2 ADD DUP5 DUP5 DUP5 ADD GT ISZERO PUSH2 0x88C JUMPI PUSH2 0x88B PUSH2 0x7A4 JUMP JUMPDEST JUMPDEST PUSH2 0x897 DUP5 DUP3 DUP6 PUSH2 0x850 JUMP JUMPDEST POP SWAP4 SWAP3 POP POP POP JUMP JUMPDEST PUSH0 DUP3 PUSH1 0x1F DUP4 ADD SLT PUSH2 0x8B3 JUMPI PUSH2 0x8B2 PUSH2 0x7A0 JUMP JUMPDEST JUMPDEST DUP2 CALLDATALOAD PUSH2 0x8C3 DUP5 DUP3 PUSH1 0x20 DUP7 ADD PUSH2 0x85E JUMP JUMPDEST SWAP2 POP POP SWAP3 SWAP2 POP POP JUMP JUMPDEST PUSH0 PUSH0 PUSH0 PUSH1 0x60 DUP5 DUP7 SUB SLT ISZERO PUSH2 0x8E3 JUMPI PUSH2 0x8E2 PUSH2 0x63B JUMP JUMPDEST JUMPDEST PUSH0 DUP5 ADD CALLDATALOAD PUSH8 0xFFFFFFFFFFFFFFFF DUP2 GT ISZERO PUSH2 0x900 JUMPI PUSH2 0x8FF PUSH2 0x63F JUMP JUMPDEST JUMPDEST PUSH2 0x90C DUP7 DUP3 DUP8 ADD PUSH2 0x89F JUMP JUMPDEST SWAP4 POP POP PUSH1 0x20 DUP5 ADD CALLDATALOAD PUSH8 0xFFFFFFFFFFFFFFFF DUP2 GT ISZERO PUSH2 0x92D JUMPI PUSH2 0x92C PUSH2 0x63F JUMP JUMPDEST JUMPDEST PUSH2 0x939 DUP7 DUP3 DUP8 ADD PUSH2 0x89F JUMP JUMPDEST SWAP3 POP POP PUSH1 0x40 DUP5 ADD CALLDATALOAD PUSH8 0xFFFFFFFFFFFFFFFF DUP2 GT ISZERO PUSH2 0x95A JUMPI PUSH2 0x959 PUSH2 0x63F JUMP JUMPDEST JUMPDEST PUSH2 0x966 DUP7 DUP3 DUP8 ADD PUSH2 0x89F JUMP JUMPDEST SWAP2 POP POP SWAP3 POP SWAP3 POP SWAP3 JUMP JUMPDEST PUSH0 PUSH0 PUSH1 0x40 DUP4 DUP6 SUB SLT ISZERO PUSH2 0x986 JUMPI PUSH2 0x985 PUSH2 0x63B JUMP JUMPDEST JUMPDEST PUSH0 DUP4 ADD CALLDATALOAD PUSH8 0xFFFFFFFFFFFFFFFF DUP2 GT ISZERO PUSH2 0x9A3 JUMPI PUSH2 0x9A2 PUSH2 0x63F JUMP JUMPDEST JUMPDEST PUSH2 0x9AF DUP6 DUP3 DUP7 ADD PUSH2 0x89F JUMP JUMPDEST SWAP3 POP POP PUSH1 0x20 PUSH2 0x9C0 DUP6 DUP3 DUP7 ADD PUSH2 0x662 JUMP JUMPDEST SWAP2 POP POP SWAP3 POP SWAP3 SWAP1 POP JUMP JUMPDEST PUSH32 0x4E487B7100000000000000000000000000000000000000000000000000000000 PUSH0 MSTORE PUSH1 0x22 PUSH1 0x4 MSTORE PUSH1 0x24 PUSH0 REVERT JUMPDEST PUSH0 PUSH1 0x2 DUP3 DIV SWAP1 POP PUSH1 0x1 DUP3 AND DUP1 PUSH2 0xA0E JUMPI PUSH1 0x7F DUP3 AND SWAP2 POP JUMPDEST PUSH1 0x20 DUP3 LT DUP2 SUB PUSH2 0xA21 JUMPI PUSH2 0xA20 PUSH2 0x9CA JUMP JUMPDEST JUMPDEST POP SWAP2 SWAP1 POP JUMP JUMPDEST PUSH32 0x4E487B7100000000000000000000000000000000000000000000000000000000 PUSH0 MSTORE PUSH1 0x11 PUSH1 0x4 MSTORE PUSH1 0x24 PUSH0 REVERT JUMPDEST PUSH0 PUSH2 0xA5E DUP3 PUSH2 0x643 JUMP JUMPDEST SWAP2 POP PUSH2 0xA69 DUP4 PUSH2 0x643 JUMP JUMPDEST SWAP3 POP DUP3 DUP3 ADD SWAP1 POP DUP1 DUP3 GT ISZERO PUSH2 0xA81 JUMPI PUSH2 0xA80 PUSH2 0xA27 JUMP JUMPDEST JUMPDEST SWAP3 SWAP2 POP POP JUMP JUMPDEST PUSH0 DUP2 SWAP1 POP DUP2 PUSH0 MSTORE PUSH1 0x20 PUSH0 KECCAK256 SWAP1 POP SWAP2 SWAP1 POP JUMP JUMPDEST PUSH0 PUSH1 0x20 PUSH1 0x1F DUP4 ADD DIV SWAP1 POP SWAP2 SWAP1 POP JUMP JUMPDEST PUSH0 DUP3 DUP3 SHL SWAP1 POP SWAP3 SWAP2 POP POP JUMP JUMPDEST PUSH0 PUSH1 0x8 DUP4 MUL PUSH2 0xAE3 PUSH32 0xFFFFFFFFFFFFFFFFFFFFFFFFFFFFFFFFFFFFFFFFFFFFFFFFFFFFFFFFFFFFFFFF DUP3 PUSH2 0xAA8 JUMP JUMPDEST PUSH2 0xAED DUP7 DUP4 PUSH2 0xAA8 JUMP JUMPDEST SWAP6 POP DUP1 NOT DUP5 AND SWAP4 POP DUP1 DUP7 AND DUP5 OR SWAP3 POP POP POP SWAP4 SWAP3 POP POP POP JUMP JUMPDEST PUSH0 DUP2 SWAP1 POP SWAP2 SWAP1 POP JUMP JUMPDEST PUSH0 PUSH2 0xB28 PUSH2 0xB23 PUSH2 0xB1E DUP5 PUSH2 0x643 JUMP JUMPDEST PUSH2 0xB05 JUMP JUMPDEST PUSH2 0x643 JUMP JUMPDEST SWAP1 POP SWAP2 SWAP1 POP JUMP JUMPDEST PUSH0 DUP2 SWAP1 POP SWAP2 SWAP1 POP JUMP JUMPDEST PUSH2 0xB41 DUP4 PUSH2 0xB0E JUMP JUMPDEST PUSH2 0xB55 PUSH2 0xB4D DUP3 PUSH2 0xB2F JUMP JUMPDEST DUP5 DUP5 SLOAD PUSH2 0xAB4 JUMP JUMPDEST DUP3 SSTORE POP POP POP POP JUMP JUMPDEST PUSH0 PUSH0 SWAP1 POP SWAP1 JUMP JUMPDEST PUSH2 0xB6C PUSH2 0xB5D JUMP JUMPDEST PUSH2 0xB77 DUP2 DUP5 DUP5 PUSH2 0xB38 JUMP JUMPDEST POP POP POP JUMP JUMPDEST JUMPDEST DUP2 DUP2 LT ISZERO PUSH2 0xB9A JUMPI PUSH2 0xB8F PUSH0 DUP3 PUSH2 0xB64 JUMP JUMPDEST PUSH1 0x1 DUP2 ADD SWAP1 POP PUSH2 0xB7D JUMP JUMPDEST POP POP JUMP JUMPDEST PUSH1 0x1F DUP3 GT ISZERO PUSH2 0xBDF JUMPI PUSH2 0xBB0 DUP2 PUSH2 0xA87 JUMP JUMPDEST PUSH2 0xBB9 DUP5 PUSH2 0xA99 JUMP JUMPDEST DUP2 ADD PUSH1 0x20 DUP6 LT ISZERO PUSH2 0xBC8 JUMPI DUP2 SWAP1 POP JUMPDEST PUSH2 0xBDC PUSH2 0xBD4 DUP6 PUSH2 0xA99 JUMP JUMPDEST DUP4 ADD DUP3 PUSH2 0xB7C JUMP JUMPDEST POP POP JUMPDEST POP POP POP JUMP JUMPDEST PUSH0 DUP3 DUP3 SHR SWAP1 POP SWAP3 SWAP2 POP POP JUMP JUMPDEST PUSH0 PUSH2 0xBFF PUSH0 NOT DUP5 PUSH1 0x8 MUL PUSH2 0xBE4 JUMP JUMPDEST NOT DUP1 DUP4 AND SWAP2 POP POP SWAP3 SWAP2 POP POP JUMP JUMPDEST PUSH0 PUSH2 0xC17 DUP4 DUP4 PUSH2 0xBF0 JUMP JUMPDEST SWAP2 POP DUP3 PUSH1 0x2 MUL DUP3 OR SWAP1 POP SWAP3 SWAP2 POP POP JUMP JUMPDEST PUSH2 0xC30 DUP3 PUSH2 0x6B0 JUMP JUMPDEST PUSH8 0xFFFFFFFFFFFFFFFF DUP2 GT ISZERO PUSH2 0xC49 JUMPI PUSH2 0xC48 PUSH2 0x7A8 JUMP JUMPDEST JUMPDEST PUSH2 0xC53 DUP3 SLOAD PUSH2 0x9F7 JUMP JUMPDEST PUSH2 0xC5E DUP3 DUP3 DUP6 PUSH2 0xB9E JUMP JUMPDEST PUSH0 PUSH1 0x20 SWAP1 POP PUSH1 0x1F DUP4 GT PUSH1 0x1 DUP2 EQ PUSH2 0xC8F JUMPI PUSH0 DUP5 ISZERO PUSH2 0xC7D JUMPI DUP3 DUP8 ADD MLOAD SWAP1 POP JUMPDEST PUSH2 0xC87 DUP6 DUP3 PUSH2 0xC0C JUMP JUMPDEST DUP7 SSTORE POP PUSH2 0xCEE JUMP JUMPDEST PUSH1 0x1F NOT DUP5 AND PUSH2 0xC9D DUP7 PUSH2 0xA87 JUMP JUMPDEST PUSH0 JUMPDEST DUP3 DUP2 LT ISZERO PUSH2 0xCC4 JUMPI DUP5 DUP10 ADD MLOAD DUP3 SSTORE PUSH1 0x1 DUP3 ADD SWAP2 POP PUSH1 0x20 DUP6 ADD SWAP5 POP PUSH1 0x20 DUP2 ADD SWAP1 POP PUSH2 0xC9F JUMP JUMPDEST DUP7 DUP4 LT ISZERO PUSH2 0xCE1 JUMPI DUP5 DUP10 ADD MLOAD PUSH2 0xCDD PUSH1 0x1F DUP10 AND DUP3 PUSH2 0xBF0 JUMP JUMPDEST DUP4 SSTORE POP JUMPDEST PUSH1 0x1 PUSH1 0x2 DUP9 MUL ADD DUP9 SSTORE POP POP POP JUMPDEST POP POP POP POP POP POP JUMP JUMPDEST PUSH0 DUP2 SWAP1 POP SWAP3 SWAP2 POP POP JUMP JUMPDEST PUSH0 PUSH2 0xD0A DUP3 PUSH2 0x6B0 JUMP JUMPDEST PUSH2 0xD14 DUP2 DUP6 PUSH2 0xCF6 JUMP JUMPDEST SWAP4 POP PUSH2 0xD24 DUP2 DUP6 PUSH1 0x20 DUP7 ADD PUSH2 0x6CA JUMP JUMPDEST DUP1 DUP5 ADD SWAP2 POP POP SWAP3 SWAP2 POP POP JUMP JUMPDEST PUSH0 PUSH2 0xD3B DUP3 DUP5 PUSH2 0xD00 JUMP JUMPDEST SWAP2 POP DUP2 SWAP1 POP SWAP3 SWAP2 POP POP JUMP INVALID LOG2 PUSH5 0x6970667358 0x22 SLT KECCAK256 SWAP11 0x2A JUMPF 0xE1A9 0xD8 TLOAD 0xB5 0xE 0xCA SWAP2 SWAPN 0xB0 0x2D 0x21 0xDE 0xED 0xBA EXTSTATICCALL CALLDATASIZE PUSH31 0x5F75EB4A5105BD700E748B64736F6C634300081F0033000000000000000000 "
				},
				"gasEstimates": {
					"creation": {
						"codeDepositCost": "690400",
						"executionCost": "719",
						"totalCost": "691119"
					},
					"external": {
						"addBook(string,string,string)": "infinite",
						"genreToBooks(string,uint256)": "infinite",
						"listOfBooks(uint256)": "infinite"
					}
				},
				"methodIdentifiers": {
					"addBook(string,string,string)": "69c46826",
					"genreToBooks(string,uint256)": "93bdb2bb",
					"listOfBooks(uint256)": "3088c00f"
				}
			},
			"storageLayout": {
				"storage": [
					{
						"astId": 16,
						"contract": "Book.sol:BookContract",
						"label": "listOfBooks",
						"offset": 0,
						"slot": "0",
						"type": "t_array(t_struct(Book)12_storage)dyn_storage"
					},
					{
						"astId": 22,
						"contract": "Book.sol:BookContract",
						"label": "genreToBooks",
						"offset": 0,
						"slot": "1",
						"type": "t_mapping(t_string_memory_ptr,t_array(t_struct(Book)12_storage)dyn_storage)"
					}
				],
				"types": {
					"t_array(t_struct(Book)12_storage)dyn_storage": {
						"base": "t_struct(Book)12_storage",
						"encoding": "dynamic_array",
						"label": "struct BookContract.Book[]",
						"numberOfBytes": "32"
					},
					"t_bool": {
						"encoding": "inplace",
						"label": "bool",
						"numberOfBytes": "1"
					},
					"t_mapping(t_string_memory_ptr,t_array(t_struct(Book)12_storage)dyn_storage)": {
						"encoding": "mapping",
						"key": "t_string_memory_ptr",
						"label": "mapping(string => struct BookContract.Book[])",
						"numberOfBytes": "32",
						"value": "t_array(t_struct(Book)12_storage)dyn_storage"
					},
					"t_string_memory_ptr": {
						"encoding": "bytes",
						"label": "string",
						"numberOfBytes": "32"
					},
					"t_string_storage": {
						"encoding": "bytes",
						"label": "string",
						"numberOfBytes": "32"
					},
					"t_struct(Book)12_storage": {
						"encoding": "inplace",
						"label": "struct BookContract.Book",
						"members": [
							{
								"astId": 3,
								"contract": "Book.sol:BookContract",
								"label": "ID",
								"offset": 0,
								"slot": "0",
								"type": "t_uint256"
							},
							{
								"astId": 5,
								"contract": "Book.sol:BookContract",
								"label": "title",
								"offset": 0,
								"slot": "1",
								"type": "t_string_storage"
							},
							{
								"astId": 7,
								"contract": "Book.sol:BookContract",
								"label": "author",
								"offset": 0,
								"slot": "2",
								"type": "t_string_storage"
							},
							{
								"astId": 9,
								"contract": "Book.sol:BookContract",
								"label": "genre",
								"offset": 0,
								"slot": "3",
								"type": "t_string_storage"
							},
							{
								"astId": 11,
								"contract": "Book.sol:BookContract",
								"label": "available",
								"offset": 0,
								"slot": "4",
								"type": "t_bool"
							}
						],
						"numberOfBytes": "160"
					},
					"t_uint256": {
						"encoding": "inplace",
						"label": "uint256",
						"numberOfBytes": "32"
					}
				}
			},
			"userdoc": {
				"kind": "user",
				"methods": {},
				"version": 1
			}
		}
	}
}