{
	"Library.sol": {
		"LibraryContract": {
			"abi": [
				{
					"inputs": [
						{
							"internalType": "uint256",
							"name": "_libraryId",
							"type": "uint256"
						},
						{
							"internalType": "string",
							"name": "_name",
							"type": "string"
						},
						{
							"internalType": "uint256",
							"name": "_age",
							"type": "uint256"
						},
						{
							"internalType": "address",
							"name": "_wallet",
							"type": "address"
						}
					],
					"name": "addNeMember",
					"outputs": [],
					"stateMutability": "nonpayable",
					"type": "function"
				},
				{
					"inputs": [
						{
							"internalType": "uint256",
							"name": "_libraryId",
							"type": "uint256"
						},
						{
							"internalType": "string",
							"name": "_title",
							"type": "string"
						},
						{
							"internalType": "string",
							"name": "_author",
							"type": "string"
						},
						{
							"internalType": "string",
							"name": "_genre",
							"type": "string"
						}
					],
					"name": "addNewBook",
					"outputs": [],
					"stateMutability": "nonpayable",
					"type": "function"
				},
				{
					"inputs": [
						{
							"internalType": "uint256",
							"name": "",
							"type": "uint256"
						}
					],
					"name": "libraries",
					"outputs": [
						{
							"internalType": "uint256",
							"name": "ID",
							"type": "uint256"
						},
						{
							"internalType": "string",
							"name": "name",
							"type": "string"
						},
						{
							"internalType": "string",
							"name": "location",
							"type": "string"
						},
						{
							"internalType": "address",
							"name": "admin",
							"type": "address"
						},
						{
							"internalType": "contract BookContract",
							"name": "book",
							"type": "address"
						},
						{
							"internalType": "contract MemberContract",
							"name": "member",
							"type": "address"
						}
					],
					"stateMutability": "view",
					"type": "function"
				},
				{
					"inputs": [
						{
							"internalType": "string",
							"name": "_name",
							"type": "string"
						},
						{
							"internalType": "string",
							"name": "_location",
							"type": "string"
						}
					],
					"name": "registerLibrary",
					"outputs": [],
					"stateMutability": "nonpayable",
					"type": "function"
				}
			],
			"devdoc": {
				"kind": "dev",
				"methods": {},
				"version": 1
			},
			"evm": {
				"assembly": "    /* \"Library.sol\":146:1907  contract LibraryContract {... */\n  mstore(0x40, 0x80)\n  callvalue\n  dup1\n  iszero\n  tag_1\n  jumpi\n  revert(0x00, 0x00)\ntag_1:\n  pop\n  dataSize(sub_0)\n  dup1\n  dataOffset(sub_0)\n  0x00\n  codecopy\n  0x00\n  return\nstop\n\nsub_0: assembly {\n        /* \"Library.sol\":146:1907  contract LibraryContract {... */\n      mstore(0x40, 0x80)\n      callvalue\n      dup1\n      iszero\n      tag_1\n      jumpi\n      revert(0x00, 0x00)\n    tag_1:\n      pop\n      jumpi(tag_2, lt(calldatasize, 0x04))\n      shr(0xe0, calldataload(0x00))\n      dup1\n      0x4cb2632e\n      eq\n      tag_3\n      jumpi\n      dup1\n      0x5397fbf3\n      eq\n      tag_4\n      jumpi\n      dup1\n      0xb1fbe72d\n      eq\n      tag_5\n      jumpi\n      dup1\n      0xc268f81e\n      eq\n      tag_6\n      jumpi\n    tag_2:\n      revert(0x00, 0x00)\n        /* \"Library.sol\":435:903  function registerLibrary(... */\n    tag_3:\n      tag_7\n      0x04\n      dup1\n      calldatasize\n      sub\n      dup2\n      add\n      swap1\n      tag_8\n      swap2\n      swap1\n      tag_9\n      jump\t// in\n    tag_8:\n      tag_10\n      jump\t// in\n    tag_7:\n      stop\n        /* \"Library.sol\":909:1188  function addNewBook(... */\n    tag_4:\n      tag_11\n      0x04\n      dup1\n      calldatasize\n      sub\n      dup2\n      add\n      swap1\n      tag_12\n      swap2\n      swap1\n      tag_13\n      jump\t// in\n    tag_12:\n      tag_14\n      jump\t// in\n    tag_11:\n      stop\n        /* \"Library.sol\":352:378  Library[] public libraries */\n    tag_5:\n      tag_15\n      0x04\n      dup1\n      calldatasize\n      sub\n      dup2\n      add\n      swap1\n      tag_16\n      swap2\n      swap1\n      tag_17\n      jump\t// in\n    tag_16:\n      tag_18\n      jump\t// in\n    tag_15:\n      mload(0x40)\n      tag_19\n      swap7\n      swap6\n      swap5\n      swap4\n      swap3\n      swap2\n      swap1\n      tag_20\n      jump\t// in\n    tag_19:\n      mload(0x40)\n      dup1\n      swap2\n      sub\n      swap1\n      return\n        /* \"Library.sol\":1194:1465  function addNeMember(... */\n    tag_6:\n      tag_21\n      0x04\n      dup1\n      calldatasize\n      sub\n      dup2\n      add\n      swap1\n      tag_22\n      swap2\n      swap1\n      tag_23\n      jump\t// in\n    tag_22:\n      tag_24\n      jump\t// in\n    tag_21:\n      stop\n        /* \"Library.sol\":435:903  function registerLibrary(... */\n    tag_10:\n        /* \"Library.sol\":545:562  BookContract book */\n      0x00\n        /* \"Library.sol\":565:583  new BookContract() */\n      mload(0x40)\n      tag_26\n      swap1\n      tag_27\n      jump\t// in\n    tag_26:\n      mload(0x40)\n      dup1\n      swap2\n      sub\n      swap1\n      0x00\n      create\n      dup1\n      iszero\n      dup1\n      iszero\n      tag_28\n      jumpi\n      returndatacopy(0x00, 0x00, returndatasize)\n      revert(0x00, returndatasize)\n    tag_28:\n      pop\n        /* \"Library.sol\":545:583  BookContract book = new BookContract() */\n      swap1\n      pop\n        /* \"Library.sol\":593:614  MemberContract member */\n      0x00\n        /* \"Library.sol\":617:637  new MemberContract() */\n      mload(0x40)\n      tag_29\n      swap1\n      tag_30\n      jump\t// in\n    tag_29:\n      mload(0x40)\n      dup1\n      swap2\n      sub\n      swap1\n      0x00\n      create\n      dup1\n      iszero\n      dup1\n      iszero\n      tag_31\n      jumpi\n      returndatacopy(0x00, 0x00, returndatasize)\n      revert(0x00, returndatasize)\n    tag_31:\n      pop\n        /* \"Library.sol\":593:637  MemberContract member = new MemberContract() */\n      swap1\n      pop\n        /* \"Library.sol\":648:659  uint256 _ID */\n      0x00\n        /* \"Library.sol\":681:682  1 */\n      0x01\n        /* \"Library.sol\":662:671  libraries */\n      0x00\n        /* \"Library.sol\":662:678  libraries.length */\n      dup1\n      sload\n      swap1\n      pop\n        /* \"Library.sol\":662:682  libraries.length + 1 */\n      tag_32\n      swap2\n      swap1\n      tag_33\n      jump\t// in\n    tag_32:\n        /* \"Library.sol\":648:682  uint256 _ID = libraries.length + 1 */\n      swap1\n      pop\n        /* \"Library.sol\":693:718  Library memory newLibrary */\n      0x00\n        /* \"Library.sol\":721:859  Library(... */\n      mload(0x40)\n      dup1\n      0xc0\n      add\n      0x40\n      mstore\n      dup1\n        /* \"Library.sol\":742:745  _ID */\n      dup4\n        /* \"Library.sol\":721:859  Library(... */\n      dup2\n      mstore\n      0x20\n      add\n        /* \"Library.sol\":759:764  _name */\n      dup8\n        /* \"Library.sol\":721:859  Library(... */\n      dup2\n      mstore\n      0x20\n      add\n        /* \"Library.sol\":778:787  _location */\n      dup7\n        /* \"Library.sol\":721:859  Library(... */\n      dup2\n      mstore\n      0x20\n      add\n        /* \"Library.sol\":801:811  msg.sender */\n      caller\n        /* \"Library.sol\":721:859  Library(... */\n      0xffffffffffffffffffffffffffffffffffffffff\n      and\n      dup2\n      mstore\n      0x20\n      add\n        /* \"Library.sol\":825:829  book */\n      dup6\n        /* \"Library.sol\":721:859  Library(... */\n      0xffffffffffffffffffffffffffffffffffffffff\n      and\n      dup2\n      mstore\n      0x20\n      add\n        /* \"Library.sol\":843:849  member */\n      dup5\n        /* \"Library.sol\":721:859  Library(... */\n      0xffffffffffffffffffffffffffffffffffffffff\n      and\n      dup2\n      mstore\n      pop\n        /* \"Library.sol\":693:859  Library memory newLibrary = Library(... */\n      swap1\n      pop\n        /* \"Library.sol\":870:879  libraries */\n      0x00\n        /* \"Library.sol\":885:895  newLibrary */\n      dup2\n        /* \"Library.sol\":870:896  libraries.push(newLibrary) */\n      swap1\n      dup1\n      0x01\n      dup2\n      sload\n      add\n      dup1\n      dup3\n      sstore\n      dup1\n      swap2\n      pop\n      pop\n      0x01\n      swap1\n      sub\n      swap1\n      0x00\n      mstore\n      keccak256(0x00, 0x20)\n      swap1\n      0x06\n      mul\n      add\n      0x00\n      swap1\n      swap2\n      swap1\n      swap2\n      swap1\n      swap2\n      pop\n      0x00\n      dup3\n      add\n      mload\n      dup2\n      0x00\n      add\n      sstore\n      0x20\n      dup3\n      add\n      mload\n      dup2\n      0x01\n      add\n      swap1\n      dup2\n      tag_35\n      swap2\n      swap1\n      tag_36\n      jump\t// in\n    tag_35:\n      pop\n      0x40\n      dup3\n      add\n      mload\n      dup2\n      0x02\n      add\n      swap1\n      dup2\n      tag_37\n      swap2\n      swap1\n      tag_36\n      jump\t// in\n    tag_37:\n      pop\n      0x60\n      dup3\n      add\n      mload\n      dup2\n      0x03\n      add\n      exp(0x0100, 0x00)\n      dup2\n      sload\n      dup2\n      0xffffffffffffffffffffffffffffffffffffffff\n      mul\n      not\n      and\n      swap1\n      dup4\n      0xffffffffffffffffffffffffffffffffffffffff\n      and\n      mul\n      or\n      swap1\n      sstore\n      pop\n      0x80\n      dup3\n      add\n      mload\n      dup2\n      0x04\n      add\n      exp(0x0100, 0x00)\n      dup2\n      sload\n      dup2\n      0xffffffffffffffffffffffffffffffffffffffff\n      mul\n      not\n      and\n      swap1\n      dup4\n      0xffffffffffffffffffffffffffffffffffffffff\n      and\n      mul\n      or\n      swap1\n      sstore\n      pop\n      0xa0\n      dup3\n      add\n      mload\n      dup2\n      0x05\n      add\n      exp(0x0100, 0x00)\n      dup2\n      sload\n      dup2\n      0xffffffffffffffffffffffffffffffffffffffff\n      mul\n      not\n      and\n      swap1\n      dup4\n      0xffffffffffffffffffffffffffffffffffffffff\n      and\n      mul\n      or\n      swap1\n      sstore\n      pop\n      pop\n      pop\n        /* \"Library.sol\":535:903  {... */\n      pop\n      pop\n      pop\n      pop\n        /* \"Library.sol\":435:903  function registerLibrary(... */\n      pop\n      pop\n      jump\t// out\n        /* \"Library.sol\":909:1188  function addNewBook(... */\n    tag_14:\n        /* \"Library.sol\":1071:1096  Library storage myLibrary */\n      0x00\n        /* \"Library.sol\":1099:1124  _getMyLibrary(_libraryId) */\n      tag_39\n        /* \"Library.sol\":1113:1123  _libraryId */\n      dup6\n        /* \"Library.sol\":1099:1112  _getMyLibrary */\n      tag_40\n        /* \"Library.sol\":1099:1124  _getMyLibrary(_libraryId) */\n      jump\t// in\n    tag_39:\n        /* \"Library.sol\":1071:1124  Library storage myLibrary = _getMyLibrary(_libraryId) */\n      swap1\n      pop\n        /* \"Library.sol\":1134:1143  myLibrary */\n      dup1\n        /* \"Library.sol\":1134:1148  myLibrary.book */\n      0x04\n      add\n      0x00\n      swap1\n      sload\n      swap1\n      0x0100\n      exp\n      swap1\n      div\n      0xffffffffffffffffffffffffffffffffffffffff\n      and\n        /* \"Library.sol\":1134:1156  myLibrary.book.addBook */\n      0xffffffffffffffffffffffffffffffffffffffff\n      and\n      0x69c46826\n        /* \"Library.sol\":1157:1163  _title */\n      dup6\n        /* \"Library.sol\":1165:1172  _author */\n      dup6\n        /* \"Library.sol\":1174:1180  _genre */\n      dup6\n        /* \"Library.sol\":1134:1181  myLibrary.book.addBook(_title, _author, _genre) */\n      mload(0x40)\n      dup5\n      0xffffffff\n      and\n      0xe0\n      shl\n      dup2\n      mstore\n      0x04\n      add\n      tag_41\n      swap4\n      swap3\n      swap2\n      swap1\n      tag_42\n      jump\t// in\n    tag_41:\n      0x00\n      mload(0x40)\n      dup1\n      dup4\n      sub\n      dup2\n      0x00\n      dup8\n      dup1\n      extcodesize\n      iszero\n      dup1\n      iszero\n      tag_43\n      jumpi\n      revert(0x00, 0x00)\n    tag_43:\n      pop\n      gas\n      call\n      iszero\n      dup1\n      iszero\n      tag_45\n      jumpi\n      returndatacopy(0x00, 0x00, returndatasize)\n      revert(0x00, returndatasize)\n    tag_45:\n      pop\n      pop\n      pop\n      pop\n        /* \"Library.sol\":1061:1188  {... */\n      pop\n        /* \"Library.sol\":909:1188  function addNewBook(... */\n      pop\n      pop\n      pop\n      pop\n      jump\t// out\n        /* \"Library.sol\":352:378  Library[] public libraries */\n    tag_18:\n      0x00\n      dup2\n      dup2\n      sload\n      dup2\n      lt\n      tag_46\n      jumpi\n      0x00\n      dup1\n      revert\n    tag_46:\n      swap1\n      0x00\n      mstore\n      keccak256(0x00, 0x20)\n      swap1\n      0x06\n      mul\n      add\n      0x00\n      swap2\n      pop\n      swap1\n      pop\n      dup1\n      0x00\n      add\n      sload\n      swap1\n      dup1\n      0x01\n      add\n      dup1\n      sload\n      tag_48\n      swap1\n      tag_49\n      jump\t// in\n    tag_48:\n      dup1\n      0x1f\n      add\n      0x20\n      dup1\n      swap2\n      div\n      mul\n      0x20\n      add\n      mload(0x40)\n      swap1\n      dup2\n      add\n      0x40\n      mstore\n      dup1\n      swap3\n      swap2\n      swap1\n      dup2\n      dup2\n      mstore\n      0x20\n      add\n      dup3\n      dup1\n      sload\n      tag_50\n      swap1\n      tag_49\n      jump\t// in\n    tag_50:\n      dup1\n      iszero\n      tag_51\n      jumpi\n      dup1\n      0x1f\n      lt\n      tag_52\n      jumpi\n      0x0100\n      dup1\n      dup4\n      sload\n      div\n      mul\n      dup4\n      mstore\n      swap2\n      0x20\n      add\n      swap2\n      jump(tag_51)\n    tag_52:\n      dup3\n      add\n      swap2\n      swap1\n      0x00\n      mstore\n      keccak256(0x00, 0x20)\n      swap1\n    tag_53:\n      dup2\n      sload\n      dup2\n      mstore\n      swap1\n      0x01\n      add\n      swap1\n      0x20\n      add\n      dup1\n      dup4\n      gt\n      tag_53\n      jumpi\n      dup3\n      swap1\n      sub\n      0x1f\n      and\n      dup3\n      add\n      swap2\n    tag_51:\n      pop\n      pop\n      pop\n      pop\n      pop\n      swap1\n      dup1\n      0x02\n      add\n      dup1\n      sload\n      tag_54\n      swap1\n      tag_49\n      jump\t// in\n    tag_54:\n      dup1\n      0x1f\n      add\n      0x20\n      dup1\n      swap2\n      div\n      mul\n      0x20\n      add\n      mload(0x40)\n      swap1\n      dup2\n      add\n      0x40\n      mstore\n      dup1\n      swap3\n      swap2\n      swap1\n      dup2\n      dup2\n      mstore\n      0x20\n      add\n      dup3\n      dup1\n      sload\n      tag_55\n      swap1\n      tag_49\n      jump\t// in\n    tag_55:\n      dup1\n      iszero\n      tag_56\n      jumpi\n      dup1\n      0x1f\n      lt\n      tag_57\n      jumpi\n      0x0100\n      dup1\n      dup4\n      sload\n      div\n      mul\n      dup4\n      mstore\n      swap2\n      0x20\n      add\n      swap2\n      jump(tag_56)\n    tag_57:\n      dup3\n      add\n      swap2\n      swap1\n      0x00\n      mstore\n      keccak256(0x00, 0x20)\n      swap1\n    tag_58:\n      dup2\n      sload\n      dup2\n      mstore\n      swap1\n      0x01\n      add\n      swap1\n      0x20\n      add\n      dup1\n      dup4\n      gt\n      tag_58\n      jumpi\n      dup3\n      swap1\n      sub\n      0x1f\n      and\n      dup3\n      add\n      swap2\n    tag_56:\n      pop\n      pop\n      pop\n      pop\n      pop\n      swap1\n      dup1\n      0x03\n      add\n      0x00\n      swap1\n      sload\n      swap1\n      0x0100\n      exp\n      swap1\n      div\n      0xffffffffffffffffffffffffffffffffffffffff\n      and\n      swap1\n      dup1\n      0x04\n      add\n      0x00\n      swap1\n      sload\n      swap1\n      0x0100\n      exp\n      swap1\n      div\n      0xffffffffffffffffffffffffffffffffffffffff\n      and\n      swap1\n      dup1\n      0x05\n      add\n      0x00\n      swap1\n      sload\n      swap1\n      0x0100\n      exp\n      swap1\n      div\n      0xffffffffffffffffffffffffffffffffffffffff\n      and\n      swap1\n      pop\n      dup7\n      jump\t// out\n        /* \"Library.sol\":1194:1465  function addNeMember(... */\n    tag_24:\n        /* \"Library.sol\":1342:1367  Library storage myLibrary */\n      0x00\n        /* \"Library.sol\":1370:1395  _getMyLibrary(_libraryId) */\n      tag_60\n        /* \"Library.sol\":1384:1394  _libraryId */\n      dup6\n        /* \"Library.sol\":1370:1383  _getMyLibrary */\n      tag_40\n        /* \"Library.sol\":1370:1395  _getMyLibrary(_libraryId) */\n      jump\t// in\n    tag_60:\n        /* \"Library.sol\":1342:1395  Library storage myLibrary = _getMyLibrary(_libraryId) */\n      swap1\n      pop\n        /* \"Library.sol\":1405:1414  myLibrary */\n      dup1\n        /* \"Library.sol\":1405:1421  myLibrary.member */\n      0x05\n      add\n      0x00\n      swap1\n      sload\n      swap1\n      0x0100\n      exp\n      swap1\n      div\n      0xffffffffffffffffffffffffffffffffffffffff\n      and\n        /* \"Library.sol\":1405:1436  myLibrary.member.registerMember */\n      0xffffffffffffffffffffffffffffffffffffffff\n      and\n      0xb184c11e\n        /* \"Library.sol\":1437:1442  _name */\n      dup6\n        /* \"Library.sol\":1444:1448  _age */\n      dup6\n        /* \"Library.sol\":1450:1457  _wallet */\n      dup6\n        /* \"Library.sol\":1405:1458  myLibrary.member.registerMember(_name, _age, _wallet) */\n      mload(0x40)\n      dup5\n      0xffffffff\n      and\n      0xe0\n      shl\n      dup2\n      mstore\n      0x04\n      add\n      tag_61\n      swap4\n      swap3\n      swap2\n      swap1\n      tag_62\n      jump\t// in\n    tag_61:\n      0x00\n      mload(0x40)\n      dup1\n      dup4\n      sub\n      dup2\n      0x00\n      dup8\n      dup1\n      extcodesize\n      iszero\n      dup1\n      iszero\n      tag_63\n      jumpi\n      revert(0x00, 0x00)\n    tag_63:\n      pop\n      gas\n      call\n      iszero\n      dup1\n      iszero\n      tag_65\n      jumpi\n      returndatacopy(0x00, 0x00, returndatasize)\n      revert(0x00, returndatasize)\n    tag_65:\n      pop\n      pop\n      pop\n      pop\n        /* \"Library.sol\":1332:1465  {... */\n      pop\n        /* \"Library.sol\":1194:1465  function addNeMember(... */\n      pop\n      pop\n      pop\n      pop\n      jump\t// out\n        /* \"Library.sol\":1471:1905  function _getMyLibrary(uint256 _libraryId) internal view returns (Library storage) {... */\n    tag_40:\n        /* \"Library.sol\":1537:1552  Library storage */\n      0x00\n        /* \"Library.sol\":1568:1577  uint256 i */\n      0x00\n        /* \"Library.sol\":1580:1581  0 */\n      0x00\n        /* \"Library.sol\":1568:1581  uint256 i = 0 */\n      swap1\n      pop\n        /* \"Library.sol\":1564:1860  for(uint256 i = 0; i < libraries.length; i++) {... */\n    tag_67:\n        /* \"Library.sol\":1587:1596  libraries */\n      0x00\n        /* \"Library.sol\":1587:1603  libraries.length */\n      dup1\n      sload\n      swap1\n      pop\n        /* \"Library.sol\":1583:1584  i */\n      dup2\n        /* \"Library.sol\":1583:1603  i < libraries.length */\n      lt\n        /* \"Library.sol\":1564:1860  for(uint256 i = 0; i < libraries.length; i++) {... */\n      iszero\n      tag_68\n      jumpi\n        /* \"Library.sol\":1646:1656  _libraryId */\n      dup3\n        /* \"Library.sol\":1627:1636  libraries */\n      0x00\n        /* \"Library.sol\":1637:1638  i */\n      dup3\n        /* \"Library.sol\":1627:1639  libraries[i] */\n      dup2\n      sload\n      dup2\n      lt\n      tag_70\n      jumpi\n      tag_71\n      tag_72\n      jump\t// in\n    tag_71:\n    tag_70:\n      swap1\n      0x00\n      mstore\n      keccak256(0x00, 0x20)\n      swap1\n      0x06\n      mul\n      add\n        /* \"Library.sol\":1627:1642  libraries[i].ID */\n      0x00\n      add\n      sload\n        /* \"Library.sol\":1627:1656  libraries[i].ID == _libraryId */\n      sub\n        /* \"Library.sol\":1624:1850  if(libraries[i].ID == _libraryId) {... */\n      tag_74\n      jumpi\n        /* \"Library.sol\":1727:1737  msg.sender */\n      caller\n        /* \"Library.sol\":1705:1737  libraries[i].admin == msg.sender */\n      0xffffffffffffffffffffffffffffffffffffffff\n      and\n        /* \"Library.sol\":1705:1714  libraries */\n      0x00\n        /* \"Library.sol\":1715:1716  i */\n      dup3\n        /* \"Library.sol\":1705:1717  libraries[i] */\n      dup2\n      sload\n      dup2\n      lt\n      tag_75\n      jumpi\n      tag_76\n      tag_72\n      jump\t// in\n    tag_76:\n    tag_75:\n      swap1\n      0x00\n      mstore\n      keccak256(0x00, 0x20)\n      swap1\n      0x06\n      mul\n      add\n        /* \"Library.sol\":1705:1723  libraries[i].admin */\n      0x03\n      add\n      0x00\n      swap1\n      sload\n      swap1\n      0x0100\n      exp\n      swap1\n      div\n      0xffffffffffffffffffffffffffffffffffffffff\n      and\n        /* \"Library.sol\":1705:1737  libraries[i].admin == msg.sender */\n      0xffffffffffffffffffffffffffffffffffffffff\n      and\n      eq\n        /* \"Library.sol\":1676:1797  require(... */\n      tag_78\n      jumpi\n      mload(0x40)\n      0x08c379a000000000000000000000000000000000000000000000000000000000\n      dup2\n      mstore\n      0x04\n      add\n      tag_79\n      swap1\n      tag_80\n      jump\t// in\n    tag_79:\n      mload(0x40)\n      dup1\n      swap2\n      sub\n      swap1\n      revert\n    tag_78:\n        /* \"Library.sol\":1823:1832  libraries */\n      0x00\n        /* \"Library.sol\":1833:1834  i */\n      dup2\n        /* \"Library.sol\":1823:1835  libraries[i] */\n      dup2\n      sload\n      dup2\n      lt\n      tag_81\n      jumpi\n      tag_82\n      tag_72\n      jump\t// in\n    tag_82:\n    tag_81:\n      swap1\n      0x00\n      mstore\n      keccak256(0x00, 0x20)\n      swap1\n      0x06\n      mul\n      add\n        /* \"Library.sol\":1816:1835  return libraries[i] */\n      swap2\n      pop\n      pop\n      jump(tag_66)\n        /* \"Library.sol\":1624:1850  if(libraries[i].ID == _libraryId) {... */\n    tag_74:\n        /* \"Library.sol\":1605:1608  i++ */\n      dup1\n      dup1\n      0x01\n      add\n      swap2\n      pop\n      pop\n        /* \"Library.sol\":1564:1860  for(uint256 i = 0; i < libraries.length; i++) {... */\n      jump(tag_67)\n    tag_68:\n      pop\n        /* \"Library.sol\":1870:1898  revert(\"Library not found!\") */\n      mload(0x40)\n      0x08c379a000000000000000000000000000000000000000000000000000000000\n      dup2\n      mstore\n      0x04\n      add\n      tag_84\n      swap1\n      tag_80\n      jump\t// in\n    tag_84:\n      mload(0x40)\n      dup1\n      swap2\n      sub\n      swap1\n      revert\n        /* \"Library.sol\":1471:1905  function _getMyLibrary(uint256 _libraryId) internal view returns (Library storage) {... */\n    tag_66:\n      swap2\n      swap1\n      pop\n      jump\t// out\n    tag_27:\n      dataSize(sub_0)\n      dup1\n      dataOffset(sub_0)\n      dup4\n      codecopy\n      add\n      swap1\n      jump\t// out\n    tag_30:\n      dataSize(sub_1)\n      dup1\n      dataOffset(sub_1)\n      dup4\n      codecopy\n      add\n      swap1\n      jump\t// out\n        /* \"#utility.yul\":7:82   */\n    tag_85:\n        /* \"#utility.yul\":40:46   */\n      0x00\n        /* \"#utility.yul\":73:75   */\n      0x40\n        /* \"#utility.yul\":67:76   */\n      mload\n        /* \"#utility.yul\":57:76   */\n      swap1\n      pop\n        /* \"#utility.yul\":7:82   */\n      swap1\n      jump\t// out\n        /* \"#utility.yul\":88:205   */\n    tag_86:\n        /* \"#utility.yul\":197:198   */\n      0x00\n        /* \"#utility.yul\":194:195   */\n      0x00\n        /* \"#utility.yul\":187:199   */\n      revert\n        /* \"#utility.yul\":211:328   */\n    tag_87:\n        /* \"#utility.yul\":320:321   */\n      0x00\n        /* \"#utility.yul\":317:318   */\n      0x00\n        /* \"#utility.yul\":310:322   */\n      revert\n        /* \"#utility.yul\":334:451   */\n    tag_88:\n        /* \"#utility.yul\":443:444   */\n      0x00\n        /* \"#utility.yul\":440:441   */\n      0x00\n        /* \"#utility.yul\":433:445   */\n      revert\n        /* \"#utility.yul\":457:574   */\n    tag_89:\n        /* \"#utility.yul\":566:567   */\n      0x00\n        /* \"#utility.yul\":563:564   */\n      0x00\n        /* \"#utility.yul\":556:568   */\n      revert\n        /* \"#utility.yul\":580:682   */\n    tag_90:\n        /* \"#utility.yul\":621:627   */\n      0x00\n        /* \"#utility.yul\":672:674   */\n      0x1f\n        /* \"#utility.yul\":668:675   */\n      not\n        /* \"#utility.yul\":663:665   */\n      0x1f\n        /* \"#utility.yul\":656:661   */\n      dup4\n        /* \"#utility.yul\":652:666   */\n      add\n        /* \"#utility.yul\":648:676   */\n      and\n        /* \"#utility.yul\":638:676   */\n      swap1\n      pop\n        /* \"#utility.yul\":580:682   */\n      swap2\n      swap1\n      pop\n      jump\t// out\n        /* \"#utility.yul\":688:868   */\n    tag_91:\n        /* \"#utility.yul\":736:813   */\n      0x4e487b7100000000000000000000000000000000000000000000000000000000\n        /* \"#utility.yul\":733:734   */\n      0x00\n        /* \"#utility.yul\":726:814   */\n      mstore\n        /* \"#utility.yul\":833:837   */\n      0x41\n        /* \"#utility.yul\":830:831   */\n      0x04\n        /* \"#utility.yul\":823:838   */\n      mstore\n        /* \"#utility.yul\":857:861   */\n      0x24\n        /* \"#utility.yul\":854:855   */\n      0x00\n        /* \"#utility.yul\":847:862   */\n      revert\n        /* \"#utility.yul\":874:1155   */\n    tag_92:\n        /* \"#utility.yul\":957:984   */\n      tag_145\n        /* \"#utility.yul\":979:983   */\n      dup3\n        /* \"#utility.yul\":957:984   */\n      tag_90\n      jump\t// in\n    tag_145:\n        /* \"#utility.yul\":949:955   */\n      dup2\n        /* \"#utility.yul\":945:985   */\n      add\n        /* \"#utility.yul\":1087:1093   */\n      dup2\n        /* \"#utility.yul\":1075:1085   */\n      dup2\n        /* \"#utility.yul\":1072:1094   */\n      lt\n        /* \"#utility.yul\":1051:1069   */\n      0xffffffffffffffff\n        /* \"#utility.yul\":1039:1049   */\n      dup3\n        /* \"#utility.yul\":1036:1070   */\n      gt\n        /* \"#utility.yul\":1033:1095   */\n      or\n        /* \"#utility.yul\":1030:1118   */\n      iszero\n      tag_146\n      jumpi\n        /* \"#utility.yul\":1098:1116   */\n      tag_147\n      tag_91\n      jump\t// in\n    tag_147:\n        /* \"#utility.yul\":1030:1118   */\n    tag_146:\n        /* \"#utility.yul\":1138:1148   */\n      dup1\n        /* \"#utility.yul\":1134:1136   */\n      0x40\n        /* \"#utility.yul\":1127:1149   */\n      mstore\n        /* \"#utility.yul\":917:1155   */\n      pop\n        /* \"#utility.yul\":874:1155   */\n      pop\n      pop\n      jump\t// out\n        /* \"#utility.yul\":1161:1290   */\n    tag_93:\n        /* \"#utility.yul\":1195:1201   */\n      0x00\n        /* \"#utility.yul\":1222:1242   */\n      tag_149\n      tag_85\n      jump\t// in\n    tag_149:\n        /* \"#utility.yul\":1212:1242   */\n      swap1\n      pop\n        /* \"#utility.yul\":1251:1284   */\n      tag_150\n        /* \"#utility.yul\":1279:1283   */\n      dup3\n        /* \"#utility.yul\":1271:1277   */\n      dup3\n        /* \"#utility.yul\":1251:1284   */\n      tag_92\n      jump\t// in\n    tag_150:\n        /* \"#utility.yul\":1161:1290   */\n      swap2\n      swap1\n      pop\n      jump\t// out\n        /* \"#utility.yul\":1296:1604   */\n    tag_94:\n        /* \"#utility.yul\":1358:1362   */\n      0x00\n        /* \"#utility.yul\":1448:1466   */\n      0xffffffffffffffff\n        /* \"#utility.yul\":1440:1446   */\n      dup3\n        /* \"#utility.yul\":1437:1467   */\n      gt\n        /* \"#utility.yul\":1434:1490   */\n      iszero\n      tag_152\n      jumpi\n        /* \"#utility.yul\":1470:1488   */\n      tag_153\n      tag_91\n      jump\t// in\n    tag_153:\n        /* \"#utility.yul\":1434:1490   */\n    tag_152:\n        /* \"#utility.yul\":1508:1537   */\n      tag_154\n        /* \"#utility.yul\":1530:1536   */\n      dup3\n        /* \"#utility.yul\":1508:1537   */\n      tag_90\n      jump\t// in\n    tag_154:\n        /* \"#utility.yul\":1500:1537   */\n      swap1\n      pop\n        /* \"#utility.yul\":1592:1596   */\n      0x20\n        /* \"#utility.yul\":1586:1590   */\n      dup2\n        /* \"#utility.yul\":1582:1597   */\n      add\n        /* \"#utility.yul\":1574:1597   */\n      swap1\n      pop\n        /* \"#utility.yul\":1296:1604   */\n      swap2\n      swap1\n      pop\n      jump\t// out\n        /* \"#utility.yul\":1610:1758   */\n    tag_95:\n        /* \"#utility.yul\":1708:1714   */\n      dup3\n        /* \"#utility.yul\":1703:1706   */\n      dup2\n        /* \"#utility.yul\":1698:1701   */\n      dup4\n        /* \"#utility.yul\":1685:1715   */\n      calldatacopy\n        /* \"#utility.yul\":1749:1750   */\n      0x00\n        /* \"#utility.yul\":1740:1746   */\n      dup4\n        /* \"#utility.yul\":1735:1738   */\n      dup4\n        /* \"#utility.yul\":1731:1747   */\n      add\n        /* \"#utility.yul\":1724:1751   */\n      mstore\n        /* \"#utility.yul\":1610:1758   */\n      pop\n      pop\n      pop\n      jump\t// out\n        /* \"#utility.yul\":1764:2189   */\n    tag_96:\n        /* \"#utility.yul\":1842:1847   */\n      0x00\n        /* \"#utility.yul\":1867:1933   */\n      tag_157\n        /* \"#utility.yul\":1883:1932   */\n      tag_158\n        /* \"#utility.yul\":1925:1931   */\n      dup5\n        /* \"#utility.yul\":1883:1932   */\n      tag_94\n      jump\t// in\n    tag_158:\n        /* \"#utility.yul\":1867:1933   */\n      tag_93\n      jump\t// in\n    tag_157:\n        /* \"#utility.yul\":1858:1933   */\n      swap1\n      pop\n        /* \"#utility.yul\":1956:1962   */\n      dup3\n        /* \"#utility.yul\":1949:1954   */\n      dup2\n        /* \"#utility.yul\":1942:1963   */\n      mstore\n        /* \"#utility.yul\":1994:1998   */\n      0x20\n        /* \"#utility.yul\":1987:1992   */\n      dup2\n        /* \"#utility.yul\":1983:1999   */\n      add\n        /* \"#utility.yul\":2032:2035   */\n      dup5\n        /* \"#utility.yul\":2023:2029   */\n      dup5\n        /* \"#utility.yul\":2018:2021   */\n      dup5\n        /* \"#utility.yul\":2014:2030   */\n      add\n        /* \"#utility.yul\":2011:2036   */\n      gt\n        /* \"#utility.yul\":2008:2120   */\n      iszero\n      tag_159\n      jumpi\n        /* \"#utility.yul\":2039:2118   */\n      tag_160\n      tag_89\n      jump\t// in\n    tag_160:\n        /* \"#utility.yul\":2008:2120   */\n    tag_159:\n        /* \"#utility.yul\":2129:2183   */\n      tag_161\n        /* \"#utility.yul\":2176:2182   */\n      dup5\n        /* \"#utility.yul\":2171:2174   */\n      dup3\n        /* \"#utility.yul\":2166:2169   */\n      dup6\n        /* \"#utility.yul\":2129:2183   */\n      tag_95\n      jump\t// in\n    tag_161:\n        /* \"#utility.yul\":1848:2189   */\n      pop\n        /* \"#utility.yul\":1764:2189   */\n      swap4\n      swap3\n      pop\n      pop\n      pop\n      jump\t// out\n        /* \"#utility.yul\":2209:2549   */\n    tag_97:\n        /* \"#utility.yul\":2265:2270   */\n      0x00\n        /* \"#utility.yul\":2314:2317   */\n      dup3\n        /* \"#utility.yul\":2307:2311   */\n      0x1f\n        /* \"#utility.yul\":2299:2305   */\n      dup4\n        /* \"#utility.yul\":2295:2312   */\n      add\n        /* \"#utility.yul\":2291:2318   */\n      slt\n        /* \"#utility.yul\":2281:2403   */\n      tag_163\n      jumpi\n        /* \"#utility.yul\":2322:2401   */\n      tag_164\n      tag_88\n      jump\t// in\n    tag_164:\n        /* \"#utility.yul\":2281:2403   */\n    tag_163:\n        /* \"#utility.yul\":2439:2445   */\n      dup2\n        /* \"#utility.yul\":2426:2446   */\n      calldataload\n        /* \"#utility.yul\":2464:2543   */\n      tag_165\n        /* \"#utility.yul\":2539:2542   */\n      dup5\n        /* \"#utility.yul\":2531:2537   */\n      dup3\n        /* \"#utility.yul\":2524:2528   */\n      0x20\n        /* \"#utility.yul\":2516:2522   */\n      dup7\n        /* \"#utility.yul\":2512:2529   */\n      add\n        /* \"#utility.yul\":2464:2543   */\n      tag_96\n      jump\t// in\n    tag_165:\n        /* \"#utility.yul\":2455:2543   */\n      swap2\n      pop\n        /* \"#utility.yul\":2271:2549   */\n      pop\n        /* \"#utility.yul\":2209:2549   */\n      swap3\n      swap2\n      pop\n      pop\n      jump\t// out\n        /* \"#utility.yul\":2555:3389   */\n    tag_9:\n        /* \"#utility.yul\":2643:2649   */\n      0x00\n        /* \"#utility.yul\":2651:2657   */\n      0x00\n        /* \"#utility.yul\":2700:2702   */\n      0x40\n        /* \"#utility.yul\":2688:2697   */\n      dup4\n        /* \"#utility.yul\":2679:2686   */\n      dup6\n        /* \"#utility.yul\":2675:2698   */\n      sub\n        /* \"#utility.yul\":2671:2703   */\n      slt\n        /* \"#utility.yul\":2668:2787   */\n      iszero\n      tag_167\n      jumpi\n        /* \"#utility.yul\":2706:2785   */\n      tag_168\n      tag_86\n      jump\t// in\n    tag_168:\n        /* \"#utility.yul\":2668:2787   */\n    tag_167:\n        /* \"#utility.yul\":2854:2855   */\n      0x00\n        /* \"#utility.yul\":2843:2852   */\n      dup4\n        /* \"#utility.yul\":2839:2856   */\n      add\n        /* \"#utility.yul\":2826:2857   */\n      calldataload\n        /* \"#utility.yul\":2884:2902   */\n      0xffffffffffffffff\n        /* \"#utility.yul\":2876:2882   */\n      dup2\n        /* \"#utility.yul\":2873:2903   */\n      gt\n        /* \"#utility.yul\":2870:2987   */\n      iszero\n      tag_169\n      jumpi\n        /* \"#utility.yul\":2906:2985   */\n      tag_170\n      tag_87\n      jump\t// in\n    tag_170:\n        /* \"#utility.yul\":2870:2987   */\n    tag_169:\n        /* \"#utility.yul\":3011:3074   */\n      tag_171\n        /* \"#utility.yul\":3066:3073   */\n      dup6\n        /* \"#utility.yul\":3057:3063   */\n      dup3\n        /* \"#utility.yul\":3046:3055   */\n      dup7\n        /* \"#utility.yul\":3042:3064   */\n      add\n        /* \"#utility.yul\":3011:3074   */\n      tag_97\n      jump\t// in\n    tag_171:\n        /* \"#utility.yul\":3001:3074   */\n      swap3\n      pop\n        /* \"#utility.yul\":2797:3084   */\n      pop\n        /* \"#utility.yul\":3151:3153   */\n      0x20\n        /* \"#utility.yul\":3140:3149   */\n      dup4\n        /* \"#utility.yul\":3136:3154   */\n      add\n        /* \"#utility.yul\":3123:3155   */\n      calldataload\n        /* \"#utility.yul\":3182:3200   */\n      0xffffffffffffffff\n        /* \"#utility.yul\":3174:3180   */\n      dup2\n        /* \"#utility.yul\":3171:3201   */\n      gt\n        /* \"#utility.yul\":3168:3285   */\n      iszero\n      tag_172\n      jumpi\n        /* \"#utility.yul\":3204:3283   */\n      tag_173\n      tag_87\n      jump\t// in\n    tag_173:\n        /* \"#utility.yul\":3168:3285   */\n    tag_172:\n        /* \"#utility.yul\":3309:3372   */\n      tag_174\n        /* \"#utility.yul\":3364:3371   */\n      dup6\n        /* \"#utility.yul\":3355:3361   */\n      dup3\n        /* \"#utility.yul\":3344:3353   */\n      dup7\n        /* \"#utility.yul\":3340:3362   */\n      add\n        /* \"#utility.yul\":3309:3372   */\n      tag_97\n      jump\t// in\n    tag_174:\n        /* \"#utility.yul\":3299:3372   */\n      swap2\n      pop\n        /* \"#utility.yul\":3094:3382   */\n      pop\n        /* \"#utility.yul\":2555:3389   */\n      swap3\n      pop\n      swap3\n      swap1\n      pop\n      jump\t// out\n        /* \"#utility.yul\":3395:3472   */\n    tag_98:\n        /* \"#utility.yul\":3432:3439   */\n      0x00\n        /* \"#utility.yul\":3461:3466   */\n      dup2\n        /* \"#utility.yul\":3450:3466   */\n      swap1\n      pop\n        /* \"#utility.yul\":3395:3472   */\n      swap2\n      swap1\n      pop\n      jump\t// out\n        /* \"#utility.yul\":3478:3600   */\n    tag_99:\n        /* \"#utility.yul\":3551:3575   */\n      tag_177\n        /* \"#utility.yul\":3569:3574   */\n      dup2\n        /* \"#utility.yul\":3551:3575   */\n      tag_98\n      jump\t// in\n    tag_177:\n        /* \"#utility.yul\":3544:3549   */\n      dup2\n        /* \"#utility.yul\":3541:3576   */\n      eq\n        /* \"#utility.yul\":3531:3594   */\n      tag_178\n      jumpi\n        /* \"#utility.yul\":3590:3591   */\n      0x00\n        /* \"#utility.yul\":3587:3588   */\n      0x00\n        /* \"#utility.yul\":3580:3592   */\n      revert\n        /* \"#utility.yul\":3531:3594   */\n    tag_178:\n        /* \"#utility.yul\":3478:3600   */\n      pop\n      jump\t// out\n        /* \"#utility.yul\":3606:3745   */\n    tag_100:\n        /* \"#utility.yul\":3652:3657   */\n      0x00\n        /* \"#utility.yul\":3690:3696   */\n      dup2\n        /* \"#utility.yul\":3677:3697   */\n      calldataload\n        /* \"#utility.yul\":3668:3697   */\n      swap1\n      pop\n        /* \"#utility.yul\":3706:3739   */\n      tag_180\n        /* \"#utility.yul\":3733:3738   */\n      dup2\n        /* \"#utility.yul\":3706:3739   */\n      tag_99\n      jump\t// in\n    tag_180:\n        /* \"#utility.yul\":3606:3745   */\n      swap3\n      swap2\n      pop\n      pop\n      jump\t// out\n        /* \"#utility.yul\":3751:5056   */\n    tag_13:\n        /* \"#utility.yul\":3867:3873   */\n      0x00\n        /* \"#utility.yul\":3875:3881   */\n      0x00\n        /* \"#utility.yul\":3883:3889   */\n      0x00\n        /* \"#utility.yul\":3891:3897   */\n      0x00\n        /* \"#utility.yul\":3940:3943   */\n      0x80\n        /* \"#utility.yul\":3928:3937   */\n      dup6\n        /* \"#utility.yul\":3919:3926   */\n      dup8\n        /* \"#utility.yul\":3915:3938   */\n      sub\n        /* \"#utility.yul\":3911:3944   */\n      slt\n        /* \"#utility.yul\":3908:4028   */\n      iszero\n      tag_182\n      jumpi\n        /* \"#utility.yul\":3947:4026   */\n      tag_183\n      tag_86\n      jump\t// in\n    tag_183:\n        /* \"#utility.yul\":3908:4028   */\n    tag_182:\n        /* \"#utility.yul\":4067:4068   */\n      0x00\n        /* \"#utility.yul\":4092:4145   */\n      tag_184\n        /* \"#utility.yul\":4137:4144   */\n      dup8\n        /* \"#utility.yul\":4128:4134   */\n      dup3\n        /* \"#utility.yul\":4117:4126   */\n      dup9\n        /* \"#utility.yul\":4113:4135   */\n      add\n        /* \"#utility.yul\":4092:4145   */\n      tag_100\n      jump\t// in\n    tag_184:\n        /* \"#utility.yul\":4082:4145   */\n      swap5\n      pop\n        /* \"#utility.yul\":4038:4155   */\n      pop\n        /* \"#utility.yul\":4222:4224   */\n      0x20\n        /* \"#utility.yul\":4211:4220   */\n      dup6\n        /* \"#utility.yul\":4207:4225   */\n      add\n        /* \"#utility.yul\":4194:4226   */\n      calldataload\n        /* \"#utility.yul\":4253:4271   */\n      0xffffffffffffffff\n        /* \"#utility.yul\":4245:4251   */\n      dup2\n        /* \"#utility.yul\":4242:4272   */\n      gt\n        /* \"#utility.yul\":4239:4356   */\n      iszero\n      tag_185\n      jumpi\n        /* \"#utility.yul\":4275:4354   */\n      tag_186\n      tag_87\n      jump\t// in\n    tag_186:\n        /* \"#utility.yul\":4239:4356   */\n    tag_185:\n        /* \"#utility.yul\":4380:4443   */\n      tag_187\n        /* \"#utility.yul\":4435:4442   */\n      dup8\n        /* \"#utility.yul\":4426:4432   */\n      dup3\n        /* \"#utility.yul\":4415:4424   */\n      dup9\n        /* \"#utility.yul\":4411:4433   */\n      add\n        /* \"#utility.yul\":4380:4443   */\n      tag_97\n      jump\t// in\n    tag_187:\n        /* \"#utility.yul\":4370:4443   */\n      swap4\n      pop\n        /* \"#utility.yul\":4165:4453   */\n      pop\n        /* \"#utility.yul\":4520:4522   */\n      0x40\n        /* \"#utility.yul\":4509:4518   */\n      dup6\n        /* \"#utility.yul\":4505:4523   */\n      add\n        /* \"#utility.yul\":4492:4524   */\n      calldataload\n        /* \"#utility.yul\":4551:4569   */\n      0xffffffffffffffff\n        /* \"#utility.yul\":4543:4549   */\n      dup2\n        /* \"#utility.yul\":4540:4570   */\n      gt\n        /* \"#utility.yul\":4537:4654   */\n      iszero\n      tag_188\n      jumpi\n        /* \"#utility.yul\":4573:4652   */\n      tag_189\n      tag_87\n      jump\t// in\n    tag_189:\n        /* \"#utility.yul\":4537:4654   */\n    tag_188:\n        /* \"#utility.yul\":4678:4741   */\n      tag_190\n        /* \"#utility.yul\":4733:4740   */\n      dup8\n        /* \"#utility.yul\":4724:4730   */\n      dup3\n        /* \"#utility.yul\":4713:4722   */\n      dup9\n        /* \"#utility.yul\":4709:4731   */\n      add\n        /* \"#utility.yul\":4678:4741   */\n      tag_97\n      jump\t// in\n    tag_190:\n        /* \"#utility.yul\":4668:4741   */\n      swap3\n      pop\n        /* \"#utility.yul\":4463:4751   */\n      pop\n        /* \"#utility.yul\":4818:4820   */\n      0x60\n        /* \"#utility.yul\":4807:4816   */\n      dup6\n        /* \"#utility.yul\":4803:4821   */\n      add\n        /* \"#utility.yul\":4790:4822   */\n      calldataload\n        /* \"#utility.yul\":4849:4867   */\n      0xffffffffffffffff\n        /* \"#utility.yul\":4841:4847   */\n      dup2\n        /* \"#utility.yul\":4838:4868   */\n      gt\n        /* \"#utility.yul\":4835:4952   */\n      iszero\n      tag_191\n      jumpi\n        /* \"#utility.yul\":4871:4950   */\n      tag_192\n      tag_87\n      jump\t// in\n    tag_192:\n        /* \"#utility.yul\":4835:4952   */\n    tag_191:\n        /* \"#utility.yul\":4976:5039   */\n      tag_193\n        /* \"#utility.yul\":5031:5038   */\n      dup8\n        /* \"#utility.yul\":5022:5028   */\n      dup3\n        /* \"#utility.yul\":5011:5020   */\n      dup9\n        /* \"#utility.yul\":5007:5029   */\n      add\n        /* \"#utility.yul\":4976:5039   */\n      tag_97\n      jump\t// in\n    tag_193:\n        /* \"#utility.yul\":4966:5039   */\n      swap2\n      pop\n        /* \"#utility.yul\":4761:5049   */\n      pop\n        /* \"#utility.yul\":3751:5056   */\n      swap3\n      swap6\n      swap2\n      swap5\n      pop\n      swap3\n      pop\n      jump\t// out\n        /* \"#utility.yul\":5062:5391   */\n    tag_17:\n        /* \"#utility.yul\":5121:5127   */\n      0x00\n        /* \"#utility.yul\":5170:5172   */\n      0x20\n        /* \"#utility.yul\":5158:5167   */\n      dup3\n        /* \"#utility.yul\":5149:5156   */\n      dup5\n        /* \"#utility.yul\":5145:5168   */\n      sub\n        /* \"#utility.yul\":5141:5173   */\n      slt\n        /* \"#utility.yul\":5138:5257   */\n      iszero\n      tag_195\n      jumpi\n        /* \"#utility.yul\":5176:5255   */\n      tag_196\n      tag_86\n      jump\t// in\n    tag_196:\n        /* \"#utility.yul\":5138:5257   */\n    tag_195:\n        /* \"#utility.yul\":5296:5297   */\n      0x00\n        /* \"#utility.yul\":5321:5374   */\n      tag_197\n        /* \"#utility.yul\":5366:5373   */\n      dup5\n        /* \"#utility.yul\":5357:5363   */\n      dup3\n        /* \"#utility.yul\":5346:5355   */\n      dup6\n        /* \"#utility.yul\":5342:5364   */\n      add\n        /* \"#utility.yul\":5321:5374   */\n      tag_100\n      jump\t// in\n    tag_197:\n        /* \"#utility.yul\":5311:5374   */\n      swap2\n      pop\n        /* \"#utility.yul\":5267:5384   */\n      pop\n        /* \"#utility.yul\":5062:5391   */\n      swap3\n      swap2\n      pop\n      pop\n      jump\t// out\n        /* \"#utility.yul\":5397:5515   */\n    tag_101:\n        /* \"#utility.yul\":5484:5508   */\n      tag_199\n        /* \"#utility.yul\":5502:5507   */\n      dup2\n        /* \"#utility.yul\":5484:5508   */\n      tag_98\n      jump\t// in\n    tag_199:\n        /* \"#utility.yul\":5479:5482   */\n      dup3\n        /* \"#utility.yul\":5472:5509   */\n      mstore\n        /* \"#utility.yul\":5397:5515   */\n      pop\n      pop\n      jump\t// out\n        /* \"#utility.yul\":5521:5620   */\n    tag_102:\n        /* \"#utility.yul\":5573:5579   */\n      0x00\n        /* \"#utility.yul\":5607:5612   */\n      dup2\n        /* \"#utility.yul\":5601:5613   */\n      mload\n        /* \"#utility.yul\":5591:5613   */\n      swap1\n      pop\n        /* \"#utility.yul\":5521:5620   */\n      swap2\n      swap1\n      pop\n      jump\t// out\n        /* \"#utility.yul\":5626:5795   */\n    tag_103:\n        /* \"#utility.yul\":5710:5721   */\n      0x00\n        /* \"#utility.yul\":5744:5750   */\n      dup3\n        /* \"#utility.yul\":5739:5742   */\n      dup3\n        /* \"#utility.yul\":5732:5751   */\n      mstore\n        /* \"#utility.yul\":5784:5788   */\n      0x20\n        /* \"#utility.yul\":5779:5782   */\n      dup3\n        /* \"#utility.yul\":5775:5789   */\n      add\n        /* \"#utility.yul\":5760:5789   */\n      swap1\n      pop\n        /* \"#utility.yul\":5626:5795   */\n      swap3\n      swap2\n      pop\n      pop\n      jump\t// out\n        /* \"#utility.yul\":5801:5940   */\n    tag_104:\n        /* \"#utility.yul\":5890:5896   */\n      dup3\n        /* \"#utility.yul\":5885:5888   */\n      dup2\n        /* \"#utility.yul\":5880:5883   */\n      dup4\n        /* \"#utility.yul\":5874:5897   */\n      mcopy\n        /* \"#utility.yul\":5931:5932   */\n      0x00\n        /* \"#utility.yul\":5922:5928   */\n      dup4\n        /* \"#utility.yul\":5917:5920   */\n      dup4\n        /* \"#utility.yul\":5913:5929   */\n      add\n        /* \"#utility.yul\":5906:5933   */\n      mstore\n        /* \"#utility.yul\":5801:5940   */\n      pop\n      pop\n      pop\n      jump\t// out\n        /* \"#utility.yul\":5946:6323   */\n    tag_105:\n        /* \"#utility.yul\":6034:6037   */\n      0x00\n        /* \"#utility.yul\":6062:6101   */\n      tag_204\n        /* \"#utility.yul\":6095:6100   */\n      dup3\n        /* \"#utility.yul\":6062:6101   */\n      tag_102\n      jump\t// in\n    tag_204:\n        /* \"#utility.yul\":6117:6188   */\n      tag_205\n        /* \"#utility.yul\":6181:6187   */\n      dup2\n        /* \"#utility.yul\":6176:6179   */\n      dup6\n        /* \"#utility.yul\":6117:6188   */\n      tag_103\n      jump\t// in\n    tag_205:\n        /* \"#utility.yul\":6110:6188   */\n      swap4\n      pop\n        /* \"#utility.yul\":6197:6262   */\n      tag_206\n        /* \"#utility.yul\":6255:6261   */\n      dup2\n        /* \"#utility.yul\":6250:6253   */\n      dup6\n        /* \"#utility.yul\":6243:6247   */\n      0x20\n        /* \"#utility.yul\":6236:6241   */\n      dup7\n        /* \"#utility.yul\":6232:6248   */\n      add\n        /* \"#utility.yul\":6197:6262   */\n      tag_104\n      jump\t// in\n    tag_206:\n        /* \"#utility.yul\":6287:6316   */\n      tag_207\n        /* \"#utility.yul\":6309:6315   */\n      dup2\n        /* \"#utility.yul\":6287:6316   */\n      tag_90\n      jump\t// in\n    tag_207:\n        /* \"#utility.yul\":6282:6285   */\n      dup5\n        /* \"#utility.yul\":6278:6317   */\n      add\n        /* \"#utility.yul\":6271:6317   */\n      swap2\n      pop\n        /* \"#utility.yul\":6038:6323   */\n      pop\n        /* \"#utility.yul\":5946:6323   */\n      swap3\n      swap2\n      pop\n      pop\n      jump\t// out\n        /* \"#utility.yul\":6329:6455   */\n    tag_106:\n        /* \"#utility.yul\":6366:6373   */\n      0x00\n        /* \"#utility.yul\":6406:6448   */\n      0xffffffffffffffffffffffffffffffffffffffff\n        /* \"#utility.yul\":6399:6404   */\n      dup3\n        /* \"#utility.yul\":6395:6449   */\n      and\n        /* \"#utility.yul\":6384:6449   */\n      swap1\n      pop\n        /* \"#utility.yul\":6329:6455   */\n      swap2\n      swap1\n      pop\n      jump\t// out\n        /* \"#utility.yul\":6461:6557   */\n    tag_107:\n        /* \"#utility.yul\":6498:6505   */\n      0x00\n        /* \"#utility.yul\":6527:6551   */\n      tag_210\n        /* \"#utility.yul\":6545:6550   */\n      dup3\n        /* \"#utility.yul\":6527:6551   */\n      tag_106\n      jump\t// in\n    tag_210:\n        /* \"#utility.yul\":6516:6551   */\n      swap1\n      pop\n        /* \"#utility.yul\":6461:6557   */\n      swap2\n      swap1\n      pop\n      jump\t// out\n        /* \"#utility.yul\":6563:6681   */\n    tag_108:\n        /* \"#utility.yul\":6650:6674   */\n      tag_212\n        /* \"#utility.yul\":6668:6673   */\n      dup2\n        /* \"#utility.yul\":6650:6674   */\n      tag_107\n      jump\t// in\n    tag_212:\n        /* \"#utility.yul\":6645:6648   */\n      dup3\n        /* \"#utility.yul\":6638:6675   */\n      mstore\n        /* \"#utility.yul\":6563:6681   */\n      pop\n      pop\n      jump\t// out\n        /* \"#utility.yul\":6687:6747   */\n    tag_109:\n        /* \"#utility.yul\":6715:6718   */\n      0x00\n        /* \"#utility.yul\":6736:6741   */\n      dup2\n        /* \"#utility.yul\":6729:6741   */\n      swap1\n      pop\n        /* \"#utility.yul\":6687:6747   */\n      swap2\n      swap1\n      pop\n      jump\t// out\n        /* \"#utility.yul\":6753:6895   */\n    tag_110:\n        /* \"#utility.yul\":6803:6812   */\n      0x00\n        /* \"#utility.yul\":6836:6889   */\n      tag_215\n        /* \"#utility.yul\":6854:6888   */\n      tag_216\n        /* \"#utility.yul\":6863:6887   */\n      tag_217\n        /* \"#utility.yul\":6881:6886   */\n      dup5\n        /* \"#utility.yul\":6863:6887   */\n      tag_106\n      jump\t// in\n    tag_217:\n        /* \"#utility.yul\":6854:6888   */\n      tag_109\n      jump\t// in\n    tag_216:\n        /* \"#utility.yul\":6836:6889   */\n      tag_106\n      jump\t// in\n    tag_215:\n        /* \"#utility.yul\":6823:6889   */\n      swap1\n      pop\n        /* \"#utility.yul\":6753:6895   */\n      swap2\n      swap1\n      pop\n      jump\t// out\n        /* \"#utility.yul\":6901:7027   */\n    tag_111:\n        /* \"#utility.yul\":6951:6960   */\n      0x00\n        /* \"#utility.yul\":6984:7021   */\n      tag_219\n        /* \"#utility.yul\":7015:7020   */\n      dup3\n        /* \"#utility.yul\":6984:7021   */\n      tag_110\n      jump\t// in\n    tag_219:\n        /* \"#utility.yul\":6971:7021   */\n      swap1\n      pop\n        /* \"#utility.yul\":6901:7027   */\n      swap2\n      swap1\n      pop\n      jump\t// out\n        /* \"#utility.yul\":7033:7178   */\n    tag_112:\n        /* \"#utility.yul\":7102:7111   */\n      0x00\n        /* \"#utility.yul\":7135:7172   */\n      tag_221\n        /* \"#utility.yul\":7166:7171   */\n      dup3\n        /* \"#utility.yul\":7135:7172   */\n      tag_111\n      jump\t// in\n    tag_221:\n        /* \"#utility.yul\":7122:7172   */\n      swap1\n      pop\n        /* \"#utility.yul\":7033:7178   */\n      swap2\n      swap1\n      pop\n      jump\t// out\n        /* \"#utility.yul\":7184:7353   */\n    tag_113:\n        /* \"#utility.yul\":7290:7346   */\n      tag_223\n        /* \"#utility.yul\":7340:7345   */\n      dup2\n        /* \"#utility.yul\":7290:7346   */\n      tag_112\n      jump\t// in\n    tag_223:\n        /* \"#utility.yul\":7285:7288   */\n      dup3\n        /* \"#utility.yul\":7278:7347   */\n      mstore\n        /* \"#utility.yul\":7184:7353   */\n      pop\n      pop\n      jump\t// out\n        /* \"#utility.yul\":7359:7507   */\n    tag_114:\n        /* \"#utility.yul\":7431:7440   */\n      0x00\n        /* \"#utility.yul\":7464:7501   */\n      tag_225\n        /* \"#utility.yul\":7495:7500   */\n      dup3\n        /* \"#utility.yul\":7464:7501   */\n      tag_111\n      jump\t// in\n    tag_225:\n        /* \"#utility.yul\":7451:7501   */\n      swap1\n      pop\n        /* \"#utility.yul\":7359:7507   */\n      swap2\n      swap1\n      pop\n      jump\t// out\n        /* \"#utility.yul\":7513:7688   */\n    tag_115:\n        /* \"#utility.yul\":7622:7681   */\n      tag_227\n        /* \"#utility.yul\":7675:7680   */\n      dup2\n        /* \"#utility.yul\":7622:7681   */\n      tag_114\n      jump\t// in\n    tag_227:\n        /* \"#utility.yul\":7617:7620   */\n      dup3\n        /* \"#utility.yul\":7610:7682   */\n      mstore\n        /* \"#utility.yul\":7513:7688   */\n      pop\n      pop\n      jump\t// out\n        /* \"#utility.yul\":7694:8733   */\n    tag_20:\n        /* \"#utility.yul\":8008:8012   */\n      0x00\n        /* \"#utility.yul\":8046:8049   */\n      0xc0\n        /* \"#utility.yul\":8035:8044   */\n      dup3\n        /* \"#utility.yul\":8031:8050   */\n      add\n        /* \"#utility.yul\":8023:8050   */\n      swap1\n      pop\n        /* \"#utility.yul\":8060:8131   */\n      tag_229\n        /* \"#utility.yul\":8128:8129   */\n      0x00\n        /* \"#utility.yul\":8117:8126   */\n      dup4\n        /* \"#utility.yul\":8113:8130   */\n      add\n        /* \"#utility.yul\":8104:8110   */\n      dup10\n        /* \"#utility.yul\":8060:8131   */\n      tag_101\n      jump\t// in\n    tag_229:\n        /* \"#utility.yul\":8178:8187   */\n      dup2\n        /* \"#utility.yul\":8172:8176   */\n      dup2\n        /* \"#utility.yul\":8168:8188   */\n      sub\n        /* \"#utility.yul\":8163:8165   */\n      0x20\n        /* \"#utility.yul\":8152:8161   */\n      dup4\n        /* \"#utility.yul\":8148:8166   */\n      add\n        /* \"#utility.yul\":8141:8189   */\n      mstore\n        /* \"#utility.yul\":8206:8284   */\n      tag_230\n        /* \"#utility.yul\":8279:8283   */\n      dup2\n        /* \"#utility.yul\":8270:8276   */\n      dup9\n        /* \"#utility.yul\":8206:8284   */\n      tag_105\n      jump\t// in\n    tag_230:\n        /* \"#utility.yul\":8198:8284   */\n      swap1\n      pop\n        /* \"#utility.yul\":8331:8340   */\n      dup2\n        /* \"#utility.yul\":8325:8329   */\n      dup2\n        /* \"#utility.yul\":8321:8341   */\n      sub\n        /* \"#utility.yul\":8316:8318   */\n      0x40\n        /* \"#utility.yul\":8305:8314   */\n      dup4\n        /* \"#utility.yul\":8301:8319   */\n      add\n        /* \"#utility.yul\":8294:8342   */\n      mstore\n        /* \"#utility.yul\":8359:8437   */\n      tag_231\n        /* \"#utility.yul\":8432:8436   */\n      dup2\n        /* \"#utility.yul\":8423:8429   */\n      dup8\n        /* \"#utility.yul\":8359:8437   */\n      tag_105\n      jump\t// in\n    tag_231:\n        /* \"#utility.yul\":8351:8437   */\n      swap1\n      pop\n        /* \"#utility.yul\":8447:8519   */\n      tag_232\n        /* \"#utility.yul\":8515:8517   */\n      0x60\n        /* \"#utility.yul\":8504:8513   */\n      dup4\n        /* \"#utility.yul\":8500:8518   */\n      add\n        /* \"#utility.yul\":8491:8497   */\n      dup7\n        /* \"#utility.yul\":8447:8519   */\n      tag_108\n      jump\t// in\n    tag_232:\n        /* \"#utility.yul\":8529:8621   */\n      tag_233\n        /* \"#utility.yul\":8616:8619   */\n      0x80\n        /* \"#utility.yul\":8605:8614   */\n      dup4\n        /* \"#utility.yul\":8601:8620   */\n      add\n        /* \"#utility.yul\":8592:8598   */\n      dup6\n        /* \"#utility.yul\":8529:8621   */\n      tag_113\n      jump\t// in\n    tag_233:\n        /* \"#utility.yul\":8631:8726   */\n      tag_234\n        /* \"#utility.yul\":8721:8724   */\n      0xa0\n        /* \"#utility.yul\":8710:8719   */\n      dup4\n        /* \"#utility.yul\":8706:8725   */\n      add\n        /* \"#utility.yul\":8697:8703   */\n      dup5\n        /* \"#utility.yul\":8631:8726   */\n      tag_115\n      jump\t// in\n    tag_234:\n        /* \"#utility.yul\":7694:8733   */\n      swap8\n      swap7\n      pop\n      pop\n      pop\n      pop\n      pop\n      pop\n      pop\n      jump\t// out\n        /* \"#utility.yul\":8739:8861   */\n    tag_116:\n        /* \"#utility.yul\":8812:8836   */\n      tag_236\n        /* \"#utility.yul\":8830:8835   */\n      dup2\n        /* \"#utility.yul\":8812:8836   */\n      tag_107\n      jump\t// in\n    tag_236:\n        /* \"#utility.yul\":8805:8810   */\n      dup2\n        /* \"#utility.yul\":8802:8837   */\n      eq\n        /* \"#utility.yul\":8792:8855   */\n      tag_237\n      jumpi\n        /* \"#utility.yul\":8851:8852   */\n      0x00\n        /* \"#utility.yul\":8848:8849   */\n      0x00\n        /* \"#utility.yul\":8841:8853   */\n      revert\n        /* \"#utility.yul\":8792:8855   */\n    tag_237:\n        /* \"#utility.yul\":8739:8861   */\n      pop\n      jump\t// out\n        /* \"#utility.yul\":8867:9006   */\n    tag_117:\n        /* \"#utility.yul\":8913:8918   */\n      0x00\n        /* \"#utility.yul\":8951:8957   */\n      dup2\n        /* \"#utility.yul\":8938:8958   */\n      calldataload\n        /* \"#utility.yul\":8929:8958   */\n      swap1\n      pop\n        /* \"#utility.yul\":8967:9000   */\n      tag_239\n        /* \"#utility.yul\":8994:8999   */\n      dup2\n        /* \"#utility.yul\":8967:9000   */\n      tag_116\n      jump\t// in\n    tag_239:\n        /* \"#utility.yul\":8867:9006   */\n      swap3\n      swap2\n      pop\n      pop\n      jump\t// out\n        /* \"#utility.yul\":9012:9957   */\n    tag_23:\n        /* \"#utility.yul\":9108:9114   */\n      0x00\n        /* \"#utility.yul\":9116:9122   */\n      0x00\n        /* \"#utility.yul\":9124:9130   */\n      0x00\n        /* \"#utility.yul\":9132:9138   */\n      0x00\n        /* \"#utility.yul\":9181:9184   */\n      0x80\n        /* \"#utility.yul\":9169:9178   */\n      dup6\n        /* \"#utility.yul\":9160:9167   */\n      dup8\n        /* \"#utility.yul\":9156:9179   */\n      sub\n        /* \"#utility.yul\":9152:9185   */\n      slt\n        /* \"#utility.yul\":9149:9269   */\n      iszero\n      tag_241\n      jumpi\n        /* \"#utility.yul\":9188:9267   */\n      tag_242\n      tag_86\n      jump\t// in\n    tag_242:\n        /* \"#utility.yul\":9149:9269   */\n    tag_241:\n        /* \"#utility.yul\":9308:9309   */\n      0x00\n        /* \"#utility.yul\":9333:9386   */\n      tag_243\n        /* \"#utility.yul\":9378:9385   */\n      dup8\n        /* \"#utility.yul\":9369:9375   */\n      dup3\n        /* \"#utility.yul\":9358:9367   */\n      dup9\n        /* \"#utility.yul\":9354:9376   */\n      add\n        /* \"#utility.yul\":9333:9386   */\n      tag_100\n      jump\t// in\n    tag_243:\n        /* \"#utility.yul\":9323:9386   */\n      swap5\n      pop\n        /* \"#utility.yul\":9279:9396   */\n      pop\n        /* \"#utility.yul\":9463:9465   */\n      0x20\n        /* \"#utility.yul\":9452:9461   */\n      dup6\n        /* \"#utility.yul\":9448:9466   */\n      add\n        /* \"#utility.yul\":9435:9467   */\n      calldataload\n        /* \"#utility.yul\":9494:9512   */\n      0xffffffffffffffff\n        /* \"#utility.yul\":9486:9492   */\n      dup2\n        /* \"#utility.yul\":9483:9513   */\n      gt\n        /* \"#utility.yul\":9480:9597   */\n      iszero\n      tag_244\n      jumpi\n        /* \"#utility.yul\":9516:9595   */\n      tag_245\n      tag_87\n      jump\t// in\n    tag_245:\n        /* \"#utility.yul\":9480:9597   */\n    tag_244:\n        /* \"#utility.yul\":9621:9684   */\n      tag_246\n        /* \"#utility.yul\":9676:9683   */\n      dup8\n        /* \"#utility.yul\":9667:9673   */\n      dup3\n        /* \"#utility.yul\":9656:9665   */\n      dup9\n        /* \"#utility.yul\":9652:9674   */\n      add\n        /* \"#utility.yul\":9621:9684   */\n      tag_97\n      jump\t// in\n    tag_246:\n        /* \"#utility.yul\":9611:9684   */\n      swap4\n      pop\n        /* \"#utility.yul\":9406:9694   */\n      pop\n        /* \"#utility.yul\":9733:9735   */\n      0x40\n        /* \"#utility.yul\":9759:9812   */\n      tag_247\n        /* \"#utility.yul\":9804:9811   */\n      dup8\n        /* \"#utility.yul\":9795:9801   */\n      dup3\n        /* \"#utility.yul\":9784:9793   */\n      dup9\n        /* \"#utility.yul\":9780:9802   */\n      add\n        /* \"#utility.yul\":9759:9812   */\n      tag_100\n      jump\t// in\n    tag_247:\n        /* \"#utility.yul\":9749:9812   */\n      swap3\n      pop\n        /* \"#utility.yul\":9704:9822   */\n      pop\n        /* \"#utility.yul\":9861:9863   */\n      0x60\n        /* \"#utility.yul\":9887:9940   */\n      tag_248\n        /* \"#utility.yul\":9932:9939   */\n      dup8\n        /* \"#utility.yul\":9923:9929   */\n      dup3\n        /* \"#utility.yul\":9912:9921   */\n      dup9\n        /* \"#utility.yul\":9908:9930   */\n      add\n        /* \"#utility.yul\":9887:9940   */\n      tag_117\n      jump\t// in\n    tag_248:\n        /* \"#utility.yul\":9877:9940   */\n      swap2\n      pop\n        /* \"#utility.yul\":9832:9950   */\n      pop\n        /* \"#utility.yul\":9012:9957   */\n      swap3\n      swap6\n      swap2\n      swap5\n      pop\n      swap3\n      pop\n      jump\t// out\n        /* \"#utility.yul\":9963:10143   */\n    tag_118:\n        /* \"#utility.yul\":10011:10088   */\n      0x4e487b7100000000000000000000000000000000000000000000000000000000\n        /* \"#utility.yul\":10008:10009   */\n      0x00\n        /* \"#utility.yul\":10001:10089   */\n      mstore\n        /* \"#utility.yul\":10108:10112   */\n      0x11\n        /* \"#utility.yul\":10105:10106   */\n      0x04\n        /* \"#utility.yul\":10098:10113   */\n      mstore\n        /* \"#utility.yul\":10132:10136   */\n      0x24\n        /* \"#utility.yul\":10129:10130   */\n      0x00\n        /* \"#utility.yul\":10122:10137   */\n      revert\n        /* \"#utility.yul\":10149:10340   */\n    tag_33:\n        /* \"#utility.yul\":10189:10192   */\n      0x00\n        /* \"#utility.yul\":10208:10228   */\n      tag_251\n        /* \"#utility.yul\":10226:10227   */\n      dup3\n        /* \"#utility.yul\":10208:10228   */\n      tag_98\n      jump\t// in\n    tag_251:\n        /* \"#utility.yul\":10203:10228   */\n      swap2\n      pop\n        /* \"#utility.yul\":10242:10262   */\n      tag_252\n        /* \"#utility.yul\":10260:10261   */\n      dup4\n        /* \"#utility.yul\":10242:10262   */\n      tag_98\n      jump\t// in\n    tag_252:\n        /* \"#utility.yul\":10237:10262   */\n      swap3\n      pop\n        /* \"#utility.yul\":10285:10286   */\n      dup3\n        /* \"#utility.yul\":10282:10283   */\n      dup3\n        /* \"#utility.yul\":10278:10287   */\n      add\n        /* \"#utility.yul\":10271:10287   */\n      swap1\n      pop\n        /* \"#utility.yul\":10306:10309   */\n      dup1\n        /* \"#utility.yul\":10303:10304   */\n      dup3\n        /* \"#utility.yul\":10300:10310   */\n      gt\n        /* \"#utility.yul\":10297:10333   */\n      iszero\n      tag_253\n      jumpi\n        /* \"#utility.yul\":10313:10331   */\n      tag_254\n      tag_118\n      jump\t// in\n    tag_254:\n        /* \"#utility.yul\":10297:10333   */\n    tag_253:\n        /* \"#utility.yul\":10149:10340   */\n      swap3\n      swap2\n      pop\n      pop\n      jump\t// out\n        /* \"#utility.yul\":10346:10526   */\n    tag_119:\n        /* \"#utility.yul\":10394:10471   */\n      0x4e487b7100000000000000000000000000000000000000000000000000000000\n        /* \"#utility.yul\":10391:10392   */\n      0x00\n        /* \"#utility.yul\":10384:10472   */\n      mstore\n        /* \"#utility.yul\":10491:10495   */\n      0x22\n        /* \"#utility.yul\":10488:10489   */\n      0x04\n        /* \"#utility.yul\":10481:10496   */\n      mstore\n        /* \"#utility.yul\":10515:10519   */\n      0x24\n        /* \"#utility.yul\":10512:10513   */\n      0x00\n        /* \"#utility.yul\":10505:10520   */\n      revert\n        /* \"#utility.yul\":10532:10852   */\n    tag_49:\n        /* \"#utility.yul\":10576:10582   */\n      0x00\n        /* \"#utility.yul\":10613:10614   */\n      0x02\n        /* \"#utility.yul\":10607:10611   */\n      dup3\n        /* \"#utility.yul\":10603:10615   */\n      div\n        /* \"#utility.yul\":10593:10615   */\n      swap1\n      pop\n        /* \"#utility.yul\":10660:10661   */\n      0x01\n        /* \"#utility.yul\":10654:10658   */\n      dup3\n        /* \"#utility.yul\":10650:10662   */\n      and\n        /* \"#utility.yul\":10681:10699   */\n      dup1\n        /* \"#utility.yul\":10671:10752   */\n      tag_257\n      jumpi\n        /* \"#utility.yul\":10737:10741   */\n      0x7f\n        /* \"#utility.yul\":10729:10735   */\n      dup3\n        /* \"#utility.yul\":10725:10742   */\n      and\n        /* \"#utility.yul\":10715:10742   */\n      swap2\n      pop\n        /* \"#utility.yul\":10671:10752   */\n    tag_257:\n        /* \"#utility.yul\":10799:10801   */\n      0x20\n        /* \"#utility.yul\":10791:10797   */\n      dup3\n        /* \"#utility.yul\":10788:10802   */\n      lt\n        /* \"#utility.yul\":10768:10786   */\n      dup2\n        /* \"#utility.yul\":10765:10803   */\n      sub\n        /* \"#utility.yul\":10762:10846   */\n      tag_258\n      jumpi\n        /* \"#utility.yul\":10818:10836   */\n      tag_259\n      tag_119\n      jump\t// in\n    tag_259:\n        /* \"#utility.yul\":10762:10846   */\n    tag_258:\n        /* \"#utility.yul\":10583:10852   */\n      pop\n        /* \"#utility.yul\":10532:10852   */\n      swap2\n      swap1\n      pop\n      jump\t// out\n        /* \"#utility.yul\":10858:10999   */\n    tag_120:\n        /* \"#utility.yul\":10907:10911   */\n      0x00\n        /* \"#utility.yul\":10930:10933   */\n      dup2\n        /* \"#utility.yul\":10922:10933   */\n      swap1\n      pop\n        /* \"#utility.yul\":10953:10956   */\n      dup2\n        /* \"#utility.yul\":10950:10951   */\n      0x00\n        /* \"#utility.yul\":10943:10957   */\n      mstore\n        /* \"#utility.yul\":10987:10991   */\n      0x20\n        /* \"#utility.yul\":10984:10985   */\n      0x00\n        /* \"#utility.yul\":10974:10992   */\n      keccak256\n        /* \"#utility.yul\":10966:10992   */\n      swap1\n      pop\n        /* \"#utility.yul\":10858:10999   */\n      swap2\n      swap1\n      pop\n      jump\t// out\n        /* \"#utility.yul\":11005:11098   */\n    tag_121:\n        /* \"#utility.yul\":11042:11048   */\n      0x00\n        /* \"#utility.yul\":11089:11091   */\n      0x20\n        /* \"#utility.yul\":11084:11086   */\n      0x1f\n        /* \"#utility.yul\":11077:11082   */\n      dup4\n        /* \"#utility.yul\":11073:11087   */\n      add\n        /* \"#utility.yul\":11069:11092   */\n      div\n        /* \"#utility.yul\":11059:11092   */\n      swap1\n      pop\n        /* \"#utility.yul\":11005:11098   */\n      swap2\n      swap1\n      pop\n      jump\t// out\n        /* \"#utility.yul\":11104:11211   */\n    tag_122:\n        /* \"#utility.yul\":11148:11156   */\n      0x00\n        /* \"#utility.yul\":11198:11203   */\n      dup3\n        /* \"#utility.yul\":11192:11196   */\n      dup3\n        /* \"#utility.yul\":11188:11204   */\n      shl\n        /* \"#utility.yul\":11167:11204   */\n      swap1\n      pop\n        /* \"#utility.yul\":11104:11211   */\n      swap3\n      swap2\n      pop\n      pop\n      jump\t// out\n        /* \"#utility.yul\":11217:11610   */\n    tag_123:\n        /* \"#utility.yul\":11286:11292   */\n      0x00\n        /* \"#utility.yul\":11336:11337   */\n      0x08\n        /* \"#utility.yul\":11324:11334   */\n      dup4\n        /* \"#utility.yul\":11320:11338   */\n      mul\n        /* \"#utility.yul\":11359:11456   */\n      tag_264\n        /* \"#utility.yul\":11389:11455   */\n      0xffffffffffffffffffffffffffffffffffffffffffffffffffffffffffffffff\n        /* \"#utility.yul\":11378:11387   */\n      dup3\n        /* \"#utility.yul\":11359:11456   */\n      tag_122\n      jump\t// in\n    tag_264:\n        /* \"#utility.yul\":11477:11516   */\n      tag_265\n        /* \"#utility.yul\":11507:11515   */\n      dup7\n        /* \"#utility.yul\":11496:11505   */\n      dup4\n        /* \"#utility.yul\":11477:11516   */\n      tag_122\n      jump\t// in\n    tag_265:\n        /* \"#utility.yul\":11465:11516   */\n      swap6\n      pop\n        /* \"#utility.yul\":11549:11553   */\n      dup1\n        /* \"#utility.yul\":11545:11554   */\n      not\n        /* \"#utility.yul\":11538:11543   */\n      dup5\n        /* \"#utility.yul\":11534:11555   */\n      and\n        /* \"#utility.yul\":11525:11555   */\n      swap4\n      pop\n        /* \"#utility.yul\":11598:11602   */\n      dup1\n        /* \"#utility.yul\":11588:11596   */\n      dup7\n        /* \"#utility.yul\":11584:11603   */\n      and\n        /* \"#utility.yul\":11577:11582   */\n      dup5\n        /* \"#utility.yul\":11574:11604   */\n      or\n        /* \"#utility.yul\":11564:11604   */\n      swap3\n      pop\n        /* \"#utility.yul\":11293:11610   */\n      pop\n      pop\n        /* \"#utility.yul\":11217:11610   */\n      swap4\n      swap3\n      pop\n      pop\n      pop\n      jump\t// out\n        /* \"#utility.yul\":11616:11758   */\n    tag_124:\n        /* \"#utility.yul\":11666:11675   */\n      0x00\n        /* \"#utility.yul\":11699:11752   */\n      tag_267\n        /* \"#utility.yul\":11717:11751   */\n      tag_268\n        /* \"#utility.yul\":11726:11750   */\n      tag_269\n        /* \"#utility.yul\":11744:11749   */\n      dup5\n        /* \"#utility.yul\":11726:11750   */\n      tag_98\n      jump\t// in\n    tag_269:\n        /* \"#utility.yul\":11717:11751   */\n      tag_109\n      jump\t// in\n    tag_268:\n        /* \"#utility.yul\":11699:11752   */\n      tag_98\n      jump\t// in\n    tag_267:\n        /* \"#utility.yul\":11686:11752   */\n      swap1\n      pop\n        /* \"#utility.yul\":11616:11758   */\n      swap2\n      swap1\n      pop\n      jump\t// out\n        /* \"#utility.yul\":11764:11839   */\n    tag_125:\n        /* \"#utility.yul\":11807:11810   */\n      0x00\n        /* \"#utility.yul\":11828:11833   */\n      dup2\n        /* \"#utility.yul\":11821:11833   */\n      swap1\n      pop\n        /* \"#utility.yul\":11764:11839   */\n      swap2\n      swap1\n      pop\n      jump\t// out\n        /* \"#utility.yul\":11845:12114   */\n    tag_126:\n        /* \"#utility.yul\":11955:11994   */\n      tag_272\n        /* \"#utility.yul\":11986:11993   */\n      dup4\n        /* \"#utility.yul\":11955:11994   */\n      tag_124\n      jump\t// in\n    tag_272:\n        /* \"#utility.yul\":12016:12107   */\n      tag_273\n        /* \"#utility.yul\":12065:12106   */\n      tag_274\n        /* \"#utility.yul\":12089:12105   */\n      dup3\n        /* \"#utility.yul\":12065:12106   */\n      tag_125\n      jump\t// in\n    tag_274:\n        /* \"#utility.yul\":12057:12063   */\n      dup5\n        /* \"#utility.yul\":12050:12054   */\n      dup5\n        /* \"#utility.yul\":12044:12055   */\n      sload\n        /* \"#utility.yul\":12016:12107   */\n      tag_123\n      jump\t// in\n    tag_273:\n        /* \"#utility.yul\":12010:12014   */\n      dup3\n        /* \"#utility.yul\":12003:12108   */\n      sstore\n        /* \"#utility.yul\":11921:12114   */\n      pop\n        /* \"#utility.yul\":11845:12114   */\n      pop\n      pop\n      pop\n      jump\t// out\n        /* \"#utility.yul\":12120:12193   */\n    tag_127:\n        /* \"#utility.yul\":12165:12168   */\n      0x00\n        /* \"#utility.yul\":12186:12187   */\n      0x00\n        /* \"#utility.yul\":12179:12187   */\n      swap1\n      pop\n        /* \"#utility.yul\":12120:12193   */\n      swap1\n      jump\t// out\n        /* \"#utility.yul\":12199:12388   */\n    tag_128:\n        /* \"#utility.yul\":12276:12308   */\n      tag_277\n      tag_127\n      jump\t// in\n    tag_277:\n        /* \"#utility.yul\":12317:12382   */\n      tag_278\n        /* \"#utility.yul\":12375:12381   */\n      dup2\n        /* \"#utility.yul\":12367:12373   */\n      dup5\n        /* \"#utility.yul\":12361:12365   */\n      dup5\n        /* \"#utility.yul\":12317:12382   */\n      tag_126\n      jump\t// in\n    tag_278:\n        /* \"#utility.yul\":12252:12388   */\n      pop\n        /* \"#utility.yul\":12199:12388   */\n      pop\n      pop\n      jump\t// out\n        /* \"#utility.yul\":12394:12580   */\n    tag_129:\n        /* \"#utility.yul\":12454:12574   */\n    tag_280:\n        /* \"#utility.yul\":12471:12474   */\n      dup2\n        /* \"#utility.yul\":12464:12469   */\n      dup2\n        /* \"#utility.yul\":12461:12475   */\n      lt\n        /* \"#utility.yul\":12454:12574   */\n      iszero\n      tag_282\n      jumpi\n        /* \"#utility.yul\":12525:12564   */\n      tag_283\n        /* \"#utility.yul\":12562:12563   */\n      0x00\n        /* \"#utility.yul\":12555:12560   */\n      dup3\n        /* \"#utility.yul\":12525:12564   */\n      tag_128\n      jump\t// in\n    tag_283:\n        /* \"#utility.yul\":12498:12499   */\n      0x01\n        /* \"#utility.yul\":12491:12496   */\n      dup2\n        /* \"#utility.yul\":12487:12500   */\n      add\n        /* \"#utility.yul\":12478:12500   */\n      swap1\n      pop\n        /* \"#utility.yul\":12454:12574   */\n      jump(tag_280)\n    tag_282:\n        /* \"#utility.yul\":12394:12580   */\n      pop\n      pop\n      jump\t// out\n        /* \"#utility.yul\":12586:13129   */\n    tag_130:\n        /* \"#utility.yul\":12687:12689   */\n      0x1f\n        /* \"#utility.yul\":12682:12685   */\n      dup3\n        /* \"#utility.yul\":12679:12690   */\n      gt\n        /* \"#utility.yul\":12676:13122   */\n      iszero\n      tag_285\n      jumpi\n        /* \"#utility.yul\":12721:12759   */\n      tag_286\n        /* \"#utility.yul\":12753:12758   */\n      dup2\n        /* \"#utility.yul\":12721:12759   */\n      tag_120\n      jump\t// in\n    tag_286:\n        /* \"#utility.yul\":12805:12834   */\n      tag_287\n        /* \"#utility.yul\":12823:12833   */\n      dup5\n        /* \"#utility.yul\":12805:12834   */\n      tag_121\n      jump\t// in\n    tag_287:\n        /* \"#utility.yul\":12795:12803   */\n      dup2\n        /* \"#utility.yul\":12791:12835   */\n      add\n        /* \"#utility.yul\":12988:12990   */\n      0x20\n        /* \"#utility.yul\":12976:12986   */\n      dup6\n        /* \"#utility.yul\":12973:12991   */\n      lt\n        /* \"#utility.yul\":12970:13019   */\n      iszero\n      tag_288\n      jumpi\n        /* \"#utility.yul\":13009:13017   */\n      dup2\n        /* \"#utility.yul\":12994:13017   */\n      swap1\n      pop\n        /* \"#utility.yul\":12970:13019   */\n    tag_288:\n        /* \"#utility.yul\":13032:13112   */\n      tag_289\n        /* \"#utility.yul\":13088:13110   */\n      tag_290\n        /* \"#utility.yul\":13106:13109   */\n      dup6\n        /* \"#utility.yul\":13088:13110   */\n      tag_121\n      jump\t// in\n    tag_290:\n        /* \"#utility.yul\":13078:13086   */\n      dup4\n        /* \"#utility.yul\":13074:13111   */\n      add\n        /* \"#utility.yul\":13061:13072   */\n      dup3\n        /* \"#utility.yul\":13032:13112   */\n      tag_129\n      jump\t// in\n    tag_289:\n        /* \"#utility.yul\":12691:13122   */\n      pop\n      pop\n        /* \"#utility.yul\":12676:13122   */\n    tag_285:\n        /* \"#utility.yul\":12586:13129   */\n      pop\n      pop\n      pop\n      jump\t// out\n        /* \"#utility.yul\":13135:13252   */\n    tag_131:\n        /* \"#utility.yul\":13189:13197   */\n      0x00\n        /* \"#utility.yul\":13239:13244   */\n      dup3\n        /* \"#utility.yul\":13233:13237   */\n      dup3\n        /* \"#utility.yul\":13229:13245   */\n      shr\n        /* \"#utility.yul\":13208:13245   */\n      swap1\n      pop\n        /* \"#utility.yul\":13135:13252   */\n      swap3\n      swap2\n      pop\n      pop\n      jump\t// out\n        /* \"#utility.yul\":13258:13427   */\n    tag_132:\n        /* \"#utility.yul\":13302:13308   */\n      0x00\n        /* \"#utility.yul\":13335:13386   */\n      tag_293\n        /* \"#utility.yul\":13383:13384   */\n      0x00\n        /* \"#utility.yul\":13379:13385   */\n      not\n        /* \"#utility.yul\":13371:13376   */\n      dup5\n        /* \"#utility.yul\":13368:13369   */\n      0x08\n        /* \"#utility.yul\":13364:13377   */\n      mul\n        /* \"#utility.yul\":13335:13386   */\n      tag_131\n      jump\t// in\n    tag_293:\n        /* \"#utility.yul\":13331:13387   */\n      not\n        /* \"#utility.yul\":13416:13420   */\n      dup1\n        /* \"#utility.yul\":13410:13414   */\n      dup4\n        /* \"#utility.yul\":13406:13421   */\n      and\n        /* \"#utility.yul\":13396:13421   */\n      swap2\n      pop\n        /* \"#utility.yul\":13309:13427   */\n      pop\n        /* \"#utility.yul\":13258:13427   */\n      swap3\n      swap2\n      pop\n      pop\n      jump\t// out\n        /* \"#utility.yul\":13432:13727   */\n    tag_133:\n        /* \"#utility.yul\":13508:13512   */\n      0x00\n        /* \"#utility.yul\":13654:13683   */\n      tag_295\n        /* \"#utility.yul\":13679:13682   */\n      dup4\n        /* \"#utility.yul\":13673:13677   */\n      dup4\n        /* \"#utility.yul\":13654:13683   */\n      tag_132\n      jump\t// in\n    tag_295:\n        /* \"#utility.yul\":13646:13683   */\n      swap2\n      pop\n        /* \"#utility.yul\":13716:13719   */\n      dup3\n        /* \"#utility.yul\":13713:13714   */\n      0x02\n        /* \"#utility.yul\":13709:13720   */\n      mul\n        /* \"#utility.yul\":13703:13707   */\n      dup3\n        /* \"#utility.yul\":13700:13721   */\n      or\n        /* \"#utility.yul\":13692:13721   */\n      swap1\n      pop\n        /* \"#utility.yul\":13432:13727   */\n      swap3\n      swap2\n      pop\n      pop\n      jump\t// out\n        /* \"#utility.yul\":13732:15127   */\n    tag_36:\n        /* \"#utility.yul\":13849:13886   */\n      tag_297\n        /* \"#utility.yul\":13882:13885   */\n      dup3\n        /* \"#utility.yul\":13849:13886   */\n      tag_102\n      jump\t// in\n    tag_297:\n        /* \"#utility.yul\":13951:13969   */\n      0xffffffffffffffff\n        /* \"#utility.yul\":13943:13949   */\n      dup2\n        /* \"#utility.yul\":13940:13970   */\n      gt\n        /* \"#utility.yul\":13937:13993   */\n      iszero\n      tag_298\n      jumpi\n        /* \"#utility.yul\":13973:13991   */\n      tag_299\n      tag_91\n      jump\t// in\n    tag_299:\n        /* \"#utility.yul\":13937:13993   */\n    tag_298:\n        /* \"#utility.yul\":14017:14055   */\n      tag_300\n        /* \"#utility.yul\":14049:14053   */\n      dup3\n        /* \"#utility.yul\":14043:14054   */\n      sload\n        /* \"#utility.yul\":14017:14055   */\n      tag_49\n      jump\t// in\n    tag_300:\n        /* \"#utility.yul\":14102:14169   */\n      tag_301\n        /* \"#utility.yul\":14162:14168   */\n      dup3\n        /* \"#utility.yul\":14154:14160   */\n      dup3\n        /* \"#utility.yul\":14148:14152   */\n      dup6\n        /* \"#utility.yul\":14102:14169   */\n      tag_130\n      jump\t// in\n    tag_301:\n        /* \"#utility.yul\":14196:14197   */\n      0x00\n        /* \"#utility.yul\":14220:14224   */\n      0x20\n        /* \"#utility.yul\":14207:14224   */\n      swap1\n      pop\n        /* \"#utility.yul\":14252:14254   */\n      0x1f\n        /* \"#utility.yul\":14244:14250   */\n      dup4\n        /* \"#utility.yul\":14241:14255   */\n      gt\n        /* \"#utility.yul\":14269:14270   */\n      0x01\n        /* \"#utility.yul\":14264:14882   */\n      dup2\n      eq\n      tag_303\n      jumpi\n        /* \"#utility.yul\":14926:14927   */\n      0x00\n        /* \"#utility.yul\":14943:14949   */\n      dup5\n        /* \"#utility.yul\":14940:15017   */\n      iszero\n      tag_304\n      jumpi\n        /* \"#utility.yul\":14992:15001   */\n      dup3\n        /* \"#utility.yul\":14987:14990   */\n      dup8\n        /* \"#utility.yul\":14983:15002   */\n      add\n        /* \"#utility.yul\":14977:15003   */\n      mload\n        /* \"#utility.yul\":14968:15003   */\n      swap1\n      pop\n        /* \"#utility.yul\":14940:15017   */\n    tag_304:\n        /* \"#utility.yul\":15043:15110   */\n      tag_305\n        /* \"#utility.yul\":15103:15109   */\n      dup6\n        /* \"#utility.yul\":15096:15101   */\n      dup3\n        /* \"#utility.yul\":15043:15110   */\n      tag_133\n      jump\t// in\n    tag_305:\n        /* \"#utility.yul\":15037:15041   */\n      dup7\n        /* \"#utility.yul\":15030:15111   */\n      sstore\n        /* \"#utility.yul\":14899:15121   */\n      pop\n        /* \"#utility.yul\":14234:15121   */\n      jump(tag_302)\n        /* \"#utility.yul\":14264:14882   */\n    tag_303:\n        /* \"#utility.yul\":14316:14320   */\n      0x1f\n        /* \"#utility.yul\":14312:14321   */\n      not\n        /* \"#utility.yul\":14304:14310   */\n      dup5\n        /* \"#utility.yul\":14300:14322   */\n      and\n        /* \"#utility.yul\":14350:14387   */\n      tag_306\n        /* \"#utility.yul\":14382:14386   */\n      dup7\n        /* \"#utility.yul\":14350:14387   */\n      tag_120\n      jump\t// in\n    tag_306:\n        /* \"#utility.yul\":14409:14410   */\n      0x00\n        /* \"#utility.yul\":14423:14631   */\n    tag_307:\n        /* \"#utility.yul\":14437:14444   */\n      dup3\n        /* \"#utility.yul\":14434:14435   */\n      dup2\n        /* \"#utility.yul\":14431:14445   */\n      lt\n        /* \"#utility.yul\":14423:14631   */\n      iszero\n      tag_309\n      jumpi\n        /* \"#utility.yul\":14516:14525   */\n      dup5\n        /* \"#utility.yul\":14511:14514   */\n      dup10\n        /* \"#utility.yul\":14507:14526   */\n      add\n        /* \"#utility.yul\":14501:14527   */\n      mload\n        /* \"#utility.yul\":14493:14499   */\n      dup3\n        /* \"#utility.yul\":14486:14528   */\n      sstore\n        /* \"#utility.yul\":14567:14568   */\n      0x01\n        /* \"#utility.yul\":14559:14565   */\n      dup3\n        /* \"#utility.yul\":14555:14569   */\n      add\n        /* \"#utility.yul\":14545:14569   */\n      swap2\n      pop\n        /* \"#utility.yul\":14614:14616   */\n      0x20\n        /* \"#utility.yul\":14603:14612   */\n      dup6\n        /* \"#utility.yul\":14599:14617   */\n      add\n        /* \"#utility.yul\":14586:14617   */\n      swap5\n      pop\n        /* \"#utility.yul\":14460:14464   */\n      0x20\n        /* \"#utility.yul\":14457:14458   */\n      dup2\n        /* \"#utility.yul\":14453:14465   */\n      add\n        /* \"#utility.yul\":14448:14465   */\n      swap1\n      pop\n        /* \"#utility.yul\":14423:14631   */\n      jump(tag_307)\n    tag_309:\n        /* \"#utility.yul\":14659:14665   */\n      dup7\n        /* \"#utility.yul\":14650:14657   */\n      dup4\n        /* \"#utility.yul\":14647:14666   */\n      lt\n        /* \"#utility.yul\":14644:14823   */\n      iszero\n      tag_310\n      jumpi\n        /* \"#utility.yul\":14717:14726   */\n      dup5\n        /* \"#utility.yul\":14712:14715   */\n      dup10\n        /* \"#utility.yul\":14708:14727   */\n      add\n        /* \"#utility.yul\":14702:14728   */\n      mload\n        /* \"#utility.yul\":14760:14808   */\n      tag_311\n        /* \"#utility.yul\":14802:14806   */\n      0x1f\n        /* \"#utility.yul\":14794:14800   */\n      dup10\n        /* \"#utility.yul\":14790:14807   */\n      and\n        /* \"#utility.yul\":14779:14788   */\n      dup3\n        /* \"#utility.yul\":14760:14808   */\n      tag_132\n      jump\t// in\n    tag_311:\n        /* \"#utility.yul\":14752:14758   */\n      dup4\n        /* \"#utility.yul\":14745:14809   */\n      sstore\n        /* \"#utility.yul\":14667:14823   */\n      pop\n        /* \"#utility.yul\":14644:14823   */\n    tag_310:\n        /* \"#utility.yul\":14869:14870   */\n      0x01\n        /* \"#utility.yul\":14865:14866   */\n      0x02\n        /* \"#utility.yul\":14857:14863   */\n      dup9\n        /* \"#utility.yul\":14853:14867   */\n      mul\n        /* \"#utility.yul\":14849:14871   */\n      add\n        /* \"#utility.yul\":14843:14847   */\n      dup9\n        /* \"#utility.yul\":14836:14872   */\n      sstore\n        /* \"#utility.yul\":14271:14882   */\n      pop\n      pop\n      pop\n        /* \"#utility.yul\":14234:15121   */\n    tag_302:\n      pop\n        /* \"#utility.yul\":13824:15127   */\n      pop\n      pop\n      pop\n        /* \"#utility.yul\":13732:15127   */\n      pop\n      pop\n      jump\t// out\n        /* \"#utility.yul\":15133:15848   */\n    tag_42:\n        /* \"#utility.yul\":15342:15346   */\n      0x00\n        /* \"#utility.yul\":15380:15382   */\n      0x60\n        /* \"#utility.yul\":15369:15378   */\n      dup3\n        /* \"#utility.yul\":15365:15383   */\n      add\n        /* \"#utility.yul\":15357:15383   */\n      swap1\n      pop\n        /* \"#utility.yul\":15429:15438   */\n      dup2\n        /* \"#utility.yul\":15423:15427   */\n      dup2\n        /* \"#utility.yul\":15419:15439   */\n      sub\n        /* \"#utility.yul\":15415:15416   */\n      0x00\n        /* \"#utility.yul\":15404:15413   */\n      dup4\n        /* \"#utility.yul\":15400:15417   */\n      add\n        /* \"#utility.yul\":15393:15440   */\n      mstore\n        /* \"#utility.yul\":15457:15535   */\n      tag_313\n        /* \"#utility.yul\":15530:15534   */\n      dup2\n        /* \"#utility.yul\":15521:15527   */\n      dup7\n        /* \"#utility.yul\":15457:15535   */\n      tag_105\n      jump\t// in\n    tag_313:\n        /* \"#utility.yul\":15449:15535   */\n      swap1\n      pop\n        /* \"#utility.yul\":15582:15591   */\n      dup2\n        /* \"#utility.yul\":15576:15580   */\n      dup2\n        /* \"#utility.yul\":15572:15592   */\n      sub\n        /* \"#utility.yul\":15567:15569   */\n      0x20\n        /* \"#utility.yul\":15556:15565   */\n      dup4\n        /* \"#utility.yul\":15552:15570   */\n      add\n        /* \"#utility.yul\":15545:15593   */\n      mstore\n        /* \"#utility.yul\":15610:15688   */\n      tag_314\n        /* \"#utility.yul\":15683:15687   */\n      dup2\n        /* \"#utility.yul\":15674:15680   */\n      dup6\n        /* \"#utility.yul\":15610:15688   */\n      tag_105\n      jump\t// in\n    tag_314:\n        /* \"#utility.yul\":15602:15688   */\n      swap1\n      pop\n        /* \"#utility.yul\":15735:15744   */\n      dup2\n        /* \"#utility.yul\":15729:15733   */\n      dup2\n        /* \"#utility.yul\":15725:15745   */\n      sub\n        /* \"#utility.yul\":15720:15722   */\n      0x40\n        /* \"#utility.yul\":15709:15718   */\n      dup4\n        /* \"#utility.yul\":15705:15723   */\n      add\n        /* \"#utility.yul\":15698:15746   */\n      mstore\n        /* \"#utility.yul\":15763:15841   */\n      tag_315\n        /* \"#utility.yul\":15836:15840   */\n      dup2\n        /* \"#utility.yul\":15827:15833   */\n      dup5\n        /* \"#utility.yul\":15763:15841   */\n      tag_105\n      jump\t// in\n    tag_315:\n        /* \"#utility.yul\":15755:15841   */\n      swap1\n      pop\n        /* \"#utility.yul\":15133:15848   */\n      swap5\n      swap4\n      pop\n      pop\n      pop\n      pop\n      jump\t// out\n        /* \"#utility.yul\":15854:16387   */\n    tag_62:\n        /* \"#utility.yul\":16023:16027   */\n      0x00\n        /* \"#utility.yul\":16061:16063   */\n      0x60\n        /* \"#utility.yul\":16050:16059   */\n      dup3\n        /* \"#utility.yul\":16046:16064   */\n      add\n        /* \"#utility.yul\":16038:16064   */\n      swap1\n      pop\n        /* \"#utility.yul\":16110:16119   */\n      dup2\n        /* \"#utility.yul\":16104:16108   */\n      dup2\n        /* \"#utility.yul\":16100:16120   */\n      sub\n        /* \"#utility.yul\":16096:16097   */\n      0x00\n        /* \"#utility.yul\":16085:16094   */\n      dup4\n        /* \"#utility.yul\":16081:16098   */\n      add\n        /* \"#utility.yul\":16074:16121   */\n      mstore\n        /* \"#utility.yul\":16138:16216   */\n      tag_317\n        /* \"#utility.yul\":16211:16215   */\n      dup2\n        /* \"#utility.yul\":16202:16208   */\n      dup7\n        /* \"#utility.yul\":16138:16216   */\n      tag_105\n      jump\t// in\n    tag_317:\n        /* \"#utility.yul\":16130:16216   */\n      swap1\n      pop\n        /* \"#utility.yul\":16226:16298   */\n      tag_318\n        /* \"#utility.yul\":16294:16296   */\n      0x20\n        /* \"#utility.yul\":16283:16292   */\n      dup4\n        /* \"#utility.yul\":16279:16297   */\n      add\n        /* \"#utility.yul\":16270:16276   */\n      dup6\n        /* \"#utility.yul\":16226:16298   */\n      tag_101\n      jump\t// in\n    tag_318:\n        /* \"#utility.yul\":16308:16380   */\n      tag_319\n        /* \"#utility.yul\":16376:16378   */\n      0x40\n        /* \"#utility.yul\":16365:16374   */\n      dup4\n        /* \"#utility.yul\":16361:16379   */\n      add\n        /* \"#utility.yul\":16352:16358   */\n      dup5\n        /* \"#utility.yul\":16308:16380   */\n      tag_108\n      jump\t// in\n    tag_319:\n        /* \"#utility.yul\":15854:16387   */\n      swap5\n      swap4\n      pop\n      pop\n      pop\n      pop\n      jump\t// out\n        /* \"#utility.yul\":16393:16573   */\n    tag_72:\n        /* \"#utility.yul\":16441:16518   */\n      0x4e487b7100000000000000000000000000000000000000000000000000000000\n        /* \"#utility.yul\":16438:16439   */\n      0x00\n        /* \"#utility.yul\":16431:16519   */\n      mstore\n        /* \"#utility.yul\":16538:16542   */\n      0x32\n        /* \"#utility.yul\":16535:16536   */\n      0x04\n        /* \"#utility.yul\":16528:16543   */\n      mstore\n        /* \"#utility.yul\":16562:16566   */\n      0x24\n        /* \"#utility.yul\":16559:16560   */\n      0x00\n        /* \"#utility.yul\":16552:16567   */\n      revert\n        /* \"#utility.yul\":16579:16747   */\n    tag_134:\n        /* \"#utility.yul\":16719:16739   */\n      0x4c696272617279206e6f7420666f756e64210000000000000000000000000000\n        /* \"#utility.yul\":16715:16716   */\n      0x00\n        /* \"#utility.yul\":16707:16713   */\n      dup3\n        /* \"#utility.yul\":16703:16717   */\n      add\n        /* \"#utility.yul\":16696:16740   */\n      mstore\n        /* \"#utility.yul\":16579:16747   */\n      pop\n      jump\t// out\n        /* \"#utility.yul\":16753:17119   */\n    tag_135:\n        /* \"#utility.yul\":16895:16898   */\n      0x00\n        /* \"#utility.yul\":16916:16983   */\n      tag_323\n        /* \"#utility.yul\":16980:16982   */\n      0x12\n        /* \"#utility.yul\":16975:16978   */\n      dup4\n        /* \"#utility.yul\":16916:16983   */\n      tag_103\n      jump\t// in\n    tag_323:\n        /* \"#utility.yul\":16909:16983   */\n      swap2\n      pop\n        /* \"#utility.yul\":16992:17085   */\n      tag_324\n        /* \"#utility.yul\":17081:17084   */\n      dup3\n        /* \"#utility.yul\":16992:17085   */\n      tag_134\n      jump\t// in\n    tag_324:\n        /* \"#utility.yul\":17110:17112   */\n      0x20\n        /* \"#utility.yul\":17105:17108   */\n      dup3\n        /* \"#utility.yul\":17101:17113   */\n      add\n        /* \"#utility.yul\":17094:17113   */\n      swap1\n      pop\n        /* \"#utility.yul\":16753:17119   */\n      swap2\n      swap1\n      pop\n      jump\t// out\n        /* \"#utility.yul\":17125:17544   */\n    tag_80:\n        /* \"#utility.yul\":17291:17295   */\n      0x00\n        /* \"#utility.yul\":17329:17331   */\n      0x20\n        /* \"#utility.yul\":17318:17327   */\n      dup3\n        /* \"#utility.yul\":17314:17332   */\n      add\n        /* \"#utility.yul\":17306:17332   */\n      swap1\n      pop\n        /* \"#utility.yul\":17378:17387   */\n      dup2\n        /* \"#utility.yul\":17372:17376   */\n      dup2\n        /* \"#utility.yul\":17368:17388   */\n      sub\n        /* \"#utility.yul\":17364:17365   */\n      0x00\n        /* \"#utility.yul\":17353:17362   */\n      dup4\n        /* \"#utility.yul\":17349:17366   */\n      add\n        /* \"#utility.yul\":17342:17389   */\n      mstore\n        /* \"#utility.yul\":17406:17537   */\n      tag_326\n        /* \"#utility.yul\":17532:17536   */\n      dup2\n        /* \"#utility.yul\":17406:17537   */\n      tag_135\n      jump\t// in\n    tag_326:\n        /* \"#utility.yul\":17398:17537   */\n      swap1\n      pop\n        /* \"#utility.yul\":17125:17544   */\n      swap2\n      swap1\n      pop\n      jump\t// out\n    stop\n\n    sub_0: assembly {\n            /* \"Book.sol\":59:704  contract BookContract {... */\n          mstore(0x40, 0x80)\n          callvalue\n          dup1\n          iszero\n          tag_1\n          jumpi\n          revert(0x00, 0x00)\n        tag_1:\n          pop\n          dataSize(sub_0)\n          dup1\n          dataOffset(sub_0)\n          0x00\n          codecopy\n          0x00\n          return\n        stop\n\n        sub_0: assembly {\n                /* \"Book.sol\":59:704  contract BookContract {... */\n              mstore(0x40, 0x80)\n              callvalue\n              dup1\n              iszero\n              tag_1\n              jumpi\n              revert(0x00, 0x00)\n            tag_1:\n              pop\n              jumpi(tag_2, lt(calldatasize, 0x04))\n              shr(0xe0, calldataload(0x00))\n              dup1\n              0x3088c00f\n              eq\n              tag_3\n              jumpi\n              dup1\n              0x69c46826\n              eq\n              tag_4\n              jumpi\n              dup1\n              0x93bdb2bb\n              eq\n              tag_5\n              jumpi\n            tag_2:\n              revert(0x00, 0x00)\n                /* \"Book.sol\":223:248  Book[] public listOfBooks */\n            tag_3:\n              tag_6\n              0x04\n              dup1\n              calldatasize\n              sub\n              dup2\n              add\n              swap1\n              tag_7\n              swap2\n              swap1\n              tag_8\n              jump\t// in\n            tag_7:\n              tag_9\n              jump\t// in\n            tag_6:\n              mload(0x40)\n              tag_10\n              swap6\n              swap5\n              swap4\n              swap3\n              swap2\n              swap1\n              tag_11\n              jump\t// in\n            tag_10:\n              mload(0x40)\n              dup1\n              swap2\n              sub\n              swap1\n              return\n                /* \"Book.sol\":306:702  function addBook(... */\n            tag_4:\n              tag_12\n              0x04\n              dup1\n              calldatasize\n              sub\n              dup2\n              add\n              swap1\n              tag_13\n              swap2\n              swap1\n              tag_14\n              jump\t// in\n            tag_13:\n              tag_15\n              jump\t// in\n            tag_12:\n              stop\n                /* \"Book.sol\":254:299  mapping(string => Book[]) public genreToBooks */\n            tag_5:\n              tag_16\n              0x04\n              dup1\n              calldatasize\n              sub\n              dup2\n              add\n              swap1\n              tag_17\n              swap2\n              swap1\n              tag_18\n              jump\t// in\n            tag_17:\n              tag_19\n              jump\t// in\n            tag_16:\n              mload(0x40)\n              tag_20\n              swap6\n              swap5\n              swap4\n              swap3\n              swap2\n              swap1\n              tag_11\n              jump\t// in\n            tag_20:\n              mload(0x40)\n              dup1\n              swap2\n              sub\n              swap1\n              return\n                /* \"Book.sol\":223:248  Book[] public listOfBooks */\n            tag_9:\n              0x00\n              dup2\n              dup2\n              sload\n              dup2\n              lt\n              tag_21\n              jumpi\n              0x00\n              dup1\n              revert\n            tag_21:\n              swap1\n              0x00\n              mstore\n              keccak256(0x00, 0x20)\n              swap1\n              0x05\n              mul\n              add\n              0x00\n              swap2\n              pop\n              swap1\n              pop\n              dup1\n              0x00\n              add\n              sload\n              swap1\n              dup1\n              0x01\n              add\n              dup1\n              sload\n              tag_23\n              swap1\n              tag_24\n              jump\t// in\n            tag_23:\n              dup1\n              0x1f\n              add\n              0x20\n              dup1\n              swap2\n              div\n              mul\n              0x20\n              add\n              mload(0x40)\n              swap1\n              dup2\n              add\n              0x40\n              mstore\n              dup1\n              swap3\n              swap2\n              swap1\n              dup2\n              dup2\n              mstore\n              0x20\n              add\n              dup3\n              dup1\n              sload\n              tag_25\n              swap1\n              tag_24\n              jump\t// in\n            tag_25:\n              dup1\n              iszero\n              tag_26\n              jumpi\n              dup1\n              0x1f\n              lt\n              tag_27\n              jumpi\n              0x0100\n              dup1\n              dup4\n              sload\n              div\n              mul\n              dup4\n              mstore\n              swap2\n              0x20\n              add\n              swap2\n              jump(tag_26)\n            tag_27:\n              dup3\n              add\n              swap2\n              swap1\n              0x00\n              mstore\n              keccak256(0x00, 0x20)\n              swap1\n            tag_28:\n              dup2\n              sload\n              dup2\n              mstore\n              swap1\n              0x01\n              add\n              swap1\n              0x20\n              add\n              dup1\n              dup4\n              gt\n              tag_28\n              jumpi\n              dup3\n              swap1\n              sub\n              0x1f\n              and\n              dup3\n              add\n              swap2\n            tag_26:\n              pop\n              pop\n              pop\n              pop\n              pop\n              swap1\n              dup1\n              0x02\n              add\n              dup1\n              sload\n              tag_29\n              swap1\n              tag_24\n              jump\t// in\n            tag_29:\n              dup1\n              0x1f\n              add\n              0x20\n              dup1\n              swap2\n              div\n              mul\n              0x20\n              add\n              mload(0x40)\n              swap1\n              dup2\n              add\n              0x40\n              mstore\n              dup1\n              swap3\n              swap2\n              swap1\n              dup2\n              dup2\n              mstore\n              0x20\n              add\n              dup3\n              dup1\n              sload\n              tag_30\n              swap1\n              tag_24\n              jump\t// in\n            tag_30:\n              dup1\n              iszero\n              tag_31\n              jumpi\n              dup1\n              0x1f\n              lt\n              tag_32\n              jumpi\n              0x0100\n              dup1\n              dup4\n              sload\n              div\n              mul\n              dup4\n              mstore\n              swap2\n              0x20\n              add\n              swap2\n              jump(tag_31)\n            tag_32:\n              dup3\n              add\n              swap2\n              swap1\n              0x00\n              mstore\n              keccak256(0x00, 0x20)\n              swap1\n            tag_33:\n              dup2\n              sload\n              dup2\n              mstore\n              swap1\n              0x01\n              add\n              swap1\n              0x20\n              add\n              dup1\n              dup4\n              gt\n              tag_33\n              jumpi\n              dup3\n              swap1\n              sub\n              0x1f\n              and\n              dup3\n              add\n              swap2\n            tag_31:\n              pop\n              pop\n              pop\n              pop\n              pop\n              swap1\n              dup1\n              0x03\n              add\n              dup1\n              sload\n              tag_34\n              swap1\n              tag_24\n              jump\t// in\n            tag_34:\n              dup1\n              0x1f\n              add\n              0x20\n              dup1\n              swap2\n              div\n              mul\n              0x20\n              add\n              mload(0x40)\n              swap1\n              dup2\n              add\n              0x40\n              mstore\n              dup1\n              swap3\n              swap2\n              swap1\n              dup2\n              dup2\n              mstore\n              0x20\n              add\n              dup3\n              dup1\n              sload\n              tag_35\n              swap1\n              tag_24\n              jump\t// in\n            tag_35:\n              dup1\n              iszero\n              tag_36\n              jumpi\n              dup1\n              0x1f\n              lt\n              tag_37\n              jumpi\n              0x0100\n              dup1\n              dup4\n              sload\n              div\n              mul\n              dup4\n              mstore\n              swap2\n              0x20\n              add\n              swap2\n              jump(tag_36)\n            tag_37:\n              dup3\n              add\n              swap2\n              swap1\n              0x00\n              mstore\n              keccak256(0x00, 0x20)\n              swap1\n            tag_38:\n              dup2\n              sload\n              dup2\n              mstore\n              swap1\n              0x01\n              add\n              swap1\n              0x20\n              add\n              dup1\n              dup4\n              gt\n              tag_38\n              jumpi\n              dup3\n              swap1\n              sub\n              0x1f\n              and\n              dup3\n              add\n              swap2\n            tag_36:\n              pop\n              pop\n              pop\n              pop\n              pop\n              swap1\n              dup1\n              0x04\n              add\n              0x00\n              swap1\n              sload\n              swap1\n              0x0100\n              exp\n              swap1\n              div\n              0xff\n              and\n              swap1\n              pop\n              dup6\n              jump\t// out\n                /* \"Book.sol\":306:702  function addBook(... */\n            tag_15:\n                /* \"Book.sol\":437:448  uint256 _ID */\n              0x00\n                /* \"Book.sol\":472:473  1 */\n              0x01\n                /* \"Book.sol\":451:462  listOfBooks */\n              0x00\n                /* \"Book.sol\":451:469  listOfBooks.length */\n              dup1\n              sload\n              swap1\n              pop\n                /* \"Book.sol\":451:473  listOfBooks.length + 1 */\n              tag_40\n              swap2\n              swap1\n              tag_41\n              jump\t// in\n            tag_40:\n                /* \"Book.sol\":437:473  uint256 _ID = listOfBooks.length + 1 */\n              swap1\n              pop\n                /* \"Book.sol\":483:502  Book memory newBook */\n              0x00\n                /* \"Book.sol\":505:615  Book(... */\n              mload(0x40)\n              dup1\n              0xa0\n              add\n              0x40\n              mstore\n              dup1\n                /* \"Book.sol\":523:526  _ID */\n              dup4\n                /* \"Book.sol\":505:615  Book(... */\n              dup2\n              mstore\n              0x20\n              add\n                /* \"Book.sol\":540:546  _title */\n              dup7\n                /* \"Book.sol\":505:615  Book(... */\n              dup2\n              mstore\n              0x20\n              add\n                /* \"Book.sol\":560:567  _author */\n              dup6\n                /* \"Book.sol\":505:615  Book(... */\n              dup2\n              mstore\n              0x20\n              add\n                /* \"Book.sol\":581:587  _genre */\n              dup5\n                /* \"Book.sol\":505:615  Book(... */\n              dup2\n              mstore\n              0x20\n              add\n                /* \"Book.sol\":601:605  true */\n              0x01\n                /* \"Book.sol\":505:615  Book(... */\n              iszero\n              iszero\n              dup2\n              mstore\n              pop\n                /* \"Book.sol\":483:615  Book memory newBook = Book(... */\n              swap1\n              pop\n                /* \"Book.sol\":626:637  listOfBooks */\n              0x00\n                /* \"Book.sol\":643:650  newBook */\n              dup2\n                /* \"Book.sol\":626:651  listOfBooks.push(newBook) */\n              swap1\n              dup1\n              0x01\n              dup2\n              sload\n              add\n              dup1\n              dup3\n              sstore\n              dup1\n              swap2\n              pop\n              pop\n              0x01\n              swap1\n              sub\n              swap1\n              0x00\n              mstore\n              keccak256(0x00, 0x20)\n              swap1\n              0x05\n              mul\n              add\n              0x00\n              swap1\n              swap2\n              swap1\n              swap2\n              swap1\n              swap2\n              pop\n              0x00\n              dup3\n              add\n              mload\n              dup2\n              0x00\n              add\n              sstore\n              0x20\n              dup3\n              add\n              mload\n              dup2\n              0x01\n              add\n              swap1\n              dup2\n              tag_43\n              swap2\n              swap1\n              tag_44\n              jump\t// in\n            tag_43:\n              pop\n              0x40\n              dup3\n              add\n              mload\n              dup2\n              0x02\n              add\n              swap1\n              dup2\n              tag_45\n              swap2\n              swap1\n              tag_44\n              jump\t// in\n            tag_45:\n              pop\n              0x60\n              dup3\n              add\n              mload\n              dup2\n              0x03\n              add\n              swap1\n              dup2\n              tag_46\n              swap2\n              swap1\n              tag_44\n              jump\t// in\n            tag_46:\n              pop\n              0x80\n              dup3\n              add\n              mload\n              dup2\n              0x04\n              add\n              exp(0x0100, 0x00)\n              dup2\n              sload\n              dup2\n              0xff\n              mul\n              not\n              and\n              swap1\n              dup4\n              iszero\n              iszero\n              mul\n              or\n              swap1\n              sstore\n              pop\n              pop\n              pop\n                /* \"Book.sol\":661:673  genreToBooks */\n              0x01\n                /* \"Book.sol\":674:680  _genre */\n              dup4\n                /* \"Book.sol\":661:681  genreToBooks[_genre] */\n              mload(0x40)\n              tag_47\n              swap2\n              swap1\n              tag_48\n              jump\t// in\n            tag_47:\n              swap1\n              dup2\n              mstore\n              0x20\n              add\n              mload(0x40)\n              dup1\n              swap2\n              sub\n              swap1\n              keccak256\n                /* \"Book.sol\":687:694  newBook */\n              dup2\n                /* \"Book.sol\":661:695  genreToBooks[_genre].push(newBook) */\n              swap1\n              dup1\n              0x01\n              dup2\n              sload\n              add\n              dup1\n              dup3\n              sstore\n              dup1\n              swap2\n              pop\n              pop\n              0x01\n              swap1\n              sub\n              swap1\n              0x00\n              mstore\n              keccak256(0x00, 0x20)\n              swap1\n              0x05\n              mul\n              add\n              0x00\n              swap1\n              swap2\n              swap1\n              swap2\n              swap1\n              swap2\n              pop\n              0x00\n              dup3\n              add\n              mload\n              dup2\n              0x00\n              add\n              sstore\n              0x20\n              dup3\n              add\n              mload\n              dup2\n              0x01\n              add\n              swap1\n              dup2\n              tag_50\n              swap2\n              swap1\n              tag_44\n              jump\t// in\n            tag_50:\n              pop\n              0x40\n              dup3\n              add\n              mload\n              dup2\n              0x02\n              add\n              swap1\n              dup2\n              tag_51\n              swap2\n              swap1\n              tag_44\n              jump\t// in\n            tag_51:\n              pop\n              0x60\n              dup3\n              add\n              mload\n              dup2\n              0x03\n              add\n              swap1\n              dup2\n              tag_52\n              swap2\n              swap1\n              tag_44\n              jump\t// in\n            tag_52:\n              pop\n              0x80\n              dup3\n              add\n              mload\n              dup2\n              0x04\n              add\n              exp(0x0100, 0x00)\n              dup2\n              sload\n              dup2\n              0xff\n              mul\n              not\n              and\n              swap1\n              dup4\n              iszero\n              iszero\n              mul\n              or\n              swap1\n              sstore\n              pop\n              pop\n              pop\n                /* \"Book.sol\":427:702  {... */\n              pop\n              pop\n                /* \"Book.sol\":306:702  function addBook(... */\n              pop\n              pop\n              pop\n              jump\t// out\n                /* \"Book.sol\":254:299  mapping(string => Book[]) public genreToBooks */\n            tag_19:\n              0x01\n              dup3\n              dup1\n              mload\n              0x20\n              dup2\n              add\n              dup3\n              add\n              dup1\n              mload\n              dup5\n              dup3\n              mstore\n              0x20\n              dup4\n              add\n              0x20\n              dup6\n              add\n              keccak256\n              dup2\n              dup4\n              mstore\n              dup1\n              swap6\n              pop\n              pop\n              pop\n              pop\n              pop\n              pop\n              dup2\n              dup2\n              sload\n              dup2\n              lt\n              tag_53\n              jumpi\n              0x00\n              dup1\n              revert\n            tag_53:\n              swap1\n              0x00\n              mstore\n              keccak256(0x00, 0x20)\n              swap1\n              0x05\n              mul\n              add\n              0x00\n              swap2\n              pop\n              swap2\n              pop\n              pop\n              dup1\n              0x00\n              add\n              sload\n              swap1\n              dup1\n              0x01\n              add\n              dup1\n              sload\n              tag_55\n              swap1\n              tag_24\n              jump\t// in\n            tag_55:\n              dup1\n              0x1f\n              add\n              0x20\n              dup1\n              swap2\n              div\n              mul\n              0x20\n              add\n              mload(0x40)\n              swap1\n              dup2\n              add\n              0x40\n              mstore\n              dup1\n              swap3\n              swap2\n              swap1\n              dup2\n              dup2\n              mstore\n              0x20\n              add\n              dup3\n              dup1\n              sload\n              tag_56\n              swap1\n              tag_24\n              jump\t// in\n            tag_56:\n              dup1\n              iszero\n              tag_57\n              jumpi\n              dup1\n              0x1f\n              lt\n              tag_58\n              jumpi\n              0x0100\n              dup1\n              dup4\n              sload\n              div\n              mul\n              dup4\n              mstore\n              swap2\n              0x20\n              add\n              swap2\n              jump(tag_57)\n            tag_58:\n              dup3\n              add\n              swap2\n              swap1\n              0x00\n              mstore\n              keccak256(0x00, 0x20)\n              swap1\n            tag_59:\n              dup2\n              sload\n              dup2\n              mstore\n              swap1\n              0x01\n              add\n              swap1\n              0x20\n              add\n              dup1\n              dup4\n              gt\n              tag_59\n              jumpi\n              dup3\n              swap1\n              sub\n              0x1f\n              and\n              dup3\n              add\n              swap2\n            tag_57:\n              pop\n              pop\n              pop\n              pop\n              pop\n              swap1\n              dup1\n              0x02\n              add\n              dup1\n              sload\n              tag_60\n              swap1\n              tag_24\n              jump\t// in\n            tag_60:\n              dup1\n              0x1f\n              add\n              0x20\n              dup1\n              swap2\n              div\n              mul\n              0x20\n              add\n              mload(0x40)\n              swap1\n              dup2\n              add\n              0x40\n              mstore\n              dup1\n              swap3\n              swap2\n              swap1\n              dup2\n              dup2\n              mstore\n              0x20\n              add\n              dup3\n              dup1\n              sload\n              tag_61\n              swap1\n              tag_24\n              jump\t// in\n            tag_61:\n              dup1\n              iszero\n              tag_62\n              jumpi\n              dup1\n              0x1f\n              lt\n              tag_63\n              jumpi\n              0x0100\n              dup1\n              dup4\n              sload\n              div\n              mul\n              dup4\n              mstore\n              swap2\n              0x20\n              add\n              swap2\n              jump(tag_62)\n            tag_63:\n              dup3\n              add\n              swap2\n              swap1\n              0x00\n              mstore\n              keccak256(0x00, 0x20)\n              swap1\n            tag_64:\n              dup2\n              sload\n              dup2\n              mstore\n              swap1\n              0x01\n              add\n              swap1\n              0x20\n              add\n              dup1\n              dup4\n              gt\n              tag_64\n              jumpi\n              dup3\n              swap1\n              sub\n              0x1f\n              and\n              dup3\n              add\n              swap2\n            tag_62:\n              pop\n              pop\n              pop\n              pop\n              pop\n              swap1\n              dup1\n              0x03\n              add\n              dup1\n              sload\n              tag_65\n              swap1\n              tag_24\n              jump\t// in\n            tag_65:\n              dup1\n              0x1f\n              add\n              0x20\n              dup1\n              swap2\n              div\n              mul\n              0x20\n              add\n              mload(0x40)\n              swap1\n              dup2\n              add\n              0x40\n              mstore\n              dup1\n              swap3\n              swap2\n              swap1\n              dup2\n              dup2\n              mstore\n              0x20\n              add\n              dup3\n              dup1\n              sload\n              tag_66\n              swap1\n              tag_24\n              jump\t// in\n            tag_66:\n              dup1\n              iszero\n              tag_67\n              jumpi\n              dup1\n              0x1f\n              lt\n              tag_68\n              jumpi\n              0x0100\n              dup1\n              dup4\n              sload\n              div\n              mul\n              dup4\n              mstore\n              swap2\n              0x20\n              add\n              swap2\n              jump(tag_67)\n            tag_68:\n              dup3\n              add\n              swap2\n              swap1\n              0x00\n              mstore\n              keccak256(0x00, 0x20)\n              swap1\n            tag_69:\n              dup2\n              sload\n              dup2\n              mstore\n              swap1\n              0x01\n              add\n              swap1\n              0x20\n              add\n              dup1\n              dup4\n              gt\n              tag_69\n              jumpi\n              dup3\n              swap1\n              sub\n              0x1f\n              and\n              dup3\n              add\n              swap2\n            tag_67:\n              pop\n              pop\n              pop\n              pop\n              pop\n              swap1\n              dup1\n              0x04\n              add\n              0x00\n              swap1\n              sload\n              swap1\n              0x0100\n              exp\n              swap1\n              div\n              0xff\n              and\n              swap1\n              pop\n              dup6\n              jump\t// out\n                /* \"#utility.yul\":7:82   */\n            tag_70:\n                /* \"#utility.yul\":40:46   */\n              0x00\n                /* \"#utility.yul\":73:75   */\n              0x40\n                /* \"#utility.yul\":67:76   */\n              mload\n                /* \"#utility.yul\":57:76   */\n              swap1\n              pop\n                /* \"#utility.yul\":7:82   */\n              swap1\n              jump\t// out\n                /* \"#utility.yul\":88:205   */\n            tag_71:\n                /* \"#utility.yul\":197:198   */\n              0x00\n                /* \"#utility.yul\":194:195   */\n              0x00\n                /* \"#utility.yul\":187:199   */\n              revert\n                /* \"#utility.yul\":211:328   */\n            tag_72:\n                /* \"#utility.yul\":320:321   */\n              0x00\n                /* \"#utility.yul\":317:318   */\n              0x00\n                /* \"#utility.yul\":310:322   */\n              revert\n                /* \"#utility.yul\":334:411   */\n            tag_73:\n                /* \"#utility.yul\":371:378   */\n              0x00\n                /* \"#utility.yul\":400:405   */\n              dup2\n                /* \"#utility.yul\":389:405   */\n              swap1\n              pop\n                /* \"#utility.yul\":334:411   */\n              swap2\n              swap1\n              pop\n              jump\t// out\n                /* \"#utility.yul\":417:539   */\n            tag_74:\n                /* \"#utility.yul\":490:514   */\n              tag_118\n                /* \"#utility.yul\":508:513   */\n              dup2\n                /* \"#utility.yul\":490:514   */\n              tag_73\n              jump\t// in\n            tag_118:\n                /* \"#utility.yul\":483:488   */\n              dup2\n                /* \"#utility.yul\":480:515   */\n              eq\n                /* \"#utility.yul\":470:533   */\n              tag_119\n              jumpi\n                /* \"#utility.yul\":529:530   */\n              0x00\n                /* \"#utility.yul\":526:527   */\n              0x00\n                /* \"#utility.yul\":519:531   */\n              revert\n                /* \"#utility.yul\":470:533   */\n            tag_119:\n                /* \"#utility.yul\":417:539   */\n              pop\n              jump\t// out\n                /* \"#utility.yul\":545:684   */\n            tag_75:\n                /* \"#utility.yul\":591:596   */\n              0x00\n                /* \"#utility.yul\":629:635   */\n              dup2\n                /* \"#utility.yul\":616:636   */\n              calldataload\n                /* \"#utility.yul\":607:636   */\n              swap1\n              pop\n                /* \"#utility.yul\":645:678   */\n              tag_121\n                /* \"#utility.yul\":672:677   */\n              dup2\n                /* \"#utility.yul\":645:678   */\n              tag_74\n              jump\t// in\n            tag_121:\n                /* \"#utility.yul\":545:684   */\n              swap3\n              swap2\n              pop\n              pop\n              jump\t// out\n                /* \"#utility.yul\":690:1019   */\n            tag_8:\n                /* \"#utility.yul\":749:755   */\n              0x00\n                /* \"#utility.yul\":798:800   */\n              0x20\n                /* \"#utility.yul\":786:795   */\n              dup3\n                /* \"#utility.yul\":777:784   */\n              dup5\n                /* \"#utility.yul\":773:796   */\n              sub\n                /* \"#utility.yul\":769:801   */\n              slt\n                /* \"#utility.yul\":766:885   */\n              iszero\n              tag_123\n              jumpi\n                /* \"#utility.yul\":804:883   */\n              tag_124\n              tag_71\n              jump\t// in\n            tag_124:\n                /* \"#utility.yul\":766:885   */\n            tag_123:\n                /* \"#utility.yul\":924:925   */\n              0x00\n                /* \"#utility.yul\":949:1002   */\n              tag_125\n                /* \"#utility.yul\":994:1001   */\n              dup5\n                /* \"#utility.yul\":985:991   */\n              dup3\n                /* \"#utility.yul\":974:983   */\n              dup6\n                /* \"#utility.yul\":970:992   */\n              add\n                /* \"#utility.yul\":949:1002   */\n              tag_75\n              jump\t// in\n            tag_125:\n                /* \"#utility.yul\":939:1002   */\n              swap2\n              pop\n                /* \"#utility.yul\":895:1012   */\n              pop\n                /* \"#utility.yul\":690:1019   */\n              swap3\n              swap2\n              pop\n              pop\n              jump\t// out\n                /* \"#utility.yul\":1025:1143   */\n            tag_76:\n                /* \"#utility.yul\":1112:1136   */\n              tag_127\n                /* \"#utility.yul\":1130:1135   */\n              dup2\n                /* \"#utility.yul\":1112:1136   */\n              tag_73\n              jump\t// in\n            tag_127:\n                /* \"#utility.yul\":1107:1110   */\n              dup3\n                /* \"#utility.yul\":1100:1137   */\n              mstore\n                /* \"#utility.yul\":1025:1143   */\n              pop\n              pop\n              jump\t// out\n                /* \"#utility.yul\":1149:1248   */\n            tag_77:\n                /* \"#utility.yul\":1201:1207   */\n              0x00\n                /* \"#utility.yul\":1235:1240   */\n              dup2\n                /* \"#utility.yul\":1229:1241   */\n              mload\n                /* \"#utility.yul\":1219:1241   */\n              swap1\n              pop\n                /* \"#utility.yul\":1149:1248   */\n              swap2\n              swap1\n              pop\n              jump\t// out\n                /* \"#utility.yul\":1254:1423   */\n            tag_78:\n                /* \"#utility.yul\":1338:1349   */\n              0x00\n                /* \"#utility.yul\":1372:1378   */\n              dup3\n                /* \"#utility.yul\":1367:1370   */\n              dup3\n                /* \"#utility.yul\":1360:1379   */\n              mstore\n                /* \"#utility.yul\":1412:1416   */\n              0x20\n                /* \"#utility.yul\":1407:1410   */\n              dup3\n                /* \"#utility.yul\":1403:1417   */\n              add\n                /* \"#utility.yul\":1388:1417   */\n              swap1\n              pop\n                /* \"#utility.yul\":1254:1423   */\n              swap3\n              swap2\n              pop\n              pop\n              jump\t// out\n                /* \"#utility.yul\":1429:1568   */\n            tag_79:\n                /* \"#utility.yul\":1518:1524   */\n              dup3\n                /* \"#utility.yul\":1513:1516   */\n              dup2\n                /* \"#utility.yul\":1508:1511   */\n              dup4\n                /* \"#utility.yul\":1502:1525   */\n              mcopy\n                /* \"#utility.yul\":1559:1560   */\n              0x00\n                /* \"#utility.yul\":1550:1556   */\n              dup4\n                /* \"#utility.yul\":1545:1548   */\n              dup4\n                /* \"#utility.yul\":1541:1557   */\n              add\n                /* \"#utility.yul\":1534:1561   */\n              mstore\n                /* \"#utility.yul\":1429:1568   */\n              pop\n              pop\n              pop\n              jump\t// out\n                /* \"#utility.yul\":1574:1676   */\n            tag_80:\n                /* \"#utility.yul\":1615:1621   */\n              0x00\n                /* \"#utility.yul\":1666:1668   */\n              0x1f\n                /* \"#utility.yul\":1662:1669   */\n              not\n                /* \"#utility.yul\":1657:1659   */\n              0x1f\n                /* \"#utility.yul\":1650:1655   */\n              dup4\n                /* \"#utility.yul\":1646:1660   */\n              add\n                /* \"#utility.yul\":1642:1670   */\n              and\n                /* \"#utility.yul\":1632:1670   */\n              swap1\n              pop\n                /* \"#utility.yul\":1574:1676   */\n              swap2\n              swap1\n              pop\n              jump\t// out\n                /* \"#utility.yul\":1682:2059   */\n            tag_81:\n                /* \"#utility.yul\":1770:1773   */\n              0x00\n                /* \"#utility.yul\":1798:1837   */\n              tag_133\n                /* \"#utility.yul\":1831:1836   */\n              dup3\n                /* \"#utility.yul\":1798:1837   */\n              tag_77\n              jump\t// in\n            tag_133:\n                /* \"#utility.yul\":1853:1924   */\n              tag_134\n                /* \"#utility.yul\":1917:1923   */\n              dup2\n                /* \"#utility.yul\":1912:1915   */\n              dup6\n                /* \"#utility.yul\":1853:1924   */\n              tag_78\n              jump\t// in\n            tag_134:\n                /* \"#utility.yul\":1846:1924   */\n              swap4\n              pop\n                /* \"#utility.yul\":1933:1998   */\n              tag_135\n                /* \"#utility.yul\":1991:1997   */\n              dup2\n                /* \"#utility.yul\":1986:1989   */\n              dup6\n                /* \"#utility.yul\":1979:1983   */\n              0x20\n                /* \"#utility.yul\":1972:1977   */\n              dup7\n                /* \"#utility.yul\":1968:1984   */\n              add\n                /* \"#utility.yul\":1933:1998   */\n              tag_79\n              jump\t// in\n            tag_135:\n                /* \"#utility.yul\":2023:2052   */\n              tag_136\n                /* \"#utility.yul\":2045:2051   */\n              dup2\n                /* \"#utility.yul\":2023:2052   */\n              tag_80\n              jump\t// in\n            tag_136:\n                /* \"#utility.yul\":2018:2021   */\n              dup5\n                /* \"#utility.yul\":2014:2053   */\n              add\n                /* \"#utility.yul\":2007:2053   */\n              swap2\n              pop\n                /* \"#utility.yul\":1774:2059   */\n              pop\n                /* \"#utility.yul\":1682:2059   */\n              swap3\n              swap2\n              pop\n              pop\n              jump\t// out\n                /* \"#utility.yul\":2065:2155   */\n            tag_82:\n                /* \"#utility.yul\":2099:2106   */\n              0x00\n                /* \"#utility.yul\":2142:2147   */\n              dup2\n                /* \"#utility.yul\":2135:2148   */\n              iszero\n                /* \"#utility.yul\":2128:2149   */\n              iszero\n                /* \"#utility.yul\":2117:2149   */\n              swap1\n              pop\n                /* \"#utility.yul\":2065:2155   */\n              swap2\n              swap1\n              pop\n              jump\t// out\n                /* \"#utility.yul\":2161:2270   */\n            tag_83:\n                /* \"#utility.yul\":2242:2263   */\n              tag_139\n                /* \"#utility.yul\":2257:2262   */\n              dup2\n                /* \"#utility.yul\":2242:2263   */\n              tag_82\n              jump\t// in\n            tag_139:\n                /* \"#utility.yul\":2237:2240   */\n              dup3\n                /* \"#utility.yul\":2230:2264   */\n              mstore\n                /* \"#utility.yul\":2161:2270   */\n              pop\n              pop\n              jump\t// out\n                /* \"#utility.yul\":2276:3201   */\n            tag_11:\n                /* \"#utility.yul\":2535:2539   */\n              0x00\n                /* \"#utility.yul\":2573:2576   */\n              0xa0\n                /* \"#utility.yul\":2562:2571   */\n              dup3\n                /* \"#utility.yul\":2558:2577   */\n              add\n                /* \"#utility.yul\":2550:2577   */\n              swap1\n              pop\n                /* \"#utility.yul\":2587:2658   */\n              tag_141\n                /* \"#utility.yul\":2655:2656   */\n              0x00\n                /* \"#utility.yul\":2644:2653   */\n              dup4\n                /* \"#utility.yul\":2640:2657   */\n              add\n                /* \"#utility.yul\":2631:2637   */\n              dup9\n                /* \"#utility.yul\":2587:2658   */\n              tag_76\n              jump\t// in\n            tag_141:\n                /* \"#utility.yul\":2705:2714   */\n              dup2\n                /* \"#utility.yul\":2699:2703   */\n              dup2\n                /* \"#utility.yul\":2695:2715   */\n              sub\n                /* \"#utility.yul\":2690:2692   */\n              0x20\n                /* \"#utility.yul\":2679:2688   */\n              dup4\n                /* \"#utility.yul\":2675:2693   */\n              add\n                /* \"#utility.yul\":2668:2716   */\n              mstore\n                /* \"#utility.yul\":2733:2811   */\n              tag_142\n                /* \"#utility.yul\":2806:2810   */\n              dup2\n                /* \"#utility.yul\":2797:2803   */\n              dup8\n                /* \"#utility.yul\":2733:2811   */\n              tag_81\n              jump\t// in\n            tag_142:\n                /* \"#utility.yul\":2725:2811   */\n              swap1\n              pop\n                /* \"#utility.yul\":2858:2867   */\n              dup2\n                /* \"#utility.yul\":2852:2856   */\n              dup2\n                /* \"#utility.yul\":2848:2868   */\n              sub\n                /* \"#utility.yul\":2843:2845   */\n              0x40\n                /* \"#utility.yul\":2832:2841   */\n              dup4\n                /* \"#utility.yul\":2828:2846   */\n              add\n                /* \"#utility.yul\":2821:2869   */\n              mstore\n                /* \"#utility.yul\":2886:2964   */\n              tag_143\n                /* \"#utility.yul\":2959:2963   */\n              dup2\n                /* \"#utility.yul\":2950:2956   */\n              dup7\n                /* \"#utility.yul\":2886:2964   */\n              tag_81\n              jump\t// in\n            tag_143:\n                /* \"#utility.yul\":2878:2964   */\n              swap1\n              pop\n                /* \"#utility.yul\":3011:3020   */\n              dup2\n                /* \"#utility.yul\":3005:3009   */\n              dup2\n                /* \"#utility.yul\":3001:3021   */\n              sub\n                /* \"#utility.yul\":2996:2998   */\n              0x60\n                /* \"#utility.yul\":2985:2994   */\n              dup4\n                /* \"#utility.yul\":2981:2999   */\n              add\n                /* \"#utility.yul\":2974:3022   */\n              mstore\n                /* \"#utility.yul\":3039:3117   */\n              tag_144\n                /* \"#utility.yul\":3112:3116   */\n              dup2\n                /* \"#utility.yul\":3103:3109   */\n              dup6\n                /* \"#utility.yul\":3039:3117   */\n              tag_81\n              jump\t// in\n            tag_144:\n                /* \"#utility.yul\":3031:3117   */\n              swap1\n              pop\n                /* \"#utility.yul\":3127:3194   */\n              tag_145\n                /* \"#utility.yul\":3189:3192   */\n              0x80\n                /* \"#utility.yul\":3178:3187   */\n              dup4\n                /* \"#utility.yul\":3174:3193   */\n              add\n                /* \"#utility.yul\":3165:3171   */\n              dup5\n                /* \"#utility.yul\":3127:3194   */\n              tag_83\n              jump\t// in\n            tag_145:\n                /* \"#utility.yul\":2276:3201   */\n              swap7\n              swap6\n              pop\n              pop\n              pop\n              pop\n              pop\n              pop\n              jump\t// out\n                /* \"#utility.yul\":3207:3324   */\n            tag_84:\n                /* \"#utility.yul\":3316:3317   */\n              0x00\n                /* \"#utility.yul\":3313:3314   */\n              0x00\n                /* \"#utility.yul\":3306:3318   */\n              revert\n                /* \"#utility.yul\":3330:3447   */\n            tag_85:\n                /* \"#utility.yul\":3439:3440   */\n              0x00\n                /* \"#utility.yul\":3436:3437   */\n              0x00\n                /* \"#utility.yul\":3429:3441   */\n              revert\n                /* \"#utility.yul\":3453:3633   */\n            tag_86:\n                /* \"#utility.yul\":3501:3578   */\n              0x4e487b7100000000000000000000000000000000000000000000000000000000\n                /* \"#utility.yul\":3498:3499   */\n              0x00\n                /* \"#utility.yul\":3491:3579   */\n              mstore\n                /* \"#utility.yul\":3598:3602   */\n              0x41\n                /* \"#utility.yul\":3595:3596   */\n              0x04\n                /* \"#utility.yul\":3588:3603   */\n              mstore\n                /* \"#utility.yul\":3622:3626   */\n              0x24\n                /* \"#utility.yul\":3619:3620   */\n              0x00\n                /* \"#utility.yul\":3612:3627   */\n              revert\n                /* \"#utility.yul\":3639:3920   */\n            tag_87:\n                /* \"#utility.yul\":3722:3749   */\n              tag_150\n                /* \"#utility.yul\":3744:3748   */\n              dup3\n                /* \"#utility.yul\":3722:3749   */\n              tag_80\n              jump\t// in\n            tag_150:\n                /* \"#utility.yul\":3714:3720   */\n              dup2\n                /* \"#utility.yul\":3710:3750   */\n              add\n                /* \"#utility.yul\":3852:3858   */\n              dup2\n                /* \"#utility.yul\":3840:3850   */\n              dup2\n                /* \"#utility.yul\":3837:3859   */\n              lt\n                /* \"#utility.yul\":3816:3834   */\n              0xffffffffffffffff\n                /* \"#utility.yul\":3804:3814   */\n              dup3\n                /* \"#utility.yul\":3801:3835   */\n              gt\n                /* \"#utility.yul\":3798:3860   */\n              or\n                /* \"#utility.yul\":3795:3883   */\n              iszero\n              tag_151\n              jumpi\n                /* \"#utility.yul\":3863:3881   */\n              tag_152\n              tag_86\n              jump\t// in\n            tag_152:\n                /* \"#utility.yul\":3795:3883   */\n            tag_151:\n                /* \"#utility.yul\":3903:3913   */\n              dup1\n                /* \"#utility.yul\":3899:3901   */\n              0x40\n                /* \"#utility.yul\":3892:3914   */\n              mstore\n                /* \"#utility.yul\":3682:3920   */\n              pop\n                /* \"#utility.yul\":3639:3920   */\n              pop\n              pop\n              jump\t// out\n                /* \"#utility.yul\":3926:4055   */\n            tag_88:\n                /* \"#utility.yul\":3960:3966   */\n              0x00\n                /* \"#utility.yul\":3987:4007   */\n              tag_154\n              tag_70\n              jump\t// in\n            tag_154:\n                /* \"#utility.yul\":3977:4007   */\n              swap1\n              pop\n                /* \"#utility.yul\":4016:4049   */\n              tag_155\n                /* \"#utility.yul\":4044:4048   */\n              dup3\n                /* \"#utility.yul\":4036:4042   */\n              dup3\n                /* \"#utility.yul\":4016:4049   */\n              tag_87\n              jump\t// in\n            tag_155:\n                /* \"#utility.yul\":3926:4055   */\n              swap2\n              swap1\n              pop\n              jump\t// out\n                /* \"#utility.yul\":4061:4369   */\n            tag_89:\n                /* \"#utility.yul\":4123:4127   */\n              0x00\n                /* \"#utility.yul\":4213:4231   */\n              0xffffffffffffffff\n                /* \"#utility.yul\":4205:4211   */\n              dup3\n                /* \"#utility.yul\":4202:4232   */\n              gt\n                /* \"#utility.yul\":4199:4255   */\n              iszero\n              tag_157\n              jumpi\n                /* \"#utility.yul\":4235:4253   */\n              tag_158\n              tag_86\n              jump\t// in\n            tag_158:\n                /* \"#utility.yul\":4199:4255   */\n            tag_157:\n                /* \"#utility.yul\":4273:4302   */\n              tag_159\n                /* \"#utility.yul\":4295:4301   */\n              dup3\n                /* \"#utility.yul\":4273:4302   */\n              tag_80\n              jump\t// in\n            tag_159:\n                /* \"#utility.yul\":4265:4302   */\n              swap1\n              pop\n                /* \"#utility.yul\":4357:4361   */\n              0x20\n                /* \"#utility.yul\":4351:4355   */\n              dup2\n                /* \"#utility.yul\":4347:4362   */\n              add\n                /* \"#utility.yul\":4339:4362   */\n              swap1\n              pop\n                /* \"#utility.yul\":4061:4369   */\n              swap2\n              swap1\n              pop\n              jump\t// out\n                /* \"#utility.yul\":4375:4523   */\n            tag_90:\n                /* \"#utility.yul\":4473:4479   */\n              dup3\n                /* \"#utility.yul\":4468:4471   */\n              dup2\n                /* \"#utility.yul\":4463:4466   */\n              dup4\n                /* \"#utility.yul\":4450:4480   */\n              calldatacopy\n                /* \"#utility.yul\":4514:4515   */\n              0x00\n                /* \"#utility.yul\":4505:4511   */\n              dup4\n                /* \"#utility.yul\":4500:4503   */\n              dup4\n                /* \"#utility.yul\":4496:4512   */\n              add\n                /* \"#utility.yul\":4489:4516   */\n              mstore\n                /* \"#utility.yul\":4375:4523   */\n              pop\n              pop\n              pop\n              jump\t// out\n                /* \"#utility.yul\":4529:4954   */\n            tag_91:\n                /* \"#utility.yul\":4607:4612   */\n              0x00\n                /* \"#utility.yul\":4632:4698   */\n              tag_162\n                /* \"#utility.yul\":4648:4697   */\n              tag_163\n                /* \"#utility.yul\":4690:4696   */\n              dup5\n                /* \"#utility.yul\":4648:4697   */\n              tag_89\n              jump\t// in\n            tag_163:\n                /* \"#utility.yul\":4632:4698   */\n              tag_88\n              jump\t// in\n            tag_162:\n                /* \"#utility.yul\":4623:4698   */\n              swap1\n              pop\n                /* \"#utility.yul\":4721:4727   */\n              dup3\n                /* \"#utility.yul\":4714:4719   */\n              dup2\n                /* \"#utility.yul\":4707:4728   */\n              mstore\n                /* \"#utility.yul\":4759:4763   */\n              0x20\n                /* \"#utility.yul\":4752:4757   */\n              dup2\n                /* \"#utility.yul\":4748:4764   */\n              add\n                /* \"#utility.yul\":4797:4800   */\n              dup5\n                /* \"#utility.yul\":4788:4794   */\n              dup5\n                /* \"#utility.yul\":4783:4786   */\n              dup5\n                /* \"#utility.yul\":4779:4795   */\n              add\n                /* \"#utility.yul\":4776:4801   */\n              gt\n                /* \"#utility.yul\":4773:4885   */\n              iszero\n              tag_164\n              jumpi\n                /* \"#utility.yul\":4804:4883   */\n              tag_165\n              tag_85\n              jump\t// in\n            tag_165:\n                /* \"#utility.yul\":4773:4885   */\n            tag_164:\n                /* \"#utility.yul\":4894:4948   */\n              tag_166\n                /* \"#utility.yul\":4941:4947   */\n              dup5\n                /* \"#utility.yul\":4936:4939   */\n              dup3\n                /* \"#utility.yul\":4931:4934   */\n              dup6\n                /* \"#utility.yul\":4894:4948   */\n              tag_90\n              jump\t// in\n            tag_166:\n                /* \"#utility.yul\":4613:4954   */\n              pop\n                /* \"#utility.yul\":4529:4954   */\n              swap4\n              swap3\n              pop\n              pop\n              pop\n              jump\t// out\n                /* \"#utility.yul\":4974:5314   */\n            tag_92:\n                /* \"#utility.yul\":5030:5035   */\n              0x00\n                /* \"#utility.yul\":5079:5082   */\n              dup3\n                /* \"#utility.yul\":5072:5076   */\n              0x1f\n                /* \"#utility.yul\":5064:5070   */\n              dup4\n                /* \"#utility.yul\":5060:5077   */\n              add\n                /* \"#utility.yul\":5056:5083   */\n              slt\n                /* \"#utility.yul\":5046:5168   */\n              tag_168\n              jumpi\n                /* \"#utility.yul\":5087:5166   */\n              tag_169\n              tag_84\n              jump\t// in\n            tag_169:\n                /* \"#utility.yul\":5046:5168   */\n            tag_168:\n                /* \"#utility.yul\":5204:5210   */\n              dup2\n                /* \"#utility.yul\":5191:5211   */\n              calldataload\n                /* \"#utility.yul\":5229:5308   */\n              tag_170\n                /* \"#utility.yul\":5304:5307   */\n              dup5\n                /* \"#utility.yul\":5296:5302   */\n              dup3\n                /* \"#utility.yul\":5289:5293   */\n              0x20\n                /* \"#utility.yul\":5281:5287   */\n              dup7\n                /* \"#utility.yul\":5277:5294   */\n              add\n                /* \"#utility.yul\":5229:5308   */\n              tag_91\n              jump\t// in\n            tag_170:\n                /* \"#utility.yul\":5220:5308   */\n              swap2\n              pop\n                /* \"#utility.yul\":5036:5314   */\n              pop\n                /* \"#utility.yul\":4974:5314   */\n              swap3\n              swap2\n              pop\n              pop\n              jump\t// out\n                /* \"#utility.yul\":5320:6479   */\n            tag_14:\n                /* \"#utility.yul\":5427:5433   */\n              0x00\n                /* \"#utility.yul\":5435:5441   */\n              0x00\n                /* \"#utility.yul\":5443:5449   */\n              0x00\n                /* \"#utility.yul\":5492:5494   */\n              0x60\n                /* \"#utility.yul\":5480:5489   */\n              dup5\n                /* \"#utility.yul\":5471:5478   */\n              dup7\n                /* \"#utility.yul\":5467:5490   */\n              sub\n                /* \"#utility.yul\":5463:5495   */\n              slt\n                /* \"#utility.yul\":5460:5579   */\n              iszero\n              tag_172\n              jumpi\n                /* \"#utility.yul\":5498:5577   */\n              tag_173\n              tag_71\n              jump\t// in\n            tag_173:\n                /* \"#utility.yul\":5460:5579   */\n            tag_172:\n                /* \"#utility.yul\":5646:5647   */\n              0x00\n                /* \"#utility.yul\":5635:5644   */\n              dup5\n                /* \"#utility.yul\":5631:5648   */\n              add\n                /* \"#utility.yul\":5618:5649   */\n              calldataload\n                /* \"#utility.yul\":5676:5694   */\n              0xffffffffffffffff\n                /* \"#utility.yul\":5668:5674   */\n              dup2\n                /* \"#utility.yul\":5665:5695   */\n              gt\n                /* \"#utility.yul\":5662:5779   */\n              iszero\n              tag_174\n              jumpi\n                /* \"#utility.yul\":5698:5777   */\n              tag_175\n              tag_72\n              jump\t// in\n            tag_175:\n                /* \"#utility.yul\":5662:5779   */\n            tag_174:\n                /* \"#utility.yul\":5803:5866   */\n              tag_176\n                /* \"#utility.yul\":5858:5865   */\n              dup7\n                /* \"#utility.yul\":5849:5855   */\n              dup3\n                /* \"#utility.yul\":5838:5847   */\n              dup8\n                /* \"#utility.yul\":5834:5856   */\n              add\n                /* \"#utility.yul\":5803:5866   */\n              tag_92\n              jump\t// in\n            tag_176:\n                /* \"#utility.yul\":5793:5866   */\n              swap4\n              pop\n                /* \"#utility.yul\":5589:5876   */\n              pop\n                /* \"#utility.yul\":5943:5945   */\n              0x20\n                /* \"#utility.yul\":5932:5941   */\n              dup5\n                /* \"#utility.yul\":5928:5946   */\n              add\n                /* \"#utility.yul\":5915:5947   */\n              calldataload\n                /* \"#utility.yul\":5974:5992   */\n              0xffffffffffffffff\n                /* \"#utility.yul\":5966:5972   */\n              dup2\n                /* \"#utility.yul\":5963:5993   */\n              gt\n                /* \"#utility.yul\":5960:6077   */\n              iszero\n              tag_177\n              jumpi\n                /* \"#utility.yul\":5996:6075   */\n              tag_178\n              tag_72\n              jump\t// in\n            tag_178:\n                /* \"#utility.yul\":5960:6077   */\n            tag_177:\n                /* \"#utility.yul\":6101:6164   */\n              tag_179\n                /* \"#utility.yul\":6156:6163   */\n              dup7\n                /* \"#utility.yul\":6147:6153   */\n              dup3\n                /* \"#utility.yul\":6136:6145   */\n              dup8\n                /* \"#utility.yul\":6132:6154   */\n              add\n                /* \"#utility.yul\":6101:6164   */\n              tag_92\n              jump\t// in\n            tag_179:\n                /* \"#utility.yul\":6091:6164   */\n              swap3\n              pop\n                /* \"#utility.yul\":5886:6174   */\n              pop\n                /* \"#utility.yul\":6241:6243   */\n              0x40\n                /* \"#utility.yul\":6230:6239   */\n              dup5\n                /* \"#utility.yul\":6226:6244   */\n              add\n                /* \"#utility.yul\":6213:6245   */\n              calldataload\n                /* \"#utility.yul\":6272:6290   */\n              0xffffffffffffffff\n                /* \"#utility.yul\":6264:6270   */\n              dup2\n                /* \"#utility.yul\":6261:6291   */\n              gt\n                /* \"#utility.yul\":6258:6375   */\n              iszero\n              tag_180\n              jumpi\n                /* \"#utility.yul\":6294:6373   */\n              tag_181\n              tag_72\n              jump\t// in\n            tag_181:\n                /* \"#utility.yul\":6258:6375   */\n            tag_180:\n                /* \"#utility.yul\":6399:6462   */\n              tag_182\n                /* \"#utility.yul\":6454:6461   */\n              dup7\n                /* \"#utility.yul\":6445:6451   */\n              dup3\n                /* \"#utility.yul\":6434:6443   */\n              dup8\n                /* \"#utility.yul\":6430:6452   */\n              add\n                /* \"#utility.yul\":6399:6462   */\n              tag_92\n              jump\t// in\n            tag_182:\n                /* \"#utility.yul\":6389:6462   */\n              swap2\n              pop\n                /* \"#utility.yul\":6184:6472   */\n              pop\n                /* \"#utility.yul\":5320:6479   */\n              swap3\n              pop\n              swap3\n              pop\n              swap3\n              jump\t// out\n                /* \"#utility.yul\":6485:7139   */\n            tag_18:\n                /* \"#utility.yul\":6563:6569   */\n              0x00\n                /* \"#utility.yul\":6571:6577   */\n              0x00\n                /* \"#utility.yul\":6620:6622   */\n              0x40\n                /* \"#utility.yul\":6608:6617   */\n              dup4\n                /* \"#utility.yul\":6599:6606   */\n              dup6\n                /* \"#utility.yul\":6595:6618   */\n              sub\n                /* \"#utility.yul\":6591:6623   */\n              slt\n                /* \"#utility.yul\":6588:6707   */\n              iszero\n              tag_184\n              jumpi\n                /* \"#utility.yul\":6626:6705   */\n              tag_185\n              tag_71\n              jump\t// in\n            tag_185:\n                /* \"#utility.yul\":6588:6707   */\n            tag_184:\n                /* \"#utility.yul\":6774:6775   */\n              0x00\n                /* \"#utility.yul\":6763:6772   */\n              dup4\n                /* \"#utility.yul\":6759:6776   */\n              add\n                /* \"#utility.yul\":6746:6777   */\n              calldataload\n                /* \"#utility.yul\":6804:6822   */\n              0xffffffffffffffff\n                /* \"#utility.yul\":6796:6802   */\n              dup2\n                /* \"#utility.yul\":6793:6823   */\n              gt\n                /* \"#utility.yul\":6790:6907   */\n              iszero\n              tag_186\n              jumpi\n                /* \"#utility.yul\":6826:6905   */\n              tag_187\n              tag_72\n              jump\t// in\n            tag_187:\n                /* \"#utility.yul\":6790:6907   */\n            tag_186:\n                /* \"#utility.yul\":6931:6994   */\n              tag_188\n                /* \"#utility.yul\":6986:6993   */\n              dup6\n                /* \"#utility.yul\":6977:6983   */\n              dup3\n                /* \"#utility.yul\":6966:6975   */\n              dup7\n                /* \"#utility.yul\":6962:6984   */\n              add\n                /* \"#utility.yul\":6931:6994   */\n              tag_92\n              jump\t// in\n            tag_188:\n                /* \"#utility.yul\":6921:6994   */\n              swap3\n              pop\n                /* \"#utility.yul\":6717:7004   */\n              pop\n                /* \"#utility.yul\":7043:7045   */\n              0x20\n                /* \"#utility.yul\":7069:7122   */\n              tag_189\n                /* \"#utility.yul\":7114:7121   */\n              dup6\n                /* \"#utility.yul\":7105:7111   */\n              dup3\n                /* \"#utility.yul\":7094:7103   */\n              dup7\n                /* \"#utility.yul\":7090:7112   */\n              add\n                /* \"#utility.yul\":7069:7122   */\n              tag_75\n              jump\t// in\n            tag_189:\n                /* \"#utility.yul\":7059:7122   */\n              swap2\n              pop\n                /* \"#utility.yul\":7014:7132   */\n              pop\n                /* \"#utility.yul\":6485:7139   */\n              swap3\n              pop\n              swap3\n              swap1\n              pop\n              jump\t// out\n                /* \"#utility.yul\":7145:7325   */\n            tag_93:\n                /* \"#utility.yul\":7193:7270   */\n              0x4e487b7100000000000000000000000000000000000000000000000000000000\n                /* \"#utility.yul\":7190:7191   */\n              0x00\n                /* \"#utility.yul\":7183:7271   */\n              mstore\n                /* \"#utility.yul\":7290:7294   */\n              0x22\n                /* \"#utility.yul\":7287:7288   */\n              0x04\n                /* \"#utility.yul\":7280:7295   */\n              mstore\n                /* \"#utility.yul\":7314:7318   */\n              0x24\n                /* \"#utility.yul\":7311:7312   */\n              0x00\n                /* \"#utility.yul\":7304:7319   */\n              revert\n                /* \"#utility.yul\":7331:7651   */\n            tag_24:\n                /* \"#utility.yul\":7375:7381   */\n              0x00\n                /* \"#utility.yul\":7412:7413   */\n              0x02\n                /* \"#utility.yul\":7406:7410   */\n              dup3\n                /* \"#utility.yul\":7402:7414   */\n              div\n                /* \"#utility.yul\":7392:7414   */\n              swap1\n              pop\n                /* \"#utility.yul\":7459:7460   */\n              0x01\n                /* \"#utility.yul\":7453:7457   */\n              dup3\n                /* \"#utility.yul\":7449:7461   */\n              and\n                /* \"#utility.yul\":7480:7498   */\n              dup1\n                /* \"#utility.yul\":7470:7551   */\n              tag_192\n              jumpi\n                /* \"#utility.yul\":7536:7540   */\n              0x7f\n                /* \"#utility.yul\":7528:7534   */\n              dup3\n                /* \"#utility.yul\":7524:7541   */\n              and\n                /* \"#utility.yul\":7514:7541   */\n              swap2\n              pop\n                /* \"#utility.yul\":7470:7551   */\n            tag_192:\n                /* \"#utility.yul\":7598:7600   */\n              0x20\n                /* \"#utility.yul\":7590:7596   */\n              dup3\n                /* \"#utility.yul\":7587:7601   */\n              lt\n                /* \"#utility.yul\":7567:7585   */\n              dup2\n                /* \"#utility.yul\":7564:7602   */\n              sub\n                /* \"#utility.yul\":7561:7645   */\n              tag_193\n              jumpi\n                /* \"#utility.yul\":7617:7635   */\n              tag_194\n              tag_93\n              jump\t// in\n            tag_194:\n                /* \"#utility.yul\":7561:7645   */\n            tag_193:\n                /* \"#utility.yul\":7382:7651   */\n              pop\n                /* \"#utility.yul\":7331:7651   */\n              swap2\n              swap1\n              pop\n              jump\t// out\n                /* \"#utility.yul\":7657:7837   */\n            tag_94:\n                /* \"#utility.yul\":7705:7782   */\n              0x4e487b7100000000000000000000000000000000000000000000000000000000\n                /* \"#utility.yul\":7702:7703   */\n              0x00\n                /* \"#utility.yul\":7695:7783   */\n              mstore\n                /* \"#utility.yul\":7802:7806   */\n              0x11\n                /* \"#utility.yul\":7799:7800   */\n              0x04\n                /* \"#utility.yul\":7792:7807   */\n              mstore\n                /* \"#utility.yul\":7826:7830   */\n              0x24\n                /* \"#utility.yul\":7823:7824   */\n              0x00\n                /* \"#utility.yul\":7816:7831   */\n              revert\n                /* \"#utility.yul\":7843:8034   */\n            tag_41:\n                /* \"#utility.yul\":7883:7886   */\n              0x00\n                /* \"#utility.yul\":7902:7922   */\n              tag_197\n                /* \"#utility.yul\":7920:7921   */\n              dup3\n                /* \"#utility.yul\":7902:7922   */\n              tag_73\n              jump\t// in\n            tag_197:\n                /* \"#utility.yul\":7897:7922   */\n              swap2\n              pop\n                /* \"#utility.yul\":7936:7956   */\n              tag_198\n                /* \"#utility.yul\":7954:7955   */\n              dup4\n                /* \"#utility.yul\":7936:7956   */\n              tag_73\n              jump\t// in\n            tag_198:\n                /* \"#utility.yul\":7931:7956   */\n              swap3\n              pop\n                /* \"#utility.yul\":7979:7980   */\n              dup3\n                /* \"#utility.yul\":7976:7977   */\n              dup3\n                /* \"#utility.yul\":7972:7981   */\n              add\n                /* \"#utility.yul\":7965:7981   */\n              swap1\n              pop\n                /* \"#utility.yul\":8000:8003   */\n              dup1\n                /* \"#utility.yul\":7997:7998   */\n              dup3\n                /* \"#utility.yul\":7994:8004   */\n              gt\n                /* \"#utility.yul\":7991:8027   */\n              iszero\n              tag_199\n              jumpi\n                /* \"#utility.yul\":8007:8025   */\n              tag_200\n              tag_94\n              jump\t// in\n            tag_200:\n                /* \"#utility.yul\":7991:8027   */\n            tag_199:\n                /* \"#utility.yul\":7843:8034   */\n              swap3\n              swap2\n              pop\n              pop\n              jump\t// out\n                /* \"#utility.yul\":8040:8181   */\n            tag_95:\n                /* \"#utility.yul\":8089:8093   */\n              0x00\n                /* \"#utility.yul\":8112:8115   */\n              dup2\n                /* \"#utility.yul\":8104:8115   */\n              swap1\n              pop\n                /* \"#utility.yul\":8135:8138   */\n              dup2\n                /* \"#utility.yul\":8132:8133   */\n              0x00\n                /* \"#utility.yul\":8125:8139   */\n              mstore\n                /* \"#utility.yul\":8169:8173   */\n              0x20\n                /* \"#utility.yul\":8166:8167   */\n              0x00\n                /* \"#utility.yul\":8156:8174   */\n              keccak256\n                /* \"#utility.yul\":8148:8174   */\n              swap1\n              pop\n                /* \"#utility.yul\":8040:8181   */\n              swap2\n              swap1\n              pop\n              jump\t// out\n                /* \"#utility.yul\":8187:8280   */\n            tag_96:\n                /* \"#utility.yul\":8224:8230   */\n              0x00\n                /* \"#utility.yul\":8271:8273   */\n              0x20\n                /* \"#utility.yul\":8266:8268   */\n              0x1f\n                /* \"#utility.yul\":8259:8264   */\n              dup4\n                /* \"#utility.yul\":8255:8269   */\n              add\n                /* \"#utility.yul\":8251:8274   */\n              div\n                /* \"#utility.yul\":8241:8274   */\n              swap1\n              pop\n                /* \"#utility.yul\":8187:8280   */\n              swap2\n              swap1\n              pop\n              jump\t// out\n                /* \"#utility.yul\":8286:8393   */\n            tag_97:\n                /* \"#utility.yul\":8330:8338   */\n              0x00\n                /* \"#utility.yul\":8380:8385   */\n              dup3\n                /* \"#utility.yul\":8374:8378   */\n              dup3\n                /* \"#utility.yul\":8370:8386   */\n              shl\n                /* \"#utility.yul\":8349:8386   */\n              swap1\n              pop\n                /* \"#utility.yul\":8286:8393   */\n              swap3\n              swap2\n              pop\n              pop\n              jump\t// out\n                /* \"#utility.yul\":8399:8792   */\n            tag_98:\n                /* \"#utility.yul\":8468:8474   */\n              0x00\n                /* \"#utility.yul\":8518:8519   */\n              0x08\n                /* \"#utility.yul\":8506:8516   */\n              dup4\n                /* \"#utility.yul\":8502:8520   */\n              mul\n                /* \"#utility.yul\":8541:8638   */\n              tag_205\n                /* \"#utility.yul\":8571:8637   */\n              0xffffffffffffffffffffffffffffffffffffffffffffffffffffffffffffffff\n                /* \"#utility.yul\":8560:8569   */\n              dup3\n                /* \"#utility.yul\":8541:8638   */\n              tag_97\n              jump\t// in\n            tag_205:\n                /* \"#utility.yul\":8659:8698   */\n              tag_206\n                /* \"#utility.yul\":8689:8697   */\n              dup7\n                /* \"#utility.yul\":8678:8687   */\n              dup4\n                /* \"#utility.yul\":8659:8698   */\n              tag_97\n              jump\t// in\n            tag_206:\n                /* \"#utility.yul\":8647:8698   */\n              swap6\n              pop\n                /* \"#utility.yul\":8731:8735   */\n              dup1\n                /* \"#utility.yul\":8727:8736   */\n              not\n                /* \"#utility.yul\":8720:8725   */\n              dup5\n                /* \"#utility.yul\":8716:8737   */\n              and\n                /* \"#utility.yul\":8707:8737   */\n              swap4\n              pop\n                /* \"#utility.yul\":8780:8784   */\n              dup1\n                /* \"#utility.yul\":8770:8778   */\n              dup7\n                /* \"#utility.yul\":8766:8785   */\n              and\n                /* \"#utility.yul\":8759:8764   */\n              dup5\n                /* \"#utility.yul\":8756:8786   */\n              or\n                /* \"#utility.yul\":8746:8786   */\n              swap3\n              pop\n                /* \"#utility.yul\":8475:8792   */\n              pop\n              pop\n                /* \"#utility.yul\":8399:8792   */\n              swap4\n              swap3\n              pop\n              pop\n              pop\n              jump\t// out\n                /* \"#utility.yul\":8798:8858   */\n            tag_99:\n                /* \"#utility.yul\":8826:8829   */\n              0x00\n                /* \"#utility.yul\":8847:8852   */\n              dup2\n                /* \"#utility.yul\":8840:8852   */\n              swap1\n              pop\n                /* \"#utility.yul\":8798:8858   */\n              swap2\n              swap1\n              pop\n              jump\t// out\n                /* \"#utility.yul\":8864:9006   */\n            tag_100:\n                /* \"#utility.yul\":8914:8923   */\n              0x00\n                /* \"#utility.yul\":8947:9000   */\n              tag_209\n                /* \"#utility.yul\":8965:8999   */\n              tag_210\n                /* \"#utility.yul\":8974:8998   */\n              tag_211\n                /* \"#utility.yul\":8992:8997   */\n              dup5\n                /* \"#utility.yul\":8974:8998   */\n              tag_73\n              jump\t// in\n            tag_211:\n                /* \"#utility.yul\":8965:8999   */\n              tag_99\n              jump\t// in\n            tag_210:\n                /* \"#utility.yul\":8947:9000   */\n              tag_73\n              jump\t// in\n            tag_209:\n                /* \"#utility.yul\":8934:9000   */\n              swap1\n              pop\n                /* \"#utility.yul\":8864:9006   */\n              swap2\n              swap1\n              pop\n              jump\t// out\n                /* \"#utility.yul\":9012:9087   */\n            tag_101:\n                /* \"#utility.yul\":9055:9058   */\n              0x00\n                /* \"#utility.yul\":9076:9081   */\n              dup2\n                /* \"#utility.yul\":9069:9081   */\n              swap1\n              pop\n                /* \"#utility.yul\":9012:9087   */\n              swap2\n              swap1\n              pop\n              jump\t// out\n                /* \"#utility.yul\":9093:9362   */\n            tag_102:\n                /* \"#utility.yul\":9203:9242   */\n              tag_214\n                /* \"#utility.yul\":9234:9241   */\n              dup4\n                /* \"#utility.yul\":9203:9242   */\n              tag_100\n              jump\t// in\n            tag_214:\n                /* \"#utility.yul\":9264:9355   */\n              tag_215\n                /* \"#utility.yul\":9313:9354   */\n              tag_216\n                /* \"#utility.yul\":9337:9353   */\n              dup3\n                /* \"#utility.yul\":9313:9354   */\n              tag_101\n              jump\t// in\n            tag_216:\n                /* \"#utility.yul\":9305:9311   */\n              dup5\n                /* \"#utility.yul\":9298:9302   */\n              dup5\n                /* \"#utility.yul\":9292:9303   */\n              sload\n                /* \"#utility.yul\":9264:9355   */\n              tag_98\n              jump\t// in\n            tag_215:\n                /* \"#utility.yul\":9258:9262   */\n              dup3\n                /* \"#utility.yul\":9251:9356   */\n              sstore\n                /* \"#utility.yul\":9169:9362   */\n              pop\n                /* \"#utility.yul\":9093:9362   */\n              pop\n              pop\n              pop\n              jump\t// out\n                /* \"#utility.yul\":9368:9441   */\n            tag_103:\n                /* \"#utility.yul\":9413:9416   */\n              0x00\n                /* \"#utility.yul\":9434:9435   */\n              0x00\n                /* \"#utility.yul\":9427:9435   */\n              swap1\n              pop\n                /* \"#utility.yul\":9368:9441   */\n              swap1\n              jump\t// out\n                /* \"#utility.yul\":9447:9636   */\n            tag_104:\n                /* \"#utility.yul\":9524:9556   */\n              tag_219\n              tag_103\n              jump\t// in\n            tag_219:\n                /* \"#utility.yul\":9565:9630   */\n              tag_220\n                /* \"#utility.yul\":9623:9629   */\n              dup2\n                /* \"#utility.yul\":9615:9621   */\n              dup5\n                /* \"#utility.yul\":9609:9613   */\n              dup5\n                /* \"#utility.yul\":9565:9630   */\n              tag_102\n              jump\t// in\n            tag_220:\n                /* \"#utility.yul\":9500:9636   */\n              pop\n                /* \"#utility.yul\":9447:9636   */\n              pop\n              pop\n              jump\t// out\n                /* \"#utility.yul\":9642:9828   */\n            tag_105:\n                /* \"#utility.yul\":9702:9822   */\n            tag_222:\n                /* \"#utility.yul\":9719:9722   */\n              dup2\n                /* \"#utility.yul\":9712:9717   */\n              dup2\n                /* \"#utility.yul\":9709:9723   */\n              lt\n                /* \"#utility.yul\":9702:9822   */\n              iszero\n              tag_224\n              jumpi\n                /* \"#utility.yul\":9773:9812   */\n              tag_225\n                /* \"#utility.yul\":9810:9811   */\n              0x00\n                /* \"#utility.yul\":9803:9808   */\n              dup3\n                /* \"#utility.yul\":9773:9812   */\n              tag_104\n              jump\t// in\n            tag_225:\n                /* \"#utility.yul\":9746:9747   */\n              0x01\n                /* \"#utility.yul\":9739:9744   */\n              dup2\n                /* \"#utility.yul\":9735:9748   */\n              add\n                /* \"#utility.yul\":9726:9748   */\n              swap1\n              pop\n                /* \"#utility.yul\":9702:9822   */\n              jump(tag_222)\n            tag_224:\n                /* \"#utility.yul\":9642:9828   */\n              pop\n              pop\n              jump\t// out\n                /* \"#utility.yul\":9834:10377   */\n            tag_106:\n                /* \"#utility.yul\":9935:9937   */\n              0x1f\n                /* \"#utility.yul\":9930:9933   */\n              dup3\n                /* \"#utility.yul\":9927:9938   */\n              gt\n                /* \"#utility.yul\":9924:10370   */\n              iszero\n              tag_227\n              jumpi\n                /* \"#utility.yul\":9969:10007   */\n              tag_228\n                /* \"#utility.yul\":10001:10006   */\n              dup2\n                /* \"#utility.yul\":9969:10007   */\n              tag_95\n              jump\t// in\n            tag_228:\n                /* \"#utility.yul\":10053:10082   */\n              tag_229\n                /* \"#utility.yul\":10071:10081   */\n              dup5\n                /* \"#utility.yul\":10053:10082   */\n              tag_96\n              jump\t// in\n            tag_229:\n                /* \"#utility.yul\":10043:10051   */\n              dup2\n                /* \"#utility.yul\":10039:10083   */\n              add\n                /* \"#utility.yul\":10236:10238   */\n              0x20\n                /* \"#utility.yul\":10224:10234   */\n              dup6\n                /* \"#utility.yul\":10221:10239   */\n              lt\n                /* \"#utility.yul\":10218:10267   */\n              iszero\n              tag_230\n              jumpi\n                /* \"#utility.yul\":10257:10265   */\n              dup2\n                /* \"#utility.yul\":10242:10265   */\n              swap1\n              pop\n                /* \"#utility.yul\":10218:10267   */\n            tag_230:\n                /* \"#utility.yul\":10280:10360   */\n              tag_231\n                /* \"#utility.yul\":10336:10358   */\n              tag_232\n                /* \"#utility.yul\":10354:10357   */\n              dup6\n                /* \"#utility.yul\":10336:10358   */\n              tag_96\n              jump\t// in\n            tag_232:\n                /* \"#utility.yul\":10326:10334   */\n              dup4\n                /* \"#utility.yul\":10322:10359   */\n              add\n                /* \"#utility.yul\":10309:10320   */\n              dup3\n                /* \"#utility.yul\":10280:10360   */\n              tag_105\n              jump\t// in\n            tag_231:\n                /* \"#utility.yul\":9939:10370   */\n              pop\n              pop\n                /* \"#utility.yul\":9924:10370   */\n            tag_227:\n                /* \"#utility.yul\":9834:10377   */\n              pop\n              pop\n              pop\n              jump\t// out\n                /* \"#utility.yul\":10383:10500   */\n            tag_107:\n                /* \"#utility.yul\":10437:10445   */\n              0x00\n                /* \"#utility.yul\":10487:10492   */\n              dup3\n                /* \"#utility.yul\":10481:10485   */\n              dup3\n                /* \"#utility.yul\":10477:10493   */\n              shr\n                /* \"#utility.yul\":10456:10493   */\n              swap1\n              pop\n                /* \"#utility.yul\":10383:10500   */\n              swap3\n              swap2\n              pop\n              pop\n              jump\t// out\n                /* \"#utility.yul\":10506:10675   */\n            tag_108:\n                /* \"#utility.yul\":10550:10556   */\n              0x00\n                /* \"#utility.yul\":10583:10634   */\n              tag_235\n                /* \"#utility.yul\":10631:10632   */\n              0x00\n                /* \"#utility.yul\":10627:10633   */\n              not\n                /* \"#utility.yul\":10619:10624   */\n              dup5\n                /* \"#utility.yul\":10616:10617   */\n              0x08\n                /* \"#utility.yul\":10612:10625   */\n              mul\n                /* \"#utility.yul\":10583:10634   */\n              tag_107\n              jump\t// in\n            tag_235:\n                /* \"#utility.yul\":10579:10635   */\n              not\n                /* \"#utility.yul\":10664:10668   */\n              dup1\n                /* \"#utility.yul\":10658:10662   */\n              dup4\n                /* \"#utility.yul\":10654:10669   */\n              and\n                /* \"#utility.yul\":10644:10669   */\n              swap2\n              pop\n                /* \"#utility.yul\":10557:10675   */\n              pop\n                /* \"#utility.yul\":10506:10675   */\n              swap3\n              swap2\n              pop\n              pop\n              jump\t// out\n                /* \"#utility.yul\":10680:10975   */\n            tag_109:\n                /* \"#utility.yul\":10756:10760   */\n              0x00\n                /* \"#utility.yul\":10902:10931   */\n              tag_237\n                /* \"#utility.yul\":10927:10930   */\n              dup4\n                /* \"#utility.yul\":10921:10925   */\n              dup4\n                /* \"#utility.yul\":10902:10931   */\n              tag_108\n              jump\t// in\n            tag_237:\n                /* \"#utility.yul\":10894:10931   */\n              swap2\n              pop\n                /* \"#utility.yul\":10964:10967   */\n              dup3\n                /* \"#utility.yul\":10961:10962   */\n              0x02\n                /* \"#utility.yul\":10957:10968   */\n              mul\n                /* \"#utility.yul\":10951:10955   */\n              dup3\n                /* \"#utility.yul\":10948:10969   */\n              or\n                /* \"#utility.yul\":10940:10969   */\n              swap1\n              pop\n                /* \"#utility.yul\":10680:10975   */\n              swap3\n              swap2\n              pop\n              pop\n              jump\t// out\n                /* \"#utility.yul\":10980:12375   */\n            tag_44:\n                /* \"#utility.yul\":11097:11134   */\n              tag_239\n                /* \"#utility.yul\":11130:11133   */\n              dup3\n                /* \"#utility.yul\":11097:11134   */\n              tag_77\n              jump\t// in\n            tag_239:\n                /* \"#utility.yul\":11199:11217   */\n              0xffffffffffffffff\n                /* \"#utility.yul\":11191:11197   */\n              dup2\n                /* \"#utility.yul\":11188:11218   */\n              gt\n                /* \"#utility.yul\":11185:11241   */\n              iszero\n              tag_240\n              jumpi\n                /* \"#utility.yul\":11221:11239   */\n              tag_241\n              tag_86\n              jump\t// in\n            tag_241:\n                /* \"#utility.yul\":11185:11241   */\n            tag_240:\n                /* \"#utility.yul\":11265:11303   */\n              tag_242\n                /* \"#utility.yul\":11297:11301   */\n              dup3\n                /* \"#utility.yul\":11291:11302   */\n              sload\n                /* \"#utility.yul\":11265:11303   */\n              tag_24\n              jump\t// in\n            tag_242:\n                /* \"#utility.yul\":11350:11417   */\n              tag_243\n                /* \"#utility.yul\":11410:11416   */\n              dup3\n                /* \"#utility.yul\":11402:11408   */\n              dup3\n                /* \"#utility.yul\":11396:11400   */\n              dup6\n                /* \"#utility.yul\":11350:11417   */\n              tag_106\n              jump\t// in\n            tag_243:\n                /* \"#utility.yul\":11444:11445   */\n              0x00\n                /* \"#utility.yul\":11468:11472   */\n              0x20\n                /* \"#utility.yul\":11455:11472   */\n              swap1\n              pop\n                /* \"#utility.yul\":11500:11502   */\n              0x1f\n                /* \"#utility.yul\":11492:11498   */\n              dup4\n                /* \"#utility.yul\":11489:11503   */\n              gt\n                /* \"#utility.yul\":11517:11518   */\n              0x01\n                /* \"#utility.yul\":11512:12130   */\n              dup2\n              eq\n              tag_245\n              jumpi\n                /* \"#utility.yul\":12174:12175   */\n              0x00\n                /* \"#utility.yul\":12191:12197   */\n              dup5\n                /* \"#utility.yul\":12188:12265   */\n              iszero\n              tag_246\n              jumpi\n                /* \"#utility.yul\":12240:12249   */\n              dup3\n                /* \"#utility.yul\":12235:12238   */\n              dup8\n                /* \"#utility.yul\":12231:12250   */\n              add\n                /* \"#utility.yul\":12225:12251   */\n              mload\n                /* \"#utility.yul\":12216:12251   */\n              swap1\n              pop\n                /* \"#utility.yul\":12188:12265   */\n            tag_246:\n                /* \"#utility.yul\":12291:12358   */\n              tag_247\n                /* \"#utility.yul\":12351:12357   */\n              dup6\n                /* \"#utility.yul\":12344:12349   */\n              dup3\n                /* \"#utility.yul\":12291:12358   */\n              tag_109\n              jump\t// in\n            tag_247:\n                /* \"#utility.yul\":12285:12289   */\n              dup7\n                /* \"#utility.yul\":12278:12359   */\n              sstore\n                /* \"#utility.yul\":12147:12369   */\n              pop\n                /* \"#utility.yul\":11482:12369   */\n              jump(tag_244)\n                /* \"#utility.yul\":11512:12130   */\n            tag_245:\n                /* \"#utility.yul\":11564:11568   */\n              0x1f\n                /* \"#utility.yul\":11560:11569   */\n              not\n                /* \"#utility.yul\":11552:11558   */\n              dup5\n                /* \"#utility.yul\":11548:11570   */\n              and\n                /* \"#utility.yul\":11598:11635   */\n              tag_248\n                /* \"#utility.yul\":11630:11634   */\n              dup7\n                /* \"#utility.yul\":11598:11635   */\n              tag_95\n              jump\t// in\n            tag_248:\n                /* \"#utility.yul\":11657:11658   */\n              0x00\n                /* \"#utility.yul\":11671:11879   */\n            tag_249:\n                /* \"#utility.yul\":11685:11692   */\n              dup3\n                /* \"#utility.yul\":11682:11683   */\n              dup2\n                /* \"#utility.yul\":11679:11693   */\n              lt\n                /* \"#utility.yul\":11671:11879   */\n              iszero\n              tag_251\n              jumpi\n                /* \"#utility.yul\":11764:11773   */\n              dup5\n                /* \"#utility.yul\":11759:11762   */\n              dup10\n                /* \"#utility.yul\":11755:11774   */\n              add\n                /* \"#utility.yul\":11749:11775   */\n              mload\n                /* \"#utility.yul\":11741:11747   */\n              dup3\n                /* \"#utility.yul\":11734:11776   */\n              sstore\n                /* \"#utility.yul\":11815:11816   */\n              0x01\n                /* \"#utility.yul\":11807:11813   */\n              dup3\n                /* \"#utility.yul\":11803:11817   */\n              add\n                /* \"#utility.yul\":11793:11817   */\n              swap2\n              pop\n                /* \"#utility.yul\":11862:11864   */\n              0x20\n                /* \"#utility.yul\":11851:11860   */\n              dup6\n                /* \"#utility.yul\":11847:11865   */\n              add\n                /* \"#utility.yul\":11834:11865   */\n              swap5\n              pop\n                /* \"#utility.yul\":11708:11712   */\n              0x20\n                /* \"#utility.yul\":11705:11706   */\n              dup2\n                /* \"#utility.yul\":11701:11713   */\n              add\n                /* \"#utility.yul\":11696:11713   */\n              swap1\n              pop\n                /* \"#utility.yul\":11671:11879   */\n              jump(tag_249)\n            tag_251:\n                /* \"#utility.yul\":11907:11913   */\n              dup7\n                /* \"#utility.yul\":11898:11905   */\n              dup4\n                /* \"#utility.yul\":11895:11914   */\n              lt\n                /* \"#utility.yul\":11892:12071   */\n              iszero\n              tag_252\n              jumpi\n                /* \"#utility.yul\":11965:11974   */\n              dup5\n                /* \"#utility.yul\":11960:11963   */\n              dup10\n                /* \"#utility.yul\":11956:11975   */\n              add\n                /* \"#utility.yul\":11950:11976   */\n              mload\n                /* \"#utility.yul\":12008:12056   */\n              tag_253\n                /* \"#utility.yul\":12050:12054   */\n              0x1f\n                /* \"#utility.yul\":12042:12048   */\n              dup10\n                /* \"#utility.yul\":12038:12055   */\n              and\n                /* \"#utility.yul\":12027:12036   */\n              dup3\n                /* \"#utility.yul\":12008:12056   */\n              tag_108\n              jump\t// in\n            tag_253:\n                /* \"#utility.yul\":12000:12006   */\n              dup4\n                /* \"#utility.yul\":11993:12057   */\n              sstore\n                /* \"#utility.yul\":11915:12071   */\n              pop\n                /* \"#utility.yul\":11892:12071   */\n            tag_252:\n                /* \"#utility.yul\":12117:12118   */\n              0x01\n                /* \"#utility.yul\":12113:12114   */\n              0x02\n                /* \"#utility.yul\":12105:12111   */\n              dup9\n                /* \"#utility.yul\":12101:12115   */\n              mul\n                /* \"#utility.yul\":12097:12119   */\n              add\n                /* \"#utility.yul\":12091:12095   */\n              dup9\n                /* \"#utility.yul\":12084:12120   */\n              sstore\n                /* \"#utility.yul\":11519:12130   */\n              pop\n              pop\n              pop\n                /* \"#utility.yul\":11482:12369   */\n            tag_244:\n              pop\n                /* \"#utility.yul\":11072:12375   */\n              pop\n              pop\n              pop\n                /* \"#utility.yul\":10980:12375   */\n              pop\n              pop\n              jump\t// out\n                /* \"#utility.yul\":12381:12529   */\n            tag_110:\n                /* \"#utility.yul\":12483:12494   */\n              0x00\n                /* \"#utility.yul\":12520:12523   */\n              dup2\n                /* \"#utility.yul\":12505:12523   */\n              swap1\n              pop\n                /* \"#utility.yul\":12381:12529   */\n              swap3\n              swap2\n              pop\n              pop\n              jump\t// out\n                /* \"#utility.yul\":12535:12925   */\n            tag_111:\n                /* \"#utility.yul\":12641:12644   */\n              0x00\n                /* \"#utility.yul\":12669:12708   */\n              tag_256\n                /* \"#utility.yul\":12702:12707   */\n              dup3\n                /* \"#utility.yul\":12669:12708   */\n              tag_77\n              jump\t// in\n            tag_256:\n                /* \"#utility.yul\":12724:12813   */\n              tag_257\n                /* \"#utility.yul\":12806:12812   */\n              dup2\n                /* \"#utility.yul\":12801:12804   */\n              dup6\n                /* \"#utility.yul\":12724:12813   */\n              tag_110\n              jump\t// in\n            tag_257:\n                /* \"#utility.yul\":12717:12813   */\n              swap4\n              pop\n                /* \"#utility.yul\":12822:12887   */\n              tag_258\n                /* \"#utility.yul\":12880:12886   */\n              dup2\n                /* \"#utility.yul\":12875:12878   */\n              dup6\n                /* \"#utility.yul\":12868:12872   */\n              0x20\n                /* \"#utility.yul\":12861:12866   */\n              dup7\n                /* \"#utility.yul\":12857:12873   */\n              add\n                /* \"#utility.yul\":12822:12887   */\n              tag_79\n              jump\t// in\n            tag_258:\n                /* \"#utility.yul\":12912:12918   */\n              dup1\n                /* \"#utility.yul\":12907:12910   */\n              dup5\n                /* \"#utility.yul\":12903:12919   */\n              add\n                /* \"#utility.yul\":12896:12919   */\n              swap2\n              pop\n                /* \"#utility.yul\":12645:12925   */\n              pop\n                /* \"#utility.yul\":12535:12925   */\n              swap3\n              swap2\n              pop\n              pop\n              jump\t// out\n                /* \"#utility.yul\":12931:13206   */\n            tag_48:\n                /* \"#utility.yul\":13063:13066   */\n              0x00\n                /* \"#utility.yul\":13085:13180   */\n              tag_260\n                /* \"#utility.yul\":13176:13179   */\n              dup3\n                /* \"#utility.yul\":13167:13173   */\n              dup5\n                /* \"#utility.yul\":13085:13180   */\n              tag_111\n              jump\t// in\n            tag_260:\n                /* \"#utility.yul\":13078:13180   */\n              swap2\n              pop\n                /* \"#utility.yul\":13197:13200   */\n              dup2\n                /* \"#utility.yul\":13190:13200   */\n              swap1\n              pop\n                /* \"#utility.yul\":12931:13206   */\n              swap3\n              swap2\n              pop\n              pop\n              jump\t// out\n\n            auxdata: 0xa26469706673582212209a2ae5e1a9d85cb50eca91e7b02d21deedbafb367e5f75eb4a5105bd700e748b64736f6c634300081f0033\n        }\n    }\n\n    sub_1: assembly {\n            /* \"Member.sol\":59:557  contract MemberContract {... */\n          mstore(0x40, 0x80)\n          callvalue\n          dup1\n          iszero\n          tag_1\n          jumpi\n          revert(0x00, 0x00)\n        tag_1:\n          pop\n          dataSize(sub_0)\n          dup1\n          dataOffset(sub_0)\n          0x00\n          codecopy\n          0x00\n          return\n        stop\n\n        sub_0: assembly {\n                /* \"Member.sol\":59:557  contract MemberContract {... */\n              mstore(0x40, 0x80)\n              callvalue\n              dup1\n              iszero\n              tag_1\n              jumpi\n              revert(0x00, 0x00)\n            tag_1:\n              pop\n              jumpi(tag_2, lt(calldatasize, 0x04))\n              shr(0xe0, calldataload(0x00))\n              dup1\n              0x5daf08ca\n              eq\n              tag_3\n              jumpi\n              dup1\n              0xb184c11e\n              eq\n              tag_4\n              jumpi\n            tag_2:\n              revert(0x00, 0x00)\n                /* \"Member.sol\":202:225  Member[] public members */\n            tag_3:\n              tag_5\n              0x04\n              dup1\n              calldatasize\n              sub\n              dup2\n              add\n              swap1\n              tag_6\n              swap2\n              swap1\n              tag_7\n              jump\t// in\n            tag_6:\n              tag_8\n              jump\t// in\n            tag_5:\n              mload(0x40)\n              tag_9\n              swap5\n              swap4\n              swap3\n              swap2\n              swap1\n              tag_10\n              jump\t// in\n            tag_9:\n              mload(0x40)\n              dup1\n              swap2\n              sub\n              swap1\n              return\n                /* \"Member.sol\":232:555  function registerMember(... */\n            tag_4:\n              tag_11\n              0x04\n              dup1\n              calldatasize\n              sub\n              dup2\n              add\n              swap1\n              tag_12\n              swap2\n              swap1\n              tag_13\n              jump\t// in\n            tag_12:\n              tag_14\n              jump\t// in\n            tag_11:\n              stop\n                /* \"Member.sol\":202:225  Member[] public members */\n            tag_8:\n              0x00\n              dup2\n              dup2\n              sload\n              dup2\n              lt\n              tag_15\n              jumpi\n              0x00\n              dup1\n              revert\n            tag_15:\n              swap1\n              0x00\n              mstore\n              keccak256(0x00, 0x20)\n              swap1\n              0x04\n              mul\n              add\n              0x00\n              swap2\n              pop\n              swap1\n              pop\n              dup1\n              0x00\n              add\n              sload\n              swap1\n              dup1\n              0x01\n              add\n              dup1\n              sload\n              tag_17\n              swap1\n              tag_18\n              jump\t// in\n            tag_17:\n              dup1\n              0x1f\n              add\n              0x20\n              dup1\n              swap2\n              div\n              mul\n              0x20\n              add\n              mload(0x40)\n              swap1\n              dup2\n              add\n              0x40\n              mstore\n              dup1\n              swap3\n              swap2\n              swap1\n              dup2\n              dup2\n              mstore\n              0x20\n              add\n              dup3\n              dup1\n              sload\n              tag_19\n              swap1\n              tag_18\n              jump\t// in\n            tag_19:\n              dup1\n              iszero\n              tag_20\n              jumpi\n              dup1\n              0x1f\n              lt\n              tag_21\n              jumpi\n              0x0100\n              dup1\n              dup4\n              sload\n              div\n              mul\n              dup4\n              mstore\n              swap2\n              0x20\n              add\n              swap2\n              jump(tag_20)\n            tag_21:\n              dup3\n              add\n              swap2\n              swap1\n              0x00\n              mstore\n              keccak256(0x00, 0x20)\n              swap1\n            tag_22:\n              dup2\n              sload\n              dup2\n              mstore\n              swap1\n              0x01\n              add\n              swap1\n              0x20\n              add\n              dup1\n              dup4\n              gt\n              tag_22\n              jumpi\n              dup3\n              swap1\n              sub\n              0x1f\n              and\n              dup3\n              add\n              swap2\n            tag_20:\n              pop\n              pop\n              pop\n              pop\n              pop\n              swap1\n              dup1\n              0x02\n              add\n              sload\n              swap1\n              dup1\n              0x03\n              add\n              0x00\n              swap1\n              sload\n              swap1\n              0x0100\n              exp\n              swap1\n              div\n              0xffffffffffffffffffffffffffffffffffffffff\n              and\n              swap1\n              pop\n              dup5\n              jump\t// out\n                /* \"Member.sol\":232:555  function registerMember(... */\n            tag_14:\n                /* \"Member.sol\":355:366  uint256 _ID */\n              0x00\n                /* \"Member.sol\":386:387  1 */\n              0x01\n                /* \"Member.sol\":369:376  members */\n              0x00\n                /* \"Member.sol\":369:383  members.length */\n              dup1\n              sload\n              swap1\n              pop\n                /* \"Member.sol\":369:387  members.length + 1 */\n              tag_24\n              swap2\n              swap1\n              tag_25\n              jump\t// in\n            tag_24:\n                /* \"Member.sol\":355:387  uint256 _ID = members.length + 1 */\n              swap1\n              pop\n                /* \"Member.sol\":397:420  Member memory newMember */\n              0x00\n                /* \"Member.sol\":423:514  Member(... */\n              mload(0x40)\n              dup1\n              0x80\n              add\n              0x40\n              mstore\n              dup1\n                /* \"Member.sol\":443:446  _ID */\n              dup4\n                /* \"Member.sol\":423:514  Member(... */\n              dup2\n              mstore\n              0x20\n              add\n                /* \"Member.sol\":460:465  _name */\n              dup7\n                /* \"Member.sol\":423:514  Member(... */\n              dup2\n              mstore\n              0x20\n              add\n                /* \"Member.sol\":479:483  _age */\n              dup6\n                /* \"Member.sol\":423:514  Member(... */\n              dup2\n              mstore\n              0x20\n              add\n                /* \"Member.sol\":497:504  _wallet */\n              dup5\n                /* \"Member.sol\":423:514  Member(... */\n              0xffffffffffffffffffffffffffffffffffffffff\n              and\n              dup2\n              mstore\n              pop\n                /* \"Member.sol\":397:514  Member memory newMember = Member(... */\n              swap1\n              pop\n                /* \"Member.sol\":525:532  members */\n              0x00\n                /* \"Member.sol\":538:547  newMember */\n              dup2\n                /* \"Member.sol\":525:548  members.push(newMember) */\n              swap1\n              dup1\n              0x01\n              dup2\n              sload\n              add\n              dup1\n              dup3\n              sstore\n              dup1\n              swap2\n              pop\n              pop\n              0x01\n              swap1\n              sub\n              swap1\n              0x00\n              mstore\n              keccak256(0x00, 0x20)\n              swap1\n              0x04\n              mul\n              add\n              0x00\n              swap1\n              swap2\n              swap1\n              swap2\n              swap1\n              swap2\n              pop\n              0x00\n              dup3\n              add\n              mload\n              dup2\n              0x00\n              add\n              sstore\n              0x20\n              dup3\n              add\n              mload\n              dup2\n              0x01\n              add\n              swap1\n              dup2\n              tag_27\n              swap2\n              swap1\n              tag_28\n              jump\t// in\n            tag_27:\n              pop\n              0x40\n              dup3\n              add\n              mload\n              dup2\n              0x02\n              add\n              sstore\n              0x60\n              dup3\n              add\n              mload\n              dup2\n              0x03\n              add\n              exp(0x0100, 0x00)\n              dup2\n              sload\n              dup2\n              0xffffffffffffffffffffffffffffffffffffffff\n              mul\n              not\n              and\n              swap1\n              dup4\n              0xffffffffffffffffffffffffffffffffffffffff\n              and\n              mul\n              or\n              swap1\n              sstore\n              pop\n              pop\n              pop\n                /* \"Member.sol\":345:555  {... */\n              pop\n              pop\n                /* \"Member.sol\":232:555  function registerMember(... */\n              pop\n              pop\n              pop\n              jump\t// out\n                /* \"#utility.yul\":7:82   */\n            tag_29:\n                /* \"#utility.yul\":40:46   */\n              0x00\n                /* \"#utility.yul\":73:75   */\n              0x40\n                /* \"#utility.yul\":67:76   */\n              mload\n                /* \"#utility.yul\":57:76   */\n              swap1\n              pop\n                /* \"#utility.yul\":7:82   */\n              swap1\n              jump\t// out\n                /* \"#utility.yul\":88:205   */\n            tag_30:\n                /* \"#utility.yul\":197:198   */\n              0x00\n                /* \"#utility.yul\":194:195   */\n              0x00\n                /* \"#utility.yul\":187:199   */\n              revert\n                /* \"#utility.yul\":211:328   */\n            tag_31:\n                /* \"#utility.yul\":320:321   */\n              0x00\n                /* \"#utility.yul\":317:318   */\n              0x00\n                /* \"#utility.yul\":310:322   */\n              revert\n                /* \"#utility.yul\":334:411   */\n            tag_32:\n                /* \"#utility.yul\":371:378   */\n              0x00\n                /* \"#utility.yul\":400:405   */\n              dup2\n                /* \"#utility.yul\":389:405   */\n              swap1\n              pop\n                /* \"#utility.yul\":334:411   */\n              swap2\n              swap1\n              pop\n              jump\t// out\n                /* \"#utility.yul\":417:539   */\n            tag_33:\n                /* \"#utility.yul\":490:514   */\n              tag_78\n                /* \"#utility.yul\":508:513   */\n              dup2\n                /* \"#utility.yul\":490:514   */\n              tag_32\n              jump\t// in\n            tag_78:\n                /* \"#utility.yul\":483:488   */\n              dup2\n                /* \"#utility.yul\":480:515   */\n              eq\n                /* \"#utility.yul\":470:533   */\n              tag_79\n              jumpi\n                /* \"#utility.yul\":529:530   */\n              0x00\n                /* \"#utility.yul\":526:527   */\n              0x00\n                /* \"#utility.yul\":519:531   */\n              revert\n                /* \"#utility.yul\":470:533   */\n            tag_79:\n                /* \"#utility.yul\":417:539   */\n              pop\n              jump\t// out\n                /* \"#utility.yul\":545:684   */\n            tag_34:\n                /* \"#utility.yul\":591:596   */\n              0x00\n                /* \"#utility.yul\":629:635   */\n              dup2\n                /* \"#utility.yul\":616:636   */\n              calldataload\n                /* \"#utility.yul\":607:636   */\n              swap1\n              pop\n                /* \"#utility.yul\":645:678   */\n              tag_81\n                /* \"#utility.yul\":672:677   */\n              dup2\n                /* \"#utility.yul\":645:678   */\n              tag_33\n              jump\t// in\n            tag_81:\n                /* \"#utility.yul\":545:684   */\n              swap3\n              swap2\n              pop\n              pop\n              jump\t// out\n                /* \"#utility.yul\":690:1019   */\n            tag_7:\n                /* \"#utility.yul\":749:755   */\n              0x00\n                /* \"#utility.yul\":798:800   */\n              0x20\n                /* \"#utility.yul\":786:795   */\n              dup3\n                /* \"#utility.yul\":777:784   */\n              dup5\n                /* \"#utility.yul\":773:796   */\n              sub\n                /* \"#utility.yul\":769:801   */\n              slt\n                /* \"#utility.yul\":766:885   */\n              iszero\n              tag_83\n              jumpi\n                /* \"#utility.yul\":804:883   */\n              tag_84\n              tag_30\n              jump\t// in\n            tag_84:\n                /* \"#utility.yul\":766:885   */\n            tag_83:\n                /* \"#utility.yul\":924:925   */\n              0x00\n                /* \"#utility.yul\":949:1002   */\n              tag_85\n                /* \"#utility.yul\":994:1001   */\n              dup5\n                /* \"#utility.yul\":985:991   */\n              dup3\n                /* \"#utility.yul\":974:983   */\n              dup6\n                /* \"#utility.yul\":970:992   */\n              add\n                /* \"#utility.yul\":949:1002   */\n              tag_34\n              jump\t// in\n            tag_85:\n                /* \"#utility.yul\":939:1002   */\n              swap2\n              pop\n                /* \"#utility.yul\":895:1012   */\n              pop\n                /* \"#utility.yul\":690:1019   */\n              swap3\n              swap2\n              pop\n              pop\n              jump\t// out\n                /* \"#utility.yul\":1025:1143   */\n            tag_35:\n                /* \"#utility.yul\":1112:1136   */\n              tag_87\n                /* \"#utility.yul\":1130:1135   */\n              dup2\n                /* \"#utility.yul\":1112:1136   */\n              tag_32\n              jump\t// in\n            tag_87:\n                /* \"#utility.yul\":1107:1110   */\n              dup3\n                /* \"#utility.yul\":1100:1137   */\n              mstore\n                /* \"#utility.yul\":1025:1143   */\n              pop\n              pop\n              jump\t// out\n                /* \"#utility.yul\":1149:1248   */\n            tag_36:\n                /* \"#utility.yul\":1201:1207   */\n              0x00\n                /* \"#utility.yul\":1235:1240   */\n              dup2\n                /* \"#utility.yul\":1229:1241   */\n              mload\n                /* \"#utility.yul\":1219:1241   */\n              swap1\n              pop\n                /* \"#utility.yul\":1149:1248   */\n              swap2\n              swap1\n              pop\n              jump\t// out\n                /* \"#utility.yul\":1254:1423   */\n            tag_37:\n                /* \"#utility.yul\":1338:1349   */\n              0x00\n                /* \"#utility.yul\":1372:1378   */\n              dup3\n                /* \"#utility.yul\":1367:1370   */\n              dup3\n                /* \"#utility.yul\":1360:1379   */\n              mstore\n                /* \"#utility.yul\":1412:1416   */\n              0x20\n                /* \"#utility.yul\":1407:1410   */\n              dup3\n                /* \"#utility.yul\":1403:1417   */\n              add\n                /* \"#utility.yul\":1388:1417   */\n              swap1\n              pop\n                /* \"#utility.yul\":1254:1423   */\n              swap3\n              swap2\n              pop\n              pop\n              jump\t// out\n                /* \"#utility.yul\":1429:1568   */\n            tag_38:\n                /* \"#utility.yul\":1518:1524   */\n              dup3\n                /* \"#utility.yul\":1513:1516   */\n              dup2\n                /* \"#utility.yul\":1508:1511   */\n              dup4\n                /* \"#utility.yul\":1502:1525   */\n              mcopy\n                /* \"#utility.yul\":1559:1560   */\n              0x00\n                /* \"#utility.yul\":1550:1556   */\n              dup4\n                /* \"#utility.yul\":1545:1548   */\n              dup4\n                /* \"#utility.yul\":1541:1557   */\n              add\n                /* \"#utility.yul\":1534:1561   */\n              mstore\n                /* \"#utility.yul\":1429:1568   */\n              pop\n              pop\n              pop\n              jump\t// out\n                /* \"#utility.yul\":1574:1676   */\n            tag_39:\n                /* \"#utility.yul\":1615:1621   */\n              0x00\n                /* \"#utility.yul\":1666:1668   */\n              0x1f\n                /* \"#utility.yul\":1662:1669   */\n              not\n                /* \"#utility.yul\":1657:1659   */\n              0x1f\n                /* \"#utility.yul\":1650:1655   */\n              dup4\n                /* \"#utility.yul\":1646:1660   */\n              add\n                /* \"#utility.yul\":1642:1670   */\n              and\n                /* \"#utility.yul\":1632:1670   */\n              swap1\n              pop\n                /* \"#utility.yul\":1574:1676   */\n              swap2\n              swap1\n              pop\n              jump\t// out\n                /* \"#utility.yul\":1682:2059   */\n            tag_40:\n                /* \"#utility.yul\":1770:1773   */\n              0x00\n                /* \"#utility.yul\":1798:1837   */\n              tag_93\n                /* \"#utility.yul\":1831:1836   */\n              dup3\n                /* \"#utility.yul\":1798:1837   */\n              tag_36\n              jump\t// in\n            tag_93:\n                /* \"#utility.yul\":1853:1924   */\n              tag_94\n                /* \"#utility.yul\":1917:1923   */\n              dup2\n                /* \"#utility.yul\":1912:1915   */\n              dup6\n                /* \"#utility.yul\":1853:1924   */\n              tag_37\n              jump\t// in\n            tag_94:\n                /* \"#utility.yul\":1846:1924   */\n              swap4\n              pop\n                /* \"#utility.yul\":1933:1998   */\n              tag_95\n                /* \"#utility.yul\":1991:1997   */\n              dup2\n                /* \"#utility.yul\":1986:1989   */\n              dup6\n                /* \"#utility.yul\":1979:1983   */\n              0x20\n                /* \"#utility.yul\":1972:1977   */\n              dup7\n                /* \"#utility.yul\":1968:1984   */\n              add\n                /* \"#utility.yul\":1933:1998   */\n              tag_38\n              jump\t// in\n            tag_95:\n                /* \"#utility.yul\":2023:2052   */\n              tag_96\n                /* \"#utility.yul\":2045:2051   */\n              dup2\n                /* \"#utility.yul\":2023:2052   */\n              tag_39\n              jump\t// in\n            tag_96:\n                /* \"#utility.yul\":2018:2021   */\n              dup5\n                /* \"#utility.yul\":2014:2053   */\n              add\n                /* \"#utility.yul\":2007:2053   */\n              swap2\n              pop\n                /* \"#utility.yul\":1774:2059   */\n              pop\n                /* \"#utility.yul\":1682:2059   */\n              swap3\n              swap2\n              pop\n              pop\n              jump\t// out\n                /* \"#utility.yul\":2065:2191   */\n            tag_41:\n                /* \"#utility.yul\":2102:2109   */\n              0x00\n                /* \"#utility.yul\":2142:2184   */\n              0xffffffffffffffffffffffffffffffffffffffff\n                /* \"#utility.yul\":2135:2140   */\n              dup3\n                /* \"#utility.yul\":2131:2185   */\n              and\n                /* \"#utility.yul\":2120:2185   */\n              swap1\n              pop\n                /* \"#utility.yul\":2065:2191   */\n              swap2\n              swap1\n              pop\n              jump\t// out\n                /* \"#utility.yul\":2197:2293   */\n            tag_42:\n                /* \"#utility.yul\":2234:2241   */\n              0x00\n                /* \"#utility.yul\":2263:2287   */\n              tag_99\n                /* \"#utility.yul\":2281:2286   */\n              dup3\n                /* \"#utility.yul\":2263:2287   */\n              tag_41\n              jump\t// in\n            tag_99:\n                /* \"#utility.yul\":2252:2287   */\n              swap1\n              pop\n                /* \"#utility.yul\":2197:2293   */\n              swap2\n              swap1\n              pop\n              jump\t// out\n                /* \"#utility.yul\":2299:2417   */\n            tag_43:\n                /* \"#utility.yul\":2386:2410   */\n              tag_101\n                /* \"#utility.yul\":2404:2409   */\n              dup2\n                /* \"#utility.yul\":2386:2410   */\n              tag_42\n              jump\t// in\n            tag_101:\n                /* \"#utility.yul\":2381:2384   */\n              dup3\n                /* \"#utility.yul\":2374:2411   */\n              mstore\n                /* \"#utility.yul\":2299:2417   */\n              pop\n              pop\n              jump\t// out\n                /* \"#utility.yul\":2423:3067   */\n            tag_10:\n                /* \"#utility.yul\":2620:2624   */\n              0x00\n                /* \"#utility.yul\":2658:2661   */\n              0x80\n                /* \"#utility.yul\":2647:2656   */\n              dup3\n                /* \"#utility.yul\":2643:2662   */\n              add\n                /* \"#utility.yul\":2635:2662   */\n              swap1\n              pop\n                /* \"#utility.yul\":2672:2743   */\n              tag_103\n                /* \"#utility.yul\":2740:2741   */\n              0x00\n                /* \"#utility.yul\":2729:2738   */\n              dup4\n                /* \"#utility.yul\":2725:2742   */\n              add\n                /* \"#utility.yul\":2716:2722   */\n              dup8\n                /* \"#utility.yul\":2672:2743   */\n              tag_35\n              jump\t// in\n            tag_103:\n                /* \"#utility.yul\":2790:2799   */\n              dup2\n                /* \"#utility.yul\":2784:2788   */\n              dup2\n                /* \"#utility.yul\":2780:2800   */\n              sub\n                /* \"#utility.yul\":2775:2777   */\n              0x20\n                /* \"#utility.yul\":2764:2773   */\n              dup4\n                /* \"#utility.yul\":2760:2778   */\n              add\n                /* \"#utility.yul\":2753:2801   */\n              mstore\n                /* \"#utility.yul\":2818:2896   */\n              tag_104\n                /* \"#utility.yul\":2891:2895   */\n              dup2\n                /* \"#utility.yul\":2882:2888   */\n              dup7\n                /* \"#utility.yul\":2818:2896   */\n              tag_40\n              jump\t// in\n            tag_104:\n                /* \"#utility.yul\":2810:2896   */\n              swap1\n              pop\n                /* \"#utility.yul\":2906:2978   */\n              tag_105\n                /* \"#utility.yul\":2974:2976   */\n              0x40\n                /* \"#utility.yul\":2963:2972   */\n              dup4\n                /* \"#utility.yul\":2959:2977   */\n              add\n                /* \"#utility.yul\":2950:2956   */\n              dup6\n                /* \"#utility.yul\":2906:2978   */\n              tag_35\n              jump\t// in\n            tag_105:\n                /* \"#utility.yul\":2988:3060   */\n              tag_106\n                /* \"#utility.yul\":3056:3058   */\n              0x60\n                /* \"#utility.yul\":3045:3054   */\n              dup4\n                /* \"#utility.yul\":3041:3059   */\n              add\n                /* \"#utility.yul\":3032:3038   */\n              dup5\n                /* \"#utility.yul\":2988:3060   */\n              tag_43\n              jump\t// in\n            tag_106:\n                /* \"#utility.yul\":2423:3067   */\n              swap6\n              swap5\n              pop\n              pop\n              pop\n              pop\n              pop\n              jump\t// out\n                /* \"#utility.yul\":3073:3190   */\n            tag_44:\n                /* \"#utility.yul\":3182:3183   */\n              0x00\n                /* \"#utility.yul\":3179:3180   */\n              0x00\n                /* \"#utility.yul\":3172:3184   */\n              revert\n                /* \"#utility.yul\":3196:3313   */\n            tag_45:\n                /* \"#utility.yul\":3305:3306   */\n              0x00\n                /* \"#utility.yul\":3302:3303   */\n              0x00\n                /* \"#utility.yul\":3295:3307   */\n              revert\n                /* \"#utility.yul\":3319:3499   */\n            tag_46:\n                /* \"#utility.yul\":3367:3444   */\n              0x4e487b7100000000000000000000000000000000000000000000000000000000\n                /* \"#utility.yul\":3364:3365   */\n              0x00\n                /* \"#utility.yul\":3357:3445   */\n              mstore\n                /* \"#utility.yul\":3464:3468   */\n              0x41\n                /* \"#utility.yul\":3461:3462   */\n              0x04\n                /* \"#utility.yul\":3454:3469   */\n              mstore\n                /* \"#utility.yul\":3488:3492   */\n              0x24\n                /* \"#utility.yul\":3485:3486   */\n              0x00\n                /* \"#utility.yul\":3478:3493   */\n              revert\n                /* \"#utility.yul\":3505:3786   */\n            tag_47:\n                /* \"#utility.yul\":3588:3615   */\n              tag_111\n                /* \"#utility.yul\":3610:3614   */\n              dup3\n                /* \"#utility.yul\":3588:3615   */\n              tag_39\n              jump\t// in\n            tag_111:\n                /* \"#utility.yul\":3580:3586   */\n              dup2\n                /* \"#utility.yul\":3576:3616   */\n              add\n                /* \"#utility.yul\":3718:3724   */\n              dup2\n                /* \"#utility.yul\":3706:3716   */\n              dup2\n                /* \"#utility.yul\":3703:3725   */\n              lt\n                /* \"#utility.yul\":3682:3700   */\n              0xffffffffffffffff\n                /* \"#utility.yul\":3670:3680   */\n              dup3\n                /* \"#utility.yul\":3667:3701   */\n              gt\n                /* \"#utility.yul\":3664:3726   */\n              or\n                /* \"#utility.yul\":3661:3749   */\n              iszero\n              tag_112\n              jumpi\n                /* \"#utility.yul\":3729:3747   */\n              tag_113\n              tag_46\n              jump\t// in\n            tag_113:\n                /* \"#utility.yul\":3661:3749   */\n            tag_112:\n                /* \"#utility.yul\":3769:3779   */\n              dup1\n                /* \"#utility.yul\":3765:3767   */\n              0x40\n                /* \"#utility.yul\":3758:3780   */\n              mstore\n                /* \"#utility.yul\":3548:3786   */\n              pop\n                /* \"#utility.yul\":3505:3786   */\n              pop\n              pop\n              jump\t// out\n                /* \"#utility.yul\":3792:3921   */\n            tag_48:\n                /* \"#utility.yul\":3826:3832   */\n              0x00\n                /* \"#utility.yul\":3853:3873   */\n              tag_115\n              tag_29\n              jump\t// in\n            tag_115:\n                /* \"#utility.yul\":3843:3873   */\n              swap1\n              pop\n                /* \"#utility.yul\":3882:3915   */\n              tag_116\n                /* \"#utility.yul\":3910:3914   */\n              dup3\n                /* \"#utility.yul\":3902:3908   */\n              dup3\n                /* \"#utility.yul\":3882:3915   */\n              tag_47\n              jump\t// in\n            tag_116:\n                /* \"#utility.yul\":3792:3921   */\n              swap2\n              swap1\n              pop\n              jump\t// out\n                /* \"#utility.yul\":3927:4235   */\n            tag_49:\n                /* \"#utility.yul\":3989:3993   */\n              0x00\n                /* \"#utility.yul\":4079:4097   */\n              0xffffffffffffffff\n                /* \"#utility.yul\":4071:4077   */\n              dup3\n                /* \"#utility.yul\":4068:4098   */\n              gt\n                /* \"#utility.yul\":4065:4121   */\n              iszero\n              tag_118\n              jumpi\n                /* \"#utility.yul\":4101:4119   */\n              tag_119\n              tag_46\n              jump\t// in\n            tag_119:\n                /* \"#utility.yul\":4065:4121   */\n            tag_118:\n                /* \"#utility.yul\":4139:4168   */\n              tag_120\n                /* \"#utility.yul\":4161:4167   */\n              dup3\n                /* \"#utility.yul\":4139:4168   */\n              tag_39\n              jump\t// in\n            tag_120:\n                /* \"#utility.yul\":4131:4168   */\n              swap1\n              pop\n                /* \"#utility.yul\":4223:4227   */\n              0x20\n                /* \"#utility.yul\":4217:4221   */\n              dup2\n                /* \"#utility.yul\":4213:4228   */\n              add\n                /* \"#utility.yul\":4205:4228   */\n              swap1\n              pop\n                /* \"#utility.yul\":3927:4235   */\n              swap2\n              swap1\n              pop\n              jump\t// out\n                /* \"#utility.yul\":4241:4389   */\n            tag_50:\n                /* \"#utility.yul\":4339:4345   */\n              dup3\n                /* \"#utility.yul\":4334:4337   */\n              dup2\n                /* \"#utility.yul\":4329:4332   */\n              dup4\n                /* \"#utility.yul\":4316:4346   */\n              calldatacopy\n                /* \"#utility.yul\":4380:4381   */\n              0x00\n                /* \"#utility.yul\":4371:4377   */\n              dup4\n                /* \"#utility.yul\":4366:4369   */\n              dup4\n                /* \"#utility.yul\":4362:4378   */\n              add\n                /* \"#utility.yul\":4355:4382   */\n              mstore\n                /* \"#utility.yul\":4241:4389   */\n              pop\n              pop\n              pop\n              jump\t// out\n                /* \"#utility.yul\":4395:4820   */\n            tag_51:\n                /* \"#utility.yul\":4473:4478   */\n              0x00\n                /* \"#utility.yul\":4498:4564   */\n              tag_123\n                /* \"#utility.yul\":4514:4563   */\n              tag_124\n                /* \"#utility.yul\":4556:4562   */\n              dup5\n                /* \"#utility.yul\":4514:4563   */\n              tag_49\n              jump\t// in\n            tag_124:\n                /* \"#utility.yul\":4498:4564   */\n              tag_48\n              jump\t// in\n            tag_123:\n                /* \"#utility.yul\":4489:4564   */\n              swap1\n              pop\n                /* \"#utility.yul\":4587:4593   */\n              dup3\n                /* \"#utility.yul\":4580:4585   */\n              dup2\n                /* \"#utility.yul\":4573:4594   */\n              mstore\n                /* \"#utility.yul\":4625:4629   */\n              0x20\n                /* \"#utility.yul\":4618:4623   */\n              dup2\n                /* \"#utility.yul\":4614:4630   */\n              add\n                /* \"#utility.yul\":4663:4666   */\n              dup5\n                /* \"#utility.yul\":4654:4660   */\n              dup5\n                /* \"#utility.yul\":4649:4652   */\n              dup5\n                /* \"#utility.yul\":4645:4661   */\n              add\n                /* \"#utility.yul\":4642:4667   */\n              gt\n                /* \"#utility.yul\":4639:4751   */\n              iszero\n              tag_125\n              jumpi\n                /* \"#utility.yul\":4670:4749   */\n              tag_126\n              tag_45\n              jump\t// in\n            tag_126:\n                /* \"#utility.yul\":4639:4751   */\n            tag_125:\n                /* \"#utility.yul\":4760:4814   */\n              tag_127\n                /* \"#utility.yul\":4807:4813   */\n              dup5\n                /* \"#utility.yul\":4802:4805   */\n              dup3\n                /* \"#utility.yul\":4797:4800   */\n              dup6\n                /* \"#utility.yul\":4760:4814   */\n              tag_50\n              jump\t// in\n            tag_127:\n                /* \"#utility.yul\":4479:4820   */\n              pop\n                /* \"#utility.yul\":4395:4820   */\n              swap4\n              swap3\n              pop\n              pop\n              pop\n              jump\t// out\n                /* \"#utility.yul\":4840:5180   */\n            tag_52:\n                /* \"#utility.yul\":4896:4901   */\n              0x00\n                /* \"#utility.yul\":4945:4948   */\n              dup3\n                /* \"#utility.yul\":4938:4942   */\n              0x1f\n                /* \"#utility.yul\":4930:4936   */\n              dup4\n                /* \"#utility.yul\":4926:4943   */\n              add\n                /* \"#utility.yul\":4922:4949   */\n              slt\n                /* \"#utility.yul\":4912:5034   */\n              tag_129\n              jumpi\n                /* \"#utility.yul\":4953:5032   */\n              tag_130\n              tag_44\n              jump\t// in\n            tag_130:\n                /* \"#utility.yul\":4912:5034   */\n            tag_129:\n                /* \"#utility.yul\":5070:5076   */\n              dup2\n                /* \"#utility.yul\":5057:5077   */\n              calldataload\n                /* \"#utility.yul\":5095:5174   */\n              tag_131\n                /* \"#utility.yul\":5170:5173   */\n              dup5\n                /* \"#utility.yul\":5162:5168   */\n              dup3\n                /* \"#utility.yul\":5155:5159   */\n              0x20\n                /* \"#utility.yul\":5147:5153   */\n              dup7\n                /* \"#utility.yul\":5143:5160   */\n              add\n                /* \"#utility.yul\":5095:5174   */\n              tag_51\n              jump\t// in\n            tag_131:\n                /* \"#utility.yul\":5086:5174   */\n              swap2\n              pop\n                /* \"#utility.yul\":4902:5180   */\n              pop\n                /* \"#utility.yul\":4840:5180   */\n              swap3\n              swap2\n              pop\n              pop\n              jump\t// out\n                /* \"#utility.yul\":5186:5308   */\n            tag_53:\n                /* \"#utility.yul\":5259:5283   */\n              tag_133\n                /* \"#utility.yul\":5277:5282   */\n              dup2\n                /* \"#utility.yul\":5259:5283   */\n              tag_42\n              jump\t// in\n            tag_133:\n                /* \"#utility.yul\":5252:5257   */\n              dup2\n                /* \"#utility.yul\":5249:5284   */\n              eq\n                /* \"#utility.yul\":5239:5302   */\n              tag_134\n              jumpi\n                /* \"#utility.yul\":5298:5299   */\n              0x00\n                /* \"#utility.yul\":5295:5296   */\n              0x00\n                /* \"#utility.yul\":5288:5300   */\n              revert\n                /* \"#utility.yul\":5239:5302   */\n            tag_134:\n                /* \"#utility.yul\":5186:5308   */\n              pop\n              jump\t// out\n                /* \"#utility.yul\":5314:5453   */\n            tag_54:\n                /* \"#utility.yul\":5360:5365   */\n              0x00\n                /* \"#utility.yul\":5398:5404   */\n              dup2\n                /* \"#utility.yul\":5385:5405   */\n              calldataload\n                /* \"#utility.yul\":5376:5405   */\n              swap1\n              pop\n                /* \"#utility.yul\":5414:5447   */\n              tag_136\n                /* \"#utility.yul\":5441:5446   */\n              dup2\n                /* \"#utility.yul\":5414:5447   */\n              tag_53\n              jump\t// in\n            tag_136:\n                /* \"#utility.yul\":5314:5453   */\n              swap3\n              swap2\n              pop\n              pop\n              jump\t// out\n                /* \"#utility.yul\":5459:6258   */\n            tag_13:\n                /* \"#utility.yul\":5546:5552   */\n              0x00\n                /* \"#utility.yul\":5554:5560   */\n              0x00\n                /* \"#utility.yul\":5562:5568   */\n              0x00\n                /* \"#utility.yul\":5611:5613   */\n              0x60\n                /* \"#utility.yul\":5599:5608   */\n              dup5\n                /* \"#utility.yul\":5590:5597   */\n              dup7\n                /* \"#utility.yul\":5586:5609   */\n              sub\n                /* \"#utility.yul\":5582:5614   */\n              slt\n                /* \"#utility.yul\":5579:5698   */\n              iszero\n              tag_138\n              jumpi\n                /* \"#utility.yul\":5617:5696   */\n              tag_139\n              tag_30\n              jump\t// in\n            tag_139:\n                /* \"#utility.yul\":5579:5698   */\n            tag_138:\n                /* \"#utility.yul\":5765:5766   */\n              0x00\n                /* \"#utility.yul\":5754:5763   */\n              dup5\n                /* \"#utility.yul\":5750:5767   */\n              add\n                /* \"#utility.yul\":5737:5768   */\n              calldataload\n                /* \"#utility.yul\":5795:5813   */\n              0xffffffffffffffff\n                /* \"#utility.yul\":5787:5793   */\n              dup2\n                /* \"#utility.yul\":5784:5814   */\n              gt\n                /* \"#utility.yul\":5781:5898   */\n              iszero\n              tag_140\n              jumpi\n                /* \"#utility.yul\":5817:5896   */\n              tag_141\n              tag_31\n              jump\t// in\n            tag_141:\n                /* \"#utility.yul\":5781:5898   */\n            tag_140:\n                /* \"#utility.yul\":5922:5985   */\n              tag_142\n                /* \"#utility.yul\":5977:5984   */\n              dup7\n                /* \"#utility.yul\":5968:5974   */\n              dup3\n                /* \"#utility.yul\":5957:5966   */\n              dup8\n                /* \"#utility.yul\":5953:5975   */\n              add\n                /* \"#utility.yul\":5922:5985   */\n              tag_52\n              jump\t// in\n            tag_142:\n                /* \"#utility.yul\":5912:5985   */\n              swap4\n              pop\n                /* \"#utility.yul\":5708:5995   */\n              pop\n                /* \"#utility.yul\":6034:6036   */\n              0x20\n                /* \"#utility.yul\":6060:6113   */\n              tag_143\n                /* \"#utility.yul\":6105:6112   */\n              dup7\n                /* \"#utility.yul\":6096:6102   */\n              dup3\n                /* \"#utility.yul\":6085:6094   */\n              dup8\n                /* \"#utility.yul\":6081:6103   */\n              add\n                /* \"#utility.yul\":6060:6113   */\n              tag_34\n              jump\t// in\n            tag_143:\n                /* \"#utility.yul\":6050:6113   */\n              swap3\n              pop\n                /* \"#utility.yul\":6005:6123   */\n              pop\n                /* \"#utility.yul\":6162:6164   */\n              0x40\n                /* \"#utility.yul\":6188:6241   */\n              tag_144\n                /* \"#utility.yul\":6233:6240   */\n              dup7\n                /* \"#utility.yul\":6224:6230   */\n              dup3\n                /* \"#utility.yul\":6213:6222   */\n              dup8\n                /* \"#utility.yul\":6209:6231   */\n              add\n                /* \"#utility.yul\":6188:6241   */\n              tag_54\n              jump\t// in\n            tag_144:\n                /* \"#utility.yul\":6178:6241   */\n              swap2\n              pop\n                /* \"#utility.yul\":6133:6251   */\n              pop\n                /* \"#utility.yul\":5459:6258   */\n              swap3\n              pop\n              swap3\n              pop\n              swap3\n              jump\t// out\n                /* \"#utility.yul\":6264:6444   */\n            tag_55:\n                /* \"#utility.yul\":6312:6389   */\n              0x4e487b7100000000000000000000000000000000000000000000000000000000\n                /* \"#utility.yul\":6309:6310   */\n              0x00\n                /* \"#utility.yul\":6302:6390   */\n              mstore\n                /* \"#utility.yul\":6409:6413   */\n              0x22\n                /* \"#utility.yul\":6406:6407   */\n              0x04\n                /* \"#utility.yul\":6399:6414   */\n              mstore\n                /* \"#utility.yul\":6433:6437   */\n              0x24\n                /* \"#utility.yul\":6430:6431   */\n              0x00\n                /* \"#utility.yul\":6423:6438   */\n              revert\n                /* \"#utility.yul\":6450:6770   */\n            tag_18:\n                /* \"#utility.yul\":6494:6500   */\n              0x00\n                /* \"#utility.yul\":6531:6532   */\n              0x02\n                /* \"#utility.yul\":6525:6529   */\n              dup3\n                /* \"#utility.yul\":6521:6533   */\n              div\n                /* \"#utility.yul\":6511:6533   */\n              swap1\n              pop\n                /* \"#utility.yul\":6578:6579   */\n              0x01\n                /* \"#utility.yul\":6572:6576   */\n              dup3\n                /* \"#utility.yul\":6568:6580   */\n              and\n                /* \"#utility.yul\":6599:6617   */\n              dup1\n                /* \"#utility.yul\":6589:6670   */\n              tag_147\n              jumpi\n                /* \"#utility.yul\":6655:6659   */\n              0x7f\n                /* \"#utility.yul\":6647:6653   */\n              dup3\n                /* \"#utility.yul\":6643:6660   */\n              and\n                /* \"#utility.yul\":6633:6660   */\n              swap2\n              pop\n                /* \"#utility.yul\":6589:6670   */\n            tag_147:\n                /* \"#utility.yul\":6717:6719   */\n              0x20\n                /* \"#utility.yul\":6709:6715   */\n              dup3\n                /* \"#utility.yul\":6706:6720   */\n              lt\n                /* \"#utility.yul\":6686:6704   */\n              dup2\n                /* \"#utility.yul\":6683:6721   */\n              sub\n                /* \"#utility.yul\":6680:6764   */\n              tag_148\n              jumpi\n                /* \"#utility.yul\":6736:6754   */\n              tag_149\n              tag_55\n              jump\t// in\n            tag_149:\n                /* \"#utility.yul\":6680:6764   */\n            tag_148:\n                /* \"#utility.yul\":6501:6770   */\n              pop\n                /* \"#utility.yul\":6450:6770   */\n              swap2\n              swap1\n              pop\n              jump\t// out\n                /* \"#utility.yul\":6776:6956   */\n            tag_56:\n                /* \"#utility.yul\":6824:6901   */\n              0x4e487b7100000000000000000000000000000000000000000000000000000000\n                /* \"#utility.yul\":6821:6822   */\n              0x00\n                /* \"#utility.yul\":6814:6902   */\n              mstore\n                /* \"#utility.yul\":6921:6925   */\n              0x11\n                /* \"#utility.yul\":6918:6919   */\n              0x04\n                /* \"#utility.yul\":6911:6926   */\n              mstore\n                /* \"#utility.yul\":6945:6949   */\n              0x24\n                /* \"#utility.yul\":6942:6943   */\n              0x00\n                /* \"#utility.yul\":6935:6950   */\n              revert\n                /* \"#utility.yul\":6962:7153   */\n            tag_25:\n                /* \"#utility.yul\":7002:7005   */\n              0x00\n                /* \"#utility.yul\":7021:7041   */\n              tag_152\n                /* \"#utility.yul\":7039:7040   */\n              dup3\n                /* \"#utility.yul\":7021:7041   */\n              tag_32\n              jump\t// in\n            tag_152:\n                /* \"#utility.yul\":7016:7041   */\n              swap2\n              pop\n                /* \"#utility.yul\":7055:7075   */\n              tag_153\n                /* \"#utility.yul\":7073:7074   */\n              dup4\n                /* \"#utility.yul\":7055:7075   */\n              tag_32\n              jump\t// in\n            tag_153:\n                /* \"#utility.yul\":7050:7075   */\n              swap3\n              pop\n                /* \"#utility.yul\":7098:7099   */\n              dup3\n                /* \"#utility.yul\":7095:7096   */\n              dup3\n                /* \"#utility.yul\":7091:7100   */\n              add\n                /* \"#utility.yul\":7084:7100   */\n              swap1\n              pop\n                /* \"#utility.yul\":7119:7122   */\n              dup1\n                /* \"#utility.yul\":7116:7117   */\n              dup3\n                /* \"#utility.yul\":7113:7123   */\n              gt\n                /* \"#utility.yul\":7110:7146   */\n              iszero\n              tag_154\n              jumpi\n                /* \"#utility.yul\":7126:7144   */\n              tag_155\n              tag_56\n              jump\t// in\n            tag_155:\n                /* \"#utility.yul\":7110:7146   */\n            tag_154:\n                /* \"#utility.yul\":6962:7153   */\n              swap3\n              swap2\n              pop\n              pop\n              jump\t// out\n                /* \"#utility.yul\":7159:7300   */\n            tag_57:\n                /* \"#utility.yul\":7208:7212   */\n              0x00\n                /* \"#utility.yul\":7231:7234   */\n              dup2\n                /* \"#utility.yul\":7223:7234   */\n              swap1\n              pop\n                /* \"#utility.yul\":7254:7257   */\n              dup2\n                /* \"#utility.yul\":7251:7252   */\n              0x00\n                /* \"#utility.yul\":7244:7258   */\n              mstore\n                /* \"#utility.yul\":7288:7292   */\n              0x20\n                /* \"#utility.yul\":7285:7286   */\n              0x00\n                /* \"#utility.yul\":7275:7293   */\n              keccak256\n                /* \"#utility.yul\":7267:7293   */\n              swap1\n              pop\n                /* \"#utility.yul\":7159:7300   */\n              swap2\n              swap1\n              pop\n              jump\t// out\n                /* \"#utility.yul\":7306:7399   */\n            tag_58:\n                /* \"#utility.yul\":7343:7349   */\n              0x00\n                /* \"#utility.yul\":7390:7392   */\n              0x20\n                /* \"#utility.yul\":7385:7387   */\n              0x1f\n                /* \"#utility.yul\":7378:7383   */\n              dup4\n                /* \"#utility.yul\":7374:7388   */\n              add\n                /* \"#utility.yul\":7370:7393   */\n              div\n                /* \"#utility.yul\":7360:7393   */\n              swap1\n              pop\n                /* \"#utility.yul\":7306:7399   */\n              swap2\n              swap1\n              pop\n              jump\t// out\n                /* \"#utility.yul\":7405:7512   */\n            tag_59:\n                /* \"#utility.yul\":7449:7457   */\n              0x00\n                /* \"#utility.yul\":7499:7504   */\n              dup3\n                /* \"#utility.yul\":7493:7497   */\n              dup3\n                /* \"#utility.yul\":7489:7505   */\n              shl\n                /* \"#utility.yul\":7468:7505   */\n              swap1\n              pop\n                /* \"#utility.yul\":7405:7512   */\n              swap3\n              swap2\n              pop\n              pop\n              jump\t// out\n                /* \"#utility.yul\":7518:7911   */\n            tag_60:\n                /* \"#utility.yul\":7587:7593   */\n              0x00\n                /* \"#utility.yul\":7637:7638   */\n              0x08\n                /* \"#utility.yul\":7625:7635   */\n              dup4\n                /* \"#utility.yul\":7621:7639   */\n              mul\n                /* \"#utility.yul\":7660:7757   */\n              tag_160\n                /* \"#utility.yul\":7690:7756   */\n              0xffffffffffffffffffffffffffffffffffffffffffffffffffffffffffffffff\n                /* \"#utility.yul\":7679:7688   */\n              dup3\n                /* \"#utility.yul\":7660:7757   */\n              tag_59\n              jump\t// in\n            tag_160:\n                /* \"#utility.yul\":7778:7817   */\n              tag_161\n                /* \"#utility.yul\":7808:7816   */\n              dup7\n                /* \"#utility.yul\":7797:7806   */\n              dup4\n                /* \"#utility.yul\":7778:7817   */\n              tag_59\n              jump\t// in\n            tag_161:\n                /* \"#utility.yul\":7766:7817   */\n              swap6\n              pop\n                /* \"#utility.yul\":7850:7854   */\n              dup1\n                /* \"#utility.yul\":7846:7855   */\n              not\n                /* \"#utility.yul\":7839:7844   */\n              dup5\n                /* \"#utility.yul\":7835:7856   */\n              and\n                /* \"#utility.yul\":7826:7856   */\n              swap4\n              pop\n                /* \"#utility.yul\":7899:7903   */\n              dup1\n                /* \"#utility.yul\":7889:7897   */\n              dup7\n                /* \"#utility.yul\":7885:7904   */\n              and\n                /* \"#utility.yul\":7878:7883   */\n              dup5\n                /* \"#utility.yul\":7875:7905   */\n              or\n                /* \"#utility.yul\":7865:7905   */\n              swap3\n              pop\n                /* \"#utility.yul\":7594:7911   */\n              pop\n              pop\n                /* \"#utility.yul\":7518:7911   */\n              swap4\n              swap3\n              pop\n              pop\n              pop\n              jump\t// out\n                /* \"#utility.yul\":7917:7977   */\n            tag_61:\n                /* \"#utility.yul\":7945:7948   */\n              0x00\n                /* \"#utility.yul\":7966:7971   */\n              dup2\n                /* \"#utility.yul\":7959:7971   */\n              swap1\n              pop\n                /* \"#utility.yul\":7917:7977   */\n              swap2\n              swap1\n              pop\n              jump\t// out\n                /* \"#utility.yul\":7983:8125   */\n            tag_62:\n                /* \"#utility.yul\":8033:8042   */\n              0x00\n                /* \"#utility.yul\":8066:8119   */\n              tag_164\n                /* \"#utility.yul\":8084:8118   */\n              tag_165\n                /* \"#utility.yul\":8093:8117   */\n              tag_166\n                /* \"#utility.yul\":8111:8116   */\n              dup5\n                /* \"#utility.yul\":8093:8117   */\n              tag_32\n              jump\t// in\n            tag_166:\n                /* \"#utility.yul\":8084:8118   */\n              tag_61\n              jump\t// in\n            tag_165:\n                /* \"#utility.yul\":8066:8119   */\n              tag_32\n              jump\t// in\n            tag_164:\n                /* \"#utility.yul\":8053:8119   */\n              swap1\n              pop\n                /* \"#utility.yul\":7983:8125   */\n              swap2\n              swap1\n              pop\n              jump\t// out\n                /* \"#utility.yul\":8131:8206   */\n            tag_63:\n                /* \"#utility.yul\":8174:8177   */\n              0x00\n                /* \"#utility.yul\":8195:8200   */\n              dup2\n                /* \"#utility.yul\":8188:8200   */\n              swap1\n              pop\n                /* \"#utility.yul\":8131:8206   */\n              swap2\n              swap1\n              pop\n              jump\t// out\n                /* \"#utility.yul\":8212:8481   */\n            tag_64:\n                /* \"#utility.yul\":8322:8361   */\n              tag_169\n                /* \"#utility.yul\":8353:8360   */\n              dup4\n                /* \"#utility.yul\":8322:8361   */\n              tag_62\n              jump\t// in\n            tag_169:\n                /* \"#utility.yul\":8383:8474   */\n              tag_170\n                /* \"#utility.yul\":8432:8473   */\n              tag_171\n                /* \"#utility.yul\":8456:8472   */\n              dup3\n                /* \"#utility.yul\":8432:8473   */\n              tag_63\n              jump\t// in\n            tag_171:\n                /* \"#utility.yul\":8424:8430   */\n              dup5\n                /* \"#utility.yul\":8417:8421   */\n              dup5\n                /* \"#utility.yul\":8411:8422   */\n              sload\n                /* \"#utility.yul\":8383:8474   */\n              tag_60\n              jump\t// in\n            tag_170:\n                /* \"#utility.yul\":8377:8381   */\n              dup3\n                /* \"#utility.yul\":8370:8475   */\n              sstore\n                /* \"#utility.yul\":8288:8481   */\n              pop\n                /* \"#utility.yul\":8212:8481   */\n              pop\n              pop\n              pop\n              jump\t// out\n                /* \"#utility.yul\":8487:8560   */\n            tag_65:\n                /* \"#utility.yul\":8532:8535   */\n              0x00\n                /* \"#utility.yul\":8553:8554   */\n              0x00\n                /* \"#utility.yul\":8546:8554   */\n              swap1\n              pop\n                /* \"#utility.yul\":8487:8560   */\n              swap1\n              jump\t// out\n                /* \"#utility.yul\":8566:8755   */\n            tag_66:\n                /* \"#utility.yul\":8643:8675   */\n              tag_174\n              tag_65\n              jump\t// in\n            tag_174:\n                /* \"#utility.yul\":8684:8749   */\n              tag_175\n                /* \"#utility.yul\":8742:8748   */\n              dup2\n                /* \"#utility.yul\":8734:8740   */\n              dup5\n                /* \"#utility.yul\":8728:8732   */\n              dup5\n                /* \"#utility.yul\":8684:8749   */\n              tag_64\n              jump\t// in\n            tag_175:\n                /* \"#utility.yul\":8619:8755   */\n              pop\n                /* \"#utility.yul\":8566:8755   */\n              pop\n              pop\n              jump\t// out\n                /* \"#utility.yul\":8761:8947   */\n            tag_67:\n                /* \"#utility.yul\":8821:8941   */\n            tag_177:\n                /* \"#utility.yul\":8838:8841   */\n              dup2\n                /* \"#utility.yul\":8831:8836   */\n              dup2\n                /* \"#utility.yul\":8828:8842   */\n              lt\n                /* \"#utility.yul\":8821:8941   */\n              iszero\n              tag_179\n              jumpi\n                /* \"#utility.yul\":8892:8931   */\n              tag_180\n                /* \"#utility.yul\":8929:8930   */\n              0x00\n                /* \"#utility.yul\":8922:8927   */\n              dup3\n                /* \"#utility.yul\":8892:8931   */\n              tag_66\n              jump\t// in\n            tag_180:\n                /* \"#utility.yul\":8865:8866   */\n              0x01\n                /* \"#utility.yul\":8858:8863   */\n              dup2\n                /* \"#utility.yul\":8854:8867   */\n              add\n                /* \"#utility.yul\":8845:8867   */\n              swap1\n              pop\n                /* \"#utility.yul\":8821:8941   */\n              jump(tag_177)\n            tag_179:\n                /* \"#utility.yul\":8761:8947   */\n              pop\n              pop\n              jump\t// out\n                /* \"#utility.yul\":8953:9496   */\n            tag_68:\n                /* \"#utility.yul\":9054:9056   */\n              0x1f\n                /* \"#utility.yul\":9049:9052   */\n              dup3\n                /* \"#utility.yul\":9046:9057   */\n              gt\n                /* \"#utility.yul\":9043:9489   */\n              iszero\n              tag_182\n              jumpi\n                /* \"#utility.yul\":9088:9126   */\n              tag_183\n                /* \"#utility.yul\":9120:9125   */\n              dup2\n                /* \"#utility.yul\":9088:9126   */\n              tag_57\n              jump\t// in\n            tag_183:\n                /* \"#utility.yul\":9172:9201   */\n              tag_184\n                /* \"#utility.yul\":9190:9200   */\n              dup5\n                /* \"#utility.yul\":9172:9201   */\n              tag_58\n              jump\t// in\n            tag_184:\n                /* \"#utility.yul\":9162:9170   */\n              dup2\n                /* \"#utility.yul\":9158:9202   */\n              add\n                /* \"#utility.yul\":9355:9357   */\n              0x20\n                /* \"#utility.yul\":9343:9353   */\n              dup6\n                /* \"#utility.yul\":9340:9358   */\n              lt\n                /* \"#utility.yul\":9337:9386   */\n              iszero\n              tag_185\n              jumpi\n                /* \"#utility.yul\":9376:9384   */\n              dup2\n                /* \"#utility.yul\":9361:9384   */\n              swap1\n              pop\n                /* \"#utility.yul\":9337:9386   */\n            tag_185:\n                /* \"#utility.yul\":9399:9479   */\n              tag_186\n                /* \"#utility.yul\":9455:9477   */\n              tag_187\n                /* \"#utility.yul\":9473:9476   */\n              dup6\n                /* \"#utility.yul\":9455:9477   */\n              tag_58\n              jump\t// in\n            tag_187:\n                /* \"#utility.yul\":9445:9453   */\n              dup4\n                /* \"#utility.yul\":9441:9478   */\n              add\n                /* \"#utility.yul\":9428:9439   */\n              dup3\n                /* \"#utility.yul\":9399:9479   */\n              tag_67\n              jump\t// in\n            tag_186:\n                /* \"#utility.yul\":9058:9489   */\n              pop\n              pop\n                /* \"#utility.yul\":9043:9489   */\n            tag_182:\n                /* \"#utility.yul\":8953:9496   */\n              pop\n              pop\n              pop\n              jump\t// out\n                /* \"#utility.yul\":9502:9619   */\n            tag_69:\n                /* \"#utility.yul\":9556:9564   */\n              0x00\n                /* \"#utility.yul\":9606:9611   */\n              dup3\n                /* \"#utility.yul\":9600:9604   */\n              dup3\n                /* \"#utility.yul\":9596:9612   */\n              shr\n                /* \"#utility.yul\":9575:9612   */\n              swap1\n              pop\n                /* \"#utility.yul\":9502:9619   */\n              swap3\n              swap2\n              pop\n              pop\n              jump\t// out\n                /* \"#utility.yul\":9625:9794   */\n            tag_70:\n                /* \"#utility.yul\":9669:9675   */\n              0x00\n                /* \"#utility.yul\":9702:9753   */\n              tag_190\n                /* \"#utility.yul\":9750:9751   */\n              0x00\n                /* \"#utility.yul\":9746:9752   */\n              not\n                /* \"#utility.yul\":9738:9743   */\n              dup5\n                /* \"#utility.yul\":9735:9736   */\n              0x08\n                /* \"#utility.yul\":9731:9744   */\n              mul\n                /* \"#utility.yul\":9702:9753   */\n              tag_69\n              jump\t// in\n            tag_190:\n                /* \"#utility.yul\":9698:9754   */\n              not\n                /* \"#utility.yul\":9783:9787   */\n              dup1\n                /* \"#utility.yul\":9777:9781   */\n              dup4\n                /* \"#utility.yul\":9773:9788   */\n              and\n                /* \"#utility.yul\":9763:9788   */\n              swap2\n              pop\n                /* \"#utility.yul\":9676:9794   */\n              pop\n                /* \"#utility.yul\":9625:9794   */\n              swap3\n              swap2\n              pop\n              pop\n              jump\t// out\n                /* \"#utility.yul\":9799:10094   */\n            tag_71:\n                /* \"#utility.yul\":9875:9879   */\n              0x00\n                /* \"#utility.yul\":10021:10050   */\n              tag_192\n                /* \"#utility.yul\":10046:10049   */\n              dup4\n                /* \"#utility.yul\":10040:10044   */\n              dup4\n                /* \"#utility.yul\":10021:10050   */\n              tag_70\n              jump\t// in\n            tag_192:\n                /* \"#utility.yul\":10013:10050   */\n              swap2\n              pop\n                /* \"#utility.yul\":10083:10086   */\n              dup3\n                /* \"#utility.yul\":10080:10081   */\n              0x02\n                /* \"#utility.yul\":10076:10087   */\n              mul\n                /* \"#utility.yul\":10070:10074   */\n              dup3\n                /* \"#utility.yul\":10067:10088   */\n              or\n                /* \"#utility.yul\":10059:10088   */\n              swap1\n              pop\n                /* \"#utility.yul\":9799:10094   */\n              swap3\n              swap2\n              pop\n              pop\n              jump\t// out\n                /* \"#utility.yul\":10099:11494   */\n            tag_28:\n                /* \"#utility.yul\":10216:10253   */\n              tag_194\n                /* \"#utility.yul\":10249:10252   */\n              dup3\n                /* \"#utility.yul\":10216:10253   */\n              tag_36\n              jump\t// in\n            tag_194:\n                /* \"#utility.yul\":10318:10336   */\n              0xffffffffffffffff\n                /* \"#utility.yul\":10310:10316   */\n              dup2\n                /* \"#utility.yul\":10307:10337   */\n              gt\n                /* \"#utility.yul\":10304:10360   */\n              iszero\n              tag_195\n              jumpi\n                /* \"#utility.yul\":10340:10358   */\n              tag_196\n              tag_46\n              jump\t// in\n            tag_196:\n                /* \"#utility.yul\":10304:10360   */\n            tag_195:\n                /* \"#utility.yul\":10384:10422   */\n              tag_197\n                /* \"#utility.yul\":10416:10420   */\n              dup3\n                /* \"#utility.yul\":10410:10421   */\n              sload\n                /* \"#utility.yul\":10384:10422   */\n              tag_18\n              jump\t// in\n            tag_197:\n                /* \"#utility.yul\":10469:10536   */\n              tag_198\n                /* \"#utility.yul\":10529:10535   */\n              dup3\n                /* \"#utility.yul\":10521:10527   */\n              dup3\n                /* \"#utility.yul\":10515:10519   */\n              dup6\n                /* \"#utility.yul\":10469:10536   */\n              tag_68\n              jump\t// in\n            tag_198:\n                /* \"#utility.yul\":10563:10564   */\n              0x00\n                /* \"#utility.yul\":10587:10591   */\n              0x20\n                /* \"#utility.yul\":10574:10591   */\n              swap1\n              pop\n                /* \"#utility.yul\":10619:10621   */\n              0x1f\n                /* \"#utility.yul\":10611:10617   */\n              dup4\n                /* \"#utility.yul\":10608:10622   */\n              gt\n                /* \"#utility.yul\":10636:10637   */\n              0x01\n                /* \"#utility.yul\":10631:11249   */\n              dup2\n              eq\n              tag_200\n              jumpi\n                /* \"#utility.yul\":11293:11294   */\n              0x00\n                /* \"#utility.yul\":11310:11316   */\n              dup5\n                /* \"#utility.yul\":11307:11384   */\n              iszero\n              tag_201\n              jumpi\n                /* \"#utility.yul\":11359:11368   */\n              dup3\n                /* \"#utility.yul\":11354:11357   */\n              dup8\n                /* \"#utility.yul\":11350:11369   */\n              add\n                /* \"#utility.yul\":11344:11370   */\n              mload\n                /* \"#utility.yul\":11335:11370   */\n              swap1\n              pop\n                /* \"#utility.yul\":11307:11384   */\n            tag_201:\n                /* \"#utility.yul\":11410:11477   */\n              tag_202\n                /* \"#utility.yul\":11470:11476   */\n              dup6\n                /* \"#utility.yul\":11463:11468   */\n              dup3\n                /* \"#utility.yul\":11410:11477   */\n              tag_71\n              jump\t// in\n            tag_202:\n                /* \"#utility.yul\":11404:11408   */\n              dup7\n                /* \"#utility.yul\":11397:11478   */\n              sstore\n                /* \"#utility.yul\":11266:11488   */\n              pop\n                /* \"#utility.yul\":10601:11488   */\n              jump(tag_199)\n                /* \"#utility.yul\":10631:11249   */\n            tag_200:\n                /* \"#utility.yul\":10683:10687   */\n              0x1f\n                /* \"#utility.yul\":10679:10688   */\n              not\n                /* \"#utility.yul\":10671:10677   */\n              dup5\n                /* \"#utility.yul\":10667:10689   */\n              and\n                /* \"#utility.yul\":10717:10754   */\n              tag_203\n                /* \"#utility.yul\":10749:10753   */\n              dup7\n                /* \"#utility.yul\":10717:10754   */\n              tag_57\n              jump\t// in\n            tag_203:\n                /* \"#utility.yul\":10776:10777   */\n              0x00\n                /* \"#utility.yul\":10790:10998   */\n            tag_204:\n                /* \"#utility.yul\":10804:10811   */\n              dup3\n                /* \"#utility.yul\":10801:10802   */\n              dup2\n                /* \"#utility.yul\":10798:10812   */\n              lt\n                /* \"#utility.yul\":10790:10998   */\n              iszero\n              tag_206\n              jumpi\n                /* \"#utility.yul\":10883:10892   */\n              dup5\n                /* \"#utility.yul\":10878:10881   */\n              dup10\n                /* \"#utility.yul\":10874:10893   */\n              add\n                /* \"#utility.yul\":10868:10894   */\n              mload\n                /* \"#utility.yul\":10860:10866   */\n              dup3\n                /* \"#utility.yul\":10853:10895   */\n              sstore\n                /* \"#utility.yul\":10934:10935   */\n              0x01\n                /* \"#utility.yul\":10926:10932   */\n              dup3\n                /* \"#utility.yul\":10922:10936   */\n              add\n                /* \"#utility.yul\":10912:10936   */\n              swap2\n              pop\n                /* \"#utility.yul\":10981:10983   */\n              0x20\n                /* \"#utility.yul\":10970:10979   */\n              dup6\n                /* \"#utility.yul\":10966:10984   */\n              add\n                /* \"#utility.yul\":10953:10984   */\n              swap5\n              pop\n                /* \"#utility.yul\":10827:10831   */\n              0x20\n                /* \"#utility.yul\":10824:10825   */\n              dup2\n                /* \"#utility.yul\":10820:10832   */\n              add\n                /* \"#utility.yul\":10815:10832   */\n              swap1\n              pop\n                /* \"#utility.yul\":10790:10998   */\n              jump(tag_204)\n            tag_206:\n                /* \"#utility.yul\":11026:11032   */\n              dup7\n                /* \"#utility.yul\":11017:11024   */\n              dup4\n                /* \"#utility.yul\":11014:11033   */\n              lt\n                /* \"#utility.yul\":11011:11190   */\n              iszero\n              tag_207\n              jumpi\n                /* \"#utility.yul\":11084:11093   */\n              dup5\n                /* \"#utility.yul\":11079:11082   */\n              dup10\n                /* \"#utility.yul\":11075:11094   */\n              add\n                /* \"#utility.yul\":11069:11095   */\n              mload\n                /* \"#utility.yul\":11127:11175   */\n              tag_208\n                /* \"#utility.yul\":11169:11173   */\n              0x1f\n                /* \"#utility.yul\":11161:11167   */\n              dup10\n                /* \"#utility.yul\":11157:11174   */\n              and\n                /* \"#utility.yul\":11146:11155   */\n              dup3\n                /* \"#utility.yul\":11127:11175   */\n              tag_70\n              jump\t// in\n            tag_208:\n                /* \"#utility.yul\":11119:11125   */\n              dup4\n                /* \"#utility.yul\":11112:11176   */\n              sstore\n                /* \"#utility.yul\":11034:11190   */\n              pop\n                /* \"#utility.yul\":11011:11190   */\n            tag_207:\n                /* \"#utility.yul\":11236:11237   */\n              0x01\n                /* \"#utility.yul\":11232:11233   */\n              0x02\n                /* \"#utility.yul\":11224:11230   */\n              dup9\n                /* \"#utility.yul\":11220:11234   */\n              mul\n                /* \"#utility.yul\":11216:11238   */\n              add\n                /* \"#utility.yul\":11210:11214   */\n              dup9\n                /* \"#utility.yul\":11203:11239   */\n              sstore\n                /* \"#utility.yul\":10638:11249   */\n              pop\n              pop\n              pop\n                /* \"#utility.yul\":10601:11488   */\n            tag_199:\n              pop\n                /* \"#utility.yul\":10191:11494   */\n              pop\n              pop\n              pop\n                /* \"#utility.yul\":10099:11494   */\n              pop\n              pop\n              jump\t// out\n\n            auxdata: 0xa264697066735822122031911f0b89f123864298bf5197d6eb9aa579839f1c7181badd1a78fedba9786e64736f6c634300081f0033\n        }\n    }\n\n    auxdata: 0xa264697066735822122035927d21a8b7a9ee4244cc13f937a49faa05538e300b810c5d0e8340a23f456f64736f6c634300081f0033\n}\n",
				"bytecode": {
					"linkReferences": {},
					"object": "6080604052348015600e575f5ffd5b5061277d8061001c5f395ff3fe608060405234801561000f575f5ffd5b506004361061004a575f3560e01c80634cb2632e1461004e5780635397fbf31461006a578063b1fbe72d14610086578063c268f81e146100bb575b5f5ffd5b6100686004803603810190610063919061089b565b6100d7565b005b610084600480360381019061007f9190610944565b6102e7565b005b6100a0600480360381019061009b91906109fc565b610387565b6040516100b296959493929190610b50565b60405180910390f35b6100d560048036038101906100d09190610be7565b610536565b005b5f6040516100e490610734565b604051809103905ff0801580156100fd573d5f5f3e3d5ffd5b5090505f60405161010d90610741565b604051809103905ff080158015610126573d5f5f3e3d5ffd5b5090505f60015f8054905061013b9190610c94565b90505f6040518060c001604052808381526020018781526020018681526020013373ffffffffffffffffffffffffffffffffffffffff1681526020018573ffffffffffffffffffffffffffffffffffffffff1681526020018473ffffffffffffffffffffffffffffffffffffffff1681525090505f81908060018154018082558091505060019003905f5260205f2090600602015f909190919091505f820151815f015560208201518160010190816101f49190610ebb565b50604082015181600201908161020a9190610ebb565b506060820151816003015f6101000a81548173ffffffffffffffffffffffffffffffffffffffff021916908373ffffffffffffffffffffffffffffffffffffffff1602179055506080820151816004015f6101000a81548173ffffffffffffffffffffffffffffffffffffffff021916908373ffffffffffffffffffffffffffffffffffffffff16021790555060a0820151816005015f6101000a81548173ffffffffffffffffffffffffffffffffffffffff021916908373ffffffffffffffffffffffffffffffffffffffff1602179055505050505050505050565b5f6102f1856105d6565b9050806004015f9054906101000a900473ffffffffffffffffffffffffffffffffffffffff1673ffffffffffffffffffffffffffffffffffffffff166369c468268585856040518463ffffffff1660e01b815260040161035393929190610f8a565b5f604051808303815f87803b15801561036a575f5ffd5b505af115801561037c573d5f5f3e3d5ffd5b505050505050505050565b5f8181548110610395575f80fd5b905f5260205f2090600602015f91509050805f0154908060010180546103ba90610cf4565b80601f01602080910402602001604051908101604052809291908181526020018280546103e690610cf4565b80156104315780601f1061040857610100808354040283529160200191610431565b820191905f5260205f20905b81548152906001019060200180831161041457829003601f168201915b50505050509080600201805461044690610cf4565b80601f016020809104026020016040519081016040528092919081815260200182805461047290610cf4565b80156104bd5780601f10610494576101008083540402835291602001916104bd565b820191905f5260205f20905b8154815290600101906020018083116104a057829003601f168201915b505050505090806003015f9054906101000a900473ffffffffffffffffffffffffffffffffffffffff1690806004015f9054906101000a900473ffffffffffffffffffffffffffffffffffffffff1690806005015f9054906101000a900473ffffffffffffffffffffffffffffffffffffffff16905086565b5f610540856105d6565b9050806005015f9054906101000a900473ffffffffffffffffffffffffffffffffffffffff1673ffffffffffffffffffffffffffffffffffffffff1663b184c11e8585856040518463ffffffff1660e01b81526004016105a293929190610fd4565b5f604051808303815f87803b1580156105b9575f5ffd5b505af11580156105cb573d5f5f3e3d5ffd5b505050505050505050565b5f5f5f90505b5f805490508110156106f357825f82815481106105fc576105fb611010565b5b905f5260205f2090600602015f0154036106e6573373ffffffffffffffffffffffffffffffffffffffff165f828154811061063a57610639611010565b5b905f5260205f2090600602016003015f9054906101000a900473ffffffffffffffffffffffffffffffffffffffff1673ffffffffffffffffffffffffffffffffffffffff16146106bf576040517f08c379a00000000000000000000000000000000000000000000000000000000081526004016106b690611087565b60405180910390fd5b5f81815481106106d2576106d1611010565b5b905f5260205f20906006020191505061072f565b80806001019150506105dc565b506040517f08c379a000000000000000000000000000000000000000000000000000000000815260040161072690611087565b60405180910390fd5b919050565b610d98806110a683390190565b61090a80611e3e83390190565b5f604051905090565b5f5ffd5b5f5ffd5b5f5ffd5b5f5ffd5b5f601f19601f8301169050919050565b7f4e487b71000000000000000000000000000000000000000000000000000000005f52604160045260245ffd5b6107ad82610767565b810181811067ffffffffffffffff821117156107cc576107cb610777565b5b80604052505050565b5f6107de61074e565b90506107ea82826107a4565b919050565b5f67ffffffffffffffff82111561080957610808610777565b5b61081282610767565b9050602081019050919050565b828183375f83830152505050565b5f61083f61083a846107ef565b6107d5565b90508281526020810184848401111561085b5761085a610763565b5b61086684828561081f565b509392505050565b5f82601f8301126108825761088161075f565b5b813561089284826020860161082d565b91505092915050565b5f5f604083850312156108b1576108b0610757565b5b5f83013567ffffffffffffffff8111156108ce576108cd61075b565b5b6108da8582860161086e565b925050602083013567ffffffffffffffff8111156108fb576108fa61075b565b5b6109078582860161086e565b9150509250929050565b5f819050919050565b61092381610911565b811461092d575f5ffd5b50565b5f8135905061093e8161091a565b92915050565b5f5f5f5f6080858703121561095c5761095b610757565b5b5f61096987828801610930565b945050602085013567ffffffffffffffff81111561098a5761098961075b565b5b6109968782880161086e565b935050604085013567ffffffffffffffff8111156109b7576109b661075b565b5b6109c38782880161086e565b925050606085013567ffffffffffffffff8111156109e4576109e361075b565b5b6109f08782880161086e565b91505092959194509250565b5f60208284031215610a1157610a10610757565b5b5f610a1e84828501610930565b91505092915050565b610a3081610911565b82525050565b5f81519050919050565b5f82825260208201905092915050565b8281835e5f83830152505050565b5f610a6882610a36565b610a728185610a40565b9350610a82818560208601610a50565b610a8b81610767565b840191505092915050565b5f73ffffffffffffffffffffffffffffffffffffffff82169050919050565b5f610abf82610a96565b9050919050565b610acf81610ab5565b82525050565b5f819050919050565b5f610af8610af3610aee84610a96565b610ad5565b610a96565b9050919050565b5f610b0982610ade565b9050919050565b5f610b1a82610aff565b9050919050565b610b2a81610b10565b82525050565b5f610b3a82610aff565b9050919050565b610b4a81610b30565b82525050565b5f60c082019050610b635f830189610a27565b8181036020830152610b758188610a5e565b90508181036040830152610b898187610a5e565b9050610b986060830186610ac6565b610ba56080830185610b21565b610bb260a0830184610b41565b979650505050505050565b610bc681610ab5565b8114610bd0575f5ffd5b50565b5f81359050610be181610bbd565b92915050565b5f5f5f5f60808587031215610bff57610bfe610757565b5b5f610c0c87828801610930565b945050602085013567ffffffffffffffff811115610c2d57610c2c61075b565b5b610c398782880161086e565b9350506040610c4a87828801610930565b9250506060610c5b87828801610bd3565b91505092959194509250565b7f4e487b71000000000000000000000000000000000000000000000000000000005f52601160045260245ffd5b5f610c9e82610911565b9150610ca983610911565b9250828201905080821115610cc157610cc0610c67565b5b92915050565b7f4e487b71000000000000000000000000000000000000000000000000000000005f52602260045260245ffd5b5f6002820490506001821680610d0b57607f821691505b602082108103610d1e57610d1d610cc7565b5b50919050565b5f819050815f5260205f209050919050565b5f6020601f8301049050919050565b5f82821b905092915050565b5f60088302610d807fffffffffffffffffffffffffffffffffffffffffffffffffffffffffffffffff82610d45565b610d8a8683610d45565b95508019841693508086168417925050509392505050565b5f610dbc610db7610db284610911565b610ad5565b610911565b9050919050565b5f819050919050565b610dd583610da2565b610de9610de182610dc3565b848454610d51565b825550505050565b5f5f905090565b610e00610df1565b610e0b818484610dcc565b505050565b5b81811015610e2e57610e235f82610df8565b600181019050610e11565b5050565b601f821115610e7357610e4481610d24565b610e4d84610d36565b81016020851015610e5c578190505b610e70610e6885610d36565b830182610e10565b50505b505050565b5f82821c905092915050565b5f610e935f1984600802610e78565b1980831691505092915050565b5f610eab8383610e84565b9150826002028217905092915050565b610ec482610a36565b67ffffffffffffffff811115610edd57610edc610777565b5b610ee78254610cf4565b610ef2828285610e32565b5f60209050601f831160018114610f23575f8415610f11578287015190505b610f1b8582610ea0565b865550610f82565b601f198416610f3186610d24565b5f5b82811015610f5857848901518255600182019150602085019450602081019050610f33565b86831015610f755784890151610f71601f891682610e84565b8355505b6001600288020188555050505b505050505050565b5f6060820190508181035f830152610fa28186610a5e565b90508181036020830152610fb68185610a5e565b90508181036040830152610fca8184610a5e565b9050949350505050565b5f6060820190508181035f830152610fec8186610a5e565b9050610ffb6020830185610a27565b6110086040830184610ac6565b949350505050565b7f4e487b71000000000000000000000000000000000000000000000000000000005f52603260045260245ffd5b7f4c696272617279206e6f7420666f756e642100000000000000000000000000005f82015250565b5f611071601283610a40565b915061107c8261103d565b602082019050919050565b5f6020820190508181035f83015261109e81611065565b905091905056fe6080604052348015600e575f5ffd5b50610d7c8061001c5f395ff3fe608060405234801561000f575f5ffd5b506004361061003f575f3560e01c80633088c00f1461004357806369c468261461007757806393bdb2bb14610093575b5f5ffd5b61005d60048036038101906100589190610676565b6100c7565b60405161006e95949392919061073a565b60405180910390f35b610091600480360381019061008c91906108cc565b6102a5565b005b6100ad60048036038101906100a89190610970565b610430565b6040516100be95949392919061073a565b60405180910390f35b5f81815481106100d5575f80fd5b905f5260205f2090600502015f91509050805f0154908060010180546100fa906109f7565b80601f0160208091040260200160405190810160405280929190818152602001828054610126906109f7565b80156101715780601f1061014857610100808354040283529160200191610171565b820191905f5260205f20905b81548152906001019060200180831161015457829003601f168201915b505050505090806002018054610186906109f7565b80601f01602080910402602001604051908101604052809291908181526020018280546101b2906109f7565b80156101fd5780601f106101d4576101008083540402835291602001916101fd565b820191905f5260205f20905b8154815290600101906020018083116101e057829003601f168201915b505050505090806003018054610212906109f7565b80601f016020809104026020016040519081016040528092919081815260200182805461023e906109f7565b80156102895780601f1061026057610100808354040283529160200191610289565b820191905f5260205f20905b81548152906001019060200180831161026c57829003601f168201915b505050505090806004015f9054906101000a900460ff16905085565b5f60015f805490506102b79190610a54565b90505f6040518060a001604052808381526020018681526020018581526020018481526020016001151581525090505f81908060018154018082558091505060019003905f5260205f2090600502015f909190919091505f820151815f0155602082015181600101908161032b9190610c27565b5060408201518160020190816103419190610c27565b5060608201518160030190816103579190610c27565b506080820151816004015f6101000a81548160ff02191690831515021790555050506001836040516103899190610d30565b908152602001604051809103902081908060018154018082558091505060019003905f5260205f2090600502015f909190919091505f820151815f015560208201518160010190816103db9190610c27565b5060408201518160020190816103f19190610c27565b5060608201518160030190816104079190610c27565b506080820151816004015f6101000a81548160ff02191690831515021790555050505050505050565b6001828051602081018201805184825260208301602085012081835280955050505050508181548110610461575f80fd5b905f5260205f2090600502015f9150915050805f015490806001018054610487906109f7565b80601f01602080910402602001604051908101604052809291908181526020018280546104b3906109f7565b80156104fe5780601f106104d5576101008083540402835291602001916104fe565b820191905f5260205f20905b8154815290600101906020018083116104e157829003601f168201915b505050505090806002018054610513906109f7565b80601f016020809104026020016040519081016040528092919081815260200182805461053f906109f7565b801561058a5780601f106105615761010080835404028352916020019161058a565b820191905f5260205f20905b81548152906001019060200180831161056d57829003601f168201915b50505050509080600301805461059f906109f7565b80601f01602080910402602001604051908101604052809291908181526020018280546105cb906109f7565b80156106165780601f106105ed57610100808354040283529160200191610616565b820191905f5260205f20905b8154815290600101906020018083116105f957829003601f168201915b505050505090806004015f9054906101000a900460ff16905085565b5f604051905090565b5f5ffd5b5f5ffd5b5f819050919050565b61065581610643565b811461065f575f5ffd5b50565b5f813590506106708161064c565b92915050565b5f6020828403121561068b5761068a61063b565b5b5f61069884828501610662565b91505092915050565b6106aa81610643565b82525050565b5f81519050919050565b5f82825260208201905092915050565b8281835e5f83830152505050565b5f601f19601f8301169050919050565b5f6106f2826106b0565b6106fc81856106ba565b935061070c8185602086016106ca565b610715816106d8565b840191505092915050565b5f8115159050919050565b61073481610720565b82525050565b5f60a08201905061074d5f8301886106a1565b818103602083015261075f81876106e8565b9050818103604083015261077381866106e8565b9050818103606083015261078781856106e8565b9050610796608083018461072b565b9695505050505050565b5f5ffd5b5f5ffd5b7f4e487b71000000000000000000000000000000000000000000000000000000005f52604160045260245ffd5b6107de826106d8565b810181811067ffffffffffffffff821117156107fd576107fc6107a8565b5b80604052505050565b5f61080f610632565b905061081b82826107d5565b919050565b5f67ffffffffffffffff82111561083a576108396107a8565b5b610843826106d8565b9050602081019050919050565b828183375f83830152505050565b5f61087061086b84610820565b610806565b90508281526020810184848401111561088c5761088b6107a4565b5b610897848285610850565b509392505050565b5f82601f8301126108b3576108b26107a0565b5b81356108c384826020860161085e565b91505092915050565b5f5f5f606084860312156108e3576108e261063b565b5b5f84013567ffffffffffffffff811115610900576108ff61063f565b5b61090c8682870161089f565b935050602084013567ffffffffffffffff81111561092d5761092c61063f565b5b6109398682870161089f565b925050604084013567ffffffffffffffff81111561095a5761095961063f565b5b6109668682870161089f565b9150509250925092565b5f5f604083850312156109865761098561063b565b5b5f83013567ffffffffffffffff8111156109a3576109a261063f565b5b6109af8582860161089f565b92505060206109c085828601610662565b9150509250929050565b7f4e487b71000000000000000000000000000000000000000000000000000000005f52602260045260245ffd5b5f6002820490506001821680610a0e57607f821691505b602082108103610a2157610a206109ca565b5b50919050565b7f4e487b71000000000000000000000000000000000000000000000000000000005f52601160045260245ffd5b5f610a5e82610643565b9150610a6983610643565b9250828201905080821115610a8157610a80610a27565b5b92915050565b5f819050815f5260205f209050919050565b5f6020601f8301049050919050565b5f82821b905092915050565b5f60088302610ae37fffffffffffffffffffffffffffffffffffffffffffffffffffffffffffffffff82610aa8565b610aed8683610aa8565b95508019841693508086168417925050509392505050565b5f819050919050565b5f610b28610b23610b1e84610643565b610b05565b610643565b9050919050565b5f819050919050565b610b4183610b0e565b610b55610b4d82610b2f565b848454610ab4565b825550505050565b5f5f905090565b610b6c610b5d565b610b77818484610b38565b505050565b5b81811015610b9a57610b8f5f82610b64565b600181019050610b7d565b5050565b601f821115610bdf57610bb081610a87565b610bb984610a99565b81016020851015610bc8578190505b610bdc610bd485610a99565b830182610b7c565b50505b505050565b5f82821c905092915050565b5f610bff5f1984600802610be4565b1980831691505092915050565b5f610c178383610bf0565b9150826002028217905092915050565b610c30826106b0565b67ffffffffffffffff811115610c4957610c486107a8565b5b610c5382546109f7565b610c5e828285610b9e565b5f60209050601f831160018114610c8f575f8415610c7d578287015190505b610c878582610c0c565b865550610cee565b601f198416610c9d86610a87565b5f5b82811015610cc457848901518255600182019150602085019450602081019050610c9f565b86831015610ce15784890151610cdd601f891682610bf0565b8355505b6001600288020188555050505b505050505050565b5f81905092915050565b5f610d0a826106b0565b610d148185610cf6565b9350610d248185602086016106ca565b80840191505092915050565b5f610d3b8284610d00565b91508190509291505056fea26469706673582212209a2ae5e1a9d85cb50eca91e7b02d21deedbafb367e5f75eb4a5105bd700e748b64736f6c634300081f00336080604052348015600e575f5ffd5b506108ee8061001c5f395ff3fe608060405234801561000f575f5ffd5b5060043610610034575f3560e01c80635daf08ca14610038578063b184c11e1461006b575b5f5ffd5b610052600480360381019061004d9190610297565b610087565b6040516100629493929190610380565b60405180910390f35b61008560048036038101906100809190610520565b610166565b005b5f8181548110610095575f80fd5b905f5260205f2090600402015f91509050805f0154908060010180546100ba906105b9565b80601f01602080910402602001604051908101604052809291908181526020018280546100e6906105b9565b80156101315780601f1061010857610100808354040283529160200191610131565b820191905f5260205f20905b81548152906001019060200180831161011457829003601f168201915b505050505090806002015490806003015f9054906101000a900473ffffffffffffffffffffffffffffffffffffffff16905084565b5f60015f805490506101789190610616565b90505f60405180608001604052808381526020018681526020018581526020018473ffffffffffffffffffffffffffffffffffffffff1681525090505f81908060018154018082558091505060019003905f5260205f2090600402015f909190919091505f820151815f015560208201518160010190816101f991906107e9565b50604082015181600201556060820151816003015f6101000a81548173ffffffffffffffffffffffffffffffffffffffff021916908373ffffffffffffffffffffffffffffffffffffffff16021790555050505050505050565b5f604051905090565b5f5ffd5b5f5ffd5b5f819050919050565b61027681610264565b8114610280575f5ffd5b50565b5f813590506102918161026d565b92915050565b5f602082840312156102ac576102ab61025c565b5b5f6102b984828501610283565b91505092915050565b6102cb81610264565b82525050565b5f81519050919050565b5f82825260208201905092915050565b8281835e5f83830152505050565b5f601f19601f8301169050919050565b5f610313826102d1565b61031d81856102db565b935061032d8185602086016102eb565b610336816102f9565b840191505092915050565b5f73ffffffffffffffffffffffffffffffffffffffff82169050919050565b5f61036a82610341565b9050919050565b61037a81610360565b82525050565b5f6080820190506103935f8301876102c2565b81810360208301526103a58186610309565b90506103b460408301856102c2565b6103c16060830184610371565b95945050505050565b5f5ffd5b5f5ffd5b7f4e487b71000000000000000000000000000000000000000000000000000000005f52604160045260245ffd5b610408826102f9565b810181811067ffffffffffffffff82111715610427576104266103d2565b5b80604052505050565b5f610439610253565b905061044582826103ff565b919050565b5f67ffffffffffffffff821115610464576104636103d2565b5b61046d826102f9565b9050602081019050919050565b828183375f83830152505050565b5f61049a6104958461044a565b610430565b9050828152602081018484840111156104b6576104b56103ce565b5b6104c184828561047a565b509392505050565b5f82601f8301126104dd576104dc6103ca565b5b81356104ed848260208601610488565b91505092915050565b6104ff81610360565b8114610509575f5ffd5b50565b5f8135905061051a816104f6565b92915050565b5f5f5f606084860312156105375761053661025c565b5b5f84013567ffffffffffffffff81111561055457610553610260565b5b610560868287016104c9565b935050602061057186828701610283565b92505060406105828682870161050c565b9150509250925092565b7f4e487b71000000000000000000000000000000000000000000000000000000005f52602260045260245ffd5b5f60028204905060018216806105d057607f821691505b6020821081036105e3576105e261058c565b5b50919050565b7f4e487b71000000000000000000000000000000000000000000000000000000005f52601160045260245ffd5b5f61062082610264565b915061062b83610264565b9250828201905080821115610643576106426105e9565b5b92915050565b5f819050815f5260205f209050919050565b5f6020601f8301049050919050565b5f82821b905092915050565b5f600883026106a57fffffffffffffffffffffffffffffffffffffffffffffffffffffffffffffffff8261066a565b6106af868361066a565b95508019841693508086168417925050509392505050565b5f819050919050565b5f6106ea6106e56106e084610264565b6106c7565b610264565b9050919050565b5f819050919050565b610703836106d0565b61071761070f826106f1565b848454610676565b825550505050565b5f5f905090565b61072e61071f565b6107398184846106fa565b505050565b5b8181101561075c576107515f82610726565b60018101905061073f565b5050565b601f8211156107a15761077281610649565b61077b8461065b565b8101602085101561078a578190505b61079e6107968561065b565b83018261073e565b50505b505050565b5f82821c905092915050565b5f6107c15f19846008026107a6565b1980831691505092915050565b5f6107d983836107b2565b9150826002028217905092915050565b6107f2826102d1565b67ffffffffffffffff81111561080b5761080a6103d2565b5b61081582546105b9565b610820828285610760565b5f60209050601f831160018114610851575f841561083f578287015190505b61084985826107ce565b8655506108b0565b601f19841661085f86610649565b5f5b8281101561088657848901518255600182019150602085019450602081019050610861565b868310156108a3578489015161089f601f8916826107b2565b8355505b6001600288020188555050505b50505050505056fea264697066735822122031911f0b89f123864298bf5197d6eb9aa579839f1c7181badd1a78fedba9786e64736f6c634300081f0033a264697066735822122035927d21a8b7a9ee4244cc13f937a49faa05538e300b810c5d0e8340a23f456f64736f6c634300081f0033",
					"opcodes": "PUSH1 0x80 PUSH1 0x40 MSTORE CALLVALUE DUP1 ISZERO PUSH1 0xE JUMPI PUSH0 PUSH0 REVERT JUMPDEST POP PUSH2 0x277D DUP1 PUSH2 0x1C PUSH0 CODECOPY PUSH0 RETURN INVALID PUSH1 0x80 PUSH1 0x40 MSTORE CALLVALUE DUP1 ISZERO PUSH2 0xF JUMPI PUSH0 PUSH0 REVERT JUMPDEST POP PUSH1 0x4 CALLDATASIZE LT PUSH2 0x4A JUMPI PUSH0 CALLDATALOAD PUSH1 0xE0 SHR DUP1 PUSH4 0x4CB2632E EQ PUSH2 0x4E JUMPI DUP1 PUSH4 0x5397FBF3 EQ PUSH2 0x6A JUMPI DUP1 PUSH4 0xB1FBE72D EQ PUSH2 0x86 JUMPI DUP1 PUSH4 0xC268F81E EQ PUSH2 0xBB JUMPI JUMPDEST PUSH0 PUSH0 REVERT JUMPDEST PUSH2 0x68 PUSH1 0x4 DUP1 CALLDATASIZE SUB DUP2 ADD SWAP1 PUSH2 0x63 SWAP2 SWAP1 PUSH2 0x89B JUMP JUMPDEST PUSH2 0xD7 JUMP JUMPDEST STOP JUMPDEST PUSH2 0x84 PUSH1 0x4 DUP1 CALLDATASIZE SUB DUP2 ADD SWAP1 PUSH2 0x7F SWAP2 SWAP1 PUSH2 0x944 JUMP JUMPDEST PUSH2 0x2E7 JUMP JUMPDEST STOP JUMPDEST PUSH2 0xA0 PUSH1 0x4 DUP1 CALLDATASIZE SUB DUP2 ADD SWAP1 PUSH2 0x9B SWAP2 SWAP1 PUSH2 0x9FC JUMP JUMPDEST PUSH2 0x387 JUMP JUMPDEST PUSH1 0x40 MLOAD PUSH2 0xB2 SWAP7 SWAP6 SWAP5 SWAP4 SWAP3 SWAP2 SWAP1 PUSH2 0xB50 JUMP JUMPDEST PUSH1 0x40 MLOAD DUP1 SWAP2 SUB SWAP1 RETURN JUMPDEST PUSH2 0xD5 PUSH1 0x4 DUP1 CALLDATASIZE SUB DUP2 ADD SWAP1 PUSH2 0xD0 SWAP2 SWAP1 PUSH2 0xBE7 JUMP JUMPDEST PUSH2 0x536 JUMP JUMPDEST STOP JUMPDEST PUSH0 PUSH1 0x40 MLOAD PUSH2 0xE4 SWAP1 PUSH2 0x734 JUMP JUMPDEST PUSH1 0x40 MLOAD DUP1 SWAP2 SUB SWAP1 PUSH0 CREATE DUP1 ISZERO DUP1 ISZERO PUSH2 0xFD JUMPI RETURNDATASIZE PUSH0 PUSH0 RETURNDATACOPY RETURNDATASIZE PUSH0 REVERT JUMPDEST POP SWAP1 POP PUSH0 PUSH1 0x40 MLOAD PUSH2 0x10D SWAP1 PUSH2 0x741 JUMP JUMPDEST PUSH1 0x40 MLOAD DUP1 SWAP2 SUB SWAP1 PUSH0 CREATE DUP1 ISZERO DUP1 ISZERO PUSH2 0x126 JUMPI RETURNDATASIZE PUSH0 PUSH0 RETURNDATACOPY RETURNDATASIZE PUSH0 REVERT JUMPDEST POP SWAP1 POP PUSH0 PUSH1 0x1 PUSH0 DUP1 SLOAD SWAP1 POP PUSH2 0x13B SWAP2 SWAP1 PUSH2 0xC94 JUMP JUMPDEST SWAP1 POP PUSH0 PUSH1 0x40 MLOAD DUP1 PUSH1 0xC0 ADD PUSH1 0x40 MSTORE DUP1 DUP4 DUP2 MSTORE PUSH1 0x20 ADD DUP8 DUP2 MSTORE PUSH1 0x20 ADD DUP7 DUP2 MSTORE PUSH1 0x20 ADD CALLER PUSH20 0xFFFFFFFFFFFFFFFFFFFFFFFFFFFFFFFFFFFFFFFF AND DUP2 MSTORE PUSH1 0x20 ADD DUP6 PUSH20 0xFFFFFFFFFFFFFFFFFFFFFFFFFFFFFFFFFFFFFFFF AND DUP2 MSTORE PUSH1 0x20 ADD DUP5 PUSH20 0xFFFFFFFFFFFFFFFFFFFFFFFFFFFFFFFFFFFFFFFF AND DUP2 MSTORE POP SWAP1 POP PUSH0 DUP2 SWAP1 DUP1 PUSH1 0x1 DUP2 SLOAD ADD DUP1 DUP3 SSTORE DUP1 SWAP2 POP POP PUSH1 0x1 SWAP1 SUB SWAP1 PUSH0 MSTORE PUSH1 0x20 PUSH0 KECCAK256 SWAP1 PUSH1 0x6 MUL ADD PUSH0 SWAP1 SWAP2 SWAP1 SWAP2 SWAP1 SWAP2 POP PUSH0 DUP3 ADD MLOAD DUP2 PUSH0 ADD SSTORE PUSH1 0x20 DUP3 ADD MLOAD DUP2 PUSH1 0x1 ADD SWAP1 DUP2 PUSH2 0x1F4 SWAP2 SWAP1 PUSH2 0xEBB JUMP JUMPDEST POP PUSH1 0x40 DUP3 ADD MLOAD DUP2 PUSH1 0x2 ADD SWAP1 DUP2 PUSH2 0x20A SWAP2 SWAP1 PUSH2 0xEBB JUMP JUMPDEST POP PUSH1 0x60 DUP3 ADD MLOAD DUP2 PUSH1 0x3 ADD PUSH0 PUSH2 0x100 EXP DUP2 SLOAD DUP2 PUSH20 0xFFFFFFFFFFFFFFFFFFFFFFFFFFFFFFFFFFFFFFFF MUL NOT AND SWAP1 DUP4 PUSH20 0xFFFFFFFFFFFFFFFFFFFFFFFFFFFFFFFFFFFFFFFF AND MUL OR SWAP1 SSTORE POP PUSH1 0x80 DUP3 ADD MLOAD DUP2 PUSH1 0x4 ADD PUSH0 PUSH2 0x100 EXP DUP2 SLOAD DUP2 PUSH20 0xFFFFFFFFFFFFFFFFFFFFFFFFFFFFFFFFFFFFFFFF MUL NOT AND SWAP1 DUP4 PUSH20 0xFFFFFFFFFFFFFFFFFFFFFFFFFFFFFFFFFFFFFFFF AND MUL OR SWAP1 SSTORE POP PUSH1 0xA0 DUP3 ADD MLOAD DUP2 PUSH1 0x5 ADD PUSH0 PUSH2 0x100 EXP DUP2 SLOAD DUP2 PUSH20 0xFFFFFFFFFFFFFFFFFFFFFFFFFFFFFFFFFFFFFFFF MUL NOT AND SWAP1 DUP4 PUSH20 0xFFFFFFFFFFFFFFFFFFFFFFFFFFFFFFFFFFFFFFFF AND MUL OR SWAP1 SSTORE POP POP POP POP POP POP POP POP POP JUMP JUMPDEST PUSH0 PUSH2 0x2F1 DUP6 PUSH2 0x5D6 JUMP JUMPDEST SWAP1 POP DUP1 PUSH1 0x4 ADD PUSH0 SWAP1 SLOAD SWAP1 PUSH2 0x100 EXP SWAP1 DIV PUSH20 0xFFFFFFFFFFFFFFFFFFFFFFFFFFFFFFFFFFFFFFFF AND PUSH20 0xFFFFFFFFFFFFFFFFFFFFFFFFFFFFFFFFFFFFFFFF AND PUSH4 0x69C46826 DUP6 DUP6 DUP6 PUSH1 0x40 MLOAD DUP5 PUSH4 0xFFFFFFFF AND PUSH1 0xE0 SHL DUP2 MSTORE PUSH1 0x4 ADD PUSH2 0x353 SWAP4 SWAP3 SWAP2 SWAP1 PUSH2 0xF8A JUMP JUMPDEST PUSH0 PUSH1 0x40 MLOAD DUP1 DUP4 SUB DUP2 PUSH0 DUP8 DUP1 EXTCODESIZE ISZERO DUP1 ISZERO PUSH2 0x36A JUMPI PUSH0 PUSH0 REVERT JUMPDEST POP GAS CALL ISZERO DUP1 ISZERO PUSH2 0x37C JUMPI RETURNDATASIZE PUSH0 PUSH0 RETURNDATACOPY RETURNDATASIZE PUSH0 REVERT JUMPDEST POP POP POP POP POP POP POP POP POP JUMP JUMPDEST PUSH0 DUP2 DUP2 SLOAD DUP2 LT PUSH2 0x395 JUMPI PUSH0 DUP1 REVERT JUMPDEST SWAP1 PUSH0 MSTORE PUSH1 0x20 PUSH0 KECCAK256 SWAP1 PUSH1 0x6 MUL ADD PUSH0 SWAP2 POP SWAP1 POP DUP1 PUSH0 ADD SLOAD SWAP1 DUP1 PUSH1 0x1 ADD DUP1 SLOAD PUSH2 0x3BA SWAP1 PUSH2 0xCF4 JUMP JUMPDEST DUP1 PUSH1 0x1F ADD PUSH1 0x20 DUP1 SWAP2 DIV MUL PUSH1 0x20 ADD PUSH1 0x40 MLOAD SWAP1 DUP2 ADD PUSH1 0x40 MSTORE DUP1 SWAP3 SWAP2 SWAP1 DUP2 DUP2 MSTORE PUSH1 0x20 ADD DUP3 DUP1 SLOAD PUSH2 0x3E6 SWAP1 PUSH2 0xCF4 JUMP JUMPDEST DUP1 ISZERO PUSH2 0x431 JUMPI DUP1 PUSH1 0x1F LT PUSH2 0x408 JUMPI PUSH2 0x100 DUP1 DUP4 SLOAD DIV MUL DUP4 MSTORE SWAP2 PUSH1 0x20 ADD SWAP2 PUSH2 0x431 JUMP JUMPDEST DUP3 ADD SWAP2 SWAP1 PUSH0 MSTORE PUSH1 0x20 PUSH0 KECCAK256 SWAP1 JUMPDEST DUP2 SLOAD DUP2 MSTORE SWAP1 PUSH1 0x1 ADD SWAP1 PUSH1 0x20 ADD DUP1 DUP4 GT PUSH2 0x414 JUMPI DUP3 SWAP1 SUB PUSH1 0x1F AND DUP3 ADD SWAP2 JUMPDEST POP POP POP POP POP SWAP1 DUP1 PUSH1 0x2 ADD DUP1 SLOAD PUSH2 0x446 SWAP1 PUSH2 0xCF4 JUMP JUMPDEST DUP1 PUSH1 0x1F ADD PUSH1 0x20 DUP1 SWAP2 DIV MUL PUSH1 0x20 ADD PUSH1 0x40 MLOAD SWAP1 DUP2 ADD PUSH1 0x40 MSTORE DUP1 SWAP3 SWAP2 SWAP1 DUP2 DUP2 MSTORE PUSH1 0x20 ADD DUP3 DUP1 SLOAD PUSH2 0x472 SWAP1 PUSH2 0xCF4 JUMP JUMPDEST DUP1 ISZERO PUSH2 0x4BD JUMPI DUP1 PUSH1 0x1F LT PUSH2 0x494 JUMPI PUSH2 0x100 DUP1 DUP4 SLOAD DIV MUL DUP4 MSTORE SWAP2 PUSH1 0x20 ADD SWAP2 PUSH2 0x4BD JUMP JUMPDEST DUP3 ADD SWAP2 SWAP1 PUSH0 MSTORE PUSH1 0x20 PUSH0 KECCAK256 SWAP1 JUMPDEST DUP2 SLOAD DUP2 MSTORE SWAP1 PUSH1 0x1 ADD SWAP1 PUSH1 0x20 ADD DUP1 DUP4 GT PUSH2 0x4A0 JUMPI DUP3 SWAP1 SUB PUSH1 0x1F AND DUP3 ADD SWAP2 JUMPDEST POP POP POP POP POP SWAP1 DUP1 PUSH1 0x3 ADD PUSH0 SWAP1 SLOAD SWAP1 PUSH2 0x100 EXP SWAP1 DIV PUSH20 0xFFFFFFFFFFFFFFFFFFFFFFFFFFFFFFFFFFFFFFFF AND SWAP1 DUP1 PUSH1 0x4 ADD PUSH0 SWAP1 SLOAD SWAP1 PUSH2 0x100 EXP SWAP1 DIV PUSH20 0xFFFFFFFFFFFFFFFFFFFFFFFFFFFFFFFFFFFFFFFF AND SWAP1 DUP1 PUSH1 0x5 ADD PUSH0 SWAP1 SLOAD SWAP1 PUSH2 0x100 EXP SWAP1 DIV PUSH20 0xFFFFFFFFFFFFFFFFFFFFFFFFFFFFFFFFFFFFFFFF AND SWAP1 POP DUP7 JUMP JUMPDEST PUSH0 PUSH2 0x540 DUP6 PUSH2 0x5D6 JUMP JUMPDEST SWAP1 POP DUP1 PUSH1 0x5 ADD PUSH0 SWAP1 SLOAD SWAP1 PUSH2 0x100 EXP SWAP1 DIV PUSH20 0xFFFFFFFFFFFFFFFFFFFFFFFFFFFFFFFFFFFFFFFF AND PUSH20 0xFFFFFFFFFFFFFFFFFFFFFFFFFFFFFFFFFFFFFFFF AND PUSH4 0xB184C11E DUP6 DUP6 DUP6 PUSH1 0x40 MLOAD DUP5 PUSH4 0xFFFFFFFF AND PUSH1 0xE0 SHL DUP2 MSTORE PUSH1 0x4 ADD PUSH2 0x5A2 SWAP4 SWAP3 SWAP2 SWAP1 PUSH2 0xFD4 JUMP JUMPDEST PUSH0 PUSH1 0x40 MLOAD DUP1 DUP4 SUB DUP2 PUSH0 DUP8 DUP1 EXTCODESIZE ISZERO DUP1 ISZERO PUSH2 0x5B9 JUMPI PUSH0 PUSH0 REVERT JUMPDEST POP GAS CALL ISZERO DUP1 ISZERO PUSH2 0x5CB JUMPI RETURNDATASIZE PUSH0 PUSH0 RETURNDATACOPY RETURNDATASIZE PUSH0 REVERT JUMPDEST POP POP POP POP POP POP POP POP POP JUMP JUMPDEST PUSH0 PUSH0 PUSH0 SWAP1 POP JUMPDEST PUSH0 DUP1 SLOAD SWAP1 POP DUP2 LT ISZERO PUSH2 0x6F3 JUMPI DUP3 PUSH0 DUP3 DUP2 SLOAD DUP2 LT PUSH2 0x5FC JUMPI PUSH2 0x5FB PUSH2 0x1010 JUMP JUMPDEST JUMPDEST SWAP1 PUSH0 MSTORE PUSH1 0x20 PUSH0 KECCAK256 SWAP1 PUSH1 0x6 MUL ADD PUSH0 ADD SLOAD SUB PUSH2 0x6E6 JUMPI CALLER PUSH20 0xFFFFFFFFFFFFFFFFFFFFFFFFFFFFFFFFFFFFFFFF AND PUSH0 DUP3 DUP2 SLOAD DUP2 LT PUSH2 0x63A JUMPI PUSH2 0x639 PUSH2 0x1010 JUMP JUMPDEST JUMPDEST SWAP1 PUSH0 MSTORE PUSH1 0x20 PUSH0 KECCAK256 SWAP1 PUSH1 0x6 MUL ADD PUSH1 0x3 ADD PUSH0 SWAP1 SLOAD SWAP1 PUSH2 0x100 EXP SWAP1 DIV PUSH20 0xFFFFFFFFFFFFFFFFFFFFFFFFFFFFFFFFFFFFFFFF AND PUSH20 0xFFFFFFFFFFFFFFFFFFFFFFFFFFFFFFFFFFFFFFFF AND EQ PUSH2 0x6BF JUMPI PUSH1 0x40 MLOAD PUSH32 0x8C379A000000000000000000000000000000000000000000000000000000000 DUP2 MSTORE PUSH1 0x4 ADD PUSH2 0x6B6 SWAP1 PUSH2 0x1087 JUMP JUMPDEST PUSH1 0x40 MLOAD DUP1 SWAP2 SUB SWAP1 REVERT JUMPDEST PUSH0 DUP2 DUP2 SLOAD DUP2 LT PUSH2 0x6D2 JUMPI PUSH2 0x6D1 PUSH2 0x1010 JUMP JUMPDEST JUMPDEST SWAP1 PUSH0 MSTORE PUSH1 0x20 PUSH0 KECCAK256 SWAP1 PUSH1 0x6 MUL ADD SWAP2 POP POP PUSH2 0x72F JUMP JUMPDEST DUP1 DUP1 PUSH1 0x1 ADD SWAP2 POP POP PUSH2 0x5DC JUMP JUMPDEST POP PUSH1 0x40 MLOAD PUSH32 0x8C379A000000000000000000000000000000000000000000000000000000000 DUP2 MSTORE PUSH1 0x4 ADD PUSH2 0x726 SWAP1 PUSH2 0x1087 JUMP JUMPDEST PUSH1 0x40 MLOAD DUP1 SWAP2 SUB SWAP1 REVERT JUMPDEST SWAP2 SWAP1 POP JUMP JUMPDEST PUSH2 0xD98 DUP1 PUSH2 0x10A6 DUP4 CODECOPY ADD SWAP1 JUMP JUMPDEST PUSH2 0x90A DUP1 PUSH2 0x1E3E DUP4 CODECOPY ADD SWAP1 JUMP JUMPDEST PUSH0 PUSH1 0x40 MLOAD SWAP1 POP SWAP1 JUMP JUMPDEST PUSH0 PUSH0 REVERT JUMPDEST PUSH0 PUSH0 REVERT JUMPDEST PUSH0 PUSH0 REVERT JUMPDEST PUSH0 PUSH0 REVERT JUMPDEST PUSH0 PUSH1 0x1F NOT PUSH1 0x1F DUP4 ADD AND SWAP1 POP SWAP2 SWAP1 POP JUMP JUMPDEST PUSH32 0x4E487B7100000000000000000000000000000000000000000000000000000000 PUSH0 MSTORE PUSH1 0x41 PUSH1 0x4 MSTORE PUSH1 0x24 PUSH0 REVERT JUMPDEST PUSH2 0x7AD DUP3 PUSH2 0x767 JUMP JUMPDEST DUP2 ADD DUP2 DUP2 LT PUSH8 0xFFFFFFFFFFFFFFFF DUP3 GT OR ISZERO PUSH2 0x7CC JUMPI PUSH2 0x7CB PUSH2 0x777 JUMP JUMPDEST JUMPDEST DUP1 PUSH1 0x40 MSTORE POP POP POP JUMP JUMPDEST PUSH0 PUSH2 0x7DE PUSH2 0x74E JUMP JUMPDEST SWAP1 POP PUSH2 0x7EA DUP3 DUP3 PUSH2 0x7A4 JUMP JUMPDEST SWAP2 SWAP1 POP JUMP JUMPDEST PUSH0 PUSH8 0xFFFFFFFFFFFFFFFF DUP3 GT ISZERO PUSH2 0x809 JUMPI PUSH2 0x808 PUSH2 0x777 JUMP JUMPDEST JUMPDEST PUSH2 0x812 DUP3 PUSH2 0x767 JUMP JUMPDEST SWAP1 POP PUSH1 0x20 DUP2 ADD SWAP1 POP SWAP2 SWAP1 POP JUMP JUMPDEST DUP3 DUP2 DUP4 CALLDATACOPY PUSH0 DUP4 DUP4 ADD MSTORE POP POP POP JUMP JUMPDEST PUSH0 PUSH2 0x83F PUSH2 0x83A DUP5 PUSH2 0x7EF JUMP JUMPDEST PUSH2 0x7D5 JUMP JUMPDEST SWAP1 POP DUP3 DUP2 MSTORE PUSH1 0x20 DUP2 ADD DUP5 DUP5 DUP5 ADD GT ISZERO PUSH2 0x85B JUMPI PUSH2 0x85A PUSH2 0x763 JUMP JUMPDEST JUMPDEST PUSH2 0x866 DUP5 DUP3 DUP6 PUSH2 0x81F JUMP JUMPDEST POP SWAP4 SWAP3 POP POP POP JUMP JUMPDEST PUSH0 DUP3 PUSH1 0x1F DUP4 ADD SLT PUSH2 0x882 JUMPI PUSH2 0x881 PUSH2 0x75F JUMP JUMPDEST JUMPDEST DUP2 CALLDATALOAD PUSH2 0x892 DUP5 DUP3 PUSH1 0x20 DUP7 ADD PUSH2 0x82D JUMP JUMPDEST SWAP2 POP POP SWAP3 SWAP2 POP POP JUMP JUMPDEST PUSH0 PUSH0 PUSH1 0x40 DUP4 DUP6 SUB SLT ISZERO PUSH2 0x8B1 JUMPI PUSH2 0x8B0 PUSH2 0x757 JUMP JUMPDEST JUMPDEST PUSH0 DUP4 ADD CALLDATALOAD PUSH8 0xFFFFFFFFFFFFFFFF DUP2 GT ISZERO PUSH2 0x8CE JUMPI PUSH2 0x8CD PUSH2 0x75B JUMP JUMPDEST JUMPDEST PUSH2 0x8DA DUP6 DUP3 DUP7 ADD PUSH2 0x86E JUMP JUMPDEST SWAP3 POP POP PUSH1 0x20 DUP4 ADD CALLDATALOAD PUSH8 0xFFFFFFFFFFFFFFFF DUP2 GT ISZERO PUSH2 0x8FB JUMPI PUSH2 0x8FA PUSH2 0x75B JUMP JUMPDEST JUMPDEST PUSH2 0x907 DUP6 DUP3 DUP7 ADD PUSH2 0x86E JUMP JUMPDEST SWAP2 POP POP SWAP3 POP SWAP3 SWAP1 POP JUMP JUMPDEST PUSH0 DUP2 SWAP1 POP SWAP2 SWAP1 POP JUMP JUMPDEST PUSH2 0x923 DUP2 PUSH2 0x911 JUMP JUMPDEST DUP2 EQ PUSH2 0x92D JUMPI PUSH0 PUSH0 REVERT JUMPDEST POP JUMP JUMPDEST PUSH0 DUP2 CALLDATALOAD SWAP1 POP PUSH2 0x93E DUP2 PUSH2 0x91A JUMP JUMPDEST SWAP3 SWAP2 POP POP JUMP JUMPDEST PUSH0 PUSH0 PUSH0 PUSH0 PUSH1 0x80 DUP6 DUP8 SUB SLT ISZERO PUSH2 0x95C JUMPI PUSH2 0x95B PUSH2 0x757 JUMP JUMPDEST JUMPDEST PUSH0 PUSH2 0x969 DUP8 DUP3 DUP9 ADD PUSH2 0x930 JUMP JUMPDEST SWAP5 POP POP PUSH1 0x20 DUP6 ADD CALLDATALOAD PUSH8 0xFFFFFFFFFFFFFFFF DUP2 GT ISZERO PUSH2 0x98A JUMPI PUSH2 0x989 PUSH2 0x75B JUMP JUMPDEST JUMPDEST PUSH2 0x996 DUP8 DUP3 DUP9 ADD PUSH2 0x86E JUMP JUMPDEST SWAP4 POP POP PUSH1 0x40 DUP6 ADD CALLDATALOAD PUSH8 0xFFFFFFFFFFFFFFFF DUP2 GT ISZERO PUSH2 0x9B7 JUMPI PUSH2 0x9B6 PUSH2 0x75B JUMP JUMPDEST JUMPDEST PUSH2 0x9C3 DUP8 DUP3 DUP9 ADD PUSH2 0x86E JUMP JUMPDEST SWAP3 POP POP PUSH1 0x60 DUP6 ADD CALLDATALOAD PUSH8 0xFFFFFFFFFFFFFFFF DUP2 GT ISZERO PUSH2 0x9E4 JUMPI PUSH2 0x9E3 PUSH2 0x75B JUMP JUMPDEST JUMPDEST PUSH2 0x9F0 DUP8 DUP3 DUP9 ADD PUSH2 0x86E JUMP JUMPDEST SWAP2 POP POP SWAP3 SWAP6 SWAP2 SWAP5 POP SWAP3 POP JUMP JUMPDEST PUSH0 PUSH1 0x20 DUP3 DUP5 SUB SLT ISZERO PUSH2 0xA11 JUMPI PUSH2 0xA10 PUSH2 0x757 JUMP JUMPDEST JUMPDEST PUSH0 PUSH2 0xA1E DUP5 DUP3 DUP6 ADD PUSH2 0x930 JUMP JUMPDEST SWAP2 POP POP SWAP3 SWAP2 POP POP JUMP JUMPDEST PUSH2 0xA30 DUP2 PUSH2 0x911 JUMP JUMPDEST DUP3 MSTORE POP POP JUMP JUMPDEST PUSH0 DUP2 MLOAD SWAP1 POP SWAP2 SWAP1 POP JUMP JUMPDEST PUSH0 DUP3 DUP3 MSTORE PUSH1 0x20 DUP3 ADD SWAP1 POP SWAP3 SWAP2 POP POP JUMP JUMPDEST DUP3 DUP2 DUP4 MCOPY PUSH0 DUP4 DUP4 ADD MSTORE POP POP POP JUMP JUMPDEST PUSH0 PUSH2 0xA68 DUP3 PUSH2 0xA36 JUMP JUMPDEST PUSH2 0xA72 DUP2 DUP6 PUSH2 0xA40 JUMP JUMPDEST SWAP4 POP PUSH2 0xA82 DUP2 DUP6 PUSH1 0x20 DUP7 ADD PUSH2 0xA50 JUMP JUMPDEST PUSH2 0xA8B DUP2 PUSH2 0x767 JUMP JUMPDEST DUP5 ADD SWAP2 POP POP SWAP3 SWAP2 POP POP JUMP JUMPDEST PUSH0 PUSH20 0xFFFFFFFFFFFFFFFFFFFFFFFFFFFFFFFFFFFFFFFF DUP3 AND SWAP1 POP SWAP2 SWAP1 POP JUMP JUMPDEST PUSH0 PUSH2 0xABF DUP3 PUSH2 0xA96 JUMP JUMPDEST SWAP1 POP SWAP2 SWAP1 POP JUMP JUMPDEST PUSH2 0xACF DUP2 PUSH2 0xAB5 JUMP JUMPDEST DUP3 MSTORE POP POP JUMP JUMPDEST PUSH0 DUP2 SWAP1 POP SWAP2 SWAP1 POP JUMP JUMPDEST PUSH0 PUSH2 0xAF8 PUSH2 0xAF3 PUSH2 0xAEE DUP5 PUSH2 0xA96 JUMP JUMPDEST PUSH2 0xAD5 JUMP JUMPDEST PUSH2 0xA96 JUMP JUMPDEST SWAP1 POP SWAP2 SWAP1 POP JUMP JUMPDEST PUSH0 PUSH2 0xB09 DUP3 PUSH2 0xADE JUMP JUMPDEST SWAP1 POP SWAP2 SWAP1 POP JUMP JUMPDEST PUSH0 PUSH2 0xB1A DUP3 PUSH2 0xAFF JUMP JUMPDEST SWAP1 POP SWAP2 SWAP1 POP JUMP JUMPDEST PUSH2 0xB2A DUP2 PUSH2 0xB10 JUMP JUMPDEST DUP3 MSTORE POP POP JUMP JUMPDEST PUSH0 PUSH2 0xB3A DUP3 PUSH2 0xAFF JUMP JUMPDEST SWAP1 POP SWAP2 SWAP1 POP JUMP JUMPDEST PUSH2 0xB4A DUP2 PUSH2 0xB30 JUMP JUMPDEST DUP3 MSTORE POP POP JUMP JUMPDEST PUSH0 PUSH1 0xC0 DUP3 ADD SWAP1 POP PUSH2 0xB63 PUSH0 DUP4 ADD DUP10 PUSH2 0xA27 JUMP JUMPDEST DUP2 DUP2 SUB PUSH1 0x20 DUP4 ADD MSTORE PUSH2 0xB75 DUP2 DUP9 PUSH2 0xA5E JUMP JUMPDEST SWAP1 POP DUP2 DUP2 SUB PUSH1 0x40 DUP4 ADD MSTORE PUSH2 0xB89 DUP2 DUP8 PUSH2 0xA5E JUMP JUMPDEST SWAP1 POP PUSH2 0xB98 PUSH1 0x60 DUP4 ADD DUP7 PUSH2 0xAC6 JUMP JUMPDEST PUSH2 0xBA5 PUSH1 0x80 DUP4 ADD DUP6 PUSH2 0xB21 JUMP JUMPDEST PUSH2 0xBB2 PUSH1 0xA0 DUP4 ADD DUP5 PUSH2 0xB41 JUMP JUMPDEST SWAP8 SWAP7 POP POP POP POP POP POP POP JUMP JUMPDEST PUSH2 0xBC6 DUP2 PUSH2 0xAB5 JUMP JUMPDEST DUP2 EQ PUSH2 0xBD0 JUMPI PUSH0 PUSH0 REVERT JUMPDEST POP JUMP JUMPDEST PUSH0 DUP2 CALLDATALOAD SWAP1 POP PUSH2 0xBE1 DUP2 PUSH2 0xBBD JUMP JUMPDEST SWAP3 SWAP2 POP POP JUMP JUMPDEST PUSH0 PUSH0 PUSH0 PUSH0 PUSH1 0x80 DUP6 DUP8 SUB SLT ISZERO PUSH2 0xBFF JUMPI PUSH2 0xBFE PUSH2 0x757 JUMP JUMPDEST JUMPDEST PUSH0 PUSH2 0xC0C DUP8 DUP3 DUP9 ADD PUSH2 0x930 JUMP JUMPDEST SWAP5 POP POP PUSH1 0x20 DUP6 ADD CALLDATALOAD PUSH8 0xFFFFFFFFFFFFFFFF DUP2 GT ISZERO PUSH2 0xC2D JUMPI PUSH2 0xC2C PUSH2 0x75B JUMP JUMPDEST JUMPDEST PUSH2 0xC39 DUP8 DUP3 DUP9 ADD PUSH2 0x86E JUMP JUMPDEST SWAP4 POP POP PUSH1 0x40 PUSH2 0xC4A DUP8 DUP3 DUP9 ADD PUSH2 0x930 JUMP JUMPDEST SWAP3 POP POP PUSH1 0x60 PUSH2 0xC5B DUP8 DUP3 DUP9 ADD PUSH2 0xBD3 JUMP JUMPDEST SWAP2 POP POP SWAP3 SWAP6 SWAP2 SWAP5 POP SWAP3 POP JUMP JUMPDEST PUSH32 0x4E487B7100000000000000000000000000000000000000000000000000000000 PUSH0 MSTORE PUSH1 0x11 PUSH1 0x4 MSTORE PUSH1 0x24 PUSH0 REVERT JUMPDEST PUSH0 PUSH2 0xC9E DUP3 PUSH2 0x911 JUMP JUMPDEST SWAP2 POP PUSH2 0xCA9 DUP4 PUSH2 0x911 JUMP JUMPDEST SWAP3 POP DUP3 DUP3 ADD SWAP1 POP DUP1 DUP3 GT ISZERO PUSH2 0xCC1 JUMPI PUSH2 0xCC0 PUSH2 0xC67 JUMP JUMPDEST JUMPDEST SWAP3 SWAP2 POP POP JUMP JUMPDEST PUSH32 0x4E487B7100000000000000000000000000000000000000000000000000000000 PUSH0 MSTORE PUSH1 0x22 PUSH1 0x4 MSTORE PUSH1 0x24 PUSH0 REVERT JUMPDEST PUSH0 PUSH1 0x2 DUP3 DIV SWAP1 POP PUSH1 0x1 DUP3 AND DUP1 PUSH2 0xD0B JUMPI PUSH1 0x7F DUP3 AND SWAP2 POP JUMPDEST PUSH1 0x20 DUP3 LT DUP2 SUB PUSH2 0xD1E JUMPI PUSH2 0xD1D PUSH2 0xCC7 JUMP JUMPDEST JUMPDEST POP SWAP2 SWAP1 POP JUMP JUMPDEST PUSH0 DUP2 SWAP1 POP DUP2 PUSH0 MSTORE PUSH1 0x20 PUSH0 KECCAK256 SWAP1 POP SWAP2 SWAP1 POP JUMP JUMPDEST PUSH0 PUSH1 0x20 PUSH1 0x1F DUP4 ADD DIV SWAP1 POP SWAP2 SWAP1 POP JUMP JUMPDEST PUSH0 DUP3 DUP3 SHL SWAP1 POP SWAP3 SWAP2 POP POP JUMP JUMPDEST PUSH0 PUSH1 0x8 DUP4 MUL PUSH2 0xD80 PUSH32 0xFFFFFFFFFFFFFFFFFFFFFFFFFFFFFFFFFFFFFFFFFFFFFFFFFFFFFFFFFFFFFFFF DUP3 PUSH2 0xD45 JUMP JUMPDEST PUSH2 0xD8A DUP7 DUP4 PUSH2 0xD45 JUMP JUMPDEST SWAP6 POP DUP1 NOT DUP5 AND SWAP4 POP DUP1 DUP7 AND DUP5 OR SWAP3 POP POP POP SWAP4 SWAP3 POP POP POP JUMP JUMPDEST PUSH0 PUSH2 0xDBC PUSH2 0xDB7 PUSH2 0xDB2 DUP5 PUSH2 0x911 JUMP JUMPDEST PUSH2 0xAD5 JUMP JUMPDEST PUSH2 0x911 JUMP JUMPDEST SWAP1 POP SWAP2 SWAP1 POP JUMP JUMPDEST PUSH0 DUP2 SWAP1 POP SWAP2 SWAP1 POP JUMP JUMPDEST PUSH2 0xDD5 DUP4 PUSH2 0xDA2 JUMP JUMPDEST PUSH2 0xDE9 PUSH2 0xDE1 DUP3 PUSH2 0xDC3 JUMP JUMPDEST DUP5 DUP5 SLOAD PUSH2 0xD51 JUMP JUMPDEST DUP3 SSTORE POP POP POP POP JUMP JUMPDEST PUSH0 PUSH0 SWAP1 POP SWAP1 JUMP JUMPDEST PUSH2 0xE00 PUSH2 0xDF1 JUMP JUMPDEST PUSH2 0xE0B DUP2 DUP5 DUP5 PUSH2 0xDCC JUMP JUMPDEST POP POP POP JUMP JUMPDEST JUMPDEST DUP2 DUP2 LT ISZERO PUSH2 0xE2E JUMPI PUSH2 0xE23 PUSH0 DUP3 PUSH2 0xDF8 JUMP JUMPDEST PUSH1 0x1 DUP2 ADD SWAP1 POP PUSH2 0xE11 JUMP JUMPDEST POP POP JUMP JUMPDEST PUSH1 0x1F DUP3 GT ISZERO PUSH2 0xE73 JUMPI PUSH2 0xE44 DUP2 PUSH2 0xD24 JUMP JUMPDEST PUSH2 0xE4D DUP5 PUSH2 0xD36 JUMP JUMPDEST DUP2 ADD PUSH1 0x20 DUP6 LT ISZERO PUSH2 0xE5C JUMPI DUP2 SWAP1 POP JUMPDEST PUSH2 0xE70 PUSH2 0xE68 DUP6 PUSH2 0xD36 JUMP JUMPDEST DUP4 ADD DUP3 PUSH2 0xE10 JUMP JUMPDEST POP POP JUMPDEST POP POP POP JUMP JUMPDEST PUSH0 DUP3 DUP3 SHR SWAP1 POP SWAP3 SWAP2 POP POP JUMP JUMPDEST PUSH0 PUSH2 0xE93 PUSH0 NOT DUP5 PUSH1 0x8 MUL PUSH2 0xE78 JUMP JUMPDEST NOT DUP1 DUP4 AND SWAP2 POP POP SWAP3 SWAP2 POP POP JUMP JUMPDEST PUSH0 PUSH2 0xEAB DUP4 DUP4 PUSH2 0xE84 JUMP JUMPDEST SWAP2 POP DUP3 PUSH1 0x2 MUL DUP3 OR SWAP1 POP SWAP3 SWAP2 POP POP JUMP JUMPDEST PUSH2 0xEC4 DUP3 PUSH2 0xA36 JUMP JUMPDEST PUSH8 0xFFFFFFFFFFFFFFFF DUP2 GT ISZERO PUSH2 0xEDD JUMPI PUSH2 0xEDC PUSH2 0x777 JUMP JUMPDEST JUMPDEST PUSH2 0xEE7 DUP3 SLOAD PUSH2 0xCF4 JUMP JUMPDEST PUSH2 0xEF2 DUP3 DUP3 DUP6 PUSH2 0xE32 JUMP JUMPDEST PUSH0 PUSH1 0x20 SWAP1 POP PUSH1 0x1F DUP4 GT PUSH1 0x1 DUP2 EQ PUSH2 0xF23 JUMPI PUSH0 DUP5 ISZERO PUSH2 0xF11 JUMPI DUP3 DUP8 ADD MLOAD SWAP1 POP JUMPDEST PUSH2 0xF1B DUP6 DUP3 PUSH2 0xEA0 JUMP JUMPDEST DUP7 SSTORE POP PUSH2 0xF82 JUMP JUMPDEST PUSH1 0x1F NOT DUP5 AND PUSH2 0xF31 DUP7 PUSH2 0xD24 JUMP JUMPDEST PUSH0 JUMPDEST DUP3 DUP2 LT ISZERO PUSH2 0xF58 JUMPI DUP5 DUP10 ADD MLOAD DUP3 SSTORE PUSH1 0x1 DUP3 ADD SWAP2 POP PUSH1 0x20 DUP6 ADD SWAP5 POP PUSH1 0x20 DUP2 ADD SWAP1 POP PUSH2 0xF33 JUMP JUMPDEST DUP7 DUP4 LT ISZERO PUSH2 0xF75 JUMPI DUP5 DUP10 ADD MLOAD PUSH2 0xF71 PUSH1 0x1F DUP10 AND DUP3 PUSH2 0xE84 JUMP JUMPDEST DUP4 SSTORE POP JUMPDEST PUSH1 0x1 PUSH1 0x2 DUP9 MUL ADD DUP9 SSTORE POP POP POP JUMPDEST POP POP POP POP POP POP JUMP JUMPDEST PUSH0 PUSH1 0x60 DUP3 ADD SWAP1 POP DUP2 DUP2 SUB PUSH0 DUP4 ADD MSTORE PUSH2 0xFA2 DUP2 DUP7 PUSH2 0xA5E JUMP JUMPDEST SWAP1 POP DUP2 DUP2 SUB PUSH1 0x20 DUP4 ADD MSTORE PUSH2 0xFB6 DUP2 DUP6 PUSH2 0xA5E JUMP JUMPDEST SWAP1 POP DUP2 DUP2 SUB PUSH1 0x40 DUP4 ADD MSTORE PUSH2 0xFCA DUP2 DUP5 PUSH2 0xA5E JUMP JUMPDEST SWAP1 POP SWAP5 SWAP4 POP POP POP POP JUMP JUMPDEST PUSH0 PUSH1 0x60 DUP3 ADD SWAP1 POP DUP2 DUP2 SUB PUSH0 DUP4 ADD MSTORE PUSH2 0xFEC DUP2 DUP7 PUSH2 0xA5E JUMP JUMPDEST SWAP1 POP PUSH2 0xFFB PUSH1 0x20 DUP4 ADD DUP6 PUSH2 0xA27 JUMP JUMPDEST PUSH2 0x1008 PUSH1 0x40 DUP4 ADD DUP5 PUSH2 0xAC6 JUMP JUMPDEST SWAP5 SWAP4 POP POP POP POP JUMP JUMPDEST PUSH32 0x4E487B7100000000000000000000000000000000000000000000000000000000 PUSH0 MSTORE PUSH1 0x32 PUSH1 0x4 MSTORE PUSH1 0x24 PUSH0 REVERT JUMPDEST PUSH32 0x4C696272617279206E6F7420666F756E64210000000000000000000000000000 PUSH0 DUP3 ADD MSTORE POP JUMP JUMPDEST PUSH0 PUSH2 0x1071 PUSH1 0x12 DUP4 PUSH2 0xA40 JUMP JUMPDEST SWAP2 POP PUSH2 0x107C DUP3 PUSH2 0x103D JUMP JUMPDEST PUSH1 0x20 DUP3 ADD SWAP1 POP SWAP2 SWAP1 POP JUMP JUMPDEST PUSH0 PUSH1 0x20 DUP3 ADD SWAP1 POP DUP2 DUP2 SUB PUSH0 DUP4 ADD MSTORE PUSH2 0x109E DUP2 PUSH2 0x1065 JUMP JUMPDEST SWAP1 POP SWAP2 SWAP1 POP JUMP INVALID PUSH1 0x80 PUSH1 0x40 MSTORE CALLVALUE DUP1 ISZERO PUSH1 0xE JUMPI PUSH0 PUSH0 REVERT JUMPDEST POP PUSH2 0xD7C DUP1 PUSH2 0x1C PUSH0 CODECOPY PUSH0 RETURN INVALID PUSH1 0x80 PUSH1 0x40 MSTORE CALLVALUE DUP1 ISZERO PUSH2 0xF JUMPI PUSH0 PUSH0 REVERT JUMPDEST POP PUSH1 0x4 CALLDATASIZE LT PUSH2 0x3F JUMPI PUSH0 CALLDATALOAD PUSH1 0xE0 SHR DUP1 PUSH4 0x3088C00F EQ PUSH2 0x43 JUMPI DUP1 PUSH4 0x69C46826 EQ PUSH2 0x77 JUMPI DUP1 PUSH4 0x93BDB2BB EQ PUSH2 0x93 JUMPI JUMPDEST PUSH0 PUSH0 REVERT JUMPDEST PUSH2 0x5D PUSH1 0x4 DUP1 CALLDATASIZE SUB DUP2 ADD SWAP1 PUSH2 0x58 SWAP2 SWAP1 PUSH2 0x676 JUMP JUMPDEST PUSH2 0xC7 JUMP JUMPDEST PUSH1 0x40 MLOAD PUSH2 0x6E SWAP6 SWAP5 SWAP4 SWAP3 SWAP2 SWAP1 PUSH2 0x73A JUMP JUMPDEST PUSH1 0x40 MLOAD DUP1 SWAP2 SUB SWAP1 RETURN JUMPDEST PUSH2 0x91 PUSH1 0x4 DUP1 CALLDATASIZE SUB DUP2 ADD SWAP1 PUSH2 0x8C SWAP2 SWAP1 PUSH2 0x8CC JUMP JUMPDEST PUSH2 0x2A5 JUMP JUMPDEST STOP JUMPDEST PUSH2 0xAD PUSH1 0x4 DUP1 CALLDATASIZE SUB DUP2 ADD SWAP1 PUSH2 0xA8 SWAP2 SWAP1 PUSH2 0x970 JUMP JUMPDEST PUSH2 0x430 JUMP JUMPDEST PUSH1 0x40 MLOAD PUSH2 0xBE SWAP6 SWAP5 SWAP4 SWAP3 SWAP2 SWAP1 PUSH2 0x73A JUMP JUMPDEST PUSH1 0x40 MLOAD DUP1 SWAP2 SUB SWAP1 RETURN JUMPDEST PUSH0 DUP2 DUP2 SLOAD DUP2 LT PUSH2 0xD5 JUMPI PUSH0 DUP1 REVERT JUMPDEST SWAP1 PUSH0 MSTORE PUSH1 0x20 PUSH0 KECCAK256 SWAP1 PUSH1 0x5 MUL ADD PUSH0 SWAP2 POP SWAP1 POP DUP1 PUSH0 ADD SLOAD SWAP1 DUP1 PUSH1 0x1 ADD DUP1 SLOAD PUSH2 0xFA SWAP1 PUSH2 0x9F7 JUMP JUMPDEST DUP1 PUSH1 0x1F ADD PUSH1 0x20 DUP1 SWAP2 DIV MUL PUSH1 0x20 ADD PUSH1 0x40 MLOAD SWAP1 DUP2 ADD PUSH1 0x40 MSTORE DUP1 SWAP3 SWAP2 SWAP1 DUP2 DUP2 MSTORE PUSH1 0x20 ADD DUP3 DUP1 SLOAD PUSH2 0x126 SWAP1 PUSH2 0x9F7 JUMP JUMPDEST DUP1 ISZERO PUSH2 0x171 JUMPI DUP1 PUSH1 0x1F LT PUSH2 0x148 JUMPI PUSH2 0x100 DUP1 DUP4 SLOAD DIV MUL DUP4 MSTORE SWAP2 PUSH1 0x20 ADD SWAP2 PUSH2 0x171 JUMP JUMPDEST DUP3 ADD SWAP2 SWAP1 PUSH0 MSTORE PUSH1 0x20 PUSH0 KECCAK256 SWAP1 JUMPDEST DUP2 SLOAD DUP2 MSTORE SWAP1 PUSH1 0x1 ADD SWAP1 PUSH1 0x20 ADD DUP1 DUP4 GT PUSH2 0x154 JUMPI DUP3 SWAP1 SUB PUSH1 0x1F AND DUP3 ADD SWAP2 JUMPDEST POP POP POP POP POP SWAP1 DUP1 PUSH1 0x2 ADD DUP1 SLOAD PUSH2 0x186 SWAP1 PUSH2 0x9F7 JUMP JUMPDEST DUP1 PUSH1 0x1F ADD PUSH1 0x20 DUP1 SWAP2 DIV MUL PUSH1 0x20 ADD PUSH1 0x40 MLOAD SWAP1 DUP2 ADD PUSH1 0x40 MSTORE DUP1 SWAP3 SWAP2 SWAP1 DUP2 DUP2 MSTORE PUSH1 0x20 ADD DUP3 DUP1 SLOAD PUSH2 0x1B2 SWAP1 PUSH2 0x9F7 JUMP JUMPDEST DUP1 ISZERO PUSH2 0x1FD JUMPI DUP1 PUSH1 0x1F LT PUSH2 0x1D4 JUMPI PUSH2 0x100 DUP1 DUP4 SLOAD DIV MUL DUP4 MSTORE SWAP2 PUSH1 0x20 ADD SWAP2 PUSH2 0x1FD JUMP JUMPDEST DUP3 ADD SWAP2 SWAP1 PUSH0 MSTORE PUSH1 0x20 PUSH0 KECCAK256 SWAP1 JUMPDEST DUP2 SLOAD DUP2 MSTORE SWAP1 PUSH1 0x1 ADD SWAP1 PUSH1 0x20 ADD DUP1 DUP4 GT PUSH2 0x1E0 JUMPI DUP3 SWAP1 SUB PUSH1 0x1F AND DUP3 ADD SWAP2 JUMPDEST POP POP POP POP POP SWAP1 DUP1 PUSH1 0x3 ADD DUP1 SLOAD PUSH2 0x212 SWAP1 PUSH2 0x9F7 JUMP JUMPDEST DUP1 PUSH1 0x1F ADD PUSH1 0x20 DUP1 SWAP2 DIV MUL PUSH1 0x20 ADD PUSH1 0x40 MLOAD SWAP1 DUP2 ADD PUSH1 0x40 MSTORE DUP1 SWAP3 SWAP2 SWAP1 DUP2 DUP2 MSTORE PUSH1 0x20 ADD DUP3 DUP1 SLOAD PUSH2 0x23E SWAP1 PUSH2 0x9F7 JUMP JUMPDEST DUP1 ISZERO PUSH2 0x289 JUMPI DUP1 PUSH1 0x1F LT PUSH2 0x260 JUMPI PUSH2 0x100 DUP1 DUP4 SLOAD DIV MUL DUP4 MSTORE SWAP2 PUSH1 0x20 ADD SWAP2 PUSH2 0x289 JUMP JUMPDEST DUP3 ADD SWAP2 SWAP1 PUSH0 MSTORE PUSH1 0x20 PUSH0 KECCAK256 SWAP1 JUMPDEST DUP2 SLOAD DUP2 MSTORE SWAP1 PUSH1 0x1 ADD SWAP1 PUSH1 0x20 ADD DUP1 DUP4 GT PUSH2 0x26C JUMPI DUP3 SWAP1 SUB PUSH1 0x1F AND DUP3 ADD SWAP2 JUMPDEST POP POP POP POP POP SWAP1 DUP1 PUSH1 0x4 ADD PUSH0 SWAP1 SLOAD SWAP1 PUSH2 0x100 EXP SWAP1 DIV PUSH1 0xFF AND SWAP1 POP DUP6 JUMP JUMPDEST PUSH0 PUSH1 0x1 PUSH0 DUP1 SLOAD SWAP1 POP PUSH2 0x2B7 SWAP2 SWAP1 PUSH2 0xA54 JUMP JUMPDEST SWAP1 POP PUSH0 PUSH1 0x40 MLOAD DUP1 PUSH1 0xA0 ADD PUSH1 0x40 MSTORE DUP1 DUP4 DUP2 MSTORE PUSH1 0x20 ADD DUP7 DUP2 MSTORE PUSH1 0x20 ADD DUP6 DUP2 MSTORE PUSH1 0x20 ADD DUP5 DUP2 MSTORE PUSH1 0x20 ADD PUSH1 0x1 ISZERO ISZERO DUP2 MSTORE POP SWAP1 POP PUSH0 DUP2 SWAP1 DUP1 PUSH1 0x1 DUP2 SLOAD ADD DUP1 DUP3 SSTORE DUP1 SWAP2 POP POP PUSH1 0x1 SWAP1 SUB SWAP1 PUSH0 MSTORE PUSH1 0x20 PUSH0 KECCAK256 SWAP1 PUSH1 0x5 MUL ADD PUSH0 SWAP1 SWAP2 SWAP1 SWAP2 SWAP1 SWAP2 POP PUSH0 DUP3 ADD MLOAD DUP2 PUSH0 ADD SSTORE PUSH1 0x20 DUP3 ADD MLOAD DUP2 PUSH1 0x1 ADD SWAP1 DUP2 PUSH2 0x32B SWAP2 SWAP1 PUSH2 0xC27 JUMP JUMPDEST POP PUSH1 0x40 DUP3 ADD MLOAD DUP2 PUSH1 0x2 ADD SWAP1 DUP2 PUSH2 0x341 SWAP2 SWAP1 PUSH2 0xC27 JUMP JUMPDEST POP PUSH1 0x60 DUP3 ADD MLOAD DUP2 PUSH1 0x3 ADD SWAP1 DUP2 PUSH2 0x357 SWAP2 SWAP1 PUSH2 0xC27 JUMP JUMPDEST POP PUSH1 0x80 DUP3 ADD MLOAD DUP2 PUSH1 0x4 ADD PUSH0 PUSH2 0x100 EXP DUP2 SLOAD DUP2 PUSH1 0xFF MUL NOT AND SWAP1 DUP4 ISZERO ISZERO MUL OR SWAP1 SSTORE POP POP POP PUSH1 0x1 DUP4 PUSH1 0x40 MLOAD PUSH2 0x389 SWAP2 SWAP1 PUSH2 0xD30 JUMP JUMPDEST SWAP1 DUP2 MSTORE PUSH1 0x20 ADD PUSH1 0x40 MLOAD DUP1 SWAP2 SUB SWAP1 KECCAK256 DUP2 SWAP1 DUP1 PUSH1 0x1 DUP2 SLOAD ADD DUP1 DUP3 SSTORE DUP1 SWAP2 POP POP PUSH1 0x1 SWAP1 SUB SWAP1 PUSH0 MSTORE PUSH1 0x20 PUSH0 KECCAK256 SWAP1 PUSH1 0x5 MUL ADD PUSH0 SWAP1 SWAP2 SWAP1 SWAP2 SWAP1 SWAP2 POP PUSH0 DUP3 ADD MLOAD DUP2 PUSH0 ADD SSTORE PUSH1 0x20 DUP3 ADD MLOAD DUP2 PUSH1 0x1 ADD SWAP1 DUP2 PUSH2 0x3DB SWAP2 SWAP1 PUSH2 0xC27 JUMP JUMPDEST POP PUSH1 0x40 DUP3 ADD MLOAD DUP2 PUSH1 0x2 ADD SWAP1 DUP2 PUSH2 0x3F1 SWAP2 SWAP1 PUSH2 0xC27 JUMP JUMPDEST POP PUSH1 0x60 DUP3 ADD MLOAD DUP2 PUSH1 0x3 ADD SWAP1 DUP2 PUSH2 0x407 SWAP2 SWAP1 PUSH2 0xC27 JUMP JUMPDEST POP PUSH1 0x80 DUP3 ADD MLOAD DUP2 PUSH1 0x4 ADD PUSH0 PUSH2 0x100 EXP DUP2 SLOAD DUP2 PUSH1 0xFF MUL NOT AND SWAP1 DUP4 ISZERO ISZERO MUL OR SWAP1 SSTORE POP POP POP POP POP POP POP POP JUMP JUMPDEST PUSH1 0x1 DUP3 DUP1 MLOAD PUSH1 0x20 DUP2 ADD DUP3 ADD DUP1 MLOAD DUP5 DUP3 MSTORE PUSH1 0x20 DUP4 ADD PUSH1 0x20 DUP6 ADD KECCAK256 DUP2 DUP4 MSTORE DUP1 SWAP6 POP POP POP POP POP POP DUP2 DUP2 SLOAD DUP2 LT PUSH2 0x461 JUMPI PUSH0 DUP1 REVERT JUMPDEST SWAP1 PUSH0 MSTORE PUSH1 0x20 PUSH0 KECCAK256 SWAP1 PUSH1 0x5 MUL ADD PUSH0 SWAP2 POP SWAP2 POP POP DUP1 PUSH0 ADD SLOAD SWAP1 DUP1 PUSH1 0x1 ADD DUP1 SLOAD PUSH2 0x487 SWAP1 PUSH2 0x9F7 JUMP JUMPDEST DUP1 PUSH1 0x1F ADD PUSH1 0x20 DUP1 SWAP2 DIV MUL PUSH1 0x20 ADD PUSH1 0x40 MLOAD SWAP1 DUP2 ADD PUSH1 0x40 MSTORE DUP1 SWAP3 SWAP2 SWAP1 DUP2 DUP2 MSTORE PUSH1 0x20 ADD DUP3 DUP1 SLOAD PUSH2 0x4B3 SWAP1 PUSH2 0x9F7 JUMP JUMPDEST DUP1 ISZERO PUSH2 0x4FE JUMPI DUP1 PUSH1 0x1F LT PUSH2 0x4D5 JUMPI PUSH2 0x100 DUP1 DUP4 SLOAD DIV MUL DUP4 MSTORE SWAP2 PUSH1 0x20 ADD SWAP2 PUSH2 0x4FE JUMP JUMPDEST DUP3 ADD SWAP2 SWAP1 PUSH0 MSTORE PUSH1 0x20 PUSH0 KECCAK256 SWAP1 JUMPDEST DUP2 SLOAD DUP2 MSTORE SWAP1 PUSH1 0x1 ADD SWAP1 PUSH1 0x20 ADD DUP1 DUP4 GT PUSH2 0x4E1 JUMPI DUP3 SWAP1 SUB PUSH1 0x1F AND DUP3 ADD SWAP2 JUMPDEST POP POP POP POP POP SWAP1 DUP1 PUSH1 0x2 ADD DUP1 SLOAD PUSH2 0x513 SWAP1 PUSH2 0x9F7 JUMP JUMPDEST DUP1 PUSH1 0x1F ADD PUSH1 0x20 DUP1 SWAP2 DIV MUL PUSH1 0x20 ADD PUSH1 0x40 MLOAD SWAP1 DUP2 ADD PUSH1 0x40 MSTORE DUP1 SWAP3 SWAP2 SWAP1 DUP2 DUP2 MSTORE PUSH1 0x20 ADD DUP3 DUP1 SLOAD PUSH2 0x53F SWAP1 PUSH2 0x9F7 JUMP JUMPDEST DUP1 ISZERO PUSH2 0x58A JUMPI DUP1 PUSH1 0x1F LT PUSH2 0x561 JUMPI PUSH2 0x100 DUP1 DUP4 SLOAD DIV MUL DUP4 MSTORE SWAP2 PUSH1 0x20 ADD SWAP2 PUSH2 0x58A JUMP JUMPDEST DUP3 ADD SWAP2 SWAP1 PUSH0 MSTORE PUSH1 0x20 PUSH0 KECCAK256 SWAP1 JUMPDEST DUP2 SLOAD DUP2 MSTORE SWAP1 PUSH1 0x1 ADD SWAP1 PUSH1 0x20 ADD DUP1 DUP4 GT PUSH2 0x56D JUMPI DUP3 SWAP1 SUB PUSH1 0x1F AND DUP3 ADD SWAP2 JUMPDEST POP POP POP POP POP SWAP1 DUP1 PUSH1 0x3 ADD DUP1 SLOAD PUSH2 0x59F SWAP1 PUSH2 0x9F7 JUMP JUMPDEST DUP1 PUSH1 0x1F ADD PUSH1 0x20 DUP1 SWAP2 DIV MUL PUSH1 0x20 ADD PUSH1 0x40 MLOAD SWAP1 DUP2 ADD PUSH1 0x40 MSTORE DUP1 SWAP3 SWAP2 SWAP1 DUP2 DUP2 MSTORE PUSH1 0x20 ADD DUP3 DUP1 SLOAD PUSH2 0x5CB SWAP1 PUSH2 0x9F7 JUMP JUMPDEST DUP1 ISZERO PUSH2 0x616 JUMPI DUP1 PUSH1 0x1F LT PUSH2 0x5ED JUMPI PUSH2 0x100 DUP1 DUP4 SLOAD DIV MUL DUP4 MSTORE SWAP2 PUSH1 0x20 ADD SWAP2 PUSH2 0x616 JUMP JUMPDEST DUP3 ADD SWAP2 SWAP1 PUSH0 MSTORE PUSH1 0x20 PUSH0 KECCAK256 SWAP1 JUMPDEST DUP2 SLOAD DUP2 MSTORE SWAP1 PUSH1 0x1 ADD SWAP1 PUSH1 0x20 ADD DUP1 DUP4 GT PUSH2 0x5F9 JUMPI DUP3 SWAP1 SUB PUSH1 0x1F AND DUP3 ADD SWAP2 JUMPDEST POP POP POP POP POP SWAP1 DUP1 PUSH1 0x4 ADD PUSH0 SWAP1 SLOAD SWAP1 PUSH2 0x100 EXP SWAP1 DIV PUSH1 0xFF AND SWAP1 POP DUP6 JUMP JUMPDEST PUSH0 PUSH1 0x40 MLOAD SWAP1 POP SWAP1 JUMP JUMPDEST PUSH0 PUSH0 REVERT JUMPDEST PUSH0 PUSH0 REVERT JUMPDEST PUSH0 DUP2 SWAP1 POP SWAP2 SWAP1 POP JUMP JUMPDEST PUSH2 0x655 DUP2 PUSH2 0x643 JUMP JUMPDEST DUP2 EQ PUSH2 0x65F JUMPI PUSH0 PUSH0 REVERT JUMPDEST POP JUMP JUMPDEST PUSH0 DUP2 CALLDATALOAD SWAP1 POP PUSH2 0x670 DUP2 PUSH2 0x64C JUMP JUMPDEST SWAP3 SWAP2 POP POP JUMP JUMPDEST PUSH0 PUSH1 0x20 DUP3 DUP5 SUB SLT ISZERO PUSH2 0x68B JUMPI PUSH2 0x68A PUSH2 0x63B JUMP JUMPDEST JUMPDEST PUSH0 PUSH2 0x698 DUP5 DUP3 DUP6 ADD PUSH2 0x662 JUMP JUMPDEST SWAP2 POP POP SWAP3 SWAP2 POP POP JUMP JUMPDEST PUSH2 0x6AA DUP2 PUSH2 0x643 JUMP JUMPDEST DUP3 MSTORE POP POP JUMP JUMPDEST PUSH0 DUP2 MLOAD SWAP1 POP SWAP2 SWAP1 POP JUMP JUMPDEST PUSH0 DUP3 DUP3 MSTORE PUSH1 0x20 DUP3 ADD SWAP1 POP SWAP3 SWAP2 POP POP JUMP JUMPDEST DUP3 DUP2 DUP4 MCOPY PUSH0 DUP4 DUP4 ADD MSTORE POP POP POP JUMP JUMPDEST PUSH0 PUSH1 0x1F NOT PUSH1 0x1F DUP4 ADD AND SWAP1 POP SWAP2 SWAP1 POP JUMP JUMPDEST PUSH0 PUSH2 0x6F2 DUP3 PUSH2 0x6B0 JUMP JUMPDEST PUSH2 0x6FC DUP2 DUP6 PUSH2 0x6BA JUMP JUMPDEST SWAP4 POP PUSH2 0x70C DUP2 DUP6 PUSH1 0x20 DUP7 ADD PUSH2 0x6CA JUMP JUMPDEST PUSH2 0x715 DUP2 PUSH2 0x6D8 JUMP JUMPDEST DUP5 ADD SWAP2 POP POP SWAP3 SWAP2 POP POP JUMP JUMPDEST PUSH0 DUP2 ISZERO ISZERO SWAP1 POP SWAP2 SWAP1 POP JUMP JUMPDEST PUSH2 0x734 DUP2 PUSH2 0x720 JUMP JUMPDEST DUP3 MSTORE POP POP JUMP JUMPDEST PUSH0 PUSH1 0xA0 DUP3 ADD SWAP1 POP PUSH2 0x74D PUSH0 DUP4 ADD DUP9 PUSH2 0x6A1 JUMP JUMPDEST DUP2 DUP2 SUB PUSH1 0x20 DUP4 ADD MSTORE PUSH2 0x75F DUP2 DUP8 PUSH2 0x6E8 JUMP JUMPDEST SWAP1 POP DUP2 DUP2 SUB PUSH1 0x40 DUP4 ADD MSTORE PUSH2 0x773 DUP2 DUP7 PUSH2 0x6E8 JUMP JUMPDEST SWAP1 POP DUP2 DUP2 SUB PUSH1 0x60 DUP4 ADD MSTORE PUSH2 0x787 DUP2 DUP6 PUSH2 0x6E8 JUMP JUMPDEST SWAP1 POP PUSH2 0x796 PUSH1 0x80 DUP4 ADD DUP5 PUSH2 0x72B JUMP JUMPDEST SWAP7 SWAP6 POP POP POP POP POP POP JUMP JUMPDEST PUSH0 PUSH0 REVERT JUMPDEST PUSH0 PUSH0 REVERT JUMPDEST PUSH32 0x4E487B7100000000000000000000000000000000000000000000000000000000 PUSH0 MSTORE PUSH1 0x41 PUSH1 0x4 MSTORE PUSH1 0x24 PUSH0 REVERT JUMPDEST PUSH2 0x7DE DUP3 PUSH2 0x6D8 JUMP JUMPDEST DUP2 ADD DUP2 DUP2 LT PUSH8 0xFFFFFFFFFFFFFFFF DUP3 GT OR ISZERO PUSH2 0x7FD JUMPI PUSH2 0x7FC PUSH2 0x7A8 JUMP JUMPDEST JUMPDEST DUP1 PUSH1 0x40 MSTORE POP POP POP JUMP JUMPDEST PUSH0 PUSH2 0x80F PUSH2 0x632 JUMP JUMPDEST SWAP1 POP PUSH2 0x81B DUP3 DUP3 PUSH2 0x7D5 JUMP JUMPDEST SWAP2 SWAP1 POP JUMP JUMPDEST PUSH0 PUSH8 0xFFFFFFFFFFFFFFFF DUP3 GT ISZERO PUSH2 0x83A JUMPI PUSH2 0x839 PUSH2 0x7A8 JUMP JUMPDEST JUMPDEST PUSH2 0x843 DUP3 PUSH2 0x6D8 JUMP JUMPDEST SWAP1 POP PUSH1 0x20 DUP2 ADD SWAP1 POP SWAP2 SWAP1 POP JUMP JUMPDEST DUP3 DUP2 DUP4 CALLDATACOPY PUSH0 DUP4 DUP4 ADD MSTORE POP POP POP JUMP JUMPDEST PUSH0 PUSH2 0x870 PUSH2 0x86B DUP5 PUSH2 0x820 JUMP JUMPDEST PUSH2 0x806 JUMP JUMPDEST SWAP1 POP DUP3 DUP2 MSTORE PUSH1 0x20 DUP2 ADD DUP5 DUP5 DUP5 ADD GT ISZERO PUSH2 0x88C JUMPI PUSH2 0x88B PUSH2 0x7A4 JUMP JUMPDEST JUMPDEST PUSH2 0x897 DUP5 DUP3 DUP6 PUSH2 0x850 JUMP JUMPDEST POP SWAP4 SWAP3 POP POP POP JUMP JUMPDEST PUSH0 DUP3 PUSH1 0x1F DUP4 ADD SLT PUSH2 0x8B3 JUMPI PUSH2 0x8B2 PUSH2 0x7A0 JUMP JUMPDEST JUMPDEST DUP2 CALLDATALOAD PUSH2 0x8C3 DUP5 DUP3 PUSH1 0x20 DUP7 ADD PUSH2 0x85E JUMP JUMPDEST SWAP2 POP POP SWAP3 SWAP2 POP POP JUMP JUMPDEST PUSH0 PUSH0 PUSH0 PUSH1 0x60 DUP5 DUP7 SUB SLT ISZERO PUSH2 0x8E3 JUMPI PUSH2 0x8E2 PUSH2 0x63B JUMP JUMPDEST JUMPDEST PUSH0 DUP5 ADD CALLDATALOAD PUSH8 0xFFFFFFFFFFFFFFFF DUP2 GT ISZERO PUSH2 0x900 JUMPI PUSH2 0x8FF PUSH2 0x63F JUMP JUMPDEST JUMPDEST PUSH2 0x90C DUP7 DUP3 DUP8 ADD PUSH2 0x89F JUMP JUMPDEST SWAP4 POP POP PUSH1 0x20 DUP5 ADD CALLDATALOAD PUSH8 0xFFFFFFFFFFFFFFFF DUP2 GT ISZERO PUSH2 0x92D JUMPI PUSH2 0x92C PUSH2 0x63F JUMP JUMPDEST JUMPDEST PUSH2 0x939 DUP7 DUP3 DUP8 ADD PUSH2 0x89F JUMP JUMPDEST SWAP3 POP POP PUSH1 0x40 DUP5 ADD CALLDATALOAD PUSH8 0xFFFFFFFFFFFFFFFF DUP2 GT ISZERO PUSH2 0x95A JUMPI PUSH2 0x959 PUSH2 0x63F JUMP JUMPDEST JUMPDEST PUSH2 0x966 DUP7 DUP3 DUP8 ADD PUSH2 0x89F JUMP JUMPDEST SWAP2 POP POP SWAP3 POP SWAP3 POP SWAP3 JUMP JUMPDEST PUSH0 PUSH0 PUSH1 0x40 DUP4 DUP6 SUB SLT ISZERO PUSH2 0x986 JUMPI PUSH2 0x985 PUSH2 0x63B JUMP JUMPDEST JUMPDEST PUSH0 DUP4 ADD CALLDATALOAD PUSH8 0xFFFFFFFFFFFFFFFF DUP2 GT ISZERO PUSH2 0x9A3 JUMPI PUSH2 0x9A2 PUSH2 0x63F JUMP JUMPDEST JUMPDEST PUSH2 0x9AF DUP6 DUP3 DUP7 ADD PUSH2 0x89F JUMP JUMPDEST SWAP3 POP POP PUSH1 0x20 PUSH2 0x9C0 DUP6 DUP3 DUP7 ADD PUSH2 0x662 JUMP JUMPDEST SWAP2 POP POP SWAP3 POP SWAP3 SWAP1 POP JUMP JUMPDEST PUSH32 0x4E487B7100000000000000000000000000000000000000000000000000000000 PUSH0 MSTORE PUSH1 0x22 PUSH1 0x4 MSTORE PUSH1 0x24 PUSH0 REVERT JUMPDEST PUSH0 PUSH1 0x2 DUP3 DIV SWAP1 POP PUSH1 0x1 DUP3 AND DUP1 PUSH2 0xA0E JUMPI PUSH1 0x7F DUP3 AND SWAP2 POP JUMPDEST PUSH1 0x20 DUP3 LT DUP2 SUB PUSH2 0xA21 JUMPI PUSH2 0xA20 PUSH2 0x9CA JUMP JUMPDEST JUMPDEST POP SWAP2 SWAP1 POP JUMP JUMPDEST PUSH32 0x4E487B7100000000000000000000000000000000000000000000000000000000 PUSH0 MSTORE PUSH1 0x11 PUSH1 0x4 MSTORE PUSH1 0x24 PUSH0 REVERT JUMPDEST PUSH0 PUSH2 0xA5E DUP3 PUSH2 0x643 JUMP JUMPDEST SWAP2 POP PUSH2 0xA69 DUP4 PUSH2 0x643 JUMP JUMPDEST SWAP3 POP DUP3 DUP3 ADD SWAP1 POP DUP1 DUP3 GT ISZERO PUSH2 0xA81 JUMPI PUSH2 0xA80 PUSH2 0xA27 JUMP JUMPDEST JUMPDEST SWAP3 SWAP2 POP POP JUMP JUMPDEST PUSH0 DUP2 SWAP1 POP DUP2 PUSH0 MSTORE PUSH1 0x20 PUSH0 KECCAK256 SWAP1 POP SWAP2 SWAP1 POP JUMP JUMPDEST PUSH0 PUSH1 0x20 PUSH1 0x1F DUP4 ADD DIV SWAP1 POP SWAP2 SWAP1 POP JUMP JUMPDEST PUSH0 DUP3 DUP3 SHL SWAP1 POP SWAP3 SWAP2 POP POP JUMP JUMPDEST PUSH0 PUSH1 0x8 DUP4 MUL PUSH2 0xAE3 PUSH32 0xFFFFFFFFFFFFFFFFFFFFFFFFFFFFFFFFFFFFFFFFFFFFFFFFFFFFFFFFFFFFFFFF DUP3 PUSH2 0xAA8 JUMP JUMPDEST PUSH2 0xAED DUP7 DUP4 PUSH2 0xAA8 JUMP JUMPDEST SWAP6 POP DUP1 NOT DUP5 AND SWAP4 POP DUP1 DUP7 AND DUP5 OR SWAP3 POP POP POP SWAP4 SWAP3 POP POP POP JUMP JUMPDEST PUSH0 DUP2 SWAP1 POP SWAP2 SWAP1 POP JUMP JUMPDEST PUSH0 PUSH2 0xB28 PUSH2 0xB23 PUSH2 0xB1E DUP5 PUSH2 0x643 JUMP JUMPDEST PUSH2 0xB05 JUMP JUMPDEST PUSH2 0x643 JUMP JUMPDEST SWAP1 POP SWAP2 SWAP1 POP JUMP JUMPDEST PUSH0 DUP2 SWAP1 POP SWAP2 SWAP1 POP JUMP JUMPDEST PUSH2 0xB41 DUP4 PUSH2 0xB0E JUMP JUMPDEST PUSH2 0xB55 PUSH2 0xB4D DUP3 PUSH2 0xB2F JUMP JUMPDEST DUP5 DUP5 SLOAD PUSH2 0xAB4 JUMP JUMPDEST DUP3 SSTORE POP POP POP POP JUMP JUMPDEST PUSH0 PUSH0 SWAP1 POP SWAP1 JUMP JUMPDEST PUSH2 0xB6C PUSH2 0xB5D JUMP JUMPDEST PUSH2 0xB77 DUP2 DUP5 DUP5 PUSH2 0xB38 JUMP JUMPDEST POP POP POP JUMP JUMPDEST JUMPDEST DUP2 DUP2 LT ISZERO PUSH2 0xB9A JUMPI PUSH2 0xB8F PUSH0 DUP3 PUSH2 0xB64 JUMP JUMPDEST PUSH1 0x1 DUP2 ADD SWAP1 POP PUSH2 0xB7D JUMP JUMPDEST POP POP JUMP JUMPDEST PUSH1 0x1F DUP3 GT ISZERO PUSH2 0xBDF JUMPI PUSH2 0xBB0 DUP2 PUSH2 0xA87 JUMP JUMPDEST PUSH2 0xBB9 DUP5 PUSH2 0xA99 JUMP JUMPDEST DUP2 ADD PUSH1 0x20 DUP6 LT ISZERO PUSH2 0xBC8 JUMPI DUP2 SWAP1 POP JUMPDEST PUSH2 0xBDC PUSH2 0xBD4 DUP6 PUSH2 0xA99 JUMP JUMPDEST DUP4 ADD DUP3 PUSH2 0xB7C JUMP JUMPDEST POP POP JUMPDEST POP POP POP JUMP JUMPDEST PUSH0 DUP3 DUP3 SHR SWAP1 POP SWAP3 SWAP2 POP POP JUMP JUMPDEST PUSH0 PUSH2 0xBFF PUSH0 NOT DUP5 PUSH1 0x8 MUL PUSH2 0xBE4 JUMP JUMPDEST NOT DUP1 DUP4 AND SWAP2 POP POP SWAP3 SWAP2 POP POP JUMP JUMPDEST PUSH0 PUSH2 0xC17 DUP4 DUP4 PUSH2 0xBF0 JUMP JUMPDEST SWAP2 POP DUP3 PUSH1 0x2 MUL DUP3 OR SWAP1 POP SWAP3 SWAP2 POP POP JUMP JUMPDEST PUSH2 0xC30 DUP3 PUSH2 0x6B0 JUMP JUMPDEST PUSH8 0xFFFFFFFFFFFFFFFF DUP2 GT ISZERO PUSH2 0xC49 JUMPI PUSH2 0xC48 PUSH2 0x7A8 JUMP JUMPDEST JUMPDEST PUSH2 0xC53 DUP3 SLOAD PUSH2 0x9F7 JUMP JUMPDEST PUSH2 0xC5E DUP3 DUP3 DUP6 PUSH2 0xB9E JUMP JUMPDEST PUSH0 PUSH1 0x20 SWAP1 POP PUSH1 0x1F DUP4 GT PUSH1 0x1 DUP2 EQ PUSH2 0xC8F JUMPI PUSH0 DUP5 ISZERO PUSH2 0xC7D JUMPI DUP3 DUP8 ADD MLOAD SWAP1 POP JUMPDEST PUSH2 0xC87 DUP6 DUP3 PUSH2 0xC0C JUMP JUMPDEST DUP7 SSTORE POP PUSH2 0xCEE JUMP JUMPDEST PUSH1 0x1F NOT DUP5 AND PUSH2 0xC9D DUP7 PUSH2 0xA87 JUMP JUMPDEST PUSH0 JUMPDEST DUP3 DUP2 LT ISZERO PUSH2 0xCC4 JUMPI DUP5 DUP10 ADD MLOAD DUP3 SSTORE PUSH1 0x1 DUP3 ADD SWAP2 POP PUSH1 0x20 DUP6 ADD SWAP5 POP PUSH1 0x20 DUP2 ADD SWAP1 POP PUSH2 0xC9F JUMP JUMPDEST DUP7 DUP4 LT ISZERO PUSH2 0xCE1 JUMPI DUP5 DUP10 ADD MLOAD PUSH2 0xCDD PUSH1 0x1F DUP10 AND DUP3 PUSH2 0xBF0 JUMP JUMPDEST DUP4 SSTORE POP JUMPDEST PUSH1 0x1 PUSH1 0x2 DUP9 MUL ADD DUP9 SSTORE POP POP POP JUMPDEST POP POP POP POP POP POP JUMP JUMPDEST PUSH0 DUP2 SWAP1 POP SWAP3 SWAP2 POP POP JUMP JUMPDEST PUSH0 PUSH2 0xD0A DUP3 PUSH2 0x6B0 JUMP JUMPDEST PUSH2 0xD14 DUP2 DUP6 PUSH2 0xCF6 JUMP JUMPDEST SWAP4 POP PUSH2 0xD24 DUP2 DUP6 PUSH1 0x20 DUP7 ADD PUSH2 0x6CA JUMP JUMPDEST DUP1 DUP5 ADD SWAP2 POP POP SWAP3 SWAP2 POP POP JUMP JUMPDEST PUSH0 PUSH2 0xD3B DUP3 DUP5 PUSH2 0xD00 JUMP JUMPDEST SWAP2 POP DUP2 SWAP1 POP SWAP3 SWAP2 POP POP JUMP INVALID LOG2 PUSH5 0x6970667358 0x22 SLT KECCAK256 SWAP11 0x2A JUMPF 0xE1A9 0xD8 TLOAD 0xB5 0xE 0xCA SWAP2 SWAPN 0xB0 0x2D 0x21 0xDE 0xED 0xBA EXTSTATICCALL CALLDATASIZE PUSH31 0x5F75EB4A5105BD700E748B64736F6C634300081F0033608060405234801560 0xE JUMPI PUSH0 PUSH0 REVERT JUMPDEST POP PUSH2 0x8EE DUP1 PUSH2 0x1C PUSH0 CODECOPY PUSH0 RETURN INVALID PUSH1 0x80 PUSH1 0x40 MSTORE CALLVALUE DUP1 ISZERO PUSH2 0xF JUMPI PUSH0 PUSH0 REVERT JUMPDEST POP PUSH1 0x4 CALLDATASIZE LT PUSH2 0x34 JUMPI PUSH0 CALLDATALOAD PUSH1 0xE0 SHR DUP1 PUSH4 0x5DAF08CA EQ PUSH2 0x38 JUMPI DUP1 PUSH4 0xB184C11E EQ PUSH2 0x6B JUMPI JUMPDEST PUSH0 PUSH0 REVERT JUMPDEST PUSH2 0x52 PUSH1 0x4 DUP1 CALLDATASIZE SUB DUP2 ADD SWAP1 PUSH2 0x4D SWAP2 SWAP1 PUSH2 0x297 JUMP JUMPDEST PUSH2 0x87 JUMP JUMPDEST PUSH1 0x40 MLOAD PUSH2 0x62 SWAP5 SWAP4 SWAP3 SWAP2 SWAP1 PUSH2 0x380 JUMP JUMPDEST PUSH1 0x40 MLOAD DUP1 SWAP2 SUB SWAP1 RETURN JUMPDEST PUSH2 0x85 PUSH1 0x4 DUP1 CALLDATASIZE SUB DUP2 ADD SWAP1 PUSH2 0x80 SWAP2 SWAP1 PUSH2 0x520 JUMP JUMPDEST PUSH2 0x166 JUMP JUMPDEST STOP JUMPDEST PUSH0 DUP2 DUP2 SLOAD DUP2 LT PUSH2 0x95 JUMPI PUSH0 DUP1 REVERT JUMPDEST SWAP1 PUSH0 MSTORE PUSH1 0x20 PUSH0 KECCAK256 SWAP1 PUSH1 0x4 MUL ADD PUSH0 SWAP2 POP SWAP1 POP DUP1 PUSH0 ADD SLOAD SWAP1 DUP1 PUSH1 0x1 ADD DUP1 SLOAD PUSH2 0xBA SWAP1 PUSH2 0x5B9 JUMP JUMPDEST DUP1 PUSH1 0x1F ADD PUSH1 0x20 DUP1 SWAP2 DIV MUL PUSH1 0x20 ADD PUSH1 0x40 MLOAD SWAP1 DUP2 ADD PUSH1 0x40 MSTORE DUP1 SWAP3 SWAP2 SWAP1 DUP2 DUP2 MSTORE PUSH1 0x20 ADD DUP3 DUP1 SLOAD PUSH2 0xE6 SWAP1 PUSH2 0x5B9 JUMP JUMPDEST DUP1 ISZERO PUSH2 0x131 JUMPI DUP1 PUSH1 0x1F LT PUSH2 0x108 JUMPI PUSH2 0x100 DUP1 DUP4 SLOAD DIV MUL DUP4 MSTORE SWAP2 PUSH1 0x20 ADD SWAP2 PUSH2 0x131 JUMP JUMPDEST DUP3 ADD SWAP2 SWAP1 PUSH0 MSTORE PUSH1 0x20 PUSH0 KECCAK256 SWAP1 JUMPDEST DUP2 SLOAD DUP2 MSTORE SWAP1 PUSH1 0x1 ADD SWAP1 PUSH1 0x20 ADD DUP1 DUP4 GT PUSH2 0x114 JUMPI DUP3 SWAP1 SUB PUSH1 0x1F AND DUP3 ADD SWAP2 JUMPDEST POP POP POP POP POP SWAP1 DUP1 PUSH1 0x2 ADD SLOAD SWAP1 DUP1 PUSH1 0x3 ADD PUSH0 SWAP1 SLOAD SWAP1 PUSH2 0x100 EXP SWAP1 DIV PUSH20 0xFFFFFFFFFFFFFFFFFFFFFFFFFFFFFFFFFFFFFFFF AND SWAP1 POP DUP5 JUMP JUMPDEST PUSH0 PUSH1 0x1 PUSH0 DUP1 SLOAD SWAP1 POP PUSH2 0x178 SWAP2 SWAP1 PUSH2 0x616 JUMP JUMPDEST SWAP1 POP PUSH0 PUSH1 0x40 MLOAD DUP1 PUSH1 0x80 ADD PUSH1 0x40 MSTORE DUP1 DUP4 DUP2 MSTORE PUSH1 0x20 ADD DUP7 DUP2 MSTORE PUSH1 0x20 ADD DUP6 DUP2 MSTORE PUSH1 0x20 ADD DUP5 PUSH20 0xFFFFFFFFFFFFFFFFFFFFFFFFFFFFFFFFFFFFFFFF AND DUP2 MSTORE POP SWAP1 POP PUSH0 DUP2 SWAP1 DUP1 PUSH1 0x1 DUP2 SLOAD ADD DUP1 DUP3 SSTORE DUP1 SWAP2 POP POP PUSH1 0x1 SWAP1 SUB SWAP1 PUSH0 MSTORE PUSH1 0x20 PUSH0 KECCAK256 SWAP1 PUSH1 0x4 MUL ADD PUSH0 SWAP1 SWAP2 SWAP1 SWAP2 SWAP1 SWAP2 POP PUSH0 DUP3 ADD MLOAD DUP2 PUSH0 ADD SSTORE PUSH1 0x20 DUP3 ADD MLOAD DUP2 PUSH1 0x1 ADD SWAP1 DUP2 PUSH2 0x1F9 SWAP2 SWAP1 PUSH2 0x7E9 JUMP JUMPDEST POP PUSH1 0x40 DUP3 ADD MLOAD DUP2 PUSH1 0x2 ADD SSTORE PUSH1 0x60 DUP3 ADD MLOAD DUP2 PUSH1 0x3 ADD PUSH0 PUSH2 0x100 EXP DUP2 SLOAD DUP2 PUSH20 0xFFFFFFFFFFFFFFFFFFFFFFFFFFFFFFFFFFFFFFFF MUL NOT AND SWAP1 DUP4 PUSH20 0xFFFFFFFFFFFFFFFFFFFFFFFFFFFFFFFFFFFFFFFF AND MUL OR SWAP1 SSTORE POP POP POP POP POP POP POP POP JUMP JUMPDEST PUSH0 PUSH1 0x40 MLOAD SWAP1 POP SWAP1 JUMP JUMPDEST PUSH0 PUSH0 REVERT JUMPDEST PUSH0 PUSH0 REVERT JUMPDEST PUSH0 DUP2 SWAP1 POP SWAP2 SWAP1 POP JUMP JUMPDEST PUSH2 0x276 DUP2 PUSH2 0x264 JUMP JUMPDEST DUP2 EQ PUSH2 0x280 JUMPI PUSH0 PUSH0 REVERT JUMPDEST POP JUMP JUMPDEST PUSH0 DUP2 CALLDATALOAD SWAP1 POP PUSH2 0x291 DUP2 PUSH2 0x26D JUMP JUMPDEST SWAP3 SWAP2 POP POP JUMP JUMPDEST PUSH0 PUSH1 0x20 DUP3 DUP5 SUB SLT ISZERO PUSH2 0x2AC JUMPI PUSH2 0x2AB PUSH2 0x25C JUMP JUMPDEST JUMPDEST PUSH0 PUSH2 0x2B9 DUP5 DUP3 DUP6 ADD PUSH2 0x283 JUMP JUMPDEST SWAP2 POP POP SWAP3 SWAP2 POP POP JUMP JUMPDEST PUSH2 0x2CB DUP2 PUSH2 0x264 JUMP JUMPDEST DUP3 MSTORE POP POP JUMP JUMPDEST PUSH0 DUP2 MLOAD SWAP1 POP SWAP2 SWAP1 POP JUMP JUMPDEST PUSH0 DUP3 DUP3 MSTORE PUSH1 0x20 DUP3 ADD SWAP1 POP SWAP3 SWAP2 POP POP JUMP JUMPDEST DUP3 DUP2 DUP4 MCOPY PUSH0 DUP4 DUP4 ADD MSTORE POP POP POP JUMP JUMPDEST PUSH0 PUSH1 0x1F NOT PUSH1 0x1F DUP4 ADD AND SWAP1 POP SWAP2 SWAP1 POP JUMP JUMPDEST PUSH0 PUSH2 0x313 DUP3 PUSH2 0x2D1 JUMP JUMPDEST PUSH2 0x31D DUP2 DUP6 PUSH2 0x2DB JUMP JUMPDEST SWAP4 POP PUSH2 0x32D DUP2 DUP6 PUSH1 0x20 DUP7 ADD PUSH2 0x2EB JUMP JUMPDEST PUSH2 0x336 DUP2 PUSH2 0x2F9 JUMP JUMPDEST DUP5 ADD SWAP2 POP POP SWAP3 SWAP2 POP POP JUMP JUMPDEST PUSH0 PUSH20 0xFFFFFFFFFFFFFFFFFFFFFFFFFFFFFFFFFFFFFFFF DUP3 AND SWAP1 POP SWAP2 SWAP1 POP JUMP JUMPDEST PUSH0 PUSH2 0x36A DUP3 PUSH2 0x341 JUMP JUMPDEST SWAP1 POP SWAP2 SWAP1 POP JUMP JUMPDEST PUSH2 0x37A DUP2 PUSH2 0x360 JUMP JUMPDEST DUP3 MSTORE POP POP JUMP JUMPDEST PUSH0 PUSH1 0x80 DUP3 ADD SWAP1 POP PUSH2 0x393 PUSH0 DUP4 ADD DUP8 PUSH2 0x2C2 JUMP JUMPDEST DUP2 DUP2 SUB PUSH1 0x20 DUP4 ADD MSTORE PUSH2 0x3A5 DUP2 DUP7 PUSH2 0x309 JUMP JUMPDEST SWAP1 POP PUSH2 0x3B4 PUSH1 0x40 DUP4 ADD DUP6 PUSH2 0x2C2 JUMP JUMPDEST PUSH2 0x3C1 PUSH1 0x60 DUP4 ADD DUP5 PUSH2 0x371 JUMP JUMPDEST SWAP6 SWAP5 POP POP POP POP POP JUMP JUMPDEST PUSH0 PUSH0 REVERT JUMPDEST PUSH0 PUSH0 REVERT JUMPDEST PUSH32 0x4E487B7100000000000000000000000000000000000000000000000000000000 PUSH0 MSTORE PUSH1 0x41 PUSH1 0x4 MSTORE PUSH1 0x24 PUSH0 REVERT JUMPDEST PUSH2 0x408 DUP3 PUSH2 0x2F9 JUMP JUMPDEST DUP2 ADD DUP2 DUP2 LT PUSH8 0xFFFFFFFFFFFFFFFF DUP3 GT OR ISZERO PUSH2 0x427 JUMPI PUSH2 0x426 PUSH2 0x3D2 JUMP JUMPDEST JUMPDEST DUP1 PUSH1 0x40 MSTORE POP POP POP JUMP JUMPDEST PUSH0 PUSH2 0x439 PUSH2 0x253 JUMP JUMPDEST SWAP1 POP PUSH2 0x445 DUP3 DUP3 PUSH2 0x3FF JUMP JUMPDEST SWAP2 SWAP1 POP JUMP JUMPDEST PUSH0 PUSH8 0xFFFFFFFFFFFFFFFF DUP3 GT ISZERO PUSH2 0x464 JUMPI PUSH2 0x463 PUSH2 0x3D2 JUMP JUMPDEST JUMPDEST PUSH2 0x46D DUP3 PUSH2 0x2F9 JUMP JUMPDEST SWAP1 POP PUSH1 0x20 DUP2 ADD SWAP1 POP SWAP2 SWAP1 POP JUMP JUMPDEST DUP3 DUP2 DUP4 CALLDATACOPY PUSH0 DUP4 DUP4 ADD MSTORE POP POP POP JUMP JUMPDEST PUSH0 PUSH2 0x49A PUSH2 0x495 DUP5 PUSH2 0x44A JUMP JUMPDEST PUSH2 0x430 JUMP JUMPDEST SWAP1 POP DUP3 DUP2 MSTORE PUSH1 0x20 DUP2 ADD DUP5 DUP5 DUP5 ADD GT ISZERO PUSH2 0x4B6 JUMPI PUSH2 0x4B5 PUSH2 0x3CE JUMP JUMPDEST JUMPDEST PUSH2 0x4C1 DUP5 DUP3 DUP6 PUSH2 0x47A JUMP JUMPDEST POP SWAP4 SWAP3 POP POP POP JUMP JUMPDEST PUSH0 DUP3 PUSH1 0x1F DUP4 ADD SLT PUSH2 0x4DD JUMPI PUSH2 0x4DC PUSH2 0x3CA JUMP JUMPDEST JUMPDEST DUP2 CALLDATALOAD PUSH2 0x4ED DUP5 DUP3 PUSH1 0x20 DUP7 ADD PUSH2 0x488 JUMP JUMPDEST SWAP2 POP POP SWAP3 SWAP2 POP POP JUMP JUMPDEST PUSH2 0x4FF DUP2 PUSH2 0x360 JUMP JUMPDEST DUP2 EQ PUSH2 0x509 JUMPI PUSH0 PUSH0 REVERT JUMPDEST POP JUMP JUMPDEST PUSH0 DUP2 CALLDATALOAD SWAP1 POP PUSH2 0x51A DUP2 PUSH2 0x4F6 JUMP JUMPDEST SWAP3 SWAP2 POP POP JUMP JUMPDEST PUSH0 PUSH0 PUSH0 PUSH1 0x60 DUP5 DUP7 SUB SLT ISZERO PUSH2 0x537 JUMPI PUSH2 0x536 PUSH2 0x25C JUMP JUMPDEST JUMPDEST PUSH0 DUP5 ADD CALLDATALOAD PUSH8 0xFFFFFFFFFFFFFFFF DUP2 GT ISZERO PUSH2 0x554 JUMPI PUSH2 0x553 PUSH2 0x260 JUMP JUMPDEST JUMPDEST PUSH2 0x560 DUP7 DUP3 DUP8 ADD PUSH2 0x4C9 JUMP JUMPDEST SWAP4 POP POP PUSH1 0x20 PUSH2 0x571 DUP7 DUP3 DUP8 ADD PUSH2 0x283 JUMP JUMPDEST SWAP3 POP POP PUSH1 0x40 PUSH2 0x582 DUP7 DUP3 DUP8 ADD PUSH2 0x50C JUMP JUMPDEST SWAP2 POP POP SWAP3 POP SWAP3 POP SWAP3 JUMP JUMPDEST PUSH32 0x4E487B7100000000000000000000000000000000000000000000000000000000 PUSH0 MSTORE PUSH1 0x22 PUSH1 0x4 MSTORE PUSH1 0x24 PUSH0 REVERT JUMPDEST PUSH0 PUSH1 0x2 DUP3 DIV SWAP1 POP PUSH1 0x1 DUP3 AND DUP1 PUSH2 0x5D0 JUMPI PUSH1 0x7F DUP3 AND SWAP2 POP JUMPDEST PUSH1 0x20 DUP3 LT DUP2 SUB PUSH2 0x5E3 JUMPI PUSH2 0x5E2 PUSH2 0x58C JUMP JUMPDEST JUMPDEST POP SWAP2 SWAP1 POP JUMP JUMPDEST PUSH32 0x4E487B7100000000000000000000000000000000000000000000000000000000 PUSH0 MSTORE PUSH1 0x11 PUSH1 0x4 MSTORE PUSH1 0x24 PUSH0 REVERT JUMPDEST PUSH0 PUSH2 0x620 DUP3 PUSH2 0x264 JUMP JUMPDEST SWAP2 POP PUSH2 0x62B DUP4 PUSH2 0x264 JUMP JUMPDEST SWAP3 POP DUP3 DUP3 ADD SWAP1 POP DUP1 DUP3 GT ISZERO PUSH2 0x643 JUMPI PUSH2 0x642 PUSH2 0x5E9 JUMP JUMPDEST JUMPDEST SWAP3 SWAP2 POP POP JUMP JUMPDEST PUSH0 DUP2 SWAP1 POP DUP2 PUSH0 MSTORE PUSH1 0x20 PUSH0 KECCAK256 SWAP1 POP SWAP2 SWAP1 POP JUMP JUMPDEST PUSH0 PUSH1 0x20 PUSH1 0x1F DUP4 ADD DIV SWAP1 POP SWAP2 SWAP1 POP JUMP JUMPDEST PUSH0 DUP3 DUP3 SHL SWAP1 POP SWAP3 SWAP2 POP POP JUMP JUMPDEST PUSH0 PUSH1 0x8 DUP4 MUL PUSH2 0x6A5 PUSH32 0xFFFFFFFFFFFFFFFFFFFFFFFFFFFFFFFFFFFFFFFFFFFFFFFFFFFFFFFFFFFFFFFF DUP3 PUSH2 0x66A JUMP JUMPDEST PUSH2 0x6AF DUP7 DUP4 PUSH2 0x66A JUMP JUMPDEST SWAP6 POP DUP1 NOT DUP5 AND SWAP4 POP DUP1 DUP7 AND DUP5 OR SWAP3 POP POP POP SWAP4 SWAP3 POP POP POP JUMP JUMPDEST PUSH0 DUP2 SWAP1 POP SWAP2 SWAP1 POP JUMP JUMPDEST PUSH0 PUSH2 0x6EA PUSH2 0x6E5 PUSH2 0x6E0 DUP5 PUSH2 0x264 JUMP JUMPDEST PUSH2 0x6C7 JUMP JUMPDEST PUSH2 0x264 JUMP JUMPDEST SWAP1 POP SWAP2 SWAP1 POP JUMP JUMPDEST PUSH0 DUP2 SWAP1 POP SWAP2 SWAP1 POP JUMP JUMPDEST PUSH2 0x703 DUP4 PUSH2 0x6D0 JUMP JUMPDEST PUSH2 0x717 PUSH2 0x70F DUP3 PUSH2 0x6F1 JUMP JUMPDEST DUP5 DUP5 SLOAD PUSH2 0x676 JUMP JUMPDEST DUP3 SSTORE POP POP POP POP JUMP JUMPDEST PUSH0 PUSH0 SWAP1 POP SWAP1 JUMP JUMPDEST PUSH2 0x72E PUSH2 0x71F JUMP JUMPDEST PUSH2 0x739 DUP2 DUP5 DUP5 PUSH2 0x6FA JUMP JUMPDEST POP POP POP JUMP JUMPDEST JUMPDEST DUP2 DUP2 LT ISZERO PUSH2 0x75C JUMPI PUSH2 0x751 PUSH0 DUP3 PUSH2 0x726 JUMP JUMPDEST PUSH1 0x1 DUP2 ADD SWAP1 POP PUSH2 0x73F JUMP JUMPDEST POP POP JUMP JUMPDEST PUSH1 0x1F DUP3 GT ISZERO PUSH2 0x7A1 JUMPI PUSH2 0x772 DUP2 PUSH2 0x649 JUMP JUMPDEST PUSH2 0x77B DUP5 PUSH2 0x65B JUMP JUMPDEST DUP2 ADD PUSH1 0x20 DUP6 LT ISZERO PUSH2 0x78A JUMPI DUP2 SWAP1 POP JUMPDEST PUSH2 0x79E PUSH2 0x796 DUP6 PUSH2 0x65B JUMP JUMPDEST DUP4 ADD DUP3 PUSH2 0x73E JUMP JUMPDEST POP POP JUMPDEST POP POP POP JUMP JUMPDEST PUSH0 DUP3 DUP3 SHR SWAP1 POP SWAP3 SWAP2 POP POP JUMP JUMPDEST PUSH0 PUSH2 0x7C1 PUSH0 NOT DUP5 PUSH1 0x8 MUL PUSH2 0x7A6 JUMP JUMPDEST NOT DUP1 DUP4 AND SWAP2 POP POP SWAP3 SWAP2 POP POP JUMP JUMPDEST PUSH0 PUSH2 0x7D9 DUP4 DUP4 PUSH2 0x7B2 JUMP JUMPDEST SWAP2 POP DUP3 PUSH1 0x2 MUL DUP3 OR SWAP1 POP SWAP3 SWAP2 POP POP JUMP JUMPDEST PUSH2 0x7F2 DUP3 PUSH2 0x2D1 JUMP JUMPDEST PUSH8 0xFFFFFFFFFFFFFFFF DUP2 GT ISZERO PUSH2 0x80B JUMPI PUSH2 0x80A PUSH2 0x3D2 JUMP JUMPDEST JUMPDEST PUSH2 0x815 DUP3 SLOAD PUSH2 0x5B9 JUMP JUMPDEST PUSH2 0x820 DUP3 DUP3 DUP6 PUSH2 0x760 JUMP JUMPDEST PUSH0 PUSH1 0x20 SWAP1 POP PUSH1 0x1F DUP4 GT PUSH1 0x1 DUP2 EQ PUSH2 0x851 JUMPI PUSH0 DUP5 ISZERO PUSH2 0x83F JUMPI DUP3 DUP8 ADD MLOAD SWAP1 POP JUMPDEST PUSH2 0x849 DUP6 DUP3 PUSH2 0x7CE JUMP JUMPDEST DUP7 SSTORE POP PUSH2 0x8B0 JUMP JUMPDEST PUSH1 0x1F NOT DUP5 AND PUSH2 0x85F DUP7 PUSH2 0x649 JUMP JUMPDEST PUSH0 JUMPDEST DUP3 DUP2 LT ISZERO PUSH2 0x886 JUMPI DUP5 DUP10 ADD MLOAD DUP3 SSTORE PUSH1 0x1 DUP3 ADD SWAP2 POP PUSH1 0x20 DUP6 ADD SWAP5 POP PUSH1 0x20 DUP2 ADD SWAP1 POP PUSH2 0x861 JUMP JUMPDEST DUP7 DUP4 LT ISZERO PUSH2 0x8A3 JUMPI DUP5 DUP10 ADD MLOAD PUSH2 0x89F PUSH1 0x1F DUP10 AND DUP3 PUSH2 0x7B2 JUMP JUMPDEST DUP4 SSTORE POP JUMPDEST PUSH1 0x1 PUSH1 0x2 DUP9 MUL ADD DUP9 SSTORE POP POP POP JUMPDEST POP POP POP POP POP POP JUMP INVALID LOG2 PUSH5 0x6970667358 0x22 SLT KECCAK256 BALANCE SWAP2 0x1F SIGNEXTEND DUP10 CALL 0x23 DUP7 TIMESTAMP SWAP9 0xBF MLOAD SWAP8 0xD6 0xEB SWAP11 0xA5 PUSH26 0x839F1C7181BADD1A78FEDBA9786E64736F6C634300081F0033A2 PUSH5 0x6970667358 0x22 SLT KECCAK256 CALLDATALOAD SWAP3 PUSH30 0x21A8B7A9EE4244CC13F937A49FAA05538E300B810C5D0E8340A23F456F64 PUSH20 0x6F6C634300081F00330000000000000000000000 "
				},
				"gasEstimates": {
					"creation": {
						"codeDepositCost": "2021800",
						"executionCost": "2140",
						"totalCost": "2023940"
					},
					"external": {
						"addNeMember(uint256,string,uint256,address)": "infinite",
						"addNewBook(uint256,string,string,string)": "infinite",
						"libraries(uint256)": "infinite",
						"registerLibrary(string,string)": "infinite"
					},
					"internal": {
						"_getMyLibrary(uint256)": "infinite"
					}
				},
				"methodIdentifiers": {
					"addNeMember(uint256,string,uint256,address)": "c268f81e",
					"addNewBook(uint256,string,string,string)": "5397fbf3",
					"libraries(uint256)": "b1fbe72d",
					"registerLibrary(string,string)": "4cb2632e"
				}
			},
			"storageLayout": {
				"storage": [
					{
						"astId": 89,
						"contract": "Library.sol:LibraryContract",
						"label": "libraries",
						"offset": 0,
						"slot": "0",
						"type": "t_array(t_struct(Library)85_storage)dyn_storage"
					},
					{
						"astId": 93,
						"contract": "Library.sol:LibraryContract",
						"label": "libraryExist",
						"offset": 0,
						"slot": "1",
						"type": "t_mapping(t_bool,t_string_storage)"
					}
				],
				"types": {
					"t_address": {
						"encoding": "inplace",
						"label": "address",
						"numberOfBytes": "20"
					},
					"t_array(t_struct(Library)85_storage)dyn_storage": {
						"base": "t_struct(Library)85_storage",
						"encoding": "dynamic_array",
						"label": "struct LibraryContract.Library[]",
						"numberOfBytes": "32"
					},
					"t_bool": {
						"encoding": "inplace",
						"label": "bool",
						"numberOfBytes": "1"
					},
					"t_contract(BookContract)64": {
						"encoding": "inplace",
						"label": "contract BookContract",
						"numberOfBytes": "20"
					},
					"t_contract(MemberContract)300": {
						"encoding": "inplace",
						"label": "contract MemberContract",
						"numberOfBytes": "20"
					},
					"t_mapping(t_bool,t_string_storage)": {
						"encoding": "mapping",
						"key": "t_bool",
						"label": "mapping(bool => string)",
						"numberOfBytes": "32",
						"value": "t_string_storage"
					},
					"t_string_storage": {
						"encoding": "bytes",
						"label": "string",
						"numberOfBytes": "32"
					},
					"t_struct(Library)85_storage": {
						"encoding": "inplace",
						"label": "struct LibraryContract.Library",
						"members": [
							{
								"astId": 72,
								"contract": "Library.sol:LibraryContract",
								"label": "ID",
								"offset": 0,
								"slot": "0",
								"type": "t_uint256"
							},
							{
								"astId": 74,
								"contract": "Library.sol:LibraryContract",
								"label": "name",
								"offset": 0,
								"slot": "1",
								"type": "t_string_storage"
							},
							{
								"astId": 76,
								"contract": "Library.sol:LibraryContract",
								"label": "location",
								"offset": 0,
								"slot": "2",
								"type": "t_string_storage"
							},
							{
								"astId": 78,
								"contract": "Library.sol:LibraryContract",
								"label": "admin",
								"offset": 0,
								"slot": "3",
								"type": "t_address"
							},
							{
								"astId": 81,
								"contract": "Library.sol:LibraryContract",
								"label": "book",
								"offset": 0,
								"slot": "4",
								"type": "t_contract(BookContract)64"
							},
							{
								"astId": 84,
								"contract": "Library.sol:LibraryContract",
								"label": "member",
								"offset": 0,
								"slot": "5",
								"type": "t_contract(MemberContract)300"
							}
						],
						"numberOfBytes": "192"
					},
					"t_uint256": {
						"encoding": "inplace",
						"label": "uint256",
						"numberOfBytes": "32"
					}
				}
			},
			"userdoc": {
				"kind": "user",
				"methods": {},
				"version": 1
			}
		}
	}
}