{
	"Book.sol": {
		"BookContract": {
			"abi": [
				{
					"inputs": [
						{
							"internalType": "address",
							"name": "_memberContract",
							"type": "address"
						},
						{
							"internalType": "address payable",
							"name": "_libraryAdmin",
							"type": "address"
						},
						{
							"internalType": "uint256",
							"name": "_nonMemberBorrowFee",
							"type": "uint256"
						}
					],
					"stateMutability": "nonpayable",
					"type": "constructor"
				},
				{
					"inputs": [
						{
							"internalType": "string",
							"name": "_title",
							"type": "string"
						},
						{
							"internalType": "string",
							"name": "_author",
							"type": "string"
						},
						{
							"internalType": "string",
							"name": "_genre",
							"type": "string"
						},
						{
							"internalType": "uint256",
							"name": "_quantity",
							"type": "uint256"
						},
						{
							"internalType": "uint256",
							"name": "_price",
							"type": "uint256"
						},
						{
							"internalType": "uint256",
							"name": "_borrowFee",
							"type": "uint256"
						}
					],
					"name": "addBook",
					"outputs": [],
					"stateMutability": "nonpayable",
					"type": "function"
				},
				{
					"inputs": [],
					"name": "bookCounter",
					"outputs": [
						{
							"internalType": "uint256",
							"name": "",
							"type": "uint256"
						}
					],
					"stateMutability": "view",
					"type": "function"
				},
				{
					"inputs": [
						{
							"internalType": "uint256",
							"name": "",
							"type": "uint256"
						}
					],
					"name": "bookIds",
					"outputs": [
						{
							"internalType": "uint256",
							"name": "",
							"type": "uint256"
						}
					],
					"stateMutability": "view",
					"type": "function"
				},
				{
					"inputs": [
						{
							"internalType": "uint256",
							"name": "",
							"type": "uint256"
						}
					],
					"name": "books",
					"outputs": [
						{
							"internalType": "uint256",
							"name": "ID",
							"type": "uint256"
						},
						{
							"internalType": "string",
							"name": "title",
							"type": "string"
						},
						{
							"internalType": "string",
							"name": "author",
							"type": "string"
						},
						{
							"internalType": "string",
							"name": "genre",
							"type": "string"
						},
						{
							"internalType": "uint256",
							"name": "quantity",
							"type": "uint256"
						},
						{
							"internalType": "uint256",
							"name": "price",
							"type": "uint256"
						},
						{
							"internalType": "uint256",
							"name": "borrowFee",
							"type": "uint256"
						},
						{
							"internalType": "bool",
							"name": "exists",
							"type": "bool"
						},
						{
							"internalType": "uint256",
							"name": "date",
							"type": "uint256"
						}
					],
					"stateMutability": "view",
					"type": "function"
				},
				{
					"inputs": [
						{
							"internalType": "uint256",
							"name": "_ID",
							"type": "uint256"
						}
					],
					"name": "borrowBook",
					"outputs": [],
					"stateMutability": "payable",
					"type": "function"
				},
				{
					"inputs": [
						{
							"internalType": "uint256",
							"name": "",
							"type": "uint256"
						},
						{
							"internalType": "uint256",
							"name": "",
							"type": "uint256"
						}
					],
					"name": "borrowedHistory",
					"outputs": [
						{
							"internalType": "address",
							"name": "",
							"type": "address"
						}
					],
					"stateMutability": "view",
					"type": "function"
				},
				{
					"inputs": [],
					"name": "buyBook",
					"outputs": [],
					"stateMutability": "payable",
					"type": "function"
				},
				{
					"inputs": [
						{
							"internalType": "uint256",
							"name": "_ID",
							"type": "uint256"
						}
					],
					"name": "getBookById",
					"outputs": [
						{
							"components": [
								{
									"internalType": "uint256",
									"name": "ID",
									"type": "uint256"
								},
								{
									"internalType": "string",
									"name": "title",
									"type": "string"
								},
								{
									"internalType": "string",
									"name": "author",
									"type": "string"
								},
								{
									"internalType": "string",
									"name": "genre",
									"type": "string"
								},
								{
									"internalType": "uint256",
									"name": "quantity",
									"type": "uint256"
								},
								{
									"internalType": "uint256",
									"name": "price",
									"type": "uint256"
								},
								{
									"internalType": "uint256",
									"name": "borrowFee",
									"type": "uint256"
								},
								{
									"internalType": "bool",
									"name": "exists",
									"type": "bool"
								},
								{
									"internalType": "uint256",
									"name": "date",
									"type": "uint256"
								}
							],
							"internalType": "struct BookContract.Book",
							"name": "",
							"type": "tuple"
						}
					],
					"stateMutability": "view",
					"type": "function"
				},
				{
					"inputs": [],
					"name": "getBooks",
					"outputs": [
						{
							"components": [
								{
									"internalType": "uint256",
									"name": "ID",
									"type": "uint256"
								},
								{
									"internalType": "string",
									"name": "title",
									"type": "string"
								},
								{
									"internalType": "string",
									"name": "author",
									"type": "string"
								},
								{
									"internalType": "string",
									"name": "genre",
									"type": "string"
								},
								{
									"internalType": "uint256",
									"name": "quantity",
									"type": "uint256"
								},
								{
									"internalType": "uint256",
									"name": "price",
									"type": "uint256"
								},
								{
									"internalType": "uint256",
									"name": "borrowFee",
									"type": "uint256"
								},
								{
									"internalType": "bool",
									"name": "exists",
									"type": "bool"
								},
								{
									"internalType": "uint256",
									"name": "date",
									"type": "uint256"
								}
							],
							"internalType": "struct BookContract.Book[]",
							"name": "",
							"type": "tuple[]"
						}
					],
					"stateMutability": "view",
					"type": "function"
				},
				{
					"inputs": [
						{
							"internalType": "uint256",
							"name": "",
							"type": "uint256"
						},
						{
							"internalType": "address",
							"name": "",
							"type": "address"
						}
					],
					"name": "isBorrowing",
					"outputs": [
						{
							"internalType": "bool",
							"name": "",
							"type": "bool"
						}
					],
					"stateMutability": "view",
					"type": "function"
				},
				{
					"inputs": [],
					"name": "libraryAdmin",
					"outputs": [
						{
							"internalType": "address payable",
							"name": "",
							"type": "address"
						}
					],
					"stateMutability": "view",
					"type": "function"
				},
				{
					"inputs": [],
					"name": "memberContract",
					"outputs": [
						{
							"internalType": "contract MemberContract",
							"name": "",
							"type": "address"
						}
					],
					"stateMutability": "view",
					"type": "function"
				},
				{
					"inputs": [],
					"name": "nonMemberBorrowFee",
					"outputs": [
						{
							"internalType": "uint256",
							"name": "",
							"type": "uint256"
						}
					],
					"stateMutability": "view",
					"type": "function"
				},
				{
					"inputs": [
						{
							"internalType": "uint256",
							"name": "_ID",
							"type": "uint256"
						},
						{
							"internalType": "uint256",
							"name": "_quantity",
							"type": "uint256"
						}
					],
					"name": "restock",
					"outputs": [],
					"stateMutability": "nonpayable",
					"type": "function"
				},
				{
					"inputs": [
						{
							"internalType": "uint256",
							"name": "_ID",
							"type": "uint256"
						}
					],
					"name": "returnBook",
					"outputs": [],
					"stateMutability": "nonpayable",
					"type": "function"
				}
			],
			"devdoc": {
				"kind": "dev",
				"methods": {},
				"version": 1
			},
			"evm": {
				"assembly": "    /* \"Book.sol\":105:4892  contract BookContract {... */\n  mstore(0x40, 0x80)\n    /* \"Book.sol\":443:723  constructor(... */\n  callvalue\n  dup1\n  iszero\n  tag_1\n  jumpi\n  revert(0x00, 0x00)\ntag_1:\n  pop\n  mload(0x40)\n  sub(codesize, bytecodeSize)\n  dup1\n  bytecodeSize\n  dup4\n  codecopy\n  dup2\n  dup2\n  add\n  0x40\n  mstore\n  dup2\n  add\n  swap1\n  tag_2\n  swap2\n  swap1\n  tag_3\n  jump\t// in\ntag_2:\n    /* \"Book.sol\":612:627  _memberContract */\n  dup3\n    /* \"Book.sol\":580:594  memberContract */\n  0x01\n  0x00\n    /* \"Book.sol\":580:628  memberContract = MemberContract(_memberContract) */\n  0x0100\n  exp\n  dup2\n  sload\n  dup2\n  0xffffffffffffffffffffffffffffffffffffffff\n  mul\n  not\n  and\n  swap1\n  dup4\n  0xffffffffffffffffffffffffffffffffffffffff\n  and\n  mul\n  or\n  swap1\n  sstore\n  pop\n    /* \"Book.sol\":653:666  _libraryAdmin */\n  dup2\n    /* \"Book.sol\":638:650  libraryAdmin */\n  0x02\n  0x00\n    /* \"Book.sol\":638:666  libraryAdmin = _libraryAdmin */\n  0x0100\n  exp\n  dup2\n  sload\n  dup2\n  0xffffffffffffffffffffffffffffffffffffffff\n  mul\n  not\n  and\n  swap1\n  dup4\n  0xffffffffffffffffffffffffffffffffffffffff\n  and\n  mul\n  or\n  swap1\n  sstore\n  pop\n    /* \"Book.sol\":697:716  _nonMemberBorrowFee */\n  dup1\n    /* \"Book.sol\":676:694  nonMemberBorrowFee */\n  0x03\n    /* \"Book.sol\":676:716  nonMemberBorrowFee = _nonMemberBorrowFee */\n  dup2\n  swap1\n  sstore\n  pop\n    /* \"Book.sol\":443:723  constructor(... */\n  pop\n  pop\n  pop\n    /* \"Book.sol\":105:4892  contract BookContract {... */\n  jump(tag_6)\n    /* \"#utility.yul\":88:205   */\ntag_8:\n    /* \"#utility.yul\":197:198   */\n  0x00\n    /* \"#utility.yul\":194:195   */\n  0x00\n    /* \"#utility.yul\":187:199   */\n  revert\n    /* \"#utility.yul\":334:460   */\ntag_10:\n    /* \"#utility.yul\":371:378   */\n  0x00\n    /* \"#utility.yul\":411:453   */\n  0xffffffffffffffffffffffffffffffffffffffff\n    /* \"#utility.yul\":404:409   */\n  dup3\n    /* \"#utility.yul\":400:454   */\n  and\n    /* \"#utility.yul\":389:454   */\n  swap1\n  pop\n    /* \"#utility.yul\":334:460   */\n  swap2\n  swap1\n  pop\n  jump\t// out\n    /* \"#utility.yul\":466:562   */\ntag_11:\n    /* \"#utility.yul\":503:510   */\n  0x00\n    /* \"#utility.yul\":532:556   */\n  tag_26\n    /* \"#utility.yul\":550:555   */\n  dup3\n    /* \"#utility.yul\":532:556   */\n  tag_10\n  jump\t// in\ntag_26:\n    /* \"#utility.yul\":521:556   */\n  swap1\n  pop\n    /* \"#utility.yul\":466:562   */\n  swap2\n  swap1\n  pop\n  jump\t// out\n    /* \"#utility.yul\":568:690   */\ntag_12:\n    /* \"#utility.yul\":641:665   */\n  tag_28\n    /* \"#utility.yul\":659:664   */\n  dup2\n    /* \"#utility.yul\":641:665   */\n  tag_11\n  jump\t// in\ntag_28:\n    /* \"#utility.yul\":634:639   */\n  dup2\n    /* \"#utility.yul\":631:666   */\n  eq\n    /* \"#utility.yul\":621:684   */\n  tag_29\n  jumpi\n    /* \"#utility.yul\":680:681   */\n  0x00\n    /* \"#utility.yul\":677:678   */\n  0x00\n    /* \"#utility.yul\":670:682   */\n  revert\n    /* \"#utility.yul\":621:684   */\ntag_29:\n    /* \"#utility.yul\":568:690   */\n  pop\n  jump\t// out\n    /* \"#utility.yul\":696:839   */\ntag_13:\n    /* \"#utility.yul\":753:758   */\n  0x00\n    /* \"#utility.yul\":784:790   */\n  dup2\n    /* \"#utility.yul\":778:791   */\n  mload\n    /* \"#utility.yul\":769:791   */\n  swap1\n  pop\n    /* \"#utility.yul\":800:833   */\n  tag_31\n    /* \"#utility.yul\":827:832   */\n  dup2\n    /* \"#utility.yul\":800:833   */\n  tag_12\n  jump\t// in\ntag_31:\n    /* \"#utility.yul\":696:839   */\n  swap3\n  swap2\n  pop\n  pop\n  jump\t// out\n    /* \"#utility.yul\":845:949   */\ntag_14:\n    /* \"#utility.yul\":890:897   */\n  0x00\n    /* \"#utility.yul\":919:943   */\n  tag_33\n    /* \"#utility.yul\":937:942   */\n  dup3\n    /* \"#utility.yul\":919:943   */\n  tag_10\n  jump\t// in\ntag_33:\n    /* \"#utility.yul\":908:943   */\n  swap1\n  pop\n    /* \"#utility.yul\":845:949   */\n  swap2\n  swap1\n  pop\n  jump\t// out\n    /* \"#utility.yul\":955:1093   */\ntag_15:\n    /* \"#utility.yul\":1036:1068   */\n  tag_35\n    /* \"#utility.yul\":1062:1067   */\n  dup2\n    /* \"#utility.yul\":1036:1068   */\n  tag_14\n  jump\t// in\ntag_35:\n    /* \"#utility.yul\":1029:1034   */\n  dup2\n    /* \"#utility.yul\":1026:1069   */\n  eq\n    /* \"#utility.yul\":1016:1087   */\n  tag_36\n  jumpi\n    /* \"#utility.yul\":1083:1084   */\n  0x00\n    /* \"#utility.yul\":1080:1081   */\n  0x00\n    /* \"#utility.yul\":1073:1085   */\n  revert\n    /* \"#utility.yul\":1016:1087   */\ntag_36:\n    /* \"#utility.yul\":955:1093   */\n  pop\n  jump\t// out\n    /* \"#utility.yul\":1099:1258   */\ntag_16:\n    /* \"#utility.yul\":1164:1169   */\n  0x00\n    /* \"#utility.yul\":1195:1201   */\n  dup2\n    /* \"#utility.yul\":1189:1202   */\n  mload\n    /* \"#utility.yul\":1180:1202   */\n  swap1\n  pop\n    /* \"#utility.yul\":1211:1252   */\n  tag_38\n    /* \"#utility.yul\":1246:1251   */\n  dup2\n    /* \"#utility.yul\":1211:1252   */\n  tag_15\n  jump\t// in\ntag_38:\n    /* \"#utility.yul\":1099:1258   */\n  swap3\n  swap2\n  pop\n  pop\n  jump\t// out\n    /* \"#utility.yul\":1264:1341   */\ntag_17:\n    /* \"#utility.yul\":1301:1308   */\n  0x00\n    /* \"#utility.yul\":1330:1335   */\n  dup2\n    /* \"#utility.yul\":1319:1335   */\n  swap1\n  pop\n    /* \"#utility.yul\":1264:1341   */\n  swap2\n  swap1\n  pop\n  jump\t// out\n    /* \"#utility.yul\":1347:1469   */\ntag_18:\n    /* \"#utility.yul\":1420:1444   */\n  tag_41\n    /* \"#utility.yul\":1438:1443   */\n  dup2\n    /* \"#utility.yul\":1420:1444   */\n  tag_17\n  jump\t// in\ntag_41:\n    /* \"#utility.yul\":1413:1418   */\n  dup2\n    /* \"#utility.yul\":1410:1445   */\n  eq\n    /* \"#utility.yul\":1400:1463   */\n  tag_42\n  jumpi\n    /* \"#utility.yul\":1459:1460   */\n  0x00\n    /* \"#utility.yul\":1456:1457   */\n  0x00\n    /* \"#utility.yul\":1449:1461   */\n  revert\n    /* \"#utility.yul\":1400:1463   */\ntag_42:\n    /* \"#utility.yul\":1347:1469   */\n  pop\n  jump\t// out\n    /* \"#utility.yul\":1475:1618   */\ntag_19:\n    /* \"#utility.yul\":1532:1537   */\n  0x00\n    /* \"#utility.yul\":1563:1569   */\n  dup2\n    /* \"#utility.yul\":1557:1570   */\n  mload\n    /* \"#utility.yul\":1548:1570   */\n  swap1\n  pop\n    /* \"#utility.yul\":1579:1612   */\n  tag_44\n    /* \"#utility.yul\":1606:1611   */\n  dup2\n    /* \"#utility.yul\":1579:1612   */\n  tag_18\n  jump\t// in\ntag_44:\n    /* \"#utility.yul\":1475:1618   */\n  swap3\n  swap2\n  pop\n  pop\n  jump\t// out\n    /* \"#utility.yul\":1624:2303   */\ntag_3:\n    /* \"#utility.yul\":1720:1726   */\n  0x00\n    /* \"#utility.yul\":1728:1734   */\n  0x00\n    /* \"#utility.yul\":1736:1742   */\n  0x00\n    /* \"#utility.yul\":1785:1787   */\n  0x60\n    /* \"#utility.yul\":1773:1782   */\n  dup5\n    /* \"#utility.yul\":1764:1771   */\n  dup7\n    /* \"#utility.yul\":1760:1783   */\n  sub\n    /* \"#utility.yul\":1756:1788   */\n  slt\n    /* \"#utility.yul\":1753:1872   */\n  iszero\n  tag_46\n  jumpi\n    /* \"#utility.yul\":1791:1870   */\n  tag_47\n  tag_8\n  jump\t// in\ntag_47:\n    /* \"#utility.yul\":1753:1872   */\ntag_46:\n    /* \"#utility.yul\":1911:1912   */\n  0x00\n    /* \"#utility.yul\":1936:2000   */\n  tag_48\n    /* \"#utility.yul\":1992:1999   */\n  dup7\n    /* \"#utility.yul\":1983:1989   */\n  dup3\n    /* \"#utility.yul\":1972:1981   */\n  dup8\n    /* \"#utility.yul\":1968:1990   */\n  add\n    /* \"#utility.yul\":1936:2000   */\n  tag_13\n  jump\t// in\ntag_48:\n    /* \"#utility.yul\":1926:2000   */\n  swap4\n  pop\n    /* \"#utility.yul\":1882:2010   */\n  pop\n    /* \"#utility.yul\":2049:2051   */\n  0x20\n    /* \"#utility.yul\":2075:2147   */\n  tag_49\n    /* \"#utility.yul\":2139:2146   */\n  dup7\n    /* \"#utility.yul\":2130:2136   */\n  dup3\n    /* \"#utility.yul\":2119:2128   */\n  dup8\n    /* \"#utility.yul\":2115:2137   */\n  add\n    /* \"#utility.yul\":2075:2147   */\n  tag_16\n  jump\t// in\ntag_49:\n    /* \"#utility.yul\":2065:2147   */\n  swap3\n  pop\n    /* \"#utility.yul\":2020:2157   */\n  pop\n    /* \"#utility.yul\":2196:2198   */\n  0x40\n    /* \"#utility.yul\":2222:2286   */\n  tag_50\n    /* \"#utility.yul\":2278:2285   */\n  dup7\n    /* \"#utility.yul\":2269:2275   */\n  dup3\n    /* \"#utility.yul\":2258:2267   */\n  dup8\n    /* \"#utility.yul\":2254:2276   */\n  add\n    /* \"#utility.yul\":2222:2286   */\n  tag_19\n  jump\t// in\ntag_50:\n    /* \"#utility.yul\":2212:2286   */\n  swap2\n  pop\n    /* \"#utility.yul\":2167:2296   */\n  pop\n    /* \"#utility.yul\":1624:2303   */\n  swap3\n  pop\n  swap3\n  pop\n  swap3\n  jump\t// out\n    /* \"Book.sol\":105:4892  contract BookContract {... */\ntag_6:\n  dataSize(sub_0)\n  dup1\n  dataOffset(sub_0)\n  0x00\n  codecopy\n  0x00\n  return\nstop\n\nsub_0: assembly {\n        /* \"Book.sol\":105:4892  contract BookContract {... */\n      mstore(0x40, 0x80)\n      jumpi(tag_1, lt(calldatasize, 0x04))\n      shr(0xe0, calldataload(0x00))\n      dup1\n      0x9f349789\n      gt\n      tag_17\n      jumpi\n      dup1\n      0xca5140c9\n      gt\n      tag_18\n      jumpi\n      dup1\n      0xca5140c9\n      eq\n      tag_13\n      jumpi\n      dup1\n      0xddd5987f\n      eq\n      tag_14\n      jumpi\n      dup1\n      0xef2ede05\n      eq\n      tag_15\n      jumpi\n      dup1\n      0xff418352\n      eq\n      tag_16\n      jumpi\n      jump(tag_1)\n    tag_18:\n      dup1\n      0x9f349789\n      eq\n      tag_9\n      jumpi\n      dup1\n      0xa1ef3577\n      eq\n      tag_10\n      jumpi\n      dup1\n      0xa9d00e66\n      eq\n      tag_11\n      jumpi\n      dup1\n      0xc40cf4eb\n      eq\n      tag_12\n      jumpi\n      jump(tag_1)\n    tag_17:\n      dup1\n      0x513073b8\n      gt\n      tag_19\n      jumpi\n      dup1\n      0x513073b8\n      eq\n      tag_5\n      jumpi\n      dup1\n      0x68744046\n      eq\n      tag_6\n      jumpi\n      dup1\n      0x7e490a9e\n      eq\n      tag_7\n      jumpi\n      dup1\n      0x85d04bae\n      eq\n      tag_8\n      jumpi\n      jump(tag_1)\n    tag_19:\n      dup1\n      0x1792a6da\n      eq\n      tag_2\n      jumpi\n      dup1\n      0x189a55e7\n      eq\n      tag_3\n      jumpi\n      dup1\n      0x418b79ab\n      eq\n      tag_4\n      jumpi\n    tag_1:\n      revert(0x00, 0x00)\n        /* \"Book.sol\":240:275  address payable public libraryAdmin */\n    tag_2:\n      callvalue\n      dup1\n      iszero\n      tag_20\n      jumpi\n      revert(0x00, 0x00)\n    tag_20:\n      pop\n      tag_21\n      tag_22\n      jump\t// in\n    tag_21:\n      mload(0x40)\n      tag_23\n      swap2\n      swap1\n      tag_24\n      jump\t// in\n    tag_23:\n      mload(0x40)\n      dup1\n      swap2\n      sub\n      swap1\n      return\n        /* \"Book.sol\":4700:4736  function buyBook() public payable {} */\n    tag_3:\n      tag_25\n      tag_26\n      jump\t// in\n    tag_25:\n      stop\n        /* \"Book.sol\":3159:3316  function getBookById(uint256 _ID)  public view returns (Book memory) {... */\n    tag_4:\n      callvalue\n      dup1\n      iszero\n      tag_27\n      jumpi\n      revert(0x00, 0x00)\n    tag_27:\n      pop\n      tag_28\n      0x04\n      dup1\n      calldatasize\n      sub\n      dup2\n      add\n      swap1\n      tag_29\n      swap2\n      swap1\n      tag_30\n      jump\t// in\n    tag_29:\n      tag_31\n      jump\t// in\n    tag_28:\n      mload(0x40)\n      tag_32\n      swap2\n      swap1\n      tag_33\n      jump\t// in\n    tag_32:\n      mload(0x40)\n      dup1\n      swap2\n      sub\n      swap1\n      return\n        /* \"Book.sol\":994:1018  uint256[] public bookIds */\n    tag_5:\n      callvalue\n      dup1\n      iszero\n      tag_34\n      jumpi\n      revert(0x00, 0x00)\n    tag_34:\n      pop\n      tag_35\n      0x04\n      dup1\n      calldatasize\n      sub\n      dup2\n      add\n      swap1\n      tag_36\n      swap2\n      swap1\n      tag_30\n      jump\t// in\n    tag_36:\n      tag_37\n      jump\t// in\n    tag_35:\n      mload(0x40)\n      tag_38\n      swap2\n      swap1\n      tag_39\n      jump\t// in\n    tag_38:\n      mload(0x40)\n      dup1\n      swap2\n      sub\n      swap1\n      return\n        /* \"Book.sol\":1024:1061  mapping(uint256 => Book) public books */\n    tag_6:\n      callvalue\n      dup1\n      iszero\n      tag_40\n      jumpi\n      revert(0x00, 0x00)\n    tag_40:\n      pop\n      tag_41\n      0x04\n      dup1\n      calldatasize\n      sub\n      dup2\n      add\n      swap1\n      tag_42\n      swap2\n      swap1\n      tag_30\n      jump\t// in\n    tag_42:\n      tag_43\n      jump\t// in\n    tag_41:\n      mload(0x40)\n      tag_44\n      swap10\n      swap9\n      swap8\n      swap7\n      swap6\n      swap5\n      swap4\n      swap3\n      swap2\n      swap1\n      tag_45\n      jump\t// in\n    tag_44:\n      mload(0x40)\n      dup1\n      swap2\n      sub\n      swap1\n      return\n        /* \"Book.sol\":3322:4427  function borrowBook(uint256 _ID) public payable {... */\n    tag_7:\n      tag_46\n      0x04\n      dup1\n      calldatasize\n      sub\n      dup2\n      add\n      swap1\n      tag_47\n      swap2\n      swap1\n      tag_30\n      jump\t// in\n    tag_47:\n      tag_48\n      jump\t// in\n    tag_46:\n      stop\n        /* \"Book.sol\":359:392  uint256 public nonMemberBorrowFee */\n    tag_8:\n      callvalue\n      dup1\n      iszero\n      tag_49\n      jumpi\n      revert(0x00, 0x00)\n    tag_49:\n      pop\n      tag_50\n      tag_51\n      jump\t// in\n    tag_50:\n      mload(0x40)\n      tag_52\n      swap2\n      swap1\n      tag_39\n      jump\t// in\n    tag_52:\n      mload(0x40)\n      dup1\n      swap2\n      sub\n      swap1\n      return\n        /* \"Book.sol\":2894:3153  function getBooks() public view returns (Book[] memory) {... */\n    tag_9:\n      callvalue\n      dup1\n      iszero\n      tag_53\n      jumpi\n      revert(0x00, 0x00)\n    tag_53:\n      pop\n      tag_54\n      tag_55\n      jump\t// in\n    tag_54:\n      mload(0x40)\n      tag_56\n      swap2\n      swap1\n      tag_57\n      jump\t// in\n    tag_56:\n      mload(0x40)\n      dup1\n      swap2\n      sub\n      swap1\n      return\n        /* \"Book.sol\":1177:1229  mapping(uint256 => address[]) public borrowedHistory */\n    tag_10:\n      callvalue\n      dup1\n      iszero\n      tag_58\n      jumpi\n      revert(0x00, 0x00)\n    tag_58:\n      pop\n      tag_59\n      0x04\n      dup1\n      calldatasize\n      sub\n      dup2\n      add\n      swap1\n      tag_60\n      swap2\n      swap1\n      tag_61\n      jump\t// in\n    tag_60:\n      tag_62\n      jump\t// in\n    tag_59:\n      mload(0x40)\n      tag_63\n      swap2\n      swap1\n      tag_64\n      jump\t// in\n    tag_63:\n      mload(0x40)\n      dup1\n      swap2\n      sub\n      swap1\n      return\n        /* \"Book.sol\":1486:2609  function addBook(... */\n    tag_11:\n      callvalue\n      dup1\n      iszero\n      tag_65\n      jumpi\n      revert(0x00, 0x00)\n    tag_65:\n      pop\n      tag_66\n      0x04\n      dup1\n      calldatasize\n      sub\n      dup2\n      add\n      swap1\n      tag_67\n      swap2\n      swap1\n      tag_68\n      jump\t// in\n    tag_67:\n      tag_69\n      jump\t// in\n    tag_66:\n      stop\n        /* \"Book.sol\":166:202  MemberContract public memberContract */\n    tag_12:\n      callvalue\n      dup1\n      iszero\n      tag_70\n      jumpi\n      revert(0x00, 0x00)\n    tag_70:\n      pop\n      tag_71\n      tag_72\n      jump\t// in\n    tag_71:\n      mload(0x40)\n      tag_73\n      swap2\n      swap1\n      tag_74\n      jump\t// in\n    tag_73:\n      mload(0x40)\n      dup1\n      swap2\n      sub\n      swap1\n      return\n        /* \"Book.sol\":4433:4694  function returnBook(uint256 _ID) public {... */\n    tag_13:\n      callvalue\n      dup1\n      iszero\n      tag_75\n      jumpi\n      revert(0x00, 0x00)\n    tag_75:\n      pop\n      tag_76\n      0x04\n      dup1\n      calldatasize\n      sub\n      dup2\n      add\n      swap1\n      tag_77\n      swap2\n      swap1\n      tag_30\n      jump\t// in\n    tag_77:\n      tag_78\n      jump\t// in\n    tag_76:\n      stop\n        /* \"Book.sol\":2615:2887  function restock(uint256 _ID, uint256 _quantity) public onlyLibraryAdmin {... */\n    tag_14:\n      callvalue\n      dup1\n      iszero\n      tag_79\n      jumpi\n      revert(0x00, 0x00)\n    tag_79:\n      pop\n      tag_80\n      0x04\n      dup1\n      calldatasize\n      sub\n      dup2\n      add\n      swap1\n      tag_81\n      swap2\n      swap1\n      tag_61\n      jump\t// in\n    tag_81:\n      tag_82\n      jump\t// in\n    tag_80:\n      stop\n        /* \"Book.sol\":133:159  uint256 public bookCounter */\n    tag_15:\n      callvalue\n      dup1\n      iszero\n      tag_83\n      jumpi\n      revert(0x00, 0x00)\n    tag_83:\n      pop\n      tag_84\n      tag_85\n      jump\t// in\n    tag_84:\n      mload(0x40)\n      tag_86\n      swap2\n      swap1\n      tag_39\n      jump\t// in\n    tag_86:\n      mload(0x40)\n      dup1\n      swap2\n      sub\n      swap1\n      return\n        /* \"Book.sol\":1415:1478  mapping(uint256 => mapping(address => bool)) public isBorrowing */\n    tag_16:\n      callvalue\n      dup1\n      iszero\n      tag_87\n      jumpi\n      revert(0x00, 0x00)\n    tag_87:\n      pop\n      tag_88\n      0x04\n      dup1\n      calldatasize\n      sub\n      dup2\n      add\n      swap1\n      tag_89\n      swap2\n      swap1\n      tag_90\n      jump\t// in\n    tag_89:\n      tag_91\n      jump\t// in\n    tag_88:\n      mload(0x40)\n      tag_92\n      swap2\n      swap1\n      tag_93\n      jump\t// in\n    tag_92:\n      mload(0x40)\n      dup1\n      swap2\n      sub\n      swap1\n      return\n        /* \"Book.sol\":240:275  address payable public libraryAdmin */\n    tag_22:\n      0x02\n      0x00\n      swap1\n      sload\n      swap1\n      0x0100\n      exp\n      swap1\n      div\n      0xffffffffffffffffffffffffffffffffffffffff\n      and\n      dup2\n      jump\t// out\n        /* \"Book.sol\":4700:4736  function buyBook() public payable {} */\n    tag_26:\n      jump\t// out\n        /* \"Book.sol\":3159:3316  function getBookById(uint256 _ID)  public view returns (Book memory) {... */\n    tag_31:\n        /* \"Book.sol\":3215:3226  Book memory */\n      tag_95\n      tag_96\n      jump\t// in\n    tag_95:\n        /* \"Book.sol\":3246:3251  books */\n      0x05\n        /* \"Book.sol\":3246:3256  books[_ID] */\n      0x00\n        /* \"Book.sol\":3252:3255  _ID */\n      dup4\n        /* \"Book.sol\":3246:3256  books[_ID] */\n      dup2\n      mstore\n      0x20\n      add\n      swap1\n      dup2\n      mstore\n      0x20\n      add\n      0x00\n      keccak256\n        /* \"Book.sol\":3246:3263  books[_ID].exists */\n      0x07\n      add\n      0x00\n      swap1\n      sload\n      swap1\n      0x0100\n      exp\n      swap1\n      div\n      0xff\n      and\n        /* \"Book.sol\":3238:3282  require(books[_ID].exists, \"Book not found\") */\n      tag_98\n      jumpi\n      mload(0x40)\n      0x08c379a000000000000000000000000000000000000000000000000000000000\n      dup2\n      mstore\n      0x04\n      add\n      tag_99\n      swap1\n      tag_100\n      jump\t// in\n    tag_99:\n      mload(0x40)\n      dup1\n      swap2\n      sub\n      swap1\n      revert\n    tag_98:\n        /* \"Book.sol\":3299:3304  books */\n      0x05\n        /* \"Book.sol\":3299:3309  books[_ID] */\n      0x00\n        /* \"Book.sol\":3305:3308  _ID */\n      dup4\n        /* \"Book.sol\":3299:3309  books[_ID] */\n      dup2\n      mstore\n      0x20\n      add\n      swap1\n      dup2\n      mstore\n      0x20\n      add\n      0x00\n      keccak256\n        /* \"Book.sol\":3292:3309  return books[_ID] */\n      mload(0x40)\n      dup1\n      0x0120\n      add\n      0x40\n      mstore\n      swap1\n      dup2\n      0x00\n      dup3\n      add\n      sload\n      dup2\n      mstore\n      0x20\n      add\n      0x01\n      dup3\n      add\n      dup1\n      sload\n      tag_101\n      swap1\n      tag_102\n      jump\t// in\n    tag_101:\n      dup1\n      0x1f\n      add\n      0x20\n      dup1\n      swap2\n      div\n      mul\n      0x20\n      add\n      mload(0x40)\n      swap1\n      dup2\n      add\n      0x40\n      mstore\n      dup1\n      swap3\n      swap2\n      swap1\n      dup2\n      dup2\n      mstore\n      0x20\n      add\n      dup3\n      dup1\n      sload\n      tag_103\n      swap1\n      tag_102\n      jump\t// in\n    tag_103:\n      dup1\n      iszero\n      tag_104\n      jumpi\n      dup1\n      0x1f\n      lt\n      tag_105\n      jumpi\n      0x0100\n      dup1\n      dup4\n      sload\n      div\n      mul\n      dup4\n      mstore\n      swap2\n      0x20\n      add\n      swap2\n      jump(tag_104)\n    tag_105:\n      dup3\n      add\n      swap2\n      swap1\n      0x00\n      mstore\n      keccak256(0x00, 0x20)\n      swap1\n    tag_106:\n      dup2\n      sload\n      dup2\n      mstore\n      swap1\n      0x01\n      add\n      swap1\n      0x20\n      add\n      dup1\n      dup4\n      gt\n      tag_106\n      jumpi\n      dup3\n      swap1\n      sub\n      0x1f\n      and\n      dup3\n      add\n      swap2\n    tag_104:\n      pop\n      pop\n      pop\n      pop\n      pop\n      dup2\n      mstore\n      0x20\n      add\n      0x02\n      dup3\n      add\n      dup1\n      sload\n      tag_107\n      swap1\n      tag_102\n      jump\t// in\n    tag_107:\n      dup1\n      0x1f\n      add\n      0x20\n      dup1\n      swap2\n      div\n      mul\n      0x20\n      add\n      mload(0x40)\n      swap1\n      dup2\n      add\n      0x40\n      mstore\n      dup1\n      swap3\n      swap2\n      swap1\n      dup2\n      dup2\n      mstore\n      0x20\n      add\n      dup3\n      dup1\n      sload\n      tag_108\n      swap1\n      tag_102\n      jump\t// in\n    tag_108:\n      dup1\n      iszero\n      tag_109\n      jumpi\n      dup1\n      0x1f\n      lt\n      tag_110\n      jumpi\n      0x0100\n      dup1\n      dup4\n      sload\n      div\n      mul\n      dup4\n      mstore\n      swap2\n      0x20\n      add\n      swap2\n      jump(tag_109)\n    tag_110:\n      dup3\n      add\n      swap2\n      swap1\n      0x00\n      mstore\n      keccak256(0x00, 0x20)\n      swap1\n    tag_111:\n      dup2\n      sload\n      dup2\n      mstore\n      swap1\n      0x01\n      add\n      swap1\n      0x20\n      add\n      dup1\n      dup4\n      gt\n      tag_111\n      jumpi\n      dup3\n      swap1\n      sub\n      0x1f\n      and\n      dup3\n      add\n      swap2\n    tag_109:\n      pop\n      pop\n      pop\n      pop\n      pop\n      dup2\n      mstore\n      0x20\n      add\n      0x03\n      dup3\n      add\n      dup1\n      sload\n      tag_112\n      swap1\n      tag_102\n      jump\t// in\n    tag_112:\n      dup1\n      0x1f\n      add\n      0x20\n      dup1\n      swap2\n      div\n      mul\n      0x20\n      add\n      mload(0x40)\n      swap1\n      dup2\n      add\n      0x40\n      mstore\n      dup1\n      swap3\n      swap2\n      swap1\n      dup2\n      dup2\n      mstore\n      0x20\n      add\n      dup3\n      dup1\n      sload\n      tag_113\n      swap1\n      tag_102\n      jump\t// in\n    tag_113:\n      dup1\n      iszero\n      tag_114\n      jumpi\n      dup1\n      0x1f\n      lt\n      tag_115\n      jumpi\n      0x0100\n      dup1\n      dup4\n      sload\n      div\n      mul\n      dup4\n      mstore\n      swap2\n      0x20\n      add\n      swap2\n      jump(tag_114)\n    tag_115:\n      dup3\n      add\n      swap2\n      swap1\n      0x00\n      mstore\n      keccak256(0x00, 0x20)\n      swap1\n    tag_116:\n      dup2\n      sload\n      dup2\n      mstore\n      swap1\n      0x01\n      add\n      swap1\n      0x20\n      add\n      dup1\n      dup4\n      gt\n      tag_116\n      jumpi\n      dup3\n      swap1\n      sub\n      0x1f\n      and\n      dup3\n      add\n      swap2\n    tag_114:\n      pop\n      pop\n      pop\n      pop\n      pop\n      dup2\n      mstore\n      0x20\n      add\n      0x04\n      dup3\n      add\n      sload\n      dup2\n      mstore\n      0x20\n      add\n      0x05\n      dup3\n      add\n      sload\n      dup2\n      mstore\n      0x20\n      add\n      0x06\n      dup3\n      add\n      sload\n      dup2\n      mstore\n      0x20\n      add\n      0x07\n      dup3\n      add\n      0x00\n      swap1\n      sload\n      swap1\n      0x0100\n      exp\n      swap1\n      div\n      0xff\n      and\n      iszero\n      iszero\n      iszero\n      iszero\n      dup2\n      mstore\n      0x20\n      add\n      0x08\n      dup3\n      add\n      sload\n      dup2\n      mstore\n      pop\n      pop\n      swap1\n      pop\n        /* \"Book.sol\":3159:3316  function getBookById(uint256 _ID)  public view returns (Book memory) {... */\n      swap2\n      swap1\n      pop\n      jump\t// out\n        /* \"Book.sol\":994:1018  uint256[] public bookIds */\n    tag_37:\n      0x04\n      dup2\n      dup2\n      sload\n      dup2\n      lt\n      tag_117\n      jumpi\n      0x00\n      dup1\n      revert\n    tag_117:\n      swap1\n      0x00\n      mstore\n      keccak256(0x00, 0x20)\n      add\n      0x00\n      swap2\n      pop\n      swap1\n      pop\n      sload\n      dup2\n      jump\t// out\n        /* \"Book.sol\":1024:1061  mapping(uint256 => Book) public books */\n    tag_43:\n      mstore(0x20, 0x05)\n      dup1\n      0x00\n      mstore\n      keccak256(0x00, 0x40)\n      0x00\n      swap2\n      pop\n      swap1\n      pop\n      dup1\n      0x00\n      add\n      sload\n      swap1\n      dup1\n      0x01\n      add\n      dup1\n      sload\n      tag_119\n      swap1\n      tag_102\n      jump\t// in\n    tag_119:\n      dup1\n      0x1f\n      add\n      0x20\n      dup1\n      swap2\n      div\n      mul\n      0x20\n      add\n      mload(0x40)\n      swap1\n      dup2\n      add\n      0x40\n      mstore\n      dup1\n      swap3\n      swap2\n      swap1\n      dup2\n      dup2\n      mstore\n      0x20\n      add\n      dup3\n      dup1\n      sload\n      tag_120\n      swap1\n      tag_102\n      jump\t// in\n    tag_120:\n      dup1\n      iszero\n      tag_121\n      jumpi\n      dup1\n      0x1f\n      lt\n      tag_122\n      jumpi\n      0x0100\n      dup1\n      dup4\n      sload\n      div\n      mul\n      dup4\n      mstore\n      swap2\n      0x20\n      add\n      swap2\n      jump(tag_121)\n    tag_122:\n      dup3\n      add\n      swap2\n      swap1\n      0x00\n      mstore\n      keccak256(0x00, 0x20)\n      swap1\n    tag_123:\n      dup2\n      sload\n      dup2\n      mstore\n      swap1\n      0x01\n      add\n      swap1\n      0x20\n      add\n      dup1\n      dup4\n      gt\n      tag_123\n      jumpi\n      dup3\n      swap1\n      sub\n      0x1f\n      and\n      dup3\n      add\n      swap2\n    tag_121:\n      pop\n      pop\n      pop\n      pop\n      pop\n      swap1\n      dup1\n      0x02\n      add\n      dup1\n      sload\n      tag_124\n      swap1\n      tag_102\n      jump\t// in\n    tag_124:\n      dup1\n      0x1f\n      add\n      0x20\n      dup1\n      swap2\n      div\n      mul\n      0x20\n      add\n      mload(0x40)\n      swap1\n      dup2\n      add\n      0x40\n      mstore\n      dup1\n      swap3\n      swap2\n      swap1\n      dup2\n      dup2\n      mstore\n      0x20\n      add\n      dup3\n      dup1\n      sload\n      tag_125\n      swap1\n      tag_102\n      jump\t// in\n    tag_125:\n      dup1\n      iszero\n      tag_126\n      jumpi\n      dup1\n      0x1f\n      lt\n      tag_127\n      jumpi\n      0x0100\n      dup1\n      dup4\n      sload\n      div\n      mul\n      dup4\n      mstore\n      swap2\n      0x20\n      add\n      swap2\n      jump(tag_126)\n    tag_127:\n      dup3\n      add\n      swap2\n      swap1\n      0x00\n      mstore\n      keccak256(0x00, 0x20)\n      swap1\n    tag_128:\n      dup2\n      sload\n      dup2\n      mstore\n      swap1\n      0x01\n      add\n      swap1\n      0x20\n      add\n      dup1\n      dup4\n      gt\n      tag_128\n      jumpi\n      dup3\n      swap1\n      sub\n      0x1f\n      and\n      dup3\n      add\n      swap2\n    tag_126:\n      pop\n      pop\n      pop\n      pop\n      pop\n      swap1\n      dup1\n      0x03\n      add\n      dup1\n      sload\n      tag_129\n      swap1\n      tag_102\n      jump\t// in\n    tag_129:\n      dup1\n      0x1f\n      add\n      0x20\n      dup1\n      swap2\n      div\n      mul\n      0x20\n      add\n      mload(0x40)\n      swap1\n      dup2\n      add\n      0x40\n      mstore\n      dup1\n      swap3\n      swap2\n      swap1\n      dup2\n      dup2\n      mstore\n      0x20\n      add\n      dup3\n      dup1\n      sload\n      tag_130\n      swap1\n      tag_102\n      jump\t// in\n    tag_130:\n      dup1\n      iszero\n      tag_131\n      jumpi\n      dup1\n      0x1f\n      lt\n      tag_132\n      jumpi\n      0x0100\n      dup1\n      dup4\n      sload\n      div\n      mul\n      dup4\n      mstore\n      swap2\n      0x20\n      add\n      swap2\n      jump(tag_131)\n    tag_132:\n      dup3\n      add\n      swap2\n      swap1\n      0x00\n      mstore\n      keccak256(0x00, 0x20)\n      swap1\n    tag_133:\n      dup2\n      sload\n      dup2\n      mstore\n      swap1\n      0x01\n      add\n      swap1\n      0x20\n      add\n      dup1\n      dup4\n      gt\n      tag_133\n      jumpi\n      dup3\n      swap1\n      sub\n      0x1f\n      and\n      dup3\n      add\n      swap2\n    tag_131:\n      pop\n      pop\n      pop\n      pop\n      pop\n      swap1\n      dup1\n      0x04\n      add\n      sload\n      swap1\n      dup1\n      0x05\n      add\n      sload\n      swap1\n      dup1\n      0x06\n      add\n      sload\n      swap1\n      dup1\n      0x07\n      add\n      0x00\n      swap1\n      sload\n      swap1\n      0x0100\n      exp\n      swap1\n      div\n      0xff\n      and\n      swap1\n      dup1\n      0x08\n      add\n      sload\n      swap1\n      pop\n      dup10\n      jump\t// out\n        /* \"Book.sol\":3322:4427  function borrowBook(uint256 _ID) public payable {... */\n    tag_48:\n        /* \"Book.sol\":3388:3393  books */\n      0x05\n        /* \"Book.sol\":3388:3398  books[_ID] */\n      0x00\n        /* \"Book.sol\":3394:3397  _ID */\n      dup3\n        /* \"Book.sol\":3388:3398  books[_ID] */\n      dup2\n      mstore\n      0x20\n      add\n      swap1\n      dup2\n      mstore\n      0x20\n      add\n      0x00\n      keccak256\n        /* \"Book.sol\":3388:3405  books[_ID].exists */\n      0x07\n      add\n      0x00\n      swap1\n      sload\n      swap1\n      0x0100\n      exp\n      swap1\n      div\n      0xff\n      and\n        /* \"Book.sol\":3380:3425  require(books[_ID].exists, \"Book not found!\") */\n      tag_135\n      jumpi\n      mload(0x40)\n      0x08c379a000000000000000000000000000000000000000000000000000000000\n      dup2\n      mstore\n      0x04\n      add\n      tag_136\n      swap1\n      tag_137\n      jump\t// in\n    tag_136:\n      mload(0x40)\n      dup1\n      swap2\n      sub\n      swap1\n      revert\n    tag_135:\n        /* \"Book.sol\":3465:3466  0 */\n      0x00\n        /* \"Book.sol\":3443:3448  books */\n      0x05\n        /* \"Book.sol\":3443:3453  books[_ID] */\n      0x00\n        /* \"Book.sol\":3449:3452  _ID */\n      dup4\n        /* \"Book.sol\":3443:3453  books[_ID] */\n      dup2\n      mstore\n      0x20\n      add\n      swap1\n      dup2\n      mstore\n      0x20\n      add\n      0x00\n      keccak256\n        /* \"Book.sol\":3443:3462  books[_ID].quantity */\n      0x04\n      add\n      sload\n        /* \"Book.sol\":3443:3466  books[_ID].quantity > 0 */\n      gt\n        /* \"Book.sol\":3435:3490  require(books[_ID].quantity > 0, \"Book not available!\") */\n      tag_138\n      jumpi\n      mload(0x40)\n      0x08c379a000000000000000000000000000000000000000000000000000000000\n      dup2\n      mstore\n      0x04\n      add\n      tag_139\n      swap1\n      tag_140\n      jump\t// in\n    tag_139:\n      mload(0x40)\n      dup1\n      swap2\n      sub\n      swap1\n      revert\n    tag_138:\n        /* \"Book.sol\":3508:3519  isBorrowing */\n      0x08\n        /* \"Book.sol\":3508:3524  isBorrowing[_ID] */\n      0x00\n        /* \"Book.sol\":3520:3523  _ID */\n      dup3\n        /* \"Book.sol\":3508:3524  isBorrowing[_ID] */\n      dup2\n      mstore\n      0x20\n      add\n      swap1\n      dup2\n      mstore\n      0x20\n      add\n      0x00\n      keccak256\n        /* \"Book.sol\":3508:3536  isBorrowing[_ID][msg.sender] */\n      0x00\n        /* \"Book.sol\":3525:3535  msg.sender */\n      caller\n        /* \"Book.sol\":3508:3536  isBorrowing[_ID][msg.sender] */\n      0xffffffffffffffffffffffffffffffffffffffff\n      and\n      0xffffffffffffffffffffffffffffffffffffffff\n      and\n      dup2\n      mstore\n      0x20\n      add\n      swap1\n      dup2\n      mstore\n      0x20\n      add\n      0x00\n      keccak256\n      0x00\n      swap1\n      sload\n      swap1\n      0x0100\n      exp\n      swap1\n      div\n      0xff\n      and\n        /* \"Book.sol\":3500:3558  require(isBorrowing[_ID][msg.sender], \"Already borrowed!\") */\n      tag_141\n      jumpi\n      mload(0x40)\n      0x08c379a000000000000000000000000000000000000000000000000000000000\n      dup2\n      mstore\n      0x04\n      add\n      tag_142\n      swap1\n      tag_143\n      jump\t// in\n    tag_142:\n      mload(0x40)\n      dup1\n      swap2\n      sub\n      swap1\n      revert\n    tag_141:\n        /* \"Book.sol\":3569:3588  Book storage myBook */\n      0x00\n        /* \"Book.sol\":3591:3596  books */\n      0x05\n        /* \"Book.sol\":3591:3601  books[_ID] */\n      0x00\n        /* \"Book.sol\":3597:3600  _ID */\n      dup4\n        /* \"Book.sol\":3591:3601  books[_ID] */\n      dup2\n      mstore\n      0x20\n      add\n      swap1\n      dup2\n      mstore\n      0x20\n      add\n      0x00\n      keccak256\n        /* \"Book.sol\":3569:3601  Book storage myBook = books[_ID] */\n      swap1\n      pop\n        /* \"Book.sol\":3612:3625  bool isMember */\n      0x00\n        /* \"Book.sol\":3628:3642  memberContract */\n      0x01\n      0x00\n      swap1\n      sload\n      swap1\n      0x0100\n      exp\n      swap1\n      div\n      0xffffffffffffffffffffffffffffffffffffffff\n      and\n        /* \"Book.sol\":3628:3654  memberContract.memberExist */\n      0xffffffffffffffffffffffffffffffffffffffff\n      and\n      0x506b27f0\n        /* \"Book.sol\":3655:3665  msg.sender */\n      caller\n        /* \"Book.sol\":3628:3666  memberContract.memberExist(msg.sender) */\n      mload(0x40)\n      dup3\n      0xffffffff\n      and\n      0xe0\n      shl\n      dup2\n      mstore\n      0x04\n      add\n      tag_144\n      swap2\n      swap1\n      tag_64\n      jump\t// in\n    tag_144:\n      0x20\n      mload(0x40)\n      dup1\n      dup4\n      sub\n      dup2\n      dup7\n      gas\n      staticcall\n      iszero\n      dup1\n      iszero\n      tag_146\n      jumpi\n      returndatacopy(0x00, 0x00, returndatasize)\n      revert(0x00, returndatasize)\n    tag_146:\n      pop\n      pop\n      pop\n      pop\n      mload(0x40)\n      returndatasize\n      not(0x1f)\n      0x1f\n      dup3\n      add\n      and\n      dup3\n      add\n      dup1\n      0x40\n      mstore\n      pop\n      dup2\n      add\n      swap1\n      tag_147\n      swap2\n      swap1\n      tag_148\n      jump\t// in\n    tag_147:\n        /* \"Book.sol\":3612:3666  bool isMember = memberContract.memberExist(msg.sender) */\n      swap1\n      pop\n        /* \"Book.sol\":3676:3699  uint256 requiredPayment */\n      0x00\n        /* \"Book.sol\":3702:3710  isMember */\n      dup2\n        /* \"Book.sol\":3702:3775  isMember... */\n      tag_149\n      jumpi\n        /* \"Book.sol\":3757:3775  nonMemberBorrowFee */\n      sload(0x03)\n        /* \"Book.sol\":3702:3775  isMember... */\n      jump(tag_150)\n    tag_149:\n        /* \"Book.sol\":3725:3731  myBook */\n      dup3\n        /* \"Book.sol\":3725:3741  myBook.borrowFee */\n      0x06\n      add\n      sload\n        /* \"Book.sol\":3702:3775  isMember... */\n    tag_150:\n        /* \"Book.sol\":3676:3775  uint256 requiredPayment = isMember... */\n      swap1\n      pop\n        /* \"Book.sol\":3806:3821  requiredPayment */\n      dup1\n        /* \"Book.sol\":3793:3802  msg.value */\n      callvalue\n        /* \"Book.sol\":3793:3821  msg.value >= requiredPayment */\n      lt\n      iszero\n        /* \"Book.sol\":3785:3845  require(msg.value >= requiredPayment, \"Not enough ETH sent\") */\n      tag_151\n      jumpi\n      mload(0x40)\n      0x08c379a000000000000000000000000000000000000000000000000000000000\n      dup2\n      mstore\n      0x04\n      add\n      tag_152\n      swap1\n      tag_153\n      jump\t// in\n    tag_152:\n      mload(0x40)\n      dup1\n      swap2\n      sub\n      swap1\n      revert\n    tag_151:\n        /* \"Book.sol\":3887:3891  true */\n      0x01\n        /* \"Book.sol\":3856:3867  isBorrowing */\n      0x08\n        /* \"Book.sol\":3856:3872  isBorrowing[_ID] */\n      0x00\n        /* \"Book.sol\":3868:3871  _ID */\n      dup7\n        /* \"Book.sol\":3856:3872  isBorrowing[_ID] */\n      dup2\n      mstore\n      0x20\n      add\n      swap1\n      dup2\n      mstore\n      0x20\n      add\n      0x00\n      keccak256\n        /* \"Book.sol\":3856:3884  isBorrowing[_ID][msg.sender] */\n      0x00\n        /* \"Book.sol\":3873:3883  msg.sender */\n      caller\n        /* \"Book.sol\":3856:3884  isBorrowing[_ID][msg.sender] */\n      0xffffffffffffffffffffffffffffffffffffffff\n      and\n      0xffffffffffffffffffffffffffffffffffffffff\n      and\n      dup2\n      mstore\n      0x20\n      add\n      swap1\n      dup2\n      mstore\n      0x20\n      add\n      0x00\n      keccak256\n      0x00\n        /* \"Book.sol\":3856:3891  isBorrowing[_ID][msg.sender] = true */\n      0x0100\n      exp\n      dup2\n      sload\n      dup2\n      0xff\n      mul\n      not\n      and\n      swap1\n      dup4\n      iszero\n      iszero\n      mul\n      or\n      swap1\n      sstore\n      pop\n        /* \"Book.sol\":3901:3916  borrowedHistory */\n      0x07\n        /* \"Book.sol\":3901:3921  borrowedHistory[_ID] */\n      0x00\n        /* \"Book.sol\":3917:3920  _ID */\n      dup6\n        /* \"Book.sol\":3901:3921  borrowedHistory[_ID] */\n      dup2\n      mstore\n      0x20\n      add\n      swap1\n      dup2\n      mstore\n      0x20\n      add\n      0x00\n      keccak256\n        /* \"Book.sol\":3927:3937  msg.sender */\n      caller\n        /* \"Book.sol\":3901:3938  borrowedHistory[_ID].push(msg.sender) */\n      swap1\n      dup1\n      0x01\n      dup2\n      sload\n      add\n      dup1\n      dup3\n      sstore\n      dup1\n      swap2\n      pop\n      pop\n      0x01\n      swap1\n      sub\n      swap1\n      0x00\n      mstore\n      keccak256(0x00, 0x20)\n      add\n      0x00\n      swap1\n      swap2\n      swap1\n      swap2\n      swap1\n      swap2\n      0x0100\n      exp\n      dup2\n      sload\n      dup2\n      0xffffffffffffffffffffffffffffffffffffffff\n      mul\n      not\n      and\n      swap1\n      dup4\n      0xffffffffffffffffffffffffffffffffffffffff\n      and\n      mul\n      or\n      swap1\n      sstore\n      pop\n        /* \"Book.sol\":3967:3968  1 */\n      0x01\n        /* \"Book.sol\":3948:3954  myBook */\n      dup4\n        /* \"Book.sol\":3948:3963  myBook.quantity */\n      0x04\n      add\n      0x00\n        /* \"Book.sol\":3948:3968  myBook.quantity -= 1 */\n      dup3\n      dup3\n      sload\n      tag_155\n      swap2\n      swap1\n      tag_156\n      jump\t// in\n    tag_155:\n      swap3\n      pop\n      pop\n      dup2\n      swap1\n      sstore\n      pop\n        /* \"Book.sol\":4045:4054  bool sent */\n      0x00\n        /* \"Book.sol\":4060:4072  libraryAdmin */\n      0x02\n      0x00\n      swap1\n      sload\n      swap1\n      0x0100\n      exp\n      swap1\n      div\n      0xffffffffffffffffffffffffffffffffffffffff\n      and\n        /* \"Book.sol\":4060:4077  libraryAdmin.call */\n      0xffffffffffffffffffffffffffffffffffffffff\n      and\n        /* \"Book.sol\":4085:4100  requiredPayment */\n      dup3\n        /* \"Book.sol\":4060:4105  libraryAdmin.call{value: requiredPayment}(\"\") */\n      mload(0x40)\n      tag_157\n      swap1\n      tag_158\n      jump\t// in\n    tag_157:\n      0x00\n      mload(0x40)\n      dup1\n      dup4\n      sub\n      dup2\n      dup6\n      dup8\n      gas\n      call\n      swap3\n      pop\n      pop\n      pop\n      returndatasize\n      dup1\n      0x00\n      dup2\n      eq\n      tag_161\n      jumpi\n      mload(0x40)\n      swap2\n      pop\n      and(add(returndatasize, 0x3f), not(0x1f))\n      dup3\n      add\n      0x40\n      mstore\n      returndatasize\n      dup3\n      mstore\n      returndatasize\n      0x00\n      0x20\n      dup5\n      add\n      returndatacopy\n      jump(tag_160)\n    tag_161:\n      0x60\n      swap2\n      pop\n    tag_160:\n      pop\n        /* \"Book.sol\":4044:4105  (bool sent, ) = libraryAdmin.call{value: requiredPayment}(\"\") */\n      pop\n      swap1\n      pop\n        /* \"Book.sol\":4123:4127  sent */\n      dup1\n        /* \"Book.sol\":4115:4161  require(sent, \"Failed to send ETH to library\") */\n      tag_162\n      jumpi\n      mload(0x40)\n      0x08c379a000000000000000000000000000000000000000000000000000000000\n      dup2\n      mstore\n      0x04\n      add\n      tag_163\n      swap1\n      tag_164\n      jump\t// in\n    tag_163:\n      mload(0x40)\n      dup1\n      swap2\n      sub\n      swap1\n      revert\n    tag_162:\n        /* \"Book.sol\":4201:4215  uint256 excess */\n      0x00\n        /* \"Book.sol\":4230:4245  requiredPayment */\n      dup3\n        /* \"Book.sol\":4218:4227  msg.value */\n      callvalue\n        /* \"Book.sol\":4218:4245  msg.value - requiredPayment */\n      tag_165\n      swap2\n      swap1\n      tag_156\n      jump\t// in\n    tag_165:\n        /* \"Book.sol\":4201:4245  uint256 excess = msg.value - requiredPayment */\n      swap1\n      pop\n        /* \"Book.sol\":4268:4269  0 */\n      0x00\n        /* \"Book.sol\":4259:4265  excess */\n      dup2\n        /* \"Book.sol\":4259:4269  excess > 0 */\n      gt\n        /* \"Book.sol\":4255:4421  if (excess > 0) {... */\n      iszero\n      tag_166\n      jumpi\n        /* \"Book.sol\":4286:4299  bool refunded */\n      0x00\n        /* \"Book.sol\":4313:4323  msg.sender */\n      caller\n        /* \"Book.sol\":4305:4329  payable(msg.sender).call */\n      0xffffffffffffffffffffffffffffffffffffffff\n      and\n        /* \"Book.sol\":4337:4343  excess */\n      dup3\n        /* \"Book.sol\":4305:4348  payable(msg.sender).call{value: excess}(\"\") */\n      mload(0x40)\n      tag_167\n      swap1\n      tag_158\n      jump\t// in\n    tag_167:\n      0x00\n      mload(0x40)\n      dup1\n      dup4\n      sub\n      dup2\n      dup6\n      dup8\n      gas\n      call\n      swap3\n      pop\n      pop\n      pop\n      returndatasize\n      dup1\n      0x00\n      dup2\n      eq\n      tag_170\n      jumpi\n      mload(0x40)\n      swap2\n      pop\n      and(add(returndatasize, 0x3f), not(0x1f))\n      dup3\n      add\n      0x40\n      mstore\n      returndatasize\n      dup3\n      mstore\n      returndatasize\n      0x00\n      0x20\n      dup5\n      add\n      returndatacopy\n      jump(tag_169)\n    tag_170:\n      0x60\n      swap2\n      pop\n    tag_169:\n      pop\n        /* \"Book.sol\":4285:4348  (bool refunded, ) = payable(msg.sender).call{value: excess}(\"\") */\n      pop\n      swap1\n      pop\n        /* \"Book.sol\":4370:4378  refunded */\n      dup1\n        /* \"Book.sol\":4362:4410  require(refunded, \"Failed to refund excess ETH\") */\n      tag_171\n      jumpi\n      mload(0x40)\n      0x08c379a000000000000000000000000000000000000000000000000000000000\n      dup2\n      mstore\n      0x04\n      add\n      tag_172\n      swap1\n      tag_173\n      jump\t// in\n    tag_172:\n      mload(0x40)\n      dup1\n      swap2\n      sub\n      swap1\n      revert\n    tag_171:\n        /* \"Book.sol\":4271:4421  {... */\n      pop\n        /* \"Book.sol\":4255:4421  if (excess > 0) {... */\n    tag_166:\n        /* \"Book.sol\":3370:4427  {... */\n      pop\n      pop\n      pop\n      pop\n      pop\n        /* \"Book.sol\":3322:4427  function borrowBook(uint256 _ID) public payable {... */\n      pop\n      jump\t// out\n        /* \"Book.sol\":359:392  uint256 public nonMemberBorrowFee */\n    tag_51:\n      sload(0x03)\n      dup2\n      jump\t// out\n        /* \"Book.sol\":2894:3153  function getBooks() public view returns (Book[] memory) {... */\n    tag_55:\n        /* \"Book.sol\":2935:2948  Book[] memory */\n      0x60\n        /* \"Book.sol\":2960:2982  Book[] memory allBooks */\n      0x00\n        /* \"Book.sol\":2996:3003  bookIds */\n      0x04\n        /* \"Book.sol\":2996:3010  bookIds.length */\n      dup1\n      sload\n      swap1\n      pop\n        /* \"Book.sol\":2985:3011  new Book[](bookIds.length) */\n      0xffffffffffffffff\n      dup2\n      gt\n      iszero\n      tag_175\n      jumpi\n      tag_176\n      tag_177\n      jump\t// in\n    tag_176:\n    tag_175:\n      mload(0x40)\n      swap1\n      dup1\n      dup3\n      mstore\n      dup1\n      0x20\n      mul\n      0x20\n      add\n      dup3\n      add\n      0x40\n      mstore\n      dup1\n      iszero\n      tag_178\n      jumpi\n      dup2\n      0x20\n      add\n    tag_179:\n      tag_180\n      tag_96\n      jump\t// in\n    tag_180:\n      dup2\n      mstore\n      0x20\n      add\n      swap1\n      0x01\n      swap1\n      sub\n      swap1\n      dup2\n      tag_179\n      jumpi\n      swap1\n      pop\n    tag_178:\n      pop\n        /* \"Book.sol\":2960:3011  Book[] memory allBooks = new Book[](bookIds.length) */\n      swap1\n      pop\n        /* \"Book.sol\":3026:3035  uint256 i */\n      0x00\n        /* \"Book.sol\":3038:3039  0 */\n      0x00\n        /* \"Book.sol\":3026:3039  uint256 i = 0 */\n      swap1\n      pop\n        /* \"Book.sol\":3021:3122  for (uint256 i = 0; i < bookIds.length; i++) {... */\n    tag_181:\n        /* \"Book.sol\":3045:3052  bookIds */\n      0x04\n        /* \"Book.sol\":3045:3059  bookIds.length */\n      dup1\n      sload\n      swap1\n      pop\n        /* \"Book.sol\":3041:3042  i */\n      dup2\n        /* \"Book.sol\":3041:3059  i < bookIds.length */\n      lt\n        /* \"Book.sol\":3021:3122  for (uint256 i = 0; i < bookIds.length; i++) {... */\n      iszero\n      tag_182\n      jumpi\n        /* \"Book.sol\":3094:3099  books */\n      0x05\n        /* \"Book.sol\":3094:3111  books[bookIds[i]] */\n      0x00\n        /* \"Book.sol\":3100:3107  bookIds */\n      0x04\n        /* \"Book.sol\":3108:3109  i */\n      dup4\n        /* \"Book.sol\":3100:3110  bookIds[i] */\n      dup2\n      sload\n      dup2\n      lt\n      tag_184\n      jumpi\n      tag_185\n      tag_186\n      jump\t// in\n    tag_185:\n    tag_184:\n      swap1\n      0x00\n      mstore\n      keccak256(0x00, 0x20)\n      add\n      sload\n        /* \"Book.sol\":3094:3111  books[bookIds[i]] */\n      dup2\n      mstore\n      0x20\n      add\n      swap1\n      dup2\n      mstore\n      0x20\n      add\n      0x00\n      keccak256\n        /* \"Book.sol\":3080:3111  allBooks[i] = books[bookIds[i]] */\n      mload(0x40)\n      dup1\n      0x0120\n      add\n      0x40\n      mstore\n      swap1\n      dup2\n      0x00\n      dup3\n      add\n      sload\n      dup2\n      mstore\n      0x20\n      add\n      0x01\n      dup3\n      add\n      dup1\n      sload\n      tag_188\n      swap1\n      tag_102\n      jump\t// in\n    tag_188:\n      dup1\n      0x1f\n      add\n      0x20\n      dup1\n      swap2\n      div\n      mul\n      0x20\n      add\n      mload(0x40)\n      swap1\n      dup2\n      add\n      0x40\n      mstore\n      dup1\n      swap3\n      swap2\n      swap1\n      dup2\n      dup2\n      mstore\n      0x20\n      add\n      dup3\n      dup1\n      sload\n      tag_189\n      swap1\n      tag_102\n      jump\t// in\n    tag_189:\n      dup1\n      iszero\n      tag_190\n      jumpi\n      dup1\n      0x1f\n      lt\n      tag_191\n      jumpi\n      0x0100\n      dup1\n      dup4\n      sload\n      div\n      mul\n      dup4\n      mstore\n      swap2\n      0x20\n      add\n      swap2\n      jump(tag_190)\n    tag_191:\n      dup3\n      add\n      swap2\n      swap1\n      0x00\n      mstore\n      keccak256(0x00, 0x20)\n      swap1\n    tag_192:\n      dup2\n      sload\n      dup2\n      mstore\n      swap1\n      0x01\n      add\n      swap1\n      0x20\n      add\n      dup1\n      dup4\n      gt\n      tag_192\n      jumpi\n      dup3\n      swap1\n      sub\n      0x1f\n      and\n      dup3\n      add\n      swap2\n    tag_190:\n      pop\n      pop\n      pop\n      pop\n      pop\n      dup2\n      mstore\n      0x20\n      add\n      0x02\n      dup3\n      add\n      dup1\n      sload\n      tag_193\n      swap1\n      tag_102\n      jump\t// in\n    tag_193:\n      dup1\n      0x1f\n      add\n      0x20\n      dup1\n      swap2\n      div\n      mul\n      0x20\n      add\n      mload(0x40)\n      swap1\n      dup2\n      add\n      0x40\n      mstore\n      dup1\n      swap3\n      swap2\n      swap1\n      dup2\n      dup2\n      mstore\n      0x20\n      add\n      dup3\n      dup1\n      sload\n      tag_194\n      swap1\n      tag_102\n      jump\t// in\n    tag_194:\n      dup1\n      iszero\n      tag_195\n      jumpi\n      dup1\n      0x1f\n      lt\n      tag_196\n      jumpi\n      0x0100\n      dup1\n      dup4\n      sload\n      div\n      mul\n      dup4\n      mstore\n      swap2\n      0x20\n      add\n      swap2\n      jump(tag_195)\n    tag_196:\n      dup3\n      add\n      swap2\n      swap1\n      0x00\n      mstore\n      keccak256(0x00, 0x20)\n      swap1\n    tag_197:\n      dup2\n      sload\n      dup2\n      mstore\n      swap1\n      0x01\n      add\n      swap1\n      0x20\n      add\n      dup1\n      dup4\n      gt\n      tag_197\n      jumpi\n      dup3\n      swap1\n      sub\n      0x1f\n      and\n      dup3\n      add\n      swap2\n    tag_195:\n      pop\n      pop\n      pop\n      pop\n      pop\n      dup2\n      mstore\n      0x20\n      add\n      0x03\n      dup3\n      add\n      dup1\n      sload\n      tag_198\n      swap1\n      tag_102\n      jump\t// in\n    tag_198:\n      dup1\n      0x1f\n      add\n      0x20\n      dup1\n      swap2\n      div\n      mul\n      0x20\n      add\n      mload(0x40)\n      swap1\n      dup2\n      add\n      0x40\n      mstore\n      dup1\n      swap3\n      swap2\n      swap1\n      dup2\n      dup2\n      mstore\n      0x20\n      add\n      dup3\n      dup1\n      sload\n      tag_199\n      swap1\n      tag_102\n      jump\t// in\n    tag_199:\n      dup1\n      iszero\n      tag_200\n      jumpi\n      dup1\n      0x1f\n      lt\n      tag_201\n      jumpi\n      0x0100\n      dup1\n      dup4\n      sload\n      div\n      mul\n      dup4\n      mstore\n      swap2\n      0x20\n      add\n      swap2\n      jump(tag_200)\n    tag_201:\n      dup3\n      add\n      swap2\n      swap1\n      0x00\n      mstore\n      keccak256(0x00, 0x20)\n      swap1\n    tag_202:\n      dup2\n      sload\n      dup2\n      mstore\n      swap1\n      0x01\n      add\n      swap1\n      0x20\n      add\n      dup1\n      dup4\n      gt\n      tag_202\n      jumpi\n      dup3\n      swap1\n      sub\n      0x1f\n      and\n      dup3\n      add\n      swap2\n    tag_200:\n      pop\n      pop\n      pop\n      pop\n      pop\n      dup2\n      mstore\n      0x20\n      add\n      0x04\n      dup3\n      add\n      sload\n      dup2\n      mstore\n      0x20\n      add\n      0x05\n      dup3\n      add\n      sload\n      dup2\n      mstore\n      0x20\n      add\n      0x06\n      dup3\n      add\n      sload\n      dup2\n      mstore\n      0x20\n      add\n      0x07\n      dup3\n      add\n      0x00\n      swap1\n      sload\n      swap1\n      0x0100\n      exp\n      swap1\n      div\n      0xff\n      and\n      iszero\n      iszero\n      iszero\n      iszero\n      dup2\n      mstore\n      0x20\n      add\n      0x08\n      dup3\n      add\n      sload\n      dup2\n      mstore\n      pop\n      pop\n        /* \"Book.sol\":3080:3088  allBooks */\n      dup3\n        /* \"Book.sol\":3089:3090  i */\n      dup3\n        /* \"Book.sol\":3080:3091  allBooks[i] */\n      dup2\n      mload\n      dup2\n      lt\n      tag_203\n      jumpi\n      tag_204\n      tag_186\n      jump\t// in\n    tag_204:\n    tag_203:\n      0x20\n      mul\n      0x20\n      add\n      add\n        /* \"Book.sol\":3080:3111  allBooks[i] = books[bookIds[i]] */\n      dup2\n      swap1\n      mstore\n      pop\n        /* \"Book.sol\":3061:3064  i++ */\n      dup1\n      dup1\n      0x01\n      add\n      swap2\n      pop\n      pop\n        /* \"Book.sol\":3021:3122  for (uint256 i = 0; i < bookIds.length; i++) {... */\n      jump(tag_181)\n    tag_182:\n      pop\n        /* \"Book.sol\":3138:3146  allBooks */\n      dup1\n        /* \"Book.sol\":3131:3146  return allBooks */\n      swap2\n      pop\n      pop\n        /* \"Book.sol\":2894:3153  function getBooks() public view returns (Book[] memory) {... */\n      swap1\n      jump\t// out\n        /* \"Book.sol\":1177:1229  mapping(uint256 => address[]) public borrowedHistory */\n    tag_62:\n      mstore(0x20, 0x07)\n      dup2\n      0x00\n      mstore\n      keccak256(0x00, 0x40)\n      dup2\n      dup2\n      sload\n      dup2\n      lt\n      tag_205\n      jumpi\n      0x00\n      dup1\n      revert\n    tag_205:\n      swap1\n      0x00\n      mstore\n      keccak256(0x00, 0x20)\n      add\n      0x00\n      swap2\n      pop\n      swap2\n      pop\n      swap1\n      sload\n      swap1\n      0x0100\n      exp\n      swap1\n      div\n      0xffffffffffffffffffffffffffffffffffffffff\n      and\n      dup2\n      jump\t// out\n        /* \"Book.sol\":1486:2609  function addBook(... */\n    tag_69:\n        /* \"Book.sol\":4803:4815  libraryAdmin */\n      0x02\n      0x00\n      swap1\n      sload\n      swap1\n      0x0100\n      exp\n      swap1\n      div\n      0xffffffffffffffffffffffffffffffffffffffff\n      and\n        /* \"Book.sol\":4789:4815  msg.sender == libraryAdmin */\n      0xffffffffffffffffffffffffffffffffffffffff\n      and\n        /* \"Book.sol\":4789:4799  msg.sender */\n      caller\n        /* \"Book.sol\":4789:4815  msg.sender == libraryAdmin */\n      0xffffffffffffffffffffffffffffffffffffffff\n      and\n      eq\n        /* \"Book.sol\":4781:4837  require(msg.sender == libraryAdmin, \"Not library admin\") */\n      tag_208\n      jumpi\n      mload(0x40)\n      0x08c379a000000000000000000000000000000000000000000000000000000000\n      dup2\n      mstore\n      0x04\n      add\n      tag_209\n      swap1\n      tag_210\n      jump\t// in\n    tag_209:\n      mload(0x40)\n      dup1\n      swap2\n      sub\n      swap1\n      revert\n    tag_208:\n        /* \"Book.sol\":1743:1744  0 */\n      0x00\n        /* \"Book.sol\":1726:1732  _title */\n      dup7\n        /* \"Book.sol\":1720:1740  bytes(_title).length */\n      mload\n        /* \"Book.sol\":1720:1744  bytes(_title).length > 0 */\n      gt\n        /* \"Book.sol\":1712:1771  require(bytes(_title).length > 0, \"Title cannot be empty!\") */\n      tag_212\n      jumpi\n      mload(0x40)\n      0x08c379a000000000000000000000000000000000000000000000000000000000\n      dup2\n      mstore\n      0x04\n      add\n      tag_213\n      swap1\n      tag_214\n      jump\t// in\n    tag_213:\n      mload(0x40)\n      dup1\n      swap2\n      sub\n      swap1\n      revert\n    tag_212:\n        /* \"Book.sol\":1813:1814  0 */\n      0x00\n        /* \"Book.sol\":1795:1802  _author */\n      dup6\n        /* \"Book.sol\":1789:1810  bytes(_author).length */\n      mload\n        /* \"Book.sol\":1789:1814  bytes(_author).length > 0 */\n      gt\n        /* \"Book.sol\":1781:1842  require(bytes(_author).length > 0, \"Author cannot be empty!\") */\n      tag_215\n      jumpi\n      mload(0x40)\n      0x08c379a000000000000000000000000000000000000000000000000000000000\n      dup2\n      mstore\n      0x04\n      add\n      tag_216\n      swap1\n      tag_217\n      jump\t// in\n    tag_216:\n      mload(0x40)\n      dup1\n      swap2\n      sub\n      swap1\n      revert\n    tag_215:\n        /* \"Book.sol\":1883:1884  0 */\n      0x00\n        /* \"Book.sol\":1866:1872  _genre */\n      dup5\n        /* \"Book.sol\":1860:1880  bytes(_genre).length */\n      mload\n        /* \"Book.sol\":1860:1884  bytes(_genre).length > 0 */\n      gt\n        /* \"Book.sol\":1852:1911  require(bytes(_genre).length > 0, \"Genre cannot be empty!\") */\n      tag_218\n      jumpi\n      mload(0x40)\n      0x08c379a000000000000000000000000000000000000000000000000000000000\n      dup2\n      mstore\n      0x04\n      add\n      tag_219\n      swap1\n      tag_220\n      jump\t// in\n    tag_219:\n      mload(0x40)\n      dup1\n      swap2\n      sub\n      swap1\n      revert\n    tag_218:\n        /* \"Book.sol\":1941:1942  0 */\n      0x00\n        /* \"Book.sol\":1929:1938  _quantity */\n      dup4\n        /* \"Book.sol\":1929:1942  _quantity > 0 */\n      gt\n        /* \"Book.sol\":1921:1978  require(_quantity > 0, \"Quantity must be greater than 0\") */\n      tag_221\n      jumpi\n      mload(0x40)\n      0x08c379a000000000000000000000000000000000000000000000000000000000\n      dup2\n      mstore\n      0x04\n      add\n      tag_222\n      swap1\n      tag_223\n      jump\t// in\n    tag_222:\n      mload(0x40)\n      dup1\n      swap2\n      sub\n      swap1\n      revert\n    tag_221:\n        /* \"Book.sol\":2005:2006  0 */\n      0x00\n        /* \"Book.sol\":1996:2002  _price */\n      dup3\n        /* \"Book.sol\":1996:2006  _price > 0 */\n      gt\n        /* \"Book.sol\":1988:2039  require(_price > 0, \"Price must be greater than 0\") */\n      tag_224\n      jumpi\n      mload(0x40)\n      0x08c379a000000000000000000000000000000000000000000000000000000000\n      dup2\n      mstore\n      0x04\n      add\n      tag_225\n      swap1\n      tag_226\n      jump\t// in\n    tag_225:\n      mload(0x40)\n      dup1\n      swap2\n      sub\n      swap1\n      revert\n    tag_224:\n        /* \"Book.sol\":2070:2071  0 */\n      0x00\n        /* \"Book.sol\":2057:2067  _borrowFee */\n      dup2\n        /* \"Book.sol\":2057:2071  _borrowFee > 0 */\n      gt\n        /* \"Book.sol\":2049:2104  require(_borrowFee > 0, \"Price must be greater than 0\") */\n      tag_227\n      jumpi\n      mload(0x40)\n      0x08c379a000000000000000000000000000000000000000000000000000000000\n      dup2\n      mstore\n      0x04\n      add\n      tag_228\n      swap1\n      tag_226\n      jump\t// in\n    tag_228:\n      mload(0x40)\n      dup1\n      swap2\n      sub\n      swap1\n      revert\n    tag_227:\n        /* \"Book.sol\":2115:2126  bytes32 key */\n      0x00\n        /* \"Book.sol\":2156:2162  _title */\n      dup7\n        /* \"Book.sol\":2164:2171  _author */\n      dup7\n        /* \"Book.sol\":2139:2172  abi.encodePacked(_title, _author) */\n      add(0x20, mload(0x40))\n      tag_229\n      swap3\n      swap2\n      swap1\n      tag_230\n      jump\t// in\n    tag_229:\n      mload(0x40)\n      0x20\n      dup2\n      dup4\n      sub\n      sub\n      dup2\n      mstore\n      swap1\n      0x40\n      mstore\n        /* \"Book.sol\":2129:2173  keccak256(abi.encodePacked(_title, _author)) */\n      dup1\n      mload\n      swap1\n      0x20\n      add\n      keccak256\n        /* \"Book.sol\":2115:2173  bytes32 key = keccak256(abi.encodePacked(_title, _author)) */\n      swap1\n      pop\n        /* \"Book.sol\":2192:2201  bookExist */\n      0x06\n        /* \"Book.sol\":2192:2206  bookExist[key] */\n      0x00\n        /* \"Book.sol\":2202:2205  key */\n      dup3\n        /* \"Book.sol\":2192:2206  bookExist[key] */\n      dup2\n      mstore\n      0x20\n      add\n      swap1\n      dup2\n      mstore\n      0x20\n      add\n      0x00\n      keccak256\n      0x00\n      swap1\n      sload\n      swap1\n      0x0100\n      exp\n      swap1\n      div\n      0xff\n      and\n        /* \"Book.sol\":2191:2206  !bookExist[key] */\n      iszero\n        /* \"Book.sol\":2183:2251  require(!bookExist[key], \"This book by this author already exists!\") */\n      tag_231\n      jumpi\n      mload(0x40)\n      0x08c379a000000000000000000000000000000000000000000000000000000000\n      dup2\n      mstore\n      0x04\n      add\n      tag_232\n      swap1\n      tag_233\n      jump\t// in\n    tag_232:\n      mload(0x40)\n      dup1\n      swap2\n      sub\n      swap1\n      revert\n    tag_231:\n        /* \"Book.sol\":2278:2282  true */\n      0x01\n        /* \"Book.sol\":2261:2270  bookExist */\n      0x06\n        /* \"Book.sol\":2261:2275  bookExist[key] */\n      0x00\n        /* \"Book.sol\":2271:2274  key */\n      dup4\n        /* \"Book.sol\":2261:2275  bookExist[key] */\n      dup2\n      mstore\n      0x20\n      add\n      swap1\n      dup2\n      mstore\n      0x20\n      add\n      0x00\n      keccak256\n      0x00\n        /* \"Book.sol\":2261:2282  bookExist[key] = true */\n      0x0100\n      exp\n      dup2\n      sload\n      dup2\n      0xff\n      mul\n      not\n      and\n      swap1\n      dup4\n      iszero\n      iszero\n      mul\n      or\n      swap1\n      sstore\n      pop\n        /* \"Book.sol\":2308:2309  1 */\n      0x01\n        /* \"Book.sol\":2293:2304  bookCounter */\n      0x00\n      0x00\n        /* \"Book.sol\":2293:2309  bookCounter += 1 */\n      dup3\n      dup3\n      sload\n      tag_234\n      swap2\n      swap1\n      tag_235\n      jump\t// in\n    tag_234:\n      swap3\n      pop\n      pop\n      dup2\n      swap1\n      sstore\n      pop\n        /* \"Book.sol\":2319:2330  uint256 _ID */\n      0x00\n        /* \"Book.sol\":2333:2344  bookCounter */\n      sload(0x00)\n        /* \"Book.sol\":2319:2344  uint256 _ID = bookCounter */\n      swap1\n      pop\n        /* \"Book.sol\":2368:2574  Book(... */\n      mload(0x40)\n      dup1\n      0x0120\n      add\n      0x40\n      mstore\n      dup1\n        /* \"Book.sol\":2386:2389  _ID */\n      dup3\n        /* \"Book.sol\":2368:2574  Book(... */\n      dup2\n      mstore\n      0x20\n      add\n        /* \"Book.sol\":2403:2409  _title */\n      dup10\n        /* \"Book.sol\":2368:2574  Book(... */\n      dup2\n      mstore\n      0x20\n      add\n        /* \"Book.sol\":2423:2430  _author */\n      dup9\n        /* \"Book.sol\":2368:2574  Book(... */\n      dup2\n      mstore\n      0x20\n      add\n        /* \"Book.sol\":2444:2450  _genre */\n      dup8\n        /* \"Book.sol\":2368:2574  Book(... */\n      dup2\n      mstore\n      0x20\n      add\n        /* \"Book.sol\":2464:2473  _quantity */\n      dup7\n        /* \"Book.sol\":2368:2574  Book(... */\n      dup2\n      mstore\n      0x20\n      add\n        /* \"Book.sol\":2487:2493  _price */\n      dup6\n        /* \"Book.sol\":2368:2574  Book(... */\n      dup2\n      mstore\n      0x20\n      add\n        /* \"Book.sol\":2507:2517  _borrowFee */\n      dup5\n        /* \"Book.sol\":2368:2574  Book(... */\n      dup2\n      mstore\n      0x20\n      add\n        /* \"Book.sol\":2531:2535  true */\n      0x01\n        /* \"Book.sol\":2368:2574  Book(... */\n      iszero\n      iszero\n      dup2\n      mstore\n      0x20\n      add\n        /* \"Book.sol\":2549:2564  block.timestamp */\n      timestamp\n        /* \"Book.sol\":2368:2574  Book(... */\n      dup2\n      mstore\n      pop\n        /* \"Book.sol\":2355:2360  books */\n      0x05\n        /* \"Book.sol\":2355:2365  books[_ID] */\n      0x00\n        /* \"Book.sol\":2361:2364  _ID */\n      dup4\n        /* \"Book.sol\":2355:2365  books[_ID] */\n      dup2\n      mstore\n      0x20\n      add\n      swap1\n      dup2\n      mstore\n      0x20\n      add\n      0x00\n      keccak256\n        /* \"Book.sol\":2355:2574  books[_ID] = Book(... */\n      0x00\n      dup3\n      add\n      mload\n      dup2\n      0x00\n      add\n      sstore\n      0x20\n      dup3\n      add\n      mload\n      dup2\n      0x01\n      add\n      swap1\n      dup2\n      tag_236\n      swap2\n      swap1\n      tag_237\n      jump\t// in\n    tag_236:\n      pop\n      0x40\n      dup3\n      add\n      mload\n      dup2\n      0x02\n      add\n      swap1\n      dup2\n      tag_238\n      swap2\n      swap1\n      tag_237\n      jump\t// in\n    tag_238:\n      pop\n      0x60\n      dup3\n      add\n      mload\n      dup2\n      0x03\n      add\n      swap1\n      dup2\n      tag_239\n      swap2\n      swap1\n      tag_237\n      jump\t// in\n    tag_239:\n      pop\n      0x80\n      dup3\n      add\n      mload\n      dup2\n      0x04\n      add\n      sstore\n      0xa0\n      dup3\n      add\n      mload\n      dup2\n      0x05\n      add\n      sstore\n      0xc0\n      dup3\n      add\n      mload\n      dup2\n      0x06\n      add\n      sstore\n      0xe0\n      dup3\n      add\n      mload\n      dup2\n      0x07\n      add\n      exp(0x0100, 0x00)\n      dup2\n      sload\n      dup2\n      0xff\n      mul\n      not\n      and\n      swap1\n      dup4\n      iszero\n      iszero\n      mul\n      or\n      swap1\n      sstore\n      pop\n      0x0100\n      dup3\n      add\n      mload\n      dup2\n      0x08\n      add\n      sstore\n      swap1\n      pop\n      pop\n        /* \"Book.sol\":2585:2592  bookIds */\n      0x04\n        /* \"Book.sol\":2598:2601  _ID */\n      dup2\n        /* \"Book.sol\":2585:2602  bookIds.push(_ID) */\n      swap1\n      dup1\n      0x01\n      dup2\n      sload\n      add\n      dup1\n      dup3\n      sstore\n      dup1\n      swap2\n      pop\n      pop\n      0x01\n      swap1\n      sub\n      swap1\n      0x00\n      mstore\n      keccak256(0x00, 0x20)\n      add\n      0x00\n      swap1\n      swap2\n      swap1\n      swap2\n      swap1\n      swap2\n      pop\n      sstore\n        /* \"Book.sol\":1702:2609  {... */\n      pop\n      pop\n        /* \"Book.sol\":1486:2609  function addBook(... */\n      pop\n      pop\n      pop\n      pop\n      pop\n      pop\n      jump\t// out\n        /* \"Book.sol\":166:202  MemberContract public memberContract */\n    tag_72:\n      0x01\n      0x00\n      swap1\n      sload\n      swap1\n      0x0100\n      exp\n      swap1\n      div\n      0xffffffffffffffffffffffffffffffffffffffff\n      and\n      dup2\n      jump\t// out\n        /* \"Book.sol\":4433:4694  function returnBook(uint256 _ID) public {... */\n    tag_78:\n        /* \"Book.sol\":4491:4496  books */\n      0x05\n        /* \"Book.sol\":4491:4501  books[_ID] */\n      0x00\n        /* \"Book.sol\":4497:4500  _ID */\n      dup3\n        /* \"Book.sol\":4491:4501  books[_ID] */\n      dup2\n      mstore\n      0x20\n      add\n      swap1\n      dup2\n      mstore\n      0x20\n      add\n      0x00\n      keccak256\n        /* \"Book.sol\":4491:4508  books[_ID].exists */\n      0x07\n      add\n      0x00\n      swap1\n      sload\n      swap1\n      0x0100\n      exp\n      swap1\n      div\n      0xff\n      and\n        /* \"Book.sol\":4483:4527  require(books[_ID].exists, \"Book not found\") */\n      tag_242\n      jumpi\n      mload(0x40)\n      0x08c379a000000000000000000000000000000000000000000000000000000000\n      dup2\n      mstore\n      0x04\n      add\n      tag_243\n      swap1\n      tag_100\n      jump\t// in\n    tag_243:\n      mload(0x40)\n      dup1\n      swap2\n      sub\n      swap1\n      revert\n    tag_242:\n        /* \"Book.sol\":4545:4556  isBorrowing */\n      0x08\n        /* \"Book.sol\":4545:4561  isBorrowing[_ID] */\n      0x00\n        /* \"Book.sol\":4557:4560  _ID */\n      dup3\n        /* \"Book.sol\":4545:4561  isBorrowing[_ID] */\n      dup2\n      mstore\n      0x20\n      add\n      swap1\n      dup2\n      mstore\n      0x20\n      add\n      0x00\n      keccak256\n        /* \"Book.sol\":4545:4573  isBorrowing[_ID][msg.sender] */\n      0x00\n        /* \"Book.sol\":4562:4572  msg.sender */\n      caller\n        /* \"Book.sol\":4545:4573  isBorrowing[_ID][msg.sender] */\n      0xffffffffffffffffffffffffffffffffffffffff\n      and\n      0xffffffffffffffffffffffffffffffffffffffff\n      and\n      dup2\n      mstore\n      0x20\n      add\n      swap1\n      dup2\n      mstore\n      0x20\n      add\n      0x00\n      keccak256\n      0x00\n      swap1\n      sload\n      swap1\n      0x0100\n      exp\n      swap1\n      div\n      0xff\n      and\n        /* \"Book.sol\":4537:4606  require(isBorrowing[_ID][msg.sender], \"You did not borrow this book\") */\n      tag_244\n      jumpi\n      mload(0x40)\n      0x08c379a000000000000000000000000000000000000000000000000000000000\n      dup2\n      mstore\n      0x04\n      add\n      tag_245\n      swap1\n      tag_246\n      jump\t// in\n    tag_245:\n      mload(0x40)\n      dup1\n      swap2\n      sub\n      swap1\n      revert\n    tag_244:\n        /* \"Book.sol\":4648:4653  false */\n      0x00\n        /* \"Book.sol\":4617:4628  isBorrowing */\n      0x08\n        /* \"Book.sol\":4617:4633  isBorrowing[_ID] */\n      0x00\n        /* \"Book.sol\":4629:4632  _ID */\n      dup4\n        /* \"Book.sol\":4617:4633  isBorrowing[_ID] */\n      dup2\n      mstore\n      0x20\n      add\n      swap1\n      dup2\n      mstore\n      0x20\n      add\n      0x00\n      keccak256\n        /* \"Book.sol\":4617:4645  isBorrowing[_ID][msg.sender] */\n      0x00\n        /* \"Book.sol\":4634:4644  msg.sender */\n      caller\n        /* \"Book.sol\":4617:4645  isBorrowing[_ID][msg.sender] */\n      0xffffffffffffffffffffffffffffffffffffffff\n      and\n      0xffffffffffffffffffffffffffffffffffffffff\n      and\n      dup2\n      mstore\n      0x20\n      add\n      swap1\n      dup2\n      mstore\n      0x20\n      add\n      0x00\n      keccak256\n      0x00\n        /* \"Book.sol\":4617:4653  isBorrowing[_ID][msg.sender] = false */\n      0x0100\n      exp\n      dup2\n      sload\n      dup2\n      0xff\n      mul\n      not\n      and\n      swap1\n      dup4\n      iszero\n      iszero\n      mul\n      or\n      swap1\n      sstore\n      pop\n        /* \"Book.sol\":4686:4687  1 */\n      0x01\n        /* \"Book.sol\":4663:4668  books */\n      0x05\n        /* \"Book.sol\":4663:4673  books[_ID] */\n      0x00\n        /* \"Book.sol\":4669:4672  _ID */\n      dup4\n        /* \"Book.sol\":4663:4673  books[_ID] */\n      dup2\n      mstore\n      0x20\n      add\n      swap1\n      dup2\n      mstore\n      0x20\n      add\n      0x00\n      keccak256\n        /* \"Book.sol\":4663:4682  books[_ID].quantity */\n      0x04\n      add\n      0x00\n        /* \"Book.sol\":4663:4687  books[_ID].quantity += 1 */\n      dup3\n      dup3\n      sload\n      tag_247\n      swap2\n      swap1\n      tag_235\n      jump\t// in\n    tag_247:\n      swap3\n      pop\n      pop\n      dup2\n      swap1\n      sstore\n      pop\n        /* \"Book.sol\":4433:4694  function returnBook(uint256 _ID) public {... */\n      pop\n      jump\t// out\n        /* \"Book.sol\":2615:2887  function restock(uint256 _ID, uint256 _quantity) public onlyLibraryAdmin {... */\n    tag_82:\n        /* \"Book.sol\":4803:4815  libraryAdmin */\n      0x02\n      0x00\n      swap1\n      sload\n      swap1\n      0x0100\n      exp\n      swap1\n      div\n      0xffffffffffffffffffffffffffffffffffffffff\n      and\n        /* \"Book.sol\":4789:4815  msg.sender == libraryAdmin */\n      0xffffffffffffffffffffffffffffffffffffffff\n      and\n        /* \"Book.sol\":4789:4799  msg.sender */\n      caller\n        /* \"Book.sol\":4789:4815  msg.sender == libraryAdmin */\n      0xffffffffffffffffffffffffffffffffffffffff\n      and\n      eq\n        /* \"Book.sol\":4781:4837  require(msg.sender == libraryAdmin, \"Not library admin\") */\n      tag_249\n      jumpi\n      mload(0x40)\n      0x08c379a000000000000000000000000000000000000000000000000000000000\n      dup2\n      mstore\n      0x04\n      add\n      tag_250\n      swap1\n      tag_210\n      jump\t// in\n    tag_250:\n      mload(0x40)\n      dup1\n      swap2\n      sub\n      swap1\n      revert\n    tag_249:\n        /* \"Book.sol\":2718:2719  0 */\n      0x00\n        /* \"Book.sol\":2706:2715  _quantity */\n      dup2\n        /* \"Book.sol\":2706:2719  _quantity > 0 */\n      gt\n        /* \"Book.sol\":2698:2755  require(_quantity > 0, \"Quantity must be greater than 0\") */\n      tag_252\n      jumpi\n      mload(0x40)\n      0x08c379a000000000000000000000000000000000000000000000000000000000\n      dup2\n      mstore\n      0x04\n      add\n      tag_253\n      swap1\n      tag_223\n      jump\t// in\n    tag_253:\n      mload(0x40)\n      dup1\n      swap2\n      sub\n      swap1\n      revert\n    tag_252:\n        /* \"Book.sol\":2766:2783  Book storage book */\n      0x00\n        /* \"Book.sol\":2786:2791  books */\n      0x05\n        /* \"Book.sol\":2786:2796  books[_ID] */\n      0x00\n        /* \"Book.sol\":2792:2795  _ID */\n      dup5\n        /* \"Book.sol\":2786:2796  books[_ID] */\n      dup2\n      mstore\n      0x20\n      add\n      swap1\n      dup2\n      mstore\n      0x20\n      add\n      0x00\n      keccak256\n        /* \"Book.sol\":2766:2796  Book storage book = books[_ID] */\n      swap1\n      pop\n        /* \"Book.sol\":2814:2818  book */\n      dup1\n        /* \"Book.sol\":2814:2825  book.exists */\n      0x07\n      add\n      0x00\n      swap1\n      sload\n      swap1\n      0x0100\n      exp\n      swap1\n      div\n      0xff\n      and\n        /* \"Book.sol\":2806:2844  require(book.exists, \"Book not found\") */\n      tag_254\n      jumpi\n      mload(0x40)\n      0x08c379a000000000000000000000000000000000000000000000000000000000\n      dup2\n      mstore\n      0x04\n      add\n      tag_255\n      swap1\n      tag_100\n      jump\t// in\n    tag_255:\n      mload(0x40)\n      dup1\n      swap2\n      sub\n      swap1\n      revert\n    tag_254:\n        /* \"Book.sol\":2871:2880  _quantity */\n      dup2\n        /* \"Book.sol\":2854:2858  book */\n      dup2\n        /* \"Book.sol\":2854:2867  book.quantity */\n      0x04\n      add\n      0x00\n        /* \"Book.sol\":2854:2880  book.quantity += _quantity */\n      dup3\n      dup3\n      sload\n      tag_256\n      swap2\n      swap1\n      tag_235\n      jump\t// in\n    tag_256:\n      swap3\n      pop\n      pop\n      dup2\n      swap1\n      sstore\n      pop\n        /* \"Book.sol\":2688:2887  {... */\n      pop\n        /* \"Book.sol\":2615:2887  function restock(uint256 _ID, uint256 _quantity) public onlyLibraryAdmin {... */\n      pop\n      pop\n      jump\t// out\n        /* \"Book.sol\":133:159  uint256 public bookCounter */\n    tag_85:\n      sload(0x00)\n      dup2\n      jump\t// out\n        /* \"Book.sol\":1415:1478  mapping(uint256 => mapping(address => bool)) public isBorrowing */\n    tag_91:\n      mstore(0x20, 0x08)\n      dup2\n      0x00\n      mstore\n      mstore(0x20, keccak256(0x00, 0x40))\n      dup1\n      0x00\n      mstore\n      keccak256(0x00, 0x40)\n      0x00\n      swap2\n      pop\n      swap2\n      pop\n      swap1\n      sload\n      swap1\n      0x0100\n      exp\n      swap1\n      div\n      0xff\n      and\n      dup2\n      jump\t// out\n    tag_96:\n      mload(0x40)\n      dup1\n      0x0120\n      add\n      0x40\n      mstore\n      dup1\n      0x00\n      dup2\n      mstore\n      0x20\n      add\n      0x60\n      dup2\n      mstore\n      0x20\n      add\n      0x60\n      dup2\n      mstore\n      0x20\n      add\n      0x60\n      dup2\n      mstore\n      0x20\n      add\n      0x00\n      dup2\n      mstore\n      0x20\n      add\n      0x00\n      dup2\n      mstore\n      0x20\n      add\n      0x00\n      dup2\n      mstore\n      0x20\n      add\n      iszero(iszero(0x00))\n      dup2\n      mstore\n      0x20\n      add\n      0x00\n      dup2\n      mstore\n      pop\n      swap1\n      jump\t// out\n        /* \"#utility.yul\":7:133   */\n    tag_257:\n        /* \"#utility.yul\":44:51   */\n      0x00\n        /* \"#utility.yul\":84:126   */\n      0xffffffffffffffffffffffffffffffffffffffff\n        /* \"#utility.yul\":77:82   */\n      dup3\n        /* \"#utility.yul\":73:127   */\n      and\n        /* \"#utility.yul\":62:127   */\n      swap1\n      pop\n        /* \"#utility.yul\":7:133   */\n      swap2\n      swap1\n      pop\n      jump\t// out\n        /* \"#utility.yul\":139:243   */\n    tag_258:\n        /* \"#utility.yul\":184:191   */\n      0x00\n        /* \"#utility.yul\":213:237   */\n      tag_359\n        /* \"#utility.yul\":231:236   */\n      dup3\n        /* \"#utility.yul\":213:237   */\n      tag_257\n      jump\t// in\n    tag_359:\n        /* \"#utility.yul\":202:237   */\n      swap1\n      pop\n        /* \"#utility.yul\":139:243   */\n      swap2\n      swap1\n      pop\n      jump\t// out\n        /* \"#utility.yul\":249:391   */\n    tag_259:\n        /* \"#utility.yul\":352:384   */\n      tag_361\n        /* \"#utility.yul\":378:383   */\n      dup2\n        /* \"#utility.yul\":352:384   */\n      tag_258\n      jump\t// in\n    tag_361:\n        /* \"#utility.yul\":347:350   */\n      dup3\n        /* \"#utility.yul\":340:385   */\n      mstore\n        /* \"#utility.yul\":249:391   */\n      pop\n      pop\n      jump\t// out\n        /* \"#utility.yul\":397:651   */\n    tag_24:\n        /* \"#utility.yul\":506:510   */\n      0x00\n        /* \"#utility.yul\":544:546   */\n      0x20\n        /* \"#utility.yul\":533:542   */\n      dup3\n        /* \"#utility.yul\":529:547   */\n      add\n        /* \"#utility.yul\":521:547   */\n      swap1\n      pop\n        /* \"#utility.yul\":557:644   */\n      tag_363\n        /* \"#utility.yul\":641:642   */\n      0x00\n        /* \"#utility.yul\":630:639   */\n      dup4\n        /* \"#utility.yul\":626:643   */\n      add\n        /* \"#utility.yul\":617:623   */\n      dup5\n        /* \"#utility.yul\":557:644   */\n      tag_259\n      jump\t// in\n    tag_363:\n        /* \"#utility.yul\":397:651   */\n      swap3\n      swap2\n      pop\n      pop\n      jump\t// out\n        /* \"#utility.yul\":657:732   */\n    tag_260:\n        /* \"#utility.yul\":690:696   */\n      0x00\n        /* \"#utility.yul\":723:725   */\n      0x40\n        /* \"#utility.yul\":717:726   */\n      mload\n        /* \"#utility.yul\":707:726   */\n      swap1\n      pop\n        /* \"#utility.yul\":657:732   */\n      swap1\n      jump\t// out\n        /* \"#utility.yul\":738:855   */\n    tag_261:\n        /* \"#utility.yul\":847:848   */\n      0x00\n        /* \"#utility.yul\":844:845   */\n      0x00\n        /* \"#utility.yul\":837:849   */\n      revert\n        /* \"#utility.yul\":861:978   */\n    tag_262:\n        /* \"#utility.yul\":970:971   */\n      0x00\n        /* \"#utility.yul\":967:968   */\n      0x00\n        /* \"#utility.yul\":960:972   */\n      revert\n        /* \"#utility.yul\":984:1061   */\n    tag_263:\n        /* \"#utility.yul\":1021:1028   */\n      0x00\n        /* \"#utility.yul\":1050:1055   */\n      dup2\n        /* \"#utility.yul\":1039:1055   */\n      swap1\n      pop\n        /* \"#utility.yul\":984:1061   */\n      swap2\n      swap1\n      pop\n      jump\t// out\n        /* \"#utility.yul\":1067:1189   */\n    tag_264:\n        /* \"#utility.yul\":1140:1164   */\n      tag_369\n        /* \"#utility.yul\":1158:1163   */\n      dup2\n        /* \"#utility.yul\":1140:1164   */\n      tag_263\n      jump\t// in\n    tag_369:\n        /* \"#utility.yul\":1133:1138   */\n      dup2\n        /* \"#utility.yul\":1130:1165   */\n      eq\n        /* \"#utility.yul\":1120:1183   */\n      tag_370\n      jumpi\n        /* \"#utility.yul\":1179:1180   */\n      0x00\n        /* \"#utility.yul\":1176:1177   */\n      0x00\n        /* \"#utility.yul\":1169:1181   */\n      revert\n        /* \"#utility.yul\":1120:1183   */\n    tag_370:\n        /* \"#utility.yul\":1067:1189   */\n      pop\n      jump\t// out\n        /* \"#utility.yul\":1195:1334   */\n    tag_265:\n        /* \"#utility.yul\":1241:1246   */\n      0x00\n        /* \"#utility.yul\":1279:1285   */\n      dup2\n        /* \"#utility.yul\":1266:1286   */\n      calldataload\n        /* \"#utility.yul\":1257:1286   */\n      swap1\n      pop\n        /* \"#utility.yul\":1295:1328   */\n      tag_372\n        /* \"#utility.yul\":1322:1327   */\n      dup2\n        /* \"#utility.yul\":1295:1328   */\n      tag_264\n      jump\t// in\n    tag_372:\n        /* \"#utility.yul\":1195:1334   */\n      swap3\n      swap2\n      pop\n      pop\n      jump\t// out\n        /* \"#utility.yul\":1340:1669   */\n    tag_30:\n        /* \"#utility.yul\":1399:1405   */\n      0x00\n        /* \"#utility.yul\":1448:1450   */\n      0x20\n        /* \"#utility.yul\":1436:1445   */\n      dup3\n        /* \"#utility.yul\":1427:1434   */\n      dup5\n        /* \"#utility.yul\":1423:1446   */\n      sub\n        /* \"#utility.yul\":1419:1451   */\n      slt\n        /* \"#utility.yul\":1416:1535   */\n      iszero\n      tag_374\n      jumpi\n        /* \"#utility.yul\":1454:1533   */\n      tag_375\n      tag_261\n      jump\t// in\n    tag_375:\n        /* \"#utility.yul\":1416:1535   */\n    tag_374:\n        /* \"#utility.yul\":1574:1575   */\n      0x00\n        /* \"#utility.yul\":1599:1652   */\n      tag_376\n        /* \"#utility.yul\":1644:1651   */\n      dup5\n        /* \"#utility.yul\":1635:1641   */\n      dup3\n        /* \"#utility.yul\":1624:1633   */\n      dup6\n        /* \"#utility.yul\":1620:1642   */\n      add\n        /* \"#utility.yul\":1599:1652   */\n      tag_265\n      jump\t// in\n    tag_376:\n        /* \"#utility.yul\":1589:1652   */\n      swap2\n      pop\n        /* \"#utility.yul\":1545:1662   */\n      pop\n        /* \"#utility.yul\":1340:1669   */\n      swap3\n      swap2\n      pop\n      pop\n      jump\t// out\n        /* \"#utility.yul\":1675:1783   */\n    tag_266:\n        /* \"#utility.yul\":1752:1776   */\n      tag_378\n        /* \"#utility.yul\":1770:1775   */\n      dup2\n        /* \"#utility.yul\":1752:1776   */\n      tag_263\n      jump\t// in\n    tag_378:\n        /* \"#utility.yul\":1747:1750   */\n      dup3\n        /* \"#utility.yul\":1740:1777   */\n      mstore\n        /* \"#utility.yul\":1675:1783   */\n      pop\n      pop\n      jump\t// out\n        /* \"#utility.yul\":1789:1888   */\n    tag_267:\n        /* \"#utility.yul\":1841:1847   */\n      0x00\n        /* \"#utility.yul\":1875:1880   */\n      dup2\n        /* \"#utility.yul\":1869:1881   */\n      mload\n        /* \"#utility.yul\":1859:1881   */\n      swap1\n      pop\n        /* \"#utility.yul\":1789:1888   */\n      swap2\n      swap1\n      pop\n      jump\t// out\n        /* \"#utility.yul\":1894:2053   */\n    tag_268:\n        /* \"#utility.yul\":1968:1979   */\n      0x00\n        /* \"#utility.yul\":2002:2008   */\n      dup3\n        /* \"#utility.yul\":1997:2000   */\n      dup3\n        /* \"#utility.yul\":1990:2009   */\n      mstore\n        /* \"#utility.yul\":2042:2046   */\n      0x20\n        /* \"#utility.yul\":2037:2040   */\n      dup3\n        /* \"#utility.yul\":2033:2047   */\n      add\n        /* \"#utility.yul\":2018:2047   */\n      swap1\n      pop\n        /* \"#utility.yul\":1894:2053   */\n      swap3\n      swap2\n      pop\n      pop\n      jump\t// out\n        /* \"#utility.yul\":2059:2198   */\n    tag_269:\n        /* \"#utility.yul\":2148:2154   */\n      dup3\n        /* \"#utility.yul\":2143:2146   */\n      dup2\n        /* \"#utility.yul\":2138:2141   */\n      dup4\n        /* \"#utility.yul\":2132:2155   */\n      mcopy\n        /* \"#utility.yul\":2189:2190   */\n      0x00\n        /* \"#utility.yul\":2180:2186   */\n      dup4\n        /* \"#utility.yul\":2175:2178   */\n      dup4\n        /* \"#utility.yul\":2171:2187   */\n      add\n        /* \"#utility.yul\":2164:2191   */\n      mstore\n        /* \"#utility.yul\":2059:2198   */\n      pop\n      pop\n      pop\n      jump\t// out\n        /* \"#utility.yul\":2204:2306   */\n    tag_270:\n        /* \"#utility.yul\":2245:2251   */\n      0x00\n        /* \"#utility.yul\":2296:2298   */\n      0x1f\n        /* \"#utility.yul\":2292:2299   */\n      not\n        /* \"#utility.yul\":2287:2289   */\n      0x1f\n        /* \"#utility.yul\":2280:2285   */\n      dup4\n        /* \"#utility.yul\":2276:2290   */\n      add\n        /* \"#utility.yul\":2272:2300   */\n      and\n        /* \"#utility.yul\":2262:2300   */\n      swap1\n      pop\n        /* \"#utility.yul\":2204:2306   */\n      swap2\n      swap1\n      pop\n      jump\t// out\n        /* \"#utility.yul\":2312:2669   */\n    tag_271:\n        /* \"#utility.yul\":2390:2393   */\n      0x00\n        /* \"#utility.yul\":2418:2457   */\n      tag_384\n        /* \"#utility.yul\":2451:2456   */\n      dup3\n        /* \"#utility.yul\":2418:2457   */\n      tag_267\n      jump\t// in\n    tag_384:\n        /* \"#utility.yul\":2473:2534   */\n      tag_385\n        /* \"#utility.yul\":2527:2533   */\n      dup2\n        /* \"#utility.yul\":2522:2525   */\n      dup6\n        /* \"#utility.yul\":2473:2534   */\n      tag_268\n      jump\t// in\n    tag_385:\n        /* \"#utility.yul\":2466:2534   */\n      swap4\n      pop\n        /* \"#utility.yul\":2543:2608   */\n      tag_386\n        /* \"#utility.yul\":2601:2607   */\n      dup2\n        /* \"#utility.yul\":2596:2599   */\n      dup6\n        /* \"#utility.yul\":2589:2593   */\n      0x20\n        /* \"#utility.yul\":2582:2587   */\n      dup7\n        /* \"#utility.yul\":2578:2594   */\n      add\n        /* \"#utility.yul\":2543:2608   */\n      tag_269\n      jump\t// in\n    tag_386:\n        /* \"#utility.yul\":2633:2662   */\n      tag_387\n        /* \"#utility.yul\":2655:2661   */\n      dup2\n        /* \"#utility.yul\":2633:2662   */\n      tag_270\n      jump\t// in\n    tag_387:\n        /* \"#utility.yul\":2628:2631   */\n      dup5\n        /* \"#utility.yul\":2624:2663   */\n      add\n        /* \"#utility.yul\":2617:2663   */\n      swap2\n      pop\n        /* \"#utility.yul\":2394:2669   */\n      pop\n        /* \"#utility.yul\":2312:2669   */\n      swap3\n      swap2\n      pop\n      pop\n      jump\t// out\n        /* \"#utility.yul\":2675:2765   */\n    tag_272:\n        /* \"#utility.yul\":2709:2716   */\n      0x00\n        /* \"#utility.yul\":2752:2757   */\n      dup2\n        /* \"#utility.yul\":2745:2758   */\n      iszero\n        /* \"#utility.yul\":2738:2759   */\n      iszero\n        /* \"#utility.yul\":2727:2759   */\n      swap1\n      pop\n        /* \"#utility.yul\":2675:2765   */\n      swap2\n      swap1\n      pop\n      jump\t// out\n        /* \"#utility.yul\":2771:2870   */\n    tag_273:\n        /* \"#utility.yul\":2842:2863   */\n      tag_390\n        /* \"#utility.yul\":2857:2862   */\n      dup2\n        /* \"#utility.yul\":2842:2863   */\n      tag_272\n      jump\t// in\n    tag_390:\n        /* \"#utility.yul\":2837:2840   */\n      dup3\n        /* \"#utility.yul\":2830:2864   */\n      mstore\n        /* \"#utility.yul\":2771:2870   */\n      pop\n      pop\n      jump\t// out\n        /* \"#utility.yul\":2936:4906   */\n    tag_274:\n        /* \"#utility.yul\":3045:3048   */\n      0x00\n        /* \"#utility.yul\":3081:3087   */\n      0x0120\n        /* \"#utility.yul\":3076:3079   */\n      dup4\n        /* \"#utility.yul\":3072:3088   */\n      add\n        /* \"#utility.yul\":3168:3172   */\n      0x00\n        /* \"#utility.yul\":3161:3166   */\n      dup4\n        /* \"#utility.yul\":3157:3173   */\n      add\n        /* \"#utility.yul\":3151:3174   */\n      mload\n        /* \"#utility.yul\":3187:3250   */\n      tag_392\n        /* \"#utility.yul\":3244:3248   */\n      0x00\n        /* \"#utility.yul\":3239:3242   */\n      dup7\n        /* \"#utility.yul\":3235:3249   */\n      add\n        /* \"#utility.yul\":3221:3233   */\n      dup3\n        /* \"#utility.yul\":3187:3250   */\n      tag_266\n      jump\t// in\n    tag_392:\n        /* \"#utility.yul\":3098:3260   */\n      pop\n        /* \"#utility.yul\":3343:3347   */\n      0x20\n        /* \"#utility.yul\":3336:3341   */\n      dup4\n        /* \"#utility.yul\":3332:3348   */\n      add\n        /* \"#utility.yul\":3326:3349   */\n      mload\n        /* \"#utility.yul\":3396:3399   */\n      dup5\n        /* \"#utility.yul\":3390:3394   */\n      dup3\n        /* \"#utility.yul\":3386:3400   */\n      sub\n        /* \"#utility.yul\":3379:3383   */\n      0x20\n        /* \"#utility.yul\":3374:3377   */\n      dup7\n        /* \"#utility.yul\":3370:3384   */\n      add\n        /* \"#utility.yul\":3363:3401   */\n      mstore\n        /* \"#utility.yul\":3422:3495   */\n      tag_393\n        /* \"#utility.yul\":3490:3494   */\n      dup3\n        /* \"#utility.yul\":3476:3488   */\n      dup3\n        /* \"#utility.yul\":3422:3495   */\n      tag_271\n      jump\t// in\n    tag_393:\n        /* \"#utility.yul\":3414:3495   */\n      swap2\n      pop\n        /* \"#utility.yul\":3270:3506   */\n      pop\n        /* \"#utility.yul\":3590:3594   */\n      0x40\n        /* \"#utility.yul\":3583:3588   */\n      dup4\n        /* \"#utility.yul\":3579:3595   */\n      add\n        /* \"#utility.yul\":3573:3596   */\n      mload\n        /* \"#utility.yul\":3643:3646   */\n      dup5\n        /* \"#utility.yul\":3637:3641   */\n      dup3\n        /* \"#utility.yul\":3633:3647   */\n      sub\n        /* \"#utility.yul\":3626:3630   */\n      0x40\n        /* \"#utility.yul\":3621:3624   */\n      dup7\n        /* \"#utility.yul\":3617:3631   */\n      add\n        /* \"#utility.yul\":3610:3648   */\n      mstore\n        /* \"#utility.yul\":3669:3742   */\n      tag_394\n        /* \"#utility.yul\":3737:3741   */\n      dup3\n        /* \"#utility.yul\":3723:3735   */\n      dup3\n        /* \"#utility.yul\":3669:3742   */\n      tag_271\n      jump\t// in\n    tag_394:\n        /* \"#utility.yul\":3661:3742   */\n      swap2\n      pop\n        /* \"#utility.yul\":3516:3753   */\n      pop\n        /* \"#utility.yul\":3836:3840   */\n      0x60\n        /* \"#utility.yul\":3829:3834   */\n      dup4\n        /* \"#utility.yul\":3825:3841   */\n      add\n        /* \"#utility.yul\":3819:3842   */\n      mload\n        /* \"#utility.yul\":3889:3892   */\n      dup5\n        /* \"#utility.yul\":3883:3887   */\n      dup3\n        /* \"#utility.yul\":3879:3893   */\n      sub\n        /* \"#utility.yul\":3872:3876   */\n      0x60\n        /* \"#utility.yul\":3867:3870   */\n      dup7\n        /* \"#utility.yul\":3863:3877   */\n      add\n        /* \"#utility.yul\":3856:3894   */\n      mstore\n        /* \"#utility.yul\":3915:3988   */\n      tag_395\n        /* \"#utility.yul\":3983:3987   */\n      dup3\n        /* \"#utility.yul\":3969:3981   */\n      dup3\n        /* \"#utility.yul\":3915:3988   */\n      tag_271\n      jump\t// in\n    tag_395:\n        /* \"#utility.yul\":3907:3988   */\n      swap2\n      pop\n        /* \"#utility.yul\":3763:3999   */\n      pop\n        /* \"#utility.yul\":4085:4089   */\n      0x80\n        /* \"#utility.yul\":4078:4083   */\n      dup4\n        /* \"#utility.yul\":4074:4090   */\n      add\n        /* \"#utility.yul\":4068:4091   */\n      mload\n        /* \"#utility.yul\":4104:4167   */\n      tag_396\n        /* \"#utility.yul\":4161:4165   */\n      0x80\n        /* \"#utility.yul\":4156:4159   */\n      dup7\n        /* \"#utility.yul\":4152:4166   */\n      add\n        /* \"#utility.yul\":4138:4150   */\n      dup3\n        /* \"#utility.yul\":4104:4167   */\n      tag_266\n      jump\t// in\n    tag_396:\n        /* \"#utility.yul\":4009:4177   */\n      pop\n        /* \"#utility.yul\":4260:4264   */\n      0xa0\n        /* \"#utility.yul\":4253:4258   */\n      dup4\n        /* \"#utility.yul\":4249:4265   */\n      add\n        /* \"#utility.yul\":4243:4266   */\n      mload\n        /* \"#utility.yul\":4279:4342   */\n      tag_397\n        /* \"#utility.yul\":4336:4340   */\n      0xa0\n        /* \"#utility.yul\":4331:4334   */\n      dup7\n        /* \"#utility.yul\":4327:4341   */\n      add\n        /* \"#utility.yul\":4313:4325   */\n      dup3\n        /* \"#utility.yul\":4279:4342   */\n      tag_266\n      jump\t// in\n    tag_397:\n        /* \"#utility.yul\":4187:4352   */\n      pop\n        /* \"#utility.yul\":4439:4443   */\n      0xc0\n        /* \"#utility.yul\":4432:4437   */\n      dup4\n        /* \"#utility.yul\":4428:4444   */\n      add\n        /* \"#utility.yul\":4422:4445   */\n      mload\n        /* \"#utility.yul\":4458:4521   */\n      tag_398\n        /* \"#utility.yul\":4515:4519   */\n      0xc0\n        /* \"#utility.yul\":4510:4513   */\n      dup7\n        /* \"#utility.yul\":4506:4520   */\n      add\n        /* \"#utility.yul\":4492:4504   */\n      dup3\n        /* \"#utility.yul\":4458:4521   */\n      tag_266\n      jump\t// in\n    tag_398:\n        /* \"#utility.yul\":4362:4531   */\n      pop\n        /* \"#utility.yul\":4615:4619   */\n      0xe0\n        /* \"#utility.yul\":4608:4613   */\n      dup4\n        /* \"#utility.yul\":4604:4620   */\n      add\n        /* \"#utility.yul\":4598:4621   */\n      mload\n        /* \"#utility.yul\":4634:4691   */\n      tag_399\n        /* \"#utility.yul\":4685:4689   */\n      0xe0\n        /* \"#utility.yul\":4680:4683   */\n      dup7\n        /* \"#utility.yul\":4676:4690   */\n      add\n        /* \"#utility.yul\":4662:4674   */\n      dup3\n        /* \"#utility.yul\":4634:4691   */\n      tag_273\n      jump\t// in\n    tag_399:\n        /* \"#utility.yul\":4541:4701   */\n      pop\n        /* \"#utility.yul\":4783:4789   */\n      0x0100\n        /* \"#utility.yul\":4776:4781   */\n      dup4\n        /* \"#utility.yul\":4772:4790   */\n      add\n        /* \"#utility.yul\":4766:4791   */\n      mload\n        /* \"#utility.yul\":4804:4869   */\n      tag_400\n        /* \"#utility.yul\":4861:4867   */\n      0x0100\n        /* \"#utility.yul\":4856:4859   */\n      dup7\n        /* \"#utility.yul\":4852:4868   */\n      add\n        /* \"#utility.yul\":4838:4850   */\n      dup3\n        /* \"#utility.yul\":4804:4869   */\n      tag_266\n      jump\t// in\n    tag_400:\n        /* \"#utility.yul\":4711:4879   */\n      pop\n        /* \"#utility.yul\":4896:4900   */\n      dup1\n        /* \"#utility.yul\":4889:4900   */\n      swap2\n      pop\n        /* \"#utility.yul\":3050:4906   */\n      pop\n        /* \"#utility.yul\":2936:4906   */\n      swap3\n      swap2\n      pop\n      pop\n      jump\t// out\n        /* \"#utility.yul\":4912:5265   */\n    tag_33:\n        /* \"#utility.yul\":5045:5049   */\n      0x00\n        /* \"#utility.yul\":5083:5085   */\n      0x20\n        /* \"#utility.yul\":5072:5081   */\n      dup3\n        /* \"#utility.yul\":5068:5086   */\n      add\n        /* \"#utility.yul\":5060:5086   */\n      swap1\n      pop\n        /* \"#utility.yul\":5132:5141   */\n      dup2\n        /* \"#utility.yul\":5126:5130   */\n      dup2\n        /* \"#utility.yul\":5122:5142   */\n      sub\n        /* \"#utility.yul\":5118:5119   */\n      0x00\n        /* \"#utility.yul\":5107:5116   */\n      dup4\n        /* \"#utility.yul\":5103:5120   */\n      add\n        /* \"#utility.yul\":5096:5143   */\n      mstore\n        /* \"#utility.yul\":5160:5258   */\n      tag_402\n        /* \"#utility.yul\":5253:5257   */\n      dup2\n        /* \"#utility.yul\":5244:5250   */\n      dup5\n        /* \"#utility.yul\":5160:5258   */\n      tag_274\n      jump\t// in\n    tag_402:\n        /* \"#utility.yul\":5152:5258   */\n      swap1\n      pop\n        /* \"#utility.yul\":4912:5265   */\n      swap3\n      swap2\n      pop\n      pop\n      jump\t// out\n        /* \"#utility.yul\":5271:5389   */\n    tag_275:\n        /* \"#utility.yul\":5358:5382   */\n      tag_404\n        /* \"#utility.yul\":5376:5381   */\n      dup2\n        /* \"#utility.yul\":5358:5382   */\n      tag_263\n      jump\t// in\n    tag_404:\n        /* \"#utility.yul\":5353:5356   */\n      dup3\n        /* \"#utility.yul\":5346:5383   */\n      mstore\n        /* \"#utility.yul\":5271:5389   */\n      pop\n      pop\n      jump\t// out\n        /* \"#utility.yul\":5395:5617   */\n    tag_39:\n        /* \"#utility.yul\":5488:5492   */\n      0x00\n        /* \"#utility.yul\":5526:5528   */\n      0x20\n        /* \"#utility.yul\":5515:5524   */\n      dup3\n        /* \"#utility.yul\":5511:5529   */\n      add\n        /* \"#utility.yul\":5503:5529   */\n      swap1\n      pop\n        /* \"#utility.yul\":5539:5610   */\n      tag_406\n        /* \"#utility.yul\":5607:5608   */\n      0x00\n        /* \"#utility.yul\":5596:5605   */\n      dup4\n        /* \"#utility.yul\":5592:5609   */\n      add\n        /* \"#utility.yul\":5583:5589   */\n      dup5\n        /* \"#utility.yul\":5539:5610   */\n      tag_275\n      jump\t// in\n    tag_406:\n        /* \"#utility.yul\":5395:5617   */\n      swap3\n      swap2\n      pop\n      pop\n      jump\t// out\n        /* \"#utility.yul\":5623:5792   */\n    tag_276:\n        /* \"#utility.yul\":5707:5718   */\n      0x00\n        /* \"#utility.yul\":5741:5747   */\n      dup3\n        /* \"#utility.yul\":5736:5739   */\n      dup3\n        /* \"#utility.yul\":5729:5748   */\n      mstore\n        /* \"#utility.yul\":5781:5785   */\n      0x20\n        /* \"#utility.yul\":5776:5779   */\n      dup3\n        /* \"#utility.yul\":5772:5786   */\n      add\n        /* \"#utility.yul\":5757:5786   */\n      swap1\n      pop\n        /* \"#utility.yul\":5623:5792   */\n      swap3\n      swap2\n      pop\n      pop\n      jump\t// out\n        /* \"#utility.yul\":5798:6175   */\n    tag_277:\n        /* \"#utility.yul\":5886:5889   */\n      0x00\n        /* \"#utility.yul\":5914:5953   */\n      tag_409\n        /* \"#utility.yul\":5947:5952   */\n      dup3\n        /* \"#utility.yul\":5914:5953   */\n      tag_267\n      jump\t// in\n    tag_409:\n        /* \"#utility.yul\":5969:6040   */\n      tag_410\n        /* \"#utility.yul\":6033:6039   */\n      dup2\n        /* \"#utility.yul\":6028:6031   */\n      dup6\n        /* \"#utility.yul\":5969:6040   */\n      tag_276\n      jump\t// in\n    tag_410:\n        /* \"#utility.yul\":5962:6040   */\n      swap4\n      pop\n        /* \"#utility.yul\":6049:6114   */\n      tag_411\n        /* \"#utility.yul\":6107:6113   */\n      dup2\n        /* \"#utility.yul\":6102:6105   */\n      dup6\n        /* \"#utility.yul\":6095:6099   */\n      0x20\n        /* \"#utility.yul\":6088:6093   */\n      dup7\n        /* \"#utility.yul\":6084:6100   */\n      add\n        /* \"#utility.yul\":6049:6114   */\n      tag_269\n      jump\t// in\n    tag_411:\n        /* \"#utility.yul\":6139:6168   */\n      tag_412\n        /* \"#utility.yul\":6161:6167   */\n      dup2\n        /* \"#utility.yul\":6139:6168   */\n      tag_270\n      jump\t// in\n    tag_412:\n        /* \"#utility.yul\":6134:6137   */\n      dup5\n        /* \"#utility.yul\":6130:6169   */\n      add\n        /* \"#utility.yul\":6123:6169   */\n      swap2\n      pop\n        /* \"#utility.yul\":5890:6175   */\n      pop\n        /* \"#utility.yul\":5798:6175   */\n      swap3\n      swap2\n      pop\n      pop\n      jump\t// out\n        /* \"#utility.yul\":6181:6290   */\n    tag_278:\n        /* \"#utility.yul\":6262:6283   */\n      tag_414\n        /* \"#utility.yul\":6277:6282   */\n      dup2\n        /* \"#utility.yul\":6262:6283   */\n      tag_272\n      jump\t// in\n    tag_414:\n        /* \"#utility.yul\":6257:6260   */\n      dup3\n        /* \"#utility.yul\":6250:6284   */\n      mstore\n        /* \"#utility.yul\":6181:6290   */\n      pop\n      pop\n      jump\t// out\n        /* \"#utility.yul\":6296:7665   */\n    tag_45:\n        /* \"#utility.yul\":6667:6671   */\n      0x00\n        /* \"#utility.yul\":6705:6708   */\n      0x0120\n        /* \"#utility.yul\":6694:6703   */\n      dup3\n        /* \"#utility.yul\":6690:6709   */\n      add\n        /* \"#utility.yul\":6682:6709   */\n      swap1\n      pop\n        /* \"#utility.yul\":6719:6790   */\n      tag_416\n        /* \"#utility.yul\":6787:6788   */\n      0x00\n        /* \"#utility.yul\":6776:6785   */\n      dup4\n        /* \"#utility.yul\":6772:6789   */\n      add\n        /* \"#utility.yul\":6763:6769   */\n      dup13\n        /* \"#utility.yul\":6719:6790   */\n      tag_275\n      jump\t// in\n    tag_416:\n        /* \"#utility.yul\":6837:6846   */\n      dup2\n        /* \"#utility.yul\":6831:6835   */\n      dup2\n        /* \"#utility.yul\":6827:6847   */\n      sub\n        /* \"#utility.yul\":6822:6824   */\n      0x20\n        /* \"#utility.yul\":6811:6820   */\n      dup4\n        /* \"#utility.yul\":6807:6825   */\n      add\n        /* \"#utility.yul\":6800:6848   */\n      mstore\n        /* \"#utility.yul\":6865:6943   */\n      tag_417\n        /* \"#utility.yul\":6938:6942   */\n      dup2\n        /* \"#utility.yul\":6929:6935   */\n      dup12\n        /* \"#utility.yul\":6865:6943   */\n      tag_277\n      jump\t// in\n    tag_417:\n        /* \"#utility.yul\":6857:6943   */\n      swap1\n      pop\n        /* \"#utility.yul\":6990:6999   */\n      dup2\n        /* \"#utility.yul\":6984:6988   */\n      dup2\n        /* \"#utility.yul\":6980:7000   */\n      sub\n        /* \"#utility.yul\":6975:6977   */\n      0x40\n        /* \"#utility.yul\":6964:6973   */\n      dup4\n        /* \"#utility.yul\":6960:6978   */\n      add\n        /* \"#utility.yul\":6953:7001   */\n      mstore\n        /* \"#utility.yul\":7018:7096   */\n      tag_418\n        /* \"#utility.yul\":7091:7095   */\n      dup2\n        /* \"#utility.yul\":7082:7088   */\n      dup11\n        /* \"#utility.yul\":7018:7096   */\n      tag_277\n      jump\t// in\n    tag_418:\n        /* \"#utility.yul\":7010:7096   */\n      swap1\n      pop\n        /* \"#utility.yul\":7143:7152   */\n      dup2\n        /* \"#utility.yul\":7137:7141   */\n      dup2\n        /* \"#utility.yul\":7133:7153   */\n      sub\n        /* \"#utility.yul\":7128:7130   */\n      0x60\n        /* \"#utility.yul\":7117:7126   */\n      dup4\n        /* \"#utility.yul\":7113:7131   */\n      add\n        /* \"#utility.yul\":7106:7154   */\n      mstore\n        /* \"#utility.yul\":7171:7249   */\n      tag_419\n        /* \"#utility.yul\":7244:7248   */\n      dup2\n        /* \"#utility.yul\":7235:7241   */\n      dup10\n        /* \"#utility.yul\":7171:7249   */\n      tag_277\n      jump\t// in\n    tag_419:\n        /* \"#utility.yul\":7163:7249   */\n      swap1\n      pop\n        /* \"#utility.yul\":7259:7332   */\n      tag_420\n        /* \"#utility.yul\":7327:7330   */\n      0x80\n        /* \"#utility.yul\":7316:7325   */\n      dup4\n        /* \"#utility.yul\":7312:7331   */\n      add\n        /* \"#utility.yul\":7303:7309   */\n      dup9\n        /* \"#utility.yul\":7259:7332   */\n      tag_275\n      jump\t// in\n    tag_420:\n        /* \"#utility.yul\":7342:7415   */\n      tag_421\n        /* \"#utility.yul\":7410:7413   */\n      0xa0\n        /* \"#utility.yul\":7399:7408   */\n      dup4\n        /* \"#utility.yul\":7395:7414   */\n      add\n        /* \"#utility.yul\":7386:7392   */\n      dup8\n        /* \"#utility.yul\":7342:7415   */\n      tag_275\n      jump\t// in\n    tag_421:\n        /* \"#utility.yul\":7425:7498   */\n      tag_422\n        /* \"#utility.yul\":7493:7496   */\n      0xc0\n        /* \"#utility.yul\":7482:7491   */\n      dup4\n        /* \"#utility.yul\":7478:7497   */\n      add\n        /* \"#utility.yul\":7469:7475   */\n      dup7\n        /* \"#utility.yul\":7425:7498   */\n      tag_275\n      jump\t// in\n    tag_422:\n        /* \"#utility.yul\":7508:7575   */\n      tag_423\n        /* \"#utility.yul\":7570:7573   */\n      0xe0\n        /* \"#utility.yul\":7559:7568   */\n      dup4\n        /* \"#utility.yul\":7555:7574   */\n      add\n        /* \"#utility.yul\":7546:7552   */\n      dup6\n        /* \"#utility.yul\":7508:7575   */\n      tag_278\n      jump\t// in\n    tag_423:\n        /* \"#utility.yul\":7585:7658   */\n      tag_424\n        /* \"#utility.yul\":7653:7656   */\n      0x0100\n        /* \"#utility.yul\":7642:7651   */\n      dup4\n        /* \"#utility.yul\":7638:7657   */\n      add\n        /* \"#utility.yul\":7629:7635   */\n      dup5\n        /* \"#utility.yul\":7585:7658   */\n      tag_275\n      jump\t// in\n    tag_424:\n        /* \"#utility.yul\":6296:7665   */\n      swap11\n      swap10\n      pop\n      pop\n      pop\n      pop\n      pop\n      pop\n      pop\n      pop\n      pop\n      pop\n      jump\t// out\n        /* \"#utility.yul\":7671:7805   */\n    tag_279:\n        /* \"#utility.yul\":7758:7764   */\n      0x00\n        /* \"#utility.yul\":7792:7797   */\n      dup2\n        /* \"#utility.yul\":7786:7798   */\n      mload\n        /* \"#utility.yul\":7776:7798   */\n      swap1\n      pop\n        /* \"#utility.yul\":7671:7805   */\n      swap2\n      swap1\n      pop\n      jump\t// out\n        /* \"#utility.yul\":7811:8015   */\n    tag_280:\n        /* \"#utility.yul\":7930:7941   */\n      0x00\n        /* \"#utility.yul\":7964:7970   */\n      dup3\n        /* \"#utility.yul\":7959:7962   */\n      dup3\n        /* \"#utility.yul\":7952:7971   */\n      mstore\n        /* \"#utility.yul\":8004:8008   */\n      0x20\n        /* \"#utility.yul\":7999:8002   */\n      dup3\n        /* \"#utility.yul\":7995:8009   */\n      add\n        /* \"#utility.yul\":7980:8009   */\n      swap1\n      pop\n        /* \"#utility.yul\":7811:8015   */\n      swap3\n      swap2\n      pop\n      pop\n      jump\t// out\n        /* \"#utility.yul\":8021:8173   */\n    tag_281:\n        /* \"#utility.yul\":8108:8112   */\n      0x00\n        /* \"#utility.yul\":8131:8134   */\n      dup2\n        /* \"#utility.yul\":8123:8134   */\n      swap1\n      pop\n        /* \"#utility.yul\":8161:8165   */\n      0x20\n        /* \"#utility.yul\":8156:8159   */\n      dup3\n        /* \"#utility.yul\":8152:8166   */\n      add\n        /* \"#utility.yul\":8144:8166   */\n      swap1\n      pop\n        /* \"#utility.yul\":8021:8173   */\n      swap2\n      swap1\n      pop\n      jump\t// out\n        /* \"#utility.yul\":8239:10199   */\n    tag_282:\n        /* \"#utility.yul\":8338:8341   */\n      0x00\n        /* \"#utility.yul\":8374:8380   */\n      0x0120\n        /* \"#utility.yul\":8369:8372   */\n      dup4\n        /* \"#utility.yul\":8365:8381   */\n      add\n        /* \"#utility.yul\":8461:8465   */\n      0x00\n        /* \"#utility.yul\":8454:8459   */\n      dup4\n        /* \"#utility.yul\":8450:8466   */\n      add\n        /* \"#utility.yul\":8444:8467   */\n      mload\n        /* \"#utility.yul\":8480:8543   */\n      tag_429\n        /* \"#utility.yul\":8537:8541   */\n      0x00\n        /* \"#utility.yul\":8532:8535   */\n      dup7\n        /* \"#utility.yul\":8528:8542   */\n      add\n        /* \"#utility.yul\":8514:8526   */\n      dup3\n        /* \"#utility.yul\":8480:8543   */\n      tag_266\n      jump\t// in\n    tag_429:\n        /* \"#utility.yul\":8391:8553   */\n      pop\n        /* \"#utility.yul\":8636:8640   */\n      0x20\n        /* \"#utility.yul\":8629:8634   */\n      dup4\n        /* \"#utility.yul\":8625:8641   */\n      add\n        /* \"#utility.yul\":8619:8642   */\n      mload\n        /* \"#utility.yul\":8689:8692   */\n      dup5\n        /* \"#utility.yul\":8683:8687   */\n      dup3\n        /* \"#utility.yul\":8679:8693   */\n      sub\n        /* \"#utility.yul\":8672:8676   */\n      0x20\n        /* \"#utility.yul\":8667:8670   */\n      dup7\n        /* \"#utility.yul\":8663:8677   */\n      add\n        /* \"#utility.yul\":8656:8694   */\n      mstore\n        /* \"#utility.yul\":8715:8788   */\n      tag_430\n        /* \"#utility.yul\":8783:8787   */\n      dup3\n        /* \"#utility.yul\":8769:8781   */\n      dup3\n        /* \"#utility.yul\":8715:8788   */\n      tag_271\n      jump\t// in\n    tag_430:\n        /* \"#utility.yul\":8707:8788   */\n      swap2\n      pop\n        /* \"#utility.yul\":8563:8799   */\n      pop\n        /* \"#utility.yul\":8883:8887   */\n      0x40\n        /* \"#utility.yul\":8876:8881   */\n      dup4\n        /* \"#utility.yul\":8872:8888   */\n      add\n        /* \"#utility.yul\":8866:8889   */\n      mload\n        /* \"#utility.yul\":8936:8939   */\n      dup5\n        /* \"#utility.yul\":8930:8934   */\n      dup3\n        /* \"#utility.yul\":8926:8940   */\n      sub\n        /* \"#utility.yul\":8919:8923   */\n      0x40\n        /* \"#utility.yul\":8914:8917   */\n      dup7\n        /* \"#utility.yul\":8910:8924   */\n      add\n        /* \"#utility.yul\":8903:8941   */\n      mstore\n        /* \"#utility.yul\":8962:9035   */\n      tag_431\n        /* \"#utility.yul\":9030:9034   */\n      dup3\n        /* \"#utility.yul\":9016:9028   */\n      dup3\n        /* \"#utility.yul\":8962:9035   */\n      tag_271\n      jump\t// in\n    tag_431:\n        /* \"#utility.yul\":8954:9035   */\n      swap2\n      pop\n        /* \"#utility.yul\":8809:9046   */\n      pop\n        /* \"#utility.yul\":9129:9133   */\n      0x60\n        /* \"#utility.yul\":9122:9127   */\n      dup4\n        /* \"#utility.yul\":9118:9134   */\n      add\n        /* \"#utility.yul\":9112:9135   */\n      mload\n        /* \"#utility.yul\":9182:9185   */\n      dup5\n        /* \"#utility.yul\":9176:9180   */\n      dup3\n        /* \"#utility.yul\":9172:9186   */\n      sub\n        /* \"#utility.yul\":9165:9169   */\n      0x60\n        /* \"#utility.yul\":9160:9163   */\n      dup7\n        /* \"#utility.yul\":9156:9170   */\n      add\n        /* \"#utility.yul\":9149:9187   */\n      mstore\n        /* \"#utility.yul\":9208:9281   */\n      tag_432\n        /* \"#utility.yul\":9276:9280   */\n      dup3\n        /* \"#utility.yul\":9262:9274   */\n      dup3\n        /* \"#utility.yul\":9208:9281   */\n      tag_271\n      jump\t// in\n    tag_432:\n        /* \"#utility.yul\":9200:9281   */\n      swap2\n      pop\n        /* \"#utility.yul\":9056:9292   */\n      pop\n        /* \"#utility.yul\":9378:9382   */\n      0x80\n        /* \"#utility.yul\":9371:9376   */\n      dup4\n        /* \"#utility.yul\":9367:9383   */\n      add\n        /* \"#utility.yul\":9361:9384   */\n      mload\n        /* \"#utility.yul\":9397:9460   */\n      tag_433\n        /* \"#utility.yul\":9454:9458   */\n      0x80\n        /* \"#utility.yul\":9449:9452   */\n      dup7\n        /* \"#utility.yul\":9445:9459   */\n      add\n        /* \"#utility.yul\":9431:9443   */\n      dup3\n        /* \"#utility.yul\":9397:9460   */\n      tag_266\n      jump\t// in\n    tag_433:\n        /* \"#utility.yul\":9302:9470   */\n      pop\n        /* \"#utility.yul\":9553:9557   */\n      0xa0\n        /* \"#utility.yul\":9546:9551   */\n      dup4\n        /* \"#utility.yul\":9542:9558   */\n      add\n        /* \"#utility.yul\":9536:9559   */\n      mload\n        /* \"#utility.yul\":9572:9635   */\n      tag_434\n        /* \"#utility.yul\":9629:9633   */\n      0xa0\n        /* \"#utility.yul\":9624:9627   */\n      dup7\n        /* \"#utility.yul\":9620:9634   */\n      add\n        /* \"#utility.yul\":9606:9618   */\n      dup3\n        /* \"#utility.yul\":9572:9635   */\n      tag_266\n      jump\t// in\n    tag_434:\n        /* \"#utility.yul\":9480:9645   */\n      pop\n        /* \"#utility.yul\":9732:9736   */\n      0xc0\n        /* \"#utility.yul\":9725:9730   */\n      dup4\n        /* \"#utility.yul\":9721:9737   */\n      add\n        /* \"#utility.yul\":9715:9738   */\n      mload\n        /* \"#utility.yul\":9751:9814   */\n      tag_435\n        /* \"#utility.yul\":9808:9812   */\n      0xc0\n        /* \"#utility.yul\":9803:9806   */\n      dup7\n        /* \"#utility.yul\":9799:9813   */\n      add\n        /* \"#utility.yul\":9785:9797   */\n      dup3\n        /* \"#utility.yul\":9751:9814   */\n      tag_266\n      jump\t// in\n    tag_435:\n        /* \"#utility.yul\":9655:9824   */\n      pop\n        /* \"#utility.yul\":9908:9912   */\n      0xe0\n        /* \"#utility.yul\":9901:9906   */\n      dup4\n        /* \"#utility.yul\":9897:9913   */\n      add\n        /* \"#utility.yul\":9891:9914   */\n      mload\n        /* \"#utility.yul\":9927:9984   */\n      tag_436\n        /* \"#utility.yul\":9978:9982   */\n      0xe0\n        /* \"#utility.yul\":9973:9976   */\n      dup7\n        /* \"#utility.yul\":9969:9983   */\n      add\n        /* \"#utility.yul\":9955:9967   */\n      dup3\n        /* \"#utility.yul\":9927:9984   */\n      tag_273\n      jump\t// in\n    tag_436:\n        /* \"#utility.yul\":9834:9994   */\n      pop\n        /* \"#utility.yul\":10076:10082   */\n      0x0100\n        /* \"#utility.yul\":10069:10074   */\n      dup4\n        /* \"#utility.yul\":10065:10083   */\n      add\n        /* \"#utility.yul\":10059:10084   */\n      mload\n        /* \"#utility.yul\":10097:10162   */\n      tag_437\n        /* \"#utility.yul\":10154:10160   */\n      0x0100\n        /* \"#utility.yul\":10149:10152   */\n      dup7\n        /* \"#utility.yul\":10145:10161   */\n      add\n        /* \"#utility.yul\":10131:10143   */\n      dup3\n        /* \"#utility.yul\":10097:10162   */\n      tag_266\n      jump\t// in\n    tag_437:\n        /* \"#utility.yul\":10004:10172   */\n      pop\n        /* \"#utility.yul\":10189:10193   */\n      dup1\n        /* \"#utility.yul\":10182:10193   */\n      swap2\n      pop\n        /* \"#utility.yul\":8343:10199   */\n      pop\n        /* \"#utility.yul\":8239:10199   */\n      swap3\n      swap2\n      pop\n      pop\n      jump\t// out\n        /* \"#utility.yul\":10205:10441   */\n    tag_283:\n        /* \"#utility.yul\":10314:10324   */\n      0x00\n        /* \"#utility.yul\":10349:10435   */\n      tag_439\n        /* \"#utility.yul\":10431:10434   */\n      dup4\n        /* \"#utility.yul\":10423:10429   */\n      dup4\n        /* \"#utility.yul\":10349:10435   */\n      tag_282\n      jump\t// in\n    tag_439:\n        /* \"#utility.yul\":10335:10435   */\n      swap1\n      pop\n        /* \"#utility.yul\":10205:10441   */\n      swap3\n      swap2\n      pop\n      pop\n      jump\t// out\n        /* \"#utility.yul\":10447:10580   */\n    tag_284:\n        /* \"#utility.yul\":10537:10541   */\n      0x00\n        /* \"#utility.yul\":10569:10573   */\n      0x20\n        /* \"#utility.yul\":10564:10567   */\n      dup3\n        /* \"#utility.yul\":10560:10574   */\n      add\n        /* \"#utility.yul\":10552:10574   */\n      swap1\n      pop\n        /* \"#utility.yul\":10447:10580   */\n      swap2\n      swap1\n      pop\n      jump\t// out\n        /* \"#utility.yul\":10650:11721   */\n    tag_285:\n        /* \"#utility.yul\":10809:10812   */\n      0x00\n        /* \"#utility.yul\":10838:10912   */\n      tag_442\n        /* \"#utility.yul\":10906:10911   */\n      dup3\n        /* \"#utility.yul\":10838:10912   */\n      tag_279\n      jump\t// in\n    tag_442:\n        /* \"#utility.yul\":10928:11034   */\n      tag_443\n        /* \"#utility.yul\":11027:11033   */\n      dup2\n        /* \"#utility.yul\":11022:11025   */\n      dup6\n        /* \"#utility.yul\":10928:11034   */\n      tag_280\n      jump\t// in\n    tag_443:\n        /* \"#utility.yul\":10921:11034   */\n      swap4\n      pop\n        /* \"#utility.yul\":11060:11063   */\n      dup4\n        /* \"#utility.yul\":11105:11109   */\n      0x20\n        /* \"#utility.yul\":11097:11103   */\n      dup3\n        /* \"#utility.yul\":11093:11110   */\n      mul\n        /* \"#utility.yul\":11088:11091   */\n      dup6\n        /* \"#utility.yul\":11084:11111   */\n      add\n        /* \"#utility.yul\":11135:11211   */\n      tag_444\n        /* \"#utility.yul\":11205:11210   */\n      dup6\n        /* \"#utility.yul\":11135:11211   */\n      tag_281\n      jump\t// in\n    tag_444:\n        /* \"#utility.yul\":11234:11241   */\n      dup1\n        /* \"#utility.yul\":11265:11266   */\n      0x00\n        /* \"#utility.yul\":11250:11676   */\n    tag_445:\n        /* \"#utility.yul\":11275:11281   */\n      dup6\n        /* \"#utility.yul\":11272:11273   */\n      dup2\n        /* \"#utility.yul\":11269:11282   */\n      lt\n        /* \"#utility.yul\":11250:11676   */\n      iszero\n      tag_447\n      jumpi\n        /* \"#utility.yul\":11346:11355   */\n      dup5\n        /* \"#utility.yul\":11340:11344   */\n      dup5\n        /* \"#utility.yul\":11336:11356   */\n      sub\n        /* \"#utility.yul\":11331:11334   */\n      dup10\n        /* \"#utility.yul\":11324:11357   */\n      mstore\n        /* \"#utility.yul\":11397:11403   */\n      dup2\n        /* \"#utility.yul\":11391:11404   */\n      mload\n        /* \"#utility.yul\":11425:11529   */\n      tag_448\n        /* \"#utility.yul\":11524:11528   */\n      dup6\n        /* \"#utility.yul\":11509:11522   */\n      dup3\n        /* \"#utility.yul\":11425:11529   */\n      tag_283\n      jump\t// in\n    tag_448:\n        /* \"#utility.yul\":11417:11529   */\n      swap5\n      pop\n        /* \"#utility.yul\":11552:11632   */\n      tag_449\n        /* \"#utility.yul\":11625:11631   */\n      dup4\n        /* \"#utility.yul\":11552:11632   */\n      tag_284\n      jump\t// in\n    tag_449:\n        /* \"#utility.yul\":11542:11632   */\n      swap3\n      pop\n        /* \"#utility.yul\":11661:11665   */\n      0x20\n        /* \"#utility.yul\":11656:11659   */\n      dup11\n        /* \"#utility.yul\":11652:11666   */\n      add\n        /* \"#utility.yul\":11645:11666   */\n      swap10\n      pop\n        /* \"#utility.yul\":11310:11676   */\n      pop\n        /* \"#utility.yul\":11297:11298   */\n      0x01\n        /* \"#utility.yul\":11294:11295   */\n      dup2\n        /* \"#utility.yul\":11290:11299   */\n      add\n        /* \"#utility.yul\":11285:11299   */\n      swap1\n      pop\n        /* \"#utility.yul\":11250:11676   */\n      jump(tag_445)\n    tag_447:\n        /* \"#utility.yul\":11254:11268   */\n      pop\n        /* \"#utility.yul\":11692:11696   */\n      dup3\n        /* \"#utility.yul\":11685:11696   */\n      swap8\n      pop\n        /* \"#utility.yul\":11712:11715   */\n      dup8\n        /* \"#utility.yul\":11705:11715   */\n      swap6\n      pop\n        /* \"#utility.yul\":10814:11721   */\n      pop\n      pop\n      pop\n      pop\n      pop\n        /* \"#utility.yul\":10650:11721   */\n      swap3\n      swap2\n      pop\n      pop\n      jump\t// out\n        /* \"#utility.yul\":11727:12180   */\n    tag_57:\n        /* \"#utility.yul\":11910:11914   */\n      0x00\n        /* \"#utility.yul\":11948:11950   */\n      0x20\n        /* \"#utility.yul\":11937:11946   */\n      dup3\n        /* \"#utility.yul\":11933:11951   */\n      add\n        /* \"#utility.yul\":11925:11951   */\n      swap1\n      pop\n        /* \"#utility.yul\":11997:12006   */\n      dup2\n        /* \"#utility.yul\":11991:11995   */\n      dup2\n        /* \"#utility.yul\":11987:12007   */\n      sub\n        /* \"#utility.yul\":11983:11984   */\n      0x00\n        /* \"#utility.yul\":11972:11981   */\n      dup4\n        /* \"#utility.yul\":11968:11985   */\n      add\n        /* \"#utility.yul\":11961:12008   */\n      mstore\n        /* \"#utility.yul\":12025:12173   */\n      tag_451\n        /* \"#utility.yul\":12168:12172   */\n      dup2\n        /* \"#utility.yul\":12159:12165   */\n      dup5\n        /* \"#utility.yul\":12025:12173   */\n      tag_285\n      jump\t// in\n    tag_451:\n        /* \"#utility.yul\":12017:12173   */\n      swap1\n      pop\n        /* \"#utility.yul\":11727:12180   */\n      swap3\n      swap2\n      pop\n      pop\n      jump\t// out\n        /* \"#utility.yul\":12186:12660   */\n    tag_61:\n        /* \"#utility.yul\":12254:12260   */\n      0x00\n        /* \"#utility.yul\":12262:12268   */\n      0x00\n        /* \"#utility.yul\":12311:12313   */\n      0x40\n        /* \"#utility.yul\":12299:12308   */\n      dup4\n        /* \"#utility.yul\":12290:12297   */\n      dup6\n        /* \"#utility.yul\":12286:12309   */\n      sub\n        /* \"#utility.yul\":12282:12314   */\n      slt\n        /* \"#utility.yul\":12279:12398   */\n      iszero\n      tag_453\n      jumpi\n        /* \"#utility.yul\":12317:12396   */\n      tag_454\n      tag_261\n      jump\t// in\n    tag_454:\n        /* \"#utility.yul\":12279:12398   */\n    tag_453:\n        /* \"#utility.yul\":12437:12438   */\n      0x00\n        /* \"#utility.yul\":12462:12515   */\n      tag_455\n        /* \"#utility.yul\":12507:12514   */\n      dup6\n        /* \"#utility.yul\":12498:12504   */\n      dup3\n        /* \"#utility.yul\":12487:12496   */\n      dup7\n        /* \"#utility.yul\":12483:12505   */\n      add\n        /* \"#utility.yul\":12462:12515   */\n      tag_265\n      jump\t// in\n    tag_455:\n        /* \"#utility.yul\":12452:12515   */\n      swap3\n      pop\n        /* \"#utility.yul\":12408:12525   */\n      pop\n        /* \"#utility.yul\":12564:12566   */\n      0x20\n        /* \"#utility.yul\":12590:12643   */\n      tag_456\n        /* \"#utility.yul\":12635:12642   */\n      dup6\n        /* \"#utility.yul\":12626:12632   */\n      dup3\n        /* \"#utility.yul\":12615:12624   */\n      dup7\n        /* \"#utility.yul\":12611:12633   */\n      add\n        /* \"#utility.yul\":12590:12643   */\n      tag_265\n      jump\t// in\n    tag_456:\n        /* \"#utility.yul\":12580:12643   */\n      swap2\n      pop\n        /* \"#utility.yul\":12535:12653   */\n      pop\n        /* \"#utility.yul\":12186:12660   */\n      swap3\n      pop\n      swap3\n      swap1\n      pop\n      jump\t// out\n        /* \"#utility.yul\":12666:12762   */\n    tag_286:\n        /* \"#utility.yul\":12703:12710   */\n      0x00\n        /* \"#utility.yul\":12732:12756   */\n      tag_458\n        /* \"#utility.yul\":12750:12755   */\n      dup3\n        /* \"#utility.yul\":12732:12756   */\n      tag_257\n      jump\t// in\n    tag_458:\n        /* \"#utility.yul\":12721:12756   */\n      swap1\n      pop\n        /* \"#utility.yul\":12666:12762   */\n      swap2\n      swap1\n      pop\n      jump\t// out\n        /* \"#utility.yul\":12768:12886   */\n    tag_287:\n        /* \"#utility.yul\":12855:12879   */\n      tag_460\n        /* \"#utility.yul\":12873:12878   */\n      dup2\n        /* \"#utility.yul\":12855:12879   */\n      tag_286\n      jump\t// in\n    tag_460:\n        /* \"#utility.yul\":12850:12853   */\n      dup3\n        /* \"#utility.yul\":12843:12880   */\n      mstore\n        /* \"#utility.yul\":12768:12886   */\n      pop\n      pop\n      jump\t// out\n        /* \"#utility.yul\":12892:13114   */\n    tag_64:\n        /* \"#utility.yul\":12985:12989   */\n      0x00\n        /* \"#utility.yul\":13023:13025   */\n      0x20\n        /* \"#utility.yul\":13012:13021   */\n      dup3\n        /* \"#utility.yul\":13008:13026   */\n      add\n        /* \"#utility.yul\":13000:13026   */\n      swap1\n      pop\n        /* \"#utility.yul\":13036:13107   */\n      tag_462\n        /* \"#utility.yul\":13104:13105   */\n      0x00\n        /* \"#utility.yul\":13093:13102   */\n      dup4\n        /* \"#utility.yul\":13089:13106   */\n      add\n        /* \"#utility.yul\":13080:13086   */\n      dup5\n        /* \"#utility.yul\":13036:13107   */\n      tag_287\n      jump\t// in\n    tag_462:\n        /* \"#utility.yul\":12892:13114   */\n      swap3\n      swap2\n      pop\n      pop\n      jump\t// out\n        /* \"#utility.yul\":13120:13237   */\n    tag_288:\n        /* \"#utility.yul\":13229:13230   */\n      0x00\n        /* \"#utility.yul\":13226:13227   */\n      0x00\n        /* \"#utility.yul\":13219:13231   */\n      revert\n        /* \"#utility.yul\":13243:13360   */\n    tag_289:\n        /* \"#utility.yul\":13352:13353   */\n      0x00\n        /* \"#utility.yul\":13349:13350   */\n      0x00\n        /* \"#utility.yul\":13342:13354   */\n      revert\n        /* \"#utility.yul\":13366:13546   */\n    tag_177:\n        /* \"#utility.yul\":13414:13491   */\n      0x4e487b7100000000000000000000000000000000000000000000000000000000\n        /* \"#utility.yul\":13411:13412   */\n      0x00\n        /* \"#utility.yul\":13404:13492   */\n      mstore\n        /* \"#utility.yul\":13511:13515   */\n      0x41\n        /* \"#utility.yul\":13508:13509   */\n      0x04\n        /* \"#utility.yul\":13501:13516   */\n      mstore\n        /* \"#utility.yul\":13535:13539   */\n      0x24\n        /* \"#utility.yul\":13532:13533   */\n      0x00\n        /* \"#utility.yul\":13525:13540   */\n      revert\n        /* \"#utility.yul\":13552:13833   */\n    tag_290:\n        /* \"#utility.yul\":13635:13662   */\n      tag_467\n        /* \"#utility.yul\":13657:13661   */\n      dup3\n        /* \"#utility.yul\":13635:13662   */\n      tag_270\n      jump\t// in\n    tag_467:\n        /* \"#utility.yul\":13627:13633   */\n      dup2\n        /* \"#utility.yul\":13623:13663   */\n      add\n        /* \"#utility.yul\":13765:13771   */\n      dup2\n        /* \"#utility.yul\":13753:13763   */\n      dup2\n        /* \"#utility.yul\":13750:13772   */\n      lt\n        /* \"#utility.yul\":13729:13747   */\n      0xffffffffffffffff\n        /* \"#utility.yul\":13717:13727   */\n      dup3\n        /* \"#utility.yul\":13714:13748   */\n      gt\n        /* \"#utility.yul\":13711:13773   */\n      or\n        /* \"#utility.yul\":13708:13796   */\n      iszero\n      tag_468\n      jumpi\n        /* \"#utility.yul\":13776:13794   */\n      tag_469\n      tag_177\n      jump\t// in\n    tag_469:\n        /* \"#utility.yul\":13708:13796   */\n    tag_468:\n        /* \"#utility.yul\":13816:13826   */\n      dup1\n        /* \"#utility.yul\":13812:13814   */\n      0x40\n        /* \"#utility.yul\":13805:13827   */\n      mstore\n        /* \"#utility.yul\":13595:13833   */\n      pop\n        /* \"#utility.yul\":13552:13833   */\n      pop\n      pop\n      jump\t// out\n        /* \"#utility.yul\":13839:13968   */\n    tag_291:\n        /* \"#utility.yul\":13873:13879   */\n      0x00\n        /* \"#utility.yul\":13900:13920   */\n      tag_471\n      tag_260\n      jump\t// in\n    tag_471:\n        /* \"#utility.yul\":13890:13920   */\n      swap1\n      pop\n        /* \"#utility.yul\":13929:13962   */\n      tag_472\n        /* \"#utility.yul\":13957:13961   */\n      dup3\n        /* \"#utility.yul\":13949:13955   */\n      dup3\n        /* \"#utility.yul\":13929:13962   */\n      tag_290\n      jump\t// in\n    tag_472:\n        /* \"#utility.yul\":13839:13968   */\n      swap2\n      swap1\n      pop\n      jump\t// out\n        /* \"#utility.yul\":13974:14282   */\n    tag_292:\n        /* \"#utility.yul\":14036:14040   */\n      0x00\n        /* \"#utility.yul\":14126:14144   */\n      0xffffffffffffffff\n        /* \"#utility.yul\":14118:14124   */\n      dup3\n        /* \"#utility.yul\":14115:14145   */\n      gt\n        /* \"#utility.yul\":14112:14168   */\n      iszero\n      tag_474\n      jumpi\n        /* \"#utility.yul\":14148:14166   */\n      tag_475\n      tag_177\n      jump\t// in\n    tag_475:\n        /* \"#utility.yul\":14112:14168   */\n    tag_474:\n        /* \"#utility.yul\":14186:14215   */\n      tag_476\n        /* \"#utility.yul\":14208:14214   */\n      dup3\n        /* \"#utility.yul\":14186:14215   */\n      tag_270\n      jump\t// in\n    tag_476:\n        /* \"#utility.yul\":14178:14215   */\n      swap1\n      pop\n        /* \"#utility.yul\":14270:14274   */\n      0x20\n        /* \"#utility.yul\":14264:14268   */\n      dup2\n        /* \"#utility.yul\":14260:14275   */\n      add\n        /* \"#utility.yul\":14252:14275   */\n      swap1\n      pop\n        /* \"#utility.yul\":13974:14282   */\n      swap2\n      swap1\n      pop\n      jump\t// out\n        /* \"#utility.yul\":14288:14436   */\n    tag_293:\n        /* \"#utility.yul\":14386:14392   */\n      dup3\n        /* \"#utility.yul\":14381:14384   */\n      dup2\n        /* \"#utility.yul\":14376:14379   */\n      dup4\n        /* \"#utility.yul\":14363:14393   */\n      calldatacopy\n        /* \"#utility.yul\":14427:14428   */\n      0x00\n        /* \"#utility.yul\":14418:14424   */\n      dup4\n        /* \"#utility.yul\":14413:14416   */\n      dup4\n        /* \"#utility.yul\":14409:14425   */\n      add\n        /* \"#utility.yul\":14402:14429   */\n      mstore\n        /* \"#utility.yul\":14288:14436   */\n      pop\n      pop\n      pop\n      jump\t// out\n        /* \"#utility.yul\":14442:14867   */\n    tag_294:\n        /* \"#utility.yul\":14520:14525   */\n      0x00\n        /* \"#utility.yul\":14545:14611   */\n      tag_479\n        /* \"#utility.yul\":14561:14610   */\n      tag_480\n        /* \"#utility.yul\":14603:14609   */\n      dup5\n        /* \"#utility.yul\":14561:14610   */\n      tag_292\n      jump\t// in\n    tag_480:\n        /* \"#utility.yul\":14545:14611   */\n      tag_291\n      jump\t// in\n    tag_479:\n        /* \"#utility.yul\":14536:14611   */\n      swap1\n      pop\n        /* \"#utility.yul\":14634:14640   */\n      dup3\n        /* \"#utility.yul\":14627:14632   */\n      dup2\n        /* \"#utility.yul\":14620:14641   */\n      mstore\n        /* \"#utility.yul\":14672:14676   */\n      0x20\n        /* \"#utility.yul\":14665:14670   */\n      dup2\n        /* \"#utility.yul\":14661:14677   */\n      add\n        /* \"#utility.yul\":14710:14713   */\n      dup5\n        /* \"#utility.yul\":14701:14707   */\n      dup5\n        /* \"#utility.yul\":14696:14699   */\n      dup5\n        /* \"#utility.yul\":14692:14708   */\n      add\n        /* \"#utility.yul\":14689:14714   */\n      gt\n        /* \"#utility.yul\":14686:14798   */\n      iszero\n      tag_481\n      jumpi\n        /* \"#utility.yul\":14717:14796   */\n      tag_482\n      tag_289\n      jump\t// in\n    tag_482:\n        /* \"#utility.yul\":14686:14798   */\n    tag_481:\n        /* \"#utility.yul\":14807:14861   */\n      tag_483\n        /* \"#utility.yul\":14854:14860   */\n      dup5\n        /* \"#utility.yul\":14849:14852   */\n      dup3\n        /* \"#utility.yul\":14844:14847   */\n      dup6\n        /* \"#utility.yul\":14807:14861   */\n      tag_293\n      jump\t// in\n    tag_483:\n        /* \"#utility.yul\":14526:14867   */\n      pop\n        /* \"#utility.yul\":14442:14867   */\n      swap4\n      swap3\n      pop\n      pop\n      pop\n      jump\t// out\n        /* \"#utility.yul\":14887:15227   */\n    tag_295:\n        /* \"#utility.yul\":14943:14948   */\n      0x00\n        /* \"#utility.yul\":14992:14995   */\n      dup3\n        /* \"#utility.yul\":14985:14989   */\n      0x1f\n        /* \"#utility.yul\":14977:14983   */\n      dup4\n        /* \"#utility.yul\":14973:14990   */\n      add\n        /* \"#utility.yul\":14969:14996   */\n      slt\n        /* \"#utility.yul\":14959:15081   */\n      tag_485\n      jumpi\n        /* \"#utility.yul\":15000:15079   */\n      tag_486\n      tag_288\n      jump\t// in\n    tag_486:\n        /* \"#utility.yul\":14959:15081   */\n    tag_485:\n        /* \"#utility.yul\":15117:15123   */\n      dup2\n        /* \"#utility.yul\":15104:15124   */\n      calldataload\n        /* \"#utility.yul\":15142:15221   */\n      tag_487\n        /* \"#utility.yul\":15217:15220   */\n      dup5\n        /* \"#utility.yul\":15209:15215   */\n      dup3\n        /* \"#utility.yul\":15202:15206   */\n      0x20\n        /* \"#utility.yul\":15194:15200   */\n      dup7\n        /* \"#utility.yul\":15190:15207   */\n      add\n        /* \"#utility.yul\":15142:15221   */\n      tag_294\n      jump\t// in\n    tag_487:\n        /* \"#utility.yul\":15133:15221   */\n      swap2\n      pop\n        /* \"#utility.yul\":14949:15227   */\n      pop\n        /* \"#utility.yul\":14887:15227   */\n      swap3\n      swap2\n      pop\n      pop\n      jump\t// out\n        /* \"#utility.yul\":15233:16830   */\n    tag_68:\n        /* \"#utility.yul\":15367:15373   */\n      0x00\n        /* \"#utility.yul\":15375:15381   */\n      0x00\n        /* \"#utility.yul\":15383:15389   */\n      0x00\n        /* \"#utility.yul\":15391:15397   */\n      0x00\n        /* \"#utility.yul\":15399:15405   */\n      0x00\n        /* \"#utility.yul\":15407:15413   */\n      0x00\n        /* \"#utility.yul\":15456:15459   */\n      0xc0\n        /* \"#utility.yul\":15444:15453   */\n      dup8\n        /* \"#utility.yul\":15435:15442   */\n      dup10\n        /* \"#utility.yul\":15431:15454   */\n      sub\n        /* \"#utility.yul\":15427:15460   */\n      slt\n        /* \"#utility.yul\":15424:15544   */\n      iszero\n      tag_489\n      jumpi\n        /* \"#utility.yul\":15463:15542   */\n      tag_490\n      tag_261\n      jump\t// in\n    tag_490:\n        /* \"#utility.yul\":15424:15544   */\n    tag_489:\n        /* \"#utility.yul\":15611:15612   */\n      0x00\n        /* \"#utility.yul\":15600:15609   */\n      dup8\n        /* \"#utility.yul\":15596:15613   */\n      add\n        /* \"#utility.yul\":15583:15614   */\n      calldataload\n        /* \"#utility.yul\":15641:15659   */\n      0xffffffffffffffff\n        /* \"#utility.yul\":15633:15639   */\n      dup2\n        /* \"#utility.yul\":15630:15660   */\n      gt\n        /* \"#utility.yul\":15627:15744   */\n      iszero\n      tag_491\n      jumpi\n        /* \"#utility.yul\":15663:15742   */\n      tag_492\n      tag_262\n      jump\t// in\n    tag_492:\n        /* \"#utility.yul\":15627:15744   */\n    tag_491:\n        /* \"#utility.yul\":15768:15831   */\n      tag_493\n        /* \"#utility.yul\":15823:15830   */\n      dup10\n        /* \"#utility.yul\":15814:15820   */\n      dup3\n        /* \"#utility.yul\":15803:15812   */\n      dup11\n        /* \"#utility.yul\":15799:15821   */\n      add\n        /* \"#utility.yul\":15768:15831   */\n      tag_295\n      jump\t// in\n    tag_493:\n        /* \"#utility.yul\":15758:15831   */\n      swap7\n      pop\n        /* \"#utility.yul\":15554:15841   */\n      pop\n        /* \"#utility.yul\":15908:15910   */\n      0x20\n        /* \"#utility.yul\":15897:15906   */\n      dup8\n        /* \"#utility.yul\":15893:15911   */\n      add\n        /* \"#utility.yul\":15880:15912   */\n      calldataload\n        /* \"#utility.yul\":15939:15957   */\n      0xffffffffffffffff\n        /* \"#utility.yul\":15931:15937   */\n      dup2\n        /* \"#utility.yul\":15928:15958   */\n      gt\n        /* \"#utility.yul\":15925:16042   */\n      iszero\n      tag_494\n      jumpi\n        /* \"#utility.yul\":15961:16040   */\n      tag_495\n      tag_262\n      jump\t// in\n    tag_495:\n        /* \"#utility.yul\":15925:16042   */\n    tag_494:\n        /* \"#utility.yul\":16066:16129   */\n      tag_496\n        /* \"#utility.yul\":16121:16128   */\n      dup10\n        /* \"#utility.yul\":16112:16118   */\n      dup3\n        /* \"#utility.yul\":16101:16110   */\n      dup11\n        /* \"#utility.yul\":16097:16119   */\n      add\n        /* \"#utility.yul\":16066:16129   */\n      tag_295\n      jump\t// in\n    tag_496:\n        /* \"#utility.yul\":16056:16129   */\n      swap6\n      pop\n        /* \"#utility.yul\":15851:16139   */\n      pop\n        /* \"#utility.yul\":16206:16208   */\n      0x40\n        /* \"#utility.yul\":16195:16204   */\n      dup8\n        /* \"#utility.yul\":16191:16209   */\n      add\n        /* \"#utility.yul\":16178:16210   */\n      calldataload\n        /* \"#utility.yul\":16237:16255   */\n      0xffffffffffffffff\n        /* \"#utility.yul\":16229:16235   */\n      dup2\n        /* \"#utility.yul\":16226:16256   */\n      gt\n        /* \"#utility.yul\":16223:16340   */\n      iszero\n      tag_497\n      jumpi\n        /* \"#utility.yul\":16259:16338   */\n      tag_498\n      tag_262\n      jump\t// in\n    tag_498:\n        /* \"#utility.yul\":16223:16340   */\n    tag_497:\n        /* \"#utility.yul\":16364:16427   */\n      tag_499\n        /* \"#utility.yul\":16419:16426   */\n      dup10\n        /* \"#utility.yul\":16410:16416   */\n      dup3\n        /* \"#utility.yul\":16399:16408   */\n      dup11\n        /* \"#utility.yul\":16395:16417   */\n      add\n        /* \"#utility.yul\":16364:16427   */\n      tag_295\n      jump\t// in\n    tag_499:\n        /* \"#utility.yul\":16354:16427   */\n      swap5\n      pop\n        /* \"#utility.yul\":16149:16437   */\n      pop\n        /* \"#utility.yul\":16476:16478   */\n      0x60\n        /* \"#utility.yul\":16502:16555   */\n      tag_500\n        /* \"#utility.yul\":16547:16554   */\n      dup10\n        /* \"#utility.yul\":16538:16544   */\n      dup3\n        /* \"#utility.yul\":16527:16536   */\n      dup11\n        /* \"#utility.yul\":16523:16545   */\n      add\n        /* \"#utility.yul\":16502:16555   */\n      tag_265\n      jump\t// in\n    tag_500:\n        /* \"#utility.yul\":16492:16555   */\n      swap4\n      pop\n        /* \"#utility.yul\":16447:16565   */\n      pop\n        /* \"#utility.yul\":16604:16607   */\n      0x80\n        /* \"#utility.yul\":16631:16684   */\n      tag_501\n        /* \"#utility.yul\":16676:16683   */\n      dup10\n        /* \"#utility.yul\":16667:16673   */\n      dup3\n        /* \"#utility.yul\":16656:16665   */\n      dup11\n        /* \"#utility.yul\":16652:16674   */\n      add\n        /* \"#utility.yul\":16631:16684   */\n      tag_265\n      jump\t// in\n    tag_501:\n        /* \"#utility.yul\":16621:16684   */\n      swap3\n      pop\n        /* \"#utility.yul\":16575:16694   */\n      pop\n        /* \"#utility.yul\":16733:16736   */\n      0xa0\n        /* \"#utility.yul\":16760:16813   */\n      tag_502\n        /* \"#utility.yul\":16805:16812   */\n      dup10\n        /* \"#utility.yul\":16796:16802   */\n      dup3\n        /* \"#utility.yul\":16785:16794   */\n      dup11\n        /* \"#utility.yul\":16781:16803   */\n      add\n        /* \"#utility.yul\":16760:16813   */\n      tag_265\n      jump\t// in\n    tag_502:\n        /* \"#utility.yul\":16750:16813   */\n      swap2\n      pop\n        /* \"#utility.yul\":16704:16823   */\n      pop\n        /* \"#utility.yul\":15233:16830   */\n      swap3\n      swap6\n      pop\n      swap3\n      swap6\n      pop\n      swap3\n      swap6\n      jump\t// out\n        /* \"#utility.yul\":16836:16896   */\n    tag_296:\n        /* \"#utility.yul\":16864:16867   */\n      0x00\n        /* \"#utility.yul\":16885:16890   */\n      dup2\n        /* \"#utility.yul\":16878:16890   */\n      swap1\n      pop\n        /* \"#utility.yul\":16836:16896   */\n      swap2\n      swap1\n      pop\n      jump\t// out\n        /* \"#utility.yul\":16902:17044   */\n    tag_297:\n        /* \"#utility.yul\":16952:16961   */\n      0x00\n        /* \"#utility.yul\":16985:17038   */\n      tag_505\n        /* \"#utility.yul\":17003:17037   */\n      tag_506\n        /* \"#utility.yul\":17012:17036   */\n      tag_507\n        /* \"#utility.yul\":17030:17035   */\n      dup5\n        /* \"#utility.yul\":17012:17036   */\n      tag_257\n      jump\t// in\n    tag_507:\n        /* \"#utility.yul\":17003:17037   */\n      tag_296\n      jump\t// in\n    tag_506:\n        /* \"#utility.yul\":16985:17038   */\n      tag_257\n      jump\t// in\n    tag_505:\n        /* \"#utility.yul\":16972:17038   */\n      swap1\n      pop\n        /* \"#utility.yul\":16902:17044   */\n      swap2\n      swap1\n      pop\n      jump\t// out\n        /* \"#utility.yul\":17050:17176   */\n    tag_298:\n        /* \"#utility.yul\":17100:17109   */\n      0x00\n        /* \"#utility.yul\":17133:17170   */\n      tag_509\n        /* \"#utility.yul\":17164:17169   */\n      dup3\n        /* \"#utility.yul\":17133:17170   */\n      tag_297\n      jump\t// in\n    tag_509:\n        /* \"#utility.yul\":17120:17170   */\n      swap1\n      pop\n        /* \"#utility.yul\":17050:17176   */\n      swap2\n      swap1\n      pop\n      jump\t// out\n        /* \"#utility.yul\":17182:17330   */\n    tag_299:\n        /* \"#utility.yul\":17254:17263   */\n      0x00\n        /* \"#utility.yul\":17287:17324   */\n      tag_511\n        /* \"#utility.yul\":17318:17323   */\n      dup3\n        /* \"#utility.yul\":17287:17324   */\n      tag_298\n      jump\t// in\n    tag_511:\n        /* \"#utility.yul\":17274:17324   */\n      swap1\n      pop\n        /* \"#utility.yul\":17182:17330   */\n      swap2\n      swap1\n      pop\n      jump\t// out\n        /* \"#utility.yul\":17336:17511   */\n    tag_300:\n        /* \"#utility.yul\":17445:17504   */\n      tag_513\n        /* \"#utility.yul\":17498:17503   */\n      dup2\n        /* \"#utility.yul\":17445:17504   */\n      tag_299\n      jump\t// in\n    tag_513:\n        /* \"#utility.yul\":17440:17443   */\n      dup3\n        /* \"#utility.yul\":17433:17505   */\n      mstore\n        /* \"#utility.yul\":17336:17511   */\n      pop\n      pop\n      jump\t// out\n        /* \"#utility.yul\":17517:17783   */\n    tag_74:\n        /* \"#utility.yul\":17632:17636   */\n      0x00\n        /* \"#utility.yul\":17670:17672   */\n      0x20\n        /* \"#utility.yul\":17659:17668   */\n      dup3\n        /* \"#utility.yul\":17655:17673   */\n      add\n        /* \"#utility.yul\":17647:17673   */\n      swap1\n      pop\n        /* \"#utility.yul\":17683:17776   */\n      tag_515\n        /* \"#utility.yul\":17773:17774   */\n      0x00\n        /* \"#utility.yul\":17762:17771   */\n      dup4\n        /* \"#utility.yul\":17758:17775   */\n      add\n        /* \"#utility.yul\":17749:17755   */\n      dup5\n        /* \"#utility.yul\":17683:17776   */\n      tag_300\n      jump\t// in\n    tag_515:\n        /* \"#utility.yul\":17517:17783   */\n      swap3\n      swap2\n      pop\n      pop\n      jump\t// out\n        /* \"#utility.yul\":17789:17911   */\n    tag_301:\n        /* \"#utility.yul\":17862:17886   */\n      tag_517\n        /* \"#utility.yul\":17880:17885   */\n      dup2\n        /* \"#utility.yul\":17862:17886   */\n      tag_286\n      jump\t// in\n    tag_517:\n        /* \"#utility.yul\":17855:17860   */\n      dup2\n        /* \"#utility.yul\":17852:17887   */\n      eq\n        /* \"#utility.yul\":17842:17905   */\n      tag_518\n      jumpi\n        /* \"#utility.yul\":17901:17902   */\n      0x00\n        /* \"#utility.yul\":17898:17899   */\n      0x00\n        /* \"#utility.yul\":17891:17903   */\n      revert\n        /* \"#utility.yul\":17842:17905   */\n    tag_518:\n        /* \"#utility.yul\":17789:17911   */\n      pop\n      jump\t// out\n        /* \"#utility.yul\":17917:18056   */\n    tag_302:\n        /* \"#utility.yul\":17963:17968   */\n      0x00\n        /* \"#utility.yul\":18001:18007   */\n      dup2\n        /* \"#utility.yul\":17988:18008   */\n      calldataload\n        /* \"#utility.yul\":17979:18008   */\n      swap1\n      pop\n        /* \"#utility.yul\":18017:18050   */\n      tag_520\n        /* \"#utility.yul\":18044:18049   */\n      dup2\n        /* \"#utility.yul\":18017:18050   */\n      tag_301\n      jump\t// in\n    tag_520:\n        /* \"#utility.yul\":17917:18056   */\n      swap3\n      swap2\n      pop\n      pop\n      jump\t// out\n        /* \"#utility.yul\":18062:18536   */\n    tag_90:\n        /* \"#utility.yul\":18130:18136   */\n      0x00\n        /* \"#utility.yul\":18138:18144   */\n      0x00\n        /* \"#utility.yul\":18187:18189   */\n      0x40\n        /* \"#utility.yul\":18175:18184   */\n      dup4\n        /* \"#utility.yul\":18166:18173   */\n      dup6\n        /* \"#utility.yul\":18162:18185   */\n      sub\n        /* \"#utility.yul\":18158:18190   */\n      slt\n        /* \"#utility.yul\":18155:18274   */\n      iszero\n      tag_522\n      jumpi\n        /* \"#utility.yul\":18193:18272   */\n      tag_523\n      tag_261\n      jump\t// in\n    tag_523:\n        /* \"#utility.yul\":18155:18274   */\n    tag_522:\n        /* \"#utility.yul\":18313:18314   */\n      0x00\n        /* \"#utility.yul\":18338:18391   */\n      tag_524\n        /* \"#utility.yul\":18383:18390   */\n      dup6\n        /* \"#utility.yul\":18374:18380   */\n      dup3\n        /* \"#utility.yul\":18363:18372   */\n      dup7\n        /* \"#utility.yul\":18359:18381   */\n      add\n        /* \"#utility.yul\":18338:18391   */\n      tag_265\n      jump\t// in\n    tag_524:\n        /* \"#utility.yul\":18328:18391   */\n      swap3\n      pop\n        /* \"#utility.yul\":18284:18401   */\n      pop\n        /* \"#utility.yul\":18440:18442   */\n      0x20\n        /* \"#utility.yul\":18466:18519   */\n      tag_525\n        /* \"#utility.yul\":18511:18518   */\n      dup6\n        /* \"#utility.yul\":18502:18508   */\n      dup3\n        /* \"#utility.yul\":18491:18500   */\n      dup7\n        /* \"#utility.yul\":18487:18509   */\n      add\n        /* \"#utility.yul\":18466:18519   */\n      tag_302\n      jump\t// in\n    tag_525:\n        /* \"#utility.yul\":18456:18519   */\n      swap2\n      pop\n        /* \"#utility.yul\":18411:18529   */\n      pop\n        /* \"#utility.yul\":18062:18536   */\n      swap3\n      pop\n      swap3\n      swap1\n      pop\n      jump\t// out\n        /* \"#utility.yul\":18542:18752   */\n    tag_93:\n        /* \"#utility.yul\":18629:18633   */\n      0x00\n        /* \"#utility.yul\":18667:18669   */\n      0x20\n        /* \"#utility.yul\":18656:18665   */\n      dup3\n        /* \"#utility.yul\":18652:18670   */\n      add\n        /* \"#utility.yul\":18644:18670   */\n      swap1\n      pop\n        /* \"#utility.yul\":18680:18745   */\n      tag_527\n        /* \"#utility.yul\":18742:18743   */\n      0x00\n        /* \"#utility.yul\":18731:18740   */\n      dup4\n        /* \"#utility.yul\":18727:18744   */\n      add\n        /* \"#utility.yul\":18718:18724   */\n      dup5\n        /* \"#utility.yul\":18680:18745   */\n      tag_278\n      jump\t// in\n    tag_527:\n        /* \"#utility.yul\":18542:18752   */\n      swap3\n      swap2\n      pop\n      pop\n      jump\t// out\n        /* \"#utility.yul\":18758:18922   */\n    tag_303:\n        /* \"#utility.yul\":18898:18914   */\n      0x426f6f6b206e6f7420666f756e64000000000000000000000000000000000000\n        /* \"#utility.yul\":18894:18895   */\n      0x00\n        /* \"#utility.yul\":18886:18892   */\n      dup3\n        /* \"#utility.yul\":18882:18896   */\n      add\n        /* \"#utility.yul\":18875:18915   */\n      mstore\n        /* \"#utility.yul\":18758:18922   */\n      pop\n      jump\t// out\n        /* \"#utility.yul\":18928:19294   */\n    tag_304:\n        /* \"#utility.yul\":19070:19073   */\n      0x00\n        /* \"#utility.yul\":19091:19158   */\n      tag_530\n        /* \"#utility.yul\":19155:19157   */\n      0x0e\n        /* \"#utility.yul\":19150:19153   */\n      dup4\n        /* \"#utility.yul\":19091:19158   */\n      tag_276\n      jump\t// in\n    tag_530:\n        /* \"#utility.yul\":19084:19158   */\n      swap2\n      pop\n        /* \"#utility.yul\":19167:19260   */\n      tag_531\n        /* \"#utility.yul\":19256:19259   */\n      dup3\n        /* \"#utility.yul\":19167:19260   */\n      tag_303\n      jump\t// in\n    tag_531:\n        /* \"#utility.yul\":19285:19287   */\n      0x20\n        /* \"#utility.yul\":19280:19283   */\n      dup3\n        /* \"#utility.yul\":19276:19288   */\n      add\n        /* \"#utility.yul\":19269:19288   */\n      swap1\n      pop\n        /* \"#utility.yul\":18928:19294   */\n      swap2\n      swap1\n      pop\n      jump\t// out\n        /* \"#utility.yul\":19300:19719   */\n    tag_100:\n        /* \"#utility.yul\":19466:19470   */\n      0x00\n        /* \"#utility.yul\":19504:19506   */\n      0x20\n        /* \"#utility.yul\":19493:19502   */\n      dup3\n        /* \"#utility.yul\":19489:19507   */\n      add\n        /* \"#utility.yul\":19481:19507   */\n      swap1\n      pop\n        /* \"#utility.yul\":19553:19562   */\n      dup2\n        /* \"#utility.yul\":19547:19551   */\n      dup2\n        /* \"#utility.yul\":19543:19563   */\n      sub\n        /* \"#utility.yul\":19539:19540   */\n      0x00\n        /* \"#utility.yul\":19528:19537   */\n      dup4\n        /* \"#utility.yul\":19524:19541   */\n      add\n        /* \"#utility.yul\":19517:19564   */\n      mstore\n        /* \"#utility.yul\":19581:19712   */\n      tag_533\n        /* \"#utility.yul\":19707:19711   */\n      dup2\n        /* \"#utility.yul\":19581:19712   */\n      tag_304\n      jump\t// in\n    tag_533:\n        /* \"#utility.yul\":19573:19712   */\n      swap1\n      pop\n        /* \"#utility.yul\":19300:19719   */\n      swap2\n      swap1\n      pop\n      jump\t// out\n        /* \"#utility.yul\":19725:19905   */\n    tag_305:\n        /* \"#utility.yul\":19773:19850   */\n      0x4e487b7100000000000000000000000000000000000000000000000000000000\n        /* \"#utility.yul\":19770:19771   */\n      0x00\n        /* \"#utility.yul\":19763:19851   */\n      mstore\n        /* \"#utility.yul\":19870:19874   */\n      0x22\n        /* \"#utility.yul\":19867:19868   */\n      0x04\n        /* \"#utility.yul\":19860:19875   */\n      mstore\n        /* \"#utility.yul\":19894:19898   */\n      0x24\n        /* \"#utility.yul\":19891:19892   */\n      0x00\n        /* \"#utility.yul\":19884:19899   */\n      revert\n        /* \"#utility.yul\":19911:20231   */\n    tag_102:\n        /* \"#utility.yul\":19955:19961   */\n      0x00\n        /* \"#utility.yul\":19992:19993   */\n      0x02\n        /* \"#utility.yul\":19986:19990   */\n      dup3\n        /* \"#utility.yul\":19982:19994   */\n      div\n        /* \"#utility.yul\":19972:19994   */\n      swap1\n      pop\n        /* \"#utility.yul\":20039:20040   */\n      0x01\n        /* \"#utility.yul\":20033:20037   */\n      dup3\n        /* \"#utility.yul\":20029:20041   */\n      and\n        /* \"#utility.yul\":20060:20078   */\n      dup1\n        /* \"#utility.yul\":20050:20131   */\n      tag_536\n      jumpi\n        /* \"#utility.yul\":20116:20120   */\n      0x7f\n        /* \"#utility.yul\":20108:20114   */\n      dup3\n        /* \"#utility.yul\":20104:20121   */\n      and\n        /* \"#utility.yul\":20094:20121   */\n      swap2\n      pop\n        /* \"#utility.yul\":20050:20131   */\n    tag_536:\n        /* \"#utility.yul\":20178:20180   */\n      0x20\n        /* \"#utility.yul\":20170:20176   */\n      dup3\n        /* \"#utility.yul\":20167:20181   */\n      lt\n        /* \"#utility.yul\":20147:20165   */\n      dup2\n        /* \"#utility.yul\":20144:20182   */\n      sub\n        /* \"#utility.yul\":20141:20225   */\n      tag_537\n      jumpi\n        /* \"#utility.yul\":20197:20215   */\n      tag_538\n      tag_305\n      jump\t// in\n    tag_538:\n        /* \"#utility.yul\":20141:20225   */\n    tag_537:\n        /* \"#utility.yul\":19962:20231   */\n      pop\n        /* \"#utility.yul\":19911:20231   */\n      swap2\n      swap1\n      pop\n      jump\t// out\n        /* \"#utility.yul\":20237:20402   */\n    tag_306:\n        /* \"#utility.yul\":20377:20394   */\n      0x426f6f6b206e6f7420666f756e64210000000000000000000000000000000000\n        /* \"#utility.yul\":20373:20374   */\n      0x00\n        /* \"#utility.yul\":20365:20371   */\n      dup3\n        /* \"#utility.yul\":20361:20375   */\n      add\n        /* \"#utility.yul\":20354:20395   */\n      mstore\n        /* \"#utility.yul\":20237:20402   */\n      pop\n      jump\t// out\n        /* \"#utility.yul\":20408:20774   */\n    tag_307:\n        /* \"#utility.yul\":20550:20553   */\n      0x00\n        /* \"#utility.yul\":20571:20638   */\n      tag_541\n        /* \"#utility.yul\":20635:20637   */\n      0x0f\n        /* \"#utility.yul\":20630:20633   */\n      dup4\n        /* \"#utility.yul\":20571:20638   */\n      tag_276\n      jump\t// in\n    tag_541:\n        /* \"#utility.yul\":20564:20638   */\n      swap2\n      pop\n        /* \"#utility.yul\":20647:20740   */\n      tag_542\n        /* \"#utility.yul\":20736:20739   */\n      dup3\n        /* \"#utility.yul\":20647:20740   */\n      tag_306\n      jump\t// in\n    tag_542:\n        /* \"#utility.yul\":20765:20767   */\n      0x20\n        /* \"#utility.yul\":20760:20763   */\n      dup3\n        /* \"#utility.yul\":20756:20768   */\n      add\n        /* \"#utility.yul\":20749:20768   */\n      swap1\n      pop\n        /* \"#utility.yul\":20408:20774   */\n      swap2\n      swap1\n      pop\n      jump\t// out\n        /* \"#utility.yul\":20780:21199   */\n    tag_137:\n        /* \"#utility.yul\":20946:20950   */\n      0x00\n        /* \"#utility.yul\":20984:20986   */\n      0x20\n        /* \"#utility.yul\":20973:20982   */\n      dup3\n        /* \"#utility.yul\":20969:20987   */\n      add\n        /* \"#utility.yul\":20961:20987   */\n      swap1\n      pop\n        /* \"#utility.yul\":21033:21042   */\n      dup2\n        /* \"#utility.yul\":21027:21031   */\n      dup2\n        /* \"#utility.yul\":21023:21043   */\n      sub\n        /* \"#utility.yul\":21019:21020   */\n      0x00\n        /* \"#utility.yul\":21008:21017   */\n      dup4\n        /* \"#utility.yul\":21004:21021   */\n      add\n        /* \"#utility.yul\":20997:21044   */\n      mstore\n        /* \"#utility.yul\":21061:21192   */\n      tag_544\n        /* \"#utility.yul\":21187:21191   */\n      dup2\n        /* \"#utility.yul\":21061:21192   */\n      tag_307\n      jump\t// in\n    tag_544:\n        /* \"#utility.yul\":21053:21192   */\n      swap1\n      pop\n        /* \"#utility.yul\":20780:21199   */\n      swap2\n      swap1\n      pop\n      jump\t// out\n        /* \"#utility.yul\":21205:21374   */\n    tag_308:\n        /* \"#utility.yul\":21345:21366   */\n      0x426f6f6b206e6f7420617661696c61626c652100000000000000000000000000\n        /* \"#utility.yul\":21341:21342   */\n      0x00\n        /* \"#utility.yul\":21333:21339   */\n      dup3\n        /* \"#utility.yul\":21329:21343   */\n      add\n        /* \"#utility.yul\":21322:21367   */\n      mstore\n        /* \"#utility.yul\":21205:21374   */\n      pop\n      jump\t// out\n        /* \"#utility.yul\":21380:21746   */\n    tag_309:\n        /* \"#utility.yul\":21522:21525   */\n      0x00\n        /* \"#utility.yul\":21543:21610   */\n      tag_547\n        /* \"#utility.yul\":21607:21609   */\n      0x13\n        /* \"#utility.yul\":21602:21605   */\n      dup4\n        /* \"#utility.yul\":21543:21610   */\n      tag_276\n      jump\t// in\n    tag_547:\n        /* \"#utility.yul\":21536:21610   */\n      swap2\n      pop\n        /* \"#utility.yul\":21619:21712   */\n      tag_548\n        /* \"#utility.yul\":21708:21711   */\n      dup3\n        /* \"#utility.yul\":21619:21712   */\n      tag_308\n      jump\t// in\n    tag_548:\n        /* \"#utility.yul\":21737:21739   */\n      0x20\n        /* \"#utility.yul\":21732:21735   */\n      dup3\n        /* \"#utility.yul\":21728:21740   */\n      add\n        /* \"#utility.yul\":21721:21740   */\n      swap1\n      pop\n        /* \"#utility.yul\":21380:21746   */\n      swap2\n      swap1\n      pop\n      jump\t// out\n        /* \"#utility.yul\":21752:22171   */\n    tag_140:\n        /* \"#utility.yul\":21918:21922   */\n      0x00\n        /* \"#utility.yul\":21956:21958   */\n      0x20\n        /* \"#utility.yul\":21945:21954   */\n      dup3\n        /* \"#utility.yul\":21941:21959   */\n      add\n        /* \"#utility.yul\":21933:21959   */\n      swap1\n      pop\n        /* \"#utility.yul\":22005:22014   */\n      dup2\n        /* \"#utility.yul\":21999:22003   */\n      dup2\n        /* \"#utility.yul\":21995:22015   */\n      sub\n        /* \"#utility.yul\":21991:21992   */\n      0x00\n        /* \"#utility.yul\":21980:21989   */\n      dup4\n        /* \"#utility.yul\":21976:21993   */\n      add\n        /* \"#utility.yul\":21969:22016   */\n      mstore\n        /* \"#utility.yul\":22033:22164   */\n      tag_550\n        /* \"#utility.yul\":22159:22163   */\n      dup2\n        /* \"#utility.yul\":22033:22164   */\n      tag_309\n      jump\t// in\n    tag_550:\n        /* \"#utility.yul\":22025:22164   */\n      swap1\n      pop\n        /* \"#utility.yul\":21752:22171   */\n      swap2\n      swap1\n      pop\n      jump\t// out\n        /* \"#utility.yul\":22177:22344   */\n    tag_310:\n        /* \"#utility.yul\":22317:22336   */\n      0x416c726561647920626f72726f77656421000000000000000000000000000000\n        /* \"#utility.yul\":22313:22314   */\n      0x00\n        /* \"#utility.yul\":22305:22311   */\n      dup3\n        /* \"#utility.yul\":22301:22315   */\n      add\n        /* \"#utility.yul\":22294:22337   */\n      mstore\n        /* \"#utility.yul\":22177:22344   */\n      pop\n      jump\t// out\n        /* \"#utility.yul\":22350:22716   */\n    tag_311:\n        /* \"#utility.yul\":22492:22495   */\n      0x00\n        /* \"#utility.yul\":22513:22580   */\n      tag_553\n        /* \"#utility.yul\":22577:22579   */\n      0x11\n        /* \"#utility.yul\":22572:22575   */\n      dup4\n        /* \"#utility.yul\":22513:22580   */\n      tag_276\n      jump\t// in\n    tag_553:\n        /* \"#utility.yul\":22506:22580   */\n      swap2\n      pop\n        /* \"#utility.yul\":22589:22682   */\n      tag_554\n        /* \"#utility.yul\":22678:22681   */\n      dup3\n        /* \"#utility.yul\":22589:22682   */\n      tag_310\n      jump\t// in\n    tag_554:\n        /* \"#utility.yul\":22707:22709   */\n      0x20\n        /* \"#utility.yul\":22702:22705   */\n      dup3\n        /* \"#utility.yul\":22698:22710   */\n      add\n        /* \"#utility.yul\":22691:22710   */\n      swap1\n      pop\n        /* \"#utility.yul\":22350:22716   */\n      swap2\n      swap1\n      pop\n      jump\t// out\n        /* \"#utility.yul\":22722:23141   */\n    tag_143:\n        /* \"#utility.yul\":22888:22892   */\n      0x00\n        /* \"#utility.yul\":22926:22928   */\n      0x20\n        /* \"#utility.yul\":22915:22924   */\n      dup3\n        /* \"#utility.yul\":22911:22929   */\n      add\n        /* \"#utility.yul\":22903:22929   */\n      swap1\n      pop\n        /* \"#utility.yul\":22975:22984   */\n      dup2\n        /* \"#utility.yul\":22969:22973   */\n      dup2\n        /* \"#utility.yul\":22965:22985   */\n      sub\n        /* \"#utility.yul\":22961:22962   */\n      0x00\n        /* \"#utility.yul\":22950:22959   */\n      dup4\n        /* \"#utility.yul\":22946:22963   */\n      add\n        /* \"#utility.yul\":22939:22986   */\n      mstore\n        /* \"#utility.yul\":23003:23134   */\n      tag_556\n        /* \"#utility.yul\":23129:23133   */\n      dup2\n        /* \"#utility.yul\":23003:23134   */\n      tag_311\n      jump\t// in\n    tag_556:\n        /* \"#utility.yul\":22995:23134   */\n      swap1\n      pop\n        /* \"#utility.yul\":22722:23141   */\n      swap2\n      swap1\n      pop\n      jump\t// out\n        /* \"#utility.yul\":23147:23263   */\n    tag_312:\n        /* \"#utility.yul\":23217:23238   */\n      tag_558\n        /* \"#utility.yul\":23232:23237   */\n      dup2\n        /* \"#utility.yul\":23217:23238   */\n      tag_272\n      jump\t// in\n    tag_558:\n        /* \"#utility.yul\":23210:23215   */\n      dup2\n        /* \"#utility.yul\":23207:23239   */\n      eq\n        /* \"#utility.yul\":23197:23257   */\n      tag_559\n      jumpi\n        /* \"#utility.yul\":23253:23254   */\n      0x00\n        /* \"#utility.yul\":23250:23251   */\n      0x00\n        /* \"#utility.yul\":23243:23255   */\n      revert\n        /* \"#utility.yul\":23197:23257   */\n    tag_559:\n        /* \"#utility.yul\":23147:23263   */\n      pop\n      jump\t// out\n        /* \"#utility.yul\":23269:23406   */\n    tag_313:\n        /* \"#utility.yul\":23323:23328   */\n      0x00\n        /* \"#utility.yul\":23354:23360   */\n      dup2\n        /* \"#utility.yul\":23348:23361   */\n      mload\n        /* \"#utility.yul\":23339:23361   */\n      swap1\n      pop\n        /* \"#utility.yul\":23370:23400   */\n      tag_561\n        /* \"#utility.yul\":23394:23399   */\n      dup2\n        /* \"#utility.yul\":23370:23400   */\n      tag_312\n      jump\t// in\n    tag_561:\n        /* \"#utility.yul\":23269:23406   */\n      swap3\n      swap2\n      pop\n      pop\n      jump\t// out\n        /* \"#utility.yul\":23412:23757   */\n    tag_148:\n        /* \"#utility.yul\":23479:23485   */\n      0x00\n        /* \"#utility.yul\":23528:23530   */\n      0x20\n        /* \"#utility.yul\":23516:23525   */\n      dup3\n        /* \"#utility.yul\":23507:23514   */\n      dup5\n        /* \"#utility.yul\":23503:23526   */\n      sub\n        /* \"#utility.yul\":23499:23531   */\n      slt\n        /* \"#utility.yul\":23496:23615   */\n      iszero\n      tag_563\n      jumpi\n        /* \"#utility.yul\":23534:23613   */\n      tag_564\n      tag_261\n      jump\t// in\n    tag_564:\n        /* \"#utility.yul\":23496:23615   */\n    tag_563:\n        /* \"#utility.yul\":23654:23655   */\n      0x00\n        /* \"#utility.yul\":23679:23740   */\n      tag_565\n        /* \"#utility.yul\":23732:23739   */\n      dup5\n        /* \"#utility.yul\":23723:23729   */\n      dup3\n        /* \"#utility.yul\":23712:23721   */\n      dup6\n        /* \"#utility.yul\":23708:23730   */\n      add\n        /* \"#utility.yul\":23679:23740   */\n      tag_313\n      jump\t// in\n    tag_565:\n        /* \"#utility.yul\":23669:23740   */\n      swap2\n      pop\n        /* \"#utility.yul\":23625:23750   */\n      pop\n        /* \"#utility.yul\":23412:23757   */\n      swap3\n      swap2\n      pop\n      pop\n      jump\t// out\n        /* \"#utility.yul\":23763:23932   */\n    tag_314:\n        /* \"#utility.yul\":23903:23924   */\n      0x4e6f7420656e6f756768204554482073656e7400000000000000000000000000\n        /* \"#utility.yul\":23899:23900   */\n      0x00\n        /* \"#utility.yul\":23891:23897   */\n      dup3\n        /* \"#utility.yul\":23887:23901   */\n      add\n        /* \"#utility.yul\":23880:23925   */\n      mstore\n        /* \"#utility.yul\":23763:23932   */\n      pop\n      jump\t// out\n        /* \"#utility.yul\":23938:24304   */\n    tag_315:\n        /* \"#utility.yul\":24080:24083   */\n      0x00\n        /* \"#utility.yul\":24101:24168   */\n      tag_568\n        /* \"#utility.yul\":24165:24167   */\n      0x13\n        /* \"#utility.yul\":24160:24163   */\n      dup4\n        /* \"#utility.yul\":24101:24168   */\n      tag_276\n      jump\t// in\n    tag_568:\n        /* \"#utility.yul\":24094:24168   */\n      swap2\n      pop\n        /* \"#utility.yul\":24177:24270   */\n      tag_569\n        /* \"#utility.yul\":24266:24269   */\n      dup3\n        /* \"#utility.yul\":24177:24270   */\n      tag_314\n      jump\t// in\n    tag_569:\n        /* \"#utility.yul\":24295:24297   */\n      0x20\n        /* \"#utility.yul\":24290:24293   */\n      dup3\n        /* \"#utility.yul\":24286:24298   */\n      add\n        /* \"#utility.yul\":24279:24298   */\n      swap1\n      pop\n        /* \"#utility.yul\":23938:24304   */\n      swap2\n      swap1\n      pop\n      jump\t// out\n        /* \"#utility.yul\":24310:24729   */\n    tag_153:\n        /* \"#utility.yul\":24476:24480   */\n      0x00\n        /* \"#utility.yul\":24514:24516   */\n      0x20\n        /* \"#utility.yul\":24503:24512   */\n      dup3\n        /* \"#utility.yul\":24499:24517   */\n      add\n        /* \"#utility.yul\":24491:24517   */\n      swap1\n      pop\n        /* \"#utility.yul\":24563:24572   */\n      dup2\n        /* \"#utility.yul\":24557:24561   */\n      dup2\n        /* \"#utility.yul\":24553:24573   */\n      sub\n        /* \"#utility.yul\":24549:24550   */\n      0x00\n        /* \"#utility.yul\":24538:24547   */\n      dup4\n        /* \"#utility.yul\":24534:24551   */\n      add\n        /* \"#utility.yul\":24527:24574   */\n      mstore\n        /* \"#utility.yul\":24591:24722   */\n      tag_571\n        /* \"#utility.yul\":24717:24721   */\n      dup2\n        /* \"#utility.yul\":24591:24722   */\n      tag_315\n      jump\t// in\n    tag_571:\n        /* \"#utility.yul\":24583:24722   */\n      swap1\n      pop\n        /* \"#utility.yul\":24310:24729   */\n      swap2\n      swap1\n      pop\n      jump\t// out\n        /* \"#utility.yul\":24735:24915   */\n    tag_316:\n        /* \"#utility.yul\":24783:24860   */\n      0x4e487b7100000000000000000000000000000000000000000000000000000000\n        /* \"#utility.yul\":24780:24781   */\n      0x00\n        /* \"#utility.yul\":24773:24861   */\n      mstore\n        /* \"#utility.yul\":24880:24884   */\n      0x11\n        /* \"#utility.yul\":24877:24878   */\n      0x04\n        /* \"#utility.yul\":24870:24885   */\n      mstore\n        /* \"#utility.yul\":24904:24908   */\n      0x24\n        /* \"#utility.yul\":24901:24902   */\n      0x00\n        /* \"#utility.yul\":24894:24909   */\n      revert\n        /* \"#utility.yul\":24921:25115   */\n    tag_156:\n        /* \"#utility.yul\":24961:24965   */\n      0x00\n        /* \"#utility.yul\":24981:25001   */\n      tag_574\n        /* \"#utility.yul\":24999:25000   */\n      dup3\n        /* \"#utility.yul\":24981:25001   */\n      tag_263\n      jump\t// in\n    tag_574:\n        /* \"#utility.yul\":24976:25001   */\n      swap2\n      pop\n        /* \"#utility.yul\":25015:25035   */\n      tag_575\n        /* \"#utility.yul\":25033:25034   */\n      dup4\n        /* \"#utility.yul\":25015:25035   */\n      tag_263\n      jump\t// in\n    tag_575:\n        /* \"#utility.yul\":25010:25035   */\n      swap3\n      pop\n        /* \"#utility.yul\":25059:25060   */\n      dup3\n        /* \"#utility.yul\":25056:25057   */\n      dup3\n        /* \"#utility.yul\":25052:25061   */\n      sub\n        /* \"#utility.yul\":25044:25061   */\n      swap1\n      pop\n        /* \"#utility.yul\":25083:25084   */\n      dup2\n        /* \"#utility.yul\":25077:25081   */\n      dup2\n        /* \"#utility.yul\":25074:25085   */\n      gt\n        /* \"#utility.yul\":25071:25108   */\n      iszero\n      tag_576\n      jumpi\n        /* \"#utility.yul\":25088:25106   */\n      tag_577\n      tag_316\n      jump\t// in\n    tag_577:\n        /* \"#utility.yul\":25071:25108   */\n    tag_576:\n        /* \"#utility.yul\":24921:25115   */\n      swap3\n      swap2\n      pop\n      pop\n      jump\t// out\n        /* \"#utility.yul\":25121:25268   */\n    tag_317:\n        /* \"#utility.yul\":25222:25233   */\n      0x00\n        /* \"#utility.yul\":25259:25262   */\n      dup2\n        /* \"#utility.yul\":25244:25262   */\n      swap1\n      pop\n        /* \"#utility.yul\":25121:25268   */\n      swap3\n      swap2\n      pop\n      pop\n      jump\t// out\n        /* \"#utility.yul\":25274:25388   */\n    tag_318:\n      pop\n      jump\t// out\n        /* \"#utility.yul\":25394:25792   */\n    tag_319:\n        /* \"#utility.yul\":25553:25556   */\n      0x00\n        /* \"#utility.yul\":25574:25657   */\n      tag_581\n        /* \"#utility.yul\":25655:25656   */\n      0x00\n        /* \"#utility.yul\":25650:25653   */\n      dup4\n        /* \"#utility.yul\":25574:25657   */\n      tag_317\n      jump\t// in\n    tag_581:\n        /* \"#utility.yul\":25567:25657   */\n      swap2\n      pop\n        /* \"#utility.yul\":25666:25759   */\n      tag_582\n        /* \"#utility.yul\":25755:25758   */\n      dup3\n        /* \"#utility.yul\":25666:25759   */\n      tag_318\n      jump\t// in\n    tag_582:\n        /* \"#utility.yul\":25784:25785   */\n      0x00\n        /* \"#utility.yul\":25779:25782   */\n      dup3\n        /* \"#utility.yul\":25775:25786   */\n      add\n        /* \"#utility.yul\":25768:25786   */\n      swap1\n      pop\n        /* \"#utility.yul\":25394:25792   */\n      swap2\n      swap1\n      pop\n      jump\t// out\n        /* \"#utility.yul\":25798:26177   */\n    tag_158:\n        /* \"#utility.yul\":25982:25985   */\n      0x00\n        /* \"#utility.yul\":26004:26151   */\n      tag_584\n        /* \"#utility.yul\":26147:26150   */\n      dup3\n        /* \"#utility.yul\":26004:26151   */\n      tag_319\n      jump\t// in\n    tag_584:\n        /* \"#utility.yul\":25997:26151   */\n      swap2\n      pop\n        /* \"#utility.yul\":26168:26171   */\n      dup2\n        /* \"#utility.yul\":26161:26171   */\n      swap1\n      pop\n        /* \"#utility.yul\":25798:26177   */\n      swap2\n      swap1\n      pop\n      jump\t// out\n        /* \"#utility.yul\":26183:26362   */\n    tag_320:\n        /* \"#utility.yul\":26323:26354   */\n      0x4661696c656420746f2073656e642045544820746f206c696272617279000000\n        /* \"#utility.yul\":26319:26320   */\n      0x00\n        /* \"#utility.yul\":26311:26317   */\n      dup3\n        /* \"#utility.yul\":26307:26321   */\n      add\n        /* \"#utility.yul\":26300:26355   */\n      mstore\n        /* \"#utility.yul\":26183:26362   */\n      pop\n      jump\t// out\n        /* \"#utility.yul\":26368:26734   */\n    tag_321:\n        /* \"#utility.yul\":26510:26513   */\n      0x00\n        /* \"#utility.yul\":26531:26598   */\n      tag_587\n        /* \"#utility.yul\":26595:26597   */\n      0x1d\n        /* \"#utility.yul\":26590:26593   */\n      dup4\n        /* \"#utility.yul\":26531:26598   */\n      tag_276\n      jump\t// in\n    tag_587:\n        /* \"#utility.yul\":26524:26598   */\n      swap2\n      pop\n        /* \"#utility.yul\":26607:26700   */\n      tag_588\n        /* \"#utility.yul\":26696:26699   */\n      dup3\n        /* \"#utility.yul\":26607:26700   */\n      tag_320\n      jump\t// in\n    tag_588:\n        /* \"#utility.yul\":26725:26727   */\n      0x20\n        /* \"#utility.yul\":26720:26723   */\n      dup3\n        /* \"#utility.yul\":26716:26728   */\n      add\n        /* \"#utility.yul\":26709:26728   */\n      swap1\n      pop\n        /* \"#utility.yul\":26368:26734   */\n      swap2\n      swap1\n      pop\n      jump\t// out\n        /* \"#utility.yul\":26740:27159   */\n    tag_164:\n        /* \"#utility.yul\":26906:26910   */\n      0x00\n        /* \"#utility.yul\":26944:26946   */\n      0x20\n        /* \"#utility.yul\":26933:26942   */\n      dup3\n        /* \"#utility.yul\":26929:26947   */\n      add\n        /* \"#utility.yul\":26921:26947   */\n      swap1\n      pop\n        /* \"#utility.yul\":26993:27002   */\n      dup2\n        /* \"#utility.yul\":26987:26991   */\n      dup2\n        /* \"#utility.yul\":26983:27003   */\n      sub\n        /* \"#utility.yul\":26979:26980   */\n      0x00\n        /* \"#utility.yul\":26968:26977   */\n      dup4\n        /* \"#utility.yul\":26964:26981   */\n      add\n        /* \"#utility.yul\":26957:27004   */\n      mstore\n        /* \"#utility.yul\":27021:27152   */\n      tag_590\n        /* \"#utility.yul\":27147:27151   */\n      dup2\n        /* \"#utility.yul\":27021:27152   */\n      tag_321\n      jump\t// in\n    tag_590:\n        /* \"#utility.yul\":27013:27152   */\n      swap1\n      pop\n        /* \"#utility.yul\":26740:27159   */\n      swap2\n      swap1\n      pop\n      jump\t// out\n        /* \"#utility.yul\":27165:27342   */\n    tag_322:\n        /* \"#utility.yul\":27305:27334   */\n      0x4661696c656420746f20726566756e6420657863657373204554480000000000\n        /* \"#utility.yul\":27301:27302   */\n      0x00\n        /* \"#utility.yul\":27293:27299   */\n      dup3\n        /* \"#utility.yul\":27289:27303   */\n      add\n        /* \"#utility.yul\":27282:27335   */\n      mstore\n        /* \"#utility.yul\":27165:27342   */\n      pop\n      jump\t// out\n        /* \"#utility.yul\":27348:27714   */\n    tag_323:\n        /* \"#utility.yul\":27490:27493   */\n      0x00\n        /* \"#utility.yul\":27511:27578   */\n      tag_593\n        /* \"#utility.yul\":27575:27577   */\n      0x1b\n        /* \"#utility.yul\":27570:27573   */\n      dup4\n        /* \"#utility.yul\":27511:27578   */\n      tag_276\n      jump\t// in\n    tag_593:\n        /* \"#utility.yul\":27504:27578   */\n      swap2\n      pop\n        /* \"#utility.yul\":27587:27680   */\n      tag_594\n        /* \"#utility.yul\":27676:27679   */\n      dup3\n        /* \"#utility.yul\":27587:27680   */\n      tag_322\n      jump\t// in\n    tag_594:\n        /* \"#utility.yul\":27705:27707   */\n      0x20\n        /* \"#utility.yul\":27700:27703   */\n      dup3\n        /* \"#utility.yul\":27696:27708   */\n      add\n        /* \"#utility.yul\":27689:27708   */\n      swap1\n      pop\n        /* \"#utility.yul\":27348:27714   */\n      swap2\n      swap1\n      pop\n      jump\t// out\n        /* \"#utility.yul\":27720:28139   */\n    tag_173:\n        /* \"#utility.yul\":27886:27890   */\n      0x00\n        /* \"#utility.yul\":27924:27926   */\n      0x20\n        /* \"#utility.yul\":27913:27922   */\n      dup3\n        /* \"#utility.yul\":27909:27927   */\n      add\n        /* \"#utility.yul\":27901:27927   */\n      swap1\n      pop\n        /* \"#utility.yul\":27973:27982   */\n      dup2\n        /* \"#utility.yul\":27967:27971   */\n      dup2\n        /* \"#utility.yul\":27963:27983   */\n      sub\n        /* \"#utility.yul\":27959:27960   */\n      0x00\n        /* \"#utility.yul\":27948:27957   */\n      dup4\n        /* \"#utility.yul\":27944:27961   */\n      add\n        /* \"#utility.yul\":27937:27984   */\n      mstore\n        /* \"#utility.yul\":28001:28132   */\n      tag_596\n        /* \"#utility.yul\":28127:28131   */\n      dup2\n        /* \"#utility.yul\":28001:28132   */\n      tag_323\n      jump\t// in\n    tag_596:\n        /* \"#utility.yul\":27993:28132   */\n      swap1\n      pop\n        /* \"#utility.yul\":27720:28139   */\n      swap2\n      swap1\n      pop\n      jump\t// out\n        /* \"#utility.yul\":28145:28325   */\n    tag_186:\n        /* \"#utility.yul\":28193:28270   */\n      0x4e487b7100000000000000000000000000000000000000000000000000000000\n        /* \"#utility.yul\":28190:28191   */\n      0x00\n        /* \"#utility.yul\":28183:28271   */\n      mstore\n        /* \"#utility.yul\":28290:28294   */\n      0x32\n        /* \"#utility.yul\":28287:28288   */\n      0x04\n        /* \"#utility.yul\":28280:28295   */\n      mstore\n        /* \"#utility.yul\":28314:28318   */\n      0x24\n        /* \"#utility.yul\":28311:28312   */\n      0x00\n        /* \"#utility.yul\":28304:28319   */\n      revert\n        /* \"#utility.yul\":28331:28498   */\n    tag_324:\n        /* \"#utility.yul\":28471:28490   */\n      0x4e6f74206c6962726172792061646d696e000000000000000000000000000000\n        /* \"#utility.yul\":28467:28468   */\n      0x00\n        /* \"#utility.yul\":28459:28465   */\n      dup3\n        /* \"#utility.yul\":28455:28469   */\n      add\n        /* \"#utility.yul\":28448:28491   */\n      mstore\n        /* \"#utility.yul\":28331:28498   */\n      pop\n      jump\t// out\n        /* \"#utility.yul\":28504:28870   */\n    tag_325:\n        /* \"#utility.yul\":28646:28649   */\n      0x00\n        /* \"#utility.yul\":28667:28734   */\n      tag_600\n        /* \"#utility.yul\":28731:28733   */\n      0x11\n        /* \"#utility.yul\":28726:28729   */\n      dup4\n        /* \"#utility.yul\":28667:28734   */\n      tag_276\n      jump\t// in\n    tag_600:\n        /* \"#utility.yul\":28660:28734   */\n      swap2\n      pop\n        /* \"#utility.yul\":28743:28836   */\n      tag_601\n        /* \"#utility.yul\":28832:28835   */\n      dup3\n        /* \"#utility.yul\":28743:28836   */\n      tag_324\n      jump\t// in\n    tag_601:\n        /* \"#utility.yul\":28861:28863   */\n      0x20\n        /* \"#utility.yul\":28856:28859   */\n      dup3\n        /* \"#utility.yul\":28852:28864   */\n      add\n        /* \"#utility.yul\":28845:28864   */\n      swap1\n      pop\n        /* \"#utility.yul\":28504:28870   */\n      swap2\n      swap1\n      pop\n      jump\t// out\n        /* \"#utility.yul\":28876:29295   */\n    tag_210:\n        /* \"#utility.yul\":29042:29046   */\n      0x00\n        /* \"#utility.yul\":29080:29082   */\n      0x20\n        /* \"#utility.yul\":29069:29078   */\n      dup3\n        /* \"#utility.yul\":29065:29083   */\n      add\n        /* \"#utility.yul\":29057:29083   */\n      swap1\n      pop\n        /* \"#utility.yul\":29129:29138   */\n      dup2\n        /* \"#utility.yul\":29123:29127   */\n      dup2\n        /* \"#utility.yul\":29119:29139   */\n      sub\n        /* \"#utility.yul\":29115:29116   */\n      0x00\n        /* \"#utility.yul\":29104:29113   */\n      dup4\n        /* \"#utility.yul\":29100:29117   */\n      add\n        /* \"#utility.yul\":29093:29140   */\n      mstore\n        /* \"#utility.yul\":29157:29288   */\n      tag_603\n        /* \"#utility.yul\":29283:29287   */\n      dup2\n        /* \"#utility.yul\":29157:29288   */\n      tag_325\n      jump\t// in\n    tag_603:\n        /* \"#utility.yul\":29149:29288   */\n      swap1\n      pop\n        /* \"#utility.yul\":28876:29295   */\n      swap2\n      swap1\n      pop\n      jump\t// out\n        /* \"#utility.yul\":29301:29473   */\n    tag_326:\n        /* \"#utility.yul\":29441:29465   */\n      0x5469746c652063616e6e6f7420626520656d7074792100000000000000000000\n        /* \"#utility.yul\":29437:29438   */\n      0x00\n        /* \"#utility.yul\":29429:29435   */\n      dup3\n        /* \"#utility.yul\":29425:29439   */\n      add\n        /* \"#utility.yul\":29418:29466   */\n      mstore\n        /* \"#utility.yul\":29301:29473   */\n      pop\n      jump\t// out\n        /* \"#utility.yul\":29479:29845   */\n    tag_327:\n        /* \"#utility.yul\":29621:29624   */\n      0x00\n        /* \"#utility.yul\":29642:29709   */\n      tag_606\n        /* \"#utility.yul\":29706:29708   */\n      0x16\n        /* \"#utility.yul\":29701:29704   */\n      dup4\n        /* \"#utility.yul\":29642:29709   */\n      tag_276\n      jump\t// in\n    tag_606:\n        /* \"#utility.yul\":29635:29709   */\n      swap2\n      pop\n        /* \"#utility.yul\":29718:29811   */\n      tag_607\n        /* \"#utility.yul\":29807:29810   */\n      dup3\n        /* \"#utility.yul\":29718:29811   */\n      tag_326\n      jump\t// in\n    tag_607:\n        /* \"#utility.yul\":29836:29838   */\n      0x20\n        /* \"#utility.yul\":29831:29834   */\n      dup3\n        /* \"#utility.yul\":29827:29839   */\n      add\n        /* \"#utility.yul\":29820:29839   */\n      swap1\n      pop\n        /* \"#utility.yul\":29479:29845   */\n      swap2\n      swap1\n      pop\n      jump\t// out\n        /* \"#utility.yul\":29851:30270   */\n    tag_214:\n        /* \"#utility.yul\":30017:30021   */\n      0x00\n        /* \"#utility.yul\":30055:30057   */\n      0x20\n        /* \"#utility.yul\":30044:30053   */\n      dup3\n        /* \"#utility.yul\":30040:30058   */\n      add\n        /* \"#utility.yul\":30032:30058   */\n      swap1\n      pop\n        /* \"#utility.yul\":30104:30113   */\n      dup2\n        /* \"#utility.yul\":30098:30102   */\n      dup2\n        /* \"#utility.yul\":30094:30114   */\n      sub\n        /* \"#utility.yul\":30090:30091   */\n      0x00\n        /* \"#utility.yul\":30079:30088   */\n      dup4\n        /* \"#utility.yul\":30075:30092   */\n      add\n        /* \"#utility.yul\":30068:30115   */\n      mstore\n        /* \"#utility.yul\":30132:30263   */\n      tag_609\n        /* \"#utility.yul\":30258:30262   */\n      dup2\n        /* \"#utility.yul\":30132:30263   */\n      tag_327\n      jump\t// in\n    tag_609:\n        /* \"#utility.yul\":30124:30263   */\n      swap1\n      pop\n        /* \"#utility.yul\":29851:30270   */\n      swap2\n      swap1\n      pop\n      jump\t// out\n        /* \"#utility.yul\":30276:30449   */\n    tag_328:\n        /* \"#utility.yul\":30416:30441   */\n      0x417574686f722063616e6e6f7420626520656d70747921000000000000000000\n        /* \"#utility.yul\":30412:30413   */\n      0x00\n        /* \"#utility.yul\":30404:30410   */\n      dup3\n        /* \"#utility.yul\":30400:30414   */\n      add\n        /* \"#utility.yul\":30393:30442   */\n      mstore\n        /* \"#utility.yul\":30276:30449   */\n      pop\n      jump\t// out\n        /* \"#utility.yul\":30455:30821   */\n    tag_329:\n        /* \"#utility.yul\":30597:30600   */\n      0x00\n        /* \"#utility.yul\":30618:30685   */\n      tag_612\n        /* \"#utility.yul\":30682:30684   */\n      0x17\n        /* \"#utility.yul\":30677:30680   */\n      dup4\n        /* \"#utility.yul\":30618:30685   */\n      tag_276\n      jump\t// in\n    tag_612:\n        /* \"#utility.yul\":30611:30685   */\n      swap2\n      pop\n        /* \"#utility.yul\":30694:30787   */\n      tag_613\n        /* \"#utility.yul\":30783:30786   */\n      dup3\n        /* \"#utility.yul\":30694:30787   */\n      tag_328\n      jump\t// in\n    tag_613:\n        /* \"#utility.yul\":30812:30814   */\n      0x20\n        /* \"#utility.yul\":30807:30810   */\n      dup3\n        /* \"#utility.yul\":30803:30815   */\n      add\n        /* \"#utility.yul\":30796:30815   */\n      swap1\n      pop\n        /* \"#utility.yul\":30455:30821   */\n      swap2\n      swap1\n      pop\n      jump\t// out\n        /* \"#utility.yul\":30827:31246   */\n    tag_217:\n        /* \"#utility.yul\":30993:30997   */\n      0x00\n        /* \"#utility.yul\":31031:31033   */\n      0x20\n        /* \"#utility.yul\":31020:31029   */\n      dup3\n        /* \"#utility.yul\":31016:31034   */\n      add\n        /* \"#utility.yul\":31008:31034   */\n      swap1\n      pop\n        /* \"#utility.yul\":31080:31089   */\n      dup2\n        /* \"#utility.yul\":31074:31078   */\n      dup2\n        /* \"#utility.yul\":31070:31090   */\n      sub\n        /* \"#utility.yul\":31066:31067   */\n      0x00\n        /* \"#utility.yul\":31055:31064   */\n      dup4\n        /* \"#utility.yul\":31051:31068   */\n      add\n        /* \"#utility.yul\":31044:31091   */\n      mstore\n        /* \"#utility.yul\":31108:31239   */\n      tag_615\n        /* \"#utility.yul\":31234:31238   */\n      dup2\n        /* \"#utility.yul\":31108:31239   */\n      tag_329\n      jump\t// in\n    tag_615:\n        /* \"#utility.yul\":31100:31239   */\n      swap1\n      pop\n        /* \"#utility.yul\":30827:31246   */\n      swap2\n      swap1\n      pop\n      jump\t// out\n        /* \"#utility.yul\":31252:31424   */\n    tag_330:\n        /* \"#utility.yul\":31392:31416   */\n      0x47656e72652063616e6e6f7420626520656d7074792100000000000000000000\n        /* \"#utility.yul\":31388:31389   */\n      0x00\n        /* \"#utility.yul\":31380:31386   */\n      dup3\n        /* \"#utility.yul\":31376:31390   */\n      add\n        /* \"#utility.yul\":31369:31417   */\n      mstore\n        /* \"#utility.yul\":31252:31424   */\n      pop\n      jump\t// out\n        /* \"#utility.yul\":31430:31796   */\n    tag_331:\n        /* \"#utility.yul\":31572:31575   */\n      0x00\n        /* \"#utility.yul\":31593:31660   */\n      tag_618\n        /* \"#utility.yul\":31657:31659   */\n      0x16\n        /* \"#utility.yul\":31652:31655   */\n      dup4\n        /* \"#utility.yul\":31593:31660   */\n      tag_276\n      jump\t// in\n    tag_618:\n        /* \"#utility.yul\":31586:31660   */\n      swap2\n      pop\n        /* \"#utility.yul\":31669:31762   */\n      tag_619\n        /* \"#utility.yul\":31758:31761   */\n      dup3\n        /* \"#utility.yul\":31669:31762   */\n      tag_330\n      jump\t// in\n    tag_619:\n        /* \"#utility.yul\":31787:31789   */\n      0x20\n        /* \"#utility.yul\":31782:31785   */\n      dup3\n        /* \"#utility.yul\":31778:31790   */\n      add\n        /* \"#utility.yul\":31771:31790   */\n      swap1\n      pop\n        /* \"#utility.yul\":31430:31796   */\n      swap2\n      swap1\n      pop\n      jump\t// out\n        /* \"#utility.yul\":31802:32221   */\n    tag_220:\n        /* \"#utility.yul\":31968:31972   */\n      0x00\n        /* \"#utility.yul\":32006:32008   */\n      0x20\n        /* \"#utility.yul\":31995:32004   */\n      dup3\n        /* \"#utility.yul\":31991:32009   */\n      add\n        /* \"#utility.yul\":31983:32009   */\n      swap1\n      pop\n        /* \"#utility.yul\":32055:32064   */\n      dup2\n        /* \"#utility.yul\":32049:32053   */\n      dup2\n        /* \"#utility.yul\":32045:32065   */\n      sub\n        /* \"#utility.yul\":32041:32042   */\n      0x00\n        /* \"#utility.yul\":32030:32039   */\n      dup4\n        /* \"#utility.yul\":32026:32043   */\n      add\n        /* \"#utility.yul\":32019:32066   */\n      mstore\n        /* \"#utility.yul\":32083:32214   */\n      tag_621\n        /* \"#utility.yul\":32209:32213   */\n      dup2\n        /* \"#utility.yul\":32083:32214   */\n      tag_331\n      jump\t// in\n    tag_621:\n        /* \"#utility.yul\":32075:32214   */\n      swap1\n      pop\n        /* \"#utility.yul\":31802:32221   */\n      swap2\n      swap1\n      pop\n      jump\t// out\n        /* \"#utility.yul\":32227:32408   */\n    tag_332:\n        /* \"#utility.yul\":32367:32400   */\n      0x5175616e74697479206d7573742062652067726561746572207468616e203000\n        /* \"#utility.yul\":32363:32364   */\n      0x00\n        /* \"#utility.yul\":32355:32361   */\n      dup3\n        /* \"#utility.yul\":32351:32365   */\n      add\n        /* \"#utility.yul\":32344:32401   */\n      mstore\n        /* \"#utility.yul\":32227:32408   */\n      pop\n      jump\t// out\n        /* \"#utility.yul\":32414:32780   */\n    tag_333:\n        /* \"#utility.yul\":32556:32559   */\n      0x00\n        /* \"#utility.yul\":32577:32644   */\n      tag_624\n        /* \"#utility.yul\":32641:32643   */\n      0x1f\n        /* \"#utility.yul\":32636:32639   */\n      dup4\n        /* \"#utility.yul\":32577:32644   */\n      tag_276\n      jump\t// in\n    tag_624:\n        /* \"#utility.yul\":32570:32644   */\n      swap2\n      pop\n        /* \"#utility.yul\":32653:32746   */\n      tag_625\n        /* \"#utility.yul\":32742:32745   */\n      dup3\n        /* \"#utility.yul\":32653:32746   */\n      tag_332\n      jump\t// in\n    tag_625:\n        /* \"#utility.yul\":32771:32773   */\n      0x20\n        /* \"#utility.yul\":32766:32769   */\n      dup3\n        /* \"#utility.yul\":32762:32774   */\n      add\n        /* \"#utility.yul\":32755:32774   */\n      swap1\n      pop\n        /* \"#utility.yul\":32414:32780   */\n      swap2\n      swap1\n      pop\n      jump\t// out\n        /* \"#utility.yul\":32786:33205   */\n    tag_223:\n        /* \"#utility.yul\":32952:32956   */\n      0x00\n        /* \"#utility.yul\":32990:32992   */\n      0x20\n        /* \"#utility.yul\":32979:32988   */\n      dup3\n        /* \"#utility.yul\":32975:32993   */\n      add\n        /* \"#utility.yul\":32967:32993   */\n      swap1\n      pop\n        /* \"#utility.yul\":33039:33048   */\n      dup2\n        /* \"#utility.yul\":33033:33037   */\n      dup2\n        /* \"#utility.yul\":33029:33049   */\n      sub\n        /* \"#utility.yul\":33025:33026   */\n      0x00\n        /* \"#utility.yul\":33014:33023   */\n      dup4\n        /* \"#utility.yul\":33010:33027   */\n      add\n        /* \"#utility.yul\":33003:33050   */\n      mstore\n        /* \"#utility.yul\":33067:33198   */\n      tag_627\n        /* \"#utility.yul\":33193:33197   */\n      dup2\n        /* \"#utility.yul\":33067:33198   */\n      tag_333\n      jump\t// in\n    tag_627:\n        /* \"#utility.yul\":33059:33198   */\n      swap1\n      pop\n        /* \"#utility.yul\":32786:33205   */\n      swap2\n      swap1\n      pop\n      jump\t// out\n        /* \"#utility.yul\":33211:33389   */\n    tag_334:\n        /* \"#utility.yul\":33351:33381   */\n      0x5072696365206d7573742062652067726561746572207468616e203000000000\n        /* \"#utility.yul\":33347:33348   */\n      0x00\n        /* \"#utility.yul\":33339:33345   */\n      dup3\n        /* \"#utility.yul\":33335:33349   */\n      add\n        /* \"#utility.yul\":33328:33382   */\n      mstore\n        /* \"#utility.yul\":33211:33389   */\n      pop\n      jump\t// out\n        /* \"#utility.yul\":33395:33761   */\n    tag_335:\n        /* \"#utility.yul\":33537:33540   */\n      0x00\n        /* \"#utility.yul\":33558:33625   */\n      tag_630\n        /* \"#utility.yul\":33622:33624   */\n      0x1c\n        /* \"#utility.yul\":33617:33620   */\n      dup4\n        /* \"#utility.yul\":33558:33625   */\n      tag_276\n      jump\t// in\n    tag_630:\n        /* \"#utility.yul\":33551:33625   */\n      swap2\n      pop\n        /* \"#utility.yul\":33634:33727   */\n      tag_631\n        /* \"#utility.yul\":33723:33726   */\n      dup3\n        /* \"#utility.yul\":33634:33727   */\n      tag_334\n      jump\t// in\n    tag_631:\n        /* \"#utility.yul\":33752:33754   */\n      0x20\n        /* \"#utility.yul\":33747:33750   */\n      dup3\n        /* \"#utility.yul\":33743:33755   */\n      add\n        /* \"#utility.yul\":33736:33755   */\n      swap1\n      pop\n        /* \"#utility.yul\":33395:33761   */\n      swap2\n      swap1\n      pop\n      jump\t// out\n        /* \"#utility.yul\":33767:34186   */\n    tag_226:\n        /* \"#utility.yul\":33933:33937   */\n      0x00\n        /* \"#utility.yul\":33971:33973   */\n      0x20\n        /* \"#utility.yul\":33960:33969   */\n      dup3\n        /* \"#utility.yul\":33956:33974   */\n      add\n        /* \"#utility.yul\":33948:33974   */\n      swap1\n      pop\n        /* \"#utility.yul\":34020:34029   */\n      dup2\n        /* \"#utility.yul\":34014:34018   */\n      dup2\n        /* \"#utility.yul\":34010:34030   */\n      sub\n        /* \"#utility.yul\":34006:34007   */\n      0x00\n        /* \"#utility.yul\":33995:34004   */\n      dup4\n        /* \"#utility.yul\":33991:34008   */\n      add\n        /* \"#utility.yul\":33984:34031   */\n      mstore\n        /* \"#utility.yul\":34048:34179   */\n      tag_633\n        /* \"#utility.yul\":34174:34178   */\n      dup2\n        /* \"#utility.yul\":34048:34179   */\n      tag_335\n      jump\t// in\n    tag_633:\n        /* \"#utility.yul\":34040:34179   */\n      swap1\n      pop\n        /* \"#utility.yul\":33767:34186   */\n      swap2\n      swap1\n      pop\n      jump\t// out\n        /* \"#utility.yul\":34192:34340   */\n    tag_336:\n        /* \"#utility.yul\":34294:34305   */\n      0x00\n        /* \"#utility.yul\":34331:34334   */\n      dup2\n        /* \"#utility.yul\":34316:34334   */\n      swap1\n      pop\n        /* \"#utility.yul\":34192:34340   */\n      swap3\n      swap2\n      pop\n      pop\n      jump\t// out\n        /* \"#utility.yul\":34346:34736   */\n    tag_337:\n        /* \"#utility.yul\":34452:34455   */\n      0x00\n        /* \"#utility.yul\":34480:34519   */\n      tag_636\n        /* \"#utility.yul\":34513:34518   */\n      dup3\n        /* \"#utility.yul\":34480:34519   */\n      tag_267\n      jump\t// in\n    tag_636:\n        /* \"#utility.yul\":34535:34624   */\n      tag_637\n        /* \"#utility.yul\":34617:34623   */\n      dup2\n        /* \"#utility.yul\":34612:34615   */\n      dup6\n        /* \"#utility.yul\":34535:34624   */\n      tag_336\n      jump\t// in\n    tag_637:\n        /* \"#utility.yul\":34528:34624   */\n      swap4\n      pop\n        /* \"#utility.yul\":34633:34698   */\n      tag_638\n        /* \"#utility.yul\":34691:34697   */\n      dup2\n        /* \"#utility.yul\":34686:34689   */\n      dup6\n        /* \"#utility.yul\":34679:34683   */\n      0x20\n        /* \"#utility.yul\":34672:34677   */\n      dup7\n        /* \"#utility.yul\":34668:34684   */\n      add\n        /* \"#utility.yul\":34633:34698   */\n      tag_269\n      jump\t// in\n    tag_638:\n        /* \"#utility.yul\":34723:34729   */\n      dup1\n        /* \"#utility.yul\":34718:34721   */\n      dup5\n        /* \"#utility.yul\":34714:34730   */\n      add\n        /* \"#utility.yul\":34707:34730   */\n      swap2\n      pop\n        /* \"#utility.yul\":34456:34736   */\n      pop\n        /* \"#utility.yul\":34346:34736   */\n      swap3\n      swap2\n      pop\n      pop\n      jump\t// out\n        /* \"#utility.yul\":34742:35177   */\n    tag_230:\n        /* \"#utility.yul\":34922:34925   */\n      0x00\n        /* \"#utility.yul\":34944:35039   */\n      tag_640\n        /* \"#utility.yul\":35035:35038   */\n      dup3\n        /* \"#utility.yul\":35026:35032   */\n      dup6\n        /* \"#utility.yul\":34944:35039   */\n      tag_337\n      jump\t// in\n    tag_640:\n        /* \"#utility.yul\":34937:35039   */\n      swap2\n      pop\n        /* \"#utility.yul\":35056:35151   */\n      tag_641\n        /* \"#utility.yul\":35147:35150   */\n      dup3\n        /* \"#utility.yul\":35138:35144   */\n      dup5\n        /* \"#utility.yul\":35056:35151   */\n      tag_337\n      jump\t// in\n    tag_641:\n        /* \"#utility.yul\":35049:35151   */\n      swap2\n      pop\n        /* \"#utility.yul\":35168:35171   */\n      dup2\n        /* \"#utility.yul\":35161:35171   */\n      swap1\n      pop\n        /* \"#utility.yul\":34742:35177   */\n      swap4\n      swap3\n      pop\n      pop\n      pop\n      jump\t// out\n        /* \"#utility.yul\":35183:35410   */\n    tag_338:\n        /* \"#utility.yul\":35323:35357   */\n      0x5468697320626f6f6b206279207468697320617574686f7220616c7265616479\n        /* \"#utility.yul\":35319:35320   */\n      0x00\n        /* \"#utility.yul\":35311:35317   */\n      dup3\n        /* \"#utility.yul\":35307:35321   */\n      add\n        /* \"#utility.yul\":35300:35358   */\n      mstore\n        /* \"#utility.yul\":35392:35402   */\n      0x2065786973747321000000000000000000000000000000000000000000000000\n        /* \"#utility.yul\":35387:35389   */\n      0x20\n        /* \"#utility.yul\":35379:35385   */\n      dup3\n        /* \"#utility.yul\":35375:35390   */\n      add\n        /* \"#utility.yul\":35368:35403   */\n      mstore\n        /* \"#utility.yul\":35183:35410   */\n      pop\n      jump\t// out\n        /* \"#utility.yul\":35416:35782   */\n    tag_339:\n        /* \"#utility.yul\":35558:35561   */\n      0x00\n        /* \"#utility.yul\":35579:35646   */\n      tag_644\n        /* \"#utility.yul\":35643:35645   */\n      0x28\n        /* \"#utility.yul\":35638:35641   */\n      dup4\n        /* \"#utility.yul\":35579:35646   */\n      tag_276\n      jump\t// in\n    tag_644:\n        /* \"#utility.yul\":35572:35646   */\n      swap2\n      pop\n        /* \"#utility.yul\":35655:35748   */\n      tag_645\n        /* \"#utility.yul\":35744:35747   */\n      dup3\n        /* \"#utility.yul\":35655:35748   */\n      tag_338\n      jump\t// in\n    tag_645:\n        /* \"#utility.yul\":35773:35775   */\n      0x40\n        /* \"#utility.yul\":35768:35771   */\n      dup3\n        /* \"#utility.yul\":35764:35776   */\n      add\n        /* \"#utility.yul\":35757:35776   */\n      swap1\n      pop\n        /* \"#utility.yul\":35416:35782   */\n      swap2\n      swap1\n      pop\n      jump\t// out\n        /* \"#utility.yul\":35788:36207   */\n    tag_233:\n        /* \"#utility.yul\":35954:35958   */\n      0x00\n        /* \"#utility.yul\":35992:35994   */\n      0x20\n        /* \"#utility.yul\":35981:35990   */\n      dup3\n        /* \"#utility.yul\":35977:35995   */\n      add\n        /* \"#utility.yul\":35969:35995   */\n      swap1\n      pop\n        /* \"#utility.yul\":36041:36050   */\n      dup2\n        /* \"#utility.yul\":36035:36039   */\n      dup2\n        /* \"#utility.yul\":36031:36051   */\n      sub\n        /* \"#utility.yul\":36027:36028   */\n      0x00\n        /* \"#utility.yul\":36016:36025   */\n      dup4\n        /* \"#utility.yul\":36012:36029   */\n      add\n        /* \"#utility.yul\":36005:36052   */\n      mstore\n        /* \"#utility.yul\":36069:36200   */\n      tag_647\n        /* \"#utility.yul\":36195:36199   */\n      dup2\n        /* \"#utility.yul\":36069:36200   */\n      tag_339\n      jump\t// in\n    tag_647:\n        /* \"#utility.yul\":36061:36200   */\n      swap1\n      pop\n        /* \"#utility.yul\":35788:36207   */\n      swap2\n      swap1\n      pop\n      jump\t// out\n        /* \"#utility.yul\":36213:36404   */\n    tag_235:\n        /* \"#utility.yul\":36253:36256   */\n      0x00\n        /* \"#utility.yul\":36272:36292   */\n      tag_649\n        /* \"#utility.yul\":36290:36291   */\n      dup3\n        /* \"#utility.yul\":36272:36292   */\n      tag_263\n      jump\t// in\n    tag_649:\n        /* \"#utility.yul\":36267:36292   */\n      swap2\n      pop\n        /* \"#utility.yul\":36306:36326   */\n      tag_650\n        /* \"#utility.yul\":36324:36325   */\n      dup4\n        /* \"#utility.yul\":36306:36326   */\n      tag_263\n      jump\t// in\n    tag_650:\n        /* \"#utility.yul\":36301:36326   */\n      swap3\n      pop\n        /* \"#utility.yul\":36349:36350   */\n      dup3\n        /* \"#utility.yul\":36346:36347   */\n      dup3\n        /* \"#utility.yul\":36342:36351   */\n      add\n        /* \"#utility.yul\":36335:36351   */\n      swap1\n      pop\n        /* \"#utility.yul\":36370:36373   */\n      dup1\n        /* \"#utility.yul\":36367:36368   */\n      dup3\n        /* \"#utility.yul\":36364:36374   */\n      gt\n        /* \"#utility.yul\":36361:36397   */\n      iszero\n      tag_651\n      jumpi\n        /* \"#utility.yul\":36377:36395   */\n      tag_652\n      tag_316\n      jump\t// in\n    tag_652:\n        /* \"#utility.yul\":36361:36397   */\n    tag_651:\n        /* \"#utility.yul\":36213:36404   */\n      swap3\n      swap2\n      pop\n      pop\n      jump\t// out\n        /* \"#utility.yul\":36410:36551   */\n    tag_340:\n        /* \"#utility.yul\":36459:36463   */\n      0x00\n        /* \"#utility.yul\":36482:36485   */\n      dup2\n        /* \"#utility.yul\":36474:36485   */\n      swap1\n      pop\n        /* \"#utility.yul\":36505:36508   */\n      dup2\n        /* \"#utility.yul\":36502:36503   */\n      0x00\n        /* \"#utility.yul\":36495:36509   */\n      mstore\n        /* \"#utility.yul\":36539:36543   */\n      0x20\n        /* \"#utility.yul\":36536:36537   */\n      0x00\n        /* \"#utility.yul\":36526:36544   */\n      keccak256\n        /* \"#utility.yul\":36518:36544   */\n      swap1\n      pop\n        /* \"#utility.yul\":36410:36551   */\n      swap2\n      swap1\n      pop\n      jump\t// out\n        /* \"#utility.yul\":36557:36650   */\n    tag_341:\n        /* \"#utility.yul\":36594:36600   */\n      0x00\n        /* \"#utility.yul\":36641:36643   */\n      0x20\n        /* \"#utility.yul\":36636:36638   */\n      0x1f\n        /* \"#utility.yul\":36629:36634   */\n      dup4\n        /* \"#utility.yul\":36625:36639   */\n      add\n        /* \"#utility.yul\":36621:36644   */\n      div\n        /* \"#utility.yul\":36611:36644   */\n      swap1\n      pop\n        /* \"#utility.yul\":36557:36650   */\n      swap2\n      swap1\n      pop\n      jump\t// out\n        /* \"#utility.yul\":36656:36763   */\n    tag_342:\n        /* \"#utility.yul\":36700:36708   */\n      0x00\n        /* \"#utility.yul\":36750:36755   */\n      dup3\n        /* \"#utility.yul\":36744:36748   */\n      dup3\n        /* \"#utility.yul\":36740:36756   */\n      shl\n        /* \"#utility.yul\":36719:36756   */\n      swap1\n      pop\n        /* \"#utility.yul\":36656:36763   */\n      swap3\n      swap2\n      pop\n      pop\n      jump\t// out\n        /* \"#utility.yul\":36769:37162   */\n    tag_343:\n        /* \"#utility.yul\":36838:36844   */\n      0x00\n        /* \"#utility.yul\":36888:36889   */\n      0x08\n        /* \"#utility.yul\":36876:36886   */\n      dup4\n        /* \"#utility.yul\":36872:36890   */\n      mul\n        /* \"#utility.yul\":36911:37008   */\n      tag_657\n        /* \"#utility.yul\":36941:37007   */\n      0xffffffffffffffffffffffffffffffffffffffffffffffffffffffffffffffff\n        /* \"#utility.yul\":36930:36939   */\n      dup3\n        /* \"#utility.yul\":36911:37008   */\n      tag_342\n      jump\t// in\n    tag_657:\n        /* \"#utility.yul\":37029:37068   */\n      tag_658\n        /* \"#utility.yul\":37059:37067   */\n      dup7\n        /* \"#utility.yul\":37048:37057   */\n      dup4\n        /* \"#utility.yul\":37029:37068   */\n      tag_342\n      jump\t// in\n    tag_658:\n        /* \"#utility.yul\":37017:37068   */\n      swap6\n      pop\n        /* \"#utility.yul\":37101:37105   */\n      dup1\n        /* \"#utility.yul\":37097:37106   */\n      not\n        /* \"#utility.yul\":37090:37095   */\n      dup5\n        /* \"#utility.yul\":37086:37107   */\n      and\n        /* \"#utility.yul\":37077:37107   */\n      swap4\n      pop\n        /* \"#utility.yul\":37150:37154   */\n      dup1\n        /* \"#utility.yul\":37140:37148   */\n      dup7\n        /* \"#utility.yul\":37136:37155   */\n      and\n        /* \"#utility.yul\":37129:37134   */\n      dup5\n        /* \"#utility.yul\":37126:37156   */\n      or\n        /* \"#utility.yul\":37116:37156   */\n      swap3\n      pop\n        /* \"#utility.yul\":36845:37162   */\n      pop\n      pop\n        /* \"#utility.yul\":36769:37162   */\n      swap4\n      swap3\n      pop\n      pop\n      pop\n      jump\t// out\n        /* \"#utility.yul\":37168:37310   */\n    tag_344:\n        /* \"#utility.yul\":37218:37227   */\n      0x00\n        /* \"#utility.yul\":37251:37304   */\n      tag_660\n        /* \"#utility.yul\":37269:37303   */\n      tag_661\n        /* \"#utility.yul\":37278:37302   */\n      tag_662\n        /* \"#utility.yul\":37296:37301   */\n      dup5\n        /* \"#utility.yul\":37278:37302   */\n      tag_263\n      jump\t// in\n    tag_662:\n        /* \"#utility.yul\":37269:37303   */\n      tag_296\n      jump\t// in\n    tag_661:\n        /* \"#utility.yul\":37251:37304   */\n      tag_263\n      jump\t// in\n    tag_660:\n        /* \"#utility.yul\":37238:37304   */\n      swap1\n      pop\n        /* \"#utility.yul\":37168:37310   */\n      swap2\n      swap1\n      pop\n      jump\t// out\n        /* \"#utility.yul\":37316:37391   */\n    tag_345:\n        /* \"#utility.yul\":37359:37362   */\n      0x00\n        /* \"#utility.yul\":37380:37385   */\n      dup2\n        /* \"#utility.yul\":37373:37385   */\n      swap1\n      pop\n        /* \"#utility.yul\":37316:37391   */\n      swap2\n      swap1\n      pop\n      jump\t// out\n        /* \"#utility.yul\":37397:37666   */\n    tag_346:\n        /* \"#utility.yul\":37507:37546   */\n      tag_665\n        /* \"#utility.yul\":37538:37545   */\n      dup4\n        /* \"#utility.yul\":37507:37546   */\n      tag_344\n      jump\t// in\n    tag_665:\n        /* \"#utility.yul\":37568:37659   */\n      tag_666\n        /* \"#utility.yul\":37617:37658   */\n      tag_667\n        /* \"#utility.yul\":37641:37657   */\n      dup3\n        /* \"#utility.yul\":37617:37658   */\n      tag_345\n      jump\t// in\n    tag_667:\n        /* \"#utility.yul\":37609:37615   */\n      dup5\n        /* \"#utility.yul\":37602:37606   */\n      dup5\n        /* \"#utility.yul\":37596:37607   */\n      sload\n        /* \"#utility.yul\":37568:37659   */\n      tag_343\n      jump\t// in\n    tag_666:\n        /* \"#utility.yul\":37562:37566   */\n      dup3\n        /* \"#utility.yul\":37555:37660   */\n      sstore\n        /* \"#utility.yul\":37473:37666   */\n      pop\n        /* \"#utility.yul\":37397:37666   */\n      pop\n      pop\n      pop\n      jump\t// out\n        /* \"#utility.yul\":37672:37745   */\n    tag_347:\n        /* \"#utility.yul\":37717:37720   */\n      0x00\n        /* \"#utility.yul\":37738:37739   */\n      0x00\n        /* \"#utility.yul\":37731:37739   */\n      swap1\n      pop\n        /* \"#utility.yul\":37672:37745   */\n      swap1\n      jump\t// out\n        /* \"#utility.yul\":37751:37940   */\n    tag_348:\n        /* \"#utility.yul\":37828:37860   */\n      tag_670\n      tag_347\n      jump\t// in\n    tag_670:\n        /* \"#utility.yul\":37869:37934   */\n      tag_671\n        /* \"#utility.yul\":37927:37933   */\n      dup2\n        /* \"#utility.yul\":37919:37925   */\n      dup5\n        /* \"#utility.yul\":37913:37917   */\n      dup5\n        /* \"#utility.yul\":37869:37934   */\n      tag_346\n      jump\t// in\n    tag_671:\n        /* \"#utility.yul\":37804:37940   */\n      pop\n        /* \"#utility.yul\":37751:37940   */\n      pop\n      pop\n      jump\t// out\n        /* \"#utility.yul\":37946:38132   */\n    tag_349:\n        /* \"#utility.yul\":38006:38126   */\n    tag_673:\n        /* \"#utility.yul\":38023:38026   */\n      dup2\n        /* \"#utility.yul\":38016:38021   */\n      dup2\n        /* \"#utility.yul\":38013:38027   */\n      lt\n        /* \"#utility.yul\":38006:38126   */\n      iszero\n      tag_675\n      jumpi\n        /* \"#utility.yul\":38077:38116   */\n      tag_676\n        /* \"#utility.yul\":38114:38115   */\n      0x00\n        /* \"#utility.yul\":38107:38112   */\n      dup3\n        /* \"#utility.yul\":38077:38116   */\n      tag_348\n      jump\t// in\n    tag_676:\n        /* \"#utility.yul\":38050:38051   */\n      0x01\n        /* \"#utility.yul\":38043:38048   */\n      dup2\n        /* \"#utility.yul\":38039:38052   */\n      add\n        /* \"#utility.yul\":38030:38052   */\n      swap1\n      pop\n        /* \"#utility.yul\":38006:38126   */\n      jump(tag_673)\n    tag_675:\n        /* \"#utility.yul\":37946:38132   */\n      pop\n      pop\n      jump\t// out\n        /* \"#utility.yul\":38138:38681   */\n    tag_350:\n        /* \"#utility.yul\":38239:38241   */\n      0x1f\n        /* \"#utility.yul\":38234:38237   */\n      dup3\n        /* \"#utility.yul\":38231:38242   */\n      gt\n        /* \"#utility.yul\":38228:38674   */\n      iszero\n      tag_678\n      jumpi\n        /* \"#utility.yul\":38273:38311   */\n      tag_679\n        /* \"#utility.yul\":38305:38310   */\n      dup2\n        /* \"#utility.yul\":38273:38311   */\n      tag_340\n      jump\t// in\n    tag_679:\n        /* \"#utility.yul\":38357:38386   */\n      tag_680\n        /* \"#utility.yul\":38375:38385   */\n      dup5\n        /* \"#utility.yul\":38357:38386   */\n      tag_341\n      jump\t// in\n    tag_680:\n        /* \"#utility.yul\":38347:38355   */\n      dup2\n        /* \"#utility.yul\":38343:38387   */\n      add\n        /* \"#utility.yul\":38540:38542   */\n      0x20\n        /* \"#utility.yul\":38528:38538   */\n      dup6\n        /* \"#utility.yul\":38525:38543   */\n      lt\n        /* \"#utility.yul\":38522:38571   */\n      iszero\n      tag_681\n      jumpi\n        /* \"#utility.yul\":38561:38569   */\n      dup2\n        /* \"#utility.yul\":38546:38569   */\n      swap1\n      pop\n        /* \"#utility.yul\":38522:38571   */\n    tag_681:\n        /* \"#utility.yul\":38584:38664   */\n      tag_682\n        /* \"#utility.yul\":38640:38662   */\n      tag_683\n        /* \"#utility.yul\":38658:38661   */\n      dup6\n        /* \"#utility.yul\":38640:38662   */\n      tag_341\n      jump\t// in\n    tag_683:\n        /* \"#utility.yul\":38630:38638   */\n      dup4\n        /* \"#utility.yul\":38626:38663   */\n      add\n        /* \"#utility.yul\":38613:38624   */\n      dup3\n        /* \"#utility.yul\":38584:38664   */\n      tag_349\n      jump\t// in\n    tag_682:\n        /* \"#utility.yul\":38243:38674   */\n      pop\n      pop\n        /* \"#utility.yul\":38228:38674   */\n    tag_678:\n        /* \"#utility.yul\":38138:38681   */\n      pop\n      pop\n      pop\n      jump\t// out\n        /* \"#utility.yul\":38687:38804   */\n    tag_351:\n        /* \"#utility.yul\":38741:38749   */\n      0x00\n        /* \"#utility.yul\":38791:38796   */\n      dup3\n        /* \"#utility.yul\":38785:38789   */\n      dup3\n        /* \"#utility.yul\":38781:38797   */\n      shr\n        /* \"#utility.yul\":38760:38797   */\n      swap1\n      pop\n        /* \"#utility.yul\":38687:38804   */\n      swap3\n      swap2\n      pop\n      pop\n      jump\t// out\n        /* \"#utility.yul\":38810:38979   */\n    tag_352:\n        /* \"#utility.yul\":38854:38860   */\n      0x00\n        /* \"#utility.yul\":38887:38938   */\n      tag_686\n        /* \"#utility.yul\":38935:38936   */\n      0x00\n        /* \"#utility.yul\":38931:38937   */\n      not\n        /* \"#utility.yul\":38923:38928   */\n      dup5\n        /* \"#utility.yul\":38920:38921   */\n      0x08\n        /* \"#utility.yul\":38916:38929   */\n      mul\n        /* \"#utility.yul\":38887:38938   */\n      tag_351\n      jump\t// in\n    tag_686:\n        /* \"#utility.yul\":38883:38939   */\n      not\n        /* \"#utility.yul\":38968:38972   */\n      dup1\n        /* \"#utility.yul\":38962:38966   */\n      dup4\n        /* \"#utility.yul\":38958:38973   */\n      and\n        /* \"#utility.yul\":38948:38973   */\n      swap2\n      pop\n        /* \"#utility.yul\":38861:38979   */\n      pop\n        /* \"#utility.yul\":38810:38979   */\n      swap3\n      swap2\n      pop\n      pop\n      jump\t// out\n        /* \"#utility.yul\":38984:39279   */\n    tag_353:\n        /* \"#utility.yul\":39060:39064   */\n      0x00\n        /* \"#utility.yul\":39206:39235   */\n      tag_688\n        /* \"#utility.yul\":39231:39234   */\n      dup4\n        /* \"#utility.yul\":39225:39229   */\n      dup4\n        /* \"#utility.yul\":39206:39235   */\n      tag_352\n      jump\t// in\n    tag_688:\n        /* \"#utility.yul\":39198:39235   */\n      swap2\n      pop\n        /* \"#utility.yul\":39268:39271   */\n      dup3\n        /* \"#utility.yul\":39265:39266   */\n      0x02\n        /* \"#utility.yul\":39261:39272   */\n      mul\n        /* \"#utility.yul\":39255:39259   */\n      dup3\n        /* \"#utility.yul\":39252:39273   */\n      or\n        /* \"#utility.yul\":39244:39273   */\n      swap1\n      pop\n        /* \"#utility.yul\":38984:39279   */\n      swap3\n      swap2\n      pop\n      pop\n      jump\t// out\n        /* \"#utility.yul\":39284:40679   */\n    tag_237:\n        /* \"#utility.yul\":39401:39438   */\n      tag_690\n        /* \"#utility.yul\":39434:39437   */\n      dup3\n        /* \"#utility.yul\":39401:39438   */\n      tag_267\n      jump\t// in\n    tag_690:\n        /* \"#utility.yul\":39503:39521   */\n      0xffffffffffffffff\n        /* \"#utility.yul\":39495:39501   */\n      dup2\n        /* \"#utility.yul\":39492:39522   */\n      gt\n        /* \"#utility.yul\":39489:39545   */\n      iszero\n      tag_691\n      jumpi\n        /* \"#utility.yul\":39525:39543   */\n      tag_692\n      tag_177\n      jump\t// in\n    tag_692:\n        /* \"#utility.yul\":39489:39545   */\n    tag_691:\n        /* \"#utility.yul\":39569:39607   */\n      tag_693\n        /* \"#utility.yul\":39601:39605   */\n      dup3\n        /* \"#utility.yul\":39595:39606   */\n      sload\n        /* \"#utility.yul\":39569:39607   */\n      tag_102\n      jump\t// in\n    tag_693:\n        /* \"#utility.yul\":39654:39721   */\n      tag_694\n        /* \"#utility.yul\":39714:39720   */\n      dup3\n        /* \"#utility.yul\":39706:39712   */\n      dup3\n        /* \"#utility.yul\":39700:39704   */\n      dup6\n        /* \"#utility.yul\":39654:39721   */\n      tag_350\n      jump\t// in\n    tag_694:\n        /* \"#utility.yul\":39748:39749   */\n      0x00\n        /* \"#utility.yul\":39772:39776   */\n      0x20\n        /* \"#utility.yul\":39759:39776   */\n      swap1\n      pop\n        /* \"#utility.yul\":39804:39806   */\n      0x1f\n        /* \"#utility.yul\":39796:39802   */\n      dup4\n        /* \"#utility.yul\":39793:39807   */\n      gt\n        /* \"#utility.yul\":39821:39822   */\n      0x01\n        /* \"#utility.yul\":39816:40434   */\n      dup2\n      eq\n      tag_696\n      jumpi\n        /* \"#utility.yul\":40478:40479   */\n      0x00\n        /* \"#utility.yul\":40495:40501   */\n      dup5\n        /* \"#utility.yul\":40492:40569   */\n      iszero\n      tag_697\n      jumpi\n        /* \"#utility.yul\":40544:40553   */\n      dup3\n        /* \"#utility.yul\":40539:40542   */\n      dup8\n        /* \"#utility.yul\":40535:40554   */\n      add\n        /* \"#utility.yul\":40529:40555   */\n      mload\n        /* \"#utility.yul\":40520:40555   */\n      swap1\n      pop\n        /* \"#utility.yul\":40492:40569   */\n    tag_697:\n        /* \"#utility.yul\":40595:40662   */\n      tag_698\n        /* \"#utility.yul\":40655:40661   */\n      dup6\n        /* \"#utility.yul\":40648:40653   */\n      dup3\n        /* \"#utility.yul\":40595:40662   */\n      tag_353\n      jump\t// in\n    tag_698:\n        /* \"#utility.yul\":40589:40593   */\n      dup7\n        /* \"#utility.yul\":40582:40663   */\n      sstore\n        /* \"#utility.yul\":40451:40673   */\n      pop\n        /* \"#utility.yul\":39786:40673   */\n      jump(tag_695)\n        /* \"#utility.yul\":39816:40434   */\n    tag_696:\n        /* \"#utility.yul\":39868:39872   */\n      0x1f\n        /* \"#utility.yul\":39864:39873   */\n      not\n        /* \"#utility.yul\":39856:39862   */\n      dup5\n        /* \"#utility.yul\":39852:39874   */\n      and\n        /* \"#utility.yul\":39902:39939   */\n      tag_699\n        /* \"#utility.yul\":39934:39938   */\n      dup7\n        /* \"#utility.yul\":39902:39939   */\n      tag_340\n      jump\t// in\n    tag_699:\n        /* \"#utility.yul\":39961:39962   */\n      0x00\n        /* \"#utility.yul\":39975:40183   */\n    tag_700:\n        /* \"#utility.yul\":39989:39996   */\n      dup3\n        /* \"#utility.yul\":39986:39987   */\n      dup2\n        /* \"#utility.yul\":39983:39997   */\n      lt\n        /* \"#utility.yul\":39975:40183   */\n      iszero\n      tag_702\n      jumpi\n        /* \"#utility.yul\":40068:40077   */\n      dup5\n        /* \"#utility.yul\":40063:40066   */\n      dup10\n        /* \"#utility.yul\":40059:40078   */\n      add\n        /* \"#utility.yul\":40053:40079   */\n      mload\n        /* \"#utility.yul\":40045:40051   */\n      dup3\n        /* \"#utility.yul\":40038:40080   */\n      sstore\n        /* \"#utility.yul\":40119:40120   */\n      0x01\n        /* \"#utility.yul\":40111:40117   */\n      dup3\n        /* \"#utility.yul\":40107:40121   */\n      add\n        /* \"#utility.yul\":40097:40121   */\n      swap2\n      pop\n        /* \"#utility.yul\":40166:40168   */\n      0x20\n        /* \"#utility.yul\":40155:40164   */\n      dup6\n        /* \"#utility.yul\":40151:40169   */\n      add\n        /* \"#utility.yul\":40138:40169   */\n      swap5\n      pop\n        /* \"#utility.yul\":40012:40016   */\n      0x20\n        /* \"#utility.yul\":40009:40010   */\n      dup2\n        /* \"#utility.yul\":40005:40017   */\n      add\n        /* \"#utility.yul\":40000:40017   */\n      swap1\n      pop\n        /* \"#utility.yul\":39975:40183   */\n      jump(tag_700)\n    tag_702:\n        /* \"#utility.yul\":40211:40217   */\n      dup7\n        /* \"#utility.yul\":40202:40209   */\n      dup4\n        /* \"#utility.yul\":40199:40218   */\n      lt\n        /* \"#utility.yul\":40196:40375   */\n      iszero\n      tag_703\n      jumpi\n        /* \"#utility.yul\":40269:40278   */\n      dup5\n        /* \"#utility.yul\":40264:40267   */\n      dup10\n        /* \"#utility.yul\":40260:40279   */\n      add\n        /* \"#utility.yul\":40254:40280   */\n      mload\n        /* \"#utility.yul\":40312:40360   */\n      tag_704\n        /* \"#utility.yul\":40354:40358   */\n      0x1f\n        /* \"#utility.yul\":40346:40352   */\n      dup10\n        /* \"#utility.yul\":40342:40359   */\n      and\n        /* \"#utility.yul\":40331:40340   */\n      dup3\n        /* \"#utility.yul\":40312:40360   */\n      tag_352\n      jump\t// in\n    tag_704:\n        /* \"#utility.yul\":40304:40310   */\n      dup4\n        /* \"#utility.yul\":40297:40361   */\n      sstore\n        /* \"#utility.yul\":40219:40375   */\n      pop\n        /* \"#utility.yul\":40196:40375   */\n    tag_703:\n        /* \"#utility.yul\":40421:40422   */\n      0x01\n        /* \"#utility.yul\":40417:40418   */\n      0x02\n        /* \"#utility.yul\":40409:40415   */\n      dup9\n        /* \"#utility.yul\":40405:40419   */\n      mul\n        /* \"#utility.yul\":40401:40423   */\n      add\n        /* \"#utility.yul\":40395:40399   */\n      dup9\n        /* \"#utility.yul\":40388:40424   */\n      sstore\n        /* \"#utility.yul\":39823:40434   */\n      pop\n      pop\n      pop\n        /* \"#utility.yul\":39786:40673   */\n    tag_695:\n      pop\n        /* \"#utility.yul\":39376:40679   */\n      pop\n      pop\n      pop\n        /* \"#utility.yul\":39284:40679   */\n      pop\n      pop\n      jump\t// out\n        /* \"#utility.yul\":40685:40863   */\n    tag_354:\n        /* \"#utility.yul\":40825:40855   */\n      0x596f7520646964206e6f7420626f72726f77207468697320626f6f6b00000000\n        /* \"#utility.yul\":40821:40822   */\n      0x00\n        /* \"#utility.yul\":40813:40819   */\n      dup3\n        /* \"#utility.yul\":40809:40823   */\n      add\n        /* \"#utility.yul\":40802:40856   */\n      mstore\n        /* \"#utility.yul\":40685:40863   */\n      pop\n      jump\t// out\n        /* \"#utility.yul\":40869:41235   */\n    tag_355:\n        /* \"#utility.yul\":41011:41014   */\n      0x00\n        /* \"#utility.yul\":41032:41099   */\n      tag_707\n        /* \"#utility.yul\":41096:41098   */\n      0x1c\n        /* \"#utility.yul\":41091:41094   */\n      dup4\n        /* \"#utility.yul\":41032:41099   */\n      tag_276\n      jump\t// in\n    tag_707:\n        /* \"#utility.yul\":41025:41099   */\n      swap2\n      pop\n        /* \"#utility.yul\":41108:41201   */\n      tag_708\n        /* \"#utility.yul\":41197:41200   */\n      dup3\n        /* \"#utility.yul\":41108:41201   */\n      tag_354\n      jump\t// in\n    tag_708:\n        /* \"#utility.yul\":41226:41228   */\n      0x20\n        /* \"#utility.yul\":41221:41224   */\n      dup3\n        /* \"#utility.yul\":41217:41229   */\n      add\n        /* \"#utility.yul\":41210:41229   */\n      swap1\n      pop\n        /* \"#utility.yul\":40869:41235   */\n      swap2\n      swap1\n      pop\n      jump\t// out\n        /* \"#utility.yul\":41241:41660   */\n    tag_246:\n        /* \"#utility.yul\":41407:41411   */\n      0x00\n        /* \"#utility.yul\":41445:41447   */\n      0x20\n        /* \"#utility.yul\":41434:41443   */\n      dup3\n        /* \"#utility.yul\":41430:41448   */\n      add\n        /* \"#utility.yul\":41422:41448   */\n      swap1\n      pop\n        /* \"#utility.yul\":41494:41503   */\n      dup2\n        /* \"#utility.yul\":41488:41492   */\n      dup2\n        /* \"#utility.yul\":41484:41504   */\n      sub\n        /* \"#utility.yul\":41480:41481   */\n      0x00\n        /* \"#utility.yul\":41469:41478   */\n      dup4\n        /* \"#utility.yul\":41465:41482   */\n      add\n        /* \"#utility.yul\":41458:41505   */\n      mstore\n        /* \"#utility.yul\":41522:41653   */\n      tag_710\n        /* \"#utility.yul\":41648:41652   */\n      dup2\n        /* \"#utility.yul\":41522:41653   */\n      tag_355\n      jump\t// in\n    tag_710:\n        /* \"#utility.yul\":41514:41653   */\n      swap1\n      pop\n        /* \"#utility.yul\":41241:41660   */\n      swap2\n      swap1\n      pop\n      jump\t// out\n\n    auxdata: 0xa2646970667358221220e87846cfa52fa2992fdaae5c44e2ef66996b242b09c51174beec37ee7777341164736f6c634300081f0033\n}\n",
				"bytecode": {
					"linkReferences": {},
					"object": "608060405234801561000f575f5ffd5b50604051612d23380380612d238339818101604052810190610031919061018c565b8260015f6101000a81548173ffffffffffffffffffffffffffffffffffffffff021916908373ffffffffffffffffffffffffffffffffffffffff1602179055508160025f6101000a81548173ffffffffffffffffffffffffffffffffffffffff021916908373ffffffffffffffffffffffffffffffffffffffff160217905550806003819055505050506101dc565b5f5ffd5b5f73ffffffffffffffffffffffffffffffffffffffff82169050919050565b5f6100ed826100c4565b9050919050565b6100fd816100e3565b8114610107575f5ffd5b50565b5f81519050610118816100f4565b92915050565b5f610128826100c4565b9050919050565b6101388161011e565b8114610142575f5ffd5b50565b5f815190506101538161012f565b92915050565b5f819050919050565b61016b81610159565b8114610175575f5ffd5b50565b5f8151905061018681610162565b92915050565b5f5f5f606084860312156101a3576101a26100c0565b5b5f6101b08682870161010a565b93505060206101c186828701610145565b92505060406101d286828701610178565b9150509250925092565b612b3a806101e95f395ff3fe6080604052600436106100e7575f3560e01c80639f34978911610089578063ca5140c911610058578063ca5140c9146102d9578063ddd5987f14610301578063ef2ede0514610329578063ff41835214610353576100e7565b80639f34978914610221578063a1ef35771461024b578063a9d00e6614610287578063c40cf4eb146102af576100e7565b8063513073b8116100c5578063513073b81461015b57806368744046146101975780637e490a9e146101db57806385d04bae146101f7576100e7565b80631792a6da146100eb578063189a55e714610115578063418b79ab1461011f575b5f5ffd5b3480156100f6575f5ffd5b506100ff61038f565b60405161010c9190611800565b60405180910390f35b61011d6103b4565b005b34801561012a575f5ffd5b506101456004803603810190610140919061185d565b6103b6565b60405161015291906119f1565b60405180910390f35b348015610166575f5ffd5b50610181600480360381019061017c919061185d565b61063d565b60405161018e9190611a20565b60405180910390f35b3480156101a2575f5ffd5b506101bd60048036038101906101b8919061185d565b61065d565b6040516101d299989796959493929190611a90565b60405180910390f35b6101f560048036038101906101f0919061185d565b610845565b005b348015610202575f5ffd5b5061020b610d1c565b6040516102189190611a20565b60405180910390f35b34801561022c575f5ffd5b50610235610d22565b6040516102429190611cbb565b60405180910390f35b348015610256575f5ffd5b50610271600480360381019061026c9190611cdb565b610ff9565b60405161027e9190611d39565b60405180910390f35b348015610292575f5ffd5b506102ad60048036038101906102a89190611e7e565b611041565b005b3480156102ba575f5ffd5b506102c3611448565b6040516102d09190611fb6565b60405180910390f35b3480156102e4575f5ffd5b506102ff60048036038101906102fa919061185d565b61146d565b005b34801561030c575f5ffd5b5061032760048036038101906103229190611cdb565b6115f6565b005b348015610334575f5ffd5b5061033d61174a565b60405161034a9190611a20565b60405180910390f35b34801561035e575f5ffd5b5061037960048036038101906103749190611ff9565b61174f565b6040516103869190612037565b60405180910390f35b60025f9054906101000a900473ffffffffffffffffffffffffffffffffffffffff1681565b565b6103be611779565b60055f8381526020019081526020015f206007015f9054906101000a900460ff1661041e576040517f08c379a00000000000000000000000000000000000000000000000000000000081526004016104159061209a565b60405180910390fd5b60055f8381526020019081526020015f20604051806101200160405290815f8201548152602001600182018054610454906120e5565b80601f0160208091040260200160405190810160405280929190818152602001828054610480906120e5565b80156104cb5780601f106104a2576101008083540402835291602001916104cb565b820191905f5260205f20905b8154815290600101906020018083116104ae57829003601f168201915b505050505081526020016002820180546104e4906120e5565b80601f0160208091040260200160405190810160405280929190818152602001828054610510906120e5565b801561055b5780601f106105325761010080835404028352916020019161055b565b820191905f5260205f20905b81548152906001019060200180831161053e57829003601f168201915b50505050508152602001600382018054610574906120e5565b80601f01602080910402602001604051908101604052809291908181526020018280546105a0906120e5565b80156105eb5780601f106105c2576101008083540402835291602001916105eb565b820191905f5260205f20905b8154815290600101906020018083116105ce57829003601f168201915b50505050508152602001600482015481526020016005820154815260200160068201548152602001600782015f9054906101000a900460ff161515151581526020016008820154815250509050919050565b6004818154811061064c575f80fd5b905f5260205f20015f915090505481565b6005602052805f5260405f205f91509050805f015490806001018054610682906120e5565b80601f01602080910402602001604051908101604052809291908181526020018280546106ae906120e5565b80156106f95780601f106106d0576101008083540402835291602001916106f9565b820191905f5260205f20905b8154815290600101906020018083116106dc57829003601f168201915b50505050509080600201805461070e906120e5565b80601f016020809104026020016040519081016040528092919081815260200182805461073a906120e5565b80156107855780601f1061075c57610100808354040283529160200191610785565b820191905f5260205f20905b81548152906001019060200180831161076857829003601f168201915b50505050509080600301805461079a906120e5565b80601f01602080910402602001604051908101604052809291908181526020018280546107c6906120e5565b80156108115780601f106107e857610100808354040283529160200191610811565b820191905f5260205f20905b8154815290600101906020018083116107f457829003601f168201915b505050505090806004015490806005015490806006015490806007015f9054906101000a900460ff16908060080154905089565b60055f8281526020019081526020015f206007015f9054906101000a900460ff166108a5576040517f08c379a000000000000000000000000000000000000000000000000000000000815260040161089c9061215f565b60405180910390fd5b5f60055f8381526020019081526020015f2060040154116108fb576040517f08c379a00000000000000000000000000000000000000000000000000000000081526004016108f2906121c7565b60405180910390fd5b60085f8281526020019081526020015f205f3373ffffffffffffffffffffffffffffffffffffffff1673ffffffffffffffffffffffffffffffffffffffff1681526020019081526020015f205f9054906101000a900460ff16610993576040517f08c379a000000000000000000000000000000000000000000000000000000000815260040161098a9061222f565b60405180910390fd5b5f60055f8381526020019081526020015f2090505f60015f9054906101000a900473ffffffffffffffffffffffffffffffffffffffff1673ffffffffffffffffffffffffffffffffffffffff1663506b27f0336040518263ffffffff1660e01b8152600401610a029190611d39565b602060405180830381865afa158015610a1d573d5f5f3e3d5ffd5b505050506040513d601f19601f82011682018060405250810190610a419190612277565b90505f81610a5157600354610a57565b82600601545b905080341015610a9c576040517f08c379a0000000000000000000000000000000000000000000000000000000008152600401610a93906122ec565b60405180910390fd5b600160085f8681526020019081526020015f205f3373ffffffffffffffffffffffffffffffffffffffff1673ffffffffffffffffffffffffffffffffffffffff1681526020019081526020015f205f6101000a81548160ff02191690831515021790555060075f8581526020019081526020015f2033908060018154018082558091505060019003905f5260205f20015f9091909190916101000a81548173ffffffffffffffffffffffffffffffffffffffff021916908373ffffffffffffffffffffffffffffffffffffffff1602179055506001836004015f828254610b839190612337565b925050819055505f60025f9054906101000a900473ffffffffffffffffffffffffffffffffffffffff1673ffffffffffffffffffffffffffffffffffffffff1682604051610bd090612397565b5f6040518083038185875af1925050503d805f8114610c0a576040519150601f19603f3d011682016040523d82523d5f602084013e610c0f565b606091505b5050905080610c53576040517f08c379a0000000000000000000000000000000000000000000000000000000008152600401610c4a906123f5565b60405180910390fd5b5f8234610c609190612337565b90505f811115610d14575f3373ffffffffffffffffffffffffffffffffffffffff1682604051610c8f90612397565b5f6040518083038185875af1925050503d805f8114610cc9576040519150601f19603f3d011682016040523d82523d5f602084013e610cce565b606091505b5050905080610d12576040517f08c379a0000000000000000000000000000000000000000000000000000000008152600401610d099061245d565b60405180910390fd5b505b505050505050565b60035481565b60605f60048054905067ffffffffffffffff811115610d4457610d43611d5a565b5b604051908082528060200260200182016040528015610d7d57816020015b610d6a611779565b815260200190600190039081610d625790505b5090505f5f90505b600480549050811015610ff15760055f60048381548110610da957610da861247b565b5b905f5260205f20015481526020019081526020015f20604051806101200160405290815f8201548152602001600182018054610de4906120e5565b80601f0160208091040260200160405190810160405280929190818152602001828054610e10906120e5565b8015610e5b5780601f10610e3257610100808354040283529160200191610e5b565b820191905f5260205f20905b815481529060010190602001808311610e3e57829003601f168201915b50505050508152602001600282018054610e74906120e5565b80601f0160208091040260200160405190810160405280929190818152602001828054610ea0906120e5565b8015610eeb5780601f10610ec257610100808354040283529160200191610eeb565b820191905f5260205f20905b815481529060010190602001808311610ece57829003601f168201915b50505050508152602001600382018054610f04906120e5565b80601f0160208091040260200160405190810160405280929190818152602001828054610f30906120e5565b8015610f7b5780601f10610f5257610100808354040283529160200191610f7b565b820191905f5260205f20905b815481529060010190602001808311610f5e57829003601f168201915b50505050508152602001600482015481526020016005820154815260200160068201548152602001600782015f9054906101000a900460ff16151515158152602001600882015481525050828281518110610fd957610fd861247b565b5b60200260200101819052508080600101915050610d85565b508091505090565b6007602052815f5260405f208181548110611012575f80fd5b905f5260205f20015f915091509054906101000a900473ffffffffffffffffffffffffffffffffffffffff1681565b60025f9054906101000a900473ffffffffffffffffffffffffffffffffffffffff1673ffffffffffffffffffffffffffffffffffffffff163373ffffffffffffffffffffffffffffffffffffffff16146110d0576040517f08c379a00000000000000000000000000000000000000000000000000000000081526004016110c7906124f2565b60405180910390fd5b5f865111611113576040517f08c379a000000000000000000000000000000000000000000000000000000000815260040161110a9061255a565b60405180910390fd5b5f855111611156576040517f08c379a000000000000000000000000000000000000000000000000000000000815260040161114d906125c2565b60405180910390fd5b5f845111611199576040517f08c379a00000000000000000000000000000000000000000000000000000000081526004016111909061262a565b60405180910390fd5b5f83116111db576040517f08c379a00000000000000000000000000000000000000000000000000000000081526004016111d290612692565b60405180910390fd5b5f821161121d576040517f08c379a0000000000000000000000000000000000000000000000000000000008152600401611214906126fa565b60405180910390fd5b5f811161125f576040517f08c379a0000000000000000000000000000000000000000000000000000000008152600401611256906126fa565b60405180910390fd5b5f8686604051602001611273929190612752565b60405160208183030381529060405280519060200120905060065f8281526020019081526020015f205f9054906101000a900460ff16156112e9576040517f08c379a00000000000000000000000000000000000000000000000000000000081526004016112e0906127e5565b60405180910390fd5b600160065f8381526020019081526020015f205f6101000a81548160ff02191690831515021790555060015f5f8282546113239190612803565b925050819055505f5f5490506040518061012001604052808281526020018981526020018881526020018781526020018681526020018581526020018481526020016001151581526020014281525060055f8381526020019081526020015f205f820151815f015560208201518160010190816113a091906129cd565b5060408201518160020190816113b691906129cd565b5060608201518160030190816113cc91906129cd565b506080820151816004015560a0820151816005015560c0820151816006015560e0820151816007015f6101000a81548160ff0219169083151502179055506101008201518160080155905050600481908060018154018082558091505060019003905f5260205f20015f90919091909150555050505050505050565b60015f9054906101000a900473ffffffffffffffffffffffffffffffffffffffff1681565b60055f8281526020019081526020015f206007015f9054906101000a900460ff166114cd576040517f08c379a00000000000000000000000000000000000000000000000000000000081526004016114c49061209a565b60405180910390fd5b60085f8281526020019081526020015f205f3373ffffffffffffffffffffffffffffffffffffffff1673ffffffffffffffffffffffffffffffffffffffff1681526020019081526020015f205f9054906101000a900460ff16611565576040517f08c379a000000000000000000000000000000000000000000000000000000000815260040161155c90612ae6565b60405180910390fd5b5f60085f8381526020019081526020015f205f3373ffffffffffffffffffffffffffffffffffffffff1673ffffffffffffffffffffffffffffffffffffffff1681526020019081526020015f205f6101000a81548160ff021916908315150217905550600160055f8381526020019081526020015f206004015f8282546115ec9190612803565b9250508190555050565b60025f9054906101000a900473ffffffffffffffffffffffffffffffffffffffff1673ffffffffffffffffffffffffffffffffffffffff163373ffffffffffffffffffffffffffffffffffffffff1614611685576040517f08c379a000000000000000000000000000000000000000000000000000000000815260040161167c906124f2565b60405180910390fd5b5f81116116c7576040517f08c379a00000000000000000000000000000000000000000000000000000000081526004016116be90612692565b60405180910390fd5b5f60055f8481526020019081526020015f209050806007015f9054906101000a900460ff1661172b576040517f08c379a00000000000000000000000000000000000000000000000000000000081526004016117229061209a565b60405180910390fd5b81816004015f82825461173e9190612803565b92505081905550505050565b5f5481565b6008602052815f5260405f20602052805f5260405f205f915091509054906101000a900460ff1681565b6040518061012001604052805f81526020016060815260200160608152602001606081526020015f81526020015f81526020015f81526020015f151581526020015f81525090565b5f73ffffffffffffffffffffffffffffffffffffffff82169050919050565b5f6117ea826117c1565b9050919050565b6117fa816117e0565b82525050565b5f6020820190506118135f8301846117f1565b92915050565b5f604051905090565b5f5ffd5b5f5ffd5b5f819050919050565b61183c8161182a565b8114611846575f5ffd5b50565b5f8135905061185781611833565b92915050565b5f6020828403121561187257611871611822565b5b5f61187f84828501611849565b91505092915050565b6118918161182a565b82525050565b5f81519050919050565b5f82825260208201905092915050565b8281835e5f83830152505050565b5f601f19601f8301169050919050565b5f6118d982611897565b6118e381856118a1565b93506118f38185602086016118b1565b6118fc816118bf565b840191505092915050565b5f8115159050919050565b61191b81611907565b82525050565b5f61012083015f8301516119375f860182611888565b506020830151848203602086015261194f82826118cf565b9150506040830151848203604086015261196982826118cf565b9150506060830151848203606086015261198382826118cf565b91505060808301516119986080860182611888565b5060a08301516119ab60a0860182611888565b5060c08301516119be60c0860182611888565b5060e08301516119d160e0860182611912565b506101008301516119e6610100860182611888565b508091505092915050565b5f6020820190508181035f830152611a098184611921565b905092915050565b611a1a8161182a565b82525050565b5f602082019050611a335f830184611a11565b92915050565b5f82825260208201905092915050565b5f611a5382611897565b611a5d8185611a39565b9350611a6d8185602086016118b1565b611a76816118bf565b840191505092915050565b611a8a81611907565b82525050565b5f61012082019050611aa45f83018c611a11565b8181036020830152611ab6818b611a49565b90508181036040830152611aca818a611a49565b90508181036060830152611ade8189611a49565b9050611aed6080830188611a11565b611afa60a0830187611a11565b611b0760c0830186611a11565b611b1460e0830185611a81565b611b22610100830184611a11565b9a9950505050505050505050565b5f81519050919050565b5f82825260208201905092915050565b5f819050602082019050919050565b5f61012083015f830151611b6f5f860182611888565b5060208301518482036020860152611b8782826118cf565b91505060408301518482036040860152611ba182826118cf565b91505060608301518482036060860152611bbb82826118cf565b9150506080830151611bd06080860182611888565b5060a0830151611be360a0860182611888565b5060c0830151611bf660c0860182611888565b5060e0830151611c0960e0860182611912565b50610100830151611c1e610100860182611888565b508091505092915050565b5f611c348383611b59565b905092915050565b5f602082019050919050565b5f611c5282611b30565b611c5c8185611b3a565b935083602082028501611c6e85611b4a565b805f5b85811015611ca95784840389528151611c8a8582611c29565b9450611c9583611c3c565b925060208a01995050600181019050611c71565b50829750879550505050505092915050565b5f6020820190508181035f830152611cd38184611c48565b905092915050565b5f5f60408385031215611cf157611cf0611822565b5b5f611cfe85828601611849565b9250506020611d0f85828601611849565b9150509250929050565b5f611d23826117c1565b9050919050565b611d3381611d19565b82525050565b5f602082019050611d4c5f830184611d2a565b92915050565b5f5ffd5b5f5ffd5b7f4e487b71000000000000000000000000000000000000000000000000000000005f52604160045260245ffd5b611d90826118bf565b810181811067ffffffffffffffff82111715611daf57611dae611d5a565b5b80604052505050565b5f611dc1611819565b9050611dcd8282611d87565b919050565b5f67ffffffffffffffff821115611dec57611deb611d5a565b5b611df5826118bf565b9050602081019050919050565b828183375f83830152505050565b5f611e22611e1d84611dd2565b611db8565b905082815260208101848484011115611e3e57611e3d611d56565b5b611e49848285611e02565b509392505050565b5f82601f830112611e6557611e64611d52565b5b8135611e75848260208601611e10565b91505092915050565b5f5f5f5f5f5f60c08789031215611e9857611e97611822565b5b5f87013567ffffffffffffffff811115611eb557611eb4611826565b5b611ec189828a01611e51565b965050602087013567ffffffffffffffff811115611ee257611ee1611826565b5b611eee89828a01611e51565b955050604087013567ffffffffffffffff811115611f0f57611f0e611826565b5b611f1b89828a01611e51565b9450506060611f2c89828a01611849565b9350506080611f3d89828a01611849565b92505060a0611f4e89828a01611849565b9150509295509295509295565b5f819050919050565b5f611f7e611f79611f74846117c1565b611f5b565b6117c1565b9050919050565b5f611f8f82611f64565b9050919050565b5f611fa082611f85565b9050919050565b611fb081611f96565b82525050565b5f602082019050611fc95f830184611fa7565b92915050565b611fd881611d19565b8114611fe2575f5ffd5b50565b5f81359050611ff381611fcf565b92915050565b5f5f6040838503121561200f5761200e611822565b5b5f61201c85828601611849565b925050602061202d85828601611fe5565b9150509250929050565b5f60208201905061204a5f830184611a81565b92915050565b7f426f6f6b206e6f7420666f756e640000000000000000000000000000000000005f82015250565b5f612084600e83611a39565b915061208f82612050565b602082019050919050565b5f6020820190508181035f8301526120b181612078565b9050919050565b7f4e487b71000000000000000000000000000000000000000000000000000000005f52602260045260245ffd5b5f60028204905060018216806120fc57607f821691505b60208210810361210f5761210e6120b8565b5b50919050565b7f426f6f6b206e6f7420666f756e642100000000000000000000000000000000005f82015250565b5f612149600f83611a39565b915061215482612115565b602082019050919050565b5f6020820190508181035f8301526121768161213d565b9050919050565b7f426f6f6b206e6f7420617661696c61626c6521000000000000000000000000005f82015250565b5f6121b1601383611a39565b91506121bc8261217d565b602082019050919050565b5f6020820190508181035f8301526121de816121a5565b9050919050565b7f416c726561647920626f72726f776564210000000000000000000000000000005f82015250565b5f612219601183611a39565b9150612224826121e5565b602082019050919050565b5f6020820190508181035f8301526122468161220d565b9050919050565b61225681611907565b8114612260575f5ffd5b50565b5f815190506122718161224d565b92915050565b5f6020828403121561228c5761228b611822565b5b5f61229984828501612263565b91505092915050565b7f4e6f7420656e6f756768204554482073656e74000000000000000000000000005f82015250565b5f6122d6601383611a39565b91506122e1826122a2565b602082019050919050565b5f6020820190508181035f830152612303816122ca565b9050919050565b7f4e487b71000000000000000000000000000000000000000000000000000000005f52601160045260245ffd5b5f6123418261182a565b915061234c8361182a565b92508282039050818111156123645761236361230a565b5b92915050565b5f81905092915050565b50565b5f6123825f8361236a565b915061238d82612374565b5f82019050919050565b5f6123a182612377565b9150819050919050565b7f4661696c656420746f2073656e642045544820746f206c6962726172790000005f82015250565b5f6123df601d83611a39565b91506123ea826123ab565b602082019050919050565b5f6020820190508181035f83015261240c816123d3565b9050919050565b7f4661696c656420746f20726566756e64206578636573732045544800000000005f82015250565b5f612447601b83611a39565b915061245282612413565b602082019050919050565b5f6020820190508181035f8301526124748161243b565b9050919050565b7f4e487b71000000000000000000000000000000000000000000000000000000005f52603260045260245ffd5b7f4e6f74206c6962726172792061646d696e0000000000000000000000000000005f82015250565b5f6124dc601183611a39565b91506124e7826124a8565b602082019050919050565b5f6020820190508181035f830152612509816124d0565b9050919050565b7f5469746c652063616e6e6f7420626520656d70747921000000000000000000005f82015250565b5f612544601683611a39565b915061254f82612510565b602082019050919050565b5f6020820190508181035f83015261257181612538565b9050919050565b7f417574686f722063616e6e6f7420626520656d707479210000000000000000005f82015250565b5f6125ac601783611a39565b91506125b782612578565b602082019050919050565b5f6020820190508181035f8301526125d9816125a0565b9050919050565b7f47656e72652063616e6e6f7420626520656d70747921000000000000000000005f82015250565b5f612614601683611a39565b915061261f826125e0565b602082019050919050565b5f6020820190508181035f83015261264181612608565b9050919050565b7f5175616e74697479206d7573742062652067726561746572207468616e2030005f82015250565b5f61267c601f83611a39565b915061268782612648565b602082019050919050565b5f6020820190508181035f8301526126a981612670565b9050919050565b7f5072696365206d7573742062652067726561746572207468616e2030000000005f82015250565b5f6126e4601c83611a39565b91506126ef826126b0565b602082019050919050565b5f6020820190508181035f830152612711816126d8565b9050919050565b5f81905092915050565b5f61272c82611897565b6127368185612718565b93506127468185602086016118b1565b80840191505092915050565b5f61275d8285612722565b91506127698284612722565b91508190509392505050565b7f5468697320626f6f6b206279207468697320617574686f7220616c72656164795f8201527f2065786973747321000000000000000000000000000000000000000000000000602082015250565b5f6127cf602883611a39565b91506127da82612775565b604082019050919050565b5f6020820190508181035f8301526127fc816127c3565b9050919050565b5f61280d8261182a565b91506128188361182a565b92508282019050808211156128305761282f61230a565b5b92915050565b5f819050815f5260205f209050919050565b5f6020601f8301049050919050565b5f82821b905092915050565b5f600883026128927fffffffffffffffffffffffffffffffffffffffffffffffffffffffffffffffff82612857565b61289c8683612857565b95508019841693508086168417925050509392505050565b5f6128ce6128c96128c48461182a565b611f5b565b61182a565b9050919050565b5f819050919050565b6128e7836128b4565b6128fb6128f3826128d5565b848454612863565b825550505050565b5f5f905090565b612912612903565b61291d8184846128de565b505050565b5b81811015612940576129355f8261290a565b600181019050612923565b5050565b601f8211156129855761295681612836565b61295f84612848565b8101602085101561296e578190505b61298261297a85612848565b830182612922565b50505b505050565b5f82821c905092915050565b5f6129a55f198460080261298a565b1980831691505092915050565b5f6129bd8383612996565b9150826002028217905092915050565b6129d682611897565b67ffffffffffffffff8111156129ef576129ee611d5a565b5b6129f982546120e5565b612a04828285612944565b5f60209050601f831160018114612a35575f8415612a23578287015190505b612a2d85826129b2565b865550612a94565b601f198416612a4386612836565b5f5b82811015612a6a57848901518255600182019150602085019450602081019050612a45565b86831015612a875784890151612a83601f891682612996565b8355505b6001600288020188555050505b505050505050565b7f596f7520646964206e6f7420626f72726f77207468697320626f6f6b000000005f82015250565b5f612ad0601c83611a39565b9150612adb82612a9c565b602082019050919050565b5f6020820190508181035f830152612afd81612ac4565b905091905056fea2646970667358221220e87846cfa52fa2992fdaae5c44e2ef66996b242b09c51174beec37ee7777341164736f6c634300081f0033",
					"opcodes": "PUSH1 0x80 PUSH1 0x40 MSTORE CALLVALUE DUP1 ISZERO PUSH2 0xF JUMPI PUSH0 PUSH0 REVERT JUMPDEST POP PUSH1 0x40 MLOAD PUSH2 0x2D23 CODESIZE SUB DUP1 PUSH2 0x2D23 DUP4 CODECOPY DUP2 DUP2 ADD PUSH1 0x40 MSTORE DUP2 ADD SWAP1 PUSH2 0x31 SWAP2 SWAP1 PUSH2 0x18C JUMP JUMPDEST DUP3 PUSH1 0x1 PUSH0 PUSH2 0x100 EXP DUP2 SLOAD DUP2 PUSH20 0xFFFFFFFFFFFFFFFFFFFFFFFFFFFFFFFFFFFFFFFF MUL NOT AND SWAP1 DUP4 PUSH20 0xFFFFFFFFFFFFFFFFFFFFFFFFFFFFFFFFFFFFFFFF AND MUL OR SWAP1 SSTORE POP DUP2 PUSH1 0x2 PUSH0 PUSH2 0x100 EXP DUP2 SLOAD DUP2 PUSH20 0xFFFFFFFFFFFFFFFFFFFFFFFFFFFFFFFFFFFFFFFF MUL NOT AND SWAP1 DUP4 PUSH20 0xFFFFFFFFFFFFFFFFFFFFFFFFFFFFFFFFFFFFFFFF AND MUL OR SWAP1 SSTORE POP DUP1 PUSH1 0x3 DUP2 SWAP1 SSTORE POP POP POP POP PUSH2 0x1DC JUMP JUMPDEST PUSH0 PUSH0 REVERT JUMPDEST PUSH0 PUSH20 0xFFFFFFFFFFFFFFFFFFFFFFFFFFFFFFFFFFFFFFFF DUP3 AND SWAP1 POP SWAP2 SWAP1 POP JUMP JUMPDEST PUSH0 PUSH2 0xED DUP3 PUSH2 0xC4 JUMP JUMPDEST SWAP1 POP SWAP2 SWAP1 POP JUMP JUMPDEST PUSH2 0xFD DUP2 PUSH2 0xE3 JUMP JUMPDEST DUP2 EQ PUSH2 0x107 JUMPI PUSH0 PUSH0 REVERT JUMPDEST POP JUMP JUMPDEST PUSH0 DUP2 MLOAD SWAP1 POP PUSH2 0x118 DUP2 PUSH2 0xF4 JUMP JUMPDEST SWAP3 SWAP2 POP POP JUMP JUMPDEST PUSH0 PUSH2 0x128 DUP3 PUSH2 0xC4 JUMP JUMPDEST SWAP1 POP SWAP2 SWAP1 POP JUMP JUMPDEST PUSH2 0x138 DUP2 PUSH2 0x11E JUMP JUMPDEST DUP2 EQ PUSH2 0x142 JUMPI PUSH0 PUSH0 REVERT JUMPDEST POP JUMP JUMPDEST PUSH0 DUP2 MLOAD SWAP1 POP PUSH2 0x153 DUP2 PUSH2 0x12F JUMP JUMPDEST SWAP3 SWAP2 POP POP JUMP JUMPDEST PUSH0 DUP2 SWAP1 POP SWAP2 SWAP1 POP JUMP JUMPDEST PUSH2 0x16B DUP2 PUSH2 0x159 JUMP JUMPDEST DUP2 EQ PUSH2 0x175 JUMPI PUSH0 PUSH0 REVERT JUMPDEST POP JUMP JUMPDEST PUSH0 DUP2 MLOAD SWAP1 POP PUSH2 0x186 DUP2 PUSH2 0x162 JUMP JUMPDEST SWAP3 SWAP2 POP POP JUMP JUMPDEST PUSH0 PUSH0 PUSH0 PUSH1 0x60 DUP5 DUP7 SUB SLT ISZERO PUSH2 0x1A3 JUMPI PUSH2 0x1A2 PUSH2 0xC0 JUMP JUMPDEST JUMPDEST PUSH0 PUSH2 0x1B0 DUP7 DUP3 DUP8 ADD PUSH2 0x10A JUMP JUMPDEST SWAP4 POP POP PUSH1 0x20 PUSH2 0x1C1 DUP7 DUP3 DUP8 ADD PUSH2 0x145 JUMP JUMPDEST SWAP3 POP POP PUSH1 0x40 PUSH2 0x1D2 DUP7 DUP3 DUP8 ADD PUSH2 0x178 JUMP JUMPDEST SWAP2 POP POP SWAP3 POP SWAP3 POP SWAP3 JUMP JUMPDEST PUSH2 0x2B3A DUP1 PUSH2 0x1E9 PUSH0 CODECOPY PUSH0 RETURN INVALID PUSH1 0x80 PUSH1 0x40 MSTORE PUSH1 0x4 CALLDATASIZE LT PUSH2 0xE7 JUMPI PUSH0 CALLDATALOAD PUSH1 0xE0 SHR DUP1 PUSH4 0x9F349789 GT PUSH2 0x89 JUMPI DUP1 PUSH4 0xCA5140C9 GT PUSH2 0x58 JUMPI DUP1 PUSH4 0xCA5140C9 EQ PUSH2 0x2D9 JUMPI DUP1 PUSH4 0xDDD5987F EQ PUSH2 0x301 JUMPI DUP1 PUSH4 0xEF2EDE05 EQ PUSH2 0x329 JUMPI DUP1 PUSH4 0xFF418352 EQ PUSH2 0x353 JUMPI PUSH2 0xE7 JUMP JUMPDEST DUP1 PUSH4 0x9F349789 EQ PUSH2 0x221 JUMPI DUP1 PUSH4 0xA1EF3577 EQ PUSH2 0x24B JUMPI DUP1 PUSH4 0xA9D00E66 EQ PUSH2 0x287 JUMPI DUP1 PUSH4 0xC40CF4EB EQ PUSH2 0x2AF JUMPI PUSH2 0xE7 JUMP JUMPDEST DUP1 PUSH4 0x513073B8 GT PUSH2 0xC5 JUMPI DUP1 PUSH4 0x513073B8 EQ PUSH2 0x15B JUMPI DUP1 PUSH4 0x68744046 EQ PUSH2 0x197 JUMPI DUP1 PUSH4 0x7E490A9E EQ PUSH2 0x1DB JUMPI DUP1 PUSH4 0x85D04BAE EQ PUSH2 0x1F7 JUMPI PUSH2 0xE7 JUMP JUMPDEST DUP1 PUSH4 0x1792A6DA EQ PUSH2 0xEB JUMPI DUP1 PUSH4 0x189A55E7 EQ PUSH2 0x115 JUMPI DUP1 PUSH4 0x418B79AB EQ PUSH2 0x11F JUMPI JUMPDEST PUSH0 PUSH0 REVERT JUMPDEST CALLVALUE DUP1 ISZERO PUSH2 0xF6 JUMPI PUSH0 PUSH0 REVERT JUMPDEST POP PUSH2 0xFF PUSH2 0x38F JUMP JUMPDEST PUSH1 0x40 MLOAD PUSH2 0x10C SWAP2 SWAP1 PUSH2 0x1800 JUMP JUMPDEST PUSH1 0x40 MLOAD DUP1 SWAP2 SUB SWAP1 RETURN JUMPDEST PUSH2 0x11D PUSH2 0x3B4 JUMP JUMPDEST STOP JUMPDEST CALLVALUE DUP1 ISZERO PUSH2 0x12A JUMPI PUSH0 PUSH0 REVERT JUMPDEST POP PUSH2 0x145 PUSH1 0x4 DUP1 CALLDATASIZE SUB DUP2 ADD SWAP1 PUSH2 0x140 SWAP2 SWAP1 PUSH2 0x185D JUMP JUMPDEST PUSH2 0x3B6 JUMP JUMPDEST PUSH1 0x40 MLOAD PUSH2 0x152 SWAP2 SWAP1 PUSH2 0x19F1 JUMP JUMPDEST PUSH1 0x40 MLOAD DUP1 SWAP2 SUB SWAP1 RETURN JUMPDEST CALLVALUE DUP1 ISZERO PUSH2 0x166 JUMPI PUSH0 PUSH0 REVERT JUMPDEST POP PUSH2 0x181 PUSH1 0x4 DUP1 CALLDATASIZE SUB DUP2 ADD SWAP1 PUSH2 0x17C SWAP2 SWAP1 PUSH2 0x185D JUMP JUMPDEST PUSH2 0x63D JUMP JUMPDEST PUSH1 0x40 MLOAD PUSH2 0x18E SWAP2 SWAP1 PUSH2 0x1A20 JUMP JUMPDEST PUSH1 0x40 MLOAD DUP1 SWAP2 SUB SWAP1 RETURN JUMPDEST CALLVALUE DUP1 ISZERO PUSH2 0x1A2 JUMPI PUSH0 PUSH0 REVERT JUMPDEST POP PUSH2 0x1BD PUSH1 0x4 DUP1 CALLDATASIZE SUB DUP2 ADD SWAP1 PUSH2 0x1B8 SWAP2 SWAP1 PUSH2 0x185D JUMP JUMPDEST PUSH2 0x65D JUMP JUMPDEST PUSH1 0x40 MLOAD PUSH2 0x1D2 SWAP10 SWAP9 SWAP8 SWAP7 SWAP6 SWAP5 SWAP4 SWAP3 SWAP2 SWAP1 PUSH2 0x1A90 JUMP JUMPDEST PUSH1 0x40 MLOAD DUP1 SWAP2 SUB SWAP1 RETURN JUMPDEST PUSH2 0x1F5 PUSH1 0x4 DUP1 CALLDATASIZE SUB DUP2 ADD SWAP1 PUSH2 0x1F0 SWAP2 SWAP1 PUSH2 0x185D JUMP JUMPDEST PUSH2 0x845 JUMP JUMPDEST STOP JUMPDEST CALLVALUE DUP1 ISZERO PUSH2 0x202 JUMPI PUSH0 PUSH0 REVERT JUMPDEST POP PUSH2 0x20B PUSH2 0xD1C JUMP JUMPDEST PUSH1 0x40 MLOAD PUSH2 0x218 SWAP2 SWAP1 PUSH2 0x1A20 JUMP JUMPDEST PUSH1 0x40 MLOAD DUP1 SWAP2 SUB SWAP1 RETURN JUMPDEST CALLVALUE DUP1 ISZERO PUSH2 0x22C JUMPI PUSH0 PUSH0 REVERT JUMPDEST POP PUSH2 0x235 PUSH2 0xD22 JUMP JUMPDEST PUSH1 0x40 MLOAD PUSH2 0x242 SWAP2 SWAP1 PUSH2 0x1CBB JUMP JUMPDEST PUSH1 0x40 MLOAD DUP1 SWAP2 SUB SWAP1 RETURN JUMPDEST CALLVALUE DUP1 ISZERO PUSH2 0x256 JUMPI PUSH0 PUSH0 REVERT JUMPDEST POP PUSH2 0x271 PUSH1 0x4 DUP1 CALLDATASIZE SUB DUP2 ADD SWAP1 PUSH2 0x26C SWAP2 SWAP1 PUSH2 0x1CDB JUMP JUMPDEST PUSH2 0xFF9 JUMP JUMPDEST PUSH1 0x40 MLOAD PUSH2 0x27E SWAP2 SWAP1 PUSH2 0x1D39 JUMP JUMPDEST PUSH1 0x40 MLOAD DUP1 SWAP2 SUB SWAP1 RETURN JUMPDEST CALLVALUE DUP1 ISZERO PUSH2 0x292 JUMPI PUSH0 PUSH0 REVERT JUMPDEST POP PUSH2 0x2AD PUSH1 0x4 DUP1 CALLDATASIZE SUB DUP2 ADD SWAP1 PUSH2 0x2A8 SWAP2 SWAP1 PUSH2 0x1E7E JUMP JUMPDEST PUSH2 0x1041 JUMP JUMPDEST STOP JUMPDEST CALLVALUE DUP1 ISZERO PUSH2 0x2BA JUMPI PUSH0 PUSH0 REVERT JUMPDEST POP PUSH2 0x2C3 PUSH2 0x1448 JUMP JUMPDEST PUSH1 0x40 MLOAD PUSH2 0x2D0 SWAP2 SWAP1 PUSH2 0x1FB6 JUMP JUMPDEST PUSH1 0x40 MLOAD DUP1 SWAP2 SUB SWAP1 RETURN JUMPDEST CALLVALUE DUP1 ISZERO PUSH2 0x2E4 JUMPI PUSH0 PUSH0 REVERT JUMPDEST POP PUSH2 0x2FF PUSH1 0x4 DUP1 CALLDATASIZE SUB DUP2 ADD SWAP1 PUSH2 0x2FA SWAP2 SWAP1 PUSH2 0x185D JUMP JUMPDEST PUSH2 0x146D JUMP JUMPDEST STOP JUMPDEST CALLVALUE DUP1 ISZERO PUSH2 0x30C JUMPI PUSH0 PUSH0 REVERT JUMPDEST POP PUSH2 0x327 PUSH1 0x4 DUP1 CALLDATASIZE SUB DUP2 ADD SWAP1 PUSH2 0x322 SWAP2 SWAP1 PUSH2 0x1CDB JUMP JUMPDEST PUSH2 0x15F6 JUMP JUMPDEST STOP JUMPDEST CALLVALUE DUP1 ISZERO PUSH2 0x334 JUMPI PUSH0 PUSH0 REVERT JUMPDEST POP PUSH2 0x33D PUSH2 0x174A JUMP JUMPDEST PUSH1 0x40 MLOAD PUSH2 0x34A SWAP2 SWAP1 PUSH2 0x1A20 JUMP JUMPDEST PUSH1 0x40 MLOAD DUP1 SWAP2 SUB SWAP1 RETURN JUMPDEST CALLVALUE DUP1 ISZERO PUSH2 0x35E JUMPI PUSH0 PUSH0 REVERT JUMPDEST POP PUSH2 0x379 PUSH1 0x4 DUP1 CALLDATASIZE SUB DUP2 ADD SWAP1 PUSH2 0x374 SWAP2 SWAP1 PUSH2 0x1FF9 JUMP JUMPDEST PUSH2 0x174F JUMP JUMPDEST PUSH1 0x40 MLOAD PUSH2 0x386 SWAP2 SWAP1 PUSH2 0x2037 JUMP JUMPDEST PUSH1 0x40 MLOAD DUP1 SWAP2 SUB SWAP1 RETURN JUMPDEST PUSH1 0x2 PUSH0 SWAP1 SLOAD SWAP1 PUSH2 0x100 EXP SWAP1 DIV PUSH20 0xFFFFFFFFFFFFFFFFFFFFFFFFFFFFFFFFFFFFFFFF AND DUP2 JUMP JUMPDEST JUMP JUMPDEST PUSH2 0x3BE PUSH2 0x1779 JUMP JUMPDEST PUSH1 0x5 PUSH0 DUP4 DUP2 MSTORE PUSH1 0x20 ADD SWAP1 DUP2 MSTORE PUSH1 0x20 ADD PUSH0 KECCAK256 PUSH1 0x7 ADD PUSH0 SWAP1 SLOAD SWAP1 PUSH2 0x100 EXP SWAP1 DIV PUSH1 0xFF AND PUSH2 0x41E JUMPI PUSH1 0x40 MLOAD PUSH32 0x8C379A000000000000000000000000000000000000000000000000000000000 DUP2 MSTORE PUSH1 0x4 ADD PUSH2 0x415 SWAP1 PUSH2 0x209A JUMP JUMPDEST PUSH1 0x40 MLOAD DUP1 SWAP2 SUB SWAP1 REVERT JUMPDEST PUSH1 0x5 PUSH0 DUP4 DUP2 MSTORE PUSH1 0x20 ADD SWAP1 DUP2 MSTORE PUSH1 0x20 ADD PUSH0 KECCAK256 PUSH1 0x40 MLOAD DUP1 PUSH2 0x120 ADD PUSH1 0x40 MSTORE SWAP1 DUP2 PUSH0 DUP3 ADD SLOAD DUP2 MSTORE PUSH1 0x20 ADD PUSH1 0x1 DUP3 ADD DUP1 SLOAD PUSH2 0x454 SWAP1 PUSH2 0x20E5 JUMP JUMPDEST DUP1 PUSH1 0x1F ADD PUSH1 0x20 DUP1 SWAP2 DIV MUL PUSH1 0x20 ADD PUSH1 0x40 MLOAD SWAP1 DUP2 ADD PUSH1 0x40 MSTORE DUP1 SWAP3 SWAP2 SWAP1 DUP2 DUP2 MSTORE PUSH1 0x20 ADD DUP3 DUP1 SLOAD PUSH2 0x480 SWAP1 PUSH2 0x20E5 JUMP JUMPDEST DUP1 ISZERO PUSH2 0x4CB JUMPI DUP1 PUSH1 0x1F LT PUSH2 0x4A2 JUMPI PUSH2 0x100 DUP1 DUP4 SLOAD DIV MUL DUP4 MSTORE SWAP2 PUSH1 0x20 ADD SWAP2 PUSH2 0x4CB JUMP JUMPDEST DUP3 ADD SWAP2 SWAP1 PUSH0 MSTORE PUSH1 0x20 PUSH0 KECCAK256 SWAP1 JUMPDEST DUP2 SLOAD DUP2 MSTORE SWAP1 PUSH1 0x1 ADD SWAP1 PUSH1 0x20 ADD DUP1 DUP4 GT PUSH2 0x4AE JUMPI DUP3 SWAP1 SUB PUSH1 0x1F AND DUP3 ADD SWAP2 JUMPDEST POP POP POP POP POP DUP2 MSTORE PUSH1 0x20 ADD PUSH1 0x2 DUP3 ADD DUP1 SLOAD PUSH2 0x4E4 SWAP1 PUSH2 0x20E5 JUMP JUMPDEST DUP1 PUSH1 0x1F ADD PUSH1 0x20 DUP1 SWAP2 DIV MUL PUSH1 0x20 ADD PUSH1 0x40 MLOAD SWAP1 DUP2 ADD PUSH1 0x40 MSTORE DUP1 SWAP3 SWAP2 SWAP1 DUP2 DUP2 MSTORE PUSH1 0x20 ADD DUP3 DUP1 SLOAD PUSH2 0x510 SWAP1 PUSH2 0x20E5 JUMP JUMPDEST DUP1 ISZERO PUSH2 0x55B JUMPI DUP1 PUSH1 0x1F LT PUSH2 0x532 JUMPI PUSH2 0x100 DUP1 DUP4 SLOAD DIV MUL DUP4 MSTORE SWAP2 PUSH1 0x20 ADD SWAP2 PUSH2 0x55B JUMP JUMPDEST DUP3 ADD SWAP2 SWAP1 PUSH0 MSTORE PUSH1 0x20 PUSH0 KECCAK256 SWAP1 JUMPDEST DUP2 SLOAD DUP2 MSTORE SWAP1 PUSH1 0x1 ADD SWAP1 PUSH1 0x20 ADD DUP1 DUP4 GT PUSH2 0x53E JUMPI DUP3 SWAP1 SUB PUSH1 0x1F AND DUP3 ADD SWAP2 JUMPDEST POP POP POP POP POP DUP2 MSTORE PUSH1 0x20 ADD PUSH1 0x3 DUP3 ADD DUP1 SLOAD PUSH2 0x574 SWAP1 PUSH2 0x20E5 JUMP JUMPDEST DUP1 PUSH1 0x1F ADD PUSH1 0x20 DUP1 SWAP2 DIV MUL PUSH1 0x20 ADD PUSH1 0x40 MLOAD SWAP1 DUP2 ADD PUSH1 0x40 MSTORE DUP1 SWAP3 SWAP2 SWAP1 DUP2 DUP2 MSTORE PUSH1 0x20 ADD DUP3 DUP1 SLOAD PUSH2 0x5A0 SWAP1 PUSH2 0x20E5 JUMP JUMPDEST DUP1 ISZERO PUSH2 0x5EB JUMPI DUP1 PUSH1 0x1F LT PUSH2 0x5C2 JUMPI PUSH2 0x100 DUP1 DUP4 SLOAD DIV MUL DUP4 MSTORE SWAP2 PUSH1 0x20 ADD SWAP2 PUSH2 0x5EB JUMP JUMPDEST DUP3 ADD SWAP2 SWAP1 PUSH0 MSTORE PUSH1 0x20 PUSH0 KECCAK256 SWAP1 JUMPDEST DUP2 SLOAD DUP2 MSTORE SWAP1 PUSH1 0x1 ADD SWAP1 PUSH1 0x20 ADD DUP1 DUP4 GT PUSH2 0x5CE JUMPI DUP3 SWAP1 SUB PUSH1 0x1F AND DUP3 ADD SWAP2 JUMPDEST POP POP POP POP POP DUP2 MSTORE PUSH1 0x20 ADD PUSH1 0x4 DUP3 ADD SLOAD DUP2 MSTORE PUSH1 0x20 ADD PUSH1 0x5 DUP3 ADD SLOAD DUP2 MSTORE PUSH1 0x20 ADD PUSH1 0x6 DUP3 ADD SLOAD DUP2 MSTORE PUSH1 0x20 ADD PUSH1 0x7 DUP3 ADD PUSH0 SWAP1 SLOAD SWAP1 PUSH2 0x100 EXP SWAP1 DIV PUSH1 0xFF AND ISZERO ISZERO ISZERO ISZERO DUP2 MSTORE PUSH1 0x20 ADD PUSH1 0x8 DUP3 ADD SLOAD DUP2 MSTORE POP POP SWAP1 POP SWAP2 SWAP1 POP JUMP JUMPDEST PUSH1 0x4 DUP2 DUP2 SLOAD DUP2 LT PUSH2 0x64C JUMPI PUSH0 DUP1 REVERT JUMPDEST SWAP1 PUSH0 MSTORE PUSH1 0x20 PUSH0 KECCAK256 ADD PUSH0 SWAP2 POP SWAP1 POP SLOAD DUP2 JUMP JUMPDEST PUSH1 0x5 PUSH1 0x20 MSTORE DUP1 PUSH0 MSTORE PUSH1 0x40 PUSH0 KECCAK256 PUSH0 SWAP2 POP SWAP1 POP DUP1 PUSH0 ADD SLOAD SWAP1 DUP1 PUSH1 0x1 ADD DUP1 SLOAD PUSH2 0x682 SWAP1 PUSH2 0x20E5 JUMP JUMPDEST DUP1 PUSH1 0x1F ADD PUSH1 0x20 DUP1 SWAP2 DIV MUL PUSH1 0x20 ADD PUSH1 0x40 MLOAD SWAP1 DUP2 ADD PUSH1 0x40 MSTORE DUP1 SWAP3 SWAP2 SWAP1 DUP2 DUP2 MSTORE PUSH1 0x20 ADD DUP3 DUP1 SLOAD PUSH2 0x6AE SWAP1 PUSH2 0x20E5 JUMP JUMPDEST DUP1 ISZERO PUSH2 0x6F9 JUMPI DUP1 PUSH1 0x1F LT PUSH2 0x6D0 JUMPI PUSH2 0x100 DUP1 DUP4 SLOAD DIV MUL DUP4 MSTORE SWAP2 PUSH1 0x20 ADD SWAP2 PUSH2 0x6F9 JUMP JUMPDEST DUP3 ADD SWAP2 SWAP1 PUSH0 MSTORE PUSH1 0x20 PUSH0 KECCAK256 SWAP1 JUMPDEST DUP2 SLOAD DUP2 MSTORE SWAP1 PUSH1 0x1 ADD SWAP1 PUSH1 0x20 ADD DUP1 DUP4 GT PUSH2 0x6DC JUMPI DUP3 SWAP1 SUB PUSH1 0x1F AND DUP3 ADD SWAP2 JUMPDEST POP POP POP POP POP SWAP1 DUP1 PUSH1 0x2 ADD DUP1 SLOAD PUSH2 0x70E SWAP1 PUSH2 0x20E5 JUMP JUMPDEST DUP1 PUSH1 0x1F ADD PUSH1 0x20 DUP1 SWAP2 DIV MUL PUSH1 0x20 ADD PUSH1 0x40 MLOAD SWAP1 DUP2 ADD PUSH1 0x40 MSTORE DUP1 SWAP3 SWAP2 SWAP1 DUP2 DUP2 MSTORE PUSH1 0x20 ADD DUP3 DUP1 SLOAD PUSH2 0x73A SWAP1 PUSH2 0x20E5 JUMP JUMPDEST DUP1 ISZERO PUSH2 0x785 JUMPI DUP1 PUSH1 0x1F LT PUSH2 0x75C JUMPI PUSH2 0x100 DUP1 DUP4 SLOAD DIV MUL DUP4 MSTORE SWAP2 PUSH1 0x20 ADD SWAP2 PUSH2 0x785 JUMP JUMPDEST DUP3 ADD SWAP2 SWAP1 PUSH0 MSTORE PUSH1 0x20 PUSH0 KECCAK256 SWAP1 JUMPDEST DUP2 SLOAD DUP2 MSTORE SWAP1 PUSH1 0x1 ADD SWAP1 PUSH1 0x20 ADD DUP1 DUP4 GT PUSH2 0x768 JUMPI DUP3 SWAP1 SUB PUSH1 0x1F AND DUP3 ADD SWAP2 JUMPDEST POP POP POP POP POP SWAP1 DUP1 PUSH1 0x3 ADD DUP1 SLOAD PUSH2 0x79A SWAP1 PUSH2 0x20E5 JUMP JUMPDEST DUP1 PUSH1 0x1F ADD PUSH1 0x20 DUP1 SWAP2 DIV MUL PUSH1 0x20 ADD PUSH1 0x40 MLOAD SWAP1 DUP2 ADD PUSH1 0x40 MSTORE DUP1 SWAP3 SWAP2 SWAP1 DUP2 DUP2 MSTORE PUSH1 0x20 ADD DUP3 DUP1 SLOAD PUSH2 0x7C6 SWAP1 PUSH2 0x20E5 JUMP JUMPDEST DUP1 ISZERO PUSH2 0x811 JUMPI DUP1 PUSH1 0x1F LT PUSH2 0x7E8 JUMPI PUSH2 0x100 DUP1 DUP4 SLOAD DIV MUL DUP4 MSTORE SWAP2 PUSH1 0x20 ADD SWAP2 PUSH2 0x811 JUMP JUMPDEST DUP3 ADD SWAP2 SWAP1 PUSH0 MSTORE PUSH1 0x20 PUSH0 KECCAK256 SWAP1 JUMPDEST DUP2 SLOAD DUP2 MSTORE SWAP1 PUSH1 0x1 ADD SWAP1 PUSH1 0x20 ADD DUP1 DUP4 GT PUSH2 0x7F4 JUMPI DUP3 SWAP1 SUB PUSH1 0x1F AND DUP3 ADD SWAP2 JUMPDEST POP POP POP POP POP SWAP1 DUP1 PUSH1 0x4 ADD SLOAD SWAP1 DUP1 PUSH1 0x5 ADD SLOAD SWAP1 DUP1 PUSH1 0x6 ADD SLOAD SWAP1 DUP1 PUSH1 0x7 ADD PUSH0 SWAP1 SLOAD SWAP1 PUSH2 0x100 EXP SWAP1 DIV PUSH1 0xFF AND SWAP1 DUP1 PUSH1 0x8 ADD SLOAD SWAP1 POP DUP10 JUMP JUMPDEST PUSH1 0x5 PUSH0 DUP3 DUP2 MSTORE PUSH1 0x20 ADD SWAP1 DUP2 MSTORE PUSH1 0x20 ADD PUSH0 KECCAK256 PUSH1 0x7 ADD PUSH0 SWAP1 SLOAD SWAP1 PUSH2 0x100 EXP SWAP1 DIV PUSH1 0xFF AND PUSH2 0x8A5 JUMPI PUSH1 0x40 MLOAD PUSH32 0x8C379A000000000000000000000000000000000000000000000000000000000 DUP2 MSTORE PUSH1 0x4 ADD PUSH2 0x89C SWAP1 PUSH2 0x215F JUMP JUMPDEST PUSH1 0x40 MLOAD DUP1 SWAP2 SUB SWAP1 REVERT JUMPDEST PUSH0 PUSH1 0x5 PUSH0 DUP4 DUP2 MSTORE PUSH1 0x20 ADD SWAP1 DUP2 MSTORE PUSH1 0x20 ADD PUSH0 KECCAK256 PUSH1 0x4 ADD SLOAD GT PUSH2 0x8FB JUMPI PUSH1 0x40 MLOAD PUSH32 0x8C379A000000000000000000000000000000000000000000000000000000000 DUP2 MSTORE PUSH1 0x4 ADD PUSH2 0x8F2 SWAP1 PUSH2 0x21C7 JUMP JUMPDEST PUSH1 0x40 MLOAD DUP1 SWAP2 SUB SWAP1 REVERT JUMPDEST PUSH1 0x8 PUSH0 DUP3 DUP2 MSTORE PUSH1 0x20 ADD SWAP1 DUP2 MSTORE PUSH1 0x20 ADD PUSH0 KECCAK256 PUSH0 CALLER PUSH20 0xFFFFFFFFFFFFFFFFFFFFFFFFFFFFFFFFFFFFFFFF AND PUSH20 0xFFFFFFFFFFFFFFFFFFFFFFFFFFFFFFFFFFFFFFFF AND DUP2 MSTORE PUSH1 0x20 ADD SWAP1 DUP2 MSTORE PUSH1 0x20 ADD PUSH0 KECCAK256 PUSH0 SWAP1 SLOAD SWAP1 PUSH2 0x100 EXP SWAP1 DIV PUSH1 0xFF AND PUSH2 0x993 JUMPI PUSH1 0x40 MLOAD PUSH32 0x8C379A000000000000000000000000000000000000000000000000000000000 DUP2 MSTORE PUSH1 0x4 ADD PUSH2 0x98A SWAP1 PUSH2 0x222F JUMP JUMPDEST PUSH1 0x40 MLOAD DUP1 SWAP2 SUB SWAP1 REVERT JUMPDEST PUSH0 PUSH1 0x5 PUSH0 DUP4 DUP2 MSTORE PUSH1 0x20 ADD SWAP1 DUP2 MSTORE PUSH1 0x20 ADD PUSH0 KECCAK256 SWAP1 POP PUSH0 PUSH1 0x1 PUSH0 SWAP1 SLOAD SWAP1 PUSH2 0x100 EXP SWAP1 DIV PUSH20 0xFFFFFFFFFFFFFFFFFFFFFFFFFFFFFFFFFFFFFFFF AND PUSH20 0xFFFFFFFFFFFFFFFFFFFFFFFFFFFFFFFFFFFFFFFF AND PUSH4 0x506B27F0 CALLER PUSH1 0x40 MLOAD DUP3 PUSH4 0xFFFFFFFF AND PUSH1 0xE0 SHL DUP2 MSTORE PUSH1 0x4 ADD PUSH2 0xA02 SWAP2 SWAP1 PUSH2 0x1D39 JUMP JUMPDEST PUSH1 0x20 PUSH1 0x40 MLOAD DUP1 DUP4 SUB DUP2 DUP7 GAS STATICCALL ISZERO DUP1 ISZERO PUSH2 0xA1D JUMPI RETURNDATASIZE PUSH0 PUSH0 RETURNDATACOPY RETURNDATASIZE PUSH0 REVERT JUMPDEST POP POP POP POP PUSH1 0x40 MLOAD RETURNDATASIZE PUSH1 0x1F NOT PUSH1 0x1F DUP3 ADD AND DUP3 ADD DUP1 PUSH1 0x40 MSTORE POP DUP2 ADD SWAP1 PUSH2 0xA41 SWAP2 SWAP1 PUSH2 0x2277 JUMP JUMPDEST SWAP1 POP PUSH0 DUP2 PUSH2 0xA51 JUMPI PUSH1 0x3 SLOAD PUSH2 0xA57 JUMP JUMPDEST DUP3 PUSH1 0x6 ADD SLOAD JUMPDEST SWAP1 POP DUP1 CALLVALUE LT ISZERO PUSH2 0xA9C JUMPI PUSH1 0x40 MLOAD PUSH32 0x8C379A000000000000000000000000000000000000000000000000000000000 DUP2 MSTORE PUSH1 0x4 ADD PUSH2 0xA93 SWAP1 PUSH2 0x22EC JUMP JUMPDEST PUSH1 0x40 MLOAD DUP1 SWAP2 SUB SWAP1 REVERT JUMPDEST PUSH1 0x1 PUSH1 0x8 PUSH0 DUP7 DUP2 MSTORE PUSH1 0x20 ADD SWAP1 DUP2 MSTORE PUSH1 0x20 ADD PUSH0 KECCAK256 PUSH0 CALLER PUSH20 0xFFFFFFFFFFFFFFFFFFFFFFFFFFFFFFFFFFFFFFFF AND PUSH20 0xFFFFFFFFFFFFFFFFFFFFFFFFFFFFFFFFFFFFFFFF AND DUP2 MSTORE PUSH1 0x20 ADD SWAP1 DUP2 MSTORE PUSH1 0x20 ADD PUSH0 KECCAK256 PUSH0 PUSH2 0x100 EXP DUP2 SLOAD DUP2 PUSH1 0xFF MUL NOT AND SWAP1 DUP4 ISZERO ISZERO MUL OR SWAP1 SSTORE POP PUSH1 0x7 PUSH0 DUP6 DUP2 MSTORE PUSH1 0x20 ADD SWAP1 DUP2 MSTORE PUSH1 0x20 ADD PUSH0 KECCAK256 CALLER SWAP1 DUP1 PUSH1 0x1 DUP2 SLOAD ADD DUP1 DUP3 SSTORE DUP1 SWAP2 POP POP PUSH1 0x1 SWAP1 SUB SWAP1 PUSH0 MSTORE PUSH1 0x20 PUSH0 KECCAK256 ADD PUSH0 SWAP1 SWAP2 SWAP1 SWAP2 SWAP1 SWAP2 PUSH2 0x100 EXP DUP2 SLOAD DUP2 PUSH20 0xFFFFFFFFFFFFFFFFFFFFFFFFFFFFFFFFFFFFFFFF MUL NOT AND SWAP1 DUP4 PUSH20 0xFFFFFFFFFFFFFFFFFFFFFFFFFFFFFFFFFFFFFFFF AND MUL OR SWAP1 SSTORE POP PUSH1 0x1 DUP4 PUSH1 0x4 ADD PUSH0 DUP3 DUP3 SLOAD PUSH2 0xB83 SWAP2 SWAP1 PUSH2 0x2337 JUMP JUMPDEST SWAP3 POP POP DUP2 SWAP1 SSTORE POP PUSH0 PUSH1 0x2 PUSH0 SWAP1 SLOAD SWAP1 PUSH2 0x100 EXP SWAP1 DIV PUSH20 0xFFFFFFFFFFFFFFFFFFFFFFFFFFFFFFFFFFFFFFFF AND PUSH20 0xFFFFFFFFFFFFFFFFFFFFFFFFFFFFFFFFFFFFFFFF AND DUP3 PUSH1 0x40 MLOAD PUSH2 0xBD0 SWAP1 PUSH2 0x2397 JUMP JUMPDEST PUSH0 PUSH1 0x40 MLOAD DUP1 DUP4 SUB DUP2 DUP6 DUP8 GAS CALL SWAP3 POP POP POP RETURNDATASIZE DUP1 PUSH0 DUP2 EQ PUSH2 0xC0A JUMPI PUSH1 0x40 MLOAD SWAP2 POP PUSH1 0x1F NOT PUSH1 0x3F RETURNDATASIZE ADD AND DUP3 ADD PUSH1 0x40 MSTORE RETURNDATASIZE DUP3 MSTORE RETURNDATASIZE PUSH0 PUSH1 0x20 DUP5 ADD RETURNDATACOPY PUSH2 0xC0F JUMP JUMPDEST PUSH1 0x60 SWAP2 POP JUMPDEST POP POP SWAP1 POP DUP1 PUSH2 0xC53 JUMPI PUSH1 0x40 MLOAD PUSH32 0x8C379A000000000000000000000000000000000000000000000000000000000 DUP2 MSTORE PUSH1 0x4 ADD PUSH2 0xC4A SWAP1 PUSH2 0x23F5 JUMP JUMPDEST PUSH1 0x40 MLOAD DUP1 SWAP2 SUB SWAP1 REVERT JUMPDEST PUSH0 DUP3 CALLVALUE PUSH2 0xC60 SWAP2 SWAP1 PUSH2 0x2337 JUMP JUMPDEST SWAP1 POP PUSH0 DUP2 GT ISZERO PUSH2 0xD14 JUMPI PUSH0 CALLER PUSH20 0xFFFFFFFFFFFFFFFFFFFFFFFFFFFFFFFFFFFFFFFF AND DUP3 PUSH1 0x40 MLOAD PUSH2 0xC8F SWAP1 PUSH2 0x2397 JUMP JUMPDEST PUSH0 PUSH1 0x40 MLOAD DUP1 DUP4 SUB DUP2 DUP6 DUP8 GAS CALL SWAP3 POP POP POP RETURNDATASIZE DUP1 PUSH0 DUP2 EQ PUSH2 0xCC9 JUMPI PUSH1 0x40 MLOAD SWAP2 POP PUSH1 0x1F NOT PUSH1 0x3F RETURNDATASIZE ADD AND DUP3 ADD PUSH1 0x40 MSTORE RETURNDATASIZE DUP3 MSTORE RETURNDATASIZE PUSH0 PUSH1 0x20 DUP5 ADD RETURNDATACOPY PUSH2 0xCCE JUMP JUMPDEST PUSH1 0x60 SWAP2 POP JUMPDEST POP POP SWAP1 POP DUP1 PUSH2 0xD12 JUMPI PUSH1 0x40 MLOAD PUSH32 0x8C379A000000000000000000000000000000000000000000000000000000000 DUP2 MSTORE PUSH1 0x4 ADD PUSH2 0xD09 SWAP1 PUSH2 0x245D JUMP JUMPDEST PUSH1 0x40 MLOAD DUP1 SWAP2 SUB SWAP1 REVERT JUMPDEST POP JUMPDEST POP POP POP POP POP POP JUMP JUMPDEST PUSH1 0x3 SLOAD DUP2 JUMP JUMPDEST PUSH1 0x60 PUSH0 PUSH1 0x4 DUP1 SLOAD SWAP1 POP PUSH8 0xFFFFFFFFFFFFFFFF DUP2 GT ISZERO PUSH2 0xD44 JUMPI PUSH2 0xD43 PUSH2 0x1D5A JUMP JUMPDEST JUMPDEST PUSH1 0x40 MLOAD SWAP1 DUP1 DUP3 MSTORE DUP1 PUSH1 0x20 MUL PUSH1 0x20 ADD DUP3 ADD PUSH1 0x40 MSTORE DUP1 ISZERO PUSH2 0xD7D JUMPI DUP2 PUSH1 0x20 ADD JUMPDEST PUSH2 0xD6A PUSH2 0x1779 JUMP JUMPDEST DUP2 MSTORE PUSH1 0x20 ADD SWAP1 PUSH1 0x1 SWAP1 SUB SWAP1 DUP2 PUSH2 0xD62 JUMPI SWAP1 POP JUMPDEST POP SWAP1 POP PUSH0 PUSH0 SWAP1 POP JUMPDEST PUSH1 0x4 DUP1 SLOAD SWAP1 POP DUP2 LT ISZERO PUSH2 0xFF1 JUMPI PUSH1 0x5 PUSH0 PUSH1 0x4 DUP4 DUP2 SLOAD DUP2 LT PUSH2 0xDA9 JUMPI PUSH2 0xDA8 PUSH2 0x247B JUMP JUMPDEST JUMPDEST SWAP1 PUSH0 MSTORE PUSH1 0x20 PUSH0 KECCAK256 ADD SLOAD DUP2 MSTORE PUSH1 0x20 ADD SWAP1 DUP2 MSTORE PUSH1 0x20 ADD PUSH0 KECCAK256 PUSH1 0x40 MLOAD DUP1 PUSH2 0x120 ADD PUSH1 0x40 MSTORE SWAP1 DUP2 PUSH0 DUP3 ADD SLOAD DUP2 MSTORE PUSH1 0x20 ADD PUSH1 0x1 DUP3 ADD DUP1 SLOAD PUSH2 0xDE4 SWAP1 PUSH2 0x20E5 JUMP JUMPDEST DUP1 PUSH1 0x1F ADD PUSH1 0x20 DUP1 SWAP2 DIV MUL PUSH1 0x20 ADD PUSH1 0x40 MLOAD SWAP1 DUP2 ADD PUSH1 0x40 MSTORE DUP1 SWAP3 SWAP2 SWAP1 DUP2 DUP2 MSTORE PUSH1 0x20 ADD DUP3 DUP1 SLOAD PUSH2 0xE10 SWAP1 PUSH2 0x20E5 JUMP JUMPDEST DUP1 ISZERO PUSH2 0xE5B JUMPI DUP1 PUSH1 0x1F LT PUSH2 0xE32 JUMPI PUSH2 0x100 DUP1 DUP4 SLOAD DIV MUL DUP4 MSTORE SWAP2 PUSH1 0x20 ADD SWAP2 PUSH2 0xE5B JUMP JUMPDEST DUP3 ADD SWAP2 SWAP1 PUSH0 MSTORE PUSH1 0x20 PUSH0 KECCAK256 SWAP1 JUMPDEST DUP2 SLOAD DUP2 MSTORE SWAP1 PUSH1 0x1 ADD SWAP1 PUSH1 0x20 ADD DUP1 DUP4 GT PUSH2 0xE3E JUMPI DUP3 SWAP1 SUB PUSH1 0x1F AND DUP3 ADD SWAP2 JUMPDEST POP POP POP POP POP DUP2 MSTORE PUSH1 0x20 ADD PUSH1 0x2 DUP3 ADD DUP1 SLOAD PUSH2 0xE74 SWAP1 PUSH2 0x20E5 JUMP JUMPDEST DUP1 PUSH1 0x1F ADD PUSH1 0x20 DUP1 SWAP2 DIV MUL PUSH1 0x20 ADD PUSH1 0x40 MLOAD SWAP1 DUP2 ADD PUSH1 0x40 MSTORE DUP1 SWAP3 SWAP2 SWAP1 DUP2 DUP2 MSTORE PUSH1 0x20 ADD DUP3 DUP1 SLOAD PUSH2 0xEA0 SWAP1 PUSH2 0x20E5 JUMP JUMPDEST DUP1 ISZERO PUSH2 0xEEB JUMPI DUP1 PUSH1 0x1F LT PUSH2 0xEC2 JUMPI PUSH2 0x100 DUP1 DUP4 SLOAD DIV MUL DUP4 MSTORE SWAP2 PUSH1 0x20 ADD SWAP2 PUSH2 0xEEB JUMP JUMPDEST DUP3 ADD SWAP2 SWAP1 PUSH0 MSTORE PUSH1 0x20 PUSH0 KECCAK256 SWAP1 JUMPDEST DUP2 SLOAD DUP2 MSTORE SWAP1 PUSH1 0x1 ADD SWAP1 PUSH1 0x20 ADD DUP1 DUP4 GT PUSH2 0xECE JUMPI DUP3 SWAP1 SUB PUSH1 0x1F AND DUP3 ADD SWAP2 JUMPDEST POP POP POP POP POP DUP2 MSTORE PUSH1 0x20 ADD PUSH1 0x3 DUP3 ADD DUP1 SLOAD PUSH2 0xF04 SWAP1 PUSH2 0x20E5 JUMP JUMPDEST DUP1 PUSH1 0x1F ADD PUSH1 0x20 DUP1 SWAP2 DIV MUL PUSH1 0x20 ADD PUSH1 0x40 MLOAD SWAP1 DUP2 ADD PUSH1 0x40 MSTORE DUP1 SWAP3 SWAP2 SWAP1 DUP2 DUP2 MSTORE PUSH1 0x20 ADD DUP3 DUP1 SLOAD PUSH2 0xF30 SWAP1 PUSH2 0x20E5 JUMP JUMPDEST DUP1 ISZERO PUSH2 0xF7B JUMPI DUP1 PUSH1 0x1F LT PUSH2 0xF52 JUMPI PUSH2 0x100 DUP1 DUP4 SLOAD DIV MUL DUP4 MSTORE SWAP2 PUSH1 0x20 ADD SWAP2 PUSH2 0xF7B JUMP JUMPDEST DUP3 ADD SWAP2 SWAP1 PUSH0 MSTORE PUSH1 0x20 PUSH0 KECCAK256 SWAP1 JUMPDEST DUP2 SLOAD DUP2 MSTORE SWAP1 PUSH1 0x1 ADD SWAP1 PUSH1 0x20 ADD DUP1 DUP4 GT PUSH2 0xF5E JUMPI DUP3 SWAP1 SUB PUSH1 0x1F AND DUP3 ADD SWAP2 JUMPDEST POP POP POP POP POP DUP2 MSTORE PUSH1 0x20 ADD PUSH1 0x4 DUP3 ADD SLOAD DUP2 MSTORE PUSH1 0x20 ADD PUSH1 0x5 DUP3 ADD SLOAD DUP2 MSTORE PUSH1 0x20 ADD PUSH1 0x6 DUP3 ADD SLOAD DUP2 MSTORE PUSH1 0x20 ADD PUSH1 0x7 DUP3 ADD PUSH0 SWAP1 SLOAD SWAP1 PUSH2 0x100 EXP SWAP1 DIV PUSH1 0xFF AND ISZERO ISZERO ISZERO ISZERO DUP2 MSTORE PUSH1 0x20 ADD PUSH1 0x8 DUP3 ADD SLOAD DUP2 MSTORE POP POP DUP3 DUP3 DUP2 MLOAD DUP2 LT PUSH2 0xFD9 JUMPI PUSH2 0xFD8 PUSH2 0x247B JUMP JUMPDEST JUMPDEST PUSH1 0x20 MUL PUSH1 0x20 ADD ADD DUP2 SWAP1 MSTORE POP DUP1 DUP1 PUSH1 0x1 ADD SWAP2 POP POP PUSH2 0xD85 JUMP JUMPDEST POP DUP1 SWAP2 POP POP SWAP1 JUMP JUMPDEST PUSH1 0x7 PUSH1 0x20 MSTORE DUP2 PUSH0 MSTORE PUSH1 0x40 PUSH0 KECCAK256 DUP2 DUP2 SLOAD DUP2 LT PUSH2 0x1012 JUMPI PUSH0 DUP1 REVERT JUMPDEST SWAP1 PUSH0 MSTORE PUSH1 0x20 PUSH0 KECCAK256 ADD PUSH0 SWAP2 POP SWAP2 POP SWAP1 SLOAD SWAP1 PUSH2 0x100 EXP SWAP1 DIV PUSH20 0xFFFFFFFFFFFFFFFFFFFFFFFFFFFFFFFFFFFFFFFF AND DUP2 JUMP JUMPDEST PUSH1 0x2 PUSH0 SWAP1 SLOAD SWAP1 PUSH2 0x100 EXP SWAP1 DIV PUSH20 0xFFFFFFFFFFFFFFFFFFFFFFFFFFFFFFFFFFFFFFFF AND PUSH20 0xFFFFFFFFFFFFFFFFFFFFFFFFFFFFFFFFFFFFFFFF AND CALLER PUSH20 0xFFFFFFFFFFFFFFFFFFFFFFFFFFFFFFFFFFFFFFFF AND EQ PUSH2 0x10D0 JUMPI PUSH1 0x40 MLOAD PUSH32 0x8C379A000000000000000000000000000000000000000000000000000000000 DUP2 MSTORE PUSH1 0x4 ADD PUSH2 0x10C7 SWAP1 PUSH2 0x24F2 JUMP JUMPDEST PUSH1 0x40 MLOAD DUP1 SWAP2 SUB SWAP1 REVERT JUMPDEST PUSH0 DUP7 MLOAD GT PUSH2 0x1113 JUMPI PUSH1 0x40 MLOAD PUSH32 0x8C379A000000000000000000000000000000000000000000000000000000000 DUP2 MSTORE PUSH1 0x4 ADD PUSH2 0x110A SWAP1 PUSH2 0x255A JUMP JUMPDEST PUSH1 0x40 MLOAD DUP1 SWAP2 SUB SWAP1 REVERT JUMPDEST PUSH0 DUP6 MLOAD GT PUSH2 0x1156 JUMPI PUSH1 0x40 MLOAD PUSH32 0x8C379A000000000000000000000000000000000000000000000000000000000 DUP2 MSTORE PUSH1 0x4 ADD PUSH2 0x114D SWAP1 PUSH2 0x25C2 JUMP JUMPDEST PUSH1 0x40 MLOAD DUP1 SWAP2 SUB SWAP1 REVERT JUMPDEST PUSH0 DUP5 MLOAD GT PUSH2 0x1199 JUMPI PUSH1 0x40 MLOAD PUSH32 0x8C379A000000000000000000000000000000000000000000000000000000000 DUP2 MSTORE PUSH1 0x4 ADD PUSH2 0x1190 SWAP1 PUSH2 0x262A JUMP JUMPDEST PUSH1 0x40 MLOAD DUP1 SWAP2 SUB SWAP1 REVERT JUMPDEST PUSH0 DUP4 GT PUSH2 0x11DB JUMPI PUSH1 0x40 MLOAD PUSH32 0x8C379A000000000000000000000000000000000000000000000000000000000 DUP2 MSTORE PUSH1 0x4 ADD PUSH2 0x11D2 SWAP1 PUSH2 0x2692 JUMP JUMPDEST PUSH1 0x40 MLOAD DUP1 SWAP2 SUB SWAP1 REVERT JUMPDEST PUSH0 DUP3 GT PUSH2 0x121D JUMPI PUSH1 0x40 MLOAD PUSH32 0x8C379A000000000000000000000000000000000000000000000000000000000 DUP2 MSTORE PUSH1 0x4 ADD PUSH2 0x1214 SWAP1 PUSH2 0x26FA JUMP JUMPDEST PUSH1 0x40 MLOAD DUP1 SWAP2 SUB SWAP1 REVERT JUMPDEST PUSH0 DUP2 GT PUSH2 0x125F JUMPI PUSH1 0x40 MLOAD PUSH32 0x8C379A000000000000000000000000000000000000000000000000000000000 DUP2 MSTORE PUSH1 0x4 ADD PUSH2 0x1256 SWAP1 PUSH2 0x26FA JUMP JUMPDEST PUSH1 0x40 MLOAD DUP1 SWAP2 SUB SWAP1 REVERT JUMPDEST PUSH0 DUP7 DUP7 PUSH1 0x40 MLOAD PUSH1 0x20 ADD PUSH2 0x1273 SWAP3 SWAP2 SWAP1 PUSH2 0x2752 JUMP JUMPDEST PUSH1 0x40 MLOAD PUSH1 0x20 DUP2 DUP4 SUB SUB DUP2 MSTORE SWAP1 PUSH1 0x40 MSTORE DUP1 MLOAD SWAP1 PUSH1 0x20 ADD KECCAK256 SWAP1 POP PUSH1 0x6 PUSH0 DUP3 DUP2 MSTORE PUSH1 0x20 ADD SWAP1 DUP2 MSTORE PUSH1 0x20 ADD PUSH0 KECCAK256 PUSH0 SWAP1 SLOAD SWAP1 PUSH2 0x100 EXP SWAP1 DIV PUSH1 0xFF AND ISZERO PUSH2 0x12E9 JUMPI PUSH1 0x40 MLOAD PUSH32 0x8C379A000000000000000000000000000000000000000000000000000000000 DUP2 MSTORE PUSH1 0x4 ADD PUSH2 0x12E0 SWAP1 PUSH2 0x27E5 JUMP JUMPDEST PUSH1 0x40 MLOAD DUP1 SWAP2 SUB SWAP1 REVERT JUMPDEST PUSH1 0x1 PUSH1 0x6 PUSH0 DUP4 DUP2 MSTORE PUSH1 0x20 ADD SWAP1 DUP2 MSTORE PUSH1 0x20 ADD PUSH0 KECCAK256 PUSH0 PUSH2 0x100 EXP DUP2 SLOAD DUP2 PUSH1 0xFF MUL NOT AND SWAP1 DUP4 ISZERO ISZERO MUL OR SWAP1 SSTORE POP PUSH1 0x1 PUSH0 PUSH0 DUP3 DUP3 SLOAD PUSH2 0x1323 SWAP2 SWAP1 PUSH2 0x2803 JUMP JUMPDEST SWAP3 POP POP DUP2 SWAP1 SSTORE POP PUSH0 PUSH0 SLOAD SWAP1 POP PUSH1 0x40 MLOAD DUP1 PUSH2 0x120 ADD PUSH1 0x40 MSTORE DUP1 DUP3 DUP2 MSTORE PUSH1 0x20 ADD DUP10 DUP2 MSTORE PUSH1 0x20 ADD DUP9 DUP2 MSTORE PUSH1 0x20 ADD DUP8 DUP2 MSTORE PUSH1 0x20 ADD DUP7 DUP2 MSTORE PUSH1 0x20 ADD DUP6 DUP2 MSTORE PUSH1 0x20 ADD DUP5 DUP2 MSTORE PUSH1 0x20 ADD PUSH1 0x1 ISZERO ISZERO DUP2 MSTORE PUSH1 0x20 ADD TIMESTAMP DUP2 MSTORE POP PUSH1 0x5 PUSH0 DUP4 DUP2 MSTORE PUSH1 0x20 ADD SWAP1 DUP2 MSTORE PUSH1 0x20 ADD PUSH0 KECCAK256 PUSH0 DUP3 ADD MLOAD DUP2 PUSH0 ADD SSTORE PUSH1 0x20 DUP3 ADD MLOAD DUP2 PUSH1 0x1 ADD SWAP1 DUP2 PUSH2 0x13A0 SWAP2 SWAP1 PUSH2 0x29CD JUMP JUMPDEST POP PUSH1 0x40 DUP3 ADD MLOAD DUP2 PUSH1 0x2 ADD SWAP1 DUP2 PUSH2 0x13B6 SWAP2 SWAP1 PUSH2 0x29CD JUMP JUMPDEST POP PUSH1 0x60 DUP3 ADD MLOAD DUP2 PUSH1 0x3 ADD SWAP1 DUP2 PUSH2 0x13CC SWAP2 SWAP1 PUSH2 0x29CD JUMP JUMPDEST POP PUSH1 0x80 DUP3 ADD MLOAD DUP2 PUSH1 0x4 ADD SSTORE PUSH1 0xA0 DUP3 ADD MLOAD DUP2 PUSH1 0x5 ADD SSTORE PUSH1 0xC0 DUP3 ADD MLOAD DUP2 PUSH1 0x6 ADD SSTORE PUSH1 0xE0 DUP3 ADD MLOAD DUP2 PUSH1 0x7 ADD PUSH0 PUSH2 0x100 EXP DUP2 SLOAD DUP2 PUSH1 0xFF MUL NOT AND SWAP1 DUP4 ISZERO ISZERO MUL OR SWAP1 SSTORE POP PUSH2 0x100 DUP3 ADD MLOAD DUP2 PUSH1 0x8 ADD SSTORE SWAP1 POP POP PUSH1 0x4 DUP2 SWAP1 DUP1 PUSH1 0x1 DUP2 SLOAD ADD DUP1 DUP3 SSTORE DUP1 SWAP2 POP POP PUSH1 0x1 SWAP1 SUB SWAP1 PUSH0 MSTORE PUSH1 0x20 PUSH0 KECCAK256 ADD PUSH0 SWAP1 SWAP2 SWAP1 SWAP2 SWAP1 SWAP2 POP SSTORE POP POP POP POP POP POP POP POP JUMP JUMPDEST PUSH1 0x1 PUSH0 SWAP1 SLOAD SWAP1 PUSH2 0x100 EXP SWAP1 DIV PUSH20 0xFFFFFFFFFFFFFFFFFFFFFFFFFFFFFFFFFFFFFFFF AND DUP2 JUMP JUMPDEST PUSH1 0x5 PUSH0 DUP3 DUP2 MSTORE PUSH1 0x20 ADD SWAP1 DUP2 MSTORE PUSH1 0x20 ADD PUSH0 KECCAK256 PUSH1 0x7 ADD PUSH0 SWAP1 SLOAD SWAP1 PUSH2 0x100 EXP SWAP1 DIV PUSH1 0xFF AND PUSH2 0x14CD JUMPI PUSH1 0x40 MLOAD PUSH32 0x8C379A000000000000000000000000000000000000000000000000000000000 DUP2 MSTORE PUSH1 0x4 ADD PUSH2 0x14C4 SWAP1 PUSH2 0x209A JUMP JUMPDEST PUSH1 0x40 MLOAD DUP1 SWAP2 SUB SWAP1 REVERT JUMPDEST PUSH1 0x8 PUSH0 DUP3 DUP2 MSTORE PUSH1 0x20 ADD SWAP1 DUP2 MSTORE PUSH1 0x20 ADD PUSH0 KECCAK256 PUSH0 CALLER PUSH20 0xFFFFFFFFFFFFFFFFFFFFFFFFFFFFFFFFFFFFFFFF AND PUSH20 0xFFFFFFFFFFFFFFFFFFFFFFFFFFFFFFFFFFFFFFFF AND DUP2 MSTORE PUSH1 0x20 ADD SWAP1 DUP2 MSTORE PUSH1 0x20 ADD PUSH0 KECCAK256 PUSH0 SWAP1 SLOAD SWAP1 PUSH2 0x100 EXP SWAP1 DIV PUSH1 0xFF AND PUSH2 0x1565 JUMPI PUSH1 0x40 MLOAD PUSH32 0x8C379A000000000000000000000000000000000000000000000000000000000 DUP2 MSTORE PUSH1 0x4 ADD PUSH2 0x155C SWAP1 PUSH2 0x2AE6 JUMP JUMPDEST PUSH1 0x40 MLOAD DUP1 SWAP2 SUB SWAP1 REVERT JUMPDEST PUSH0 PUSH1 0x8 PUSH0 DUP4 DUP2 MSTORE PUSH1 0x20 ADD SWAP1 DUP2 MSTORE PUSH1 0x20 ADD PUSH0 KECCAK256 PUSH0 CALLER PUSH20 0xFFFFFFFFFFFFFFFFFFFFFFFFFFFFFFFFFFFFFFFF AND PUSH20 0xFFFFFFFFFFFFFFFFFFFFFFFFFFFFFFFFFFFFFFFF AND DUP2 MSTORE PUSH1 0x20 ADD SWAP1 DUP2 MSTORE PUSH1 0x20 ADD PUSH0 KECCAK256 PUSH0 PUSH2 0x100 EXP DUP2 SLOAD DUP2 PUSH1 0xFF MUL NOT AND SWAP1 DUP4 ISZERO ISZERO MUL OR SWAP1 SSTORE POP PUSH1 0x1 PUSH1 0x5 PUSH0 DUP4 DUP2 MSTORE PUSH1 0x20 ADD SWAP1 DUP2 MSTORE PUSH1 0x20 ADD PUSH0 KECCAK256 PUSH1 0x4 ADD PUSH0 DUP3 DUP3 SLOAD PUSH2 0x15EC SWAP2 SWAP1 PUSH2 0x2803 JUMP JUMPDEST SWAP3 POP POP DUP2 SWAP1 SSTORE POP POP JUMP JUMPDEST PUSH1 0x2 PUSH0 SWAP1 SLOAD SWAP1 PUSH2 0x100 EXP SWAP1 DIV PUSH20 0xFFFFFFFFFFFFFFFFFFFFFFFFFFFFFFFFFFFFFFFF AND PUSH20 0xFFFFFFFFFFFFFFFFFFFFFFFFFFFFFFFFFFFFFFFF AND CALLER PUSH20 0xFFFFFFFFFFFFFFFFFFFFFFFFFFFFFFFFFFFFFFFF AND EQ PUSH2 0x1685 JUMPI PUSH1 0x40 MLOAD PUSH32 0x8C379A000000000000000000000000000000000000000000000000000000000 DUP2 MSTORE PUSH1 0x4 ADD PUSH2 0x167C SWAP1 PUSH2 0x24F2 JUMP JUMPDEST PUSH1 0x40 MLOAD DUP1 SWAP2 SUB SWAP1 REVERT JUMPDEST PUSH0 DUP2 GT PUSH2 0x16C7 JUMPI PUSH1 0x40 MLOAD PUSH32 0x8C379A000000000000000000000000000000000000000000000000000000000 DUP2 MSTORE PUSH1 0x4 ADD PUSH2 0x16BE SWAP1 PUSH2 0x2692 JUMP JUMPDEST PUSH1 0x40 MLOAD DUP1 SWAP2 SUB SWAP1 REVERT JUMPDEST PUSH0 PUSH1 0x5 PUSH0 DUP5 DUP2 MSTORE PUSH1 0x20 ADD SWAP1 DUP2 MSTORE PUSH1 0x20 ADD PUSH0 KECCAK256 SWAP1 POP DUP1 PUSH1 0x7 ADD PUSH0 SWAP1 SLOAD SWAP1 PUSH2 0x100 EXP SWAP1 DIV PUSH1 0xFF AND PUSH2 0x172B JUMPI PUSH1 0x40 MLOAD PUSH32 0x8C379A000000000000000000000000000000000000000000000000000000000 DUP2 MSTORE PUSH1 0x4 ADD PUSH2 0x1722 SWAP1 PUSH2 0x209A JUMP JUMPDEST PUSH1 0x40 MLOAD DUP1 SWAP2 SUB SWAP1 REVERT JUMPDEST DUP2 DUP2 PUSH1 0x4 ADD PUSH0 DUP3 DUP3 SLOAD PUSH2 0x173E SWAP2 SWAP1 PUSH2 0x2803 JUMP JUMPDEST SWAP3 POP POP DUP2 SWAP1 SSTORE POP POP POP POP JUMP JUMPDEST PUSH0 SLOAD DUP2 JUMP JUMPDEST PUSH1 0x8 PUSH1 0x20 MSTORE DUP2 PUSH0 MSTORE PUSH1 0x40 PUSH0 KECCAK256 PUSH1 0x20 MSTORE DUP1 PUSH0 MSTORE PUSH1 0x40 PUSH0 KECCAK256 PUSH0 SWAP2 POP SWAP2 POP SWAP1 SLOAD SWAP1 PUSH2 0x100 EXP SWAP1 DIV PUSH1 0xFF AND DUP2 JUMP JUMPDEST PUSH1 0x40 MLOAD DUP1 PUSH2 0x120 ADD PUSH1 0x40 MSTORE DUP1 PUSH0 DUP2 MSTORE PUSH1 0x20 ADD PUSH1 0x60 DUP2 MSTORE PUSH1 0x20 ADD PUSH1 0x60 DUP2 MSTORE PUSH1 0x20 ADD PUSH1 0x60 DUP2 MSTORE PUSH1 0x20 ADD PUSH0 DUP2 MSTORE PUSH1 0x20 ADD PUSH0 DUP2 MSTORE PUSH1 0x20 ADD PUSH0 DUP2 MSTORE PUSH1 0x20 ADD PUSH0 ISZERO ISZERO DUP2 MSTORE PUSH1 0x20 ADD PUSH0 DUP2 MSTORE POP SWAP1 JUMP JUMPDEST PUSH0 PUSH20 0xFFFFFFFFFFFFFFFFFFFFFFFFFFFFFFFFFFFFFFFF DUP3 AND SWAP1 POP SWAP2 SWAP1 POP JUMP JUMPDEST PUSH0 PUSH2 0x17EA DUP3 PUSH2 0x17C1 JUMP JUMPDEST SWAP1 POP SWAP2 SWAP1 POP JUMP JUMPDEST PUSH2 0x17FA DUP2 PUSH2 0x17E0 JUMP JUMPDEST DUP3 MSTORE POP POP JUMP JUMPDEST PUSH0 PUSH1 0x20 DUP3 ADD SWAP1 POP PUSH2 0x1813 PUSH0 DUP4 ADD DUP5 PUSH2 0x17F1 JUMP JUMPDEST SWAP3 SWAP2 POP POP JUMP JUMPDEST PUSH0 PUSH1 0x40 MLOAD SWAP1 POP SWAP1 JUMP JUMPDEST PUSH0 PUSH0 REVERT JUMPDEST PUSH0 PUSH0 REVERT JUMPDEST PUSH0 DUP2 SWAP1 POP SWAP2 SWAP1 POP JUMP JUMPDEST PUSH2 0x183C DUP2 PUSH2 0x182A JUMP JUMPDEST DUP2 EQ PUSH2 0x1846 JUMPI PUSH0 PUSH0 REVERT JUMPDEST POP JUMP JUMPDEST PUSH0 DUP2 CALLDATALOAD SWAP1 POP PUSH2 0x1857 DUP2 PUSH2 0x1833 JUMP JUMPDEST SWAP3 SWAP2 POP POP JUMP JUMPDEST PUSH0 PUSH1 0x20 DUP3 DUP5 SUB SLT ISZERO PUSH2 0x1872 JUMPI PUSH2 0x1871 PUSH2 0x1822 JUMP JUMPDEST JUMPDEST PUSH0 PUSH2 0x187F DUP5 DUP3 DUP6 ADD PUSH2 0x1849 JUMP JUMPDEST SWAP2 POP POP SWAP3 SWAP2 POP POP JUMP JUMPDEST PUSH2 0x1891 DUP2 PUSH2 0x182A JUMP JUMPDEST DUP3 MSTORE POP POP JUMP JUMPDEST PUSH0 DUP2 MLOAD SWAP1 POP SWAP2 SWAP1 POP JUMP JUMPDEST PUSH0 DUP3 DUP3 MSTORE PUSH1 0x20 DUP3 ADD SWAP1 POP SWAP3 SWAP2 POP POP JUMP JUMPDEST DUP3 DUP2 DUP4 MCOPY PUSH0 DUP4 DUP4 ADD MSTORE POP POP POP JUMP JUMPDEST PUSH0 PUSH1 0x1F NOT PUSH1 0x1F DUP4 ADD AND SWAP1 POP SWAP2 SWAP1 POP JUMP JUMPDEST PUSH0 PUSH2 0x18D9 DUP3 PUSH2 0x1897 JUMP JUMPDEST PUSH2 0x18E3 DUP2 DUP6 PUSH2 0x18A1 JUMP JUMPDEST SWAP4 POP PUSH2 0x18F3 DUP2 DUP6 PUSH1 0x20 DUP7 ADD PUSH2 0x18B1 JUMP JUMPDEST PUSH2 0x18FC DUP2 PUSH2 0x18BF JUMP JUMPDEST DUP5 ADD SWAP2 POP POP SWAP3 SWAP2 POP POP JUMP JUMPDEST PUSH0 DUP2 ISZERO ISZERO SWAP1 POP SWAP2 SWAP1 POP JUMP JUMPDEST PUSH2 0x191B DUP2 PUSH2 0x1907 JUMP JUMPDEST DUP3 MSTORE POP POP JUMP JUMPDEST PUSH0 PUSH2 0x120 DUP4 ADD PUSH0 DUP4 ADD MLOAD PUSH2 0x1937 PUSH0 DUP7 ADD DUP3 PUSH2 0x1888 JUMP JUMPDEST POP PUSH1 0x20 DUP4 ADD MLOAD DUP5 DUP3 SUB PUSH1 0x20 DUP7 ADD MSTORE PUSH2 0x194F DUP3 DUP3 PUSH2 0x18CF JUMP JUMPDEST SWAP2 POP POP PUSH1 0x40 DUP4 ADD MLOAD DUP5 DUP3 SUB PUSH1 0x40 DUP7 ADD MSTORE PUSH2 0x1969 DUP3 DUP3 PUSH2 0x18CF JUMP JUMPDEST SWAP2 POP POP PUSH1 0x60 DUP4 ADD MLOAD DUP5 DUP3 SUB PUSH1 0x60 DUP7 ADD MSTORE PUSH2 0x1983 DUP3 DUP3 PUSH2 0x18CF JUMP JUMPDEST SWAP2 POP POP PUSH1 0x80 DUP4 ADD MLOAD PUSH2 0x1998 PUSH1 0x80 DUP7 ADD DUP3 PUSH2 0x1888 JUMP JUMPDEST POP PUSH1 0xA0 DUP4 ADD MLOAD PUSH2 0x19AB PUSH1 0xA0 DUP7 ADD DUP3 PUSH2 0x1888 JUMP JUMPDEST POP PUSH1 0xC0 DUP4 ADD MLOAD PUSH2 0x19BE PUSH1 0xC0 DUP7 ADD DUP3 PUSH2 0x1888 JUMP JUMPDEST POP PUSH1 0xE0 DUP4 ADD MLOAD PUSH2 0x19D1 PUSH1 0xE0 DUP7 ADD DUP3 PUSH2 0x1912 JUMP JUMPDEST POP PUSH2 0x100 DUP4 ADD MLOAD PUSH2 0x19E6 PUSH2 0x100 DUP7 ADD DUP3 PUSH2 0x1888 JUMP JUMPDEST POP DUP1 SWAP2 POP POP SWAP3 SWAP2 POP POP JUMP JUMPDEST PUSH0 PUSH1 0x20 DUP3 ADD SWAP1 POP DUP2 DUP2 SUB PUSH0 DUP4 ADD MSTORE PUSH2 0x1A09 DUP2 DUP5 PUSH2 0x1921 JUMP JUMPDEST SWAP1 POP SWAP3 SWAP2 POP POP JUMP JUMPDEST PUSH2 0x1A1A DUP2 PUSH2 0x182A JUMP JUMPDEST DUP3 MSTORE POP POP JUMP JUMPDEST PUSH0 PUSH1 0x20 DUP3 ADD SWAP1 POP PUSH2 0x1A33 PUSH0 DUP4 ADD DUP5 PUSH2 0x1A11 JUMP JUMPDEST SWAP3 SWAP2 POP POP JUMP JUMPDEST PUSH0 DUP3 DUP3 MSTORE PUSH1 0x20 DUP3 ADD SWAP1 POP SWAP3 SWAP2 POP POP JUMP JUMPDEST PUSH0 PUSH2 0x1A53 DUP3 PUSH2 0x1897 JUMP JUMPDEST PUSH2 0x1A5D DUP2 DUP6 PUSH2 0x1A39 JUMP JUMPDEST SWAP4 POP PUSH2 0x1A6D DUP2 DUP6 PUSH1 0x20 DUP7 ADD PUSH2 0x18B1 JUMP JUMPDEST PUSH2 0x1A76 DUP2 PUSH2 0x18BF JUMP JUMPDEST DUP5 ADD SWAP2 POP POP SWAP3 SWAP2 POP POP JUMP JUMPDEST PUSH2 0x1A8A DUP2 PUSH2 0x1907 JUMP JUMPDEST DUP3 MSTORE POP POP JUMP JUMPDEST PUSH0 PUSH2 0x120 DUP3 ADD SWAP1 POP PUSH2 0x1AA4 PUSH0 DUP4 ADD DUP13 PUSH2 0x1A11 JUMP JUMPDEST DUP2 DUP2 SUB PUSH1 0x20 DUP4 ADD MSTORE PUSH2 0x1AB6 DUP2 DUP12 PUSH2 0x1A49 JUMP JUMPDEST SWAP1 POP DUP2 DUP2 SUB PUSH1 0x40 DUP4 ADD MSTORE PUSH2 0x1ACA DUP2 DUP11 PUSH2 0x1A49 JUMP JUMPDEST SWAP1 POP DUP2 DUP2 SUB PUSH1 0x60 DUP4 ADD MSTORE PUSH2 0x1ADE DUP2 DUP10 PUSH2 0x1A49 JUMP JUMPDEST SWAP1 POP PUSH2 0x1AED PUSH1 0x80 DUP4 ADD DUP9 PUSH2 0x1A11 JUMP JUMPDEST PUSH2 0x1AFA PUSH1 0xA0 DUP4 ADD DUP8 PUSH2 0x1A11 JUMP JUMPDEST PUSH2 0x1B07 PUSH1 0xC0 DUP4 ADD DUP7 PUSH2 0x1A11 JUMP JUMPDEST PUSH2 0x1B14 PUSH1 0xE0 DUP4 ADD DUP6 PUSH2 0x1A81 JUMP JUMPDEST PUSH2 0x1B22 PUSH2 0x100 DUP4 ADD DUP5 PUSH2 0x1A11 JUMP JUMPDEST SWAP11 SWAP10 POP POP POP POP POP POP POP POP POP POP JUMP JUMPDEST PUSH0 DUP2 MLOAD SWAP1 POP SWAP2 SWAP1 POP JUMP JUMPDEST PUSH0 DUP3 DUP3 MSTORE PUSH1 0x20 DUP3 ADD SWAP1 POP SWAP3 SWAP2 POP POP JUMP JUMPDEST PUSH0 DUP2 SWAP1 POP PUSH1 0x20 DUP3 ADD SWAP1 POP SWAP2 SWAP1 POP JUMP JUMPDEST PUSH0 PUSH2 0x120 DUP4 ADD PUSH0 DUP4 ADD MLOAD PUSH2 0x1B6F PUSH0 DUP7 ADD DUP3 PUSH2 0x1888 JUMP JUMPDEST POP PUSH1 0x20 DUP4 ADD MLOAD DUP5 DUP3 SUB PUSH1 0x20 DUP7 ADD MSTORE PUSH2 0x1B87 DUP3 DUP3 PUSH2 0x18CF JUMP JUMPDEST SWAP2 POP POP PUSH1 0x40 DUP4 ADD MLOAD DUP5 DUP3 SUB PUSH1 0x40 DUP7 ADD MSTORE PUSH2 0x1BA1 DUP3 DUP3 PUSH2 0x18CF JUMP JUMPDEST SWAP2 POP POP PUSH1 0x60 DUP4 ADD MLOAD DUP5 DUP3 SUB PUSH1 0x60 DUP7 ADD MSTORE PUSH2 0x1BBB DUP3 DUP3 PUSH2 0x18CF JUMP JUMPDEST SWAP2 POP POP PUSH1 0x80 DUP4 ADD MLOAD PUSH2 0x1BD0 PUSH1 0x80 DUP7 ADD DUP3 PUSH2 0x1888 JUMP JUMPDEST POP PUSH1 0xA0 DUP4 ADD MLOAD PUSH2 0x1BE3 PUSH1 0xA0 DUP7 ADD DUP3 PUSH2 0x1888 JUMP JUMPDEST POP PUSH1 0xC0 DUP4 ADD MLOAD PUSH2 0x1BF6 PUSH1 0xC0 DUP7 ADD DUP3 PUSH2 0x1888 JUMP JUMPDEST POP PUSH1 0xE0 DUP4 ADD MLOAD PUSH2 0x1C09 PUSH1 0xE0 DUP7 ADD DUP3 PUSH2 0x1912 JUMP JUMPDEST POP PUSH2 0x100 DUP4 ADD MLOAD PUSH2 0x1C1E PUSH2 0x100 DUP7 ADD DUP3 PUSH2 0x1888 JUMP JUMPDEST POP DUP1 SWAP2 POP POP SWAP3 SWAP2 POP POP JUMP JUMPDEST PUSH0 PUSH2 0x1C34 DUP4 DUP4 PUSH2 0x1B59 JUMP JUMPDEST SWAP1 POP SWAP3 SWAP2 POP POP JUMP JUMPDEST PUSH0 PUSH1 0x20 DUP3 ADD SWAP1 POP SWAP2 SWAP1 POP JUMP JUMPDEST PUSH0 PUSH2 0x1C52 DUP3 PUSH2 0x1B30 JUMP JUMPDEST PUSH2 0x1C5C DUP2 DUP6 PUSH2 0x1B3A JUMP JUMPDEST SWAP4 POP DUP4 PUSH1 0x20 DUP3 MUL DUP6 ADD PUSH2 0x1C6E DUP6 PUSH2 0x1B4A JUMP JUMPDEST DUP1 PUSH0 JUMPDEST DUP6 DUP2 LT ISZERO PUSH2 0x1CA9 JUMPI DUP5 DUP5 SUB DUP10 MSTORE DUP2 MLOAD PUSH2 0x1C8A DUP6 DUP3 PUSH2 0x1C29 JUMP JUMPDEST SWAP5 POP PUSH2 0x1C95 DUP4 PUSH2 0x1C3C JUMP JUMPDEST SWAP3 POP PUSH1 0x20 DUP11 ADD SWAP10 POP POP PUSH1 0x1 DUP2 ADD SWAP1 POP PUSH2 0x1C71 JUMP JUMPDEST POP DUP3 SWAP8 POP DUP8 SWAP6 POP POP POP POP POP POP SWAP3 SWAP2 POP POP JUMP JUMPDEST PUSH0 PUSH1 0x20 DUP3 ADD SWAP1 POP DUP2 DUP2 SUB PUSH0 DUP4 ADD MSTORE PUSH2 0x1CD3 DUP2 DUP5 PUSH2 0x1C48 JUMP JUMPDEST SWAP1 POP SWAP3 SWAP2 POP POP JUMP JUMPDEST PUSH0 PUSH0 PUSH1 0x40 DUP4 DUP6 SUB SLT ISZERO PUSH2 0x1CF1 JUMPI PUSH2 0x1CF0 PUSH2 0x1822 JUMP JUMPDEST JUMPDEST PUSH0 PUSH2 0x1CFE DUP6 DUP3 DUP7 ADD PUSH2 0x1849 JUMP JUMPDEST SWAP3 POP POP PUSH1 0x20 PUSH2 0x1D0F DUP6 DUP3 DUP7 ADD PUSH2 0x1849 JUMP JUMPDEST SWAP2 POP POP SWAP3 POP SWAP3 SWAP1 POP JUMP JUMPDEST PUSH0 PUSH2 0x1D23 DUP3 PUSH2 0x17C1 JUMP JUMPDEST SWAP1 POP SWAP2 SWAP1 POP JUMP JUMPDEST PUSH2 0x1D33 DUP2 PUSH2 0x1D19 JUMP JUMPDEST DUP3 MSTORE POP POP JUMP JUMPDEST PUSH0 PUSH1 0x20 DUP3 ADD SWAP1 POP PUSH2 0x1D4C PUSH0 DUP4 ADD DUP5 PUSH2 0x1D2A JUMP JUMPDEST SWAP3 SWAP2 POP POP JUMP JUMPDEST PUSH0 PUSH0 REVERT JUMPDEST PUSH0 PUSH0 REVERT JUMPDEST PUSH32 0x4E487B7100000000000000000000000000000000000000000000000000000000 PUSH0 MSTORE PUSH1 0x41 PUSH1 0x4 MSTORE PUSH1 0x24 PUSH0 REVERT JUMPDEST PUSH2 0x1D90 DUP3 PUSH2 0x18BF JUMP JUMPDEST DUP2 ADD DUP2 DUP2 LT PUSH8 0xFFFFFFFFFFFFFFFF DUP3 GT OR ISZERO PUSH2 0x1DAF JUMPI PUSH2 0x1DAE PUSH2 0x1D5A JUMP JUMPDEST JUMPDEST DUP1 PUSH1 0x40 MSTORE POP POP POP JUMP JUMPDEST PUSH0 PUSH2 0x1DC1 PUSH2 0x1819 JUMP JUMPDEST SWAP1 POP PUSH2 0x1DCD DUP3 DUP3 PUSH2 0x1D87 JUMP JUMPDEST SWAP2 SWAP1 POP JUMP JUMPDEST PUSH0 PUSH8 0xFFFFFFFFFFFFFFFF DUP3 GT ISZERO PUSH2 0x1DEC JUMPI PUSH2 0x1DEB PUSH2 0x1D5A JUMP JUMPDEST JUMPDEST PUSH2 0x1DF5 DUP3 PUSH2 0x18BF JUMP JUMPDEST SWAP1 POP PUSH1 0x20 DUP2 ADD SWAP1 POP SWAP2 SWAP1 POP JUMP JUMPDEST DUP3 DUP2 DUP4 CALLDATACOPY PUSH0 DUP4 DUP4 ADD MSTORE POP POP POP JUMP JUMPDEST PUSH0 PUSH2 0x1E22 PUSH2 0x1E1D DUP5 PUSH2 0x1DD2 JUMP JUMPDEST PUSH2 0x1DB8 JUMP JUMPDEST SWAP1 POP DUP3 DUP2 MSTORE PUSH1 0x20 DUP2 ADD DUP5 DUP5 DUP5 ADD GT ISZERO PUSH2 0x1E3E JUMPI PUSH2 0x1E3D PUSH2 0x1D56 JUMP JUMPDEST JUMPDEST PUSH2 0x1E49 DUP5 DUP3 DUP6 PUSH2 0x1E02 JUMP JUMPDEST POP SWAP4 SWAP3 POP POP POP JUMP JUMPDEST PUSH0 DUP3 PUSH1 0x1F DUP4 ADD SLT PUSH2 0x1E65 JUMPI PUSH2 0x1E64 PUSH2 0x1D52 JUMP JUMPDEST JUMPDEST DUP2 CALLDATALOAD PUSH2 0x1E75 DUP5 DUP3 PUSH1 0x20 DUP7 ADD PUSH2 0x1E10 JUMP JUMPDEST SWAP2 POP POP SWAP3 SWAP2 POP POP JUMP JUMPDEST PUSH0 PUSH0 PUSH0 PUSH0 PUSH0 PUSH0 PUSH1 0xC0 DUP8 DUP10 SUB SLT ISZERO PUSH2 0x1E98 JUMPI PUSH2 0x1E97 PUSH2 0x1822 JUMP JUMPDEST JUMPDEST PUSH0 DUP8 ADD CALLDATALOAD PUSH8 0xFFFFFFFFFFFFFFFF DUP2 GT ISZERO PUSH2 0x1EB5 JUMPI PUSH2 0x1EB4 PUSH2 0x1826 JUMP JUMPDEST JUMPDEST PUSH2 0x1EC1 DUP10 DUP3 DUP11 ADD PUSH2 0x1E51 JUMP JUMPDEST SWAP7 POP POP PUSH1 0x20 DUP8 ADD CALLDATALOAD PUSH8 0xFFFFFFFFFFFFFFFF DUP2 GT ISZERO PUSH2 0x1EE2 JUMPI PUSH2 0x1EE1 PUSH2 0x1826 JUMP JUMPDEST JUMPDEST PUSH2 0x1EEE DUP10 DUP3 DUP11 ADD PUSH2 0x1E51 JUMP JUMPDEST SWAP6 POP POP PUSH1 0x40 DUP8 ADD CALLDATALOAD PUSH8 0xFFFFFFFFFFFFFFFF DUP2 GT ISZERO PUSH2 0x1F0F JUMPI PUSH2 0x1F0E PUSH2 0x1826 JUMP JUMPDEST JUMPDEST PUSH2 0x1F1B DUP10 DUP3 DUP11 ADD PUSH2 0x1E51 JUMP JUMPDEST SWAP5 POP POP PUSH1 0x60 PUSH2 0x1F2C DUP10 DUP3 DUP11 ADD PUSH2 0x1849 JUMP JUMPDEST SWAP4 POP POP PUSH1 0x80 PUSH2 0x1F3D DUP10 DUP3 DUP11 ADD PUSH2 0x1849 JUMP JUMPDEST SWAP3 POP POP PUSH1 0xA0 PUSH2 0x1F4E DUP10 DUP3 DUP11 ADD PUSH2 0x1849 JUMP JUMPDEST SWAP2 POP POP SWAP3 SWAP6 POP SWAP3 SWAP6 POP SWAP3 SWAP6 JUMP JUMPDEST PUSH0 DUP2 SWAP1 POP SWAP2 SWAP1 POP JUMP JUMPDEST PUSH0 PUSH2 0x1F7E PUSH2 0x1F79 PUSH2 0x1F74 DUP5 PUSH2 0x17C1 JUMP JUMPDEST PUSH2 0x1F5B JUMP JUMPDEST PUSH2 0x17C1 JUMP JUMPDEST SWAP1 POP SWAP2 SWAP1 POP JUMP JUMPDEST PUSH0 PUSH2 0x1F8F DUP3 PUSH2 0x1F64 JUMP JUMPDEST SWAP1 POP SWAP2 SWAP1 POP JUMP JUMPDEST PUSH0 PUSH2 0x1FA0 DUP3 PUSH2 0x1F85 JUMP JUMPDEST SWAP1 POP SWAP2 SWAP1 POP JUMP JUMPDEST PUSH2 0x1FB0 DUP2 PUSH2 0x1F96 JUMP JUMPDEST DUP3 MSTORE POP POP JUMP JUMPDEST PUSH0 PUSH1 0x20 DUP3 ADD SWAP1 POP PUSH2 0x1FC9 PUSH0 DUP4 ADD DUP5 PUSH2 0x1FA7 JUMP JUMPDEST SWAP3 SWAP2 POP POP JUMP JUMPDEST PUSH2 0x1FD8 DUP2 PUSH2 0x1D19 JUMP JUMPDEST DUP2 EQ PUSH2 0x1FE2 JUMPI PUSH0 PUSH0 REVERT JUMPDEST POP JUMP JUMPDEST PUSH0 DUP2 CALLDATALOAD SWAP1 POP PUSH2 0x1FF3 DUP2 PUSH2 0x1FCF JUMP JUMPDEST SWAP3 SWAP2 POP POP JUMP JUMPDEST PUSH0 PUSH0 PUSH1 0x40 DUP4 DUP6 SUB SLT ISZERO PUSH2 0x200F JUMPI PUSH2 0x200E PUSH2 0x1822 JUMP JUMPDEST JUMPDEST PUSH0 PUSH2 0x201C DUP6 DUP3 DUP7 ADD PUSH2 0x1849 JUMP JUMPDEST SWAP3 POP POP PUSH1 0x20 PUSH2 0x202D DUP6 DUP3 DUP7 ADD PUSH2 0x1FE5 JUMP JUMPDEST SWAP2 POP POP SWAP3 POP SWAP3 SWAP1 POP JUMP JUMPDEST PUSH0 PUSH1 0x20 DUP3 ADD SWAP1 POP PUSH2 0x204A PUSH0 DUP4 ADD DUP5 PUSH2 0x1A81 JUMP JUMPDEST SWAP3 SWAP2 POP POP JUMP JUMPDEST PUSH32 0x426F6F6B206E6F7420666F756E64000000000000000000000000000000000000 PUSH0 DUP3 ADD MSTORE POP JUMP JUMPDEST PUSH0 PUSH2 0x2084 PUSH1 0xE DUP4 PUSH2 0x1A39 JUMP JUMPDEST SWAP2 POP PUSH2 0x208F DUP3 PUSH2 0x2050 JUMP JUMPDEST PUSH1 0x20 DUP3 ADD SWAP1 POP SWAP2 SWAP1 POP JUMP JUMPDEST PUSH0 PUSH1 0x20 DUP3 ADD SWAP1 POP DUP2 DUP2 SUB PUSH0 DUP4 ADD MSTORE PUSH2 0x20B1 DUP2 PUSH2 0x2078 JUMP JUMPDEST SWAP1 POP SWAP2 SWAP1 POP JUMP JUMPDEST PUSH32 0x4E487B7100000000000000000000000000000000000000000000000000000000 PUSH0 MSTORE PUSH1 0x22 PUSH1 0x4 MSTORE PUSH1 0x24 PUSH0 REVERT JUMPDEST PUSH0 PUSH1 0x2 DUP3 DIV SWAP1 POP PUSH1 0x1 DUP3 AND DUP1 PUSH2 0x20FC JUMPI PUSH1 0x7F DUP3 AND SWAP2 POP JUMPDEST PUSH1 0x20 DUP3 LT DUP2 SUB PUSH2 0x210F JUMPI PUSH2 0x210E PUSH2 0x20B8 JUMP JUMPDEST JUMPDEST POP SWAP2 SWAP1 POP JUMP JUMPDEST PUSH32 0x426F6F6B206E6F7420666F756E64210000000000000000000000000000000000 PUSH0 DUP3 ADD MSTORE POP JUMP JUMPDEST PUSH0 PUSH2 0x2149 PUSH1 0xF DUP4 PUSH2 0x1A39 JUMP JUMPDEST SWAP2 POP PUSH2 0x2154 DUP3 PUSH2 0x2115 JUMP JUMPDEST PUSH1 0x20 DUP3 ADD SWAP1 POP SWAP2 SWAP1 POP JUMP JUMPDEST PUSH0 PUSH1 0x20 DUP3 ADD SWAP1 POP DUP2 DUP2 SUB PUSH0 DUP4 ADD MSTORE PUSH2 0x2176 DUP2 PUSH2 0x213D JUMP JUMPDEST SWAP1 POP SWAP2 SWAP1 POP JUMP JUMPDEST PUSH32 0x426F6F6B206E6F7420617661696C61626C652100000000000000000000000000 PUSH0 DUP3 ADD MSTORE POP JUMP JUMPDEST PUSH0 PUSH2 0x21B1 PUSH1 0x13 DUP4 PUSH2 0x1A39 JUMP JUMPDEST SWAP2 POP PUSH2 0x21BC DUP3 PUSH2 0x217D JUMP JUMPDEST PUSH1 0x20 DUP3 ADD SWAP1 POP SWAP2 SWAP1 POP JUMP JUMPDEST PUSH0 PUSH1 0x20 DUP3 ADD SWAP1 POP DUP2 DUP2 SUB PUSH0 DUP4 ADD MSTORE PUSH2 0x21DE DUP2 PUSH2 0x21A5 JUMP JUMPDEST SWAP1 POP SWAP2 SWAP1 POP JUMP JUMPDEST PUSH32 0x416C726561647920626F72726F77656421000000000000000000000000000000 PUSH0 DUP3 ADD MSTORE POP JUMP JUMPDEST PUSH0 PUSH2 0x2219 PUSH1 0x11 DUP4 PUSH2 0x1A39 JUMP JUMPDEST SWAP2 POP PUSH2 0x2224 DUP3 PUSH2 0x21E5 JUMP JUMPDEST PUSH1 0x20 DUP3 ADD SWAP1 POP SWAP2 SWAP1 POP JUMP JUMPDEST PUSH0 PUSH1 0x20 DUP3 ADD SWAP1 POP DUP2 DUP2 SUB PUSH0 DUP4 ADD MSTORE PUSH2 0x2246 DUP2 PUSH2 0x220D JUMP JUMPDEST SWAP1 POP SWAP2 SWAP1 POP JUMP JUMPDEST PUSH2 0x2256 DUP2 PUSH2 0x1907 JUMP JUMPDEST DUP2 EQ PUSH2 0x2260 JUMPI PUSH0 PUSH0 REVERT JUMPDEST POP JUMP JUMPDEST PUSH0 DUP2 MLOAD SWAP1 POP PUSH2 0x2271 DUP2 PUSH2 0x224D JUMP JUMPDEST SWAP3 SWAP2 POP POP JUMP JUMPDEST PUSH0 PUSH1 0x20 DUP3 DUP5 SUB SLT ISZERO PUSH2 0x228C JUMPI PUSH2 0x228B PUSH2 0x1822 JUMP JUMPDEST JUMPDEST PUSH0 PUSH2 0x2299 DUP5 DUP3 DUP6 ADD PUSH2 0x2263 JUMP JUMPDEST SWAP2 POP POP SWAP3 SWAP2 POP POP JUMP JUMPDEST PUSH32 0x4E6F7420656E6F756768204554482073656E7400000000000000000000000000 PUSH0 DUP3 ADD MSTORE POP JUMP JUMPDEST PUSH0 PUSH2 0x22D6 PUSH1 0x13 DUP4 PUSH2 0x1A39 JUMP JUMPDEST SWAP2 POP PUSH2 0x22E1 DUP3 PUSH2 0x22A2 JUMP JUMPDEST PUSH1 0x20 DUP3 ADD SWAP1 POP SWAP2 SWAP1 POP JUMP JUMPDEST PUSH0 PUSH1 0x20 DUP3 ADD SWAP1 POP DUP2 DUP2 SUB PUSH0 DUP4 ADD MSTORE PUSH2 0x2303 DUP2 PUSH2 0x22CA JUMP JUMPDEST SWAP1 POP SWAP2 SWAP1 POP JUMP JUMPDEST PUSH32 0x4E487B7100000000000000000000000000000000000000000000000000000000 PUSH0 MSTORE PUSH1 0x11 PUSH1 0x4 MSTORE PUSH1 0x24 PUSH0 REVERT JUMPDEST PUSH0 PUSH2 0x2341 DUP3 PUSH2 0x182A JUMP JUMPDEST SWAP2 POP PUSH2 0x234C DUP4 PUSH2 0x182A JUMP JUMPDEST SWAP3 POP DUP3 DUP3 SUB SWAP1 POP DUP2 DUP2 GT ISZERO PUSH2 0x2364 JUMPI PUSH2 0x2363 PUSH2 0x230A JUMP JUMPDEST JUMPDEST SWAP3 SWAP2 POP POP JUMP JUMPDEST PUSH0 DUP2 SWAP1 POP SWAP3 SWAP2 POP POP JUMP JUMPDEST POP JUMP JUMPDEST PUSH0 PUSH2 0x2382 PUSH0 DUP4 PUSH2 0x236A JUMP JUMPDEST SWAP2 POP PUSH2 0x238D DUP3 PUSH2 0x2374 JUMP JUMPDEST PUSH0 DUP3 ADD SWAP1 POP SWAP2 SWAP1 POP JUMP JUMPDEST PUSH0 PUSH2 0x23A1 DUP3 PUSH2 0x2377 JUMP JUMPDEST SWAP2 POP DUP2 SWAP1 POP SWAP2 SWAP1 POP JUMP JUMPDEST PUSH32 0x4661696C656420746F2073656E642045544820746F206C696272617279000000 PUSH0 DUP3 ADD MSTORE POP JUMP JUMPDEST PUSH0 PUSH2 0x23DF PUSH1 0x1D DUP4 PUSH2 0x1A39 JUMP JUMPDEST SWAP2 POP PUSH2 0x23EA DUP3 PUSH2 0x23AB JUMP JUMPDEST PUSH1 0x20 DUP3 ADD SWAP1 POP SWAP2 SWAP1 POP JUMP JUMPDEST PUSH0 PUSH1 0x20 DUP3 ADD SWAP1 POP DUP2 DUP2 SUB PUSH0 DUP4 ADD MSTORE PUSH2 0x240C DUP2 PUSH2 0x23D3 JUMP JUMPDEST SWAP1 POP SWAP2 SWAP1 POP JUMP JUMPDEST PUSH32 0x4661696C656420746F20726566756E6420657863657373204554480000000000 PUSH0 DUP3 ADD MSTORE POP JUMP JUMPDEST PUSH0 PUSH2 0x2447 PUSH1 0x1B DUP4 PUSH2 0x1A39 JUMP JUMPDEST SWAP2 POP PUSH2 0x2452 DUP3 PUSH2 0x2413 JUMP JUMPDEST PUSH1 0x20 DUP3 ADD SWAP1 POP SWAP2 SWAP1 POP JUMP JUMPDEST PUSH0 PUSH1 0x20 DUP3 ADD SWAP1 POP DUP2 DUP2 SUB PUSH0 DUP4 ADD MSTORE PUSH2 0x2474 DUP2 PUSH2 0x243B JUMP JUMPDEST SWAP1 POP SWAP2 SWAP1 POP JUMP JUMPDEST PUSH32 0x4E487B7100000000000000000000000000000000000000000000000000000000 PUSH0 MSTORE PUSH1 0x32 PUSH1 0x4 MSTORE PUSH1 0x24 PUSH0 REVERT JUMPDEST PUSH32 0x4E6F74206C6962726172792061646D696E000000000000000000000000000000 PUSH0 DUP3 ADD MSTORE POP JUMP JUMPDEST PUSH0 PUSH2 0x24DC PUSH1 0x11 DUP4 PUSH2 0x1A39 JUMP JUMPDEST SWAP2 POP PUSH2 0x24E7 DUP3 PUSH2 0x24A8 JUMP JUMPDEST PUSH1 0x20 DUP3 ADD SWAP1 POP SWAP2 SWAP1 POP JUMP JUMPDEST PUSH0 PUSH1 0x20 DUP3 ADD SWAP1 POP DUP2 DUP2 SUB PUSH0 DUP4 ADD MSTORE PUSH2 0x2509 DUP2 PUSH2 0x24D0 JUMP JUMPDEST SWAP1 POP SWAP2 SWAP1 POP JUMP JUMPDEST PUSH32 0x5469746C652063616E6E6F7420626520656D7074792100000000000000000000 PUSH0 DUP3 ADD MSTORE POP JUMP JUMPDEST PUSH0 PUSH2 0x2544 PUSH1 0x16 DUP4 PUSH2 0x1A39 JUMP JUMPDEST SWAP2 POP PUSH2 0x254F DUP3 PUSH2 0x2510 JUMP JUMPDEST PUSH1 0x20 DUP3 ADD SWAP1 POP SWAP2 SWAP1 POP JUMP JUMPDEST PUSH0 PUSH1 0x20 DUP3 ADD SWAP1 POP DUP2 DUP2 SUB PUSH0 DUP4 ADD MSTORE PUSH2 0x2571 DUP2 PUSH2 0x2538 JUMP JUMPDEST SWAP1 POP SWAP2 SWAP1 POP JUMP JUMPDEST PUSH32 0x417574686F722063616E6E6F7420626520656D70747921000000000000000000 PUSH0 DUP3 ADD MSTORE POP JUMP JUMPDEST PUSH0 PUSH2 0x25AC PUSH1 0x17 DUP4 PUSH2 0x1A39 JUMP JUMPDEST SWAP2 POP PUSH2 0x25B7 DUP3 PUSH2 0x2578 JUMP JUMPDEST PUSH1 0x20 DUP3 ADD SWAP1 POP SWAP2 SWAP1 POP JUMP JUMPDEST PUSH0 PUSH1 0x20 DUP3 ADD SWAP1 POP DUP2 DUP2 SUB PUSH0 DUP4 ADD MSTORE PUSH2 0x25D9 DUP2 PUSH2 0x25A0 JUMP JUMPDEST SWAP1 POP SWAP2 SWAP1 POP JUMP JUMPDEST PUSH32 0x47656E72652063616E6E6F7420626520656D7074792100000000000000000000 PUSH0 DUP3 ADD MSTORE POP JUMP JUMPDEST PUSH0 PUSH2 0x2614 PUSH1 0x16 DUP4 PUSH2 0x1A39 JUMP JUMPDEST SWAP2 POP PUSH2 0x261F DUP3 PUSH2 0x25E0 JUMP JUMPDEST PUSH1 0x20 DUP3 ADD SWAP1 POP SWAP2 SWAP1 POP JUMP JUMPDEST PUSH0 PUSH1 0x20 DUP3 ADD SWAP1 POP DUP2 DUP2 SUB PUSH0 DUP4 ADD MSTORE PUSH2 0x2641 DUP2 PUSH2 0x2608 JUMP JUMPDEST SWAP1 POP SWAP2 SWAP1 POP JUMP JUMPDEST PUSH32 0x5175616E74697479206D7573742062652067726561746572207468616E203000 PUSH0 DUP3 ADD MSTORE POP JUMP JUMPDEST PUSH0 PUSH2 0x267C PUSH1 0x1F DUP4 PUSH2 0x1A39 JUMP JUMPDEST SWAP2 POP PUSH2 0x2687 DUP3 PUSH2 0x2648 JUMP JUMPDEST PUSH1 0x20 DUP3 ADD SWAP1 POP SWAP2 SWAP1 POP JUMP JUMPDEST PUSH0 PUSH1 0x20 DUP3 ADD SWAP1 POP DUP2 DUP2 SUB PUSH0 DUP4 ADD MSTORE PUSH2 0x26A9 DUP2 PUSH2 0x2670 JUMP JUMPDEST SWAP1 POP SWAP2 SWAP1 POP JUMP JUMPDEST PUSH32 0x5072696365206D7573742062652067726561746572207468616E203000000000 PUSH0 DUP3 ADD MSTORE POP JUMP JUMPDEST PUSH0 PUSH2 0x26E4 PUSH1 0x1C DUP4 PUSH2 0x1A39 JUMP JUMPDEST SWAP2 POP PUSH2 0x26EF DUP3 PUSH2 0x26B0 JUMP JUMPDEST PUSH1 0x20 DUP3 ADD SWAP1 POP SWAP2 SWAP1 POP JUMP JUMPDEST PUSH0 PUSH1 0x20 DUP3 ADD SWAP1 POP DUP2 DUP2 SUB PUSH0 DUP4 ADD MSTORE PUSH2 0x2711 DUP2 PUSH2 0x26D8 JUMP JUMPDEST SWAP1 POP SWAP2 SWAP1 POP JUMP JUMPDEST PUSH0 DUP2 SWAP1 POP SWAP3 SWAP2 POP POP JUMP JUMPDEST PUSH0 PUSH2 0x272C DUP3 PUSH2 0x1897 JUMP JUMPDEST PUSH2 0x2736 DUP2 DUP6 PUSH2 0x2718 JUMP JUMPDEST SWAP4 POP PUSH2 0x2746 DUP2 DUP6 PUSH1 0x20 DUP7 ADD PUSH2 0x18B1 JUMP JUMPDEST DUP1 DUP5 ADD SWAP2 POP POP SWAP3 SWAP2 POP POP JUMP JUMPDEST PUSH0 PUSH2 0x275D DUP3 DUP6 PUSH2 0x2722 JUMP JUMPDEST SWAP2 POP PUSH2 0x2769 DUP3 DUP5 PUSH2 0x2722 JUMP JUMPDEST SWAP2 POP DUP2 SWAP1 POP SWAP4 SWAP3 POP POP POP JUMP JUMPDEST PUSH32 0x5468697320626F6F6B206279207468697320617574686F7220616C7265616479 PUSH0 DUP3 ADD MSTORE PUSH32 0x2065786973747321000000000000000000000000000000000000000000000000 PUSH1 0x20 DUP3 ADD MSTORE POP JUMP JUMPDEST PUSH0 PUSH2 0x27CF PUSH1 0x28 DUP4 PUSH2 0x1A39 JUMP JUMPDEST SWAP2 POP PUSH2 0x27DA DUP3 PUSH2 0x2775 JUMP JUMPDEST PUSH1 0x40 DUP3 ADD SWAP1 POP SWAP2 SWAP1 POP JUMP JUMPDEST PUSH0 PUSH1 0x20 DUP3 ADD SWAP1 POP DUP2 DUP2 SUB PUSH0 DUP4 ADD MSTORE PUSH2 0x27FC DUP2 PUSH2 0x27C3 JUMP JUMPDEST SWAP1 POP SWAP2 SWAP1 POP JUMP JUMPDEST PUSH0 PUSH2 0x280D DUP3 PUSH2 0x182A JUMP JUMPDEST SWAP2 POP PUSH2 0x2818 DUP4 PUSH2 0x182A JUMP JUMPDEST SWAP3 POP DUP3 DUP3 ADD SWAP1 POP DUP1 DUP3 GT ISZERO PUSH2 0x2830 JUMPI PUSH2 0x282F PUSH2 0x230A JUMP JUMPDEST JUMPDEST SWAP3 SWAP2 POP POP JUMP JUMPDEST PUSH0 DUP2 SWAP1 POP DUP2 PUSH0 MSTORE PUSH1 0x20 PUSH0 KECCAK256 SWAP1 POP SWAP2 SWAP1 POP JUMP JUMPDEST PUSH0 PUSH1 0x20 PUSH1 0x1F DUP4 ADD DIV SWAP1 POP SWAP2 SWAP1 POP JUMP JUMPDEST PUSH0 DUP3 DUP3 SHL SWAP1 POP SWAP3 SWAP2 POP POP JUMP JUMPDEST PUSH0 PUSH1 0x8 DUP4 MUL PUSH2 0x2892 PUSH32 0xFFFFFFFFFFFFFFFFFFFFFFFFFFFFFFFFFFFFFFFFFFFFFFFFFFFFFFFFFFFFFFFF DUP3 PUSH2 0x2857 JUMP JUMPDEST PUSH2 0x289C DUP7 DUP4 PUSH2 0x2857 JUMP JUMPDEST SWAP6 POP DUP1 NOT DUP5 AND SWAP4 POP DUP1 DUP7 AND DUP5 OR SWAP3 POP POP POP SWAP4 SWAP3 POP POP POP JUMP JUMPDEST PUSH0 PUSH2 0x28CE PUSH2 0x28C9 PUSH2 0x28C4 DUP5 PUSH2 0x182A JUMP JUMPDEST PUSH2 0x1F5B JUMP JUMPDEST PUSH2 0x182A JUMP JUMPDEST SWAP1 POP SWAP2 SWAP1 POP JUMP JUMPDEST PUSH0 DUP2 SWAP1 POP SWAP2 SWAP1 POP JUMP JUMPDEST PUSH2 0x28E7 DUP4 PUSH2 0x28B4 JUMP JUMPDEST PUSH2 0x28FB PUSH2 0x28F3 DUP3 PUSH2 0x28D5 JUMP JUMPDEST DUP5 DUP5 SLOAD PUSH2 0x2863 JUMP JUMPDEST DUP3 SSTORE POP POP POP POP JUMP JUMPDEST PUSH0 PUSH0 SWAP1 POP SWAP1 JUMP JUMPDEST PUSH2 0x2912 PUSH2 0x2903 JUMP JUMPDEST PUSH2 0x291D DUP2 DUP5 DUP5 PUSH2 0x28DE JUMP JUMPDEST POP POP POP JUMP JUMPDEST JUMPDEST DUP2 DUP2 LT ISZERO PUSH2 0x2940 JUMPI PUSH2 0x2935 PUSH0 DUP3 PUSH2 0x290A JUMP JUMPDEST PUSH1 0x1 DUP2 ADD SWAP1 POP PUSH2 0x2923 JUMP JUMPDEST POP POP JUMP JUMPDEST PUSH1 0x1F DUP3 GT ISZERO PUSH2 0x2985 JUMPI PUSH2 0x2956 DUP2 PUSH2 0x2836 JUMP JUMPDEST PUSH2 0x295F DUP5 PUSH2 0x2848 JUMP JUMPDEST DUP2 ADD PUSH1 0x20 DUP6 LT ISZERO PUSH2 0x296E JUMPI DUP2 SWAP1 POP JUMPDEST PUSH2 0x2982 PUSH2 0x297A DUP6 PUSH2 0x2848 JUMP JUMPDEST DUP4 ADD DUP3 PUSH2 0x2922 JUMP JUMPDEST POP POP JUMPDEST POP POP POP JUMP JUMPDEST PUSH0 DUP3 DUP3 SHR SWAP1 POP SWAP3 SWAP2 POP POP JUMP JUMPDEST PUSH0 PUSH2 0x29A5 PUSH0 NOT DUP5 PUSH1 0x8 MUL PUSH2 0x298A JUMP JUMPDEST NOT DUP1 DUP4 AND SWAP2 POP POP SWAP3 SWAP2 POP POP JUMP JUMPDEST PUSH0 PUSH2 0x29BD DUP4 DUP4 PUSH2 0x2996 JUMP JUMPDEST SWAP2 POP DUP3 PUSH1 0x2 MUL DUP3 OR SWAP1 POP SWAP3 SWAP2 POP POP JUMP JUMPDEST PUSH2 0x29D6 DUP3 PUSH2 0x1897 JUMP JUMPDEST PUSH8 0xFFFFFFFFFFFFFFFF DUP2 GT ISZERO PUSH2 0x29EF JUMPI PUSH2 0x29EE PUSH2 0x1D5A JUMP JUMPDEST JUMPDEST PUSH2 0x29F9 DUP3 SLOAD PUSH2 0x20E5 JUMP JUMPDEST PUSH2 0x2A04 DUP3 DUP3 DUP6 PUSH2 0x2944 JUMP JUMPDEST PUSH0 PUSH1 0x20 SWAP1 POP PUSH1 0x1F DUP4 GT PUSH1 0x1 DUP2 EQ PUSH2 0x2A35 JUMPI PUSH0 DUP5 ISZERO PUSH2 0x2A23 JUMPI DUP3 DUP8 ADD MLOAD SWAP1 POP JUMPDEST PUSH2 0x2A2D DUP6 DUP3 PUSH2 0x29B2 JUMP JUMPDEST DUP7 SSTORE POP PUSH2 0x2A94 JUMP JUMPDEST PUSH1 0x1F NOT DUP5 AND PUSH2 0x2A43 DUP7 PUSH2 0x2836 JUMP JUMPDEST PUSH0 JUMPDEST DUP3 DUP2 LT ISZERO PUSH2 0x2A6A JUMPI DUP5 DUP10 ADD MLOAD DUP3 SSTORE PUSH1 0x1 DUP3 ADD SWAP2 POP PUSH1 0x20 DUP6 ADD SWAP5 POP PUSH1 0x20 DUP2 ADD SWAP1 POP PUSH2 0x2A45 JUMP JUMPDEST DUP7 DUP4 LT ISZERO PUSH2 0x2A87 JUMPI DUP5 DUP10 ADD MLOAD PUSH2 0x2A83 PUSH1 0x1F DUP10 AND DUP3 PUSH2 0x2996 JUMP JUMPDEST DUP4 SSTORE POP JUMPDEST PUSH1 0x1 PUSH1 0x2 DUP9 MUL ADD DUP9 SSTORE POP POP POP JUMPDEST POP POP POP POP POP POP JUMP JUMPDEST PUSH32 0x596F7520646964206E6F7420626F72726F77207468697320626F6F6B00000000 PUSH0 DUP3 ADD MSTORE POP JUMP JUMPDEST PUSH0 PUSH2 0x2AD0 PUSH1 0x1C DUP4 PUSH2 0x1A39 JUMP JUMPDEST SWAP2 POP PUSH2 0x2ADB DUP3 PUSH2 0x2A9C JUMP JUMPDEST PUSH1 0x20 DUP3 ADD SWAP1 POP SWAP2 SWAP1 POP JUMP JUMPDEST PUSH0 PUSH1 0x20 DUP3 ADD SWAP1 POP DUP2 DUP2 SUB PUSH0 DUP4 ADD MSTORE PUSH2 0x2AFD DUP2 PUSH2 0x2AC4 JUMP JUMPDEST SWAP1 POP SWAP2 SWAP1 POP JUMP INVALID LOG2 PUSH5 0x6970667358 0x22 SLT KECCAK256 0xE8 PUSH25 0x46CFA52FA2992FDAAE5C44E2EF66996B242B09C51174BEEC37 RETURNCONTRACT 0x77 PUSH24 0x341164736F6C634300081F00330000000000000000000000 "
				},
				"gasEstimates": {
					"creation": {
						"codeDepositCost": "2213200",
						"executionCost": "infinite",
						"totalCost": "infinite"
					},
					"external": {
						"addBook(string,string,string,uint256,uint256,uint256)": "infinite",
						"bookCounter()": "2490",
						"bookIds(uint256)": "infinite",
						"books(uint256)": "infinite",
						"borrowBook(uint256)": "infinite",
						"borrowedHistory(uint256,uint256)": "infinite",
						"buyBook()": "165",
						"getBookById(uint256)": "infinite",
						"getBooks()": "infinite",
						"isBorrowing(uint256,address)": "3158",
						"libraryAdmin()": "2532",
						"memberContract()": "infinite",
						"nonMemberBorrowFee()": "2514",
						"restock(uint256,uint256)": "infinite",
						"returnBook(uint256)": "infinite"
					}
				},
				"methodIdentifiers": {
					"addBook(string,string,string,uint256,uint256,uint256)": "a9d00e66",
					"bookCounter()": "ef2ede05",
					"bookIds(uint256)": "513073b8",
					"books(uint256)": "68744046",
					"borrowBook(uint256)": "7e490a9e",
					"borrowedHistory(uint256,uint256)": "a1ef3577",
					"buyBook()": "189a55e7",
					"getBookById(uint256)": "418b79ab",
					"getBooks()": "9f349789",
					"isBorrowing(uint256,address)": "ff418352",
					"libraryAdmin()": "1792a6da",
					"memberContract()": "c40cf4eb",
					"nonMemberBorrowFee()": "85d04bae",
					"restock(uint256,uint256)": "ddd5987f",
					"returnBook(uint256)": "ca5140c9"
				}
			},
			"storageLayout": {
				"storage": [
					{
						"astId": 5,
						"contract": "Book.sol:BookContract",
						"label": "bookCounter",
						"offset": 0,
						"slot": "0",
						"type": "t_uint256"
					},
					{
						"astId": 8,
						"contract": "Book.sol:BookContract",
						"label": "memberContract",
						"offset": 0,
						"slot": "1",
						"type": "t_contract(MemberContract)582"
					},
					{
						"astId": 10,
						"contract": "Book.sol:BookContract",
						"label": "libraryAdmin",
						"offset": 0,
						"slot": "2",
						"type": "t_address_payable"
					},
					{
						"astId": 12,
						"contract": "Book.sol:BookContract",
						"label": "nonMemberBorrowFee",
						"offset": 0,
						"slot": "3",
						"type": "t_uint256"
					},
					{
						"astId": 58,
						"contract": "Book.sol:BookContract",
						"label": "bookIds",
						"offset": 0,
						"slot": "4",
						"type": "t_array(t_uint256)dyn_storage"
					},
					{
						"astId": 63,
						"contract": "Book.sol:BookContract",
						"label": "books",
						"offset": 0,
						"slot": "5",
						"type": "t_mapping(t_uint256,t_struct(Book)55_storage)"
					},
					{
						"astId": 67,
						"contract": "Book.sol:BookContract",
						"label": "bookExist",
						"offset": 0,
						"slot": "6",
						"type": "t_mapping(t_bytes32,t_bool)"
					},
					{
						"astId": 72,
						"contract": "Book.sol:BookContract",
						"label": "borrowedHistory",
						"offset": 0,
						"slot": "7",
						"type": "t_mapping(t_uint256,t_array(t_address)dyn_storage)"
					},
					{
						"astId": 78,
						"contract": "Book.sol:BookContract",
						"label": "isBorrowing",
						"offset": 0,
						"slot": "8",
						"type": "t_mapping(t_uint256,t_mapping(t_address,t_bool))"
					}
				],
				"types": {
					"t_address": {
						"encoding": "inplace",
						"label": "address",
						"numberOfBytes": "20"
					},
					"t_address_payable": {
						"encoding": "inplace",
						"label": "address payable",
						"numberOfBytes": "20"
					},
					"t_array(t_address)dyn_storage": {
						"base": "t_address",
						"encoding": "dynamic_array",
						"label": "address[]",
						"numberOfBytes": "32"
					},
					"t_array(t_uint256)dyn_storage": {
						"base": "t_uint256",
						"encoding": "dynamic_array",
						"label": "uint256[]",
						"numberOfBytes": "32"
					},
					"t_bool": {
						"encoding": "inplace",
						"label": "bool",
						"numberOfBytes": "1"
					},
					"t_bytes32": {
						"encoding": "inplace",
						"label": "bytes32",
						"numberOfBytes": "32"
					},
					"t_contract(MemberContract)582": {
						"encoding": "inplace",
						"label": "contract MemberContract",
						"numberOfBytes": "20"
					},
					"t_mapping(t_address,t_bool)": {
						"encoding": "mapping",
						"key": "t_address",
						"label": "mapping(address => bool)",
						"numberOfBytes": "32",
						"value": "t_bool"
					},
					"t_mapping(t_bytes32,t_bool)": {
						"encoding": "mapping",
						"key": "t_bytes32",
						"label": "mapping(bytes32 => bool)",
						"numberOfBytes": "32",
						"value": "t_bool"
					},
					"t_mapping(t_uint256,t_array(t_address)dyn_storage)": {
						"encoding": "mapping",
						"key": "t_uint256",
						"label": "mapping(uint256 => address[])",
						"numberOfBytes": "32",
						"value": "t_array(t_address)dyn_storage"
					},
					"t_mapping(t_uint256,t_mapping(t_address,t_bool))": {
						"encoding": "mapping",
						"key": "t_uint256",
						"label": "mapping(uint256 => mapping(address => bool))",
						"numberOfBytes": "32",
						"value": "t_mapping(t_address,t_bool)"
					},
					"t_mapping(t_uint256,t_struct(Book)55_storage)": {
						"encoding": "mapping",
						"key": "t_uint256",
						"label": "mapping(uint256 => struct BookContract.Book)",
						"numberOfBytes": "32",
						"value": "t_struct(Book)55_storage"
					},
					"t_string_storage": {
						"encoding": "bytes",
						"label": "string",
						"numberOfBytes": "32"
					},
					"t_struct(Book)55_storage": {
						"encoding": "inplace",
						"label": "struct BookContract.Book",
						"members": [
							{
								"astId": 38,
								"contract": "Book.sol:BookContract",
								"label": "ID",
								"offset": 0,
								"slot": "0",
								"type": "t_uint256"
							},
							{
								"astId": 40,
								"contract": "Book.sol:BookContract",
								"label": "title",
								"offset": 0,
								"slot": "1",
								"type": "t_string_storage"
							},
							{
								"astId": 42,
								"contract": "Book.sol:BookContract",
								"label": "author",
								"offset": 0,
								"slot": "2",
								"type": "t_string_storage"
							},
							{
								"astId": 44,
								"contract": "Book.sol:BookContract",
								"label": "genre",
								"offset": 0,
								"slot": "3",
								"type": "t_string_storage"
							},
							{
								"astId": 46,
								"contract": "Book.sol:BookContract",
								"label": "quantity",
								"offset": 0,
								"slot": "4",
								"type": "t_uint256"
							},
							{
								"astId": 48,
								"contract": "Book.sol:BookContract",
								"label": "price",
								"offset": 0,
								"slot": "5",
								"type": "t_uint256"
							},
							{
								"astId": 50,
								"contract": "Book.sol:BookContract",
								"label": "borrowFee",
								"offset": 0,
								"slot": "6",
								"type": "t_uint256"
							},
							{
								"astId": 52,
								"contract": "Book.sol:BookContract",
								"label": "exists",
								"offset": 0,
								"slot": "7",
								"type": "t_bool"
							},
							{
								"astId": 54,
								"contract": "Book.sol:BookContract",
								"label": "date",
								"offset": 0,
								"slot": "8",
								"type": "t_uint256"
							}
						],
						"numberOfBytes": "288"
					},
					"t_uint256": {
						"encoding": "inplace",
						"label": "uint256",
						"numberOfBytes": "32"
					}
				}
			},
			"userdoc": {
				"kind": "user",
				"methods": {},
				"version": 1
			}
		}
	}
}