{
	"Book.sol": {
		"BookContract": {
			"abi": [
				{
					"inputs": [
						{
							"internalType": "address",
							"name": "_memberContract",
							"type": "address"
						},
						{
							"internalType": "address payable",
							"name": "_libraryAdmin",
							"type": "address"
						},
						{
							"internalType": "uint256",
							"name": "_nonMemberBorrowFee",
							"type": "uint256"
						}
					],
					"stateMutability": "nonpayable",
					"type": "constructor"
				},
				{
					"inputs": [
						{
							"internalType": "string",
							"name": "_title",
							"type": "string"
						},
						{
							"internalType": "string",
							"name": "_author",
							"type": "string"
						},
						{
							"internalType": "string",
							"name": "_genre",
							"type": "string"
						},
						{
							"internalType": "uint256",
							"name": "_quantity",
							"type": "uint256"
						},
						{
							"internalType": "uint256",
							"name": "_price",
							"type": "uint256"
						},
						{
							"internalType": "uint256",
							"name": "_borrowFee",
							"type": "uint256"
						}
					],
					"name": "addBook",
					"outputs": [],
					"stateMutability": "nonpayable",
					"type": "function"
				},
				{
					"inputs": [],
					"name": "bookCounter",
					"outputs": [
						{
							"internalType": "uint256",
							"name": "",
							"type": "uint256"
						}
					],
					"stateMutability": "view",
					"type": "function"
				},
				{
					"inputs": [
						{
							"internalType": "uint256",
							"name": "",
							"type": "uint256"
						}
					],
					"name": "bookIds",
					"outputs": [
						{
							"internalType": "uint256",
							"name": "",
							"type": "uint256"
						}
					],
					"stateMutability": "view",
					"type": "function"
				},
				{
					"inputs": [
						{
							"internalType": "uint256",
							"name": "",
							"type": "uint256"
						}
					],
					"name": "books",
					"outputs": [
						{
							"internalType": "uint256",
							"name": "ID",
							"type": "uint256"
						},
						{
							"internalType": "string",
							"name": "title",
							"type": "string"
						},
						{
							"internalType": "string",
							"name": "author",
							"type": "string"
						},
						{
							"internalType": "string",
							"name": "genre",
							"type": "string"
						},
						{
							"internalType": "uint256",
							"name": "quantity",
							"type": "uint256"
						},
						{
							"internalType": "uint256",
							"name": "price",
							"type": "uint256"
						},
						{
							"internalType": "uint256",
							"name": "borrowFee",
							"type": "uint256"
						},
						{
							"internalType": "bool",
							"name": "exists",
							"type": "bool"
						},
						{
							"internalType": "uint256",
							"name": "date",
							"type": "uint256"
						}
					],
					"stateMutability": "view",
					"type": "function"
				},
				{
					"inputs": [
						{
							"internalType": "uint256",
							"name": "_ID",
							"type": "uint256"
						}
					],
					"name": "borrowBook",
					"outputs": [],
					"stateMutability": "payable",
					"type": "function"
				},
				{
					"inputs": [
						{
							"internalType": "uint256",
							"name": "",
							"type": "uint256"
						},
						{
							"internalType": "uint256",
							"name": "",
							"type": "uint256"
						}
					],
					"name": "borrowedHistory",
					"outputs": [
						{
							"internalType": "address",
							"name": "",
							"type": "address"
						}
					],
					"stateMutability": "view",
					"type": "function"
				},
				{
					"inputs": [],
					"name": "buyBook",
					"outputs": [],
					"stateMutability": "payable",
					"type": "function"
				},
				{
					"inputs": [
						{
							"internalType": "uint256",
							"name": "_ID",
							"type": "uint256"
						}
					],
					"name": "getBookById",
					"outputs": [
						{
							"components": [
								{
									"internalType": "uint256",
									"name": "ID",
									"type": "uint256"
								},
								{
									"internalType": "string",
									"name": "title",
									"type": "string"
								},
								{
									"internalType": "string",
									"name": "author",
									"type": "string"
								},
								{
									"internalType": "string",
									"name": "genre",
									"type": "string"
								},
								{
									"internalType": "uint256",
									"name": "quantity",
									"type": "uint256"
								},
								{
									"internalType": "uint256",
									"name": "price",
									"type": "uint256"
								},
								{
									"internalType": "uint256",
									"name": "borrowFee",
									"type": "uint256"
								},
								{
									"internalType": "bool",
									"name": "exists",
									"type": "bool"
								},
								{
									"internalType": "uint256",
									"name": "date",
									"type": "uint256"
								}
							],
							"internalType": "struct BookContract.Book",
							"name": "",
							"type": "tuple"
						}
					],
					"stateMutability": "view",
					"type": "function"
				},
				{
					"inputs": [],
					"name": "getBooks",
					"outputs": [
						{
							"components": [
								{
									"internalType": "uint256",
									"name": "ID",
									"type": "uint256"
								},
								{
									"internalType": "string",
									"name": "title",
									"type": "string"
								},
								{
									"internalType": "string",
									"name": "author",
									"type": "string"
								},
								{
									"internalType": "string",
									"name": "genre",
									"type": "string"
								},
								{
									"internalType": "uint256",
									"name": "quantity",
									"type": "uint256"
								},
								{
									"internalType": "uint256",
									"name": "price",
									"type": "uint256"
								},
								{
									"internalType": "uint256",
									"name": "borrowFee",
									"type": "uint256"
								},
								{
									"internalType": "bool",
									"name": "exists",
									"type": "bool"
								},
								{
									"internalType": "uint256",
									"name": "date",
									"type": "uint256"
								}
							],
							"internalType": "struct BookContract.Book[]",
							"name": "",
							"type": "tuple[]"
						}
					],
					"stateMutability": "view",
					"type": "function"
				},
				{
					"inputs": [],
					"name": "libraryAdmin",
					"outputs": [
						{
							"internalType": "address payable",
							"name": "",
							"type": "address"
						}
					],
					"stateMutability": "view",
					"type": "function"
				},
				{
					"inputs": [],
					"name": "memberContract",
					"outputs": [
						{
							"internalType": "contract MemberContract",
							"name": "",
							"type": "address"
						}
					],
					"stateMutability": "view",
					"type": "function"
				},
				{
					"inputs": [],
					"name": "nonMemberBorrowFee",
					"outputs": [
						{
							"internalType": "uint256",
							"name": "",
							"type": "uint256"
						}
					],
					"stateMutability": "view",
					"type": "function"
				},
				{
					"inputs": [
						{
							"internalType": "uint256",
							"name": "_ID",
							"type": "uint256"
						},
						{
							"internalType": "uint256",
							"name": "_quantity",
							"type": "uint256"
						}
					],
					"name": "restock",
					"outputs": [],
					"stateMutability": "nonpayable",
					"type": "function"
				},
				{
					"inputs": [
						{
							"internalType": "uint256",
							"name": "_ID",
							"type": "uint256"
						}
					],
					"name": "returnBook",
					"outputs": [],
					"stateMutability": "nonpayable",
					"type": "function"
				}
			],
			"devdoc": {
				"kind": "dev",
				"methods": {},
				"version": 1
			},
			"evm": {
				"assembly": "    /* \"Book.sol\":105:4351  contract BookContract {... */\n  mstore(0x40, 0x80)\n    /* \"Book.sol\":443:723  constructor(... */\n  callvalue\n  dup1\n  iszero\n  tag_1\n  jumpi\n  revert(0x00, 0x00)\ntag_1:\n  pop\n  mload(0x40)\n  sub(codesize, bytecodeSize)\n  dup1\n  bytecodeSize\n  dup4\n  codecopy\n  dup2\n  dup2\n  add\n  0x40\n  mstore\n  dup2\n  add\n  swap1\n  tag_2\n  swap2\n  swap1\n  tag_3\n  jump\t// in\ntag_2:\n    /* \"Book.sol\":612:627  _memberContract */\n  dup3\n    /* \"Book.sol\":580:594  memberContract */\n  0x01\n  0x00\n    /* \"Book.sol\":580:628  memberContract = MemberContract(_memberContract) */\n  0x0100\n  exp\n  dup2\n  sload\n  dup2\n  0xffffffffffffffffffffffffffffffffffffffff\n  mul\n  not\n  and\n  swap1\n  dup4\n  0xffffffffffffffffffffffffffffffffffffffff\n  and\n  mul\n  or\n  swap1\n  sstore\n  pop\n    /* \"Book.sol\":653:666  _libraryAdmin */\n  dup2\n    /* \"Book.sol\":638:650  libraryAdmin */\n  0x02\n  0x00\n    /* \"Book.sol\":638:666  libraryAdmin = _libraryAdmin */\n  0x0100\n  exp\n  dup2\n  sload\n  dup2\n  0xffffffffffffffffffffffffffffffffffffffff\n  mul\n  not\n  and\n  swap1\n  dup4\n  0xffffffffffffffffffffffffffffffffffffffff\n  and\n  mul\n  or\n  swap1\n  sstore\n  pop\n    /* \"Book.sol\":697:716  _nonMemberBorrowFee */\n  dup1\n    /* \"Book.sol\":676:694  nonMemberBorrowFee */\n  0x03\n    /* \"Book.sol\":676:716  nonMemberBorrowFee = _nonMemberBorrowFee */\n  dup2\n  swap1\n  sstore\n  pop\n    /* \"Book.sol\":443:723  constructor(... */\n  pop\n  pop\n  pop\n    /* \"Book.sol\":105:4351  contract BookContract {... */\n  jump(tag_6)\n    /* \"#utility.yul\":88:205   */\ntag_8:\n    /* \"#utility.yul\":197:198   */\n  0x00\n    /* \"#utility.yul\":194:195   */\n  0x00\n    /* \"#utility.yul\":187:199   */\n  revert\n    /* \"#utility.yul\":334:460   */\ntag_10:\n    /* \"#utility.yul\":371:378   */\n  0x00\n    /* \"#utility.yul\":411:453   */\n  0xffffffffffffffffffffffffffffffffffffffff\n    /* \"#utility.yul\":404:409   */\n  dup3\n    /* \"#utility.yul\":400:454   */\n  and\n    /* \"#utility.yul\":389:454   */\n  swap1\n  pop\n    /* \"#utility.yul\":334:460   */\n  swap2\n  swap1\n  pop\n  jump\t// out\n    /* \"#utility.yul\":466:562   */\ntag_11:\n    /* \"#utility.yul\":503:510   */\n  0x00\n    /* \"#utility.yul\":532:556   */\n  tag_26\n    /* \"#utility.yul\":550:555   */\n  dup3\n    /* \"#utility.yul\":532:556   */\n  tag_10\n  jump\t// in\ntag_26:\n    /* \"#utility.yul\":521:556   */\n  swap1\n  pop\n    /* \"#utility.yul\":466:562   */\n  swap2\n  swap1\n  pop\n  jump\t// out\n    /* \"#utility.yul\":568:690   */\ntag_12:\n    /* \"#utility.yul\":641:665   */\n  tag_28\n    /* \"#utility.yul\":659:664   */\n  dup2\n    /* \"#utility.yul\":641:665   */\n  tag_11\n  jump\t// in\ntag_28:\n    /* \"#utility.yul\":634:639   */\n  dup2\n    /* \"#utility.yul\":631:666   */\n  eq\n    /* \"#utility.yul\":621:684   */\n  tag_29\n  jumpi\n    /* \"#utility.yul\":680:681   */\n  0x00\n    /* \"#utility.yul\":677:678   */\n  0x00\n    /* \"#utility.yul\":670:682   */\n  revert\n    /* \"#utility.yul\":621:684   */\ntag_29:\n    /* \"#utility.yul\":568:690   */\n  pop\n  jump\t// out\n    /* \"#utility.yul\":696:839   */\ntag_13:\n    /* \"#utility.yul\":753:758   */\n  0x00\n    /* \"#utility.yul\":784:790   */\n  dup2\n    /* \"#utility.yul\":778:791   */\n  mload\n    /* \"#utility.yul\":769:791   */\n  swap1\n  pop\n    /* \"#utility.yul\":800:833   */\n  tag_31\n    /* \"#utility.yul\":827:832   */\n  dup2\n    /* \"#utility.yul\":800:833   */\n  tag_12\n  jump\t// in\ntag_31:\n    /* \"#utility.yul\":696:839   */\n  swap3\n  swap2\n  pop\n  pop\n  jump\t// out\n    /* \"#utility.yul\":845:949   */\ntag_14:\n    /* \"#utility.yul\":890:897   */\n  0x00\n    /* \"#utility.yul\":919:943   */\n  tag_33\n    /* \"#utility.yul\":937:942   */\n  dup3\n    /* \"#utility.yul\":919:943   */\n  tag_10\n  jump\t// in\ntag_33:\n    /* \"#utility.yul\":908:943   */\n  swap1\n  pop\n    /* \"#utility.yul\":845:949   */\n  swap2\n  swap1\n  pop\n  jump\t// out\n    /* \"#utility.yul\":955:1093   */\ntag_15:\n    /* \"#utility.yul\":1036:1068   */\n  tag_35\n    /* \"#utility.yul\":1062:1067   */\n  dup2\n    /* \"#utility.yul\":1036:1068   */\n  tag_14\n  jump\t// in\ntag_35:\n    /* \"#utility.yul\":1029:1034   */\n  dup2\n    /* \"#utility.yul\":1026:1069   */\n  eq\n    /* \"#utility.yul\":1016:1087   */\n  tag_36\n  jumpi\n    /* \"#utility.yul\":1083:1084   */\n  0x00\n    /* \"#utility.yul\":1080:1081   */\n  0x00\n    /* \"#utility.yul\":1073:1085   */\n  revert\n    /* \"#utility.yul\":1016:1087   */\ntag_36:\n    /* \"#utility.yul\":955:1093   */\n  pop\n  jump\t// out\n    /* \"#utility.yul\":1099:1258   */\ntag_16:\n    /* \"#utility.yul\":1164:1169   */\n  0x00\n    /* \"#utility.yul\":1195:1201   */\n  dup2\n    /* \"#utility.yul\":1189:1202   */\n  mload\n    /* \"#utility.yul\":1180:1202   */\n  swap1\n  pop\n    /* \"#utility.yul\":1211:1252   */\n  tag_38\n    /* \"#utility.yul\":1246:1251   */\n  dup2\n    /* \"#utility.yul\":1211:1252   */\n  tag_15\n  jump\t// in\ntag_38:\n    /* \"#utility.yul\":1099:1258   */\n  swap3\n  swap2\n  pop\n  pop\n  jump\t// out\n    /* \"#utility.yul\":1264:1341   */\ntag_17:\n    /* \"#utility.yul\":1301:1308   */\n  0x00\n    /* \"#utility.yul\":1330:1335   */\n  dup2\n    /* \"#utility.yul\":1319:1335   */\n  swap1\n  pop\n    /* \"#utility.yul\":1264:1341   */\n  swap2\n  swap1\n  pop\n  jump\t// out\n    /* \"#utility.yul\":1347:1469   */\ntag_18:\n    /* \"#utility.yul\":1420:1444   */\n  tag_41\n    /* \"#utility.yul\":1438:1443   */\n  dup2\n    /* \"#utility.yul\":1420:1444   */\n  tag_17\n  jump\t// in\ntag_41:\n    /* \"#utility.yul\":1413:1418   */\n  dup2\n    /* \"#utility.yul\":1410:1445   */\n  eq\n    /* \"#utility.yul\":1400:1463   */\n  tag_42\n  jumpi\n    /* \"#utility.yul\":1459:1460   */\n  0x00\n    /* \"#utility.yul\":1456:1457   */\n  0x00\n    /* \"#utility.yul\":1449:1461   */\n  revert\n    /* \"#utility.yul\":1400:1463   */\ntag_42:\n    /* \"#utility.yul\":1347:1469   */\n  pop\n  jump\t// out\n    /* \"#utility.yul\":1475:1618   */\ntag_19:\n    /* \"#utility.yul\":1532:1537   */\n  0x00\n    /* \"#utility.yul\":1563:1569   */\n  dup2\n    /* \"#utility.yul\":1557:1570   */\n  mload\n    /* \"#utility.yul\":1548:1570   */\n  swap1\n  pop\n    /* \"#utility.yul\":1579:1612   */\n  tag_44\n    /* \"#utility.yul\":1606:1611   */\n  dup2\n    /* \"#utility.yul\":1579:1612   */\n  tag_18\n  jump\t// in\ntag_44:\n    /* \"#utility.yul\":1475:1618   */\n  swap3\n  swap2\n  pop\n  pop\n  jump\t// out\n    /* \"#utility.yul\":1624:2303   */\ntag_3:\n    /* \"#utility.yul\":1720:1726   */\n  0x00\n    /* \"#utility.yul\":1728:1734   */\n  0x00\n    /* \"#utility.yul\":1736:1742   */\n  0x00\n    /* \"#utility.yul\":1785:1787   */\n  0x60\n    /* \"#utility.yul\":1773:1782   */\n  dup5\n    /* \"#utility.yul\":1764:1771   */\n  dup7\n    /* \"#utility.yul\":1760:1783   */\n  sub\n    /* \"#utility.yul\":1756:1788   */\n  slt\n    /* \"#utility.yul\":1753:1872   */\n  iszero\n  tag_46\n  jumpi\n    /* \"#utility.yul\":1791:1870   */\n  tag_47\n  tag_8\n  jump\t// in\ntag_47:\n    /* \"#utility.yul\":1753:1872   */\ntag_46:\n    /* \"#utility.yul\":1911:1912   */\n  0x00\n    /* \"#utility.yul\":1936:2000   */\n  tag_48\n    /* \"#utility.yul\":1992:1999   */\n  dup7\n    /* \"#utility.yul\":1983:1989   */\n  dup3\n    /* \"#utility.yul\":1972:1981   */\n  dup8\n    /* \"#utility.yul\":1968:1990   */\n  add\n    /* \"#utility.yul\":1936:2000   */\n  tag_13\n  jump\t// in\ntag_48:\n    /* \"#utility.yul\":1926:2000   */\n  swap4\n  pop\n    /* \"#utility.yul\":1882:2010   */\n  pop\n    /* \"#utility.yul\":2049:2051   */\n  0x20\n    /* \"#utility.yul\":2075:2147   */\n  tag_49\n    /* \"#utility.yul\":2139:2146   */\n  dup7\n    /* \"#utility.yul\":2130:2136   */\n  dup3\n    /* \"#utility.yul\":2119:2128   */\n  dup8\n    /* \"#utility.yul\":2115:2137   */\n  add\n    /* \"#utility.yul\":2075:2147   */\n  tag_16\n  jump\t// in\ntag_49:\n    /* \"#utility.yul\":2065:2147   */\n  swap3\n  pop\n    /* \"#utility.yul\":2020:2157   */\n  pop\n    /* \"#utility.yul\":2196:2198   */\n  0x40\n    /* \"#utility.yul\":2222:2286   */\n  tag_50\n    /* \"#utility.yul\":2278:2285   */\n  dup7\n    /* \"#utility.yul\":2269:2275   */\n  dup3\n    /* \"#utility.yul\":2258:2267   */\n  dup8\n    /* \"#utility.yul\":2254:2276   */\n  add\n    /* \"#utility.yul\":2222:2286   */\n  tag_19\n  jump\t// in\ntag_50:\n    /* \"#utility.yul\":2212:2286   */\n  swap2\n  pop\n    /* \"#utility.yul\":2167:2296   */\n  pop\n    /* \"#utility.yul\":1624:2303   */\n  swap3\n  pop\n  swap3\n  pop\n  swap3\n  jump\t// out\n    /* \"Book.sol\":105:4351  contract BookContract {... */\ntag_6:\n  dataSize(sub_0)\n  dup1\n  dataOffset(sub_0)\n  0x00\n  codecopy\n  0x00\n  return\nstop\n\nsub_0: assembly {\n        /* \"Book.sol\":105:4351  contract BookContract {... */\n      mstore(0x40, 0x80)\n      jumpi(tag_1, lt(calldatasize, 0x04))\n      shr(0xe0, calldataload(0x00))\n      dup1\n      0x9f349789\n      gt\n      tag_16\n      jumpi\n      dup1\n      0xc40cf4eb\n      gt\n      tag_17\n      jumpi\n      dup1\n      0xc40cf4eb\n      eq\n      tag_12\n      jumpi\n      dup1\n      0xca5140c9\n      eq\n      tag_13\n      jumpi\n      dup1\n      0xddd5987f\n      eq\n      tag_14\n      jumpi\n      dup1\n      0xef2ede05\n      eq\n      tag_15\n      jumpi\n      jump(tag_1)\n    tag_17:\n      dup1\n      0x9f349789\n      eq\n      tag_9\n      jumpi\n      dup1\n      0xa1ef3577\n      eq\n      tag_10\n      jumpi\n      dup1\n      0xa9d00e66\n      eq\n      tag_11\n      jumpi\n      jump(tag_1)\n    tag_16:\n      dup1\n      0x513073b8\n      gt\n      tag_18\n      jumpi\n      dup1\n      0x513073b8\n      eq\n      tag_5\n      jumpi\n      dup1\n      0x68744046\n      eq\n      tag_6\n      jumpi\n      dup1\n      0x7e490a9e\n      eq\n      tag_7\n      jumpi\n      dup1\n      0x85d04bae\n      eq\n      tag_8\n      jumpi\n      jump(tag_1)\n    tag_18:\n      dup1\n      0x1792a6da\n      eq\n      tag_2\n      jumpi\n      dup1\n      0x189a55e7\n      eq\n      tag_3\n      jumpi\n      dup1\n      0x418b79ab\n      eq\n      tag_4\n      jumpi\n    tag_1:\n      revert(0x00, 0x00)\n        /* \"Book.sol\":240:275  address payable public libraryAdmin */\n    tag_2:\n      callvalue\n      dup1\n      iszero\n      tag_19\n      jumpi\n      revert(0x00, 0x00)\n    tag_19:\n      pop\n      tag_20\n      tag_21\n      jump\t// in\n    tag_20:\n      mload(0x40)\n      tag_22\n      swap2\n      swap1\n      tag_23\n      jump\t// in\n    tag_22:\n      mload(0x40)\n      dup1\n      swap2\n      sub\n      swap1\n      return\n        /* \"Book.sol\":4159:4195  function buyBook() public payable {} */\n    tag_3:\n      tag_24\n      tag_25\n      jump\t// in\n    tag_24:\n      stop\n        /* \"Book.sol\":2950:3107  function getBookById(uint256 _ID)  public view returns (Book memory) {... */\n    tag_4:\n      callvalue\n      dup1\n      iszero\n      tag_26\n      jumpi\n      revert(0x00, 0x00)\n    tag_26:\n      pop\n      tag_27\n      0x04\n      dup1\n      calldatasize\n      sub\n      dup2\n      add\n      swap1\n      tag_28\n      swap2\n      swap1\n      tag_29\n      jump\t// in\n    tag_28:\n      tag_30\n      jump\t// in\n    tag_27:\n      mload(0x40)\n      tag_31\n      swap2\n      swap1\n      tag_32\n      jump\t// in\n    tag_31:\n      mload(0x40)\n      dup1\n      swap2\n      sub\n      swap1\n      return\n        /* \"Book.sol\":994:1018  uint256[] public bookIds */\n    tag_5:\n      callvalue\n      dup1\n      iszero\n      tag_33\n      jumpi\n      revert(0x00, 0x00)\n    tag_33:\n      pop\n      tag_34\n      0x04\n      dup1\n      calldatasize\n      sub\n      dup2\n      add\n      swap1\n      tag_35\n      swap2\n      swap1\n      tag_29\n      jump\t// in\n    tag_35:\n      tag_36\n      jump\t// in\n    tag_34:\n      mload(0x40)\n      tag_37\n      swap2\n      swap1\n      tag_38\n      jump\t// in\n    tag_37:\n      mload(0x40)\n      dup1\n      swap2\n      sub\n      swap1\n      return\n        /* \"Book.sol\":1024:1061  mapping(uint256 => Book) public books */\n    tag_6:\n      callvalue\n      dup1\n      iszero\n      tag_39\n      jumpi\n      revert(0x00, 0x00)\n    tag_39:\n      pop\n      tag_40\n      0x04\n      dup1\n      calldatasize\n      sub\n      dup2\n      add\n      swap1\n      tag_41\n      swap2\n      swap1\n      tag_29\n      jump\t// in\n    tag_41:\n      tag_42\n      jump\t// in\n    tag_40:\n      mload(0x40)\n      tag_43\n      swap10\n      swap9\n      swap8\n      swap7\n      swap6\n      swap5\n      swap4\n      swap3\n      swap2\n      swap1\n      tag_44\n      jump\t// in\n    tag_43:\n      mload(0x40)\n      dup1\n      swap2\n      sub\n      swap1\n      return\n        /* \"Book.sol\":3113:4105  function borrowBook(uint256 _ID) public payable {... */\n    tag_7:\n      tag_45\n      0x04\n      dup1\n      calldatasize\n      sub\n      dup2\n      add\n      swap1\n      tag_46\n      swap2\n      swap1\n      tag_29\n      jump\t// in\n    tag_46:\n      tag_47\n      jump\t// in\n    tag_45:\n      stop\n        /* \"Book.sol\":359:392  uint256 public nonMemberBorrowFee */\n    tag_8:\n      callvalue\n      dup1\n      iszero\n      tag_48\n      jumpi\n      revert(0x00, 0x00)\n    tag_48:\n      pop\n      tag_49\n      tag_50\n      jump\t// in\n    tag_49:\n      mload(0x40)\n      tag_51\n      swap2\n      swap1\n      tag_38\n      jump\t// in\n    tag_51:\n      mload(0x40)\n      dup1\n      swap2\n      sub\n      swap1\n      return\n        /* \"Book.sol\":2685:2944  function getBooks() public view returns (Book[] memory) {... */\n    tag_9:\n      callvalue\n      dup1\n      iszero\n      tag_52\n      jumpi\n      revert(0x00, 0x00)\n    tag_52:\n      pop\n      tag_53\n      tag_54\n      jump\t// in\n    tag_53:\n      mload(0x40)\n      tag_55\n      swap2\n      swap1\n      tag_56\n      jump\t// in\n    tag_55:\n      mload(0x40)\n      dup1\n      swap2\n      sub\n      swap1\n      return\n        /* \"Book.sol\":1177:1229  mapping(uint256 => address[]) public borrowedHistory */\n    tag_10:\n      callvalue\n      dup1\n      iszero\n      tag_57\n      jumpi\n      revert(0x00, 0x00)\n    tag_57:\n      pop\n      tag_58\n      0x04\n      dup1\n      calldatasize\n      sub\n      dup2\n      add\n      swap1\n      tag_59\n      swap2\n      swap1\n      tag_60\n      jump\t// in\n    tag_59:\n      tag_61\n      jump\t// in\n    tag_58:\n      mload(0x40)\n      tag_62\n      swap2\n      swap1\n      tag_63\n      jump\t// in\n    tag_62:\n      mload(0x40)\n      dup1\n      swap2\n      sub\n      swap1\n      return\n        /* \"Book.sol\":1277:2400  function addBook(... */\n    tag_11:\n      callvalue\n      dup1\n      iszero\n      tag_64\n      jumpi\n      revert(0x00, 0x00)\n    tag_64:\n      pop\n      tag_65\n      0x04\n      dup1\n      calldatasize\n      sub\n      dup2\n      add\n      swap1\n      tag_66\n      swap2\n      swap1\n      tag_67\n      jump\t// in\n    tag_66:\n      tag_68\n      jump\t// in\n    tag_65:\n      stop\n        /* \"Book.sol\":166:202  MemberContract public memberContract */\n    tag_12:\n      callvalue\n      dup1\n      iszero\n      tag_69\n      jumpi\n      revert(0x00, 0x00)\n    tag_69:\n      pop\n      tag_70\n      tag_71\n      jump\t// in\n    tag_70:\n      mload(0x40)\n      tag_72\n      swap2\n      swap1\n      tag_73\n      jump\t// in\n    tag_72:\n      mload(0x40)\n      dup1\n      swap2\n      sub\n      swap1\n      return\n        /* \"Book.sol\":4111:4153  function returnBook(uint256 _ID) public {} */\n    tag_13:\n      callvalue\n      dup1\n      iszero\n      tag_74\n      jumpi\n      revert(0x00, 0x00)\n    tag_74:\n      pop\n      tag_75\n      0x04\n      dup1\n      calldatasize\n      sub\n      dup2\n      add\n      swap1\n      tag_76\n      swap2\n      swap1\n      tag_29\n      jump\t// in\n    tag_76:\n      tag_77\n      jump\t// in\n    tag_75:\n      stop\n        /* \"Book.sol\":2406:2678  function restock(uint256 _ID, uint256 _quantity) public onlyLibraryAdmin {... */\n    tag_14:\n      callvalue\n      dup1\n      iszero\n      tag_78\n      jumpi\n      revert(0x00, 0x00)\n    tag_78:\n      pop\n      tag_79\n      0x04\n      dup1\n      calldatasize\n      sub\n      dup2\n      add\n      swap1\n      tag_80\n      swap2\n      swap1\n      tag_60\n      jump\t// in\n    tag_80:\n      tag_81\n      jump\t// in\n    tag_79:\n      stop\n        /* \"Book.sol\":133:159  uint256 public bookCounter */\n    tag_15:\n      callvalue\n      dup1\n      iszero\n      tag_82\n      jumpi\n      revert(0x00, 0x00)\n    tag_82:\n      pop\n      tag_83\n      tag_84\n      jump\t// in\n    tag_83:\n      mload(0x40)\n      tag_85\n      swap2\n      swap1\n      tag_38\n      jump\t// in\n    tag_85:\n      mload(0x40)\n      dup1\n      swap2\n      sub\n      swap1\n      return\n        /* \"Book.sol\":240:275  address payable public libraryAdmin */\n    tag_21:\n      0x02\n      0x00\n      swap1\n      sload\n      swap1\n      0x0100\n      exp\n      swap1\n      div\n      0xffffffffffffffffffffffffffffffffffffffff\n      and\n      dup2\n      jump\t// out\n        /* \"Book.sol\":4159:4195  function buyBook() public payable {} */\n    tag_25:\n      jump\t// out\n        /* \"Book.sol\":2950:3107  function getBookById(uint256 _ID)  public view returns (Book memory) {... */\n    tag_30:\n        /* \"Book.sol\":3006:3017  Book memory */\n      tag_87\n      tag_88\n      jump\t// in\n    tag_87:\n        /* \"Book.sol\":3037:3042  books */\n      0x05\n        /* \"Book.sol\":3037:3047  books[_ID] */\n      0x00\n        /* \"Book.sol\":3043:3046  _ID */\n      dup4\n        /* \"Book.sol\":3037:3047  books[_ID] */\n      dup2\n      mstore\n      0x20\n      add\n      swap1\n      dup2\n      mstore\n      0x20\n      add\n      0x00\n      keccak256\n        /* \"Book.sol\":3037:3054  books[_ID].exists */\n      0x07\n      add\n      0x00\n      swap1\n      sload\n      swap1\n      0x0100\n      exp\n      swap1\n      div\n      0xff\n      and\n        /* \"Book.sol\":3029:3073  require(books[_ID].exists, \"Book not found\") */\n      tag_90\n      jumpi\n      mload(0x40)\n      0x08c379a000000000000000000000000000000000000000000000000000000000\n      dup2\n      mstore\n      0x04\n      add\n      tag_91\n      swap1\n      tag_92\n      jump\t// in\n    tag_91:\n      mload(0x40)\n      dup1\n      swap2\n      sub\n      swap1\n      revert\n    tag_90:\n        /* \"Book.sol\":3090:3095  books */\n      0x05\n        /* \"Book.sol\":3090:3100  books[_ID] */\n      0x00\n        /* \"Book.sol\":3096:3099  _ID */\n      dup4\n        /* \"Book.sol\":3090:3100  books[_ID] */\n      dup2\n      mstore\n      0x20\n      add\n      swap1\n      dup2\n      mstore\n      0x20\n      add\n      0x00\n      keccak256\n        /* \"Book.sol\":3083:3100  return books[_ID] */\n      mload(0x40)\n      dup1\n      0x0120\n      add\n      0x40\n      mstore\n      swap1\n      dup2\n      0x00\n      dup3\n      add\n      sload\n      dup2\n      mstore\n      0x20\n      add\n      0x01\n      dup3\n      add\n      dup1\n      sload\n      tag_93\n      swap1\n      tag_94\n      jump\t// in\n    tag_93:\n      dup1\n      0x1f\n      add\n      0x20\n      dup1\n      swap2\n      div\n      mul\n      0x20\n      add\n      mload(0x40)\n      swap1\n      dup2\n      add\n      0x40\n      mstore\n      dup1\n      swap3\n      swap2\n      swap1\n      dup2\n      dup2\n      mstore\n      0x20\n      add\n      dup3\n      dup1\n      sload\n      tag_95\n      swap1\n      tag_94\n      jump\t// in\n    tag_95:\n      dup1\n      iszero\n      tag_96\n      jumpi\n      dup1\n      0x1f\n      lt\n      tag_97\n      jumpi\n      0x0100\n      dup1\n      dup4\n      sload\n      div\n      mul\n      dup4\n      mstore\n      swap2\n      0x20\n      add\n      swap2\n      jump(tag_96)\n    tag_97:\n      dup3\n      add\n      swap2\n      swap1\n      0x00\n      mstore\n      keccak256(0x00, 0x20)\n      swap1\n    tag_98:\n      dup2\n      sload\n      dup2\n      mstore\n      swap1\n      0x01\n      add\n      swap1\n      0x20\n      add\n      dup1\n      dup4\n      gt\n      tag_98\n      jumpi\n      dup3\n      swap1\n      sub\n      0x1f\n      and\n      dup3\n      add\n      swap2\n    tag_96:\n      pop\n      pop\n      pop\n      pop\n      pop\n      dup2\n      mstore\n      0x20\n      add\n      0x02\n      dup3\n      add\n      dup1\n      sload\n      tag_99\n      swap1\n      tag_94\n      jump\t// in\n    tag_99:\n      dup1\n      0x1f\n      add\n      0x20\n      dup1\n      swap2\n      div\n      mul\n      0x20\n      add\n      mload(0x40)\n      swap1\n      dup2\n      add\n      0x40\n      mstore\n      dup1\n      swap3\n      swap2\n      swap1\n      dup2\n      dup2\n      mstore\n      0x20\n      add\n      dup3\n      dup1\n      sload\n      tag_100\n      swap1\n      tag_94\n      jump\t// in\n    tag_100:\n      dup1\n      iszero\n      tag_101\n      jumpi\n      dup1\n      0x1f\n      lt\n      tag_102\n      jumpi\n      0x0100\n      dup1\n      dup4\n      sload\n      div\n      mul\n      dup4\n      mstore\n      swap2\n      0x20\n      add\n      swap2\n      jump(tag_101)\n    tag_102:\n      dup3\n      add\n      swap2\n      swap1\n      0x00\n      mstore\n      keccak256(0x00, 0x20)\n      swap1\n    tag_103:\n      dup2\n      sload\n      dup2\n      mstore\n      swap1\n      0x01\n      add\n      swap1\n      0x20\n      add\n      dup1\n      dup4\n      gt\n      tag_103\n      jumpi\n      dup3\n      swap1\n      sub\n      0x1f\n      and\n      dup3\n      add\n      swap2\n    tag_101:\n      pop\n      pop\n      pop\n      pop\n      pop\n      dup2\n      mstore\n      0x20\n      add\n      0x03\n      dup3\n      add\n      dup1\n      sload\n      tag_104\n      swap1\n      tag_94\n      jump\t// in\n    tag_104:\n      dup1\n      0x1f\n      add\n      0x20\n      dup1\n      swap2\n      div\n      mul\n      0x20\n      add\n      mload(0x40)\n      swap1\n      dup2\n      add\n      0x40\n      mstore\n      dup1\n      swap3\n      swap2\n      swap1\n      dup2\n      dup2\n      mstore\n      0x20\n      add\n      dup3\n      dup1\n      sload\n      tag_105\n      swap1\n      tag_94\n      jump\t// in\n    tag_105:\n      dup1\n      iszero\n      tag_106\n      jumpi\n      dup1\n      0x1f\n      lt\n      tag_107\n      jumpi\n      0x0100\n      dup1\n      dup4\n      sload\n      div\n      mul\n      dup4\n      mstore\n      swap2\n      0x20\n      add\n      swap2\n      jump(tag_106)\n    tag_107:\n      dup3\n      add\n      swap2\n      swap1\n      0x00\n      mstore\n      keccak256(0x00, 0x20)\n      swap1\n    tag_108:\n      dup2\n      sload\n      dup2\n      mstore\n      swap1\n      0x01\n      add\n      swap1\n      0x20\n      add\n      dup1\n      dup4\n      gt\n      tag_108\n      jumpi\n      dup3\n      swap1\n      sub\n      0x1f\n      and\n      dup3\n      add\n      swap2\n    tag_106:\n      pop\n      pop\n      pop\n      pop\n      pop\n      dup2\n      mstore\n      0x20\n      add\n      0x04\n      dup3\n      add\n      sload\n      dup2\n      mstore\n      0x20\n      add\n      0x05\n      dup3\n      add\n      sload\n      dup2\n      mstore\n      0x20\n      add\n      0x06\n      dup3\n      add\n      sload\n      dup2\n      mstore\n      0x20\n      add\n      0x07\n      dup3\n      add\n      0x00\n      swap1\n      sload\n      swap1\n      0x0100\n      exp\n      swap1\n      div\n      0xff\n      and\n      iszero\n      iszero\n      iszero\n      iszero\n      dup2\n      mstore\n      0x20\n      add\n      0x08\n      dup3\n      add\n      sload\n      dup2\n      mstore\n      pop\n      pop\n      swap1\n      pop\n        /* \"Book.sol\":2950:3107  function getBookById(uint256 _ID)  public view returns (Book memory) {... */\n      swap2\n      swap1\n      pop\n      jump\t// out\n        /* \"Book.sol\":994:1018  uint256[] public bookIds */\n    tag_36:\n      0x04\n      dup2\n      dup2\n      sload\n      dup2\n      lt\n      tag_109\n      jumpi\n      0x00\n      dup1\n      revert\n    tag_109:\n      swap1\n      0x00\n      mstore\n      keccak256(0x00, 0x20)\n      add\n      0x00\n      swap2\n      pop\n      swap1\n      pop\n      sload\n      dup2\n      jump\t// out\n        /* \"Book.sol\":1024:1061  mapping(uint256 => Book) public books */\n    tag_42:\n      mstore(0x20, 0x05)\n      dup1\n      0x00\n      mstore\n      keccak256(0x00, 0x40)\n      0x00\n      swap2\n      pop\n      swap1\n      pop\n      dup1\n      0x00\n      add\n      sload\n      swap1\n      dup1\n      0x01\n      add\n      dup1\n      sload\n      tag_111\n      swap1\n      tag_94\n      jump\t// in\n    tag_111:\n      dup1\n      0x1f\n      add\n      0x20\n      dup1\n      swap2\n      div\n      mul\n      0x20\n      add\n      mload(0x40)\n      swap1\n      dup2\n      add\n      0x40\n      mstore\n      dup1\n      swap3\n      swap2\n      swap1\n      dup2\n      dup2\n      mstore\n      0x20\n      add\n      dup3\n      dup1\n      sload\n      tag_112\n      swap1\n      tag_94\n      jump\t// in\n    tag_112:\n      dup1\n      iszero\n      tag_113\n      jumpi\n      dup1\n      0x1f\n      lt\n      tag_114\n      jumpi\n      0x0100\n      dup1\n      dup4\n      sload\n      div\n      mul\n      dup4\n      mstore\n      swap2\n      0x20\n      add\n      swap2\n      jump(tag_113)\n    tag_114:\n      dup3\n      add\n      swap2\n      swap1\n      0x00\n      mstore\n      keccak256(0x00, 0x20)\n      swap1\n    tag_115:\n      dup2\n      sload\n      dup2\n      mstore\n      swap1\n      0x01\n      add\n      swap1\n      0x20\n      add\n      dup1\n      dup4\n      gt\n      tag_115\n      jumpi\n      dup3\n      swap1\n      sub\n      0x1f\n      and\n      dup3\n      add\n      swap2\n    tag_113:\n      pop\n      pop\n      pop\n      pop\n      pop\n      swap1\n      dup1\n      0x02\n      add\n      dup1\n      sload\n      tag_116\n      swap1\n      tag_94\n      jump\t// in\n    tag_116:\n      dup1\n      0x1f\n      add\n      0x20\n      dup1\n      swap2\n      div\n      mul\n      0x20\n      add\n      mload(0x40)\n      swap1\n      dup2\n      add\n      0x40\n      mstore\n      dup1\n      swap3\n      swap2\n      swap1\n      dup2\n      dup2\n      mstore\n      0x20\n      add\n      dup3\n      dup1\n      sload\n      tag_117\n      swap1\n      tag_94\n      jump\t// in\n    tag_117:\n      dup1\n      iszero\n      tag_118\n      jumpi\n      dup1\n      0x1f\n      lt\n      tag_119\n      jumpi\n      0x0100\n      dup1\n      dup4\n      sload\n      div\n      mul\n      dup4\n      mstore\n      swap2\n      0x20\n      add\n      swap2\n      jump(tag_118)\n    tag_119:\n      dup3\n      add\n      swap2\n      swap1\n      0x00\n      mstore\n      keccak256(0x00, 0x20)\n      swap1\n    tag_120:\n      dup2\n      sload\n      dup2\n      mstore\n      swap1\n      0x01\n      add\n      swap1\n      0x20\n      add\n      dup1\n      dup4\n      gt\n      tag_120\n      jumpi\n      dup3\n      swap1\n      sub\n      0x1f\n      and\n      dup3\n      add\n      swap2\n    tag_118:\n      pop\n      pop\n      pop\n      pop\n      pop\n      swap1\n      dup1\n      0x03\n      add\n      dup1\n      sload\n      tag_121\n      swap1\n      tag_94\n      jump\t// in\n    tag_121:\n      dup1\n      0x1f\n      add\n      0x20\n      dup1\n      swap2\n      div\n      mul\n      0x20\n      add\n      mload(0x40)\n      swap1\n      dup2\n      add\n      0x40\n      mstore\n      dup1\n      swap3\n      swap2\n      swap1\n      dup2\n      dup2\n      mstore\n      0x20\n      add\n      dup3\n      dup1\n      sload\n      tag_122\n      swap1\n      tag_94\n      jump\t// in\n    tag_122:\n      dup1\n      iszero\n      tag_123\n      jumpi\n      dup1\n      0x1f\n      lt\n      tag_124\n      jumpi\n      0x0100\n      dup1\n      dup4\n      sload\n      div\n      mul\n      dup4\n      mstore\n      swap2\n      0x20\n      add\n      swap2\n      jump(tag_123)\n    tag_124:\n      dup3\n      add\n      swap2\n      swap1\n      0x00\n      mstore\n      keccak256(0x00, 0x20)\n      swap1\n    tag_125:\n      dup2\n      sload\n      dup2\n      mstore\n      swap1\n      0x01\n      add\n      swap1\n      0x20\n      add\n      dup1\n      dup4\n      gt\n      tag_125\n      jumpi\n      dup3\n      swap1\n      sub\n      0x1f\n      and\n      dup3\n      add\n      swap2\n    tag_123:\n      pop\n      pop\n      pop\n      pop\n      pop\n      swap1\n      dup1\n      0x04\n      add\n      sload\n      swap1\n      dup1\n      0x05\n      add\n      sload\n      swap1\n      dup1\n      0x06\n      add\n      sload\n      swap1\n      dup1\n      0x07\n      add\n      0x00\n      swap1\n      sload\n      swap1\n      0x0100\n      exp\n      swap1\n      div\n      0xff\n      and\n      swap1\n      dup1\n      0x08\n      add\n      sload\n      swap1\n      pop\n      dup10\n      jump\t// out\n        /* \"Book.sol\":3113:4105  function borrowBook(uint256 _ID) public payable {... */\n    tag_47:\n        /* \"Book.sol\":3179:3184  books */\n      0x05\n        /* \"Book.sol\":3179:3189  books[_ID] */\n      0x00\n        /* \"Book.sol\":3185:3188  _ID */\n      dup3\n        /* \"Book.sol\":3179:3189  books[_ID] */\n      dup2\n      mstore\n      0x20\n      add\n      swap1\n      dup2\n      mstore\n      0x20\n      add\n      0x00\n      keccak256\n        /* \"Book.sol\":3179:3196  books[_ID].exists */\n      0x07\n      add\n      0x00\n      swap1\n      sload\n      swap1\n      0x0100\n      exp\n      swap1\n      div\n      0xff\n      and\n        /* \"Book.sol\":3171:3216  require(books[_ID].exists, \"Book not found!\") */\n      tag_127\n      jumpi\n      mload(0x40)\n      0x08c379a000000000000000000000000000000000000000000000000000000000\n      dup2\n      mstore\n      0x04\n      add\n      tag_128\n      swap1\n      tag_129\n      jump\t// in\n    tag_128:\n      mload(0x40)\n      dup1\n      swap2\n      sub\n      swap1\n      revert\n    tag_127:\n        /* \"Book.sol\":3256:3257  0 */\n      0x00\n        /* \"Book.sol\":3234:3239  books */\n      0x05\n        /* \"Book.sol\":3234:3244  books[_ID] */\n      0x00\n        /* \"Book.sol\":3240:3243  _ID */\n      dup4\n        /* \"Book.sol\":3234:3244  books[_ID] */\n      dup2\n      mstore\n      0x20\n      add\n      swap1\n      dup2\n      mstore\n      0x20\n      add\n      0x00\n      keccak256\n        /* \"Book.sol\":3234:3253  books[_ID].quantity */\n      0x04\n      add\n      sload\n        /* \"Book.sol\":3234:3257  books[_ID].quantity > 0 */\n      gt\n        /* \"Book.sol\":3226:3281  require(books[_ID].quantity > 0, \"Book not available!\") */\n      tag_130\n      jumpi\n      mload(0x40)\n      0x08c379a000000000000000000000000000000000000000000000000000000000\n      dup2\n      mstore\n      0x04\n      add\n      tag_131\n      swap1\n      tag_132\n      jump\t// in\n    tag_131:\n      mload(0x40)\n      dup1\n      swap2\n      sub\n      swap1\n      revert\n    tag_130:\n        /* \"Book.sol\":3292:3311  Book storage myBook */\n      0x00\n        /* \"Book.sol\":3314:3319  books */\n      0x05\n        /* \"Book.sol\":3314:3324  books[_ID] */\n      0x00\n        /* \"Book.sol\":3320:3323  _ID */\n      dup4\n        /* \"Book.sol\":3314:3324  books[_ID] */\n      dup2\n      mstore\n      0x20\n      add\n      swap1\n      dup2\n      mstore\n      0x20\n      add\n      0x00\n      keccak256\n        /* \"Book.sol\":3292:3324  Book storage myBook = books[_ID] */\n      swap1\n      pop\n        /* \"Book.sol\":3335:3348  bool isMember */\n      0x00\n        /* \"Book.sol\":3351:3365  memberContract */\n      0x01\n      0x00\n      swap1\n      sload\n      swap1\n      0x0100\n      exp\n      swap1\n      div\n      0xffffffffffffffffffffffffffffffffffffffff\n      and\n        /* \"Book.sol\":3351:3377  memberContract.memberExist */\n      0xffffffffffffffffffffffffffffffffffffffff\n      and\n      0x506b27f0\n        /* \"Book.sol\":3378:3388  msg.sender */\n      caller\n        /* \"Book.sol\":3351:3389  memberContract.memberExist(msg.sender) */\n      mload(0x40)\n      dup3\n      0xffffffff\n      and\n      0xe0\n      shl\n      dup2\n      mstore\n      0x04\n      add\n      tag_133\n      swap2\n      swap1\n      tag_63\n      jump\t// in\n    tag_133:\n      0x20\n      mload(0x40)\n      dup1\n      dup4\n      sub\n      dup2\n      dup7\n      gas\n      staticcall\n      iszero\n      dup1\n      iszero\n      tag_135\n      jumpi\n      returndatacopy(0x00, 0x00, returndatasize)\n      revert(0x00, returndatasize)\n    tag_135:\n      pop\n      pop\n      pop\n      pop\n      mload(0x40)\n      returndatasize\n      not(0x1f)\n      0x1f\n      dup3\n      add\n      and\n      dup3\n      add\n      dup1\n      0x40\n      mstore\n      pop\n      dup2\n      add\n      swap1\n      tag_136\n      swap2\n      swap1\n      tag_137\n      jump\t// in\n    tag_136:\n        /* \"Book.sol\":3335:3389  bool isMember = memberContract.memberExist(msg.sender) */\n      swap1\n      pop\n        /* \"Book.sol\":3399:3422  uint256 requiredPayment */\n      0x00\n        /* \"Book.sol\":3425:3433  isMember */\n      dup2\n        /* \"Book.sol\":3425:3498  isMember... */\n      tag_138\n      jumpi\n        /* \"Book.sol\":3480:3498  nonMemberBorrowFee */\n      sload(0x03)\n        /* \"Book.sol\":3425:3498  isMember... */\n      jump(tag_139)\n    tag_138:\n        /* \"Book.sol\":3448:3454  myBook */\n      dup3\n        /* \"Book.sol\":3448:3464  myBook.borrowFee */\n      0x06\n      add\n      sload\n        /* \"Book.sol\":3425:3498  isMember... */\n    tag_139:\n        /* \"Book.sol\":3399:3498  uint256 requiredPayment = isMember... */\n      swap1\n      pop\n        /* \"Book.sol\":3529:3544  requiredPayment */\n      dup1\n        /* \"Book.sol\":3516:3525  msg.value */\n      callvalue\n        /* \"Book.sol\":3516:3544  msg.value >= requiredPayment */\n      lt\n      iszero\n        /* \"Book.sol\":3508:3568  require(msg.value >= requiredPayment, \"Not enough ETH sent\") */\n      tag_140\n      jumpi\n      mload(0x40)\n      0x08c379a000000000000000000000000000000000000000000000000000000000\n      dup2\n      mstore\n      0x04\n      add\n      tag_141\n      swap1\n      tag_142\n      jump\t// in\n    tag_141:\n      mload(0x40)\n      dup1\n      swap2\n      sub\n      swap1\n      revert\n    tag_140:\n        /* \"Book.sol\":3579:3594  borrowedHistory */\n      0x07\n        /* \"Book.sol\":3579:3599  borrowedHistory[_ID] */\n      0x00\n        /* \"Book.sol\":3595:3598  _ID */\n      dup6\n        /* \"Book.sol\":3579:3599  borrowedHistory[_ID] */\n      dup2\n      mstore\n      0x20\n      add\n      swap1\n      dup2\n      mstore\n      0x20\n      add\n      0x00\n      keccak256\n        /* \"Book.sol\":3605:3615  msg.sender */\n      caller\n        /* \"Book.sol\":3579:3616  borrowedHistory[_ID].push(msg.sender) */\n      swap1\n      dup1\n      0x01\n      dup2\n      sload\n      add\n      dup1\n      dup3\n      sstore\n      dup1\n      swap2\n      pop\n      pop\n      0x01\n      swap1\n      sub\n      swap1\n      0x00\n      mstore\n      keccak256(0x00, 0x20)\n      add\n      0x00\n      swap1\n      swap2\n      swap1\n      swap2\n      swap1\n      swap2\n      0x0100\n      exp\n      dup2\n      sload\n      dup2\n      0xffffffffffffffffffffffffffffffffffffffff\n      mul\n      not\n      and\n      swap1\n      dup4\n      0xffffffffffffffffffffffffffffffffffffffff\n      and\n      mul\n      or\n      swap1\n      sstore\n      pop\n        /* \"Book.sol\":3645:3646  1 */\n      0x01\n        /* \"Book.sol\":3626:3632  myBook */\n      dup4\n        /* \"Book.sol\":3626:3641  myBook.quantity */\n      0x04\n      add\n      0x00\n        /* \"Book.sol\":3626:3646  myBook.quantity -= 1 */\n      dup3\n      dup3\n      sload\n      tag_144\n      swap2\n      swap1\n      tag_145\n      jump\t// in\n    tag_144:\n      swap3\n      pop\n      pop\n      dup2\n      swap1\n      sstore\n      pop\n        /* \"Book.sol\":3723:3732  bool sent */\n      0x00\n        /* \"Book.sol\":3738:3750  libraryAdmin */\n      0x02\n      0x00\n      swap1\n      sload\n      swap1\n      0x0100\n      exp\n      swap1\n      div\n      0xffffffffffffffffffffffffffffffffffffffff\n      and\n        /* \"Book.sol\":3738:3755  libraryAdmin.call */\n      0xffffffffffffffffffffffffffffffffffffffff\n      and\n        /* \"Book.sol\":3763:3778  requiredPayment */\n      dup3\n        /* \"Book.sol\":3738:3783  libraryAdmin.call{value: requiredPayment}(\"\") */\n      mload(0x40)\n      tag_146\n      swap1\n      tag_147\n      jump\t// in\n    tag_146:\n      0x00\n      mload(0x40)\n      dup1\n      dup4\n      sub\n      dup2\n      dup6\n      dup8\n      gas\n      call\n      swap3\n      pop\n      pop\n      pop\n      returndatasize\n      dup1\n      0x00\n      dup2\n      eq\n      tag_150\n      jumpi\n      mload(0x40)\n      swap2\n      pop\n      and(add(returndatasize, 0x3f), not(0x1f))\n      dup3\n      add\n      0x40\n      mstore\n      returndatasize\n      dup3\n      mstore\n      returndatasize\n      0x00\n      0x20\n      dup5\n      add\n      returndatacopy\n      jump(tag_149)\n    tag_150:\n      0x60\n      swap2\n      pop\n    tag_149:\n      pop\n        /* \"Book.sol\":3722:3783  (bool sent, ) = libraryAdmin.call{value: requiredPayment}(\"\") */\n      pop\n      swap1\n      pop\n        /* \"Book.sol\":3801:3805  sent */\n      dup1\n        /* \"Book.sol\":3793:3839  require(sent, \"Failed to send ETH to library\") */\n      tag_151\n      jumpi\n      mload(0x40)\n      0x08c379a000000000000000000000000000000000000000000000000000000000\n      dup2\n      mstore\n      0x04\n      add\n      tag_152\n      swap1\n      tag_153\n      jump\t// in\n    tag_152:\n      mload(0x40)\n      dup1\n      swap2\n      sub\n      swap1\n      revert\n    tag_151:\n        /* \"Book.sol\":3879:3893  uint256 excess */\n      0x00\n        /* \"Book.sol\":3908:3923  requiredPayment */\n      dup3\n        /* \"Book.sol\":3896:3905  msg.value */\n      callvalue\n        /* \"Book.sol\":3896:3923  msg.value - requiredPayment */\n      tag_154\n      swap2\n      swap1\n      tag_145\n      jump\t// in\n    tag_154:\n        /* \"Book.sol\":3879:3923  uint256 excess = msg.value - requiredPayment */\n      swap1\n      pop\n        /* \"Book.sol\":3946:3947  0 */\n      0x00\n        /* \"Book.sol\":3937:3943  excess */\n      dup2\n        /* \"Book.sol\":3937:3947  excess > 0 */\n      gt\n        /* \"Book.sol\":3933:4099  if (excess > 0) {... */\n      iszero\n      tag_155\n      jumpi\n        /* \"Book.sol\":3964:3977  bool refunded */\n      0x00\n        /* \"Book.sol\":3991:4001  msg.sender */\n      caller\n        /* \"Book.sol\":3983:4007  payable(msg.sender).call */\n      0xffffffffffffffffffffffffffffffffffffffff\n      and\n        /* \"Book.sol\":4015:4021  excess */\n      dup3\n        /* \"Book.sol\":3983:4026  payable(msg.sender).call{value: excess}(\"\") */\n      mload(0x40)\n      tag_156\n      swap1\n      tag_147\n      jump\t// in\n    tag_156:\n      0x00\n      mload(0x40)\n      dup1\n      dup4\n      sub\n      dup2\n      dup6\n      dup8\n      gas\n      call\n      swap3\n      pop\n      pop\n      pop\n      returndatasize\n      dup1\n      0x00\n      dup2\n      eq\n      tag_159\n      jumpi\n      mload(0x40)\n      swap2\n      pop\n      and(add(returndatasize, 0x3f), not(0x1f))\n      dup3\n      add\n      0x40\n      mstore\n      returndatasize\n      dup3\n      mstore\n      returndatasize\n      0x00\n      0x20\n      dup5\n      add\n      returndatacopy\n      jump(tag_158)\n    tag_159:\n      0x60\n      swap2\n      pop\n    tag_158:\n      pop\n        /* \"Book.sol\":3963:4026  (bool refunded, ) = payable(msg.sender).call{value: excess}(\"\") */\n      pop\n      swap1\n      pop\n        /* \"Book.sol\":4048:4056  refunded */\n      dup1\n        /* \"Book.sol\":4040:4088  require(refunded, \"Failed to refund excess ETH\") */\n      tag_160\n      jumpi\n      mload(0x40)\n      0x08c379a000000000000000000000000000000000000000000000000000000000\n      dup2\n      mstore\n      0x04\n      add\n      tag_161\n      swap1\n      tag_162\n      jump\t// in\n    tag_161:\n      mload(0x40)\n      dup1\n      swap2\n      sub\n      swap1\n      revert\n    tag_160:\n        /* \"Book.sol\":3949:4099  {... */\n      pop\n        /* \"Book.sol\":3933:4099  if (excess > 0) {... */\n    tag_155:\n        /* \"Book.sol\":3161:4105  {... */\n      pop\n      pop\n      pop\n      pop\n      pop\n        /* \"Book.sol\":3113:4105  function borrowBook(uint256 _ID) public payable {... */\n      pop\n      jump\t// out\n        /* \"Book.sol\":359:392  uint256 public nonMemberBorrowFee */\n    tag_50:\n      sload(0x03)\n      dup2\n      jump\t// out\n        /* \"Book.sol\":2685:2944  function getBooks() public view returns (Book[] memory) {... */\n    tag_54:\n        /* \"Book.sol\":2726:2739  Book[] memory */\n      0x60\n        /* \"Book.sol\":2751:2773  Book[] memory allBooks */\n      0x00\n        /* \"Book.sol\":2787:2794  bookIds */\n      0x04\n        /* \"Book.sol\":2787:2801  bookIds.length */\n      dup1\n      sload\n      swap1\n      pop\n        /* \"Book.sol\":2776:2802  new Book[](bookIds.length) */\n      0xffffffffffffffff\n      dup2\n      gt\n      iszero\n      tag_164\n      jumpi\n      tag_165\n      tag_166\n      jump\t// in\n    tag_165:\n    tag_164:\n      mload(0x40)\n      swap1\n      dup1\n      dup3\n      mstore\n      dup1\n      0x20\n      mul\n      0x20\n      add\n      dup3\n      add\n      0x40\n      mstore\n      dup1\n      iszero\n      tag_167\n      jumpi\n      dup2\n      0x20\n      add\n    tag_168:\n      tag_169\n      tag_88\n      jump\t// in\n    tag_169:\n      dup2\n      mstore\n      0x20\n      add\n      swap1\n      0x01\n      swap1\n      sub\n      swap1\n      dup2\n      tag_168\n      jumpi\n      swap1\n      pop\n    tag_167:\n      pop\n        /* \"Book.sol\":2751:2802  Book[] memory allBooks = new Book[](bookIds.length) */\n      swap1\n      pop\n        /* \"Book.sol\":2817:2826  uint256 i */\n      0x00\n        /* \"Book.sol\":2829:2830  0 */\n      0x00\n        /* \"Book.sol\":2817:2830  uint256 i = 0 */\n      swap1\n      pop\n        /* \"Book.sol\":2812:2913  for (uint256 i = 0; i < bookIds.length; i++) {... */\n    tag_170:\n        /* \"Book.sol\":2836:2843  bookIds */\n      0x04\n        /* \"Book.sol\":2836:2850  bookIds.length */\n      dup1\n      sload\n      swap1\n      pop\n        /* \"Book.sol\":2832:2833  i */\n      dup2\n        /* \"Book.sol\":2832:2850  i < bookIds.length */\n      lt\n        /* \"Book.sol\":2812:2913  for (uint256 i = 0; i < bookIds.length; i++) {... */\n      iszero\n      tag_171\n      jumpi\n        /* \"Book.sol\":2885:2890  books */\n      0x05\n        /* \"Book.sol\":2885:2902  books[bookIds[i]] */\n      0x00\n        /* \"Book.sol\":2891:2898  bookIds */\n      0x04\n        /* \"Book.sol\":2899:2900  i */\n      dup4\n        /* \"Book.sol\":2891:2901  bookIds[i] */\n      dup2\n      sload\n      dup2\n      lt\n      tag_173\n      jumpi\n      tag_174\n      tag_175\n      jump\t// in\n    tag_174:\n    tag_173:\n      swap1\n      0x00\n      mstore\n      keccak256(0x00, 0x20)\n      add\n      sload\n        /* \"Book.sol\":2885:2902  books[bookIds[i]] */\n      dup2\n      mstore\n      0x20\n      add\n      swap1\n      dup2\n      mstore\n      0x20\n      add\n      0x00\n      keccak256\n        /* \"Book.sol\":2871:2902  allBooks[i] = books[bookIds[i]] */\n      mload(0x40)\n      dup1\n      0x0120\n      add\n      0x40\n      mstore\n      swap1\n      dup2\n      0x00\n      dup3\n      add\n      sload\n      dup2\n      mstore\n      0x20\n      add\n      0x01\n      dup3\n      add\n      dup1\n      sload\n      tag_177\n      swap1\n      tag_94\n      jump\t// in\n    tag_177:\n      dup1\n      0x1f\n      add\n      0x20\n      dup1\n      swap2\n      div\n      mul\n      0x20\n      add\n      mload(0x40)\n      swap1\n      dup2\n      add\n      0x40\n      mstore\n      dup1\n      swap3\n      swap2\n      swap1\n      dup2\n      dup2\n      mstore\n      0x20\n      add\n      dup3\n      dup1\n      sload\n      tag_178\n      swap1\n      tag_94\n      jump\t// in\n    tag_178:\n      dup1\n      iszero\n      tag_179\n      jumpi\n      dup1\n      0x1f\n      lt\n      tag_180\n      jumpi\n      0x0100\n      dup1\n      dup4\n      sload\n      div\n      mul\n      dup4\n      mstore\n      swap2\n      0x20\n      add\n      swap2\n      jump(tag_179)\n    tag_180:\n      dup3\n      add\n      swap2\n      swap1\n      0x00\n      mstore\n      keccak256(0x00, 0x20)\n      swap1\n    tag_181:\n      dup2\n      sload\n      dup2\n      mstore\n      swap1\n      0x01\n      add\n      swap1\n      0x20\n      add\n      dup1\n      dup4\n      gt\n      tag_181\n      jumpi\n      dup3\n      swap1\n      sub\n      0x1f\n      and\n      dup3\n      add\n      swap2\n    tag_179:\n      pop\n      pop\n      pop\n      pop\n      pop\n      dup2\n      mstore\n      0x20\n      add\n      0x02\n      dup3\n      add\n      dup1\n      sload\n      tag_182\n      swap1\n      tag_94\n      jump\t// in\n    tag_182:\n      dup1\n      0x1f\n      add\n      0x20\n      dup1\n      swap2\n      div\n      mul\n      0x20\n      add\n      mload(0x40)\n      swap1\n      dup2\n      add\n      0x40\n      mstore\n      dup1\n      swap3\n      swap2\n      swap1\n      dup2\n      dup2\n      mstore\n      0x20\n      add\n      dup3\n      dup1\n      sload\n      tag_183\n      swap1\n      tag_94\n      jump\t// in\n    tag_183:\n      dup1\n      iszero\n      tag_184\n      jumpi\n      dup1\n      0x1f\n      lt\n      tag_185\n      jumpi\n      0x0100\n      dup1\n      dup4\n      sload\n      div\n      mul\n      dup4\n      mstore\n      swap2\n      0x20\n      add\n      swap2\n      jump(tag_184)\n    tag_185:\n      dup3\n      add\n      swap2\n      swap1\n      0x00\n      mstore\n      keccak256(0x00, 0x20)\n      swap1\n    tag_186:\n      dup2\n      sload\n      dup2\n      mstore\n      swap1\n      0x01\n      add\n      swap1\n      0x20\n      add\n      dup1\n      dup4\n      gt\n      tag_186\n      jumpi\n      dup3\n      swap1\n      sub\n      0x1f\n      and\n      dup3\n      add\n      swap2\n    tag_184:\n      pop\n      pop\n      pop\n      pop\n      pop\n      dup2\n      mstore\n      0x20\n      add\n      0x03\n      dup3\n      add\n      dup1\n      sload\n      tag_187\n      swap1\n      tag_94\n      jump\t// in\n    tag_187:\n      dup1\n      0x1f\n      add\n      0x20\n      dup1\n      swap2\n      div\n      mul\n      0x20\n      add\n      mload(0x40)\n      swap1\n      dup2\n      add\n      0x40\n      mstore\n      dup1\n      swap3\n      swap2\n      swap1\n      dup2\n      dup2\n      mstore\n      0x20\n      add\n      dup3\n      dup1\n      sload\n      tag_188\n      swap1\n      tag_94\n      jump\t// in\n    tag_188:\n      dup1\n      iszero\n      tag_189\n      jumpi\n      dup1\n      0x1f\n      lt\n      tag_190\n      jumpi\n      0x0100\n      dup1\n      dup4\n      sload\n      div\n      mul\n      dup4\n      mstore\n      swap2\n      0x20\n      add\n      swap2\n      jump(tag_189)\n    tag_190:\n      dup3\n      add\n      swap2\n      swap1\n      0x00\n      mstore\n      keccak256(0x00, 0x20)\n      swap1\n    tag_191:\n      dup2\n      sload\n      dup2\n      mstore\n      swap1\n      0x01\n      add\n      swap1\n      0x20\n      add\n      dup1\n      dup4\n      gt\n      tag_191\n      jumpi\n      dup3\n      swap1\n      sub\n      0x1f\n      and\n      dup3\n      add\n      swap2\n    tag_189:\n      pop\n      pop\n      pop\n      pop\n      pop\n      dup2\n      mstore\n      0x20\n      add\n      0x04\n      dup3\n      add\n      sload\n      dup2\n      mstore\n      0x20\n      add\n      0x05\n      dup3\n      add\n      sload\n      dup2\n      mstore\n      0x20\n      add\n      0x06\n      dup3\n      add\n      sload\n      dup2\n      mstore\n      0x20\n      add\n      0x07\n      dup3\n      add\n      0x00\n      swap1\n      sload\n      swap1\n      0x0100\n      exp\n      swap1\n      div\n      0xff\n      and\n      iszero\n      iszero\n      iszero\n      iszero\n      dup2\n      mstore\n      0x20\n      add\n      0x08\n      dup3\n      add\n      sload\n      dup2\n      mstore\n      pop\n      pop\n        /* \"Book.sol\":2871:2879  allBooks */\n      dup3\n        /* \"Book.sol\":2880:2881  i */\n      dup3\n        /* \"Book.sol\":2871:2882  allBooks[i] */\n      dup2\n      mload\n      dup2\n      lt\n      tag_192\n      jumpi\n      tag_193\n      tag_175\n      jump\t// in\n    tag_193:\n    tag_192:\n      0x20\n      mul\n      0x20\n      add\n      add\n        /* \"Book.sol\":2871:2902  allBooks[i] = books[bookIds[i]] */\n      dup2\n      swap1\n      mstore\n      pop\n        /* \"Book.sol\":2852:2855  i++ */\n      dup1\n      dup1\n      0x01\n      add\n      swap2\n      pop\n      pop\n        /* \"Book.sol\":2812:2913  for (uint256 i = 0; i < bookIds.length; i++) {... */\n      jump(tag_170)\n    tag_171:\n      pop\n        /* \"Book.sol\":2929:2937  allBooks */\n      dup1\n        /* \"Book.sol\":2922:2937  return allBooks */\n      swap2\n      pop\n      pop\n        /* \"Book.sol\":2685:2944  function getBooks() public view returns (Book[] memory) {... */\n      swap1\n      jump\t// out\n        /* \"Book.sol\":1177:1229  mapping(uint256 => address[]) public borrowedHistory */\n    tag_61:\n      mstore(0x20, 0x07)\n      dup2\n      0x00\n      mstore\n      keccak256(0x00, 0x40)\n      dup2\n      dup2\n      sload\n      dup2\n      lt\n      tag_194\n      jumpi\n      0x00\n      dup1\n      revert\n    tag_194:\n      swap1\n      0x00\n      mstore\n      keccak256(0x00, 0x20)\n      add\n      0x00\n      swap2\n      pop\n      swap2\n      pop\n      swap1\n      sload\n      swap1\n      0x0100\n      exp\n      swap1\n      div\n      0xffffffffffffffffffffffffffffffffffffffff\n      and\n      dup2\n      jump\t// out\n        /* \"Book.sol\":1277:2400  function addBook(... */\n    tag_68:\n        /* \"Book.sol\":4262:4274  libraryAdmin */\n      0x02\n      0x00\n      swap1\n      sload\n      swap1\n      0x0100\n      exp\n      swap1\n      div\n      0xffffffffffffffffffffffffffffffffffffffff\n      and\n        /* \"Book.sol\":4248:4274  msg.sender == libraryAdmin */\n      0xffffffffffffffffffffffffffffffffffffffff\n      and\n        /* \"Book.sol\":4248:4258  msg.sender */\n      caller\n        /* \"Book.sol\":4248:4274  msg.sender == libraryAdmin */\n      0xffffffffffffffffffffffffffffffffffffffff\n      and\n      eq\n        /* \"Book.sol\":4240:4296  require(msg.sender == libraryAdmin, \"Not library admin\") */\n      tag_197\n      jumpi\n      mload(0x40)\n      0x08c379a000000000000000000000000000000000000000000000000000000000\n      dup2\n      mstore\n      0x04\n      add\n      tag_198\n      swap1\n      tag_199\n      jump\t// in\n    tag_198:\n      mload(0x40)\n      dup1\n      swap2\n      sub\n      swap1\n      revert\n    tag_197:\n        /* \"Book.sol\":1534:1535  0 */\n      0x00\n        /* \"Book.sol\":1517:1523  _title */\n      dup7\n        /* \"Book.sol\":1511:1531  bytes(_title).length */\n      mload\n        /* \"Book.sol\":1511:1535  bytes(_title).length > 0 */\n      gt\n        /* \"Book.sol\":1503:1562  require(bytes(_title).length > 0, \"Title cannot be empty!\") */\n      tag_201\n      jumpi\n      mload(0x40)\n      0x08c379a000000000000000000000000000000000000000000000000000000000\n      dup2\n      mstore\n      0x04\n      add\n      tag_202\n      swap1\n      tag_203\n      jump\t// in\n    tag_202:\n      mload(0x40)\n      dup1\n      swap2\n      sub\n      swap1\n      revert\n    tag_201:\n        /* \"Book.sol\":1604:1605  0 */\n      0x00\n        /* \"Book.sol\":1586:1593  _author */\n      dup6\n        /* \"Book.sol\":1580:1601  bytes(_author).length */\n      mload\n        /* \"Book.sol\":1580:1605  bytes(_author).length > 0 */\n      gt\n        /* \"Book.sol\":1572:1633  require(bytes(_author).length > 0, \"Author cannot be empty!\") */\n      tag_204\n      jumpi\n      mload(0x40)\n      0x08c379a000000000000000000000000000000000000000000000000000000000\n      dup2\n      mstore\n      0x04\n      add\n      tag_205\n      swap1\n      tag_206\n      jump\t// in\n    tag_205:\n      mload(0x40)\n      dup1\n      swap2\n      sub\n      swap1\n      revert\n    tag_204:\n        /* \"Book.sol\":1674:1675  0 */\n      0x00\n        /* \"Book.sol\":1657:1663  _genre */\n      dup5\n        /* \"Book.sol\":1651:1671  bytes(_genre).length */\n      mload\n        /* \"Book.sol\":1651:1675  bytes(_genre).length > 0 */\n      gt\n        /* \"Book.sol\":1643:1702  require(bytes(_genre).length > 0, \"Genre cannot be empty!\") */\n      tag_207\n      jumpi\n      mload(0x40)\n      0x08c379a000000000000000000000000000000000000000000000000000000000\n      dup2\n      mstore\n      0x04\n      add\n      tag_208\n      swap1\n      tag_209\n      jump\t// in\n    tag_208:\n      mload(0x40)\n      dup1\n      swap2\n      sub\n      swap1\n      revert\n    tag_207:\n        /* \"Book.sol\":1732:1733  0 */\n      0x00\n        /* \"Book.sol\":1720:1729  _quantity */\n      dup4\n        /* \"Book.sol\":1720:1733  _quantity > 0 */\n      gt\n        /* \"Book.sol\":1712:1769  require(_quantity > 0, \"Quantity must be greater than 0\") */\n      tag_210\n      jumpi\n      mload(0x40)\n      0x08c379a000000000000000000000000000000000000000000000000000000000\n      dup2\n      mstore\n      0x04\n      add\n      tag_211\n      swap1\n      tag_212\n      jump\t// in\n    tag_211:\n      mload(0x40)\n      dup1\n      swap2\n      sub\n      swap1\n      revert\n    tag_210:\n        /* \"Book.sol\":1796:1797  0 */\n      0x00\n        /* \"Book.sol\":1787:1793  _price */\n      dup3\n        /* \"Book.sol\":1787:1797  _price > 0 */\n      gt\n        /* \"Book.sol\":1779:1830  require(_price > 0, \"Price must be greater than 0\") */\n      tag_213\n      jumpi\n      mload(0x40)\n      0x08c379a000000000000000000000000000000000000000000000000000000000\n      dup2\n      mstore\n      0x04\n      add\n      tag_214\n      swap1\n      tag_215\n      jump\t// in\n    tag_214:\n      mload(0x40)\n      dup1\n      swap2\n      sub\n      swap1\n      revert\n    tag_213:\n        /* \"Book.sol\":1861:1862  0 */\n      0x00\n        /* \"Book.sol\":1848:1858  _borrowFee */\n      dup2\n        /* \"Book.sol\":1848:1862  _borrowFee > 0 */\n      gt\n        /* \"Book.sol\":1840:1895  require(_borrowFee > 0, \"Price must be greater than 0\") */\n      tag_216\n      jumpi\n      mload(0x40)\n      0x08c379a000000000000000000000000000000000000000000000000000000000\n      dup2\n      mstore\n      0x04\n      add\n      tag_217\n      swap1\n      tag_215\n      jump\t// in\n    tag_217:\n      mload(0x40)\n      dup1\n      swap2\n      sub\n      swap1\n      revert\n    tag_216:\n        /* \"Book.sol\":1906:1917  bytes32 key */\n      0x00\n        /* \"Book.sol\":1947:1953  _title */\n      dup7\n        /* \"Book.sol\":1955:1962  _author */\n      dup7\n        /* \"Book.sol\":1930:1963  abi.encodePacked(_title, _author) */\n      add(0x20, mload(0x40))\n      tag_218\n      swap3\n      swap2\n      swap1\n      tag_219\n      jump\t// in\n    tag_218:\n      mload(0x40)\n      0x20\n      dup2\n      dup4\n      sub\n      sub\n      dup2\n      mstore\n      swap1\n      0x40\n      mstore\n        /* \"Book.sol\":1920:1964  keccak256(abi.encodePacked(_title, _author)) */\n      dup1\n      mload\n      swap1\n      0x20\n      add\n      keccak256\n        /* \"Book.sol\":1906:1964  bytes32 key = keccak256(abi.encodePacked(_title, _author)) */\n      swap1\n      pop\n        /* \"Book.sol\":1983:1992  bookExist */\n      0x06\n        /* \"Book.sol\":1983:1997  bookExist[key] */\n      0x00\n        /* \"Book.sol\":1993:1996  key */\n      dup3\n        /* \"Book.sol\":1983:1997  bookExist[key] */\n      dup2\n      mstore\n      0x20\n      add\n      swap1\n      dup2\n      mstore\n      0x20\n      add\n      0x00\n      keccak256\n      0x00\n      swap1\n      sload\n      swap1\n      0x0100\n      exp\n      swap1\n      div\n      0xff\n      and\n        /* \"Book.sol\":1982:1997  !bookExist[key] */\n      iszero\n        /* \"Book.sol\":1974:2042  require(!bookExist[key], \"This book by this author already exists!\") */\n      tag_220\n      jumpi\n      mload(0x40)\n      0x08c379a000000000000000000000000000000000000000000000000000000000\n      dup2\n      mstore\n      0x04\n      add\n      tag_221\n      swap1\n      tag_222\n      jump\t// in\n    tag_221:\n      mload(0x40)\n      dup1\n      swap2\n      sub\n      swap1\n      revert\n    tag_220:\n        /* \"Book.sol\":2069:2073  true */\n      0x01\n        /* \"Book.sol\":2052:2061  bookExist */\n      0x06\n        /* \"Book.sol\":2052:2066  bookExist[key] */\n      0x00\n        /* \"Book.sol\":2062:2065  key */\n      dup4\n        /* \"Book.sol\":2052:2066  bookExist[key] */\n      dup2\n      mstore\n      0x20\n      add\n      swap1\n      dup2\n      mstore\n      0x20\n      add\n      0x00\n      keccak256\n      0x00\n        /* \"Book.sol\":2052:2073  bookExist[key] = true */\n      0x0100\n      exp\n      dup2\n      sload\n      dup2\n      0xff\n      mul\n      not\n      and\n      swap1\n      dup4\n      iszero\n      iszero\n      mul\n      or\n      swap1\n      sstore\n      pop\n        /* \"Book.sol\":2099:2100  1 */\n      0x01\n        /* \"Book.sol\":2084:2095  bookCounter */\n      0x00\n      0x00\n        /* \"Book.sol\":2084:2100  bookCounter += 1 */\n      dup3\n      dup3\n      sload\n      tag_223\n      swap2\n      swap1\n      tag_224\n      jump\t// in\n    tag_223:\n      swap3\n      pop\n      pop\n      dup2\n      swap1\n      sstore\n      pop\n        /* \"Book.sol\":2110:2121  uint256 _ID */\n      0x00\n        /* \"Book.sol\":2124:2135  bookCounter */\n      sload(0x00)\n        /* \"Book.sol\":2110:2135  uint256 _ID = bookCounter */\n      swap1\n      pop\n        /* \"Book.sol\":2159:2365  Book(... */\n      mload(0x40)\n      dup1\n      0x0120\n      add\n      0x40\n      mstore\n      dup1\n        /* \"Book.sol\":2177:2180  _ID */\n      dup3\n        /* \"Book.sol\":2159:2365  Book(... */\n      dup2\n      mstore\n      0x20\n      add\n        /* \"Book.sol\":2194:2200  _title */\n      dup10\n        /* \"Book.sol\":2159:2365  Book(... */\n      dup2\n      mstore\n      0x20\n      add\n        /* \"Book.sol\":2214:2221  _author */\n      dup9\n        /* \"Book.sol\":2159:2365  Book(... */\n      dup2\n      mstore\n      0x20\n      add\n        /* \"Book.sol\":2235:2241  _genre */\n      dup8\n        /* \"Book.sol\":2159:2365  Book(... */\n      dup2\n      mstore\n      0x20\n      add\n        /* \"Book.sol\":2255:2264  _quantity */\n      dup7\n        /* \"Book.sol\":2159:2365  Book(... */\n      dup2\n      mstore\n      0x20\n      add\n        /* \"Book.sol\":2278:2284  _price */\n      dup6\n        /* \"Book.sol\":2159:2365  Book(... */\n      dup2\n      mstore\n      0x20\n      add\n        /* \"Book.sol\":2298:2308  _borrowFee */\n      dup5\n        /* \"Book.sol\":2159:2365  Book(... */\n      dup2\n      mstore\n      0x20\n      add\n        /* \"Book.sol\":2322:2326  true */\n      0x01\n        /* \"Book.sol\":2159:2365  Book(... */\n      iszero\n      iszero\n      dup2\n      mstore\n      0x20\n      add\n        /* \"Book.sol\":2340:2355  block.timestamp */\n      timestamp\n        /* \"Book.sol\":2159:2365  Book(... */\n      dup2\n      mstore\n      pop\n        /* \"Book.sol\":2146:2151  books */\n      0x05\n        /* \"Book.sol\":2146:2156  books[_ID] */\n      0x00\n        /* \"Book.sol\":2152:2155  _ID */\n      dup4\n        /* \"Book.sol\":2146:2156  books[_ID] */\n      dup2\n      mstore\n      0x20\n      add\n      swap1\n      dup2\n      mstore\n      0x20\n      add\n      0x00\n      keccak256\n        /* \"Book.sol\":2146:2365  books[_ID] = Book(... */\n      0x00\n      dup3\n      add\n      mload\n      dup2\n      0x00\n      add\n      sstore\n      0x20\n      dup3\n      add\n      mload\n      dup2\n      0x01\n      add\n      swap1\n      dup2\n      tag_225\n      swap2\n      swap1\n      tag_226\n      jump\t// in\n    tag_225:\n      pop\n      0x40\n      dup3\n      add\n      mload\n      dup2\n      0x02\n      add\n      swap1\n      dup2\n      tag_227\n      swap2\n      swap1\n      tag_226\n      jump\t// in\n    tag_227:\n      pop\n      0x60\n      dup3\n      add\n      mload\n      dup2\n      0x03\n      add\n      swap1\n      dup2\n      tag_228\n      swap2\n      swap1\n      tag_226\n      jump\t// in\n    tag_228:\n      pop\n      0x80\n      dup3\n      add\n      mload\n      dup2\n      0x04\n      add\n      sstore\n      0xa0\n      dup3\n      add\n      mload\n      dup2\n      0x05\n      add\n      sstore\n      0xc0\n      dup3\n      add\n      mload\n      dup2\n      0x06\n      add\n      sstore\n      0xe0\n      dup3\n      add\n      mload\n      dup2\n      0x07\n      add\n      exp(0x0100, 0x00)\n      dup2\n      sload\n      dup2\n      0xff\n      mul\n      not\n      and\n      swap1\n      dup4\n      iszero\n      iszero\n      mul\n      or\n      swap1\n      sstore\n      pop\n      0x0100\n      dup3\n      add\n      mload\n      dup2\n      0x08\n      add\n      sstore\n      swap1\n      pop\n      pop\n        /* \"Book.sol\":2376:2383  bookIds */\n      0x04\n        /* \"Book.sol\":2389:2392  _ID */\n      dup2\n        /* \"Book.sol\":2376:2393  bookIds.push(_ID) */\n      swap1\n      dup1\n      0x01\n      dup2\n      sload\n      add\n      dup1\n      dup3\n      sstore\n      dup1\n      swap2\n      pop\n      pop\n      0x01\n      swap1\n      sub\n      swap1\n      0x00\n      mstore\n      keccak256(0x00, 0x20)\n      add\n      0x00\n      swap1\n      swap2\n      swap1\n      swap2\n      swap1\n      swap2\n      pop\n      sstore\n        /* \"Book.sol\":1493:2400  {... */\n      pop\n      pop\n        /* \"Book.sol\":1277:2400  function addBook(... */\n      pop\n      pop\n      pop\n      pop\n      pop\n      pop\n      jump\t// out\n        /* \"Book.sol\":166:202  MemberContract public memberContract */\n    tag_71:\n      0x01\n      0x00\n      swap1\n      sload\n      swap1\n      0x0100\n      exp\n      swap1\n      div\n      0xffffffffffffffffffffffffffffffffffffffff\n      and\n      dup2\n      jump\t// out\n        /* \"Book.sol\":4111:4153  function returnBook(uint256 _ID) public {} */\n    tag_77:\n      pop\n      jump\t// out\n        /* \"Book.sol\":2406:2678  function restock(uint256 _ID, uint256 _quantity) public onlyLibraryAdmin {... */\n    tag_81:\n        /* \"Book.sol\":4262:4274  libraryAdmin */\n      0x02\n      0x00\n      swap1\n      sload\n      swap1\n      0x0100\n      exp\n      swap1\n      div\n      0xffffffffffffffffffffffffffffffffffffffff\n      and\n        /* \"Book.sol\":4248:4274  msg.sender == libraryAdmin */\n      0xffffffffffffffffffffffffffffffffffffffff\n      and\n        /* \"Book.sol\":4248:4258  msg.sender */\n      caller\n        /* \"Book.sol\":4248:4274  msg.sender == libraryAdmin */\n      0xffffffffffffffffffffffffffffffffffffffff\n      and\n      eq\n        /* \"Book.sol\":4240:4296  require(msg.sender == libraryAdmin, \"Not library admin\") */\n      tag_232\n      jumpi\n      mload(0x40)\n      0x08c379a000000000000000000000000000000000000000000000000000000000\n      dup2\n      mstore\n      0x04\n      add\n      tag_233\n      swap1\n      tag_199\n      jump\t// in\n    tag_233:\n      mload(0x40)\n      dup1\n      swap2\n      sub\n      swap1\n      revert\n    tag_232:\n        /* \"Book.sol\":2509:2510  0 */\n      0x00\n        /* \"Book.sol\":2497:2506  _quantity */\n      dup2\n        /* \"Book.sol\":2497:2510  _quantity > 0 */\n      gt\n        /* \"Book.sol\":2489:2546  require(_quantity > 0, \"Quantity must be greater than 0\") */\n      tag_235\n      jumpi\n      mload(0x40)\n      0x08c379a000000000000000000000000000000000000000000000000000000000\n      dup2\n      mstore\n      0x04\n      add\n      tag_236\n      swap1\n      tag_212\n      jump\t// in\n    tag_236:\n      mload(0x40)\n      dup1\n      swap2\n      sub\n      swap1\n      revert\n    tag_235:\n        /* \"Book.sol\":2557:2574  Book storage book */\n      0x00\n        /* \"Book.sol\":2577:2582  books */\n      0x05\n        /* \"Book.sol\":2577:2587  books[_ID] */\n      0x00\n        /* \"Book.sol\":2583:2586  _ID */\n      dup5\n        /* \"Book.sol\":2577:2587  books[_ID] */\n      dup2\n      mstore\n      0x20\n      add\n      swap1\n      dup2\n      mstore\n      0x20\n      add\n      0x00\n      keccak256\n        /* \"Book.sol\":2557:2587  Book storage book = books[_ID] */\n      swap1\n      pop\n        /* \"Book.sol\":2605:2609  book */\n      dup1\n        /* \"Book.sol\":2605:2616  book.exists */\n      0x07\n      add\n      0x00\n      swap1\n      sload\n      swap1\n      0x0100\n      exp\n      swap1\n      div\n      0xff\n      and\n        /* \"Book.sol\":2597:2635  require(book.exists, \"Book not found\") */\n      tag_237\n      jumpi\n      mload(0x40)\n      0x08c379a000000000000000000000000000000000000000000000000000000000\n      dup2\n      mstore\n      0x04\n      add\n      tag_238\n      swap1\n      tag_92\n      jump\t// in\n    tag_238:\n      mload(0x40)\n      dup1\n      swap2\n      sub\n      swap1\n      revert\n    tag_237:\n        /* \"Book.sol\":2662:2671  _quantity */\n      dup2\n        /* \"Book.sol\":2645:2649  book */\n      dup2\n        /* \"Book.sol\":2645:2658  book.quantity */\n      0x04\n      add\n      0x00\n        /* \"Book.sol\":2645:2671  book.quantity += _quantity */\n      dup3\n      dup3\n      sload\n      tag_239\n      swap2\n      swap1\n      tag_224\n      jump\t// in\n    tag_239:\n      swap3\n      pop\n      pop\n      dup2\n      swap1\n      sstore\n      pop\n        /* \"Book.sol\":2479:2678  {... */\n      pop\n        /* \"Book.sol\":2406:2678  function restock(uint256 _ID, uint256 _quantity) public onlyLibraryAdmin {... */\n      pop\n      pop\n      jump\t// out\n        /* \"Book.sol\":133:159  uint256 public bookCounter */\n    tag_84:\n      sload(0x00)\n      dup2\n      jump\t// out\n    tag_88:\n      mload(0x40)\n      dup1\n      0x0120\n      add\n      0x40\n      mstore\n      dup1\n      0x00\n      dup2\n      mstore\n      0x20\n      add\n      0x60\n      dup2\n      mstore\n      0x20\n      add\n      0x60\n      dup2\n      mstore\n      0x20\n      add\n      0x60\n      dup2\n      mstore\n      0x20\n      add\n      0x00\n      dup2\n      mstore\n      0x20\n      add\n      0x00\n      dup2\n      mstore\n      0x20\n      add\n      0x00\n      dup2\n      mstore\n      0x20\n      add\n      iszero(iszero(0x00))\n      dup2\n      mstore\n      0x20\n      add\n      0x00\n      dup2\n      mstore\n      pop\n      swap1\n      jump\t// out\n        /* \"#utility.yul\":7:133   */\n    tag_240:\n        /* \"#utility.yul\":44:51   */\n      0x00\n        /* \"#utility.yul\":84:126   */\n      0xffffffffffffffffffffffffffffffffffffffff\n        /* \"#utility.yul\":77:82   */\n      dup3\n        /* \"#utility.yul\":73:127   */\n      and\n        /* \"#utility.yul\":62:127   */\n      swap1\n      pop\n        /* \"#utility.yul\":7:133   */\n      swap2\n      swap1\n      pop\n      jump\t// out\n        /* \"#utility.yul\":139:243   */\n    tag_241:\n        /* \"#utility.yul\":184:191   */\n      0x00\n        /* \"#utility.yul\":213:237   */\n      tag_336\n        /* \"#utility.yul\":231:236   */\n      dup3\n        /* \"#utility.yul\":213:237   */\n      tag_240\n      jump\t// in\n    tag_336:\n        /* \"#utility.yul\":202:237   */\n      swap1\n      pop\n        /* \"#utility.yul\":139:243   */\n      swap2\n      swap1\n      pop\n      jump\t// out\n        /* \"#utility.yul\":249:391   */\n    tag_242:\n        /* \"#utility.yul\":352:384   */\n      tag_338\n        /* \"#utility.yul\":378:383   */\n      dup2\n        /* \"#utility.yul\":352:384   */\n      tag_241\n      jump\t// in\n    tag_338:\n        /* \"#utility.yul\":347:350   */\n      dup3\n        /* \"#utility.yul\":340:385   */\n      mstore\n        /* \"#utility.yul\":249:391   */\n      pop\n      pop\n      jump\t// out\n        /* \"#utility.yul\":397:651   */\n    tag_23:\n        /* \"#utility.yul\":506:510   */\n      0x00\n        /* \"#utility.yul\":544:546   */\n      0x20\n        /* \"#utility.yul\":533:542   */\n      dup3\n        /* \"#utility.yul\":529:547   */\n      add\n        /* \"#utility.yul\":521:547   */\n      swap1\n      pop\n        /* \"#utility.yul\":557:644   */\n      tag_340\n        /* \"#utility.yul\":641:642   */\n      0x00\n        /* \"#utility.yul\":630:639   */\n      dup4\n        /* \"#utility.yul\":626:643   */\n      add\n        /* \"#utility.yul\":617:623   */\n      dup5\n        /* \"#utility.yul\":557:644   */\n      tag_242\n      jump\t// in\n    tag_340:\n        /* \"#utility.yul\":397:651   */\n      swap3\n      swap2\n      pop\n      pop\n      jump\t// out\n        /* \"#utility.yul\":657:732   */\n    tag_243:\n        /* \"#utility.yul\":690:696   */\n      0x00\n        /* \"#utility.yul\":723:725   */\n      0x40\n        /* \"#utility.yul\":717:726   */\n      mload\n        /* \"#utility.yul\":707:726   */\n      swap1\n      pop\n        /* \"#utility.yul\":657:732   */\n      swap1\n      jump\t// out\n        /* \"#utility.yul\":738:855   */\n    tag_244:\n        /* \"#utility.yul\":847:848   */\n      0x00\n        /* \"#utility.yul\":844:845   */\n      0x00\n        /* \"#utility.yul\":837:849   */\n      revert\n        /* \"#utility.yul\":861:978   */\n    tag_245:\n        /* \"#utility.yul\":970:971   */\n      0x00\n        /* \"#utility.yul\":967:968   */\n      0x00\n        /* \"#utility.yul\":960:972   */\n      revert\n        /* \"#utility.yul\":984:1061   */\n    tag_246:\n        /* \"#utility.yul\":1021:1028   */\n      0x00\n        /* \"#utility.yul\":1050:1055   */\n      dup2\n        /* \"#utility.yul\":1039:1055   */\n      swap1\n      pop\n        /* \"#utility.yul\":984:1061   */\n      swap2\n      swap1\n      pop\n      jump\t// out\n        /* \"#utility.yul\":1067:1189   */\n    tag_247:\n        /* \"#utility.yul\":1140:1164   */\n      tag_346\n        /* \"#utility.yul\":1158:1163   */\n      dup2\n        /* \"#utility.yul\":1140:1164   */\n      tag_246\n      jump\t// in\n    tag_346:\n        /* \"#utility.yul\":1133:1138   */\n      dup2\n        /* \"#utility.yul\":1130:1165   */\n      eq\n        /* \"#utility.yul\":1120:1183   */\n      tag_347\n      jumpi\n        /* \"#utility.yul\":1179:1180   */\n      0x00\n        /* \"#utility.yul\":1176:1177   */\n      0x00\n        /* \"#utility.yul\":1169:1181   */\n      revert\n        /* \"#utility.yul\":1120:1183   */\n    tag_347:\n        /* \"#utility.yul\":1067:1189   */\n      pop\n      jump\t// out\n        /* \"#utility.yul\":1195:1334   */\n    tag_248:\n        /* \"#utility.yul\":1241:1246   */\n      0x00\n        /* \"#utility.yul\":1279:1285   */\n      dup2\n        /* \"#utility.yul\":1266:1286   */\n      calldataload\n        /* \"#utility.yul\":1257:1286   */\n      swap1\n      pop\n        /* \"#utility.yul\":1295:1328   */\n      tag_349\n        /* \"#utility.yul\":1322:1327   */\n      dup2\n        /* \"#utility.yul\":1295:1328   */\n      tag_247\n      jump\t// in\n    tag_349:\n        /* \"#utility.yul\":1195:1334   */\n      swap3\n      swap2\n      pop\n      pop\n      jump\t// out\n        /* \"#utility.yul\":1340:1669   */\n    tag_29:\n        /* \"#utility.yul\":1399:1405   */\n      0x00\n        /* \"#utility.yul\":1448:1450   */\n      0x20\n        /* \"#utility.yul\":1436:1445   */\n      dup3\n        /* \"#utility.yul\":1427:1434   */\n      dup5\n        /* \"#utility.yul\":1423:1446   */\n      sub\n        /* \"#utility.yul\":1419:1451   */\n      slt\n        /* \"#utility.yul\":1416:1535   */\n      iszero\n      tag_351\n      jumpi\n        /* \"#utility.yul\":1454:1533   */\n      tag_352\n      tag_244\n      jump\t// in\n    tag_352:\n        /* \"#utility.yul\":1416:1535   */\n    tag_351:\n        /* \"#utility.yul\":1574:1575   */\n      0x00\n        /* \"#utility.yul\":1599:1652   */\n      tag_353\n        /* \"#utility.yul\":1644:1651   */\n      dup5\n        /* \"#utility.yul\":1635:1641   */\n      dup3\n        /* \"#utility.yul\":1624:1633   */\n      dup6\n        /* \"#utility.yul\":1620:1642   */\n      add\n        /* \"#utility.yul\":1599:1652   */\n      tag_248\n      jump\t// in\n    tag_353:\n        /* \"#utility.yul\":1589:1652   */\n      swap2\n      pop\n        /* \"#utility.yul\":1545:1662   */\n      pop\n        /* \"#utility.yul\":1340:1669   */\n      swap3\n      swap2\n      pop\n      pop\n      jump\t// out\n        /* \"#utility.yul\":1675:1783   */\n    tag_249:\n        /* \"#utility.yul\":1752:1776   */\n      tag_355\n        /* \"#utility.yul\":1770:1775   */\n      dup2\n        /* \"#utility.yul\":1752:1776   */\n      tag_246\n      jump\t// in\n    tag_355:\n        /* \"#utility.yul\":1747:1750   */\n      dup3\n        /* \"#utility.yul\":1740:1777   */\n      mstore\n        /* \"#utility.yul\":1675:1783   */\n      pop\n      pop\n      jump\t// out\n        /* \"#utility.yul\":1789:1888   */\n    tag_250:\n        /* \"#utility.yul\":1841:1847   */\n      0x00\n        /* \"#utility.yul\":1875:1880   */\n      dup2\n        /* \"#utility.yul\":1869:1881   */\n      mload\n        /* \"#utility.yul\":1859:1881   */\n      swap1\n      pop\n        /* \"#utility.yul\":1789:1888   */\n      swap2\n      swap1\n      pop\n      jump\t// out\n        /* \"#utility.yul\":1894:2053   */\n    tag_251:\n        /* \"#utility.yul\":1968:1979   */\n      0x00\n        /* \"#utility.yul\":2002:2008   */\n      dup3\n        /* \"#utility.yul\":1997:2000   */\n      dup3\n        /* \"#utility.yul\":1990:2009   */\n      mstore\n        /* \"#utility.yul\":2042:2046   */\n      0x20\n        /* \"#utility.yul\":2037:2040   */\n      dup3\n        /* \"#utility.yul\":2033:2047   */\n      add\n        /* \"#utility.yul\":2018:2047   */\n      swap1\n      pop\n        /* \"#utility.yul\":1894:2053   */\n      swap3\n      swap2\n      pop\n      pop\n      jump\t// out\n        /* \"#utility.yul\":2059:2198   */\n    tag_252:\n        /* \"#utility.yul\":2148:2154   */\n      dup3\n        /* \"#utility.yul\":2143:2146   */\n      dup2\n        /* \"#utility.yul\":2138:2141   */\n      dup4\n        /* \"#utility.yul\":2132:2155   */\n      mcopy\n        /* \"#utility.yul\":2189:2190   */\n      0x00\n        /* \"#utility.yul\":2180:2186   */\n      dup4\n        /* \"#utility.yul\":2175:2178   */\n      dup4\n        /* \"#utility.yul\":2171:2187   */\n      add\n        /* \"#utility.yul\":2164:2191   */\n      mstore\n        /* \"#utility.yul\":2059:2198   */\n      pop\n      pop\n      pop\n      jump\t// out\n        /* \"#utility.yul\":2204:2306   */\n    tag_253:\n        /* \"#utility.yul\":2245:2251   */\n      0x00\n        /* \"#utility.yul\":2296:2298   */\n      0x1f\n        /* \"#utility.yul\":2292:2299   */\n      not\n        /* \"#utility.yul\":2287:2289   */\n      0x1f\n        /* \"#utility.yul\":2280:2285   */\n      dup4\n        /* \"#utility.yul\":2276:2290   */\n      add\n        /* \"#utility.yul\":2272:2300   */\n      and\n        /* \"#utility.yul\":2262:2300   */\n      swap1\n      pop\n        /* \"#utility.yul\":2204:2306   */\n      swap2\n      swap1\n      pop\n      jump\t// out\n        /* \"#utility.yul\":2312:2669   */\n    tag_254:\n        /* \"#utility.yul\":2390:2393   */\n      0x00\n        /* \"#utility.yul\":2418:2457   */\n      tag_361\n        /* \"#utility.yul\":2451:2456   */\n      dup3\n        /* \"#utility.yul\":2418:2457   */\n      tag_250\n      jump\t// in\n    tag_361:\n        /* \"#utility.yul\":2473:2534   */\n      tag_362\n        /* \"#utility.yul\":2527:2533   */\n      dup2\n        /* \"#utility.yul\":2522:2525   */\n      dup6\n        /* \"#utility.yul\":2473:2534   */\n      tag_251\n      jump\t// in\n    tag_362:\n        /* \"#utility.yul\":2466:2534   */\n      swap4\n      pop\n        /* \"#utility.yul\":2543:2608   */\n      tag_363\n        /* \"#utility.yul\":2601:2607   */\n      dup2\n        /* \"#utility.yul\":2596:2599   */\n      dup6\n        /* \"#utility.yul\":2589:2593   */\n      0x20\n        /* \"#utility.yul\":2582:2587   */\n      dup7\n        /* \"#utility.yul\":2578:2594   */\n      add\n        /* \"#utility.yul\":2543:2608   */\n      tag_252\n      jump\t// in\n    tag_363:\n        /* \"#utility.yul\":2633:2662   */\n      tag_364\n        /* \"#utility.yul\":2655:2661   */\n      dup2\n        /* \"#utility.yul\":2633:2662   */\n      tag_253\n      jump\t// in\n    tag_364:\n        /* \"#utility.yul\":2628:2631   */\n      dup5\n        /* \"#utility.yul\":2624:2663   */\n      add\n        /* \"#utility.yul\":2617:2663   */\n      swap2\n      pop\n        /* \"#utility.yul\":2394:2669   */\n      pop\n        /* \"#utility.yul\":2312:2669   */\n      swap3\n      swap2\n      pop\n      pop\n      jump\t// out\n        /* \"#utility.yul\":2675:2765   */\n    tag_255:\n        /* \"#utility.yul\":2709:2716   */\n      0x00\n        /* \"#utility.yul\":2752:2757   */\n      dup2\n        /* \"#utility.yul\":2745:2758   */\n      iszero\n        /* \"#utility.yul\":2738:2759   */\n      iszero\n        /* \"#utility.yul\":2727:2759   */\n      swap1\n      pop\n        /* \"#utility.yul\":2675:2765   */\n      swap2\n      swap1\n      pop\n      jump\t// out\n        /* \"#utility.yul\":2771:2870   */\n    tag_256:\n        /* \"#utility.yul\":2842:2863   */\n      tag_367\n        /* \"#utility.yul\":2857:2862   */\n      dup2\n        /* \"#utility.yul\":2842:2863   */\n      tag_255\n      jump\t// in\n    tag_367:\n        /* \"#utility.yul\":2837:2840   */\n      dup3\n        /* \"#utility.yul\":2830:2864   */\n      mstore\n        /* \"#utility.yul\":2771:2870   */\n      pop\n      pop\n      jump\t// out\n        /* \"#utility.yul\":2936:4906   */\n    tag_257:\n        /* \"#utility.yul\":3045:3048   */\n      0x00\n        /* \"#utility.yul\":3081:3087   */\n      0x0120\n        /* \"#utility.yul\":3076:3079   */\n      dup4\n        /* \"#utility.yul\":3072:3088   */\n      add\n        /* \"#utility.yul\":3168:3172   */\n      0x00\n        /* \"#utility.yul\":3161:3166   */\n      dup4\n        /* \"#utility.yul\":3157:3173   */\n      add\n        /* \"#utility.yul\":3151:3174   */\n      mload\n        /* \"#utility.yul\":3187:3250   */\n      tag_369\n        /* \"#utility.yul\":3244:3248   */\n      0x00\n        /* \"#utility.yul\":3239:3242   */\n      dup7\n        /* \"#utility.yul\":3235:3249   */\n      add\n        /* \"#utility.yul\":3221:3233   */\n      dup3\n        /* \"#utility.yul\":3187:3250   */\n      tag_249\n      jump\t// in\n    tag_369:\n        /* \"#utility.yul\":3098:3260   */\n      pop\n        /* \"#utility.yul\":3343:3347   */\n      0x20\n        /* \"#utility.yul\":3336:3341   */\n      dup4\n        /* \"#utility.yul\":3332:3348   */\n      add\n        /* \"#utility.yul\":3326:3349   */\n      mload\n        /* \"#utility.yul\":3396:3399   */\n      dup5\n        /* \"#utility.yul\":3390:3394   */\n      dup3\n        /* \"#utility.yul\":3386:3400   */\n      sub\n        /* \"#utility.yul\":3379:3383   */\n      0x20\n        /* \"#utility.yul\":3374:3377   */\n      dup7\n        /* \"#utility.yul\":3370:3384   */\n      add\n        /* \"#utility.yul\":3363:3401   */\n      mstore\n        /* \"#utility.yul\":3422:3495   */\n      tag_370\n        /* \"#utility.yul\":3490:3494   */\n      dup3\n        /* \"#utility.yul\":3476:3488   */\n      dup3\n        /* \"#utility.yul\":3422:3495   */\n      tag_254\n      jump\t// in\n    tag_370:\n        /* \"#utility.yul\":3414:3495   */\n      swap2\n      pop\n        /* \"#utility.yul\":3270:3506   */\n      pop\n        /* \"#utility.yul\":3590:3594   */\n      0x40\n        /* \"#utility.yul\":3583:3588   */\n      dup4\n        /* \"#utility.yul\":3579:3595   */\n      add\n        /* \"#utility.yul\":3573:3596   */\n      mload\n        /* \"#utility.yul\":3643:3646   */\n      dup5\n        /* \"#utility.yul\":3637:3641   */\n      dup3\n        /* \"#utility.yul\":3633:3647   */\n      sub\n        /* \"#utility.yul\":3626:3630   */\n      0x40\n        /* \"#utility.yul\":3621:3624   */\n      dup7\n        /* \"#utility.yul\":3617:3631   */\n      add\n        /* \"#utility.yul\":3610:3648   */\n      mstore\n        /* \"#utility.yul\":3669:3742   */\n      tag_371\n        /* \"#utility.yul\":3737:3741   */\n      dup3\n        /* \"#utility.yul\":3723:3735   */\n      dup3\n        /* \"#utility.yul\":3669:3742   */\n      tag_254\n      jump\t// in\n    tag_371:\n        /* \"#utility.yul\":3661:3742   */\n      swap2\n      pop\n        /* \"#utility.yul\":3516:3753   */\n      pop\n        /* \"#utility.yul\":3836:3840   */\n      0x60\n        /* \"#utility.yul\":3829:3834   */\n      dup4\n        /* \"#utility.yul\":3825:3841   */\n      add\n        /* \"#utility.yul\":3819:3842   */\n      mload\n        /* \"#utility.yul\":3889:3892   */\n      dup5\n        /* \"#utility.yul\":3883:3887   */\n      dup3\n        /* \"#utility.yul\":3879:3893   */\n      sub\n        /* \"#utility.yul\":3872:3876   */\n      0x60\n        /* \"#utility.yul\":3867:3870   */\n      dup7\n        /* \"#utility.yul\":3863:3877   */\n      add\n        /* \"#utility.yul\":3856:3894   */\n      mstore\n        /* \"#utility.yul\":3915:3988   */\n      tag_372\n        /* \"#utility.yul\":3983:3987   */\n      dup3\n        /* \"#utility.yul\":3969:3981   */\n      dup3\n        /* \"#utility.yul\":3915:3988   */\n      tag_254\n      jump\t// in\n    tag_372:\n        /* \"#utility.yul\":3907:3988   */\n      swap2\n      pop\n        /* \"#utility.yul\":3763:3999   */\n      pop\n        /* \"#utility.yul\":4085:4089   */\n      0x80\n        /* \"#utility.yul\":4078:4083   */\n      dup4\n        /* \"#utility.yul\":4074:4090   */\n      add\n        /* \"#utility.yul\":4068:4091   */\n      mload\n        /* \"#utility.yul\":4104:4167   */\n      tag_373\n        /* \"#utility.yul\":4161:4165   */\n      0x80\n        /* \"#utility.yul\":4156:4159   */\n      dup7\n        /* \"#utility.yul\":4152:4166   */\n      add\n        /* \"#utility.yul\":4138:4150   */\n      dup3\n        /* \"#utility.yul\":4104:4167   */\n      tag_249\n      jump\t// in\n    tag_373:\n        /* \"#utility.yul\":4009:4177   */\n      pop\n        /* \"#utility.yul\":4260:4264   */\n      0xa0\n        /* \"#utility.yul\":4253:4258   */\n      dup4\n        /* \"#utility.yul\":4249:4265   */\n      add\n        /* \"#utility.yul\":4243:4266   */\n      mload\n        /* \"#utility.yul\":4279:4342   */\n      tag_374\n        /* \"#utility.yul\":4336:4340   */\n      0xa0\n        /* \"#utility.yul\":4331:4334   */\n      dup7\n        /* \"#utility.yul\":4327:4341   */\n      add\n        /* \"#utility.yul\":4313:4325   */\n      dup3\n        /* \"#utility.yul\":4279:4342   */\n      tag_249\n      jump\t// in\n    tag_374:\n        /* \"#utility.yul\":4187:4352   */\n      pop\n        /* \"#utility.yul\":4439:4443   */\n      0xc0\n        /* \"#utility.yul\":4432:4437   */\n      dup4\n        /* \"#utility.yul\":4428:4444   */\n      add\n        /* \"#utility.yul\":4422:4445   */\n      mload\n        /* \"#utility.yul\":4458:4521   */\n      tag_375\n        /* \"#utility.yul\":4515:4519   */\n      0xc0\n        /* \"#utility.yul\":4510:4513   */\n      dup7\n        /* \"#utility.yul\":4506:4520   */\n      add\n        /* \"#utility.yul\":4492:4504   */\n      dup3\n        /* \"#utility.yul\":4458:4521   */\n      tag_249\n      jump\t// in\n    tag_375:\n        /* \"#utility.yul\":4362:4531   */\n      pop\n        /* \"#utility.yul\":4615:4619   */\n      0xe0\n        /* \"#utility.yul\":4608:4613   */\n      dup4\n        /* \"#utility.yul\":4604:4620   */\n      add\n        /* \"#utility.yul\":4598:4621   */\n      mload\n        /* \"#utility.yul\":4634:4691   */\n      tag_376\n        /* \"#utility.yul\":4685:4689   */\n      0xe0\n        /* \"#utility.yul\":4680:4683   */\n      dup7\n        /* \"#utility.yul\":4676:4690   */\n      add\n        /* \"#utility.yul\":4662:4674   */\n      dup3\n        /* \"#utility.yul\":4634:4691   */\n      tag_256\n      jump\t// in\n    tag_376:\n        /* \"#utility.yul\":4541:4701   */\n      pop\n        /* \"#utility.yul\":4783:4789   */\n      0x0100\n        /* \"#utility.yul\":4776:4781   */\n      dup4\n        /* \"#utility.yul\":4772:4790   */\n      add\n        /* \"#utility.yul\":4766:4791   */\n      mload\n        /* \"#utility.yul\":4804:4869   */\n      tag_377\n        /* \"#utility.yul\":4861:4867   */\n      0x0100\n        /* \"#utility.yul\":4856:4859   */\n      dup7\n        /* \"#utility.yul\":4852:4868   */\n      add\n        /* \"#utility.yul\":4838:4850   */\n      dup3\n        /* \"#utility.yul\":4804:4869   */\n      tag_249\n      jump\t// in\n    tag_377:\n        /* \"#utility.yul\":4711:4879   */\n      pop\n        /* \"#utility.yul\":4896:4900   */\n      dup1\n        /* \"#utility.yul\":4889:4900   */\n      swap2\n      pop\n        /* \"#utility.yul\":3050:4906   */\n      pop\n        /* \"#utility.yul\":2936:4906   */\n      swap3\n      swap2\n      pop\n      pop\n      jump\t// out\n        /* \"#utility.yul\":4912:5265   */\n    tag_32:\n        /* \"#utility.yul\":5045:5049   */\n      0x00\n        /* \"#utility.yul\":5083:5085   */\n      0x20\n        /* \"#utility.yul\":5072:5081   */\n      dup3\n        /* \"#utility.yul\":5068:5086   */\n      add\n        /* \"#utility.yul\":5060:5086   */\n      swap1\n      pop\n        /* \"#utility.yul\":5132:5141   */\n      dup2\n        /* \"#utility.yul\":5126:5130   */\n      dup2\n        /* \"#utility.yul\":5122:5142   */\n      sub\n        /* \"#utility.yul\":5118:5119   */\n      0x00\n        /* \"#utility.yul\":5107:5116   */\n      dup4\n        /* \"#utility.yul\":5103:5120   */\n      add\n        /* \"#utility.yul\":5096:5143   */\n      mstore\n        /* \"#utility.yul\":5160:5258   */\n      tag_379\n        /* \"#utility.yul\":5253:5257   */\n      dup2\n        /* \"#utility.yul\":5244:5250   */\n      dup5\n        /* \"#utility.yul\":5160:5258   */\n      tag_257\n      jump\t// in\n    tag_379:\n        /* \"#utility.yul\":5152:5258   */\n      swap1\n      pop\n        /* \"#utility.yul\":4912:5265   */\n      swap3\n      swap2\n      pop\n      pop\n      jump\t// out\n        /* \"#utility.yul\":5271:5389   */\n    tag_258:\n        /* \"#utility.yul\":5358:5382   */\n      tag_381\n        /* \"#utility.yul\":5376:5381   */\n      dup2\n        /* \"#utility.yul\":5358:5382   */\n      tag_246\n      jump\t// in\n    tag_381:\n        /* \"#utility.yul\":5353:5356   */\n      dup3\n        /* \"#utility.yul\":5346:5383   */\n      mstore\n        /* \"#utility.yul\":5271:5389   */\n      pop\n      pop\n      jump\t// out\n        /* \"#utility.yul\":5395:5617   */\n    tag_38:\n        /* \"#utility.yul\":5488:5492   */\n      0x00\n        /* \"#utility.yul\":5526:5528   */\n      0x20\n        /* \"#utility.yul\":5515:5524   */\n      dup3\n        /* \"#utility.yul\":5511:5529   */\n      add\n        /* \"#utility.yul\":5503:5529   */\n      swap1\n      pop\n        /* \"#utility.yul\":5539:5610   */\n      tag_383\n        /* \"#utility.yul\":5607:5608   */\n      0x00\n        /* \"#utility.yul\":5596:5605   */\n      dup4\n        /* \"#utility.yul\":5592:5609   */\n      add\n        /* \"#utility.yul\":5583:5589   */\n      dup5\n        /* \"#utility.yul\":5539:5610   */\n      tag_258\n      jump\t// in\n    tag_383:\n        /* \"#utility.yul\":5395:5617   */\n      swap3\n      swap2\n      pop\n      pop\n      jump\t// out\n        /* \"#utility.yul\":5623:5792   */\n    tag_259:\n        /* \"#utility.yul\":5707:5718   */\n      0x00\n        /* \"#utility.yul\":5741:5747   */\n      dup3\n        /* \"#utility.yul\":5736:5739   */\n      dup3\n        /* \"#utility.yul\":5729:5748   */\n      mstore\n        /* \"#utility.yul\":5781:5785   */\n      0x20\n        /* \"#utility.yul\":5776:5779   */\n      dup3\n        /* \"#utility.yul\":5772:5786   */\n      add\n        /* \"#utility.yul\":5757:5786   */\n      swap1\n      pop\n        /* \"#utility.yul\":5623:5792   */\n      swap3\n      swap2\n      pop\n      pop\n      jump\t// out\n        /* \"#utility.yul\":5798:6175   */\n    tag_260:\n        /* \"#utility.yul\":5886:5889   */\n      0x00\n        /* \"#utility.yul\":5914:5953   */\n      tag_386\n        /* \"#utility.yul\":5947:5952   */\n      dup3\n        /* \"#utility.yul\":5914:5953   */\n      tag_250\n      jump\t// in\n    tag_386:\n        /* \"#utility.yul\":5969:6040   */\n      tag_387\n        /* \"#utility.yul\":6033:6039   */\n      dup2\n        /* \"#utility.yul\":6028:6031   */\n      dup6\n        /* \"#utility.yul\":5969:6040   */\n      tag_259\n      jump\t// in\n    tag_387:\n        /* \"#utility.yul\":5962:6040   */\n      swap4\n      pop\n        /* \"#utility.yul\":6049:6114   */\n      tag_388\n        /* \"#utility.yul\":6107:6113   */\n      dup2\n        /* \"#utility.yul\":6102:6105   */\n      dup6\n        /* \"#utility.yul\":6095:6099   */\n      0x20\n        /* \"#utility.yul\":6088:6093   */\n      dup7\n        /* \"#utility.yul\":6084:6100   */\n      add\n        /* \"#utility.yul\":6049:6114   */\n      tag_252\n      jump\t// in\n    tag_388:\n        /* \"#utility.yul\":6139:6168   */\n      tag_389\n        /* \"#utility.yul\":6161:6167   */\n      dup2\n        /* \"#utility.yul\":6139:6168   */\n      tag_253\n      jump\t// in\n    tag_389:\n        /* \"#utility.yul\":6134:6137   */\n      dup5\n        /* \"#utility.yul\":6130:6169   */\n      add\n        /* \"#utility.yul\":6123:6169   */\n      swap2\n      pop\n        /* \"#utility.yul\":5890:6175   */\n      pop\n        /* \"#utility.yul\":5798:6175   */\n      swap3\n      swap2\n      pop\n      pop\n      jump\t// out\n        /* \"#utility.yul\":6181:6290   */\n    tag_261:\n        /* \"#utility.yul\":6262:6283   */\n      tag_391\n        /* \"#utility.yul\":6277:6282   */\n      dup2\n        /* \"#utility.yul\":6262:6283   */\n      tag_255\n      jump\t// in\n    tag_391:\n        /* \"#utility.yul\":6257:6260   */\n      dup3\n        /* \"#utility.yul\":6250:6284   */\n      mstore\n        /* \"#utility.yul\":6181:6290   */\n      pop\n      pop\n      jump\t// out\n        /* \"#utility.yul\":6296:7665   */\n    tag_44:\n        /* \"#utility.yul\":6667:6671   */\n      0x00\n        /* \"#utility.yul\":6705:6708   */\n      0x0120\n        /* \"#utility.yul\":6694:6703   */\n      dup3\n        /* \"#utility.yul\":6690:6709   */\n      add\n        /* \"#utility.yul\":6682:6709   */\n      swap1\n      pop\n        /* \"#utility.yul\":6719:6790   */\n      tag_393\n        /* \"#utility.yul\":6787:6788   */\n      0x00\n        /* \"#utility.yul\":6776:6785   */\n      dup4\n        /* \"#utility.yul\":6772:6789   */\n      add\n        /* \"#utility.yul\":6763:6769   */\n      dup13\n        /* \"#utility.yul\":6719:6790   */\n      tag_258\n      jump\t// in\n    tag_393:\n        /* \"#utility.yul\":6837:6846   */\n      dup2\n        /* \"#utility.yul\":6831:6835   */\n      dup2\n        /* \"#utility.yul\":6827:6847   */\n      sub\n        /* \"#utility.yul\":6822:6824   */\n      0x20\n        /* \"#utility.yul\":6811:6820   */\n      dup4\n        /* \"#utility.yul\":6807:6825   */\n      add\n        /* \"#utility.yul\":6800:6848   */\n      mstore\n        /* \"#utility.yul\":6865:6943   */\n      tag_394\n        /* \"#utility.yul\":6938:6942   */\n      dup2\n        /* \"#utility.yul\":6929:6935   */\n      dup12\n        /* \"#utility.yul\":6865:6943   */\n      tag_260\n      jump\t// in\n    tag_394:\n        /* \"#utility.yul\":6857:6943   */\n      swap1\n      pop\n        /* \"#utility.yul\":6990:6999   */\n      dup2\n        /* \"#utility.yul\":6984:6988   */\n      dup2\n        /* \"#utility.yul\":6980:7000   */\n      sub\n        /* \"#utility.yul\":6975:6977   */\n      0x40\n        /* \"#utility.yul\":6964:6973   */\n      dup4\n        /* \"#utility.yul\":6960:6978   */\n      add\n        /* \"#utility.yul\":6953:7001   */\n      mstore\n        /* \"#utility.yul\":7018:7096   */\n      tag_395\n        /* \"#utility.yul\":7091:7095   */\n      dup2\n        /* \"#utility.yul\":7082:7088   */\n      dup11\n        /* \"#utility.yul\":7018:7096   */\n      tag_260\n      jump\t// in\n    tag_395:\n        /* \"#utility.yul\":7010:7096   */\n      swap1\n      pop\n        /* \"#utility.yul\":7143:7152   */\n      dup2\n        /* \"#utility.yul\":7137:7141   */\n      dup2\n        /* \"#utility.yul\":7133:7153   */\n      sub\n        /* \"#utility.yul\":7128:7130   */\n      0x60\n        /* \"#utility.yul\":7117:7126   */\n      dup4\n        /* \"#utility.yul\":7113:7131   */\n      add\n        /* \"#utility.yul\":7106:7154   */\n      mstore\n        /* \"#utility.yul\":7171:7249   */\n      tag_396\n        /* \"#utility.yul\":7244:7248   */\n      dup2\n        /* \"#utility.yul\":7235:7241   */\n      dup10\n        /* \"#utility.yul\":7171:7249   */\n      tag_260\n      jump\t// in\n    tag_396:\n        /* \"#utility.yul\":7163:7249   */\n      swap1\n      pop\n        /* \"#utility.yul\":7259:7332   */\n      tag_397\n        /* \"#utility.yul\":7327:7330   */\n      0x80\n        /* \"#utility.yul\":7316:7325   */\n      dup4\n        /* \"#utility.yul\":7312:7331   */\n      add\n        /* \"#utility.yul\":7303:7309   */\n      dup9\n        /* \"#utility.yul\":7259:7332   */\n      tag_258\n      jump\t// in\n    tag_397:\n        /* \"#utility.yul\":7342:7415   */\n      tag_398\n        /* \"#utility.yul\":7410:7413   */\n      0xa0\n        /* \"#utility.yul\":7399:7408   */\n      dup4\n        /* \"#utility.yul\":7395:7414   */\n      add\n        /* \"#utility.yul\":7386:7392   */\n      dup8\n        /* \"#utility.yul\":7342:7415   */\n      tag_258\n      jump\t// in\n    tag_398:\n        /* \"#utility.yul\":7425:7498   */\n      tag_399\n        /* \"#utility.yul\":7493:7496   */\n      0xc0\n        /* \"#utility.yul\":7482:7491   */\n      dup4\n        /* \"#utility.yul\":7478:7497   */\n      add\n        /* \"#utility.yul\":7469:7475   */\n      dup7\n        /* \"#utility.yul\":7425:7498   */\n      tag_258\n      jump\t// in\n    tag_399:\n        /* \"#utility.yul\":7508:7575   */\n      tag_400\n        /* \"#utility.yul\":7570:7573   */\n      0xe0\n        /* \"#utility.yul\":7559:7568   */\n      dup4\n        /* \"#utility.yul\":7555:7574   */\n      add\n        /* \"#utility.yul\":7546:7552   */\n      dup6\n        /* \"#utility.yul\":7508:7575   */\n      tag_261\n      jump\t// in\n    tag_400:\n        /* \"#utility.yul\":7585:7658   */\n      tag_401\n        /* \"#utility.yul\":7653:7656   */\n      0x0100\n        /* \"#utility.yul\":7642:7651   */\n      dup4\n        /* \"#utility.yul\":7638:7657   */\n      add\n        /* \"#utility.yul\":7629:7635   */\n      dup5\n        /* \"#utility.yul\":7585:7658   */\n      tag_258\n      jump\t// in\n    tag_401:\n        /* \"#utility.yul\":6296:7665   */\n      swap11\n      swap10\n      pop\n      pop\n      pop\n      pop\n      pop\n      pop\n      pop\n      pop\n      pop\n      pop\n      jump\t// out\n        /* \"#utility.yul\":7671:7805   */\n    tag_262:\n        /* \"#utility.yul\":7758:7764   */\n      0x00\n        /* \"#utility.yul\":7792:7797   */\n      dup2\n        /* \"#utility.yul\":7786:7798   */\n      mload\n        /* \"#utility.yul\":7776:7798   */\n      swap1\n      pop\n        /* \"#utility.yul\":7671:7805   */\n      swap2\n      swap1\n      pop\n      jump\t// out\n        /* \"#utility.yul\":7811:8015   */\n    tag_263:\n        /* \"#utility.yul\":7930:7941   */\n      0x00\n        /* \"#utility.yul\":7964:7970   */\n      dup3\n        /* \"#utility.yul\":7959:7962   */\n      dup3\n        /* \"#utility.yul\":7952:7971   */\n      mstore\n        /* \"#utility.yul\":8004:8008   */\n      0x20\n        /* \"#utility.yul\":7999:8002   */\n      dup3\n        /* \"#utility.yul\":7995:8009   */\n      add\n        /* \"#utility.yul\":7980:8009   */\n      swap1\n      pop\n        /* \"#utility.yul\":7811:8015   */\n      swap3\n      swap2\n      pop\n      pop\n      jump\t// out\n        /* \"#utility.yul\":8021:8173   */\n    tag_264:\n        /* \"#utility.yul\":8108:8112   */\n      0x00\n        /* \"#utility.yul\":8131:8134   */\n      dup2\n        /* \"#utility.yul\":8123:8134   */\n      swap1\n      pop\n        /* \"#utility.yul\":8161:8165   */\n      0x20\n        /* \"#utility.yul\":8156:8159   */\n      dup3\n        /* \"#utility.yul\":8152:8166   */\n      add\n        /* \"#utility.yul\":8144:8166   */\n      swap1\n      pop\n        /* \"#utility.yul\":8021:8173   */\n      swap2\n      swap1\n      pop\n      jump\t// out\n        /* \"#utility.yul\":8239:10199   */\n    tag_265:\n        /* \"#utility.yul\":8338:8341   */\n      0x00\n        /* \"#utility.yul\":8374:8380   */\n      0x0120\n        /* \"#utility.yul\":8369:8372   */\n      dup4\n        /* \"#utility.yul\":8365:8381   */\n      add\n        /* \"#utility.yul\":8461:8465   */\n      0x00\n        /* \"#utility.yul\":8454:8459   */\n      dup4\n        /* \"#utility.yul\":8450:8466   */\n      add\n        /* \"#utility.yul\":8444:8467   */\n      mload\n        /* \"#utility.yul\":8480:8543   */\n      tag_406\n        /* \"#utility.yul\":8537:8541   */\n      0x00\n        /* \"#utility.yul\":8532:8535   */\n      dup7\n        /* \"#utility.yul\":8528:8542   */\n      add\n        /* \"#utility.yul\":8514:8526   */\n      dup3\n        /* \"#utility.yul\":8480:8543   */\n      tag_249\n      jump\t// in\n    tag_406:\n        /* \"#utility.yul\":8391:8553   */\n      pop\n        /* \"#utility.yul\":8636:8640   */\n      0x20\n        /* \"#utility.yul\":8629:8634   */\n      dup4\n        /* \"#utility.yul\":8625:8641   */\n      add\n        /* \"#utility.yul\":8619:8642   */\n      mload\n        /* \"#utility.yul\":8689:8692   */\n      dup5\n        /* \"#utility.yul\":8683:8687   */\n      dup3\n        /* \"#utility.yul\":8679:8693   */\n      sub\n        /* \"#utility.yul\":8672:8676   */\n      0x20\n        /* \"#utility.yul\":8667:8670   */\n      dup7\n        /* \"#utility.yul\":8663:8677   */\n      add\n        /* \"#utility.yul\":8656:8694   */\n      mstore\n        /* \"#utility.yul\":8715:8788   */\n      tag_407\n        /* \"#utility.yul\":8783:8787   */\n      dup3\n        /* \"#utility.yul\":8769:8781   */\n      dup3\n        /* \"#utility.yul\":8715:8788   */\n      tag_254\n      jump\t// in\n    tag_407:\n        /* \"#utility.yul\":8707:8788   */\n      swap2\n      pop\n        /* \"#utility.yul\":8563:8799   */\n      pop\n        /* \"#utility.yul\":8883:8887   */\n      0x40\n        /* \"#utility.yul\":8876:8881   */\n      dup4\n        /* \"#utility.yul\":8872:8888   */\n      add\n        /* \"#utility.yul\":8866:8889   */\n      mload\n        /* \"#utility.yul\":8936:8939   */\n      dup5\n        /* \"#utility.yul\":8930:8934   */\n      dup3\n        /* \"#utility.yul\":8926:8940   */\n      sub\n        /* \"#utility.yul\":8919:8923   */\n      0x40\n        /* \"#utility.yul\":8914:8917   */\n      dup7\n        /* \"#utility.yul\":8910:8924   */\n      add\n        /* \"#utility.yul\":8903:8941   */\n      mstore\n        /* \"#utility.yul\":8962:9035   */\n      tag_408\n        /* \"#utility.yul\":9030:9034   */\n      dup3\n        /* \"#utility.yul\":9016:9028   */\n      dup3\n        /* \"#utility.yul\":8962:9035   */\n      tag_254\n      jump\t// in\n    tag_408:\n        /* \"#utility.yul\":8954:9035   */\n      swap2\n      pop\n        /* \"#utility.yul\":8809:9046   */\n      pop\n        /* \"#utility.yul\":9129:9133   */\n      0x60\n        /* \"#utility.yul\":9122:9127   */\n      dup4\n        /* \"#utility.yul\":9118:9134   */\n      add\n        /* \"#utility.yul\":9112:9135   */\n      mload\n        /* \"#utility.yul\":9182:9185   */\n      dup5\n        /* \"#utility.yul\":9176:9180   */\n      dup3\n        /* \"#utility.yul\":9172:9186   */\n      sub\n        /* \"#utility.yul\":9165:9169   */\n      0x60\n        /* \"#utility.yul\":9160:9163   */\n      dup7\n        /* \"#utility.yul\":9156:9170   */\n      add\n        /* \"#utility.yul\":9149:9187   */\n      mstore\n        /* \"#utility.yul\":9208:9281   */\n      tag_409\n        /* \"#utility.yul\":9276:9280   */\n      dup3\n        /* \"#utility.yul\":9262:9274   */\n      dup3\n        /* \"#utility.yul\":9208:9281   */\n      tag_254\n      jump\t// in\n    tag_409:\n        /* \"#utility.yul\":9200:9281   */\n      swap2\n      pop\n        /* \"#utility.yul\":9056:9292   */\n      pop\n        /* \"#utility.yul\":9378:9382   */\n      0x80\n        /* \"#utility.yul\":9371:9376   */\n      dup4\n        /* \"#utility.yul\":9367:9383   */\n      add\n        /* \"#utility.yul\":9361:9384   */\n      mload\n        /* \"#utility.yul\":9397:9460   */\n      tag_410\n        /* \"#utility.yul\":9454:9458   */\n      0x80\n        /* \"#utility.yul\":9449:9452   */\n      dup7\n        /* \"#utility.yul\":9445:9459   */\n      add\n        /* \"#utility.yul\":9431:9443   */\n      dup3\n        /* \"#utility.yul\":9397:9460   */\n      tag_249\n      jump\t// in\n    tag_410:\n        /* \"#utility.yul\":9302:9470   */\n      pop\n        /* \"#utility.yul\":9553:9557   */\n      0xa0\n        /* \"#utility.yul\":9546:9551   */\n      dup4\n        /* \"#utility.yul\":9542:9558   */\n      add\n        /* \"#utility.yul\":9536:9559   */\n      mload\n        /* \"#utility.yul\":9572:9635   */\n      tag_411\n        /* \"#utility.yul\":9629:9633   */\n      0xa0\n        /* \"#utility.yul\":9624:9627   */\n      dup7\n        /* \"#utility.yul\":9620:9634   */\n      add\n        /* \"#utility.yul\":9606:9618   */\n      dup3\n        /* \"#utility.yul\":9572:9635   */\n      tag_249\n      jump\t// in\n    tag_411:\n        /* \"#utility.yul\":9480:9645   */\n      pop\n        /* \"#utility.yul\":9732:9736   */\n      0xc0\n        /* \"#utility.yul\":9725:9730   */\n      dup4\n        /* \"#utility.yul\":9721:9737   */\n      add\n        /* \"#utility.yul\":9715:9738   */\n      mload\n        /* \"#utility.yul\":9751:9814   */\n      tag_412\n        /* \"#utility.yul\":9808:9812   */\n      0xc0\n        /* \"#utility.yul\":9803:9806   */\n      dup7\n        /* \"#utility.yul\":9799:9813   */\n      add\n        /* \"#utility.yul\":9785:9797   */\n      dup3\n        /* \"#utility.yul\":9751:9814   */\n      tag_249\n      jump\t// in\n    tag_412:\n        /* \"#utility.yul\":9655:9824   */\n      pop\n        /* \"#utility.yul\":9908:9912   */\n      0xe0\n        /* \"#utility.yul\":9901:9906   */\n      dup4\n        /* \"#utility.yul\":9897:9913   */\n      add\n        /* \"#utility.yul\":9891:9914   */\n      mload\n        /* \"#utility.yul\":9927:9984   */\n      tag_413\n        /* \"#utility.yul\":9978:9982   */\n      0xe0\n        /* \"#utility.yul\":9973:9976   */\n      dup7\n        /* \"#utility.yul\":9969:9983   */\n      add\n        /* \"#utility.yul\":9955:9967   */\n      dup3\n        /* \"#utility.yul\":9927:9984   */\n      tag_256\n      jump\t// in\n    tag_413:\n        /* \"#utility.yul\":9834:9994   */\n      pop\n        /* \"#utility.yul\":10076:10082   */\n      0x0100\n        /* \"#utility.yul\":10069:10074   */\n      dup4\n        /* \"#utility.yul\":10065:10083   */\n      add\n        /* \"#utility.yul\":10059:10084   */\n      mload\n        /* \"#utility.yul\":10097:10162   */\n      tag_414\n        /* \"#utility.yul\":10154:10160   */\n      0x0100\n        /* \"#utility.yul\":10149:10152   */\n      dup7\n        /* \"#utility.yul\":10145:10161   */\n      add\n        /* \"#utility.yul\":10131:10143   */\n      dup3\n        /* \"#utility.yul\":10097:10162   */\n      tag_249\n      jump\t// in\n    tag_414:\n        /* \"#utility.yul\":10004:10172   */\n      pop\n        /* \"#utility.yul\":10189:10193   */\n      dup1\n        /* \"#utility.yul\":10182:10193   */\n      swap2\n      pop\n        /* \"#utility.yul\":8343:10199   */\n      pop\n        /* \"#utility.yul\":8239:10199   */\n      swap3\n      swap2\n      pop\n      pop\n      jump\t// out\n        /* \"#utility.yul\":10205:10441   */\n    tag_266:\n        /* \"#utility.yul\":10314:10324   */\n      0x00\n        /* \"#utility.yul\":10349:10435   */\n      tag_416\n        /* \"#utility.yul\":10431:10434   */\n      dup4\n        /* \"#utility.yul\":10423:10429   */\n      dup4\n        /* \"#utility.yul\":10349:10435   */\n      tag_265\n      jump\t// in\n    tag_416:\n        /* \"#utility.yul\":10335:10435   */\n      swap1\n      pop\n        /* \"#utility.yul\":10205:10441   */\n      swap3\n      swap2\n      pop\n      pop\n      jump\t// out\n        /* \"#utility.yul\":10447:10580   */\n    tag_267:\n        /* \"#utility.yul\":10537:10541   */\n      0x00\n        /* \"#utility.yul\":10569:10573   */\n      0x20\n        /* \"#utility.yul\":10564:10567   */\n      dup3\n        /* \"#utility.yul\":10560:10574   */\n      add\n        /* \"#utility.yul\":10552:10574   */\n      swap1\n      pop\n        /* \"#utility.yul\":10447:10580   */\n      swap2\n      swap1\n      pop\n      jump\t// out\n        /* \"#utility.yul\":10650:11721   */\n    tag_268:\n        /* \"#utility.yul\":10809:10812   */\n      0x00\n        /* \"#utility.yul\":10838:10912   */\n      tag_419\n        /* \"#utility.yul\":10906:10911   */\n      dup3\n        /* \"#utility.yul\":10838:10912   */\n      tag_262\n      jump\t// in\n    tag_419:\n        /* \"#utility.yul\":10928:11034   */\n      tag_420\n        /* \"#utility.yul\":11027:11033   */\n      dup2\n        /* \"#utility.yul\":11022:11025   */\n      dup6\n        /* \"#utility.yul\":10928:11034   */\n      tag_263\n      jump\t// in\n    tag_420:\n        /* \"#utility.yul\":10921:11034   */\n      swap4\n      pop\n        /* \"#utility.yul\":11060:11063   */\n      dup4\n        /* \"#utility.yul\":11105:11109   */\n      0x20\n        /* \"#utility.yul\":11097:11103   */\n      dup3\n        /* \"#utility.yul\":11093:11110   */\n      mul\n        /* \"#utility.yul\":11088:11091   */\n      dup6\n        /* \"#utility.yul\":11084:11111   */\n      add\n        /* \"#utility.yul\":11135:11211   */\n      tag_421\n        /* \"#utility.yul\":11205:11210   */\n      dup6\n        /* \"#utility.yul\":11135:11211   */\n      tag_264\n      jump\t// in\n    tag_421:\n        /* \"#utility.yul\":11234:11241   */\n      dup1\n        /* \"#utility.yul\":11265:11266   */\n      0x00\n        /* \"#utility.yul\":11250:11676   */\n    tag_422:\n        /* \"#utility.yul\":11275:11281   */\n      dup6\n        /* \"#utility.yul\":11272:11273   */\n      dup2\n        /* \"#utility.yul\":11269:11282   */\n      lt\n        /* \"#utility.yul\":11250:11676   */\n      iszero\n      tag_424\n      jumpi\n        /* \"#utility.yul\":11346:11355   */\n      dup5\n        /* \"#utility.yul\":11340:11344   */\n      dup5\n        /* \"#utility.yul\":11336:11356   */\n      sub\n        /* \"#utility.yul\":11331:11334   */\n      dup10\n        /* \"#utility.yul\":11324:11357   */\n      mstore\n        /* \"#utility.yul\":11397:11403   */\n      dup2\n        /* \"#utility.yul\":11391:11404   */\n      mload\n        /* \"#utility.yul\":11425:11529   */\n      tag_425\n        /* \"#utility.yul\":11524:11528   */\n      dup6\n        /* \"#utility.yul\":11509:11522   */\n      dup3\n        /* \"#utility.yul\":11425:11529   */\n      tag_266\n      jump\t// in\n    tag_425:\n        /* \"#utility.yul\":11417:11529   */\n      swap5\n      pop\n        /* \"#utility.yul\":11552:11632   */\n      tag_426\n        /* \"#utility.yul\":11625:11631   */\n      dup4\n        /* \"#utility.yul\":11552:11632   */\n      tag_267\n      jump\t// in\n    tag_426:\n        /* \"#utility.yul\":11542:11632   */\n      swap3\n      pop\n        /* \"#utility.yul\":11661:11665   */\n      0x20\n        /* \"#utility.yul\":11656:11659   */\n      dup11\n        /* \"#utility.yul\":11652:11666   */\n      add\n        /* \"#utility.yul\":11645:11666   */\n      swap10\n      pop\n        /* \"#utility.yul\":11310:11676   */\n      pop\n        /* \"#utility.yul\":11297:11298   */\n      0x01\n        /* \"#utility.yul\":11294:11295   */\n      dup2\n        /* \"#utility.yul\":11290:11299   */\n      add\n        /* \"#utility.yul\":11285:11299   */\n      swap1\n      pop\n        /* \"#utility.yul\":11250:11676   */\n      jump(tag_422)\n    tag_424:\n        /* \"#utility.yul\":11254:11268   */\n      pop\n        /* \"#utility.yul\":11692:11696   */\n      dup3\n        /* \"#utility.yul\":11685:11696   */\n      swap8\n      pop\n        /* \"#utility.yul\":11712:11715   */\n      dup8\n        /* \"#utility.yul\":11705:11715   */\n      swap6\n      pop\n        /* \"#utility.yul\":10814:11721   */\n      pop\n      pop\n      pop\n      pop\n      pop\n        /* \"#utility.yul\":10650:11721   */\n      swap3\n      swap2\n      pop\n      pop\n      jump\t// out\n        /* \"#utility.yul\":11727:12180   */\n    tag_56:\n        /* \"#utility.yul\":11910:11914   */\n      0x00\n        /* \"#utility.yul\":11948:11950   */\n      0x20\n        /* \"#utility.yul\":11937:11946   */\n      dup3\n        /* \"#utility.yul\":11933:11951   */\n      add\n        /* \"#utility.yul\":11925:11951   */\n      swap1\n      pop\n        /* \"#utility.yul\":11997:12006   */\n      dup2\n        /* \"#utility.yul\":11991:11995   */\n      dup2\n        /* \"#utility.yul\":11987:12007   */\n      sub\n        /* \"#utility.yul\":11983:11984   */\n      0x00\n        /* \"#utility.yul\":11972:11981   */\n      dup4\n        /* \"#utility.yul\":11968:11985   */\n      add\n        /* \"#utility.yul\":11961:12008   */\n      mstore\n        /* \"#utility.yul\":12025:12173   */\n      tag_428\n        /* \"#utility.yul\":12168:12172   */\n      dup2\n        /* \"#utility.yul\":12159:12165   */\n      dup5\n        /* \"#utility.yul\":12025:12173   */\n      tag_268\n      jump\t// in\n    tag_428:\n        /* \"#utility.yul\":12017:12173   */\n      swap1\n      pop\n        /* \"#utility.yul\":11727:12180   */\n      swap3\n      swap2\n      pop\n      pop\n      jump\t// out\n        /* \"#utility.yul\":12186:12660   */\n    tag_60:\n        /* \"#utility.yul\":12254:12260   */\n      0x00\n        /* \"#utility.yul\":12262:12268   */\n      0x00\n        /* \"#utility.yul\":12311:12313   */\n      0x40\n        /* \"#utility.yul\":12299:12308   */\n      dup4\n        /* \"#utility.yul\":12290:12297   */\n      dup6\n        /* \"#utility.yul\":12286:12309   */\n      sub\n        /* \"#utility.yul\":12282:12314   */\n      slt\n        /* \"#utility.yul\":12279:12398   */\n      iszero\n      tag_430\n      jumpi\n        /* \"#utility.yul\":12317:12396   */\n      tag_431\n      tag_244\n      jump\t// in\n    tag_431:\n        /* \"#utility.yul\":12279:12398   */\n    tag_430:\n        /* \"#utility.yul\":12437:12438   */\n      0x00\n        /* \"#utility.yul\":12462:12515   */\n      tag_432\n        /* \"#utility.yul\":12507:12514   */\n      dup6\n        /* \"#utility.yul\":12498:12504   */\n      dup3\n        /* \"#utility.yul\":12487:12496   */\n      dup7\n        /* \"#utility.yul\":12483:12505   */\n      add\n        /* \"#utility.yul\":12462:12515   */\n      tag_248\n      jump\t// in\n    tag_432:\n        /* \"#utility.yul\":12452:12515   */\n      swap3\n      pop\n        /* \"#utility.yul\":12408:12525   */\n      pop\n        /* \"#utility.yul\":12564:12566   */\n      0x20\n        /* \"#utility.yul\":12590:12643   */\n      tag_433\n        /* \"#utility.yul\":12635:12642   */\n      dup6\n        /* \"#utility.yul\":12626:12632   */\n      dup3\n        /* \"#utility.yul\":12615:12624   */\n      dup7\n        /* \"#utility.yul\":12611:12633   */\n      add\n        /* \"#utility.yul\":12590:12643   */\n      tag_248\n      jump\t// in\n    tag_433:\n        /* \"#utility.yul\":12580:12643   */\n      swap2\n      pop\n        /* \"#utility.yul\":12535:12653   */\n      pop\n        /* \"#utility.yul\":12186:12660   */\n      swap3\n      pop\n      swap3\n      swap1\n      pop\n      jump\t// out\n        /* \"#utility.yul\":12666:12762   */\n    tag_269:\n        /* \"#utility.yul\":12703:12710   */\n      0x00\n        /* \"#utility.yul\":12732:12756   */\n      tag_435\n        /* \"#utility.yul\":12750:12755   */\n      dup3\n        /* \"#utility.yul\":12732:12756   */\n      tag_240\n      jump\t// in\n    tag_435:\n        /* \"#utility.yul\":12721:12756   */\n      swap1\n      pop\n        /* \"#utility.yul\":12666:12762   */\n      swap2\n      swap1\n      pop\n      jump\t// out\n        /* \"#utility.yul\":12768:12886   */\n    tag_270:\n        /* \"#utility.yul\":12855:12879   */\n      tag_437\n        /* \"#utility.yul\":12873:12878   */\n      dup2\n        /* \"#utility.yul\":12855:12879   */\n      tag_269\n      jump\t// in\n    tag_437:\n        /* \"#utility.yul\":12850:12853   */\n      dup3\n        /* \"#utility.yul\":12843:12880   */\n      mstore\n        /* \"#utility.yul\":12768:12886   */\n      pop\n      pop\n      jump\t// out\n        /* \"#utility.yul\":12892:13114   */\n    tag_63:\n        /* \"#utility.yul\":12985:12989   */\n      0x00\n        /* \"#utility.yul\":13023:13025   */\n      0x20\n        /* \"#utility.yul\":13012:13021   */\n      dup3\n        /* \"#utility.yul\":13008:13026   */\n      add\n        /* \"#utility.yul\":13000:13026   */\n      swap1\n      pop\n        /* \"#utility.yul\":13036:13107   */\n      tag_439\n        /* \"#utility.yul\":13104:13105   */\n      0x00\n        /* \"#utility.yul\":13093:13102   */\n      dup4\n        /* \"#utility.yul\":13089:13106   */\n      add\n        /* \"#utility.yul\":13080:13086   */\n      dup5\n        /* \"#utility.yul\":13036:13107   */\n      tag_270\n      jump\t// in\n    tag_439:\n        /* \"#utility.yul\":12892:13114   */\n      swap3\n      swap2\n      pop\n      pop\n      jump\t// out\n        /* \"#utility.yul\":13120:13237   */\n    tag_271:\n        /* \"#utility.yul\":13229:13230   */\n      0x00\n        /* \"#utility.yul\":13226:13227   */\n      0x00\n        /* \"#utility.yul\":13219:13231   */\n      revert\n        /* \"#utility.yul\":13243:13360   */\n    tag_272:\n        /* \"#utility.yul\":13352:13353   */\n      0x00\n        /* \"#utility.yul\":13349:13350   */\n      0x00\n        /* \"#utility.yul\":13342:13354   */\n      revert\n        /* \"#utility.yul\":13366:13546   */\n    tag_166:\n        /* \"#utility.yul\":13414:13491   */\n      0x4e487b7100000000000000000000000000000000000000000000000000000000\n        /* \"#utility.yul\":13411:13412   */\n      0x00\n        /* \"#utility.yul\":13404:13492   */\n      mstore\n        /* \"#utility.yul\":13511:13515   */\n      0x41\n        /* \"#utility.yul\":13508:13509   */\n      0x04\n        /* \"#utility.yul\":13501:13516   */\n      mstore\n        /* \"#utility.yul\":13535:13539   */\n      0x24\n        /* \"#utility.yul\":13532:13533   */\n      0x00\n        /* \"#utility.yul\":13525:13540   */\n      revert\n        /* \"#utility.yul\":13552:13833   */\n    tag_273:\n        /* \"#utility.yul\":13635:13662   */\n      tag_444\n        /* \"#utility.yul\":13657:13661   */\n      dup3\n        /* \"#utility.yul\":13635:13662   */\n      tag_253\n      jump\t// in\n    tag_444:\n        /* \"#utility.yul\":13627:13633   */\n      dup2\n        /* \"#utility.yul\":13623:13663   */\n      add\n        /* \"#utility.yul\":13765:13771   */\n      dup2\n        /* \"#utility.yul\":13753:13763   */\n      dup2\n        /* \"#utility.yul\":13750:13772   */\n      lt\n        /* \"#utility.yul\":13729:13747   */\n      0xffffffffffffffff\n        /* \"#utility.yul\":13717:13727   */\n      dup3\n        /* \"#utility.yul\":13714:13748   */\n      gt\n        /* \"#utility.yul\":13711:13773   */\n      or\n        /* \"#utility.yul\":13708:13796   */\n      iszero\n      tag_445\n      jumpi\n        /* \"#utility.yul\":13776:13794   */\n      tag_446\n      tag_166\n      jump\t// in\n    tag_446:\n        /* \"#utility.yul\":13708:13796   */\n    tag_445:\n        /* \"#utility.yul\":13816:13826   */\n      dup1\n        /* \"#utility.yul\":13812:13814   */\n      0x40\n        /* \"#utility.yul\":13805:13827   */\n      mstore\n        /* \"#utility.yul\":13595:13833   */\n      pop\n        /* \"#utility.yul\":13552:13833   */\n      pop\n      pop\n      jump\t// out\n        /* \"#utility.yul\":13839:13968   */\n    tag_274:\n        /* \"#utility.yul\":13873:13879   */\n      0x00\n        /* \"#utility.yul\":13900:13920   */\n      tag_448\n      tag_243\n      jump\t// in\n    tag_448:\n        /* \"#utility.yul\":13890:13920   */\n      swap1\n      pop\n        /* \"#utility.yul\":13929:13962   */\n      tag_449\n        /* \"#utility.yul\":13957:13961   */\n      dup3\n        /* \"#utility.yul\":13949:13955   */\n      dup3\n        /* \"#utility.yul\":13929:13962   */\n      tag_273\n      jump\t// in\n    tag_449:\n        /* \"#utility.yul\":13839:13968   */\n      swap2\n      swap1\n      pop\n      jump\t// out\n        /* \"#utility.yul\":13974:14282   */\n    tag_275:\n        /* \"#utility.yul\":14036:14040   */\n      0x00\n        /* \"#utility.yul\":14126:14144   */\n      0xffffffffffffffff\n        /* \"#utility.yul\":14118:14124   */\n      dup3\n        /* \"#utility.yul\":14115:14145   */\n      gt\n        /* \"#utility.yul\":14112:14168   */\n      iszero\n      tag_451\n      jumpi\n        /* \"#utility.yul\":14148:14166   */\n      tag_452\n      tag_166\n      jump\t// in\n    tag_452:\n        /* \"#utility.yul\":14112:14168   */\n    tag_451:\n        /* \"#utility.yul\":14186:14215   */\n      tag_453\n        /* \"#utility.yul\":14208:14214   */\n      dup3\n        /* \"#utility.yul\":14186:14215   */\n      tag_253\n      jump\t// in\n    tag_453:\n        /* \"#utility.yul\":14178:14215   */\n      swap1\n      pop\n        /* \"#utility.yul\":14270:14274   */\n      0x20\n        /* \"#utility.yul\":14264:14268   */\n      dup2\n        /* \"#utility.yul\":14260:14275   */\n      add\n        /* \"#utility.yul\":14252:14275   */\n      swap1\n      pop\n        /* \"#utility.yul\":13974:14282   */\n      swap2\n      swap1\n      pop\n      jump\t// out\n        /* \"#utility.yul\":14288:14436   */\n    tag_276:\n        /* \"#utility.yul\":14386:14392   */\n      dup3\n        /* \"#utility.yul\":14381:14384   */\n      dup2\n        /* \"#utility.yul\":14376:14379   */\n      dup4\n        /* \"#utility.yul\":14363:14393   */\n      calldatacopy\n        /* \"#utility.yul\":14427:14428   */\n      0x00\n        /* \"#utility.yul\":14418:14424   */\n      dup4\n        /* \"#utility.yul\":14413:14416   */\n      dup4\n        /* \"#utility.yul\":14409:14425   */\n      add\n        /* \"#utility.yul\":14402:14429   */\n      mstore\n        /* \"#utility.yul\":14288:14436   */\n      pop\n      pop\n      pop\n      jump\t// out\n        /* \"#utility.yul\":14442:14867   */\n    tag_277:\n        /* \"#utility.yul\":14520:14525   */\n      0x00\n        /* \"#utility.yul\":14545:14611   */\n      tag_456\n        /* \"#utility.yul\":14561:14610   */\n      tag_457\n        /* \"#utility.yul\":14603:14609   */\n      dup5\n        /* \"#utility.yul\":14561:14610   */\n      tag_275\n      jump\t// in\n    tag_457:\n        /* \"#utility.yul\":14545:14611   */\n      tag_274\n      jump\t// in\n    tag_456:\n        /* \"#utility.yul\":14536:14611   */\n      swap1\n      pop\n        /* \"#utility.yul\":14634:14640   */\n      dup3\n        /* \"#utility.yul\":14627:14632   */\n      dup2\n        /* \"#utility.yul\":14620:14641   */\n      mstore\n        /* \"#utility.yul\":14672:14676   */\n      0x20\n        /* \"#utility.yul\":14665:14670   */\n      dup2\n        /* \"#utility.yul\":14661:14677   */\n      add\n        /* \"#utility.yul\":14710:14713   */\n      dup5\n        /* \"#utility.yul\":14701:14707   */\n      dup5\n        /* \"#utility.yul\":14696:14699   */\n      dup5\n        /* \"#utility.yul\":14692:14708   */\n      add\n        /* \"#utility.yul\":14689:14714   */\n      gt\n        /* \"#utility.yul\":14686:14798   */\n      iszero\n      tag_458\n      jumpi\n        /* \"#utility.yul\":14717:14796   */\n      tag_459\n      tag_272\n      jump\t// in\n    tag_459:\n        /* \"#utility.yul\":14686:14798   */\n    tag_458:\n        /* \"#utility.yul\":14807:14861   */\n      tag_460\n        /* \"#utility.yul\":14854:14860   */\n      dup5\n        /* \"#utility.yul\":14849:14852   */\n      dup3\n        /* \"#utility.yul\":14844:14847   */\n      dup6\n        /* \"#utility.yul\":14807:14861   */\n      tag_276\n      jump\t// in\n    tag_460:\n        /* \"#utility.yul\":14526:14867   */\n      pop\n        /* \"#utility.yul\":14442:14867   */\n      swap4\n      swap3\n      pop\n      pop\n      pop\n      jump\t// out\n        /* \"#utility.yul\":14887:15227   */\n    tag_278:\n        /* \"#utility.yul\":14943:14948   */\n      0x00\n        /* \"#utility.yul\":14992:14995   */\n      dup3\n        /* \"#utility.yul\":14985:14989   */\n      0x1f\n        /* \"#utility.yul\":14977:14983   */\n      dup4\n        /* \"#utility.yul\":14973:14990   */\n      add\n        /* \"#utility.yul\":14969:14996   */\n      slt\n        /* \"#utility.yul\":14959:15081   */\n      tag_462\n      jumpi\n        /* \"#utility.yul\":15000:15079   */\n      tag_463\n      tag_271\n      jump\t// in\n    tag_463:\n        /* \"#utility.yul\":14959:15081   */\n    tag_462:\n        /* \"#utility.yul\":15117:15123   */\n      dup2\n        /* \"#utility.yul\":15104:15124   */\n      calldataload\n        /* \"#utility.yul\":15142:15221   */\n      tag_464\n        /* \"#utility.yul\":15217:15220   */\n      dup5\n        /* \"#utility.yul\":15209:15215   */\n      dup3\n        /* \"#utility.yul\":15202:15206   */\n      0x20\n        /* \"#utility.yul\":15194:15200   */\n      dup7\n        /* \"#utility.yul\":15190:15207   */\n      add\n        /* \"#utility.yul\":15142:15221   */\n      tag_277\n      jump\t// in\n    tag_464:\n        /* \"#utility.yul\":15133:15221   */\n      swap2\n      pop\n        /* \"#utility.yul\":14949:15227   */\n      pop\n        /* \"#utility.yul\":14887:15227   */\n      swap3\n      swap2\n      pop\n      pop\n      jump\t// out\n        /* \"#utility.yul\":15233:16830   */\n    tag_67:\n        /* \"#utility.yul\":15367:15373   */\n      0x00\n        /* \"#utility.yul\":15375:15381   */\n      0x00\n        /* \"#utility.yul\":15383:15389   */\n      0x00\n        /* \"#utility.yul\":15391:15397   */\n      0x00\n        /* \"#utility.yul\":15399:15405   */\n      0x00\n        /* \"#utility.yul\":15407:15413   */\n      0x00\n        /* \"#utility.yul\":15456:15459   */\n      0xc0\n        /* \"#utility.yul\":15444:15453   */\n      dup8\n        /* \"#utility.yul\":15435:15442   */\n      dup10\n        /* \"#utility.yul\":15431:15454   */\n      sub\n        /* \"#utility.yul\":15427:15460   */\n      slt\n        /* \"#utility.yul\":15424:15544   */\n      iszero\n      tag_466\n      jumpi\n        /* \"#utility.yul\":15463:15542   */\n      tag_467\n      tag_244\n      jump\t// in\n    tag_467:\n        /* \"#utility.yul\":15424:15544   */\n    tag_466:\n        /* \"#utility.yul\":15611:15612   */\n      0x00\n        /* \"#utility.yul\":15600:15609   */\n      dup8\n        /* \"#utility.yul\":15596:15613   */\n      add\n        /* \"#utility.yul\":15583:15614   */\n      calldataload\n        /* \"#utility.yul\":15641:15659   */\n      0xffffffffffffffff\n        /* \"#utility.yul\":15633:15639   */\n      dup2\n        /* \"#utility.yul\":15630:15660   */\n      gt\n        /* \"#utility.yul\":15627:15744   */\n      iszero\n      tag_468\n      jumpi\n        /* \"#utility.yul\":15663:15742   */\n      tag_469\n      tag_245\n      jump\t// in\n    tag_469:\n        /* \"#utility.yul\":15627:15744   */\n    tag_468:\n        /* \"#utility.yul\":15768:15831   */\n      tag_470\n        /* \"#utility.yul\":15823:15830   */\n      dup10\n        /* \"#utility.yul\":15814:15820   */\n      dup3\n        /* \"#utility.yul\":15803:15812   */\n      dup11\n        /* \"#utility.yul\":15799:15821   */\n      add\n        /* \"#utility.yul\":15768:15831   */\n      tag_278\n      jump\t// in\n    tag_470:\n        /* \"#utility.yul\":15758:15831   */\n      swap7\n      pop\n        /* \"#utility.yul\":15554:15841   */\n      pop\n        /* \"#utility.yul\":15908:15910   */\n      0x20\n        /* \"#utility.yul\":15897:15906   */\n      dup8\n        /* \"#utility.yul\":15893:15911   */\n      add\n        /* \"#utility.yul\":15880:15912   */\n      calldataload\n        /* \"#utility.yul\":15939:15957   */\n      0xffffffffffffffff\n        /* \"#utility.yul\":15931:15937   */\n      dup2\n        /* \"#utility.yul\":15928:15958   */\n      gt\n        /* \"#utility.yul\":15925:16042   */\n      iszero\n      tag_471\n      jumpi\n        /* \"#utility.yul\":15961:16040   */\n      tag_472\n      tag_245\n      jump\t// in\n    tag_472:\n        /* \"#utility.yul\":15925:16042   */\n    tag_471:\n        /* \"#utility.yul\":16066:16129   */\n      tag_473\n        /* \"#utility.yul\":16121:16128   */\n      dup10\n        /* \"#utility.yul\":16112:16118   */\n      dup3\n        /* \"#utility.yul\":16101:16110   */\n      dup11\n        /* \"#utility.yul\":16097:16119   */\n      add\n        /* \"#utility.yul\":16066:16129   */\n      tag_278\n      jump\t// in\n    tag_473:\n        /* \"#utility.yul\":16056:16129   */\n      swap6\n      pop\n        /* \"#utility.yul\":15851:16139   */\n      pop\n        /* \"#utility.yul\":16206:16208   */\n      0x40\n        /* \"#utility.yul\":16195:16204   */\n      dup8\n        /* \"#utility.yul\":16191:16209   */\n      add\n        /* \"#utility.yul\":16178:16210   */\n      calldataload\n        /* \"#utility.yul\":16237:16255   */\n      0xffffffffffffffff\n        /* \"#utility.yul\":16229:16235   */\n      dup2\n        /* \"#utility.yul\":16226:16256   */\n      gt\n        /* \"#utility.yul\":16223:16340   */\n      iszero\n      tag_474\n      jumpi\n        /* \"#utility.yul\":16259:16338   */\n      tag_475\n      tag_245\n      jump\t// in\n    tag_475:\n        /* \"#utility.yul\":16223:16340   */\n    tag_474:\n        /* \"#utility.yul\":16364:16427   */\n      tag_476\n        /* \"#utility.yul\":16419:16426   */\n      dup10\n        /* \"#utility.yul\":16410:16416   */\n      dup3\n        /* \"#utility.yul\":16399:16408   */\n      dup11\n        /* \"#utility.yul\":16395:16417   */\n      add\n        /* \"#utility.yul\":16364:16427   */\n      tag_278\n      jump\t// in\n    tag_476:\n        /* \"#utility.yul\":16354:16427   */\n      swap5\n      pop\n        /* \"#utility.yul\":16149:16437   */\n      pop\n        /* \"#utility.yul\":16476:16478   */\n      0x60\n        /* \"#utility.yul\":16502:16555   */\n      tag_477\n        /* \"#utility.yul\":16547:16554   */\n      dup10\n        /* \"#utility.yul\":16538:16544   */\n      dup3\n        /* \"#utility.yul\":16527:16536   */\n      dup11\n        /* \"#utility.yul\":16523:16545   */\n      add\n        /* \"#utility.yul\":16502:16555   */\n      tag_248\n      jump\t// in\n    tag_477:\n        /* \"#utility.yul\":16492:16555   */\n      swap4\n      pop\n        /* \"#utility.yul\":16447:16565   */\n      pop\n        /* \"#utility.yul\":16604:16607   */\n      0x80\n        /* \"#utility.yul\":16631:16684   */\n      tag_478\n        /* \"#utility.yul\":16676:16683   */\n      dup10\n        /* \"#utility.yul\":16667:16673   */\n      dup3\n        /* \"#utility.yul\":16656:16665   */\n      dup11\n        /* \"#utility.yul\":16652:16674   */\n      add\n        /* \"#utility.yul\":16631:16684   */\n      tag_248\n      jump\t// in\n    tag_478:\n        /* \"#utility.yul\":16621:16684   */\n      swap3\n      pop\n        /* \"#utility.yul\":16575:16694   */\n      pop\n        /* \"#utility.yul\":16733:16736   */\n      0xa0\n        /* \"#utility.yul\":16760:16813   */\n      tag_479\n        /* \"#utility.yul\":16805:16812   */\n      dup10\n        /* \"#utility.yul\":16796:16802   */\n      dup3\n        /* \"#utility.yul\":16785:16794   */\n      dup11\n        /* \"#utility.yul\":16781:16803   */\n      add\n        /* \"#utility.yul\":16760:16813   */\n      tag_248\n      jump\t// in\n    tag_479:\n        /* \"#utility.yul\":16750:16813   */\n      swap2\n      pop\n        /* \"#utility.yul\":16704:16823   */\n      pop\n        /* \"#utility.yul\":15233:16830   */\n      swap3\n      swap6\n      pop\n      swap3\n      swap6\n      pop\n      swap3\n      swap6\n      jump\t// out\n        /* \"#utility.yul\":16836:16896   */\n    tag_279:\n        /* \"#utility.yul\":16864:16867   */\n      0x00\n        /* \"#utility.yul\":16885:16890   */\n      dup2\n        /* \"#utility.yul\":16878:16890   */\n      swap1\n      pop\n        /* \"#utility.yul\":16836:16896   */\n      swap2\n      swap1\n      pop\n      jump\t// out\n        /* \"#utility.yul\":16902:17044   */\n    tag_280:\n        /* \"#utility.yul\":16952:16961   */\n      0x00\n        /* \"#utility.yul\":16985:17038   */\n      tag_482\n        /* \"#utility.yul\":17003:17037   */\n      tag_483\n        /* \"#utility.yul\":17012:17036   */\n      tag_484\n        /* \"#utility.yul\":17030:17035   */\n      dup5\n        /* \"#utility.yul\":17012:17036   */\n      tag_240\n      jump\t// in\n    tag_484:\n        /* \"#utility.yul\":17003:17037   */\n      tag_279\n      jump\t// in\n    tag_483:\n        /* \"#utility.yul\":16985:17038   */\n      tag_240\n      jump\t// in\n    tag_482:\n        /* \"#utility.yul\":16972:17038   */\n      swap1\n      pop\n        /* \"#utility.yul\":16902:17044   */\n      swap2\n      swap1\n      pop\n      jump\t// out\n        /* \"#utility.yul\":17050:17176   */\n    tag_281:\n        /* \"#utility.yul\":17100:17109   */\n      0x00\n        /* \"#utility.yul\":17133:17170   */\n      tag_486\n        /* \"#utility.yul\":17164:17169   */\n      dup3\n        /* \"#utility.yul\":17133:17170   */\n      tag_280\n      jump\t// in\n    tag_486:\n        /* \"#utility.yul\":17120:17170   */\n      swap1\n      pop\n        /* \"#utility.yul\":17050:17176   */\n      swap2\n      swap1\n      pop\n      jump\t// out\n        /* \"#utility.yul\":17182:17330   */\n    tag_282:\n        /* \"#utility.yul\":17254:17263   */\n      0x00\n        /* \"#utility.yul\":17287:17324   */\n      tag_488\n        /* \"#utility.yul\":17318:17323   */\n      dup3\n        /* \"#utility.yul\":17287:17324   */\n      tag_281\n      jump\t// in\n    tag_488:\n        /* \"#utility.yul\":17274:17324   */\n      swap1\n      pop\n        /* \"#utility.yul\":17182:17330   */\n      swap2\n      swap1\n      pop\n      jump\t// out\n        /* \"#utility.yul\":17336:17511   */\n    tag_283:\n        /* \"#utility.yul\":17445:17504   */\n      tag_490\n        /* \"#utility.yul\":17498:17503   */\n      dup2\n        /* \"#utility.yul\":17445:17504   */\n      tag_282\n      jump\t// in\n    tag_490:\n        /* \"#utility.yul\":17440:17443   */\n      dup3\n        /* \"#utility.yul\":17433:17505   */\n      mstore\n        /* \"#utility.yul\":17336:17511   */\n      pop\n      pop\n      jump\t// out\n        /* \"#utility.yul\":17517:17783   */\n    tag_73:\n        /* \"#utility.yul\":17632:17636   */\n      0x00\n        /* \"#utility.yul\":17670:17672   */\n      0x20\n        /* \"#utility.yul\":17659:17668   */\n      dup3\n        /* \"#utility.yul\":17655:17673   */\n      add\n        /* \"#utility.yul\":17647:17673   */\n      swap1\n      pop\n        /* \"#utility.yul\":17683:17776   */\n      tag_492\n        /* \"#utility.yul\":17773:17774   */\n      0x00\n        /* \"#utility.yul\":17762:17771   */\n      dup4\n        /* \"#utility.yul\":17758:17775   */\n      add\n        /* \"#utility.yul\":17749:17755   */\n      dup5\n        /* \"#utility.yul\":17683:17776   */\n      tag_283\n      jump\t// in\n    tag_492:\n        /* \"#utility.yul\":17517:17783   */\n      swap3\n      swap2\n      pop\n      pop\n      jump\t// out\n        /* \"#utility.yul\":17789:17953   */\n    tag_284:\n        /* \"#utility.yul\":17929:17945   */\n      0x426f6f6b206e6f7420666f756e64000000000000000000000000000000000000\n        /* \"#utility.yul\":17925:17926   */\n      0x00\n        /* \"#utility.yul\":17917:17923   */\n      dup3\n        /* \"#utility.yul\":17913:17927   */\n      add\n        /* \"#utility.yul\":17906:17946   */\n      mstore\n        /* \"#utility.yul\":17789:17953   */\n      pop\n      jump\t// out\n        /* \"#utility.yul\":17959:18325   */\n    tag_285:\n        /* \"#utility.yul\":18101:18104   */\n      0x00\n        /* \"#utility.yul\":18122:18189   */\n      tag_495\n        /* \"#utility.yul\":18186:18188   */\n      0x0e\n        /* \"#utility.yul\":18181:18184   */\n      dup4\n        /* \"#utility.yul\":18122:18189   */\n      tag_259\n      jump\t// in\n    tag_495:\n        /* \"#utility.yul\":18115:18189   */\n      swap2\n      pop\n        /* \"#utility.yul\":18198:18291   */\n      tag_496\n        /* \"#utility.yul\":18287:18290   */\n      dup3\n        /* \"#utility.yul\":18198:18291   */\n      tag_284\n      jump\t// in\n    tag_496:\n        /* \"#utility.yul\":18316:18318   */\n      0x20\n        /* \"#utility.yul\":18311:18314   */\n      dup3\n        /* \"#utility.yul\":18307:18319   */\n      add\n        /* \"#utility.yul\":18300:18319   */\n      swap1\n      pop\n        /* \"#utility.yul\":17959:18325   */\n      swap2\n      swap1\n      pop\n      jump\t// out\n        /* \"#utility.yul\":18331:18750   */\n    tag_92:\n        /* \"#utility.yul\":18497:18501   */\n      0x00\n        /* \"#utility.yul\":18535:18537   */\n      0x20\n        /* \"#utility.yul\":18524:18533   */\n      dup3\n        /* \"#utility.yul\":18520:18538   */\n      add\n        /* \"#utility.yul\":18512:18538   */\n      swap1\n      pop\n        /* \"#utility.yul\":18584:18593   */\n      dup2\n        /* \"#utility.yul\":18578:18582   */\n      dup2\n        /* \"#utility.yul\":18574:18594   */\n      sub\n        /* \"#utility.yul\":18570:18571   */\n      0x00\n        /* \"#utility.yul\":18559:18568   */\n      dup4\n        /* \"#utility.yul\":18555:18572   */\n      add\n        /* \"#utility.yul\":18548:18595   */\n      mstore\n        /* \"#utility.yul\":18612:18743   */\n      tag_498\n        /* \"#utility.yul\":18738:18742   */\n      dup2\n        /* \"#utility.yul\":18612:18743   */\n      tag_285\n      jump\t// in\n    tag_498:\n        /* \"#utility.yul\":18604:18743   */\n      swap1\n      pop\n        /* \"#utility.yul\":18331:18750   */\n      swap2\n      swap1\n      pop\n      jump\t// out\n        /* \"#utility.yul\":18756:18936   */\n    tag_286:\n        /* \"#utility.yul\":18804:18881   */\n      0x4e487b7100000000000000000000000000000000000000000000000000000000\n        /* \"#utility.yul\":18801:18802   */\n      0x00\n        /* \"#utility.yul\":18794:18882   */\n      mstore\n        /* \"#utility.yul\":18901:18905   */\n      0x22\n        /* \"#utility.yul\":18898:18899   */\n      0x04\n        /* \"#utility.yul\":18891:18906   */\n      mstore\n        /* \"#utility.yul\":18925:18929   */\n      0x24\n        /* \"#utility.yul\":18922:18923   */\n      0x00\n        /* \"#utility.yul\":18915:18930   */\n      revert\n        /* \"#utility.yul\":18942:19262   */\n    tag_94:\n        /* \"#utility.yul\":18986:18992   */\n      0x00\n        /* \"#utility.yul\":19023:19024   */\n      0x02\n        /* \"#utility.yul\":19017:19021   */\n      dup3\n        /* \"#utility.yul\":19013:19025   */\n      div\n        /* \"#utility.yul\":19003:19025   */\n      swap1\n      pop\n        /* \"#utility.yul\":19070:19071   */\n      0x01\n        /* \"#utility.yul\":19064:19068   */\n      dup3\n        /* \"#utility.yul\":19060:19072   */\n      and\n        /* \"#utility.yul\":19091:19109   */\n      dup1\n        /* \"#utility.yul\":19081:19162   */\n      tag_501\n      jumpi\n        /* \"#utility.yul\":19147:19151   */\n      0x7f\n        /* \"#utility.yul\":19139:19145   */\n      dup3\n        /* \"#utility.yul\":19135:19152   */\n      and\n        /* \"#utility.yul\":19125:19152   */\n      swap2\n      pop\n        /* \"#utility.yul\":19081:19162   */\n    tag_501:\n        /* \"#utility.yul\":19209:19211   */\n      0x20\n        /* \"#utility.yul\":19201:19207   */\n      dup3\n        /* \"#utility.yul\":19198:19212   */\n      lt\n        /* \"#utility.yul\":19178:19196   */\n      dup2\n        /* \"#utility.yul\":19175:19213   */\n      sub\n        /* \"#utility.yul\":19172:19256   */\n      tag_502\n      jumpi\n        /* \"#utility.yul\":19228:19246   */\n      tag_503\n      tag_286\n      jump\t// in\n    tag_503:\n        /* \"#utility.yul\":19172:19256   */\n    tag_502:\n        /* \"#utility.yul\":18993:19262   */\n      pop\n        /* \"#utility.yul\":18942:19262   */\n      swap2\n      swap1\n      pop\n      jump\t// out\n        /* \"#utility.yul\":19268:19433   */\n    tag_287:\n        /* \"#utility.yul\":19408:19425   */\n      0x426f6f6b206e6f7420666f756e64210000000000000000000000000000000000\n        /* \"#utility.yul\":19404:19405   */\n      0x00\n        /* \"#utility.yul\":19396:19402   */\n      dup3\n        /* \"#utility.yul\":19392:19406   */\n      add\n        /* \"#utility.yul\":19385:19426   */\n      mstore\n        /* \"#utility.yul\":19268:19433   */\n      pop\n      jump\t// out\n        /* \"#utility.yul\":19439:19805   */\n    tag_288:\n        /* \"#utility.yul\":19581:19584   */\n      0x00\n        /* \"#utility.yul\":19602:19669   */\n      tag_506\n        /* \"#utility.yul\":19666:19668   */\n      0x0f\n        /* \"#utility.yul\":19661:19664   */\n      dup4\n        /* \"#utility.yul\":19602:19669   */\n      tag_259\n      jump\t// in\n    tag_506:\n        /* \"#utility.yul\":19595:19669   */\n      swap2\n      pop\n        /* \"#utility.yul\":19678:19771   */\n      tag_507\n        /* \"#utility.yul\":19767:19770   */\n      dup3\n        /* \"#utility.yul\":19678:19771   */\n      tag_287\n      jump\t// in\n    tag_507:\n        /* \"#utility.yul\":19796:19798   */\n      0x20\n        /* \"#utility.yul\":19791:19794   */\n      dup3\n        /* \"#utility.yul\":19787:19799   */\n      add\n        /* \"#utility.yul\":19780:19799   */\n      swap1\n      pop\n        /* \"#utility.yul\":19439:19805   */\n      swap2\n      swap1\n      pop\n      jump\t// out\n        /* \"#utility.yul\":19811:20230   */\n    tag_129:\n        /* \"#utility.yul\":19977:19981   */\n      0x00\n        /* \"#utility.yul\":20015:20017   */\n      0x20\n        /* \"#utility.yul\":20004:20013   */\n      dup3\n        /* \"#utility.yul\":20000:20018   */\n      add\n        /* \"#utility.yul\":19992:20018   */\n      swap1\n      pop\n        /* \"#utility.yul\":20064:20073   */\n      dup2\n        /* \"#utility.yul\":20058:20062   */\n      dup2\n        /* \"#utility.yul\":20054:20074   */\n      sub\n        /* \"#utility.yul\":20050:20051   */\n      0x00\n        /* \"#utility.yul\":20039:20048   */\n      dup4\n        /* \"#utility.yul\":20035:20052   */\n      add\n        /* \"#utility.yul\":20028:20075   */\n      mstore\n        /* \"#utility.yul\":20092:20223   */\n      tag_509\n        /* \"#utility.yul\":20218:20222   */\n      dup2\n        /* \"#utility.yul\":20092:20223   */\n      tag_288\n      jump\t// in\n    tag_509:\n        /* \"#utility.yul\":20084:20223   */\n      swap1\n      pop\n        /* \"#utility.yul\":19811:20230   */\n      swap2\n      swap1\n      pop\n      jump\t// out\n        /* \"#utility.yul\":20236:20405   */\n    tag_289:\n        /* \"#utility.yul\":20376:20397   */\n      0x426f6f6b206e6f7420617661696c61626c652100000000000000000000000000\n        /* \"#utility.yul\":20372:20373   */\n      0x00\n        /* \"#utility.yul\":20364:20370   */\n      dup3\n        /* \"#utility.yul\":20360:20374   */\n      add\n        /* \"#utility.yul\":20353:20398   */\n      mstore\n        /* \"#utility.yul\":20236:20405   */\n      pop\n      jump\t// out\n        /* \"#utility.yul\":20411:20777   */\n    tag_290:\n        /* \"#utility.yul\":20553:20556   */\n      0x00\n        /* \"#utility.yul\":20574:20641   */\n      tag_512\n        /* \"#utility.yul\":20638:20640   */\n      0x13\n        /* \"#utility.yul\":20633:20636   */\n      dup4\n        /* \"#utility.yul\":20574:20641   */\n      tag_259\n      jump\t// in\n    tag_512:\n        /* \"#utility.yul\":20567:20641   */\n      swap2\n      pop\n        /* \"#utility.yul\":20650:20743   */\n      tag_513\n        /* \"#utility.yul\":20739:20742   */\n      dup3\n        /* \"#utility.yul\":20650:20743   */\n      tag_289\n      jump\t// in\n    tag_513:\n        /* \"#utility.yul\":20768:20770   */\n      0x20\n        /* \"#utility.yul\":20763:20766   */\n      dup3\n        /* \"#utility.yul\":20759:20771   */\n      add\n        /* \"#utility.yul\":20752:20771   */\n      swap1\n      pop\n        /* \"#utility.yul\":20411:20777   */\n      swap2\n      swap1\n      pop\n      jump\t// out\n        /* \"#utility.yul\":20783:21202   */\n    tag_132:\n        /* \"#utility.yul\":20949:20953   */\n      0x00\n        /* \"#utility.yul\":20987:20989   */\n      0x20\n        /* \"#utility.yul\":20976:20985   */\n      dup3\n        /* \"#utility.yul\":20972:20990   */\n      add\n        /* \"#utility.yul\":20964:20990   */\n      swap1\n      pop\n        /* \"#utility.yul\":21036:21045   */\n      dup2\n        /* \"#utility.yul\":21030:21034   */\n      dup2\n        /* \"#utility.yul\":21026:21046   */\n      sub\n        /* \"#utility.yul\":21022:21023   */\n      0x00\n        /* \"#utility.yul\":21011:21020   */\n      dup4\n        /* \"#utility.yul\":21007:21024   */\n      add\n        /* \"#utility.yul\":21000:21047   */\n      mstore\n        /* \"#utility.yul\":21064:21195   */\n      tag_515\n        /* \"#utility.yul\":21190:21194   */\n      dup2\n        /* \"#utility.yul\":21064:21195   */\n      tag_290\n      jump\t// in\n    tag_515:\n        /* \"#utility.yul\":21056:21195   */\n      swap1\n      pop\n        /* \"#utility.yul\":20783:21202   */\n      swap2\n      swap1\n      pop\n      jump\t// out\n        /* \"#utility.yul\":21208:21324   */\n    tag_291:\n        /* \"#utility.yul\":21278:21299   */\n      tag_517\n        /* \"#utility.yul\":21293:21298   */\n      dup2\n        /* \"#utility.yul\":21278:21299   */\n      tag_255\n      jump\t// in\n    tag_517:\n        /* \"#utility.yul\":21271:21276   */\n      dup2\n        /* \"#utility.yul\":21268:21300   */\n      eq\n        /* \"#utility.yul\":21258:21318   */\n      tag_518\n      jumpi\n        /* \"#utility.yul\":21314:21315   */\n      0x00\n        /* \"#utility.yul\":21311:21312   */\n      0x00\n        /* \"#utility.yul\":21304:21316   */\n      revert\n        /* \"#utility.yul\":21258:21318   */\n    tag_518:\n        /* \"#utility.yul\":21208:21324   */\n      pop\n      jump\t// out\n        /* \"#utility.yul\":21330:21467   */\n    tag_292:\n        /* \"#utility.yul\":21384:21389   */\n      0x00\n        /* \"#utility.yul\":21415:21421   */\n      dup2\n        /* \"#utility.yul\":21409:21422   */\n      mload\n        /* \"#utility.yul\":21400:21422   */\n      swap1\n      pop\n        /* \"#utility.yul\":21431:21461   */\n      tag_520\n        /* \"#utility.yul\":21455:21460   */\n      dup2\n        /* \"#utility.yul\":21431:21461   */\n      tag_291\n      jump\t// in\n    tag_520:\n        /* \"#utility.yul\":21330:21467   */\n      swap3\n      swap2\n      pop\n      pop\n      jump\t// out\n        /* \"#utility.yul\":21473:21818   */\n    tag_137:\n        /* \"#utility.yul\":21540:21546   */\n      0x00\n        /* \"#utility.yul\":21589:21591   */\n      0x20\n        /* \"#utility.yul\":21577:21586   */\n      dup3\n        /* \"#utility.yul\":21568:21575   */\n      dup5\n        /* \"#utility.yul\":21564:21587   */\n      sub\n        /* \"#utility.yul\":21560:21592   */\n      slt\n        /* \"#utility.yul\":21557:21676   */\n      iszero\n      tag_522\n      jumpi\n        /* \"#utility.yul\":21595:21674   */\n      tag_523\n      tag_244\n      jump\t// in\n    tag_523:\n        /* \"#utility.yul\":21557:21676   */\n    tag_522:\n        /* \"#utility.yul\":21715:21716   */\n      0x00\n        /* \"#utility.yul\":21740:21801   */\n      tag_524\n        /* \"#utility.yul\":21793:21800   */\n      dup5\n        /* \"#utility.yul\":21784:21790   */\n      dup3\n        /* \"#utility.yul\":21773:21782   */\n      dup6\n        /* \"#utility.yul\":21769:21791   */\n      add\n        /* \"#utility.yul\":21740:21801   */\n      tag_292\n      jump\t// in\n    tag_524:\n        /* \"#utility.yul\":21730:21801   */\n      swap2\n      pop\n        /* \"#utility.yul\":21686:21811   */\n      pop\n        /* \"#utility.yul\":21473:21818   */\n      swap3\n      swap2\n      pop\n      pop\n      jump\t// out\n        /* \"#utility.yul\":21824:21993   */\n    tag_293:\n        /* \"#utility.yul\":21964:21985   */\n      0x4e6f7420656e6f756768204554482073656e7400000000000000000000000000\n        /* \"#utility.yul\":21960:21961   */\n      0x00\n        /* \"#utility.yul\":21952:21958   */\n      dup3\n        /* \"#utility.yul\":21948:21962   */\n      add\n        /* \"#utility.yul\":21941:21986   */\n      mstore\n        /* \"#utility.yul\":21824:21993   */\n      pop\n      jump\t// out\n        /* \"#utility.yul\":21999:22365   */\n    tag_294:\n        /* \"#utility.yul\":22141:22144   */\n      0x00\n        /* \"#utility.yul\":22162:22229   */\n      tag_527\n        /* \"#utility.yul\":22226:22228   */\n      0x13\n        /* \"#utility.yul\":22221:22224   */\n      dup4\n        /* \"#utility.yul\":22162:22229   */\n      tag_259\n      jump\t// in\n    tag_527:\n        /* \"#utility.yul\":22155:22229   */\n      swap2\n      pop\n        /* \"#utility.yul\":22238:22331   */\n      tag_528\n        /* \"#utility.yul\":22327:22330   */\n      dup3\n        /* \"#utility.yul\":22238:22331   */\n      tag_293\n      jump\t// in\n    tag_528:\n        /* \"#utility.yul\":22356:22358   */\n      0x20\n        /* \"#utility.yul\":22351:22354   */\n      dup3\n        /* \"#utility.yul\":22347:22359   */\n      add\n        /* \"#utility.yul\":22340:22359   */\n      swap1\n      pop\n        /* \"#utility.yul\":21999:22365   */\n      swap2\n      swap1\n      pop\n      jump\t// out\n        /* \"#utility.yul\":22371:22790   */\n    tag_142:\n        /* \"#utility.yul\":22537:22541   */\n      0x00\n        /* \"#utility.yul\":22575:22577   */\n      0x20\n        /* \"#utility.yul\":22564:22573   */\n      dup3\n        /* \"#utility.yul\":22560:22578   */\n      add\n        /* \"#utility.yul\":22552:22578   */\n      swap1\n      pop\n        /* \"#utility.yul\":22624:22633   */\n      dup2\n        /* \"#utility.yul\":22618:22622   */\n      dup2\n        /* \"#utility.yul\":22614:22634   */\n      sub\n        /* \"#utility.yul\":22610:22611   */\n      0x00\n        /* \"#utility.yul\":22599:22608   */\n      dup4\n        /* \"#utility.yul\":22595:22612   */\n      add\n        /* \"#utility.yul\":22588:22635   */\n      mstore\n        /* \"#utility.yul\":22652:22783   */\n      tag_530\n        /* \"#utility.yul\":22778:22782   */\n      dup2\n        /* \"#utility.yul\":22652:22783   */\n      tag_294\n      jump\t// in\n    tag_530:\n        /* \"#utility.yul\":22644:22783   */\n      swap1\n      pop\n        /* \"#utility.yul\":22371:22790   */\n      swap2\n      swap1\n      pop\n      jump\t// out\n        /* \"#utility.yul\":22796:22976   */\n    tag_295:\n        /* \"#utility.yul\":22844:22921   */\n      0x4e487b7100000000000000000000000000000000000000000000000000000000\n        /* \"#utility.yul\":22841:22842   */\n      0x00\n        /* \"#utility.yul\":22834:22922   */\n      mstore\n        /* \"#utility.yul\":22941:22945   */\n      0x11\n        /* \"#utility.yul\":22938:22939   */\n      0x04\n        /* \"#utility.yul\":22931:22946   */\n      mstore\n        /* \"#utility.yul\":22965:22969   */\n      0x24\n        /* \"#utility.yul\":22962:22963   */\n      0x00\n        /* \"#utility.yul\":22955:22970   */\n      revert\n        /* \"#utility.yul\":22982:23176   */\n    tag_145:\n        /* \"#utility.yul\":23022:23026   */\n      0x00\n        /* \"#utility.yul\":23042:23062   */\n      tag_533\n        /* \"#utility.yul\":23060:23061   */\n      dup3\n        /* \"#utility.yul\":23042:23062   */\n      tag_246\n      jump\t// in\n    tag_533:\n        /* \"#utility.yul\":23037:23062   */\n      swap2\n      pop\n        /* \"#utility.yul\":23076:23096   */\n      tag_534\n        /* \"#utility.yul\":23094:23095   */\n      dup4\n        /* \"#utility.yul\":23076:23096   */\n      tag_246\n      jump\t// in\n    tag_534:\n        /* \"#utility.yul\":23071:23096   */\n      swap3\n      pop\n        /* \"#utility.yul\":23120:23121   */\n      dup3\n        /* \"#utility.yul\":23117:23118   */\n      dup3\n        /* \"#utility.yul\":23113:23122   */\n      sub\n        /* \"#utility.yul\":23105:23122   */\n      swap1\n      pop\n        /* \"#utility.yul\":23144:23145   */\n      dup2\n        /* \"#utility.yul\":23138:23142   */\n      dup2\n        /* \"#utility.yul\":23135:23146   */\n      gt\n        /* \"#utility.yul\":23132:23169   */\n      iszero\n      tag_535\n      jumpi\n        /* \"#utility.yul\":23149:23167   */\n      tag_536\n      tag_295\n      jump\t// in\n    tag_536:\n        /* \"#utility.yul\":23132:23169   */\n    tag_535:\n        /* \"#utility.yul\":22982:23176   */\n      swap3\n      swap2\n      pop\n      pop\n      jump\t// out\n        /* \"#utility.yul\":23182:23329   */\n    tag_296:\n        /* \"#utility.yul\":23283:23294   */\n      0x00\n        /* \"#utility.yul\":23320:23323   */\n      dup2\n        /* \"#utility.yul\":23305:23323   */\n      swap1\n      pop\n        /* \"#utility.yul\":23182:23329   */\n      swap3\n      swap2\n      pop\n      pop\n      jump\t// out\n        /* \"#utility.yul\":23335:23449   */\n    tag_297:\n      pop\n      jump\t// out\n        /* \"#utility.yul\":23455:23853   */\n    tag_298:\n        /* \"#utility.yul\":23614:23617   */\n      0x00\n        /* \"#utility.yul\":23635:23718   */\n      tag_540\n        /* \"#utility.yul\":23716:23717   */\n      0x00\n        /* \"#utility.yul\":23711:23714   */\n      dup4\n        /* \"#utility.yul\":23635:23718   */\n      tag_296\n      jump\t// in\n    tag_540:\n        /* \"#utility.yul\":23628:23718   */\n      swap2\n      pop\n        /* \"#utility.yul\":23727:23820   */\n      tag_541\n        /* \"#utility.yul\":23816:23819   */\n      dup3\n        /* \"#utility.yul\":23727:23820   */\n      tag_297\n      jump\t// in\n    tag_541:\n        /* \"#utility.yul\":23845:23846   */\n      0x00\n        /* \"#utility.yul\":23840:23843   */\n      dup3\n        /* \"#utility.yul\":23836:23847   */\n      add\n        /* \"#utility.yul\":23829:23847   */\n      swap1\n      pop\n        /* \"#utility.yul\":23455:23853   */\n      swap2\n      swap1\n      pop\n      jump\t// out\n        /* \"#utility.yul\":23859:24238   */\n    tag_147:\n        /* \"#utility.yul\":24043:24046   */\n      0x00\n        /* \"#utility.yul\":24065:24212   */\n      tag_543\n        /* \"#utility.yul\":24208:24211   */\n      dup3\n        /* \"#utility.yul\":24065:24212   */\n      tag_298\n      jump\t// in\n    tag_543:\n        /* \"#utility.yul\":24058:24212   */\n      swap2\n      pop\n        /* \"#utility.yul\":24229:24232   */\n      dup2\n        /* \"#utility.yul\":24222:24232   */\n      swap1\n      pop\n        /* \"#utility.yul\":23859:24238   */\n      swap2\n      swap1\n      pop\n      jump\t// out\n        /* \"#utility.yul\":24244:24423   */\n    tag_299:\n        /* \"#utility.yul\":24384:24415   */\n      0x4661696c656420746f2073656e642045544820746f206c696272617279000000\n        /* \"#utility.yul\":24380:24381   */\n      0x00\n        /* \"#utility.yul\":24372:24378   */\n      dup3\n        /* \"#utility.yul\":24368:24382   */\n      add\n        /* \"#utility.yul\":24361:24416   */\n      mstore\n        /* \"#utility.yul\":24244:24423   */\n      pop\n      jump\t// out\n        /* \"#utility.yul\":24429:24795   */\n    tag_300:\n        /* \"#utility.yul\":24571:24574   */\n      0x00\n        /* \"#utility.yul\":24592:24659   */\n      tag_546\n        /* \"#utility.yul\":24656:24658   */\n      0x1d\n        /* \"#utility.yul\":24651:24654   */\n      dup4\n        /* \"#utility.yul\":24592:24659   */\n      tag_259\n      jump\t// in\n    tag_546:\n        /* \"#utility.yul\":24585:24659   */\n      swap2\n      pop\n        /* \"#utility.yul\":24668:24761   */\n      tag_547\n        /* \"#utility.yul\":24757:24760   */\n      dup3\n        /* \"#utility.yul\":24668:24761   */\n      tag_299\n      jump\t// in\n    tag_547:\n        /* \"#utility.yul\":24786:24788   */\n      0x20\n        /* \"#utility.yul\":24781:24784   */\n      dup3\n        /* \"#utility.yul\":24777:24789   */\n      add\n        /* \"#utility.yul\":24770:24789   */\n      swap1\n      pop\n        /* \"#utility.yul\":24429:24795   */\n      swap2\n      swap1\n      pop\n      jump\t// out\n        /* \"#utility.yul\":24801:25220   */\n    tag_153:\n        /* \"#utility.yul\":24967:24971   */\n      0x00\n        /* \"#utility.yul\":25005:25007   */\n      0x20\n        /* \"#utility.yul\":24994:25003   */\n      dup3\n        /* \"#utility.yul\":24990:25008   */\n      add\n        /* \"#utility.yul\":24982:25008   */\n      swap1\n      pop\n        /* \"#utility.yul\":25054:25063   */\n      dup2\n        /* \"#utility.yul\":25048:25052   */\n      dup2\n        /* \"#utility.yul\":25044:25064   */\n      sub\n        /* \"#utility.yul\":25040:25041   */\n      0x00\n        /* \"#utility.yul\":25029:25038   */\n      dup4\n        /* \"#utility.yul\":25025:25042   */\n      add\n        /* \"#utility.yul\":25018:25065   */\n      mstore\n        /* \"#utility.yul\":25082:25213   */\n      tag_549\n        /* \"#utility.yul\":25208:25212   */\n      dup2\n        /* \"#utility.yul\":25082:25213   */\n      tag_300\n      jump\t// in\n    tag_549:\n        /* \"#utility.yul\":25074:25213   */\n      swap1\n      pop\n        /* \"#utility.yul\":24801:25220   */\n      swap2\n      swap1\n      pop\n      jump\t// out\n        /* \"#utility.yul\":25226:25403   */\n    tag_301:\n        /* \"#utility.yul\":25366:25395   */\n      0x4661696c656420746f20726566756e6420657863657373204554480000000000\n        /* \"#utility.yul\":25362:25363   */\n      0x00\n        /* \"#utility.yul\":25354:25360   */\n      dup3\n        /* \"#utility.yul\":25350:25364   */\n      add\n        /* \"#utility.yul\":25343:25396   */\n      mstore\n        /* \"#utility.yul\":25226:25403   */\n      pop\n      jump\t// out\n        /* \"#utility.yul\":25409:25775   */\n    tag_302:\n        /* \"#utility.yul\":25551:25554   */\n      0x00\n        /* \"#utility.yul\":25572:25639   */\n      tag_552\n        /* \"#utility.yul\":25636:25638   */\n      0x1b\n        /* \"#utility.yul\":25631:25634   */\n      dup4\n        /* \"#utility.yul\":25572:25639   */\n      tag_259\n      jump\t// in\n    tag_552:\n        /* \"#utility.yul\":25565:25639   */\n      swap2\n      pop\n        /* \"#utility.yul\":25648:25741   */\n      tag_553\n        /* \"#utility.yul\":25737:25740   */\n      dup3\n        /* \"#utility.yul\":25648:25741   */\n      tag_301\n      jump\t// in\n    tag_553:\n        /* \"#utility.yul\":25766:25768   */\n      0x20\n        /* \"#utility.yul\":25761:25764   */\n      dup3\n        /* \"#utility.yul\":25757:25769   */\n      add\n        /* \"#utility.yul\":25750:25769   */\n      swap1\n      pop\n        /* \"#utility.yul\":25409:25775   */\n      swap2\n      swap1\n      pop\n      jump\t// out\n        /* \"#utility.yul\":25781:26200   */\n    tag_162:\n        /* \"#utility.yul\":25947:25951   */\n      0x00\n        /* \"#utility.yul\":25985:25987   */\n      0x20\n        /* \"#utility.yul\":25974:25983   */\n      dup3\n        /* \"#utility.yul\":25970:25988   */\n      add\n        /* \"#utility.yul\":25962:25988   */\n      swap1\n      pop\n        /* \"#utility.yul\":26034:26043   */\n      dup2\n        /* \"#utility.yul\":26028:26032   */\n      dup2\n        /* \"#utility.yul\":26024:26044   */\n      sub\n        /* \"#utility.yul\":26020:26021   */\n      0x00\n        /* \"#utility.yul\":26009:26018   */\n      dup4\n        /* \"#utility.yul\":26005:26022   */\n      add\n        /* \"#utility.yul\":25998:26045   */\n      mstore\n        /* \"#utility.yul\":26062:26193   */\n      tag_555\n        /* \"#utility.yul\":26188:26192   */\n      dup2\n        /* \"#utility.yul\":26062:26193   */\n      tag_302\n      jump\t// in\n    tag_555:\n        /* \"#utility.yul\":26054:26193   */\n      swap1\n      pop\n        /* \"#utility.yul\":25781:26200   */\n      swap2\n      swap1\n      pop\n      jump\t// out\n        /* \"#utility.yul\":26206:26386   */\n    tag_175:\n        /* \"#utility.yul\":26254:26331   */\n      0x4e487b7100000000000000000000000000000000000000000000000000000000\n        /* \"#utility.yul\":26251:26252   */\n      0x00\n        /* \"#utility.yul\":26244:26332   */\n      mstore\n        /* \"#utility.yul\":26351:26355   */\n      0x32\n        /* \"#utility.yul\":26348:26349   */\n      0x04\n        /* \"#utility.yul\":26341:26356   */\n      mstore\n        /* \"#utility.yul\":26375:26379   */\n      0x24\n        /* \"#utility.yul\":26372:26373   */\n      0x00\n        /* \"#utility.yul\":26365:26380   */\n      revert\n        /* \"#utility.yul\":26392:26559   */\n    tag_303:\n        /* \"#utility.yul\":26532:26551   */\n      0x4e6f74206c6962726172792061646d696e000000000000000000000000000000\n        /* \"#utility.yul\":26528:26529   */\n      0x00\n        /* \"#utility.yul\":26520:26526   */\n      dup3\n        /* \"#utility.yul\":26516:26530   */\n      add\n        /* \"#utility.yul\":26509:26552   */\n      mstore\n        /* \"#utility.yul\":26392:26559   */\n      pop\n      jump\t// out\n        /* \"#utility.yul\":26565:26931   */\n    tag_304:\n        /* \"#utility.yul\":26707:26710   */\n      0x00\n        /* \"#utility.yul\":26728:26795   */\n      tag_559\n        /* \"#utility.yul\":26792:26794   */\n      0x11\n        /* \"#utility.yul\":26787:26790   */\n      dup4\n        /* \"#utility.yul\":26728:26795   */\n      tag_259\n      jump\t// in\n    tag_559:\n        /* \"#utility.yul\":26721:26795   */\n      swap2\n      pop\n        /* \"#utility.yul\":26804:26897   */\n      tag_560\n        /* \"#utility.yul\":26893:26896   */\n      dup3\n        /* \"#utility.yul\":26804:26897   */\n      tag_303\n      jump\t// in\n    tag_560:\n        /* \"#utility.yul\":26922:26924   */\n      0x20\n        /* \"#utility.yul\":26917:26920   */\n      dup3\n        /* \"#utility.yul\":26913:26925   */\n      add\n        /* \"#utility.yul\":26906:26925   */\n      swap1\n      pop\n        /* \"#utility.yul\":26565:26931   */\n      swap2\n      swap1\n      pop\n      jump\t// out\n        /* \"#utility.yul\":26937:27356   */\n    tag_199:\n        /* \"#utility.yul\":27103:27107   */\n      0x00\n        /* \"#utility.yul\":27141:27143   */\n      0x20\n        /* \"#utility.yul\":27130:27139   */\n      dup3\n        /* \"#utility.yul\":27126:27144   */\n      add\n        /* \"#utility.yul\":27118:27144   */\n      swap1\n      pop\n        /* \"#utility.yul\":27190:27199   */\n      dup2\n        /* \"#utility.yul\":27184:27188   */\n      dup2\n        /* \"#utility.yul\":27180:27200   */\n      sub\n        /* \"#utility.yul\":27176:27177   */\n      0x00\n        /* \"#utility.yul\":27165:27174   */\n      dup4\n        /* \"#utility.yul\":27161:27178   */\n      add\n        /* \"#utility.yul\":27154:27201   */\n      mstore\n        /* \"#utility.yul\":27218:27349   */\n      tag_562\n        /* \"#utility.yul\":27344:27348   */\n      dup2\n        /* \"#utility.yul\":27218:27349   */\n      tag_304\n      jump\t// in\n    tag_562:\n        /* \"#utility.yul\":27210:27349   */\n      swap1\n      pop\n        /* \"#utility.yul\":26937:27356   */\n      swap2\n      swap1\n      pop\n      jump\t// out\n        /* \"#utility.yul\":27362:27534   */\n    tag_305:\n        /* \"#utility.yul\":27502:27526   */\n      0x5469746c652063616e6e6f7420626520656d7074792100000000000000000000\n        /* \"#utility.yul\":27498:27499   */\n      0x00\n        /* \"#utility.yul\":27490:27496   */\n      dup3\n        /* \"#utility.yul\":27486:27500   */\n      add\n        /* \"#utility.yul\":27479:27527   */\n      mstore\n        /* \"#utility.yul\":27362:27534   */\n      pop\n      jump\t// out\n        /* \"#utility.yul\":27540:27906   */\n    tag_306:\n        /* \"#utility.yul\":27682:27685   */\n      0x00\n        /* \"#utility.yul\":27703:27770   */\n      tag_565\n        /* \"#utility.yul\":27767:27769   */\n      0x16\n        /* \"#utility.yul\":27762:27765   */\n      dup4\n        /* \"#utility.yul\":27703:27770   */\n      tag_259\n      jump\t// in\n    tag_565:\n        /* \"#utility.yul\":27696:27770   */\n      swap2\n      pop\n        /* \"#utility.yul\":27779:27872   */\n      tag_566\n        /* \"#utility.yul\":27868:27871   */\n      dup3\n        /* \"#utility.yul\":27779:27872   */\n      tag_305\n      jump\t// in\n    tag_566:\n        /* \"#utility.yul\":27897:27899   */\n      0x20\n        /* \"#utility.yul\":27892:27895   */\n      dup3\n        /* \"#utility.yul\":27888:27900   */\n      add\n        /* \"#utility.yul\":27881:27900   */\n      swap1\n      pop\n        /* \"#utility.yul\":27540:27906   */\n      swap2\n      swap1\n      pop\n      jump\t// out\n        /* \"#utility.yul\":27912:28331   */\n    tag_203:\n        /* \"#utility.yul\":28078:28082   */\n      0x00\n        /* \"#utility.yul\":28116:28118   */\n      0x20\n        /* \"#utility.yul\":28105:28114   */\n      dup3\n        /* \"#utility.yul\":28101:28119   */\n      add\n        /* \"#utility.yul\":28093:28119   */\n      swap1\n      pop\n        /* \"#utility.yul\":28165:28174   */\n      dup2\n        /* \"#utility.yul\":28159:28163   */\n      dup2\n        /* \"#utility.yul\":28155:28175   */\n      sub\n        /* \"#utility.yul\":28151:28152   */\n      0x00\n        /* \"#utility.yul\":28140:28149   */\n      dup4\n        /* \"#utility.yul\":28136:28153   */\n      add\n        /* \"#utility.yul\":28129:28176   */\n      mstore\n        /* \"#utility.yul\":28193:28324   */\n      tag_568\n        /* \"#utility.yul\":28319:28323   */\n      dup2\n        /* \"#utility.yul\":28193:28324   */\n      tag_306\n      jump\t// in\n    tag_568:\n        /* \"#utility.yul\":28185:28324   */\n      swap1\n      pop\n        /* \"#utility.yul\":27912:28331   */\n      swap2\n      swap1\n      pop\n      jump\t// out\n        /* \"#utility.yul\":28337:28510   */\n    tag_307:\n        /* \"#utility.yul\":28477:28502   */\n      0x417574686f722063616e6e6f7420626520656d70747921000000000000000000\n        /* \"#utility.yul\":28473:28474   */\n      0x00\n        /* \"#utility.yul\":28465:28471   */\n      dup3\n        /* \"#utility.yul\":28461:28475   */\n      add\n        /* \"#utility.yul\":28454:28503   */\n      mstore\n        /* \"#utility.yul\":28337:28510   */\n      pop\n      jump\t// out\n        /* \"#utility.yul\":28516:28882   */\n    tag_308:\n        /* \"#utility.yul\":28658:28661   */\n      0x00\n        /* \"#utility.yul\":28679:28746   */\n      tag_571\n        /* \"#utility.yul\":28743:28745   */\n      0x17\n        /* \"#utility.yul\":28738:28741   */\n      dup4\n        /* \"#utility.yul\":28679:28746   */\n      tag_259\n      jump\t// in\n    tag_571:\n        /* \"#utility.yul\":28672:28746   */\n      swap2\n      pop\n        /* \"#utility.yul\":28755:28848   */\n      tag_572\n        /* \"#utility.yul\":28844:28847   */\n      dup3\n        /* \"#utility.yul\":28755:28848   */\n      tag_307\n      jump\t// in\n    tag_572:\n        /* \"#utility.yul\":28873:28875   */\n      0x20\n        /* \"#utility.yul\":28868:28871   */\n      dup3\n        /* \"#utility.yul\":28864:28876   */\n      add\n        /* \"#utility.yul\":28857:28876   */\n      swap1\n      pop\n        /* \"#utility.yul\":28516:28882   */\n      swap2\n      swap1\n      pop\n      jump\t// out\n        /* \"#utility.yul\":28888:29307   */\n    tag_206:\n        /* \"#utility.yul\":29054:29058   */\n      0x00\n        /* \"#utility.yul\":29092:29094   */\n      0x20\n        /* \"#utility.yul\":29081:29090   */\n      dup3\n        /* \"#utility.yul\":29077:29095   */\n      add\n        /* \"#utility.yul\":29069:29095   */\n      swap1\n      pop\n        /* \"#utility.yul\":29141:29150   */\n      dup2\n        /* \"#utility.yul\":29135:29139   */\n      dup2\n        /* \"#utility.yul\":29131:29151   */\n      sub\n        /* \"#utility.yul\":29127:29128   */\n      0x00\n        /* \"#utility.yul\":29116:29125   */\n      dup4\n        /* \"#utility.yul\":29112:29129   */\n      add\n        /* \"#utility.yul\":29105:29152   */\n      mstore\n        /* \"#utility.yul\":29169:29300   */\n      tag_574\n        /* \"#utility.yul\":29295:29299   */\n      dup2\n        /* \"#utility.yul\":29169:29300   */\n      tag_308\n      jump\t// in\n    tag_574:\n        /* \"#utility.yul\":29161:29300   */\n      swap1\n      pop\n        /* \"#utility.yul\":28888:29307   */\n      swap2\n      swap1\n      pop\n      jump\t// out\n        /* \"#utility.yul\":29313:29485   */\n    tag_309:\n        /* \"#utility.yul\":29453:29477   */\n      0x47656e72652063616e6e6f7420626520656d7074792100000000000000000000\n        /* \"#utility.yul\":29449:29450   */\n      0x00\n        /* \"#utility.yul\":29441:29447   */\n      dup3\n        /* \"#utility.yul\":29437:29451   */\n      add\n        /* \"#utility.yul\":29430:29478   */\n      mstore\n        /* \"#utility.yul\":29313:29485   */\n      pop\n      jump\t// out\n        /* \"#utility.yul\":29491:29857   */\n    tag_310:\n        /* \"#utility.yul\":29633:29636   */\n      0x00\n        /* \"#utility.yul\":29654:29721   */\n      tag_577\n        /* \"#utility.yul\":29718:29720   */\n      0x16\n        /* \"#utility.yul\":29713:29716   */\n      dup4\n        /* \"#utility.yul\":29654:29721   */\n      tag_259\n      jump\t// in\n    tag_577:\n        /* \"#utility.yul\":29647:29721   */\n      swap2\n      pop\n        /* \"#utility.yul\":29730:29823   */\n      tag_578\n        /* \"#utility.yul\":29819:29822   */\n      dup3\n        /* \"#utility.yul\":29730:29823   */\n      tag_309\n      jump\t// in\n    tag_578:\n        /* \"#utility.yul\":29848:29850   */\n      0x20\n        /* \"#utility.yul\":29843:29846   */\n      dup3\n        /* \"#utility.yul\":29839:29851   */\n      add\n        /* \"#utility.yul\":29832:29851   */\n      swap1\n      pop\n        /* \"#utility.yul\":29491:29857   */\n      swap2\n      swap1\n      pop\n      jump\t// out\n        /* \"#utility.yul\":29863:30282   */\n    tag_209:\n        /* \"#utility.yul\":30029:30033   */\n      0x00\n        /* \"#utility.yul\":30067:30069   */\n      0x20\n        /* \"#utility.yul\":30056:30065   */\n      dup3\n        /* \"#utility.yul\":30052:30070   */\n      add\n        /* \"#utility.yul\":30044:30070   */\n      swap1\n      pop\n        /* \"#utility.yul\":30116:30125   */\n      dup2\n        /* \"#utility.yul\":30110:30114   */\n      dup2\n        /* \"#utility.yul\":30106:30126   */\n      sub\n        /* \"#utility.yul\":30102:30103   */\n      0x00\n        /* \"#utility.yul\":30091:30100   */\n      dup4\n        /* \"#utility.yul\":30087:30104   */\n      add\n        /* \"#utility.yul\":30080:30127   */\n      mstore\n        /* \"#utility.yul\":30144:30275   */\n      tag_580\n        /* \"#utility.yul\":30270:30274   */\n      dup2\n        /* \"#utility.yul\":30144:30275   */\n      tag_310\n      jump\t// in\n    tag_580:\n        /* \"#utility.yul\":30136:30275   */\n      swap1\n      pop\n        /* \"#utility.yul\":29863:30282   */\n      swap2\n      swap1\n      pop\n      jump\t// out\n        /* \"#utility.yul\":30288:30469   */\n    tag_311:\n        /* \"#utility.yul\":30428:30461   */\n      0x5175616e74697479206d7573742062652067726561746572207468616e203000\n        /* \"#utility.yul\":30424:30425   */\n      0x00\n        /* \"#utility.yul\":30416:30422   */\n      dup3\n        /* \"#utility.yul\":30412:30426   */\n      add\n        /* \"#utility.yul\":30405:30462   */\n      mstore\n        /* \"#utility.yul\":30288:30469   */\n      pop\n      jump\t// out\n        /* \"#utility.yul\":30475:30841   */\n    tag_312:\n        /* \"#utility.yul\":30617:30620   */\n      0x00\n        /* \"#utility.yul\":30638:30705   */\n      tag_583\n        /* \"#utility.yul\":30702:30704   */\n      0x1f\n        /* \"#utility.yul\":30697:30700   */\n      dup4\n        /* \"#utility.yul\":30638:30705   */\n      tag_259\n      jump\t// in\n    tag_583:\n        /* \"#utility.yul\":30631:30705   */\n      swap2\n      pop\n        /* \"#utility.yul\":30714:30807   */\n      tag_584\n        /* \"#utility.yul\":30803:30806   */\n      dup3\n        /* \"#utility.yul\":30714:30807   */\n      tag_311\n      jump\t// in\n    tag_584:\n        /* \"#utility.yul\":30832:30834   */\n      0x20\n        /* \"#utility.yul\":30827:30830   */\n      dup3\n        /* \"#utility.yul\":30823:30835   */\n      add\n        /* \"#utility.yul\":30816:30835   */\n      swap1\n      pop\n        /* \"#utility.yul\":30475:30841   */\n      swap2\n      swap1\n      pop\n      jump\t// out\n        /* \"#utility.yul\":30847:31266   */\n    tag_212:\n        /* \"#utility.yul\":31013:31017   */\n      0x00\n        /* \"#utility.yul\":31051:31053   */\n      0x20\n        /* \"#utility.yul\":31040:31049   */\n      dup3\n        /* \"#utility.yul\":31036:31054   */\n      add\n        /* \"#utility.yul\":31028:31054   */\n      swap1\n      pop\n        /* \"#utility.yul\":31100:31109   */\n      dup2\n        /* \"#utility.yul\":31094:31098   */\n      dup2\n        /* \"#utility.yul\":31090:31110   */\n      sub\n        /* \"#utility.yul\":31086:31087   */\n      0x00\n        /* \"#utility.yul\":31075:31084   */\n      dup4\n        /* \"#utility.yul\":31071:31088   */\n      add\n        /* \"#utility.yul\":31064:31111   */\n      mstore\n        /* \"#utility.yul\":31128:31259   */\n      tag_586\n        /* \"#utility.yul\":31254:31258   */\n      dup2\n        /* \"#utility.yul\":31128:31259   */\n      tag_312\n      jump\t// in\n    tag_586:\n        /* \"#utility.yul\":31120:31259   */\n      swap1\n      pop\n        /* \"#utility.yul\":30847:31266   */\n      swap2\n      swap1\n      pop\n      jump\t// out\n        /* \"#utility.yul\":31272:31450   */\n    tag_313:\n        /* \"#utility.yul\":31412:31442   */\n      0x5072696365206d7573742062652067726561746572207468616e203000000000\n        /* \"#utility.yul\":31408:31409   */\n      0x00\n        /* \"#utility.yul\":31400:31406   */\n      dup3\n        /* \"#utility.yul\":31396:31410   */\n      add\n        /* \"#utility.yul\":31389:31443   */\n      mstore\n        /* \"#utility.yul\":31272:31450   */\n      pop\n      jump\t// out\n        /* \"#utility.yul\":31456:31822   */\n    tag_314:\n        /* \"#utility.yul\":31598:31601   */\n      0x00\n        /* \"#utility.yul\":31619:31686   */\n      tag_589\n        /* \"#utility.yul\":31683:31685   */\n      0x1c\n        /* \"#utility.yul\":31678:31681   */\n      dup4\n        /* \"#utility.yul\":31619:31686   */\n      tag_259\n      jump\t// in\n    tag_589:\n        /* \"#utility.yul\":31612:31686   */\n      swap2\n      pop\n        /* \"#utility.yul\":31695:31788   */\n      tag_590\n        /* \"#utility.yul\":31784:31787   */\n      dup3\n        /* \"#utility.yul\":31695:31788   */\n      tag_313\n      jump\t// in\n    tag_590:\n        /* \"#utility.yul\":31813:31815   */\n      0x20\n        /* \"#utility.yul\":31808:31811   */\n      dup3\n        /* \"#utility.yul\":31804:31816   */\n      add\n        /* \"#utility.yul\":31797:31816   */\n      swap1\n      pop\n        /* \"#utility.yul\":31456:31822   */\n      swap2\n      swap1\n      pop\n      jump\t// out\n        /* \"#utility.yul\":31828:32247   */\n    tag_215:\n        /* \"#utility.yul\":31994:31998   */\n      0x00\n        /* \"#utility.yul\":32032:32034   */\n      0x20\n        /* \"#utility.yul\":32021:32030   */\n      dup3\n        /* \"#utility.yul\":32017:32035   */\n      add\n        /* \"#utility.yul\":32009:32035   */\n      swap1\n      pop\n        /* \"#utility.yul\":32081:32090   */\n      dup2\n        /* \"#utility.yul\":32075:32079   */\n      dup2\n        /* \"#utility.yul\":32071:32091   */\n      sub\n        /* \"#utility.yul\":32067:32068   */\n      0x00\n        /* \"#utility.yul\":32056:32065   */\n      dup4\n        /* \"#utility.yul\":32052:32069   */\n      add\n        /* \"#utility.yul\":32045:32092   */\n      mstore\n        /* \"#utility.yul\":32109:32240   */\n      tag_592\n        /* \"#utility.yul\":32235:32239   */\n      dup2\n        /* \"#utility.yul\":32109:32240   */\n      tag_314\n      jump\t// in\n    tag_592:\n        /* \"#utility.yul\":32101:32240   */\n      swap1\n      pop\n        /* \"#utility.yul\":31828:32247   */\n      swap2\n      swap1\n      pop\n      jump\t// out\n        /* \"#utility.yul\":32253:32401   */\n    tag_315:\n        /* \"#utility.yul\":32355:32366   */\n      0x00\n        /* \"#utility.yul\":32392:32395   */\n      dup2\n        /* \"#utility.yul\":32377:32395   */\n      swap1\n      pop\n        /* \"#utility.yul\":32253:32401   */\n      swap3\n      swap2\n      pop\n      pop\n      jump\t// out\n        /* \"#utility.yul\":32407:32797   */\n    tag_316:\n        /* \"#utility.yul\":32513:32516   */\n      0x00\n        /* \"#utility.yul\":32541:32580   */\n      tag_595\n        /* \"#utility.yul\":32574:32579   */\n      dup3\n        /* \"#utility.yul\":32541:32580   */\n      tag_250\n      jump\t// in\n    tag_595:\n        /* \"#utility.yul\":32596:32685   */\n      tag_596\n        /* \"#utility.yul\":32678:32684   */\n      dup2\n        /* \"#utility.yul\":32673:32676   */\n      dup6\n        /* \"#utility.yul\":32596:32685   */\n      tag_315\n      jump\t// in\n    tag_596:\n        /* \"#utility.yul\":32589:32685   */\n      swap4\n      pop\n        /* \"#utility.yul\":32694:32759   */\n      tag_597\n        /* \"#utility.yul\":32752:32758   */\n      dup2\n        /* \"#utility.yul\":32747:32750   */\n      dup6\n        /* \"#utility.yul\":32740:32744   */\n      0x20\n        /* \"#utility.yul\":32733:32738   */\n      dup7\n        /* \"#utility.yul\":32729:32745   */\n      add\n        /* \"#utility.yul\":32694:32759   */\n      tag_252\n      jump\t// in\n    tag_597:\n        /* \"#utility.yul\":32784:32790   */\n      dup1\n        /* \"#utility.yul\":32779:32782   */\n      dup5\n        /* \"#utility.yul\":32775:32791   */\n      add\n        /* \"#utility.yul\":32768:32791   */\n      swap2\n      pop\n        /* \"#utility.yul\":32517:32797   */\n      pop\n        /* \"#utility.yul\":32407:32797   */\n      swap3\n      swap2\n      pop\n      pop\n      jump\t// out\n        /* \"#utility.yul\":32803:33238   */\n    tag_219:\n        /* \"#utility.yul\":32983:32986   */\n      0x00\n        /* \"#utility.yul\":33005:33100   */\n      tag_599\n        /* \"#utility.yul\":33096:33099   */\n      dup3\n        /* \"#utility.yul\":33087:33093   */\n      dup6\n        /* \"#utility.yul\":33005:33100   */\n      tag_316\n      jump\t// in\n    tag_599:\n        /* \"#utility.yul\":32998:33100   */\n      swap2\n      pop\n        /* \"#utility.yul\":33117:33212   */\n      tag_600\n        /* \"#utility.yul\":33208:33211   */\n      dup3\n        /* \"#utility.yul\":33199:33205   */\n      dup5\n        /* \"#utility.yul\":33117:33212   */\n      tag_316\n      jump\t// in\n    tag_600:\n        /* \"#utility.yul\":33110:33212   */\n      swap2\n      pop\n        /* \"#utility.yul\":33229:33232   */\n      dup2\n        /* \"#utility.yul\":33222:33232   */\n      swap1\n      pop\n        /* \"#utility.yul\":32803:33238   */\n      swap4\n      swap3\n      pop\n      pop\n      pop\n      jump\t// out\n        /* \"#utility.yul\":33244:33471   */\n    tag_317:\n        /* \"#utility.yul\":33384:33418   */\n      0x5468697320626f6f6b206279207468697320617574686f7220616c7265616479\n        /* \"#utility.yul\":33380:33381   */\n      0x00\n        /* \"#utility.yul\":33372:33378   */\n      dup3\n        /* \"#utility.yul\":33368:33382   */\n      add\n        /* \"#utility.yul\":33361:33419   */\n      mstore\n        /* \"#utility.yul\":33453:33463   */\n      0x2065786973747321000000000000000000000000000000000000000000000000\n        /* \"#utility.yul\":33448:33450   */\n      0x20\n        /* \"#utility.yul\":33440:33446   */\n      dup3\n        /* \"#utility.yul\":33436:33451   */\n      add\n        /* \"#utility.yul\":33429:33464   */\n      mstore\n        /* \"#utility.yul\":33244:33471   */\n      pop\n      jump\t// out\n        /* \"#utility.yul\":33477:33843   */\n    tag_318:\n        /* \"#utility.yul\":33619:33622   */\n      0x00\n        /* \"#utility.yul\":33640:33707   */\n      tag_603\n        /* \"#utility.yul\":33704:33706   */\n      0x28\n        /* \"#utility.yul\":33699:33702   */\n      dup4\n        /* \"#utility.yul\":33640:33707   */\n      tag_259\n      jump\t// in\n    tag_603:\n        /* \"#utility.yul\":33633:33707   */\n      swap2\n      pop\n        /* \"#utility.yul\":33716:33809   */\n      tag_604\n        /* \"#utility.yul\":33805:33808   */\n      dup3\n        /* \"#utility.yul\":33716:33809   */\n      tag_317\n      jump\t// in\n    tag_604:\n        /* \"#utility.yul\":33834:33836   */\n      0x40\n        /* \"#utility.yul\":33829:33832   */\n      dup3\n        /* \"#utility.yul\":33825:33837   */\n      add\n        /* \"#utility.yul\":33818:33837   */\n      swap1\n      pop\n        /* \"#utility.yul\":33477:33843   */\n      swap2\n      swap1\n      pop\n      jump\t// out\n        /* \"#utility.yul\":33849:34268   */\n    tag_222:\n        /* \"#utility.yul\":34015:34019   */\n      0x00\n        /* \"#utility.yul\":34053:34055   */\n      0x20\n        /* \"#utility.yul\":34042:34051   */\n      dup3\n        /* \"#utility.yul\":34038:34056   */\n      add\n        /* \"#utility.yul\":34030:34056   */\n      swap1\n      pop\n        /* \"#utility.yul\":34102:34111   */\n      dup2\n        /* \"#utility.yul\":34096:34100   */\n      dup2\n        /* \"#utility.yul\":34092:34112   */\n      sub\n        /* \"#utility.yul\":34088:34089   */\n      0x00\n        /* \"#utility.yul\":34077:34086   */\n      dup4\n        /* \"#utility.yul\":34073:34090   */\n      add\n        /* \"#utility.yul\":34066:34113   */\n      mstore\n        /* \"#utility.yul\":34130:34261   */\n      tag_606\n        /* \"#utility.yul\":34256:34260   */\n      dup2\n        /* \"#utility.yul\":34130:34261   */\n      tag_318\n      jump\t// in\n    tag_606:\n        /* \"#utility.yul\":34122:34261   */\n      swap1\n      pop\n        /* \"#utility.yul\":33849:34268   */\n      swap2\n      swap1\n      pop\n      jump\t// out\n        /* \"#utility.yul\":34274:34465   */\n    tag_224:\n        /* \"#utility.yul\":34314:34317   */\n      0x00\n        /* \"#utility.yul\":34333:34353   */\n      tag_608\n        /* \"#utility.yul\":34351:34352   */\n      dup3\n        /* \"#utility.yul\":34333:34353   */\n      tag_246\n      jump\t// in\n    tag_608:\n        /* \"#utility.yul\":34328:34353   */\n      swap2\n      pop\n        /* \"#utility.yul\":34367:34387   */\n      tag_609\n        /* \"#utility.yul\":34385:34386   */\n      dup4\n        /* \"#utility.yul\":34367:34387   */\n      tag_246\n      jump\t// in\n    tag_609:\n        /* \"#utility.yul\":34362:34387   */\n      swap3\n      pop\n        /* \"#utility.yul\":34410:34411   */\n      dup3\n        /* \"#utility.yul\":34407:34408   */\n      dup3\n        /* \"#utility.yul\":34403:34412   */\n      add\n        /* \"#utility.yul\":34396:34412   */\n      swap1\n      pop\n        /* \"#utility.yul\":34431:34434   */\n      dup1\n        /* \"#utility.yul\":34428:34429   */\n      dup3\n        /* \"#utility.yul\":34425:34435   */\n      gt\n        /* \"#utility.yul\":34422:34458   */\n      iszero\n      tag_610\n      jumpi\n        /* \"#utility.yul\":34438:34456   */\n      tag_611\n      tag_295\n      jump\t// in\n    tag_611:\n        /* \"#utility.yul\":34422:34458   */\n    tag_610:\n        /* \"#utility.yul\":34274:34465   */\n      swap3\n      swap2\n      pop\n      pop\n      jump\t// out\n        /* \"#utility.yul\":34471:34612   */\n    tag_319:\n        /* \"#utility.yul\":34520:34524   */\n      0x00\n        /* \"#utility.yul\":34543:34546   */\n      dup2\n        /* \"#utility.yul\":34535:34546   */\n      swap1\n      pop\n        /* \"#utility.yul\":34566:34569   */\n      dup2\n        /* \"#utility.yul\":34563:34564   */\n      0x00\n        /* \"#utility.yul\":34556:34570   */\n      mstore\n        /* \"#utility.yul\":34600:34604   */\n      0x20\n        /* \"#utility.yul\":34597:34598   */\n      0x00\n        /* \"#utility.yul\":34587:34605   */\n      keccak256\n        /* \"#utility.yul\":34579:34605   */\n      swap1\n      pop\n        /* \"#utility.yul\":34471:34612   */\n      swap2\n      swap1\n      pop\n      jump\t// out\n        /* \"#utility.yul\":34618:34711   */\n    tag_320:\n        /* \"#utility.yul\":34655:34661   */\n      0x00\n        /* \"#utility.yul\":34702:34704   */\n      0x20\n        /* \"#utility.yul\":34697:34699   */\n      0x1f\n        /* \"#utility.yul\":34690:34695   */\n      dup4\n        /* \"#utility.yul\":34686:34700   */\n      add\n        /* \"#utility.yul\":34682:34705   */\n      div\n        /* \"#utility.yul\":34672:34705   */\n      swap1\n      pop\n        /* \"#utility.yul\":34618:34711   */\n      swap2\n      swap1\n      pop\n      jump\t// out\n        /* \"#utility.yul\":34717:34824   */\n    tag_321:\n        /* \"#utility.yul\":34761:34769   */\n      0x00\n        /* \"#utility.yul\":34811:34816   */\n      dup3\n        /* \"#utility.yul\":34805:34809   */\n      dup3\n        /* \"#utility.yul\":34801:34817   */\n      shl\n        /* \"#utility.yul\":34780:34817   */\n      swap1\n      pop\n        /* \"#utility.yul\":34717:34824   */\n      swap3\n      swap2\n      pop\n      pop\n      jump\t// out\n        /* \"#utility.yul\":34830:35223   */\n    tag_322:\n        /* \"#utility.yul\":34899:34905   */\n      0x00\n        /* \"#utility.yul\":34949:34950   */\n      0x08\n        /* \"#utility.yul\":34937:34947   */\n      dup4\n        /* \"#utility.yul\":34933:34951   */\n      mul\n        /* \"#utility.yul\":34972:35069   */\n      tag_616\n        /* \"#utility.yul\":35002:35068   */\n      0xffffffffffffffffffffffffffffffffffffffffffffffffffffffffffffffff\n        /* \"#utility.yul\":34991:35000   */\n      dup3\n        /* \"#utility.yul\":34972:35069   */\n      tag_321\n      jump\t// in\n    tag_616:\n        /* \"#utility.yul\":35090:35129   */\n      tag_617\n        /* \"#utility.yul\":35120:35128   */\n      dup7\n        /* \"#utility.yul\":35109:35118   */\n      dup4\n        /* \"#utility.yul\":35090:35129   */\n      tag_321\n      jump\t// in\n    tag_617:\n        /* \"#utility.yul\":35078:35129   */\n      swap6\n      pop\n        /* \"#utility.yul\":35162:35166   */\n      dup1\n        /* \"#utility.yul\":35158:35167   */\n      not\n        /* \"#utility.yul\":35151:35156   */\n      dup5\n        /* \"#utility.yul\":35147:35168   */\n      and\n        /* \"#utility.yul\":35138:35168   */\n      swap4\n      pop\n        /* \"#utility.yul\":35211:35215   */\n      dup1\n        /* \"#utility.yul\":35201:35209   */\n      dup7\n        /* \"#utility.yul\":35197:35216   */\n      and\n        /* \"#utility.yul\":35190:35195   */\n      dup5\n        /* \"#utility.yul\":35187:35217   */\n      or\n        /* \"#utility.yul\":35177:35217   */\n      swap3\n      pop\n        /* \"#utility.yul\":34906:35223   */\n      pop\n      pop\n        /* \"#utility.yul\":34830:35223   */\n      swap4\n      swap3\n      pop\n      pop\n      pop\n      jump\t// out\n        /* \"#utility.yul\":35229:35371   */\n    tag_323:\n        /* \"#utility.yul\":35279:35288   */\n      0x00\n        /* \"#utility.yul\":35312:35365   */\n      tag_619\n        /* \"#utility.yul\":35330:35364   */\n      tag_620\n        /* \"#utility.yul\":35339:35363   */\n      tag_621\n        /* \"#utility.yul\":35357:35362   */\n      dup5\n        /* \"#utility.yul\":35339:35363   */\n      tag_246\n      jump\t// in\n    tag_621:\n        /* \"#utility.yul\":35330:35364   */\n      tag_279\n      jump\t// in\n    tag_620:\n        /* \"#utility.yul\":35312:35365   */\n      tag_246\n      jump\t// in\n    tag_619:\n        /* \"#utility.yul\":35299:35365   */\n      swap1\n      pop\n        /* \"#utility.yul\":35229:35371   */\n      swap2\n      swap1\n      pop\n      jump\t// out\n        /* \"#utility.yul\":35377:35452   */\n    tag_324:\n        /* \"#utility.yul\":35420:35423   */\n      0x00\n        /* \"#utility.yul\":35441:35446   */\n      dup2\n        /* \"#utility.yul\":35434:35446   */\n      swap1\n      pop\n        /* \"#utility.yul\":35377:35452   */\n      swap2\n      swap1\n      pop\n      jump\t// out\n        /* \"#utility.yul\":35458:35727   */\n    tag_325:\n        /* \"#utility.yul\":35568:35607   */\n      tag_624\n        /* \"#utility.yul\":35599:35606   */\n      dup4\n        /* \"#utility.yul\":35568:35607   */\n      tag_323\n      jump\t// in\n    tag_624:\n        /* \"#utility.yul\":35629:35720   */\n      tag_625\n        /* \"#utility.yul\":35678:35719   */\n      tag_626\n        /* \"#utility.yul\":35702:35718   */\n      dup3\n        /* \"#utility.yul\":35678:35719   */\n      tag_324\n      jump\t// in\n    tag_626:\n        /* \"#utility.yul\":35670:35676   */\n      dup5\n        /* \"#utility.yul\":35663:35667   */\n      dup5\n        /* \"#utility.yul\":35657:35668   */\n      sload\n        /* \"#utility.yul\":35629:35720   */\n      tag_322\n      jump\t// in\n    tag_625:\n        /* \"#utility.yul\":35623:35627   */\n      dup3\n        /* \"#utility.yul\":35616:35721   */\n      sstore\n        /* \"#utility.yul\":35534:35727   */\n      pop\n        /* \"#utility.yul\":35458:35727   */\n      pop\n      pop\n      pop\n      jump\t// out\n        /* \"#utility.yul\":35733:35806   */\n    tag_326:\n        /* \"#utility.yul\":35778:35781   */\n      0x00\n        /* \"#utility.yul\":35799:35800   */\n      0x00\n        /* \"#utility.yul\":35792:35800   */\n      swap1\n      pop\n        /* \"#utility.yul\":35733:35806   */\n      swap1\n      jump\t// out\n        /* \"#utility.yul\":35812:36001   */\n    tag_327:\n        /* \"#utility.yul\":35889:35921   */\n      tag_629\n      tag_326\n      jump\t// in\n    tag_629:\n        /* \"#utility.yul\":35930:35995   */\n      tag_630\n        /* \"#utility.yul\":35988:35994   */\n      dup2\n        /* \"#utility.yul\":35980:35986   */\n      dup5\n        /* \"#utility.yul\":35974:35978   */\n      dup5\n        /* \"#utility.yul\":35930:35995   */\n      tag_325\n      jump\t// in\n    tag_630:\n        /* \"#utility.yul\":35865:36001   */\n      pop\n        /* \"#utility.yul\":35812:36001   */\n      pop\n      pop\n      jump\t// out\n        /* \"#utility.yul\":36007:36193   */\n    tag_328:\n        /* \"#utility.yul\":36067:36187   */\n    tag_632:\n        /* \"#utility.yul\":36084:36087   */\n      dup2\n        /* \"#utility.yul\":36077:36082   */\n      dup2\n        /* \"#utility.yul\":36074:36088   */\n      lt\n        /* \"#utility.yul\":36067:36187   */\n      iszero\n      tag_634\n      jumpi\n        /* \"#utility.yul\":36138:36177   */\n      tag_635\n        /* \"#utility.yul\":36175:36176   */\n      0x00\n        /* \"#utility.yul\":36168:36173   */\n      dup3\n        /* \"#utility.yul\":36138:36177   */\n      tag_327\n      jump\t// in\n    tag_635:\n        /* \"#utility.yul\":36111:36112   */\n      0x01\n        /* \"#utility.yul\":36104:36109   */\n      dup2\n        /* \"#utility.yul\":36100:36113   */\n      add\n        /* \"#utility.yul\":36091:36113   */\n      swap1\n      pop\n        /* \"#utility.yul\":36067:36187   */\n      jump(tag_632)\n    tag_634:\n        /* \"#utility.yul\":36007:36193   */\n      pop\n      pop\n      jump\t// out\n        /* \"#utility.yul\":36199:36742   */\n    tag_329:\n        /* \"#utility.yul\":36300:36302   */\n      0x1f\n        /* \"#utility.yul\":36295:36298   */\n      dup3\n        /* \"#utility.yul\":36292:36303   */\n      gt\n        /* \"#utility.yul\":36289:36735   */\n      iszero\n      tag_637\n      jumpi\n        /* \"#utility.yul\":36334:36372   */\n      tag_638\n        /* \"#utility.yul\":36366:36371   */\n      dup2\n        /* \"#utility.yul\":36334:36372   */\n      tag_319\n      jump\t// in\n    tag_638:\n        /* \"#utility.yul\":36418:36447   */\n      tag_639\n        /* \"#utility.yul\":36436:36446   */\n      dup5\n        /* \"#utility.yul\":36418:36447   */\n      tag_320\n      jump\t// in\n    tag_639:\n        /* \"#utility.yul\":36408:36416   */\n      dup2\n        /* \"#utility.yul\":36404:36448   */\n      add\n        /* \"#utility.yul\":36601:36603   */\n      0x20\n        /* \"#utility.yul\":36589:36599   */\n      dup6\n        /* \"#utility.yul\":36586:36604   */\n      lt\n        /* \"#utility.yul\":36583:36632   */\n      iszero\n      tag_640\n      jumpi\n        /* \"#utility.yul\":36622:36630   */\n      dup2\n        /* \"#utility.yul\":36607:36630   */\n      swap1\n      pop\n        /* \"#utility.yul\":36583:36632   */\n    tag_640:\n        /* \"#utility.yul\":36645:36725   */\n      tag_641\n        /* \"#utility.yul\":36701:36723   */\n      tag_642\n        /* \"#utility.yul\":36719:36722   */\n      dup6\n        /* \"#utility.yul\":36701:36723   */\n      tag_320\n      jump\t// in\n    tag_642:\n        /* \"#utility.yul\":36691:36699   */\n      dup4\n        /* \"#utility.yul\":36687:36724   */\n      add\n        /* \"#utility.yul\":36674:36685   */\n      dup3\n        /* \"#utility.yul\":36645:36725   */\n      tag_328\n      jump\t// in\n    tag_641:\n        /* \"#utility.yul\":36304:36735   */\n      pop\n      pop\n        /* \"#utility.yul\":36289:36735   */\n    tag_637:\n        /* \"#utility.yul\":36199:36742   */\n      pop\n      pop\n      pop\n      jump\t// out\n        /* \"#utility.yul\":36748:36865   */\n    tag_330:\n        /* \"#utility.yul\":36802:36810   */\n      0x00\n        /* \"#utility.yul\":36852:36857   */\n      dup3\n        /* \"#utility.yul\":36846:36850   */\n      dup3\n        /* \"#utility.yul\":36842:36858   */\n      shr\n        /* \"#utility.yul\":36821:36858   */\n      swap1\n      pop\n        /* \"#utility.yul\":36748:36865   */\n      swap3\n      swap2\n      pop\n      pop\n      jump\t// out\n        /* \"#utility.yul\":36871:37040   */\n    tag_331:\n        /* \"#utility.yul\":36915:36921   */\n      0x00\n        /* \"#utility.yul\":36948:36999   */\n      tag_645\n        /* \"#utility.yul\":36996:36997   */\n      0x00\n        /* \"#utility.yul\":36992:36998   */\n      not\n        /* \"#utility.yul\":36984:36989   */\n      dup5\n        /* \"#utility.yul\":36981:36982   */\n      0x08\n        /* \"#utility.yul\":36977:36990   */\n      mul\n        /* \"#utility.yul\":36948:36999   */\n      tag_330\n      jump\t// in\n    tag_645:\n        /* \"#utility.yul\":36944:37000   */\n      not\n        /* \"#utility.yul\":37029:37033   */\n      dup1\n        /* \"#utility.yul\":37023:37027   */\n      dup4\n        /* \"#utility.yul\":37019:37034   */\n      and\n        /* \"#utility.yul\":37009:37034   */\n      swap2\n      pop\n        /* \"#utility.yul\":36922:37040   */\n      pop\n        /* \"#utility.yul\":36871:37040   */\n      swap3\n      swap2\n      pop\n      pop\n      jump\t// out\n        /* \"#utility.yul\":37045:37340   */\n    tag_332:\n        /* \"#utility.yul\":37121:37125   */\n      0x00\n        /* \"#utility.yul\":37267:37296   */\n      tag_647\n        /* \"#utility.yul\":37292:37295   */\n      dup4\n        /* \"#utility.yul\":37286:37290   */\n      dup4\n        /* \"#utility.yul\":37267:37296   */\n      tag_331\n      jump\t// in\n    tag_647:\n        /* \"#utility.yul\":37259:37296   */\n      swap2\n      pop\n        /* \"#utility.yul\":37329:37332   */\n      dup3\n        /* \"#utility.yul\":37326:37327   */\n      0x02\n        /* \"#utility.yul\":37322:37333   */\n      mul\n        /* \"#utility.yul\":37316:37320   */\n      dup3\n        /* \"#utility.yul\":37313:37334   */\n      or\n        /* \"#utility.yul\":37305:37334   */\n      swap1\n      pop\n        /* \"#utility.yul\":37045:37340   */\n      swap3\n      swap2\n      pop\n      pop\n      jump\t// out\n        /* \"#utility.yul\":37345:38740   */\n    tag_226:\n        /* \"#utility.yul\":37462:37499   */\n      tag_649\n        /* \"#utility.yul\":37495:37498   */\n      dup3\n        /* \"#utility.yul\":37462:37499   */\n      tag_250\n      jump\t// in\n    tag_649:\n        /* \"#utility.yul\":37564:37582   */\n      0xffffffffffffffff\n        /* \"#utility.yul\":37556:37562   */\n      dup2\n        /* \"#utility.yul\":37553:37583   */\n      gt\n        /* \"#utility.yul\":37550:37606   */\n      iszero\n      tag_650\n      jumpi\n        /* \"#utility.yul\":37586:37604   */\n      tag_651\n      tag_166\n      jump\t// in\n    tag_651:\n        /* \"#utility.yul\":37550:37606   */\n    tag_650:\n        /* \"#utility.yul\":37630:37668   */\n      tag_652\n        /* \"#utility.yul\":37662:37666   */\n      dup3\n        /* \"#utility.yul\":37656:37667   */\n      sload\n        /* \"#utility.yul\":37630:37668   */\n      tag_94\n      jump\t// in\n    tag_652:\n        /* \"#utility.yul\":37715:37782   */\n      tag_653\n        /* \"#utility.yul\":37775:37781   */\n      dup3\n        /* \"#utility.yul\":37767:37773   */\n      dup3\n        /* \"#utility.yul\":37761:37765   */\n      dup6\n        /* \"#utility.yul\":37715:37782   */\n      tag_329\n      jump\t// in\n    tag_653:\n        /* \"#utility.yul\":37809:37810   */\n      0x00\n        /* \"#utility.yul\":37833:37837   */\n      0x20\n        /* \"#utility.yul\":37820:37837   */\n      swap1\n      pop\n        /* \"#utility.yul\":37865:37867   */\n      0x1f\n        /* \"#utility.yul\":37857:37863   */\n      dup4\n        /* \"#utility.yul\":37854:37868   */\n      gt\n        /* \"#utility.yul\":37882:37883   */\n      0x01\n        /* \"#utility.yul\":37877:38495   */\n      dup2\n      eq\n      tag_655\n      jumpi\n        /* \"#utility.yul\":38539:38540   */\n      0x00\n        /* \"#utility.yul\":38556:38562   */\n      dup5\n        /* \"#utility.yul\":38553:38630   */\n      iszero\n      tag_656\n      jumpi\n        /* \"#utility.yul\":38605:38614   */\n      dup3\n        /* \"#utility.yul\":38600:38603   */\n      dup8\n        /* \"#utility.yul\":38596:38615   */\n      add\n        /* \"#utility.yul\":38590:38616   */\n      mload\n        /* \"#utility.yul\":38581:38616   */\n      swap1\n      pop\n        /* \"#utility.yul\":38553:38630   */\n    tag_656:\n        /* \"#utility.yul\":38656:38723   */\n      tag_657\n        /* \"#utility.yul\":38716:38722   */\n      dup6\n        /* \"#utility.yul\":38709:38714   */\n      dup3\n        /* \"#utility.yul\":38656:38723   */\n      tag_332\n      jump\t// in\n    tag_657:\n        /* \"#utility.yul\":38650:38654   */\n      dup7\n        /* \"#utility.yul\":38643:38724   */\n      sstore\n        /* \"#utility.yul\":38512:38734   */\n      pop\n        /* \"#utility.yul\":37847:38734   */\n      jump(tag_654)\n        /* \"#utility.yul\":37877:38495   */\n    tag_655:\n        /* \"#utility.yul\":37929:37933   */\n      0x1f\n        /* \"#utility.yul\":37925:37934   */\n      not\n        /* \"#utility.yul\":37917:37923   */\n      dup5\n        /* \"#utility.yul\":37913:37935   */\n      and\n        /* \"#utility.yul\":37963:38000   */\n      tag_658\n        /* \"#utility.yul\":37995:37999   */\n      dup7\n        /* \"#utility.yul\":37963:38000   */\n      tag_319\n      jump\t// in\n    tag_658:\n        /* \"#utility.yul\":38022:38023   */\n      0x00\n        /* \"#utility.yul\":38036:38244   */\n    tag_659:\n        /* \"#utility.yul\":38050:38057   */\n      dup3\n        /* \"#utility.yul\":38047:38048   */\n      dup2\n        /* \"#utility.yul\":38044:38058   */\n      lt\n        /* \"#utility.yul\":38036:38244   */\n      iszero\n      tag_661\n      jumpi\n        /* \"#utility.yul\":38129:38138   */\n      dup5\n        /* \"#utility.yul\":38124:38127   */\n      dup10\n        /* \"#utility.yul\":38120:38139   */\n      add\n        /* \"#utility.yul\":38114:38140   */\n      mload\n        /* \"#utility.yul\":38106:38112   */\n      dup3\n        /* \"#utility.yul\":38099:38141   */\n      sstore\n        /* \"#utility.yul\":38180:38181   */\n      0x01\n        /* \"#utility.yul\":38172:38178   */\n      dup3\n        /* \"#utility.yul\":38168:38182   */\n      add\n        /* \"#utility.yul\":38158:38182   */\n      swap2\n      pop\n        /* \"#utility.yul\":38227:38229   */\n      0x20\n        /* \"#utility.yul\":38216:38225   */\n      dup6\n        /* \"#utility.yul\":38212:38230   */\n      add\n        /* \"#utility.yul\":38199:38230   */\n      swap5\n      pop\n        /* \"#utility.yul\":38073:38077   */\n      0x20\n        /* \"#utility.yul\":38070:38071   */\n      dup2\n        /* \"#utility.yul\":38066:38078   */\n      add\n        /* \"#utility.yul\":38061:38078   */\n      swap1\n      pop\n        /* \"#utility.yul\":38036:38244   */\n      jump(tag_659)\n    tag_661:\n        /* \"#utility.yul\":38272:38278   */\n      dup7\n        /* \"#utility.yul\":38263:38270   */\n      dup4\n        /* \"#utility.yul\":38260:38279   */\n      lt\n        /* \"#utility.yul\":38257:38436   */\n      iszero\n      tag_662\n      jumpi\n        /* \"#utility.yul\":38330:38339   */\n      dup5\n        /* \"#utility.yul\":38325:38328   */\n      dup10\n        /* \"#utility.yul\":38321:38340   */\n      add\n        /* \"#utility.yul\":38315:38341   */\n      mload\n        /* \"#utility.yul\":38373:38421   */\n      tag_663\n        /* \"#utility.yul\":38415:38419   */\n      0x1f\n        /* \"#utility.yul\":38407:38413   */\n      dup10\n        /* \"#utility.yul\":38403:38420   */\n      and\n        /* \"#utility.yul\":38392:38401   */\n      dup3\n        /* \"#utility.yul\":38373:38421   */\n      tag_331\n      jump\t// in\n    tag_663:\n        /* \"#utility.yul\":38365:38371   */\n      dup4\n        /* \"#utility.yul\":38358:38422   */\n      sstore\n        /* \"#utility.yul\":38280:38436   */\n      pop\n        /* \"#utility.yul\":38257:38436   */\n    tag_662:\n        /* \"#utility.yul\":38482:38483   */\n      0x01\n        /* \"#utility.yul\":38478:38479   */\n      0x02\n        /* \"#utility.yul\":38470:38476   */\n      dup9\n        /* \"#utility.yul\":38466:38480   */\n      mul\n        /* \"#utility.yul\":38462:38484   */\n      add\n        /* \"#utility.yul\":38456:38460   */\n      dup9\n        /* \"#utility.yul\":38449:38485   */\n      sstore\n        /* \"#utility.yul\":37884:38495   */\n      pop\n      pop\n      pop\n        /* \"#utility.yul\":37847:38734   */\n    tag_654:\n      pop\n        /* \"#utility.yul\":37437:38740   */\n      pop\n      pop\n      pop\n        /* \"#utility.yul\":37345:38740   */\n      pop\n      pop\n      jump\t// out\n\n    auxdata: 0xa2646970667358221220051a34e5b4dc645b5a2cccd56298426e2d00c5977a47cfad060b8bb1d5593d4964736f6c634300081f0033\n}\n",
				"bytecode": {
					"linkReferences": {},
					"object": "608060405234801561000f575f5ffd5b506040516128df3803806128df8339818101604052810190610031919061018c565b8260015f6101000a81548173ffffffffffffffffffffffffffffffffffffffff021916908373ffffffffffffffffffffffffffffffffffffffff1602179055508160025f6101000a81548173ffffffffffffffffffffffffffffffffffffffff021916908373ffffffffffffffffffffffffffffffffffffffff160217905550806003819055505050506101dc565b5f5ffd5b5f73ffffffffffffffffffffffffffffffffffffffff82169050919050565b5f6100ed826100c4565b9050919050565b6100fd816100e3565b8114610107575f5ffd5b50565b5f81519050610118816100f4565b92915050565b5f610128826100c4565b9050919050565b6101388161011e565b8114610142575f5ffd5b50565b5f815190506101538161012f565b92915050565b5f819050919050565b61016b81610159565b8114610175575f5ffd5b50565b5f8151905061018681610162565b92915050565b5f5f5f606084860312156101a3576101a26100c0565b5b5f6101b08682870161010a565b93505060206101c186828701610145565b92505060406101d286828701610178565b9150509250925092565b6126f6806101e95f395ff3fe6080604052600436106100dc575f3560e01c80639f3497891161007e578063c40cf4eb11610058578063c40cf4eb146102a4578063ca5140c9146102ce578063ddd5987f146102f6578063ef2ede051461031e576100dc565b80639f34978914610216578063a1ef357714610240578063a9d00e661461027c576100dc565b8063513073b8116100ba578063513073b814610150578063687440461461018c5780637e490a9e146101d057806385d04bae146101ec576100dc565b80631792a6da146100e0578063189a55e71461010a578063418b79ab14610114575b5f5ffd5b3480156100eb575f5ffd5b506100f4610348565b604051610101919061150d565b60405180910390f35b61011261036d565b005b34801561011f575f5ffd5b5061013a6004803603810190610135919061156a565b61036f565b60405161014791906116fe565b60405180910390f35b34801561015b575f5ffd5b506101766004803603810190610171919061156a565b6105f6565b604051610183919061172d565b60405180910390f35b348015610197575f5ffd5b506101b260048036038101906101ad919061156a565b610616565b6040516101c79998979695949392919061179d565b60405180910390f35b6101ea60048036038101906101e5919061156a565b6107fe565b005b3480156101f7575f5ffd5b50610200610bd9565b60405161020d919061172d565b60405180910390f35b348015610221575f5ffd5b5061022a610bdf565b60405161023791906119c8565b60405180910390f35b34801561024b575f5ffd5b50610266600480360381019061026191906119e8565b610eb6565b6040516102739190611a46565b60405180910390f35b348015610287575f5ffd5b506102a2600480360381019061029d9190611b8b565b610efe565b005b3480156102af575f5ffd5b506102b8611305565b6040516102c59190611cc3565b60405180910390f35b3480156102d9575f5ffd5b506102f460048036038101906102ef919061156a565b61132a565b005b348015610301575f5ffd5b5061031c600480360381019061031791906119e8565b61132d565b005b348015610329575f5ffd5b50610332611481565b60405161033f919061172d565b60405180910390f35b60025f9054906101000a900473ffffffffffffffffffffffffffffffffffffffff1681565b565b610377611486565b60055f8381526020019081526020015f206007015f9054906101000a900460ff166103d7576040517f08c379a00000000000000000000000000000000000000000000000000000000081526004016103ce90611d26565b60405180910390fd5b60055f8381526020019081526020015f20604051806101200160405290815f820154815260200160018201805461040d90611d71565b80601f016020809104026020016040519081016040528092919081815260200182805461043990611d71565b80156104845780601f1061045b57610100808354040283529160200191610484565b820191905f5260205f20905b81548152906001019060200180831161046757829003601f168201915b5050505050815260200160028201805461049d90611d71565b80601f01602080910402602001604051908101604052809291908181526020018280546104c990611d71565b80156105145780601f106104eb57610100808354040283529160200191610514565b820191905f5260205f20905b8154815290600101906020018083116104f757829003601f168201915b5050505050815260200160038201805461052d90611d71565b80601f016020809104026020016040519081016040528092919081815260200182805461055990611d71565b80156105a45780601f1061057b576101008083540402835291602001916105a4565b820191905f5260205f20905b81548152906001019060200180831161058757829003601f168201915b50505050508152602001600482015481526020016005820154815260200160068201548152602001600782015f9054906101000a900460ff161515151581526020016008820154815250509050919050565b60048181548110610605575f80fd5b905f5260205f20015f915090505481565b6005602052805f5260405f205f91509050805f01549080600101805461063b90611d71565b80601f016020809104026020016040519081016040528092919081815260200182805461066790611d71565b80156106b25780601f10610689576101008083540402835291602001916106b2565b820191905f5260205f20905b81548152906001019060200180831161069557829003601f168201915b5050505050908060020180546106c790611d71565b80601f01602080910402602001604051908101604052809291908181526020018280546106f390611d71565b801561073e5780601f106107155761010080835404028352916020019161073e565b820191905f5260205f20905b81548152906001019060200180831161072157829003601f168201915b50505050509080600301805461075390611d71565b80601f016020809104026020016040519081016040528092919081815260200182805461077f90611d71565b80156107ca5780601f106107a1576101008083540402835291602001916107ca565b820191905f5260205f20905b8154815290600101906020018083116107ad57829003601f168201915b505050505090806004015490806005015490806006015490806007015f9054906101000a900460ff16908060080154905089565b60055f8281526020019081526020015f206007015f9054906101000a900460ff1661085e576040517f08c379a000000000000000000000000000000000000000000000000000000000815260040161085590611deb565b60405180910390fd5b5f60055f8381526020019081526020015f2060040154116108b4576040517f08c379a00000000000000000000000000000000000000000000000000000000081526004016108ab90611e53565b60405180910390fd5b5f60055f8381526020019081526020015f2090505f60015f9054906101000a900473ffffffffffffffffffffffffffffffffffffffff1673ffffffffffffffffffffffffffffffffffffffff1663506b27f0336040518263ffffffff1660e01b81526004016109239190611a46565b602060405180830381865afa15801561093e573d5f5f3e3d5ffd5b505050506040513d601f19601f820116820180604052508101906109629190611e9b565b90505f8161097257600354610978565b82600601545b9050803410156109bd576040517f08c379a00000000000000000000000000000000000000000000000000000000081526004016109b490611f10565b60405180910390fd5b60075f8581526020019081526020015f2033908060018154018082558091505060019003905f5260205f20015f9091909190916101000a81548173ffffffffffffffffffffffffffffffffffffffff021916908373ffffffffffffffffffffffffffffffffffffffff1602179055506001836004015f828254610a409190611f5b565b925050819055505f60025f9054906101000a900473ffffffffffffffffffffffffffffffffffffffff1673ffffffffffffffffffffffffffffffffffffffff1682604051610a8d90611fbb565b5f6040518083038185875af1925050503d805f8114610ac7576040519150601f19603f3d011682016040523d82523d5f602084013e610acc565b606091505b5050905080610b10576040517f08c379a0000000000000000000000000000000000000000000000000000000008152600401610b0790612019565b60405180910390fd5b5f8234610b1d9190611f5b565b90505f811115610bd1575f3373ffffffffffffffffffffffffffffffffffffffff1682604051610b4c90611fbb565b5f6040518083038185875af1925050503d805f8114610b86576040519150601f19603f3d011682016040523d82523d5f602084013e610b8b565b606091505b5050905080610bcf576040517f08c379a0000000000000000000000000000000000000000000000000000000008152600401610bc690612081565b60405180910390fd5b505b505050505050565b60035481565b60605f60048054905067ffffffffffffffff811115610c0157610c00611a67565b5b604051908082528060200260200182016040528015610c3a57816020015b610c27611486565b815260200190600190039081610c1f5790505b5090505f5f90505b600480549050811015610eae5760055f60048381548110610c6657610c6561209f565b5b905f5260205f20015481526020019081526020015f20604051806101200160405290815f8201548152602001600182018054610ca190611d71565b80601f0160208091040260200160405190810160405280929190818152602001828054610ccd90611d71565b8015610d185780601f10610cef57610100808354040283529160200191610d18565b820191905f5260205f20905b815481529060010190602001808311610cfb57829003601f168201915b50505050508152602001600282018054610d3190611d71565b80601f0160208091040260200160405190810160405280929190818152602001828054610d5d90611d71565b8015610da85780601f10610d7f57610100808354040283529160200191610da8565b820191905f5260205f20905b815481529060010190602001808311610d8b57829003601f168201915b50505050508152602001600382018054610dc190611d71565b80601f0160208091040260200160405190810160405280929190818152602001828054610ded90611d71565b8015610e385780601f10610e0f57610100808354040283529160200191610e38565b820191905f5260205f20905b815481529060010190602001808311610e1b57829003601f168201915b50505050508152602001600482015481526020016005820154815260200160068201548152602001600782015f9054906101000a900460ff16151515158152602001600882015481525050828281518110610e9657610e9561209f565b5b60200260200101819052508080600101915050610c42565b508091505090565b6007602052815f5260405f208181548110610ecf575f80fd5b905f5260205f20015f915091509054906101000a900473ffffffffffffffffffffffffffffffffffffffff1681565b60025f9054906101000a900473ffffffffffffffffffffffffffffffffffffffff1673ffffffffffffffffffffffffffffffffffffffff163373ffffffffffffffffffffffffffffffffffffffff1614610f8d576040517f08c379a0000000000000000000000000000000000000000000000000000000008152600401610f8490612116565b60405180910390fd5b5f865111610fd0576040517f08c379a0000000000000000000000000000000000000000000000000000000008152600401610fc79061217e565b60405180910390fd5b5f855111611013576040517f08c379a000000000000000000000000000000000000000000000000000000000815260040161100a906121e6565b60405180910390fd5b5f845111611056576040517f08c379a000000000000000000000000000000000000000000000000000000000815260040161104d9061224e565b60405180910390fd5b5f8311611098576040517f08c379a000000000000000000000000000000000000000000000000000000000815260040161108f906122b6565b60405180910390fd5b5f82116110da576040517f08c379a00000000000000000000000000000000000000000000000000000000081526004016110d19061231e565b60405180910390fd5b5f811161111c576040517f08c379a00000000000000000000000000000000000000000000000000000000081526004016111139061231e565b60405180910390fd5b5f8686604051602001611130929190612376565b60405160208183030381529060405280519060200120905060065f8281526020019081526020015f205f9054906101000a900460ff16156111a6576040517f08c379a000000000000000000000000000000000000000000000000000000000815260040161119d90612409565b60405180910390fd5b600160065f8381526020019081526020015f205f6101000a81548160ff02191690831515021790555060015f5f8282546111e09190612427565b925050819055505f5f5490506040518061012001604052808281526020018981526020018881526020018781526020018681526020018581526020018481526020016001151581526020014281525060055f8381526020019081526020015f205f820151815f0155602082015181600101908161125d91906125f1565b50604082015181600201908161127391906125f1565b50606082015181600301908161128991906125f1565b506080820151816004015560a0820151816005015560c0820151816006015560e0820151816007015f6101000a81548160ff0219169083151502179055506101008201518160080155905050600481908060018154018082558091505060019003905f5260205f20015f90919091909150555050505050505050565b60015f9054906101000a900473ffffffffffffffffffffffffffffffffffffffff1681565b50565b60025f9054906101000a900473ffffffffffffffffffffffffffffffffffffffff1673ffffffffffffffffffffffffffffffffffffffff163373ffffffffffffffffffffffffffffffffffffffff16146113bc576040517f08c379a00000000000000000000000000000000000000000000000000000000081526004016113b390612116565b60405180910390fd5b5f81116113fe576040517f08c379a00000000000000000000000000000000000000000000000000000000081526004016113f5906122b6565b60405180910390fd5b5f60055f8481526020019081526020015f209050806007015f9054906101000a900460ff16611462576040517f08c379a000000000000000000000000000000000000000000000000000000000815260040161145990611d26565b60405180910390fd5b81816004015f8282546114759190612427565b92505081905550505050565b5f5481565b6040518061012001604052805f81526020016060815260200160608152602001606081526020015f81526020015f81526020015f81526020015f151581526020015f81525090565b5f73ffffffffffffffffffffffffffffffffffffffff82169050919050565b5f6114f7826114ce565b9050919050565b611507816114ed565b82525050565b5f6020820190506115205f8301846114fe565b92915050565b5f604051905090565b5f5ffd5b5f5ffd5b5f819050919050565b61154981611537565b8114611553575f5ffd5b50565b5f8135905061156481611540565b92915050565b5f6020828403121561157f5761157e61152f565b5b5f61158c84828501611556565b91505092915050565b61159e81611537565b82525050565b5f81519050919050565b5f82825260208201905092915050565b8281835e5f83830152505050565b5f601f19601f8301169050919050565b5f6115e6826115a4565b6115f081856115ae565b93506116008185602086016115be565b611609816115cc565b840191505092915050565b5f8115159050919050565b61162881611614565b82525050565b5f61012083015f8301516116445f860182611595565b506020830151848203602086015261165c82826115dc565b9150506040830151848203604086015261167682826115dc565b9150506060830151848203606086015261169082826115dc565b91505060808301516116a56080860182611595565b5060a08301516116b860a0860182611595565b5060c08301516116cb60c0860182611595565b5060e08301516116de60e086018261161f565b506101008301516116f3610100860182611595565b508091505092915050565b5f6020820190508181035f830152611716818461162e565b905092915050565b61172781611537565b82525050565b5f6020820190506117405f83018461171e565b92915050565b5f82825260208201905092915050565b5f611760826115a4565b61176a8185611746565b935061177a8185602086016115be565b611783816115cc565b840191505092915050565b61179781611614565b82525050565b5f610120820190506117b15f83018c61171e565b81810360208301526117c3818b611756565b905081810360408301526117d7818a611756565b905081810360608301526117eb8189611756565b90506117fa608083018861171e565b61180760a083018761171e565b61181460c083018661171e565b61182160e083018561178e565b61182f61010083018461171e565b9a9950505050505050505050565b5f81519050919050565b5f82825260208201905092915050565b5f819050602082019050919050565b5f61012083015f83015161187c5f860182611595565b506020830151848203602086015261189482826115dc565b915050604083015184820360408601526118ae82826115dc565b915050606083015184820360608601526118c882826115dc565b91505060808301516118dd6080860182611595565b5060a08301516118f060a0860182611595565b5060c083015161190360c0860182611595565b5060e083015161191660e086018261161f565b5061010083015161192b610100860182611595565b508091505092915050565b5f6119418383611866565b905092915050565b5f602082019050919050565b5f61195f8261183d565b6119698185611847565b93508360208202850161197b85611857565b805f5b858110156119b657848403895281516119978582611936565b94506119a283611949565b925060208a0199505060018101905061197e565b50829750879550505050505092915050565b5f6020820190508181035f8301526119e08184611955565b905092915050565b5f5f604083850312156119fe576119fd61152f565b5b5f611a0b85828601611556565b9250506020611a1c85828601611556565b9150509250929050565b5f611a30826114ce565b9050919050565b611a4081611a26565b82525050565b5f602082019050611a595f830184611a37565b92915050565b5f5ffd5b5f5ffd5b7f4e487b71000000000000000000000000000000000000000000000000000000005f52604160045260245ffd5b611a9d826115cc565b810181811067ffffffffffffffff82111715611abc57611abb611a67565b5b80604052505050565b5f611ace611526565b9050611ada8282611a94565b919050565b5f67ffffffffffffffff821115611af957611af8611a67565b5b611b02826115cc565b9050602081019050919050565b828183375f83830152505050565b5f611b2f611b2a84611adf565b611ac5565b905082815260208101848484011115611b4b57611b4a611a63565b5b611b56848285611b0f565b509392505050565b5f82601f830112611b7257611b71611a5f565b5b8135611b82848260208601611b1d565b91505092915050565b5f5f5f5f5f5f60c08789031215611ba557611ba461152f565b5b5f87013567ffffffffffffffff811115611bc257611bc1611533565b5b611bce89828a01611b5e565b965050602087013567ffffffffffffffff811115611bef57611bee611533565b5b611bfb89828a01611b5e565b955050604087013567ffffffffffffffff811115611c1c57611c1b611533565b5b611c2889828a01611b5e565b9450506060611c3989828a01611556565b9350506080611c4a89828a01611556565b92505060a0611c5b89828a01611556565b9150509295509295509295565b5f819050919050565b5f611c8b611c86611c81846114ce565b611c68565b6114ce565b9050919050565b5f611c9c82611c71565b9050919050565b5f611cad82611c92565b9050919050565b611cbd81611ca3565b82525050565b5f602082019050611cd65f830184611cb4565b92915050565b7f426f6f6b206e6f7420666f756e640000000000000000000000000000000000005f82015250565b5f611d10600e83611746565b9150611d1b82611cdc565b602082019050919050565b5f6020820190508181035f830152611d3d81611d04565b9050919050565b7f4e487b71000000000000000000000000000000000000000000000000000000005f52602260045260245ffd5b5f6002820490506001821680611d8857607f821691505b602082108103611d9b57611d9a611d44565b5b50919050565b7f426f6f6b206e6f7420666f756e642100000000000000000000000000000000005f82015250565b5f611dd5600f83611746565b9150611de082611da1565b602082019050919050565b5f6020820190508181035f830152611e0281611dc9565b9050919050565b7f426f6f6b206e6f7420617661696c61626c6521000000000000000000000000005f82015250565b5f611e3d601383611746565b9150611e4882611e09565b602082019050919050565b5f6020820190508181035f830152611e6a81611e31565b9050919050565b611e7a81611614565b8114611e84575f5ffd5b50565b5f81519050611e9581611e71565b92915050565b5f60208284031215611eb057611eaf61152f565b5b5f611ebd84828501611e87565b91505092915050565b7f4e6f7420656e6f756768204554482073656e74000000000000000000000000005f82015250565b5f611efa601383611746565b9150611f0582611ec6565b602082019050919050565b5f6020820190508181035f830152611f2781611eee565b9050919050565b7f4e487b71000000000000000000000000000000000000000000000000000000005f52601160045260245ffd5b5f611f6582611537565b9150611f7083611537565b9250828203905081811115611f8857611f87611f2e565b5b92915050565b5f81905092915050565b50565b5f611fa65f83611f8e565b9150611fb182611f98565b5f82019050919050565b5f611fc582611f9b565b9150819050919050565b7f4661696c656420746f2073656e642045544820746f206c6962726172790000005f82015250565b5f612003601d83611746565b915061200e82611fcf565b602082019050919050565b5f6020820190508181035f83015261203081611ff7565b9050919050565b7f4661696c656420746f20726566756e64206578636573732045544800000000005f82015250565b5f61206b601b83611746565b915061207682612037565b602082019050919050565b5f6020820190508181035f8301526120988161205f565b9050919050565b7f4e487b71000000000000000000000000000000000000000000000000000000005f52603260045260245ffd5b7f4e6f74206c6962726172792061646d696e0000000000000000000000000000005f82015250565b5f612100601183611746565b915061210b826120cc565b602082019050919050565b5f6020820190508181035f83015261212d816120f4565b9050919050565b7f5469746c652063616e6e6f7420626520656d70747921000000000000000000005f82015250565b5f612168601683611746565b915061217382612134565b602082019050919050565b5f6020820190508181035f8301526121958161215c565b9050919050565b7f417574686f722063616e6e6f7420626520656d707479210000000000000000005f82015250565b5f6121d0601783611746565b91506121db8261219c565b602082019050919050565b5f6020820190508181035f8301526121fd816121c4565b9050919050565b7f47656e72652063616e6e6f7420626520656d70747921000000000000000000005f82015250565b5f612238601683611746565b915061224382612204565b602082019050919050565b5f6020820190508181035f8301526122658161222c565b9050919050565b7f5175616e74697479206d7573742062652067726561746572207468616e2030005f82015250565b5f6122a0601f83611746565b91506122ab8261226c565b602082019050919050565b5f6020820190508181035f8301526122cd81612294565b9050919050565b7f5072696365206d7573742062652067726561746572207468616e2030000000005f82015250565b5f612308601c83611746565b9150612313826122d4565b602082019050919050565b5f6020820190508181035f830152612335816122fc565b9050919050565b5f81905092915050565b5f612350826115a4565b61235a818561233c565b935061236a8185602086016115be565b80840191505092915050565b5f6123818285612346565b915061238d8284612346565b91508190509392505050565b7f5468697320626f6f6b206279207468697320617574686f7220616c72656164795f8201527f2065786973747321000000000000000000000000000000000000000000000000602082015250565b5f6123f3602883611746565b91506123fe82612399565b604082019050919050565b5f6020820190508181035f830152612420816123e7565b9050919050565b5f61243182611537565b915061243c83611537565b925082820190508082111561245457612453611f2e565b5b92915050565b5f819050815f5260205f209050919050565b5f6020601f8301049050919050565b5f82821b905092915050565b5f600883026124b67fffffffffffffffffffffffffffffffffffffffffffffffffffffffffffffffff8261247b565b6124c0868361247b565b95508019841693508086168417925050509392505050565b5f6124f26124ed6124e884611537565b611c68565b611537565b9050919050565b5f819050919050565b61250b836124d8565b61251f612517826124f9565b848454612487565b825550505050565b5f5f905090565b612536612527565b612541818484612502565b505050565b5b81811015612564576125595f8261252e565b600181019050612547565b5050565b601f8211156125a95761257a8161245a565b6125838461246c565b81016020851015612592578190505b6125a661259e8561246c565b830182612546565b50505b505050565b5f82821c905092915050565b5f6125c95f19846008026125ae565b1980831691505092915050565b5f6125e183836125ba565b9150826002028217905092915050565b6125fa826115a4565b67ffffffffffffffff81111561261357612612611a67565b5b61261d8254611d71565b612628828285612568565b5f60209050601f831160018114612659575f8415612647578287015190505b61265185826125d6565b8655506126b8565b601f1984166126678661245a565b5f5b8281101561268e57848901518255600182019150602085019450602081019050612669565b868310156126ab57848901516126a7601f8916826125ba565b8355505b6001600288020188555050505b50505050505056fea2646970667358221220051a34e5b4dc645b5a2cccd56298426e2d00c5977a47cfad060b8bb1d5593d4964736f6c634300081f0033",
					"opcodes": "PUSH1 0x80 PUSH1 0x40 MSTORE CALLVALUE DUP1 ISZERO PUSH2 0xF JUMPI PUSH0 PUSH0 REVERT JUMPDEST POP PUSH1 0x40 MLOAD PUSH2 0x28DF CODESIZE SUB DUP1 PUSH2 0x28DF DUP4 CODECOPY DUP2 DUP2 ADD PUSH1 0x40 MSTORE DUP2 ADD SWAP1 PUSH2 0x31 SWAP2 SWAP1 PUSH2 0x18C JUMP JUMPDEST DUP3 PUSH1 0x1 PUSH0 PUSH2 0x100 EXP DUP2 SLOAD DUP2 PUSH20 0xFFFFFFFFFFFFFFFFFFFFFFFFFFFFFFFFFFFFFFFF MUL NOT AND SWAP1 DUP4 PUSH20 0xFFFFFFFFFFFFFFFFFFFFFFFFFFFFFFFFFFFFFFFF AND MUL OR SWAP1 SSTORE POP DUP2 PUSH1 0x2 PUSH0 PUSH2 0x100 EXP DUP2 SLOAD DUP2 PUSH20 0xFFFFFFFFFFFFFFFFFFFFFFFFFFFFFFFFFFFFFFFF MUL NOT AND SWAP1 DUP4 PUSH20 0xFFFFFFFFFFFFFFFFFFFFFFFFFFFFFFFFFFFFFFFF AND MUL OR SWAP1 SSTORE POP DUP1 PUSH1 0x3 DUP2 SWAP1 SSTORE POP POP POP POP PUSH2 0x1DC JUMP JUMPDEST PUSH0 PUSH0 REVERT JUMPDEST PUSH0 PUSH20 0xFFFFFFFFFFFFFFFFFFFFFFFFFFFFFFFFFFFFFFFF DUP3 AND SWAP1 POP SWAP2 SWAP1 POP JUMP JUMPDEST PUSH0 PUSH2 0xED DUP3 PUSH2 0xC4 JUMP JUMPDEST SWAP1 POP SWAP2 SWAP1 POP JUMP JUMPDEST PUSH2 0xFD DUP2 PUSH2 0xE3 JUMP JUMPDEST DUP2 EQ PUSH2 0x107 JUMPI PUSH0 PUSH0 REVERT JUMPDEST POP JUMP JUMPDEST PUSH0 DUP2 MLOAD SWAP1 POP PUSH2 0x118 DUP2 PUSH2 0xF4 JUMP JUMPDEST SWAP3 SWAP2 POP POP JUMP JUMPDEST PUSH0 PUSH2 0x128 DUP3 PUSH2 0xC4 JUMP JUMPDEST SWAP1 POP SWAP2 SWAP1 POP JUMP JUMPDEST PUSH2 0x138 DUP2 PUSH2 0x11E JUMP JUMPDEST DUP2 EQ PUSH2 0x142 JUMPI PUSH0 PUSH0 REVERT JUMPDEST POP JUMP JUMPDEST PUSH0 DUP2 MLOAD SWAP1 POP PUSH2 0x153 DUP2 PUSH2 0x12F JUMP JUMPDEST SWAP3 SWAP2 POP POP JUMP JUMPDEST PUSH0 DUP2 SWAP1 POP SWAP2 SWAP1 POP JUMP JUMPDEST PUSH2 0x16B DUP2 PUSH2 0x159 JUMP JUMPDEST DUP2 EQ PUSH2 0x175 JUMPI PUSH0 PUSH0 REVERT JUMPDEST POP JUMP JUMPDEST PUSH0 DUP2 MLOAD SWAP1 POP PUSH2 0x186 DUP2 PUSH2 0x162 JUMP JUMPDEST SWAP3 SWAP2 POP POP JUMP JUMPDEST PUSH0 PUSH0 PUSH0 PUSH1 0x60 DUP5 DUP7 SUB SLT ISZERO PUSH2 0x1A3 JUMPI PUSH2 0x1A2 PUSH2 0xC0 JUMP JUMPDEST JUMPDEST PUSH0 PUSH2 0x1B0 DUP7 DUP3 DUP8 ADD PUSH2 0x10A JUMP JUMPDEST SWAP4 POP POP PUSH1 0x20 PUSH2 0x1C1 DUP7 DUP3 DUP8 ADD PUSH2 0x145 JUMP JUMPDEST SWAP3 POP POP PUSH1 0x40 PUSH2 0x1D2 DUP7 DUP3 DUP8 ADD PUSH2 0x178 JUMP JUMPDEST SWAP2 POP POP SWAP3 POP SWAP3 POP SWAP3 JUMP JUMPDEST PUSH2 0x26F6 DUP1 PUSH2 0x1E9 PUSH0 CODECOPY PUSH0 RETURN INVALID PUSH1 0x80 PUSH1 0x40 MSTORE PUSH1 0x4 CALLDATASIZE LT PUSH2 0xDC JUMPI PUSH0 CALLDATALOAD PUSH1 0xE0 SHR DUP1 PUSH4 0x9F349789 GT PUSH2 0x7E JUMPI DUP1 PUSH4 0xC40CF4EB GT PUSH2 0x58 JUMPI DUP1 PUSH4 0xC40CF4EB EQ PUSH2 0x2A4 JUMPI DUP1 PUSH4 0xCA5140C9 EQ PUSH2 0x2CE JUMPI DUP1 PUSH4 0xDDD5987F EQ PUSH2 0x2F6 JUMPI DUP1 PUSH4 0xEF2EDE05 EQ PUSH2 0x31E JUMPI PUSH2 0xDC JUMP JUMPDEST DUP1 PUSH4 0x9F349789 EQ PUSH2 0x216 JUMPI DUP1 PUSH4 0xA1EF3577 EQ PUSH2 0x240 JUMPI DUP1 PUSH4 0xA9D00E66 EQ PUSH2 0x27C JUMPI PUSH2 0xDC JUMP JUMPDEST DUP1 PUSH4 0x513073B8 GT PUSH2 0xBA JUMPI DUP1 PUSH4 0x513073B8 EQ PUSH2 0x150 JUMPI DUP1 PUSH4 0x68744046 EQ PUSH2 0x18C JUMPI DUP1 PUSH4 0x7E490A9E EQ PUSH2 0x1D0 JUMPI DUP1 PUSH4 0x85D04BAE EQ PUSH2 0x1EC JUMPI PUSH2 0xDC JUMP JUMPDEST DUP1 PUSH4 0x1792A6DA EQ PUSH2 0xE0 JUMPI DUP1 PUSH4 0x189A55E7 EQ PUSH2 0x10A JUMPI DUP1 PUSH4 0x418B79AB EQ PUSH2 0x114 JUMPI JUMPDEST PUSH0 PUSH0 REVERT JUMPDEST CALLVALUE DUP1 ISZERO PUSH2 0xEB JUMPI PUSH0 PUSH0 REVERT JUMPDEST POP PUSH2 0xF4 PUSH2 0x348 JUMP JUMPDEST PUSH1 0x40 MLOAD PUSH2 0x101 SWAP2 SWAP1 PUSH2 0x150D JUMP JUMPDEST PUSH1 0x40 MLOAD DUP1 SWAP2 SUB SWAP1 RETURN JUMPDEST PUSH2 0x112 PUSH2 0x36D JUMP JUMPDEST STOP JUMPDEST CALLVALUE DUP1 ISZERO PUSH2 0x11F JUMPI PUSH0 PUSH0 REVERT JUMPDEST POP PUSH2 0x13A PUSH1 0x4 DUP1 CALLDATASIZE SUB DUP2 ADD SWAP1 PUSH2 0x135 SWAP2 SWAP1 PUSH2 0x156A JUMP JUMPDEST PUSH2 0x36F JUMP JUMPDEST PUSH1 0x40 MLOAD PUSH2 0x147 SWAP2 SWAP1 PUSH2 0x16FE JUMP JUMPDEST PUSH1 0x40 MLOAD DUP1 SWAP2 SUB SWAP1 RETURN JUMPDEST CALLVALUE DUP1 ISZERO PUSH2 0x15B JUMPI PUSH0 PUSH0 REVERT JUMPDEST POP PUSH2 0x176 PUSH1 0x4 DUP1 CALLDATASIZE SUB DUP2 ADD SWAP1 PUSH2 0x171 SWAP2 SWAP1 PUSH2 0x156A JUMP JUMPDEST PUSH2 0x5F6 JUMP JUMPDEST PUSH1 0x40 MLOAD PUSH2 0x183 SWAP2 SWAP1 PUSH2 0x172D JUMP JUMPDEST PUSH1 0x40 MLOAD DUP1 SWAP2 SUB SWAP1 RETURN JUMPDEST CALLVALUE DUP1 ISZERO PUSH2 0x197 JUMPI PUSH0 PUSH0 REVERT JUMPDEST POP PUSH2 0x1B2 PUSH1 0x4 DUP1 CALLDATASIZE SUB DUP2 ADD SWAP1 PUSH2 0x1AD SWAP2 SWAP1 PUSH2 0x156A JUMP JUMPDEST PUSH2 0x616 JUMP JUMPDEST PUSH1 0x40 MLOAD PUSH2 0x1C7 SWAP10 SWAP9 SWAP8 SWAP7 SWAP6 SWAP5 SWAP4 SWAP3 SWAP2 SWAP1 PUSH2 0x179D JUMP JUMPDEST PUSH1 0x40 MLOAD DUP1 SWAP2 SUB SWAP1 RETURN JUMPDEST PUSH2 0x1EA PUSH1 0x4 DUP1 CALLDATASIZE SUB DUP2 ADD SWAP1 PUSH2 0x1E5 SWAP2 SWAP1 PUSH2 0x156A JUMP JUMPDEST PUSH2 0x7FE JUMP JUMPDEST STOP JUMPDEST CALLVALUE DUP1 ISZERO PUSH2 0x1F7 JUMPI PUSH0 PUSH0 REVERT JUMPDEST POP PUSH2 0x200 PUSH2 0xBD9 JUMP JUMPDEST PUSH1 0x40 MLOAD PUSH2 0x20D SWAP2 SWAP1 PUSH2 0x172D JUMP JUMPDEST PUSH1 0x40 MLOAD DUP1 SWAP2 SUB SWAP1 RETURN JUMPDEST CALLVALUE DUP1 ISZERO PUSH2 0x221 JUMPI PUSH0 PUSH0 REVERT JUMPDEST POP PUSH2 0x22A PUSH2 0xBDF JUMP JUMPDEST PUSH1 0x40 MLOAD PUSH2 0x237 SWAP2 SWAP1 PUSH2 0x19C8 JUMP JUMPDEST PUSH1 0x40 MLOAD DUP1 SWAP2 SUB SWAP1 RETURN JUMPDEST CALLVALUE DUP1 ISZERO PUSH2 0x24B JUMPI PUSH0 PUSH0 REVERT JUMPDEST POP PUSH2 0x266 PUSH1 0x4 DUP1 CALLDATASIZE SUB DUP2 ADD SWAP1 PUSH2 0x261 SWAP2 SWAP1 PUSH2 0x19E8 JUMP JUMPDEST PUSH2 0xEB6 JUMP JUMPDEST PUSH1 0x40 MLOAD PUSH2 0x273 SWAP2 SWAP1 PUSH2 0x1A46 JUMP JUMPDEST PUSH1 0x40 MLOAD DUP1 SWAP2 SUB SWAP1 RETURN JUMPDEST CALLVALUE DUP1 ISZERO PUSH2 0x287 JUMPI PUSH0 PUSH0 REVERT JUMPDEST POP PUSH2 0x2A2 PUSH1 0x4 DUP1 CALLDATASIZE SUB DUP2 ADD SWAP1 PUSH2 0x29D SWAP2 SWAP1 PUSH2 0x1B8B JUMP JUMPDEST PUSH2 0xEFE JUMP JUMPDEST STOP JUMPDEST CALLVALUE DUP1 ISZERO PUSH2 0x2AF JUMPI PUSH0 PUSH0 REVERT JUMPDEST POP PUSH2 0x2B8 PUSH2 0x1305 JUMP JUMPDEST PUSH1 0x40 MLOAD PUSH2 0x2C5 SWAP2 SWAP1 PUSH2 0x1CC3 JUMP JUMPDEST PUSH1 0x40 MLOAD DUP1 SWAP2 SUB SWAP1 RETURN JUMPDEST CALLVALUE DUP1 ISZERO PUSH2 0x2D9 JUMPI PUSH0 PUSH0 REVERT JUMPDEST POP PUSH2 0x2F4 PUSH1 0x4 DUP1 CALLDATASIZE SUB DUP2 ADD SWAP1 PUSH2 0x2EF SWAP2 SWAP1 PUSH2 0x156A JUMP JUMPDEST PUSH2 0x132A JUMP JUMPDEST STOP JUMPDEST CALLVALUE DUP1 ISZERO PUSH2 0x301 JUMPI PUSH0 PUSH0 REVERT JUMPDEST POP PUSH2 0x31C PUSH1 0x4 DUP1 CALLDATASIZE SUB DUP2 ADD SWAP1 PUSH2 0x317 SWAP2 SWAP1 PUSH2 0x19E8 JUMP JUMPDEST PUSH2 0x132D JUMP JUMPDEST STOP JUMPDEST CALLVALUE DUP1 ISZERO PUSH2 0x329 JUMPI PUSH0 PUSH0 REVERT JUMPDEST POP PUSH2 0x332 PUSH2 0x1481 JUMP JUMPDEST PUSH1 0x40 MLOAD PUSH2 0x33F SWAP2 SWAP1 PUSH2 0x172D JUMP JUMPDEST PUSH1 0x40 MLOAD DUP1 SWAP2 SUB SWAP1 RETURN JUMPDEST PUSH1 0x2 PUSH0 SWAP1 SLOAD SWAP1 PUSH2 0x100 EXP SWAP1 DIV PUSH20 0xFFFFFFFFFFFFFFFFFFFFFFFFFFFFFFFFFFFFFFFF AND DUP2 JUMP JUMPDEST JUMP JUMPDEST PUSH2 0x377 PUSH2 0x1486 JUMP JUMPDEST PUSH1 0x5 PUSH0 DUP4 DUP2 MSTORE PUSH1 0x20 ADD SWAP1 DUP2 MSTORE PUSH1 0x20 ADD PUSH0 KECCAK256 PUSH1 0x7 ADD PUSH0 SWAP1 SLOAD SWAP1 PUSH2 0x100 EXP SWAP1 DIV PUSH1 0xFF AND PUSH2 0x3D7 JUMPI PUSH1 0x40 MLOAD PUSH32 0x8C379A000000000000000000000000000000000000000000000000000000000 DUP2 MSTORE PUSH1 0x4 ADD PUSH2 0x3CE SWAP1 PUSH2 0x1D26 JUMP JUMPDEST PUSH1 0x40 MLOAD DUP1 SWAP2 SUB SWAP1 REVERT JUMPDEST PUSH1 0x5 PUSH0 DUP4 DUP2 MSTORE PUSH1 0x20 ADD SWAP1 DUP2 MSTORE PUSH1 0x20 ADD PUSH0 KECCAK256 PUSH1 0x40 MLOAD DUP1 PUSH2 0x120 ADD PUSH1 0x40 MSTORE SWAP1 DUP2 PUSH0 DUP3 ADD SLOAD DUP2 MSTORE PUSH1 0x20 ADD PUSH1 0x1 DUP3 ADD DUP1 SLOAD PUSH2 0x40D SWAP1 PUSH2 0x1D71 JUMP JUMPDEST DUP1 PUSH1 0x1F ADD PUSH1 0x20 DUP1 SWAP2 DIV MUL PUSH1 0x20 ADD PUSH1 0x40 MLOAD SWAP1 DUP2 ADD PUSH1 0x40 MSTORE DUP1 SWAP3 SWAP2 SWAP1 DUP2 DUP2 MSTORE PUSH1 0x20 ADD DUP3 DUP1 SLOAD PUSH2 0x439 SWAP1 PUSH2 0x1D71 JUMP JUMPDEST DUP1 ISZERO PUSH2 0x484 JUMPI DUP1 PUSH1 0x1F LT PUSH2 0x45B JUMPI PUSH2 0x100 DUP1 DUP4 SLOAD DIV MUL DUP4 MSTORE SWAP2 PUSH1 0x20 ADD SWAP2 PUSH2 0x484 JUMP JUMPDEST DUP3 ADD SWAP2 SWAP1 PUSH0 MSTORE PUSH1 0x20 PUSH0 KECCAK256 SWAP1 JUMPDEST DUP2 SLOAD DUP2 MSTORE SWAP1 PUSH1 0x1 ADD SWAP1 PUSH1 0x20 ADD DUP1 DUP4 GT PUSH2 0x467 JUMPI DUP3 SWAP1 SUB PUSH1 0x1F AND DUP3 ADD SWAP2 JUMPDEST POP POP POP POP POP DUP2 MSTORE PUSH1 0x20 ADD PUSH1 0x2 DUP3 ADD DUP1 SLOAD PUSH2 0x49D SWAP1 PUSH2 0x1D71 JUMP JUMPDEST DUP1 PUSH1 0x1F ADD PUSH1 0x20 DUP1 SWAP2 DIV MUL PUSH1 0x20 ADD PUSH1 0x40 MLOAD SWAP1 DUP2 ADD PUSH1 0x40 MSTORE DUP1 SWAP3 SWAP2 SWAP1 DUP2 DUP2 MSTORE PUSH1 0x20 ADD DUP3 DUP1 SLOAD PUSH2 0x4C9 SWAP1 PUSH2 0x1D71 JUMP JUMPDEST DUP1 ISZERO PUSH2 0x514 JUMPI DUP1 PUSH1 0x1F LT PUSH2 0x4EB JUMPI PUSH2 0x100 DUP1 DUP4 SLOAD DIV MUL DUP4 MSTORE SWAP2 PUSH1 0x20 ADD SWAP2 PUSH2 0x514 JUMP JUMPDEST DUP3 ADD SWAP2 SWAP1 PUSH0 MSTORE PUSH1 0x20 PUSH0 KECCAK256 SWAP1 JUMPDEST DUP2 SLOAD DUP2 MSTORE SWAP1 PUSH1 0x1 ADD SWAP1 PUSH1 0x20 ADD DUP1 DUP4 GT PUSH2 0x4F7 JUMPI DUP3 SWAP1 SUB PUSH1 0x1F AND DUP3 ADD SWAP2 JUMPDEST POP POP POP POP POP DUP2 MSTORE PUSH1 0x20 ADD PUSH1 0x3 DUP3 ADD DUP1 SLOAD PUSH2 0x52D SWAP1 PUSH2 0x1D71 JUMP JUMPDEST DUP1 PUSH1 0x1F ADD PUSH1 0x20 DUP1 SWAP2 DIV MUL PUSH1 0x20 ADD PUSH1 0x40 MLOAD SWAP1 DUP2 ADD PUSH1 0x40 MSTORE DUP1 SWAP3 SWAP2 SWAP1 DUP2 DUP2 MSTORE PUSH1 0x20 ADD DUP3 DUP1 SLOAD PUSH2 0x559 SWAP1 PUSH2 0x1D71 JUMP JUMPDEST DUP1 ISZERO PUSH2 0x5A4 JUMPI DUP1 PUSH1 0x1F LT PUSH2 0x57B JUMPI PUSH2 0x100 DUP1 DUP4 SLOAD DIV MUL DUP4 MSTORE SWAP2 PUSH1 0x20 ADD SWAP2 PUSH2 0x5A4 JUMP JUMPDEST DUP3 ADD SWAP2 SWAP1 PUSH0 MSTORE PUSH1 0x20 PUSH0 KECCAK256 SWAP1 JUMPDEST DUP2 SLOAD DUP2 MSTORE SWAP1 PUSH1 0x1 ADD SWAP1 PUSH1 0x20 ADD DUP1 DUP4 GT PUSH2 0x587 JUMPI DUP3 SWAP1 SUB PUSH1 0x1F AND DUP3 ADD SWAP2 JUMPDEST POP POP POP POP POP DUP2 MSTORE PUSH1 0x20 ADD PUSH1 0x4 DUP3 ADD SLOAD DUP2 MSTORE PUSH1 0x20 ADD PUSH1 0x5 DUP3 ADD SLOAD DUP2 MSTORE PUSH1 0x20 ADD PUSH1 0x6 DUP3 ADD SLOAD DUP2 MSTORE PUSH1 0x20 ADD PUSH1 0x7 DUP3 ADD PUSH0 SWAP1 SLOAD SWAP1 PUSH2 0x100 EXP SWAP1 DIV PUSH1 0xFF AND ISZERO ISZERO ISZERO ISZERO DUP2 MSTORE PUSH1 0x20 ADD PUSH1 0x8 DUP3 ADD SLOAD DUP2 MSTORE POP POP SWAP1 POP SWAP2 SWAP1 POP JUMP JUMPDEST PUSH1 0x4 DUP2 DUP2 SLOAD DUP2 LT PUSH2 0x605 JUMPI PUSH0 DUP1 REVERT JUMPDEST SWAP1 PUSH0 MSTORE PUSH1 0x20 PUSH0 KECCAK256 ADD PUSH0 SWAP2 POP SWAP1 POP SLOAD DUP2 JUMP JUMPDEST PUSH1 0x5 PUSH1 0x20 MSTORE DUP1 PUSH0 MSTORE PUSH1 0x40 PUSH0 KECCAK256 PUSH0 SWAP2 POP SWAP1 POP DUP1 PUSH0 ADD SLOAD SWAP1 DUP1 PUSH1 0x1 ADD DUP1 SLOAD PUSH2 0x63B SWAP1 PUSH2 0x1D71 JUMP JUMPDEST DUP1 PUSH1 0x1F ADD PUSH1 0x20 DUP1 SWAP2 DIV MUL PUSH1 0x20 ADD PUSH1 0x40 MLOAD SWAP1 DUP2 ADD PUSH1 0x40 MSTORE DUP1 SWAP3 SWAP2 SWAP1 DUP2 DUP2 MSTORE PUSH1 0x20 ADD DUP3 DUP1 SLOAD PUSH2 0x667 SWAP1 PUSH2 0x1D71 JUMP JUMPDEST DUP1 ISZERO PUSH2 0x6B2 JUMPI DUP1 PUSH1 0x1F LT PUSH2 0x689 JUMPI PUSH2 0x100 DUP1 DUP4 SLOAD DIV MUL DUP4 MSTORE SWAP2 PUSH1 0x20 ADD SWAP2 PUSH2 0x6B2 JUMP JUMPDEST DUP3 ADD SWAP2 SWAP1 PUSH0 MSTORE PUSH1 0x20 PUSH0 KECCAK256 SWAP1 JUMPDEST DUP2 SLOAD DUP2 MSTORE SWAP1 PUSH1 0x1 ADD SWAP1 PUSH1 0x20 ADD DUP1 DUP4 GT PUSH2 0x695 JUMPI DUP3 SWAP1 SUB PUSH1 0x1F AND DUP3 ADD SWAP2 JUMPDEST POP POP POP POP POP SWAP1 DUP1 PUSH1 0x2 ADD DUP1 SLOAD PUSH2 0x6C7 SWAP1 PUSH2 0x1D71 JUMP JUMPDEST DUP1 PUSH1 0x1F ADD PUSH1 0x20 DUP1 SWAP2 DIV MUL PUSH1 0x20 ADD PUSH1 0x40 MLOAD SWAP1 DUP2 ADD PUSH1 0x40 MSTORE DUP1 SWAP3 SWAP2 SWAP1 DUP2 DUP2 MSTORE PUSH1 0x20 ADD DUP3 DUP1 SLOAD PUSH2 0x6F3 SWAP1 PUSH2 0x1D71 JUMP JUMPDEST DUP1 ISZERO PUSH2 0x73E JUMPI DUP1 PUSH1 0x1F LT PUSH2 0x715 JUMPI PUSH2 0x100 DUP1 DUP4 SLOAD DIV MUL DUP4 MSTORE SWAP2 PUSH1 0x20 ADD SWAP2 PUSH2 0x73E JUMP JUMPDEST DUP3 ADD SWAP2 SWAP1 PUSH0 MSTORE PUSH1 0x20 PUSH0 KECCAK256 SWAP1 JUMPDEST DUP2 SLOAD DUP2 MSTORE SWAP1 PUSH1 0x1 ADD SWAP1 PUSH1 0x20 ADD DUP1 DUP4 GT PUSH2 0x721 JUMPI DUP3 SWAP1 SUB PUSH1 0x1F AND DUP3 ADD SWAP2 JUMPDEST POP POP POP POP POP SWAP1 DUP1 PUSH1 0x3 ADD DUP1 SLOAD PUSH2 0x753 SWAP1 PUSH2 0x1D71 JUMP JUMPDEST DUP1 PUSH1 0x1F ADD PUSH1 0x20 DUP1 SWAP2 DIV MUL PUSH1 0x20 ADD PUSH1 0x40 MLOAD SWAP1 DUP2 ADD PUSH1 0x40 MSTORE DUP1 SWAP3 SWAP2 SWAP1 DUP2 DUP2 MSTORE PUSH1 0x20 ADD DUP3 DUP1 SLOAD PUSH2 0x77F SWAP1 PUSH2 0x1D71 JUMP JUMPDEST DUP1 ISZERO PUSH2 0x7CA JUMPI DUP1 PUSH1 0x1F LT PUSH2 0x7A1 JUMPI PUSH2 0x100 DUP1 DUP4 SLOAD DIV MUL DUP4 MSTORE SWAP2 PUSH1 0x20 ADD SWAP2 PUSH2 0x7CA JUMP JUMPDEST DUP3 ADD SWAP2 SWAP1 PUSH0 MSTORE PUSH1 0x20 PUSH0 KECCAK256 SWAP1 JUMPDEST DUP2 SLOAD DUP2 MSTORE SWAP1 PUSH1 0x1 ADD SWAP1 PUSH1 0x20 ADD DUP1 DUP4 GT PUSH2 0x7AD JUMPI DUP3 SWAP1 SUB PUSH1 0x1F AND DUP3 ADD SWAP2 JUMPDEST POP POP POP POP POP SWAP1 DUP1 PUSH1 0x4 ADD SLOAD SWAP1 DUP1 PUSH1 0x5 ADD SLOAD SWAP1 DUP1 PUSH1 0x6 ADD SLOAD SWAP1 DUP1 PUSH1 0x7 ADD PUSH0 SWAP1 SLOAD SWAP1 PUSH2 0x100 EXP SWAP1 DIV PUSH1 0xFF AND SWAP1 DUP1 PUSH1 0x8 ADD SLOAD SWAP1 POP DUP10 JUMP JUMPDEST PUSH1 0x5 PUSH0 DUP3 DUP2 MSTORE PUSH1 0x20 ADD SWAP1 DUP2 MSTORE PUSH1 0x20 ADD PUSH0 KECCAK256 PUSH1 0x7 ADD PUSH0 SWAP1 SLOAD SWAP1 PUSH2 0x100 EXP SWAP1 DIV PUSH1 0xFF AND PUSH2 0x85E JUMPI PUSH1 0x40 MLOAD PUSH32 0x8C379A000000000000000000000000000000000000000000000000000000000 DUP2 MSTORE PUSH1 0x4 ADD PUSH2 0x855 SWAP1 PUSH2 0x1DEB JUMP JUMPDEST PUSH1 0x40 MLOAD DUP1 SWAP2 SUB SWAP1 REVERT JUMPDEST PUSH0 PUSH1 0x5 PUSH0 DUP4 DUP2 MSTORE PUSH1 0x20 ADD SWAP1 DUP2 MSTORE PUSH1 0x20 ADD PUSH0 KECCAK256 PUSH1 0x4 ADD SLOAD GT PUSH2 0x8B4 JUMPI PUSH1 0x40 MLOAD PUSH32 0x8C379A000000000000000000000000000000000000000000000000000000000 DUP2 MSTORE PUSH1 0x4 ADD PUSH2 0x8AB SWAP1 PUSH2 0x1E53 JUMP JUMPDEST PUSH1 0x40 MLOAD DUP1 SWAP2 SUB SWAP1 REVERT JUMPDEST PUSH0 PUSH1 0x5 PUSH0 DUP4 DUP2 MSTORE PUSH1 0x20 ADD SWAP1 DUP2 MSTORE PUSH1 0x20 ADD PUSH0 KECCAK256 SWAP1 POP PUSH0 PUSH1 0x1 PUSH0 SWAP1 SLOAD SWAP1 PUSH2 0x100 EXP SWAP1 DIV PUSH20 0xFFFFFFFFFFFFFFFFFFFFFFFFFFFFFFFFFFFFFFFF AND PUSH20 0xFFFFFFFFFFFFFFFFFFFFFFFFFFFFFFFFFFFFFFFF AND PUSH4 0x506B27F0 CALLER PUSH1 0x40 MLOAD DUP3 PUSH4 0xFFFFFFFF AND PUSH1 0xE0 SHL DUP2 MSTORE PUSH1 0x4 ADD PUSH2 0x923 SWAP2 SWAP1 PUSH2 0x1A46 JUMP JUMPDEST PUSH1 0x20 PUSH1 0x40 MLOAD DUP1 DUP4 SUB DUP2 DUP7 GAS STATICCALL ISZERO DUP1 ISZERO PUSH2 0x93E JUMPI RETURNDATASIZE PUSH0 PUSH0 RETURNDATACOPY RETURNDATASIZE PUSH0 REVERT JUMPDEST POP POP POP POP PUSH1 0x40 MLOAD RETURNDATASIZE PUSH1 0x1F NOT PUSH1 0x1F DUP3 ADD AND DUP3 ADD DUP1 PUSH1 0x40 MSTORE POP DUP2 ADD SWAP1 PUSH2 0x962 SWAP2 SWAP1 PUSH2 0x1E9B JUMP JUMPDEST SWAP1 POP PUSH0 DUP2 PUSH2 0x972 JUMPI PUSH1 0x3 SLOAD PUSH2 0x978 JUMP JUMPDEST DUP3 PUSH1 0x6 ADD SLOAD JUMPDEST SWAP1 POP DUP1 CALLVALUE LT ISZERO PUSH2 0x9BD JUMPI PUSH1 0x40 MLOAD PUSH32 0x8C379A000000000000000000000000000000000000000000000000000000000 DUP2 MSTORE PUSH1 0x4 ADD PUSH2 0x9B4 SWAP1 PUSH2 0x1F10 JUMP JUMPDEST PUSH1 0x40 MLOAD DUP1 SWAP2 SUB SWAP1 REVERT JUMPDEST PUSH1 0x7 PUSH0 DUP6 DUP2 MSTORE PUSH1 0x20 ADD SWAP1 DUP2 MSTORE PUSH1 0x20 ADD PUSH0 KECCAK256 CALLER SWAP1 DUP1 PUSH1 0x1 DUP2 SLOAD ADD DUP1 DUP3 SSTORE DUP1 SWAP2 POP POP PUSH1 0x1 SWAP1 SUB SWAP1 PUSH0 MSTORE PUSH1 0x20 PUSH0 KECCAK256 ADD PUSH0 SWAP1 SWAP2 SWAP1 SWAP2 SWAP1 SWAP2 PUSH2 0x100 EXP DUP2 SLOAD DUP2 PUSH20 0xFFFFFFFFFFFFFFFFFFFFFFFFFFFFFFFFFFFFFFFF MUL NOT AND SWAP1 DUP4 PUSH20 0xFFFFFFFFFFFFFFFFFFFFFFFFFFFFFFFFFFFFFFFF AND MUL OR SWAP1 SSTORE POP PUSH1 0x1 DUP4 PUSH1 0x4 ADD PUSH0 DUP3 DUP3 SLOAD PUSH2 0xA40 SWAP2 SWAP1 PUSH2 0x1F5B JUMP JUMPDEST SWAP3 POP POP DUP2 SWAP1 SSTORE POP PUSH0 PUSH1 0x2 PUSH0 SWAP1 SLOAD SWAP1 PUSH2 0x100 EXP SWAP1 DIV PUSH20 0xFFFFFFFFFFFFFFFFFFFFFFFFFFFFFFFFFFFFFFFF AND PUSH20 0xFFFFFFFFFFFFFFFFFFFFFFFFFFFFFFFFFFFFFFFF AND DUP3 PUSH1 0x40 MLOAD PUSH2 0xA8D SWAP1 PUSH2 0x1FBB JUMP JUMPDEST PUSH0 PUSH1 0x40 MLOAD DUP1 DUP4 SUB DUP2 DUP6 DUP8 GAS CALL SWAP3 POP POP POP RETURNDATASIZE DUP1 PUSH0 DUP2 EQ PUSH2 0xAC7 JUMPI PUSH1 0x40 MLOAD SWAP2 POP PUSH1 0x1F NOT PUSH1 0x3F RETURNDATASIZE ADD AND DUP3 ADD PUSH1 0x40 MSTORE RETURNDATASIZE DUP3 MSTORE RETURNDATASIZE PUSH0 PUSH1 0x20 DUP5 ADD RETURNDATACOPY PUSH2 0xACC JUMP JUMPDEST PUSH1 0x60 SWAP2 POP JUMPDEST POP POP SWAP1 POP DUP1 PUSH2 0xB10 JUMPI PUSH1 0x40 MLOAD PUSH32 0x8C379A000000000000000000000000000000000000000000000000000000000 DUP2 MSTORE PUSH1 0x4 ADD PUSH2 0xB07 SWAP1 PUSH2 0x2019 JUMP JUMPDEST PUSH1 0x40 MLOAD DUP1 SWAP2 SUB SWAP1 REVERT JUMPDEST PUSH0 DUP3 CALLVALUE PUSH2 0xB1D SWAP2 SWAP1 PUSH2 0x1F5B JUMP JUMPDEST SWAP1 POP PUSH0 DUP2 GT ISZERO PUSH2 0xBD1 JUMPI PUSH0 CALLER PUSH20 0xFFFFFFFFFFFFFFFFFFFFFFFFFFFFFFFFFFFFFFFF AND DUP3 PUSH1 0x40 MLOAD PUSH2 0xB4C SWAP1 PUSH2 0x1FBB JUMP JUMPDEST PUSH0 PUSH1 0x40 MLOAD DUP1 DUP4 SUB DUP2 DUP6 DUP8 GAS CALL SWAP3 POP POP POP RETURNDATASIZE DUP1 PUSH0 DUP2 EQ PUSH2 0xB86 JUMPI PUSH1 0x40 MLOAD SWAP2 POP PUSH1 0x1F NOT PUSH1 0x3F RETURNDATASIZE ADD AND DUP3 ADD PUSH1 0x40 MSTORE RETURNDATASIZE DUP3 MSTORE RETURNDATASIZE PUSH0 PUSH1 0x20 DUP5 ADD RETURNDATACOPY PUSH2 0xB8B JUMP JUMPDEST PUSH1 0x60 SWAP2 POP JUMPDEST POP POP SWAP1 POP DUP1 PUSH2 0xBCF JUMPI PUSH1 0x40 MLOAD PUSH32 0x8C379A000000000000000000000000000000000000000000000000000000000 DUP2 MSTORE PUSH1 0x4 ADD PUSH2 0xBC6 SWAP1 PUSH2 0x2081 JUMP JUMPDEST PUSH1 0x40 MLOAD DUP1 SWAP2 SUB SWAP1 REVERT JUMPDEST POP JUMPDEST POP POP POP POP POP POP JUMP JUMPDEST PUSH1 0x3 SLOAD DUP2 JUMP JUMPDEST PUSH1 0x60 PUSH0 PUSH1 0x4 DUP1 SLOAD SWAP1 POP PUSH8 0xFFFFFFFFFFFFFFFF DUP2 GT ISZERO PUSH2 0xC01 JUMPI PUSH2 0xC00 PUSH2 0x1A67 JUMP JUMPDEST JUMPDEST PUSH1 0x40 MLOAD SWAP1 DUP1 DUP3 MSTORE DUP1 PUSH1 0x20 MUL PUSH1 0x20 ADD DUP3 ADD PUSH1 0x40 MSTORE DUP1 ISZERO PUSH2 0xC3A JUMPI DUP2 PUSH1 0x20 ADD JUMPDEST PUSH2 0xC27 PUSH2 0x1486 JUMP JUMPDEST DUP2 MSTORE PUSH1 0x20 ADD SWAP1 PUSH1 0x1 SWAP1 SUB SWAP1 DUP2 PUSH2 0xC1F JUMPI SWAP1 POP JUMPDEST POP SWAP1 POP PUSH0 PUSH0 SWAP1 POP JUMPDEST PUSH1 0x4 DUP1 SLOAD SWAP1 POP DUP2 LT ISZERO PUSH2 0xEAE JUMPI PUSH1 0x5 PUSH0 PUSH1 0x4 DUP4 DUP2 SLOAD DUP2 LT PUSH2 0xC66 JUMPI PUSH2 0xC65 PUSH2 0x209F JUMP JUMPDEST JUMPDEST SWAP1 PUSH0 MSTORE PUSH1 0x20 PUSH0 KECCAK256 ADD SLOAD DUP2 MSTORE PUSH1 0x20 ADD SWAP1 DUP2 MSTORE PUSH1 0x20 ADD PUSH0 KECCAK256 PUSH1 0x40 MLOAD DUP1 PUSH2 0x120 ADD PUSH1 0x40 MSTORE SWAP1 DUP2 PUSH0 DUP3 ADD SLOAD DUP2 MSTORE PUSH1 0x20 ADD PUSH1 0x1 DUP3 ADD DUP1 SLOAD PUSH2 0xCA1 SWAP1 PUSH2 0x1D71 JUMP JUMPDEST DUP1 PUSH1 0x1F ADD PUSH1 0x20 DUP1 SWAP2 DIV MUL PUSH1 0x20 ADD PUSH1 0x40 MLOAD SWAP1 DUP2 ADD PUSH1 0x40 MSTORE DUP1 SWAP3 SWAP2 SWAP1 DUP2 DUP2 MSTORE PUSH1 0x20 ADD DUP3 DUP1 SLOAD PUSH2 0xCCD SWAP1 PUSH2 0x1D71 JUMP JUMPDEST DUP1 ISZERO PUSH2 0xD18 JUMPI DUP1 PUSH1 0x1F LT PUSH2 0xCEF JUMPI PUSH2 0x100 DUP1 DUP4 SLOAD DIV MUL DUP4 MSTORE SWAP2 PUSH1 0x20 ADD SWAP2 PUSH2 0xD18 JUMP JUMPDEST DUP3 ADD SWAP2 SWAP1 PUSH0 MSTORE PUSH1 0x20 PUSH0 KECCAK256 SWAP1 JUMPDEST DUP2 SLOAD DUP2 MSTORE SWAP1 PUSH1 0x1 ADD SWAP1 PUSH1 0x20 ADD DUP1 DUP4 GT PUSH2 0xCFB JUMPI DUP3 SWAP1 SUB PUSH1 0x1F AND DUP3 ADD SWAP2 JUMPDEST POP POP POP POP POP DUP2 MSTORE PUSH1 0x20 ADD PUSH1 0x2 DUP3 ADD DUP1 SLOAD PUSH2 0xD31 SWAP1 PUSH2 0x1D71 JUMP JUMPDEST DUP1 PUSH1 0x1F ADD PUSH1 0x20 DUP1 SWAP2 DIV MUL PUSH1 0x20 ADD PUSH1 0x40 MLOAD SWAP1 DUP2 ADD PUSH1 0x40 MSTORE DUP1 SWAP3 SWAP2 SWAP1 DUP2 DUP2 MSTORE PUSH1 0x20 ADD DUP3 DUP1 SLOAD PUSH2 0xD5D SWAP1 PUSH2 0x1D71 JUMP JUMPDEST DUP1 ISZERO PUSH2 0xDA8 JUMPI DUP1 PUSH1 0x1F LT PUSH2 0xD7F JUMPI PUSH2 0x100 DUP1 DUP4 SLOAD DIV MUL DUP4 MSTORE SWAP2 PUSH1 0x20 ADD SWAP2 PUSH2 0xDA8 JUMP JUMPDEST DUP3 ADD SWAP2 SWAP1 PUSH0 MSTORE PUSH1 0x20 PUSH0 KECCAK256 SWAP1 JUMPDEST DUP2 SLOAD DUP2 MSTORE SWAP1 PUSH1 0x1 ADD SWAP1 PUSH1 0x20 ADD DUP1 DUP4 GT PUSH2 0xD8B JUMPI DUP3 SWAP1 SUB PUSH1 0x1F AND DUP3 ADD SWAP2 JUMPDEST POP POP POP POP POP DUP2 MSTORE PUSH1 0x20 ADD PUSH1 0x3 DUP3 ADD DUP1 SLOAD PUSH2 0xDC1 SWAP1 PUSH2 0x1D71 JUMP JUMPDEST DUP1 PUSH1 0x1F ADD PUSH1 0x20 DUP1 SWAP2 DIV MUL PUSH1 0x20 ADD PUSH1 0x40 MLOAD SWAP1 DUP2 ADD PUSH1 0x40 MSTORE DUP1 SWAP3 SWAP2 SWAP1 DUP2 DUP2 MSTORE PUSH1 0x20 ADD DUP3 DUP1 SLOAD PUSH2 0xDED SWAP1 PUSH2 0x1D71 JUMP JUMPDEST DUP1 ISZERO PUSH2 0xE38 JUMPI DUP1 PUSH1 0x1F LT PUSH2 0xE0F JUMPI PUSH2 0x100 DUP1 DUP4 SLOAD DIV MUL DUP4 MSTORE SWAP2 PUSH1 0x20 ADD SWAP2 PUSH2 0xE38 JUMP JUMPDEST DUP3 ADD SWAP2 SWAP1 PUSH0 MSTORE PUSH1 0x20 PUSH0 KECCAK256 SWAP1 JUMPDEST DUP2 SLOAD DUP2 MSTORE SWAP1 PUSH1 0x1 ADD SWAP1 PUSH1 0x20 ADD DUP1 DUP4 GT PUSH2 0xE1B JUMPI DUP3 SWAP1 SUB PUSH1 0x1F AND DUP3 ADD SWAP2 JUMPDEST POP POP POP POP POP DUP2 MSTORE PUSH1 0x20 ADD PUSH1 0x4 DUP3 ADD SLOAD DUP2 MSTORE PUSH1 0x20 ADD PUSH1 0x5 DUP3 ADD SLOAD DUP2 MSTORE PUSH1 0x20 ADD PUSH1 0x6 DUP3 ADD SLOAD DUP2 MSTORE PUSH1 0x20 ADD PUSH1 0x7 DUP3 ADD PUSH0 SWAP1 SLOAD SWAP1 PUSH2 0x100 EXP SWAP1 DIV PUSH1 0xFF AND ISZERO ISZERO ISZERO ISZERO DUP2 MSTORE PUSH1 0x20 ADD PUSH1 0x8 DUP3 ADD SLOAD DUP2 MSTORE POP POP DUP3 DUP3 DUP2 MLOAD DUP2 LT PUSH2 0xE96 JUMPI PUSH2 0xE95 PUSH2 0x209F JUMP JUMPDEST JUMPDEST PUSH1 0x20 MUL PUSH1 0x20 ADD ADD DUP2 SWAP1 MSTORE POP DUP1 DUP1 PUSH1 0x1 ADD SWAP2 POP POP PUSH2 0xC42 JUMP JUMPDEST POP DUP1 SWAP2 POP POP SWAP1 JUMP JUMPDEST PUSH1 0x7 PUSH1 0x20 MSTORE DUP2 PUSH0 MSTORE PUSH1 0x40 PUSH0 KECCAK256 DUP2 DUP2 SLOAD DUP2 LT PUSH2 0xECF JUMPI PUSH0 DUP1 REVERT JUMPDEST SWAP1 PUSH0 MSTORE PUSH1 0x20 PUSH0 KECCAK256 ADD PUSH0 SWAP2 POP SWAP2 POP SWAP1 SLOAD SWAP1 PUSH2 0x100 EXP SWAP1 DIV PUSH20 0xFFFFFFFFFFFFFFFFFFFFFFFFFFFFFFFFFFFFFFFF AND DUP2 JUMP JUMPDEST PUSH1 0x2 PUSH0 SWAP1 SLOAD SWAP1 PUSH2 0x100 EXP SWAP1 DIV PUSH20 0xFFFFFFFFFFFFFFFFFFFFFFFFFFFFFFFFFFFFFFFF AND PUSH20 0xFFFFFFFFFFFFFFFFFFFFFFFFFFFFFFFFFFFFFFFF AND CALLER PUSH20 0xFFFFFFFFFFFFFFFFFFFFFFFFFFFFFFFFFFFFFFFF AND EQ PUSH2 0xF8D JUMPI PUSH1 0x40 MLOAD PUSH32 0x8C379A000000000000000000000000000000000000000000000000000000000 DUP2 MSTORE PUSH1 0x4 ADD PUSH2 0xF84 SWAP1 PUSH2 0x2116 JUMP JUMPDEST PUSH1 0x40 MLOAD DUP1 SWAP2 SUB SWAP1 REVERT JUMPDEST PUSH0 DUP7 MLOAD GT PUSH2 0xFD0 JUMPI PUSH1 0x40 MLOAD PUSH32 0x8C379A000000000000000000000000000000000000000000000000000000000 DUP2 MSTORE PUSH1 0x4 ADD PUSH2 0xFC7 SWAP1 PUSH2 0x217E JUMP JUMPDEST PUSH1 0x40 MLOAD DUP1 SWAP2 SUB SWAP1 REVERT JUMPDEST PUSH0 DUP6 MLOAD GT PUSH2 0x1013 JUMPI PUSH1 0x40 MLOAD PUSH32 0x8C379A000000000000000000000000000000000000000000000000000000000 DUP2 MSTORE PUSH1 0x4 ADD PUSH2 0x100A SWAP1 PUSH2 0x21E6 JUMP JUMPDEST PUSH1 0x40 MLOAD DUP1 SWAP2 SUB SWAP1 REVERT JUMPDEST PUSH0 DUP5 MLOAD GT PUSH2 0x1056 JUMPI PUSH1 0x40 MLOAD PUSH32 0x8C379A000000000000000000000000000000000000000000000000000000000 DUP2 MSTORE PUSH1 0x4 ADD PUSH2 0x104D SWAP1 PUSH2 0x224E JUMP JUMPDEST PUSH1 0x40 MLOAD DUP1 SWAP2 SUB SWAP1 REVERT JUMPDEST PUSH0 DUP4 GT PUSH2 0x1098 JUMPI PUSH1 0x40 MLOAD PUSH32 0x8C379A000000000000000000000000000000000000000000000000000000000 DUP2 MSTORE PUSH1 0x4 ADD PUSH2 0x108F SWAP1 PUSH2 0x22B6 JUMP JUMPDEST PUSH1 0x40 MLOAD DUP1 SWAP2 SUB SWAP1 REVERT JUMPDEST PUSH0 DUP3 GT PUSH2 0x10DA JUMPI PUSH1 0x40 MLOAD PUSH32 0x8C379A000000000000000000000000000000000000000000000000000000000 DUP2 MSTORE PUSH1 0x4 ADD PUSH2 0x10D1 SWAP1 PUSH2 0x231E JUMP JUMPDEST PUSH1 0x40 MLOAD DUP1 SWAP2 SUB SWAP1 REVERT JUMPDEST PUSH0 DUP2 GT PUSH2 0x111C JUMPI PUSH1 0x40 MLOAD PUSH32 0x8C379A000000000000000000000000000000000000000000000000000000000 DUP2 MSTORE PUSH1 0x4 ADD PUSH2 0x1113 SWAP1 PUSH2 0x231E JUMP JUMPDEST PUSH1 0x40 MLOAD DUP1 SWAP2 SUB SWAP1 REVERT JUMPDEST PUSH0 DUP7 DUP7 PUSH1 0x40 MLOAD PUSH1 0x20 ADD PUSH2 0x1130 SWAP3 SWAP2 SWAP1 PUSH2 0x2376 JUMP JUMPDEST PUSH1 0x40 MLOAD PUSH1 0x20 DUP2 DUP4 SUB SUB DUP2 MSTORE SWAP1 PUSH1 0x40 MSTORE DUP1 MLOAD SWAP1 PUSH1 0x20 ADD KECCAK256 SWAP1 POP PUSH1 0x6 PUSH0 DUP3 DUP2 MSTORE PUSH1 0x20 ADD SWAP1 DUP2 MSTORE PUSH1 0x20 ADD PUSH0 KECCAK256 PUSH0 SWAP1 SLOAD SWAP1 PUSH2 0x100 EXP SWAP1 DIV PUSH1 0xFF AND ISZERO PUSH2 0x11A6 JUMPI PUSH1 0x40 MLOAD PUSH32 0x8C379A000000000000000000000000000000000000000000000000000000000 DUP2 MSTORE PUSH1 0x4 ADD PUSH2 0x119D SWAP1 PUSH2 0x2409 JUMP JUMPDEST PUSH1 0x40 MLOAD DUP1 SWAP2 SUB SWAP1 REVERT JUMPDEST PUSH1 0x1 PUSH1 0x6 PUSH0 DUP4 DUP2 MSTORE PUSH1 0x20 ADD SWAP1 DUP2 MSTORE PUSH1 0x20 ADD PUSH0 KECCAK256 PUSH0 PUSH2 0x100 EXP DUP2 SLOAD DUP2 PUSH1 0xFF MUL NOT AND SWAP1 DUP4 ISZERO ISZERO MUL OR SWAP1 SSTORE POP PUSH1 0x1 PUSH0 PUSH0 DUP3 DUP3 SLOAD PUSH2 0x11E0 SWAP2 SWAP1 PUSH2 0x2427 JUMP JUMPDEST SWAP3 POP POP DUP2 SWAP1 SSTORE POP PUSH0 PUSH0 SLOAD SWAP1 POP PUSH1 0x40 MLOAD DUP1 PUSH2 0x120 ADD PUSH1 0x40 MSTORE DUP1 DUP3 DUP2 MSTORE PUSH1 0x20 ADD DUP10 DUP2 MSTORE PUSH1 0x20 ADD DUP9 DUP2 MSTORE PUSH1 0x20 ADD DUP8 DUP2 MSTORE PUSH1 0x20 ADD DUP7 DUP2 MSTORE PUSH1 0x20 ADD DUP6 DUP2 MSTORE PUSH1 0x20 ADD DUP5 DUP2 MSTORE PUSH1 0x20 ADD PUSH1 0x1 ISZERO ISZERO DUP2 MSTORE PUSH1 0x20 ADD TIMESTAMP DUP2 MSTORE POP PUSH1 0x5 PUSH0 DUP4 DUP2 MSTORE PUSH1 0x20 ADD SWAP1 DUP2 MSTORE PUSH1 0x20 ADD PUSH0 KECCAK256 PUSH0 DUP3 ADD MLOAD DUP2 PUSH0 ADD SSTORE PUSH1 0x20 DUP3 ADD MLOAD DUP2 PUSH1 0x1 ADD SWAP1 DUP2 PUSH2 0x125D SWAP2 SWAP1 PUSH2 0x25F1 JUMP JUMPDEST POP PUSH1 0x40 DUP3 ADD MLOAD DUP2 PUSH1 0x2 ADD SWAP1 DUP2 PUSH2 0x1273 SWAP2 SWAP1 PUSH2 0x25F1 JUMP JUMPDEST POP PUSH1 0x60 DUP3 ADD MLOAD DUP2 PUSH1 0x3 ADD SWAP1 DUP2 PUSH2 0x1289 SWAP2 SWAP1 PUSH2 0x25F1 JUMP JUMPDEST POP PUSH1 0x80 DUP3 ADD MLOAD DUP2 PUSH1 0x4 ADD SSTORE PUSH1 0xA0 DUP3 ADD MLOAD DUP2 PUSH1 0x5 ADD SSTORE PUSH1 0xC0 DUP3 ADD MLOAD DUP2 PUSH1 0x6 ADD SSTORE PUSH1 0xE0 DUP3 ADD MLOAD DUP2 PUSH1 0x7 ADD PUSH0 PUSH2 0x100 EXP DUP2 SLOAD DUP2 PUSH1 0xFF MUL NOT AND SWAP1 DUP4 ISZERO ISZERO MUL OR SWAP1 SSTORE POP PUSH2 0x100 DUP3 ADD MLOAD DUP2 PUSH1 0x8 ADD SSTORE SWAP1 POP POP PUSH1 0x4 DUP2 SWAP1 DUP1 PUSH1 0x1 DUP2 SLOAD ADD DUP1 DUP3 SSTORE DUP1 SWAP2 POP POP PUSH1 0x1 SWAP1 SUB SWAP1 PUSH0 MSTORE PUSH1 0x20 PUSH0 KECCAK256 ADD PUSH0 SWAP1 SWAP2 SWAP1 SWAP2 SWAP1 SWAP2 POP SSTORE POP POP POP POP POP POP POP POP JUMP JUMPDEST PUSH1 0x1 PUSH0 SWAP1 SLOAD SWAP1 PUSH2 0x100 EXP SWAP1 DIV PUSH20 0xFFFFFFFFFFFFFFFFFFFFFFFFFFFFFFFFFFFFFFFF AND DUP2 JUMP JUMPDEST POP JUMP JUMPDEST PUSH1 0x2 PUSH0 SWAP1 SLOAD SWAP1 PUSH2 0x100 EXP SWAP1 DIV PUSH20 0xFFFFFFFFFFFFFFFFFFFFFFFFFFFFFFFFFFFFFFFF AND PUSH20 0xFFFFFFFFFFFFFFFFFFFFFFFFFFFFFFFFFFFFFFFF AND CALLER PUSH20 0xFFFFFFFFFFFFFFFFFFFFFFFFFFFFFFFFFFFFFFFF AND EQ PUSH2 0x13BC JUMPI PUSH1 0x40 MLOAD PUSH32 0x8C379A000000000000000000000000000000000000000000000000000000000 DUP2 MSTORE PUSH1 0x4 ADD PUSH2 0x13B3 SWAP1 PUSH2 0x2116 JUMP JUMPDEST PUSH1 0x40 MLOAD DUP1 SWAP2 SUB SWAP1 REVERT JUMPDEST PUSH0 DUP2 GT PUSH2 0x13FE JUMPI PUSH1 0x40 MLOAD PUSH32 0x8C379A000000000000000000000000000000000000000000000000000000000 DUP2 MSTORE PUSH1 0x4 ADD PUSH2 0x13F5 SWAP1 PUSH2 0x22B6 JUMP JUMPDEST PUSH1 0x40 MLOAD DUP1 SWAP2 SUB SWAP1 REVERT JUMPDEST PUSH0 PUSH1 0x5 PUSH0 DUP5 DUP2 MSTORE PUSH1 0x20 ADD SWAP1 DUP2 MSTORE PUSH1 0x20 ADD PUSH0 KECCAK256 SWAP1 POP DUP1 PUSH1 0x7 ADD PUSH0 SWAP1 SLOAD SWAP1 PUSH2 0x100 EXP SWAP1 DIV PUSH1 0xFF AND PUSH2 0x1462 JUMPI PUSH1 0x40 MLOAD PUSH32 0x8C379A000000000000000000000000000000000000000000000000000000000 DUP2 MSTORE PUSH1 0x4 ADD PUSH2 0x1459 SWAP1 PUSH2 0x1D26 JUMP JUMPDEST PUSH1 0x40 MLOAD DUP1 SWAP2 SUB SWAP1 REVERT JUMPDEST DUP2 DUP2 PUSH1 0x4 ADD PUSH0 DUP3 DUP3 SLOAD PUSH2 0x1475 SWAP2 SWAP1 PUSH2 0x2427 JUMP JUMPDEST SWAP3 POP POP DUP2 SWAP1 SSTORE POP POP POP POP JUMP JUMPDEST PUSH0 SLOAD DUP2 JUMP JUMPDEST PUSH1 0x40 MLOAD DUP1 PUSH2 0x120 ADD PUSH1 0x40 MSTORE DUP1 PUSH0 DUP2 MSTORE PUSH1 0x20 ADD PUSH1 0x60 DUP2 MSTORE PUSH1 0x20 ADD PUSH1 0x60 DUP2 MSTORE PUSH1 0x20 ADD PUSH1 0x60 DUP2 MSTORE PUSH1 0x20 ADD PUSH0 DUP2 MSTORE PUSH1 0x20 ADD PUSH0 DUP2 MSTORE PUSH1 0x20 ADD PUSH0 DUP2 MSTORE PUSH1 0x20 ADD PUSH0 ISZERO ISZERO DUP2 MSTORE PUSH1 0x20 ADD PUSH0 DUP2 MSTORE POP SWAP1 JUMP JUMPDEST PUSH0 PUSH20 0xFFFFFFFFFFFFFFFFFFFFFFFFFFFFFFFFFFFFFFFF DUP3 AND SWAP1 POP SWAP2 SWAP1 POP JUMP JUMPDEST PUSH0 PUSH2 0x14F7 DUP3 PUSH2 0x14CE JUMP JUMPDEST SWAP1 POP SWAP2 SWAP1 POP JUMP JUMPDEST PUSH2 0x1507 DUP2 PUSH2 0x14ED JUMP JUMPDEST DUP3 MSTORE POP POP JUMP JUMPDEST PUSH0 PUSH1 0x20 DUP3 ADD SWAP1 POP PUSH2 0x1520 PUSH0 DUP4 ADD DUP5 PUSH2 0x14FE JUMP JUMPDEST SWAP3 SWAP2 POP POP JUMP JUMPDEST PUSH0 PUSH1 0x40 MLOAD SWAP1 POP SWAP1 JUMP JUMPDEST PUSH0 PUSH0 REVERT JUMPDEST PUSH0 PUSH0 REVERT JUMPDEST PUSH0 DUP2 SWAP1 POP SWAP2 SWAP1 POP JUMP JUMPDEST PUSH2 0x1549 DUP2 PUSH2 0x1537 JUMP JUMPDEST DUP2 EQ PUSH2 0x1553 JUMPI PUSH0 PUSH0 REVERT JUMPDEST POP JUMP JUMPDEST PUSH0 DUP2 CALLDATALOAD SWAP1 POP PUSH2 0x1564 DUP2 PUSH2 0x1540 JUMP JUMPDEST SWAP3 SWAP2 POP POP JUMP JUMPDEST PUSH0 PUSH1 0x20 DUP3 DUP5 SUB SLT ISZERO PUSH2 0x157F JUMPI PUSH2 0x157E PUSH2 0x152F JUMP JUMPDEST JUMPDEST PUSH0 PUSH2 0x158C DUP5 DUP3 DUP6 ADD PUSH2 0x1556 JUMP JUMPDEST SWAP2 POP POP SWAP3 SWAP2 POP POP JUMP JUMPDEST PUSH2 0x159E DUP2 PUSH2 0x1537 JUMP JUMPDEST DUP3 MSTORE POP POP JUMP JUMPDEST PUSH0 DUP2 MLOAD SWAP1 POP SWAP2 SWAP1 POP JUMP JUMPDEST PUSH0 DUP3 DUP3 MSTORE PUSH1 0x20 DUP3 ADD SWAP1 POP SWAP3 SWAP2 POP POP JUMP JUMPDEST DUP3 DUP2 DUP4 MCOPY PUSH0 DUP4 DUP4 ADD MSTORE POP POP POP JUMP JUMPDEST PUSH0 PUSH1 0x1F NOT PUSH1 0x1F DUP4 ADD AND SWAP1 POP SWAP2 SWAP1 POP JUMP JUMPDEST PUSH0 PUSH2 0x15E6 DUP3 PUSH2 0x15A4 JUMP JUMPDEST PUSH2 0x15F0 DUP2 DUP6 PUSH2 0x15AE JUMP JUMPDEST SWAP4 POP PUSH2 0x1600 DUP2 DUP6 PUSH1 0x20 DUP7 ADD PUSH2 0x15BE JUMP JUMPDEST PUSH2 0x1609 DUP2 PUSH2 0x15CC JUMP JUMPDEST DUP5 ADD SWAP2 POP POP SWAP3 SWAP2 POP POP JUMP JUMPDEST PUSH0 DUP2 ISZERO ISZERO SWAP1 POP SWAP2 SWAP1 POP JUMP JUMPDEST PUSH2 0x1628 DUP2 PUSH2 0x1614 JUMP JUMPDEST DUP3 MSTORE POP POP JUMP JUMPDEST PUSH0 PUSH2 0x120 DUP4 ADD PUSH0 DUP4 ADD MLOAD PUSH2 0x1644 PUSH0 DUP7 ADD DUP3 PUSH2 0x1595 JUMP JUMPDEST POP PUSH1 0x20 DUP4 ADD MLOAD DUP5 DUP3 SUB PUSH1 0x20 DUP7 ADD MSTORE PUSH2 0x165C DUP3 DUP3 PUSH2 0x15DC JUMP JUMPDEST SWAP2 POP POP PUSH1 0x40 DUP4 ADD MLOAD DUP5 DUP3 SUB PUSH1 0x40 DUP7 ADD MSTORE PUSH2 0x1676 DUP3 DUP3 PUSH2 0x15DC JUMP JUMPDEST SWAP2 POP POP PUSH1 0x60 DUP4 ADD MLOAD DUP5 DUP3 SUB PUSH1 0x60 DUP7 ADD MSTORE PUSH2 0x1690 DUP3 DUP3 PUSH2 0x15DC JUMP JUMPDEST SWAP2 POP POP PUSH1 0x80 DUP4 ADD MLOAD PUSH2 0x16A5 PUSH1 0x80 DUP7 ADD DUP3 PUSH2 0x1595 JUMP JUMPDEST POP PUSH1 0xA0 DUP4 ADD MLOAD PUSH2 0x16B8 PUSH1 0xA0 DUP7 ADD DUP3 PUSH2 0x1595 JUMP JUMPDEST POP PUSH1 0xC0 DUP4 ADD MLOAD PUSH2 0x16CB PUSH1 0xC0 DUP7 ADD DUP3 PUSH2 0x1595 JUMP JUMPDEST POP PUSH1 0xE0 DUP4 ADD MLOAD PUSH2 0x16DE PUSH1 0xE0 DUP7 ADD DUP3 PUSH2 0x161F JUMP JUMPDEST POP PUSH2 0x100 DUP4 ADD MLOAD PUSH2 0x16F3 PUSH2 0x100 DUP7 ADD DUP3 PUSH2 0x1595 JUMP JUMPDEST POP DUP1 SWAP2 POP POP SWAP3 SWAP2 POP POP JUMP JUMPDEST PUSH0 PUSH1 0x20 DUP3 ADD SWAP1 POP DUP2 DUP2 SUB PUSH0 DUP4 ADD MSTORE PUSH2 0x1716 DUP2 DUP5 PUSH2 0x162E JUMP JUMPDEST SWAP1 POP SWAP3 SWAP2 POP POP JUMP JUMPDEST PUSH2 0x1727 DUP2 PUSH2 0x1537 JUMP JUMPDEST DUP3 MSTORE POP POP JUMP JUMPDEST PUSH0 PUSH1 0x20 DUP3 ADD SWAP1 POP PUSH2 0x1740 PUSH0 DUP4 ADD DUP5 PUSH2 0x171E JUMP JUMPDEST SWAP3 SWAP2 POP POP JUMP JUMPDEST PUSH0 DUP3 DUP3 MSTORE PUSH1 0x20 DUP3 ADD SWAP1 POP SWAP3 SWAP2 POP POP JUMP JUMPDEST PUSH0 PUSH2 0x1760 DUP3 PUSH2 0x15A4 JUMP JUMPDEST PUSH2 0x176A DUP2 DUP6 PUSH2 0x1746 JUMP JUMPDEST SWAP4 POP PUSH2 0x177A DUP2 DUP6 PUSH1 0x20 DUP7 ADD PUSH2 0x15BE JUMP JUMPDEST PUSH2 0x1783 DUP2 PUSH2 0x15CC JUMP JUMPDEST DUP5 ADD SWAP2 POP POP SWAP3 SWAP2 POP POP JUMP JUMPDEST PUSH2 0x1797 DUP2 PUSH2 0x1614 JUMP JUMPDEST DUP3 MSTORE POP POP JUMP JUMPDEST PUSH0 PUSH2 0x120 DUP3 ADD SWAP1 POP PUSH2 0x17B1 PUSH0 DUP4 ADD DUP13 PUSH2 0x171E JUMP JUMPDEST DUP2 DUP2 SUB PUSH1 0x20 DUP4 ADD MSTORE PUSH2 0x17C3 DUP2 DUP12 PUSH2 0x1756 JUMP JUMPDEST SWAP1 POP DUP2 DUP2 SUB PUSH1 0x40 DUP4 ADD MSTORE PUSH2 0x17D7 DUP2 DUP11 PUSH2 0x1756 JUMP JUMPDEST SWAP1 POP DUP2 DUP2 SUB PUSH1 0x60 DUP4 ADD MSTORE PUSH2 0x17EB DUP2 DUP10 PUSH2 0x1756 JUMP JUMPDEST SWAP1 POP PUSH2 0x17FA PUSH1 0x80 DUP4 ADD DUP9 PUSH2 0x171E JUMP JUMPDEST PUSH2 0x1807 PUSH1 0xA0 DUP4 ADD DUP8 PUSH2 0x171E JUMP JUMPDEST PUSH2 0x1814 PUSH1 0xC0 DUP4 ADD DUP7 PUSH2 0x171E JUMP JUMPDEST PUSH2 0x1821 PUSH1 0xE0 DUP4 ADD DUP6 PUSH2 0x178E JUMP JUMPDEST PUSH2 0x182F PUSH2 0x100 DUP4 ADD DUP5 PUSH2 0x171E JUMP JUMPDEST SWAP11 SWAP10 POP POP POP POP POP POP POP POP POP POP JUMP JUMPDEST PUSH0 DUP2 MLOAD SWAP1 POP SWAP2 SWAP1 POP JUMP JUMPDEST PUSH0 DUP3 DUP3 MSTORE PUSH1 0x20 DUP3 ADD SWAP1 POP SWAP3 SWAP2 POP POP JUMP JUMPDEST PUSH0 DUP2 SWAP1 POP PUSH1 0x20 DUP3 ADD SWAP1 POP SWAP2 SWAP1 POP JUMP JUMPDEST PUSH0 PUSH2 0x120 DUP4 ADD PUSH0 DUP4 ADD MLOAD PUSH2 0x187C PUSH0 DUP7 ADD DUP3 PUSH2 0x1595 JUMP JUMPDEST POP PUSH1 0x20 DUP4 ADD MLOAD DUP5 DUP3 SUB PUSH1 0x20 DUP7 ADD MSTORE PUSH2 0x1894 DUP3 DUP3 PUSH2 0x15DC JUMP JUMPDEST SWAP2 POP POP PUSH1 0x40 DUP4 ADD MLOAD DUP5 DUP3 SUB PUSH1 0x40 DUP7 ADD MSTORE PUSH2 0x18AE DUP3 DUP3 PUSH2 0x15DC JUMP JUMPDEST SWAP2 POP POP PUSH1 0x60 DUP4 ADD MLOAD DUP5 DUP3 SUB PUSH1 0x60 DUP7 ADD MSTORE PUSH2 0x18C8 DUP3 DUP3 PUSH2 0x15DC JUMP JUMPDEST SWAP2 POP POP PUSH1 0x80 DUP4 ADD MLOAD PUSH2 0x18DD PUSH1 0x80 DUP7 ADD DUP3 PUSH2 0x1595 JUMP JUMPDEST POP PUSH1 0xA0 DUP4 ADD MLOAD PUSH2 0x18F0 PUSH1 0xA0 DUP7 ADD DUP3 PUSH2 0x1595 JUMP JUMPDEST POP PUSH1 0xC0 DUP4 ADD MLOAD PUSH2 0x1903 PUSH1 0xC0 DUP7 ADD DUP3 PUSH2 0x1595 JUMP JUMPDEST POP PUSH1 0xE0 DUP4 ADD MLOAD PUSH2 0x1916 PUSH1 0xE0 DUP7 ADD DUP3 PUSH2 0x161F JUMP JUMPDEST POP PUSH2 0x100 DUP4 ADD MLOAD PUSH2 0x192B PUSH2 0x100 DUP7 ADD DUP3 PUSH2 0x1595 JUMP JUMPDEST POP DUP1 SWAP2 POP POP SWAP3 SWAP2 POP POP JUMP JUMPDEST PUSH0 PUSH2 0x1941 DUP4 DUP4 PUSH2 0x1866 JUMP JUMPDEST SWAP1 POP SWAP3 SWAP2 POP POP JUMP JUMPDEST PUSH0 PUSH1 0x20 DUP3 ADD SWAP1 POP SWAP2 SWAP1 POP JUMP JUMPDEST PUSH0 PUSH2 0x195F DUP3 PUSH2 0x183D JUMP JUMPDEST PUSH2 0x1969 DUP2 DUP6 PUSH2 0x1847 JUMP JUMPDEST SWAP4 POP DUP4 PUSH1 0x20 DUP3 MUL DUP6 ADD PUSH2 0x197B DUP6 PUSH2 0x1857 JUMP JUMPDEST DUP1 PUSH0 JUMPDEST DUP6 DUP2 LT ISZERO PUSH2 0x19B6 JUMPI DUP5 DUP5 SUB DUP10 MSTORE DUP2 MLOAD PUSH2 0x1997 DUP6 DUP3 PUSH2 0x1936 JUMP JUMPDEST SWAP5 POP PUSH2 0x19A2 DUP4 PUSH2 0x1949 JUMP JUMPDEST SWAP3 POP PUSH1 0x20 DUP11 ADD SWAP10 POP POP PUSH1 0x1 DUP2 ADD SWAP1 POP PUSH2 0x197E JUMP JUMPDEST POP DUP3 SWAP8 POP DUP8 SWAP6 POP POP POP POP POP POP SWAP3 SWAP2 POP POP JUMP JUMPDEST PUSH0 PUSH1 0x20 DUP3 ADD SWAP1 POP DUP2 DUP2 SUB PUSH0 DUP4 ADD MSTORE PUSH2 0x19E0 DUP2 DUP5 PUSH2 0x1955 JUMP JUMPDEST SWAP1 POP SWAP3 SWAP2 POP POP JUMP JUMPDEST PUSH0 PUSH0 PUSH1 0x40 DUP4 DUP6 SUB SLT ISZERO PUSH2 0x19FE JUMPI PUSH2 0x19FD PUSH2 0x152F JUMP JUMPDEST JUMPDEST PUSH0 PUSH2 0x1A0B DUP6 DUP3 DUP7 ADD PUSH2 0x1556 JUMP JUMPDEST SWAP3 POP POP PUSH1 0x20 PUSH2 0x1A1C DUP6 DUP3 DUP7 ADD PUSH2 0x1556 JUMP JUMPDEST SWAP2 POP POP SWAP3 POP SWAP3 SWAP1 POP JUMP JUMPDEST PUSH0 PUSH2 0x1A30 DUP3 PUSH2 0x14CE JUMP JUMPDEST SWAP1 POP SWAP2 SWAP1 POP JUMP JUMPDEST PUSH2 0x1A40 DUP2 PUSH2 0x1A26 JUMP JUMPDEST DUP3 MSTORE POP POP JUMP JUMPDEST PUSH0 PUSH1 0x20 DUP3 ADD SWAP1 POP PUSH2 0x1A59 PUSH0 DUP4 ADD DUP5 PUSH2 0x1A37 JUMP JUMPDEST SWAP3 SWAP2 POP POP JUMP JUMPDEST PUSH0 PUSH0 REVERT JUMPDEST PUSH0 PUSH0 REVERT JUMPDEST PUSH32 0x4E487B7100000000000000000000000000000000000000000000000000000000 PUSH0 MSTORE PUSH1 0x41 PUSH1 0x4 MSTORE PUSH1 0x24 PUSH0 REVERT JUMPDEST PUSH2 0x1A9D DUP3 PUSH2 0x15CC JUMP JUMPDEST DUP2 ADD DUP2 DUP2 LT PUSH8 0xFFFFFFFFFFFFFFFF DUP3 GT OR ISZERO PUSH2 0x1ABC JUMPI PUSH2 0x1ABB PUSH2 0x1A67 JUMP JUMPDEST JUMPDEST DUP1 PUSH1 0x40 MSTORE POP POP POP JUMP JUMPDEST PUSH0 PUSH2 0x1ACE PUSH2 0x1526 JUMP JUMPDEST SWAP1 POP PUSH2 0x1ADA DUP3 DUP3 PUSH2 0x1A94 JUMP JUMPDEST SWAP2 SWAP1 POP JUMP JUMPDEST PUSH0 PUSH8 0xFFFFFFFFFFFFFFFF DUP3 GT ISZERO PUSH2 0x1AF9 JUMPI PUSH2 0x1AF8 PUSH2 0x1A67 JUMP JUMPDEST JUMPDEST PUSH2 0x1B02 DUP3 PUSH2 0x15CC JUMP JUMPDEST SWAP1 POP PUSH1 0x20 DUP2 ADD SWAP1 POP SWAP2 SWAP1 POP JUMP JUMPDEST DUP3 DUP2 DUP4 CALLDATACOPY PUSH0 DUP4 DUP4 ADD MSTORE POP POP POP JUMP JUMPDEST PUSH0 PUSH2 0x1B2F PUSH2 0x1B2A DUP5 PUSH2 0x1ADF JUMP JUMPDEST PUSH2 0x1AC5 JUMP JUMPDEST SWAP1 POP DUP3 DUP2 MSTORE PUSH1 0x20 DUP2 ADD DUP5 DUP5 DUP5 ADD GT ISZERO PUSH2 0x1B4B JUMPI PUSH2 0x1B4A PUSH2 0x1A63 JUMP JUMPDEST JUMPDEST PUSH2 0x1B56 DUP5 DUP3 DUP6 PUSH2 0x1B0F JUMP JUMPDEST POP SWAP4 SWAP3 POP POP POP JUMP JUMPDEST PUSH0 DUP3 PUSH1 0x1F DUP4 ADD SLT PUSH2 0x1B72 JUMPI PUSH2 0x1B71 PUSH2 0x1A5F JUMP JUMPDEST JUMPDEST DUP2 CALLDATALOAD PUSH2 0x1B82 DUP5 DUP3 PUSH1 0x20 DUP7 ADD PUSH2 0x1B1D JUMP JUMPDEST SWAP2 POP POP SWAP3 SWAP2 POP POP JUMP JUMPDEST PUSH0 PUSH0 PUSH0 PUSH0 PUSH0 PUSH0 PUSH1 0xC0 DUP8 DUP10 SUB SLT ISZERO PUSH2 0x1BA5 JUMPI PUSH2 0x1BA4 PUSH2 0x152F JUMP JUMPDEST JUMPDEST PUSH0 DUP8 ADD CALLDATALOAD PUSH8 0xFFFFFFFFFFFFFFFF DUP2 GT ISZERO PUSH2 0x1BC2 JUMPI PUSH2 0x1BC1 PUSH2 0x1533 JUMP JUMPDEST JUMPDEST PUSH2 0x1BCE DUP10 DUP3 DUP11 ADD PUSH2 0x1B5E JUMP JUMPDEST SWAP7 POP POP PUSH1 0x20 DUP8 ADD CALLDATALOAD PUSH8 0xFFFFFFFFFFFFFFFF DUP2 GT ISZERO PUSH2 0x1BEF JUMPI PUSH2 0x1BEE PUSH2 0x1533 JUMP JUMPDEST JUMPDEST PUSH2 0x1BFB DUP10 DUP3 DUP11 ADD PUSH2 0x1B5E JUMP JUMPDEST SWAP6 POP POP PUSH1 0x40 DUP8 ADD CALLDATALOAD PUSH8 0xFFFFFFFFFFFFFFFF DUP2 GT ISZERO PUSH2 0x1C1C JUMPI PUSH2 0x1C1B PUSH2 0x1533 JUMP JUMPDEST JUMPDEST PUSH2 0x1C28 DUP10 DUP3 DUP11 ADD PUSH2 0x1B5E JUMP JUMPDEST SWAP5 POP POP PUSH1 0x60 PUSH2 0x1C39 DUP10 DUP3 DUP11 ADD PUSH2 0x1556 JUMP JUMPDEST SWAP4 POP POP PUSH1 0x80 PUSH2 0x1C4A DUP10 DUP3 DUP11 ADD PUSH2 0x1556 JUMP JUMPDEST SWAP3 POP POP PUSH1 0xA0 PUSH2 0x1C5B DUP10 DUP3 DUP11 ADD PUSH2 0x1556 JUMP JUMPDEST SWAP2 POP POP SWAP3 SWAP6 POP SWAP3 SWAP6 POP SWAP3 SWAP6 JUMP JUMPDEST PUSH0 DUP2 SWAP1 POP SWAP2 SWAP1 POP JUMP JUMPDEST PUSH0 PUSH2 0x1C8B PUSH2 0x1C86 PUSH2 0x1C81 DUP5 PUSH2 0x14CE JUMP JUMPDEST PUSH2 0x1C68 JUMP JUMPDEST PUSH2 0x14CE JUMP JUMPDEST SWAP1 POP SWAP2 SWAP1 POP JUMP JUMPDEST PUSH0 PUSH2 0x1C9C DUP3 PUSH2 0x1C71 JUMP JUMPDEST SWAP1 POP SWAP2 SWAP1 POP JUMP JUMPDEST PUSH0 PUSH2 0x1CAD DUP3 PUSH2 0x1C92 JUMP JUMPDEST SWAP1 POP SWAP2 SWAP1 POP JUMP JUMPDEST PUSH2 0x1CBD DUP2 PUSH2 0x1CA3 JUMP JUMPDEST DUP3 MSTORE POP POP JUMP JUMPDEST PUSH0 PUSH1 0x20 DUP3 ADD SWAP1 POP PUSH2 0x1CD6 PUSH0 DUP4 ADD DUP5 PUSH2 0x1CB4 JUMP JUMPDEST SWAP3 SWAP2 POP POP JUMP JUMPDEST PUSH32 0x426F6F6B206E6F7420666F756E64000000000000000000000000000000000000 PUSH0 DUP3 ADD MSTORE POP JUMP JUMPDEST PUSH0 PUSH2 0x1D10 PUSH1 0xE DUP4 PUSH2 0x1746 JUMP JUMPDEST SWAP2 POP PUSH2 0x1D1B DUP3 PUSH2 0x1CDC JUMP JUMPDEST PUSH1 0x20 DUP3 ADD SWAP1 POP SWAP2 SWAP1 POP JUMP JUMPDEST PUSH0 PUSH1 0x20 DUP3 ADD SWAP1 POP DUP2 DUP2 SUB PUSH0 DUP4 ADD MSTORE PUSH2 0x1D3D DUP2 PUSH2 0x1D04 JUMP JUMPDEST SWAP1 POP SWAP2 SWAP1 POP JUMP JUMPDEST PUSH32 0x4E487B7100000000000000000000000000000000000000000000000000000000 PUSH0 MSTORE PUSH1 0x22 PUSH1 0x4 MSTORE PUSH1 0x24 PUSH0 REVERT JUMPDEST PUSH0 PUSH1 0x2 DUP3 DIV SWAP1 POP PUSH1 0x1 DUP3 AND DUP1 PUSH2 0x1D88 JUMPI PUSH1 0x7F DUP3 AND SWAP2 POP JUMPDEST PUSH1 0x20 DUP3 LT DUP2 SUB PUSH2 0x1D9B JUMPI PUSH2 0x1D9A PUSH2 0x1D44 JUMP JUMPDEST JUMPDEST POP SWAP2 SWAP1 POP JUMP JUMPDEST PUSH32 0x426F6F6B206E6F7420666F756E64210000000000000000000000000000000000 PUSH0 DUP3 ADD MSTORE POP JUMP JUMPDEST PUSH0 PUSH2 0x1DD5 PUSH1 0xF DUP4 PUSH2 0x1746 JUMP JUMPDEST SWAP2 POP PUSH2 0x1DE0 DUP3 PUSH2 0x1DA1 JUMP JUMPDEST PUSH1 0x20 DUP3 ADD SWAP1 POP SWAP2 SWAP1 POP JUMP JUMPDEST PUSH0 PUSH1 0x20 DUP3 ADD SWAP1 POP DUP2 DUP2 SUB PUSH0 DUP4 ADD MSTORE PUSH2 0x1E02 DUP2 PUSH2 0x1DC9 JUMP JUMPDEST SWAP1 POP SWAP2 SWAP1 POP JUMP JUMPDEST PUSH32 0x426F6F6B206E6F7420617661696C61626C652100000000000000000000000000 PUSH0 DUP3 ADD MSTORE POP JUMP JUMPDEST PUSH0 PUSH2 0x1E3D PUSH1 0x13 DUP4 PUSH2 0x1746 JUMP JUMPDEST SWAP2 POP PUSH2 0x1E48 DUP3 PUSH2 0x1E09 JUMP JUMPDEST PUSH1 0x20 DUP3 ADD SWAP1 POP SWAP2 SWAP1 POP JUMP JUMPDEST PUSH0 PUSH1 0x20 DUP3 ADD SWAP1 POP DUP2 DUP2 SUB PUSH0 DUP4 ADD MSTORE PUSH2 0x1E6A DUP2 PUSH2 0x1E31 JUMP JUMPDEST SWAP1 POP SWAP2 SWAP1 POP JUMP JUMPDEST PUSH2 0x1E7A DUP2 PUSH2 0x1614 JUMP JUMPDEST DUP2 EQ PUSH2 0x1E84 JUMPI PUSH0 PUSH0 REVERT JUMPDEST POP JUMP JUMPDEST PUSH0 DUP2 MLOAD SWAP1 POP PUSH2 0x1E95 DUP2 PUSH2 0x1E71 JUMP JUMPDEST SWAP3 SWAP2 POP POP JUMP JUMPDEST PUSH0 PUSH1 0x20 DUP3 DUP5 SUB SLT ISZERO PUSH2 0x1EB0 JUMPI PUSH2 0x1EAF PUSH2 0x152F JUMP JUMPDEST JUMPDEST PUSH0 PUSH2 0x1EBD DUP5 DUP3 DUP6 ADD PUSH2 0x1E87 JUMP JUMPDEST SWAP2 POP POP SWAP3 SWAP2 POP POP JUMP JUMPDEST PUSH32 0x4E6F7420656E6F756768204554482073656E7400000000000000000000000000 PUSH0 DUP3 ADD MSTORE POP JUMP JUMPDEST PUSH0 PUSH2 0x1EFA PUSH1 0x13 DUP4 PUSH2 0x1746 JUMP JUMPDEST SWAP2 POP PUSH2 0x1F05 DUP3 PUSH2 0x1EC6 JUMP JUMPDEST PUSH1 0x20 DUP3 ADD SWAP1 POP SWAP2 SWAP1 POP JUMP JUMPDEST PUSH0 PUSH1 0x20 DUP3 ADD SWAP1 POP DUP2 DUP2 SUB PUSH0 DUP4 ADD MSTORE PUSH2 0x1F27 DUP2 PUSH2 0x1EEE JUMP JUMPDEST SWAP1 POP SWAP2 SWAP1 POP JUMP JUMPDEST PUSH32 0x4E487B7100000000000000000000000000000000000000000000000000000000 PUSH0 MSTORE PUSH1 0x11 PUSH1 0x4 MSTORE PUSH1 0x24 PUSH0 REVERT JUMPDEST PUSH0 PUSH2 0x1F65 DUP3 PUSH2 0x1537 JUMP JUMPDEST SWAP2 POP PUSH2 0x1F70 DUP4 PUSH2 0x1537 JUMP JUMPDEST SWAP3 POP DUP3 DUP3 SUB SWAP1 POP DUP2 DUP2 GT ISZERO PUSH2 0x1F88 JUMPI PUSH2 0x1F87 PUSH2 0x1F2E JUMP JUMPDEST JUMPDEST SWAP3 SWAP2 POP POP JUMP JUMPDEST PUSH0 DUP2 SWAP1 POP SWAP3 SWAP2 POP POP JUMP JUMPDEST POP JUMP JUMPDEST PUSH0 PUSH2 0x1FA6 PUSH0 DUP4 PUSH2 0x1F8E JUMP JUMPDEST SWAP2 POP PUSH2 0x1FB1 DUP3 PUSH2 0x1F98 JUMP JUMPDEST PUSH0 DUP3 ADD SWAP1 POP SWAP2 SWAP1 POP JUMP JUMPDEST PUSH0 PUSH2 0x1FC5 DUP3 PUSH2 0x1F9B JUMP JUMPDEST SWAP2 POP DUP2 SWAP1 POP SWAP2 SWAP1 POP JUMP JUMPDEST PUSH32 0x4661696C656420746F2073656E642045544820746F206C696272617279000000 PUSH0 DUP3 ADD MSTORE POP JUMP JUMPDEST PUSH0 PUSH2 0x2003 PUSH1 0x1D DUP4 PUSH2 0x1746 JUMP JUMPDEST SWAP2 POP PUSH2 0x200E DUP3 PUSH2 0x1FCF JUMP JUMPDEST PUSH1 0x20 DUP3 ADD SWAP1 POP SWAP2 SWAP1 POP JUMP JUMPDEST PUSH0 PUSH1 0x20 DUP3 ADD SWAP1 POP DUP2 DUP2 SUB PUSH0 DUP4 ADD MSTORE PUSH2 0x2030 DUP2 PUSH2 0x1FF7 JUMP JUMPDEST SWAP1 POP SWAP2 SWAP1 POP JUMP JUMPDEST PUSH32 0x4661696C656420746F20726566756E6420657863657373204554480000000000 PUSH0 DUP3 ADD MSTORE POP JUMP JUMPDEST PUSH0 PUSH2 0x206B PUSH1 0x1B DUP4 PUSH2 0x1746 JUMP JUMPDEST SWAP2 POP PUSH2 0x2076 DUP3 PUSH2 0x2037 JUMP JUMPDEST PUSH1 0x20 DUP3 ADD SWAP1 POP SWAP2 SWAP1 POP JUMP JUMPDEST PUSH0 PUSH1 0x20 DUP3 ADD SWAP1 POP DUP2 DUP2 SUB PUSH0 DUP4 ADD MSTORE PUSH2 0x2098 DUP2 PUSH2 0x205F JUMP JUMPDEST SWAP1 POP SWAP2 SWAP1 POP JUMP JUMPDEST PUSH32 0x4E487B7100000000000000000000000000000000000000000000000000000000 PUSH0 MSTORE PUSH1 0x32 PUSH1 0x4 MSTORE PUSH1 0x24 PUSH0 REVERT JUMPDEST PUSH32 0x4E6F74206C6962726172792061646D696E000000000000000000000000000000 PUSH0 DUP3 ADD MSTORE POP JUMP JUMPDEST PUSH0 PUSH2 0x2100 PUSH1 0x11 DUP4 PUSH2 0x1746 JUMP JUMPDEST SWAP2 POP PUSH2 0x210B DUP3 PUSH2 0x20CC JUMP JUMPDEST PUSH1 0x20 DUP3 ADD SWAP1 POP SWAP2 SWAP1 POP JUMP JUMPDEST PUSH0 PUSH1 0x20 DUP3 ADD SWAP1 POP DUP2 DUP2 SUB PUSH0 DUP4 ADD MSTORE PUSH2 0x212D DUP2 PUSH2 0x20F4 JUMP JUMPDEST SWAP1 POP SWAP2 SWAP1 POP JUMP JUMPDEST PUSH32 0x5469746C652063616E6E6F7420626520656D7074792100000000000000000000 PUSH0 DUP3 ADD MSTORE POP JUMP JUMPDEST PUSH0 PUSH2 0x2168 PUSH1 0x16 DUP4 PUSH2 0x1746 JUMP JUMPDEST SWAP2 POP PUSH2 0x2173 DUP3 PUSH2 0x2134 JUMP JUMPDEST PUSH1 0x20 DUP3 ADD SWAP1 POP SWAP2 SWAP1 POP JUMP JUMPDEST PUSH0 PUSH1 0x20 DUP3 ADD SWAP1 POP DUP2 DUP2 SUB PUSH0 DUP4 ADD MSTORE PUSH2 0x2195 DUP2 PUSH2 0x215C JUMP JUMPDEST SWAP1 POP SWAP2 SWAP1 POP JUMP JUMPDEST PUSH32 0x417574686F722063616E6E6F7420626520656D70747921000000000000000000 PUSH0 DUP3 ADD MSTORE POP JUMP JUMPDEST PUSH0 PUSH2 0x21D0 PUSH1 0x17 DUP4 PUSH2 0x1746 JUMP JUMPDEST SWAP2 POP PUSH2 0x21DB DUP3 PUSH2 0x219C JUMP JUMPDEST PUSH1 0x20 DUP3 ADD SWAP1 POP SWAP2 SWAP1 POP JUMP JUMPDEST PUSH0 PUSH1 0x20 DUP3 ADD SWAP1 POP DUP2 DUP2 SUB PUSH0 DUP4 ADD MSTORE PUSH2 0x21FD DUP2 PUSH2 0x21C4 JUMP JUMPDEST SWAP1 POP SWAP2 SWAP1 POP JUMP JUMPDEST PUSH32 0x47656E72652063616E6E6F7420626520656D7074792100000000000000000000 PUSH0 DUP3 ADD MSTORE POP JUMP JUMPDEST PUSH0 PUSH2 0x2238 PUSH1 0x16 DUP4 PUSH2 0x1746 JUMP JUMPDEST SWAP2 POP PUSH2 0x2243 DUP3 PUSH2 0x2204 JUMP JUMPDEST PUSH1 0x20 DUP3 ADD SWAP1 POP SWAP2 SWAP1 POP JUMP JUMPDEST PUSH0 PUSH1 0x20 DUP3 ADD SWAP1 POP DUP2 DUP2 SUB PUSH0 DUP4 ADD MSTORE PUSH2 0x2265 DUP2 PUSH2 0x222C JUMP JUMPDEST SWAP1 POP SWAP2 SWAP1 POP JUMP JUMPDEST PUSH32 0x5175616E74697479206D7573742062652067726561746572207468616E203000 PUSH0 DUP3 ADD MSTORE POP JUMP JUMPDEST PUSH0 PUSH2 0x22A0 PUSH1 0x1F DUP4 PUSH2 0x1746 JUMP JUMPDEST SWAP2 POP PUSH2 0x22AB DUP3 PUSH2 0x226C JUMP JUMPDEST PUSH1 0x20 DUP3 ADD SWAP1 POP SWAP2 SWAP1 POP JUMP JUMPDEST PUSH0 PUSH1 0x20 DUP3 ADD SWAP1 POP DUP2 DUP2 SUB PUSH0 DUP4 ADD MSTORE PUSH2 0x22CD DUP2 PUSH2 0x2294 JUMP JUMPDEST SWAP1 POP SWAP2 SWAP1 POP JUMP JUMPDEST PUSH32 0x5072696365206D7573742062652067726561746572207468616E203000000000 PUSH0 DUP3 ADD MSTORE POP JUMP JUMPDEST PUSH0 PUSH2 0x2308 PUSH1 0x1C DUP4 PUSH2 0x1746 JUMP JUMPDEST SWAP2 POP PUSH2 0x2313 DUP3 PUSH2 0x22D4 JUMP JUMPDEST PUSH1 0x20 DUP3 ADD SWAP1 POP SWAP2 SWAP1 POP JUMP JUMPDEST PUSH0 PUSH1 0x20 DUP3 ADD SWAP1 POP DUP2 DUP2 SUB PUSH0 DUP4 ADD MSTORE PUSH2 0x2335 DUP2 PUSH2 0x22FC JUMP JUMPDEST SWAP1 POP SWAP2 SWAP1 POP JUMP JUMPDEST PUSH0 DUP2 SWAP1 POP SWAP3 SWAP2 POP POP JUMP JUMPDEST PUSH0 PUSH2 0x2350 DUP3 PUSH2 0x15A4 JUMP JUMPDEST PUSH2 0x235A DUP2 DUP6 PUSH2 0x233C JUMP JUMPDEST SWAP4 POP PUSH2 0x236A DUP2 DUP6 PUSH1 0x20 DUP7 ADD PUSH2 0x15BE JUMP JUMPDEST DUP1 DUP5 ADD SWAP2 POP POP SWAP3 SWAP2 POP POP JUMP JUMPDEST PUSH0 PUSH2 0x2381 DUP3 DUP6 PUSH2 0x2346 JUMP JUMPDEST SWAP2 POP PUSH2 0x238D DUP3 DUP5 PUSH2 0x2346 JUMP JUMPDEST SWAP2 POP DUP2 SWAP1 POP SWAP4 SWAP3 POP POP POP JUMP JUMPDEST PUSH32 0x5468697320626F6F6B206279207468697320617574686F7220616C7265616479 PUSH0 DUP3 ADD MSTORE PUSH32 0x2065786973747321000000000000000000000000000000000000000000000000 PUSH1 0x20 DUP3 ADD MSTORE POP JUMP JUMPDEST PUSH0 PUSH2 0x23F3 PUSH1 0x28 DUP4 PUSH2 0x1746 JUMP JUMPDEST SWAP2 POP PUSH2 0x23FE DUP3 PUSH2 0x2399 JUMP JUMPDEST PUSH1 0x40 DUP3 ADD SWAP1 POP SWAP2 SWAP1 POP JUMP JUMPDEST PUSH0 PUSH1 0x20 DUP3 ADD SWAP1 POP DUP2 DUP2 SUB PUSH0 DUP4 ADD MSTORE PUSH2 0x2420 DUP2 PUSH2 0x23E7 JUMP JUMPDEST SWAP1 POP SWAP2 SWAP1 POP JUMP JUMPDEST PUSH0 PUSH2 0x2431 DUP3 PUSH2 0x1537 JUMP JUMPDEST SWAP2 POP PUSH2 0x243C DUP4 PUSH2 0x1537 JUMP JUMPDEST SWAP3 POP DUP3 DUP3 ADD SWAP1 POP DUP1 DUP3 GT ISZERO PUSH2 0x2454 JUMPI PUSH2 0x2453 PUSH2 0x1F2E JUMP JUMPDEST JUMPDEST SWAP3 SWAP2 POP POP JUMP JUMPDEST PUSH0 DUP2 SWAP1 POP DUP2 PUSH0 MSTORE PUSH1 0x20 PUSH0 KECCAK256 SWAP1 POP SWAP2 SWAP1 POP JUMP JUMPDEST PUSH0 PUSH1 0x20 PUSH1 0x1F DUP4 ADD DIV SWAP1 POP SWAP2 SWAP1 POP JUMP JUMPDEST PUSH0 DUP3 DUP3 SHL SWAP1 POP SWAP3 SWAP2 POP POP JUMP JUMPDEST PUSH0 PUSH1 0x8 DUP4 MUL PUSH2 0x24B6 PUSH32 0xFFFFFFFFFFFFFFFFFFFFFFFFFFFFFFFFFFFFFFFFFFFFFFFFFFFFFFFFFFFFFFFF DUP3 PUSH2 0x247B JUMP JUMPDEST PUSH2 0x24C0 DUP7 DUP4 PUSH2 0x247B JUMP JUMPDEST SWAP6 POP DUP1 NOT DUP5 AND SWAP4 POP DUP1 DUP7 AND DUP5 OR SWAP3 POP POP POP SWAP4 SWAP3 POP POP POP JUMP JUMPDEST PUSH0 PUSH2 0x24F2 PUSH2 0x24ED PUSH2 0x24E8 DUP5 PUSH2 0x1537 JUMP JUMPDEST PUSH2 0x1C68 JUMP JUMPDEST PUSH2 0x1537 JUMP JUMPDEST SWAP1 POP SWAP2 SWAP1 POP JUMP JUMPDEST PUSH0 DUP2 SWAP1 POP SWAP2 SWAP1 POP JUMP JUMPDEST PUSH2 0x250B DUP4 PUSH2 0x24D8 JUMP JUMPDEST PUSH2 0x251F PUSH2 0x2517 DUP3 PUSH2 0x24F9 JUMP JUMPDEST DUP5 DUP5 SLOAD PUSH2 0x2487 JUMP JUMPDEST DUP3 SSTORE POP POP POP POP JUMP JUMPDEST PUSH0 PUSH0 SWAP1 POP SWAP1 JUMP JUMPDEST PUSH2 0x2536 PUSH2 0x2527 JUMP JUMPDEST PUSH2 0x2541 DUP2 DUP5 DUP5 PUSH2 0x2502 JUMP JUMPDEST POP POP POP JUMP JUMPDEST JUMPDEST DUP2 DUP2 LT ISZERO PUSH2 0x2564 JUMPI PUSH2 0x2559 PUSH0 DUP3 PUSH2 0x252E JUMP JUMPDEST PUSH1 0x1 DUP2 ADD SWAP1 POP PUSH2 0x2547 JUMP JUMPDEST POP POP JUMP JUMPDEST PUSH1 0x1F DUP3 GT ISZERO PUSH2 0x25A9 JUMPI PUSH2 0x257A DUP2 PUSH2 0x245A JUMP JUMPDEST PUSH2 0x2583 DUP5 PUSH2 0x246C JUMP JUMPDEST DUP2 ADD PUSH1 0x20 DUP6 LT ISZERO PUSH2 0x2592 JUMPI DUP2 SWAP1 POP JUMPDEST PUSH2 0x25A6 PUSH2 0x259E DUP6 PUSH2 0x246C JUMP JUMPDEST DUP4 ADD DUP3 PUSH2 0x2546 JUMP JUMPDEST POP POP JUMPDEST POP POP POP JUMP JUMPDEST PUSH0 DUP3 DUP3 SHR SWAP1 POP SWAP3 SWAP2 POP POP JUMP JUMPDEST PUSH0 PUSH2 0x25C9 PUSH0 NOT DUP5 PUSH1 0x8 MUL PUSH2 0x25AE JUMP JUMPDEST NOT DUP1 DUP4 AND SWAP2 POP POP SWAP3 SWAP2 POP POP JUMP JUMPDEST PUSH0 PUSH2 0x25E1 DUP4 DUP4 PUSH2 0x25BA JUMP JUMPDEST SWAP2 POP DUP3 PUSH1 0x2 MUL DUP3 OR SWAP1 POP SWAP3 SWAP2 POP POP JUMP JUMPDEST PUSH2 0x25FA DUP3 PUSH2 0x15A4 JUMP JUMPDEST PUSH8 0xFFFFFFFFFFFFFFFF DUP2 GT ISZERO PUSH2 0x2613 JUMPI PUSH2 0x2612 PUSH2 0x1A67 JUMP JUMPDEST JUMPDEST PUSH2 0x261D DUP3 SLOAD PUSH2 0x1D71 JUMP JUMPDEST PUSH2 0x2628 DUP3 DUP3 DUP6 PUSH2 0x2568 JUMP JUMPDEST PUSH0 PUSH1 0x20 SWAP1 POP PUSH1 0x1F DUP4 GT PUSH1 0x1 DUP2 EQ PUSH2 0x2659 JUMPI PUSH0 DUP5 ISZERO PUSH2 0x2647 JUMPI DUP3 DUP8 ADD MLOAD SWAP1 POP JUMPDEST PUSH2 0x2651 DUP6 DUP3 PUSH2 0x25D6 JUMP JUMPDEST DUP7 SSTORE POP PUSH2 0x26B8 JUMP JUMPDEST PUSH1 0x1F NOT DUP5 AND PUSH2 0x2667 DUP7 PUSH2 0x245A JUMP JUMPDEST PUSH0 JUMPDEST DUP3 DUP2 LT ISZERO PUSH2 0x268E JUMPI DUP5 DUP10 ADD MLOAD DUP3 SSTORE PUSH1 0x1 DUP3 ADD SWAP2 POP PUSH1 0x20 DUP6 ADD SWAP5 POP PUSH1 0x20 DUP2 ADD SWAP1 POP PUSH2 0x2669 JUMP JUMPDEST DUP7 DUP4 LT ISZERO PUSH2 0x26AB JUMPI DUP5 DUP10 ADD MLOAD PUSH2 0x26A7 PUSH1 0x1F DUP10 AND DUP3 PUSH2 0x25BA JUMP JUMPDEST DUP4 SSTORE POP JUMPDEST PUSH1 0x1 PUSH1 0x2 DUP9 MUL ADD DUP9 SSTORE POP POP POP JUMPDEST POP POP POP POP POP POP JUMP INVALID LOG2 PUSH5 0x6970667358 0x22 SLT KECCAK256 SDIV BYTE CALLVALUE JUMPF 0xB4DC PUSH5 0x5B5A2CCCD5 PUSH3 0x98426E 0x2D STOP 0xC5 SWAP8 PUSH27 0x47CFAD060B8BB1D5593D4964736F6C634300081F00330000000000 "
				},
				"gasEstimates": {
					"creation": {
						"codeDepositCost": "1994800",
						"executionCost": "infinite",
						"totalCost": "infinite"
					},
					"external": {
						"addBook(string,string,string,uint256,uint256,uint256)": "infinite",
						"bookCounter()": "2512",
						"bookIds(uint256)": "infinite",
						"books(uint256)": "infinite",
						"borrowBook(uint256)": "infinite",
						"borrowedHistory(uint256,uint256)": "infinite",
						"buyBook()": "165",
						"getBookById(uint256)": "infinite",
						"getBooks()": "infinite",
						"libraryAdmin()": "2532",
						"memberContract()": "infinite",
						"nonMemberBorrowFee()": "2514",
						"restock(uint256,uint256)": "infinite",
						"returnBook(uint256)": "445"
					}
				},
				"methodIdentifiers": {
					"addBook(string,string,string,uint256,uint256,uint256)": "a9d00e66",
					"bookCounter()": "ef2ede05",
					"bookIds(uint256)": "513073b8",
					"books(uint256)": "68744046",
					"borrowBook(uint256)": "7e490a9e",
					"borrowedHistory(uint256,uint256)": "a1ef3577",
					"buyBook()": "189a55e7",
					"getBookById(uint256)": "418b79ab",
					"getBooks()": "9f349789",
					"libraryAdmin()": "1792a6da",
					"memberContract()": "c40cf4eb",
					"nonMemberBorrowFee()": "85d04bae",
					"restock(uint256,uint256)": "ddd5987f",
					"returnBook(uint256)": "ca5140c9"
				}
			},
			"storageLayout": {
				"storage": [
					{
						"astId": 5,
						"contract": "Book.sol:BookContract",
						"label": "bookCounter",
						"offset": 0,
						"slot": "0",
						"type": "t_uint256"
					},
					{
						"astId": 8,
						"contract": "Book.sol:BookContract",
						"label": "memberContract",
						"offset": 0,
						"slot": "1",
						"type": "t_contract(MemberContract)523"
					},
					{
						"astId": 10,
						"contract": "Book.sol:BookContract",
						"label": "libraryAdmin",
						"offset": 0,
						"slot": "2",
						"type": "t_address_payable"
					},
					{
						"astId": 12,
						"contract": "Book.sol:BookContract",
						"label": "nonMemberBorrowFee",
						"offset": 0,
						"slot": "3",
						"type": "t_uint256"
					},
					{
						"astId": 58,
						"contract": "Book.sol:BookContract",
						"label": "bookIds",
						"offset": 0,
						"slot": "4",
						"type": "t_array(t_uint256)dyn_storage"
					},
					{
						"astId": 63,
						"contract": "Book.sol:BookContract",
						"label": "books",
						"offset": 0,
						"slot": "5",
						"type": "t_mapping(t_uint256,t_struct(Book)55_storage)"
					},
					{
						"astId": 67,
						"contract": "Book.sol:BookContract",
						"label": "bookExist",
						"offset": 0,
						"slot": "6",
						"type": "t_mapping(t_bytes32,t_bool)"
					},
					{
						"astId": 72,
						"contract": "Book.sol:BookContract",
						"label": "borrowedHistory",
						"offset": 0,
						"slot": "7",
						"type": "t_mapping(t_uint256,t_array(t_address)dyn_storage)"
					}
				],
				"types": {
					"t_address": {
						"encoding": "inplace",
						"label": "address",
						"numberOfBytes": "20"
					},
					"t_address_payable": {
						"encoding": "inplace",
						"label": "address payable",
						"numberOfBytes": "20"
					},
					"t_array(t_address)dyn_storage": {
						"base": "t_address",
						"encoding": "dynamic_array",
						"label": "address[]",
						"numberOfBytes": "32"
					},
					"t_array(t_uint256)dyn_storage": {
						"base": "t_uint256",
						"encoding": "dynamic_array",
						"label": "uint256[]",
						"numberOfBytes": "32"
					},
					"t_bool": {
						"encoding": "inplace",
						"label": "bool",
						"numberOfBytes": "1"
					},
					"t_bytes32": {
						"encoding": "inplace",
						"label": "bytes32",
						"numberOfBytes": "32"
					},
					"t_contract(MemberContract)523": {
						"encoding": "inplace",
						"label": "contract MemberContract",
						"numberOfBytes": "20"
					},
					"t_mapping(t_bytes32,t_bool)": {
						"encoding": "mapping",
						"key": "t_bytes32",
						"label": "mapping(bytes32 => bool)",
						"numberOfBytes": "32",
						"value": "t_bool"
					},
					"t_mapping(t_uint256,t_array(t_address)dyn_storage)": {
						"encoding": "mapping",
						"key": "t_uint256",
						"label": "mapping(uint256 => address[])",
						"numberOfBytes": "32",
						"value": "t_array(t_address)dyn_storage"
					},
					"t_mapping(t_uint256,t_struct(Book)55_storage)": {
						"encoding": "mapping",
						"key": "t_uint256",
						"label": "mapping(uint256 => struct BookContract.Book)",
						"numberOfBytes": "32",
						"value": "t_struct(Book)55_storage"
					},
					"t_string_storage": {
						"encoding": "bytes",
						"label": "string",
						"numberOfBytes": "32"
					},
					"t_struct(Book)55_storage": {
						"encoding": "inplace",
						"label": "struct BookContract.Book",
						"members": [
							{
								"astId": 38,
								"contract": "Book.sol:BookContract",
								"label": "ID",
								"offset": 0,
								"slot": "0",
								"type": "t_uint256"
							},
							{
								"astId": 40,
								"contract": "Book.sol:BookContract",
								"label": "title",
								"offset": 0,
								"slot": "1",
								"type": "t_string_storage"
							},
							{
								"astId": 42,
								"contract": "Book.sol:BookContract",
								"label": "author",
								"offset": 0,
								"slot": "2",
								"type": "t_string_storage"
							},
							{
								"astId": 44,
								"contract": "Book.sol:BookContract",
								"label": "genre",
								"offset": 0,
								"slot": "3",
								"type": "t_string_storage"
							},
							{
								"astId": 46,
								"contract": "Book.sol:BookContract",
								"label": "quantity",
								"offset": 0,
								"slot": "4",
								"type": "t_uint256"
							},
							{
								"astId": 48,
								"contract": "Book.sol:BookContract",
								"label": "price",
								"offset": 0,
								"slot": "5",
								"type": "t_uint256"
							},
							{
								"astId": 50,
								"contract": "Book.sol:BookContract",
								"label": "borrowFee",
								"offset": 0,
								"slot": "6",
								"type": "t_uint256"
							},
							{
								"astId": 52,
								"contract": "Book.sol:BookContract",
								"label": "exists",
								"offset": 0,
								"slot": "7",
								"type": "t_bool"
							},
							{
								"astId": 54,
								"contract": "Book.sol:BookContract",
								"label": "date",
								"offset": 0,
								"slot": "8",
								"type": "t_uint256"
							}
						],
						"numberOfBytes": "288"
					},
					"t_uint256": {
						"encoding": "inplace",
						"label": "uint256",
						"numberOfBytes": "32"
					}
				}
			},
			"userdoc": {
				"kind": "user",
				"methods": {},
				"version": 1
			}
		}
	}
}